{
	"contracts/cookie-jar.sol": {
		"nCookieJar": {
			"abi": [
				{
					"inputs": [],
					"name": "InvalidInitialization",
					"type": "error"
				},
				{
					"inputs": [],
					"name": "NotInitializing",
					"type": "error"
				},
				{
					"inputs": [
						{
							"internalType": "address",
							"name": "owner",
							"type": "address"
						}
					],
					"name": "OwnableInvalidOwner",
					"type": "error"
				},
				{
					"inputs": [
						{
							"internalType": "address",
							"name": "account",
							"type": "address"
						}
					],
					"name": "OwnableUnauthorizedAccount",
					"type": "error"
				},
				{
					"inputs": [
						{
							"internalType": "address",
							"name": "token",
							"type": "address"
						}
					],
					"name": "SafeERC20FailedOperation",
					"type": "error"
				},
				{
					"anonymous": false,
					"inputs": [
						{
							"indexed": true,
							"internalType": "address",
							"name": "user",
							"type": "address"
						},
						{
							"indexed": true,
							"internalType": "address",
							"name": "token",
							"type": "address"
						},
						{
							"indexed": false,
							"internalType": "uint256",
							"name": "newAmount",
							"type": "uint256"
						}
					],
					"name": "AllowedAmountUpdated",
					"type": "event"
				},
				{
					"anonymous": false,
					"inputs": [
						{
							"indexed": true,
							"internalType": "address",
							"name": "claimant",
							"type": "address"
						},
						{
							"indexed": true,
							"internalType": "address",
							"name": "token",
							"type": "address"
						},
						{
							"indexed": false,
							"internalType": "uint256",
							"name": "amount",
							"type": "uint256"
						}
					],
					"name": "Claimed",
					"type": "event"
				},
				{
					"anonymous": false,
					"inputs": [
						{
							"indexed": true,
							"internalType": "address",
							"name": "depositor",
							"type": "address"
						},
						{
							"indexed": true,
							"internalType": "address",
							"name": "token",
							"type": "address"
						},
						{
							"indexed": false,
							"internalType": "uint256",
							"name": "amount",
							"type": "uint256"
						}
					],
					"name": "Deposit",
					"type": "event"
				},
				{
					"anonymous": false,
					"inputs": [
						{
							"indexed": false,
							"internalType": "uint64",
							"name": "version",
							"type": "uint64"
						}
					],
					"name": "Initialized",
					"type": "event"
				},
				{
					"anonymous": false,
					"inputs": [
						{
							"indexed": true,
							"internalType": "address",
							"name": "previousOwner",
							"type": "address"
						},
						{
							"indexed": true,
							"internalType": "address",
							"name": "newOwner",
							"type": "address"
						}
					],
					"name": "OwnershipTransferred",
					"type": "event"
				},
				{
					"anonymous": false,
					"inputs": [
						{
							"indexed": false,
							"internalType": "uint256",
							"name": "start",
							"type": "uint256"
						},
						{
							"indexed": false,
							"internalType": "uint256",
							"name": "end",
							"type": "uint256"
						},
						{
							"indexed": false,
							"internalType": "string",
							"name": "metadataURI",
							"type": "string"
						}
					],
					"name": "RoundUpdated",
					"type": "event"
				},
				{
					"anonymous": false,
					"inputs": [
						{
							"indexed": true,
							"internalType": "address",
							"name": "withdrawer",
							"type": "address"
						},
						{
							"indexed": true,
							"internalType": "address",
							"name": "token",
							"type": "address"
						},
						{
							"indexed": false,
							"internalType": "uint256",
							"name": "amount",
							"type": "uint256"
						}
					],
					"name": "Withdraw",
					"type": "event"
				},
				{
					"inputs": [],
					"name": "ETHER",
					"outputs": [
						{
							"internalType": "address",
							"name": "",
							"type": "address"
						}
					],
					"stateMutability": "view",
					"type": "function"
				},
				{
					"inputs": [
						{
							"internalType": "address",
							"name": "",
							"type": "address"
						},
						{
							"internalType": "address",
							"name": "",
							"type": "address"
						}
					],
					"name": "allowedAmounts",
					"outputs": [
						{
							"internalType": "uint256",
							"name": "",
							"type": "uint256"
						}
					],
					"stateMutability": "view",
					"type": "function"
				},
				{
					"inputs": [
						{
							"internalType": "address",
							"name": "token",
							"type": "address"
						}
					],
					"name": "claim",
					"outputs": [],
					"stateMutability": "nonpayable",
					"type": "function"
				},
				{
					"inputs": [],
					"name": "currentRound",
					"outputs": [
						{
							"internalType": "uint256",
							"name": "start",
							"type": "uint256"
						},
						{
							"internalType": "uint256",
							"name": "end",
							"type": "uint256"
						},
						{
							"internalType": "string",
							"name": "metadataURI",
							"type": "string"
						}
					],
					"stateMutability": "view",
					"type": "function"
				},
				{
					"inputs": [
						{
							"internalType": "address",
							"name": "token",
							"type": "address"
						},
						{
							"internalType": "uint256",
							"name": "amount",
							"type": "uint256"
						}
					],
					"name": "deposit",
					"outputs": [],
					"stateMutability": "payable",
					"type": "function"
				},
				{
					"inputs": [
						{
							"internalType": "address",
							"name": "_scorer",
							"type": "address"
						},
						{
							"internalType": "address",
							"name": "owner",
							"type": "address"
						}
					],
					"name": "initialize",
					"outputs": [],
					"stateMutability": "nonpayable",
					"type": "function"
				},
				{
					"inputs": [],
					"name": "owner",
					"outputs": [
						{
							"internalType": "address",
							"name": "",
							"type": "address"
						}
					],
					"stateMutability": "view",
					"type": "function"
				},
				{
					"inputs": [],
					"name": "renounceOwnership",
					"outputs": [],
					"stateMutability": "nonpayable",
					"type": "function"
				},
				{
					"inputs": [],
					"name": "scorer",
					"outputs": [
						{
							"internalType": "contract IScorer",
							"name": "",
							"type": "address"
						}
					],
					"stateMutability": "view",
					"type": "function"
				},
				{
					"inputs": [
						{
							"internalType": "address",
							"name": "user",
							"type": "address"
						},
						{
							"internalType": "address",
							"name": "token",
							"type": "address"
						},
						{
							"internalType": "uint256",
							"name": "amount",
							"type": "uint256"
						}
					],
					"name": "setAllowedAmount",
					"outputs": [],
					"stateMutability": "nonpayable",
					"type": "function"
				},
				{
					"inputs": [
						{
							"internalType": "uint256",
							"name": "start",
							"type": "uint256"
						},
						{
							"internalType": "uint256",
							"name": "end",
							"type": "uint256"
						},
						{
							"internalType": "string",
							"name": "metadataURI",
							"type": "string"
						}
					],
					"name": "setRound",
					"outputs": [],
					"stateMutability": "nonpayable",
					"type": "function"
				},
				{
					"inputs": [
						{
							"internalType": "address",
							"name": "",
							"type": "address"
						}
					],
					"name": "totalBalances",
					"outputs": [
						{
							"internalType": "uint256",
							"name": "",
							"type": "uint256"
						}
					],
					"stateMutability": "view",
					"type": "function"
				},
				{
					"inputs": [
						{
							"internalType": "address",
							"name": "newOwner",
							"type": "address"
						}
					],
					"name": "transferOwnership",
					"outputs": [],
					"stateMutability": "nonpayable",
					"type": "function"
				},
				{
					"inputs": [
						{
							"internalType": "address",
							"name": "token",
							"type": "address"
						},
						{
							"internalType": "uint256",
							"name": "amount",
							"type": "uint256"
						}
					],
					"name": "withdraw",
					"outputs": [],
					"stateMutability": "nonpayable",
					"type": "function"
				},
				{
					"stateMutability": "payable",
					"type": "receive"
				}
			],
			"devdoc": {
				"errors": {
					"InvalidInitialization()": [
						{
							"details": "The contract is already initialized."
						}
					],
					"NotInitializing()": [
						{
							"details": "The contract is not initializing."
						}
					],
					"OwnableInvalidOwner(address)": [
						{
							"details": "The owner is not a valid owner account. (eg. `address(0)`)"
						}
					],
					"OwnableUnauthorizedAccount(address)": [
						{
							"details": "The caller account is not authorized to perform an operation."
						}
					],
					"SafeERC20FailedOperation(address)": [
						{
							"details": "An operation with an ERC-20 token failed."
						}
					]
				},
				"events": {
					"Initialized(uint64)": {
						"details": "Triggered when the contract has been initialized or reinitialized."
					}
				},
				"kind": "dev",
				"methods": {
					"deposit(address,uint256)": {
						"params": {
							"amount": "The value to add (in wei for Ether).",
							"token": "The token address (address(0) for Ether)."
						}
					},
					"initialize(address,address)": {
						"params": {
							"_scorer": "The scoring contract address.",
							"owner": "The owner address."
						}
					},
					"owner()": {
						"details": "Returns the address of the current owner."
					},
					"renounceOwnership()": {
						"details": "Leaves the contract without owner. It will not be possible to call `onlyOwner` functions. Can only be called by the current owner. NOTE: Renouncing ownership will leave the contract without an owner, thereby disabling any functionality that is only available to the owner."
					},
					"setAllowedAmount(address,address,uint256)": {
						"params": {
							"amount": "The allowed amount for the user.",
							"token": "The token address.",
							"user": "The address of the user."
						}
					},
					"setRound(uint256,uint256,string)": {
						"params": {
							"end": "The end timestamp of the round.",
							"metadataURI": "The IPFS URI for the round metadata.",
							"start": "The start timestamp of the round."
						}
					},
					"transferOwnership(address)": {
						"details": "Transfers ownership of the contract to a new account (`newOwner`). Can only be called by the current owner."
					},
					"withdraw(address,uint256)": {
						"params": {
							"amount": "The amount to withdraw.",
							"token": "The token address (address(0) for Ether)."
						}
					}
				},
				"version": 1
			},
			"evm": {
				"assembly": "    /* \"contracts/cookie-jar.sol\":367:5584  contract nCookieJar is OwnableUpgradeable {... */\n  mstore(0x40, 0x80)\n  callvalue\n  dup1\n  iszero\n  tag_1\n  jumpi\n  revert(0x00, 0x00)\ntag_1:\n  pop\n  dataSize(sub_0)\n  dup1\n  dataOffset(sub_0)\n  0x00\n  codecopy\n  0x00\n  return\nstop\n\nsub_0: assembly {\n        /* \"contracts/cookie-jar.sol\":367:5584  contract nCookieJar is OwnableUpgradeable {... */\n      mstore(0x40, 0x80)\n      jumpi(tag_1, lt(calldatasize, 0x04))\n      shr(0xe0, calldataload(0x00))\n      dup1\n      0x8da5cb5b\n      gt\n      tag_17\n      jumpi\n      dup1\n      0xb807a3c4\n      gt\n      tag_18\n      jumpi\n      dup1\n      0xb807a3c4\n      eq\n      tag_13\n      jumpi\n      dup1\n      0xbe9a7687\n      eq\n      tag_14\n      jumpi\n      dup1\n      0xf2fde38b\n      eq\n      tag_15\n      jumpi\n      dup1\n      0xf3fef3a3\n      eq\n      tag_16\n      jumpi\n      jump(tag_2)\n    tag_18:\n      dup1\n      0x8da5cb5b\n      eq\n      tag_10\n      jumpi\n      dup1\n      0xa9590e8a\n      eq\n      tag_11\n      jumpi\n      dup1\n      0xaee9c872\n      eq\n      tag_12\n      jumpi\n      jump(tag_2)\n    tag_17:\n      dup1\n      0x485cc955\n      gt\n      tag_19\n      jumpi\n      dup1\n      0x485cc955\n      eq\n      tag_6\n      jumpi\n      dup1\n      0x715018a6\n      eq\n      tag_7\n      jumpi\n      dup1\n      0x85c758f7\n      eq\n      tag_8\n      jumpi\n      dup1\n      0x8a19c8bc\n      eq\n      tag_9\n      jumpi\n      jump(tag_2)\n    tag_19:\n      dup1\n      0x1e83409a\n      eq\n      tag_3\n      jumpi\n      dup1\n      0x42cb1fbc\n      eq\n      tag_4\n      jumpi\n      dup1\n      0x47e7ef24\n      eq\n      tag_5\n      jumpi\n      jump(tag_2)\n    tag_1:\n      jumpi(tag_2, calldatasize)\n        /* \"contracts/cookie-jar.sol\":5511:5520  msg.value */\n      callvalue\n        /* \"contracts/cookie-jar.sol\":5487:5500  totalBalances */\n      0x04\n        /* \"contracts/cookie-jar.sol\":5487:5507  totalBalances[ETHER] */\n      0x00\n        /* \"contracts/cookie-jar.sol\":491:492  0 */\n      0x00\n        /* \"contracts/cookie-jar.sol\":5487:5507  totalBalances[ETHER] */\n      0xffffffffffffffffffffffffffffffffffffffff\n      and\n      0xffffffffffffffffffffffffffffffffffffffff\n      and\n      dup2\n      mstore\n      0x20\n      add\n      swap1\n      dup2\n      mstore\n      0x20\n      add\n      0x00\n      keccak256\n      0x00\n        /* \"contracts/cookie-jar.sol\":5487:5520  totalBalances[ETHER] += msg.value */\n      dup3\n      dup3\n      sload\n      tag_22\n      swap2\n      swap1\n      tag_23\n      jump\t// in\n    tag_22:\n      swap3\n      pop\n      pop\n      dup2\n      swap1\n      sstore\n      pop\n        /* \"contracts/cookie-jar.sol\":491:492  0 */\n      0x00\n        /* \"contracts/cookie-jar.sol\":5536:5573  Deposit(msg.sender, ETHER, msg.value) */\n      0xffffffffffffffffffffffffffffffffffffffff\n      and\n        /* \"contracts/cookie-jar.sol\":5544:5554  msg.sender */\n      caller\n        /* \"contracts/cookie-jar.sol\":5536:5573  Deposit(msg.sender, ETHER, msg.value) */\n      0xffffffffffffffffffffffffffffffffffffffff\n      and\n      0x5548c837ab068cf56a2c2479df0882a4922fd203edb7517321831d95078c5f62\n        /* \"contracts/cookie-jar.sol\":5563:5572  msg.value */\n      callvalue\n        /* \"contracts/cookie-jar.sol\":5536:5573  Deposit(msg.sender, ETHER, msg.value) */\n      mload(0x40)\n      tag_24\n      swap2\n      swap1\n      tag_25\n      jump\t// in\n    tag_24:\n      mload(0x40)\n      dup1\n      swap2\n      sub\n      swap1\n      log3\n        /* \"contracts/cookie-jar.sol\":367:5584  contract nCookieJar is OwnableUpgradeable {... */\n      stop\n    tag_2:\n      revert(0x00, 0x00)\n        /* \"contracts/cookie-jar.sol\":2620:3647  function claim(address token) external {... */\n    tag_3:\n      callvalue\n      dup1\n      iszero\n      tag_26\n      jumpi\n      revert(0x00, 0x00)\n    tag_26:\n      pop\n      tag_27\n      0x04\n      dup1\n      calldatasize\n      sub\n      dup2\n      add\n      swap1\n      tag_28\n      swap2\n      swap1\n      tag_29\n      jump\t// in\n    tag_28:\n      tag_30\n      jump\t// in\n    tag_27:\n      stop\n        /* \"contracts/cookie-jar.sol\":451:493  address public constant ETHER = address(0) */\n    tag_4:\n      callvalue\n      dup1\n      iszero\n      tag_31\n      jumpi\n      revert(0x00, 0x00)\n    tag_31:\n      pop\n      tag_32\n      tag_33\n      jump\t// in\n    tag_32:\n      mload(0x40)\n      tag_34\n      swap2\n      swap1\n      tag_35\n      jump\t// in\n    tag_34:\n      mload(0x40)\n      dup1\n      swap2\n      sub\n      swap1\n      return\n        /* \"contracts/cookie-jar.sol\":2082:2535  function deposit(address token, uint256 amount) external payable {... */\n    tag_5:\n      tag_36\n      0x04\n      dup1\n      calldatasize\n      sub\n      dup2\n      add\n      swap1\n      tag_37\n      swap2\n      swap1\n      tag_38\n      jump\t// in\n    tag_37:\n      tag_39\n      jump\t// in\n    tag_36:\n      stop\n        /* \"contracts/cookie-jar.sol\":1682:1864  function initialize(address _scorer, address owner) external initializer {... */\n    tag_6:\n      callvalue\n      dup1\n      iszero\n      tag_40\n      jumpi\n      revert(0x00, 0x00)\n    tag_40:\n      pop\n      tag_41\n      0x04\n      dup1\n      calldatasize\n      sub\n      dup2\n      add\n      swap1\n      tag_42\n      swap2\n      swap1\n      tag_43\n      jump\t// in\n    tag_42:\n      tag_44\n      jump\t// in\n    tag_41:\n      stop\n        /* \"@openzeppelin/contracts-upgradeable/access/OwnableUpgradeable.sol\":3155:3256  function renounceOwnership() public virtual onlyOwner {... */\n    tag_7:\n      callvalue\n      dup1\n      iszero\n      tag_45\n      jumpi\n      revert(0x00, 0x00)\n    tag_45:\n      pop\n      tag_46\n      tag_47\n      jump\t// in\n    tag_46:\n      stop\n        /* \"contracts/cookie-jar.sol\":525:546  IScorer public scorer */\n    tag_8:\n      callvalue\n      dup1\n      iszero\n      tag_48\n      jumpi\n      revert(0x00, 0x00)\n    tag_48:\n      pop\n      tag_49\n      tag_50\n      jump\t// in\n    tag_49:\n      mload(0x40)\n      tag_51\n      swap2\n      swap1\n      tag_52\n      jump\t// in\n    tag_51:\n      mload(0x40)\n      dup1\n      swap2\n      sub\n      swap1\n      return\n        /* \"contracts/cookie-jar.sol\":788:813  Round public currentRound */\n    tag_9:\n      callvalue\n      dup1\n      iszero\n      tag_53\n      jumpi\n      revert(0x00, 0x00)\n    tag_53:\n      pop\n      tag_54\n      tag_55\n      jump\t// in\n    tag_54:\n      mload(0x40)\n      tag_56\n      swap4\n      swap3\n      swap2\n      swap1\n      tag_57\n      jump\t// in\n    tag_56:\n      mload(0x40)\n      dup1\n      swap2\n      sub\n      swap1\n      return\n        /* \"@openzeppelin/contracts-upgradeable/access/OwnableUpgradeable.sol\":2441:2585  function owner() public view virtual returns (address) {... */\n    tag_10:\n      callvalue\n      dup1\n      iszero\n      tag_58\n      jumpi\n      revert(0x00, 0x00)\n    tag_58:\n      pop\n      tag_59\n      tag_60\n      jump\t// in\n    tag_59:\n      mload(0x40)\n      tag_61\n      swap2\n      swap1\n      tag_35\n      jump\t// in\n    tag_61:\n      mload(0x40)\n      dup1\n      swap2\n      sub\n      swap1\n      return\n        /* \"contracts/cookie-jar.sol\":1002:1071  mapping(address => mapping(address => uint256)) public allowedAmounts */\n    tag_11:\n      callvalue\n      dup1\n      iszero\n      tag_62\n      jumpi\n      revert(0x00, 0x00)\n    tag_62:\n      pop\n      tag_63\n      0x04\n      dup1\n      calldatasize\n      sub\n      dup2\n      add\n      swap1\n      tag_64\n      swap2\n      swap1\n      tag_43\n      jump\t// in\n    tag_64:\n      tag_65\n      jump\t// in\n    tag_63:\n      mload(0x40)\n      tag_66\n      swap2\n      swap1\n      tag_25\n      jump\t// in\n    tag_66:\n      mload(0x40)\n      dup1\n      swap2\n      sub\n      swap1\n      return\n        /* \"contracts/cookie-jar.sol\":904:952  mapping(address => uint256) public totalBalances */\n    tag_12:\n      callvalue\n      dup1\n      iszero\n      tag_67\n      jumpi\n      revert(0x00, 0x00)\n    tag_67:\n      pop\n      tag_68\n      0x04\n      dup1\n      calldatasize\n      sub\n      dup2\n      add\n      swap1\n      tag_69\n      swap2\n      swap1\n      tag_29\n      jump\t// in\n    tag_69:\n      tag_70\n      jump\t// in\n    tag_68:\n      mload(0x40)\n      tag_71\n      swap2\n      swap1\n      tag_25\n      jump\t// in\n    tag_71:\n      mload(0x40)\n      dup1\n      swap2\n      sub\n      swap1\n      return\n        /* \"contracts/cookie-jar.sol\":3879:4081  function setAllowedAmount(address user, address token, uint256 amount) external onlyOwner {... */\n    tag_13:\n      callvalue\n      dup1\n      iszero\n      tag_72\n      jumpi\n      revert(0x00, 0x00)\n    tag_72:\n      pop\n      tag_73\n      0x04\n      dup1\n      calldatasize\n      sub\n      dup2\n      add\n      swap1\n      tag_74\n      swap2\n      swap1\n      tag_75\n      jump\t// in\n    tag_74:\n      tag_76\n      jump\t// in\n    tag_73:\n      stop\n        /* \"contracts/cookie-jar.sol\":4330:4608  function setRound(uint256 start, uint256 end, string memory metadataURI) external onlyOwner {... */\n    tag_14:\n      callvalue\n      dup1\n      iszero\n      tag_77\n      jumpi\n      revert(0x00, 0x00)\n    tag_77:\n      pop\n      tag_78\n      0x04\n      dup1\n      calldatasize\n      sub\n      dup2\n      add\n      swap1\n      tag_79\n      swap2\n      swap1\n      tag_80\n      jump\t// in\n    tag_79:\n      tag_81\n      jump\t// in\n    tag_78:\n      stop\n        /* \"@openzeppelin/contracts-upgradeable/access/OwnableUpgradeable.sol\":3405:3620  function transferOwnership(address newOwner) public virtual onlyOwner {... */\n    tag_15:\n      callvalue\n      dup1\n      iszero\n      tag_82\n      jumpi\n      revert(0x00, 0x00)\n    tag_82:\n      pop\n      tag_83\n      0x04\n      dup1\n      calldatasize\n      sub\n      dup2\n      add\n      swap1\n      tag_84\n      swap2\n      swap1\n      tag_29\n      jump\t// in\n    tag_84:\n      tag_85\n      jump\t// in\n    tag_83:\n      stop\n        /* \"contracts/cookie-jar.sol\":4813:5370  function withdraw(address token, uint256 amount) external onlyOwner {... */\n    tag_16:\n      callvalue\n      dup1\n      iszero\n      tag_86\n      jumpi\n      revert(0x00, 0x00)\n    tag_86:\n      pop\n      tag_87\n      0x04\n      dup1\n      calldatasize\n      sub\n      dup2\n      add\n      swap1\n      tag_88\n      swap2\n      swap1\n      tag_38\n      jump\t// in\n    tag_88:\n      tag_89\n      jump\t// in\n    tag_87:\n      stop\n        /* \"contracts/cookie-jar.sol\":2620:3647  function claim(address token) external {... */\n    tag_30:\n        /* \"contracts/cookie-jar.sol\":2697:2709  currentRound */\n      0x01\n        /* \"contracts/cookie-jar.sol\":2697:2715  currentRound.start */\n      0x00\n      add\n      sload\n        /* \"contracts/cookie-jar.sol\":2678:2693  block.timestamp */\n      timestamp\n        /* \"contracts/cookie-jar.sol\":2678:2715  block.timestamp >= currentRound.start */\n      lt\n      iszero\n        /* \"contracts/cookie-jar.sol\":2678:2754  block.timestamp >= currentRound.start && block.timestamp <= currentRound.end */\n      dup1\n      iszero\n      tag_91\n      jumpi\n      pop\n        /* \"contracts/cookie-jar.sol\":2738:2750  currentRound */\n      0x01\n        /* \"contracts/cookie-jar.sol\":2738:2754  currentRound.end */\n      dup1\n      add\n      sload\n        /* \"contracts/cookie-jar.sol\":2719:2734  block.timestamp */\n      timestamp\n        /* \"contracts/cookie-jar.sol\":2719:2754  block.timestamp <= currentRound.end */\n      gt\n      iszero\n        /* \"contracts/cookie-jar.sol\":2678:2754  block.timestamp >= currentRound.start && block.timestamp <= currentRound.end */\n    tag_91:\n        /* \"contracts/cookie-jar.sol\":2670:2784  require(block.timestamp >= currentRound.start && block.timestamp <= currentRound.end, \"Not within round duration\") */\n      tag_92\n      jumpi\n      mload(0x40)\n      0x08c379a000000000000000000000000000000000000000000000000000000000\n      dup2\n      mstore\n      0x04\n      add\n      tag_93\n      swap1\n      tag_94\n      jump\t// in\n    tag_93:\n      mload(0x40)\n      dup1\n      swap2\n      sub\n      swap1\n      revert\n    tag_92:\n        /* \"contracts/cookie-jar.sol\":2797:2822  uint256 userAllowedAmount */\n      0x00\n        /* \"contracts/cookie-jar.sol\":2825:2839  allowedAmounts */\n      0x05\n        /* \"contracts/cookie-jar.sol\":2825:2851  allowedAmounts[msg.sender] */\n      0x00\n        /* \"contracts/cookie-jar.sol\":2840:2850  msg.sender */\n      caller\n        /* \"contracts/cookie-jar.sol\":2825:2851  allowedAmounts[msg.sender] */\n      0xffffffffffffffffffffffffffffffffffffffff\n      and\n      0xffffffffffffffffffffffffffffffffffffffff\n      and\n      dup2\n      mstore\n      0x20\n      add\n      swap1\n      dup2\n      mstore\n      0x20\n      add\n      0x00\n      keccak256\n        /* \"contracts/cookie-jar.sol\":2825:2858  allowedAmounts[msg.sender][token] */\n      0x00\n        /* \"contracts/cookie-jar.sol\":2852:2857  token */\n      dup4\n        /* \"contracts/cookie-jar.sol\":2825:2858  allowedAmounts[msg.sender][token] */\n      0xffffffffffffffffffffffffffffffffffffffff\n      and\n      0xffffffffffffffffffffffffffffffffffffffff\n      and\n      dup2\n      mstore\n      0x20\n      add\n      swap1\n      dup2\n      mstore\n      0x20\n      add\n      0x00\n      keccak256\n      sload\n        /* \"contracts/cookie-jar.sol\":2797:2858  uint256 userAllowedAmount = allowedAmounts[msg.sender][token] */\n      swap1\n      pop\n        /* \"contracts/cookie-jar.sol\":2897:2898  0 */\n      0x00\n        /* \"contracts/cookie-jar.sol\":2877:2894  userAllowedAmount */\n      dup2\n        /* \"contracts/cookie-jar.sol\":2877:2898  userAllowedAmount > 0 */\n      gt\n        /* \"contracts/cookie-jar.sol\":2869:2922  require(userAllowedAmount > 0, \"No claimable amount\") */\n      tag_95\n      jumpi\n      mload(0x40)\n      0x08c379a000000000000000000000000000000000000000000000000000000000\n      dup2\n      mstore\n      0x04\n      add\n      tag_96\n      swap1\n      tag_97\n      jump\t// in\n    tag_96:\n      mload(0x40)\n      dup1\n      swap2\n      sub\n      swap1\n      revert\n    tag_95:\n        /* \"contracts/cookie-jar.sol\":2965:2982  userAllowedAmount */\n      dup1\n        /* \"contracts/cookie-jar.sol\":2941:2954  totalBalances */\n      0x04\n        /* \"contracts/cookie-jar.sol\":2941:2961  totalBalances[token] */\n      0x00\n        /* \"contracts/cookie-jar.sol\":2955:2960  token */\n      dup5\n        /* \"contracts/cookie-jar.sol\":2941:2961  totalBalances[token] */\n      0xffffffffffffffffffffffffffffffffffffffff\n      and\n      0xffffffffffffffffffffffffffffffffffffffff\n      and\n      dup2\n      mstore\n      0x20\n      add\n      swap1\n      dup2\n      mstore\n      0x20\n      add\n      0x00\n      keccak256\n      sload\n        /* \"contracts/cookie-jar.sol\":2941:2982  totalBalances[token] >= userAllowedAmount */\n      lt\n      iszero\n        /* \"contracts/cookie-jar.sol\":2933:3012  require(totalBalances[token] >= userAllowedAmount, \"Insufficient funds in jar\") */\n      tag_98\n      jumpi\n      mload(0x40)\n      0x08c379a000000000000000000000000000000000000000000000000000000000\n      dup2\n      mstore\n      0x04\n      add\n      tag_99\n      swap1\n      tag_100\n      jump\t// in\n    tag_99:\n      mload(0x40)\n      dup1\n      swap2\n      sub\n      swap1\n      revert\n    tag_98:\n        /* \"contracts/cookie-jar.sol\":3082:3098  bytes32 trustKey */\n      0x00\n        /* \"contracts/cookie-jar.sol\":3101:3119  keccak256(\"Trust\") */\n      0x63608faae6311ef53110180034271a9b97988ebe924a609749732bc2f158407b\n        /* \"contracts/cookie-jar.sol\":3082:3119  bytes32 trustKey = keccak256(\"Trust\") */\n      swap1\n      pop\n        /* \"contracts/cookie-jar.sol\":3175:3176  0 */\n      0x00\n        /* \"contracts/cookie-jar.sol\":3138:3144  scorer */\n      0x00\n      0x00\n      swap1\n      sload\n      swap1\n      0x0100\n      exp\n      swap1\n      div\n      0xffffffffffffffffffffffffffffffffffffffff\n      and\n        /* \"contracts/cookie-jar.sol\":3138:3150  scorer.score */\n      0xffffffffffffffffffffffffffffffffffffffff\n      and\n      0xfaa5e295\n        /* \"contracts/cookie-jar.sol\":3151:3161  msg.sender */\n      caller\n        /* \"contracts/cookie-jar.sol\":3163:3171  trustKey */\n      dup5\n        /* \"contracts/cookie-jar.sol\":3138:3172  scorer.score(msg.sender, trustKey) */\n      mload(0x40)\n      dup4\n      0xffffffff\n      and\n      0xe0\n      shl\n      dup2\n      mstore\n      0x04\n      add\n      tag_101\n      swap3\n      swap2\n      swap1\n      tag_102\n      jump\t// in\n    tag_101:\n      0x20\n      mload(0x40)\n      dup1\n      dup4\n      sub\n      dup2\n      dup7\n      gas\n      staticcall\n      iszero\n      dup1\n      iszero\n      tag_104\n      jumpi\n      returndatacopy(0x00, 0x00, returndatasize)\n      revert(0x00, returndatasize)\n    tag_104:\n      pop\n      pop\n      pop\n      pop\n      mload(0x40)\n      returndatasize\n      not(0x1f)\n      0x1f\n      dup3\n      add\n      and\n      dup3\n      add\n      dup1\n      0x40\n      mstore\n      pop\n      dup2\n      add\n      swap1\n      tag_105\n      swap2\n      swap1\n      tag_106\n      jump\t// in\n    tag_105:\n        /* \"contracts/cookie-jar.sol\":3138:3176  scorer.score(msg.sender, trustKey) > 0 */\n      gt\n        /* \"contracts/cookie-jar.sol\":3130:3205  require(scorer.score(msg.sender, trustKey) > 0, \"Insufficient Trust score\") */\n      tag_107\n      jumpi\n      mload(0x40)\n      0x08c379a000000000000000000000000000000000000000000000000000000000\n      dup2\n      mstore\n      0x04\n      add\n      tag_108\n      swap1\n      tag_109\n      jump\t// in\n    tag_108:\n      mload(0x40)\n      dup1\n      swap2\n      sub\n      swap1\n      revert\n    tag_107:\n        /* \"contracts/cookie-jar.sol\":3254:3255  0 */\n      0x00\n        /* \"contracts/cookie-jar.sol\":3218:3232  allowedAmounts */\n      0x05\n        /* \"contracts/cookie-jar.sol\":3218:3244  allowedAmounts[msg.sender] */\n      0x00\n        /* \"contracts/cookie-jar.sol\":3233:3243  msg.sender */\n      caller\n        /* \"contracts/cookie-jar.sol\":3218:3244  allowedAmounts[msg.sender] */\n      0xffffffffffffffffffffffffffffffffffffffff\n      and\n      0xffffffffffffffffffffffffffffffffffffffff\n      and\n      dup2\n      mstore\n      0x20\n      add\n      swap1\n      dup2\n      mstore\n      0x20\n      add\n      0x00\n      keccak256\n        /* \"contracts/cookie-jar.sol\":3218:3251  allowedAmounts[msg.sender][token] */\n      0x00\n        /* \"contracts/cookie-jar.sol\":3245:3250  token */\n      dup6\n        /* \"contracts/cookie-jar.sol\":3218:3251  allowedAmounts[msg.sender][token] */\n      0xffffffffffffffffffffffffffffffffffffffff\n      and\n      0xffffffffffffffffffffffffffffffffffffffff\n      and\n      dup2\n      mstore\n      0x20\n      add\n      swap1\n      dup2\n      mstore\n      0x20\n      add\n      0x00\n      keccak256\n        /* \"contracts/cookie-jar.sol\":3218:3255  allowedAmounts[msg.sender][token] = 0 */\n      dup2\n      swap1\n      sstore\n      pop\n        /* \"contracts/cookie-jar.sol\":3290:3307  userAllowedAmount */\n      dup2\n        /* \"contracts/cookie-jar.sol\":3266:3279  totalBalances */\n      0x04\n        /* \"contracts/cookie-jar.sol\":3266:3286  totalBalances[token] */\n      0x00\n        /* \"contracts/cookie-jar.sol\":3280:3285  token */\n      dup6\n        /* \"contracts/cookie-jar.sol\":3266:3286  totalBalances[token] */\n      0xffffffffffffffffffffffffffffffffffffffff\n      and\n      0xffffffffffffffffffffffffffffffffffffffff\n      and\n      dup2\n      mstore\n      0x20\n      add\n      swap1\n      dup2\n      mstore\n      0x20\n      add\n      0x00\n      keccak256\n      0x00\n        /* \"contracts/cookie-jar.sol\":3266:3307  totalBalances[token] -= userAllowedAmount */\n      dup3\n      dup3\n      sload\n      tag_110\n      swap2\n      swap1\n      tag_111\n      jump\t// in\n    tag_110:\n      swap3\n      pop\n      pop\n      dup2\n      swap1\n      sstore\n      pop\n        /* \"contracts/cookie-jar.sol\":491:492  0 */\n      0x00\n        /* \"contracts/cookie-jar.sol\":3324:3338  token == ETHER */\n      0xffffffffffffffffffffffffffffffffffffffff\n      and\n        /* \"contracts/cookie-jar.sol\":3324:3329  token */\n      dup4\n        /* \"contracts/cookie-jar.sol\":3324:3338  token == ETHER */\n      0xffffffffffffffffffffffffffffffffffffffff\n      and\n      sub\n        /* \"contracts/cookie-jar.sol\":3320:3577  if (token == ETHER) {... */\n      tag_112\n      jumpi\n        /* \"contracts/cookie-jar.sol\":3356:3368  bool success */\n      0x00\n        /* \"contracts/cookie-jar.sol\":3374:3384  msg.sender */\n      caller\n        /* \"contracts/cookie-jar.sol\":3374:3389  msg.sender.call */\n      0xffffffffffffffffffffffffffffffffffffffff\n      and\n        /* \"contracts/cookie-jar.sol\":3397:3414  userAllowedAmount */\n      dup4\n        /* \"contracts/cookie-jar.sol\":3374:3419  msg.sender.call{value: userAllowedAmount}(\"\") */\n      mload(0x40)\n      tag_113\n      swap1\n      tag_114\n      jump\t// in\n    tag_113:\n      0x00\n      mload(0x40)\n      dup1\n      dup4\n      sub\n      dup2\n      dup6\n      dup8\n      gas\n      call\n      swap3\n      pop\n      pop\n      pop\n      returndatasize\n      dup1\n      0x00\n      dup2\n      eq\n      tag_117\n      jumpi\n      mload(0x40)\n      swap2\n      pop\n      and(add(returndatasize, 0x3f), not(0x1f))\n      dup3\n      add\n      0x40\n      mstore\n      returndatasize\n      dup3\n      mstore\n      returndatasize\n      0x00\n      0x20\n      dup5\n      add\n      returndatacopy\n      jump(tag_116)\n    tag_117:\n      0x60\n      swap2\n      pop\n    tag_116:\n      pop\n        /* \"contracts/cookie-jar.sol\":3355:3419  (bool success, ) = msg.sender.call{value: userAllowedAmount}(\"\") */\n      pop\n      swap1\n      pop\n        /* \"contracts/cookie-jar.sol\":3442:3449  success */\n      dup1\n        /* \"contracts/cookie-jar.sol\":3434:3475  require(success, \"Ether transfer failed\") */\n      tag_118\n      jumpi\n      mload(0x40)\n      0x08c379a000000000000000000000000000000000000000000000000000000000\n      dup2\n      mstore\n      0x04\n      add\n      tag_119\n      swap1\n      tag_120\n      jump\t// in\n    tag_119:\n      mload(0x40)\n      dup1\n      swap2\n      sub\n      swap1\n      revert\n    tag_118:\n        /* \"contracts/cookie-jar.sol\":3340:3487  {... */\n      pop\n        /* \"contracts/cookie-jar.sol\":3320:3577  if (token == ETHER) {... */\n      jump(tag_121)\n    tag_112:\n        /* \"contracts/cookie-jar.sol\":3508:3565  IERC20(token).safeTransfer(msg.sender, userAllowedAmount) */\n      tag_122\n        /* \"contracts/cookie-jar.sol\":3535:3545  msg.sender */\n      caller\n        /* \"contracts/cookie-jar.sol\":3547:3564  userAllowedAmount */\n      dup4\n        /* \"contracts/cookie-jar.sol\":3515:3520  token */\n      dup6\n        /* \"contracts/cookie-jar.sol\":3508:3534  IERC20(token).safeTransfer */\n      0xffffffffffffffffffffffffffffffffffffffff\n      and\n      tag_123\n      swap1\n        /* \"contracts/cookie-jar.sol\":3508:3565  IERC20(token).safeTransfer(msg.sender, userAllowedAmount) */\n      swap3\n      swap2\n      swap1\n      0xffffffff\n      and\n      jump\t// in\n    tag_122:\n        /* \"contracts/cookie-jar.sol\":3320:3577  if (token == ETHER) {... */\n    tag_121:\n        /* \"contracts/cookie-jar.sol\":3614:3619  token */\n      dup3\n        /* \"contracts/cookie-jar.sol\":3594:3639  Claimed(msg.sender, token, userAllowedAmount) */\n      0xffffffffffffffffffffffffffffffffffffffff\n      and\n        /* \"contracts/cookie-jar.sol\":3602:3612  msg.sender */\n      caller\n        /* \"contracts/cookie-jar.sol\":3594:3639  Claimed(msg.sender, token, userAllowedAmount) */\n      0xffffffffffffffffffffffffffffffffffffffff\n      and\n      0xf7a40077ff7a04c7e61f6f26fb13774259ddf1b6bce9ecf26a8276cdd3992683\n        /* \"contracts/cookie-jar.sol\":3621:3638  userAllowedAmount */\n      dup5\n        /* \"contracts/cookie-jar.sol\":3594:3639  Claimed(msg.sender, token, userAllowedAmount) */\n      mload(0x40)\n      tag_124\n      swap2\n      swap1\n      tag_25\n      jump\t// in\n    tag_124:\n      mload(0x40)\n      dup1\n      swap2\n      sub\n      swap1\n      log3\n        /* \"contracts/cookie-jar.sol\":2659:3647  {... */\n      pop\n      pop\n        /* \"contracts/cookie-jar.sol\":2620:3647  function claim(address token) external {... */\n      pop\n      jump\t// out\n        /* \"contracts/cookie-jar.sol\":451:493  address public constant ETHER = address(0) */\n    tag_33:\n        /* \"contracts/cookie-jar.sol\":491:492  0 */\n      0x00\n        /* \"contracts/cookie-jar.sol\":451:493  address public constant ETHER = address(0) */\n      dup2\n      jump\t// out\n        /* \"contracts/cookie-jar.sol\":2082:2535  function deposit(address token, uint256 amount) external payable {... */\n    tag_39:\n        /* \"contracts/cookie-jar.sol\":491:492  0 */\n      0x00\n        /* \"contracts/cookie-jar.sol\":2162:2176  token == ETHER */\n      0xffffffffffffffffffffffffffffffffffffffff\n      and\n        /* \"contracts/cookie-jar.sol\":2162:2167  token */\n      dup3\n        /* \"contracts/cookie-jar.sol\":2162:2176  token == ETHER */\n      0xffffffffffffffffffffffffffffffffffffffff\n      and\n      sub\n        /* \"contracts/cookie-jar.sol\":2158:2435  if (token == ETHER) {... */\n      tag_126\n      jumpi\n        /* \"contracts/cookie-jar.sol\":2214:2220  amount */\n      dup1\n        /* \"contracts/cookie-jar.sol\":2201:2210  msg.value */\n      callvalue\n        /* \"contracts/cookie-jar.sol\":2201:2220  msg.value == amount */\n      eq\n        /* \"contracts/cookie-jar.sol\":2193:2247  require(msg.value == amount, \"Incorrect Ether amount\") */\n      tag_127\n      jumpi\n      mload(0x40)\n      0x08c379a000000000000000000000000000000000000000000000000000000000\n      dup2\n      mstore\n      0x04\n      add\n      tag_128\n      swap1\n      tag_129\n      jump\t// in\n    tag_128:\n      mload(0x40)\n      dup1\n      swap2\n      sub\n      swap1\n      revert\n    tag_127:\n        /* \"contracts/cookie-jar.sol\":2158:2435  if (token == ETHER) {... */\n      jump(tag_130)\n    tag_126:\n        /* \"contracts/cookie-jar.sol\":2297:2298  0 */\n      0x00\n        /* \"contracts/cookie-jar.sol\":2288:2294  amount */\n      dup2\n        /* \"contracts/cookie-jar.sol\":2288:2298  amount > 0 */\n      gt\n        /* \"contracts/cookie-jar.sol\":2280:2343  require(amount > 0, \"Deposit amount must be greater than zero\") */\n      tag_131\n      jumpi\n      mload(0x40)\n      0x08c379a000000000000000000000000000000000000000000000000000000000\n      dup2\n      mstore\n      0x04\n      add\n      tag_132\n      swap1\n      tag_133\n      jump\t// in\n    tag_132:\n      mload(0x40)\n      dup1\n      swap2\n      sub\n      swap1\n      revert\n    tag_131:\n        /* \"contracts/cookie-jar.sol\":2358:2423  IERC20(token).safeTransferFrom(msg.sender, address(this), amount) */\n      tag_134\n        /* \"contracts/cookie-jar.sol\":2389:2399  msg.sender */\n      caller\n        /* \"contracts/cookie-jar.sol\":2409:2413  this */\n      address\n        /* \"contracts/cookie-jar.sol\":2416:2422  amount */\n      dup4\n        /* \"contracts/cookie-jar.sol\":2365:2370  token */\n      dup6\n        /* \"contracts/cookie-jar.sol\":2358:2388  IERC20(token).safeTransferFrom */\n      0xffffffffffffffffffffffffffffffffffffffff\n      and\n      tag_135\n      swap1\n        /* \"contracts/cookie-jar.sol\":2358:2423  IERC20(token).safeTransferFrom(msg.sender, address(this), amount) */\n      swap4\n      swap3\n      swap2\n      swap1\n      0xffffffff\n      and\n      jump\t// in\n    tag_134:\n        /* \"contracts/cookie-jar.sol\":2158:2435  if (token == ETHER) {... */\n    tag_130:\n        /* \"contracts/cookie-jar.sol\":2471:2477  amount */\n      dup1\n        /* \"contracts/cookie-jar.sol\":2447:2460  totalBalances */\n      0x04\n        /* \"contracts/cookie-jar.sol\":2447:2467  totalBalances[token] */\n      0x00\n        /* \"contracts/cookie-jar.sol\":2461:2466  token */\n      dup5\n        /* \"contracts/cookie-jar.sol\":2447:2467  totalBalances[token] */\n      0xffffffffffffffffffffffffffffffffffffffff\n      and\n      0xffffffffffffffffffffffffffffffffffffffff\n      and\n      dup2\n      mstore\n      0x20\n      add\n      swap1\n      dup2\n      mstore\n      0x20\n      add\n      0x00\n      keccak256\n      0x00\n        /* \"contracts/cookie-jar.sol\":2447:2477  totalBalances[token] += amount */\n      dup3\n      dup3\n      sload\n      tag_136\n      swap2\n      swap1\n      tag_23\n      jump\t// in\n    tag_136:\n      swap3\n      pop\n      pop\n      dup2\n      swap1\n      sstore\n      pop\n        /* \"contracts/cookie-jar.sol\":2513:2518  token */\n      dup2\n        /* \"contracts/cookie-jar.sol\":2493:2527  Deposit(msg.sender, token, amount) */\n      0xffffffffffffffffffffffffffffffffffffffff\n      and\n        /* \"contracts/cookie-jar.sol\":2501:2511  msg.sender */\n      caller\n        /* \"contracts/cookie-jar.sol\":2493:2527  Deposit(msg.sender, token, amount) */\n      0xffffffffffffffffffffffffffffffffffffffff\n      and\n      0x5548c837ab068cf56a2c2479df0882a4922fd203edb7517321831d95078c5f62\n        /* \"contracts/cookie-jar.sol\":2520:2526  amount */\n      dup4\n        /* \"contracts/cookie-jar.sol\":2493:2527  Deposit(msg.sender, token, amount) */\n      mload(0x40)\n      tag_137\n      swap2\n      swap1\n      tag_25\n      jump\t// in\n    tag_137:\n      mload(0x40)\n      dup1\n      swap2\n      sub\n      swap1\n      log3\n        /* \"contracts/cookie-jar.sol\":2082:2535  function deposit(address token, uint256 amount) external payable {... */\n      pop\n      pop\n      jump\t// out\n        /* \"contracts/cookie-jar.sol\":1682:1864  function initialize(address _scorer, address owner) external initializer {... */\n    tag_44:\n        /* \"@openzeppelin/contracts-upgradeable/proxy/utils/Initializable.sol\":4158:4188  InitializableStorage storage $ */\n      0x00\n        /* \"@openzeppelin/contracts-upgradeable/proxy/utils/Initializable.sol\":4191:4217  _getInitializableStorage() */\n      tag_139\n        /* \"@openzeppelin/contracts-upgradeable/proxy/utils/Initializable.sol\":4191:4215  _getInitializableStorage */\n      tag_140\n        /* \"@openzeppelin/contracts-upgradeable/proxy/utils/Initializable.sol\":4191:4217  _getInitializableStorage() */\n      jump\t// in\n    tag_139:\n        /* \"@openzeppelin/contracts-upgradeable/proxy/utils/Initializable.sol\":4158:4217  InitializableStorage storage $ = _getInitializableStorage() */\n      swap1\n      pop\n        /* \"@openzeppelin/contracts-upgradeable/proxy/utils/Initializable.sol\":4279:4298  bool isTopLevelCall */\n      0x00\n        /* \"@openzeppelin/contracts-upgradeable/proxy/utils/Initializable.sol\":4302:4303  $ */\n      dup2\n        /* \"@openzeppelin/contracts-upgradeable/proxy/utils/Initializable.sol\":4302:4317  $._initializing */\n      0x00\n      add\n      0x08\n      swap1\n      sload\n      swap1\n      0x0100\n      exp\n      swap1\n      div\n      0xff\n      and\n        /* \"@openzeppelin/contracts-upgradeable/proxy/utils/Initializable.sol\":4301:4317  !$._initializing */\n      iszero\n        /* \"@openzeppelin/contracts-upgradeable/proxy/utils/Initializable.sol\":4279:4317  bool isTopLevelCall = !$._initializing */\n      swap1\n      pop\n        /* \"@openzeppelin/contracts-upgradeable/proxy/utils/Initializable.sol\":4327:4345  uint64 initialized */\n      0x00\n        /* \"@openzeppelin/contracts-upgradeable/proxy/utils/Initializable.sol\":4348:4349  $ */\n      dup3\n        /* \"@openzeppelin/contracts-upgradeable/proxy/utils/Initializable.sol\":4348:4362  $._initialized */\n      0x00\n      add\n      0x00\n      swap1\n      sload\n      swap1\n      0x0100\n      exp\n      swap1\n      div\n      0xffffffffffffffff\n      and\n        /* \"@openzeppelin/contracts-upgradeable/proxy/utils/Initializable.sol\":4327:4362  uint64 initialized = $._initialized */\n      swap1\n      pop\n        /* \"@openzeppelin/contracts-upgradeable/proxy/utils/Initializable.sol\":4706:4723  bool initialSetup */\n      0x00\n        /* \"@openzeppelin/contracts-upgradeable/proxy/utils/Initializable.sol\":4741:4742  0 */\n      0x00\n        /* \"@openzeppelin/contracts-upgradeable/proxy/utils/Initializable.sol\":4726:4737  initialized */\n      dup3\n        /* \"@openzeppelin/contracts-upgradeable/proxy/utils/Initializable.sol\":4726:4742  initialized == 0 */\n      0xffffffffffffffff\n      and\n      eq\n        /* \"@openzeppelin/contracts-upgradeable/proxy/utils/Initializable.sol\":4726:4760  initialized == 0 && isTopLevelCall */\n      dup1\n      iszero\n      tag_141\n      jumpi\n      pop\n        /* \"@openzeppelin/contracts-upgradeable/proxy/utils/Initializable.sol\":4746:4760  isTopLevelCall */\n      dup3\n        /* \"@openzeppelin/contracts-upgradeable/proxy/utils/Initializable.sol\":4726:4760  initialized == 0 && isTopLevelCall */\n    tag_141:\n        /* \"@openzeppelin/contracts-upgradeable/proxy/utils/Initializable.sol\":4706:4760  bool initialSetup = initialized == 0 && isTopLevelCall */\n      swap1\n      pop\n        /* \"@openzeppelin/contracts-upgradeable/proxy/utils/Initializable.sol\":4770:4787  bool construction */\n      0x00\n        /* \"@openzeppelin/contracts-upgradeable/proxy/utils/Initializable.sol\":4805:4806  1 */\n      0x01\n        /* \"@openzeppelin/contracts-upgradeable/proxy/utils/Initializable.sol\":4790:4801  initialized */\n      dup4\n        /* \"@openzeppelin/contracts-upgradeable/proxy/utils/Initializable.sol\":4790:4806  initialized == 1 */\n      0xffffffffffffffff\n      and\n      eq\n        /* \"@openzeppelin/contracts-upgradeable/proxy/utils/Initializable.sol\":4790:4840  initialized == 1 && address(this).code.length == 0 */\n      dup1\n      iszero\n      tag_142\n      jumpi\n      pop\n        /* \"@openzeppelin/contracts-upgradeable/proxy/utils/Initializable.sol\":4839:4840  0 */\n      0x00\n        /* \"@openzeppelin/contracts-upgradeable/proxy/utils/Initializable.sol\":4818:4822  this */\n      address\n        /* \"@openzeppelin/contracts-upgradeable/proxy/utils/Initializable.sol\":4810:4835  address(this).code.length */\n      0xffffffffffffffffffffffffffffffffffffffff\n      and\n      extcodesize\n        /* \"@openzeppelin/contracts-upgradeable/proxy/utils/Initializable.sol\":4810:4840  address(this).code.length == 0 */\n      eq\n        /* \"@openzeppelin/contracts-upgradeable/proxy/utils/Initializable.sol\":4790:4840  initialized == 1 && address(this).code.length == 0 */\n    tag_142:\n        /* \"@openzeppelin/contracts-upgradeable/proxy/utils/Initializable.sol\":4770:4840  bool construction = initialized == 1 && address(this).code.length == 0 */\n      swap1\n      pop\n        /* \"@openzeppelin/contracts-upgradeable/proxy/utils/Initializable.sol\":4856:4868  initialSetup */\n      dup2\n        /* \"@openzeppelin/contracts-upgradeable/proxy/utils/Initializable.sol\":4855:4868  !initialSetup */\n      iszero\n        /* \"@openzeppelin/contracts-upgradeable/proxy/utils/Initializable.sol\":4855:4885  !initialSetup && !construction */\n      dup1\n      iszero\n      tag_143\n      jumpi\n      pop\n        /* \"@openzeppelin/contracts-upgradeable/proxy/utils/Initializable.sol\":4873:4885  construction */\n      dup1\n        /* \"@openzeppelin/contracts-upgradeable/proxy/utils/Initializable.sol\":4872:4885  !construction */\n      iszero\n        /* \"@openzeppelin/contracts-upgradeable/proxy/utils/Initializable.sol\":4855:4885  !initialSetup && !construction */\n    tag_143:\n        /* \"@openzeppelin/contracts-upgradeable/proxy/utils/Initializable.sol\":4851:4942  if (!initialSetup && !construction) {... */\n      iszero\n      tag_144\n      jumpi\n        /* \"@openzeppelin/contracts-upgradeable/proxy/utils/Initializable.sol\":4908:4931  InvalidInitialization() */\n      mload(0x40)\n      0xf92ee8a900000000000000000000000000000000000000000000000000000000\n      dup2\n      mstore\n      0x04\n      add\n      mload(0x40)\n      dup1\n      swap2\n      sub\n      swap1\n      revert\n        /* \"@openzeppelin/contracts-upgradeable/proxy/utils/Initializable.sol\":4851:4942  if (!initialSetup && !construction) {... */\n    tag_144:\n        /* \"@openzeppelin/contracts-upgradeable/proxy/utils/Initializable.sol\":4968:4969  1 */\n      0x01\n        /* \"@openzeppelin/contracts-upgradeable/proxy/utils/Initializable.sol\":4951:4952  $ */\n      dup6\n        /* \"@openzeppelin/contracts-upgradeable/proxy/utils/Initializable.sol\":4951:4965  $._initialized */\n      0x00\n      add\n      0x00\n        /* \"@openzeppelin/contracts-upgradeable/proxy/utils/Initializable.sol\":4951:4969  $._initialized = 1 */\n      0x0100\n      exp\n      dup2\n      sload\n      dup2\n      0xffffffffffffffff\n      mul\n      not\n      and\n      swap1\n      dup4\n      0xffffffffffffffff\n      and\n      mul\n      or\n      swap1\n      sstore\n      pop\n        /* \"@openzeppelin/contracts-upgradeable/proxy/utils/Initializable.sol\":4983:4997  isTopLevelCall */\n      dup4\n        /* \"@openzeppelin/contracts-upgradeable/proxy/utils/Initializable.sol\":4979:5046  if (isTopLevelCall) {... */\n      iszero\n      tag_145\n      jumpi\n        /* \"@openzeppelin/contracts-upgradeable/proxy/utils/Initializable.sol\":5031:5035  true */\n      0x01\n        /* \"@openzeppelin/contracts-upgradeable/proxy/utils/Initializable.sol\":5013:5014  $ */\n      dup6\n        /* \"@openzeppelin/contracts-upgradeable/proxy/utils/Initializable.sol\":5013:5028  $._initializing */\n      0x00\n      add\n      0x08\n        /* \"@openzeppelin/contracts-upgradeable/proxy/utils/Initializable.sol\":5013:5035  $._initializing = true */\n      0x0100\n      exp\n      dup2\n      sload\n      dup2\n      0xff\n      mul\n      not\n      and\n      swap1\n      dup4\n      iszero\n      iszero\n      mul\n      or\n      swap1\n      sstore\n      pop\n        /* \"@openzeppelin/contracts-upgradeable/proxy/utils/Initializable.sol\":4979:5046  if (isTopLevelCall) {... */\n    tag_145:\n        /* \"contracts/cookie-jar.sol\":1766:1787  __Ownable_init(owner) */\n      tag_147\n        /* \"contracts/cookie-jar.sol\":1781:1786  owner */\n      dup7\n        /* \"contracts/cookie-jar.sol\":1766:1780  __Ownable_init */\n      tag_148\n        /* \"contracts/cookie-jar.sol\":1766:1787  __Ownable_init(owner) */\n      jump\t// in\n    tag_147:\n        /* \"contracts/cookie-jar.sol\":1848:1855  _scorer */\n      dup7\n        /* \"contracts/cookie-jar.sol\":1831:1837  scorer */\n      0x00\n      0x00\n        /* \"contracts/cookie-jar.sol\":1831:1856  scorer = IScorer(_scorer) */\n      0x0100\n      exp\n      dup2\n      sload\n      dup2\n      0xffffffffffffffffffffffffffffffffffffffff\n      mul\n      not\n      and\n      swap1\n      dup4\n      0xffffffffffffffffffffffffffffffffffffffff\n      and\n      mul\n      or\n      swap1\n      sstore\n      pop\n        /* \"@openzeppelin/contracts-upgradeable/proxy/utils/Initializable.sol\":5070:5084  isTopLevelCall */\n      dup4\n        /* \"@openzeppelin/contracts-upgradeable/proxy/utils/Initializable.sol\":5066:5167  if (isTopLevelCall) {... */\n      iszero\n      tag_149\n      jumpi\n        /* \"@openzeppelin/contracts-upgradeable/proxy/utils/Initializable.sol\":5118:5123  false */\n      0x00\n        /* \"@openzeppelin/contracts-upgradeable/proxy/utils/Initializable.sol\":5100:5101  $ */\n      dup6\n        /* \"@openzeppelin/contracts-upgradeable/proxy/utils/Initializable.sol\":5100:5115  $._initializing */\n      0x00\n      add\n      0x08\n        /* \"@openzeppelin/contracts-upgradeable/proxy/utils/Initializable.sol\":5100:5123  $._initializing = false */\n      0x0100\n      exp\n      dup2\n      sload\n      dup2\n      0xff\n      mul\n      not\n      and\n      swap1\n      dup4\n      iszero\n      iszero\n      mul\n      or\n      swap1\n      sstore\n      pop\n        /* \"@openzeppelin/contracts-upgradeable/proxy/utils/Initializable.sol\":5142:5156  Initialized(1) */\n      0xc7f505b2f371ae2175ee4913f4499e1f2633a7b5936321eed1cdaeb6115181d2\n        /* \"@openzeppelin/contracts-upgradeable/proxy/utils/Initializable.sol\":5154:5155  1 */\n      0x01\n        /* \"@openzeppelin/contracts-upgradeable/proxy/utils/Initializable.sol\":5142:5156  Initialized(1) */\n      mload(0x40)\n      tag_150\n      swap2\n      swap1\n      tag_151\n      jump\t// in\n    tag_150:\n      mload(0x40)\n      dup1\n      swap2\n      sub\n      swap1\n      log1\n        /* \"@openzeppelin/contracts-upgradeable/proxy/utils/Initializable.sol\":5066:5167  if (isTopLevelCall) {... */\n    tag_149:\n        /* \"@openzeppelin/contracts-upgradeable/proxy/utils/Initializable.sol\":4092:5173  {... */\n      pop\n      pop\n      pop\n      pop\n      pop\n        /* \"contracts/cookie-jar.sol\":1682:1864  function initialize(address _scorer, address owner) external initializer {... */\n      pop\n      pop\n      jump\t// out\n        /* \"@openzeppelin/contracts-upgradeable/access/OwnableUpgradeable.sol\":3155:3256  function renounceOwnership() public virtual onlyOwner {... */\n    tag_47:\n        /* \"@openzeppelin/contracts-upgradeable/access/OwnableUpgradeable.sol\":2334:2347  _checkOwner() */\n      tag_153\n        /* \"@openzeppelin/contracts-upgradeable/access/OwnableUpgradeable.sol\":2334:2345  _checkOwner */\n      tag_154\n        /* \"@openzeppelin/contracts-upgradeable/access/OwnableUpgradeable.sol\":2334:2347  _checkOwner() */\n      jump\t// in\n    tag_153:\n        /* \"@openzeppelin/contracts-upgradeable/access/OwnableUpgradeable.sol\":3219:3249  _transferOwnership(address(0)) */\n      tag_156\n        /* \"@openzeppelin/contracts-upgradeable/access/OwnableUpgradeable.sol\":3246:3247  0 */\n      0x00\n        /* \"@openzeppelin/contracts-upgradeable/access/OwnableUpgradeable.sol\":3219:3237  _transferOwnership */\n      tag_157\n        /* \"@openzeppelin/contracts-upgradeable/access/OwnableUpgradeable.sol\":3219:3249  _transferOwnership(address(0)) */\n      jump\t// in\n    tag_156:\n        /* \"@openzeppelin/contracts-upgradeable/access/OwnableUpgradeable.sol\":3155:3256  function renounceOwnership() public virtual onlyOwner {... */\n      jump\t// out\n        /* \"contracts/cookie-jar.sol\":525:546  IScorer public scorer */\n    tag_50:\n      0x00\n      0x00\n      swap1\n      sload\n      swap1\n      0x0100\n      exp\n      swap1\n      div\n      0xffffffffffffffffffffffffffffffffffffffff\n      and\n      dup2\n      jump\t// out\n        /* \"contracts/cookie-jar.sol\":788:813  Round public currentRound */\n    tag_55:\n      0x01\n      dup1\n      0x00\n      add\n      sload\n      swap1\n      dup1\n      0x01\n      add\n      sload\n      swap1\n      dup1\n      0x02\n      add\n      dup1\n      sload\n      tag_158\n      swap1\n      tag_159\n      jump\t// in\n    tag_158:\n      dup1\n      0x1f\n      add\n      0x20\n      dup1\n      swap2\n      div\n      mul\n      0x20\n      add\n      mload(0x40)\n      swap1\n      dup2\n      add\n      0x40\n      mstore\n      dup1\n      swap3\n      swap2\n      swap1\n      dup2\n      dup2\n      mstore\n      0x20\n      add\n      dup3\n      dup1\n      sload\n      tag_160\n      swap1\n      tag_159\n      jump\t// in\n    tag_160:\n      dup1\n      iszero\n      tag_161\n      jumpi\n      dup1\n      0x1f\n      lt\n      tag_162\n      jumpi\n      0x0100\n      dup1\n      dup4\n      sload\n      div\n      mul\n      dup4\n      mstore\n      swap2\n      0x20\n      add\n      swap2\n      jump(tag_161)\n    tag_162:\n      dup3\n      add\n      swap2\n      swap1\n      0x00\n      mstore\n      keccak256(0x00, 0x20)\n      swap1\n    tag_163:\n      dup2\n      sload\n      dup2\n      mstore\n      swap1\n      0x01\n      add\n      swap1\n      0x20\n      add\n      dup1\n      dup4\n      gt\n      tag_163\n      jumpi\n      dup3\n      swap1\n      sub\n      0x1f\n      and\n      dup3\n      add\n      swap2\n    tag_161:\n      pop\n      pop\n      pop\n      pop\n      pop\n      swap1\n      pop\n      dup4\n      jump\t// out\n        /* \"@openzeppelin/contracts-upgradeable/access/OwnableUpgradeable.sol\":2441:2585  function owner() public view virtual returns (address) {... */\n    tag_60:\n        /* \"@openzeppelin/contracts-upgradeable/access/OwnableUpgradeable.sol\":2487:2494  address */\n      0x00\n        /* \"@openzeppelin/contracts-upgradeable/access/OwnableUpgradeable.sol\":2506:2530  OwnableStorage storage $ */\n      0x00\n        /* \"@openzeppelin/contracts-upgradeable/access/OwnableUpgradeable.sol\":2533:2553  _getOwnableStorage() */\n      tag_165\n        /* \"@openzeppelin/contracts-upgradeable/access/OwnableUpgradeable.sol\":2533:2551  _getOwnableStorage */\n      tag_166\n        /* \"@openzeppelin/contracts-upgradeable/access/OwnableUpgradeable.sol\":2533:2553  _getOwnableStorage() */\n      jump\t// in\n    tag_165:\n        /* \"@openzeppelin/contracts-upgradeable/access/OwnableUpgradeable.sol\":2506:2553  OwnableStorage storage $ = _getOwnableStorage() */\n      swap1\n      pop\n        /* \"@openzeppelin/contracts-upgradeable/access/OwnableUpgradeable.sol\":2570:2571  $ */\n      dup1\n        /* \"@openzeppelin/contracts-upgradeable/access/OwnableUpgradeable.sol\":2570:2578  $._owner */\n      0x00\n      add\n      0x00\n      swap1\n      sload\n      swap1\n      0x0100\n      exp\n      swap1\n      div\n      0xffffffffffffffffffffffffffffffffffffffff\n      and\n        /* \"@openzeppelin/contracts-upgradeable/access/OwnableUpgradeable.sol\":2563:2578  return $._owner */\n      swap2\n      pop\n      pop\n        /* \"@openzeppelin/contracts-upgradeable/access/OwnableUpgradeable.sol\":2441:2585  function owner() public view virtual returns (address) {... */\n      swap1\n      jump\t// out\n        /* \"contracts/cookie-jar.sol\":1002:1071  mapping(address => mapping(address => uint256)) public allowedAmounts */\n    tag_65:\n      mstore(0x20, 0x05)\n      dup2\n      0x00\n      mstore\n      mstore(0x20, keccak256(0x00, 0x40))\n      dup1\n      0x00\n      mstore\n      keccak256(0x00, 0x40)\n      0x00\n      swap2\n      pop\n      swap2\n      pop\n      pop\n      sload\n      dup2\n      jump\t// out\n        /* \"contracts/cookie-jar.sol\":904:952  mapping(address => uint256) public totalBalances */\n    tag_70:\n      mstore(0x20, 0x04)\n      dup1\n      0x00\n      mstore\n      keccak256(0x00, 0x40)\n      0x00\n      swap2\n      pop\n      swap1\n      pop\n      sload\n      dup2\n      jump\t// out\n        /* \"contracts/cookie-jar.sol\":3879:4081  function setAllowedAmount(address user, address token, uint256 amount) external onlyOwner {... */\n    tag_76:\n        /* \"@openzeppelin/contracts-upgradeable/access/OwnableUpgradeable.sol\":2334:2347  _checkOwner() */\n      tag_168\n        /* \"@openzeppelin/contracts-upgradeable/access/OwnableUpgradeable.sol\":2334:2345  _checkOwner */\n      tag_154\n        /* \"@openzeppelin/contracts-upgradeable/access/OwnableUpgradeable.sol\":2334:2347  _checkOwner() */\n      jump\t// in\n    tag_168:\n        /* \"contracts/cookie-jar.sol\":4010:4016  amount */\n      dup1\n        /* \"contracts/cookie-jar.sol\":3980:3994  allowedAmounts */\n      0x05\n        /* \"contracts/cookie-jar.sol\":3980:4000  allowedAmounts[user] */\n      0x00\n        /* \"contracts/cookie-jar.sol\":3995:3999  user */\n      dup6\n        /* \"contracts/cookie-jar.sol\":3980:4000  allowedAmounts[user] */\n      0xffffffffffffffffffffffffffffffffffffffff\n      and\n      0xffffffffffffffffffffffffffffffffffffffff\n      and\n      dup2\n      mstore\n      0x20\n      add\n      swap1\n      dup2\n      mstore\n      0x20\n      add\n      0x00\n      keccak256\n        /* \"contracts/cookie-jar.sol\":3980:4007  allowedAmounts[user][token] */\n      0x00\n        /* \"contracts/cookie-jar.sol\":4001:4006  token */\n      dup5\n        /* \"contracts/cookie-jar.sol\":3980:4007  allowedAmounts[user][token] */\n      0xffffffffffffffffffffffffffffffffffffffff\n      and\n      0xffffffffffffffffffffffffffffffffffffffff\n      and\n      dup2\n      mstore\n      0x20\n      add\n      swap1\n      dup2\n      mstore\n      0x20\n      add\n      0x00\n      keccak256\n        /* \"contracts/cookie-jar.sol\":3980:4016  allowedAmounts[user][token] = amount */\n      dup2\n      swap1\n      sstore\n      pop\n        /* \"contracts/cookie-jar.sol\":4059:4064  token */\n      dup2\n        /* \"contracts/cookie-jar.sol\":4032:4073  AllowedAmountUpdated(user, token, amount) */\n      0xffffffffffffffffffffffffffffffffffffffff\n      and\n        /* \"contracts/cookie-jar.sol\":4053:4057  user */\n      dup4\n        /* \"contracts/cookie-jar.sol\":4032:4073  AllowedAmountUpdated(user, token, amount) */\n      0xffffffffffffffffffffffffffffffffffffffff\n      and\n      0x3d0601f3b0e52fd772f1fa71d91651b34b6a11144bea30d74e0f820019a04dc2\n        /* \"contracts/cookie-jar.sol\":4066:4072  amount */\n      dup4\n        /* \"contracts/cookie-jar.sol\":4032:4073  AllowedAmountUpdated(user, token, amount) */\n      mload(0x40)\n      tag_170\n      swap2\n      swap1\n      tag_25\n      jump\t// in\n    tag_170:\n      mload(0x40)\n      dup1\n      swap2\n      sub\n      swap1\n      log3\n        /* \"contracts/cookie-jar.sol\":3879:4081  function setAllowedAmount(address user, address token, uint256 amount) external onlyOwner {... */\n      pop\n      pop\n      pop\n      jump\t// out\n        /* \"contracts/cookie-jar.sol\":4330:4608  function setRound(uint256 start, uint256 end, string memory metadataURI) external onlyOwner {... */\n    tag_81:\n        /* \"@openzeppelin/contracts-upgradeable/access/OwnableUpgradeable.sol\":2334:2347  _checkOwner() */\n      tag_172\n        /* \"@openzeppelin/contracts-upgradeable/access/OwnableUpgradeable.sol\":2334:2345  _checkOwner */\n      tag_154\n        /* \"@openzeppelin/contracts-upgradeable/access/OwnableUpgradeable.sol\":2334:2347  _checkOwner() */\n      jump\t// in\n    tag_172:\n        /* \"contracts/cookie-jar.sol\":4449:4452  end */\n      dup2\n        /* \"contracts/cookie-jar.sol\":4441:4446  start */\n      dup4\n        /* \"contracts/cookie-jar.sol\":4441:4452  start < end */\n      lt\n        /* \"contracts/cookie-jar.sol\":4433:4491  require(start < end, \"Start time must be before end time\") */\n      tag_174\n      jumpi\n      mload(0x40)\n      0x08c379a000000000000000000000000000000000000000000000000000000000\n      dup2\n      mstore\n      0x04\n      add\n      tag_175\n      swap1\n      tag_176\n      jump\t// in\n    tag_175:\n      mload(0x40)\n      dup1\n      swap2\n      sub\n      swap1\n      revert\n    tag_174:\n        /* \"contracts/cookie-jar.sol\":4517:4547  Round(start, end, metadataURI) */\n      mload(0x40)\n      dup1\n      0x60\n      add\n      0x40\n      mstore\n      dup1\n        /* \"contracts/cookie-jar.sol\":4523:4528  start */\n      dup5\n        /* \"contracts/cookie-jar.sol\":4517:4547  Round(start, end, metadataURI) */\n      dup2\n      mstore\n      0x20\n      add\n        /* \"contracts/cookie-jar.sol\":4530:4533  end */\n      dup4\n        /* \"contracts/cookie-jar.sol\":4517:4547  Round(start, end, metadataURI) */\n      dup2\n      mstore\n      0x20\n      add\n        /* \"contracts/cookie-jar.sol\":4535:4546  metadataURI */\n      dup3\n        /* \"contracts/cookie-jar.sol\":4517:4547  Round(start, end, metadataURI) */\n      dup2\n      mstore\n      pop\n        /* \"contracts/cookie-jar.sol\":4502:4514  currentRound */\n      0x01\n        /* \"contracts/cookie-jar.sol\":4502:4547  currentRound = Round(start, end, metadataURI) */\n      0x00\n      dup3\n      add\n      mload\n      dup2\n      0x00\n      add\n      sstore\n      0x20\n      dup3\n      add\n      mload\n      dup2\n      0x01\n      add\n      sstore\n      0x40\n      dup3\n      add\n      mload\n      dup2\n      0x02\n      add\n      swap1\n      dup2\n      tag_177\n      swap2\n      swap1\n      tag_178\n      jump\t// in\n    tag_177:\n      pop\n      swap1\n      pop\n      pop\n        /* \"contracts/cookie-jar.sol\":4563:4600  RoundUpdated(start, end, metadataURI) */\n      0x09e6db48f22357e6dce2bbff89db8ff25f0012a08186d6ea72e2343fdc112e13\n        /* \"contracts/cookie-jar.sol\":4576:4581  start */\n      dup4\n        /* \"contracts/cookie-jar.sol\":4583:4586  end */\n      dup4\n        /* \"contracts/cookie-jar.sol\":4588:4599  metadataURI */\n      dup4\n        /* \"contracts/cookie-jar.sol\":4563:4600  RoundUpdated(start, end, metadataURI) */\n      mload(0x40)\n      tag_179\n      swap4\n      swap3\n      swap2\n      swap1\n      tag_57\n      jump\t// in\n    tag_179:\n      mload(0x40)\n      dup1\n      swap2\n      sub\n      swap1\n      log1\n        /* \"contracts/cookie-jar.sol\":4330:4608  function setRound(uint256 start, uint256 end, string memory metadataURI) external onlyOwner {... */\n      pop\n      pop\n      pop\n      jump\t// out\n        /* \"@openzeppelin/contracts-upgradeable/access/OwnableUpgradeable.sol\":3405:3620  function transferOwnership(address newOwner) public virtual onlyOwner {... */\n    tag_85:\n        /* \"@openzeppelin/contracts-upgradeable/access/OwnableUpgradeable.sol\":2334:2347  _checkOwner() */\n      tag_181\n        /* \"@openzeppelin/contracts-upgradeable/access/OwnableUpgradeable.sol\":2334:2345  _checkOwner */\n      tag_154\n        /* \"@openzeppelin/contracts-upgradeable/access/OwnableUpgradeable.sol\":2334:2347  _checkOwner() */\n      jump\t// in\n    tag_181:\n        /* \"@openzeppelin/contracts-upgradeable/access/OwnableUpgradeable.sol\":3509:3510  0 */\n      0x00\n        /* \"@openzeppelin/contracts-upgradeable/access/OwnableUpgradeable.sol\":3489:3511  newOwner == address(0) */\n      0xffffffffffffffffffffffffffffffffffffffff\n      and\n        /* \"@openzeppelin/contracts-upgradeable/access/OwnableUpgradeable.sol\":3489:3497  newOwner */\n      dup2\n        /* \"@openzeppelin/contracts-upgradeable/access/OwnableUpgradeable.sol\":3489:3511  newOwner == address(0) */\n      0xffffffffffffffffffffffffffffffffffffffff\n      and\n      sub\n        /* \"@openzeppelin/contracts-upgradeable/access/OwnableUpgradeable.sol\":3485:3576  if (newOwner == address(0)) {... */\n      tag_183\n      jumpi\n        /* \"@openzeppelin/contracts-upgradeable/access/OwnableUpgradeable.sol\":3562:3563  0 */\n      0x00\n        /* \"@openzeppelin/contracts-upgradeable/access/OwnableUpgradeable.sol\":3534:3565  OwnableInvalidOwner(address(0)) */\n      mload(0x40)\n      0x1e4fbdf700000000000000000000000000000000000000000000000000000000\n      dup2\n      mstore\n      0x04\n      add\n      tag_184\n      swap2\n      swap1\n      tag_35\n      jump\t// in\n    tag_184:\n      mload(0x40)\n      dup1\n      swap2\n      sub\n      swap1\n      revert\n        /* \"@openzeppelin/contracts-upgradeable/access/OwnableUpgradeable.sol\":3485:3576  if (newOwner == address(0)) {... */\n    tag_183:\n        /* \"@openzeppelin/contracts-upgradeable/access/OwnableUpgradeable.sol\":3585:3613  _transferOwnership(newOwner) */\n      tag_185\n        /* \"@openzeppelin/contracts-upgradeable/access/OwnableUpgradeable.sol\":3604:3612  newOwner */\n      dup2\n        /* \"@openzeppelin/contracts-upgradeable/access/OwnableUpgradeable.sol\":3585:3603  _transferOwnership */\n      tag_157\n        /* \"@openzeppelin/contracts-upgradeable/access/OwnableUpgradeable.sol\":3585:3613  _transferOwnership(newOwner) */\n      jump\t// in\n    tag_185:\n        /* \"@openzeppelin/contracts-upgradeable/access/OwnableUpgradeable.sol\":3405:3620  function transferOwnership(address newOwner) public virtual onlyOwner {... */\n      pop\n      jump\t// out\n        /* \"contracts/cookie-jar.sol\":4813:5370  function withdraw(address token, uint256 amount) external onlyOwner {... */\n    tag_89:\n        /* \"@openzeppelin/contracts-upgradeable/access/OwnableUpgradeable.sol\":2334:2347  _checkOwner() */\n      tag_187\n        /* \"@openzeppelin/contracts-upgradeable/access/OwnableUpgradeable.sol\":2334:2345  _checkOwner */\n      tag_154\n        /* \"@openzeppelin/contracts-upgradeable/access/OwnableUpgradeable.sol\":2334:2347  _checkOwner() */\n      jump\t// in\n    tag_187:\n        /* \"contracts/cookie-jar.sol\":4909:4910  0 */\n      0x00\n        /* \"contracts/cookie-jar.sol\":4900:4906  amount */\n      dup2\n        /* \"contracts/cookie-jar.sol\":4900:4910  amount > 0 */\n      gt\n        /* \"contracts/cookie-jar.sol\":4892:4958  require(amount > 0, \"Withdrawal amount must be greater than zero\") */\n      tag_189\n      jumpi\n      mload(0x40)\n      0x08c379a000000000000000000000000000000000000000000000000000000000\n      dup2\n      mstore\n      0x04\n      add\n      tag_190\n      swap1\n      tag_191\n      jump\t// in\n    tag_190:\n      mload(0x40)\n      dup1\n      swap2\n      sub\n      swap1\n      revert\n    tag_189:\n        /* \"contracts/cookie-jar.sol\":5001:5007  amount */\n      dup1\n        /* \"contracts/cookie-jar.sol\":4977:4990  totalBalances */\n      0x04\n        /* \"contracts/cookie-jar.sol\":4977:4997  totalBalances[token] */\n      0x00\n        /* \"contracts/cookie-jar.sol\":4991:4996  token */\n      dup5\n        /* \"contracts/cookie-jar.sol\":4977:4997  totalBalances[token] */\n      0xffffffffffffffffffffffffffffffffffffffff\n      and\n      0xffffffffffffffffffffffffffffffffffffffff\n      and\n      dup2\n      mstore\n      0x20\n      add\n      swap1\n      dup2\n      mstore\n      0x20\n      add\n      0x00\n      keccak256\n      sload\n        /* \"contracts/cookie-jar.sol\":4977:5007  totalBalances[token] >= amount */\n      lt\n      iszero\n        /* \"contracts/cookie-jar.sol\":4969:5030  require(totalBalances[token] >= amount, \"Insufficient funds\") */\n      tag_192\n      jumpi\n      mload(0x40)\n      0x08c379a000000000000000000000000000000000000000000000000000000000\n      dup2\n      mstore\n      0x04\n      add\n      tag_193\n      swap1\n      tag_194\n      jump\t// in\n    tag_193:\n      mload(0x40)\n      dup1\n      swap2\n      sub\n      swap1\n      revert\n    tag_192:\n        /* \"contracts/cookie-jar.sol\":5067:5073  amount */\n      dup1\n        /* \"contracts/cookie-jar.sol\":5043:5056  totalBalances */\n      0x04\n        /* \"contracts/cookie-jar.sol\":5043:5063  totalBalances[token] */\n      0x00\n        /* \"contracts/cookie-jar.sol\":5057:5062  token */\n      dup5\n        /* \"contracts/cookie-jar.sol\":5043:5063  totalBalances[token] */\n      0xffffffffffffffffffffffffffffffffffffffff\n      and\n      0xffffffffffffffffffffffffffffffffffffffff\n      and\n      dup2\n      mstore\n      0x20\n      add\n      swap1\n      dup2\n      mstore\n      0x20\n      add\n      0x00\n      keccak256\n      0x00\n        /* \"contracts/cookie-jar.sol\":5043:5073  totalBalances[token] -= amount */\n      dup3\n      dup3\n      sload\n      tag_195\n      swap2\n      swap1\n      tag_111\n      jump\t// in\n    tag_195:\n      swap3\n      pop\n      pop\n      dup2\n      swap1\n      sstore\n      pop\n        /* \"contracts/cookie-jar.sol\":491:492  0 */\n      0x00\n        /* \"contracts/cookie-jar.sol\":5090:5104  token == ETHER */\n      0xffffffffffffffffffffffffffffffffffffffff\n      and\n        /* \"contracts/cookie-jar.sol\":5090:5095  token */\n      dup3\n        /* \"contracts/cookie-jar.sol\":5090:5104  token == ETHER */\n      0xffffffffffffffffffffffffffffffffffffffff\n      and\n      sub\n        /* \"contracts/cookie-jar.sol\":5086:5315  if (token == ETHER) {... */\n      tag_196\n      jumpi\n        /* \"contracts/cookie-jar.sol\":5122:5134  bool success */\n      0x00\n        /* \"contracts/cookie-jar.sol\":5140:5147  owner() */\n      tag_197\n        /* \"contracts/cookie-jar.sol\":5140:5145  owner */\n      tag_60\n        /* \"contracts/cookie-jar.sol\":5140:5147  owner() */\n      jump\t// in\n    tag_197:\n        /* \"contracts/cookie-jar.sol\":5140:5152  owner().call */\n      0xffffffffffffffffffffffffffffffffffffffff\n      and\n        /* \"contracts/cookie-jar.sol\":5160:5166  amount */\n      dup3\n        /* \"contracts/cookie-jar.sol\":5140:5171  owner().call{value: amount}(\"\") */\n      mload(0x40)\n      tag_198\n      swap1\n      tag_114\n      jump\t// in\n    tag_198:\n      0x00\n      mload(0x40)\n      dup1\n      dup4\n      sub\n      dup2\n      dup6\n      dup8\n      gas\n      call\n      swap3\n      pop\n      pop\n      pop\n      returndatasize\n      dup1\n      0x00\n      dup2\n      eq\n      tag_201\n      jumpi\n      mload(0x40)\n      swap2\n      pop\n      and(add(returndatasize, 0x3f), not(0x1f))\n      dup3\n      add\n      0x40\n      mstore\n      returndatasize\n      dup3\n      mstore\n      returndatasize\n      0x00\n      0x20\n      dup5\n      add\n      returndatacopy\n      jump(tag_200)\n    tag_201:\n      0x60\n      swap2\n      pop\n    tag_200:\n      pop\n        /* \"contracts/cookie-jar.sol\":5121:5171  (bool success, ) = owner().call{value: amount}(\"\") */\n      pop\n      swap1\n      pop\n        /* \"contracts/cookie-jar.sol\":5194:5201  success */\n      dup1\n        /* \"contracts/cookie-jar.sol\":5186:5227  require(success, \"Ether transfer failed\") */\n      tag_202\n      jumpi\n      mload(0x40)\n      0x08c379a000000000000000000000000000000000000000000000000000000000\n      dup2\n      mstore\n      0x04\n      add\n      tag_203\n      swap1\n      tag_120\n      jump\t// in\n    tag_203:\n      mload(0x40)\n      dup1\n      swap2\n      sub\n      swap1\n      revert\n    tag_202:\n        /* \"contracts/cookie-jar.sol\":5106:5239  {... */\n      pop\n        /* \"contracts/cookie-jar.sol\":5086:5315  if (token == ETHER) {... */\n      jump(tag_204)\n    tag_196:\n        /* \"contracts/cookie-jar.sol\":5260:5303  IERC20(token).safeTransfer(owner(), amount) */\n      tag_205\n        /* \"contracts/cookie-jar.sol\":5287:5294  owner() */\n      tag_206\n        /* \"contracts/cookie-jar.sol\":5287:5292  owner */\n      tag_60\n        /* \"contracts/cookie-jar.sol\":5287:5294  owner() */\n      jump\t// in\n    tag_206:\n        /* \"contracts/cookie-jar.sol\":5296:5302  amount */\n      dup3\n        /* \"contracts/cookie-jar.sol\":5267:5272  token */\n      dup5\n        /* \"contracts/cookie-jar.sol\":5260:5286  IERC20(token).safeTransfer */\n      0xffffffffffffffffffffffffffffffffffffffff\n      and\n      tag_123\n      swap1\n        /* \"contracts/cookie-jar.sol\":5260:5303  IERC20(token).safeTransfer(owner(), amount) */\n      swap3\n      swap2\n      swap1\n      0xffffffff\n      and\n      jump\t// in\n    tag_205:\n        /* \"contracts/cookie-jar.sol\":5086:5315  if (token == ETHER) {... */\n    tag_204:\n        /* \"contracts/cookie-jar.sol\":5348:5353  token */\n      dup2\n        /* \"contracts/cookie-jar.sol\":5330:5362  Withdraw(owner(), token, amount) */\n      0xffffffffffffffffffffffffffffffffffffffff\n      and\n        /* \"contracts/cookie-jar.sol\":5339:5346  owner() */\n      tag_207\n        /* \"contracts/cookie-jar.sol\":5339:5344  owner */\n      tag_60\n        /* \"contracts/cookie-jar.sol\":5339:5346  owner() */\n      jump\t// in\n    tag_207:\n        /* \"contracts/cookie-jar.sol\":5330:5362  Withdraw(owner(), token, amount) */\n      0xffffffffffffffffffffffffffffffffffffffff\n      and\n      0x9b1bfa7fa9ee420a16e124f794c35ac9f90472acc99140eb2f6447c714cad8eb\n        /* \"contracts/cookie-jar.sol\":5355:5361  amount */\n      dup4\n        /* \"contracts/cookie-jar.sol\":5330:5362  Withdraw(owner(), token, amount) */\n      mload(0x40)\n      tag_208\n      swap2\n      swap1\n      tag_25\n      jump\t// in\n    tag_208:\n      mload(0x40)\n      dup1\n      swap2\n      sub\n      swap1\n      log3\n        /* \"contracts/cookie-jar.sol\":4813:5370  function withdraw(address token, uint256 amount) external onlyOwner {... */\n      pop\n      pop\n      jump\t// out\n        /* \"@openzeppelin/contracts/token/ERC20/utils/SafeERC20.sol\":1271:1431  function safeTransfer(IERC20 token, address to, uint256 value) internal {... */\n    tag_123:\n        /* \"@openzeppelin/contracts/token/ERC20/utils/SafeERC20.sol\":1353:1424  _callOptionalReturn(token, abi.encodeCall(token.transfer, (to, value))) */\n      tag_210\n        /* \"@openzeppelin/contracts/token/ERC20/utils/SafeERC20.sol\":1373:1378  token */\n      dup4\n        /* \"@openzeppelin/contracts/token/ERC20/utils/SafeERC20.sol\":1395:1400  token */\n      dup5\n        /* \"@openzeppelin/contracts/token/ERC20/utils/SafeERC20.sol\":1395:1409  token.transfer */\n      0xffffffffffffffffffffffffffffffffffffffff\n      and\n      0xa9059cbb\n        /* \"@openzeppelin/contracts/token/ERC20/utils/SafeERC20.sol\":1412:1414  to */\n      dup6\n        /* \"@openzeppelin/contracts/token/ERC20/utils/SafeERC20.sol\":1416:1421  value */\n      dup6\n        /* \"@openzeppelin/contracts/token/ERC20/utils/SafeERC20.sol\":1380:1423  abi.encodeCall(token.transfer, (to, value)) */\n      add(0x24, mload(0x40))\n      tag_211\n      swap3\n      swap2\n      swap1\n      tag_212\n      jump\t// in\n    tag_211:\n      mload(0x40)\n      0x20\n      dup2\n      dup4\n      sub\n      sub\n      dup2\n      mstore\n      swap1\n      0x40\n      mstore\n      swap2\n      pop\n      0xe0\n      shl\n      0x20\n      dup3\n      add\n      dup1\n      mload\n      0xffffffffffffffffffffffffffffffffffffffffffffffffffffffff\n      dup4\n      dup2\n      dup4\n      and\n      or\n      dup4\n      mstore\n      pop\n      pop\n      pop\n      pop\n        /* \"@openzeppelin/contracts/token/ERC20/utils/SafeERC20.sol\":1353:1372  _callOptionalReturn */\n      tag_213\n        /* \"@openzeppelin/contracts/token/ERC20/utils/SafeERC20.sol\":1353:1424  _callOptionalReturn(token, abi.encodeCall(token.transfer, (to, value))) */\n      jump\t// in\n    tag_210:\n        /* \"@openzeppelin/contracts/token/ERC20/utils/SafeERC20.sol\":1271:1431  function safeTransfer(IERC20 token, address to, uint256 value) internal {... */\n      pop\n      pop\n      pop\n      jump\t// out\n        /* \"@openzeppelin/contracts/token/ERC20/utils/SafeERC20.sol\":1670:1858  function safeTransferFrom(IERC20 token, address from, address to, uint256 value) internal {... */\n    tag_135:\n        /* \"@openzeppelin/contracts/token/ERC20/utils/SafeERC20.sol\":1770:1851  _callOptionalReturn(token, abi.encodeCall(token.transferFrom, (from, to, value))) */\n      tag_215\n        /* \"@openzeppelin/contracts/token/ERC20/utils/SafeERC20.sol\":1790:1795  token */\n      dup5\n        /* \"@openzeppelin/contracts/token/ERC20/utils/SafeERC20.sol\":1812:1817  token */\n      dup6\n        /* \"@openzeppelin/contracts/token/ERC20/utils/SafeERC20.sol\":1812:1830  token.transferFrom */\n      0xffffffffffffffffffffffffffffffffffffffff\n      and\n      0x23b872dd\n        /* \"@openzeppelin/contracts/token/ERC20/utils/SafeERC20.sol\":1833:1837  from */\n      dup7\n        /* \"@openzeppelin/contracts/token/ERC20/utils/SafeERC20.sol\":1839:1841  to */\n      dup7\n        /* \"@openzeppelin/contracts/token/ERC20/utils/SafeERC20.sol\":1843:1848  value */\n      dup7\n        /* \"@openzeppelin/contracts/token/ERC20/utils/SafeERC20.sol\":1797:1850  abi.encodeCall(token.transferFrom, (from, to, value)) */\n      add(0x24, mload(0x40))\n      tag_216\n      swap4\n      swap3\n      swap2\n      swap1\n      tag_217\n      jump\t// in\n    tag_216:\n      mload(0x40)\n      0x20\n      dup2\n      dup4\n      sub\n      sub\n      dup2\n      mstore\n      swap1\n      0x40\n      mstore\n      swap2\n      pop\n      0xe0\n      shl\n      0x20\n      dup3\n      add\n      dup1\n      mload\n      0xffffffffffffffffffffffffffffffffffffffffffffffffffffffff\n      dup4\n      dup2\n      dup4\n      and\n      or\n      dup4\n      mstore\n      pop\n      pop\n      pop\n      pop\n        /* \"@openzeppelin/contracts/token/ERC20/utils/SafeERC20.sol\":1770:1789  _callOptionalReturn */\n      tag_213\n        /* \"@openzeppelin/contracts/token/ERC20/utils/SafeERC20.sol\":1770:1851  _callOptionalReturn(token, abi.encodeCall(token.transferFrom, (from, to, value))) */\n      jump\t// in\n    tag_215:\n        /* \"@openzeppelin/contracts/token/ERC20/utils/SafeERC20.sol\":1670:1858  function safeTransferFrom(IERC20 token, address from, address to, uint256 value) internal {... */\n      pop\n      pop\n      pop\n      pop\n      jump\t// out\n        /* \"@openzeppelin/contracts-upgradeable/proxy/utils/Initializable.sol\":8737:8907  function _getInitializableStorage() private pure returns (InitializableStorage storage $) {... */\n    tag_140:\n        /* \"@openzeppelin/contracts-upgradeable/proxy/utils/Initializable.sol\":8795:8825  InitializableStorage storage $ */\n      0x00\n        /* \"@openzeppelin/contracts-upgradeable/proxy/utils/Initializable.sol\":8870:8891  INITIALIZABLE_STORAGE */\n      0xf0c57e16840df040f15088dc2f81fe391c3923bec73e23a9662efc9c229c6a00\n        /* \"@openzeppelin/contracts-upgradeable/proxy/utils/Initializable.sol\":8860:8891  $.slot := INITIALIZABLE_STORAGE */\n      swap1\n      pop\n        /* \"@openzeppelin/contracts-upgradeable/proxy/utils/Initializable.sol\":8737:8907  function _getInitializableStorage() private pure returns (InitializableStorage storage $) {... */\n      swap1\n      jump\t// out\n        /* \"@openzeppelin/contracts-upgradeable/access/OwnableUpgradeable.sol\":1847:1974  function __Ownable_init(address initialOwner) internal onlyInitializing {... */\n    tag_148:\n        /* \"@openzeppelin/contracts-upgradeable/proxy/utils/Initializable.sol\":6931:6951  _checkInitializing() */\n      tag_220\n        /* \"@openzeppelin/contracts-upgradeable/proxy/utils/Initializable.sol\":6931:6949  _checkInitializing */\n      tag_221\n        /* \"@openzeppelin/contracts-upgradeable/proxy/utils/Initializable.sol\":6931:6951  _checkInitializing() */\n      jump\t// in\n    tag_220:\n        /* \"@openzeppelin/contracts-upgradeable/access/OwnableUpgradeable.sol\":1929:1967  __Ownable_init_unchained(initialOwner) */\n      tag_223\n        /* \"@openzeppelin/contracts-upgradeable/access/OwnableUpgradeable.sol\":1954:1966  initialOwner */\n      dup2\n        /* \"@openzeppelin/contracts-upgradeable/access/OwnableUpgradeable.sol\":1929:1953  __Ownable_init_unchained */\n      tag_224\n        /* \"@openzeppelin/contracts-upgradeable/access/OwnableUpgradeable.sol\":1929:1967  __Ownable_init_unchained(initialOwner) */\n      jump\t// in\n    tag_223:\n        /* \"@openzeppelin/contracts-upgradeable/access/OwnableUpgradeable.sol\":1847:1974  function __Ownable_init(address initialOwner) internal onlyInitializing {... */\n      pop\n      jump\t// out\n        /* \"@openzeppelin/contracts-upgradeable/access/OwnableUpgradeable.sol\":2658:2820  function _checkOwner() internal view virtual {... */\n    tag_154:\n        /* \"@openzeppelin/contracts-upgradeable/access/OwnableUpgradeable.sol\":2728:2740  _msgSender() */\n      tag_226\n        /* \"@openzeppelin/contracts-upgradeable/access/OwnableUpgradeable.sol\":2728:2738  _msgSender */\n      tag_227\n        /* \"@openzeppelin/contracts-upgradeable/access/OwnableUpgradeable.sol\":2728:2740  _msgSender() */\n      jump\t// in\n    tag_226:\n        /* \"@openzeppelin/contracts-upgradeable/access/OwnableUpgradeable.sol\":2717:2740  owner() != _msgSender() */\n      0xffffffffffffffffffffffffffffffffffffffff\n      and\n        /* \"@openzeppelin/contracts-upgradeable/access/OwnableUpgradeable.sol\":2717:2724  owner() */\n      tag_228\n        /* \"@openzeppelin/contracts-upgradeable/access/OwnableUpgradeable.sol\":2717:2722  owner */\n      tag_60\n        /* \"@openzeppelin/contracts-upgradeable/access/OwnableUpgradeable.sol\":2717:2724  owner() */\n      jump\t// in\n    tag_228:\n        /* \"@openzeppelin/contracts-upgradeable/access/OwnableUpgradeable.sol\":2717:2740  owner() != _msgSender() */\n      0xffffffffffffffffffffffffffffffffffffffff\n      and\n      eq\n        /* \"@openzeppelin/contracts-upgradeable/access/OwnableUpgradeable.sol\":2713:2814  if (owner() != _msgSender()) {... */\n      tag_229\n      jumpi\n        /* \"@openzeppelin/contracts-upgradeable/access/OwnableUpgradeable.sol\":2790:2802  _msgSender() */\n      tag_230\n        /* \"@openzeppelin/contracts-upgradeable/access/OwnableUpgradeable.sol\":2790:2800  _msgSender */\n      tag_227\n        /* \"@openzeppelin/contracts-upgradeable/access/OwnableUpgradeable.sol\":2790:2802  _msgSender() */\n      jump\t// in\n    tag_230:\n        /* \"@openzeppelin/contracts-upgradeable/access/OwnableUpgradeable.sol\":2763:2803  OwnableUnauthorizedAccount(_msgSender()) */\n      mload(0x40)\n      0x118cdaa700000000000000000000000000000000000000000000000000000000\n      dup2\n      mstore\n      0x04\n      add\n      tag_231\n      swap2\n      swap1\n      tag_35\n      jump\t// in\n    tag_231:\n      mload(0x40)\n      dup1\n      swap2\n      sub\n      swap1\n      revert\n        /* \"@openzeppelin/contracts-upgradeable/access/OwnableUpgradeable.sol\":2713:2814  if (owner() != _msgSender()) {... */\n    tag_229:\n        /* \"@openzeppelin/contracts-upgradeable/access/OwnableUpgradeable.sol\":2658:2820  function _checkOwner() internal view virtual {... */\n      jump\t// out\n        /* \"@openzeppelin/contracts-upgradeable/access/OwnableUpgradeable.sol\":3774:4022  function _transferOwnership(address newOwner) internal virtual {... */\n    tag_157:\n        /* \"@openzeppelin/contracts-upgradeable/access/OwnableUpgradeable.sol\":3847:3871  OwnableStorage storage $ */\n      0x00\n        /* \"@openzeppelin/contracts-upgradeable/access/OwnableUpgradeable.sol\":3874:3894  _getOwnableStorage() */\n      tag_233\n        /* \"@openzeppelin/contracts-upgradeable/access/OwnableUpgradeable.sol\":3874:3892  _getOwnableStorage */\n      tag_166\n        /* \"@openzeppelin/contracts-upgradeable/access/OwnableUpgradeable.sol\":3874:3894  _getOwnableStorage() */\n      jump\t// in\n    tag_233:\n        /* \"@openzeppelin/contracts-upgradeable/access/OwnableUpgradeable.sol\":3847:3894  OwnableStorage storage $ = _getOwnableStorage() */\n      swap1\n      pop\n        /* \"@openzeppelin/contracts-upgradeable/access/OwnableUpgradeable.sol\":3904:3920  address oldOwner */\n      0x00\n        /* \"@openzeppelin/contracts-upgradeable/access/OwnableUpgradeable.sol\":3923:3924  $ */\n      dup2\n        /* \"@openzeppelin/contracts-upgradeable/access/OwnableUpgradeable.sol\":3923:3931  $._owner */\n      0x00\n      add\n      0x00\n      swap1\n      sload\n      swap1\n      0x0100\n      exp\n      swap1\n      div\n      0xffffffffffffffffffffffffffffffffffffffff\n      and\n        /* \"@openzeppelin/contracts-upgradeable/access/OwnableUpgradeable.sol\":3904:3931  address oldOwner = $._owner */\n      swap1\n      pop\n        /* \"@openzeppelin/contracts-upgradeable/access/OwnableUpgradeable.sol\":3952:3960  newOwner */\n      dup3\n        /* \"@openzeppelin/contracts-upgradeable/access/OwnableUpgradeable.sol\":3941:3942  $ */\n      dup3\n        /* \"@openzeppelin/contracts-upgradeable/access/OwnableUpgradeable.sol\":3941:3949  $._owner */\n      0x00\n      add\n      0x00\n        /* \"@openzeppelin/contracts-upgradeable/access/OwnableUpgradeable.sol\":3941:3960  $._owner = newOwner */\n      0x0100\n      exp\n      dup2\n      sload\n      dup2\n      0xffffffffffffffffffffffffffffffffffffffff\n      mul\n      not\n      and\n      swap1\n      dup4\n      0xffffffffffffffffffffffffffffffffffffffff\n      and\n      mul\n      or\n      swap1\n      sstore\n      pop\n        /* \"@openzeppelin/contracts-upgradeable/access/OwnableUpgradeable.sol\":4006:4014  newOwner */\n      dup3\n        /* \"@openzeppelin/contracts-upgradeable/access/OwnableUpgradeable.sol\":3975:4015  OwnershipTransferred(oldOwner, newOwner) */\n      0xffffffffffffffffffffffffffffffffffffffff\n      and\n        /* \"@openzeppelin/contracts-upgradeable/access/OwnableUpgradeable.sol\":3996:4004  oldOwner */\n      dup2\n        /* \"@openzeppelin/contracts-upgradeable/access/OwnableUpgradeable.sol\":3975:4015  OwnershipTransferred(oldOwner, newOwner) */\n      0xffffffffffffffffffffffffffffffffffffffff\n      and\n      0x8be0079c531659141344cd1fd0a4f28419497f9722a3daafe3b4186f6b6457e0\n      mload(0x40)\n      mload(0x40)\n      dup1\n      swap2\n      sub\n      swap1\n      log3\n        /* \"@openzeppelin/contracts-upgradeable/access/OwnableUpgradeable.sol\":3837:4022  {... */\n      pop\n      pop\n        /* \"@openzeppelin/contracts-upgradeable/access/OwnableUpgradeable.sol\":3774:4022  function _transferOwnership(address newOwner) internal virtual {... */\n      pop\n      jump\t// out\n        /* \"@openzeppelin/contracts-upgradeable/access/OwnableUpgradeable.sol\":1192:1351  function _getOwnableStorage() private pure returns (OwnableStorage storage $) {... */\n    tag_166:\n        /* \"@openzeppelin/contracts-upgradeable/access/OwnableUpgradeable.sol\":1244:1268  OwnableStorage storage $ */\n      0x00\n        /* \"@openzeppelin/contracts-upgradeable/access/OwnableUpgradeable.sol\":1313:1335  OwnableStorageLocation */\n      0x9016d09d72d40fdae2fd8ceac6b6234c7706214fd39c1cd1e609a0528c199300\n        /* \"@openzeppelin/contracts-upgradeable/access/OwnableUpgradeable.sol\":1303:1335  $.slot := OwnableStorageLocation */\n      swap1\n      pop\n        /* \"@openzeppelin/contracts-upgradeable/access/OwnableUpgradeable.sol\":1192:1351  function _getOwnableStorage() private pure returns (OwnableStorage storage $) {... */\n      swap1\n      jump\t// out\n        /* \"@openzeppelin/contracts/token/ERC20/utils/SafeERC20.sol\":7738:8458  function _callOptionalReturn(IERC20 token, bytes memory data) private {... */\n    tag_213:\n        /* \"@openzeppelin/contracts/token/ERC20/utils/SafeERC20.sol\":7818:7836  uint256 returnSize */\n      0x00\n        /* \"@openzeppelin/contracts/token/ERC20/utils/SafeERC20.sol\":7846:7865  uint256 returnValue */\n      0x00\n        /* \"@openzeppelin/contracts/token/ERC20/utils/SafeERC20.sol\":7984:7988  0x20 */\n      0x20\n        /* \"@openzeppelin/contracts/token/ERC20/utils/SafeERC20.sol\":7981:7982  0 */\n      0x00\n        /* \"@openzeppelin/contracts/token/ERC20/utils/SafeERC20.sol\":7974:7978  data */\n      dup5\n        /* \"@openzeppelin/contracts/token/ERC20/utils/SafeERC20.sol\":7968:7979  mload(data) */\n      mload\n        /* \"@openzeppelin/contracts/token/ERC20/utils/SafeERC20.sol\":7961:7965  0x20 */\n      0x20\n        /* \"@openzeppelin/contracts/token/ERC20/utils/SafeERC20.sol\":7955:7959  data */\n      dup7\n        /* \"@openzeppelin/contracts/token/ERC20/utils/SafeERC20.sol\":7951:7966  add(data, 0x20) */\n      add\n        /* \"@openzeppelin/contracts/token/ERC20/utils/SafeERC20.sol\":7948:7949  0 */\n      0x00\n        /* \"@openzeppelin/contracts/token/ERC20/utils/SafeERC20.sol\":7941:7946  token */\n      dup9\n        /* \"@openzeppelin/contracts/token/ERC20/utils/SafeERC20.sol\":7934:7939  gas() */\n      gas\n        /* \"@openzeppelin/contracts/token/ERC20/utils/SafeERC20.sol\":7929:7989  call(gas(), token, 0, add(data, 0x20), mload(data), 0, 0x20) */\n      call\n        /* \"@openzeppelin/contracts/token/ERC20/utils/SafeERC20.sol\":8041:8048  success */\n      dup1\n        /* \"@openzeppelin/contracts/token/ERC20/utils/SafeERC20.sol\":8031:8207  if iszero(success) {... */\n      tag_236\n      jumpi\n        /* \"@openzeppelin/contracts/token/ERC20/utils/SafeERC20.sol\":8085:8089  0x40 */\n      0x40\n        /* \"@openzeppelin/contracts/token/ERC20/utils/SafeERC20.sol\":8079:8090  mload(0x40) */\n      mload\n        /* \"@openzeppelin/contracts/token/ERC20/utils/SafeERC20.sol\":8130:8146  returndatasize() */\n      returndatasize\n        /* \"@openzeppelin/contracts/token/ERC20/utils/SafeERC20.sol\":8127:8128  0 */\n      0x00\n        /* \"@openzeppelin/contracts/token/ERC20/utils/SafeERC20.sol\":8122:8125  ptr */\n      dup3\n        /* \"@openzeppelin/contracts/token/ERC20/utils/SafeERC20.sol\":8107:8147  returndatacopy(ptr, 0, returndatasize()) */\n      returndatacopy\n        /* \"@openzeppelin/contracts/token/ERC20/utils/SafeERC20.sol\":8176:8192  returndatasize() */\n      returndatasize\n        /* \"@openzeppelin/contracts/token/ERC20/utils/SafeERC20.sol\":8171:8174  ptr */\n      dup2\n        /* \"@openzeppelin/contracts/token/ERC20/utils/SafeERC20.sol\":8164:8193  revert(ptr, returndatasize()) */\n      revert\n        /* \"@openzeppelin/contracts/token/ERC20/utils/SafeERC20.sol\":8031:8207  if iszero(success) {... */\n    tag_236:\n        /* \"@openzeppelin/contracts/token/ERC20/utils/SafeERC20.sol\":8234:8250  returndatasize() */\n      returndatasize\n        /* \"@openzeppelin/contracts/token/ERC20/utils/SafeERC20.sol\":8220:8250  returnSize := returndatasize() */\n      swap3\n      pop\n        /* \"@openzeppelin/contracts/token/ERC20/utils/SafeERC20.sol\":8284:8285  0 */\n      0x00\n        /* \"@openzeppelin/contracts/token/ERC20/utils/SafeERC20.sol\":8278:8286  mload(0) */\n      mload\n        /* \"@openzeppelin/contracts/token/ERC20/utils/SafeERC20.sol\":8263:8286  returnValue := mload(0) */\n      swap2\n      pop\n        /* \"@openzeppelin/contracts/token/ERC20/utils/SafeERC20.sol\":7900:8296  {... */\n      pop\n        /* \"@openzeppelin/contracts/token/ERC20/utils/SafeERC20.sol\":8324:8325  0 */\n      0x00\n        /* \"@openzeppelin/contracts/token/ERC20/utils/SafeERC20.sol\":8310:8320  returnSize */\n      dup3\n        /* \"@openzeppelin/contracts/token/ERC20/utils/SafeERC20.sol\":8310:8325  returnSize == 0 */\n      eq\n        /* \"@openzeppelin/contracts/token/ERC20/utils/SafeERC20.sol\":8310:8378  returnSize == 0 ? address(token).code.length == 0 : returnValue != 1 */\n      tag_237\n      jumpi\n        /* \"@openzeppelin/contracts/token/ERC20/utils/SafeERC20.sol\":8377:8378  1 */\n      0x01\n        /* \"@openzeppelin/contracts/token/ERC20/utils/SafeERC20.sol\":8362:8373  returnValue */\n      dup2\n        /* \"@openzeppelin/contracts/token/ERC20/utils/SafeERC20.sol\":8362:8378  returnValue != 1 */\n      eq\n      iszero\n        /* \"@openzeppelin/contracts/token/ERC20/utils/SafeERC20.sol\":8310:8378  returnSize == 0 ? address(token).code.length == 0 : returnValue != 1 */\n      jump(tag_238)\n    tag_237:\n        /* \"@openzeppelin/contracts/token/ERC20/utils/SafeERC20.sol\":8358:8359  0 */\n      0x00\n        /* \"@openzeppelin/contracts/token/ERC20/utils/SafeERC20.sol\":8336:8341  token */\n      dup5\n        /* \"@openzeppelin/contracts/token/ERC20/utils/SafeERC20.sol\":8328:8354  address(token).code.length */\n      0xffffffffffffffffffffffffffffffffffffffff\n      and\n      extcodesize\n        /* \"@openzeppelin/contracts/token/ERC20/utils/SafeERC20.sol\":8328:8359  address(token).code.length == 0 */\n      eq\n        /* \"@openzeppelin/contracts/token/ERC20/utils/SafeERC20.sol\":8310:8378  returnSize == 0 ? address(token).code.length == 0 : returnValue != 1 */\n    tag_238:\n        /* \"@openzeppelin/contracts/token/ERC20/utils/SafeERC20.sol\":8306:8452  if (returnSize == 0 ? address(token).code.length == 0 : returnValue != 1) {... */\n      iszero\n      tag_239\n      jumpi\n        /* \"@openzeppelin/contracts/token/ERC20/utils/SafeERC20.sol\":8434:8439  token */\n      dup4\n        /* \"@openzeppelin/contracts/token/ERC20/utils/SafeERC20.sol\":8401:8441  SafeERC20FailedOperation(address(token)) */\n      mload(0x40)\n      0x5274afe700000000000000000000000000000000000000000000000000000000\n      dup2\n      mstore\n      0x04\n      add\n      tag_240\n      swap2\n      swap1\n      tag_35\n      jump\t// in\n    tag_240:\n      mload(0x40)\n      dup1\n      swap2\n      sub\n      swap1\n      revert\n        /* \"@openzeppelin/contracts/token/ERC20/utils/SafeERC20.sol\":8306:8452  if (returnSize == 0 ? address(token).code.length == 0 : returnValue != 1) {... */\n    tag_239:\n        /* \"@openzeppelin/contracts/token/ERC20/utils/SafeERC20.sol\":7808:8458  {... */\n      pop\n      pop\n        /* \"@openzeppelin/contracts/token/ERC20/utils/SafeERC20.sol\":7738:8458  function _callOptionalReturn(IERC20 token, bytes memory data) private {... */\n      pop\n      pop\n      jump\t// out\n        /* \"@openzeppelin/contracts-upgradeable/proxy/utils/Initializable.sol\":7084:7225  function _checkInitializing() internal view virtual {... */\n    tag_221:\n        /* \"@openzeppelin/contracts-upgradeable/proxy/utils/Initializable.sol\":7151:7168  _isInitializing() */\n      tag_242\n        /* \"@openzeppelin/contracts-upgradeable/proxy/utils/Initializable.sol\":7151:7166  _isInitializing */\n      tag_243\n        /* \"@openzeppelin/contracts-upgradeable/proxy/utils/Initializable.sol\":7151:7168  _isInitializing() */\n      jump\t// in\n    tag_242:\n        /* \"@openzeppelin/contracts-upgradeable/proxy/utils/Initializable.sol\":7146:7219  if (!_isInitializing()) {... */\n      tag_244\n      jumpi\n        /* \"@openzeppelin/contracts-upgradeable/proxy/utils/Initializable.sol\":7191:7208  NotInitializing() */\n      mload(0x40)\n      0xd7e6bcf800000000000000000000000000000000000000000000000000000000\n      dup2\n      mstore\n      0x04\n      add\n      mload(0x40)\n      dup1\n      swap2\n      sub\n      swap1\n      revert\n        /* \"@openzeppelin/contracts-upgradeable/proxy/utils/Initializable.sol\":7146:7219  if (!_isInitializing()) {... */\n    tag_244:\n        /* \"@openzeppelin/contracts-upgradeable/proxy/utils/Initializable.sol\":7084:7225  function _checkInitializing() internal view virtual {... */\n      jump\t// out\n        /* \"@openzeppelin/contracts-upgradeable/access/OwnableUpgradeable.sol\":1980:2215  function __Ownable_init_unchained(address initialOwner) internal onlyInitializing {... */\n    tag_224:\n        /* \"@openzeppelin/contracts-upgradeable/proxy/utils/Initializable.sol\":6931:6951  _checkInitializing() */\n      tag_246\n        /* \"@openzeppelin/contracts-upgradeable/proxy/utils/Initializable.sol\":6931:6949  _checkInitializing */\n      tag_221\n        /* \"@openzeppelin/contracts-upgradeable/proxy/utils/Initializable.sol\":6931:6951  _checkInitializing() */\n      jump\t// in\n    tag_246:\n        /* \"@openzeppelin/contracts-upgradeable/access/OwnableUpgradeable.sol\":2100:2101  0 */\n      0x00\n        /* \"@openzeppelin/contracts-upgradeable/access/OwnableUpgradeable.sol\":2076:2102  initialOwner == address(0) */\n      0xffffffffffffffffffffffffffffffffffffffff\n      and\n        /* \"@openzeppelin/contracts-upgradeable/access/OwnableUpgradeable.sol\":2076:2088  initialOwner */\n      dup2\n        /* \"@openzeppelin/contracts-upgradeable/access/OwnableUpgradeable.sol\":2076:2102  initialOwner == address(0) */\n      0xffffffffffffffffffffffffffffffffffffffff\n      and\n      sub\n        /* \"@openzeppelin/contracts-upgradeable/access/OwnableUpgradeable.sol\":2072:2167  if (initialOwner == address(0)) {... */\n      tag_248\n      jumpi\n        /* \"@openzeppelin/contracts-upgradeable/access/OwnableUpgradeable.sol\":2153:2154  0 */\n      0x00\n        /* \"@openzeppelin/contracts-upgradeable/access/OwnableUpgradeable.sol\":2125:2156  OwnableInvalidOwner(address(0)) */\n      mload(0x40)\n      0x1e4fbdf700000000000000000000000000000000000000000000000000000000\n      dup2\n      mstore\n      0x04\n      add\n      tag_249\n      swap2\n      swap1\n      tag_35\n      jump\t// in\n    tag_249:\n      mload(0x40)\n      dup1\n      swap2\n      sub\n      swap1\n      revert\n        /* \"@openzeppelin/contracts-upgradeable/access/OwnableUpgradeable.sol\":2072:2167  if (initialOwner == address(0)) {... */\n    tag_248:\n        /* \"@openzeppelin/contracts-upgradeable/access/OwnableUpgradeable.sol\":2176:2208  _transferOwnership(initialOwner) */\n      tag_250\n        /* \"@openzeppelin/contracts-upgradeable/access/OwnableUpgradeable.sol\":2195:2207  initialOwner */\n      dup2\n        /* \"@openzeppelin/contracts-upgradeable/access/OwnableUpgradeable.sol\":2176:2194  _transferOwnership */\n      tag_157\n        /* \"@openzeppelin/contracts-upgradeable/access/OwnableUpgradeable.sol\":2176:2208  _transferOwnership(initialOwner) */\n      jump\t// in\n    tag_250:\n        /* \"@openzeppelin/contracts-upgradeable/access/OwnableUpgradeable.sol\":1980:2215  function __Ownable_init_unchained(address initialOwner) internal onlyInitializing {... */\n      pop\n      jump\t// out\n        /* \"@openzeppelin/contracts-upgradeable/utils/ContextUpgradeable.sol\":887:983  function _msgSender() internal view virtual returns (address) {... */\n    tag_227:\n        /* \"@openzeppelin/contracts-upgradeable/utils/ContextUpgradeable.sol\":940:947  address */\n      0x00\n        /* \"@openzeppelin/contracts-upgradeable/utils/ContextUpgradeable.sol\":966:976  msg.sender */\n      caller\n        /* \"@openzeppelin/contracts-upgradeable/utils/ContextUpgradeable.sol\":959:976  return msg.sender */\n      swap1\n      pop\n        /* \"@openzeppelin/contracts-upgradeable/utils/ContextUpgradeable.sol\":887:983  function _msgSender() internal view virtual returns (address) {... */\n      swap1\n      jump\t// out\n        /* \"@openzeppelin/contracts-upgradeable/proxy/utils/Initializable.sol\":8487:8607  function _isInitializing() internal view returns (bool) {... */\n    tag_243:\n        /* \"@openzeppelin/contracts-upgradeable/proxy/utils/Initializable.sol\":8537:8541  bool */\n      0x00\n        /* \"@openzeppelin/contracts-upgradeable/proxy/utils/Initializable.sol\":8560:8586  _getInitializableStorage() */\n      tag_253\n        /* \"@openzeppelin/contracts-upgradeable/proxy/utils/Initializable.sol\":8560:8584  _getInitializableStorage */\n      tag_140\n        /* \"@openzeppelin/contracts-upgradeable/proxy/utils/Initializable.sol\":8560:8586  _getInitializableStorage() */\n      jump\t// in\n    tag_253:\n        /* \"@openzeppelin/contracts-upgradeable/proxy/utils/Initializable.sol\":8560:8600  _getInitializableStorage()._initializing */\n      0x00\n      add\n      0x08\n      swap1\n      sload\n      swap1\n      0x0100\n      exp\n      swap1\n      div\n      0xff\n      and\n        /* \"@openzeppelin/contracts-upgradeable/proxy/utils/Initializable.sol\":8553:8600  return _getInitializableStorage()._initializing */\n      swap1\n      pop\n        /* \"@openzeppelin/contracts-upgradeable/proxy/utils/Initializable.sol\":8487:8607  function _isInitializing() internal view returns (bool) {... */\n      swap1\n      jump\t// out\n        /* \"#utility.yul\":7:84   */\n    tag_254:\n        /* \"#utility.yul\":44:51   */\n      0x00\n        /* \"#utility.yul\":73:78   */\n      dup2\n        /* \"#utility.yul\":62:78   */\n      swap1\n      pop\n        /* \"#utility.yul\":7:84   */\n      swap2\n      swap1\n      pop\n      jump\t// out\n        /* \"#utility.yul\":90:270   */\n    tag_255:\n        /* \"#utility.yul\":138:215   */\n      0x4e487b7100000000000000000000000000000000000000000000000000000000\n        /* \"#utility.yul\":135:136   */\n      0x00\n        /* \"#utility.yul\":128:216   */\n      mstore\n        /* \"#utility.yul\":235:239   */\n      0x11\n        /* \"#utility.yul\":232:233   */\n      0x04\n        /* \"#utility.yul\":225:240   */\n      mstore\n        /* \"#utility.yul\":259:263   */\n      0x24\n        /* \"#utility.yul\":256:257   */\n      0x00\n        /* \"#utility.yul\":249:264   */\n      revert\n        /* \"#utility.yul\":276:467   */\n    tag_23:\n        /* \"#utility.yul\":316:319   */\n      0x00\n        /* \"#utility.yul\":335:355   */\n      tag_335\n        /* \"#utility.yul\":353:354   */\n      dup3\n        /* \"#utility.yul\":335:355   */\n      tag_254\n      jump\t// in\n    tag_335:\n        /* \"#utility.yul\":330:355   */\n      swap2\n      pop\n        /* \"#utility.yul\":369:389   */\n      tag_336\n        /* \"#utility.yul\":387:388   */\n      dup4\n        /* \"#utility.yul\":369:389   */\n      tag_254\n      jump\t// in\n    tag_336:\n        /* \"#utility.yul\":364:389   */\n      swap3\n      pop\n        /* \"#utility.yul\":412:413   */\n      dup3\n        /* \"#utility.yul\":409:410   */\n      dup3\n        /* \"#utility.yul\":405:414   */\n      add\n        /* \"#utility.yul\":398:414   */\n      swap1\n      pop\n        /* \"#utility.yul\":433:436   */\n      dup1\n        /* \"#utility.yul\":430:431   */\n      dup3\n        /* \"#utility.yul\":427:437   */\n      gt\n        /* \"#utility.yul\":424:460   */\n      iszero\n      tag_337\n      jumpi\n        /* \"#utility.yul\":440:458   */\n      tag_338\n      tag_255\n      jump\t// in\n    tag_338:\n        /* \"#utility.yul\":424:460   */\n    tag_337:\n        /* \"#utility.yul\":276:467   */\n      swap3\n      swap2\n      pop\n      pop\n      jump\t// out\n        /* \"#utility.yul\":473:591   */\n    tag_256:\n        /* \"#utility.yul\":560:584   */\n      tag_340\n        /* \"#utility.yul\":578:583   */\n      dup2\n        /* \"#utility.yul\":560:584   */\n      tag_254\n      jump\t// in\n    tag_340:\n        /* \"#utility.yul\":555:558   */\n      dup3\n        /* \"#utility.yul\":548:585   */\n      mstore\n        /* \"#utility.yul\":473:591   */\n      pop\n      pop\n      jump\t// out\n        /* \"#utility.yul\":597:819   */\n    tag_25:\n        /* \"#utility.yul\":690:694   */\n      0x00\n        /* \"#utility.yul\":728:730   */\n      0x20\n        /* \"#utility.yul\":717:726   */\n      dup3\n        /* \"#utility.yul\":713:731   */\n      add\n        /* \"#utility.yul\":705:731   */\n      swap1\n      pop\n        /* \"#utility.yul\":741:812   */\n      tag_342\n        /* \"#utility.yul\":809:810   */\n      0x00\n        /* \"#utility.yul\":798:807   */\n      dup4\n        /* \"#utility.yul\":794:811   */\n      add\n        /* \"#utility.yul\":785:791   */\n      dup5\n        /* \"#utility.yul\":741:812   */\n      tag_256\n      jump\t// in\n    tag_342:\n        /* \"#utility.yul\":597:819   */\n      swap3\n      swap2\n      pop\n      pop\n      jump\t// out\n        /* \"#utility.yul\":825:900   */\n    tag_257:\n        /* \"#utility.yul\":858:864   */\n      0x00\n        /* \"#utility.yul\":891:893   */\n      0x40\n        /* \"#utility.yul\":885:894   */\n      mload\n        /* \"#utility.yul\":875:894   */\n      swap1\n      pop\n        /* \"#utility.yul\":825:900   */\n      swap1\n      jump\t// out\n        /* \"#utility.yul\":906:1023   */\n    tag_258:\n        /* \"#utility.yul\":1015:1016   */\n      0x00\n        /* \"#utility.yul\":1012:1013   */\n      0x00\n        /* \"#utility.yul\":1005:1017   */\n      revert\n        /* \"#utility.yul\":1029:1146   */\n    tag_259:\n        /* \"#utility.yul\":1138:1139   */\n      0x00\n        /* \"#utility.yul\":1135:1136   */\n      0x00\n        /* \"#utility.yul\":1128:1140   */\n      revert\n        /* \"#utility.yul\":1152:1278   */\n    tag_260:\n        /* \"#utility.yul\":1189:1196   */\n      0x00\n        /* \"#utility.yul\":1229:1271   */\n      0xffffffffffffffffffffffffffffffffffffffff\n        /* \"#utility.yul\":1222:1227   */\n      dup3\n        /* \"#utility.yul\":1218:1272   */\n      and\n        /* \"#utility.yul\":1207:1272   */\n      swap1\n      pop\n        /* \"#utility.yul\":1152:1278   */\n      swap2\n      swap1\n      pop\n      jump\t// out\n        /* \"#utility.yul\":1284:1380   */\n    tag_261:\n        /* \"#utility.yul\":1321:1328   */\n      0x00\n        /* \"#utility.yul\":1350:1374   */\n      tag_348\n        /* \"#utility.yul\":1368:1373   */\n      dup3\n        /* \"#utility.yul\":1350:1374   */\n      tag_260\n      jump\t// in\n    tag_348:\n        /* \"#utility.yul\":1339:1374   */\n      swap1\n      pop\n        /* \"#utility.yul\":1284:1380   */\n      swap2\n      swap1\n      pop\n      jump\t// out\n        /* \"#utility.yul\":1386:1508   */\n    tag_262:\n        /* \"#utility.yul\":1459:1483   */\n      tag_350\n        /* \"#utility.yul\":1477:1482   */\n      dup2\n        /* \"#utility.yul\":1459:1483   */\n      tag_261\n      jump\t// in\n    tag_350:\n        /* \"#utility.yul\":1452:1457   */\n      dup2\n        /* \"#utility.yul\":1449:1484   */\n      eq\n        /* \"#utility.yul\":1439:1502   */\n      tag_351\n      jumpi\n        /* \"#utility.yul\":1498:1499   */\n      0x00\n        /* \"#utility.yul\":1495:1496   */\n      0x00\n        /* \"#utility.yul\":1488:1500   */\n      revert\n        /* \"#utility.yul\":1439:1502   */\n    tag_351:\n        /* \"#utility.yul\":1386:1508   */\n      pop\n      jump\t// out\n        /* \"#utility.yul\":1514:1653   */\n    tag_263:\n        /* \"#utility.yul\":1560:1565   */\n      0x00\n        /* \"#utility.yul\":1598:1604   */\n      dup2\n        /* \"#utility.yul\":1585:1605   */\n      calldataload\n        /* \"#utility.yul\":1576:1605   */\n      swap1\n      pop\n        /* \"#utility.yul\":1614:1647   */\n      tag_353\n        /* \"#utility.yul\":1641:1646   */\n      dup2\n        /* \"#utility.yul\":1614:1647   */\n      tag_262\n      jump\t// in\n    tag_353:\n        /* \"#utility.yul\":1514:1653   */\n      swap3\n      swap2\n      pop\n      pop\n      jump\t// out\n        /* \"#utility.yul\":1659:1988   */\n    tag_29:\n        /* \"#utility.yul\":1718:1724   */\n      0x00\n        /* \"#utility.yul\":1767:1769   */\n      0x20\n        /* \"#utility.yul\":1755:1764   */\n      dup3\n        /* \"#utility.yul\":1746:1753   */\n      dup5\n        /* \"#utility.yul\":1742:1765   */\n      sub\n        /* \"#utility.yul\":1738:1770   */\n      slt\n        /* \"#utility.yul\":1735:1854   */\n      iszero\n      tag_355\n      jumpi\n        /* \"#utility.yul\":1773:1852   */\n      tag_356\n      tag_258\n      jump\t// in\n    tag_356:\n        /* \"#utility.yul\":1735:1854   */\n    tag_355:\n        /* \"#utility.yul\":1893:1894   */\n      0x00\n        /* \"#utility.yul\":1918:1971   */\n      tag_357\n        /* \"#utility.yul\":1963:1970   */\n      dup5\n        /* \"#utility.yul\":1954:1960   */\n      dup3\n        /* \"#utility.yul\":1943:1952   */\n      dup6\n        /* \"#utility.yul\":1939:1961   */\n      add\n        /* \"#utility.yul\":1918:1971   */\n      tag_263\n      jump\t// in\n    tag_357:\n        /* \"#utility.yul\":1908:1971   */\n      swap2\n      pop\n        /* \"#utility.yul\":1864:1981   */\n      pop\n        /* \"#utility.yul\":1659:1988   */\n      swap3\n      swap2\n      pop\n      pop\n      jump\t// out\n        /* \"#utility.yul\":1994:2112   */\n    tag_264:\n        /* \"#utility.yul\":2081:2105   */\n      tag_359\n        /* \"#utility.yul\":2099:2104   */\n      dup2\n        /* \"#utility.yul\":2081:2105   */\n      tag_261\n      jump\t// in\n    tag_359:\n        /* \"#utility.yul\":2076:2079   */\n      dup3\n        /* \"#utility.yul\":2069:2106   */\n      mstore\n        /* \"#utility.yul\":1994:2112   */\n      pop\n      pop\n      jump\t// out\n        /* \"#utility.yul\":2118:2340   */\n    tag_35:\n        /* \"#utility.yul\":2211:2215   */\n      0x00\n        /* \"#utility.yul\":2249:2251   */\n      0x20\n        /* \"#utility.yul\":2238:2247   */\n      dup3\n        /* \"#utility.yul\":2234:2252   */\n      add\n        /* \"#utility.yul\":2226:2252   */\n      swap1\n      pop\n        /* \"#utility.yul\":2262:2333   */\n      tag_361\n        /* \"#utility.yul\":2330:2331   */\n      0x00\n        /* \"#utility.yul\":2319:2328   */\n      dup4\n        /* \"#utility.yul\":2315:2332   */\n      add\n        /* \"#utility.yul\":2306:2312   */\n      dup5\n        /* \"#utility.yul\":2262:2333   */\n      tag_264\n      jump\t// in\n    tag_361:\n        /* \"#utility.yul\":2118:2340   */\n      swap3\n      swap2\n      pop\n      pop\n      jump\t// out\n        /* \"#utility.yul\":2346:2468   */\n    tag_265:\n        /* \"#utility.yul\":2419:2443   */\n      tag_363\n        /* \"#utility.yul\":2437:2442   */\n      dup2\n        /* \"#utility.yul\":2419:2443   */\n      tag_254\n      jump\t// in\n    tag_363:\n        /* \"#utility.yul\":2412:2417   */\n      dup2\n        /* \"#utility.yul\":2409:2444   */\n      eq\n        /* \"#utility.yul\":2399:2462   */\n      tag_364\n      jumpi\n        /* \"#utility.yul\":2458:2459   */\n      0x00\n        /* \"#utility.yul\":2455:2456   */\n      0x00\n        /* \"#utility.yul\":2448:2460   */\n      revert\n        /* \"#utility.yul\":2399:2462   */\n    tag_364:\n        /* \"#utility.yul\":2346:2468   */\n      pop\n      jump\t// out\n        /* \"#utility.yul\":2474:2613   */\n    tag_266:\n        /* \"#utility.yul\":2520:2525   */\n      0x00\n        /* \"#utility.yul\":2558:2564   */\n      dup2\n        /* \"#utility.yul\":2545:2565   */\n      calldataload\n        /* \"#utility.yul\":2536:2565   */\n      swap1\n      pop\n        /* \"#utility.yul\":2574:2607   */\n      tag_366\n        /* \"#utility.yul\":2601:2606   */\n      dup2\n        /* \"#utility.yul\":2574:2607   */\n      tag_265\n      jump\t// in\n    tag_366:\n        /* \"#utility.yul\":2474:2613   */\n      swap3\n      swap2\n      pop\n      pop\n      jump\t// out\n        /* \"#utility.yul\":2619:3093   */\n    tag_38:\n        /* \"#utility.yul\":2687:2693   */\n      0x00\n        /* \"#utility.yul\":2695:2701   */\n      0x00\n        /* \"#utility.yul\":2744:2746   */\n      0x40\n        /* \"#utility.yul\":2732:2741   */\n      dup4\n        /* \"#utility.yul\":2723:2730   */\n      dup6\n        /* \"#utility.yul\":2719:2742   */\n      sub\n        /* \"#utility.yul\":2715:2747   */\n      slt\n        /* \"#utility.yul\":2712:2831   */\n      iszero\n      tag_368\n      jumpi\n        /* \"#utility.yul\":2750:2829   */\n      tag_369\n      tag_258\n      jump\t// in\n    tag_369:\n        /* \"#utility.yul\":2712:2831   */\n    tag_368:\n        /* \"#utility.yul\":2870:2871   */\n      0x00\n        /* \"#utility.yul\":2895:2948   */\n      tag_370\n        /* \"#utility.yul\":2940:2947   */\n      dup6\n        /* \"#utility.yul\":2931:2937   */\n      dup3\n        /* \"#utility.yul\":2920:2929   */\n      dup7\n        /* \"#utility.yul\":2916:2938   */\n      add\n        /* \"#utility.yul\":2895:2948   */\n      tag_263\n      jump\t// in\n    tag_370:\n        /* \"#utility.yul\":2885:2948   */\n      swap3\n      pop\n        /* \"#utility.yul\":2841:2958   */\n      pop\n        /* \"#utility.yul\":2997:2999   */\n      0x20\n        /* \"#utility.yul\":3023:3076   */\n      tag_371\n        /* \"#utility.yul\":3068:3075   */\n      dup6\n        /* \"#utility.yul\":3059:3065   */\n      dup3\n        /* \"#utility.yul\":3048:3057   */\n      dup7\n        /* \"#utility.yul\":3044:3066   */\n      add\n        /* \"#utility.yul\":3023:3076   */\n      tag_266\n      jump\t// in\n    tag_371:\n        /* \"#utility.yul\":3013:3076   */\n      swap2\n      pop\n        /* \"#utility.yul\":2968:3086   */\n      pop\n        /* \"#utility.yul\":2619:3093   */\n      swap3\n      pop\n      swap3\n      swap1\n      pop\n      jump\t// out\n        /* \"#utility.yul\":3099:3573   */\n    tag_43:\n        /* \"#utility.yul\":3167:3173   */\n      0x00\n        /* \"#utility.yul\":3175:3181   */\n      0x00\n        /* \"#utility.yul\":3224:3226   */\n      0x40\n        /* \"#utility.yul\":3212:3221   */\n      dup4\n        /* \"#utility.yul\":3203:3210   */\n      dup6\n        /* \"#utility.yul\":3199:3222   */\n      sub\n        /* \"#utility.yul\":3195:3227   */\n      slt\n        /* \"#utility.yul\":3192:3311   */\n      iszero\n      tag_373\n      jumpi\n        /* \"#utility.yul\":3230:3309   */\n      tag_374\n      tag_258\n      jump\t// in\n    tag_374:\n        /* \"#utility.yul\":3192:3311   */\n    tag_373:\n        /* \"#utility.yul\":3350:3351   */\n      0x00\n        /* \"#utility.yul\":3375:3428   */\n      tag_375\n        /* \"#utility.yul\":3420:3427   */\n      dup6\n        /* \"#utility.yul\":3411:3417   */\n      dup3\n        /* \"#utility.yul\":3400:3409   */\n      dup7\n        /* \"#utility.yul\":3396:3418   */\n      add\n        /* \"#utility.yul\":3375:3428   */\n      tag_263\n      jump\t// in\n    tag_375:\n        /* \"#utility.yul\":3365:3428   */\n      swap3\n      pop\n        /* \"#utility.yul\":3321:3438   */\n      pop\n        /* \"#utility.yul\":3477:3479   */\n      0x20\n        /* \"#utility.yul\":3503:3556   */\n      tag_376\n        /* \"#utility.yul\":3548:3555   */\n      dup6\n        /* \"#utility.yul\":3539:3545   */\n      dup3\n        /* \"#utility.yul\":3528:3537   */\n      dup7\n        /* \"#utility.yul\":3524:3546   */\n      add\n        /* \"#utility.yul\":3503:3556   */\n      tag_263\n      jump\t// in\n    tag_376:\n        /* \"#utility.yul\":3493:3556   */\n      swap2\n      pop\n        /* \"#utility.yul\":3448:3566   */\n      pop\n        /* \"#utility.yul\":3099:3573   */\n      swap3\n      pop\n      swap3\n      swap1\n      pop\n      jump\t// out\n        /* \"#utility.yul\":3579:3639   */\n    tag_267:\n        /* \"#utility.yul\":3607:3610   */\n      0x00\n        /* \"#utility.yul\":3628:3633   */\n      dup2\n        /* \"#utility.yul\":3621:3633   */\n      swap1\n      pop\n        /* \"#utility.yul\":3579:3639   */\n      swap2\n      swap1\n      pop\n      jump\t// out\n        /* \"#utility.yul\":3645:3787   */\n    tag_268:\n        /* \"#utility.yul\":3695:3704   */\n      0x00\n        /* \"#utility.yul\":3728:3781   */\n      tag_379\n        /* \"#utility.yul\":3746:3780   */\n      tag_380\n        /* \"#utility.yul\":3755:3779   */\n      tag_381\n        /* \"#utility.yul\":3773:3778   */\n      dup5\n        /* \"#utility.yul\":3755:3779   */\n      tag_260\n      jump\t// in\n    tag_381:\n        /* \"#utility.yul\":3746:3780   */\n      tag_267\n      jump\t// in\n    tag_380:\n        /* \"#utility.yul\":3728:3781   */\n      tag_260\n      jump\t// in\n    tag_379:\n        /* \"#utility.yul\":3715:3781   */\n      swap1\n      pop\n        /* \"#utility.yul\":3645:3787   */\n      swap2\n      swap1\n      pop\n      jump\t// out\n        /* \"#utility.yul\":3793:3919   */\n    tag_269:\n        /* \"#utility.yul\":3843:3852   */\n      0x00\n        /* \"#utility.yul\":3876:3913   */\n      tag_383\n        /* \"#utility.yul\":3907:3912   */\n      dup3\n        /* \"#utility.yul\":3876:3913   */\n      tag_268\n      jump\t// in\n    tag_383:\n        /* \"#utility.yul\":3863:3913   */\n      swap1\n      pop\n        /* \"#utility.yul\":3793:3919   */\n      swap2\n      swap1\n      pop\n      jump\t// out\n        /* \"#utility.yul\":3925:4067   */\n    tag_270:\n        /* \"#utility.yul\":3991:4000   */\n      0x00\n        /* \"#utility.yul\":4024:4061   */\n      tag_385\n        /* \"#utility.yul\":4055:4060   */\n      dup3\n        /* \"#utility.yul\":4024:4061   */\n      tag_269\n      jump\t// in\n    tag_385:\n        /* \"#utility.yul\":4011:4061   */\n      swap1\n      pop\n        /* \"#utility.yul\":3925:4067   */\n      swap2\n      swap1\n      pop\n      jump\t// out\n        /* \"#utility.yul\":4073:4236   */\n    tag_271:\n        /* \"#utility.yul\":4176:4229   */\n      tag_387\n        /* \"#utility.yul\":4223:4228   */\n      dup2\n        /* \"#utility.yul\":4176:4229   */\n      tag_270\n      jump\t// in\n    tag_387:\n        /* \"#utility.yul\":4171:4174   */\n      dup3\n        /* \"#utility.yul\":4164:4230   */\n      mstore\n        /* \"#utility.yul\":4073:4236   */\n      pop\n      pop\n      jump\t// out\n        /* \"#utility.yul\":4242:4496   */\n    tag_52:\n        /* \"#utility.yul\":4351:4355   */\n      0x00\n        /* \"#utility.yul\":4389:4391   */\n      0x20\n        /* \"#utility.yul\":4378:4387   */\n      dup3\n        /* \"#utility.yul\":4374:4392   */\n      add\n        /* \"#utility.yul\":4366:4392   */\n      swap1\n      pop\n        /* \"#utility.yul\":4402:4489   */\n      tag_389\n        /* \"#utility.yul\":4486:4487   */\n      0x00\n        /* \"#utility.yul\":4475:4484   */\n      dup4\n        /* \"#utility.yul\":4471:4488   */\n      add\n        /* \"#utility.yul\":4462:4468   */\n      dup5\n        /* \"#utility.yul\":4402:4489   */\n      tag_271\n      jump\t// in\n    tag_389:\n        /* \"#utility.yul\":4242:4496   */\n      swap3\n      swap2\n      pop\n      pop\n      jump\t// out\n        /* \"#utility.yul\":4502:4601   */\n    tag_272:\n        /* \"#utility.yul\":4554:4560   */\n      0x00\n        /* \"#utility.yul\":4588:4593   */\n      dup2\n        /* \"#utility.yul\":4582:4594   */\n      mload\n        /* \"#utility.yul\":4572:4594   */\n      swap1\n      pop\n        /* \"#utility.yul\":4502:4601   */\n      swap2\n      swap1\n      pop\n      jump\t// out\n        /* \"#utility.yul\":4607:4776   */\n    tag_273:\n        /* \"#utility.yul\":4691:4702   */\n      0x00\n        /* \"#utility.yul\":4725:4731   */\n      dup3\n        /* \"#utility.yul\":4720:4723   */\n      dup3\n        /* \"#utility.yul\":4713:4732   */\n      mstore\n        /* \"#utility.yul\":4765:4769   */\n      0x20\n        /* \"#utility.yul\":4760:4763   */\n      dup3\n        /* \"#utility.yul\":4756:4770   */\n      add\n        /* \"#utility.yul\":4741:4770   */\n      swap1\n      pop\n        /* \"#utility.yul\":4607:4776   */\n      swap3\n      swap2\n      pop\n      pop\n      jump\t// out\n        /* \"#utility.yul\":4782:4921   */\n    tag_274:\n        /* \"#utility.yul\":4871:4877   */\n      dup3\n        /* \"#utility.yul\":4866:4869   */\n      dup2\n        /* \"#utility.yul\":4861:4864   */\n      dup4\n        /* \"#utility.yul\":4855:4878   */\n      mcopy\n        /* \"#utility.yul\":4912:4913   */\n      0x00\n        /* \"#utility.yul\":4903:4909   */\n      dup4\n        /* \"#utility.yul\":4898:4901   */\n      dup4\n        /* \"#utility.yul\":4894:4910   */\n      add\n        /* \"#utility.yul\":4887:4914   */\n      mstore\n        /* \"#utility.yul\":4782:4921   */\n      pop\n      pop\n      pop\n      jump\t// out\n        /* \"#utility.yul\":4927:5029   */\n    tag_275:\n        /* \"#utility.yul\":4968:4974   */\n      0x00\n        /* \"#utility.yul\":5019:5021   */\n      0x1f\n        /* \"#utility.yul\":5015:5022   */\n      not\n        /* \"#utility.yul\":5010:5012   */\n      0x1f\n        /* \"#utility.yul\":5003:5008   */\n      dup4\n        /* \"#utility.yul\":4999:5013   */\n      add\n        /* \"#utility.yul\":4995:5023   */\n      and\n        /* \"#utility.yul\":4985:5023   */\n      swap1\n      pop\n        /* \"#utility.yul\":4927:5029   */\n      swap2\n      swap1\n      pop\n      jump\t// out\n        /* \"#utility.yul\":5035:5412   */\n    tag_276:\n        /* \"#utility.yul\":5123:5126   */\n      0x00\n        /* \"#utility.yul\":5151:5190   */\n      tag_395\n        /* \"#utility.yul\":5184:5189   */\n      dup3\n        /* \"#utility.yul\":5151:5190   */\n      tag_272\n      jump\t// in\n    tag_395:\n        /* \"#utility.yul\":5206:5277   */\n      tag_396\n        /* \"#utility.yul\":5270:5276   */\n      dup2\n        /* \"#utility.yul\":5265:5268   */\n      dup6\n        /* \"#utility.yul\":5206:5277   */\n      tag_273\n      jump\t// in\n    tag_396:\n        /* \"#utility.yul\":5199:5277   */\n      swap4\n      pop\n        /* \"#utility.yul\":5286:5351   */\n      tag_397\n        /* \"#utility.yul\":5344:5350   */\n      dup2\n        /* \"#utility.yul\":5339:5342   */\n      dup6\n        /* \"#utility.yul\":5332:5336   */\n      0x20\n        /* \"#utility.yul\":5325:5330   */\n      dup7\n        /* \"#utility.yul\":5321:5337   */\n      add\n        /* \"#utility.yul\":5286:5351   */\n      tag_274\n      jump\t// in\n    tag_397:\n        /* \"#utility.yul\":5376:5405   */\n      tag_398\n        /* \"#utility.yul\":5398:5404   */\n      dup2\n        /* \"#utility.yul\":5376:5405   */\n      tag_275\n      jump\t// in\n    tag_398:\n        /* \"#utility.yul\":5371:5374   */\n      dup5\n        /* \"#utility.yul\":5367:5406   */\n      add\n        /* \"#utility.yul\":5360:5406   */\n      swap2\n      pop\n        /* \"#utility.yul\":5127:5412   */\n      pop\n        /* \"#utility.yul\":5035:5412   */\n      swap3\n      swap2\n      pop\n      pop\n      jump\t// out\n        /* \"#utility.yul\":5418:5951   */\n    tag_57:\n        /* \"#utility.yul\":5587:5591   */\n      0x00\n        /* \"#utility.yul\":5625:5627   */\n      0x60\n        /* \"#utility.yul\":5614:5623   */\n      dup3\n        /* \"#utility.yul\":5610:5628   */\n      add\n        /* \"#utility.yul\":5602:5628   */\n      swap1\n      pop\n        /* \"#utility.yul\":5638:5709   */\n      tag_400\n        /* \"#utility.yul\":5706:5707   */\n      0x00\n        /* \"#utility.yul\":5695:5704   */\n      dup4\n        /* \"#utility.yul\":5691:5708   */\n      add\n        /* \"#utility.yul\":5682:5688   */\n      dup7\n        /* \"#utility.yul\":5638:5709   */\n      tag_256\n      jump\t// in\n    tag_400:\n        /* \"#utility.yul\":5719:5791   */\n      tag_401\n        /* \"#utility.yul\":5787:5789   */\n      0x20\n        /* \"#utility.yul\":5776:5785   */\n      dup4\n        /* \"#utility.yul\":5772:5790   */\n      add\n        /* \"#utility.yul\":5763:5769   */\n      dup6\n        /* \"#utility.yul\":5719:5791   */\n      tag_256\n      jump\t// in\n    tag_401:\n        /* \"#utility.yul\":5838:5847   */\n      dup2\n        /* \"#utility.yul\":5832:5836   */\n      dup2\n        /* \"#utility.yul\":5828:5848   */\n      sub\n        /* \"#utility.yul\":5823:5825   */\n      0x40\n        /* \"#utility.yul\":5812:5821   */\n      dup4\n        /* \"#utility.yul\":5808:5826   */\n      add\n        /* \"#utility.yul\":5801:5849   */\n      mstore\n        /* \"#utility.yul\":5866:5944   */\n      tag_402\n        /* \"#utility.yul\":5939:5943   */\n      dup2\n        /* \"#utility.yul\":5930:5936   */\n      dup5\n        /* \"#utility.yul\":5866:5944   */\n      tag_276\n      jump\t// in\n    tag_402:\n        /* \"#utility.yul\":5858:5944   */\n      swap1\n      pop\n        /* \"#utility.yul\":5418:5951   */\n      swap5\n      swap4\n      pop\n      pop\n      pop\n      pop\n      jump\t// out\n        /* \"#utility.yul\":5957:6576   */\n    tag_75:\n        /* \"#utility.yul\":6034:6040   */\n      0x00\n        /* \"#utility.yul\":6042:6048   */\n      0x00\n        /* \"#utility.yul\":6050:6056   */\n      0x00\n        /* \"#utility.yul\":6099:6101   */\n      0x60\n        /* \"#utility.yul\":6087:6096   */\n      dup5\n        /* \"#utility.yul\":6078:6085   */\n      dup7\n        /* \"#utility.yul\":6074:6097   */\n      sub\n        /* \"#utility.yul\":6070:6102   */\n      slt\n        /* \"#utility.yul\":6067:6186   */\n      iszero\n      tag_404\n      jumpi\n        /* \"#utility.yul\":6105:6184   */\n      tag_405\n      tag_258\n      jump\t// in\n    tag_405:\n        /* \"#utility.yul\":6067:6186   */\n    tag_404:\n        /* \"#utility.yul\":6225:6226   */\n      0x00\n        /* \"#utility.yul\":6250:6303   */\n      tag_406\n        /* \"#utility.yul\":6295:6302   */\n      dup7\n        /* \"#utility.yul\":6286:6292   */\n      dup3\n        /* \"#utility.yul\":6275:6284   */\n      dup8\n        /* \"#utility.yul\":6271:6293   */\n      add\n        /* \"#utility.yul\":6250:6303   */\n      tag_263\n      jump\t// in\n    tag_406:\n        /* \"#utility.yul\":6240:6303   */\n      swap4\n      pop\n        /* \"#utility.yul\":6196:6313   */\n      pop\n        /* \"#utility.yul\":6352:6354   */\n      0x20\n        /* \"#utility.yul\":6378:6431   */\n      tag_407\n        /* \"#utility.yul\":6423:6430   */\n      dup7\n        /* \"#utility.yul\":6414:6420   */\n      dup3\n        /* \"#utility.yul\":6403:6412   */\n      dup8\n        /* \"#utility.yul\":6399:6421   */\n      add\n        /* \"#utility.yul\":6378:6431   */\n      tag_263\n      jump\t// in\n    tag_407:\n        /* \"#utility.yul\":6368:6431   */\n      swap3\n      pop\n        /* \"#utility.yul\":6323:6441   */\n      pop\n        /* \"#utility.yul\":6480:6482   */\n      0x40\n        /* \"#utility.yul\":6506:6559   */\n      tag_408\n        /* \"#utility.yul\":6551:6558   */\n      dup7\n        /* \"#utility.yul\":6542:6548   */\n      dup3\n        /* \"#utility.yul\":6531:6540   */\n      dup8\n        /* \"#utility.yul\":6527:6549   */\n      add\n        /* \"#utility.yul\":6506:6559   */\n      tag_266\n      jump\t// in\n    tag_408:\n        /* \"#utility.yul\":6496:6559   */\n      swap2\n      pop\n        /* \"#utility.yul\":6451:6569   */\n      pop\n        /* \"#utility.yul\":5957:6576   */\n      swap3\n      pop\n      swap3\n      pop\n      swap3\n      jump\t// out\n        /* \"#utility.yul\":6582:6699   */\n    tag_277:\n        /* \"#utility.yul\":6691:6692   */\n      0x00\n        /* \"#utility.yul\":6688:6689   */\n      0x00\n        /* \"#utility.yul\":6681:6693   */\n      revert\n        /* \"#utility.yul\":6705:6822   */\n    tag_278:\n        /* \"#utility.yul\":6814:6815   */\n      0x00\n        /* \"#utility.yul\":6811:6812   */\n      0x00\n        /* \"#utility.yul\":6804:6816   */\n      revert\n        /* \"#utility.yul\":6828:7008   */\n    tag_279:\n        /* \"#utility.yul\":6876:6953   */\n      0x4e487b7100000000000000000000000000000000000000000000000000000000\n        /* \"#utility.yul\":6873:6874   */\n      0x00\n        /* \"#utility.yul\":6866:6954   */\n      mstore\n        /* \"#utility.yul\":6973:6977   */\n      0x41\n        /* \"#utility.yul\":6970:6971   */\n      0x04\n        /* \"#utility.yul\":6963:6978   */\n      mstore\n        /* \"#utility.yul\":6997:7001   */\n      0x24\n        /* \"#utility.yul\":6994:6995   */\n      0x00\n        /* \"#utility.yul\":6987:7002   */\n      revert\n        /* \"#utility.yul\":7014:7295   */\n    tag_280:\n        /* \"#utility.yul\":7097:7124   */\n      tag_413\n        /* \"#utility.yul\":7119:7123   */\n      dup3\n        /* \"#utility.yul\":7097:7124   */\n      tag_275\n      jump\t// in\n    tag_413:\n        /* \"#utility.yul\":7089:7095   */\n      dup2\n        /* \"#utility.yul\":7085:7125   */\n      add\n        /* \"#utility.yul\":7227:7233   */\n      dup2\n        /* \"#utility.yul\":7215:7225   */\n      dup2\n        /* \"#utility.yul\":7212:7234   */\n      lt\n        /* \"#utility.yul\":7191:7209   */\n      0xffffffffffffffff\n        /* \"#utility.yul\":7179:7189   */\n      dup3\n        /* \"#utility.yul\":7176:7210   */\n      gt\n        /* \"#utility.yul\":7173:7235   */\n      or\n        /* \"#utility.yul\":7170:7258   */\n      iszero\n      tag_414\n      jumpi\n        /* \"#utility.yul\":7238:7256   */\n      tag_415\n      tag_279\n      jump\t// in\n    tag_415:\n        /* \"#utility.yul\":7170:7258   */\n    tag_414:\n        /* \"#utility.yul\":7278:7288   */\n      dup1\n        /* \"#utility.yul\":7274:7276   */\n      0x40\n        /* \"#utility.yul\":7267:7289   */\n      mstore\n        /* \"#utility.yul\":7057:7295   */\n      pop\n        /* \"#utility.yul\":7014:7295   */\n      pop\n      pop\n      jump\t// out\n        /* \"#utility.yul\":7301:7430   */\n    tag_281:\n        /* \"#utility.yul\":7335:7341   */\n      0x00\n        /* \"#utility.yul\":7362:7382   */\n      tag_417\n      tag_257\n      jump\t// in\n    tag_417:\n        /* \"#utility.yul\":7352:7382   */\n      swap1\n      pop\n        /* \"#utility.yul\":7391:7424   */\n      tag_418\n        /* \"#utility.yul\":7419:7423   */\n      dup3\n        /* \"#utility.yul\":7411:7417   */\n      dup3\n        /* \"#utility.yul\":7391:7424   */\n      tag_280\n      jump\t// in\n    tag_418:\n        /* \"#utility.yul\":7301:7430   */\n      swap2\n      swap1\n      pop\n      jump\t// out\n        /* \"#utility.yul\":7436:7744   */\n    tag_282:\n        /* \"#utility.yul\":7498:7502   */\n      0x00\n        /* \"#utility.yul\":7588:7606   */\n      0xffffffffffffffff\n        /* \"#utility.yul\":7580:7586   */\n      dup3\n        /* \"#utility.yul\":7577:7607   */\n      gt\n        /* \"#utility.yul\":7574:7630   */\n      iszero\n      tag_420\n      jumpi\n        /* \"#utility.yul\":7610:7628   */\n      tag_421\n      tag_279\n      jump\t// in\n    tag_421:\n        /* \"#utility.yul\":7574:7630   */\n    tag_420:\n        /* \"#utility.yul\":7648:7677   */\n      tag_422\n        /* \"#utility.yul\":7670:7676   */\n      dup3\n        /* \"#utility.yul\":7648:7677   */\n      tag_275\n      jump\t// in\n    tag_422:\n        /* \"#utility.yul\":7640:7677   */\n      swap1\n      pop\n        /* \"#utility.yul\":7732:7736   */\n      0x20\n        /* \"#utility.yul\":7726:7730   */\n      dup2\n        /* \"#utility.yul\":7722:7737   */\n      add\n        /* \"#utility.yul\":7714:7737   */\n      swap1\n      pop\n        /* \"#utility.yul\":7436:7744   */\n      swap2\n      swap1\n      pop\n      jump\t// out\n        /* \"#utility.yul\":7750:7898   */\n    tag_283:\n        /* \"#utility.yul\":7848:7854   */\n      dup3\n        /* \"#utility.yul\":7843:7846   */\n      dup2\n        /* \"#utility.yul\":7838:7841   */\n      dup4\n        /* \"#utility.yul\":7825:7855   */\n      calldatacopy\n        /* \"#utility.yul\":7889:7890   */\n      0x00\n        /* \"#utility.yul\":7880:7886   */\n      dup4\n        /* \"#utility.yul\":7875:7878   */\n      dup4\n        /* \"#utility.yul\":7871:7887   */\n      add\n        /* \"#utility.yul\":7864:7891   */\n      mstore\n        /* \"#utility.yul\":7750:7898   */\n      pop\n      pop\n      pop\n      jump\t// out\n        /* \"#utility.yul\":7904:8329   */\n    tag_284:\n        /* \"#utility.yul\":7982:7987   */\n      0x00\n        /* \"#utility.yul\":8007:8073   */\n      tag_425\n        /* \"#utility.yul\":8023:8072   */\n      tag_426\n        /* \"#utility.yul\":8065:8071   */\n      dup5\n        /* \"#utility.yul\":8023:8072   */\n      tag_282\n      jump\t// in\n    tag_426:\n        /* \"#utility.yul\":8007:8073   */\n      tag_281\n      jump\t// in\n    tag_425:\n        /* \"#utility.yul\":7998:8073   */\n      swap1\n      pop\n        /* \"#utility.yul\":8096:8102   */\n      dup3\n        /* \"#utility.yul\":8089:8094   */\n      dup2\n        /* \"#utility.yul\":8082:8103   */\n      mstore\n        /* \"#utility.yul\":8134:8138   */\n      0x20\n        /* \"#utility.yul\":8127:8132   */\n      dup2\n        /* \"#utility.yul\":8123:8139   */\n      add\n        /* \"#utility.yul\":8172:8175   */\n      dup5\n        /* \"#utility.yul\":8163:8169   */\n      dup5\n        /* \"#utility.yul\":8158:8161   */\n      dup5\n        /* \"#utility.yul\":8154:8170   */\n      add\n        /* \"#utility.yul\":8151:8176   */\n      gt\n        /* \"#utility.yul\":8148:8260   */\n      iszero\n      tag_427\n      jumpi\n        /* \"#utility.yul\":8179:8258   */\n      tag_428\n      tag_278\n      jump\t// in\n    tag_428:\n        /* \"#utility.yul\":8148:8260   */\n    tag_427:\n        /* \"#utility.yul\":8269:8323   */\n      tag_429\n        /* \"#utility.yul\":8316:8322   */\n      dup5\n        /* \"#utility.yul\":8311:8314   */\n      dup3\n        /* \"#utility.yul\":8306:8309   */\n      dup6\n        /* \"#utility.yul\":8269:8323   */\n      tag_283\n      jump\t// in\n    tag_429:\n        /* \"#utility.yul\":7988:8329   */\n      pop\n        /* \"#utility.yul\":7904:8329   */\n      swap4\n      swap3\n      pop\n      pop\n      pop\n      jump\t// out\n        /* \"#utility.yul\":8349:8689   */\n    tag_285:\n        /* \"#utility.yul\":8405:8410   */\n      0x00\n        /* \"#utility.yul\":8454:8457   */\n      dup3\n        /* \"#utility.yul\":8447:8451   */\n      0x1f\n        /* \"#utility.yul\":8439:8445   */\n      dup4\n        /* \"#utility.yul\":8435:8452   */\n      add\n        /* \"#utility.yul\":8431:8458   */\n      slt\n        /* \"#utility.yul\":8421:8543   */\n      tag_431\n      jumpi\n        /* \"#utility.yul\":8462:8541   */\n      tag_432\n      tag_277\n      jump\t// in\n    tag_432:\n        /* \"#utility.yul\":8421:8543   */\n    tag_431:\n        /* \"#utility.yul\":8579:8585   */\n      dup2\n        /* \"#utility.yul\":8566:8586   */\n      calldataload\n        /* \"#utility.yul\":8604:8683   */\n      tag_433\n        /* \"#utility.yul\":8679:8682   */\n      dup5\n        /* \"#utility.yul\":8671:8677   */\n      dup3\n        /* \"#utility.yul\":8664:8668   */\n      0x20\n        /* \"#utility.yul\":8656:8662   */\n      dup7\n        /* \"#utility.yul\":8652:8669   */\n      add\n        /* \"#utility.yul\":8604:8683   */\n      tag_284\n      jump\t// in\n    tag_433:\n        /* \"#utility.yul\":8595:8683   */\n      swap2\n      pop\n        /* \"#utility.yul\":8411:8689   */\n      pop\n        /* \"#utility.yul\":8349:8689   */\n      swap3\n      swap2\n      pop\n      pop\n      jump\t// out\n        /* \"#utility.yul\":8695:9494   */\n    tag_80:\n        /* \"#utility.yul\":8782:8788   */\n      0x00\n        /* \"#utility.yul\":8790:8796   */\n      0x00\n        /* \"#utility.yul\":8798:8804   */\n      0x00\n        /* \"#utility.yul\":8847:8849   */\n      0x60\n        /* \"#utility.yul\":8835:8844   */\n      dup5\n        /* \"#utility.yul\":8826:8833   */\n      dup7\n        /* \"#utility.yul\":8822:8845   */\n      sub\n        /* \"#utility.yul\":8818:8850   */\n      slt\n        /* \"#utility.yul\":8815:8934   */\n      iszero\n      tag_435\n      jumpi\n        /* \"#utility.yul\":8853:8932   */\n      tag_436\n      tag_258\n      jump\t// in\n    tag_436:\n        /* \"#utility.yul\":8815:8934   */\n    tag_435:\n        /* \"#utility.yul\":8973:8974   */\n      0x00\n        /* \"#utility.yul\":8998:9051   */\n      tag_437\n        /* \"#utility.yul\":9043:9050   */\n      dup7\n        /* \"#utility.yul\":9034:9040   */\n      dup3\n        /* \"#utility.yul\":9023:9032   */\n      dup8\n        /* \"#utility.yul\":9019:9041   */\n      add\n        /* \"#utility.yul\":8998:9051   */\n      tag_266\n      jump\t// in\n    tag_437:\n        /* \"#utility.yul\":8988:9051   */\n      swap4\n      pop\n        /* \"#utility.yul\":8944:9061   */\n      pop\n        /* \"#utility.yul\":9100:9102   */\n      0x20\n        /* \"#utility.yul\":9126:9179   */\n      tag_438\n        /* \"#utility.yul\":9171:9178   */\n      dup7\n        /* \"#utility.yul\":9162:9168   */\n      dup3\n        /* \"#utility.yul\":9151:9160   */\n      dup8\n        /* \"#utility.yul\":9147:9169   */\n      add\n        /* \"#utility.yul\":9126:9179   */\n      tag_266\n      jump\t// in\n    tag_438:\n        /* \"#utility.yul\":9116:9179   */\n      swap3\n      pop\n        /* \"#utility.yul\":9071:9189   */\n      pop\n        /* \"#utility.yul\":9256:9258   */\n      0x40\n        /* \"#utility.yul\":9245:9254   */\n      dup5\n        /* \"#utility.yul\":9241:9259   */\n      add\n        /* \"#utility.yul\":9228:9260   */\n      calldataload\n        /* \"#utility.yul\":9287:9305   */\n      0xffffffffffffffff\n        /* \"#utility.yul\":9279:9285   */\n      dup2\n        /* \"#utility.yul\":9276:9306   */\n      gt\n        /* \"#utility.yul\":9273:9390   */\n      iszero\n      tag_439\n      jumpi\n        /* \"#utility.yul\":9309:9388   */\n      tag_440\n      tag_259\n      jump\t// in\n    tag_440:\n        /* \"#utility.yul\":9273:9390   */\n    tag_439:\n        /* \"#utility.yul\":9414:9477   */\n      tag_441\n        /* \"#utility.yul\":9469:9476   */\n      dup7\n        /* \"#utility.yul\":9460:9466   */\n      dup3\n        /* \"#utility.yul\":9449:9458   */\n      dup8\n        /* \"#utility.yul\":9445:9467   */\n      add\n        /* \"#utility.yul\":9414:9477   */\n      tag_285\n      jump\t// in\n    tag_441:\n        /* \"#utility.yul\":9404:9477   */\n      swap2\n      pop\n        /* \"#utility.yul\":9199:9487   */\n      pop\n        /* \"#utility.yul\":8695:9494   */\n      swap3\n      pop\n      swap3\n      pop\n      swap3\n      jump\t// out\n        /* \"#utility.yul\":9500:9675   */\n    tag_286:\n        /* \"#utility.yul\":9640:9667   */\n      0x4e6f742077697468696e20726f756e64206475726174696f6e00000000000000\n        /* \"#utility.yul\":9636:9637   */\n      0x00\n        /* \"#utility.yul\":9628:9634   */\n      dup3\n        /* \"#utility.yul\":9624:9638   */\n      add\n        /* \"#utility.yul\":9617:9668   */\n      mstore\n        /* \"#utility.yul\":9500:9675   */\n      pop\n      jump\t// out\n        /* \"#utility.yul\":9681:10047   */\n    tag_287:\n        /* \"#utility.yul\":9823:9826   */\n      0x00\n        /* \"#utility.yul\":9844:9911   */\n      tag_444\n        /* \"#utility.yul\":9908:9910   */\n      0x19\n        /* \"#utility.yul\":9903:9906   */\n      dup4\n        /* \"#utility.yul\":9844:9911   */\n      tag_273\n      jump\t// in\n    tag_444:\n        /* \"#utility.yul\":9837:9911   */\n      swap2\n      pop\n        /* \"#utility.yul\":9920:10013   */\n      tag_445\n        /* \"#utility.yul\":10009:10012   */\n      dup3\n        /* \"#utility.yul\":9920:10013   */\n      tag_286\n      jump\t// in\n    tag_445:\n        /* \"#utility.yul\":10038:10040   */\n      0x20\n        /* \"#utility.yul\":10033:10036   */\n      dup3\n        /* \"#utility.yul\":10029:10041   */\n      add\n        /* \"#utility.yul\":10022:10041   */\n      swap1\n      pop\n        /* \"#utility.yul\":9681:10047   */\n      swap2\n      swap1\n      pop\n      jump\t// out\n        /* \"#utility.yul\":10053:10472   */\n    tag_94:\n        /* \"#utility.yul\":10219:10223   */\n      0x00\n        /* \"#utility.yul\":10257:10259   */\n      0x20\n        /* \"#utility.yul\":10246:10255   */\n      dup3\n        /* \"#utility.yul\":10242:10260   */\n      add\n        /* \"#utility.yul\":10234:10260   */\n      swap1\n      pop\n        /* \"#utility.yul\":10306:10315   */\n      dup2\n        /* \"#utility.yul\":10300:10304   */\n      dup2\n        /* \"#utility.yul\":10296:10316   */\n      sub\n        /* \"#utility.yul\":10292:10293   */\n      0x00\n        /* \"#utility.yul\":10281:10290   */\n      dup4\n        /* \"#utility.yul\":10277:10294   */\n      add\n        /* \"#utility.yul\":10270:10317   */\n      mstore\n        /* \"#utility.yul\":10334:10465   */\n      tag_447\n        /* \"#utility.yul\":10460:10464   */\n      dup2\n        /* \"#utility.yul\":10334:10465   */\n      tag_287\n      jump\t// in\n    tag_447:\n        /* \"#utility.yul\":10326:10465   */\n      swap1\n      pop\n        /* \"#utility.yul\":10053:10472   */\n      swap2\n      swap1\n      pop\n      jump\t// out\n        /* \"#utility.yul\":10478:10647   */\n    tag_288:\n        /* \"#utility.yul\":10618:10639   */\n      0x4e6f20636c61696d61626c6520616d6f756e7400000000000000000000000000\n        /* \"#utility.yul\":10614:10615   */\n      0x00\n        /* \"#utility.yul\":10606:10612   */\n      dup3\n        /* \"#utility.yul\":10602:10616   */\n      add\n        /* \"#utility.yul\":10595:10640   */\n      mstore\n        /* \"#utility.yul\":10478:10647   */\n      pop\n      jump\t// out\n        /* \"#utility.yul\":10653:11019   */\n    tag_289:\n        /* \"#utility.yul\":10795:10798   */\n      0x00\n        /* \"#utility.yul\":10816:10883   */\n      tag_450\n        /* \"#utility.yul\":10880:10882   */\n      0x13\n        /* \"#utility.yul\":10875:10878   */\n      dup4\n        /* \"#utility.yul\":10816:10883   */\n      tag_273\n      jump\t// in\n    tag_450:\n        /* \"#utility.yul\":10809:10883   */\n      swap2\n      pop\n        /* \"#utility.yul\":10892:10985   */\n      tag_451\n        /* \"#utility.yul\":10981:10984   */\n      dup3\n        /* \"#utility.yul\":10892:10985   */\n      tag_288\n      jump\t// in\n    tag_451:\n        /* \"#utility.yul\":11010:11012   */\n      0x20\n        /* \"#utility.yul\":11005:11008   */\n      dup3\n        /* \"#utility.yul\":11001:11013   */\n      add\n        /* \"#utility.yul\":10994:11013   */\n      swap1\n      pop\n        /* \"#utility.yul\":10653:11019   */\n      swap2\n      swap1\n      pop\n      jump\t// out\n        /* \"#utility.yul\":11025:11444   */\n    tag_97:\n        /* \"#utility.yul\":11191:11195   */\n      0x00\n        /* \"#utility.yul\":11229:11231   */\n      0x20\n        /* \"#utility.yul\":11218:11227   */\n      dup3\n        /* \"#utility.yul\":11214:11232   */\n      add\n        /* \"#utility.yul\":11206:11232   */\n      swap1\n      pop\n        /* \"#utility.yul\":11278:11287   */\n      dup2\n        /* \"#utility.yul\":11272:11276   */\n      dup2\n        /* \"#utility.yul\":11268:11288   */\n      sub\n        /* \"#utility.yul\":11264:11265   */\n      0x00\n        /* \"#utility.yul\":11253:11262   */\n      dup4\n        /* \"#utility.yul\":11249:11266   */\n      add\n        /* \"#utility.yul\":11242:11289   */\n      mstore\n        /* \"#utility.yul\":11306:11437   */\n      tag_453\n        /* \"#utility.yul\":11432:11436   */\n      dup2\n        /* \"#utility.yul\":11306:11437   */\n      tag_289\n      jump\t// in\n    tag_453:\n        /* \"#utility.yul\":11298:11437   */\n      swap1\n      pop\n        /* \"#utility.yul\":11025:11444   */\n      swap2\n      swap1\n      pop\n      jump\t// out\n        /* \"#utility.yul\":11450:11625   */\n    tag_290:\n        /* \"#utility.yul\":11590:11617   */\n      0x496e73756666696369656e742066756e647320696e206a617200000000000000\n        /* \"#utility.yul\":11586:11587   */\n      0x00\n        /* \"#utility.yul\":11578:11584   */\n      dup3\n        /* \"#utility.yul\":11574:11588   */\n      add\n        /* \"#utility.yul\":11567:11618   */\n      mstore\n        /* \"#utility.yul\":11450:11625   */\n      pop\n      jump\t// out\n        /* \"#utility.yul\":11631:11997   */\n    tag_291:\n        /* \"#utility.yul\":11773:11776   */\n      0x00\n        /* \"#utility.yul\":11794:11861   */\n      tag_456\n        /* \"#utility.yul\":11858:11860   */\n      0x19\n        /* \"#utility.yul\":11853:11856   */\n      dup4\n        /* \"#utility.yul\":11794:11861   */\n      tag_273\n      jump\t// in\n    tag_456:\n        /* \"#utility.yul\":11787:11861   */\n      swap2\n      pop\n        /* \"#utility.yul\":11870:11963   */\n      tag_457\n        /* \"#utility.yul\":11959:11962   */\n      dup3\n        /* \"#utility.yul\":11870:11963   */\n      tag_290\n      jump\t// in\n    tag_457:\n        /* \"#utility.yul\":11988:11990   */\n      0x20\n        /* \"#utility.yul\":11983:11986   */\n      dup3\n        /* \"#utility.yul\":11979:11991   */\n      add\n        /* \"#utility.yul\":11972:11991   */\n      swap1\n      pop\n        /* \"#utility.yul\":11631:11997   */\n      swap2\n      swap1\n      pop\n      jump\t// out\n        /* \"#utility.yul\":12003:12422   */\n    tag_100:\n        /* \"#utility.yul\":12169:12173   */\n      0x00\n        /* \"#utility.yul\":12207:12209   */\n      0x20\n        /* \"#utility.yul\":12196:12205   */\n      dup3\n        /* \"#utility.yul\":12192:12210   */\n      add\n        /* \"#utility.yul\":12184:12210   */\n      swap1\n      pop\n        /* \"#utility.yul\":12256:12265   */\n      dup2\n        /* \"#utility.yul\":12250:12254   */\n      dup2\n        /* \"#utility.yul\":12246:12266   */\n      sub\n        /* \"#utility.yul\":12242:12243   */\n      0x00\n        /* \"#utility.yul\":12231:12240   */\n      dup4\n        /* \"#utility.yul\":12227:12244   */\n      add\n        /* \"#utility.yul\":12220:12267   */\n      mstore\n        /* \"#utility.yul\":12284:12415   */\n      tag_459\n        /* \"#utility.yul\":12410:12414   */\n      dup2\n        /* \"#utility.yul\":12284:12415   */\n      tag_291\n      jump\t// in\n    tag_459:\n        /* \"#utility.yul\":12276:12415   */\n      swap1\n      pop\n        /* \"#utility.yul\":12003:12422   */\n      swap2\n      swap1\n      pop\n      jump\t// out\n        /* \"#utility.yul\":12428:12505   */\n    tag_292:\n        /* \"#utility.yul\":12465:12472   */\n      0x00\n        /* \"#utility.yul\":12494:12499   */\n      dup2\n        /* \"#utility.yul\":12483:12499   */\n      swap1\n      pop\n        /* \"#utility.yul\":12428:12505   */\n      swap2\n      swap1\n      pop\n      jump\t// out\n        /* \"#utility.yul\":12511:12629   */\n    tag_293:\n        /* \"#utility.yul\":12598:12622   */\n      tag_462\n        /* \"#utility.yul\":12616:12621   */\n      dup2\n        /* \"#utility.yul\":12598:12622   */\n      tag_292\n      jump\t// in\n    tag_462:\n        /* \"#utility.yul\":12593:12596   */\n      dup3\n        /* \"#utility.yul\":12586:12623   */\n      mstore\n        /* \"#utility.yul\":12511:12629   */\n      pop\n      pop\n      jump\t// out\n        /* \"#utility.yul\":12635:12967   */\n    tag_102:\n        /* \"#utility.yul\":12756:12760   */\n      0x00\n        /* \"#utility.yul\":12794:12796   */\n      0x40\n        /* \"#utility.yul\":12783:12792   */\n      dup3\n        /* \"#utility.yul\":12779:12797   */\n      add\n        /* \"#utility.yul\":12771:12797   */\n      swap1\n      pop\n        /* \"#utility.yul\":12807:12878   */\n      tag_464\n        /* \"#utility.yul\":12875:12876   */\n      0x00\n        /* \"#utility.yul\":12864:12873   */\n      dup4\n        /* \"#utility.yul\":12860:12877   */\n      add\n        /* \"#utility.yul\":12851:12857   */\n      dup6\n        /* \"#utility.yul\":12807:12878   */\n      tag_264\n      jump\t// in\n    tag_464:\n        /* \"#utility.yul\":12888:12960   */\n      tag_465\n        /* \"#utility.yul\":12956:12958   */\n      0x20\n        /* \"#utility.yul\":12945:12954   */\n      dup4\n        /* \"#utility.yul\":12941:12959   */\n      add\n        /* \"#utility.yul\":12932:12938   */\n      dup5\n        /* \"#utility.yul\":12888:12960   */\n      tag_293\n      jump\t// in\n    tag_465:\n        /* \"#utility.yul\":12635:12967   */\n      swap4\n      swap3\n      pop\n      pop\n      pop\n      jump\t// out\n        /* \"#utility.yul\":12973:13116   */\n    tag_294:\n        /* \"#utility.yul\":13030:13035   */\n      0x00\n        /* \"#utility.yul\":13061:13067   */\n      dup2\n        /* \"#utility.yul\":13055:13068   */\n      mload\n        /* \"#utility.yul\":13046:13068   */\n      swap1\n      pop\n        /* \"#utility.yul\":13077:13110   */\n      tag_467\n        /* \"#utility.yul\":13104:13109   */\n      dup2\n        /* \"#utility.yul\":13077:13110   */\n      tag_265\n      jump\t// in\n    tag_467:\n        /* \"#utility.yul\":12973:13116   */\n      swap3\n      swap2\n      pop\n      pop\n      jump\t// out\n        /* \"#utility.yul\":13122:13473   */\n    tag_106:\n        /* \"#utility.yul\":13192:13198   */\n      0x00\n        /* \"#utility.yul\":13241:13243   */\n      0x20\n        /* \"#utility.yul\":13229:13238   */\n      dup3\n        /* \"#utility.yul\":13220:13227   */\n      dup5\n        /* \"#utility.yul\":13216:13239   */\n      sub\n        /* \"#utility.yul\":13212:13244   */\n      slt\n        /* \"#utility.yul\":13209:13328   */\n      iszero\n      tag_469\n      jumpi\n        /* \"#utility.yul\":13247:13326   */\n      tag_470\n      tag_258\n      jump\t// in\n    tag_470:\n        /* \"#utility.yul\":13209:13328   */\n    tag_469:\n        /* \"#utility.yul\":13367:13368   */\n      0x00\n        /* \"#utility.yul\":13392:13456   */\n      tag_471\n        /* \"#utility.yul\":13448:13455   */\n      dup5\n        /* \"#utility.yul\":13439:13445   */\n      dup3\n        /* \"#utility.yul\":13428:13437   */\n      dup6\n        /* \"#utility.yul\":13424:13446   */\n      add\n        /* \"#utility.yul\":13392:13456   */\n      tag_294\n      jump\t// in\n    tag_471:\n        /* \"#utility.yul\":13382:13456   */\n      swap2\n      pop\n        /* \"#utility.yul\":13338:13466   */\n      pop\n        /* \"#utility.yul\":13122:13473   */\n      swap3\n      swap2\n      pop\n      pop\n      jump\t// out\n        /* \"#utility.yul\":13479:13653   */\n    tag_295:\n        /* \"#utility.yul\":13619:13645   */\n      0x496e73756666696369656e742054727573742073636f72650000000000000000\n        /* \"#utility.yul\":13615:13616   */\n      0x00\n        /* \"#utility.yul\":13607:13613   */\n      dup3\n        /* \"#utility.yul\":13603:13617   */\n      add\n        /* \"#utility.yul\":13596:13646   */\n      mstore\n        /* \"#utility.yul\":13479:13653   */\n      pop\n      jump\t// out\n        /* \"#utility.yul\":13659:14025   */\n    tag_296:\n        /* \"#utility.yul\":13801:13804   */\n      0x00\n        /* \"#utility.yul\":13822:13889   */\n      tag_474\n        /* \"#utility.yul\":13886:13888   */\n      0x18\n        /* \"#utility.yul\":13881:13884   */\n      dup4\n        /* \"#utility.yul\":13822:13889   */\n      tag_273\n      jump\t// in\n    tag_474:\n        /* \"#utility.yul\":13815:13889   */\n      swap2\n      pop\n        /* \"#utility.yul\":13898:13991   */\n      tag_475\n        /* \"#utility.yul\":13987:13990   */\n      dup3\n        /* \"#utility.yul\":13898:13991   */\n      tag_295\n      jump\t// in\n    tag_475:\n        /* \"#utility.yul\":14016:14018   */\n      0x20\n        /* \"#utility.yul\":14011:14014   */\n      dup3\n        /* \"#utility.yul\":14007:14019   */\n      add\n        /* \"#utility.yul\":14000:14019   */\n      swap1\n      pop\n        /* \"#utility.yul\":13659:14025   */\n      swap2\n      swap1\n      pop\n      jump\t// out\n        /* \"#utility.yul\":14031:14450   */\n    tag_109:\n        /* \"#utility.yul\":14197:14201   */\n      0x00\n        /* \"#utility.yul\":14235:14237   */\n      0x20\n        /* \"#utility.yul\":14224:14233   */\n      dup3\n        /* \"#utility.yul\":14220:14238   */\n      add\n        /* \"#utility.yul\":14212:14238   */\n      swap1\n      pop\n        /* \"#utility.yul\":14284:14293   */\n      dup2\n        /* \"#utility.yul\":14278:14282   */\n      dup2\n        /* \"#utility.yul\":14274:14294   */\n      sub\n        /* \"#utility.yul\":14270:14271   */\n      0x00\n        /* \"#utility.yul\":14259:14268   */\n      dup4\n        /* \"#utility.yul\":14255:14272   */\n      add\n        /* \"#utility.yul\":14248:14295   */\n      mstore\n        /* \"#utility.yul\":14312:14443   */\n      tag_477\n        /* \"#utility.yul\":14438:14442   */\n      dup2\n        /* \"#utility.yul\":14312:14443   */\n      tag_296\n      jump\t// in\n    tag_477:\n        /* \"#utility.yul\":14304:14443   */\n      swap1\n      pop\n        /* \"#utility.yul\":14031:14450   */\n      swap2\n      swap1\n      pop\n      jump\t// out\n        /* \"#utility.yul\":14456:14650   */\n    tag_111:\n        /* \"#utility.yul\":14496:14500   */\n      0x00\n        /* \"#utility.yul\":14516:14536   */\n      tag_479\n        /* \"#utility.yul\":14534:14535   */\n      dup3\n        /* \"#utility.yul\":14516:14536   */\n      tag_254\n      jump\t// in\n    tag_479:\n        /* \"#utility.yul\":14511:14536   */\n      swap2\n      pop\n        /* \"#utility.yul\":14550:14570   */\n      tag_480\n        /* \"#utility.yul\":14568:14569   */\n      dup4\n        /* \"#utility.yul\":14550:14570   */\n      tag_254\n      jump\t// in\n    tag_480:\n        /* \"#utility.yul\":14545:14570   */\n      swap3\n      pop\n        /* \"#utility.yul\":14594:14595   */\n      dup3\n        /* \"#utility.yul\":14591:14592   */\n      dup3\n        /* \"#utility.yul\":14587:14596   */\n      sub\n        /* \"#utility.yul\":14579:14596   */\n      swap1\n      pop\n        /* \"#utility.yul\":14618:14619   */\n      dup2\n        /* \"#utility.yul\":14612:14616   */\n      dup2\n        /* \"#utility.yul\":14609:14620   */\n      gt\n        /* \"#utility.yul\":14606:14643   */\n      iszero\n      tag_481\n      jumpi\n        /* \"#utility.yul\":14623:14641   */\n      tag_482\n      tag_255\n      jump\t// in\n    tag_482:\n        /* \"#utility.yul\":14606:14643   */\n    tag_481:\n        /* \"#utility.yul\":14456:14650   */\n      swap3\n      swap2\n      pop\n      pop\n      jump\t// out\n        /* \"#utility.yul\":14656:14803   */\n    tag_297:\n        /* \"#utility.yul\":14757:14768   */\n      0x00\n        /* \"#utility.yul\":14794:14797   */\n      dup2\n        /* \"#utility.yul\":14779:14797   */\n      swap1\n      pop\n        /* \"#utility.yul\":14656:14803   */\n      swap3\n      swap2\n      pop\n      pop\n      jump\t// out\n        /* \"#utility.yul\":14809:14923   */\n    tag_298:\n      pop\n      jump\t// out\n        /* \"#utility.yul\":14929:15327   */\n    tag_299:\n        /* \"#utility.yul\":15088:15091   */\n      0x00\n        /* \"#utility.yul\":15109:15192   */\n      tag_486\n        /* \"#utility.yul\":15190:15191   */\n      0x00\n        /* \"#utility.yul\":15185:15188   */\n      dup4\n        /* \"#utility.yul\":15109:15192   */\n      tag_297\n      jump\t// in\n    tag_486:\n        /* \"#utility.yul\":15102:15192   */\n      swap2\n      pop\n        /* \"#utility.yul\":15201:15294   */\n      tag_487\n        /* \"#utility.yul\":15290:15293   */\n      dup3\n        /* \"#utility.yul\":15201:15294   */\n      tag_298\n      jump\t// in\n    tag_487:\n        /* \"#utility.yul\":15319:15320   */\n      0x00\n        /* \"#utility.yul\":15314:15317   */\n      dup3\n        /* \"#utility.yul\":15310:15321   */\n      add\n        /* \"#utility.yul\":15303:15321   */\n      swap1\n      pop\n        /* \"#utility.yul\":14929:15327   */\n      swap2\n      swap1\n      pop\n      jump\t// out\n        /* \"#utility.yul\":15333:15712   */\n    tag_114:\n        /* \"#utility.yul\":15517:15520   */\n      0x00\n        /* \"#utility.yul\":15539:15686   */\n      tag_489\n        /* \"#utility.yul\":15682:15685   */\n      dup3\n        /* \"#utility.yul\":15539:15686   */\n      tag_299\n      jump\t// in\n    tag_489:\n        /* \"#utility.yul\":15532:15686   */\n      swap2\n      pop\n        /* \"#utility.yul\":15703:15706   */\n      dup2\n        /* \"#utility.yul\":15696:15706   */\n      swap1\n      pop\n        /* \"#utility.yul\":15333:15712   */\n      swap2\n      swap1\n      pop\n      jump\t// out\n        /* \"#utility.yul\":15718:15889   */\n    tag_300:\n        /* \"#utility.yul\":15858:15881   */\n      0x4574686572207472616e73666572206661696c65640000000000000000000000\n        /* \"#utility.yul\":15854:15855   */\n      0x00\n        /* \"#utility.yul\":15846:15852   */\n      dup3\n        /* \"#utility.yul\":15842:15856   */\n      add\n        /* \"#utility.yul\":15835:15882   */\n      mstore\n        /* \"#utility.yul\":15718:15889   */\n      pop\n      jump\t// out\n        /* \"#utility.yul\":15895:16261   */\n    tag_301:\n        /* \"#utility.yul\":16037:16040   */\n      0x00\n        /* \"#utility.yul\":16058:16125   */\n      tag_492\n        /* \"#utility.yul\":16122:16124   */\n      0x15\n        /* \"#utility.yul\":16117:16120   */\n      dup4\n        /* \"#utility.yul\":16058:16125   */\n      tag_273\n      jump\t// in\n    tag_492:\n        /* \"#utility.yul\":16051:16125   */\n      swap2\n      pop\n        /* \"#utility.yul\":16134:16227   */\n      tag_493\n        /* \"#utility.yul\":16223:16226   */\n      dup3\n        /* \"#utility.yul\":16134:16227   */\n      tag_300\n      jump\t// in\n    tag_493:\n        /* \"#utility.yul\":16252:16254   */\n      0x20\n        /* \"#utility.yul\":16247:16250   */\n      dup3\n        /* \"#utility.yul\":16243:16255   */\n      add\n        /* \"#utility.yul\":16236:16255   */\n      swap1\n      pop\n        /* \"#utility.yul\":15895:16261   */\n      swap2\n      swap1\n      pop\n      jump\t// out\n        /* \"#utility.yul\":16267:16686   */\n    tag_120:\n        /* \"#utility.yul\":16433:16437   */\n      0x00\n        /* \"#utility.yul\":16471:16473   */\n      0x20\n        /* \"#utility.yul\":16460:16469   */\n      dup3\n        /* \"#utility.yul\":16456:16474   */\n      add\n        /* \"#utility.yul\":16448:16474   */\n      swap1\n      pop\n        /* \"#utility.yul\":16520:16529   */\n      dup2\n        /* \"#utility.yul\":16514:16518   */\n      dup2\n        /* \"#utility.yul\":16510:16530   */\n      sub\n        /* \"#utility.yul\":16506:16507   */\n      0x00\n        /* \"#utility.yul\":16495:16504   */\n      dup4\n        /* \"#utility.yul\":16491:16508   */\n      add\n        /* \"#utility.yul\":16484:16531   */\n      mstore\n        /* \"#utility.yul\":16548:16679   */\n      tag_495\n        /* \"#utility.yul\":16674:16678   */\n      dup2\n        /* \"#utility.yul\":16548:16679   */\n      tag_301\n      jump\t// in\n    tag_495:\n        /* \"#utility.yul\":16540:16679   */\n      swap1\n      pop\n        /* \"#utility.yul\":16267:16686   */\n      swap2\n      swap1\n      pop\n      jump\t// out\n        /* \"#utility.yul\":16692:16864   */\n    tag_302:\n        /* \"#utility.yul\":16832:16856   */\n      0x496e636f727265637420457468657220616d6f756e7400000000000000000000\n        /* \"#utility.yul\":16828:16829   */\n      0x00\n        /* \"#utility.yul\":16820:16826   */\n      dup3\n        /* \"#utility.yul\":16816:16830   */\n      add\n        /* \"#utility.yul\":16809:16857   */\n      mstore\n        /* \"#utility.yul\":16692:16864   */\n      pop\n      jump\t// out\n        /* \"#utility.yul\":16870:17236   */\n    tag_303:\n        /* \"#utility.yul\":17012:17015   */\n      0x00\n        /* \"#utility.yul\":17033:17100   */\n      tag_498\n        /* \"#utility.yul\":17097:17099   */\n      0x16\n        /* \"#utility.yul\":17092:17095   */\n      dup4\n        /* \"#utility.yul\":17033:17100   */\n      tag_273\n      jump\t// in\n    tag_498:\n        /* \"#utility.yul\":17026:17100   */\n      swap2\n      pop\n        /* \"#utility.yul\":17109:17202   */\n      tag_499\n        /* \"#utility.yul\":17198:17201   */\n      dup3\n        /* \"#utility.yul\":17109:17202   */\n      tag_302\n      jump\t// in\n    tag_499:\n        /* \"#utility.yul\":17227:17229   */\n      0x20\n        /* \"#utility.yul\":17222:17225   */\n      dup3\n        /* \"#utility.yul\":17218:17230   */\n      add\n        /* \"#utility.yul\":17211:17230   */\n      swap1\n      pop\n        /* \"#utility.yul\":16870:17236   */\n      swap2\n      swap1\n      pop\n      jump\t// out\n        /* \"#utility.yul\":17242:17661   */\n    tag_129:\n        /* \"#utility.yul\":17408:17412   */\n      0x00\n        /* \"#utility.yul\":17446:17448   */\n      0x20\n        /* \"#utility.yul\":17435:17444   */\n      dup3\n        /* \"#utility.yul\":17431:17449   */\n      add\n        /* \"#utility.yul\":17423:17449   */\n      swap1\n      pop\n        /* \"#utility.yul\":17495:17504   */\n      dup2\n        /* \"#utility.yul\":17489:17493   */\n      dup2\n        /* \"#utility.yul\":17485:17505   */\n      sub\n        /* \"#utility.yul\":17481:17482   */\n      0x00\n        /* \"#utility.yul\":17470:17479   */\n      dup4\n        /* \"#utility.yul\":17466:17483   */\n      add\n        /* \"#utility.yul\":17459:17506   */\n      mstore\n        /* \"#utility.yul\":17523:17654   */\n      tag_501\n        /* \"#utility.yul\":17649:17653   */\n      dup2\n        /* \"#utility.yul\":17523:17654   */\n      tag_303\n      jump\t// in\n    tag_501:\n        /* \"#utility.yul\":17515:17654   */\n      swap1\n      pop\n        /* \"#utility.yul\":17242:17661   */\n      swap2\n      swap1\n      pop\n      jump\t// out\n        /* \"#utility.yul\":17667:17894   */\n    tag_304:\n        /* \"#utility.yul\":17807:17841   */\n      0x4465706f73697420616d6f756e74206d75737420626520677265617465722074\n        /* \"#utility.yul\":17803:17804   */\n      0x00\n        /* \"#utility.yul\":17795:17801   */\n      dup3\n        /* \"#utility.yul\":17791:17805   */\n      add\n        /* \"#utility.yul\":17784:17842   */\n      mstore\n        /* \"#utility.yul\":17876:17886   */\n      0x68616e207a65726f000000000000000000000000000000000000000000000000\n        /* \"#utility.yul\":17871:17873   */\n      0x20\n        /* \"#utility.yul\":17863:17869   */\n      dup3\n        /* \"#utility.yul\":17859:17874   */\n      add\n        /* \"#utility.yul\":17852:17887   */\n      mstore\n        /* \"#utility.yul\":17667:17894   */\n      pop\n      jump\t// out\n        /* \"#utility.yul\":17900:18266   */\n    tag_305:\n        /* \"#utility.yul\":18042:18045   */\n      0x00\n        /* \"#utility.yul\":18063:18130   */\n      tag_504\n        /* \"#utility.yul\":18127:18129   */\n      0x28\n        /* \"#utility.yul\":18122:18125   */\n      dup4\n        /* \"#utility.yul\":18063:18130   */\n      tag_273\n      jump\t// in\n    tag_504:\n        /* \"#utility.yul\":18056:18130   */\n      swap2\n      pop\n        /* \"#utility.yul\":18139:18232   */\n      tag_505\n        /* \"#utility.yul\":18228:18231   */\n      dup3\n        /* \"#utility.yul\":18139:18232   */\n      tag_304\n      jump\t// in\n    tag_505:\n        /* \"#utility.yul\":18257:18259   */\n      0x40\n        /* \"#utility.yul\":18252:18255   */\n      dup3\n        /* \"#utility.yul\":18248:18260   */\n      add\n        /* \"#utility.yul\":18241:18260   */\n      swap1\n      pop\n        /* \"#utility.yul\":17900:18266   */\n      swap2\n      swap1\n      pop\n      jump\t// out\n        /* \"#utility.yul\":18272:18691   */\n    tag_133:\n        /* \"#utility.yul\":18438:18442   */\n      0x00\n        /* \"#utility.yul\":18476:18478   */\n      0x20\n        /* \"#utility.yul\":18465:18474   */\n      dup3\n        /* \"#utility.yul\":18461:18479   */\n      add\n        /* \"#utility.yul\":18453:18479   */\n      swap1\n      pop\n        /* \"#utility.yul\":18525:18534   */\n      dup2\n        /* \"#utility.yul\":18519:18523   */\n      dup2\n        /* \"#utility.yul\":18515:18535   */\n      sub\n        /* \"#utility.yul\":18511:18512   */\n      0x00\n        /* \"#utility.yul\":18500:18509   */\n      dup4\n        /* \"#utility.yul\":18496:18513   */\n      add\n        /* \"#utility.yul\":18489:18536   */\n      mstore\n        /* \"#utility.yul\":18553:18684   */\n      tag_507\n        /* \"#utility.yul\":18679:18683   */\n      dup2\n        /* \"#utility.yul\":18553:18684   */\n      tag_305\n      jump\t// in\n    tag_507:\n        /* \"#utility.yul\":18545:18684   */\n      swap1\n      pop\n        /* \"#utility.yul\":18272:18691   */\n      swap2\n      swap1\n      pop\n      jump\t// out\n        /* \"#utility.yul\":18697:18782   */\n    tag_306:\n        /* \"#utility.yul\":18742:18749   */\n      0x00\n        /* \"#utility.yul\":18771:18776   */\n      dup2\n        /* \"#utility.yul\":18760:18776   */\n      swap1\n      pop\n        /* \"#utility.yul\":18697:18782   */\n      swap2\n      swap1\n      pop\n      jump\t// out\n        /* \"#utility.yul\":18788:18889   */\n    tag_307:\n        /* \"#utility.yul\":18824:18831   */\n      0x00\n        /* \"#utility.yul\":18864:18882   */\n      0xffffffffffffffff\n        /* \"#utility.yul\":18857:18862   */\n      dup3\n        /* \"#utility.yul\":18853:18883   */\n      and\n        /* \"#utility.yul\":18842:18883   */\n      swap1\n      pop\n        /* \"#utility.yul\":18788:18889   */\n      swap2\n      swap1\n      pop\n      jump\t// out\n        /* \"#utility.yul\":18895:19051   */\n    tag_308:\n        /* \"#utility.yul\":18952:18961   */\n      0x00\n        /* \"#utility.yul\":18985:19045   */\n      tag_511\n        /* \"#utility.yul\":19002:19044   */\n      tag_512\n        /* \"#utility.yul\":19011:19043   */\n      tag_513\n        /* \"#utility.yul\":19037:19042   */\n      dup5\n        /* \"#utility.yul\":19011:19043   */\n      tag_306\n      jump\t// in\n    tag_513:\n        /* \"#utility.yul\":19002:19044   */\n      tag_267\n      jump\t// in\n    tag_512:\n        /* \"#utility.yul\":18985:19045   */\n      tag_307\n      jump\t// in\n    tag_511:\n        /* \"#utility.yul\":18972:19045   */\n      swap1\n      pop\n        /* \"#utility.yul\":18895:19051   */\n      swap2\n      swap1\n      pop\n      jump\t// out\n        /* \"#utility.yul\":19057:19202   */\n    tag_309:\n        /* \"#utility.yul\":19151:19195   */\n      tag_515\n        /* \"#utility.yul\":19189:19194   */\n      dup2\n        /* \"#utility.yul\":19151:19195   */\n      tag_308\n      jump\t// in\n    tag_515:\n        /* \"#utility.yul\":19146:19149   */\n      dup3\n        /* \"#utility.yul\":19139:19196   */\n      mstore\n        /* \"#utility.yul\":19057:19202   */\n      pop\n      pop\n      jump\t// out\n        /* \"#utility.yul\":19208:19444   */\n    tag_151:\n        /* \"#utility.yul\":19308:19312   */\n      0x00\n        /* \"#utility.yul\":19346:19348   */\n      0x20\n        /* \"#utility.yul\":19335:19344   */\n      dup3\n        /* \"#utility.yul\":19331:19349   */\n      add\n        /* \"#utility.yul\":19323:19349   */\n      swap1\n      pop\n        /* \"#utility.yul\":19359:19437   */\n      tag_517\n        /* \"#utility.yul\":19434:19435   */\n      0x00\n        /* \"#utility.yul\":19423:19432   */\n      dup4\n        /* \"#utility.yul\":19419:19436   */\n      add\n        /* \"#utility.yul\":19410:19416   */\n      dup5\n        /* \"#utility.yul\":19359:19437   */\n      tag_309\n      jump\t// in\n    tag_517:\n        /* \"#utility.yul\":19208:19444   */\n      swap3\n      swap2\n      pop\n      pop\n      jump\t// out\n        /* \"#utility.yul\":19450:19630   */\n    tag_310:\n        /* \"#utility.yul\":19498:19575   */\n      0x4e487b7100000000000000000000000000000000000000000000000000000000\n        /* \"#utility.yul\":19495:19496   */\n      0x00\n        /* \"#utility.yul\":19488:19576   */\n      mstore\n        /* \"#utility.yul\":19595:19599   */\n      0x22\n        /* \"#utility.yul\":19592:19593   */\n      0x04\n        /* \"#utility.yul\":19585:19600   */\n      mstore\n        /* \"#utility.yul\":19619:19623   */\n      0x24\n        /* \"#utility.yul\":19616:19617   */\n      0x00\n        /* \"#utility.yul\":19609:19624   */\n      revert\n        /* \"#utility.yul\":19636:19956   */\n    tag_159:\n        /* \"#utility.yul\":19680:19686   */\n      0x00\n        /* \"#utility.yul\":19717:19718   */\n      0x02\n        /* \"#utility.yul\":19711:19715   */\n      dup3\n        /* \"#utility.yul\":19707:19719   */\n      div\n        /* \"#utility.yul\":19697:19719   */\n      swap1\n      pop\n        /* \"#utility.yul\":19764:19765   */\n      0x01\n        /* \"#utility.yul\":19758:19762   */\n      dup3\n        /* \"#utility.yul\":19754:19766   */\n      and\n        /* \"#utility.yul\":19785:19803   */\n      dup1\n        /* \"#utility.yul\":19775:19856   */\n      tag_520\n      jumpi\n        /* \"#utility.yul\":19841:19845   */\n      0x7f\n        /* \"#utility.yul\":19833:19839   */\n      dup3\n        /* \"#utility.yul\":19829:19846   */\n      and\n        /* \"#utility.yul\":19819:19846   */\n      swap2\n      pop\n        /* \"#utility.yul\":19775:19856   */\n    tag_520:\n        /* \"#utility.yul\":19903:19905   */\n      0x20\n        /* \"#utility.yul\":19895:19901   */\n      dup3\n        /* \"#utility.yul\":19892:19906   */\n      lt\n        /* \"#utility.yul\":19872:19890   */\n      dup2\n        /* \"#utility.yul\":19869:19907   */\n      sub\n        /* \"#utility.yul\":19866:19950   */\n      tag_521\n      jumpi\n        /* \"#utility.yul\":19922:19940   */\n      tag_522\n      tag_310\n      jump\t// in\n    tag_522:\n        /* \"#utility.yul\":19866:19950   */\n    tag_521:\n        /* \"#utility.yul\":19687:19956   */\n      pop\n        /* \"#utility.yul\":19636:19956   */\n      swap2\n      swap1\n      pop\n      jump\t// out\n        /* \"#utility.yul\":19962:20183   */\n    tag_311:\n        /* \"#utility.yul\":20102:20136   */\n      0x53746172742074696d65206d757374206265206265666f726520656e64207469\n        /* \"#utility.yul\":20098:20099   */\n      0x00\n        /* \"#utility.yul\":20090:20096   */\n      dup3\n        /* \"#utility.yul\":20086:20100   */\n      add\n        /* \"#utility.yul\":20079:20137   */\n      mstore\n        /* \"#utility.yul\":20171:20175   */\n      0x6d65000000000000000000000000000000000000000000000000000000000000\n        /* \"#utility.yul\":20166:20168   */\n      0x20\n        /* \"#utility.yul\":20158:20164   */\n      dup3\n        /* \"#utility.yul\":20154:20169   */\n      add\n        /* \"#utility.yul\":20147:20176   */\n      mstore\n        /* \"#utility.yul\":19962:20183   */\n      pop\n      jump\t// out\n        /* \"#utility.yul\":20189:20555   */\n    tag_312:\n        /* \"#utility.yul\":20331:20334   */\n      0x00\n        /* \"#utility.yul\":20352:20419   */\n      tag_525\n        /* \"#utility.yul\":20416:20418   */\n      0x22\n        /* \"#utility.yul\":20411:20414   */\n      dup4\n        /* \"#utility.yul\":20352:20419   */\n      tag_273\n      jump\t// in\n    tag_525:\n        /* \"#utility.yul\":20345:20419   */\n      swap2\n      pop\n        /* \"#utility.yul\":20428:20521   */\n      tag_526\n        /* \"#utility.yul\":20517:20520   */\n      dup3\n        /* \"#utility.yul\":20428:20521   */\n      tag_311\n      jump\t// in\n    tag_526:\n        /* \"#utility.yul\":20546:20548   */\n      0x40\n        /* \"#utility.yul\":20541:20544   */\n      dup3\n        /* \"#utility.yul\":20537:20549   */\n      add\n        /* \"#utility.yul\":20530:20549   */\n      swap1\n      pop\n        /* \"#utility.yul\":20189:20555   */\n      swap2\n      swap1\n      pop\n      jump\t// out\n        /* \"#utility.yul\":20561:20980   */\n    tag_176:\n        /* \"#utility.yul\":20727:20731   */\n      0x00\n        /* \"#utility.yul\":20765:20767   */\n      0x20\n        /* \"#utility.yul\":20754:20763   */\n      dup3\n        /* \"#utility.yul\":20750:20768   */\n      add\n        /* \"#utility.yul\":20742:20768   */\n      swap1\n      pop\n        /* \"#utility.yul\":20814:20823   */\n      dup2\n        /* \"#utility.yul\":20808:20812   */\n      dup2\n        /* \"#utility.yul\":20804:20824   */\n      sub\n        /* \"#utility.yul\":20800:20801   */\n      0x00\n        /* \"#utility.yul\":20789:20798   */\n      dup4\n        /* \"#utility.yul\":20785:20802   */\n      add\n        /* \"#utility.yul\":20778:20825   */\n      mstore\n        /* \"#utility.yul\":20842:20973   */\n      tag_528\n        /* \"#utility.yul\":20968:20972   */\n      dup2\n        /* \"#utility.yul\":20842:20973   */\n      tag_312\n      jump\t// in\n    tag_528:\n        /* \"#utility.yul\":20834:20973   */\n      swap1\n      pop\n        /* \"#utility.yul\":20561:20980   */\n      swap2\n      swap1\n      pop\n      jump\t// out\n        /* \"#utility.yul\":20986:21127   */\n    tag_313:\n        /* \"#utility.yul\":21035:21039   */\n      0x00\n        /* \"#utility.yul\":21058:21061   */\n      dup2\n        /* \"#utility.yul\":21050:21061   */\n      swap1\n      pop\n        /* \"#utility.yul\":21081:21084   */\n      dup2\n        /* \"#utility.yul\":21078:21079   */\n      0x00\n        /* \"#utility.yul\":21071:21085   */\n      mstore\n        /* \"#utility.yul\":21115:21119   */\n      0x20\n        /* \"#utility.yul\":21112:21113   */\n      0x00\n        /* \"#utility.yul\":21102:21120   */\n      keccak256\n        /* \"#utility.yul\":21094:21120   */\n      swap1\n      pop\n        /* \"#utility.yul\":20986:21127   */\n      swap2\n      swap1\n      pop\n      jump\t// out\n        /* \"#utility.yul\":21133:21226   */\n    tag_314:\n        /* \"#utility.yul\":21170:21176   */\n      0x00\n        /* \"#utility.yul\":21217:21219   */\n      0x20\n        /* \"#utility.yul\":21212:21214   */\n      0x1f\n        /* \"#utility.yul\":21205:21210   */\n      dup4\n        /* \"#utility.yul\":21201:21215   */\n      add\n        /* \"#utility.yul\":21197:21220   */\n      div\n        /* \"#utility.yul\":21187:21220   */\n      swap1\n      pop\n        /* \"#utility.yul\":21133:21226   */\n      swap2\n      swap1\n      pop\n      jump\t// out\n        /* \"#utility.yul\":21232:21339   */\n    tag_315:\n        /* \"#utility.yul\":21276:21284   */\n      0x00\n        /* \"#utility.yul\":21326:21331   */\n      dup3\n        /* \"#utility.yul\":21320:21324   */\n      dup3\n        /* \"#utility.yul\":21316:21332   */\n      shl\n        /* \"#utility.yul\":21295:21332   */\n      swap1\n      pop\n        /* \"#utility.yul\":21232:21339   */\n      swap3\n      swap2\n      pop\n      pop\n      jump\t// out\n        /* \"#utility.yul\":21345:21738   */\n    tag_316:\n        /* \"#utility.yul\":21414:21420   */\n      0x00\n        /* \"#utility.yul\":21464:21465   */\n      0x08\n        /* \"#utility.yul\":21452:21462   */\n      dup4\n        /* \"#utility.yul\":21448:21466   */\n      mul\n        /* \"#utility.yul\":21487:21584   */\n      tag_533\n        /* \"#utility.yul\":21517:21583   */\n      0xffffffffffffffffffffffffffffffffffffffffffffffffffffffffffffffff\n        /* \"#utility.yul\":21506:21515   */\n      dup3\n        /* \"#utility.yul\":21487:21584   */\n      tag_315\n      jump\t// in\n    tag_533:\n        /* \"#utility.yul\":21605:21644   */\n      tag_534\n        /* \"#utility.yul\":21635:21643   */\n      dup7\n        /* \"#utility.yul\":21624:21633   */\n      dup4\n        /* \"#utility.yul\":21605:21644   */\n      tag_315\n      jump\t// in\n    tag_534:\n        /* \"#utility.yul\":21593:21644   */\n      swap6\n      pop\n        /* \"#utility.yul\":21677:21681   */\n      dup1\n        /* \"#utility.yul\":21673:21682   */\n      not\n        /* \"#utility.yul\":21666:21671   */\n      dup5\n        /* \"#utility.yul\":21662:21683   */\n      and\n        /* \"#utility.yul\":21653:21683   */\n      swap4\n      pop\n        /* \"#utility.yul\":21726:21730   */\n      dup1\n        /* \"#utility.yul\":21716:21724   */\n      dup7\n        /* \"#utility.yul\":21712:21731   */\n      and\n        /* \"#utility.yul\":21705:21710   */\n      dup5\n        /* \"#utility.yul\":21702:21732   */\n      or\n        /* \"#utility.yul\":21692:21732   */\n      swap3\n      pop\n        /* \"#utility.yul\":21421:21738   */\n      pop\n      pop\n        /* \"#utility.yul\":21345:21738   */\n      swap4\n      swap3\n      pop\n      pop\n      pop\n      jump\t// out\n        /* \"#utility.yul\":21744:21886   */\n    tag_317:\n        /* \"#utility.yul\":21794:21803   */\n      0x00\n        /* \"#utility.yul\":21827:21880   */\n      tag_536\n        /* \"#utility.yul\":21845:21879   */\n      tag_537\n        /* \"#utility.yul\":21854:21878   */\n      tag_538\n        /* \"#utility.yul\":21872:21877   */\n      dup5\n        /* \"#utility.yul\":21854:21878   */\n      tag_254\n      jump\t// in\n    tag_538:\n        /* \"#utility.yul\":21845:21879   */\n      tag_267\n      jump\t// in\n    tag_537:\n        /* \"#utility.yul\":21827:21880   */\n      tag_254\n      jump\t// in\n    tag_536:\n        /* \"#utility.yul\":21814:21880   */\n      swap1\n      pop\n        /* \"#utility.yul\":21744:21886   */\n      swap2\n      swap1\n      pop\n      jump\t// out\n        /* \"#utility.yul\":21892:21967   */\n    tag_318:\n        /* \"#utility.yul\":21935:21938   */\n      0x00\n        /* \"#utility.yul\":21956:21961   */\n      dup2\n        /* \"#utility.yul\":21949:21961   */\n      swap1\n      pop\n        /* \"#utility.yul\":21892:21967   */\n      swap2\n      swap1\n      pop\n      jump\t// out\n        /* \"#utility.yul\":21973:22242   */\n    tag_319:\n        /* \"#utility.yul\":22083:22122   */\n      tag_541\n        /* \"#utility.yul\":22114:22121   */\n      dup4\n        /* \"#utility.yul\":22083:22122   */\n      tag_317\n      jump\t// in\n    tag_541:\n        /* \"#utility.yul\":22144:22235   */\n      tag_542\n        /* \"#utility.yul\":22193:22234   */\n      tag_543\n        /* \"#utility.yul\":22217:22233   */\n      dup3\n        /* \"#utility.yul\":22193:22234   */\n      tag_318\n      jump\t// in\n    tag_543:\n        /* \"#utility.yul\":22185:22191   */\n      dup5\n        /* \"#utility.yul\":22178:22182   */\n      dup5\n        /* \"#utility.yul\":22172:22183   */\n      sload\n        /* \"#utility.yul\":22144:22235   */\n      tag_316\n      jump\t// in\n    tag_542:\n        /* \"#utility.yul\":22138:22142   */\n      dup3\n        /* \"#utility.yul\":22131:22236   */\n      sstore\n        /* \"#utility.yul\":22049:22242   */\n      pop\n        /* \"#utility.yul\":21973:22242   */\n      pop\n      pop\n      pop\n      jump\t// out\n        /* \"#utility.yul\":22248:22321   */\n    tag_320:\n        /* \"#utility.yul\":22293:22296   */\n      0x00\n        /* \"#utility.yul\":22314:22315   */\n      0x00\n        /* \"#utility.yul\":22307:22315   */\n      swap1\n      pop\n        /* \"#utility.yul\":22248:22321   */\n      swap1\n      jump\t// out\n        /* \"#utility.yul\":22327:22516   */\n    tag_321:\n        /* \"#utility.yul\":22404:22436   */\n      tag_546\n      tag_320\n      jump\t// in\n    tag_546:\n        /* \"#utility.yul\":22445:22510   */\n      tag_547\n        /* \"#utility.yul\":22503:22509   */\n      dup2\n        /* \"#utility.yul\":22495:22501   */\n      dup5\n        /* \"#utility.yul\":22489:22493   */\n      dup5\n        /* \"#utility.yul\":22445:22510   */\n      tag_319\n      jump\t// in\n    tag_547:\n        /* \"#utility.yul\":22380:22516   */\n      pop\n        /* \"#utility.yul\":22327:22516   */\n      pop\n      pop\n      jump\t// out\n        /* \"#utility.yul\":22522:22708   */\n    tag_322:\n        /* \"#utility.yul\":22582:22702   */\n    tag_549:\n        /* \"#utility.yul\":22599:22602   */\n      dup2\n        /* \"#utility.yul\":22592:22597   */\n      dup2\n        /* \"#utility.yul\":22589:22603   */\n      lt\n        /* \"#utility.yul\":22582:22702   */\n      iszero\n      tag_551\n      jumpi\n        /* \"#utility.yul\":22653:22692   */\n      tag_552\n        /* \"#utility.yul\":22690:22691   */\n      0x00\n        /* \"#utility.yul\":22683:22688   */\n      dup3\n        /* \"#utility.yul\":22653:22692   */\n      tag_321\n      jump\t// in\n    tag_552:\n        /* \"#utility.yul\":22626:22627   */\n      0x01\n        /* \"#utility.yul\":22619:22624   */\n      dup2\n        /* \"#utility.yul\":22615:22628   */\n      add\n        /* \"#utility.yul\":22606:22628   */\n      swap1\n      pop\n        /* \"#utility.yul\":22582:22702   */\n      jump(tag_549)\n    tag_551:\n        /* \"#utility.yul\":22522:22708   */\n      pop\n      pop\n      jump\t// out\n        /* \"#utility.yul\":22714:23257   */\n    tag_323:\n        /* \"#utility.yul\":22815:22817   */\n      0x1f\n        /* \"#utility.yul\":22810:22813   */\n      dup3\n        /* \"#utility.yul\":22807:22818   */\n      gt\n        /* \"#utility.yul\":22804:23250   */\n      iszero\n      tag_554\n      jumpi\n        /* \"#utility.yul\":22849:22887   */\n      tag_555\n        /* \"#utility.yul\":22881:22886   */\n      dup2\n        /* \"#utility.yul\":22849:22887   */\n      tag_313\n      jump\t// in\n    tag_555:\n        /* \"#utility.yul\":22933:22962   */\n      tag_556\n        /* \"#utility.yul\":22951:22961   */\n      dup5\n        /* \"#utility.yul\":22933:22962   */\n      tag_314\n      jump\t// in\n    tag_556:\n        /* \"#utility.yul\":22923:22931   */\n      dup2\n        /* \"#utility.yul\":22919:22963   */\n      add\n        /* \"#utility.yul\":23116:23118   */\n      0x20\n        /* \"#utility.yul\":23104:23114   */\n      dup6\n        /* \"#utility.yul\":23101:23119   */\n      lt\n        /* \"#utility.yul\":23098:23147   */\n      iszero\n      tag_557\n      jumpi\n        /* \"#utility.yul\":23137:23145   */\n      dup2\n        /* \"#utility.yul\":23122:23145   */\n      swap1\n      pop\n        /* \"#utility.yul\":23098:23147   */\n    tag_557:\n        /* \"#utility.yul\":23160:23240   */\n      tag_558\n        /* \"#utility.yul\":23216:23238   */\n      tag_559\n        /* \"#utility.yul\":23234:23237   */\n      dup6\n        /* \"#utility.yul\":23216:23238   */\n      tag_314\n      jump\t// in\n    tag_559:\n        /* \"#utility.yul\":23206:23214   */\n      dup4\n        /* \"#utility.yul\":23202:23239   */\n      add\n        /* \"#utility.yul\":23189:23200   */\n      dup3\n        /* \"#utility.yul\":23160:23240   */\n      tag_322\n      jump\t// in\n    tag_558:\n        /* \"#utility.yul\":22819:23250   */\n      pop\n      pop\n        /* \"#utility.yul\":22804:23250   */\n    tag_554:\n        /* \"#utility.yul\":22714:23257   */\n      pop\n      pop\n      pop\n      jump\t// out\n        /* \"#utility.yul\":23263:23380   */\n    tag_324:\n        /* \"#utility.yul\":23317:23325   */\n      0x00\n        /* \"#utility.yul\":23367:23372   */\n      dup3\n        /* \"#utility.yul\":23361:23365   */\n      dup3\n        /* \"#utility.yul\":23357:23373   */\n      shr\n        /* \"#utility.yul\":23336:23373   */\n      swap1\n      pop\n        /* \"#utility.yul\":23263:23380   */\n      swap3\n      swap2\n      pop\n      pop\n      jump\t// out\n        /* \"#utility.yul\":23386:23555   */\n    tag_325:\n        /* \"#utility.yul\":23430:23436   */\n      0x00\n        /* \"#utility.yul\":23463:23514   */\n      tag_562\n        /* \"#utility.yul\":23511:23512   */\n      0x00\n        /* \"#utility.yul\":23507:23513   */\n      not\n        /* \"#utility.yul\":23499:23504   */\n      dup5\n        /* \"#utility.yul\":23496:23497   */\n      0x08\n        /* \"#utility.yul\":23492:23505   */\n      mul\n        /* \"#utility.yul\":23463:23514   */\n      tag_324\n      jump\t// in\n    tag_562:\n        /* \"#utility.yul\":23459:23515   */\n      not\n        /* \"#utility.yul\":23544:23548   */\n      dup1\n        /* \"#utility.yul\":23538:23542   */\n      dup4\n        /* \"#utility.yul\":23534:23549   */\n      and\n        /* \"#utility.yul\":23524:23549   */\n      swap2\n      pop\n        /* \"#utility.yul\":23437:23555   */\n      pop\n        /* \"#utility.yul\":23386:23555   */\n      swap3\n      swap2\n      pop\n      pop\n      jump\t// out\n        /* \"#utility.yul\":23560:23855   */\n    tag_326:\n        /* \"#utility.yul\":23636:23640   */\n      0x00\n        /* \"#utility.yul\":23782:23811   */\n      tag_564\n        /* \"#utility.yul\":23807:23810   */\n      dup4\n        /* \"#utility.yul\":23801:23805   */\n      dup4\n        /* \"#utility.yul\":23782:23811   */\n      tag_325\n      jump\t// in\n    tag_564:\n        /* \"#utility.yul\":23774:23811   */\n      swap2\n      pop\n        /* \"#utility.yul\":23844:23847   */\n      dup3\n        /* \"#utility.yul\":23841:23842   */\n      0x02\n        /* \"#utility.yul\":23837:23848   */\n      mul\n        /* \"#utility.yul\":23831:23835   */\n      dup3\n        /* \"#utility.yul\":23828:23849   */\n      or\n        /* \"#utility.yul\":23820:23849   */\n      swap1\n      pop\n        /* \"#utility.yul\":23560:23855   */\n      swap3\n      swap2\n      pop\n      pop\n      jump\t// out\n        /* \"#utility.yul\":23860:25255   */\n    tag_178:\n        /* \"#utility.yul\":23977:24014   */\n      tag_566\n        /* \"#utility.yul\":24010:24013   */\n      dup3\n        /* \"#utility.yul\":23977:24014   */\n      tag_272\n      jump\t// in\n    tag_566:\n        /* \"#utility.yul\":24079:24097   */\n      0xffffffffffffffff\n        /* \"#utility.yul\":24071:24077   */\n      dup2\n        /* \"#utility.yul\":24068:24098   */\n      gt\n        /* \"#utility.yul\":24065:24121   */\n      iszero\n      tag_567\n      jumpi\n        /* \"#utility.yul\":24101:24119   */\n      tag_568\n      tag_279\n      jump\t// in\n    tag_568:\n        /* \"#utility.yul\":24065:24121   */\n    tag_567:\n        /* \"#utility.yul\":24145:24183   */\n      tag_569\n        /* \"#utility.yul\":24177:24181   */\n      dup3\n        /* \"#utility.yul\":24171:24182   */\n      sload\n        /* \"#utility.yul\":24145:24183   */\n      tag_159\n      jump\t// in\n    tag_569:\n        /* \"#utility.yul\":24230:24297   */\n      tag_570\n        /* \"#utility.yul\":24290:24296   */\n      dup3\n        /* \"#utility.yul\":24282:24288   */\n      dup3\n        /* \"#utility.yul\":24276:24280   */\n      dup6\n        /* \"#utility.yul\":24230:24297   */\n      tag_323\n      jump\t// in\n    tag_570:\n        /* \"#utility.yul\":24324:24325   */\n      0x00\n        /* \"#utility.yul\":24348:24352   */\n      0x20\n        /* \"#utility.yul\":24335:24352   */\n      swap1\n      pop\n        /* \"#utility.yul\":24380:24382   */\n      0x1f\n        /* \"#utility.yul\":24372:24378   */\n      dup4\n        /* \"#utility.yul\":24369:24383   */\n      gt\n        /* \"#utility.yul\":24397:24398   */\n      0x01\n        /* \"#utility.yul\":24392:25010   */\n      dup2\n      eq\n      tag_572\n      jumpi\n        /* \"#utility.yul\":25054:25055   */\n      0x00\n        /* \"#utility.yul\":25071:25077   */\n      dup5\n        /* \"#utility.yul\":25068:25145   */\n      iszero\n      tag_573\n      jumpi\n        /* \"#utility.yul\":25120:25129   */\n      dup3\n        /* \"#utility.yul\":25115:25118   */\n      dup8\n        /* \"#utility.yul\":25111:25130   */\n      add\n        /* \"#utility.yul\":25105:25131   */\n      mload\n        /* \"#utility.yul\":25096:25131   */\n      swap1\n      pop\n        /* \"#utility.yul\":25068:25145   */\n    tag_573:\n        /* \"#utility.yul\":25171:25238   */\n      tag_574\n        /* \"#utility.yul\":25231:25237   */\n      dup6\n        /* \"#utility.yul\":25224:25229   */\n      dup3\n        /* \"#utility.yul\":25171:25238   */\n      tag_326\n      jump\t// in\n    tag_574:\n        /* \"#utility.yul\":25165:25169   */\n      dup7\n        /* \"#utility.yul\":25158:25239   */\n      sstore\n        /* \"#utility.yul\":25027:25249   */\n      pop\n        /* \"#utility.yul\":24362:25249   */\n      jump(tag_571)\n        /* \"#utility.yul\":24392:25010   */\n    tag_572:\n        /* \"#utility.yul\":24444:24448   */\n      0x1f\n        /* \"#utility.yul\":24440:24449   */\n      not\n        /* \"#utility.yul\":24432:24438   */\n      dup5\n        /* \"#utility.yul\":24428:24450   */\n      and\n        /* \"#utility.yul\":24478:24515   */\n      tag_575\n        /* \"#utility.yul\":24510:24514   */\n      dup7\n        /* \"#utility.yul\":24478:24515   */\n      tag_313\n      jump\t// in\n    tag_575:\n        /* \"#utility.yul\":24537:24538   */\n      0x00\n        /* \"#utility.yul\":24551:24759   */\n    tag_576:\n        /* \"#utility.yul\":24565:24572   */\n      dup3\n        /* \"#utility.yul\":24562:24563   */\n      dup2\n        /* \"#utility.yul\":24559:24573   */\n      lt\n        /* \"#utility.yul\":24551:24759   */\n      iszero\n      tag_578\n      jumpi\n        /* \"#utility.yul\":24644:24653   */\n      dup5\n        /* \"#utility.yul\":24639:24642   */\n      dup10\n        /* \"#utility.yul\":24635:24654   */\n      add\n        /* \"#utility.yul\":24629:24655   */\n      mload\n        /* \"#utility.yul\":24621:24627   */\n      dup3\n        /* \"#utility.yul\":24614:24656   */\n      sstore\n        /* \"#utility.yul\":24695:24696   */\n      0x01\n        /* \"#utility.yul\":24687:24693   */\n      dup3\n        /* \"#utility.yul\":24683:24697   */\n      add\n        /* \"#utility.yul\":24673:24697   */\n      swap2\n      pop\n        /* \"#utility.yul\":24742:24744   */\n      0x20\n        /* \"#utility.yul\":24731:24740   */\n      dup6\n        /* \"#utility.yul\":24727:24745   */\n      add\n        /* \"#utility.yul\":24714:24745   */\n      swap5\n      pop\n        /* \"#utility.yul\":24588:24592   */\n      0x20\n        /* \"#utility.yul\":24585:24586   */\n      dup2\n        /* \"#utility.yul\":24581:24593   */\n      add\n        /* \"#utility.yul\":24576:24593   */\n      swap1\n      pop\n        /* \"#utility.yul\":24551:24759   */\n      jump(tag_576)\n    tag_578:\n        /* \"#utility.yul\":24787:24793   */\n      dup7\n        /* \"#utility.yul\":24778:24785   */\n      dup4\n        /* \"#utility.yul\":24775:24794   */\n      lt\n        /* \"#utility.yul\":24772:24951   */\n      iszero\n      tag_579\n      jumpi\n        /* \"#utility.yul\":24845:24854   */\n      dup5\n        /* \"#utility.yul\":24840:24843   */\n      dup10\n        /* \"#utility.yul\":24836:24855   */\n      add\n        /* \"#utility.yul\":24830:24856   */\n      mload\n        /* \"#utility.yul\":24888:24936   */\n      tag_580\n        /* \"#utility.yul\":24930:24934   */\n      0x1f\n        /* \"#utility.yul\":24922:24928   */\n      dup10\n        /* \"#utility.yul\":24918:24935   */\n      and\n        /* \"#utility.yul\":24907:24916   */\n      dup3\n        /* \"#utility.yul\":24888:24936   */\n      tag_325\n      jump\t// in\n    tag_580:\n        /* \"#utility.yul\":24880:24886   */\n      dup4\n        /* \"#utility.yul\":24873:24937   */\n      sstore\n        /* \"#utility.yul\":24795:24951   */\n      pop\n        /* \"#utility.yul\":24772:24951   */\n    tag_579:\n        /* \"#utility.yul\":24997:24998   */\n      0x01\n        /* \"#utility.yul\":24993:24994   */\n      0x02\n        /* \"#utility.yul\":24985:24991   */\n      dup9\n        /* \"#utility.yul\":24981:24995   */\n      mul\n        /* \"#utility.yul\":24977:24999   */\n      add\n        /* \"#utility.yul\":24971:24975   */\n      dup9\n        /* \"#utility.yul\":24964:25000   */\n      sstore\n        /* \"#utility.yul\":24399:25010   */\n      pop\n      pop\n      pop\n        /* \"#utility.yul\":24362:25249   */\n    tag_571:\n      pop\n        /* \"#utility.yul\":23952:25255   */\n      pop\n      pop\n      pop\n        /* \"#utility.yul\":23860:25255   */\n      pop\n      pop\n      jump\t// out\n        /* \"#utility.yul\":25261:25491   */\n    tag_327:\n        /* \"#utility.yul\":25401:25435   */\n      0x5769746864726177616c20616d6f756e74206d75737420626520677265617465\n        /* \"#utility.yul\":25397:25398   */\n      0x00\n        /* \"#utility.yul\":25389:25395   */\n      dup3\n        /* \"#utility.yul\":25385:25399   */\n      add\n        /* \"#utility.yul\":25378:25436   */\n      mstore\n        /* \"#utility.yul\":25470:25483   */\n      0x72207468616e207a65726f000000000000000000000000000000000000000000\n        /* \"#utility.yul\":25465:25467   */\n      0x20\n        /* \"#utility.yul\":25457:25463   */\n      dup3\n        /* \"#utility.yul\":25453:25468   */\n      add\n        /* \"#utility.yul\":25446:25484   */\n      mstore\n        /* \"#utility.yul\":25261:25491   */\n      pop\n      jump\t// out\n        /* \"#utility.yul\":25497:25863   */\n    tag_328:\n        /* \"#utility.yul\":25639:25642   */\n      0x00\n        /* \"#utility.yul\":25660:25727   */\n      tag_583\n        /* \"#utility.yul\":25724:25726   */\n      0x2b\n        /* \"#utility.yul\":25719:25722   */\n      dup4\n        /* \"#utility.yul\":25660:25727   */\n      tag_273\n      jump\t// in\n    tag_583:\n        /* \"#utility.yul\":25653:25727   */\n      swap2\n      pop\n        /* \"#utility.yul\":25736:25829   */\n      tag_584\n        /* \"#utility.yul\":25825:25828   */\n      dup3\n        /* \"#utility.yul\":25736:25829   */\n      tag_327\n      jump\t// in\n    tag_584:\n        /* \"#utility.yul\":25854:25856   */\n      0x40\n        /* \"#utility.yul\":25849:25852   */\n      dup3\n        /* \"#utility.yul\":25845:25857   */\n      add\n        /* \"#utility.yul\":25838:25857   */\n      swap1\n      pop\n        /* \"#utility.yul\":25497:25863   */\n      swap2\n      swap1\n      pop\n      jump\t// out\n        /* \"#utility.yul\":25869:26288   */\n    tag_191:\n        /* \"#utility.yul\":26035:26039   */\n      0x00\n        /* \"#utility.yul\":26073:26075   */\n      0x20\n        /* \"#utility.yul\":26062:26071   */\n      dup3\n        /* \"#utility.yul\":26058:26076   */\n      add\n        /* \"#utility.yul\":26050:26076   */\n      swap1\n      pop\n        /* \"#utility.yul\":26122:26131   */\n      dup2\n        /* \"#utility.yul\":26116:26120   */\n      dup2\n        /* \"#utility.yul\":26112:26132   */\n      sub\n        /* \"#utility.yul\":26108:26109   */\n      0x00\n        /* \"#utility.yul\":26097:26106   */\n      dup4\n        /* \"#utility.yul\":26093:26110   */\n      add\n        /* \"#utility.yul\":26086:26133   */\n      mstore\n        /* \"#utility.yul\":26150:26281   */\n      tag_586\n        /* \"#utility.yul\":26276:26280   */\n      dup2\n        /* \"#utility.yul\":26150:26281   */\n      tag_328\n      jump\t// in\n    tag_586:\n        /* \"#utility.yul\":26142:26281   */\n      swap1\n      pop\n        /* \"#utility.yul\":25869:26288   */\n      swap2\n      swap1\n      pop\n      jump\t// out\n        /* \"#utility.yul\":26294:26462   */\n    tag_329:\n        /* \"#utility.yul\":26434:26454   */\n      0x496e73756666696369656e742066756e64730000000000000000000000000000\n        /* \"#utility.yul\":26430:26431   */\n      0x00\n        /* \"#utility.yul\":26422:26428   */\n      dup3\n        /* \"#utility.yul\":26418:26432   */\n      add\n        /* \"#utility.yul\":26411:26455   */\n      mstore\n        /* \"#utility.yul\":26294:26462   */\n      pop\n      jump\t// out\n        /* \"#utility.yul\":26468:26834   */\n    tag_330:\n        /* \"#utility.yul\":26610:26613   */\n      0x00\n        /* \"#utility.yul\":26631:26698   */\n      tag_589\n        /* \"#utility.yul\":26695:26697   */\n      0x12\n        /* \"#utility.yul\":26690:26693   */\n      dup4\n        /* \"#utility.yul\":26631:26698   */\n      tag_273\n      jump\t// in\n    tag_589:\n        /* \"#utility.yul\":26624:26698   */\n      swap2\n      pop\n        /* \"#utility.yul\":26707:26800   */\n      tag_590\n        /* \"#utility.yul\":26796:26799   */\n      dup3\n        /* \"#utility.yul\":26707:26800   */\n      tag_329\n      jump\t// in\n    tag_590:\n        /* \"#utility.yul\":26825:26827   */\n      0x20\n        /* \"#utility.yul\":26820:26823   */\n      dup3\n        /* \"#utility.yul\":26816:26828   */\n      add\n        /* \"#utility.yul\":26809:26828   */\n      swap1\n      pop\n        /* \"#utility.yul\":26468:26834   */\n      swap2\n      swap1\n      pop\n      jump\t// out\n        /* \"#utility.yul\":26840:27259   */\n    tag_194:\n        /* \"#utility.yul\":27006:27010   */\n      0x00\n        /* \"#utility.yul\":27044:27046   */\n      0x20\n        /* \"#utility.yul\":27033:27042   */\n      dup3\n        /* \"#utility.yul\":27029:27047   */\n      add\n        /* \"#utility.yul\":27021:27047   */\n      swap1\n      pop\n        /* \"#utility.yul\":27093:27102   */\n      dup2\n        /* \"#utility.yul\":27087:27091   */\n      dup2\n        /* \"#utility.yul\":27083:27103   */\n      sub\n        /* \"#utility.yul\":27079:27080   */\n      0x00\n        /* \"#utility.yul\":27068:27077   */\n      dup4\n        /* \"#utility.yul\":27064:27081   */\n      add\n        /* \"#utility.yul\":27057:27104   */\n      mstore\n        /* \"#utility.yul\":27121:27252   */\n      tag_592\n        /* \"#utility.yul\":27247:27251   */\n      dup2\n        /* \"#utility.yul\":27121:27252   */\n      tag_330\n      jump\t// in\n    tag_592:\n        /* \"#utility.yul\":27113:27252   */\n      swap1\n      pop\n        /* \"#utility.yul\":26840:27259   */\n      swap2\n      swap1\n      pop\n      jump\t// out\n        /* \"#utility.yul\":27265:27597   */\n    tag_212:\n        /* \"#utility.yul\":27386:27390   */\n      0x00\n        /* \"#utility.yul\":27424:27426   */\n      0x40\n        /* \"#utility.yul\":27413:27422   */\n      dup3\n        /* \"#utility.yul\":27409:27427   */\n      add\n        /* \"#utility.yul\":27401:27427   */\n      swap1\n      pop\n        /* \"#utility.yul\":27437:27508   */\n      tag_594\n        /* \"#utility.yul\":27505:27506   */\n      0x00\n        /* \"#utility.yul\":27494:27503   */\n      dup4\n        /* \"#utility.yul\":27490:27507   */\n      add\n        /* \"#utility.yul\":27481:27487   */\n      dup6\n        /* \"#utility.yul\":27437:27508   */\n      tag_264\n      jump\t// in\n    tag_594:\n        /* \"#utility.yul\":27518:27590   */\n      tag_595\n        /* \"#utility.yul\":27586:27588   */\n      0x20\n        /* \"#utility.yul\":27575:27584   */\n      dup4\n        /* \"#utility.yul\":27571:27589   */\n      add\n        /* \"#utility.yul\":27562:27568   */\n      dup5\n        /* \"#utility.yul\":27518:27590   */\n      tag_256\n      jump\t// in\n    tag_595:\n        /* \"#utility.yul\":27265:27597   */\n      swap4\n      swap3\n      pop\n      pop\n      pop\n      jump\t// out\n        /* \"#utility.yul\":27603:28045   */\n    tag_217:\n        /* \"#utility.yul\":27752:27756   */\n      0x00\n        /* \"#utility.yul\":27790:27792   */\n      0x60\n        /* \"#utility.yul\":27779:27788   */\n      dup3\n        /* \"#utility.yul\":27775:27793   */\n      add\n        /* \"#utility.yul\":27767:27793   */\n      swap1\n      pop\n        /* \"#utility.yul\":27803:27874   */\n      tag_597\n        /* \"#utility.yul\":27871:27872   */\n      0x00\n        /* \"#utility.yul\":27860:27869   */\n      dup4\n        /* \"#utility.yul\":27856:27873   */\n      add\n        /* \"#utility.yul\":27847:27853   */\n      dup7\n        /* \"#utility.yul\":27803:27874   */\n      tag_264\n      jump\t// in\n    tag_597:\n        /* \"#utility.yul\":27884:27956   */\n      tag_598\n        /* \"#utility.yul\":27952:27954   */\n      0x20\n        /* \"#utility.yul\":27941:27950   */\n      dup4\n        /* \"#utility.yul\":27937:27955   */\n      add\n        /* \"#utility.yul\":27928:27934   */\n      dup6\n        /* \"#utility.yul\":27884:27956   */\n      tag_264\n      jump\t// in\n    tag_598:\n        /* \"#utility.yul\":27966:28038   */\n      tag_599\n        /* \"#utility.yul\":28034:28036   */\n      0x40\n        /* \"#utility.yul\":28023:28032   */\n      dup4\n        /* \"#utility.yul\":28019:28037   */\n      add\n        /* \"#utility.yul\":28010:28016   */\n      dup5\n        /* \"#utility.yul\":27966:28038   */\n      tag_256\n      jump\t// in\n    tag_599:\n        /* \"#utility.yul\":27603:28045   */\n      swap5\n      swap4\n      pop\n      pop\n      pop\n      pop\n      jump\t// out\n\n    auxdata: 0xa264697066735822122024e3517b87c161f501a8357a9651f0890b168285d910a9f32225e2a049ddc17964736f6c634300081c0033\n}\n",
				"bytecode": {
					"linkReferences": {},
					"object": "6080604052348015600e575f5ffd5b506124c28061001c5f395ff3fe6080604052600436106100e0575f3560e01c80638da5cb5b1161007e578063b807a3c411610058578063b807a3c414610347578063be9a76871461036f578063f2fde38b14610397578063f3fef3a3146103bf5761019f565b80638da5cb5b146102a5578063a9590e8a146102cf578063aee9c8721461030b5761019f565b8063485cc955116100ba578063485cc95514610211578063715018a61461023957806385c758f71461024f5780638a19c8bc146102795761019f565b80631e83409a146101a357806342cb1fbc146101cb57806347e7ef24146101f55761019f565b3661019f573460045f5f73ffffffffffffffffffffffffffffffffffffffff1673ffffffffffffffffffffffffffffffffffffffff1681526020019081526020015f205f82825461013191906116cd565b925050819055505f73ffffffffffffffffffffffffffffffffffffffff163373ffffffffffffffffffffffffffffffffffffffff167f5548c837ab068cf56a2c2479df0882a4922fd203edb7517321831d95078c5f6234604051610195919061170f565b60405180910390a3005b5f5ffd5b3480156101ae575f5ffd5b506101c960048036038101906101c49190611793565b6103e7565b005b3480156101d6575f5ffd5b506101df6108c2565b6040516101ec91906117cd565b60405180910390f35b61020f600480360381019061020a9190611810565b6108c6565b005b34801561021c575f5ffd5b506102376004803603810190610232919061184e565b610a6c565b005b348015610244575f5ffd5b5061024d610c2d565b005b34801561025a575f5ffd5b50610263610c40565b60405161027091906118e7565b60405180910390f35b348015610284575f5ffd5b5061028d610c64565b60405161029c93929190611970565b60405180910390f35b3480156102b0575f5ffd5b506102b9610d01565b6040516102c691906117cd565b60405180910390f35b3480156102da575f5ffd5b506102f560048036038101906102f0919061184e565b610d36565b604051610302919061170f565b60405180910390f35b348015610316575f5ffd5b50610331600480360381019061032c9190611793565b610d56565b60405161033e919061170f565b60405180910390f35b348015610352575f5ffd5b5061036d600480360381019061036891906119ac565b610d6b565b005b34801561037a575f5ffd5b5061039560048036038101906103909190611b28565b610e5a565b005b3480156103a2575f5ffd5b506103bd60048036038101906103b89190611793565b610f2c565b005b3480156103ca575f5ffd5b506103e560048036038101906103e09190611810565b610fb0565b005b60015f015442101580156103ff575060018001544211155b61043e576040517f08c379a000000000000000000000000000000000000000000000000000000000815260040161043590611bde565b60405180910390fd5b5f60055f3373ffffffffffffffffffffffffffffffffffffffff1673ffffffffffffffffffffffffffffffffffffffff1681526020019081526020015f205f8373ffffffffffffffffffffffffffffffffffffffff1673ffffffffffffffffffffffffffffffffffffffff1681526020019081526020015f205490505f81116104fc576040517f08c379a00000000000000000000000000000000000000000000000000000000081526004016104f390611c46565b60405180910390fd5b8060045f8473ffffffffffffffffffffffffffffffffffffffff1673ffffffffffffffffffffffffffffffffffffffff1681526020019081526020015f2054101561057c576040517f08c379a000000000000000000000000000000000000000000000000000000000815260040161057390611cae565b60405180910390fd5b5f7f63608faae6311ef53110180034271a9b97988ebe924a609749732bc2f158407b90505f5f5f9054906101000a900473ffffffffffffffffffffffffffffffffffffffff1673ffffffffffffffffffffffffffffffffffffffff1663faa5e29533846040518363ffffffff1660e01b81526004016105fc929190611ce4565b602060405180830381865afa158015610617573d5f5f3e3d5ffd5b505050506040513d601f19601f8201168201806040525081019061063b9190611d1f565b1161067b576040517f08c379a000000000000000000000000000000000000000000000000000000000815260040161067290611d94565b60405180910390fd5b5f60055f3373ffffffffffffffffffffffffffffffffffffffff1673ffffffffffffffffffffffffffffffffffffffff1681526020019081526020015f205f8573ffffffffffffffffffffffffffffffffffffffff1673ffffffffffffffffffffffffffffffffffffffff1681526020019081526020015f20819055508160045f8573ffffffffffffffffffffffffffffffffffffffff1673ffffffffffffffffffffffffffffffffffffffff1681526020019081526020015f205f8282546107449190611db2565b925050819055505f73ffffffffffffffffffffffffffffffffffffffff168373ffffffffffffffffffffffffffffffffffffffff160361082c575f3373ffffffffffffffffffffffffffffffffffffffff16836040516107a390611e12565b5f6040518083038185875af1925050503d805f81146107dd576040519150601f19603f3d011682016040523d82523d5f602084013e6107e2565b606091505b5050905080610826576040517f08c379a000000000000000000000000000000000000000000000000000000000815260040161081d90611e70565b60405180910390fd5b50610858565b61085733838573ffffffffffffffffffffffffffffffffffffffff166112589092919063ffffffff16565b5b8273ffffffffffffffffffffffffffffffffffffffff163373ffffffffffffffffffffffffffffffffffffffff167ff7a40077ff7a04c7e61f6f26fb13774259ddf1b6bce9ecf26a8276cdd3992683846040516108b5919061170f565b60405180910390a3505050565b5f81565b5f73ffffffffffffffffffffffffffffffffffffffff168273ffffffffffffffffffffffffffffffffffffffff16036109405780341461093b576040517f08c379a000000000000000000000000000000000000000000000000000000000815260040161093290611ed8565b60405180910390fd5b6109b0565b5f8111610982576040517f08c379a000000000000000000000000000000000000000000000000000000000815260040161097990611f66565b60405180910390fd5b6109af3330838573ffffffffffffffffffffffffffffffffffffffff166112d7909392919063ffffffff16565b5b8060045f8473ffffffffffffffffffffffffffffffffffffffff1673ffffffffffffffffffffffffffffffffffffffff1681526020019081526020015f205f8282546109fc91906116cd565b925050819055508173ffffffffffffffffffffffffffffffffffffffff163373ffffffffffffffffffffffffffffffffffffffff167f5548c837ab068cf56a2c2479df0882a4922fd203edb7517321831d95078c5f6283604051610a60919061170f565b60405180910390a35050565b5f610a75611359565b90505f815f0160089054906101000a900460ff161590505f825f015f9054906101000a900467ffffffffffffffff1690505f5f8267ffffffffffffffff16148015610abd5750825b90505f60018367ffffffffffffffff16148015610af057505f3073ffffffffffffffffffffffffffffffffffffffff163b145b905081158015610afe575080155b15610b35576040517ff92ee8a900000000000000000000000000000000000000000000000000000000815260040160405180910390fd5b6001855f015f6101000a81548167ffffffffffffffff021916908367ffffffffffffffff1602179055508315610b82576001855f0160086101000a81548160ff0219169083151502179055505b610b8b86611380565b865f5f6101000a81548173ffffffffffffffffffffffffffffffffffffffff021916908373ffffffffffffffffffffffffffffffffffffffff1602179055508315610c24575f855f0160086101000a81548160ff0219169083151502179055507fc7f505b2f371ae2175ee4913f4499e1f2633a7b5936321eed1cdaeb6115181d26001604051610c1b9190611fd0565b60405180910390a15b50505050505050565b610c35611394565b610c3e5f61141b565b565b5f5f9054906101000a900473ffffffffffffffffffffffffffffffffffffffff1681565b6001805f015490806001015490806002018054610c8090612016565b80601f0160208091040260200160405190810160405280929190818152602001828054610cac90612016565b8015610cf75780601f10610cce57610100808354040283529160200191610cf7565b820191905f5260205f20905b815481529060010190602001808311610cda57829003601f168201915b5050505050905083565b5f5f610d0b6114ec565b9050805f015f9054906101000a900473ffffffffffffffffffffffffffffffffffffffff1691505090565b6005602052815f5260405f20602052805f5260405f205f91509150505481565b6004602052805f5260405f205f915090505481565b610d73611394565b8060055f8573ffffffffffffffffffffffffffffffffffffffff1673ffffffffffffffffffffffffffffffffffffffff1681526020019081526020015f205f8473ffffffffffffffffffffffffffffffffffffffff1673ffffffffffffffffffffffffffffffffffffffff1681526020019081526020015f20819055508173ffffffffffffffffffffffffffffffffffffffff168373ffffffffffffffffffffffffffffffffffffffff167f3d0601f3b0e52fd772f1fa71d91651b34b6a11144bea30d74e0f820019a04dc283604051610e4d919061170f565b60405180910390a3505050565b610e62611394565b818310610ea4576040517f08c379a0000000000000000000000000000000000000000000000000000000008152600401610e9b906120b6565b60405180910390fd5b60405180606001604052808481526020018381526020018281525060015f820151815f0155602082015181600101556040820151816002019081610ee8919061226b565b509050507f09e6db48f22357e6dce2bbff89db8ff25f0012a08186d6ea72e2343fdc112e13838383604051610f1f93929190611970565b60405180910390a1505050565b610f34611394565b5f73ffffffffffffffffffffffffffffffffffffffff168173ffffffffffffffffffffffffffffffffffffffff1603610fa4575f6040517f1e4fbdf7000000000000000000000000000000000000000000000000000000008152600401610f9b91906117cd565b60405180910390fd5b610fad8161141b565b50565b610fb8611394565b5f8111610ffa576040517f08c379a0000000000000000000000000000000000000000000000000000000008152600401610ff1906123aa565b60405180910390fd5b8060045f8473ffffffffffffffffffffffffffffffffffffffff1673ffffffffffffffffffffffffffffffffffffffff1681526020019081526020015f2054101561107a576040517f08c379a000000000000000000000000000000000000000000000000000000000815260040161107190612412565b60405180910390fd5b8060045f8473ffffffffffffffffffffffffffffffffffffffff1673ffffffffffffffffffffffffffffffffffffffff1681526020019081526020015f205f8282546110c69190611db2565b925050819055505f73ffffffffffffffffffffffffffffffffffffffff168273ffffffffffffffffffffffffffffffffffffffff16036111b5575f611109610d01565b73ffffffffffffffffffffffffffffffffffffffff168260405161112c90611e12565b5f6040518083038185875af1925050503d805f8114611166576040519150601f19603f3d011682016040523d82523d5f602084013e61116b565b606091505b50509050806111af576040517f08c379a00000000000000000000000000000000000000000000000000000000081526004016111a690611e70565b60405180910390fd5b506111e8565b6111e76111c0610d01565b828473ffffffffffffffffffffffffffffffffffffffff166112589092919063ffffffff16565b5b8173ffffffffffffffffffffffffffffffffffffffff16611207610d01565b73ffffffffffffffffffffffffffffffffffffffff167f9b1bfa7fa9ee420a16e124f794c35ac9f90472acc99140eb2f6447c714cad8eb8360405161124c919061170f565b60405180910390a35050565b6112d2838473ffffffffffffffffffffffffffffffffffffffff1663a9059cbb858560405160240161128b929190612430565b604051602081830303815290604052915060e01b6020820180517bffffffffffffffffffffffffffffffffffffffffffffffffffffffff8381831617835250505050611513565b505050565b611353848573ffffffffffffffffffffffffffffffffffffffff166323b872dd86868660405160240161130c93929190612457565b604051602081830303815290604052915060e01b6020820180517bffffffffffffffffffffffffffffffffffffffffffffffffffffffff8381831617835250505050611513565b50505050565b5f7ff0c57e16840df040f15088dc2f81fe391c3923bec73e23a9662efc9c229c6a00905090565b6113886115ae565b611391816115ee565b50565b61139c611672565b73ffffffffffffffffffffffffffffffffffffffff166113ba610d01565b73ffffffffffffffffffffffffffffffffffffffff1614611419576113dd611672565b6040517f118cdaa700000000000000000000000000000000000000000000000000000000815260040161141091906117cd565b60405180910390fd5b565b5f6114246114ec565b90505f815f015f9054906101000a900473ffffffffffffffffffffffffffffffffffffffff16905082825f015f6101000a81548173ffffffffffffffffffffffffffffffffffffffff021916908373ffffffffffffffffffffffffffffffffffffffff1602179055508273ffffffffffffffffffffffffffffffffffffffff168173ffffffffffffffffffffffffffffffffffffffff167f8be0079c531659141344cd1fd0a4f28419497f9722a3daafe3b4186f6b6457e060405160405180910390a3505050565b5f7f9016d09d72d40fdae2fd8ceac6b6234c7706214fd39c1cd1e609a0528c199300905090565b5f5f60205f8451602086015f885af180611532576040513d5f823e3d81fd5b3d92505f519150505f821461154b576001811415611566565b5f8473ffffffffffffffffffffffffffffffffffffffff163b145b156115a857836040517f5274afe700000000000000000000000000000000000000000000000000000000815260040161159f91906117cd565b60405180910390fd5b50505050565b6115b6611679565b6115ec576040517fd7e6bcf800000000000000000000000000000000000000000000000000000000815260040160405180910390fd5b565b6115f66115ae565b5f73ffffffffffffffffffffffffffffffffffffffff168173ffffffffffffffffffffffffffffffffffffffff1603611666575f6040517f1e4fbdf700000000000000000000000000000000000000000000000000000000815260040161165d91906117cd565b60405180910390fd5b61166f8161141b565b50565b5f33905090565b5f611682611359565b5f0160089054906101000a900460ff16905090565b5f819050919050565b7f4e487b71000000000000000000000000000000000000000000000000000000005f52601160045260245ffd5b5f6116d782611697565b91506116e283611697565b92508282019050808211156116fa576116f96116a0565b5b92915050565b61170981611697565b82525050565b5f6020820190506117225f830184611700565b92915050565b5f604051905090565b5f5ffd5b5f5ffd5b5f73ffffffffffffffffffffffffffffffffffffffff82169050919050565b5f61176282611739565b9050919050565b61177281611758565b811461177c575f5ffd5b50565b5f8135905061178d81611769565b92915050565b5f602082840312156117a8576117a7611731565b5b5f6117b58482850161177f565b91505092915050565b6117c781611758565b82525050565b5f6020820190506117e05f8301846117be565b92915050565b6117ef81611697565b81146117f9575f5ffd5b50565b5f8135905061180a816117e6565b92915050565b5f5f6040838503121561182657611825611731565b5b5f6118338582860161177f565b9250506020611844858286016117fc565b9150509250929050565b5f5f6040838503121561186457611863611731565b5b5f6118718582860161177f565b92505060206118828582860161177f565b9150509250929050565b5f819050919050565b5f6118af6118aa6118a584611739565b61188c565b611739565b9050919050565b5f6118c082611895565b9050919050565b5f6118d1826118b6565b9050919050565b6118e1816118c7565b82525050565b5f6020820190506118fa5f8301846118d8565b92915050565b5f81519050919050565b5f82825260208201905092915050565b8281835e5f83830152505050565b5f601f19601f8301169050919050565b5f61194282611900565b61194c818561190a565b935061195c81856020860161191a565b61196581611928565b840191505092915050565b5f6060820190506119835f830186611700565b6119906020830185611700565b81810360408301526119a28184611938565b9050949350505050565b5f5f5f606084860312156119c3576119c2611731565b5b5f6119d08682870161177f565b93505060206119e18682870161177f565b92505060406119f2868287016117fc565b9150509250925092565b5f5ffd5b5f5ffd5b7f4e487b71000000000000000000000000000000000000000000000000000000005f52604160045260245ffd5b611a3a82611928565b810181811067ffffffffffffffff82111715611a5957611a58611a04565b5b80604052505050565b5f611a6b611728565b9050611a778282611a31565b919050565b5f67ffffffffffffffff821115611a9657611a95611a04565b5b611a9f82611928565b9050602081019050919050565b828183375f83830152505050565b5f611acc611ac784611a7c565b611a62565b905082815260208101848484011115611ae857611ae7611a00565b5b611af3848285611aac565b509392505050565b5f82601f830112611b0f57611b0e6119fc565b5b8135611b1f848260208601611aba565b91505092915050565b5f5f5f60608486031215611b3f57611b3e611731565b5b5f611b4c868287016117fc565b9350506020611b5d868287016117fc565b925050604084013567ffffffffffffffff811115611b7e57611b7d611735565b5b611b8a86828701611afb565b9150509250925092565b7f4e6f742077697468696e20726f756e64206475726174696f6e000000000000005f82015250565b5f611bc860198361190a565b9150611bd382611b94565b602082019050919050565b5f6020820190508181035f830152611bf581611bbc565b9050919050565b7f4e6f20636c61696d61626c6520616d6f756e74000000000000000000000000005f82015250565b5f611c3060138361190a565b9150611c3b82611bfc565b602082019050919050565b5f6020820190508181035f830152611c5d81611c24565b9050919050565b7f496e73756666696369656e742066756e647320696e206a6172000000000000005f82015250565b5f611c9860198361190a565b9150611ca382611c64565b602082019050919050565b5f6020820190508181035f830152611cc581611c8c565b9050919050565b5f819050919050565b611cde81611ccc565b82525050565b5f604082019050611cf75f8301856117be565b611d046020830184611cd5565b9392505050565b5f81519050611d19816117e6565b92915050565b5f60208284031215611d3457611d33611731565b5b5f611d4184828501611d0b565b91505092915050565b7f496e73756666696369656e742054727573742073636f726500000000000000005f82015250565b5f611d7e60188361190a565b9150611d8982611d4a565b602082019050919050565b5f6020820190508181035f830152611dab81611d72565b9050919050565b5f611dbc82611697565b9150611dc783611697565b9250828203905081811115611ddf57611dde6116a0565b5b92915050565b5f81905092915050565b50565b5f611dfd5f83611de5565b9150611e0882611def565b5f82019050919050565b5f611e1c82611df2565b9150819050919050565b7f4574686572207472616e73666572206661696c656400000000000000000000005f82015250565b5f611e5a60158361190a565b9150611e6582611e26565b602082019050919050565b5f6020820190508181035f830152611e8781611e4e565b9050919050565b7f496e636f727265637420457468657220616d6f756e74000000000000000000005f82015250565b5f611ec260168361190a565b9150611ecd82611e8e565b602082019050919050565b5f6020820190508181035f830152611eef81611eb6565b9050919050565b7f4465706f73697420616d6f756e74206d757374206265206772656174657220745f8201527f68616e207a65726f000000000000000000000000000000000000000000000000602082015250565b5f611f5060288361190a565b9150611f5b82611ef6565b604082019050919050565b5f6020820190508181035f830152611f7d81611f44565b9050919050565b5f819050919050565b5f67ffffffffffffffff82169050919050565b5f611fba611fb5611fb084611f84565b61188c565b611f8d565b9050919050565b611fca81611fa0565b82525050565b5f602082019050611fe35f830184611fc1565b92915050565b7f4e487b71000000000000000000000000000000000000000000000000000000005f52602260045260245ffd5b5f600282049050600182168061202d57607f821691505b6020821081036120405761203f611fe9565b5b50919050565b7f53746172742074696d65206d757374206265206265666f726520656e642074695f8201527f6d65000000000000000000000000000000000000000000000000000000000000602082015250565b5f6120a060228361190a565b91506120ab82612046565b604082019050919050565b5f6020820190508181035f8301526120cd81612094565b9050919050565b5f819050815f5260205f209050919050565b5f6020601f8301049050919050565b5f82821b905092915050565b5f600883026121307fffffffffffffffffffffffffffffffffffffffffffffffffffffffffffffffff826120f5565b61213a86836120f5565b95508019841693508086168417925050509392505050565b5f61216c61216761216284611697565b61188c565b611697565b9050919050565b5f819050919050565b61218583612152565b61219961219182612173565b848454612101565b825550505050565b5f5f905090565b6121b06121a1565b6121bb81848461217c565b505050565b5b818110156121de576121d35f826121a8565b6001810190506121c1565b5050565b601f821115612223576121f4816120d4565b6121fd846120e6565b8101602085101561220c578190505b612220612218856120e6565b8301826121c0565b50505b505050565b5f82821c905092915050565b5f6122435f1984600802612228565b1980831691505092915050565b5f61225b8383612234565b9150826002028217905092915050565b61227482611900565b67ffffffffffffffff81111561228d5761228c611a04565b5b6122978254612016565b6122a28282856121e2565b5f60209050601f8311600181146122d3575f84156122c1578287015190505b6122cb8582612250565b865550612332565b601f1984166122e1866120d4565b5f5b82811015612308578489015182556001820191506020850194506020810190506122e3565b868310156123255784890151612321601f891682612234565b8355505b6001600288020188555050505b505050505050565b7f5769746864726177616c20616d6f756e74206d757374206265206772656174655f8201527f72207468616e207a65726f000000000000000000000000000000000000000000602082015250565b5f612394602b8361190a565b915061239f8261233a565b604082019050919050565b5f6020820190508181035f8301526123c181612388565b9050919050565b7f496e73756666696369656e742066756e647300000000000000000000000000005f82015250565b5f6123fc60128361190a565b9150612407826123c8565b602082019050919050565b5f6020820190508181035f830152612429816123f0565b9050919050565b5f6040820190506124435f8301856117be565b6124506020830184611700565b9392505050565b5f60608201905061246a5f8301866117be565b61247760208301856117be565b6124846040830184611700565b94935050505056fea264697066735822122024e3517b87c161f501a8357a9651f0890b168285d910a9f32225e2a049ddc17964736f6c634300081c0033",
					"opcodes": "PUSH1 0x80 PUSH1 0x40 MSTORE CALLVALUE DUP1 ISZERO PUSH1 0xE JUMPI PUSH0 PUSH0 REVERT JUMPDEST POP PUSH2 0x24C2 DUP1 PUSH2 0x1C PUSH0 CODECOPY PUSH0 RETURN INVALID PUSH1 0x80 PUSH1 0x40 MSTORE PUSH1 0x4 CALLDATASIZE LT PUSH2 0xE0 JUMPI PUSH0 CALLDATALOAD PUSH1 0xE0 SHR DUP1 PUSH4 0x8DA5CB5B GT PUSH2 0x7E JUMPI DUP1 PUSH4 0xB807A3C4 GT PUSH2 0x58 JUMPI DUP1 PUSH4 0xB807A3C4 EQ PUSH2 0x347 JUMPI DUP1 PUSH4 0xBE9A7687 EQ PUSH2 0x36F JUMPI DUP1 PUSH4 0xF2FDE38B EQ PUSH2 0x397 JUMPI DUP1 PUSH4 0xF3FEF3A3 EQ PUSH2 0x3BF JUMPI PUSH2 0x19F JUMP JUMPDEST DUP1 PUSH4 0x8DA5CB5B EQ PUSH2 0x2A5 JUMPI DUP1 PUSH4 0xA9590E8A EQ PUSH2 0x2CF JUMPI DUP1 PUSH4 0xAEE9C872 EQ PUSH2 0x30B JUMPI PUSH2 0x19F JUMP JUMPDEST DUP1 PUSH4 0x485CC955 GT PUSH2 0xBA JUMPI DUP1 PUSH4 0x485CC955 EQ PUSH2 0x211 JUMPI DUP1 PUSH4 0x715018A6 EQ PUSH2 0x239 JUMPI DUP1 PUSH4 0x85C758F7 EQ PUSH2 0x24F JUMPI DUP1 PUSH4 0x8A19C8BC EQ PUSH2 0x279 JUMPI PUSH2 0x19F JUMP JUMPDEST DUP1 PUSH4 0x1E83409A EQ PUSH2 0x1A3 JUMPI DUP1 PUSH4 0x42CB1FBC EQ PUSH2 0x1CB JUMPI DUP1 PUSH4 0x47E7EF24 EQ PUSH2 0x1F5 JUMPI PUSH2 0x19F JUMP JUMPDEST CALLDATASIZE PUSH2 0x19F JUMPI CALLVALUE PUSH1 0x4 PUSH0 PUSH0 PUSH20 0xFFFFFFFFFFFFFFFFFFFFFFFFFFFFFFFFFFFFFFFF AND PUSH20 0xFFFFFFFFFFFFFFFFFFFFFFFFFFFFFFFFFFFFFFFF AND DUP2 MSTORE PUSH1 0x20 ADD SWAP1 DUP2 MSTORE PUSH1 0x20 ADD PUSH0 KECCAK256 PUSH0 DUP3 DUP3 SLOAD PUSH2 0x131 SWAP2 SWAP1 PUSH2 0x16CD JUMP JUMPDEST SWAP3 POP POP DUP2 SWAP1 SSTORE POP PUSH0 PUSH20 0xFFFFFFFFFFFFFFFFFFFFFFFFFFFFFFFFFFFFFFFF AND CALLER PUSH20 0xFFFFFFFFFFFFFFFFFFFFFFFFFFFFFFFFFFFFFFFF AND PUSH32 0x5548C837AB068CF56A2C2479DF0882A4922FD203EDB7517321831D95078C5F62 CALLVALUE PUSH1 0x40 MLOAD PUSH2 0x195 SWAP2 SWAP1 PUSH2 0x170F JUMP JUMPDEST PUSH1 0x40 MLOAD DUP1 SWAP2 SUB SWAP1 LOG3 STOP JUMPDEST PUSH0 PUSH0 REVERT JUMPDEST CALLVALUE DUP1 ISZERO PUSH2 0x1AE JUMPI PUSH0 PUSH0 REVERT JUMPDEST POP PUSH2 0x1C9 PUSH1 0x4 DUP1 CALLDATASIZE SUB DUP2 ADD SWAP1 PUSH2 0x1C4 SWAP2 SWAP1 PUSH2 0x1793 JUMP JUMPDEST PUSH2 0x3E7 JUMP JUMPDEST STOP JUMPDEST CALLVALUE DUP1 ISZERO PUSH2 0x1D6 JUMPI PUSH0 PUSH0 REVERT JUMPDEST POP PUSH2 0x1DF PUSH2 0x8C2 JUMP JUMPDEST PUSH1 0x40 MLOAD PUSH2 0x1EC SWAP2 SWAP1 PUSH2 0x17CD JUMP JUMPDEST PUSH1 0x40 MLOAD DUP1 SWAP2 SUB SWAP1 RETURN JUMPDEST PUSH2 0x20F PUSH1 0x4 DUP1 CALLDATASIZE SUB DUP2 ADD SWAP1 PUSH2 0x20A SWAP2 SWAP1 PUSH2 0x1810 JUMP JUMPDEST PUSH2 0x8C6 JUMP JUMPDEST STOP JUMPDEST CALLVALUE DUP1 ISZERO PUSH2 0x21C JUMPI PUSH0 PUSH0 REVERT JUMPDEST POP PUSH2 0x237 PUSH1 0x4 DUP1 CALLDATASIZE SUB DUP2 ADD SWAP1 PUSH2 0x232 SWAP2 SWAP1 PUSH2 0x184E JUMP JUMPDEST PUSH2 0xA6C JUMP JUMPDEST STOP JUMPDEST CALLVALUE DUP1 ISZERO PUSH2 0x244 JUMPI PUSH0 PUSH0 REVERT JUMPDEST POP PUSH2 0x24D PUSH2 0xC2D JUMP JUMPDEST STOP JUMPDEST CALLVALUE DUP1 ISZERO PUSH2 0x25A JUMPI PUSH0 PUSH0 REVERT JUMPDEST POP PUSH2 0x263 PUSH2 0xC40 JUMP JUMPDEST PUSH1 0x40 MLOAD PUSH2 0x270 SWAP2 SWAP1 PUSH2 0x18E7 JUMP JUMPDEST PUSH1 0x40 MLOAD DUP1 SWAP2 SUB SWAP1 RETURN JUMPDEST CALLVALUE DUP1 ISZERO PUSH2 0x284 JUMPI PUSH0 PUSH0 REVERT JUMPDEST POP PUSH2 0x28D PUSH2 0xC64 JUMP JUMPDEST PUSH1 0x40 MLOAD PUSH2 0x29C SWAP4 SWAP3 SWAP2 SWAP1 PUSH2 0x1970 JUMP JUMPDEST PUSH1 0x40 MLOAD DUP1 SWAP2 SUB SWAP1 RETURN JUMPDEST CALLVALUE DUP1 ISZERO PUSH2 0x2B0 JUMPI PUSH0 PUSH0 REVERT JUMPDEST POP PUSH2 0x2B9 PUSH2 0xD01 JUMP JUMPDEST PUSH1 0x40 MLOAD PUSH2 0x2C6 SWAP2 SWAP1 PUSH2 0x17CD JUMP JUMPDEST PUSH1 0x40 MLOAD DUP1 SWAP2 SUB SWAP1 RETURN JUMPDEST CALLVALUE DUP1 ISZERO PUSH2 0x2DA JUMPI PUSH0 PUSH0 REVERT JUMPDEST POP PUSH2 0x2F5 PUSH1 0x4 DUP1 CALLDATASIZE SUB DUP2 ADD SWAP1 PUSH2 0x2F0 SWAP2 SWAP1 PUSH2 0x184E JUMP JUMPDEST PUSH2 0xD36 JUMP JUMPDEST PUSH1 0x40 MLOAD PUSH2 0x302 SWAP2 SWAP1 PUSH2 0x170F JUMP JUMPDEST PUSH1 0x40 MLOAD DUP1 SWAP2 SUB SWAP1 RETURN JUMPDEST CALLVALUE DUP1 ISZERO PUSH2 0x316 JUMPI PUSH0 PUSH0 REVERT JUMPDEST POP PUSH2 0x331 PUSH1 0x4 DUP1 CALLDATASIZE SUB DUP2 ADD SWAP1 PUSH2 0x32C SWAP2 SWAP1 PUSH2 0x1793 JUMP JUMPDEST PUSH2 0xD56 JUMP JUMPDEST PUSH1 0x40 MLOAD PUSH2 0x33E SWAP2 SWAP1 PUSH2 0x170F JUMP JUMPDEST PUSH1 0x40 MLOAD DUP1 SWAP2 SUB SWAP1 RETURN JUMPDEST CALLVALUE DUP1 ISZERO PUSH2 0x352 JUMPI PUSH0 PUSH0 REVERT JUMPDEST POP PUSH2 0x36D PUSH1 0x4 DUP1 CALLDATASIZE SUB DUP2 ADD SWAP1 PUSH2 0x368 SWAP2 SWAP1 PUSH2 0x19AC JUMP JUMPDEST PUSH2 0xD6B JUMP JUMPDEST STOP JUMPDEST CALLVALUE DUP1 ISZERO PUSH2 0x37A JUMPI PUSH0 PUSH0 REVERT JUMPDEST POP PUSH2 0x395 PUSH1 0x4 DUP1 CALLDATASIZE SUB DUP2 ADD SWAP1 PUSH2 0x390 SWAP2 SWAP1 PUSH2 0x1B28 JUMP JUMPDEST PUSH2 0xE5A JUMP JUMPDEST STOP JUMPDEST CALLVALUE DUP1 ISZERO PUSH2 0x3A2 JUMPI PUSH0 PUSH0 REVERT JUMPDEST POP PUSH2 0x3BD PUSH1 0x4 DUP1 CALLDATASIZE SUB DUP2 ADD SWAP1 PUSH2 0x3B8 SWAP2 SWAP1 PUSH2 0x1793 JUMP JUMPDEST PUSH2 0xF2C JUMP JUMPDEST STOP JUMPDEST CALLVALUE DUP1 ISZERO PUSH2 0x3CA JUMPI PUSH0 PUSH0 REVERT JUMPDEST POP PUSH2 0x3E5 PUSH1 0x4 DUP1 CALLDATASIZE SUB DUP2 ADD SWAP1 PUSH2 0x3E0 SWAP2 SWAP1 PUSH2 0x1810 JUMP JUMPDEST PUSH2 0xFB0 JUMP JUMPDEST STOP JUMPDEST PUSH1 0x1 PUSH0 ADD SLOAD TIMESTAMP LT ISZERO DUP1 ISZERO PUSH2 0x3FF JUMPI POP PUSH1 0x1 DUP1 ADD SLOAD TIMESTAMP GT ISZERO JUMPDEST PUSH2 0x43E JUMPI PUSH1 0x40 MLOAD PUSH32 0x8C379A000000000000000000000000000000000000000000000000000000000 DUP2 MSTORE PUSH1 0x4 ADD PUSH2 0x435 SWAP1 PUSH2 0x1BDE JUMP JUMPDEST PUSH1 0x40 MLOAD DUP1 SWAP2 SUB SWAP1 REVERT JUMPDEST PUSH0 PUSH1 0x5 PUSH0 CALLER PUSH20 0xFFFFFFFFFFFFFFFFFFFFFFFFFFFFFFFFFFFFFFFF AND PUSH20 0xFFFFFFFFFFFFFFFFFFFFFFFFFFFFFFFFFFFFFFFF AND DUP2 MSTORE PUSH1 0x20 ADD SWAP1 DUP2 MSTORE PUSH1 0x20 ADD PUSH0 KECCAK256 PUSH0 DUP4 PUSH20 0xFFFFFFFFFFFFFFFFFFFFFFFFFFFFFFFFFFFFFFFF AND PUSH20 0xFFFFFFFFFFFFFFFFFFFFFFFFFFFFFFFFFFFFFFFF AND DUP2 MSTORE PUSH1 0x20 ADD SWAP1 DUP2 MSTORE PUSH1 0x20 ADD PUSH0 KECCAK256 SLOAD SWAP1 POP PUSH0 DUP2 GT PUSH2 0x4FC JUMPI PUSH1 0x40 MLOAD PUSH32 0x8C379A000000000000000000000000000000000000000000000000000000000 DUP2 MSTORE PUSH1 0x4 ADD PUSH2 0x4F3 SWAP1 PUSH2 0x1C46 JUMP JUMPDEST PUSH1 0x40 MLOAD DUP1 SWAP2 SUB SWAP1 REVERT JUMPDEST DUP1 PUSH1 0x4 PUSH0 DUP5 PUSH20 0xFFFFFFFFFFFFFFFFFFFFFFFFFFFFFFFFFFFFFFFF AND PUSH20 0xFFFFFFFFFFFFFFFFFFFFFFFFFFFFFFFFFFFFFFFF AND DUP2 MSTORE PUSH1 0x20 ADD SWAP1 DUP2 MSTORE PUSH1 0x20 ADD PUSH0 KECCAK256 SLOAD LT ISZERO PUSH2 0x57C JUMPI PUSH1 0x40 MLOAD PUSH32 0x8C379A000000000000000000000000000000000000000000000000000000000 DUP2 MSTORE PUSH1 0x4 ADD PUSH2 0x573 SWAP1 PUSH2 0x1CAE JUMP JUMPDEST PUSH1 0x40 MLOAD DUP1 SWAP2 SUB SWAP1 REVERT JUMPDEST PUSH0 PUSH32 0x63608FAAE6311EF53110180034271A9B97988EBE924A609749732BC2F158407B SWAP1 POP PUSH0 PUSH0 PUSH0 SWAP1 SLOAD SWAP1 PUSH2 0x100 EXP SWAP1 DIV PUSH20 0xFFFFFFFFFFFFFFFFFFFFFFFFFFFFFFFFFFFFFFFF AND PUSH20 0xFFFFFFFFFFFFFFFFFFFFFFFFFFFFFFFFFFFFFFFF AND PUSH4 0xFAA5E295 CALLER DUP5 PUSH1 0x40 MLOAD DUP4 PUSH4 0xFFFFFFFF AND PUSH1 0xE0 SHL DUP2 MSTORE PUSH1 0x4 ADD PUSH2 0x5FC SWAP3 SWAP2 SWAP1 PUSH2 0x1CE4 JUMP JUMPDEST PUSH1 0x20 PUSH1 0x40 MLOAD DUP1 DUP4 SUB DUP2 DUP7 GAS STATICCALL ISZERO DUP1 ISZERO PUSH2 0x617 JUMPI RETURNDATASIZE PUSH0 PUSH0 RETURNDATACOPY RETURNDATASIZE PUSH0 REVERT JUMPDEST POP POP POP POP PUSH1 0x40 MLOAD RETURNDATASIZE PUSH1 0x1F NOT PUSH1 0x1F DUP3 ADD AND DUP3 ADD DUP1 PUSH1 0x40 MSTORE POP DUP2 ADD SWAP1 PUSH2 0x63B SWAP2 SWAP1 PUSH2 0x1D1F JUMP JUMPDEST GT PUSH2 0x67B JUMPI PUSH1 0x40 MLOAD PUSH32 0x8C379A000000000000000000000000000000000000000000000000000000000 DUP2 MSTORE PUSH1 0x4 ADD PUSH2 0x672 SWAP1 PUSH2 0x1D94 JUMP JUMPDEST PUSH1 0x40 MLOAD DUP1 SWAP2 SUB SWAP1 REVERT JUMPDEST PUSH0 PUSH1 0x5 PUSH0 CALLER PUSH20 0xFFFFFFFFFFFFFFFFFFFFFFFFFFFFFFFFFFFFFFFF AND PUSH20 0xFFFFFFFFFFFFFFFFFFFFFFFFFFFFFFFFFFFFFFFF AND DUP2 MSTORE PUSH1 0x20 ADD SWAP1 DUP2 MSTORE PUSH1 0x20 ADD PUSH0 KECCAK256 PUSH0 DUP6 PUSH20 0xFFFFFFFFFFFFFFFFFFFFFFFFFFFFFFFFFFFFFFFF AND PUSH20 0xFFFFFFFFFFFFFFFFFFFFFFFFFFFFFFFFFFFFFFFF AND DUP2 MSTORE PUSH1 0x20 ADD SWAP1 DUP2 MSTORE PUSH1 0x20 ADD PUSH0 KECCAK256 DUP2 SWAP1 SSTORE POP DUP2 PUSH1 0x4 PUSH0 DUP6 PUSH20 0xFFFFFFFFFFFFFFFFFFFFFFFFFFFFFFFFFFFFFFFF AND PUSH20 0xFFFFFFFFFFFFFFFFFFFFFFFFFFFFFFFFFFFFFFFF AND DUP2 MSTORE PUSH1 0x20 ADD SWAP1 DUP2 MSTORE PUSH1 0x20 ADD PUSH0 KECCAK256 PUSH0 DUP3 DUP3 SLOAD PUSH2 0x744 SWAP2 SWAP1 PUSH2 0x1DB2 JUMP JUMPDEST SWAP3 POP POP DUP2 SWAP1 SSTORE POP PUSH0 PUSH20 0xFFFFFFFFFFFFFFFFFFFFFFFFFFFFFFFFFFFFFFFF AND DUP4 PUSH20 0xFFFFFFFFFFFFFFFFFFFFFFFFFFFFFFFFFFFFFFFF AND SUB PUSH2 0x82C JUMPI PUSH0 CALLER PUSH20 0xFFFFFFFFFFFFFFFFFFFFFFFFFFFFFFFFFFFFFFFF AND DUP4 PUSH1 0x40 MLOAD PUSH2 0x7A3 SWAP1 PUSH2 0x1E12 JUMP JUMPDEST PUSH0 PUSH1 0x40 MLOAD DUP1 DUP4 SUB DUP2 DUP6 DUP8 GAS CALL SWAP3 POP POP POP RETURNDATASIZE DUP1 PUSH0 DUP2 EQ PUSH2 0x7DD JUMPI PUSH1 0x40 MLOAD SWAP2 POP PUSH1 0x1F NOT PUSH1 0x3F RETURNDATASIZE ADD AND DUP3 ADD PUSH1 0x40 MSTORE RETURNDATASIZE DUP3 MSTORE RETURNDATASIZE PUSH0 PUSH1 0x20 DUP5 ADD RETURNDATACOPY PUSH2 0x7E2 JUMP JUMPDEST PUSH1 0x60 SWAP2 POP JUMPDEST POP POP SWAP1 POP DUP1 PUSH2 0x826 JUMPI PUSH1 0x40 MLOAD PUSH32 0x8C379A000000000000000000000000000000000000000000000000000000000 DUP2 MSTORE PUSH1 0x4 ADD PUSH2 0x81D SWAP1 PUSH2 0x1E70 JUMP JUMPDEST PUSH1 0x40 MLOAD DUP1 SWAP2 SUB SWAP1 REVERT JUMPDEST POP PUSH2 0x858 JUMP JUMPDEST PUSH2 0x857 CALLER DUP4 DUP6 PUSH20 0xFFFFFFFFFFFFFFFFFFFFFFFFFFFFFFFFFFFFFFFF AND PUSH2 0x1258 SWAP1 SWAP3 SWAP2 SWAP1 PUSH4 0xFFFFFFFF AND JUMP JUMPDEST JUMPDEST DUP3 PUSH20 0xFFFFFFFFFFFFFFFFFFFFFFFFFFFFFFFFFFFFFFFF AND CALLER PUSH20 0xFFFFFFFFFFFFFFFFFFFFFFFFFFFFFFFFFFFFFFFF AND PUSH32 0xF7A40077FF7A04C7E61F6F26FB13774259DDF1B6BCE9ECF26A8276CDD3992683 DUP5 PUSH1 0x40 MLOAD PUSH2 0x8B5 SWAP2 SWAP1 PUSH2 0x170F JUMP JUMPDEST PUSH1 0x40 MLOAD DUP1 SWAP2 SUB SWAP1 LOG3 POP POP POP JUMP JUMPDEST PUSH0 DUP2 JUMP JUMPDEST PUSH0 PUSH20 0xFFFFFFFFFFFFFFFFFFFFFFFFFFFFFFFFFFFFFFFF AND DUP3 PUSH20 0xFFFFFFFFFFFFFFFFFFFFFFFFFFFFFFFFFFFFFFFF AND SUB PUSH2 0x940 JUMPI DUP1 CALLVALUE EQ PUSH2 0x93B JUMPI PUSH1 0x40 MLOAD PUSH32 0x8C379A000000000000000000000000000000000000000000000000000000000 DUP2 MSTORE PUSH1 0x4 ADD PUSH2 0x932 SWAP1 PUSH2 0x1ED8 JUMP JUMPDEST PUSH1 0x40 MLOAD DUP1 SWAP2 SUB SWAP1 REVERT JUMPDEST PUSH2 0x9B0 JUMP JUMPDEST PUSH0 DUP2 GT PUSH2 0x982 JUMPI PUSH1 0x40 MLOAD PUSH32 0x8C379A000000000000000000000000000000000000000000000000000000000 DUP2 MSTORE PUSH1 0x4 ADD PUSH2 0x979 SWAP1 PUSH2 0x1F66 JUMP JUMPDEST PUSH1 0x40 MLOAD DUP1 SWAP2 SUB SWAP1 REVERT JUMPDEST PUSH2 0x9AF CALLER ADDRESS DUP4 DUP6 PUSH20 0xFFFFFFFFFFFFFFFFFFFFFFFFFFFFFFFFFFFFFFFF AND PUSH2 0x12D7 SWAP1 SWAP4 SWAP3 SWAP2 SWAP1 PUSH4 0xFFFFFFFF AND JUMP JUMPDEST JUMPDEST DUP1 PUSH1 0x4 PUSH0 DUP5 PUSH20 0xFFFFFFFFFFFFFFFFFFFFFFFFFFFFFFFFFFFFFFFF AND PUSH20 0xFFFFFFFFFFFFFFFFFFFFFFFFFFFFFFFFFFFFFFFF AND DUP2 MSTORE PUSH1 0x20 ADD SWAP1 DUP2 MSTORE PUSH1 0x20 ADD PUSH0 KECCAK256 PUSH0 DUP3 DUP3 SLOAD PUSH2 0x9FC SWAP2 SWAP1 PUSH2 0x16CD JUMP JUMPDEST SWAP3 POP POP DUP2 SWAP1 SSTORE POP DUP2 PUSH20 0xFFFFFFFFFFFFFFFFFFFFFFFFFFFFFFFFFFFFFFFF AND CALLER PUSH20 0xFFFFFFFFFFFFFFFFFFFFFFFFFFFFFFFFFFFFFFFF AND PUSH32 0x5548C837AB068CF56A2C2479DF0882A4922FD203EDB7517321831D95078C5F62 DUP4 PUSH1 0x40 MLOAD PUSH2 0xA60 SWAP2 SWAP1 PUSH2 0x170F JUMP JUMPDEST PUSH1 0x40 MLOAD DUP1 SWAP2 SUB SWAP1 LOG3 POP POP JUMP JUMPDEST PUSH0 PUSH2 0xA75 PUSH2 0x1359 JUMP JUMPDEST SWAP1 POP PUSH0 DUP2 PUSH0 ADD PUSH1 0x8 SWAP1 SLOAD SWAP1 PUSH2 0x100 EXP SWAP1 DIV PUSH1 0xFF AND ISZERO SWAP1 POP PUSH0 DUP3 PUSH0 ADD PUSH0 SWAP1 SLOAD SWAP1 PUSH2 0x100 EXP SWAP1 DIV PUSH8 0xFFFFFFFFFFFFFFFF AND SWAP1 POP PUSH0 PUSH0 DUP3 PUSH8 0xFFFFFFFFFFFFFFFF AND EQ DUP1 ISZERO PUSH2 0xABD JUMPI POP DUP3 JUMPDEST SWAP1 POP PUSH0 PUSH1 0x1 DUP4 PUSH8 0xFFFFFFFFFFFFFFFF AND EQ DUP1 ISZERO PUSH2 0xAF0 JUMPI POP PUSH0 ADDRESS PUSH20 0xFFFFFFFFFFFFFFFFFFFFFFFFFFFFFFFFFFFFFFFF AND EXTCODESIZE EQ JUMPDEST SWAP1 POP DUP2 ISZERO DUP1 ISZERO PUSH2 0xAFE JUMPI POP DUP1 ISZERO JUMPDEST ISZERO PUSH2 0xB35 JUMPI PUSH1 0x40 MLOAD PUSH32 0xF92EE8A900000000000000000000000000000000000000000000000000000000 DUP2 MSTORE PUSH1 0x4 ADD PUSH1 0x40 MLOAD DUP1 SWAP2 SUB SWAP1 REVERT JUMPDEST PUSH1 0x1 DUP6 PUSH0 ADD PUSH0 PUSH2 0x100 EXP DUP2 SLOAD DUP2 PUSH8 0xFFFFFFFFFFFFFFFF MUL NOT AND SWAP1 DUP4 PUSH8 0xFFFFFFFFFFFFFFFF AND MUL OR SWAP1 SSTORE POP DUP4 ISZERO PUSH2 0xB82 JUMPI PUSH1 0x1 DUP6 PUSH0 ADD PUSH1 0x8 PUSH2 0x100 EXP DUP2 SLOAD DUP2 PUSH1 0xFF MUL NOT AND SWAP1 DUP4 ISZERO ISZERO MUL OR SWAP1 SSTORE POP JUMPDEST PUSH2 0xB8B DUP7 PUSH2 0x1380 JUMP JUMPDEST DUP7 PUSH0 PUSH0 PUSH2 0x100 EXP DUP2 SLOAD DUP2 PUSH20 0xFFFFFFFFFFFFFFFFFFFFFFFFFFFFFFFFFFFFFFFF MUL NOT AND SWAP1 DUP4 PUSH20 0xFFFFFFFFFFFFFFFFFFFFFFFFFFFFFFFFFFFFFFFF AND MUL OR SWAP1 SSTORE POP DUP4 ISZERO PUSH2 0xC24 JUMPI PUSH0 DUP6 PUSH0 ADD PUSH1 0x8 PUSH2 0x100 EXP DUP2 SLOAD DUP2 PUSH1 0xFF MUL NOT AND SWAP1 DUP4 ISZERO ISZERO MUL OR SWAP1 SSTORE POP PUSH32 0xC7F505B2F371AE2175EE4913F4499E1F2633A7B5936321EED1CDAEB6115181D2 PUSH1 0x1 PUSH1 0x40 MLOAD PUSH2 0xC1B SWAP2 SWAP1 PUSH2 0x1FD0 JUMP JUMPDEST PUSH1 0x40 MLOAD DUP1 SWAP2 SUB SWAP1 LOG1 JUMPDEST POP POP POP POP POP POP POP JUMP JUMPDEST PUSH2 0xC35 PUSH2 0x1394 JUMP JUMPDEST PUSH2 0xC3E PUSH0 PUSH2 0x141B JUMP JUMPDEST JUMP JUMPDEST PUSH0 PUSH0 SWAP1 SLOAD SWAP1 PUSH2 0x100 EXP SWAP1 DIV PUSH20 0xFFFFFFFFFFFFFFFFFFFFFFFFFFFFFFFFFFFFFFFF AND DUP2 JUMP JUMPDEST PUSH1 0x1 DUP1 PUSH0 ADD SLOAD SWAP1 DUP1 PUSH1 0x1 ADD SLOAD SWAP1 DUP1 PUSH1 0x2 ADD DUP1 SLOAD PUSH2 0xC80 SWAP1 PUSH2 0x2016 JUMP JUMPDEST DUP1 PUSH1 0x1F ADD PUSH1 0x20 DUP1 SWAP2 DIV MUL PUSH1 0x20 ADD PUSH1 0x40 MLOAD SWAP1 DUP2 ADD PUSH1 0x40 MSTORE DUP1 SWAP3 SWAP2 SWAP1 DUP2 DUP2 MSTORE PUSH1 0x20 ADD DUP3 DUP1 SLOAD PUSH2 0xCAC SWAP1 PUSH2 0x2016 JUMP JUMPDEST DUP1 ISZERO PUSH2 0xCF7 JUMPI DUP1 PUSH1 0x1F LT PUSH2 0xCCE JUMPI PUSH2 0x100 DUP1 DUP4 SLOAD DIV MUL DUP4 MSTORE SWAP2 PUSH1 0x20 ADD SWAP2 PUSH2 0xCF7 JUMP JUMPDEST DUP3 ADD SWAP2 SWAP1 PUSH0 MSTORE PUSH1 0x20 PUSH0 KECCAK256 SWAP1 JUMPDEST DUP2 SLOAD DUP2 MSTORE SWAP1 PUSH1 0x1 ADD SWAP1 PUSH1 0x20 ADD DUP1 DUP4 GT PUSH2 0xCDA JUMPI DUP3 SWAP1 SUB PUSH1 0x1F AND DUP3 ADD SWAP2 JUMPDEST POP POP POP POP POP SWAP1 POP DUP4 JUMP JUMPDEST PUSH0 PUSH0 PUSH2 0xD0B PUSH2 0x14EC JUMP JUMPDEST SWAP1 POP DUP1 PUSH0 ADD PUSH0 SWAP1 SLOAD SWAP1 PUSH2 0x100 EXP SWAP1 DIV PUSH20 0xFFFFFFFFFFFFFFFFFFFFFFFFFFFFFFFFFFFFFFFF AND SWAP2 POP POP SWAP1 JUMP JUMPDEST PUSH1 0x5 PUSH1 0x20 MSTORE DUP2 PUSH0 MSTORE PUSH1 0x40 PUSH0 KECCAK256 PUSH1 0x20 MSTORE DUP1 PUSH0 MSTORE PUSH1 0x40 PUSH0 KECCAK256 PUSH0 SWAP2 POP SWAP2 POP POP SLOAD DUP2 JUMP JUMPDEST PUSH1 0x4 PUSH1 0x20 MSTORE DUP1 PUSH0 MSTORE PUSH1 0x40 PUSH0 KECCAK256 PUSH0 SWAP2 POP SWAP1 POP SLOAD DUP2 JUMP JUMPDEST PUSH2 0xD73 PUSH2 0x1394 JUMP JUMPDEST DUP1 PUSH1 0x5 PUSH0 DUP6 PUSH20 0xFFFFFFFFFFFFFFFFFFFFFFFFFFFFFFFFFFFFFFFF AND PUSH20 0xFFFFFFFFFFFFFFFFFFFFFFFFFFFFFFFFFFFFFFFF AND DUP2 MSTORE PUSH1 0x20 ADD SWAP1 DUP2 MSTORE PUSH1 0x20 ADD PUSH0 KECCAK256 PUSH0 DUP5 PUSH20 0xFFFFFFFFFFFFFFFFFFFFFFFFFFFFFFFFFFFFFFFF AND PUSH20 0xFFFFFFFFFFFFFFFFFFFFFFFFFFFFFFFFFFFFFFFF AND DUP2 MSTORE PUSH1 0x20 ADD SWAP1 DUP2 MSTORE PUSH1 0x20 ADD PUSH0 KECCAK256 DUP2 SWAP1 SSTORE POP DUP2 PUSH20 0xFFFFFFFFFFFFFFFFFFFFFFFFFFFFFFFFFFFFFFFF AND DUP4 PUSH20 0xFFFFFFFFFFFFFFFFFFFFFFFFFFFFFFFFFFFFFFFF AND PUSH32 0x3D0601F3B0E52FD772F1FA71D91651B34B6A11144BEA30D74E0F820019A04DC2 DUP4 PUSH1 0x40 MLOAD PUSH2 0xE4D SWAP2 SWAP1 PUSH2 0x170F JUMP JUMPDEST PUSH1 0x40 MLOAD DUP1 SWAP2 SUB SWAP1 LOG3 POP POP POP JUMP JUMPDEST PUSH2 0xE62 PUSH2 0x1394 JUMP JUMPDEST DUP2 DUP4 LT PUSH2 0xEA4 JUMPI PUSH1 0x40 MLOAD PUSH32 0x8C379A000000000000000000000000000000000000000000000000000000000 DUP2 MSTORE PUSH1 0x4 ADD PUSH2 0xE9B SWAP1 PUSH2 0x20B6 JUMP JUMPDEST PUSH1 0x40 MLOAD DUP1 SWAP2 SUB SWAP1 REVERT JUMPDEST PUSH1 0x40 MLOAD DUP1 PUSH1 0x60 ADD PUSH1 0x40 MSTORE DUP1 DUP5 DUP2 MSTORE PUSH1 0x20 ADD DUP4 DUP2 MSTORE PUSH1 0x20 ADD DUP3 DUP2 MSTORE POP PUSH1 0x1 PUSH0 DUP3 ADD MLOAD DUP2 PUSH0 ADD SSTORE PUSH1 0x20 DUP3 ADD MLOAD DUP2 PUSH1 0x1 ADD SSTORE PUSH1 0x40 DUP3 ADD MLOAD DUP2 PUSH1 0x2 ADD SWAP1 DUP2 PUSH2 0xEE8 SWAP2 SWAP1 PUSH2 0x226B JUMP JUMPDEST POP SWAP1 POP POP PUSH32 0x9E6DB48F22357E6DCE2BBFF89DB8FF25F0012A08186D6EA72E2343FDC112E13 DUP4 DUP4 DUP4 PUSH1 0x40 MLOAD PUSH2 0xF1F SWAP4 SWAP3 SWAP2 SWAP1 PUSH2 0x1970 JUMP JUMPDEST PUSH1 0x40 MLOAD DUP1 SWAP2 SUB SWAP1 LOG1 POP POP POP JUMP JUMPDEST PUSH2 0xF34 PUSH2 0x1394 JUMP JUMPDEST PUSH0 PUSH20 0xFFFFFFFFFFFFFFFFFFFFFFFFFFFFFFFFFFFFFFFF AND DUP2 PUSH20 0xFFFFFFFFFFFFFFFFFFFFFFFFFFFFFFFFFFFFFFFF AND SUB PUSH2 0xFA4 JUMPI PUSH0 PUSH1 0x40 MLOAD PUSH32 0x1E4FBDF700000000000000000000000000000000000000000000000000000000 DUP2 MSTORE PUSH1 0x4 ADD PUSH2 0xF9B SWAP2 SWAP1 PUSH2 0x17CD JUMP JUMPDEST PUSH1 0x40 MLOAD DUP1 SWAP2 SUB SWAP1 REVERT JUMPDEST PUSH2 0xFAD DUP2 PUSH2 0x141B JUMP JUMPDEST POP JUMP JUMPDEST PUSH2 0xFB8 PUSH2 0x1394 JUMP JUMPDEST PUSH0 DUP2 GT PUSH2 0xFFA JUMPI PUSH1 0x40 MLOAD PUSH32 0x8C379A000000000000000000000000000000000000000000000000000000000 DUP2 MSTORE PUSH1 0x4 ADD PUSH2 0xFF1 SWAP1 PUSH2 0x23AA JUMP JUMPDEST PUSH1 0x40 MLOAD DUP1 SWAP2 SUB SWAP1 REVERT JUMPDEST DUP1 PUSH1 0x4 PUSH0 DUP5 PUSH20 0xFFFFFFFFFFFFFFFFFFFFFFFFFFFFFFFFFFFFFFFF AND PUSH20 0xFFFFFFFFFFFFFFFFFFFFFFFFFFFFFFFFFFFFFFFF AND DUP2 MSTORE PUSH1 0x20 ADD SWAP1 DUP2 MSTORE PUSH1 0x20 ADD PUSH0 KECCAK256 SLOAD LT ISZERO PUSH2 0x107A JUMPI PUSH1 0x40 MLOAD PUSH32 0x8C379A000000000000000000000000000000000000000000000000000000000 DUP2 MSTORE PUSH1 0x4 ADD PUSH2 0x1071 SWAP1 PUSH2 0x2412 JUMP JUMPDEST PUSH1 0x40 MLOAD DUP1 SWAP2 SUB SWAP1 REVERT JUMPDEST DUP1 PUSH1 0x4 PUSH0 DUP5 PUSH20 0xFFFFFFFFFFFFFFFFFFFFFFFFFFFFFFFFFFFFFFFF AND PUSH20 0xFFFFFFFFFFFFFFFFFFFFFFFFFFFFFFFFFFFFFFFF AND DUP2 MSTORE PUSH1 0x20 ADD SWAP1 DUP2 MSTORE PUSH1 0x20 ADD PUSH0 KECCAK256 PUSH0 DUP3 DUP3 SLOAD PUSH2 0x10C6 SWAP2 SWAP1 PUSH2 0x1DB2 JUMP JUMPDEST SWAP3 POP POP DUP2 SWAP1 SSTORE POP PUSH0 PUSH20 0xFFFFFFFFFFFFFFFFFFFFFFFFFFFFFFFFFFFFFFFF AND DUP3 PUSH20 0xFFFFFFFFFFFFFFFFFFFFFFFFFFFFFFFFFFFFFFFF AND SUB PUSH2 0x11B5 JUMPI PUSH0 PUSH2 0x1109 PUSH2 0xD01 JUMP JUMPDEST PUSH20 0xFFFFFFFFFFFFFFFFFFFFFFFFFFFFFFFFFFFFFFFF AND DUP3 PUSH1 0x40 MLOAD PUSH2 0x112C SWAP1 PUSH2 0x1E12 JUMP JUMPDEST PUSH0 PUSH1 0x40 MLOAD DUP1 DUP4 SUB DUP2 DUP6 DUP8 GAS CALL SWAP3 POP POP POP RETURNDATASIZE DUP1 PUSH0 DUP2 EQ PUSH2 0x1166 JUMPI PUSH1 0x40 MLOAD SWAP2 POP PUSH1 0x1F NOT PUSH1 0x3F RETURNDATASIZE ADD AND DUP3 ADD PUSH1 0x40 MSTORE RETURNDATASIZE DUP3 MSTORE RETURNDATASIZE PUSH0 PUSH1 0x20 DUP5 ADD RETURNDATACOPY PUSH2 0x116B JUMP JUMPDEST PUSH1 0x60 SWAP2 POP JUMPDEST POP POP SWAP1 POP DUP1 PUSH2 0x11AF JUMPI PUSH1 0x40 MLOAD PUSH32 0x8C379A000000000000000000000000000000000000000000000000000000000 DUP2 MSTORE PUSH1 0x4 ADD PUSH2 0x11A6 SWAP1 PUSH2 0x1E70 JUMP JUMPDEST PUSH1 0x40 MLOAD DUP1 SWAP2 SUB SWAP1 REVERT JUMPDEST POP PUSH2 0x11E8 JUMP JUMPDEST PUSH2 0x11E7 PUSH2 0x11C0 PUSH2 0xD01 JUMP JUMPDEST DUP3 DUP5 PUSH20 0xFFFFFFFFFFFFFFFFFFFFFFFFFFFFFFFFFFFFFFFF AND PUSH2 0x1258 SWAP1 SWAP3 SWAP2 SWAP1 PUSH4 0xFFFFFFFF AND JUMP JUMPDEST JUMPDEST DUP2 PUSH20 0xFFFFFFFFFFFFFFFFFFFFFFFFFFFFFFFFFFFFFFFF AND PUSH2 0x1207 PUSH2 0xD01 JUMP JUMPDEST PUSH20 0xFFFFFFFFFFFFFFFFFFFFFFFFFFFFFFFFFFFFFFFF AND PUSH32 0x9B1BFA7FA9EE420A16E124F794C35AC9F90472ACC99140EB2F6447C714CAD8EB DUP4 PUSH1 0x40 MLOAD PUSH2 0x124C SWAP2 SWAP1 PUSH2 0x170F JUMP JUMPDEST PUSH1 0x40 MLOAD DUP1 SWAP2 SUB SWAP1 LOG3 POP POP JUMP JUMPDEST PUSH2 0x12D2 DUP4 DUP5 PUSH20 0xFFFFFFFFFFFFFFFFFFFFFFFFFFFFFFFFFFFFFFFF AND PUSH4 0xA9059CBB DUP6 DUP6 PUSH1 0x40 MLOAD PUSH1 0x24 ADD PUSH2 0x128B SWAP3 SWAP2 SWAP1 PUSH2 0x2430 JUMP JUMPDEST PUSH1 0x40 MLOAD PUSH1 0x20 DUP2 DUP4 SUB SUB DUP2 MSTORE SWAP1 PUSH1 0x40 MSTORE SWAP2 POP PUSH1 0xE0 SHL PUSH1 0x20 DUP3 ADD DUP1 MLOAD PUSH28 0xFFFFFFFFFFFFFFFFFFFFFFFFFFFFFFFFFFFFFFFFFFFFFFFFFFFFFFFF DUP4 DUP2 DUP4 AND OR DUP4 MSTORE POP POP POP POP PUSH2 0x1513 JUMP JUMPDEST POP POP POP JUMP JUMPDEST PUSH2 0x1353 DUP5 DUP6 PUSH20 0xFFFFFFFFFFFFFFFFFFFFFFFFFFFFFFFFFFFFFFFF AND PUSH4 0x23B872DD DUP7 DUP7 DUP7 PUSH1 0x40 MLOAD PUSH1 0x24 ADD PUSH2 0x130C SWAP4 SWAP3 SWAP2 SWAP1 PUSH2 0x2457 JUMP JUMPDEST PUSH1 0x40 MLOAD PUSH1 0x20 DUP2 DUP4 SUB SUB DUP2 MSTORE SWAP1 PUSH1 0x40 MSTORE SWAP2 POP PUSH1 0xE0 SHL PUSH1 0x20 DUP3 ADD DUP1 MLOAD PUSH28 0xFFFFFFFFFFFFFFFFFFFFFFFFFFFFFFFFFFFFFFFFFFFFFFFFFFFFFFFF DUP4 DUP2 DUP4 AND OR DUP4 MSTORE POP POP POP POP PUSH2 0x1513 JUMP JUMPDEST POP POP POP POP JUMP JUMPDEST PUSH0 PUSH32 0xF0C57E16840DF040F15088DC2F81FE391C3923BEC73E23A9662EFC9C229C6A00 SWAP1 POP SWAP1 JUMP JUMPDEST PUSH2 0x1388 PUSH2 0x15AE JUMP JUMPDEST PUSH2 0x1391 DUP2 PUSH2 0x15EE JUMP JUMPDEST POP JUMP JUMPDEST PUSH2 0x139C PUSH2 0x1672 JUMP JUMPDEST PUSH20 0xFFFFFFFFFFFFFFFFFFFFFFFFFFFFFFFFFFFFFFFF AND PUSH2 0x13BA PUSH2 0xD01 JUMP JUMPDEST PUSH20 0xFFFFFFFFFFFFFFFFFFFFFFFFFFFFFFFFFFFFFFFF AND EQ PUSH2 0x1419 JUMPI PUSH2 0x13DD PUSH2 0x1672 JUMP JUMPDEST PUSH1 0x40 MLOAD PUSH32 0x118CDAA700000000000000000000000000000000000000000000000000000000 DUP2 MSTORE PUSH1 0x4 ADD PUSH2 0x1410 SWAP2 SWAP1 PUSH2 0x17CD JUMP JUMPDEST PUSH1 0x40 MLOAD DUP1 SWAP2 SUB SWAP1 REVERT JUMPDEST JUMP JUMPDEST PUSH0 PUSH2 0x1424 PUSH2 0x14EC JUMP JUMPDEST SWAP1 POP PUSH0 DUP2 PUSH0 ADD PUSH0 SWAP1 SLOAD SWAP1 PUSH2 0x100 EXP SWAP1 DIV PUSH20 0xFFFFFFFFFFFFFFFFFFFFFFFFFFFFFFFFFFFFFFFF AND SWAP1 POP DUP3 DUP3 PUSH0 ADD PUSH0 PUSH2 0x100 EXP DUP2 SLOAD DUP2 PUSH20 0xFFFFFFFFFFFFFFFFFFFFFFFFFFFFFFFFFFFFFFFF MUL NOT AND SWAP1 DUP4 PUSH20 0xFFFFFFFFFFFFFFFFFFFFFFFFFFFFFFFFFFFFFFFF AND MUL OR SWAP1 SSTORE POP DUP3 PUSH20 0xFFFFFFFFFFFFFFFFFFFFFFFFFFFFFFFFFFFFFFFF AND DUP2 PUSH20 0xFFFFFFFFFFFFFFFFFFFFFFFFFFFFFFFFFFFFFFFF AND PUSH32 0x8BE0079C531659141344CD1FD0A4F28419497F9722A3DAAFE3B4186F6B6457E0 PUSH1 0x40 MLOAD PUSH1 0x40 MLOAD DUP1 SWAP2 SUB SWAP1 LOG3 POP POP POP JUMP JUMPDEST PUSH0 PUSH32 0x9016D09D72D40FDAE2FD8CEAC6B6234C7706214FD39C1CD1E609A0528C199300 SWAP1 POP SWAP1 JUMP JUMPDEST PUSH0 PUSH0 PUSH1 0x20 PUSH0 DUP5 MLOAD PUSH1 0x20 DUP7 ADD PUSH0 DUP9 GAS CALL DUP1 PUSH2 0x1532 JUMPI PUSH1 0x40 MLOAD RETURNDATASIZE PUSH0 DUP3 RETURNDATACOPY RETURNDATASIZE DUP2 REVERT JUMPDEST RETURNDATASIZE SWAP3 POP PUSH0 MLOAD SWAP2 POP POP PUSH0 DUP3 EQ PUSH2 0x154B JUMPI PUSH1 0x1 DUP2 EQ ISZERO PUSH2 0x1566 JUMP JUMPDEST PUSH0 DUP5 PUSH20 0xFFFFFFFFFFFFFFFFFFFFFFFFFFFFFFFFFFFFFFFF AND EXTCODESIZE EQ JUMPDEST ISZERO PUSH2 0x15A8 JUMPI DUP4 PUSH1 0x40 MLOAD PUSH32 0x5274AFE700000000000000000000000000000000000000000000000000000000 DUP2 MSTORE PUSH1 0x4 ADD PUSH2 0x159F SWAP2 SWAP1 PUSH2 0x17CD JUMP JUMPDEST PUSH1 0x40 MLOAD DUP1 SWAP2 SUB SWAP1 REVERT JUMPDEST POP POP POP POP JUMP JUMPDEST PUSH2 0x15B6 PUSH2 0x1679 JUMP JUMPDEST PUSH2 0x15EC JUMPI PUSH1 0x40 MLOAD PUSH32 0xD7E6BCF800000000000000000000000000000000000000000000000000000000 DUP2 MSTORE PUSH1 0x4 ADD PUSH1 0x40 MLOAD DUP1 SWAP2 SUB SWAP1 REVERT JUMPDEST JUMP JUMPDEST PUSH2 0x15F6 PUSH2 0x15AE JUMP JUMPDEST PUSH0 PUSH20 0xFFFFFFFFFFFFFFFFFFFFFFFFFFFFFFFFFFFFFFFF AND DUP2 PUSH20 0xFFFFFFFFFFFFFFFFFFFFFFFFFFFFFFFFFFFFFFFF AND SUB PUSH2 0x1666 JUMPI PUSH0 PUSH1 0x40 MLOAD PUSH32 0x1E4FBDF700000000000000000000000000000000000000000000000000000000 DUP2 MSTORE PUSH1 0x4 ADD PUSH2 0x165D SWAP2 SWAP1 PUSH2 0x17CD JUMP JUMPDEST PUSH1 0x40 MLOAD DUP1 SWAP2 SUB SWAP1 REVERT JUMPDEST PUSH2 0x166F DUP2 PUSH2 0x141B JUMP JUMPDEST POP JUMP JUMPDEST PUSH0 CALLER SWAP1 POP SWAP1 JUMP JUMPDEST PUSH0 PUSH2 0x1682 PUSH2 0x1359 JUMP JUMPDEST PUSH0 ADD PUSH1 0x8 SWAP1 SLOAD SWAP1 PUSH2 0x100 EXP SWAP1 DIV PUSH1 0xFF AND SWAP1 POP SWAP1 JUMP JUMPDEST PUSH0 DUP2 SWAP1 POP SWAP2 SWAP1 POP JUMP JUMPDEST PUSH32 0x4E487B7100000000000000000000000000000000000000000000000000000000 PUSH0 MSTORE PUSH1 0x11 PUSH1 0x4 MSTORE PUSH1 0x24 PUSH0 REVERT JUMPDEST PUSH0 PUSH2 0x16D7 DUP3 PUSH2 0x1697 JUMP JUMPDEST SWAP2 POP PUSH2 0x16E2 DUP4 PUSH2 0x1697 JUMP JUMPDEST SWAP3 POP DUP3 DUP3 ADD SWAP1 POP DUP1 DUP3 GT ISZERO PUSH2 0x16FA JUMPI PUSH2 0x16F9 PUSH2 0x16A0 JUMP JUMPDEST JUMPDEST SWAP3 SWAP2 POP POP JUMP JUMPDEST PUSH2 0x1709 DUP2 PUSH2 0x1697 JUMP JUMPDEST DUP3 MSTORE POP POP JUMP JUMPDEST PUSH0 PUSH1 0x20 DUP3 ADD SWAP1 POP PUSH2 0x1722 PUSH0 DUP4 ADD DUP5 PUSH2 0x1700 JUMP JUMPDEST SWAP3 SWAP2 POP POP JUMP JUMPDEST PUSH0 PUSH1 0x40 MLOAD SWAP1 POP SWAP1 JUMP JUMPDEST PUSH0 PUSH0 REVERT JUMPDEST PUSH0 PUSH0 REVERT JUMPDEST PUSH0 PUSH20 0xFFFFFFFFFFFFFFFFFFFFFFFFFFFFFFFFFFFFFFFF DUP3 AND SWAP1 POP SWAP2 SWAP1 POP JUMP JUMPDEST PUSH0 PUSH2 0x1762 DUP3 PUSH2 0x1739 JUMP JUMPDEST SWAP1 POP SWAP2 SWAP1 POP JUMP JUMPDEST PUSH2 0x1772 DUP2 PUSH2 0x1758 JUMP JUMPDEST DUP2 EQ PUSH2 0x177C JUMPI PUSH0 PUSH0 REVERT JUMPDEST POP JUMP JUMPDEST PUSH0 DUP2 CALLDATALOAD SWAP1 POP PUSH2 0x178D DUP2 PUSH2 0x1769 JUMP JUMPDEST SWAP3 SWAP2 POP POP JUMP JUMPDEST PUSH0 PUSH1 0x20 DUP3 DUP5 SUB SLT ISZERO PUSH2 0x17A8 JUMPI PUSH2 0x17A7 PUSH2 0x1731 JUMP JUMPDEST JUMPDEST PUSH0 PUSH2 0x17B5 DUP5 DUP3 DUP6 ADD PUSH2 0x177F JUMP JUMPDEST SWAP2 POP POP SWAP3 SWAP2 POP POP JUMP JUMPDEST PUSH2 0x17C7 DUP2 PUSH2 0x1758 JUMP JUMPDEST DUP3 MSTORE POP POP JUMP JUMPDEST PUSH0 PUSH1 0x20 DUP3 ADD SWAP1 POP PUSH2 0x17E0 PUSH0 DUP4 ADD DUP5 PUSH2 0x17BE JUMP JUMPDEST SWAP3 SWAP2 POP POP JUMP JUMPDEST PUSH2 0x17EF DUP2 PUSH2 0x1697 JUMP JUMPDEST DUP2 EQ PUSH2 0x17F9 JUMPI PUSH0 PUSH0 REVERT JUMPDEST POP JUMP JUMPDEST PUSH0 DUP2 CALLDATALOAD SWAP1 POP PUSH2 0x180A DUP2 PUSH2 0x17E6 JUMP JUMPDEST SWAP3 SWAP2 POP POP JUMP JUMPDEST PUSH0 PUSH0 PUSH1 0x40 DUP4 DUP6 SUB SLT ISZERO PUSH2 0x1826 JUMPI PUSH2 0x1825 PUSH2 0x1731 JUMP JUMPDEST JUMPDEST PUSH0 PUSH2 0x1833 DUP6 DUP3 DUP7 ADD PUSH2 0x177F JUMP JUMPDEST SWAP3 POP POP PUSH1 0x20 PUSH2 0x1844 DUP6 DUP3 DUP7 ADD PUSH2 0x17FC JUMP JUMPDEST SWAP2 POP POP SWAP3 POP SWAP3 SWAP1 POP JUMP JUMPDEST PUSH0 PUSH0 PUSH1 0x40 DUP4 DUP6 SUB SLT ISZERO PUSH2 0x1864 JUMPI PUSH2 0x1863 PUSH2 0x1731 JUMP JUMPDEST JUMPDEST PUSH0 PUSH2 0x1871 DUP6 DUP3 DUP7 ADD PUSH2 0x177F JUMP JUMPDEST SWAP3 POP POP PUSH1 0x20 PUSH2 0x1882 DUP6 DUP3 DUP7 ADD PUSH2 0x177F JUMP JUMPDEST SWAP2 POP POP SWAP3 POP SWAP3 SWAP1 POP JUMP JUMPDEST PUSH0 DUP2 SWAP1 POP SWAP2 SWAP1 POP JUMP JUMPDEST PUSH0 PUSH2 0x18AF PUSH2 0x18AA PUSH2 0x18A5 DUP5 PUSH2 0x1739 JUMP JUMPDEST PUSH2 0x188C JUMP JUMPDEST PUSH2 0x1739 JUMP JUMPDEST SWAP1 POP SWAP2 SWAP1 POP JUMP JUMPDEST PUSH0 PUSH2 0x18C0 DUP3 PUSH2 0x1895 JUMP JUMPDEST SWAP1 POP SWAP2 SWAP1 POP JUMP JUMPDEST PUSH0 PUSH2 0x18D1 DUP3 PUSH2 0x18B6 JUMP JUMPDEST SWAP1 POP SWAP2 SWAP1 POP JUMP JUMPDEST PUSH2 0x18E1 DUP2 PUSH2 0x18C7 JUMP JUMPDEST DUP3 MSTORE POP POP JUMP JUMPDEST PUSH0 PUSH1 0x20 DUP3 ADD SWAP1 POP PUSH2 0x18FA PUSH0 DUP4 ADD DUP5 PUSH2 0x18D8 JUMP JUMPDEST SWAP3 SWAP2 POP POP JUMP JUMPDEST PUSH0 DUP2 MLOAD SWAP1 POP SWAP2 SWAP1 POP JUMP JUMPDEST PUSH0 DUP3 DUP3 MSTORE PUSH1 0x20 DUP3 ADD SWAP1 POP SWAP3 SWAP2 POP POP JUMP JUMPDEST DUP3 DUP2 DUP4 MCOPY PUSH0 DUP4 DUP4 ADD MSTORE POP POP POP JUMP JUMPDEST PUSH0 PUSH1 0x1F NOT PUSH1 0x1F DUP4 ADD AND SWAP1 POP SWAP2 SWAP1 POP JUMP JUMPDEST PUSH0 PUSH2 0x1942 DUP3 PUSH2 0x1900 JUMP JUMPDEST PUSH2 0x194C DUP2 DUP6 PUSH2 0x190A JUMP JUMPDEST SWAP4 POP PUSH2 0x195C DUP2 DUP6 PUSH1 0x20 DUP7 ADD PUSH2 0x191A JUMP JUMPDEST PUSH2 0x1965 DUP2 PUSH2 0x1928 JUMP JUMPDEST DUP5 ADD SWAP2 POP POP SWAP3 SWAP2 POP POP JUMP JUMPDEST PUSH0 PUSH1 0x60 DUP3 ADD SWAP1 POP PUSH2 0x1983 PUSH0 DUP4 ADD DUP7 PUSH2 0x1700 JUMP JUMPDEST PUSH2 0x1990 PUSH1 0x20 DUP4 ADD DUP6 PUSH2 0x1700 JUMP JUMPDEST DUP2 DUP2 SUB PUSH1 0x40 DUP4 ADD MSTORE PUSH2 0x19A2 DUP2 DUP5 PUSH2 0x1938 JUMP JUMPDEST SWAP1 POP SWAP5 SWAP4 POP POP POP POP JUMP JUMPDEST PUSH0 PUSH0 PUSH0 PUSH1 0x60 DUP5 DUP7 SUB SLT ISZERO PUSH2 0x19C3 JUMPI PUSH2 0x19C2 PUSH2 0x1731 JUMP JUMPDEST JUMPDEST PUSH0 PUSH2 0x19D0 DUP7 DUP3 DUP8 ADD PUSH2 0x177F JUMP JUMPDEST SWAP4 POP POP PUSH1 0x20 PUSH2 0x19E1 DUP7 DUP3 DUP8 ADD PUSH2 0x177F JUMP JUMPDEST SWAP3 POP POP PUSH1 0x40 PUSH2 0x19F2 DUP7 DUP3 DUP8 ADD PUSH2 0x17FC JUMP JUMPDEST SWAP2 POP POP SWAP3 POP SWAP3 POP SWAP3 JUMP JUMPDEST PUSH0 PUSH0 REVERT JUMPDEST PUSH0 PUSH0 REVERT JUMPDEST PUSH32 0x4E487B7100000000000000000000000000000000000000000000000000000000 PUSH0 MSTORE PUSH1 0x41 PUSH1 0x4 MSTORE PUSH1 0x24 PUSH0 REVERT JUMPDEST PUSH2 0x1A3A DUP3 PUSH2 0x1928 JUMP JUMPDEST DUP2 ADD DUP2 DUP2 LT PUSH8 0xFFFFFFFFFFFFFFFF DUP3 GT OR ISZERO PUSH2 0x1A59 JUMPI PUSH2 0x1A58 PUSH2 0x1A04 JUMP JUMPDEST JUMPDEST DUP1 PUSH1 0x40 MSTORE POP POP POP JUMP JUMPDEST PUSH0 PUSH2 0x1A6B PUSH2 0x1728 JUMP JUMPDEST SWAP1 POP PUSH2 0x1A77 DUP3 DUP3 PUSH2 0x1A31 JUMP JUMPDEST SWAP2 SWAP1 POP JUMP JUMPDEST PUSH0 PUSH8 0xFFFFFFFFFFFFFFFF DUP3 GT ISZERO PUSH2 0x1A96 JUMPI PUSH2 0x1A95 PUSH2 0x1A04 JUMP JUMPDEST JUMPDEST PUSH2 0x1A9F DUP3 PUSH2 0x1928 JUMP JUMPDEST SWAP1 POP PUSH1 0x20 DUP2 ADD SWAP1 POP SWAP2 SWAP1 POP JUMP JUMPDEST DUP3 DUP2 DUP4 CALLDATACOPY PUSH0 DUP4 DUP4 ADD MSTORE POP POP POP JUMP JUMPDEST PUSH0 PUSH2 0x1ACC PUSH2 0x1AC7 DUP5 PUSH2 0x1A7C JUMP JUMPDEST PUSH2 0x1A62 JUMP JUMPDEST SWAP1 POP DUP3 DUP2 MSTORE PUSH1 0x20 DUP2 ADD DUP5 DUP5 DUP5 ADD GT ISZERO PUSH2 0x1AE8 JUMPI PUSH2 0x1AE7 PUSH2 0x1A00 JUMP JUMPDEST JUMPDEST PUSH2 0x1AF3 DUP5 DUP3 DUP6 PUSH2 0x1AAC JUMP JUMPDEST POP SWAP4 SWAP3 POP POP POP JUMP JUMPDEST PUSH0 DUP3 PUSH1 0x1F DUP4 ADD SLT PUSH2 0x1B0F JUMPI PUSH2 0x1B0E PUSH2 0x19FC JUMP JUMPDEST JUMPDEST DUP2 CALLDATALOAD PUSH2 0x1B1F DUP5 DUP3 PUSH1 0x20 DUP7 ADD PUSH2 0x1ABA JUMP JUMPDEST SWAP2 POP POP SWAP3 SWAP2 POP POP JUMP JUMPDEST PUSH0 PUSH0 PUSH0 PUSH1 0x60 DUP5 DUP7 SUB SLT ISZERO PUSH2 0x1B3F JUMPI PUSH2 0x1B3E PUSH2 0x1731 JUMP JUMPDEST JUMPDEST PUSH0 PUSH2 0x1B4C DUP7 DUP3 DUP8 ADD PUSH2 0x17FC JUMP JUMPDEST SWAP4 POP POP PUSH1 0x20 PUSH2 0x1B5D DUP7 DUP3 DUP8 ADD PUSH2 0x17FC JUMP JUMPDEST SWAP3 POP POP PUSH1 0x40 DUP5 ADD CALLDATALOAD PUSH8 0xFFFFFFFFFFFFFFFF DUP2 GT ISZERO PUSH2 0x1B7E JUMPI PUSH2 0x1B7D PUSH2 0x1735 JUMP JUMPDEST JUMPDEST PUSH2 0x1B8A DUP7 DUP3 DUP8 ADD PUSH2 0x1AFB JUMP JUMPDEST SWAP2 POP POP SWAP3 POP SWAP3 POP SWAP3 JUMP JUMPDEST PUSH32 0x4E6F742077697468696E20726F756E64206475726174696F6E00000000000000 PUSH0 DUP3 ADD MSTORE POP JUMP JUMPDEST PUSH0 PUSH2 0x1BC8 PUSH1 0x19 DUP4 PUSH2 0x190A JUMP JUMPDEST SWAP2 POP PUSH2 0x1BD3 DUP3 PUSH2 0x1B94 JUMP JUMPDEST PUSH1 0x20 DUP3 ADD SWAP1 POP SWAP2 SWAP1 POP JUMP JUMPDEST PUSH0 PUSH1 0x20 DUP3 ADD SWAP1 POP DUP2 DUP2 SUB PUSH0 DUP4 ADD MSTORE PUSH2 0x1BF5 DUP2 PUSH2 0x1BBC JUMP JUMPDEST SWAP1 POP SWAP2 SWAP1 POP JUMP JUMPDEST PUSH32 0x4E6F20636C61696D61626C6520616D6F756E7400000000000000000000000000 PUSH0 DUP3 ADD MSTORE POP JUMP JUMPDEST PUSH0 PUSH2 0x1C30 PUSH1 0x13 DUP4 PUSH2 0x190A JUMP JUMPDEST SWAP2 POP PUSH2 0x1C3B DUP3 PUSH2 0x1BFC JUMP JUMPDEST PUSH1 0x20 DUP3 ADD SWAP1 POP SWAP2 SWAP1 POP JUMP JUMPDEST PUSH0 PUSH1 0x20 DUP3 ADD SWAP1 POP DUP2 DUP2 SUB PUSH0 DUP4 ADD MSTORE PUSH2 0x1C5D DUP2 PUSH2 0x1C24 JUMP JUMPDEST SWAP1 POP SWAP2 SWAP1 POP JUMP JUMPDEST PUSH32 0x496E73756666696369656E742066756E647320696E206A617200000000000000 PUSH0 DUP3 ADD MSTORE POP JUMP JUMPDEST PUSH0 PUSH2 0x1C98 PUSH1 0x19 DUP4 PUSH2 0x190A JUMP JUMPDEST SWAP2 POP PUSH2 0x1CA3 DUP3 PUSH2 0x1C64 JUMP JUMPDEST PUSH1 0x20 DUP3 ADD SWAP1 POP SWAP2 SWAP1 POP JUMP JUMPDEST PUSH0 PUSH1 0x20 DUP3 ADD SWAP1 POP DUP2 DUP2 SUB PUSH0 DUP4 ADD MSTORE PUSH2 0x1CC5 DUP2 PUSH2 0x1C8C JUMP JUMPDEST SWAP1 POP SWAP2 SWAP1 POP JUMP JUMPDEST PUSH0 DUP2 SWAP1 POP SWAP2 SWAP1 POP JUMP JUMPDEST PUSH2 0x1CDE DUP2 PUSH2 0x1CCC JUMP JUMPDEST DUP3 MSTORE POP POP JUMP JUMPDEST PUSH0 PUSH1 0x40 DUP3 ADD SWAP1 POP PUSH2 0x1CF7 PUSH0 DUP4 ADD DUP6 PUSH2 0x17BE JUMP JUMPDEST PUSH2 0x1D04 PUSH1 0x20 DUP4 ADD DUP5 PUSH2 0x1CD5 JUMP JUMPDEST SWAP4 SWAP3 POP POP POP JUMP JUMPDEST PUSH0 DUP2 MLOAD SWAP1 POP PUSH2 0x1D19 DUP2 PUSH2 0x17E6 JUMP JUMPDEST SWAP3 SWAP2 POP POP JUMP JUMPDEST PUSH0 PUSH1 0x20 DUP3 DUP5 SUB SLT ISZERO PUSH2 0x1D34 JUMPI PUSH2 0x1D33 PUSH2 0x1731 JUMP JUMPDEST JUMPDEST PUSH0 PUSH2 0x1D41 DUP5 DUP3 DUP6 ADD PUSH2 0x1D0B JUMP JUMPDEST SWAP2 POP POP SWAP3 SWAP2 POP POP JUMP JUMPDEST PUSH32 0x496E73756666696369656E742054727573742073636F72650000000000000000 PUSH0 DUP3 ADD MSTORE POP JUMP JUMPDEST PUSH0 PUSH2 0x1D7E PUSH1 0x18 DUP4 PUSH2 0x190A JUMP JUMPDEST SWAP2 POP PUSH2 0x1D89 DUP3 PUSH2 0x1D4A JUMP JUMPDEST PUSH1 0x20 DUP3 ADD SWAP1 POP SWAP2 SWAP1 POP JUMP JUMPDEST PUSH0 PUSH1 0x20 DUP3 ADD SWAP1 POP DUP2 DUP2 SUB PUSH0 DUP4 ADD MSTORE PUSH2 0x1DAB DUP2 PUSH2 0x1D72 JUMP JUMPDEST SWAP1 POP SWAP2 SWAP1 POP JUMP JUMPDEST PUSH0 PUSH2 0x1DBC DUP3 PUSH2 0x1697 JUMP JUMPDEST SWAP2 POP PUSH2 0x1DC7 DUP4 PUSH2 0x1697 JUMP JUMPDEST SWAP3 POP DUP3 DUP3 SUB SWAP1 POP DUP2 DUP2 GT ISZERO PUSH2 0x1DDF JUMPI PUSH2 0x1DDE PUSH2 0x16A0 JUMP JUMPDEST JUMPDEST SWAP3 SWAP2 POP POP JUMP JUMPDEST PUSH0 DUP2 SWAP1 POP SWAP3 SWAP2 POP POP JUMP JUMPDEST POP JUMP JUMPDEST PUSH0 PUSH2 0x1DFD PUSH0 DUP4 PUSH2 0x1DE5 JUMP JUMPDEST SWAP2 POP PUSH2 0x1E08 DUP3 PUSH2 0x1DEF JUMP JUMPDEST PUSH0 DUP3 ADD SWAP1 POP SWAP2 SWAP1 POP JUMP JUMPDEST PUSH0 PUSH2 0x1E1C DUP3 PUSH2 0x1DF2 JUMP JUMPDEST SWAP2 POP DUP2 SWAP1 POP SWAP2 SWAP1 POP JUMP JUMPDEST PUSH32 0x4574686572207472616E73666572206661696C65640000000000000000000000 PUSH0 DUP3 ADD MSTORE POP JUMP JUMPDEST PUSH0 PUSH2 0x1E5A PUSH1 0x15 DUP4 PUSH2 0x190A JUMP JUMPDEST SWAP2 POP PUSH2 0x1E65 DUP3 PUSH2 0x1E26 JUMP JUMPDEST PUSH1 0x20 DUP3 ADD SWAP1 POP SWAP2 SWAP1 POP JUMP JUMPDEST PUSH0 PUSH1 0x20 DUP3 ADD SWAP1 POP DUP2 DUP2 SUB PUSH0 DUP4 ADD MSTORE PUSH2 0x1E87 DUP2 PUSH2 0x1E4E JUMP JUMPDEST SWAP1 POP SWAP2 SWAP1 POP JUMP JUMPDEST PUSH32 0x496E636F727265637420457468657220616D6F756E7400000000000000000000 PUSH0 DUP3 ADD MSTORE POP JUMP JUMPDEST PUSH0 PUSH2 0x1EC2 PUSH1 0x16 DUP4 PUSH2 0x190A JUMP JUMPDEST SWAP2 POP PUSH2 0x1ECD DUP3 PUSH2 0x1E8E JUMP JUMPDEST PUSH1 0x20 DUP3 ADD SWAP1 POP SWAP2 SWAP1 POP JUMP JUMPDEST PUSH0 PUSH1 0x20 DUP3 ADD SWAP1 POP DUP2 DUP2 SUB PUSH0 DUP4 ADD MSTORE PUSH2 0x1EEF DUP2 PUSH2 0x1EB6 JUMP JUMPDEST SWAP1 POP SWAP2 SWAP1 POP JUMP JUMPDEST PUSH32 0x4465706F73697420616D6F756E74206D75737420626520677265617465722074 PUSH0 DUP3 ADD MSTORE PUSH32 0x68616E207A65726F000000000000000000000000000000000000000000000000 PUSH1 0x20 DUP3 ADD MSTORE POP JUMP JUMPDEST PUSH0 PUSH2 0x1F50 PUSH1 0x28 DUP4 PUSH2 0x190A JUMP JUMPDEST SWAP2 POP PUSH2 0x1F5B DUP3 PUSH2 0x1EF6 JUMP JUMPDEST PUSH1 0x40 DUP3 ADD SWAP1 POP SWAP2 SWAP1 POP JUMP JUMPDEST PUSH0 PUSH1 0x20 DUP3 ADD SWAP1 POP DUP2 DUP2 SUB PUSH0 DUP4 ADD MSTORE PUSH2 0x1F7D DUP2 PUSH2 0x1F44 JUMP JUMPDEST SWAP1 POP SWAP2 SWAP1 POP JUMP JUMPDEST PUSH0 DUP2 SWAP1 POP SWAP2 SWAP1 POP JUMP JUMPDEST PUSH0 PUSH8 0xFFFFFFFFFFFFFFFF DUP3 AND SWAP1 POP SWAP2 SWAP1 POP JUMP JUMPDEST PUSH0 PUSH2 0x1FBA PUSH2 0x1FB5 PUSH2 0x1FB0 DUP5 PUSH2 0x1F84 JUMP JUMPDEST PUSH2 0x188C JUMP JUMPDEST PUSH2 0x1F8D JUMP JUMPDEST SWAP1 POP SWAP2 SWAP1 POP JUMP JUMPDEST PUSH2 0x1FCA DUP2 PUSH2 0x1FA0 JUMP JUMPDEST DUP3 MSTORE POP POP JUMP JUMPDEST PUSH0 PUSH1 0x20 DUP3 ADD SWAP1 POP PUSH2 0x1FE3 PUSH0 DUP4 ADD DUP5 PUSH2 0x1FC1 JUMP JUMPDEST SWAP3 SWAP2 POP POP JUMP JUMPDEST PUSH32 0x4E487B7100000000000000000000000000000000000000000000000000000000 PUSH0 MSTORE PUSH1 0x22 PUSH1 0x4 MSTORE PUSH1 0x24 PUSH0 REVERT JUMPDEST PUSH0 PUSH1 0x2 DUP3 DIV SWAP1 POP PUSH1 0x1 DUP3 AND DUP1 PUSH2 0x202D JUMPI PUSH1 0x7F DUP3 AND SWAP2 POP JUMPDEST PUSH1 0x20 DUP3 LT DUP2 SUB PUSH2 0x2040 JUMPI PUSH2 0x203F PUSH2 0x1FE9 JUMP JUMPDEST JUMPDEST POP SWAP2 SWAP1 POP JUMP JUMPDEST PUSH32 0x53746172742074696D65206D757374206265206265666F726520656E64207469 PUSH0 DUP3 ADD MSTORE PUSH32 0x6D65000000000000000000000000000000000000000000000000000000000000 PUSH1 0x20 DUP3 ADD MSTORE POP JUMP JUMPDEST PUSH0 PUSH2 0x20A0 PUSH1 0x22 DUP4 PUSH2 0x190A JUMP JUMPDEST SWAP2 POP PUSH2 0x20AB DUP3 PUSH2 0x2046 JUMP JUMPDEST PUSH1 0x40 DUP3 ADD SWAP1 POP SWAP2 SWAP1 POP JUMP JUMPDEST PUSH0 PUSH1 0x20 DUP3 ADD SWAP1 POP DUP2 DUP2 SUB PUSH0 DUP4 ADD MSTORE PUSH2 0x20CD DUP2 PUSH2 0x2094 JUMP JUMPDEST SWAP1 POP SWAP2 SWAP1 POP JUMP JUMPDEST PUSH0 DUP2 SWAP1 POP DUP2 PUSH0 MSTORE PUSH1 0x20 PUSH0 KECCAK256 SWAP1 POP SWAP2 SWAP1 POP JUMP JUMPDEST PUSH0 PUSH1 0x20 PUSH1 0x1F DUP4 ADD DIV SWAP1 POP SWAP2 SWAP1 POP JUMP JUMPDEST PUSH0 DUP3 DUP3 SHL SWAP1 POP SWAP3 SWAP2 POP POP JUMP JUMPDEST PUSH0 PUSH1 0x8 DUP4 MUL PUSH2 0x2130 PUSH32 0xFFFFFFFFFFFFFFFFFFFFFFFFFFFFFFFFFFFFFFFFFFFFFFFFFFFFFFFFFFFFFFFF DUP3 PUSH2 0x20F5 JUMP JUMPDEST PUSH2 0x213A DUP7 DUP4 PUSH2 0x20F5 JUMP JUMPDEST SWAP6 POP DUP1 NOT DUP5 AND SWAP4 POP DUP1 DUP7 AND DUP5 OR SWAP3 POP POP POP SWAP4 SWAP3 POP POP POP JUMP JUMPDEST PUSH0 PUSH2 0x216C PUSH2 0x2167 PUSH2 0x2162 DUP5 PUSH2 0x1697 JUMP JUMPDEST PUSH2 0x188C JUMP JUMPDEST PUSH2 0x1697 JUMP JUMPDEST SWAP1 POP SWAP2 SWAP1 POP JUMP JUMPDEST PUSH0 DUP2 SWAP1 POP SWAP2 SWAP1 POP JUMP JUMPDEST PUSH2 0x2185 DUP4 PUSH2 0x2152 JUMP JUMPDEST PUSH2 0x2199 PUSH2 0x2191 DUP3 PUSH2 0x2173 JUMP JUMPDEST DUP5 DUP5 SLOAD PUSH2 0x2101 JUMP JUMPDEST DUP3 SSTORE POP POP POP POP JUMP JUMPDEST PUSH0 PUSH0 SWAP1 POP SWAP1 JUMP JUMPDEST PUSH2 0x21B0 PUSH2 0x21A1 JUMP JUMPDEST PUSH2 0x21BB DUP2 DUP5 DUP5 PUSH2 0x217C JUMP JUMPDEST POP POP POP JUMP JUMPDEST JUMPDEST DUP2 DUP2 LT ISZERO PUSH2 0x21DE JUMPI PUSH2 0x21D3 PUSH0 DUP3 PUSH2 0x21A8 JUMP JUMPDEST PUSH1 0x1 DUP2 ADD SWAP1 POP PUSH2 0x21C1 JUMP JUMPDEST POP POP JUMP JUMPDEST PUSH1 0x1F DUP3 GT ISZERO PUSH2 0x2223 JUMPI PUSH2 0x21F4 DUP2 PUSH2 0x20D4 JUMP JUMPDEST PUSH2 0x21FD DUP5 PUSH2 0x20E6 JUMP JUMPDEST DUP2 ADD PUSH1 0x20 DUP6 LT ISZERO PUSH2 0x220C JUMPI DUP2 SWAP1 POP JUMPDEST PUSH2 0x2220 PUSH2 0x2218 DUP6 PUSH2 0x20E6 JUMP JUMPDEST DUP4 ADD DUP3 PUSH2 0x21C0 JUMP JUMPDEST POP POP JUMPDEST POP POP POP JUMP JUMPDEST PUSH0 DUP3 DUP3 SHR SWAP1 POP SWAP3 SWAP2 POP POP JUMP JUMPDEST PUSH0 PUSH2 0x2243 PUSH0 NOT DUP5 PUSH1 0x8 MUL PUSH2 0x2228 JUMP JUMPDEST NOT DUP1 DUP4 AND SWAP2 POP POP SWAP3 SWAP2 POP POP JUMP JUMPDEST PUSH0 PUSH2 0x225B DUP4 DUP4 PUSH2 0x2234 JUMP JUMPDEST SWAP2 POP DUP3 PUSH1 0x2 MUL DUP3 OR SWAP1 POP SWAP3 SWAP2 POP POP JUMP JUMPDEST PUSH2 0x2274 DUP3 PUSH2 0x1900 JUMP JUMPDEST PUSH8 0xFFFFFFFFFFFFFFFF DUP2 GT ISZERO PUSH2 0x228D JUMPI PUSH2 0x228C PUSH2 0x1A04 JUMP JUMPDEST JUMPDEST PUSH2 0x2297 DUP3 SLOAD PUSH2 0x2016 JUMP JUMPDEST PUSH2 0x22A2 DUP3 DUP3 DUP6 PUSH2 0x21E2 JUMP JUMPDEST PUSH0 PUSH1 0x20 SWAP1 POP PUSH1 0x1F DUP4 GT PUSH1 0x1 DUP2 EQ PUSH2 0x22D3 JUMPI PUSH0 DUP5 ISZERO PUSH2 0x22C1 JUMPI DUP3 DUP8 ADD MLOAD SWAP1 POP JUMPDEST PUSH2 0x22CB DUP6 DUP3 PUSH2 0x2250 JUMP JUMPDEST DUP7 SSTORE POP PUSH2 0x2332 JUMP JUMPDEST PUSH1 0x1F NOT DUP5 AND PUSH2 0x22E1 DUP7 PUSH2 0x20D4 JUMP JUMPDEST PUSH0 JUMPDEST DUP3 DUP2 LT ISZERO PUSH2 0x2308 JUMPI DUP5 DUP10 ADD MLOAD DUP3 SSTORE PUSH1 0x1 DUP3 ADD SWAP2 POP PUSH1 0x20 DUP6 ADD SWAP5 POP PUSH1 0x20 DUP2 ADD SWAP1 POP PUSH2 0x22E3 JUMP JUMPDEST DUP7 DUP4 LT ISZERO PUSH2 0x2325 JUMPI DUP5 DUP10 ADD MLOAD PUSH2 0x2321 PUSH1 0x1F DUP10 AND DUP3 PUSH2 0x2234 JUMP JUMPDEST DUP4 SSTORE POP JUMPDEST PUSH1 0x1 PUSH1 0x2 DUP9 MUL ADD DUP9 SSTORE POP POP POP JUMPDEST POP POP POP POP POP POP JUMP JUMPDEST PUSH32 0x5769746864726177616C20616D6F756E74206D75737420626520677265617465 PUSH0 DUP3 ADD MSTORE PUSH32 0x72207468616E207A65726F000000000000000000000000000000000000000000 PUSH1 0x20 DUP3 ADD MSTORE POP JUMP JUMPDEST PUSH0 PUSH2 0x2394 PUSH1 0x2B DUP4 PUSH2 0x190A JUMP JUMPDEST SWAP2 POP PUSH2 0x239F DUP3 PUSH2 0x233A JUMP JUMPDEST PUSH1 0x40 DUP3 ADD SWAP1 POP SWAP2 SWAP1 POP JUMP JUMPDEST PUSH0 PUSH1 0x20 DUP3 ADD SWAP1 POP DUP2 DUP2 SUB PUSH0 DUP4 ADD MSTORE PUSH2 0x23C1 DUP2 PUSH2 0x2388 JUMP JUMPDEST SWAP1 POP SWAP2 SWAP1 POP JUMP JUMPDEST PUSH32 0x496E73756666696369656E742066756E64730000000000000000000000000000 PUSH0 DUP3 ADD MSTORE POP JUMP JUMPDEST PUSH0 PUSH2 0x23FC PUSH1 0x12 DUP4 PUSH2 0x190A JUMP JUMPDEST SWAP2 POP PUSH2 0x2407 DUP3 PUSH2 0x23C8 JUMP JUMPDEST PUSH1 0x20 DUP3 ADD SWAP1 POP SWAP2 SWAP1 POP JUMP JUMPDEST PUSH0 PUSH1 0x20 DUP3 ADD SWAP1 POP DUP2 DUP2 SUB PUSH0 DUP4 ADD MSTORE PUSH2 0x2429 DUP2 PUSH2 0x23F0 JUMP JUMPDEST SWAP1 POP SWAP2 SWAP1 POP JUMP JUMPDEST PUSH0 PUSH1 0x40 DUP3 ADD SWAP1 POP PUSH2 0x2443 PUSH0 DUP4 ADD DUP6 PUSH2 0x17BE JUMP JUMPDEST PUSH2 0x2450 PUSH1 0x20 DUP4 ADD DUP5 PUSH2 0x1700 JUMP JUMPDEST SWAP4 SWAP3 POP POP POP JUMP JUMPDEST PUSH0 PUSH1 0x60 DUP3 ADD SWAP1 POP PUSH2 0x246A PUSH0 DUP4 ADD DUP7 PUSH2 0x17BE JUMP JUMPDEST PUSH2 0x2477 PUSH1 0x20 DUP4 ADD DUP6 PUSH2 0x17BE JUMP JUMPDEST PUSH2 0x2484 PUSH1 0x40 DUP4 ADD DUP5 PUSH2 0x1700 JUMP JUMPDEST SWAP5 SWAP4 POP POP POP POP JUMP INVALID LOG2 PUSH5 0x6970667358 0x22 SLT KECCAK256 0x24 0xE3 MLOAD PUSH28 0x87C161F501A8357A9651F0890B168285D910A9F32225E2A049DDC179 PUSH5 0x736F6C6343 STOP ADDMOD SHR STOP CALLER "
				},
				"gasEstimates": {
					"creation": {
						"codeDepositCost": "1882000",
						"executionCost": "1988",
						"totalCost": "1883988"
					},
					"external": {
						"ETHER()": "418",
						"allowedAmounts(address,address)": "infinite",
						"claim(address)": "infinite",
						"currentRound()": "infinite",
						"deposit(address,uint256)": "infinite",
						"initialize(address,address)": "infinite",
						"owner()": "2589",
						"renounceOwnership()": "infinite",
						"scorer()": "infinite",
						"setAllowedAmount(address,address,uint256)": "infinite",
						"setRound(uint256,uint256,string)": "infinite",
						"totalBalances(address)": "2869",
						"transferOwnership(address)": "infinite",
						"withdraw(address,uint256)": "infinite"
					}
				},
				"methodIdentifiers": {
					"ETHER()": "42cb1fbc",
					"allowedAmounts(address,address)": "a9590e8a",
					"claim(address)": "1e83409a",
					"currentRound()": "8a19c8bc",
					"deposit(address,uint256)": "47e7ef24",
					"initialize(address,address)": "485cc955",
					"owner()": "8da5cb5b",
					"renounceOwnership()": "715018a6",
					"scorer()": "85c758f7",
					"setAllowedAmount(address,address,uint256)": "b807a3c4",
					"setRound(uint256,uint256,string)": "be9a7687",
					"totalBalances(address)": "aee9c872",
					"transferOwnership(address)": "f2fde38b",
					"withdraw(address,uint256)": "f3fef3a3"
				}
			},
			"storageLayout": {
				"storage": [
					{
						"astId": 1389,
						"contract": "contracts/cookie-jar.sol:nCookieJar",
						"label": "scorer",
						"offset": 0,
						"slot": "0",
						"type": "t_contract(IScorer)1808"
					},
					{
						"astId": 1399,
						"contract": "contracts/cookie-jar.sol:nCookieJar",
						"label": "currentRound",
						"offset": 0,
						"slot": "1",
						"type": "t_struct(Round)1396_storage"
					},
					{
						"astId": 1403,
						"contract": "contracts/cookie-jar.sol:nCookieJar",
						"label": "totalBalances",
						"offset": 0,
						"slot": "4",
						"type": "t_mapping(t_address,t_uint256)"
					},
					{
						"astId": 1409,
						"contract": "contracts/cookie-jar.sol:nCookieJar",
						"label": "allowedAmounts",
						"offset": 0,
						"slot": "5",
						"type": "t_mapping(t_address,t_mapping(t_address,t_uint256))"
					}
				],
				"types": {
					"t_address": {
						"encoding": "inplace",
						"label": "address",
						"numberOfBytes": "20"
					},
					"t_contract(IScorer)1808": {
						"encoding": "inplace",
						"label": "contract IScorer",
						"numberOfBytes": "20"
					},
					"t_mapping(t_address,t_mapping(t_address,t_uint256))": {
						"encoding": "mapping",
						"key": "t_address",
						"label": "mapping(address => mapping(address => uint256))",
						"numberOfBytes": "32",
						"value": "t_mapping(t_address,t_uint256)"
					},
					"t_mapping(t_address,t_uint256)": {
						"encoding": "mapping",
						"key": "t_address",
						"label": "mapping(address => uint256)",
						"numberOfBytes": "32",
						"value": "t_uint256"
					},
					"t_string_storage": {
						"encoding": "bytes",
						"label": "string",
						"numberOfBytes": "32"
					},
					"t_struct(Round)1396_storage": {
						"encoding": "inplace",
						"label": "struct nCookieJar.Round",
						"members": [
							{
								"astId": 1391,
								"contract": "contracts/cookie-jar.sol:nCookieJar",
								"label": "start",
								"offset": 0,
								"slot": "0",
								"type": "t_uint256"
							},
							{
								"astId": 1393,
								"contract": "contracts/cookie-jar.sol:nCookieJar",
								"label": "end",
								"offset": 0,
								"slot": "1",
								"type": "t_uint256"
							},
							{
								"astId": 1395,
								"contract": "contracts/cookie-jar.sol:nCookieJar",
								"label": "metadataURI",
								"offset": 0,
								"slot": "2",
								"type": "t_string_storage"
							}
						],
						"numberOfBytes": "96"
					},
					"t_uint256": {
						"encoding": "inplace",
						"label": "uint256",
						"numberOfBytes": "32"
					}
				}
			},
			"userdoc": {
				"kind": "user",
				"methods": {
					"claim(address)": {
						"notice": "Claims the full allowed amount for a user during the round."
					},
					"deposit(address,uint256)": {
						"notice": "Deposits funds into this jar for a specific token or Ether."
					},
					"initialize(address,address)": {
						"notice": "Initializes this contract with its initial state."
					},
					"setAllowedAmount(address,address,uint256)": {
						"notice": "Sets the allowed amount for a specific user and token."
					},
					"setRound(uint256,uint256,string)": {
						"notice": "Sets the round duration and metadata URI."
					},
					"withdraw(address,uint256)": {
						"notice": "Withdraws funds from the jar for a specific token or Ether."
					}
				},
				"version": 1
			}
		}
	}
}