{
	"contracts/proxyDeployer.sol": {
		"ProxyDeployer": {
			"abi": [
				{
					"inputs": [
						{
							"internalType": "address",
							"name": "_implementation",
							"type": "address"
						},
						{
							"internalType": "address",
							"name": "_admin",
							"type": "address"
						}
					],
					"stateMutability": "nonpayable",
					"type": "constructor"
				},
				{
					"inputs": [],
					"name": "proxy",
					"outputs": [
						{
							"internalType": "address",
							"name": "",
							"type": "address"
						}
					],
					"stateMutability": "view",
					"type": "function"
				}
			],
			"devdoc": {
				"kind": "dev",
				"methods": {},
				"version": 1
			},
			"evm": {
				"assembly": "    /* \"contracts/proxyDeployer.sol\":148:622  contract ProxyDeployer {... */\n  mstore(0x40, 0x80)\n    /* \"contracts/proxyDeployer.sol\":254:619  constructor(address _implementation, address _admin) {... */\n  callvalue\n  dup1\n  iszero\n  tag_1\n  jumpi\n  0x00\n  dup1\n  revert\ntag_1:\n  pop\n  mload(0x40)\n  sub(codesize, bytecodeSize)\n  dup1\n  bytecodeSize\n  dup4\n  codecopy\n  dup2\n  dup2\n  add\n  0x40\n  mstore\n  dup2\n  add\n  swap1\n  tag_2\n  swap2\n  swap1\n  tag_3\n  jump\t// in\ntag_2:\n    /* \"contracts/proxyDeployer.sol\":380:395  _implementation */\n  dup2\n    /* \"contracts/proxyDeployer.sol\":436:442  _admin */\n  dup2\n    /* \"contracts/proxyDeployer.sol\":334:610  new TransparentUpgradeableProxy(... */\n  mload(0x40)\n  tag_6\n  swap1\n  tag_7\n  jump\t// in\ntag_6:\n  tag_8\n  swap3\n  swap2\n  swap1\n  tag_9\n  jump\t// in\ntag_8:\n  mload(0x40)\n  dup1\n  swap2\n  sub\n  swap1\n  0x00\n  create\n  dup1\n  iszero\n  dup1\n  iszero\n  tag_10\n  jumpi\n  returndatasize\n  0x00\n  dup1\n  returndatacopy\n  revert(0x00, returndatasize)\ntag_10:\n  pop\n    /* \"contracts/proxyDeployer.sol\":318:323  proxy */\n  0x00\n  dup1\n    /* \"contracts/proxyDeployer.sol\":318:611  proxy = address(new TransparentUpgradeableProxy(... */\n  0x0100\n  exp\n  dup2\n  sload\n  dup2\n  0xffffffffffffffffffffffffffffffffffffffff\n  mul\n  not\n  and\n  swap1\n  dup4\n  0xffffffffffffffffffffffffffffffffffffffff\n  and\n  mul\n  or\n  swap1\n  sstore\n  pop\n    /* \"contracts/proxyDeployer.sol\":254:619  constructor(address _implementation, address _admin) {... */\n  pop\n  pop\n    /* \"contracts/proxyDeployer.sol\":148:622  contract ProxyDeployer {... */\n  jump(tag_11)\ntag_7:\n  dataSize(sub_1)\n  dup1\n  dataOffset(sub_1)\n  dup4\n  codecopy\n  add\n  swap1\n  jump\t// out\n    /* \"#utility.yul\":88:205   */\ntag_13:\n    /* \"#utility.yul\":197:198   */\n  0x00\n    /* \"#utility.yul\":194:195   */\n  dup1\n    /* \"#utility.yul\":187:199   */\n  revert\n    /* \"#utility.yul\":334:460   */\ntag_15:\n    /* \"#utility.yul\":371:378   */\n  0x00\n    /* \"#utility.yul\":411:453   */\n  0xffffffffffffffffffffffffffffffffffffffff\n    /* \"#utility.yul\":404:409   */\n  dup3\n    /* \"#utility.yul\":400:454   */\n  and\n    /* \"#utility.yul\":389:454   */\n  swap1\n  pop\n    /* \"#utility.yul\":334:460   */\n  swap2\n  swap1\n  pop\n  jump\t// out\n    /* \"#utility.yul\":466:562   */\ntag_16:\n    /* \"#utility.yul\":503:510   */\n  0x00\n    /* \"#utility.yul\":532:556   */\n  tag_29\n    /* \"#utility.yul\":550:555   */\n  dup3\n    /* \"#utility.yul\":532:556   */\n  tag_15\n  jump\t// in\ntag_29:\n    /* \"#utility.yul\":521:556   */\n  swap1\n  pop\n    /* \"#utility.yul\":466:562   */\n  swap2\n  swap1\n  pop\n  jump\t// out\n    /* \"#utility.yul\":568:690   */\ntag_17:\n    /* \"#utility.yul\":641:665   */\n  tag_31\n    /* \"#utility.yul\":659:664   */\n  dup2\n    /* \"#utility.yul\":641:665   */\n  tag_16\n  jump\t// in\ntag_31:\n    /* \"#utility.yul\":634:639   */\n  dup2\n    /* \"#utility.yul\":631:666   */\n  eq\n    /* \"#utility.yul\":621:684   */\n  tag_32\n  jumpi\n    /* \"#utility.yul\":680:681   */\n  0x00\n    /* \"#utility.yul\":677:678   */\n  dup1\n    /* \"#utility.yul\":670:682   */\n  revert\n    /* \"#utility.yul\":621:684   */\ntag_32:\n    /* \"#utility.yul\":568:690   */\n  pop\n  jump\t// out\n    /* \"#utility.yul\":696:839   */\ntag_18:\n    /* \"#utility.yul\":753:758   */\n  0x00\n    /* \"#utility.yul\":784:790   */\n  dup2\n    /* \"#utility.yul\":778:791   */\n  mload\n    /* \"#utility.yul\":769:791   */\n  swap1\n  pop\n    /* \"#utility.yul\":800:833   */\n  tag_34\n    /* \"#utility.yul\":827:832   */\n  dup2\n    /* \"#utility.yul\":800:833   */\n  tag_17\n  jump\t// in\ntag_34:\n    /* \"#utility.yul\":696:839   */\n  swap3\n  swap2\n  pop\n  pop\n  jump\t// out\n    /* \"#utility.yul\":845:1352   */\ntag_3:\n    /* \"#utility.yul\":924:930   */\n  0x00\n    /* \"#utility.yul\":932:938   */\n  dup1\n    /* \"#utility.yul\":981:983   */\n  0x40\n    /* \"#utility.yul\":969:978   */\n  dup4\n    /* \"#utility.yul\":960:967   */\n  dup6\n    /* \"#utility.yul\":956:979   */\n  sub\n    /* \"#utility.yul\":952:984   */\n  slt\n    /* \"#utility.yul\":949:1068   */\n  iszero\n  tag_36\n  jumpi\n    /* \"#utility.yul\":987:1066   */\n  tag_37\n  tag_13\n  jump\t// in\ntag_37:\n    /* \"#utility.yul\":949:1068   */\ntag_36:\n    /* \"#utility.yul\":1107:1108   */\n  0x00\n    /* \"#utility.yul\":1132:1196   */\n  tag_38\n    /* \"#utility.yul\":1188:1195   */\n  dup6\n    /* \"#utility.yul\":1179:1185   */\n  dup3\n    /* \"#utility.yul\":1168:1177   */\n  dup7\n    /* \"#utility.yul\":1164:1186   */\n  add\n    /* \"#utility.yul\":1132:1196   */\n  tag_18\n  jump\t// in\ntag_38:\n    /* \"#utility.yul\":1122:1196   */\n  swap3\n  pop\n    /* \"#utility.yul\":1078:1206   */\n  pop\n    /* \"#utility.yul\":1245:1247   */\n  0x20\n    /* \"#utility.yul\":1271:1335   */\n  tag_39\n    /* \"#utility.yul\":1327:1334   */\n  dup6\n    /* \"#utility.yul\":1318:1324   */\n  dup3\n    /* \"#utility.yul\":1307:1316   */\n  dup7\n    /* \"#utility.yul\":1303:1325   */\n  add\n    /* \"#utility.yul\":1271:1335   */\n  tag_18\n  jump\t// in\ntag_39:\n    /* \"#utility.yul\":1261:1335   */\n  swap2\n  pop\n    /* \"#utility.yul\":1216:1345   */\n  pop\n    /* \"#utility.yul\":845:1352   */\n  swap3\n  pop\n  swap3\n  swap1\n  pop\n  jump\t// out\n    /* \"#utility.yul\":1358:1476   */\ntag_19:\n    /* \"#utility.yul\":1445:1469   */\n  tag_41\n    /* \"#utility.yul\":1463:1468   */\n  dup2\n    /* \"#utility.yul\":1445:1469   */\n  tag_16\n  jump\t// in\ntag_41:\n    /* \"#utility.yul\":1440:1443   */\n  dup3\n    /* \"#utility.yul\":1433:1470   */\n  mstore\n    /* \"#utility.yul\":1358:1476   */\n  pop\n  pop\n  jump\t// out\n    /* \"#utility.yul\":1482:1650   */\ntag_20:\n    /* \"#utility.yul\":1565:1576   */\n  0x00\n    /* \"#utility.yul\":1599:1605   */\n  dup3\n    /* \"#utility.yul\":1594:1597   */\n  dup3\n    /* \"#utility.yul\":1587:1606   */\n  mstore\n    /* \"#utility.yul\":1639:1643   */\n  0x20\n    /* \"#utility.yul\":1634:1637   */\n  dup3\n    /* \"#utility.yul\":1630:1644   */\n  add\n    /* \"#utility.yul\":1615:1644   */\n  swap1\n  pop\n    /* \"#utility.yul\":1482:1650   */\n  swap3\n  swap2\n  pop\n  pop\n  jump\t// out\n    /* \"#utility.yul\":1656:1770   */\ntag_21:\n  pop\n  jump\t// out\n    /* \"#utility.yul\":1776:2138   */\ntag_22:\n    /* \"#utility.yul\":1917:1920   */\n  0x00\n    /* \"#utility.yul\":1938:2003   */\n  tag_45\n    /* \"#utility.yul\":2001:2002   */\n  0x00\n    /* \"#utility.yul\":1996:1999   */\n  dup4\n    /* \"#utility.yul\":1938:2003   */\n  tag_20\n  jump\t// in\ntag_45:\n    /* \"#utility.yul\":1931:2003   */\n  swap2\n  pop\n    /* \"#utility.yul\":2012:2105   */\n  tag_46\n    /* \"#utility.yul\":2101:2104   */\n  dup3\n    /* \"#utility.yul\":2012:2105   */\n  tag_21\n  jump\t// in\ntag_46:\n    /* \"#utility.yul\":2130:2131   */\n  0x00\n    /* \"#utility.yul\":2125:2128   */\n  dup3\n    /* \"#utility.yul\":2121:2132   */\n  add\n    /* \"#utility.yul\":2114:2132   */\n  swap1\n  pop\n    /* \"#utility.yul\":1776:2138   */\n  swap2\n  swap1\n  pop\n  jump\t// out\n    /* \"#utility.yul\":2144:2781   */\ntag_9:\n    /* \"#utility.yul\":2365:2369   */\n  0x00\n    /* \"#utility.yul\":2403:2405   */\n  0x60\n    /* \"#utility.yul\":2392:2401   */\n  dup3\n    /* \"#utility.yul\":2388:2406   */\n  add\n    /* \"#utility.yul\":2380:2406   */\n  swap1\n  pop\n    /* \"#utility.yul\":2416:2487   */\n  tag_48\n    /* \"#utility.yul\":2484:2485   */\n  0x00\n    /* \"#utility.yul\":2473:2482   */\n  dup4\n    /* \"#utility.yul\":2469:2486   */\n  add\n    /* \"#utility.yul\":2460:2466   */\n  dup6\n    /* \"#utility.yul\":2416:2487   */\n  tag_19\n  jump\t// in\ntag_48:\n    /* \"#utility.yul\":2497:2569   */\n  tag_49\n    /* \"#utility.yul\":2565:2567   */\n  0x20\n    /* \"#utility.yul\":2554:2563   */\n  dup4\n    /* \"#utility.yul\":2550:2568   */\n  add\n    /* \"#utility.yul\":2541:2547   */\n  dup5\n    /* \"#utility.yul\":2497:2569   */\n  tag_19\n  jump\t// in\ntag_49:\n    /* \"#utility.yul\":2616:2625   */\n  dup2\n    /* \"#utility.yul\":2610:2614   */\n  dup2\n    /* \"#utility.yul\":2606:2626   */\n  sub\n    /* \"#utility.yul\":2601:2603   */\n  0x40\n    /* \"#utility.yul\":2590:2599   */\n  dup4\n    /* \"#utility.yul\":2586:2604   */\n  add\n    /* \"#utility.yul\":2579:2627   */\n  mstore\n    /* \"#utility.yul\":2644:2774   */\n  tag_50\n    /* \"#utility.yul\":2769:2773   */\n  dup2\n    /* \"#utility.yul\":2644:2774   */\n  tag_22\n  jump\t// in\ntag_50:\n    /* \"#utility.yul\":2636:2774   */\n  swap1\n  pop\n    /* \"#utility.yul\":2144:2781   */\n  swap4\n  swap3\n  pop\n  pop\n  pop\n  jump\t// out\n    /* \"contracts/proxyDeployer.sol\":148:622  contract ProxyDeployer {... */\ntag_11:\n  dataSize(sub_0)\n  dup1\n  dataOffset(sub_0)\n  0x00\n  codecopy\n  0x00\n  return\nstop\n\nsub_0: assembly {\n        /* \"contracts/proxyDeployer.sol\":148:622  contract ProxyDeployer {... */\n      mstore(0x40, 0x80)\n      callvalue\n      dup1\n      iszero\n      tag_1\n      jumpi\n      0x00\n      dup1\n      revert\n    tag_1:\n      pop\n      jumpi(tag_2, lt(calldatasize, 0x04))\n      shr(0xe0, calldataload(0x00))\n      dup1\n      0xec556889\n      eq\n      tag_3\n      jumpi\n    tag_2:\n      0x00\n      dup1\n      revert\n        /* \"contracts/proxyDeployer.sol\":178:198  address public proxy */\n    tag_3:\n      tag_4\n      tag_5\n      jump\t// in\n    tag_4:\n      mload(0x40)\n      tag_6\n      swap2\n      swap1\n      tag_7\n      jump\t// in\n    tag_6:\n      mload(0x40)\n      dup1\n      swap2\n      sub\n      swap1\n      return\n    tag_5:\n      0x00\n      dup1\n      sload\n      swap1\n      0x0100\n      exp\n      swap1\n      div\n      0xffffffffffffffffffffffffffffffffffffffff\n      and\n      dup2\n      jump\t// out\n        /* \"#utility.yul\":7:133   */\n    tag_8:\n        /* \"#utility.yul\":44:51   */\n      0x00\n        /* \"#utility.yul\":84:126   */\n      0xffffffffffffffffffffffffffffffffffffffff\n        /* \"#utility.yul\":77:82   */\n      dup3\n        /* \"#utility.yul\":73:127   */\n      and\n        /* \"#utility.yul\":62:127   */\n      swap1\n      pop\n        /* \"#utility.yul\":7:133   */\n      swap2\n      swap1\n      pop\n      jump\t// out\n        /* \"#utility.yul\":139:235   */\n    tag_9:\n        /* \"#utility.yul\":176:183   */\n      0x00\n        /* \"#utility.yul\":205:229   */\n      tag_14\n        /* \"#utility.yul\":223:228   */\n      dup3\n        /* \"#utility.yul\":205:229   */\n      tag_8\n      jump\t// in\n    tag_14:\n        /* \"#utility.yul\":194:229   */\n      swap1\n      pop\n        /* \"#utility.yul\":139:235   */\n      swap2\n      swap1\n      pop\n      jump\t// out\n        /* \"#utility.yul\":241:359   */\n    tag_10:\n        /* \"#utility.yul\":328:352   */\n      tag_16\n        /* \"#utility.yul\":346:351   */\n      dup2\n        /* \"#utility.yul\":328:352   */\n      tag_9\n      jump\t// in\n    tag_16:\n        /* \"#utility.yul\":323:326   */\n      dup3\n        /* \"#utility.yul\":316:353   */\n      mstore\n        /* \"#utility.yul\":241:359   */\n      pop\n      pop\n      jump\t// out\n        /* \"#utility.yul\":365:587   */\n    tag_7:\n        /* \"#utility.yul\":458:462   */\n      0x00\n        /* \"#utility.yul\":496:498   */\n      0x20\n        /* \"#utility.yul\":485:494   */\n      dup3\n        /* \"#utility.yul\":481:499   */\n      add\n        /* \"#utility.yul\":473:499   */\n      swap1\n      pop\n        /* \"#utility.yul\":509:580   */\n      tag_18\n        /* \"#utility.yul\":577:578   */\n      0x00\n        /* \"#utility.yul\":566:575   */\n      dup4\n        /* \"#utility.yul\":562:579   */\n      add\n        /* \"#utility.yul\":553:559   */\n      dup5\n        /* \"#utility.yul\":509:580   */\n      tag_10\n      jump\t// in\n    tag_18:\n        /* \"#utility.yul\":365:587   */\n      swap3\n      swap2\n      pop\n      pop\n      jump\t// out\n\n    auxdata: 0xa2646970667358221220f43fdc24f69d910cc0a9997b84524a2448bfe782d36a50bb3d4bb8a21b56d72964736f6c634300081d0033\n}\n\nsub_1: assembly {\n        /* \"@openzeppelin/contracts/proxy/transparent/TransparentUpgradeableProxy.sol\":4314:6545  contract TransparentUpgradeableProxy is ERC1967Proxy {... */\n      mstore(0x40, 0xa0)\n        /* \"@openzeppelin/contracts/proxy/transparent/TransparentUpgradeableProxy.sol\":5157:5453  constructor(address _logic, address initialOwner, bytes memory _data) payable ERC1967Proxy(_logic, _data) {... */\n      mload(0x40)\n      sub(codesize, bytecodeSize)\n      dup1\n      bytecodeSize\n      dup4\n      codecopy\n      dup2\n      dup2\n      add\n      0x40\n      mstore\n      dup2\n      add\n      swap1\n      tag_1\n      swap2\n      swap1\n      tag_2\n      jump\t// in\n    tag_1:\n        /* \"@openzeppelin/contracts/proxy/transparent/TransparentUpgradeableProxy.sol\":5248:5254  _logic */\n      dup3\n        /* \"@openzeppelin/contracts/proxy/transparent/TransparentUpgradeableProxy.sol\":5256:5261  _data */\n      dup2\n        /* \"@openzeppelin/contracts/proxy/ERC1967/ERC1967Proxy.sol\":1155:1207  ERC1967Utils.upgradeToAndCall(implementation, _data) */\n      tag_6\n        /* \"@openzeppelin/contracts/proxy/ERC1967/ERC1967Proxy.sol\":1185:1199  implementation */\n      dup3\n        /* \"@openzeppelin/contracts/proxy/ERC1967/ERC1967Proxy.sol\":1201:1206  _data */\n      dup3\n        /* \"@openzeppelin/contracts/proxy/ERC1967/ERC1967Proxy.sol\":1155:1184  ERC1967Utils.upgradeToAndCall */\n      shl(0x20, tag_7)\n        /* \"@openzeppelin/contracts/proxy/ERC1967/ERC1967Proxy.sol\":1155:1207  ERC1967Utils.upgradeToAndCall(implementation, _data) */\n      0x20\n      shr\n      jump\t// in\n    tag_6:\n        /* \"@openzeppelin/contracts/proxy/ERC1967/ERC1967Proxy.sol\":1081:1214  constructor(address implementation, bytes memory _data) payable {... */\n      pop\n      pop\n        /* \"@openzeppelin/contracts/proxy/transparent/TransparentUpgradeableProxy.sol\":5305:5317  initialOwner */\n      dup2\n        /* \"@openzeppelin/contracts/proxy/transparent/TransparentUpgradeableProxy.sol\":5290:5318  new ProxyAdmin(initialOwner) */\n      mload(0x40)\n      tag_9\n      swap1\n      tag_10\n      jump\t// in\n    tag_9:\n      tag_11\n      swap2\n      swap1\n      tag_12\n      jump\t// in\n    tag_11:\n      mload(0x40)\n      dup1\n      swap2\n      sub\n      swap1\n      0x00\n      create\n      dup1\n      iszero\n      dup1\n      iszero\n      tag_13\n      jumpi\n      returndatasize\n      0x00\n      dup1\n      returndatacopy\n      revert(0x00, returndatasize)\n    tag_13:\n      pop\n        /* \"@openzeppelin/contracts/proxy/transparent/TransparentUpgradeableProxy.sol\":5273:5319  _admin = address(new ProxyAdmin(initialOwner)) */\n      0xffffffffffffffffffffffffffffffffffffffff\n      and\n      0x80\n      dup2\n      0xffffffffffffffffffffffffffffffffffffffff\n      and\n      dup2\n      mstore\n      pop\n      pop\n        /* \"@openzeppelin/contracts/proxy/transparent/TransparentUpgradeableProxy.sol\":5407:5446  ERC1967Utils.changeAdmin(_proxyAdmin()) */\n      tag_14\n        /* \"@openzeppelin/contracts/proxy/transparent/TransparentUpgradeableProxy.sol\":5432:5445  _proxyAdmin() */\n      tag_15\n        /* \"@openzeppelin/contracts/proxy/transparent/TransparentUpgradeableProxy.sol\":5432:5443  _proxyAdmin */\n      shl(0x20, tag_16)\n        /* \"@openzeppelin/contracts/proxy/transparent/TransparentUpgradeableProxy.sol\":5432:5445  _proxyAdmin() */\n      0x20\n      shr\n      jump\t// in\n    tag_15:\n        /* \"@openzeppelin/contracts/proxy/transparent/TransparentUpgradeableProxy.sol\":5407:5431  ERC1967Utils.changeAdmin */\n      shl(0x20, tag_17)\n        /* \"@openzeppelin/contracts/proxy/transparent/TransparentUpgradeableProxy.sol\":5407:5446  ERC1967Utils.changeAdmin(_proxyAdmin()) */\n      0x20\n      shr\n      jump\t// in\n    tag_14:\n        /* \"@openzeppelin/contracts/proxy/transparent/TransparentUpgradeableProxy.sol\":5157:5453  constructor(address _logic, address initialOwner, bytes memory _data) payable ERC1967Proxy(_logic, _data) {... */\n      pop\n      pop\n      pop\n        /* \"@openzeppelin/contracts/proxy/transparent/TransparentUpgradeableProxy.sol\":4314:6545  contract TransparentUpgradeableProxy is ERC1967Proxy {... */\n      jump(tag_18)\n        /* \"@openzeppelin/contracts/proxy/ERC1967/ERC1967Utils.sol\":2264:2608  function upgradeToAndCall(address newImplementation, bytes memory data) internal {... */\n    tag_7:\n        /* \"@openzeppelin/contracts/proxy/ERC1967/ERC1967Utils.sol\":2355:2392  _setImplementation(newImplementation) */\n      tag_20\n        /* \"@openzeppelin/contracts/proxy/ERC1967/ERC1967Utils.sol\":2374:2391  newImplementation */\n      dup3\n        /* \"@openzeppelin/contracts/proxy/ERC1967/ERC1967Utils.sol\":2355:2373  _setImplementation */\n      shl(0x20, tag_21)\n        /* \"@openzeppelin/contracts/proxy/ERC1967/ERC1967Utils.sol\":2355:2392  _setImplementation(newImplementation) */\n      0x20\n      shr\n      jump\t// in\n    tag_20:\n        /* \"@openzeppelin/contracts/proxy/ERC1967/ERC1967Utils.sol\":2425:2442  newImplementation */\n      dup2\n        /* \"@openzeppelin/contracts/proxy/ERC1967/ERC1967Utils.sol\":2407:2443  IERC1967.Upgraded(newImplementation) */\n      0xffffffffffffffffffffffffffffffffffffffff\n      and\n      0xbc7cd75a20ee27fd9adebab32041f755214dbc6bffa90cc0225b39da2e5c2d3b\n      mload(0x40)\n      mload(0x40)\n      dup1\n      swap2\n      sub\n      swap1\n      log2\n        /* \"@openzeppelin/contracts/proxy/ERC1967/ERC1967Utils.sol\":2472:2473  0 */\n      0x00\n        /* \"@openzeppelin/contracts/proxy/ERC1967/ERC1967Utils.sol\":2458:2462  data */\n      dup2\n        /* \"@openzeppelin/contracts/proxy/ERC1967/ERC1967Utils.sol\":2458:2469  data.length */\n      mload\n        /* \"@openzeppelin/contracts/proxy/ERC1967/ERC1967Utils.sol\":2458:2473  data.length > 0 */\n      gt\n        /* \"@openzeppelin/contracts/proxy/ERC1967/ERC1967Utils.sol\":2454:2602  if (data.length > 0) {... */\n      iszero\n      tag_22\n      jumpi\n        /* \"@openzeppelin/contracts/proxy/ERC1967/ERC1967Utils.sol\":2489:2542  Address.functionDelegateCall(newImplementation, data) */\n      tag_23\n        /* \"@openzeppelin/contracts/proxy/ERC1967/ERC1967Utils.sol\":2518:2535  newImplementation */\n      dup3\n        /* \"@openzeppelin/contracts/proxy/ERC1967/ERC1967Utils.sol\":2537:2541  data */\n      dup3\n        /* \"@openzeppelin/contracts/proxy/ERC1967/ERC1967Utils.sol\":2489:2517  Address.functionDelegateCall */\n      shl(0x20, tag_24)\n        /* \"@openzeppelin/contracts/proxy/ERC1967/ERC1967Utils.sol\":2489:2542  Address.functionDelegateCall(newImplementation, data) */\n      0x20\n      shr\n      jump\t// in\n    tag_23:\n      pop\n        /* \"@openzeppelin/contracts/proxy/ERC1967/ERC1967Utils.sol\":2454:2602  if (data.length > 0) {... */\n      jump(tag_25)\n    tag_22:\n        /* \"@openzeppelin/contracts/proxy/ERC1967/ERC1967Utils.sol\":2573:2591  _checkNonPayable() */\n      tag_26\n        /* \"@openzeppelin/contracts/proxy/ERC1967/ERC1967Utils.sol\":2573:2589  _checkNonPayable */\n      shl(0x20, tag_27)\n        /* \"@openzeppelin/contracts/proxy/ERC1967/ERC1967Utils.sol\":2573:2591  _checkNonPayable() */\n      0x20\n      shr\n      jump\t// in\n    tag_26:\n        /* \"@openzeppelin/contracts/proxy/ERC1967/ERC1967Utils.sol\":2454:2602  if (data.length > 0) {... */\n    tag_25:\n        /* \"@openzeppelin/contracts/proxy/ERC1967/ERC1967Utils.sol\":2264:2608  function upgradeToAndCall(address newImplementation, bytes memory data) internal {... */\n      pop\n      pop\n      jump\t// out\n        /* \"@openzeppelin/contracts/proxy/transparent/TransparentUpgradeableProxy.sol\":5520:5613  function _proxyAdmin() internal view virtual returns (address) {... */\n    tag_16:\n        /* \"@openzeppelin/contracts/proxy/transparent/TransparentUpgradeableProxy.sol\":5574:5581  address */\n      0x00\n        /* \"@openzeppelin/contracts/proxy/transparent/TransparentUpgradeableProxy.sol\":5600:5606  _admin */\n      mload(0x80)\n        /* \"@openzeppelin/contracts/proxy/transparent/TransparentUpgradeableProxy.sol\":5593:5606  return _admin */\n      swap1\n      pop\n        /* \"@openzeppelin/contracts/proxy/transparent/TransparentUpgradeableProxy.sol\":5520:5613  function _proxyAdmin() internal view virtual returns (address) {... */\n      swap1\n      jump\t// out\n        /* \"@openzeppelin/contracts/proxy/ERC1967/ERC1967Utils.sol\":3827:3969  function changeAdmin(address newAdmin) internal {... */\n    tag_17:\n        /* \"@openzeppelin/contracts/proxy/ERC1967/ERC1967Utils.sol\":3890:3933  IERC1967.AdminChanged(getAdmin(), newAdmin) */\n      0x7e644d79422f17c01e4894b5f4f588d331ebfa28653d42ae832dc59e38c9798f\n        /* \"@openzeppelin/contracts/proxy/ERC1967/ERC1967Utils.sol\":3912:3922  getAdmin() */\n      tag_30\n        /* \"@openzeppelin/contracts/proxy/ERC1967/ERC1967Utils.sol\":3912:3920  getAdmin */\n      shl(0x20, tag_31)\n        /* \"@openzeppelin/contracts/proxy/ERC1967/ERC1967Utils.sol\":3912:3922  getAdmin() */\n      0x20\n      shr\n      jump\t// in\n    tag_30:\n        /* \"@openzeppelin/contracts/proxy/ERC1967/ERC1967Utils.sol\":3924:3932  newAdmin */\n      dup3\n        /* \"@openzeppelin/contracts/proxy/ERC1967/ERC1967Utils.sol\":3890:3933  IERC1967.AdminChanged(getAdmin(), newAdmin) */\n      mload(0x40)\n      tag_32\n      swap3\n      swap2\n      swap1\n      tag_33\n      jump\t// in\n    tag_32:\n      mload(0x40)\n      dup1\n      swap2\n      sub\n      swap1\n      log1\n        /* \"@openzeppelin/contracts/proxy/ERC1967/ERC1967Utils.sol\":3943:3962  _setAdmin(newAdmin) */\n      tag_34\n        /* \"@openzeppelin/contracts/proxy/ERC1967/ERC1967Utils.sol\":3953:3961  newAdmin */\n      dup2\n        /* \"@openzeppelin/contracts/proxy/ERC1967/ERC1967Utils.sol\":3943:3952  _setAdmin */\n      shl(0x20, tag_35)\n        /* \"@openzeppelin/contracts/proxy/ERC1967/ERC1967Utils.sol\":3943:3962  _setAdmin(newAdmin) */\n      0x20\n      shr\n      jump\t// in\n    tag_34:\n        /* \"@openzeppelin/contracts/proxy/ERC1967/ERC1967Utils.sol\":3827:3969  function changeAdmin(address newAdmin) internal {... */\n      pop\n      jump\t// out\n        /* \"@openzeppelin/contracts/proxy/ERC1967/ERC1967Utils.sol\":1671:1952  function _setImplementation(address newImplementation) private {... */\n    tag_21:\n        /* \"@openzeppelin/contracts/proxy/ERC1967/ERC1967Utils.sol\":1781:1782  0 */\n      0x00\n        /* \"@openzeppelin/contracts/proxy/ERC1967/ERC1967Utils.sol\":1748:1765  newImplementation */\n      dup2\n        /* \"@openzeppelin/contracts/proxy/ERC1967/ERC1967Utils.sol\":1748:1777  newImplementation.code.length */\n      0xffffffffffffffffffffffffffffffffffffffff\n      and\n      extcodesize\n        /* \"@openzeppelin/contracts/proxy/ERC1967/ERC1967Utils.sol\":1748:1782  newImplementation.code.length == 0 */\n      sub\n        /* \"@openzeppelin/contracts/proxy/ERC1967/ERC1967Utils.sol\":1744:1863  if (newImplementation.code.length == 0) {... */\n      tag_37\n      jumpi\n        /* \"@openzeppelin/contracts/proxy/ERC1967/ERC1967Utils.sol\":1834:1851  newImplementation */\n      dup1\n        /* \"@openzeppelin/contracts/proxy/ERC1967/ERC1967Utils.sol\":1805:1852  ERC1967InvalidImplementation(newImplementation) */\n      mload(0x40)\n      0x4c9c8ce300000000000000000000000000000000000000000000000000000000\n      dup2\n      mstore\n      0x04\n      add\n      tag_38\n      swap2\n      swap1\n      tag_12\n      jump\t// in\n    tag_38:\n      mload(0x40)\n      dup1\n      swap2\n      sub\n      swap1\n      revert\n        /* \"@openzeppelin/contracts/proxy/ERC1967/ERC1967Utils.sol\":1744:1863  if (newImplementation.code.length == 0) {... */\n    tag_37:\n        /* \"@openzeppelin/contracts/proxy/ERC1967/ERC1967Utils.sol\":1928:1945  newImplementation */\n      dup1\n        /* \"@openzeppelin/contracts/proxy/ERC1967/ERC1967Utils.sol\":1872:1919  StorageSlot.getAddressSlot(IMPLEMENTATION_SLOT) */\n      tag_39\n        /* \"@openzeppelin/contracts/proxy/ERC1967/ERC1967Utils.sol\":811:877  0x360894a13ba1a3210667c828492db98dca3e2076cc3735a920a3ca505d382bbc */\n      0x360894a13ba1a3210667c828492db98dca3e2076cc3735a920a3ca505d382bbc\n        /* \"@openzeppelin/contracts/proxy/ERC1967/ERC1967Utils.sol\":1899:1918  IMPLEMENTATION_SLOT */\n      0x00\n      shl\n        /* \"@openzeppelin/contracts/proxy/ERC1967/ERC1967Utils.sol\":1872:1898  StorageSlot.getAddressSlot */\n      shl(0x20, tag_40)\n        /* \"@openzeppelin/contracts/proxy/ERC1967/ERC1967Utils.sol\":1872:1919  StorageSlot.getAddressSlot(IMPLEMENTATION_SLOT) */\n      0x20\n      shr\n      jump\t// in\n    tag_39:\n        /* \"@openzeppelin/contracts/proxy/ERC1967/ERC1967Utils.sol\":1872:1925  StorageSlot.getAddressSlot(IMPLEMENTATION_SLOT).value */\n      0x00\n      add\n      0x00\n        /* \"@openzeppelin/contracts/proxy/ERC1967/ERC1967Utils.sol\":1872:1945  StorageSlot.getAddressSlot(IMPLEMENTATION_SLOT).value = newImplementation */\n      0x0100\n      exp\n      dup2\n      sload\n      dup2\n      0xffffffffffffffffffffffffffffffffffffffff\n      mul\n      not\n      and\n      swap1\n      dup4\n      0xffffffffffffffffffffffffffffffffffffffff\n      and\n      mul\n      or\n      swap1\n      sstore\n      pop\n        /* \"@openzeppelin/contracts/proxy/ERC1967/ERC1967Utils.sol\":1671:1952  function _setImplementation(address newImplementation) private {... */\n      pop\n      jump\t// out\n        /* \"@openzeppelin/contracts/utils/Address.sol\":3900:4153  function functionDelegateCall(address target, bytes memory data) internal returns (bytes memory) {... */\n    tag_24:\n        /* \"@openzeppelin/contracts/utils/Address.sol\":3983:3995  bytes memory */\n      0x60\n        /* \"@openzeppelin/contracts/utils/Address.sol\":4008:4020  bool success */\n      0x00\n        /* \"@openzeppelin/contracts/utils/Address.sol\":4022:4045  bytes memory returndata */\n      dup1\n        /* \"@openzeppelin/contracts/utils/Address.sol\":4049:4055  target */\n      dup5\n        /* \"@openzeppelin/contracts/utils/Address.sol\":4049:4068  target.delegatecall */\n      0xffffffffffffffffffffffffffffffffffffffff\n      and\n        /* \"@openzeppelin/contracts/utils/Address.sol\":4069:4073  data */\n      dup5\n        /* \"@openzeppelin/contracts/utils/Address.sol\":4049:4074  target.delegatecall(data) */\n      mload(0x40)\n      tag_42\n      swap2\n      swap1\n      tag_43\n      jump\t// in\n    tag_42:\n      0x00\n      mload(0x40)\n      dup1\n      dup4\n      sub\n      dup2\n      dup6\n      gas\n      delegatecall\n      swap2\n      pop\n      pop\n      returndatasize\n      dup1\n      0x00\n      dup2\n      eq\n      tag_46\n      jumpi\n      mload(0x40)\n      swap2\n      pop\n      and(add(returndatasize, 0x3f), not(0x1f))\n      dup3\n      add\n      0x40\n      mstore\n      returndatasize\n      dup3\n      mstore\n      returndatasize\n      0x00\n      0x20\n      dup5\n      add\n      returndatacopy\n      jump(tag_45)\n    tag_46:\n      0x60\n      swap2\n      pop\n    tag_45:\n      pop\n        /* \"@openzeppelin/contracts/utils/Address.sol\":4007:4074  (bool success, bytes memory returndata) = target.delegatecall(data) */\n      swap2\n      pop\n      swap2\n      pop\n        /* \"@openzeppelin/contracts/utils/Address.sol\":4091:4146  verifyCallResultFromTarget(target, success, returndata) */\n      tag_47\n        /* \"@openzeppelin/contracts/utils/Address.sol\":4118:4124  target */\n      dup6\n        /* \"@openzeppelin/contracts/utils/Address.sol\":4126:4133  success */\n      dup4\n        /* \"@openzeppelin/contracts/utils/Address.sol\":4135:4145  returndata */\n      dup4\n        /* \"@openzeppelin/contracts/utils/Address.sol\":4091:4117  verifyCallResultFromTarget */\n      shl(0x20, tag_48)\n        /* \"@openzeppelin/contracts/utils/Address.sol\":4091:4146  verifyCallResultFromTarget(target, success, returndata) */\n      0x20\n      shr\n      jump\t// in\n    tag_47:\n        /* \"@openzeppelin/contracts/utils/Address.sol\":4084:4146  return verifyCallResultFromTarget(target, success, returndata) */\n      swap3\n      pop\n      pop\n      pop\n        /* \"@openzeppelin/contracts/utils/Address.sol\":3900:4153  function functionDelegateCall(address target, bytes memory data) internal returns (bytes memory) {... */\n      swap3\n      swap2\n      pop\n      pop\n      jump\t// out\n        /* \"@openzeppelin/contracts/proxy/ERC1967/ERC1967Utils.sol\":6113:6235  function _checkNonPayable() private {... */\n    tag_27:\n        /* \"@openzeppelin/contracts/proxy/ERC1967/ERC1967Utils.sol\":6175:6176  0 */\n      0x00\n        /* \"@openzeppelin/contracts/proxy/ERC1967/ERC1967Utils.sol\":6163:6172  msg.value */\n      callvalue\n        /* \"@openzeppelin/contracts/proxy/ERC1967/ERC1967Utils.sol\":6163:6176  msg.value > 0 */\n      gt\n        /* \"@openzeppelin/contracts/proxy/ERC1967/ERC1967Utils.sol\":6159:6229  if (msg.value > 0) {... */\n      iszero\n      tag_50\n      jumpi\n        /* \"@openzeppelin/contracts/proxy/ERC1967/ERC1967Utils.sol\":6199:6218  ERC1967NonPayable() */\n      mload(0x40)\n      0xb398979f00000000000000000000000000000000000000000000000000000000\n      dup2\n      mstore\n      0x04\n      add\n      mload(0x40)\n      dup1\n      swap2\n      sub\n      swap1\n      revert\n        /* \"@openzeppelin/contracts/proxy/ERC1967/ERC1967Utils.sol\":6159:6229  if (msg.value > 0) {... */\n    tag_50:\n        /* \"@openzeppelin/contracts/proxy/ERC1967/ERC1967Utils.sol\":6113:6235  function _checkNonPayable() private {... */\n      jump\t// out\n        /* \"@openzeppelin/contracts/proxy/ERC1967/ERC1967Utils.sol\":3287:3407  function getAdmin() internal view returns (address) {... */\n    tag_31:\n        /* \"@openzeppelin/contracts/proxy/ERC1967/ERC1967Utils.sol\":3330:3337  address */\n      0x00\n        /* \"@openzeppelin/contracts/proxy/ERC1967/ERC1967Utils.sol\":3356:3394  StorageSlot.getAddressSlot(ADMIN_SLOT) */\n      tag_52\n        /* \"@openzeppelin/contracts/proxy/ERC1967/ERC1967Utils.sol\":2868:2934  0xb53127684a568b3173ae13b9f8a6016e243e63b6e8ee1178d6a717850b5d6103 */\n      0xb53127684a568b3173ae13b9f8a6016e243e63b6e8ee1178d6a717850b5d6103\n        /* \"@openzeppelin/contracts/proxy/ERC1967/ERC1967Utils.sol\":3383:3393  ADMIN_SLOT */\n      0x00\n      shl\n        /* \"@openzeppelin/contracts/proxy/ERC1967/ERC1967Utils.sol\":3356:3382  StorageSlot.getAddressSlot */\n      shl(0x20, tag_40)\n        /* \"@openzeppelin/contracts/proxy/ERC1967/ERC1967Utils.sol\":3356:3394  StorageSlot.getAddressSlot(ADMIN_SLOT) */\n      0x20\n      shr\n      jump\t// in\n    tag_52:\n        /* \"@openzeppelin/contracts/proxy/ERC1967/ERC1967Utils.sol\":3356:3400  StorageSlot.getAddressSlot(ADMIN_SLOT).value */\n      0x00\n      add\n      0x00\n      swap1\n      sload\n      swap1\n      0x0100\n      exp\n      swap1\n      div\n      0xffffffffffffffffffffffffffffffffffffffff\n      and\n        /* \"@openzeppelin/contracts/proxy/ERC1967/ERC1967Utils.sol\":3349:3400  return StorageSlot.getAddressSlot(ADMIN_SLOT).value */\n      swap1\n      pop\n        /* \"@openzeppelin/contracts/proxy/ERC1967/ERC1967Utils.sol\":3287:3407  function getAdmin() internal view returns (address) {... */\n      swap1\n      jump\t// out\n        /* \"@openzeppelin/contracts/proxy/ERC1967/ERC1967Utils.sol\":3490:3707  function _setAdmin(address newAdmin) private {... */\n    tag_35:\n        /* \"@openzeppelin/contracts/proxy/ERC1967/ERC1967Utils.sol\":3569:3570  0 */\n      0x00\n        /* \"@openzeppelin/contracts/proxy/ERC1967/ERC1967Utils.sol\":3549:3571  newAdmin == address(0) */\n      0xffffffffffffffffffffffffffffffffffffffff\n      and\n        /* \"@openzeppelin/contracts/proxy/ERC1967/ERC1967Utils.sol\":3549:3557  newAdmin */\n      dup2\n        /* \"@openzeppelin/contracts/proxy/ERC1967/ERC1967Utils.sol\":3549:3571  newAdmin == address(0) */\n      0xffffffffffffffffffffffffffffffffffffffff\n      and\n      sub\n        /* \"@openzeppelin/contracts/proxy/ERC1967/ERC1967Utils.sol\":3545:3636  if (newAdmin == address(0)) {... */\n      tag_54\n      jumpi\n        /* \"@openzeppelin/contracts/proxy/ERC1967/ERC1967Utils.sol\":3622:3623  0 */\n      0x00\n        /* \"@openzeppelin/contracts/proxy/ERC1967/ERC1967Utils.sol\":3594:3625  ERC1967InvalidAdmin(address(0)) */\n      mload(0x40)\n      0x62e77ba200000000000000000000000000000000000000000000000000000000\n      dup2\n      mstore\n      0x04\n      add\n      tag_55\n      swap2\n      swap1\n      tag_12\n      jump\t// in\n    tag_55:\n      mload(0x40)\n      dup1\n      swap2\n      sub\n      swap1\n      revert\n        /* \"@openzeppelin/contracts/proxy/ERC1967/ERC1967Utils.sol\":3545:3636  if (newAdmin == address(0)) {... */\n    tag_54:\n        /* \"@openzeppelin/contracts/proxy/ERC1967/ERC1967Utils.sol\":3692:3700  newAdmin */\n      dup1\n        /* \"@openzeppelin/contracts/proxy/ERC1967/ERC1967Utils.sol\":3645:3683  StorageSlot.getAddressSlot(ADMIN_SLOT) */\n      tag_56\n        /* \"@openzeppelin/contracts/proxy/ERC1967/ERC1967Utils.sol\":2868:2934  0xb53127684a568b3173ae13b9f8a6016e243e63b6e8ee1178d6a717850b5d6103 */\n      0xb53127684a568b3173ae13b9f8a6016e243e63b6e8ee1178d6a717850b5d6103\n        /* \"@openzeppelin/contracts/proxy/ERC1967/ERC1967Utils.sol\":3672:3682  ADMIN_SLOT */\n      0x00\n      shl\n        /* \"@openzeppelin/contracts/proxy/ERC1967/ERC1967Utils.sol\":3645:3671  StorageSlot.getAddressSlot */\n      shl(0x20, tag_40)\n        /* \"@openzeppelin/contracts/proxy/ERC1967/ERC1967Utils.sol\":3645:3683  StorageSlot.getAddressSlot(ADMIN_SLOT) */\n      0x20\n      shr\n      jump\t// in\n    tag_56:\n        /* \"@openzeppelin/contracts/proxy/ERC1967/ERC1967Utils.sol\":3645:3689  StorageSlot.getAddressSlot(ADMIN_SLOT).value */\n      0x00\n      add\n      0x00\n        /* \"@openzeppelin/contracts/proxy/ERC1967/ERC1967Utils.sol\":3645:3700  StorageSlot.getAddressSlot(ADMIN_SLOT).value = newAdmin */\n      0x0100\n      exp\n      dup2\n      sload\n      dup2\n      0xffffffffffffffffffffffffffffffffffffffff\n      mul\n      not\n      and\n      swap1\n      dup4\n      0xffffffffffffffffffffffffffffffffffffffff\n      and\n      mul\n      or\n      swap1\n      sstore\n      pop\n        /* \"@openzeppelin/contracts/proxy/ERC1967/ERC1967Utils.sol\":3490:3707  function _setAdmin(address newAdmin) private {... */\n      pop\n      jump\t// out\n        /* \"@openzeppelin/contracts/utils/StorageSlot.sol\":1899:2062  function getAddressSlot(bytes32 slot) internal pure returns (AddressSlot storage r) {... */\n    tag_40:\n        /* \"@openzeppelin/contracts/utils/StorageSlot.sol\":1960:1981  AddressSlot storage r */\n      0x00\n        /* \"@openzeppelin/contracts/utils/StorageSlot.sol\":2042:2046  slot */\n      dup2\n        /* \"@openzeppelin/contracts/utils/StorageSlot.sol\":2032:2046  r.slot := slot */\n      swap1\n      pop\n        /* \"@openzeppelin/contracts/utils/StorageSlot.sol\":1899:2062  function getAddressSlot(bytes32 slot) internal pure returns (AddressSlot storage r) {... */\n      swap2\n      swap1\n      pop\n      jump\t// out\n        /* \"@openzeppelin/contracts/utils/Address.sol\":4421:5003  function verifyCallResultFromTarget(... */\n    tag_48:\n        /* \"@openzeppelin/contracts/utils/Address.sol\":4565:4577  bytes memory */\n      0x60\n        /* \"@openzeppelin/contracts/utils/Address.sol\":4594:4601  success */\n      dup3\n        /* \"@openzeppelin/contracts/utils/Address.sol\":4589:4997  if (!success) {... */\n      tag_59\n      jumpi\n        /* \"@openzeppelin/contracts/utils/Address.sol\":4617:4636  _revert(returndata) */\n      tag_60\n        /* \"@openzeppelin/contracts/utils/Address.sol\":4625:4635  returndata */\n      dup3\n        /* \"@openzeppelin/contracts/utils/Address.sol\":4617:4624  _revert */\n      shl(0x20, tag_61)\n        /* \"@openzeppelin/contracts/utils/Address.sol\":4617:4636  _revert(returndata) */\n      0x20\n      shr\n      jump\t// in\n    tag_60:\n        /* \"@openzeppelin/contracts/utils/Address.sol\":4589:4997  if (!success) {... */\n      jump(tag_62)\n    tag_59:\n        /* \"@openzeppelin/contracts/utils/Address.sol\":4862:4863  0 */\n      0x00\n        /* \"@openzeppelin/contracts/utils/Address.sol\":4841:4851  returndata */\n      dup3\n        /* \"@openzeppelin/contracts/utils/Address.sol\":4841:4858  returndata.length */\n      mload\n        /* \"@openzeppelin/contracts/utils/Address.sol\":4841:4863  returndata.length == 0 */\n      eq\n        /* \"@openzeppelin/contracts/utils/Address.sol\":4841:4890  returndata.length == 0 && target.code.length == 0 */\n      dup1\n      iszero\n      tag_63\n      jumpi\n      pop\n        /* \"@openzeppelin/contracts/utils/Address.sol\":4889:4890  0 */\n      0x00\n        /* \"@openzeppelin/contracts/utils/Address.sol\":4867:4873  target */\n      dup5\n        /* \"@openzeppelin/contracts/utils/Address.sol\":4867:4885  target.code.length */\n      0xffffffffffffffffffffffffffffffffffffffff\n      and\n      extcodesize\n        /* \"@openzeppelin/contracts/utils/Address.sol\":4867:4890  target.code.length == 0 */\n      eq\n        /* \"@openzeppelin/contracts/utils/Address.sol\":4841:4890  returndata.length == 0 && target.code.length == 0 */\n    tag_63:\n        /* \"@openzeppelin/contracts/utils/Address.sol\":4837:4956  if (returndata.length == 0 && target.code.length == 0) {... */\n      iszero\n      tag_64\n      jumpi\n        /* \"@openzeppelin/contracts/utils/Address.sol\":4934:4940  target */\n      dup4\n        /* \"@openzeppelin/contracts/utils/Address.sol\":4917:4941  AddressEmptyCode(target) */\n      mload(0x40)\n      0x9996b31500000000000000000000000000000000000000000000000000000000\n      dup2\n      mstore\n      0x04\n      add\n      tag_65\n      swap2\n      swap1\n      tag_12\n      jump\t// in\n    tag_65:\n      mload(0x40)\n      dup1\n      swap2\n      sub\n      swap1\n      revert\n        /* \"@openzeppelin/contracts/utils/Address.sol\":4837:4956  if (returndata.length == 0 && target.code.length == 0) {... */\n    tag_64:\n        /* \"@openzeppelin/contracts/utils/Address.sol\":4976:4986  returndata */\n      dup2\n        /* \"@openzeppelin/contracts/utils/Address.sol\":4969:4986  return returndata */\n      swap1\n      pop\n      jump(tag_58)\n        /* \"@openzeppelin/contracts/utils/Address.sol\":4589:4997  if (!success) {... */\n    tag_62:\n        /* \"@openzeppelin/contracts/utils/Address.sol\":4421:5003  function verifyCallResultFromTarget(... */\n    tag_58:\n      swap4\n      swap3\n      pop\n      pop\n      pop\n      jump\t// out\n        /* \"@openzeppelin/contracts/utils/Address.sol\":5543:6030  function _revert(bytes memory returndata) private pure {... */\n    tag_61:\n        /* \"@openzeppelin/contracts/utils/Address.sol\":5694:5695  0 */\n      0x00\n        /* \"@openzeppelin/contracts/utils/Address.sol\":5674:5684  returndata */\n      dup2\n        /* \"@openzeppelin/contracts/utils/Address.sol\":5674:5691  returndata.length */\n      mload\n        /* \"@openzeppelin/contracts/utils/Address.sol\":5674:5695  returndata.length > 0 */\n      gt\n        /* \"@openzeppelin/contracts/utils/Address.sol\":5670:6024  if (returndata.length > 0) {... */\n      iszero\n      tag_67\n      jumpi\n        /* \"@openzeppelin/contracts/utils/Address.sol\":5871:5881  returndata */\n      dup1\n        /* \"@openzeppelin/contracts/utils/Address.sol\":5865:5882  mload(returndata) */\n      mload\n        /* \"@openzeppelin/contracts/utils/Address.sol\":5927:5942  returndata_size */\n      dup1\n        /* \"@openzeppelin/contracts/utils/Address.sol\":5914:5924  returndata */\n      dup3\n        /* \"@openzeppelin/contracts/utils/Address.sol\":5910:5912  32 */\n      0x20\n        /* \"@openzeppelin/contracts/utils/Address.sol\":5906:5925  add(32, returndata) */\n      add\n        /* \"@openzeppelin/contracts/utils/Address.sol\":5899:5943  revert(add(32, returndata), returndata_size) */\n      revert\n        /* \"@openzeppelin/contracts/utils/Address.sol\":5670:6024  if (returndata.length > 0) {... */\n    tag_67:\n        /* \"@openzeppelin/contracts/utils/Address.sol\":5994:6013  Errors.FailedCall() */\n      mload(0x40)\n      0xd6bda27500000000000000000000000000000000000000000000000000000000\n      dup2\n      mstore\n      0x04\n      add\n      mload(0x40)\n      dup1\n      swap2\n      sub\n      swap1\n      revert\n        /* \"@openzeppelin/contracts/proxy/transparent/TransparentUpgradeableProxy.sol\":4314:6545  contract TransparentUpgradeableProxy is ERC1967Proxy {... */\n    tag_10:\n      dataSize(sub_1)\n      dup1\n      dataOffset(sub_1)\n      dup4\n      codecopy\n      add\n      swap1\n      jump\t// out\n        /* \"#utility.yul\":7:82   */\n    tag_69:\n        /* \"#utility.yul\":40:46   */\n      0x00\n        /* \"#utility.yul\":73:75   */\n      0x40\n        /* \"#utility.yul\":67:76   */\n      mload\n        /* \"#utility.yul\":57:76   */\n      swap1\n      pop\n        /* \"#utility.yul\":7:82   */\n      swap1\n      jump\t// out\n        /* \"#utility.yul\":88:205   */\n    tag_70:\n        /* \"#utility.yul\":197:198   */\n      0x00\n        /* \"#utility.yul\":194:195   */\n      dup1\n        /* \"#utility.yul\":187:199   */\n      revert\n        /* \"#utility.yul\":211:328   */\n    tag_71:\n        /* \"#utility.yul\":320:321   */\n      0x00\n        /* \"#utility.yul\":317:318   */\n      dup1\n        /* \"#utility.yul\":310:322   */\n      revert\n        /* \"#utility.yul\":334:460   */\n    tag_72:\n        /* \"#utility.yul\":371:378   */\n      0x00\n        /* \"#utility.yul\":411:453   */\n      0xffffffffffffffffffffffffffffffffffffffff\n        /* \"#utility.yul\":404:409   */\n      dup3\n        /* \"#utility.yul\":400:454   */\n      and\n        /* \"#utility.yul\":389:454   */\n      swap1\n      pop\n        /* \"#utility.yul\":334:460   */\n      swap2\n      swap1\n      pop\n      jump\t// out\n        /* \"#utility.yul\":466:562   */\n    tag_73:\n        /* \"#utility.yul\":503:510   */\n      0x00\n        /* \"#utility.yul\":532:556   */\n      tag_96\n        /* \"#utility.yul\":550:555   */\n      dup3\n        /* \"#utility.yul\":532:556   */\n      tag_72\n      jump\t// in\n    tag_96:\n        /* \"#utility.yul\":521:556   */\n      swap1\n      pop\n        /* \"#utility.yul\":466:562   */\n      swap2\n      swap1\n      pop\n      jump\t// out\n        /* \"#utility.yul\":568:690   */\n    tag_74:\n        /* \"#utility.yul\":641:665   */\n      tag_98\n        /* \"#utility.yul\":659:664   */\n      dup2\n        /* \"#utility.yul\":641:665   */\n      tag_73\n      jump\t// in\n    tag_98:\n        /* \"#utility.yul\":634:639   */\n      dup2\n        /* \"#utility.yul\":631:666   */\n      eq\n        /* \"#utility.yul\":621:684   */\n      tag_99\n      jumpi\n        /* \"#utility.yul\":680:681   */\n      0x00\n        /* \"#utility.yul\":677:678   */\n      dup1\n        /* \"#utility.yul\":670:682   */\n      revert\n        /* \"#utility.yul\":621:684   */\n    tag_99:\n        /* \"#utility.yul\":568:690   */\n      pop\n      jump\t// out\n        /* \"#utility.yul\":696:839   */\n    tag_75:\n        /* \"#utility.yul\":753:758   */\n      0x00\n        /* \"#utility.yul\":784:790   */\n      dup2\n        /* \"#utility.yul\":778:791   */\n      mload\n        /* \"#utility.yul\":769:791   */\n      swap1\n      pop\n        /* \"#utility.yul\":800:833   */\n      tag_101\n        /* \"#utility.yul\":827:832   */\n      dup2\n        /* \"#utility.yul\":800:833   */\n      tag_74\n      jump\t// in\n    tag_101:\n        /* \"#utility.yul\":696:839   */\n      swap3\n      swap2\n      pop\n      pop\n      jump\t// out\n        /* \"#utility.yul\":845:962   */\n    tag_76:\n        /* \"#utility.yul\":954:955   */\n      0x00\n        /* \"#utility.yul\":951:952   */\n      dup1\n        /* \"#utility.yul\":944:956   */\n      revert\n        /* \"#utility.yul\":968:1085   */\n    tag_77:\n        /* \"#utility.yul\":1077:1078   */\n      0x00\n        /* \"#utility.yul\":1074:1075   */\n      dup1\n        /* \"#utility.yul\":1067:1079   */\n      revert\n        /* \"#utility.yul\":1091:1193   */\n    tag_78:\n        /* \"#utility.yul\":1132:1138   */\n      0x00\n        /* \"#utility.yul\":1183:1185   */\n      0x1f\n        /* \"#utility.yul\":1179:1186   */\n      not\n        /* \"#utility.yul\":1174:1176   */\n      0x1f\n        /* \"#utility.yul\":1167:1172   */\n      dup4\n        /* \"#utility.yul\":1163:1177   */\n      add\n        /* \"#utility.yul\":1159:1187   */\n      and\n        /* \"#utility.yul\":1149:1187   */\n      swap1\n      pop\n        /* \"#utility.yul\":1091:1193   */\n      swap2\n      swap1\n      pop\n      jump\t// out\n        /* \"#utility.yul\":1199:1379   */\n    tag_79:\n        /* \"#utility.yul\":1247:1324   */\n      0x4e487b7100000000000000000000000000000000000000000000000000000000\n        /* \"#utility.yul\":1244:1245   */\n      0x00\n        /* \"#utility.yul\":1237:1325   */\n      mstore\n        /* \"#utility.yul\":1344:1348   */\n      0x41\n        /* \"#utility.yul\":1341:1342   */\n      0x04\n        /* \"#utility.yul\":1334:1349   */\n      mstore\n        /* \"#utility.yul\":1368:1372   */\n      0x24\n        /* \"#utility.yul\":1365:1366   */\n      0x00\n        /* \"#utility.yul\":1358:1373   */\n      revert\n        /* \"#utility.yul\":1385:1666   */\n    tag_80:\n        /* \"#utility.yul\":1468:1495   */\n      tag_107\n        /* \"#utility.yul\":1490:1494   */\n      dup3\n        /* \"#utility.yul\":1468:1495   */\n      tag_78\n      jump\t// in\n    tag_107:\n        /* \"#utility.yul\":1460:1466   */\n      dup2\n        /* \"#utility.yul\":1456:1496   */\n      add\n        /* \"#utility.yul\":1598:1604   */\n      dup2\n        /* \"#utility.yul\":1586:1596   */\n      dup2\n        /* \"#utility.yul\":1583:1605   */\n      lt\n        /* \"#utility.yul\":1562:1580   */\n      0xffffffffffffffff\n        /* \"#utility.yul\":1550:1560   */\n      dup3\n        /* \"#utility.yul\":1547:1581   */\n      gt\n        /* \"#utility.yul\":1544:1606   */\n      or\n        /* \"#utility.yul\":1541:1629   */\n      iszero\n      tag_108\n      jumpi\n        /* \"#utility.yul\":1609:1627   */\n      tag_109\n      tag_79\n      jump\t// in\n    tag_109:\n        /* \"#utility.yul\":1541:1629   */\n    tag_108:\n        /* \"#utility.yul\":1649:1659   */\n      dup1\n        /* \"#utility.yul\":1645:1647   */\n      0x40\n        /* \"#utility.yul\":1638:1660   */\n      mstore\n        /* \"#utility.yul\":1428:1666   */\n      pop\n        /* \"#utility.yul\":1385:1666   */\n      pop\n      pop\n      jump\t// out\n        /* \"#utility.yul\":1672:1801   */\n    tag_81:\n        /* \"#utility.yul\":1706:1712   */\n      0x00\n        /* \"#utility.yul\":1733:1753   */\n      tag_111\n      tag_69\n      jump\t// in\n    tag_111:\n        /* \"#utility.yul\":1723:1753   */\n      swap1\n      pop\n        /* \"#utility.yul\":1762:1795   */\n      tag_112\n        /* \"#utility.yul\":1790:1794   */\n      dup3\n        /* \"#utility.yul\":1782:1788   */\n      dup3\n        /* \"#utility.yul\":1762:1795   */\n      tag_80\n      jump\t// in\n    tag_112:\n        /* \"#utility.yul\":1672:1801   */\n      swap2\n      swap1\n      pop\n      jump\t// out\n        /* \"#utility.yul\":1807:2114   */\n    tag_82:\n        /* \"#utility.yul\":1868:1872   */\n      0x00\n        /* \"#utility.yul\":1958:1976   */\n      0xffffffffffffffff\n        /* \"#utility.yul\":1950:1956   */\n      dup3\n        /* \"#utility.yul\":1947:1977   */\n      gt\n        /* \"#utility.yul\":1944:2000   */\n      iszero\n      tag_114\n      jumpi\n        /* \"#utility.yul\":1980:1998   */\n      tag_115\n      tag_79\n      jump\t// in\n    tag_115:\n        /* \"#utility.yul\":1944:2000   */\n    tag_114:\n        /* \"#utility.yul\":2018:2047   */\n      tag_116\n        /* \"#utility.yul\":2040:2046   */\n      dup3\n        /* \"#utility.yul\":2018:2047   */\n      tag_78\n      jump\t// in\n    tag_116:\n        /* \"#utility.yul\":2010:2047   */\n      swap1\n      pop\n        /* \"#utility.yul\":2102:2106   */\n      0x20\n        /* \"#utility.yul\":2096:2100   */\n      dup2\n        /* \"#utility.yul\":2092:2107   */\n      add\n        /* \"#utility.yul\":2084:2107   */\n      swap1\n      pop\n        /* \"#utility.yul\":1807:2114   */\n      swap2\n      swap1\n      pop\n      jump\t// out\n        /* \"#utility.yul\":2120:2368   */\n    tag_83:\n        /* \"#utility.yul\":2202:2203   */\n      0x00\n        /* \"#utility.yul\":2212:2325   */\n    tag_118:\n        /* \"#utility.yul\":2226:2232   */\n      dup4\n        /* \"#utility.yul\":2223:2224   */\n      dup2\n        /* \"#utility.yul\":2220:2233   */\n      lt\n        /* \"#utility.yul\":2212:2325   */\n      iszero\n      tag_120\n      jumpi\n        /* \"#utility.yul\":2311:2312   */\n      dup1\n        /* \"#utility.yul\":2306:2309   */\n      dup3\n        /* \"#utility.yul\":2302:2313   */\n      add\n        /* \"#utility.yul\":2296:2314   */\n      mload\n        /* \"#utility.yul\":2292:2293   */\n      dup2\n        /* \"#utility.yul\":2287:2290   */\n      dup5\n        /* \"#utility.yul\":2283:2294   */\n      add\n        /* \"#utility.yul\":2276:2315   */\n      mstore\n        /* \"#utility.yul\":2248:2250   */\n      0x20\n        /* \"#utility.yul\":2245:2246   */\n      dup2\n        /* \"#utility.yul\":2241:2251   */\n      add\n        /* \"#utility.yul\":2236:2251   */\n      swap1\n      pop\n        /* \"#utility.yul\":2212:2325   */\n      jump(tag_118)\n    tag_120:\n        /* \"#utility.yul\":2359:2360   */\n      0x00\n        /* \"#utility.yul\":2350:2356   */\n      dup5\n        /* \"#utility.yul\":2345:2348   */\n      dup5\n        /* \"#utility.yul\":2341:2357   */\n      add\n        /* \"#utility.yul\":2334:2361   */\n      mstore\n        /* \"#utility.yul\":2182:2368   */\n      pop\n        /* \"#utility.yul\":2120:2368   */\n      pop\n      pop\n      pop\n      jump\t// out\n        /* \"#utility.yul\":2374:2806   */\n    tag_84:\n        /* \"#utility.yul\":2462:2467   */\n      0x00\n        /* \"#utility.yul\":2487:2552   */\n      tag_122\n        /* \"#utility.yul\":2503:2551   */\n      tag_123\n        /* \"#utility.yul\":2544:2550   */\n      dup5\n        /* \"#utility.yul\":2503:2551   */\n      tag_82\n      jump\t// in\n    tag_123:\n        /* \"#utility.yul\":2487:2552   */\n      tag_81\n      jump\t// in\n    tag_122:\n        /* \"#utility.yul\":2478:2552   */\n      swap1\n      pop\n        /* \"#utility.yul\":2575:2581   */\n      dup3\n        /* \"#utility.yul\":2568:2573   */\n      dup2\n        /* \"#utility.yul\":2561:2582   */\n      mstore\n        /* \"#utility.yul\":2613:2617   */\n      0x20\n        /* \"#utility.yul\":2606:2611   */\n      dup2\n        /* \"#utility.yul\":2602:2618   */\n      add\n        /* \"#utility.yul\":2651:2654   */\n      dup5\n        /* \"#utility.yul\":2642:2648   */\n      dup5\n        /* \"#utility.yul\":2637:2640   */\n      dup5\n        /* \"#utility.yul\":2633:2649   */\n      add\n        /* \"#utility.yul\":2630:2655   */\n      gt\n        /* \"#utility.yul\":2627:2739   */\n      iszero\n      tag_124\n      jumpi\n        /* \"#utility.yul\":2658:2737   */\n      tag_125\n      tag_77\n      jump\t// in\n    tag_125:\n        /* \"#utility.yul\":2627:2739   */\n    tag_124:\n        /* \"#utility.yul\":2748:2800   */\n      tag_126\n        /* \"#utility.yul\":2793:2799   */\n      dup5\n        /* \"#utility.yul\":2788:2791   */\n      dup3\n        /* \"#utility.yul\":2783:2786   */\n      dup6\n        /* \"#utility.yul\":2748:2800   */\n      tag_83\n      jump\t// in\n    tag_126:\n        /* \"#utility.yul\":2468:2806   */\n      pop\n        /* \"#utility.yul\":2374:2806   */\n      swap4\n      swap3\n      pop\n      pop\n      pop\n      jump\t// out\n        /* \"#utility.yul\":2825:3178   */\n    tag_85:\n        /* \"#utility.yul\":2891:2896   */\n      0x00\n        /* \"#utility.yul\":2940:2943   */\n      dup3\n        /* \"#utility.yul\":2933:2937   */\n      0x1f\n        /* \"#utility.yul\":2925:2931   */\n      dup4\n        /* \"#utility.yul\":2921:2938   */\n      add\n        /* \"#utility.yul\":2917:2944   */\n      slt\n        /* \"#utility.yul\":2907:3029   */\n      tag_128\n      jumpi\n        /* \"#utility.yul\":2948:3027   */\n      tag_129\n      tag_76\n      jump\t// in\n    tag_129:\n        /* \"#utility.yul\":2907:3029   */\n    tag_128:\n        /* \"#utility.yul\":3058:3064   */\n      dup2\n        /* \"#utility.yul\":3052:3065   */\n      mload\n        /* \"#utility.yul\":3083:3172   */\n      tag_130\n        /* \"#utility.yul\":3168:3171   */\n      dup5\n        /* \"#utility.yul\":3160:3166   */\n      dup3\n        /* \"#utility.yul\":3153:3157   */\n      0x20\n        /* \"#utility.yul\":3145:3151   */\n      dup7\n        /* \"#utility.yul\":3141:3158   */\n      add\n        /* \"#utility.yul\":3083:3172   */\n      tag_84\n      jump\t// in\n    tag_130:\n        /* \"#utility.yul\":3074:3172   */\n      swap2\n      pop\n        /* \"#utility.yul\":2897:3178   */\n      pop\n        /* \"#utility.yul\":2825:3178   */\n      swap3\n      swap2\n      pop\n      pop\n      jump\t// out\n        /* \"#utility.yul\":3184:4018   */\n    tag_2:\n        /* \"#utility.yul\":3281:3287   */\n      0x00\n        /* \"#utility.yul\":3289:3295   */\n      dup1\n        /* \"#utility.yul\":3297:3303   */\n      0x00\n        /* \"#utility.yul\":3346:3348   */\n      0x60\n        /* \"#utility.yul\":3334:3343   */\n      dup5\n        /* \"#utility.yul\":3325:3332   */\n      dup7\n        /* \"#utility.yul\":3321:3344   */\n      sub\n        /* \"#utility.yul\":3317:3349   */\n      slt\n        /* \"#utility.yul\":3314:3433   */\n      iszero\n      tag_132\n      jumpi\n        /* \"#utility.yul\":3352:3431   */\n      tag_133\n      tag_70\n      jump\t// in\n    tag_133:\n        /* \"#utility.yul\":3314:3433   */\n    tag_132:\n        /* \"#utility.yul\":3472:3473   */\n      0x00\n        /* \"#utility.yul\":3497:3561   */\n      tag_134\n        /* \"#utility.yul\":3553:3560   */\n      dup7\n        /* \"#utility.yul\":3544:3550   */\n      dup3\n        /* \"#utility.yul\":3533:3542   */\n      dup8\n        /* \"#utility.yul\":3529:3551   */\n      add\n        /* \"#utility.yul\":3497:3561   */\n      tag_75\n      jump\t// in\n    tag_134:\n        /* \"#utility.yul\":3487:3561   */\n      swap4\n      pop\n        /* \"#utility.yul\":3443:3571   */\n      pop\n        /* \"#utility.yul\":3610:3612   */\n      0x20\n        /* \"#utility.yul\":3636:3700   */\n      tag_135\n        /* \"#utility.yul\":3692:3699   */\n      dup7\n        /* \"#utility.yul\":3683:3689   */\n      dup3\n        /* \"#utility.yul\":3672:3681   */\n      dup8\n        /* \"#utility.yul\":3668:3690   */\n      add\n        /* \"#utility.yul\":3636:3700   */\n      tag_75\n      jump\t// in\n    tag_135:\n        /* \"#utility.yul\":3626:3700   */\n      swap3\n      pop\n        /* \"#utility.yul\":3581:3710   */\n      pop\n        /* \"#utility.yul\":3770:3772   */\n      0x40\n        /* \"#utility.yul\":3759:3768   */\n      dup5\n        /* \"#utility.yul\":3755:3773   */\n      add\n        /* \"#utility.yul\":3749:3774   */\n      mload\n        /* \"#utility.yul\":3801:3819   */\n      0xffffffffffffffff\n        /* \"#utility.yul\":3793:3799   */\n      dup2\n        /* \"#utility.yul\":3790:3820   */\n      gt\n        /* \"#utility.yul\":3787:3904   */\n      iszero\n      tag_136\n      jumpi\n        /* \"#utility.yul\":3823:3902   */\n      tag_137\n      tag_71\n      jump\t// in\n    tag_137:\n        /* \"#utility.yul\":3787:3904   */\n    tag_136:\n        /* \"#utility.yul\":3928:4001   */\n      tag_138\n        /* \"#utility.yul\":3993:4000   */\n      dup7\n        /* \"#utility.yul\":3984:3990   */\n      dup3\n        /* \"#utility.yul\":3973:3982   */\n      dup8\n        /* \"#utility.yul\":3969:3991   */\n      add\n        /* \"#utility.yul\":3928:4001   */\n      tag_85\n      jump\t// in\n    tag_138:\n        /* \"#utility.yul\":3918:4001   */\n      swap2\n      pop\n        /* \"#utility.yul\":3720:4011   */\n      pop\n        /* \"#utility.yul\":3184:4018   */\n      swap3\n      pop\n      swap3\n      pop\n      swap3\n      jump\t// out\n        /* \"#utility.yul\":4024:4142   */\n    tag_86:\n        /* \"#utility.yul\":4111:4135   */\n      tag_140\n        /* \"#utility.yul\":4129:4134   */\n      dup2\n        /* \"#utility.yul\":4111:4135   */\n      tag_73\n      jump\t// in\n    tag_140:\n        /* \"#utility.yul\":4106:4109   */\n      dup3\n        /* \"#utility.yul\":4099:4136   */\n      mstore\n        /* \"#utility.yul\":4024:4142   */\n      pop\n      pop\n      jump\t// out\n        /* \"#utility.yul\":4148:4370   */\n    tag_12:\n        /* \"#utility.yul\":4241:4245   */\n      0x00\n        /* \"#utility.yul\":4279:4281   */\n      0x20\n        /* \"#utility.yul\":4268:4277   */\n      dup3\n        /* \"#utility.yul\":4264:4282   */\n      add\n        /* \"#utility.yul\":4256:4282   */\n      swap1\n      pop\n        /* \"#utility.yul\":4292:4363   */\n      tag_142\n        /* \"#utility.yul\":4360:4361   */\n      0x00\n        /* \"#utility.yul\":4349:4358   */\n      dup4\n        /* \"#utility.yul\":4345:4362   */\n      add\n        /* \"#utility.yul\":4336:4342   */\n      dup5\n        /* \"#utility.yul\":4292:4363   */\n      tag_86\n      jump\t// in\n    tag_142:\n        /* \"#utility.yul\":4148:4370   */\n      swap3\n      swap2\n      pop\n      pop\n      jump\t// out\n        /* \"#utility.yul\":4376:4708   */\n    tag_33:\n        /* \"#utility.yul\":4497:4501   */\n      0x00\n        /* \"#utility.yul\":4535:4537   */\n      0x40\n        /* \"#utility.yul\":4524:4533   */\n      dup3\n        /* \"#utility.yul\":4520:4538   */\n      add\n        /* \"#utility.yul\":4512:4538   */\n      swap1\n      pop\n        /* \"#utility.yul\":4548:4619   */\n      tag_144\n        /* \"#utility.yul\":4616:4617   */\n      0x00\n        /* \"#utility.yul\":4605:4614   */\n      dup4\n        /* \"#utility.yul\":4601:4618   */\n      add\n        /* \"#utility.yul\":4592:4598   */\n      dup6\n        /* \"#utility.yul\":4548:4619   */\n      tag_86\n      jump\t// in\n    tag_144:\n        /* \"#utility.yul\":4629:4701   */\n      tag_145\n        /* \"#utility.yul\":4697:4699   */\n      0x20\n        /* \"#utility.yul\":4686:4695   */\n      dup4\n        /* \"#utility.yul\":4682:4700   */\n      add\n        /* \"#utility.yul\":4673:4679   */\n      dup5\n        /* \"#utility.yul\":4629:4701   */\n      tag_86\n      jump\t// in\n    tag_145:\n        /* \"#utility.yul\":4376:4708   */\n      swap4\n      swap3\n      pop\n      pop\n      pop\n      jump\t// out\n        /* \"#utility.yul\":4714:4812   */\n    tag_87:\n        /* \"#utility.yul\":4765:4771   */\n      0x00\n        /* \"#utility.yul\":4799:4804   */\n      dup2\n        /* \"#utility.yul\":4793:4805   */\n      mload\n        /* \"#utility.yul\":4783:4805   */\n      swap1\n      pop\n        /* \"#utility.yul\":4714:4812   */\n      swap2\n      swap1\n      pop\n      jump\t// out\n        /* \"#utility.yul\":4818:4965   */\n    tag_88:\n        /* \"#utility.yul\":4919:4930   */\n      0x00\n        /* \"#utility.yul\":4956:4959   */\n      dup2\n        /* \"#utility.yul\":4941:4959   */\n      swap1\n      pop\n        /* \"#utility.yul\":4818:4965   */\n      swap3\n      swap2\n      pop\n      pop\n      jump\t// out\n        /* \"#utility.yul\":4971:5357   */\n    tag_89:\n        /* \"#utility.yul\":5075:5078   */\n      0x00\n        /* \"#utility.yul\":5103:5141   */\n      tag_149\n        /* \"#utility.yul\":5135:5140   */\n      dup3\n        /* \"#utility.yul\":5103:5141   */\n      tag_87\n      jump\t// in\n    tag_149:\n        /* \"#utility.yul\":5157:5245   */\n      tag_150\n        /* \"#utility.yul\":5238:5244   */\n      dup2\n        /* \"#utility.yul\":5233:5236   */\n      dup6\n        /* \"#utility.yul\":5157:5245   */\n      tag_88\n      jump\t// in\n    tag_150:\n        /* \"#utility.yul\":5150:5245   */\n      swap4\n      pop\n        /* \"#utility.yul\":5254:5319   */\n      tag_151\n        /* \"#utility.yul\":5312:5318   */\n      dup2\n        /* \"#utility.yul\":5307:5310   */\n      dup6\n        /* \"#utility.yul\":5300:5304   */\n      0x20\n        /* \"#utility.yul\":5293:5298   */\n      dup7\n        /* \"#utility.yul\":5289:5305   */\n      add\n        /* \"#utility.yul\":5254:5319   */\n      tag_83\n      jump\t// in\n    tag_151:\n        /* \"#utility.yul\":5344:5350   */\n      dup1\n        /* \"#utility.yul\":5339:5342   */\n      dup5\n        /* \"#utility.yul\":5335:5351   */\n      add\n        /* \"#utility.yul\":5328:5351   */\n      swap2\n      pop\n        /* \"#utility.yul\":5079:5357   */\n      pop\n        /* \"#utility.yul\":4971:5357   */\n      swap3\n      swap2\n      pop\n      pop\n      jump\t// out\n        /* \"#utility.yul\":5363:5634   */\n    tag_43:\n        /* \"#utility.yul\":5493:5496   */\n      0x00\n        /* \"#utility.yul\":5515:5608   */\n      tag_153\n        /* \"#utility.yul\":5604:5607   */\n      dup3\n        /* \"#utility.yul\":5595:5601   */\n      dup5\n        /* \"#utility.yul\":5515:5608   */\n      tag_89\n      jump\t// in\n    tag_153:\n        /* \"#utility.yul\":5508:5608   */\n      swap2\n      pop\n        /* \"#utility.yul\":5625:5628   */\n      dup2\n        /* \"#utility.yul\":5618:5628   */\n      swap1\n      pop\n        /* \"#utility.yul\":5363:5634   */\n      swap3\n      swap2\n      pop\n      pop\n      jump\t// out\n        /* \"@openzeppelin/contracts/proxy/transparent/TransparentUpgradeableProxy.sol\":4314:6545  contract TransparentUpgradeableProxy is ERC1967Proxy {... */\n    tag_18:\n      mload(0x80)\n      codecopy(0x00, dataOffset(sub_0), dataSize(sub_0))\n      0x00\n      assignImmutable(\"0x954b846e373da6e2d86e60934c6fb4929a5d4ad23ca448303f22db28783db296\")\n      return(0x00, dataSize(sub_0))\n    stop\n\n    sub_0: assembly {\n            /* \"@openzeppelin/contracts/proxy/transparent/TransparentUpgradeableProxy.sol\":4314:6545  contract TransparentUpgradeableProxy is ERC1967Proxy {... */\n          mstore(0x40, 0x80)\n            /* \"@openzeppelin/contracts/proxy/Proxy.sol\":2649:2660  _fallback() */\n          tag_5\n            /* \"@openzeppelin/contracts/proxy/Proxy.sol\":2649:2658  _fallback */\n          tag_6\n            /* \"@openzeppelin/contracts/proxy/Proxy.sol\":2649:2660  _fallback() */\n          jump\t// in\n        tag_5:\n            /* \"@openzeppelin/contracts/proxy/transparent/TransparentUpgradeableProxy.sol\":4314:6545  contract TransparentUpgradeableProxy is ERC1967Proxy {... */\n          stop\n            /* \"@openzeppelin/contracts/proxy/transparent/TransparentUpgradeableProxy.sol\":5755:6124  function _fallback() internal virtual override {... */\n        tag_6:\n            /* \"@openzeppelin/contracts/proxy/transparent/TransparentUpgradeableProxy.sol\":5830:5843  _proxyAdmin() */\n          tag_8\n            /* \"@openzeppelin/contracts/proxy/transparent/TransparentUpgradeableProxy.sol\":5830:5841  _proxyAdmin */\n          tag_9\n            /* \"@openzeppelin/contracts/proxy/transparent/TransparentUpgradeableProxy.sol\":5830:5843  _proxyAdmin() */\n          jump\t// in\n        tag_8:\n            /* \"@openzeppelin/contracts/proxy/transparent/TransparentUpgradeableProxy.sol\":5816:5843  msg.sender == _proxyAdmin() */\n          0xffffffffffffffffffffffffffffffffffffffff\n          and\n            /* \"@openzeppelin/contracts/proxy/transparent/TransparentUpgradeableProxy.sol\":5816:5826  msg.sender */\n          caller\n            /* \"@openzeppelin/contracts/proxy/transparent/TransparentUpgradeableProxy.sol\":5816:5843  msg.sender == _proxyAdmin() */\n          0xffffffffffffffffffffffffffffffffffffffff\n          and\n          sub\n            /* \"@openzeppelin/contracts/proxy/transparent/TransparentUpgradeableProxy.sol\":5812:6118  if (msg.sender == _proxyAdmin()) {... */\n          tag_10\n          jumpi\n            /* \"@openzeppelin/contracts/proxy/transparent/TransparentUpgradeableProxy.sol\":5874:5928  ITransparentUpgradeableProxy.upgradeToAndCall.selector */\n          shl(0xe0, 0x4f1ef286)\n            /* \"@openzeppelin/contracts/proxy/transparent/TransparentUpgradeableProxy.sol\":5863:5928  msg.sig != ITransparentUpgradeableProxy.upgradeToAndCall.selector */\n          not(0xffffffffffffffffffffffffffffffffffffffffffffffffffffffff)\n          and\n            /* \"@openzeppelin/contracts/proxy/transparent/TransparentUpgradeableProxy.sol\":5863:5870  msg.sig */\n          and(0xffffffff00000000000000000000000000000000000000000000000000000000, calldataload(0x00))\n            /* \"@openzeppelin/contracts/proxy/transparent/TransparentUpgradeableProxy.sol\":5863:5928  msg.sig != ITransparentUpgradeableProxy.upgradeToAndCall.selector */\n          not(0xffffffffffffffffffffffffffffffffffffffffffffffffffffffff)\n          and\n          eq\n            /* \"@openzeppelin/contracts/proxy/transparent/TransparentUpgradeableProxy.sol\":5859:6060  if (msg.sig != ITransparentUpgradeableProxy.upgradeToAndCall.selector) {... */\n          tag_11\n          jumpi\n            /* \"@openzeppelin/contracts/proxy/transparent/TransparentUpgradeableProxy.sol\":5955:5979  ProxyDeniedAdminAccess() */\n          mload(0x40)\n          0xd2b576ec00000000000000000000000000000000000000000000000000000000\n          dup2\n          mstore\n          0x04\n          add\n          mload(0x40)\n          dup1\n          swap2\n          sub\n          swap1\n          revert\n            /* \"@openzeppelin/contracts/proxy/transparent/TransparentUpgradeableProxy.sol\":5859:6060  if (msg.sig != ITransparentUpgradeableProxy.upgradeToAndCall.selector) {... */\n        tag_11:\n            /* \"@openzeppelin/contracts/proxy/transparent/TransparentUpgradeableProxy.sol\":6018:6045  _dispatchUpgradeToAndCall() */\n          tag_13\n            /* \"@openzeppelin/contracts/proxy/transparent/TransparentUpgradeableProxy.sol\":6018:6043  _dispatchUpgradeToAndCall */\n          tag_14\n            /* \"@openzeppelin/contracts/proxy/transparent/TransparentUpgradeableProxy.sol\":6018:6045  _dispatchUpgradeToAndCall() */\n          jump\t// in\n        tag_13:\n            /* \"@openzeppelin/contracts/proxy/transparent/TransparentUpgradeableProxy.sol\":5812:6118  if (msg.sender == _proxyAdmin()) {... */\n          jump(tag_15)\n        tag_10:\n            /* \"@openzeppelin/contracts/proxy/transparent/TransparentUpgradeableProxy.sol\":6090:6107  super._fallback() */\n          tag_16\n            /* \"@openzeppelin/contracts/proxy/transparent/TransparentUpgradeableProxy.sol\":6090:6105  super._fallback */\n          tag_17\n            /* \"@openzeppelin/contracts/proxy/transparent/TransparentUpgradeableProxy.sol\":6090:6107  super._fallback() */\n          jump\t// in\n        tag_16:\n            /* \"@openzeppelin/contracts/proxy/transparent/TransparentUpgradeableProxy.sol\":5812:6118  if (msg.sender == _proxyAdmin()) {... */\n        tag_15:\n            /* \"@openzeppelin/contracts/proxy/transparent/TransparentUpgradeableProxy.sol\":5755:6124  function _fallback() internal virtual override {... */\n          jump\t// out\n            /* \"@openzeppelin/contracts/proxy/transparent/TransparentUpgradeableProxy.sol\":5520:5613  function _proxyAdmin() internal view virtual returns (address) {... */\n        tag_9:\n            /* \"@openzeppelin/contracts/proxy/transparent/TransparentUpgradeableProxy.sol\":5574:5581  address */\n          0x00\n            /* \"@openzeppelin/contracts/proxy/transparent/TransparentUpgradeableProxy.sol\":5600:5606  _admin */\n          immutable(\"0x954b846e373da6e2d86e60934c6fb4929a5d4ad23ca448303f22db28783db296\")\n            /* \"@openzeppelin/contracts/proxy/transparent/TransparentUpgradeableProxy.sol\":5593:5606  return _admin */\n          swap1\n          pop\n            /* \"@openzeppelin/contracts/proxy/transparent/TransparentUpgradeableProxy.sol\":5520:5613  function _proxyAdmin() internal view virtual returns (address) {... */\n          swap1\n          jump\t// out\n            /* \"@openzeppelin/contracts/proxy/transparent/TransparentUpgradeableProxy.sol\":6326:6543  function _dispatchUpgradeToAndCall() private {... */\n        tag_14:\n            /* \"@openzeppelin/contracts/proxy/transparent/TransparentUpgradeableProxy.sol\":6382:6407  address newImplementation */\n          0x00\n            /* \"@openzeppelin/contracts/proxy/transparent/TransparentUpgradeableProxy.sol\":6409:6426  bytes memory data */\n          dup1\n            /* \"@openzeppelin/contracts/proxy/transparent/TransparentUpgradeableProxy.sol\":6441:6449  msg.data */\n          0x00\n          calldatasize\n            /* \"@openzeppelin/contracts/proxy/transparent/TransparentUpgradeableProxy.sol\":6450:6451  4 */\n          0x04\n            /* \"@openzeppelin/contracts/proxy/transparent/TransparentUpgradeableProxy.sol\":6441:6453  msg.data[4:] */\n          swap1\n          dup1\n          swap3\n          tag_20\n          swap4\n          swap3\n          swap2\n          swap1\n          tag_21\n          jump\t// in\n        tag_20:\n            /* \"@openzeppelin/contracts/proxy/transparent/TransparentUpgradeableProxy.sol\":6430:6472  abi.decode(msg.data[4:], (address, bytes)) */\n          dup2\n          add\n          swap1\n          tag_22\n          swap2\n          swap1\n          tag_23\n          jump\t// in\n        tag_22:\n            /* \"@openzeppelin/contracts/proxy/transparent/TransparentUpgradeableProxy.sol\":6381:6472  (address newImplementation, bytes memory data) = abi.decode(msg.data[4:], (address, bytes)) */\n          swap2\n          pop\n          swap2\n          pop\n            /* \"@openzeppelin/contracts/proxy/transparent/TransparentUpgradeableProxy.sol\":6482:6536  ERC1967Utils.upgradeToAndCall(newImplementation, data) */\n          tag_24\n            /* \"@openzeppelin/contracts/proxy/transparent/TransparentUpgradeableProxy.sol\":6512:6529  newImplementation */\n          dup3\n            /* \"@openzeppelin/contracts/proxy/transparent/TransparentUpgradeableProxy.sol\":6531:6535  data */\n          dup3\n            /* \"@openzeppelin/contracts/proxy/transparent/TransparentUpgradeableProxy.sol\":6482:6511  ERC1967Utils.upgradeToAndCall */\n          tag_25\n            /* \"@openzeppelin/contracts/proxy/transparent/TransparentUpgradeableProxy.sol\":6482:6536  ERC1967Utils.upgradeToAndCall(newImplementation, data) */\n          jump\t// in\n        tag_24:\n            /* \"@openzeppelin/contracts/proxy/transparent/TransparentUpgradeableProxy.sol\":6371:6543  {... */\n          pop\n          pop\n            /* \"@openzeppelin/contracts/proxy/transparent/TransparentUpgradeableProxy.sol\":6326:6543  function _dispatchUpgradeToAndCall() private {... */\n          jump\t// out\n            /* \"@openzeppelin/contracts/proxy/Proxy.sol\":2323:2406  function _fallback() internal virtual {... */\n        tag_17:\n            /* \"@openzeppelin/contracts/proxy/Proxy.sol\":2371:2399  _delegate(_implementation()) */\n          tag_27\n            /* \"@openzeppelin/contracts/proxy/Proxy.sol\":2381:2398  _implementation() */\n          tag_28\n            /* \"@openzeppelin/contracts/proxy/Proxy.sol\":2381:2396  _implementation */\n          tag_29\n            /* \"@openzeppelin/contracts/proxy/Proxy.sol\":2381:2398  _implementation() */\n          jump\t// in\n        tag_28:\n            /* \"@openzeppelin/contracts/proxy/Proxy.sol\":2371:2380  _delegate */\n          tag_30\n            /* \"@openzeppelin/contracts/proxy/Proxy.sol\":2371:2399  _delegate(_implementation()) */\n          jump\t// in\n        tag_27:\n            /* \"@openzeppelin/contracts/proxy/Proxy.sol\":2323:2406  function _fallback() internal virtual {... */\n          jump\t// out\n            /* \"@openzeppelin/contracts/proxy/ERC1967/ERC1967Utils.sol\":2264:2608  function upgradeToAndCall(address newImplementation, bytes memory data) internal {... */\n        tag_25:\n            /* \"@openzeppelin/contracts/proxy/ERC1967/ERC1967Utils.sol\":2355:2392  _setImplementation(newImplementation) */\n          tag_32\n            /* \"@openzeppelin/contracts/proxy/ERC1967/ERC1967Utils.sol\":2374:2391  newImplementation */\n          dup3\n            /* \"@openzeppelin/contracts/proxy/ERC1967/ERC1967Utils.sol\":2355:2373  _setImplementation */\n          tag_33\n            /* \"@openzeppelin/contracts/proxy/ERC1967/ERC1967Utils.sol\":2355:2392  _setImplementation(newImplementation) */\n          jump\t// in\n        tag_32:\n            /* \"@openzeppelin/contracts/proxy/ERC1967/ERC1967Utils.sol\":2425:2442  newImplementation */\n          dup2\n            /* \"@openzeppelin/contracts/proxy/ERC1967/ERC1967Utils.sol\":2407:2443  IERC1967.Upgraded(newImplementation) */\n          0xffffffffffffffffffffffffffffffffffffffff\n          and\n          0xbc7cd75a20ee27fd9adebab32041f755214dbc6bffa90cc0225b39da2e5c2d3b\n          mload(0x40)\n          mload(0x40)\n          dup1\n          swap2\n          sub\n          swap1\n          log2\n            /* \"@openzeppelin/contracts/proxy/ERC1967/ERC1967Utils.sol\":2472:2473  0 */\n          0x00\n            /* \"@openzeppelin/contracts/proxy/ERC1967/ERC1967Utils.sol\":2458:2462  data */\n          dup2\n            /* \"@openzeppelin/contracts/proxy/ERC1967/ERC1967Utils.sol\":2458:2469  data.length */\n          mload\n            /* \"@openzeppelin/contracts/proxy/ERC1967/ERC1967Utils.sol\":2458:2473  data.length > 0 */\n          gt\n            /* \"@openzeppelin/contracts/proxy/ERC1967/ERC1967Utils.sol\":2454:2602  if (data.length > 0) {... */\n          iszero\n          tag_34\n          jumpi\n            /* \"@openzeppelin/contracts/proxy/ERC1967/ERC1967Utils.sol\":2489:2542  Address.functionDelegateCall(newImplementation, data) */\n          tag_35\n            /* \"@openzeppelin/contracts/proxy/ERC1967/ERC1967Utils.sol\":2518:2535  newImplementation */\n          dup3\n            /* \"@openzeppelin/contracts/proxy/ERC1967/ERC1967Utils.sol\":2537:2541  data */\n          dup3\n            /* \"@openzeppelin/contracts/proxy/ERC1967/ERC1967Utils.sol\":2489:2517  Address.functionDelegateCall */\n          tag_36\n            /* \"@openzeppelin/contracts/proxy/ERC1967/ERC1967Utils.sol\":2489:2542  Address.functionDelegateCall(newImplementation, data) */\n          jump\t// in\n        tag_35:\n          pop\n            /* \"@openzeppelin/contracts/proxy/ERC1967/ERC1967Utils.sol\":2454:2602  if (data.length > 0) {... */\n          jump(tag_37)\n        tag_34:\n            /* \"@openzeppelin/contracts/proxy/ERC1967/ERC1967Utils.sol\":2573:2591  _checkNonPayable() */\n          tag_38\n            /* \"@openzeppelin/contracts/proxy/ERC1967/ERC1967Utils.sol\":2573:2589  _checkNonPayable */\n          tag_39\n            /* \"@openzeppelin/contracts/proxy/ERC1967/ERC1967Utils.sol\":2573:2591  _checkNonPayable() */\n          jump\t// in\n        tag_38:\n            /* \"@openzeppelin/contracts/proxy/ERC1967/ERC1967Utils.sol\":2454:2602  if (data.length > 0) {... */\n        tag_37:\n            /* \"@openzeppelin/contracts/proxy/ERC1967/ERC1967Utils.sol\":2264:2608  function upgradeToAndCall(address newImplementation, bytes memory data) internal {... */\n          pop\n          pop\n          jump\t// out\n            /* \"@openzeppelin/contracts/proxy/ERC1967/ERC1967Proxy.sol\":1583:1715  function _implementation() internal view virtual override returns (address) {... */\n        tag_29:\n            /* \"@openzeppelin/contracts/proxy/ERC1967/ERC1967Proxy.sol\":1650:1657  address */\n          0x00\n            /* \"@openzeppelin/contracts/proxy/ERC1967/ERC1967Proxy.sol\":1676:1708  ERC1967Utils.getImplementation() */\n          tag_41\n            /* \"@openzeppelin/contracts/proxy/ERC1967/ERC1967Proxy.sol\":1676:1706  ERC1967Utils.getImplementation */\n          tag_42\n            /* \"@openzeppelin/contracts/proxy/ERC1967/ERC1967Proxy.sol\":1676:1708  ERC1967Utils.getImplementation() */\n          jump\t// in\n        tag_41:\n            /* \"@openzeppelin/contracts/proxy/ERC1967/ERC1967Proxy.sol\":1669:1708  return ERC1967Utils.getImplementation() */\n          swap1\n          pop\n            /* \"@openzeppelin/contracts/proxy/ERC1967/ERC1967Proxy.sol\":1583:1715  function _implementation() internal view virtual override returns (address) {... */\n          swap1\n          jump\t// out\n            /* \"@openzeppelin/contracts/proxy/Proxy.sol\":949:1844  function _delegate(address implementation) internal virtual {... */\n        tag_30:\n            /* \"@openzeppelin/contracts/proxy/Proxy.sol\":1287:1301  calldatasize() */\n          calldatasize\n            /* \"@openzeppelin/contracts/proxy/Proxy.sol\":1284:1285  0 */\n          0x00\n            /* \"@openzeppelin/contracts/proxy/Proxy.sol\":1281:1282  0 */\n          dup1\n            /* \"@openzeppelin/contracts/proxy/Proxy.sol\":1268:1302  calldatacopy(0, 0, calldatasize()) */\n          calldatacopy\n            /* \"@openzeppelin/contracts/proxy/Proxy.sol\":1501:1502  0 */\n          0x00\n            /* \"@openzeppelin/contracts/proxy/Proxy.sol\":1498:1499  0 */\n          dup1\n            /* \"@openzeppelin/contracts/proxy/Proxy.sol\":1482:1496  calldatasize() */\n          calldatasize\n            /* \"@openzeppelin/contracts/proxy/Proxy.sol\":1479:1480  0 */\n          0x00\n            /* \"@openzeppelin/contracts/proxy/Proxy.sol\":1463:1477  implementation */\n          dup5\n            /* \"@openzeppelin/contracts/proxy/Proxy.sol\":1456:1461  gas() */\n          gas\n            /* \"@openzeppelin/contracts/proxy/Proxy.sol\":1443:1503  delegatecall(gas(), implementation, 0, calldatasize(), 0, 0) */\n          delegatecall\n            /* \"@openzeppelin/contracts/proxy/Proxy.sol\":1577:1593  returndatasize() */\n          returndatasize\n            /* \"@openzeppelin/contracts/proxy/Proxy.sol\":1574:1575  0 */\n          0x00\n            /* \"@openzeppelin/contracts/proxy/Proxy.sol\":1571:1572  0 */\n          dup1\n            /* \"@openzeppelin/contracts/proxy/Proxy.sol\":1556:1594  returndatacopy(0, 0, returndatasize()) */\n          returndatacopy\n            /* \"@openzeppelin/contracts/proxy/Proxy.sol\":1615:1621  result */\n          dup1\n            /* \"@openzeppelin/contracts/proxy/Proxy.sol\":1687:1688  0 */\n          0x00\n            /* \"@openzeppelin/contracts/proxy/Proxy.sol\":1682:1748  case 0 {... */\n          dup2\n          eq\n          tag_45\n          jumpi\n            /* \"@openzeppelin/contracts/proxy/Proxy.sol\":1797:1813  returndatasize() */\n          returndatasize\n            /* \"@openzeppelin/contracts/proxy/Proxy.sol\":1794:1795  0 */\n          0x00\n            /* \"@openzeppelin/contracts/proxy/Proxy.sol\":1787:1814  return(0, returndatasize()) */\n          return\n            /* \"@openzeppelin/contracts/proxy/Proxy.sol\":1682:1748  case 0 {... */\n        tag_45:\n            /* \"@openzeppelin/contracts/proxy/Proxy.sol\":1717:1733  returndatasize() */\n          returndatasize\n            /* \"@openzeppelin/contracts/proxy/Proxy.sol\":1714:1715  0 */\n          0x00\n            /* \"@openzeppelin/contracts/proxy/Proxy.sol\":1707:1734  revert(0, returndatasize()) */\n          revert\n            /* \"@openzeppelin/contracts/proxy/ERC1967/ERC1967Utils.sol\":1671:1952  function _setImplementation(address newImplementation) private {... */\n        tag_33:\n            /* \"@openzeppelin/contracts/proxy/ERC1967/ERC1967Utils.sol\":1781:1782  0 */\n          0x00\n            /* \"@openzeppelin/contracts/proxy/ERC1967/ERC1967Utils.sol\":1748:1765  newImplementation */\n          dup2\n            /* \"@openzeppelin/contracts/proxy/ERC1967/ERC1967Utils.sol\":1748:1777  newImplementation.code.length */\n          0xffffffffffffffffffffffffffffffffffffffff\n          and\n          extcodesize\n            /* \"@openzeppelin/contracts/proxy/ERC1967/ERC1967Utils.sol\":1748:1782  newImplementation.code.length == 0 */\n          sub\n            /* \"@openzeppelin/contracts/proxy/ERC1967/ERC1967Utils.sol\":1744:1863  if (newImplementation.code.length == 0) {... */\n          tag_47\n          jumpi\n            /* \"@openzeppelin/contracts/proxy/ERC1967/ERC1967Utils.sol\":1834:1851  newImplementation */\n          dup1\n            /* \"@openzeppelin/contracts/proxy/ERC1967/ERC1967Utils.sol\":1805:1852  ERC1967InvalidImplementation(newImplementation) */\n          mload(0x40)\n          0x4c9c8ce300000000000000000000000000000000000000000000000000000000\n          dup2\n          mstore\n          0x04\n          add\n          tag_48\n          swap2\n          swap1\n          tag_49\n          jump\t// in\n        tag_48:\n          mload(0x40)\n          dup1\n          swap2\n          sub\n          swap1\n          revert\n            /* \"@openzeppelin/contracts/proxy/ERC1967/ERC1967Utils.sol\":1744:1863  if (newImplementation.code.length == 0) {... */\n        tag_47:\n            /* \"@openzeppelin/contracts/proxy/ERC1967/ERC1967Utils.sol\":1928:1945  newImplementation */\n          dup1\n            /* \"@openzeppelin/contracts/proxy/ERC1967/ERC1967Utils.sol\":1872:1919  StorageSlot.getAddressSlot(IMPLEMENTATION_SLOT) */\n          tag_50\n            /* \"@openzeppelin/contracts/proxy/ERC1967/ERC1967Utils.sol\":811:877  0x360894a13ba1a3210667c828492db98dca3e2076cc3735a920a3ca505d382bbc */\n          0x360894a13ba1a3210667c828492db98dca3e2076cc3735a920a3ca505d382bbc\n            /* \"@openzeppelin/contracts/proxy/ERC1967/ERC1967Utils.sol\":1899:1918  IMPLEMENTATION_SLOT */\n          0x00\n          shl\n            /* \"@openzeppelin/contracts/proxy/ERC1967/ERC1967Utils.sol\":1872:1898  StorageSlot.getAddressSlot */\n          tag_51\n            /* \"@openzeppelin/contracts/proxy/ERC1967/ERC1967Utils.sol\":1872:1919  StorageSlot.getAddressSlot(IMPLEMENTATION_SLOT) */\n          jump\t// in\n        tag_50:\n            /* \"@openzeppelin/contracts/proxy/ERC1967/ERC1967Utils.sol\":1872:1925  StorageSlot.getAddressSlot(IMPLEMENTATION_SLOT).value */\n          0x00\n          add\n          0x00\n            /* \"@openzeppelin/contracts/proxy/ERC1967/ERC1967Utils.sol\":1872:1945  StorageSlot.getAddressSlot(IMPLEMENTATION_SLOT).value = newImplementation */\n          0x0100\n          exp\n          dup2\n          sload\n          dup2\n          0xffffffffffffffffffffffffffffffffffffffff\n          mul\n          not\n          and\n          swap1\n          dup4\n          0xffffffffffffffffffffffffffffffffffffffff\n          and\n          mul\n          or\n          swap1\n          sstore\n          pop\n            /* \"@openzeppelin/contracts/proxy/ERC1967/ERC1967Utils.sol\":1671:1952  function _setImplementation(address newImplementation) private {... */\n          pop\n          jump\t// out\n            /* \"@openzeppelin/contracts/utils/Address.sol\":3900:4153  function functionDelegateCall(address target, bytes memory data) internal returns (bytes memory) {... */\n        tag_36:\n            /* \"@openzeppelin/contracts/utils/Address.sol\":3983:3995  bytes memory */\n          0x60\n            /* \"@openzeppelin/contracts/utils/Address.sol\":4008:4020  bool success */\n          0x00\n            /* \"@openzeppelin/contracts/utils/Address.sol\":4022:4045  bytes memory returndata */\n          dup1\n            /* \"@openzeppelin/contracts/utils/Address.sol\":4049:4055  target */\n          dup5\n            /* \"@openzeppelin/contracts/utils/Address.sol\":4049:4068  target.delegatecall */\n          0xffffffffffffffffffffffffffffffffffffffff\n          and\n            /* \"@openzeppelin/contracts/utils/Address.sol\":4069:4073  data */\n          dup5\n            /* \"@openzeppelin/contracts/utils/Address.sol\":4049:4074  target.delegatecall(data) */\n          mload(0x40)\n          tag_53\n          swap2\n          swap1\n          tag_54\n          jump\t// in\n        tag_53:\n          0x00\n          mload(0x40)\n          dup1\n          dup4\n          sub\n          dup2\n          dup6\n          gas\n          delegatecall\n          swap2\n          pop\n          pop\n          returndatasize\n          dup1\n          0x00\n          dup2\n          eq\n          tag_57\n          jumpi\n          mload(0x40)\n          swap2\n          pop\n          and(add(returndatasize, 0x3f), not(0x1f))\n          dup3\n          add\n          0x40\n          mstore\n          returndatasize\n          dup3\n          mstore\n          returndatasize\n          0x00\n          0x20\n          dup5\n          add\n          returndatacopy\n          jump(tag_56)\n        tag_57:\n          0x60\n          swap2\n          pop\n        tag_56:\n          pop\n            /* \"@openzeppelin/contracts/utils/Address.sol\":4007:4074  (bool success, bytes memory returndata) = target.delegatecall(data) */\n          swap2\n          pop\n          swap2\n          pop\n            /* \"@openzeppelin/contracts/utils/Address.sol\":4091:4146  verifyCallResultFromTarget(target, success, returndata) */\n          tag_58\n            /* \"@openzeppelin/contracts/utils/Address.sol\":4118:4124  target */\n          dup6\n            /* \"@openzeppelin/contracts/utils/Address.sol\":4126:4133  success */\n          dup4\n            /* \"@openzeppelin/contracts/utils/Address.sol\":4135:4145  returndata */\n          dup4\n            /* \"@openzeppelin/contracts/utils/Address.sol\":4091:4117  verifyCallResultFromTarget */\n          tag_59\n            /* \"@openzeppelin/contracts/utils/Address.sol\":4091:4146  verifyCallResultFromTarget(target, success, returndata) */\n          jump\t// in\n        tag_58:\n            /* \"@openzeppelin/contracts/utils/Address.sol\":4084:4146  return verifyCallResultFromTarget(target, success, returndata) */\n          swap3\n          pop\n          pop\n          pop\n            /* \"@openzeppelin/contracts/utils/Address.sol\":3900:4153  function functionDelegateCall(address target, bytes memory data) internal returns (bytes memory) {... */\n          swap3\n          swap2\n          pop\n          pop\n          jump\t// out\n            /* \"@openzeppelin/contracts/proxy/ERC1967/ERC1967Utils.sol\":6113:6235  function _checkNonPayable() private {... */\n        tag_39:\n            /* \"@openzeppelin/contracts/proxy/ERC1967/ERC1967Utils.sol\":6175:6176  0 */\n          0x00\n            /* \"@openzeppelin/contracts/proxy/ERC1967/ERC1967Utils.sol\":6163:6172  msg.value */\n          callvalue\n            /* \"@openzeppelin/contracts/proxy/ERC1967/ERC1967Utils.sol\":6163:6176  msg.value > 0 */\n          gt\n            /* \"@openzeppelin/contracts/proxy/ERC1967/ERC1967Utils.sol\":6159:6229  if (msg.value > 0) {... */\n          iszero\n          tag_61\n          jumpi\n            /* \"@openzeppelin/contracts/proxy/ERC1967/ERC1967Utils.sol\":6199:6218  ERC1967NonPayable() */\n          mload(0x40)\n          0xb398979f00000000000000000000000000000000000000000000000000000000\n          dup2\n          mstore\n          0x04\n          add\n          mload(0x40)\n          dup1\n          swap2\n          sub\n          swap1\n          revert\n            /* \"@openzeppelin/contracts/proxy/ERC1967/ERC1967Utils.sol\":6159:6229  if (msg.value > 0) {... */\n        tag_61:\n            /* \"@openzeppelin/contracts/proxy/ERC1967/ERC1967Utils.sol\":6113:6235  function _checkNonPayable() private {... */\n          jump\t// out\n            /* \"@openzeppelin/contracts/proxy/ERC1967/ERC1967Utils.sol\":1441:1579  function getImplementation() internal view returns (address) {... */\n        tag_42:\n            /* \"@openzeppelin/contracts/proxy/ERC1967/ERC1967Utils.sol\":1493:1500  address */\n          0x00\n            /* \"@openzeppelin/contracts/proxy/ERC1967/ERC1967Utils.sol\":1519:1566  StorageSlot.getAddressSlot(IMPLEMENTATION_SLOT) */\n          tag_63\n            /* \"@openzeppelin/contracts/proxy/ERC1967/ERC1967Utils.sol\":811:877  0x360894a13ba1a3210667c828492db98dca3e2076cc3735a920a3ca505d382bbc */\n          0x360894a13ba1a3210667c828492db98dca3e2076cc3735a920a3ca505d382bbc\n            /* \"@openzeppelin/contracts/proxy/ERC1967/ERC1967Utils.sol\":1546:1565  IMPLEMENTATION_SLOT */\n          0x00\n          shl\n            /* \"@openzeppelin/contracts/proxy/ERC1967/ERC1967Utils.sol\":1519:1545  StorageSlot.getAddressSlot */\n          tag_51\n            /* \"@openzeppelin/contracts/proxy/ERC1967/ERC1967Utils.sol\":1519:1566  StorageSlot.getAddressSlot(IMPLEMENTATION_SLOT) */\n          jump\t// in\n        tag_63:\n            /* \"@openzeppelin/contracts/proxy/ERC1967/ERC1967Utils.sol\":1519:1572  StorageSlot.getAddressSlot(IMPLEMENTATION_SLOT).value */\n          0x00\n          add\n          0x00\n          swap1\n          sload\n          swap1\n          0x0100\n          exp\n          swap1\n          div\n          0xffffffffffffffffffffffffffffffffffffffff\n          and\n            /* \"@openzeppelin/contracts/proxy/ERC1967/ERC1967Utils.sol\":1512:1572  return StorageSlot.getAddressSlot(IMPLEMENTATION_SLOT).value */\n          swap1\n          pop\n            /* \"@openzeppelin/contracts/proxy/ERC1967/ERC1967Utils.sol\":1441:1579  function getImplementation() internal view returns (address) {... */\n          swap1\n          jump\t// out\n            /* \"@openzeppelin/contracts/utils/StorageSlot.sol\":1899:2062  function getAddressSlot(bytes32 slot) internal pure returns (AddressSlot storage r) {... */\n        tag_51:\n            /* \"@openzeppelin/contracts/utils/StorageSlot.sol\":1960:1981  AddressSlot storage r */\n          0x00\n            /* \"@openzeppelin/contracts/utils/StorageSlot.sol\":2042:2046  slot */\n          dup2\n            /* \"@openzeppelin/contracts/utils/StorageSlot.sol\":2032:2046  r.slot := slot */\n          swap1\n          pop\n            /* \"@openzeppelin/contracts/utils/StorageSlot.sol\":1899:2062  function getAddressSlot(bytes32 slot) internal pure returns (AddressSlot storage r) {... */\n          swap2\n          swap1\n          pop\n          jump\t// out\n            /* \"@openzeppelin/contracts/utils/Address.sol\":4421:5003  function verifyCallResultFromTarget(... */\n        tag_59:\n            /* \"@openzeppelin/contracts/utils/Address.sol\":4565:4577  bytes memory */\n          0x60\n            /* \"@openzeppelin/contracts/utils/Address.sol\":4594:4601  success */\n          dup3\n            /* \"@openzeppelin/contracts/utils/Address.sol\":4589:4997  if (!success) {... */\n          tag_66\n          jumpi\n            /* \"@openzeppelin/contracts/utils/Address.sol\":4617:4636  _revert(returndata) */\n          tag_67\n            /* \"@openzeppelin/contracts/utils/Address.sol\":4625:4635  returndata */\n          dup3\n            /* \"@openzeppelin/contracts/utils/Address.sol\":4617:4624  _revert */\n          tag_68\n            /* \"@openzeppelin/contracts/utils/Address.sol\":4617:4636  _revert(returndata) */\n          jump\t// in\n        tag_67:\n            /* \"@openzeppelin/contracts/utils/Address.sol\":4589:4997  if (!success) {... */\n          jump(tag_69)\n        tag_66:\n            /* \"@openzeppelin/contracts/utils/Address.sol\":4862:4863  0 */\n          0x00\n            /* \"@openzeppelin/contracts/utils/Address.sol\":4841:4851  returndata */\n          dup3\n            /* \"@openzeppelin/contracts/utils/Address.sol\":4841:4858  returndata.length */\n          mload\n            /* \"@openzeppelin/contracts/utils/Address.sol\":4841:4863  returndata.length == 0 */\n          eq\n            /* \"@openzeppelin/contracts/utils/Address.sol\":4841:4890  returndata.length == 0 && target.code.length == 0 */\n          dup1\n          iszero\n          tag_70\n          jumpi\n          pop\n            /* \"@openzeppelin/contracts/utils/Address.sol\":4889:4890  0 */\n          0x00\n            /* \"@openzeppelin/contracts/utils/Address.sol\":4867:4873  target */\n          dup5\n            /* \"@openzeppelin/contracts/utils/Address.sol\":4867:4885  target.code.length */\n          0xffffffffffffffffffffffffffffffffffffffff\n          and\n          extcodesize\n            /* \"@openzeppelin/contracts/utils/Address.sol\":4867:4890  target.code.length == 0 */\n          eq\n            /* \"@openzeppelin/contracts/utils/Address.sol\":4841:4890  returndata.length == 0 && target.code.length == 0 */\n        tag_70:\n            /* \"@openzeppelin/contracts/utils/Address.sol\":4837:4956  if (returndata.length == 0 && target.code.length == 0) {... */\n          iszero\n          tag_71\n          jumpi\n            /* \"@openzeppelin/contracts/utils/Address.sol\":4934:4940  target */\n          dup4\n            /* \"@openzeppelin/contracts/utils/Address.sol\":4917:4941  AddressEmptyCode(target) */\n          mload(0x40)\n          0x9996b31500000000000000000000000000000000000000000000000000000000\n          dup2\n          mstore\n          0x04\n          add\n          tag_72\n          swap2\n          swap1\n          tag_49\n          jump\t// in\n        tag_72:\n          mload(0x40)\n          dup1\n          swap2\n          sub\n          swap1\n          revert\n            /* \"@openzeppelin/contracts/utils/Address.sol\":4837:4956  if (returndata.length == 0 && target.code.length == 0) {... */\n        tag_71:\n            /* \"@openzeppelin/contracts/utils/Address.sol\":4976:4986  returndata */\n          dup2\n            /* \"@openzeppelin/contracts/utils/Address.sol\":4969:4986  return returndata */\n          swap1\n          pop\n          jump(tag_65)\n            /* \"@openzeppelin/contracts/utils/Address.sol\":4589:4997  if (!success) {... */\n        tag_69:\n            /* \"@openzeppelin/contracts/utils/Address.sol\":4421:5003  function verifyCallResultFromTarget(... */\n        tag_65:\n          swap4\n          swap3\n          pop\n          pop\n          pop\n          jump\t// out\n            /* \"@openzeppelin/contracts/utils/Address.sol\":5543:6030  function _revert(bytes memory returndata) private pure {... */\n        tag_68:\n            /* \"@openzeppelin/contracts/utils/Address.sol\":5694:5695  0 */\n          0x00\n            /* \"@openzeppelin/contracts/utils/Address.sol\":5674:5684  returndata */\n          dup2\n            /* \"@openzeppelin/contracts/utils/Address.sol\":5674:5691  returndata.length */\n          mload\n            /* \"@openzeppelin/contracts/utils/Address.sol\":5674:5695  returndata.length > 0 */\n          gt\n            /* \"@openzeppelin/contracts/utils/Address.sol\":5670:6024  if (returndata.length > 0) {... */\n          iszero\n          tag_74\n          jumpi\n            /* \"@openzeppelin/contracts/utils/Address.sol\":5871:5881  returndata */\n          dup1\n            /* \"@openzeppelin/contracts/utils/Address.sol\":5865:5882  mload(returndata) */\n          mload\n            /* \"@openzeppelin/contracts/utils/Address.sol\":5927:5942  returndata_size */\n          dup1\n            /* \"@openzeppelin/contracts/utils/Address.sol\":5914:5924  returndata */\n          dup3\n            /* \"@openzeppelin/contracts/utils/Address.sol\":5910:5912  32 */\n          0x20\n            /* \"@openzeppelin/contracts/utils/Address.sol\":5906:5925  add(32, returndata) */\n          add\n            /* \"@openzeppelin/contracts/utils/Address.sol\":5899:5943  revert(add(32, returndata), returndata_size) */\n          revert\n            /* \"@openzeppelin/contracts/utils/Address.sol\":5670:6024  if (returndata.length > 0) {... */\n        tag_74:\n            /* \"@openzeppelin/contracts/utils/Address.sol\":5994:6013  Errors.FailedCall() */\n          mload(0x40)\n          0xd6bda27500000000000000000000000000000000000000000000000000000000\n          dup2\n          mstore\n          0x04\n          add\n          mload(0x40)\n          dup1\n          swap2\n          sub\n          swap1\n          revert\n            /* \"#utility.yul\":7:82   */\n        tag_76:\n            /* \"#utility.yul\":40:46   */\n          0x00\n            /* \"#utility.yul\":73:75   */\n          0x40\n            /* \"#utility.yul\":67:76   */\n          mload\n            /* \"#utility.yul\":57:76   */\n          swap1\n          pop\n            /* \"#utility.yul\":7:82   */\n          swap1\n          jump\t// out\n            /* \"#utility.yul\":88:205   */\n        tag_77:\n            /* \"#utility.yul\":197:198   */\n          0x00\n            /* \"#utility.yul\":194:195   */\n          dup1\n            /* \"#utility.yul\":187:199   */\n          revert\n            /* \"#utility.yul\":211:328   */\n        tag_78:\n            /* \"#utility.yul\":320:321   */\n          0x00\n            /* \"#utility.yul\":317:318   */\n          dup1\n            /* \"#utility.yul\":310:322   */\n          revert\n            /* \"#utility.yul\":334:803   */\n        tag_21:\n            /* \"#utility.yul\":439:448   */\n          0x00\n            /* \"#utility.yul\":450:459   */\n          dup1\n            /* \"#utility.yul\":488:496   */\n          dup6\n            /* \"#utility.yul\":476:486   */\n          dup6\n            /* \"#utility.yul\":473:497   */\n          gt\n            /* \"#utility.yul\":470:581   */\n          iszero\n          tag_106\n          jumpi\n            /* \"#utility.yul\":500:579   */\n          tag_107\n          tag_77\n          jump\t// in\n        tag_107:\n            /* \"#utility.yul\":470:581   */\n        tag_106:\n            /* \"#utility.yul\":606:612   */\n          dup4\n            /* \"#utility.yul\":596:604   */\n          dup7\n            /* \"#utility.yul\":593:613   */\n          gt\n            /* \"#utility.yul\":590:697   */\n          iszero\n          tag_108\n          jumpi\n            /* \"#utility.yul\":616:695   */\n          tag_109\n          tag_78\n          jump\t// in\n        tag_109:\n            /* \"#utility.yul\":590:697   */\n        tag_108:\n            /* \"#utility.yul\":747:748   */\n          0x01\n            /* \"#utility.yul\":735:745   */\n          dup6\n            /* \"#utility.yul\":731:749   */\n          mul\n            /* \"#utility.yul\":723:729   */\n          dup4\n            /* \"#utility.yul\":719:750   */\n          add\n            /* \"#utility.yul\":706:750   */\n          swap2\n          pop\n            /* \"#utility.yul\":786:796   */\n          dup5\n            /* \"#utility.yul\":776:784   */\n          dup7\n            /* \"#utility.yul\":772:797   */\n          sub\n            /* \"#utility.yul\":759:797   */\n          swap1\n          pop\n            /* \"#utility.yul\":334:803   */\n          swap5\n          pop\n          swap5\n          swap3\n          pop\n          pop\n          pop\n          jump\t// out\n            /* \"#utility.yul\":809:926   */\n        tag_79:\n            /* \"#utility.yul\":918:919   */\n          0x00\n            /* \"#utility.yul\":915:916   */\n          dup1\n            /* \"#utility.yul\":908:920   */\n          revert\n            /* \"#utility.yul\":932:1049   */\n        tag_80:\n            /* \"#utility.yul\":1041:1042   */\n          0x00\n            /* \"#utility.yul\":1038:1039   */\n          dup1\n            /* \"#utility.yul\":1031:1043   */\n          revert\n            /* \"#utility.yul\":1055:1181   */\n        tag_81:\n            /* \"#utility.yul\":1092:1099   */\n          0x00\n            /* \"#utility.yul\":1132:1174   */\n          0xffffffffffffffffffffffffffffffffffffffff\n            /* \"#utility.yul\":1125:1130   */\n          dup3\n            /* \"#utility.yul\":1121:1175   */\n          and\n            /* \"#utility.yul\":1110:1175   */\n          swap1\n          pop\n            /* \"#utility.yul\":1055:1181   */\n          swap2\n          swap1\n          pop\n          jump\t// out\n            /* \"#utility.yul\":1187:1291   */\n        tag_82:\n            /* \"#utility.yul\":1232:1239   */\n          0x00\n            /* \"#utility.yul\":1261:1285   */\n          tag_114\n            /* \"#utility.yul\":1279:1284   */\n          dup3\n            /* \"#utility.yul\":1261:1285   */\n          tag_81\n          jump\t// in\n        tag_114:\n            /* \"#utility.yul\":1250:1285   */\n          swap1\n          pop\n            /* \"#utility.yul\":1187:1291   */\n          swap2\n          swap1\n          pop\n          jump\t// out\n            /* \"#utility.yul\":1297:1435   */\n        tag_83:\n            /* \"#utility.yul\":1378:1410   */\n          tag_116\n            /* \"#utility.yul\":1404:1409   */\n          dup2\n            /* \"#utility.yul\":1378:1410   */\n          tag_82\n          jump\t// in\n        tag_116:\n            /* \"#utility.yul\":1371:1376   */\n          dup2\n            /* \"#utility.yul\":1368:1411   */\n          eq\n            /* \"#utility.yul\":1358:1429   */\n          tag_117\n          jumpi\n            /* \"#utility.yul\":1425:1426   */\n          0x00\n            /* \"#utility.yul\":1422:1423   */\n          dup1\n            /* \"#utility.yul\":1415:1427   */\n          revert\n            /* \"#utility.yul\":1358:1429   */\n        tag_117:\n            /* \"#utility.yul\":1297:1435   */\n          pop\n          jump\t// out\n            /* \"#utility.yul\":1441:1596   */\n        tag_84:\n            /* \"#utility.yul\":1495:1500   */\n          0x00\n            /* \"#utility.yul\":1533:1539   */\n          dup2\n            /* \"#utility.yul\":1520:1540   */\n          calldataload\n            /* \"#utility.yul\":1511:1540   */\n          swap1\n          pop\n            /* \"#utility.yul\":1549:1590   */\n          tag_119\n            /* \"#utility.yul\":1584:1589   */\n          dup2\n            /* \"#utility.yul\":1549:1590   */\n          tag_83\n          jump\t// in\n        tag_119:\n            /* \"#utility.yul\":1441:1596   */\n          swap3\n          swap2\n          pop\n          pop\n          jump\t// out\n            /* \"#utility.yul\":1602:1719   */\n        tag_85:\n            /* \"#utility.yul\":1711:1712   */\n          0x00\n            /* \"#utility.yul\":1708:1709   */\n          dup1\n            /* \"#utility.yul\":1701:1713   */\n          revert\n            /* \"#utility.yul\":1725:1842   */\n        tag_86:\n            /* \"#utility.yul\":1834:1835   */\n          0x00\n            /* \"#utility.yul\":1831:1832   */\n          dup1\n            /* \"#utility.yul\":1824:1836   */\n          revert\n            /* \"#utility.yul\":1848:1950   */\n        tag_87:\n            /* \"#utility.yul\":1889:1895   */\n          0x00\n            /* \"#utility.yul\":1940:1942   */\n          0x1f\n            /* \"#utility.yul\":1936:1943   */\n          not\n            /* \"#utility.yul\":1931:1933   */\n          0x1f\n            /* \"#utility.yul\":1924:1929   */\n          dup4\n            /* \"#utility.yul\":1920:1934   */\n          add\n            /* \"#utility.yul\":1916:1944   */\n          and\n            /* \"#utility.yul\":1906:1944   */\n          swap1\n          pop\n            /* \"#utility.yul\":1848:1950   */\n          swap2\n          swap1\n          pop\n          jump\t// out\n            /* \"#utility.yul\":1956:2136   */\n        tag_88:\n            /* \"#utility.yul\":2004:2081   */\n          0x4e487b7100000000000000000000000000000000000000000000000000000000\n            /* \"#utility.yul\":2001:2002   */\n          0x00\n            /* \"#utility.yul\":1994:2082   */\n          mstore\n            /* \"#utility.yul\":2101:2105   */\n          0x41\n            /* \"#utility.yul\":2098:2099   */\n          0x04\n            /* \"#utility.yul\":2091:2106   */\n          mstore\n            /* \"#utility.yul\":2125:2129   */\n          0x24\n            /* \"#utility.yul\":2122:2123   */\n          0x00\n            /* \"#utility.yul\":2115:2130   */\n          revert\n            /* \"#utility.yul\":2142:2423   */\n        tag_89:\n            /* \"#utility.yul\":2225:2252   */\n          tag_125\n            /* \"#utility.yul\":2247:2251   */\n          dup3\n            /* \"#utility.yul\":2225:2252   */\n          tag_87\n          jump\t// in\n        tag_125:\n            /* \"#utility.yul\":2217:2223   */\n          dup2\n            /* \"#utility.yul\":2213:2253   */\n          add\n            /* \"#utility.yul\":2355:2361   */\n          dup2\n            /* \"#utility.yul\":2343:2353   */\n          dup2\n            /* \"#utility.yul\":2340:2362   */\n          lt\n            /* \"#utility.yul\":2319:2337   */\n          0xffffffffffffffff\n            /* \"#utility.yul\":2307:2317   */\n          dup3\n            /* \"#utility.yul\":2304:2338   */\n          gt\n            /* \"#utility.yul\":2301:2363   */\n          or\n            /* \"#utility.yul\":2298:2386   */\n          iszero\n          tag_126\n          jumpi\n            /* \"#utility.yul\":2366:2384   */\n          tag_127\n          tag_88\n          jump\t// in\n        tag_127:\n            /* \"#utility.yul\":2298:2386   */\n        tag_126:\n            /* \"#utility.yul\":2406:2416   */\n          dup1\n            /* \"#utility.yul\":2402:2404   */\n          0x40\n            /* \"#utility.yul\":2395:2417   */\n          mstore\n            /* \"#utility.yul\":2185:2423   */\n          pop\n            /* \"#utility.yul\":2142:2423   */\n          pop\n          pop\n          jump\t// out\n            /* \"#utility.yul\":2429:2558   */\n        tag_90:\n            /* \"#utility.yul\":2463:2469   */\n          0x00\n            /* \"#utility.yul\":2490:2510   */\n          tag_129\n          tag_76\n          jump\t// in\n        tag_129:\n            /* \"#utility.yul\":2480:2510   */\n          swap1\n          pop\n            /* \"#utility.yul\":2519:2552   */\n          tag_130\n            /* \"#utility.yul\":2547:2551   */\n          dup3\n            /* \"#utility.yul\":2539:2545   */\n          dup3\n            /* \"#utility.yul\":2519:2552   */\n          tag_89\n          jump\t// in\n        tag_130:\n            /* \"#utility.yul\":2429:2558   */\n          swap2\n          swap1\n          pop\n          jump\t// out\n            /* \"#utility.yul\":2564:2871   */\n        tag_91:\n            /* \"#utility.yul\":2625:2629   */\n          0x00\n            /* \"#utility.yul\":2715:2733   */\n          0xffffffffffffffff\n            /* \"#utility.yul\":2707:2713   */\n          dup3\n            /* \"#utility.yul\":2704:2734   */\n          gt\n            /* \"#utility.yul\":2701:2757   */\n          iszero\n          tag_132\n          jumpi\n            /* \"#utility.yul\":2737:2755   */\n          tag_133\n          tag_88\n          jump\t// in\n        tag_133:\n            /* \"#utility.yul\":2701:2757   */\n        tag_132:\n            /* \"#utility.yul\":2775:2804   */\n          tag_134\n            /* \"#utility.yul\":2797:2803   */\n          dup3\n            /* \"#utility.yul\":2775:2804   */\n          tag_87\n          jump\t// in\n        tag_134:\n            /* \"#utility.yul\":2767:2804   */\n          swap1\n          pop\n            /* \"#utility.yul\":2859:2863   */\n          0x20\n            /* \"#utility.yul\":2853:2857   */\n          dup2\n            /* \"#utility.yul\":2849:2864   */\n          add\n            /* \"#utility.yul\":2841:2864   */\n          swap1\n          pop\n            /* \"#utility.yul\":2564:2871   */\n          swap2\n          swap1\n          pop\n          jump\t// out\n            /* \"#utility.yul\":2877:3025   */\n        tag_92:\n            /* \"#utility.yul\":2975:2981   */\n          dup3\n            /* \"#utility.yul\":2970:2973   */\n          dup2\n            /* \"#utility.yul\":2965:2968   */\n          dup4\n            /* \"#utility.yul\":2952:2982   */\n          calldatacopy\n            /* \"#utility.yul\":3016:3017   */\n          0x00\n            /* \"#utility.yul\":3007:3013   */\n          dup4\n            /* \"#utility.yul\":3002:3005   */\n          dup4\n            /* \"#utility.yul\":2998:3014   */\n          add\n            /* \"#utility.yul\":2991:3018   */\n          mstore\n            /* \"#utility.yul\":2877:3025   */\n          pop\n          pop\n          pop\n          jump\t// out\n            /* \"#utility.yul\":3031:3454   */\n        tag_93:\n            /* \"#utility.yul\":3108:3113   */\n          0x00\n            /* \"#utility.yul\":3133:3198   */\n          tag_137\n            /* \"#utility.yul\":3149:3197   */\n          tag_138\n            /* \"#utility.yul\":3190:3196   */\n          dup5\n            /* \"#utility.yul\":3149:3197   */\n          tag_91\n          jump\t// in\n        tag_138:\n            /* \"#utility.yul\":3133:3198   */\n          tag_90\n          jump\t// in\n        tag_137:\n            /* \"#utility.yul\":3124:3198   */\n          swap1\n          pop\n            /* \"#utility.yul\":3221:3227   */\n          dup3\n            /* \"#utility.yul\":3214:3219   */\n          dup2\n            /* \"#utility.yul\":3207:3228   */\n          mstore\n            /* \"#utility.yul\":3259:3263   */\n          0x20\n            /* \"#utility.yul\":3252:3257   */\n          dup2\n            /* \"#utility.yul\":3248:3264   */\n          add\n            /* \"#utility.yul\":3297:3300   */\n          dup5\n            /* \"#utility.yul\":3288:3294   */\n          dup5\n            /* \"#utility.yul\":3283:3286   */\n          dup5\n            /* \"#utility.yul\":3279:3295   */\n          add\n            /* \"#utility.yul\":3276:3301   */\n          gt\n            /* \"#utility.yul\":3273:3385   */\n          iszero\n          tag_139\n          jumpi\n            /* \"#utility.yul\":3304:3383   */\n          tag_140\n          tag_86\n          jump\t// in\n        tag_140:\n            /* \"#utility.yul\":3273:3385   */\n        tag_139:\n            /* \"#utility.yul\":3394:3448   */\n          tag_141\n            /* \"#utility.yul\":3441:3447   */\n          dup5\n            /* \"#utility.yul\":3436:3439   */\n          dup3\n            /* \"#utility.yul\":3431:3434   */\n          dup6\n            /* \"#utility.yul\":3394:3448   */\n          tag_92\n          jump\t// in\n        tag_141:\n            /* \"#utility.yul\":3114:3454   */\n          pop\n            /* \"#utility.yul\":3031:3454   */\n          swap4\n          swap3\n          pop\n          pop\n          pop\n          jump\t// out\n            /* \"#utility.yul\":3473:3811   */\n        tag_94:\n            /* \"#utility.yul\":3528:3533   */\n          0x00\n            /* \"#utility.yul\":3577:3580   */\n          dup3\n            /* \"#utility.yul\":3570:3574   */\n          0x1f\n            /* \"#utility.yul\":3562:3568   */\n          dup4\n            /* \"#utility.yul\":3558:3575   */\n          add\n            /* \"#utility.yul\":3554:3581   */\n          slt\n            /* \"#utility.yul\":3544:3666   */\n          tag_143\n          jumpi\n            /* \"#utility.yul\":3585:3664   */\n          tag_144\n          tag_85\n          jump\t// in\n        tag_144:\n            /* \"#utility.yul\":3544:3666   */\n        tag_143:\n            /* \"#utility.yul\":3702:3708   */\n          dup2\n            /* \"#utility.yul\":3689:3709   */\n          calldataload\n            /* \"#utility.yul\":3727:3805   */\n          tag_145\n            /* \"#utility.yul\":3801:3804   */\n          dup5\n            /* \"#utility.yul\":3793:3799   */\n          dup3\n            /* \"#utility.yul\":3786:3790   */\n          0x20\n            /* \"#utility.yul\":3778:3784   */\n          dup7\n            /* \"#utility.yul\":3774:3791   */\n          add\n            /* \"#utility.yul\":3727:3805   */\n          tag_93\n          jump\t// in\n        tag_145:\n            /* \"#utility.yul\":3718:3805   */\n          swap2\n          pop\n            /* \"#utility.yul\":3534:3811   */\n          pop\n            /* \"#utility.yul\":3473:3811   */\n          swap3\n          swap2\n          pop\n          pop\n          jump\t// out\n            /* \"#utility.yul\":3817:4485   */\n        tag_23:\n            /* \"#utility.yul\":3902:3908   */\n          0x00\n            /* \"#utility.yul\":3910:3916   */\n          dup1\n            /* \"#utility.yul\":3959:3961   */\n          0x40\n            /* \"#utility.yul\":3947:3956   */\n          dup4\n            /* \"#utility.yul\":3938:3945   */\n          dup6\n            /* \"#utility.yul\":3934:3957   */\n          sub\n            /* \"#utility.yul\":3930:3962   */\n          slt\n            /* \"#utility.yul\":3927:4046   */\n          iszero\n          tag_147\n          jumpi\n            /* \"#utility.yul\":3965:4044   */\n          tag_148\n          tag_79\n          jump\t// in\n        tag_148:\n            /* \"#utility.yul\":3927:4046   */\n        tag_147:\n            /* \"#utility.yul\":4085:4086   */\n          0x00\n            /* \"#utility.yul\":4110:4171   */\n          tag_149\n            /* \"#utility.yul\":4163:4170   */\n          dup6\n            /* \"#utility.yul\":4154:4160   */\n          dup3\n            /* \"#utility.yul\":4143:4152   */\n          dup7\n            /* \"#utility.yul\":4139:4161   */\n          add\n            /* \"#utility.yul\":4110:4171   */\n          tag_84\n          jump\t// in\n        tag_149:\n            /* \"#utility.yul\":4100:4171   */\n          swap3\n          pop\n            /* \"#utility.yul\":4056:4181   */\n          pop\n            /* \"#utility.yul\":4248:4250   */\n          0x20\n            /* \"#utility.yul\":4237:4246   */\n          dup4\n            /* \"#utility.yul\":4233:4251   */\n          add\n            /* \"#utility.yul\":4220:4252   */\n          calldataload\n            /* \"#utility.yul\":4279:4297   */\n          0xffffffffffffffff\n            /* \"#utility.yul\":4271:4277   */\n          dup2\n            /* \"#utility.yul\":4268:4298   */\n          gt\n            /* \"#utility.yul\":4265:4382   */\n          iszero\n          tag_150\n          jumpi\n            /* \"#utility.yul\":4301:4380   */\n          tag_151\n          tag_80\n          jump\t// in\n        tag_151:\n            /* \"#utility.yul\":4265:4382   */\n        tag_150:\n            /* \"#utility.yul\":4406:4468   */\n          tag_152\n            /* \"#utility.yul\":4460:4467   */\n          dup6\n            /* \"#utility.yul\":4451:4457   */\n          dup3\n            /* \"#utility.yul\":4440:4449   */\n          dup7\n            /* \"#utility.yul\":4436:4458   */\n          add\n            /* \"#utility.yul\":4406:4468   */\n          tag_94\n          jump\t// in\n        tag_152:\n            /* \"#utility.yul\":4396:4468   */\n          swap2\n          pop\n            /* \"#utility.yul\":4191:4478   */\n          pop\n            /* \"#utility.yul\":3817:4485   */\n          swap3\n          pop\n          swap3\n          swap1\n          pop\n          jump\t// out\n            /* \"#utility.yul\":4491:4587   */\n        tag_95:\n            /* \"#utility.yul\":4528:4535   */\n          0x00\n            /* \"#utility.yul\":4557:4581   */\n          tag_154\n            /* \"#utility.yul\":4575:4580   */\n          dup3\n            /* \"#utility.yul\":4557:4581   */\n          tag_81\n          jump\t// in\n        tag_154:\n            /* \"#utility.yul\":4546:4581   */\n          swap1\n          pop\n            /* \"#utility.yul\":4491:4587   */\n          swap2\n          swap1\n          pop\n          jump\t// out\n            /* \"#utility.yul\":4593:4711   */\n        tag_96:\n            /* \"#utility.yul\":4680:4704   */\n          tag_156\n            /* \"#utility.yul\":4698:4703   */\n          dup2\n            /* \"#utility.yul\":4680:4704   */\n          tag_95\n          jump\t// in\n        tag_156:\n            /* \"#utility.yul\":4675:4678   */\n          dup3\n            /* \"#utility.yul\":4668:4705   */\n          mstore\n            /* \"#utility.yul\":4593:4711   */\n          pop\n          pop\n          jump\t// out\n            /* \"#utility.yul\":4717:4939   */\n        tag_49:\n            /* \"#utility.yul\":4810:4814   */\n          0x00\n            /* \"#utility.yul\":4848:4850   */\n          0x20\n            /* \"#utility.yul\":4837:4846   */\n          dup3\n            /* \"#utility.yul\":4833:4851   */\n          add\n            /* \"#utility.yul\":4825:4851   */\n          swap1\n          pop\n            /* \"#utility.yul\":4861:4932   */\n          tag_158\n            /* \"#utility.yul\":4929:4930   */\n          0x00\n            /* \"#utility.yul\":4918:4927   */\n          dup4\n            /* \"#utility.yul\":4914:4931   */\n          add\n            /* \"#utility.yul\":4905:4911   */\n          dup5\n            /* \"#utility.yul\":4861:4932   */\n          tag_96\n          jump\t// in\n        tag_158:\n            /* \"#utility.yul\":4717:4939   */\n          swap3\n          swap2\n          pop\n          pop\n          jump\t// out\n            /* \"#utility.yul\":4945:5043   */\n        tag_97:\n            /* \"#utility.yul\":4996:5002   */\n          0x00\n            /* \"#utility.yul\":5030:5035   */\n          dup2\n            /* \"#utility.yul\":5024:5036   */\n          mload\n            /* \"#utility.yul\":5014:5036   */\n          swap1\n          pop\n            /* \"#utility.yul\":4945:5043   */\n          swap2\n          swap1\n          pop\n          jump\t// out\n            /* \"#utility.yul\":5049:5196   */\n        tag_98:\n            /* \"#utility.yul\":5150:5161   */\n          0x00\n            /* \"#utility.yul\":5187:5190   */\n          dup2\n            /* \"#utility.yul\":5172:5190   */\n          swap1\n          pop\n            /* \"#utility.yul\":5049:5196   */\n          swap3\n          swap2\n          pop\n          pop\n          jump\t// out\n            /* \"#utility.yul\":5202:5450   */\n        tag_99:\n            /* \"#utility.yul\":5284:5285   */\n          0x00\n            /* \"#utility.yul\":5294:5407   */\n        tag_162:\n            /* \"#utility.yul\":5308:5314   */\n          dup4\n            /* \"#utility.yul\":5305:5306   */\n          dup2\n            /* \"#utility.yul\":5302:5315   */\n          lt\n            /* \"#utility.yul\":5294:5407   */\n          iszero\n          tag_164\n          jumpi\n            /* \"#utility.yul\":5393:5394   */\n          dup1\n            /* \"#utility.yul\":5388:5391   */\n          dup3\n            /* \"#utility.yul\":5384:5395   */\n          add\n            /* \"#utility.yul\":5378:5396   */\n          mload\n            /* \"#utility.yul\":5374:5375   */\n          dup2\n            /* \"#utility.yul\":5369:5372   */\n          dup5\n            /* \"#utility.yul\":5365:5376   */\n          add\n            /* \"#utility.yul\":5358:5397   */\n          mstore\n            /* \"#utility.yul\":5330:5332   */\n          0x20\n            /* \"#utility.yul\":5327:5328   */\n          dup2\n            /* \"#utility.yul\":5323:5333   */\n          add\n            /* \"#utility.yul\":5318:5333   */\n          swap1\n          pop\n            /* \"#utility.yul\":5294:5407   */\n          jump(tag_162)\n        tag_164:\n            /* \"#utility.yul\":5441:5442   */\n          0x00\n            /* \"#utility.yul\":5432:5438   */\n          dup5\n            /* \"#utility.yul\":5427:5430   */\n          dup5\n            /* \"#utility.yul\":5423:5439   */\n          add\n            /* \"#utility.yul\":5416:5443   */\n          mstore\n            /* \"#utility.yul\":5264:5450   */\n          pop\n            /* \"#utility.yul\":5202:5450   */\n          pop\n          pop\n          pop\n          jump\t// out\n            /* \"#utility.yul\":5456:5842   */\n        tag_100:\n            /* \"#utility.yul\":5560:5563   */\n          0x00\n            /* \"#utility.yul\":5588:5626   */\n          tag_166\n            /* \"#utility.yul\":5620:5625   */\n          dup3\n            /* \"#utility.yul\":5588:5626   */\n          tag_97\n          jump\t// in\n        tag_166:\n            /* \"#utility.yul\":5642:5730   */\n          tag_167\n            /* \"#utility.yul\":5723:5729   */\n          dup2\n            /* \"#utility.yul\":5718:5721   */\n          dup6\n            /* \"#utility.yul\":5642:5730   */\n          tag_98\n          jump\t// in\n        tag_167:\n            /* \"#utility.yul\":5635:5730   */\n          swap4\n          pop\n            /* \"#utility.yul\":5739:5804   */\n          tag_168\n            /* \"#utility.yul\":5797:5803   */\n          dup2\n            /* \"#utility.yul\":5792:5795   */\n          dup6\n            /* \"#utility.yul\":5785:5789   */\n          0x20\n            /* \"#utility.yul\":5778:5783   */\n          dup7\n            /* \"#utility.yul\":5774:5790   */\n          add\n            /* \"#utility.yul\":5739:5804   */\n          tag_99\n          jump\t// in\n        tag_168:\n            /* \"#utility.yul\":5829:5835   */\n          dup1\n            /* \"#utility.yul\":5824:5827   */\n          dup5\n            /* \"#utility.yul\":5820:5836   */\n          add\n            /* \"#utility.yul\":5813:5836   */\n          swap2\n          pop\n            /* \"#utility.yul\":5564:5842   */\n          pop\n            /* \"#utility.yul\":5456:5842   */\n          swap3\n          swap2\n          pop\n          pop\n          jump\t// out\n            /* \"#utility.yul\":5848:6119   */\n        tag_54:\n            /* \"#utility.yul\":5978:5981   */\n          0x00\n            /* \"#utility.yul\":6000:6093   */\n          tag_170\n            /* \"#utility.yul\":6089:6092   */\n          dup3\n            /* \"#utility.yul\":6080:6086   */\n          dup5\n            /* \"#utility.yul\":6000:6093   */\n          tag_100\n          jump\t// in\n        tag_170:\n            /* \"#utility.yul\":5993:6093   */\n          swap2\n          pop\n            /* \"#utility.yul\":6110:6113   */\n          dup2\n            /* \"#utility.yul\":6103:6113   */\n          swap1\n          pop\n            /* \"#utility.yul\":5848:6119   */\n          swap3\n          swap2\n          pop\n          pop\n          jump\t// out\n\n        auxdata: 0xa2646970667358221220f9f56827f17cccc620d1e77b10673fadb006ecedd7bde245f2152acaf6b4a11d64736f6c634300081d0033\n    }\n\n    sub_1: assembly {\n            /* \"@openzeppelin/contracts/proxy/transparent/ProxyAdmin.sol\":502:1964  contract ProxyAdmin is Ownable {... */\n          mstore(0x40, 0x80)\n            /* \"@openzeppelin/contracts/proxy/transparent/ProxyAdmin.sol\":1329:1387  constructor(address initialOwner) Ownable(initialOwner) {} */\n          callvalue\n          dup1\n          iszero\n          tag_1\n          jumpi\n          0x00\n          dup1\n          revert\n        tag_1:\n          pop\n          mload(0x40)\n          sub(codesize, bytecodeSize)\n          dup1\n          bytecodeSize\n          dup4\n          codecopy\n          dup2\n          dup2\n          add\n          0x40\n          mstore\n          dup2\n          add\n          swap1\n          tag_2\n          swap2\n          swap1\n          tag_3\n          jump\t// in\n        tag_2:\n            /* \"@openzeppelin/contracts/proxy/transparent/ProxyAdmin.sol\":1371:1383  initialOwner */\n          dup1\n            /* \"@openzeppelin/contracts/access/Ownable.sol\":1297:1298  0 */\n          0x00\n            /* \"@openzeppelin/contracts/access/Ownable.sol\":1273:1299  initialOwner == address(0) */\n          0xffffffffffffffffffffffffffffffffffffffff\n          and\n            /* \"@openzeppelin/contracts/access/Ownable.sol\":1273:1285  initialOwner */\n          dup2\n            /* \"@openzeppelin/contracts/access/Ownable.sol\":1273:1299  initialOwner == address(0) */\n          0xffffffffffffffffffffffffffffffffffffffff\n          and\n          sub\n            /* \"@openzeppelin/contracts/access/Ownable.sol\":1269:1364  if (initialOwner == address(0)) {... */\n          tag_7\n          jumpi\n            /* \"@openzeppelin/contracts/access/Ownable.sol\":1350:1351  0 */\n          0x00\n            /* \"@openzeppelin/contracts/access/Ownable.sol\":1322:1353  OwnableInvalidOwner(address(0)) */\n          mload(0x40)\n          0x1e4fbdf700000000000000000000000000000000000000000000000000000000\n          dup2\n          mstore\n          0x04\n          add\n          tag_8\n          swap2\n          swap1\n          tag_9\n          jump\t// in\n        tag_8:\n          mload(0x40)\n          dup1\n          swap2\n          sub\n          swap1\n          revert\n            /* \"@openzeppelin/contracts/access/Ownable.sol\":1269:1364  if (initialOwner == address(0)) {... */\n        tag_7:\n            /* \"@openzeppelin/contracts/access/Ownable.sol\":1373:1405  _transferOwnership(initialOwner) */\n          tag_10\n            /* \"@openzeppelin/contracts/access/Ownable.sol\":1392:1404  initialOwner */\n          dup2\n            /* \"@openzeppelin/contracts/access/Ownable.sol\":1373:1391  _transferOwnership */\n          shl(0x20, tag_11)\n            /* \"@openzeppelin/contracts/access/Ownable.sol\":1373:1405  _transferOwnership(initialOwner) */\n          0x20\n          shr\n          jump\t// in\n        tag_10:\n            /* \"@openzeppelin/contracts/access/Ownable.sol\":1225:1412  constructor(address initialOwner) {... */\n          pop\n            /* \"@openzeppelin/contracts/proxy/transparent/ProxyAdmin.sol\":1329:1387  constructor(address initialOwner) Ownable(initialOwner) {} */\n          pop\n            /* \"@openzeppelin/contracts/proxy/transparent/ProxyAdmin.sol\":502:1964  contract ProxyAdmin is Ownable {... */\n          jump(tag_13)\n            /* \"@openzeppelin/contracts/access/Ownable.sol\":2912:3099  function _transferOwnership(address newOwner) internal virtual {... */\n        tag_11:\n            /* \"@openzeppelin/contracts/access/Ownable.sol\":2985:3001  address oldOwner */\n          0x00\n            /* \"@openzeppelin/contracts/access/Ownable.sol\":3004:3010  _owner */\n          dup1\n          0x00\n          swap1\n          sload\n          swap1\n          0x0100\n          exp\n          swap1\n          div\n          0xffffffffffffffffffffffffffffffffffffffff\n          and\n            /* \"@openzeppelin/contracts/access/Ownable.sol\":2985:3010  address oldOwner = _owner */\n          swap1\n          pop\n            /* \"@openzeppelin/contracts/access/Ownable.sol\":3029:3037  newOwner */\n          dup2\n            /* \"@openzeppelin/contracts/access/Ownable.sol\":3020:3026  _owner */\n          0x00\n          dup1\n            /* \"@openzeppelin/contracts/access/Ownable.sol\":3020:3037  _owner = newOwner */\n          0x0100\n          exp\n          dup2\n          sload\n          dup2\n          0xffffffffffffffffffffffffffffffffffffffff\n          mul\n          not\n          and\n          swap1\n          dup4\n          0xffffffffffffffffffffffffffffffffffffffff\n          and\n          mul\n          or\n          swap1\n          sstore\n          pop\n            /* \"@openzeppelin/contracts/access/Ownable.sol\":3083:3091  newOwner */\n          dup2\n            /* \"@openzeppelin/contracts/access/Ownable.sol\":3052:3092  OwnershipTransferred(oldOwner, newOwner) */\n          0xffffffffffffffffffffffffffffffffffffffff\n          and\n            /* \"@openzeppelin/contracts/access/Ownable.sol\":3073:3081  oldOwner */\n          dup2\n            /* \"@openzeppelin/contracts/access/Ownable.sol\":3052:3092  OwnershipTransferred(oldOwner, newOwner) */\n          0xffffffffffffffffffffffffffffffffffffffff\n          and\n          0x8be0079c531659141344cd1fd0a4f28419497f9722a3daafe3b4186f6b6457e0\n          mload(0x40)\n          mload(0x40)\n          dup1\n          swap2\n          sub\n          swap1\n          log3\n            /* \"@openzeppelin/contracts/access/Ownable.sol\":2975:3099  {... */\n          pop\n            /* \"@openzeppelin/contracts/access/Ownable.sol\":2912:3099  function _transferOwnership(address newOwner) internal virtual {... */\n          pop\n          jump\t// out\n            /* \"#utility.yul\":88:205   */\n        tag_16:\n            /* \"#utility.yul\":197:198   */\n          0x00\n            /* \"#utility.yul\":194:195   */\n          dup1\n            /* \"#utility.yul\":187:199   */\n          revert\n            /* \"#utility.yul\":334:460   */\n        tag_18:\n            /* \"#utility.yul\":371:378   */\n          0x00\n            /* \"#utility.yul\":411:453   */\n          0xffffffffffffffffffffffffffffffffffffffff\n            /* \"#utility.yul\":404:409   */\n          dup3\n            /* \"#utility.yul\":400:454   */\n          and\n            /* \"#utility.yul\":389:454   */\n          swap1\n          pop\n            /* \"#utility.yul\":334:460   */\n          swap2\n          swap1\n          pop\n          jump\t// out\n            /* \"#utility.yul\":466:562   */\n        tag_19:\n            /* \"#utility.yul\":503:510   */\n          0x00\n            /* \"#utility.yul\":532:556   */\n          tag_29\n            /* \"#utility.yul\":550:555   */\n          dup3\n            /* \"#utility.yul\":532:556   */\n          tag_18\n          jump\t// in\n        tag_29:\n            /* \"#utility.yul\":521:556   */\n          swap1\n          pop\n            /* \"#utility.yul\":466:562   */\n          swap2\n          swap1\n          pop\n          jump\t// out\n            /* \"#utility.yul\":568:690   */\n        tag_20:\n            /* \"#utility.yul\":641:665   */\n          tag_31\n            /* \"#utility.yul\":659:664   */\n          dup2\n            /* \"#utility.yul\":641:665   */\n          tag_19\n          jump\t// in\n        tag_31:\n            /* \"#utility.yul\":634:639   */\n          dup2\n            /* \"#utility.yul\":631:666   */\n          eq\n            /* \"#utility.yul\":621:684   */\n          tag_32\n          jumpi\n            /* \"#utility.yul\":680:681   */\n          0x00\n            /* \"#utility.yul\":677:678   */\n          dup1\n            /* \"#utility.yul\":670:682   */\n          revert\n            /* \"#utility.yul\":621:684   */\n        tag_32:\n            /* \"#utility.yul\":568:690   */\n          pop\n          jump\t// out\n            /* \"#utility.yul\":696:839   */\n        tag_21:\n            /* \"#utility.yul\":753:758   */\n          0x00\n            /* \"#utility.yul\":784:790   */\n          dup2\n            /* \"#utility.yul\":778:791   */\n          mload\n            /* \"#utility.yul\":769:791   */\n          swap1\n          pop\n            /* \"#utility.yul\":800:833   */\n          tag_34\n            /* \"#utility.yul\":827:832   */\n          dup2\n            /* \"#utility.yul\":800:833   */\n          tag_20\n          jump\t// in\n        tag_34:\n            /* \"#utility.yul\":696:839   */\n          swap3\n          swap2\n          pop\n          pop\n          jump\t// out\n            /* \"#utility.yul\":845:1196   */\n        tag_3:\n            /* \"#utility.yul\":915:921   */\n          0x00\n            /* \"#utility.yul\":964:966   */\n          0x20\n            /* \"#utility.yul\":952:961   */\n          dup3\n            /* \"#utility.yul\":943:950   */\n          dup5\n            /* \"#utility.yul\":939:962   */\n          sub\n            /* \"#utility.yul\":935:967   */\n          slt\n            /* \"#utility.yul\":932:1051   */\n          iszero\n          tag_36\n          jumpi\n            /* \"#utility.yul\":970:1049   */\n          tag_37\n          tag_16\n          jump\t// in\n        tag_37:\n            /* \"#utility.yul\":932:1051   */\n        tag_36:\n            /* \"#utility.yul\":1090:1091   */\n          0x00\n            /* \"#utility.yul\":1115:1179   */\n          tag_38\n            /* \"#utility.yul\":1171:1178   */\n          dup5\n            /* \"#utility.yul\":1162:1168   */\n          dup3\n            /* \"#utility.yul\":1151:1160   */\n          dup6\n            /* \"#utility.yul\":1147:1169   */\n          add\n            /* \"#utility.yul\":1115:1179   */\n          tag_21\n          jump\t// in\n        tag_38:\n            /* \"#utility.yul\":1105:1179   */\n          swap2\n          pop\n            /* \"#utility.yul\":1061:1189   */\n          pop\n            /* \"#utility.yul\":845:1196   */\n          swap3\n          swap2\n          pop\n          pop\n          jump\t// out\n            /* \"#utility.yul\":1202:1320   */\n        tag_22:\n            /* \"#utility.yul\":1289:1313   */\n          tag_40\n            /* \"#utility.yul\":1307:1312   */\n          dup2\n            /* \"#utility.yul\":1289:1313   */\n          tag_19\n          jump\t// in\n        tag_40:\n            /* \"#utility.yul\":1284:1287   */\n          dup3\n            /* \"#utility.yul\":1277:1314   */\n          mstore\n            /* \"#utility.yul\":1202:1320   */\n          pop\n          pop\n          jump\t// out\n            /* \"#utility.yul\":1326:1548   */\n        tag_9:\n            /* \"#utility.yul\":1419:1423   */\n          0x00\n            /* \"#utility.yul\":1457:1459   */\n          0x20\n            /* \"#utility.yul\":1446:1455   */\n          dup3\n            /* \"#utility.yul\":1442:1460   */\n          add\n            /* \"#utility.yul\":1434:1460   */\n          swap1\n          pop\n            /* \"#utility.yul\":1470:1541   */\n          tag_42\n            /* \"#utility.yul\":1538:1539   */\n          0x00\n            /* \"#utility.yul\":1527:1536   */\n          dup4\n            /* \"#utility.yul\":1523:1540   */\n          add\n            /* \"#utility.yul\":1514:1520   */\n          dup5\n            /* \"#utility.yul\":1470:1541   */\n          tag_22\n          jump\t// in\n        tag_42:\n            /* \"#utility.yul\":1326:1548   */\n          swap3\n          swap2\n          pop\n          pop\n          jump\t// out\n            /* \"@openzeppelin/contracts/proxy/transparent/ProxyAdmin.sol\":502:1964  contract ProxyAdmin is Ownable {... */\n        tag_13:\n          dataSize(sub_0)\n          dup1\n          dataOffset(sub_0)\n          0x00\n          codecopy\n          0x00\n          return\n        stop\n\n        sub_0: assembly {\n                /* \"@openzeppelin/contracts/proxy/transparent/ProxyAdmin.sol\":502:1964  contract ProxyAdmin is Ownable {... */\n              mstore(0x40, 0x80)\n              jumpi(tag_1, lt(calldatasize, 0x04))\n              shr(0xe0, calldataload(0x00))\n              dup1\n              0x715018a6\n              eq\n              tag_2\n              jumpi\n              dup1\n              0x8da5cb5b\n              eq\n              tag_3\n              jumpi\n              dup1\n              0x9623609d\n              eq\n              tag_4\n              jumpi\n              dup1\n              0xad3cb1cc\n              eq\n              tag_5\n              jumpi\n              dup1\n              0xf2fde38b\n              eq\n              tag_6\n              jumpi\n            tag_1:\n              0x00\n              dup1\n              revert\n                /* \"@openzeppelin/contracts/access/Ownable.sol\":2293:2394  function renounceOwnership() public virtual onlyOwner {... */\n            tag_2:\n              callvalue\n              dup1\n              iszero\n              tag_7\n              jumpi\n              0x00\n              dup1\n              revert\n            tag_7:\n              pop\n              tag_8\n              tag_9\n              jump\t// in\n            tag_8:\n              stop\n                /* \"@openzeppelin/contracts/access/Ownable.sol\":1638:1723  function owner() public view virtual returns (address) {... */\n            tag_3:\n              callvalue\n              dup1\n              iszero\n              tag_10\n              jumpi\n              0x00\n              dup1\n              revert\n            tag_10:\n              pop\n              tag_11\n              tag_12\n              jump\t// in\n            tag_11:\n              mload(0x40)\n              tag_13\n              swap2\n              swap1\n              tag_14\n              jump\t// in\n            tag_13:\n              mload(0x40)\n              dup1\n              swap2\n              sub\n              swap1\n              return\n                /* \"@openzeppelin/contracts/proxy/transparent/ProxyAdmin.sol\":1717:1962  function upgradeAndCall(... */\n            tag_4:\n              tag_15\n              0x04\n              dup1\n              calldatasize\n              sub\n              dup2\n              add\n              swap1\n              tag_16\n              swap2\n              swap1\n              tag_17\n              jump\t// in\n            tag_16:\n              tag_18\n              jump\t// in\n            tag_15:\n              stop\n                /* \"@openzeppelin/contracts/proxy/transparent/ProxyAdmin.sol\":1187:1245  string public constant UPGRADE_INTERFACE_VERSION = \"5.0.0\" */\n            tag_5:\n              callvalue\n              dup1\n              iszero\n              tag_19\n              jumpi\n              0x00\n              dup1\n              revert\n            tag_19:\n              pop\n              tag_20\n              tag_21\n              jump\t// in\n            tag_20:\n              mload(0x40)\n              tag_22\n              swap2\n              swap1\n              tag_23\n              jump\t// in\n            tag_22:\n              mload(0x40)\n              dup1\n              swap2\n              sub\n              swap1\n              return\n                /* \"@openzeppelin/contracts/access/Ownable.sol\":2543:2758  function transferOwnership(address newOwner) public virtual onlyOwner {... */\n            tag_6:\n              callvalue\n              dup1\n              iszero\n              tag_24\n              jumpi\n              0x00\n              dup1\n              revert\n            tag_24:\n              pop\n              tag_25\n              0x04\n              dup1\n              calldatasize\n              sub\n              dup2\n              add\n              swap1\n              tag_26\n              swap2\n              swap1\n              tag_27\n              jump\t// in\n            tag_26:\n              tag_28\n              jump\t// in\n            tag_25:\n              stop\n                /* \"@openzeppelin/contracts/access/Ownable.sol\":2293:2394  function renounceOwnership() public virtual onlyOwner {... */\n            tag_9:\n                /* \"@openzeppelin/contracts/access/Ownable.sol\":1531:1544  _checkOwner() */\n              tag_30\n                /* \"@openzeppelin/contracts/access/Ownable.sol\":1531:1542  _checkOwner */\n              tag_31\n                /* \"@openzeppelin/contracts/access/Ownable.sol\":1531:1544  _checkOwner() */\n              jump\t// in\n            tag_30:\n                /* \"@openzeppelin/contracts/access/Ownable.sol\":2357:2387  _transferOwnership(address(0)) */\n              tag_33\n                /* \"@openzeppelin/contracts/access/Ownable.sol\":2384:2385  0 */\n              0x00\n                /* \"@openzeppelin/contracts/access/Ownable.sol\":2357:2375  _transferOwnership */\n              tag_34\n                /* \"@openzeppelin/contracts/access/Ownable.sol\":2357:2387  _transferOwnership(address(0)) */\n              jump\t// in\n            tag_33:\n                /* \"@openzeppelin/contracts/access/Ownable.sol\":2293:2394  function renounceOwnership() public virtual onlyOwner {... */\n              jump\t// out\n                /* \"@openzeppelin/contracts/access/Ownable.sol\":1638:1723  function owner() public view virtual returns (address) {... */\n            tag_12:\n                /* \"@openzeppelin/contracts/access/Ownable.sol\":1684:1691  address */\n              0x00\n                /* \"@openzeppelin/contracts/access/Ownable.sol\":1710:1716  _owner */\n              dup1\n              0x00\n              swap1\n              sload\n              swap1\n              0x0100\n              exp\n              swap1\n              div\n              0xffffffffffffffffffffffffffffffffffffffff\n              and\n                /* \"@openzeppelin/contracts/access/Ownable.sol\":1703:1716  return _owner */\n              swap1\n              pop\n                /* \"@openzeppelin/contracts/access/Ownable.sol\":1638:1723  function owner() public view virtual returns (address) {... */\n              swap1\n              jump\t// out\n                /* \"@openzeppelin/contracts/proxy/transparent/ProxyAdmin.sol\":1717:1962  function upgradeAndCall(... */\n            tag_18:\n                /* \"@openzeppelin/contracts/access/Ownable.sol\":1531:1544  _checkOwner() */\n              tag_37\n                /* \"@openzeppelin/contracts/access/Ownable.sol\":1531:1542  _checkOwner */\n              tag_31\n                /* \"@openzeppelin/contracts/access/Ownable.sol\":1531:1544  _checkOwner() */\n              jump\t// in\n            tag_37:\n                /* \"@openzeppelin/contracts/proxy/transparent/ProxyAdmin.sol\":1893:1898  proxy */\n              dup3\n                /* \"@openzeppelin/contracts/proxy/transparent/ProxyAdmin.sol\":1893:1915  proxy.upgradeToAndCall */\n              0xffffffffffffffffffffffffffffffffffffffff\n              and\n              0x4f1ef286\n                /* \"@openzeppelin/contracts/proxy/transparent/ProxyAdmin.sol\":1923:1932  msg.value */\n              callvalue\n                /* \"@openzeppelin/contracts/proxy/transparent/ProxyAdmin.sol\":1934:1948  implementation */\n              dup5\n                /* \"@openzeppelin/contracts/proxy/transparent/ProxyAdmin.sol\":1950:1954  data */\n              dup5\n                /* \"@openzeppelin/contracts/proxy/transparent/ProxyAdmin.sol\":1893:1955  proxy.upgradeToAndCall{value: msg.value}(implementation, data) */\n              mload(0x40)\n              dup5\n              0xffffffff\n              and\n              0xe0\n              shl\n              dup2\n              mstore\n              0x04\n              add\n              tag_39\n              swap3\n              swap2\n              swap1\n              tag_40\n              jump\t// in\n            tag_39:\n              0x00\n              mload(0x40)\n              dup1\n              dup4\n              sub\n              dup2\n              dup6\n              dup9\n              dup1\n              extcodesize\n              iszero\n              dup1\n              iszero\n              tag_41\n              jumpi\n              0x00\n              dup1\n              revert\n            tag_41:\n              pop\n              gas\n              call\n              iszero\n              dup1\n              iszero\n              tag_43\n              jumpi\n              returndatasize\n              0x00\n              dup1\n              returndatacopy\n              revert(0x00, returndatasize)\n            tag_43:\n              pop\n              pop\n              pop\n              pop\n              pop\n                /* \"@openzeppelin/contracts/proxy/transparent/ProxyAdmin.sol\":1717:1962  function upgradeAndCall(... */\n              pop\n              pop\n              pop\n              jump\t// out\n                /* \"@openzeppelin/contracts/proxy/transparent/ProxyAdmin.sol\":1187:1245  string public constant UPGRADE_INTERFACE_VERSION = \"5.0.0\" */\n            tag_21:\n              mload(0x40)\n              dup1\n              0x40\n              add\n              0x40\n              mstore\n              dup1\n              0x05\n              dup2\n              mstore\n              0x20\n              add\n              0x352e302e30000000000000000000000000000000000000000000000000000000\n              dup2\n              mstore\n              pop\n              dup2\n              jump\t// out\n                /* \"@openzeppelin/contracts/access/Ownable.sol\":2543:2758  function transferOwnership(address newOwner) public virtual onlyOwner {... */\n            tag_28:\n                /* \"@openzeppelin/contracts/access/Ownable.sol\":1531:1544  _checkOwner() */\n              tag_45\n                /* \"@openzeppelin/contracts/access/Ownable.sol\":1531:1542  _checkOwner */\n              tag_31\n                /* \"@openzeppelin/contracts/access/Ownable.sol\":1531:1544  _checkOwner() */\n              jump\t// in\n            tag_45:\n                /* \"@openzeppelin/contracts/access/Ownable.sol\":2647:2648  0 */\n              0x00\n                /* \"@openzeppelin/contracts/access/Ownable.sol\":2627:2649  newOwner == address(0) */\n              0xffffffffffffffffffffffffffffffffffffffff\n              and\n                /* \"@openzeppelin/contracts/access/Ownable.sol\":2627:2635  newOwner */\n              dup2\n                /* \"@openzeppelin/contracts/access/Ownable.sol\":2627:2649  newOwner == address(0) */\n              0xffffffffffffffffffffffffffffffffffffffff\n              and\n              sub\n                /* \"@openzeppelin/contracts/access/Ownable.sol\":2623:2714  if (newOwner == address(0)) {... */\n              tag_47\n              jumpi\n                /* \"@openzeppelin/contracts/access/Ownable.sol\":2700:2701  0 */\n              0x00\n                /* \"@openzeppelin/contracts/access/Ownable.sol\":2672:2703  OwnableInvalidOwner(address(0)) */\n              mload(0x40)\n              0x1e4fbdf700000000000000000000000000000000000000000000000000000000\n              dup2\n              mstore\n              0x04\n              add\n              tag_48\n              swap2\n              swap1\n              tag_14\n              jump\t// in\n            tag_48:\n              mload(0x40)\n              dup1\n              swap2\n              sub\n              swap1\n              revert\n                /* \"@openzeppelin/contracts/access/Ownable.sol\":2623:2714  if (newOwner == address(0)) {... */\n            tag_47:\n                /* \"@openzeppelin/contracts/access/Ownable.sol\":2723:2751  _transferOwnership(newOwner) */\n              tag_49\n                /* \"@openzeppelin/contracts/access/Ownable.sol\":2742:2750  newOwner */\n              dup2\n                /* \"@openzeppelin/contracts/access/Ownable.sol\":2723:2741  _transferOwnership */\n              tag_34\n                /* \"@openzeppelin/contracts/access/Ownable.sol\":2723:2751  _transferOwnership(newOwner) */\n              jump\t// in\n            tag_49:\n                /* \"@openzeppelin/contracts/access/Ownable.sol\":2543:2758  function transferOwnership(address newOwner) public virtual onlyOwner {... */\n              pop\n              jump\t// out\n                /* \"@openzeppelin/contracts/access/Ownable.sol\":1796:1958  function _checkOwner() internal view virtual {... */\n            tag_31:\n                /* \"@openzeppelin/contracts/access/Ownable.sol\":1866:1878  _msgSender() */\n              tag_51\n                /* \"@openzeppelin/contracts/access/Ownable.sol\":1866:1876  _msgSender */\n              tag_52\n                /* \"@openzeppelin/contracts/access/Ownable.sol\":1866:1878  _msgSender() */\n              jump\t// in\n            tag_51:\n                /* \"@openzeppelin/contracts/access/Ownable.sol\":1855:1878  owner() != _msgSender() */\n              0xffffffffffffffffffffffffffffffffffffffff\n              and\n                /* \"@openzeppelin/contracts/access/Ownable.sol\":1855:1862  owner() */\n              tag_53\n                /* \"@openzeppelin/contracts/access/Ownable.sol\":1855:1860  owner */\n              tag_12\n                /* \"@openzeppelin/contracts/access/Ownable.sol\":1855:1862  owner() */\n              jump\t// in\n            tag_53:\n                /* \"@openzeppelin/contracts/access/Ownable.sol\":1855:1878  owner() != _msgSender() */\n              0xffffffffffffffffffffffffffffffffffffffff\n              and\n              eq\n                /* \"@openzeppelin/contracts/access/Ownable.sol\":1851:1952  if (owner() != _msgSender()) {... */\n              tag_54\n              jumpi\n                /* \"@openzeppelin/contracts/access/Ownable.sol\":1928:1940  _msgSender() */\n              tag_55\n                /* \"@openzeppelin/contracts/access/Ownable.sol\":1928:1938  _msgSender */\n              tag_52\n                /* \"@openzeppelin/contracts/access/Ownable.sol\":1928:1940  _msgSender() */\n              jump\t// in\n            tag_55:\n                /* \"@openzeppelin/contracts/access/Ownable.sol\":1901:1941  OwnableUnauthorizedAccount(_msgSender()) */\n              mload(0x40)\n              0x118cdaa700000000000000000000000000000000000000000000000000000000\n              dup2\n              mstore\n              0x04\n              add\n              tag_56\n              swap2\n              swap1\n              tag_14\n              jump\t// in\n            tag_56:\n              mload(0x40)\n              dup1\n              swap2\n              sub\n              swap1\n              revert\n                /* \"@openzeppelin/contracts/access/Ownable.sol\":1851:1952  if (owner() != _msgSender()) {... */\n            tag_54:\n                /* \"@openzeppelin/contracts/access/Ownable.sol\":1796:1958  function _checkOwner() internal view virtual {... */\n              jump\t// out\n                /* \"@openzeppelin/contracts/access/Ownable.sol\":2912:3099  function _transferOwnership(address newOwner) internal virtual {... */\n            tag_34:\n                /* \"@openzeppelin/contracts/access/Ownable.sol\":2985:3001  address oldOwner */\n              0x00\n                /* \"@openzeppelin/contracts/access/Ownable.sol\":3004:3010  _owner */\n              dup1\n              0x00\n              swap1\n              sload\n              swap1\n              0x0100\n              exp\n              swap1\n              div\n              0xffffffffffffffffffffffffffffffffffffffff\n              and\n                /* \"@openzeppelin/contracts/access/Ownable.sol\":2985:3010  address oldOwner = _owner */\n              swap1\n              pop\n                /* \"@openzeppelin/contracts/access/Ownable.sol\":3029:3037  newOwner */\n              dup2\n                /* \"@openzeppelin/contracts/access/Ownable.sol\":3020:3026  _owner */\n              0x00\n              dup1\n                /* \"@openzeppelin/contracts/access/Ownable.sol\":3020:3037  _owner = newOwner */\n              0x0100\n              exp\n              dup2\n              sload\n              dup2\n              0xffffffffffffffffffffffffffffffffffffffff\n              mul\n              not\n              and\n              swap1\n              dup4\n              0xffffffffffffffffffffffffffffffffffffffff\n              and\n              mul\n              or\n              swap1\n              sstore\n              pop\n                /* \"@openzeppelin/contracts/access/Ownable.sol\":3083:3091  newOwner */\n              dup2\n                /* \"@openzeppelin/contracts/access/Ownable.sol\":3052:3092  OwnershipTransferred(oldOwner, newOwner) */\n              0xffffffffffffffffffffffffffffffffffffffff\n              and\n                /* \"@openzeppelin/contracts/access/Ownable.sol\":3073:3081  oldOwner */\n              dup2\n                /* \"@openzeppelin/contracts/access/Ownable.sol\":3052:3092  OwnershipTransferred(oldOwner, newOwner) */\n              0xffffffffffffffffffffffffffffffffffffffff\n              and\n              0x8be0079c531659141344cd1fd0a4f28419497f9722a3daafe3b4186f6b6457e0\n              mload(0x40)\n              mload(0x40)\n              dup1\n              swap2\n              sub\n              swap1\n              log3\n                /* \"@openzeppelin/contracts/access/Ownable.sol\":2975:3099  {... */\n              pop\n                /* \"@openzeppelin/contracts/access/Ownable.sol\":2912:3099  function _transferOwnership(address newOwner) internal virtual {... */\n              pop\n              jump\t// out\n                /* \"@openzeppelin/contracts/utils/Context.sol\":656:752  function _msgSender() internal view virtual returns (address) {... */\n            tag_52:\n                /* \"@openzeppelin/contracts/utils/Context.sol\":709:716  address */\n              0x00\n                /* \"@openzeppelin/contracts/utils/Context.sol\":735:745  msg.sender */\n              caller\n                /* \"@openzeppelin/contracts/utils/Context.sol\":728:745  return msg.sender */\n              swap1\n              pop\n                /* \"@openzeppelin/contracts/utils/Context.sol\":656:752  function _msgSender() internal view virtual returns (address) {... */\n              swap1\n              jump\t// out\n                /* \"#utility.yul\":7:133   */\n            tag_59:\n                /* \"#utility.yul\":44:51   */\n              0x00\n                /* \"#utility.yul\":84:126   */\n              0xffffffffffffffffffffffffffffffffffffffff\n                /* \"#utility.yul\":77:82   */\n              dup3\n                /* \"#utility.yul\":73:127   */\n              and\n                /* \"#utility.yul\":62:127   */\n              swap1\n              pop\n                /* \"#utility.yul\":7:133   */\n              swap2\n              swap1\n              pop\n              jump\t// out\n                /* \"#utility.yul\":139:235   */\n            tag_60:\n                /* \"#utility.yul\":176:183   */\n              0x00\n                /* \"#utility.yul\":205:229   */\n              tag_90\n                /* \"#utility.yul\":223:228   */\n              dup3\n                /* \"#utility.yul\":205:229   */\n              tag_59\n              jump\t// in\n            tag_90:\n                /* \"#utility.yul\":194:229   */\n              swap1\n              pop\n                /* \"#utility.yul\":139:235   */\n              swap2\n              swap1\n              pop\n              jump\t// out\n                /* \"#utility.yul\":241:359   */\n            tag_61:\n                /* \"#utility.yul\":328:352   */\n              tag_92\n                /* \"#utility.yul\":346:351   */\n              dup2\n                /* \"#utility.yul\":328:352   */\n              tag_60\n              jump\t// in\n            tag_92:\n                /* \"#utility.yul\":323:326   */\n              dup3\n                /* \"#utility.yul\":316:353   */\n              mstore\n                /* \"#utility.yul\":241:359   */\n              pop\n              pop\n              jump\t// out\n                /* \"#utility.yul\":365:587   */\n            tag_14:\n                /* \"#utility.yul\":458:462   */\n              0x00\n                /* \"#utility.yul\":496:498   */\n              0x20\n                /* \"#utility.yul\":485:494   */\n              dup3\n                /* \"#utility.yul\":481:499   */\n              add\n                /* \"#utility.yul\":473:499   */\n              swap1\n              pop\n                /* \"#utility.yul\":509:580   */\n              tag_94\n                /* \"#utility.yul\":577:578   */\n              0x00\n                /* \"#utility.yul\":566:575   */\n              dup4\n                /* \"#utility.yul\":562:579   */\n              add\n                /* \"#utility.yul\":553:559   */\n              dup5\n                /* \"#utility.yul\":509:580   */\n              tag_61\n              jump\t// in\n            tag_94:\n                /* \"#utility.yul\":365:587   */\n              swap3\n              swap2\n              pop\n              pop\n              jump\t// out\n                /* \"#utility.yul\":593:668   */\n            tag_62:\n                /* \"#utility.yul\":626:632   */\n              0x00\n                /* \"#utility.yul\":659:661   */\n              0x40\n                /* \"#utility.yul\":653:662   */\n              mload\n                /* \"#utility.yul\":643:662   */\n              swap1\n              pop\n                /* \"#utility.yul\":593:668   */\n              swap1\n              jump\t// out\n                /* \"#utility.yul\":674:791   */\n            tag_63:\n                /* \"#utility.yul\":783:784   */\n              0x00\n                /* \"#utility.yul\":780:781   */\n              dup1\n                /* \"#utility.yul\":773:785   */\n              revert\n                /* \"#utility.yul\":797:914   */\n            tag_64:\n                /* \"#utility.yul\":906:907   */\n              0x00\n                /* \"#utility.yul\":903:904   */\n              dup1\n                /* \"#utility.yul\":896:908   */\n              revert\n                /* \"#utility.yul\":920:1052   */\n            tag_65:\n                /* \"#utility.yul\":993:1000   */\n              0x00\n                /* \"#utility.yul\":1022:1046   */\n              tag_99\n                /* \"#utility.yul\":1040:1045   */\n              dup3\n                /* \"#utility.yul\":1022:1046   */\n              tag_60\n              jump\t// in\n            tag_99:\n                /* \"#utility.yul\":1011:1046   */\n              swap1\n              pop\n                /* \"#utility.yul\":920:1052   */\n              swap2\n              swap1\n              pop\n              jump\t// out\n                /* \"#utility.yul\":1058:1252   */\n            tag_66:\n                /* \"#utility.yul\":1167:1227   */\n              tag_101\n                /* \"#utility.yul\":1221:1226   */\n              dup2\n                /* \"#utility.yul\":1167:1227   */\n              tag_65\n              jump\t// in\n            tag_101:\n                /* \"#utility.yul\":1160:1165   */\n              dup2\n                /* \"#utility.yul\":1157:1228   */\n              eq\n                /* \"#utility.yul\":1147:1246   */\n              tag_102\n              jumpi\n                /* \"#utility.yul\":1242:1243   */\n              0x00\n                /* \"#utility.yul\":1239:1240   */\n              dup1\n                /* \"#utility.yul\":1232:1244   */\n              revert\n                /* \"#utility.yul\":1147:1246   */\n            tag_102:\n                /* \"#utility.yul\":1058:1252   */\n              pop\n              jump\t// out\n                /* \"#utility.yul\":1258:1469   */\n            tag_67:\n                /* \"#utility.yul\":1340:1345   */\n              0x00\n                /* \"#utility.yul\":1378:1384   */\n              dup2\n                /* \"#utility.yul\":1365:1385   */\n              calldataload\n                /* \"#utility.yul\":1356:1385   */\n              swap1\n              pop\n                /* \"#utility.yul\":1394:1463   */\n              tag_104\n                /* \"#utility.yul\":1457:1462   */\n              dup2\n                /* \"#utility.yul\":1394:1463   */\n              tag_66\n              jump\t// in\n            tag_104:\n                /* \"#utility.yul\":1258:1469   */\n              swap3\n              swap2\n              pop\n              pop\n              jump\t// out\n                /* \"#utility.yul\":1475:1597   */\n            tag_68:\n                /* \"#utility.yul\":1548:1572   */\n              tag_106\n                /* \"#utility.yul\":1566:1571   */\n              dup2\n                /* \"#utility.yul\":1548:1572   */\n              tag_60\n              jump\t// in\n            tag_106:\n                /* \"#utility.yul\":1541:1546   */\n              dup2\n                /* \"#utility.yul\":1538:1573   */\n              eq\n                /* \"#utility.yul\":1528:1591   */\n              tag_107\n              jumpi\n                /* \"#utility.yul\":1587:1588   */\n              0x00\n                /* \"#utility.yul\":1584:1585   */\n              dup1\n                /* \"#utility.yul\":1577:1589   */\n              revert\n                /* \"#utility.yul\":1528:1591   */\n            tag_107:\n                /* \"#utility.yul\":1475:1597   */\n              pop\n              jump\t// out\n                /* \"#utility.yul\":1603:1742   */\n            tag_69:\n                /* \"#utility.yul\":1649:1654   */\n              0x00\n                /* \"#utility.yul\":1687:1693   */\n              dup2\n                /* \"#utility.yul\":1674:1694   */\n              calldataload\n                /* \"#utility.yul\":1665:1694   */\n              swap1\n              pop\n                /* \"#utility.yul\":1703:1736   */\n              tag_109\n                /* \"#utility.yul\":1730:1735   */\n              dup2\n                /* \"#utility.yul\":1703:1736   */\n              tag_68\n              jump\t// in\n            tag_109:\n                /* \"#utility.yul\":1603:1742   */\n              swap3\n              swap2\n              pop\n              pop\n              jump\t// out\n                /* \"#utility.yul\":1748:1865   */\n            tag_70:\n                /* \"#utility.yul\":1857:1858   */\n              0x00\n                /* \"#utility.yul\":1854:1855   */\n              dup1\n                /* \"#utility.yul\":1847:1859   */\n              revert\n                /* \"#utility.yul\":1871:1988   */\n            tag_71:\n                /* \"#utility.yul\":1980:1981   */\n              0x00\n                /* \"#utility.yul\":1977:1978   */\n              dup1\n                /* \"#utility.yul\":1970:1982   */\n              revert\n                /* \"#utility.yul\":1994:2096   */\n            tag_72:\n                /* \"#utility.yul\":2035:2041   */\n              0x00\n                /* \"#utility.yul\":2086:2088   */\n              0x1f\n                /* \"#utility.yul\":2082:2089   */\n              not\n                /* \"#utility.yul\":2077:2079   */\n              0x1f\n                /* \"#utility.yul\":2070:2075   */\n              dup4\n                /* \"#utility.yul\":2066:2080   */\n              add\n                /* \"#utility.yul\":2062:2090   */\n              and\n                /* \"#utility.yul\":2052:2090   */\n              swap1\n              pop\n                /* \"#utility.yul\":1994:2096   */\n              swap2\n              swap1\n              pop\n              jump\t// out\n                /* \"#utility.yul\":2102:2282   */\n            tag_73:\n                /* \"#utility.yul\":2150:2227   */\n              0x4e487b7100000000000000000000000000000000000000000000000000000000\n                /* \"#utility.yul\":2147:2148   */\n              0x00\n                /* \"#utility.yul\":2140:2228   */\n              mstore\n                /* \"#utility.yul\":2247:2251   */\n              0x41\n                /* \"#utility.yul\":2244:2245   */\n              0x04\n                /* \"#utility.yul\":2237:2252   */\n              mstore\n                /* \"#utility.yul\":2271:2275   */\n              0x24\n                /* \"#utility.yul\":2268:2269   */\n              0x00\n                /* \"#utility.yul\":2261:2276   */\n              revert\n                /* \"#utility.yul\":2288:2569   */\n            tag_74:\n                /* \"#utility.yul\":2371:2398   */\n              tag_115\n                /* \"#utility.yul\":2393:2397   */\n              dup3\n                /* \"#utility.yul\":2371:2398   */\n              tag_72\n              jump\t// in\n            tag_115:\n                /* \"#utility.yul\":2363:2369   */\n              dup2\n                /* \"#utility.yul\":2359:2399   */\n              add\n                /* \"#utility.yul\":2501:2507   */\n              dup2\n                /* \"#utility.yul\":2489:2499   */\n              dup2\n                /* \"#utility.yul\":2486:2508   */\n              lt\n                /* \"#utility.yul\":2465:2483   */\n              0xffffffffffffffff\n                /* \"#utility.yul\":2453:2463   */\n              dup3\n                /* \"#utility.yul\":2450:2484   */\n              gt\n                /* \"#utility.yul\":2447:2509   */\n              or\n                /* \"#utility.yul\":2444:2532   */\n              iszero\n              tag_116\n              jumpi\n                /* \"#utility.yul\":2512:2530   */\n              tag_117\n              tag_73\n              jump\t// in\n            tag_117:\n                /* \"#utility.yul\":2444:2532   */\n            tag_116:\n                /* \"#utility.yul\":2552:2562   */\n              dup1\n                /* \"#utility.yul\":2548:2550   */\n              0x40\n                /* \"#utility.yul\":2541:2563   */\n              mstore\n                /* \"#utility.yul\":2331:2569   */\n              pop\n                /* \"#utility.yul\":2288:2569   */\n              pop\n              pop\n              jump\t// out\n                /* \"#utility.yul\":2575:2704   */\n            tag_75:\n                /* \"#utility.yul\":2609:2615   */\n              0x00\n                /* \"#utility.yul\":2636:2656   */\n              tag_119\n              tag_62\n              jump\t// in\n            tag_119:\n                /* \"#utility.yul\":2626:2656   */\n              swap1\n              pop\n                /* \"#utility.yul\":2665:2698   */\n              tag_120\n                /* \"#utility.yul\":2693:2697   */\n              dup3\n                /* \"#utility.yul\":2685:2691   */\n              dup3\n                /* \"#utility.yul\":2665:2698   */\n              tag_74\n              jump\t// in\n            tag_120:\n                /* \"#utility.yul\":2575:2704   */\n              swap2\n              swap1\n              pop\n              jump\t// out\n                /* \"#utility.yul\":2710:3017   */\n            tag_76:\n                /* \"#utility.yul\":2771:2775   */\n              0x00\n                /* \"#utility.yul\":2861:2879   */\n              0xffffffffffffffff\n                /* \"#utility.yul\":2853:2859   */\n              dup3\n                /* \"#utility.yul\":2850:2880   */\n              gt\n                /* \"#utility.yul\":2847:2903   */\n              iszero\n              tag_122\n              jumpi\n                /* \"#utility.yul\":2883:2901   */\n              tag_123\n              tag_73\n              jump\t// in\n            tag_123:\n                /* \"#utility.yul\":2847:2903   */\n            tag_122:\n                /* \"#utility.yul\":2921:2950   */\n              tag_124\n                /* \"#utility.yul\":2943:2949   */\n              dup3\n                /* \"#utility.yul\":2921:2950   */\n              tag_72\n              jump\t// in\n            tag_124:\n                /* \"#utility.yul\":2913:2950   */\n              swap1\n              pop\n                /* \"#utility.yul\":3005:3009   */\n              0x20\n                /* \"#utility.yul\":2999:3003   */\n              dup2\n                /* \"#utility.yul\":2995:3010   */\n              add\n                /* \"#utility.yul\":2987:3010   */\n              swap1\n              pop\n                /* \"#utility.yul\":2710:3017   */\n              swap2\n              swap1\n              pop\n              jump\t// out\n                /* \"#utility.yul\":3023:3171   */\n            tag_77:\n                /* \"#utility.yul\":3121:3127   */\n              dup3\n                /* \"#utility.yul\":3116:3119   */\n              dup2\n                /* \"#utility.yul\":3111:3114   */\n              dup4\n                /* \"#utility.yul\":3098:3128   */\n              calldatacopy\n                /* \"#utility.yul\":3162:3163   */\n              0x00\n                /* \"#utility.yul\":3153:3159   */\n              dup4\n                /* \"#utility.yul\":3148:3151   */\n              dup4\n                /* \"#utility.yul\":3144:3160   */\n              add\n                /* \"#utility.yul\":3137:3164   */\n              mstore\n                /* \"#utility.yul\":3023:3171   */\n              pop\n              pop\n              pop\n              jump\t// out\n                /* \"#utility.yul\":3177:3600   */\n            tag_78:\n                /* \"#utility.yul\":3254:3259   */\n              0x00\n                /* \"#utility.yul\":3279:3344   */\n              tag_127\n                /* \"#utility.yul\":3295:3343   */\n              tag_128\n                /* \"#utility.yul\":3336:3342   */\n              dup5\n                /* \"#utility.yul\":3295:3343   */\n              tag_76\n              jump\t// in\n            tag_128:\n                /* \"#utility.yul\":3279:3344   */\n              tag_75\n              jump\t// in\n            tag_127:\n                /* \"#utility.yul\":3270:3344   */\n              swap1\n              pop\n                /* \"#utility.yul\":3367:3373   */\n              dup3\n                /* \"#utility.yul\":3360:3365   */\n              dup2\n                /* \"#utility.yul\":3353:3374   */\n              mstore\n                /* \"#utility.yul\":3405:3409   */\n              0x20\n                /* \"#utility.yul\":3398:3403   */\n              dup2\n                /* \"#utility.yul\":3394:3410   */\n              add\n                /* \"#utility.yul\":3443:3446   */\n              dup5\n                /* \"#utility.yul\":3434:3440   */\n              dup5\n                /* \"#utility.yul\":3429:3432   */\n              dup5\n                /* \"#utility.yul\":3425:3441   */\n              add\n                /* \"#utility.yul\":3422:3447   */\n              gt\n                /* \"#utility.yul\":3419:3531   */\n              iszero\n              tag_129\n              jumpi\n                /* \"#utility.yul\":3450:3529   */\n              tag_130\n              tag_71\n              jump\t// in\n            tag_130:\n                /* \"#utility.yul\":3419:3531   */\n            tag_129:\n                /* \"#utility.yul\":3540:3594   */\n              tag_131\n                /* \"#utility.yul\":3587:3593   */\n              dup5\n                /* \"#utility.yul\":3582:3585   */\n              dup3\n                /* \"#utility.yul\":3577:3580   */\n              dup6\n                /* \"#utility.yul\":3540:3594   */\n              tag_77\n              jump\t// in\n            tag_131:\n                /* \"#utility.yul\":3260:3600   */\n              pop\n                /* \"#utility.yul\":3177:3600   */\n              swap4\n              swap3\n              pop\n              pop\n              pop\n              jump\t// out\n                /* \"#utility.yul\":3619:3957   */\n            tag_79:\n                /* \"#utility.yul\":3674:3679   */\n              0x00\n                /* \"#utility.yul\":3723:3726   */\n              dup3\n                /* \"#utility.yul\":3716:3720   */\n              0x1f\n                /* \"#utility.yul\":3708:3714   */\n              dup4\n                /* \"#utility.yul\":3704:3721   */\n              add\n                /* \"#utility.yul\":3700:3727   */\n              slt\n                /* \"#utility.yul\":3690:3812   */\n              tag_133\n              jumpi\n                /* \"#utility.yul\":3731:3810   */\n              tag_134\n              tag_70\n              jump\t// in\n            tag_134:\n                /* \"#utility.yul\":3690:3812   */\n            tag_133:\n                /* \"#utility.yul\":3848:3854   */\n              dup2\n                /* \"#utility.yul\":3835:3855   */\n              calldataload\n                /* \"#utility.yul\":3873:3951   */\n              tag_135\n                /* \"#utility.yul\":3947:3950   */\n              dup5\n                /* \"#utility.yul\":3939:3945   */\n              dup3\n                /* \"#utility.yul\":3932:3936   */\n              0x20\n                /* \"#utility.yul\":3924:3930   */\n              dup7\n                /* \"#utility.yul\":3920:3937   */\n              add\n                /* \"#utility.yul\":3873:3951   */\n              tag_78\n              jump\t// in\n            tag_135:\n                /* \"#utility.yul\":3864:3951   */\n              swap2\n              pop\n                /* \"#utility.yul\":3680:3957   */\n              pop\n                /* \"#utility.yul\":3619:3957   */\n              swap3\n              swap2\n              pop\n              pop\n              jump\t// out\n                /* \"#utility.yul\":3963:4832   */\n            tag_17:\n                /* \"#utility.yul\":4085:4091   */\n              0x00\n                /* \"#utility.yul\":4093:4099   */\n              dup1\n                /* \"#utility.yul\":4101:4107   */\n              0x00\n                /* \"#utility.yul\":4150:4152   */\n              0x60\n                /* \"#utility.yul\":4138:4147   */\n              dup5\n                /* \"#utility.yul\":4129:4136   */\n              dup7\n                /* \"#utility.yul\":4125:4148   */\n              sub\n                /* \"#utility.yul\":4121:4153   */\n              slt\n                /* \"#utility.yul\":4118:4237   */\n              iszero\n              tag_137\n              jumpi\n                /* \"#utility.yul\":4156:4235   */\n              tag_138\n              tag_63\n              jump\t// in\n            tag_138:\n                /* \"#utility.yul\":4118:4237   */\n            tag_137:\n                /* \"#utility.yul\":4276:4277   */\n              0x00\n                /* \"#utility.yul\":4301:4390   */\n              tag_139\n                /* \"#utility.yul\":4382:4389   */\n              dup7\n                /* \"#utility.yul\":4373:4379   */\n              dup3\n                /* \"#utility.yul\":4362:4371   */\n              dup8\n                /* \"#utility.yul\":4358:4380   */\n              add\n                /* \"#utility.yul\":4301:4390   */\n              tag_67\n              jump\t// in\n            tag_139:\n                /* \"#utility.yul\":4291:4390   */\n              swap4\n              pop\n                /* \"#utility.yul\":4247:4400   */\n              pop\n                /* \"#utility.yul\":4439:4441   */\n              0x20\n                /* \"#utility.yul\":4465:4518   */\n              tag_140\n                /* \"#utility.yul\":4510:4517   */\n              dup7\n                /* \"#utility.yul\":4501:4507   */\n              dup3\n                /* \"#utility.yul\":4490:4499   */\n              dup8\n                /* \"#utility.yul\":4486:4508   */\n              add\n                /* \"#utility.yul\":4465:4518   */\n              tag_69\n              jump\t// in\n            tag_140:\n                /* \"#utility.yul\":4455:4518   */\n              swap3\n              pop\n                /* \"#utility.yul\":4410:4528   */\n              pop\n                /* \"#utility.yul\":4595:4597   */\n              0x40\n                /* \"#utility.yul\":4584:4593   */\n              dup5\n                /* \"#utility.yul\":4580:4598   */\n              add\n                /* \"#utility.yul\":4567:4599   */\n              calldataload\n                /* \"#utility.yul\":4626:4644   */\n              0xffffffffffffffff\n                /* \"#utility.yul\":4618:4624   */\n              dup2\n                /* \"#utility.yul\":4615:4645   */\n              gt\n                /* \"#utility.yul\":4612:4729   */\n              iszero\n              tag_141\n              jumpi\n                /* \"#utility.yul\":4648:4727   */\n              tag_142\n              tag_64\n              jump\t// in\n            tag_142:\n                /* \"#utility.yul\":4612:4729   */\n            tag_141:\n                /* \"#utility.yul\":4753:4815   */\n              tag_143\n                /* \"#utility.yul\":4807:4814   */\n              dup7\n                /* \"#utility.yul\":4798:4804   */\n              dup3\n                /* \"#utility.yul\":4787:4796   */\n              dup8\n                /* \"#utility.yul\":4783:4805   */\n              add\n                /* \"#utility.yul\":4753:4815   */\n              tag_79\n              jump\t// in\n            tag_143:\n                /* \"#utility.yul\":4743:4815   */\n              swap2\n              pop\n                /* \"#utility.yul\":4538:4825   */\n              pop\n                /* \"#utility.yul\":3963:4832   */\n              swap3\n              pop\n              swap3\n              pop\n              swap3\n              jump\t// out\n                /* \"#utility.yul\":4838:4937   */\n            tag_80:\n                /* \"#utility.yul\":4890:4896   */\n              0x00\n                /* \"#utility.yul\":4924:4929   */\n              dup2\n                /* \"#utility.yul\":4918:4930   */\n              mload\n                /* \"#utility.yul\":4908:4930   */\n              swap1\n              pop\n                /* \"#utility.yul\":4838:4937   */\n              swap2\n              swap1\n              pop\n              jump\t// out\n                /* \"#utility.yul\":4943:5112   */\n            tag_81:\n                /* \"#utility.yul\":5027:5038   */\n              0x00\n                /* \"#utility.yul\":5061:5067   */\n              dup3\n                /* \"#utility.yul\":5056:5059   */\n              dup3\n                /* \"#utility.yul\":5049:5068   */\n              mstore\n                /* \"#utility.yul\":5101:5105   */\n              0x20\n                /* \"#utility.yul\":5096:5099   */\n              dup3\n                /* \"#utility.yul\":5092:5106   */\n              add\n                /* \"#utility.yul\":5077:5106   */\n              swap1\n              pop\n                /* \"#utility.yul\":4943:5112   */\n              swap3\n              swap2\n              pop\n              pop\n              jump\t// out\n                /* \"#utility.yul\":5118:5366   */\n            tag_82:\n                /* \"#utility.yul\":5200:5201   */\n              0x00\n                /* \"#utility.yul\":5210:5323   */\n            tag_147:\n                /* \"#utility.yul\":5224:5230   */\n              dup4\n                /* \"#utility.yul\":5221:5222   */\n              dup2\n                /* \"#utility.yul\":5218:5231   */\n              lt\n                /* \"#utility.yul\":5210:5323   */\n              iszero\n              tag_149\n              jumpi\n                /* \"#utility.yul\":5309:5310   */\n              dup1\n                /* \"#utility.yul\":5304:5307   */\n              dup3\n                /* \"#utility.yul\":5300:5311   */\n              add\n                /* \"#utility.yul\":5294:5312   */\n              mload\n                /* \"#utility.yul\":5290:5291   */\n              dup2\n                /* \"#utility.yul\":5285:5288   */\n              dup5\n                /* \"#utility.yul\":5281:5292   */\n              add\n                /* \"#utility.yul\":5274:5313   */\n              mstore\n                /* \"#utility.yul\":5246:5248   */\n              0x20\n                /* \"#utility.yul\":5243:5244   */\n              dup2\n                /* \"#utility.yul\":5239:5249   */\n              add\n                /* \"#utility.yul\":5234:5249   */\n              swap1\n              pop\n                /* \"#utility.yul\":5210:5323   */\n              jump(tag_147)\n            tag_149:\n                /* \"#utility.yul\":5357:5358   */\n              0x00\n                /* \"#utility.yul\":5348:5354   */\n              dup5\n                /* \"#utility.yul\":5343:5346   */\n              dup5\n                /* \"#utility.yul\":5339:5355   */\n              add\n                /* \"#utility.yul\":5332:5359   */\n              mstore\n                /* \"#utility.yul\":5180:5366   */\n              pop\n                /* \"#utility.yul\":5118:5366   */\n              pop\n              pop\n              pop\n              jump\t// out\n                /* \"#utility.yul\":5372:5749   */\n            tag_83:\n                /* \"#utility.yul\":5460:5463   */\n              0x00\n                /* \"#utility.yul\":5488:5527   */\n              tag_151\n                /* \"#utility.yul\":5521:5526   */\n              dup3\n                /* \"#utility.yul\":5488:5527   */\n              tag_80\n              jump\t// in\n            tag_151:\n                /* \"#utility.yul\":5543:5614   */\n              tag_152\n                /* \"#utility.yul\":5607:5613   */\n              dup2\n                /* \"#utility.yul\":5602:5605   */\n              dup6\n                /* \"#utility.yul\":5543:5614   */\n              tag_81\n              jump\t// in\n            tag_152:\n                /* \"#utility.yul\":5536:5614   */\n              swap4\n              pop\n                /* \"#utility.yul\":5623:5688   */\n              tag_153\n                /* \"#utility.yul\":5681:5687   */\n              dup2\n                /* \"#utility.yul\":5676:5679   */\n              dup6\n                /* \"#utility.yul\":5669:5673   */\n              0x20\n                /* \"#utility.yul\":5662:5667   */\n              dup7\n                /* \"#utility.yul\":5658:5674   */\n              add\n                /* \"#utility.yul\":5623:5688   */\n              tag_82\n              jump\t// in\n            tag_153:\n                /* \"#utility.yul\":5713:5742   */\n              tag_154\n                /* \"#utility.yul\":5735:5741   */\n              dup2\n                /* \"#utility.yul\":5713:5742   */\n              tag_72\n              jump\t// in\n            tag_154:\n                /* \"#utility.yul\":5708:5711   */\n              dup5\n                /* \"#utility.yul\":5704:5743   */\n              add\n                /* \"#utility.yul\":5697:5743   */\n              swap2\n              pop\n                /* \"#utility.yul\":5464:5749   */\n              pop\n                /* \"#utility.yul\":5372:5749   */\n              swap3\n              swap2\n              pop\n              pop\n              jump\t// out\n                /* \"#utility.yul\":5755:6068   */\n            tag_23:\n                /* \"#utility.yul\":5868:5872   */\n              0x00\n                /* \"#utility.yul\":5906:5908   */\n              0x20\n                /* \"#utility.yul\":5895:5904   */\n              dup3\n                /* \"#utility.yul\":5891:5909   */\n              add\n                /* \"#utility.yul\":5883:5909   */\n              swap1\n              pop\n                /* \"#utility.yul\":5955:5964   */\n              dup2\n                /* \"#utility.yul\":5949:5953   */\n              dup2\n                /* \"#utility.yul\":5945:5965   */\n              sub\n                /* \"#utility.yul\":5941:5942   */\n              0x00\n                /* \"#utility.yul\":5930:5939   */\n              dup4\n                /* \"#utility.yul\":5926:5943   */\n              add\n                /* \"#utility.yul\":5919:5966   */\n              mstore\n                /* \"#utility.yul\":5983:6061   */\n              tag_156\n                /* \"#utility.yul\":6056:6060   */\n              dup2\n                /* \"#utility.yul\":6047:6053   */\n              dup5\n                /* \"#utility.yul\":5983:6061   */\n              tag_83\n              jump\t// in\n            tag_156:\n                /* \"#utility.yul\":5975:6061   */\n              swap1\n              pop\n                /* \"#utility.yul\":5755:6068   */\n              swap3\n              swap2\n              pop\n              pop\n              jump\t// out\n                /* \"#utility.yul\":6074:6403   */\n            tag_27:\n                /* \"#utility.yul\":6133:6139   */\n              0x00\n                /* \"#utility.yul\":6182:6184   */\n              0x20\n                /* \"#utility.yul\":6170:6179   */\n              dup3\n                /* \"#utility.yul\":6161:6168   */\n              dup5\n                /* \"#utility.yul\":6157:6180   */\n              sub\n                /* \"#utility.yul\":6153:6185   */\n              slt\n                /* \"#utility.yul\":6150:6269   */\n              iszero\n              tag_158\n              jumpi\n                /* \"#utility.yul\":6188:6267   */\n              tag_159\n              tag_63\n              jump\t// in\n            tag_159:\n                /* \"#utility.yul\":6150:6269   */\n            tag_158:\n                /* \"#utility.yul\":6308:6309   */\n              0x00\n                /* \"#utility.yul\":6333:6386   */\n              tag_160\n                /* \"#utility.yul\":6378:6385   */\n              dup5\n                /* \"#utility.yul\":6369:6375   */\n              dup3\n                /* \"#utility.yul\":6358:6367   */\n              dup6\n                /* \"#utility.yul\":6354:6376   */\n              add\n                /* \"#utility.yul\":6333:6386   */\n              tag_69\n              jump\t// in\n            tag_160:\n                /* \"#utility.yul\":6323:6386   */\n              swap2\n              pop\n                /* \"#utility.yul\":6279:6396   */\n              pop\n                /* \"#utility.yul\":6074:6403   */\n              swap3\n              swap2\n              pop\n              pop\n              jump\t// out\n                /* \"#utility.yul\":6409:6507   */\n            tag_84:\n                /* \"#utility.yul\":6460:6466   */\n              0x00\n                /* \"#utility.yul\":6494:6499   */\n              dup2\n                /* \"#utility.yul\":6488:6500   */\n              mload\n                /* \"#utility.yul\":6478:6500   */\n              swap1\n              pop\n                /* \"#utility.yul\":6409:6507   */\n              swap2\n              swap1\n              pop\n              jump\t// out\n                /* \"#utility.yul\":6513:6681   */\n            tag_85:\n                /* \"#utility.yul\":6596:6607   */\n              0x00\n                /* \"#utility.yul\":6630:6636   */\n              dup3\n                /* \"#utility.yul\":6625:6628   */\n              dup3\n                /* \"#utility.yul\":6618:6637   */\n              mstore\n                /* \"#utility.yul\":6670:6674   */\n              0x20\n                /* \"#utility.yul\":6665:6668   */\n              dup3\n                /* \"#utility.yul\":6661:6675   */\n              add\n                /* \"#utility.yul\":6646:6675   */\n              swap1\n              pop\n                /* \"#utility.yul\":6513:6681   */\n              swap3\n              swap2\n              pop\n              pop\n              jump\t// out\n                /* \"#utility.yul\":6687:7060   */\n            tag_86:\n                /* \"#utility.yul\":6773:6776   */\n              0x00\n                /* \"#utility.yul\":6801:6839   */\n              tag_164\n                /* \"#utility.yul\":6833:6838   */\n              dup3\n                /* \"#utility.yul\":6801:6839   */\n              tag_84\n              jump\t// in\n            tag_164:\n                /* \"#utility.yul\":6855:6925   */\n              tag_165\n                /* \"#utility.yul\":6918:6924   */\n              dup2\n                /* \"#utility.yul\":6913:6916   */\n              dup6\n                /* \"#utility.yul\":6855:6925   */\n              tag_85\n              jump\t// in\n            tag_165:\n                /* \"#utility.yul\":6848:6925   */\n              swap4\n              pop\n                /* \"#utility.yul\":6934:6999   */\n              tag_166\n                /* \"#utility.yul\":6992:6998   */\n              dup2\n                /* \"#utility.yul\":6987:6990   */\n              dup6\n                /* \"#utility.yul\":6980:6984   */\n              0x20\n                /* \"#utility.yul\":6973:6978   */\n              dup7\n                /* \"#utility.yul\":6969:6985   */\n              add\n                /* \"#utility.yul\":6934:6999   */\n              tag_82\n              jump\t// in\n            tag_166:\n                /* \"#utility.yul\":7024:7053   */\n              tag_167\n                /* \"#utility.yul\":7046:7052   */\n              dup2\n                /* \"#utility.yul\":7024:7053   */\n              tag_72\n              jump\t// in\n            tag_167:\n                /* \"#utility.yul\":7019:7022   */\n              dup5\n                /* \"#utility.yul\":7015:7054   */\n              add\n                /* \"#utility.yul\":7008:7054   */\n              swap2\n              pop\n                /* \"#utility.yul\":6777:7060   */\n              pop\n                /* \"#utility.yul\":6687:7060   */\n              swap3\n              swap2\n              pop\n              pop\n              jump\t// out\n                /* \"#utility.yul\":7066:7485   */\n            tag_40:\n                /* \"#utility.yul\":7205:7209   */\n              0x00\n                /* \"#utility.yul\":7243:7245   */\n              0x40\n                /* \"#utility.yul\":7232:7241   */\n              dup3\n                /* \"#utility.yul\":7228:7246   */\n              add\n                /* \"#utility.yul\":7220:7246   */\n              swap1\n              pop\n                /* \"#utility.yul\":7256:7327   */\n              tag_169\n                /* \"#utility.yul\":7324:7325   */\n              0x00\n                /* \"#utility.yul\":7313:7322   */\n              dup4\n                /* \"#utility.yul\":7309:7326   */\n              add\n                /* \"#utility.yul\":7300:7306   */\n              dup6\n                /* \"#utility.yul\":7256:7327   */\n              tag_61\n              jump\t// in\n            tag_169:\n                /* \"#utility.yul\":7374:7383   */\n              dup2\n                /* \"#utility.yul\":7368:7372   */\n              dup2\n                /* \"#utility.yul\":7364:7384   */\n              sub\n                /* \"#utility.yul\":7359:7361   */\n              0x20\n                /* \"#utility.yul\":7348:7357   */\n              dup4\n                /* \"#utility.yul\":7344:7362   */\n              add\n                /* \"#utility.yul\":7337:7385   */\n              mstore\n                /* \"#utility.yul\":7402:7478   */\n              tag_170\n                /* \"#utility.yul\":7473:7477   */\n              dup2\n                /* \"#utility.yul\":7464:7470   */\n              dup5\n                /* \"#utility.yul\":7402:7478   */\n              tag_86\n              jump\t// in\n            tag_170:\n                /* \"#utility.yul\":7394:7478   */\n              swap1\n              pop\n                /* \"#utility.yul\":7066:7485   */\n              swap4\n              swap3\n              pop\n              pop\n              pop\n              jump\t// out\n\n            auxdata: 0xa2646970667358221220f170e03813ff411d05a46a24a8ce10f75c3155b20d4b9e54f13616b05a79ceb264736f6c634300081d0033\n        }\n    }\n}\n",
				"bytecode": {
					"linkReferences": {},
					"object": "608060405234801561001057600080fd5b50604051611dca380380611dca8339818101604052810190610032919061011e565b8181604051610040906100ae565b61004b9291906101a4565b604051809103906000f080158015610067573d6000803e3d6000fd5b506000806101000a81548173ffffffffffffffffffffffffffffffffffffffff021916908373ffffffffffffffffffffffffffffffffffffffff16021790555050506101e0565b611ae5806102e583390190565b600080fd5b600073ffffffffffffffffffffffffffffffffffffffff82169050919050565b60006100eb826100c0565b9050919050565b6100fb816100e0565b811461010657600080fd5b50565b600081519050610118816100f2565b92915050565b60008060408385031215610135576101346100bb565b5b600061014385828601610109565b925050602061015485828601610109565b9150509250929050565b610167816100e0565b82525050565b600082825260208201905092915050565b50565b600061018e60008361016d565b91506101998261017e565b600082019050919050565b60006060820190506101b9600083018561015e565b6101c6602083018461015e565b81810360408301526101d781610181565b90509392505050565b60f7806101ee6000396000f3fe6080604052348015600f57600080fd5b506004361060285760003560e01c8063ec55688914602d575b600080fd5b60336047565b604051603e919060a8565b60405180910390f35b60008054906101000a900473ffffffffffffffffffffffffffffffffffffffff1681565b600073ffffffffffffffffffffffffffffffffffffffff82169050919050565b6000609482606b565b9050919050565b60a281608b565b82525050565b600060208201905060bb6000830184609b565b9291505056fea2646970667358221220f43fdc24f69d910cc0a9997b84524a2448bfe782d36a50bb3d4bb8a21b56d72964736f6c634300081d003360a0604052604051611ae5380380611ae58339818101604052810190610025919061074f565b828161003782826100c460201b60201c565b5050816040516100469061056f565b61005091906107cd565b604051809103906000f08015801561006c573d6000803e3d6000fd5b5073ffffffffffffffffffffffffffffffffffffffff1660808173ffffffffffffffffffffffffffffffffffffffff16815250506100bc6100b161014960201b60201c565b61015360201b60201c565b50505061086f565b6100d3826101ab60201b60201c565b8173ffffffffffffffffffffffffffffffffffffffff167fbc7cd75a20ee27fd9adebab32041f755214dbc6bffa90cc0225b39da2e5c2d3b60405160405180910390a260008151111561013657610130828261027e60201b60201c565b50610145565b61014461030860201b60201c565b5b5050565b6000608051905090565b7f7e644d79422f17c01e4894b5f4f588d331ebfa28653d42ae832dc59e38c9798f61018261034560201b60201c565b826040516101919291906107e8565b60405180910390a16101a8816103a260201b60201c565b50565b60008173ffffffffffffffffffffffffffffffffffffffff163b0361020757806040517f4c9c8ce30000000000000000000000000000000000000000000000000000000081526004016101fe91906107cd565b60405180910390fd5b8061023a7f360894a13ba1a3210667c828492db98dca3e2076cc3735a920a3ca505d382bbc60001b61048b60201b60201c565b60000160006101000a81548173ffffffffffffffffffffffffffffffffffffffff021916908373ffffffffffffffffffffffffffffffffffffffff16021790555050565b60606000808473ffffffffffffffffffffffffffffffffffffffff16846040516102a89190610858565b600060405180830381855af49150503d80600081146102e3576040519150601f19603f3d011682016040523d82523d6000602084013e6102e8565b606091505b50915091506102fe85838361049560201b60201c565b9250505092915050565b6000341115610343576040517fb398979f00000000000000000000000000000000000000000000000000000000815260040160405180910390fd5b565b60006103797fb53127684a568b3173ae13b9f8a6016e243e63b6e8ee1178d6a717850b5d610360001b61048b60201b60201c565b60000160009054906101000a900473ffffffffffffffffffffffffffffffffffffffff16905090565b600073ffffffffffffffffffffffffffffffffffffffff168173ffffffffffffffffffffffffffffffffffffffff16036104145760006040517f62e77ba200000000000000000000000000000000000000000000000000000000815260040161040b91906107cd565b60405180910390fd5b806104477fb53127684a568b3173ae13b9f8a6016e243e63b6e8ee1178d6a717850b5d610360001b61048b60201b60201c565b60000160006101000a81548173ffffffffffffffffffffffffffffffffffffffff021916908373ffffffffffffffffffffffffffffffffffffffff16021790555050565b6000819050919050565b6060826104b0576104ab8261052a60201b60201c565b610522565b600082511480156104d8575060008473ffffffffffffffffffffffffffffffffffffffff163b145b1561051a57836040517f9996b31500000000000000000000000000000000000000000000000000000000815260040161051191906107cd565b60405180910390fd5b819050610523565b5b9392505050565b60008151111561053d5780518082602001fd5b6040517fd6bda27500000000000000000000000000000000000000000000000000000000815260040160405180910390fd5b610a2b806110ba83390190565b6000604051905090565b600080fd5b600080fd5b600073ffffffffffffffffffffffffffffffffffffffff82169050919050565b60006105bb82610590565b9050919050565b6105cb816105b0565b81146105d657600080fd5b50565b6000815190506105e8816105c2565b92915050565b600080fd5b600080fd5b6000601f19601f8301169050919050565b7f4e487b7100000000000000000000000000000000000000000000000000000000600052604160045260246000fd5b610641826105f8565b810181811067ffffffffffffffff821117156106605761065f610609565b5b80604052505050565b600061067361057c565b905061067f8282610638565b919050565b600067ffffffffffffffff82111561069f5761069e610609565b5b6106a8826105f8565b9050602081019050919050565b60005b838110156106d35780820151818401526020810190506106b8565b60008484015250505050565b60006106f26106ed84610684565b610669565b90508281526020810184848401111561070e5761070d6105f3565b5b6107198482856106b5565b509392505050565b600082601f830112610736576107356105ee565b5b81516107468482602086016106df565b91505092915050565b60008060006060848603121561076857610767610586565b5b6000610776868287016105d9565b9350506020610787868287016105d9565b925050604084015167ffffffffffffffff8111156107a8576107a761058b565b5b6107b486828701610721565b9150509250925092565b6107c7816105b0565b82525050565b60006020820190506107e260008301846107be565b92915050565b60006040820190506107fd60008301856107be565b61080a60208301846107be565b9392505050565b600081519050919050565b600081905092915050565b600061083282610811565b61083c818561081c565b935061084c8185602086016106b5565b80840191505092915050565b60006108648284610827565b915081905092915050565b60805161083061088a600039600061010601526108306000f3fe608060405261000c61000e565b005b610016610102565b73ffffffffffffffffffffffffffffffffffffffff163373ffffffffffffffffffffffffffffffffffffffff16036100f757634f1ef28660e01b7bffffffffffffffffffffffffffffffffffffffffffffffffffffffff19166000357fffffffff00000000000000000000000000000000000000000000000000000000167bffffffffffffffffffffffffffffffffffffffffffffffffffffffff1916146100ea576040517fd2b576ec00000000000000000000000000000000000000000000000000000000815260040160405180910390fd5b6100f261012a565b610100565b6100ff610160565b5b565b60007f0000000000000000000000000000000000000000000000000000000000000000905090565b6000806000366004908092610141939291906104f1565b81019061014e91906106da565b9150915061015c8282610172565b5050565b61017061016b6101e5565b6101f4565b565b61017b8261021a565b8173ffffffffffffffffffffffffffffffffffffffff167fbc7cd75a20ee27fd9adebab32041f755214dbc6bffa90cc0225b39da2e5c2d3b60405160405180910390a26000815111156101d8576101d282826102e7565b506101e1565b6101e061036b565b5b5050565b60006101ef6103a8565b905090565b3660008037600080366000845af43d6000803e8060008114610215573d6000f35b3d6000fd5b60008173ffffffffffffffffffffffffffffffffffffffff163b0361027657806040517f4c9c8ce300000000000000000000000000000000000000000000000000000000815260040161026d9190610757565b60405180910390fd5b806102a37f360894a13ba1a3210667c828492db98dca3e2076cc3735a920a3ca505d382bbc60001b6103ff565b60000160006101000a81548173ffffffffffffffffffffffffffffffffffffffff021916908373ffffffffffffffffffffffffffffffffffffffff16021790555050565b60606000808473ffffffffffffffffffffffffffffffffffffffff168460405161031191906107e3565b600060405180830381855af49150503d806000811461034c576040519150601f19603f3d011682016040523d82523d6000602084013e610351565b606091505b5091509150610361858383610409565b9250505092915050565b60003411156103a6576040517fb398979f00000000000000000000000000000000000000000000000000000000815260040160405180910390fd5b565b60006103d67f360894a13ba1a3210667c828492db98dca3e2076cc3735a920a3ca505d382bbc60001b6103ff565b60000160009054906101000a900473ffffffffffffffffffffffffffffffffffffffff16905090565b6000819050919050565b60608261041e5761041982610498565b610490565b60008251148015610446575060008473ffffffffffffffffffffffffffffffffffffffff163b145b1561048857836040517f9996b31500000000000000000000000000000000000000000000000000000000815260040161047f9190610757565b60405180910390fd5b819050610491565b5b9392505050565b6000815111156104ab5780518082602001fd5b6040517fd6bda27500000000000000000000000000000000000000000000000000000000815260040160405180910390fd5b6000604051905090565b600080fd5b600080fd5b60008085851115610505576105046104e7565b5b83861115610516576105156104ec565b5b6001850283019150848603905094509492505050565b600080fd5b600080fd5b600073ffffffffffffffffffffffffffffffffffffffff82169050919050565b600061056182610536565b9050919050565b61057181610556565b811461057c57600080fd5b50565b60008135905061058e81610568565b92915050565b600080fd5b600080fd5b6000601f19601f8301169050919050565b7f4e487b7100000000000000000000000000000000000000000000000000000000600052604160045260246000fd5b6105e78261059e565b810181811067ffffffffffffffff82111715610606576106056105af565b5b80604052505050565b60006106196104dd565b905061062582826105de565b919050565b600067ffffffffffffffff821115610645576106446105af565b5b61064e8261059e565b9050602081019050919050565b82818337600083830152505050565b600061067d6106788461062a565b61060f565b90508281526020810184848401111561069957610698610599565b5b6106a484828561065b565b509392505050565b600082601f8301126106c1576106c0610594565b5b81356106d184826020860161066a565b91505092915050565b600080604083850312156106f1576106f061052c565b5b60006106ff8582860161057f565b925050602083013567ffffffffffffffff8111156107205761071f610531565b5b61072c858286016106ac565b9150509250929050565b600061074182610536565b9050919050565b61075181610736565b82525050565b600060208201905061076c6000830184610748565b92915050565b600081519050919050565b600081905092915050565b60005b838110156107a657808201518184015260208101905061078b565b60008484015250505050565b60006107bd82610772565b6107c7818561077d565b93506107d7818560208601610788565b80840191505092915050565b60006107ef82846107b2565b91508190509291505056fea2646970667358221220f9f56827f17cccc620d1e77b10673fadb006ecedd7bde245f2152acaf6b4a11d64736f6c634300081d0033608060405234801561001057600080fd5b50604051610a2b380380610a2b833981810160405281019061003291906101e2565b80600073ffffffffffffffffffffffffffffffffffffffff168173ffffffffffffffffffffffffffffffffffffffff16036100a55760006040517f1e4fbdf700000000000000000000000000000000000000000000000000000000815260040161009c919061021e565b60405180910390fd5b6100b4816100bb60201b60201c565b5050610239565b60008060009054906101000a900473ffffffffffffffffffffffffffffffffffffffff169050816000806101000a81548173ffffffffffffffffffffffffffffffffffffffff021916908373ffffffffffffffffffffffffffffffffffffffff1602179055508173ffffffffffffffffffffffffffffffffffffffff168173ffffffffffffffffffffffffffffffffffffffff167f8be0079c531659141344cd1fd0a4f28419497f9722a3daafe3b4186f6b6457e060405160405180910390a35050565b600080fd5b600073ffffffffffffffffffffffffffffffffffffffff82169050919050565b60006101af82610184565b9050919050565b6101bf816101a4565b81146101ca57600080fd5b50565b6000815190506101dc816101b6565b92915050565b6000602082840312156101f8576101f761017f565b5b6000610206848285016101cd565b91505092915050565b610218816101a4565b82525050565b6000602082019050610233600083018461020f565b92915050565b6107e3806102486000396000f3fe60806040526004361061004a5760003560e01c8063715018a61461004f5780638da5cb5b146100665780639623609d14610091578063ad3cb1cc146100ad578063f2fde38b146100d8575b600080fd5b34801561005b57600080fd5b50610064610101565b005b34801561007257600080fd5b5061007b610115565b604051610088919061040c565b60405180910390f35b6100ab60048036038101906100a691906105eb565b61013e565b005b3480156100b957600080fd5b506100c26101b9565b6040516100cf91906106d9565b60405180910390f35b3480156100e457600080fd5b506100ff60048036038101906100fa91906106fb565b6101f2565b005b610109610278565b61011360006102ff565b565b60008060009054906101000a900473ffffffffffffffffffffffffffffffffffffffff16905090565b610146610278565b8273ffffffffffffffffffffffffffffffffffffffff16634f1ef2863484846040518463ffffffff1660e01b815260040161018292919061077d565b6000604051808303818588803b15801561019b57600080fd5b505af11580156101af573d6000803e3d6000fd5b5050505050505050565b6040518060400160405280600581526020017f352e302e3000000000000000000000000000000000000000000000000000000081525081565b6101fa610278565b600073ffffffffffffffffffffffffffffffffffffffff168173ffffffffffffffffffffffffffffffffffffffff160361026c5760006040517f1e4fbdf7000000000000000000000000000000000000000000000000000000008152600401610263919061040c565b60405180910390fd5b610275816102ff565b50565b6102806103c3565b73ffffffffffffffffffffffffffffffffffffffff1661029e610115565b73ffffffffffffffffffffffffffffffffffffffff16146102fd576102c16103c3565b6040517f118cdaa70000000000000000000000000000000000000000000000000000000081526004016102f4919061040c565b60405180910390fd5b565b60008060009054906101000a900473ffffffffffffffffffffffffffffffffffffffff169050816000806101000a81548173ffffffffffffffffffffffffffffffffffffffff021916908373ffffffffffffffffffffffffffffffffffffffff1602179055508173ffffffffffffffffffffffffffffffffffffffff168173ffffffffffffffffffffffffffffffffffffffff167f8be0079c531659141344cd1fd0a4f28419497f9722a3daafe3b4186f6b6457e060405160405180910390a35050565b600033905090565b600073ffffffffffffffffffffffffffffffffffffffff82169050919050565b60006103f6826103cb565b9050919050565b610406816103eb565b82525050565b600060208201905061042160008301846103fd565b92915050565b6000604051905090565b600080fd5b600080fd5b6000610446826103eb565b9050919050565b6104568161043b565b811461046157600080fd5b50565b6000813590506104738161044d565b92915050565b610482816103eb565b811461048d57600080fd5b50565b60008135905061049f81610479565b92915050565b600080fd5b600080fd5b6000601f19601f8301169050919050565b7f4e487b7100000000000000000000000000000000000000000000000000000000600052604160045260246000fd5b6104f8826104af565b810181811067ffffffffffffffff82111715610517576105166104c0565b5b80604052505050565b600061052a610427565b905061053682826104ef565b919050565b600067ffffffffffffffff821115610556576105556104c0565b5b61055f826104af565b9050602081019050919050565b82818337600083830152505050565b600061058e6105898461053b565b610520565b9050828152602081018484840111156105aa576105a96104aa565b5b6105b584828561056c565b509392505050565b600082601f8301126105d2576105d16104a5565b5b81356105e284826020860161057b565b91505092915050565b60008060006060848603121561060457610603610431565b5b600061061286828701610464565b935050602061062386828701610490565b925050604084013567ffffffffffffffff81111561064457610643610436565b5b610650868287016105bd565b9150509250925092565b600081519050919050565b600082825260208201905092915050565b60005b83811015610694578082015181840152602081019050610679565b60008484015250505050565b60006106ab8261065a565b6106b58185610665565b93506106c5818560208601610676565b6106ce816104af565b840191505092915050565b600060208201905081810360008301526106f381846106a0565b905092915050565b60006020828403121561071157610710610431565b5b600061071f84828501610490565b91505092915050565b600081519050919050565b600082825260208201905092915050565b600061074f82610728565b6107598185610733565b9350610769818560208601610676565b610772816104af565b840191505092915050565b600060408201905061079260008301856103fd565b81810360208301526107a48184610744565b9050939250505056fea2646970667358221220f170e03813ff411d05a46a24a8ce10f75c3155b20d4b9e54f13616b05a79ceb264736f6c634300081d0033",
					"opcodes": "PUSH1 0x80 PUSH1 0x40 MSTORE CALLVALUE DUP1 ISZERO PUSH2 0x10 JUMPI PUSH1 0x0 DUP1 REVERT JUMPDEST POP PUSH1 0x40 MLOAD PUSH2 0x1DCA CODESIZE SUB DUP1 PUSH2 0x1DCA DUP4 CODECOPY DUP2 DUP2 ADD PUSH1 0x40 MSTORE DUP2 ADD SWAP1 PUSH2 0x32 SWAP2 SWAP1 PUSH2 0x11E JUMP JUMPDEST DUP2 DUP2 PUSH1 0x40 MLOAD PUSH2 0x40 SWAP1 PUSH2 0xAE JUMP JUMPDEST PUSH2 0x4B SWAP3 SWAP2 SWAP1 PUSH2 0x1A4 JUMP JUMPDEST PUSH1 0x40 MLOAD DUP1 SWAP2 SUB SWAP1 PUSH1 0x0 CREATE DUP1 ISZERO DUP1 ISZERO PUSH2 0x67 JUMPI RETURNDATASIZE PUSH1 0x0 DUP1 RETURNDATACOPY RETURNDATASIZE PUSH1 0x0 REVERT JUMPDEST POP PUSH1 0x0 DUP1 PUSH2 0x100 EXP DUP2 SLOAD DUP2 PUSH20 0xFFFFFFFFFFFFFFFFFFFFFFFFFFFFFFFFFFFFFFFF MUL NOT AND SWAP1 DUP4 PUSH20 0xFFFFFFFFFFFFFFFFFFFFFFFFFFFFFFFFFFFFFFFF AND MUL OR SWAP1 SSTORE POP POP POP PUSH2 0x1E0 JUMP JUMPDEST PUSH2 0x1AE5 DUP1 PUSH2 0x2E5 DUP4 CODECOPY ADD SWAP1 JUMP JUMPDEST PUSH1 0x0 DUP1 REVERT JUMPDEST PUSH1 0x0 PUSH20 0xFFFFFFFFFFFFFFFFFFFFFFFFFFFFFFFFFFFFFFFF DUP3 AND SWAP1 POP SWAP2 SWAP1 POP JUMP JUMPDEST PUSH1 0x0 PUSH2 0xEB DUP3 PUSH2 0xC0 JUMP JUMPDEST SWAP1 POP SWAP2 SWAP1 POP JUMP JUMPDEST PUSH2 0xFB DUP2 PUSH2 0xE0 JUMP JUMPDEST DUP2 EQ PUSH2 0x106 JUMPI PUSH1 0x0 DUP1 REVERT JUMPDEST POP JUMP JUMPDEST PUSH1 0x0 DUP2 MLOAD SWAP1 POP PUSH2 0x118 DUP2 PUSH2 0xF2 JUMP JUMPDEST SWAP3 SWAP2 POP POP JUMP JUMPDEST PUSH1 0x0 DUP1 PUSH1 0x40 DUP4 DUP6 SUB SLT ISZERO PUSH2 0x135 JUMPI PUSH2 0x134 PUSH2 0xBB JUMP JUMPDEST JUMPDEST PUSH1 0x0 PUSH2 0x143 DUP6 DUP3 DUP7 ADD PUSH2 0x109 JUMP JUMPDEST SWAP3 POP POP PUSH1 0x20 PUSH2 0x154 DUP6 DUP3 DUP7 ADD PUSH2 0x109 JUMP JUMPDEST SWAP2 POP POP SWAP3 POP SWAP3 SWAP1 POP JUMP JUMPDEST PUSH2 0x167 DUP2 PUSH2 0xE0 JUMP JUMPDEST DUP3 MSTORE POP POP JUMP JUMPDEST PUSH1 0x0 DUP3 DUP3 MSTORE PUSH1 0x20 DUP3 ADD SWAP1 POP SWAP3 SWAP2 POP POP JUMP JUMPDEST POP JUMP JUMPDEST PUSH1 0x0 PUSH2 0x18E PUSH1 0x0 DUP4 PUSH2 0x16D JUMP JUMPDEST SWAP2 POP PUSH2 0x199 DUP3 PUSH2 0x17E JUMP JUMPDEST PUSH1 0x0 DUP3 ADD SWAP1 POP SWAP2 SWAP1 POP JUMP JUMPDEST PUSH1 0x0 PUSH1 0x60 DUP3 ADD SWAP1 POP PUSH2 0x1B9 PUSH1 0x0 DUP4 ADD DUP6 PUSH2 0x15E JUMP JUMPDEST PUSH2 0x1C6 PUSH1 0x20 DUP4 ADD DUP5 PUSH2 0x15E JUMP JUMPDEST DUP2 DUP2 SUB PUSH1 0x40 DUP4 ADD MSTORE PUSH2 0x1D7 DUP2 PUSH2 0x181 JUMP JUMPDEST SWAP1 POP SWAP4 SWAP3 POP POP POP JUMP JUMPDEST PUSH1 0xF7 DUP1 PUSH2 0x1EE PUSH1 0x0 CODECOPY PUSH1 0x0 RETURN INVALID PUSH1 0x80 PUSH1 0x40 MSTORE CALLVALUE DUP1 ISZERO PUSH1 0xF JUMPI PUSH1 0x0 DUP1 REVERT JUMPDEST POP PUSH1 0x4 CALLDATASIZE LT PUSH1 0x28 JUMPI PUSH1 0x0 CALLDATALOAD PUSH1 0xE0 SHR DUP1 PUSH4 0xEC556889 EQ PUSH1 0x2D JUMPI JUMPDEST PUSH1 0x0 DUP1 REVERT JUMPDEST PUSH1 0x33 PUSH1 0x47 JUMP JUMPDEST PUSH1 0x40 MLOAD PUSH1 0x3E SWAP2 SWAP1 PUSH1 0xA8 JUMP JUMPDEST PUSH1 0x40 MLOAD DUP1 SWAP2 SUB SWAP1 RETURN JUMPDEST PUSH1 0x0 DUP1 SLOAD SWAP1 PUSH2 0x100 EXP SWAP1 DIV PUSH20 0xFFFFFFFFFFFFFFFFFFFFFFFFFFFFFFFFFFFFFFFF AND DUP2 JUMP JUMPDEST PUSH1 0x0 PUSH20 0xFFFFFFFFFFFFFFFFFFFFFFFFFFFFFFFFFFFFFFFF DUP3 AND SWAP1 POP SWAP2 SWAP1 POP JUMP JUMPDEST PUSH1 0x0 PUSH1 0x94 DUP3 PUSH1 0x6B JUMP JUMPDEST SWAP1 POP SWAP2 SWAP1 POP JUMP JUMPDEST PUSH1 0xA2 DUP2 PUSH1 0x8B JUMP JUMPDEST DUP3 MSTORE POP POP JUMP JUMPDEST PUSH1 0x0 PUSH1 0x20 DUP3 ADD SWAP1 POP PUSH1 0xBB PUSH1 0x0 DUP4 ADD DUP5 PUSH1 0x9B JUMP JUMPDEST SWAP3 SWAP2 POP POP JUMP INVALID LOG2 PUSH5 0x6970667358 0x22 SLT KECCAK256 DELEGATECALL EXTCODEHASH 0xDC 0x24 0xF6 SWAP14 SWAP2 0xC 0xC0 0xA9 SWAP10 PUSH28 0x84524A2448BFE782D36A50BB3D4BB8A21B56D72964736F6C63430008 SAR STOP CALLER PUSH1 0xA0 PUSH1 0x40 MSTORE PUSH1 0x40 MLOAD PUSH2 0x1AE5 CODESIZE SUB DUP1 PUSH2 0x1AE5 DUP4 CODECOPY DUP2 DUP2 ADD PUSH1 0x40 MSTORE DUP2 ADD SWAP1 PUSH2 0x25 SWAP2 SWAP1 PUSH2 0x74F JUMP JUMPDEST DUP3 DUP2 PUSH2 0x37 DUP3 DUP3 PUSH2 0xC4 PUSH1 0x20 SHL PUSH1 0x20 SHR JUMP JUMPDEST POP POP DUP2 PUSH1 0x40 MLOAD PUSH2 0x46 SWAP1 PUSH2 0x56F JUMP JUMPDEST PUSH2 0x50 SWAP2 SWAP1 PUSH2 0x7CD JUMP JUMPDEST PUSH1 0x40 MLOAD DUP1 SWAP2 SUB SWAP1 PUSH1 0x0 CREATE DUP1 ISZERO DUP1 ISZERO PUSH2 0x6C JUMPI RETURNDATASIZE PUSH1 0x0 DUP1 RETURNDATACOPY RETURNDATASIZE PUSH1 0x0 REVERT JUMPDEST POP PUSH20 0xFFFFFFFFFFFFFFFFFFFFFFFFFFFFFFFFFFFFFFFF AND PUSH1 0x80 DUP2 PUSH20 0xFFFFFFFFFFFFFFFFFFFFFFFFFFFFFFFFFFFFFFFF AND DUP2 MSTORE POP POP PUSH2 0xBC PUSH2 0xB1 PUSH2 0x149 PUSH1 0x20 SHL PUSH1 0x20 SHR JUMP JUMPDEST PUSH2 0x153 PUSH1 0x20 SHL PUSH1 0x20 SHR JUMP JUMPDEST POP POP POP PUSH2 0x86F JUMP JUMPDEST PUSH2 0xD3 DUP3 PUSH2 0x1AB PUSH1 0x20 SHL PUSH1 0x20 SHR JUMP JUMPDEST DUP2 PUSH20 0xFFFFFFFFFFFFFFFFFFFFFFFFFFFFFFFFFFFFFFFF AND PUSH32 0xBC7CD75A20EE27FD9ADEBAB32041F755214DBC6BFFA90CC0225B39DA2E5C2D3B PUSH1 0x40 MLOAD PUSH1 0x40 MLOAD DUP1 SWAP2 SUB SWAP1 LOG2 PUSH1 0x0 DUP2 MLOAD GT ISZERO PUSH2 0x136 JUMPI PUSH2 0x130 DUP3 DUP3 PUSH2 0x27E PUSH1 0x20 SHL PUSH1 0x20 SHR JUMP JUMPDEST POP PUSH2 0x145 JUMP JUMPDEST PUSH2 0x144 PUSH2 0x308 PUSH1 0x20 SHL PUSH1 0x20 SHR JUMP JUMPDEST JUMPDEST POP POP JUMP JUMPDEST PUSH1 0x0 PUSH1 0x80 MLOAD SWAP1 POP SWAP1 JUMP JUMPDEST PUSH32 0x7E644D79422F17C01E4894B5F4F588D331EBFA28653D42AE832DC59E38C9798F PUSH2 0x182 PUSH2 0x345 PUSH1 0x20 SHL PUSH1 0x20 SHR JUMP JUMPDEST DUP3 PUSH1 0x40 MLOAD PUSH2 0x191 SWAP3 SWAP2 SWAP1 PUSH2 0x7E8 JUMP JUMPDEST PUSH1 0x40 MLOAD DUP1 SWAP2 SUB SWAP1 LOG1 PUSH2 0x1A8 DUP2 PUSH2 0x3A2 PUSH1 0x20 SHL PUSH1 0x20 SHR JUMP JUMPDEST POP JUMP JUMPDEST PUSH1 0x0 DUP2 PUSH20 0xFFFFFFFFFFFFFFFFFFFFFFFFFFFFFFFFFFFFFFFF AND EXTCODESIZE SUB PUSH2 0x207 JUMPI DUP1 PUSH1 0x40 MLOAD PUSH32 0x4C9C8CE300000000000000000000000000000000000000000000000000000000 DUP2 MSTORE PUSH1 0x4 ADD PUSH2 0x1FE SWAP2 SWAP1 PUSH2 0x7CD JUMP JUMPDEST PUSH1 0x40 MLOAD DUP1 SWAP2 SUB SWAP1 REVERT JUMPDEST DUP1 PUSH2 0x23A PUSH32 0x360894A13BA1A3210667C828492DB98DCA3E2076CC3735A920A3CA505D382BBC PUSH1 0x0 SHL PUSH2 0x48B PUSH1 0x20 SHL PUSH1 0x20 SHR JUMP JUMPDEST PUSH1 0x0 ADD PUSH1 0x0 PUSH2 0x100 EXP DUP2 SLOAD DUP2 PUSH20 0xFFFFFFFFFFFFFFFFFFFFFFFFFFFFFFFFFFFFFFFF MUL NOT AND SWAP1 DUP4 PUSH20 0xFFFFFFFFFFFFFFFFFFFFFFFFFFFFFFFFFFFFFFFF AND MUL OR SWAP1 SSTORE POP POP JUMP JUMPDEST PUSH1 0x60 PUSH1 0x0 DUP1 DUP5 PUSH20 0xFFFFFFFFFFFFFFFFFFFFFFFFFFFFFFFFFFFFFFFF AND DUP5 PUSH1 0x40 MLOAD PUSH2 0x2A8 SWAP2 SWAP1 PUSH2 0x858 JUMP JUMPDEST PUSH1 0x0 PUSH1 0x40 MLOAD DUP1 DUP4 SUB DUP2 DUP6 GAS DELEGATECALL SWAP2 POP POP RETURNDATASIZE DUP1 PUSH1 0x0 DUP2 EQ PUSH2 0x2E3 JUMPI PUSH1 0x40 MLOAD SWAP2 POP PUSH1 0x1F NOT PUSH1 0x3F RETURNDATASIZE ADD AND DUP3 ADD PUSH1 0x40 MSTORE RETURNDATASIZE DUP3 MSTORE RETURNDATASIZE PUSH1 0x0 PUSH1 0x20 DUP5 ADD RETURNDATACOPY PUSH2 0x2E8 JUMP JUMPDEST PUSH1 0x60 SWAP2 POP JUMPDEST POP SWAP2 POP SWAP2 POP PUSH2 0x2FE DUP6 DUP4 DUP4 PUSH2 0x495 PUSH1 0x20 SHL PUSH1 0x20 SHR JUMP JUMPDEST SWAP3 POP POP POP SWAP3 SWAP2 POP POP JUMP JUMPDEST PUSH1 0x0 CALLVALUE GT ISZERO PUSH2 0x343 JUMPI PUSH1 0x40 MLOAD PUSH32 0xB398979F00000000000000000000000000000000000000000000000000000000 DUP2 MSTORE PUSH1 0x4 ADD PUSH1 0x40 MLOAD DUP1 SWAP2 SUB SWAP1 REVERT JUMPDEST JUMP JUMPDEST PUSH1 0x0 PUSH2 0x379 PUSH32 0xB53127684A568B3173AE13B9F8A6016E243E63B6E8EE1178D6A717850B5D6103 PUSH1 0x0 SHL PUSH2 0x48B PUSH1 0x20 SHL PUSH1 0x20 SHR JUMP JUMPDEST PUSH1 0x0 ADD PUSH1 0x0 SWAP1 SLOAD SWAP1 PUSH2 0x100 EXP SWAP1 DIV PUSH20 0xFFFFFFFFFFFFFFFFFFFFFFFFFFFFFFFFFFFFFFFF AND SWAP1 POP SWAP1 JUMP JUMPDEST PUSH1 0x0 PUSH20 0xFFFFFFFFFFFFFFFFFFFFFFFFFFFFFFFFFFFFFFFF AND DUP2 PUSH20 0xFFFFFFFFFFFFFFFFFFFFFFFFFFFFFFFFFFFFFFFF AND SUB PUSH2 0x414 JUMPI PUSH1 0x0 PUSH1 0x40 MLOAD PUSH32 0x62E77BA200000000000000000000000000000000000000000000000000000000 DUP2 MSTORE PUSH1 0x4 ADD PUSH2 0x40B SWAP2 SWAP1 PUSH2 0x7CD JUMP JUMPDEST PUSH1 0x40 MLOAD DUP1 SWAP2 SUB SWAP1 REVERT JUMPDEST DUP1 PUSH2 0x447 PUSH32 0xB53127684A568B3173AE13B9F8A6016E243E63B6E8EE1178D6A717850B5D6103 PUSH1 0x0 SHL PUSH2 0x48B PUSH1 0x20 SHL PUSH1 0x20 SHR JUMP JUMPDEST PUSH1 0x0 ADD PUSH1 0x0 PUSH2 0x100 EXP DUP2 SLOAD DUP2 PUSH20 0xFFFFFFFFFFFFFFFFFFFFFFFFFFFFFFFFFFFFFFFF MUL NOT AND SWAP1 DUP4 PUSH20 0xFFFFFFFFFFFFFFFFFFFFFFFFFFFFFFFFFFFFFFFF AND MUL OR SWAP1 SSTORE POP POP JUMP JUMPDEST PUSH1 0x0 DUP2 SWAP1 POP SWAP2 SWAP1 POP JUMP JUMPDEST PUSH1 0x60 DUP3 PUSH2 0x4B0 JUMPI PUSH2 0x4AB DUP3 PUSH2 0x52A PUSH1 0x20 SHL PUSH1 0x20 SHR JUMP JUMPDEST PUSH2 0x522 JUMP JUMPDEST PUSH1 0x0 DUP3 MLOAD EQ DUP1 ISZERO PUSH2 0x4D8 JUMPI POP PUSH1 0x0 DUP5 PUSH20 0xFFFFFFFFFFFFFFFFFFFFFFFFFFFFFFFFFFFFFFFF AND EXTCODESIZE EQ JUMPDEST ISZERO PUSH2 0x51A JUMPI DUP4 PUSH1 0x40 MLOAD PUSH32 0x9996B31500000000000000000000000000000000000000000000000000000000 DUP2 MSTORE PUSH1 0x4 ADD PUSH2 0x511 SWAP2 SWAP1 PUSH2 0x7CD JUMP JUMPDEST PUSH1 0x40 MLOAD DUP1 SWAP2 SUB SWAP1 REVERT JUMPDEST DUP2 SWAP1 POP PUSH2 0x523 JUMP JUMPDEST JUMPDEST SWAP4 SWAP3 POP POP POP JUMP JUMPDEST PUSH1 0x0 DUP2 MLOAD GT ISZERO PUSH2 0x53D JUMPI DUP1 MLOAD DUP1 DUP3 PUSH1 0x20 ADD REVERT JUMPDEST PUSH1 0x40 MLOAD PUSH32 0xD6BDA27500000000000000000000000000000000000000000000000000000000 DUP2 MSTORE PUSH1 0x4 ADD PUSH1 0x40 MLOAD DUP1 SWAP2 SUB SWAP1 REVERT JUMPDEST PUSH2 0xA2B DUP1 PUSH2 0x10BA DUP4 CODECOPY ADD SWAP1 JUMP JUMPDEST PUSH1 0x0 PUSH1 0x40 MLOAD SWAP1 POP SWAP1 JUMP JUMPDEST PUSH1 0x0 DUP1 REVERT JUMPDEST PUSH1 0x0 DUP1 REVERT JUMPDEST PUSH1 0x0 PUSH20 0xFFFFFFFFFFFFFFFFFFFFFFFFFFFFFFFFFFFFFFFF DUP3 AND SWAP1 POP SWAP2 SWAP1 POP JUMP JUMPDEST PUSH1 0x0 PUSH2 0x5BB DUP3 PUSH2 0x590 JUMP JUMPDEST SWAP1 POP SWAP2 SWAP1 POP JUMP JUMPDEST PUSH2 0x5CB DUP2 PUSH2 0x5B0 JUMP JUMPDEST DUP2 EQ PUSH2 0x5D6 JUMPI PUSH1 0x0 DUP1 REVERT JUMPDEST POP JUMP JUMPDEST PUSH1 0x0 DUP2 MLOAD SWAP1 POP PUSH2 0x5E8 DUP2 PUSH2 0x5C2 JUMP JUMPDEST SWAP3 SWAP2 POP POP JUMP JUMPDEST PUSH1 0x0 DUP1 REVERT JUMPDEST PUSH1 0x0 DUP1 REVERT JUMPDEST PUSH1 0x0 PUSH1 0x1F NOT PUSH1 0x1F DUP4 ADD AND SWAP1 POP SWAP2 SWAP1 POP JUMP JUMPDEST PUSH32 0x4E487B7100000000000000000000000000000000000000000000000000000000 PUSH1 0x0 MSTORE PUSH1 0x41 PUSH1 0x4 MSTORE PUSH1 0x24 PUSH1 0x0 REVERT JUMPDEST PUSH2 0x641 DUP3 PUSH2 0x5F8 JUMP JUMPDEST DUP2 ADD DUP2 DUP2 LT PUSH8 0xFFFFFFFFFFFFFFFF DUP3 GT OR ISZERO PUSH2 0x660 JUMPI PUSH2 0x65F PUSH2 0x609 JUMP JUMPDEST JUMPDEST DUP1 PUSH1 0x40 MSTORE POP POP POP JUMP JUMPDEST PUSH1 0x0 PUSH2 0x673 PUSH2 0x57C JUMP JUMPDEST SWAP1 POP PUSH2 0x67F DUP3 DUP3 PUSH2 0x638 JUMP JUMPDEST SWAP2 SWAP1 POP JUMP JUMPDEST PUSH1 0x0 PUSH8 0xFFFFFFFFFFFFFFFF DUP3 GT ISZERO PUSH2 0x69F JUMPI PUSH2 0x69E PUSH2 0x609 JUMP JUMPDEST JUMPDEST PUSH2 0x6A8 DUP3 PUSH2 0x5F8 JUMP JUMPDEST SWAP1 POP PUSH1 0x20 DUP2 ADD SWAP1 POP SWAP2 SWAP1 POP JUMP JUMPDEST PUSH1 0x0 JUMPDEST DUP4 DUP2 LT ISZERO PUSH2 0x6D3 JUMPI DUP1 DUP3 ADD MLOAD DUP2 DUP5 ADD MSTORE PUSH1 0x20 DUP2 ADD SWAP1 POP PUSH2 0x6B8 JUMP JUMPDEST PUSH1 0x0 DUP5 DUP5 ADD MSTORE POP POP POP POP JUMP JUMPDEST PUSH1 0x0 PUSH2 0x6F2 PUSH2 0x6ED DUP5 PUSH2 0x684 JUMP JUMPDEST PUSH2 0x669 JUMP JUMPDEST SWAP1 POP DUP3 DUP2 MSTORE PUSH1 0x20 DUP2 ADD DUP5 DUP5 DUP5 ADD GT ISZERO PUSH2 0x70E JUMPI PUSH2 0x70D PUSH2 0x5F3 JUMP JUMPDEST JUMPDEST PUSH2 0x719 DUP5 DUP3 DUP6 PUSH2 0x6B5 JUMP JUMPDEST POP SWAP4 SWAP3 POP POP POP JUMP JUMPDEST PUSH1 0x0 DUP3 PUSH1 0x1F DUP4 ADD SLT PUSH2 0x736 JUMPI PUSH2 0x735 PUSH2 0x5EE JUMP JUMPDEST JUMPDEST DUP2 MLOAD PUSH2 0x746 DUP5 DUP3 PUSH1 0x20 DUP7 ADD PUSH2 0x6DF JUMP JUMPDEST SWAP2 POP POP SWAP3 SWAP2 POP POP JUMP JUMPDEST PUSH1 0x0 DUP1 PUSH1 0x0 PUSH1 0x60 DUP5 DUP7 SUB SLT ISZERO PUSH2 0x768 JUMPI PUSH2 0x767 PUSH2 0x586 JUMP JUMPDEST JUMPDEST PUSH1 0x0 PUSH2 0x776 DUP7 DUP3 DUP8 ADD PUSH2 0x5D9 JUMP JUMPDEST SWAP4 POP POP PUSH1 0x20 PUSH2 0x787 DUP7 DUP3 DUP8 ADD PUSH2 0x5D9 JUMP JUMPDEST SWAP3 POP POP PUSH1 0x40 DUP5 ADD MLOAD PUSH8 0xFFFFFFFFFFFFFFFF DUP2 GT ISZERO PUSH2 0x7A8 JUMPI PUSH2 0x7A7 PUSH2 0x58B JUMP JUMPDEST JUMPDEST PUSH2 0x7B4 DUP7 DUP3 DUP8 ADD PUSH2 0x721 JUMP JUMPDEST SWAP2 POP POP SWAP3 POP SWAP3 POP SWAP3 JUMP JUMPDEST PUSH2 0x7C7 DUP2 PUSH2 0x5B0 JUMP JUMPDEST DUP3 MSTORE POP POP JUMP JUMPDEST PUSH1 0x0 PUSH1 0x20 DUP3 ADD SWAP1 POP PUSH2 0x7E2 PUSH1 0x0 DUP4 ADD DUP5 PUSH2 0x7BE JUMP JUMPDEST SWAP3 SWAP2 POP POP JUMP JUMPDEST PUSH1 0x0 PUSH1 0x40 DUP3 ADD SWAP1 POP PUSH2 0x7FD PUSH1 0x0 DUP4 ADD DUP6 PUSH2 0x7BE JUMP JUMPDEST PUSH2 0x80A PUSH1 0x20 DUP4 ADD DUP5 PUSH2 0x7BE JUMP JUMPDEST SWAP4 SWAP3 POP POP POP JUMP JUMPDEST PUSH1 0x0 DUP2 MLOAD SWAP1 POP SWAP2 SWAP1 POP JUMP JUMPDEST PUSH1 0x0 DUP2 SWAP1 POP SWAP3 SWAP2 POP POP JUMP JUMPDEST PUSH1 0x0 PUSH2 0x832 DUP3 PUSH2 0x811 JUMP JUMPDEST PUSH2 0x83C DUP2 DUP6 PUSH2 0x81C JUMP JUMPDEST SWAP4 POP PUSH2 0x84C DUP2 DUP6 PUSH1 0x20 DUP7 ADD PUSH2 0x6B5 JUMP JUMPDEST DUP1 DUP5 ADD SWAP2 POP POP SWAP3 SWAP2 POP POP JUMP JUMPDEST PUSH1 0x0 PUSH2 0x864 DUP3 DUP5 PUSH2 0x827 JUMP JUMPDEST SWAP2 POP DUP2 SWAP1 POP SWAP3 SWAP2 POP POP JUMP JUMPDEST PUSH1 0x80 MLOAD PUSH2 0x830 PUSH2 0x88A PUSH1 0x0 CODECOPY PUSH1 0x0 PUSH2 0x106 ADD MSTORE PUSH2 0x830 PUSH1 0x0 RETURN INVALID PUSH1 0x80 PUSH1 0x40 MSTORE PUSH2 0xC PUSH2 0xE JUMP JUMPDEST STOP JUMPDEST PUSH2 0x16 PUSH2 0x102 JUMP JUMPDEST PUSH20 0xFFFFFFFFFFFFFFFFFFFFFFFFFFFFFFFFFFFFFFFF AND CALLER PUSH20 0xFFFFFFFFFFFFFFFFFFFFFFFFFFFFFFFFFFFFFFFF AND SUB PUSH2 0xF7 JUMPI PUSH4 0x4F1EF286 PUSH1 0xE0 SHL PUSH28 0xFFFFFFFFFFFFFFFFFFFFFFFFFFFFFFFFFFFFFFFFFFFFFFFFFFFFFFFF NOT AND PUSH1 0x0 CALLDATALOAD PUSH32 0xFFFFFFFF00000000000000000000000000000000000000000000000000000000 AND PUSH28 0xFFFFFFFFFFFFFFFFFFFFFFFFFFFFFFFFFFFFFFFFFFFFFFFFFFFFFFFF NOT AND EQ PUSH2 0xEA JUMPI PUSH1 0x40 MLOAD PUSH32 0xD2B576EC00000000000000000000000000000000000000000000000000000000 DUP2 MSTORE PUSH1 0x4 ADD PUSH1 0x40 MLOAD DUP1 SWAP2 SUB SWAP1 REVERT JUMPDEST PUSH2 0xF2 PUSH2 0x12A JUMP JUMPDEST PUSH2 0x100 JUMP JUMPDEST PUSH2 0xFF PUSH2 0x160 JUMP JUMPDEST JUMPDEST JUMP JUMPDEST PUSH1 0x0 PUSH32 0x0 SWAP1 POP SWAP1 JUMP JUMPDEST PUSH1 0x0 DUP1 PUSH1 0x0 CALLDATASIZE PUSH1 0x4 SWAP1 DUP1 SWAP3 PUSH2 0x141 SWAP4 SWAP3 SWAP2 SWAP1 PUSH2 0x4F1 JUMP JUMPDEST DUP2 ADD SWAP1 PUSH2 0x14E SWAP2 SWAP1 PUSH2 0x6DA JUMP JUMPDEST SWAP2 POP SWAP2 POP PUSH2 0x15C DUP3 DUP3 PUSH2 0x172 JUMP JUMPDEST POP POP JUMP JUMPDEST PUSH2 0x170 PUSH2 0x16B PUSH2 0x1E5 JUMP JUMPDEST PUSH2 0x1F4 JUMP JUMPDEST JUMP JUMPDEST PUSH2 0x17B DUP3 PUSH2 0x21A JUMP JUMPDEST DUP2 PUSH20 0xFFFFFFFFFFFFFFFFFFFFFFFFFFFFFFFFFFFFFFFF AND PUSH32 0xBC7CD75A20EE27FD9ADEBAB32041F755214DBC6BFFA90CC0225B39DA2E5C2D3B PUSH1 0x40 MLOAD PUSH1 0x40 MLOAD DUP1 SWAP2 SUB SWAP1 LOG2 PUSH1 0x0 DUP2 MLOAD GT ISZERO PUSH2 0x1D8 JUMPI PUSH2 0x1D2 DUP3 DUP3 PUSH2 0x2E7 JUMP JUMPDEST POP PUSH2 0x1E1 JUMP JUMPDEST PUSH2 0x1E0 PUSH2 0x36B JUMP JUMPDEST JUMPDEST POP POP JUMP JUMPDEST PUSH1 0x0 PUSH2 0x1EF PUSH2 0x3A8 JUMP JUMPDEST SWAP1 POP SWAP1 JUMP JUMPDEST CALLDATASIZE PUSH1 0x0 DUP1 CALLDATACOPY PUSH1 0x0 DUP1 CALLDATASIZE PUSH1 0x0 DUP5 GAS DELEGATECALL RETURNDATASIZE PUSH1 0x0 DUP1 RETURNDATACOPY DUP1 PUSH1 0x0 DUP2 EQ PUSH2 0x215 JUMPI RETURNDATASIZE PUSH1 0x0 RETURN JUMPDEST RETURNDATASIZE PUSH1 0x0 REVERT JUMPDEST PUSH1 0x0 DUP2 PUSH20 0xFFFFFFFFFFFFFFFFFFFFFFFFFFFFFFFFFFFFFFFF AND EXTCODESIZE SUB PUSH2 0x276 JUMPI DUP1 PUSH1 0x40 MLOAD PUSH32 0x4C9C8CE300000000000000000000000000000000000000000000000000000000 DUP2 MSTORE PUSH1 0x4 ADD PUSH2 0x26D SWAP2 SWAP1 PUSH2 0x757 JUMP JUMPDEST PUSH1 0x40 MLOAD DUP1 SWAP2 SUB SWAP1 REVERT JUMPDEST DUP1 PUSH2 0x2A3 PUSH32 0x360894A13BA1A3210667C828492DB98DCA3E2076CC3735A920A3CA505D382BBC PUSH1 0x0 SHL PUSH2 0x3FF JUMP JUMPDEST PUSH1 0x0 ADD PUSH1 0x0 PUSH2 0x100 EXP DUP2 SLOAD DUP2 PUSH20 0xFFFFFFFFFFFFFFFFFFFFFFFFFFFFFFFFFFFFFFFF MUL NOT AND SWAP1 DUP4 PUSH20 0xFFFFFFFFFFFFFFFFFFFFFFFFFFFFFFFFFFFFFFFF AND MUL OR SWAP1 SSTORE POP POP JUMP JUMPDEST PUSH1 0x60 PUSH1 0x0 DUP1 DUP5 PUSH20 0xFFFFFFFFFFFFFFFFFFFFFFFFFFFFFFFFFFFFFFFF AND DUP5 PUSH1 0x40 MLOAD PUSH2 0x311 SWAP2 SWAP1 PUSH2 0x7E3 JUMP JUMPDEST PUSH1 0x0 PUSH1 0x40 MLOAD DUP1 DUP4 SUB DUP2 DUP6 GAS DELEGATECALL SWAP2 POP POP RETURNDATASIZE DUP1 PUSH1 0x0 DUP2 EQ PUSH2 0x34C JUMPI PUSH1 0x40 MLOAD SWAP2 POP PUSH1 0x1F NOT PUSH1 0x3F RETURNDATASIZE ADD AND DUP3 ADD PUSH1 0x40 MSTORE RETURNDATASIZE DUP3 MSTORE RETURNDATASIZE PUSH1 0x0 PUSH1 0x20 DUP5 ADD RETURNDATACOPY PUSH2 0x351 JUMP JUMPDEST PUSH1 0x60 SWAP2 POP JUMPDEST POP SWAP2 POP SWAP2 POP PUSH2 0x361 DUP6 DUP4 DUP4 PUSH2 0x409 JUMP JUMPDEST SWAP3 POP POP POP SWAP3 SWAP2 POP POP JUMP JUMPDEST PUSH1 0x0 CALLVALUE GT ISZERO PUSH2 0x3A6 JUMPI PUSH1 0x40 MLOAD PUSH32 0xB398979F00000000000000000000000000000000000000000000000000000000 DUP2 MSTORE PUSH1 0x4 ADD PUSH1 0x40 MLOAD DUP1 SWAP2 SUB SWAP1 REVERT JUMPDEST JUMP JUMPDEST PUSH1 0x0 PUSH2 0x3D6 PUSH32 0x360894A13BA1A3210667C828492DB98DCA3E2076CC3735A920A3CA505D382BBC PUSH1 0x0 SHL PUSH2 0x3FF JUMP JUMPDEST PUSH1 0x0 ADD PUSH1 0x0 SWAP1 SLOAD SWAP1 PUSH2 0x100 EXP SWAP1 DIV PUSH20 0xFFFFFFFFFFFFFFFFFFFFFFFFFFFFFFFFFFFFFFFF AND SWAP1 POP SWAP1 JUMP JUMPDEST PUSH1 0x0 DUP2 SWAP1 POP SWAP2 SWAP1 POP JUMP JUMPDEST PUSH1 0x60 DUP3 PUSH2 0x41E JUMPI PUSH2 0x419 DUP3 PUSH2 0x498 JUMP JUMPDEST PUSH2 0x490 JUMP JUMPDEST PUSH1 0x0 DUP3 MLOAD EQ DUP1 ISZERO PUSH2 0x446 JUMPI POP PUSH1 0x0 DUP5 PUSH20 0xFFFFFFFFFFFFFFFFFFFFFFFFFFFFFFFFFFFFFFFF AND EXTCODESIZE EQ JUMPDEST ISZERO PUSH2 0x488 JUMPI DUP4 PUSH1 0x40 MLOAD PUSH32 0x9996B31500000000000000000000000000000000000000000000000000000000 DUP2 MSTORE PUSH1 0x4 ADD PUSH2 0x47F SWAP2 SWAP1 PUSH2 0x757 JUMP JUMPDEST PUSH1 0x40 MLOAD DUP1 SWAP2 SUB SWAP1 REVERT JUMPDEST DUP2 SWAP1 POP PUSH2 0x491 JUMP JUMPDEST JUMPDEST SWAP4 SWAP3 POP POP POP JUMP JUMPDEST PUSH1 0x0 DUP2 MLOAD GT ISZERO PUSH2 0x4AB JUMPI DUP1 MLOAD DUP1 DUP3 PUSH1 0x20 ADD REVERT JUMPDEST PUSH1 0x40 MLOAD PUSH32 0xD6BDA27500000000000000000000000000000000000000000000000000000000 DUP2 MSTORE PUSH1 0x4 ADD PUSH1 0x40 MLOAD DUP1 SWAP2 SUB SWAP1 REVERT JUMPDEST PUSH1 0x0 PUSH1 0x40 MLOAD SWAP1 POP SWAP1 JUMP JUMPDEST PUSH1 0x0 DUP1 REVERT JUMPDEST PUSH1 0x0 DUP1 REVERT JUMPDEST PUSH1 0x0 DUP1 DUP6 DUP6 GT ISZERO PUSH2 0x505 JUMPI PUSH2 0x504 PUSH2 0x4E7 JUMP JUMPDEST JUMPDEST DUP4 DUP7 GT ISZERO PUSH2 0x516 JUMPI PUSH2 0x515 PUSH2 0x4EC JUMP JUMPDEST JUMPDEST PUSH1 0x1 DUP6 MUL DUP4 ADD SWAP2 POP DUP5 DUP7 SUB SWAP1 POP SWAP5 POP SWAP5 SWAP3 POP POP POP JUMP JUMPDEST PUSH1 0x0 DUP1 REVERT JUMPDEST PUSH1 0x0 DUP1 REVERT JUMPDEST PUSH1 0x0 PUSH20 0xFFFFFFFFFFFFFFFFFFFFFFFFFFFFFFFFFFFFFFFF DUP3 AND SWAP1 POP SWAP2 SWAP1 POP JUMP JUMPDEST PUSH1 0x0 PUSH2 0x561 DUP3 PUSH2 0x536 JUMP JUMPDEST SWAP1 POP SWAP2 SWAP1 POP JUMP JUMPDEST PUSH2 0x571 DUP2 PUSH2 0x556 JUMP JUMPDEST DUP2 EQ PUSH2 0x57C JUMPI PUSH1 0x0 DUP1 REVERT JUMPDEST POP JUMP JUMPDEST PUSH1 0x0 DUP2 CALLDATALOAD SWAP1 POP PUSH2 0x58E DUP2 PUSH2 0x568 JUMP JUMPDEST SWAP3 SWAP2 POP POP JUMP JUMPDEST PUSH1 0x0 DUP1 REVERT JUMPDEST PUSH1 0x0 DUP1 REVERT JUMPDEST PUSH1 0x0 PUSH1 0x1F NOT PUSH1 0x1F DUP4 ADD AND SWAP1 POP SWAP2 SWAP1 POP JUMP JUMPDEST PUSH32 0x4E487B7100000000000000000000000000000000000000000000000000000000 PUSH1 0x0 MSTORE PUSH1 0x41 PUSH1 0x4 MSTORE PUSH1 0x24 PUSH1 0x0 REVERT JUMPDEST PUSH2 0x5E7 DUP3 PUSH2 0x59E JUMP JUMPDEST DUP2 ADD DUP2 DUP2 LT PUSH8 0xFFFFFFFFFFFFFFFF DUP3 GT OR ISZERO PUSH2 0x606 JUMPI PUSH2 0x605 PUSH2 0x5AF JUMP JUMPDEST JUMPDEST DUP1 PUSH1 0x40 MSTORE POP POP POP JUMP JUMPDEST PUSH1 0x0 PUSH2 0x619 PUSH2 0x4DD JUMP JUMPDEST SWAP1 POP PUSH2 0x625 DUP3 DUP3 PUSH2 0x5DE JUMP JUMPDEST SWAP2 SWAP1 POP JUMP JUMPDEST PUSH1 0x0 PUSH8 0xFFFFFFFFFFFFFFFF DUP3 GT ISZERO PUSH2 0x645 JUMPI PUSH2 0x644 PUSH2 0x5AF JUMP JUMPDEST JUMPDEST PUSH2 0x64E DUP3 PUSH2 0x59E JUMP JUMPDEST SWAP1 POP PUSH1 0x20 DUP2 ADD SWAP1 POP SWAP2 SWAP1 POP JUMP JUMPDEST DUP3 DUP2 DUP4 CALLDATACOPY PUSH1 0x0 DUP4 DUP4 ADD MSTORE POP POP POP JUMP JUMPDEST PUSH1 0x0 PUSH2 0x67D PUSH2 0x678 DUP5 PUSH2 0x62A JUMP JUMPDEST PUSH2 0x60F JUMP JUMPDEST SWAP1 POP DUP3 DUP2 MSTORE PUSH1 0x20 DUP2 ADD DUP5 DUP5 DUP5 ADD GT ISZERO PUSH2 0x699 JUMPI PUSH2 0x698 PUSH2 0x599 JUMP JUMPDEST JUMPDEST PUSH2 0x6A4 DUP5 DUP3 DUP6 PUSH2 0x65B JUMP JUMPDEST POP SWAP4 SWAP3 POP POP POP JUMP JUMPDEST PUSH1 0x0 DUP3 PUSH1 0x1F DUP4 ADD SLT PUSH2 0x6C1 JUMPI PUSH2 0x6C0 PUSH2 0x594 JUMP JUMPDEST JUMPDEST DUP2 CALLDATALOAD PUSH2 0x6D1 DUP5 DUP3 PUSH1 0x20 DUP7 ADD PUSH2 0x66A JUMP JUMPDEST SWAP2 POP POP SWAP3 SWAP2 POP POP JUMP JUMPDEST PUSH1 0x0 DUP1 PUSH1 0x40 DUP4 DUP6 SUB SLT ISZERO PUSH2 0x6F1 JUMPI PUSH2 0x6F0 PUSH2 0x52C JUMP JUMPDEST JUMPDEST PUSH1 0x0 PUSH2 0x6FF DUP6 DUP3 DUP7 ADD PUSH2 0x57F JUMP JUMPDEST SWAP3 POP POP PUSH1 0x20 DUP4 ADD CALLDATALOAD PUSH8 0xFFFFFFFFFFFFFFFF DUP2 GT ISZERO PUSH2 0x720 JUMPI PUSH2 0x71F PUSH2 0x531 JUMP JUMPDEST JUMPDEST PUSH2 0x72C DUP6 DUP3 DUP7 ADD PUSH2 0x6AC JUMP JUMPDEST SWAP2 POP POP SWAP3 POP SWAP3 SWAP1 POP JUMP JUMPDEST PUSH1 0x0 PUSH2 0x741 DUP3 PUSH2 0x536 JUMP JUMPDEST SWAP1 POP SWAP2 SWAP1 POP JUMP JUMPDEST PUSH2 0x751 DUP2 PUSH2 0x736 JUMP JUMPDEST DUP3 MSTORE POP POP JUMP JUMPDEST PUSH1 0x0 PUSH1 0x20 DUP3 ADD SWAP1 POP PUSH2 0x76C PUSH1 0x0 DUP4 ADD DUP5 PUSH2 0x748 JUMP JUMPDEST SWAP3 SWAP2 POP POP JUMP JUMPDEST PUSH1 0x0 DUP2 MLOAD SWAP1 POP SWAP2 SWAP1 POP JUMP JUMPDEST PUSH1 0x0 DUP2 SWAP1 POP SWAP3 SWAP2 POP POP JUMP JUMPDEST PUSH1 0x0 JUMPDEST DUP4 DUP2 LT ISZERO PUSH2 0x7A6 JUMPI DUP1 DUP3 ADD MLOAD DUP2 DUP5 ADD MSTORE PUSH1 0x20 DUP2 ADD SWAP1 POP PUSH2 0x78B JUMP JUMPDEST PUSH1 0x0 DUP5 DUP5 ADD MSTORE POP POP POP POP JUMP JUMPDEST PUSH1 0x0 PUSH2 0x7BD DUP3 PUSH2 0x772 JUMP JUMPDEST PUSH2 0x7C7 DUP2 DUP6 PUSH2 0x77D JUMP JUMPDEST SWAP4 POP PUSH2 0x7D7 DUP2 DUP6 PUSH1 0x20 DUP7 ADD PUSH2 0x788 JUMP JUMPDEST DUP1 DUP5 ADD SWAP2 POP POP SWAP3 SWAP2 POP POP JUMP JUMPDEST PUSH1 0x0 PUSH2 0x7EF DUP3 DUP5 PUSH2 0x7B2 JUMP JUMPDEST SWAP2 POP DUP2 SWAP1 POP SWAP3 SWAP2 POP POP JUMP INVALID LOG2 PUSH5 0x6970667358 0x22 SLT KECCAK256 EXTDELEGATECALL CREATE2 PUSH9 0x27F17CCCC620D1E77B LT PUSH8 0x3FADB006ECEDD7BD 0xE2 GASLIMIT CALLCODE ISZERO 0x2A 0xCA 0xF6 0xB4 LOG1 SAR PUSH5 0x736F6C6343 STOP ADDMOD SAR STOP CALLER PUSH1 0x80 PUSH1 0x40 MSTORE CALLVALUE DUP1 ISZERO PUSH2 0x10 JUMPI PUSH1 0x0 DUP1 REVERT JUMPDEST POP PUSH1 0x40 MLOAD PUSH2 0xA2B CODESIZE SUB DUP1 PUSH2 0xA2B DUP4 CODECOPY DUP2 DUP2 ADD PUSH1 0x40 MSTORE DUP2 ADD SWAP1 PUSH2 0x32 SWAP2 SWAP1 PUSH2 0x1E2 JUMP JUMPDEST DUP1 PUSH1 0x0 PUSH20 0xFFFFFFFFFFFFFFFFFFFFFFFFFFFFFFFFFFFFFFFF AND DUP2 PUSH20 0xFFFFFFFFFFFFFFFFFFFFFFFFFFFFFFFFFFFFFFFF AND SUB PUSH2 0xA5 JUMPI PUSH1 0x0 PUSH1 0x40 MLOAD PUSH32 0x1E4FBDF700000000000000000000000000000000000000000000000000000000 DUP2 MSTORE PUSH1 0x4 ADD PUSH2 0x9C SWAP2 SWAP1 PUSH2 0x21E JUMP JUMPDEST PUSH1 0x40 MLOAD DUP1 SWAP2 SUB SWAP1 REVERT JUMPDEST PUSH2 0xB4 DUP2 PUSH2 0xBB PUSH1 0x20 SHL PUSH1 0x20 SHR JUMP JUMPDEST POP POP PUSH2 0x239 JUMP JUMPDEST PUSH1 0x0 DUP1 PUSH1 0x0 SWAP1 SLOAD SWAP1 PUSH2 0x100 EXP SWAP1 DIV PUSH20 0xFFFFFFFFFFFFFFFFFFFFFFFFFFFFFFFFFFFFFFFF AND SWAP1 POP DUP2 PUSH1 0x0 DUP1 PUSH2 0x100 EXP DUP2 SLOAD DUP2 PUSH20 0xFFFFFFFFFFFFFFFFFFFFFFFFFFFFFFFFFFFFFFFF MUL NOT AND SWAP1 DUP4 PUSH20 0xFFFFFFFFFFFFFFFFFFFFFFFFFFFFFFFFFFFFFFFF AND MUL OR SWAP1 SSTORE POP DUP2 PUSH20 0xFFFFFFFFFFFFFFFFFFFFFFFFFFFFFFFFFFFFFFFF AND DUP2 PUSH20 0xFFFFFFFFFFFFFFFFFFFFFFFFFFFFFFFFFFFFFFFF AND PUSH32 0x8BE0079C531659141344CD1FD0A4F28419497F9722A3DAAFE3B4186F6B6457E0 PUSH1 0x40 MLOAD PUSH1 0x40 MLOAD DUP1 SWAP2 SUB SWAP1 LOG3 POP POP JUMP JUMPDEST PUSH1 0x0 DUP1 REVERT JUMPDEST PUSH1 0x0 PUSH20 0xFFFFFFFFFFFFFFFFFFFFFFFFFFFFFFFFFFFFFFFF DUP3 AND SWAP1 POP SWAP2 SWAP1 POP JUMP JUMPDEST PUSH1 0x0 PUSH2 0x1AF DUP3 PUSH2 0x184 JUMP JUMPDEST SWAP1 POP SWAP2 SWAP1 POP JUMP JUMPDEST PUSH2 0x1BF DUP2 PUSH2 0x1A4 JUMP JUMPDEST DUP2 EQ PUSH2 0x1CA JUMPI PUSH1 0x0 DUP1 REVERT JUMPDEST POP JUMP JUMPDEST PUSH1 0x0 DUP2 MLOAD SWAP1 POP PUSH2 0x1DC DUP2 PUSH2 0x1B6 JUMP JUMPDEST SWAP3 SWAP2 POP POP JUMP JUMPDEST PUSH1 0x0 PUSH1 0x20 DUP3 DUP5 SUB SLT ISZERO PUSH2 0x1F8 JUMPI PUSH2 0x1F7 PUSH2 0x17F JUMP JUMPDEST JUMPDEST PUSH1 0x0 PUSH2 0x206 DUP5 DUP3 DUP6 ADD PUSH2 0x1CD JUMP JUMPDEST SWAP2 POP POP SWAP3 SWAP2 POP POP JUMP JUMPDEST PUSH2 0x218 DUP2 PUSH2 0x1A4 JUMP JUMPDEST DUP3 MSTORE POP POP JUMP JUMPDEST PUSH1 0x0 PUSH1 0x20 DUP3 ADD SWAP1 POP PUSH2 0x233 PUSH1 0x0 DUP4 ADD DUP5 PUSH2 0x20F JUMP JUMPDEST SWAP3 SWAP2 POP POP JUMP JUMPDEST PUSH2 0x7E3 DUP1 PUSH2 0x248 PUSH1 0x0 CODECOPY PUSH1 0x0 RETURN INVALID PUSH1 0x80 PUSH1 0x40 MSTORE PUSH1 0x4 CALLDATASIZE LT PUSH2 0x4A JUMPI PUSH1 0x0 CALLDATALOAD PUSH1 0xE0 SHR DUP1 PUSH4 0x715018A6 EQ PUSH2 0x4F JUMPI DUP1 PUSH4 0x8DA5CB5B EQ PUSH2 0x66 JUMPI DUP1 PUSH4 0x9623609D EQ PUSH2 0x91 JUMPI DUP1 PUSH4 0xAD3CB1CC EQ PUSH2 0xAD JUMPI DUP1 PUSH4 0xF2FDE38B EQ PUSH2 0xD8 JUMPI JUMPDEST PUSH1 0x0 DUP1 REVERT JUMPDEST CALLVALUE DUP1 ISZERO PUSH2 0x5B JUMPI PUSH1 0x0 DUP1 REVERT JUMPDEST POP PUSH2 0x64 PUSH2 0x101 JUMP JUMPDEST STOP JUMPDEST CALLVALUE DUP1 ISZERO PUSH2 0x72 JUMPI PUSH1 0x0 DUP1 REVERT JUMPDEST POP PUSH2 0x7B PUSH2 0x115 JUMP JUMPDEST PUSH1 0x40 MLOAD PUSH2 0x88 SWAP2 SWAP1 PUSH2 0x40C JUMP JUMPDEST PUSH1 0x40 MLOAD DUP1 SWAP2 SUB SWAP1 RETURN JUMPDEST PUSH2 0xAB PUSH1 0x4 DUP1 CALLDATASIZE SUB DUP2 ADD SWAP1 PUSH2 0xA6 SWAP2 SWAP1 PUSH2 0x5EB JUMP JUMPDEST PUSH2 0x13E JUMP JUMPDEST STOP JUMPDEST CALLVALUE DUP1 ISZERO PUSH2 0xB9 JUMPI PUSH1 0x0 DUP1 REVERT JUMPDEST POP PUSH2 0xC2 PUSH2 0x1B9 JUMP JUMPDEST PUSH1 0x40 MLOAD PUSH2 0xCF SWAP2 SWAP1 PUSH2 0x6D9 JUMP JUMPDEST PUSH1 0x40 MLOAD DUP1 SWAP2 SUB SWAP1 RETURN JUMPDEST CALLVALUE DUP1 ISZERO PUSH2 0xE4 JUMPI PUSH1 0x0 DUP1 REVERT JUMPDEST POP PUSH2 0xFF PUSH1 0x4 DUP1 CALLDATASIZE SUB DUP2 ADD SWAP1 PUSH2 0xFA SWAP2 SWAP1 PUSH2 0x6FB JUMP JUMPDEST PUSH2 0x1F2 JUMP JUMPDEST STOP JUMPDEST PUSH2 0x109 PUSH2 0x278 JUMP JUMPDEST PUSH2 0x113 PUSH1 0x0 PUSH2 0x2FF JUMP JUMPDEST JUMP JUMPDEST PUSH1 0x0 DUP1 PUSH1 0x0 SWAP1 SLOAD SWAP1 PUSH2 0x100 EXP SWAP1 DIV PUSH20 0xFFFFFFFFFFFFFFFFFFFFFFFFFFFFFFFFFFFFFFFF AND SWAP1 POP SWAP1 JUMP JUMPDEST PUSH2 0x146 PUSH2 0x278 JUMP JUMPDEST DUP3 PUSH20 0xFFFFFFFFFFFFFFFFFFFFFFFFFFFFFFFFFFFFFFFF AND PUSH4 0x4F1EF286 CALLVALUE DUP5 DUP5 PUSH1 0x40 MLOAD DUP5 PUSH4 0xFFFFFFFF AND PUSH1 0xE0 SHL DUP2 MSTORE PUSH1 0x4 ADD PUSH2 0x182 SWAP3 SWAP2 SWAP1 PUSH2 0x77D JUMP JUMPDEST PUSH1 0x0 PUSH1 0x40 MLOAD DUP1 DUP4 SUB DUP2 DUP6 DUP9 DUP1 EXTCODESIZE ISZERO DUP1 ISZERO PUSH2 0x19B JUMPI PUSH1 0x0 DUP1 REVERT JUMPDEST POP GAS CALL ISZERO DUP1 ISZERO PUSH2 0x1AF JUMPI RETURNDATASIZE PUSH1 0x0 DUP1 RETURNDATACOPY RETURNDATASIZE PUSH1 0x0 REVERT JUMPDEST POP POP POP POP POP POP POP POP JUMP JUMPDEST PUSH1 0x40 MLOAD DUP1 PUSH1 0x40 ADD PUSH1 0x40 MSTORE DUP1 PUSH1 0x5 DUP2 MSTORE PUSH1 0x20 ADD PUSH32 0x352E302E30000000000000000000000000000000000000000000000000000000 DUP2 MSTORE POP DUP2 JUMP JUMPDEST PUSH2 0x1FA PUSH2 0x278 JUMP JUMPDEST PUSH1 0x0 PUSH20 0xFFFFFFFFFFFFFFFFFFFFFFFFFFFFFFFFFFFFFFFF AND DUP2 PUSH20 0xFFFFFFFFFFFFFFFFFFFFFFFFFFFFFFFFFFFFFFFF AND SUB PUSH2 0x26C JUMPI PUSH1 0x0 PUSH1 0x40 MLOAD PUSH32 0x1E4FBDF700000000000000000000000000000000000000000000000000000000 DUP2 MSTORE PUSH1 0x4 ADD PUSH2 0x263 SWAP2 SWAP1 PUSH2 0x40C JUMP JUMPDEST PUSH1 0x40 MLOAD DUP1 SWAP2 SUB SWAP1 REVERT JUMPDEST PUSH2 0x275 DUP2 PUSH2 0x2FF JUMP JUMPDEST POP JUMP JUMPDEST PUSH2 0x280 PUSH2 0x3C3 JUMP JUMPDEST PUSH20 0xFFFFFFFFFFFFFFFFFFFFFFFFFFFFFFFFFFFFFFFF AND PUSH2 0x29E PUSH2 0x115 JUMP JUMPDEST PUSH20 0xFFFFFFFFFFFFFFFFFFFFFFFFFFFFFFFFFFFFFFFF AND EQ PUSH2 0x2FD JUMPI PUSH2 0x2C1 PUSH2 0x3C3 JUMP JUMPDEST PUSH1 0x40 MLOAD PUSH32 0x118CDAA700000000000000000000000000000000000000000000000000000000 DUP2 MSTORE PUSH1 0x4 ADD PUSH2 0x2F4 SWAP2 SWAP1 PUSH2 0x40C JUMP JUMPDEST PUSH1 0x40 MLOAD DUP1 SWAP2 SUB SWAP1 REVERT JUMPDEST JUMP JUMPDEST PUSH1 0x0 DUP1 PUSH1 0x0 SWAP1 SLOAD SWAP1 PUSH2 0x100 EXP SWAP1 DIV PUSH20 0xFFFFFFFFFFFFFFFFFFFFFFFFFFFFFFFFFFFFFFFF AND SWAP1 POP DUP2 PUSH1 0x0 DUP1 PUSH2 0x100 EXP DUP2 SLOAD DUP2 PUSH20 0xFFFFFFFFFFFFFFFFFFFFFFFFFFFFFFFFFFFFFFFF MUL NOT AND SWAP1 DUP4 PUSH20 0xFFFFFFFFFFFFFFFFFFFFFFFFFFFFFFFFFFFFFFFF AND MUL OR SWAP1 SSTORE POP DUP2 PUSH20 0xFFFFFFFFFFFFFFFFFFFFFFFFFFFFFFFFFFFFFFFF AND DUP2 PUSH20 0xFFFFFFFFFFFFFFFFFFFFFFFFFFFFFFFFFFFFFFFF AND PUSH32 0x8BE0079C531659141344CD1FD0A4F28419497F9722A3DAAFE3B4186F6B6457E0 PUSH1 0x40 MLOAD PUSH1 0x40 MLOAD DUP1 SWAP2 SUB SWAP1 LOG3 POP POP JUMP JUMPDEST PUSH1 0x0 CALLER SWAP1 POP SWAP1 JUMP JUMPDEST PUSH1 0x0 PUSH20 0xFFFFFFFFFFFFFFFFFFFFFFFFFFFFFFFFFFFFFFFF DUP3 AND SWAP1 POP SWAP2 SWAP1 POP JUMP JUMPDEST PUSH1 0x0 PUSH2 0x3F6 DUP3 PUSH2 0x3CB JUMP JUMPDEST SWAP1 POP SWAP2 SWAP1 POP JUMP JUMPDEST PUSH2 0x406 DUP2 PUSH2 0x3EB JUMP JUMPDEST DUP3 MSTORE POP POP JUMP JUMPDEST PUSH1 0x0 PUSH1 0x20 DUP3 ADD SWAP1 POP PUSH2 0x421 PUSH1 0x0 DUP4 ADD DUP5 PUSH2 0x3FD JUMP JUMPDEST SWAP3 SWAP2 POP POP JUMP JUMPDEST PUSH1 0x0 PUSH1 0x40 MLOAD SWAP1 POP SWAP1 JUMP JUMPDEST PUSH1 0x0 DUP1 REVERT JUMPDEST PUSH1 0x0 DUP1 REVERT JUMPDEST PUSH1 0x0 PUSH2 0x446 DUP3 PUSH2 0x3EB JUMP JUMPDEST SWAP1 POP SWAP2 SWAP1 POP JUMP JUMPDEST PUSH2 0x456 DUP2 PUSH2 0x43B JUMP JUMPDEST DUP2 EQ PUSH2 0x461 JUMPI PUSH1 0x0 DUP1 REVERT JUMPDEST POP JUMP JUMPDEST PUSH1 0x0 DUP2 CALLDATALOAD SWAP1 POP PUSH2 0x473 DUP2 PUSH2 0x44D JUMP JUMPDEST SWAP3 SWAP2 POP POP JUMP JUMPDEST PUSH2 0x482 DUP2 PUSH2 0x3EB JUMP JUMPDEST DUP2 EQ PUSH2 0x48D JUMPI PUSH1 0x0 DUP1 REVERT JUMPDEST POP JUMP JUMPDEST PUSH1 0x0 DUP2 CALLDATALOAD SWAP1 POP PUSH2 0x49F DUP2 PUSH2 0x479 JUMP JUMPDEST SWAP3 SWAP2 POP POP JUMP JUMPDEST PUSH1 0x0 DUP1 REVERT JUMPDEST PUSH1 0x0 DUP1 REVERT JUMPDEST PUSH1 0x0 PUSH1 0x1F NOT PUSH1 0x1F DUP4 ADD AND SWAP1 POP SWAP2 SWAP1 POP JUMP JUMPDEST PUSH32 0x4E487B7100000000000000000000000000000000000000000000000000000000 PUSH1 0x0 MSTORE PUSH1 0x41 PUSH1 0x4 MSTORE PUSH1 0x24 PUSH1 0x0 REVERT JUMPDEST PUSH2 0x4F8 DUP3 PUSH2 0x4AF JUMP JUMPDEST DUP2 ADD DUP2 DUP2 LT PUSH8 0xFFFFFFFFFFFFFFFF DUP3 GT OR ISZERO PUSH2 0x517 JUMPI PUSH2 0x516 PUSH2 0x4C0 JUMP JUMPDEST JUMPDEST DUP1 PUSH1 0x40 MSTORE POP POP POP JUMP JUMPDEST PUSH1 0x0 PUSH2 0x52A PUSH2 0x427 JUMP JUMPDEST SWAP1 POP PUSH2 0x536 DUP3 DUP3 PUSH2 0x4EF JUMP JUMPDEST SWAP2 SWAP1 POP JUMP JUMPDEST PUSH1 0x0 PUSH8 0xFFFFFFFFFFFFFFFF DUP3 GT ISZERO PUSH2 0x556 JUMPI PUSH2 0x555 PUSH2 0x4C0 JUMP JUMPDEST JUMPDEST PUSH2 0x55F DUP3 PUSH2 0x4AF JUMP JUMPDEST SWAP1 POP PUSH1 0x20 DUP2 ADD SWAP1 POP SWAP2 SWAP1 POP JUMP JUMPDEST DUP3 DUP2 DUP4 CALLDATACOPY PUSH1 0x0 DUP4 DUP4 ADD MSTORE POP POP POP JUMP JUMPDEST PUSH1 0x0 PUSH2 0x58E PUSH2 0x589 DUP5 PUSH2 0x53B JUMP JUMPDEST PUSH2 0x520 JUMP JUMPDEST SWAP1 POP DUP3 DUP2 MSTORE PUSH1 0x20 DUP2 ADD DUP5 DUP5 DUP5 ADD GT ISZERO PUSH2 0x5AA JUMPI PUSH2 0x5A9 PUSH2 0x4AA JUMP JUMPDEST JUMPDEST PUSH2 0x5B5 DUP5 DUP3 DUP6 PUSH2 0x56C JUMP JUMPDEST POP SWAP4 SWAP3 POP POP POP JUMP JUMPDEST PUSH1 0x0 DUP3 PUSH1 0x1F DUP4 ADD SLT PUSH2 0x5D2 JUMPI PUSH2 0x5D1 PUSH2 0x4A5 JUMP JUMPDEST JUMPDEST DUP2 CALLDATALOAD PUSH2 0x5E2 DUP5 DUP3 PUSH1 0x20 DUP7 ADD PUSH2 0x57B JUMP JUMPDEST SWAP2 POP POP SWAP3 SWAP2 POP POP JUMP JUMPDEST PUSH1 0x0 DUP1 PUSH1 0x0 PUSH1 0x60 DUP5 DUP7 SUB SLT ISZERO PUSH2 0x604 JUMPI PUSH2 0x603 PUSH2 0x431 JUMP JUMPDEST JUMPDEST PUSH1 0x0 PUSH2 0x612 DUP7 DUP3 DUP8 ADD PUSH2 0x464 JUMP JUMPDEST SWAP4 POP POP PUSH1 0x20 PUSH2 0x623 DUP7 DUP3 DUP8 ADD PUSH2 0x490 JUMP JUMPDEST SWAP3 POP POP PUSH1 0x40 DUP5 ADD CALLDATALOAD PUSH8 0xFFFFFFFFFFFFFFFF DUP2 GT ISZERO PUSH2 0x644 JUMPI PUSH2 0x643 PUSH2 0x436 JUMP JUMPDEST JUMPDEST PUSH2 0x650 DUP7 DUP3 DUP8 ADD PUSH2 0x5BD JUMP JUMPDEST SWAP2 POP POP SWAP3 POP SWAP3 POP SWAP3 JUMP JUMPDEST PUSH1 0x0 DUP2 MLOAD SWAP1 POP SWAP2 SWAP1 POP JUMP JUMPDEST PUSH1 0x0 DUP3 DUP3 MSTORE PUSH1 0x20 DUP3 ADD SWAP1 POP SWAP3 SWAP2 POP POP JUMP JUMPDEST PUSH1 0x0 JUMPDEST DUP4 DUP2 LT ISZERO PUSH2 0x694 JUMPI DUP1 DUP3 ADD MLOAD DUP2 DUP5 ADD MSTORE PUSH1 0x20 DUP2 ADD SWAP1 POP PUSH2 0x679 JUMP JUMPDEST PUSH1 0x0 DUP5 DUP5 ADD MSTORE POP POP POP POP JUMP JUMPDEST PUSH1 0x0 PUSH2 0x6AB DUP3 PUSH2 0x65A JUMP JUMPDEST PUSH2 0x6B5 DUP2 DUP6 PUSH2 0x665 JUMP JUMPDEST SWAP4 POP PUSH2 0x6C5 DUP2 DUP6 PUSH1 0x20 DUP7 ADD PUSH2 0x676 JUMP JUMPDEST PUSH2 0x6CE DUP2 PUSH2 0x4AF JUMP JUMPDEST DUP5 ADD SWAP2 POP POP SWAP3 SWAP2 POP POP JUMP JUMPDEST PUSH1 0x0 PUSH1 0x20 DUP3 ADD SWAP1 POP DUP2 DUP2 SUB PUSH1 0x0 DUP4 ADD MSTORE PUSH2 0x6F3 DUP2 DUP5 PUSH2 0x6A0 JUMP JUMPDEST SWAP1 POP SWAP3 SWAP2 POP POP JUMP JUMPDEST PUSH1 0x0 PUSH1 0x20 DUP3 DUP5 SUB SLT ISZERO PUSH2 0x711 JUMPI PUSH2 0x710 PUSH2 0x431 JUMP JUMPDEST JUMPDEST PUSH1 0x0 PUSH2 0x71F DUP5 DUP3 DUP6 ADD PUSH2 0x490 JUMP JUMPDEST SWAP2 POP POP SWAP3 SWAP2 POP POP JUMP JUMPDEST PUSH1 0x0 DUP2 MLOAD SWAP1 POP SWAP2 SWAP1 POP JUMP JUMPDEST PUSH1 0x0 DUP3 DUP3 MSTORE PUSH1 0x20 DUP3 ADD SWAP1 POP SWAP3 SWAP2 POP POP JUMP JUMPDEST PUSH1 0x0 PUSH2 0x74F DUP3 PUSH2 0x728 JUMP JUMPDEST PUSH2 0x759 DUP2 DUP6 PUSH2 0x733 JUMP JUMPDEST SWAP4 POP PUSH2 0x769 DUP2 DUP6 PUSH1 0x20 DUP7 ADD PUSH2 0x676 JUMP JUMPDEST PUSH2 0x772 DUP2 PUSH2 0x4AF JUMP JUMPDEST DUP5 ADD SWAP2 POP POP SWAP3 SWAP2 POP POP JUMP JUMPDEST PUSH1 0x0 PUSH1 0x40 DUP3 ADD SWAP1 POP PUSH2 0x792 PUSH1 0x0 DUP4 ADD DUP6 PUSH2 0x3FD JUMP JUMPDEST DUP2 DUP2 SUB PUSH1 0x20 DUP4 ADD MSTORE PUSH2 0x7A4 DUP2 DUP5 PUSH2 0x744 JUMP JUMPDEST SWAP1 POP SWAP4 SWAP3 POP POP POP JUMP INVALID LOG2 PUSH5 0x6970667358 0x22 SLT KECCAK256 CALL PUSH17 0xE03813FF411D05A46A24A8CE10F75C3155 0xB2 0xD 0x4B SWAP15 SLOAD CALL CALLDATASIZE AND 0xB0 GAS PUSH26 0xCEB264736F6C634300081D003300000000000000000000000000 "
				},
				"gasEstimates": {
					"creation": {
						"codeDepositCost": "49400",
						"executionCost": "infinite",
						"totalCost": "infinite"
					},
					"external": {
						"proxy()": "2489"
					}
				},
				"methodIdentifiers": {
					"proxy()": "ec556889"
				}
			},
			"storageLayout": {
				"storage": [
					{
						"astId": 1170,
						"contract": "contracts/proxyDeployer.sol:ProxyDeployer",
						"label": "proxy",
						"offset": 0,
						"slot": "0",
						"type": "t_address"
					}
				],
				"types": {
					"t_address": {
						"encoding": "inplace",
						"label": "address",
						"numberOfBytes": "20"
					}
				}
			},
			"userdoc": {
				"kind": "user",
				"methods": {},
				"version": 1
			}
		}
	}
}