{
	"contracts/sweetspot.sol": {
		"sweetspot": {
			"abi": [
				{
					"inputs": [],
					"name": "InvalidInitialization",
					"type": "error"
				},
				{
					"inputs": [],
					"name": "NotInitializing",
					"type": "error"
				},
				{
					"inputs": [
						{
							"internalType": "uint256",
							"name": "currentTime",
							"type": "uint256"
						},
						{
							"internalType": "uint256",
							"name": "start",
							"type": "uint256"
						},
						{
							"internalType": "uint256",
							"name": "end",
							"type": "uint256"
						}
					],
					"name": "NotWithinRound",
					"type": "error"
				},
				{
					"inputs": [
						{
							"internalType": "address",
							"name": "owner",
							"type": "address"
						}
					],
					"name": "OwnableInvalidOwner",
					"type": "error"
				},
				{
					"inputs": [
						{
							"internalType": "address",
							"name": "account",
							"type": "address"
						}
					],
					"name": "OwnableUnauthorizedAccount",
					"type": "error"
				},
				{
					"inputs": [
						{
							"internalType": "address",
							"name": "token",
							"type": "address"
						}
					],
					"name": "SafeERC20FailedOperation",
					"type": "error"
				},
				{
					"anonymous": false,
					"inputs": [
						{
							"indexed": true,
							"internalType": "address",
							"name": "user",
							"type": "address"
						},
						{
							"indexed": true,
							"internalType": "address",
							"name": "token",
							"type": "address"
						},
						{
							"indexed": false,
							"internalType": "uint256",
							"name": "newAmount",
							"type": "uint256"
						}
					],
					"name": "AllowedAmountUpdated",
					"type": "event"
				},
				{
					"anonymous": false,
					"inputs": [
						{
							"indexed": true,
							"internalType": "address",
							"name": "claimant",
							"type": "address"
						},
						{
							"indexed": true,
							"internalType": "address",
							"name": "token",
							"type": "address"
						},
						{
							"indexed": false,
							"internalType": "uint256",
							"name": "amount",
							"type": "uint256"
						}
					],
					"name": "Claimed",
					"type": "event"
				},
				{
					"anonymous": false,
					"inputs": [
						{
							"indexed": true,
							"internalType": "address",
							"name": "depositor",
							"type": "address"
						},
						{
							"indexed": true,
							"internalType": "address",
							"name": "token",
							"type": "address"
						},
						{
							"indexed": false,
							"internalType": "uint256",
							"name": "amount",
							"type": "uint256"
						}
					],
					"name": "Deposit",
					"type": "event"
				},
				{
					"anonymous": false,
					"inputs": [
						{
							"indexed": false,
							"internalType": "uint64",
							"name": "version",
							"type": "uint64"
						}
					],
					"name": "Initialized",
					"type": "event"
				},
				{
					"anonymous": false,
					"inputs": [
						{
							"indexed": true,
							"internalType": "address",
							"name": "previousOwner",
							"type": "address"
						},
						{
							"indexed": true,
							"internalType": "address",
							"name": "newOwner",
							"type": "address"
						}
					],
					"name": "OwnershipTransferred",
					"type": "event"
				},
				{
					"anonymous": false,
					"inputs": [
						{
							"indexed": false,
							"internalType": "uint256",
							"name": "start",
							"type": "uint256"
						},
						{
							"indexed": false,
							"internalType": "uint256",
							"name": "end",
							"type": "uint256"
						},
						{
							"indexed": false,
							"internalType": "string",
							"name": "metadataURI",
							"type": "string"
						}
					],
					"name": "RoundUpdated",
					"type": "event"
				},
				{
					"anonymous": false,
					"inputs": [
						{
							"indexed": true,
							"internalType": "address",
							"name": "withdrawer",
							"type": "address"
						},
						{
							"indexed": true,
							"internalType": "address",
							"name": "token",
							"type": "address"
						},
						{
							"indexed": false,
							"internalType": "uint256",
							"name": "amount",
							"type": "uint256"
						}
					],
					"name": "Withdraw",
					"type": "event"
				},
				{
					"stateMutability": "payable",
					"type": "fallback"
				},
				{
					"inputs": [],
					"name": "NATIVE_TOKEN",
					"outputs": [
						{
							"internalType": "address",
							"name": "",
							"type": "address"
						}
					],
					"stateMutability": "view",
					"type": "function"
				},
				{
					"inputs": [
						{
							"internalType": "address",
							"name": "",
							"type": "address"
						},
						{
							"internalType": "address",
							"name": "",
							"type": "address"
						}
					],
					"name": "allowedAmounts",
					"outputs": [
						{
							"internalType": "uint256",
							"name": "",
							"type": "uint256"
						}
					],
					"stateMutability": "view",
					"type": "function"
				},
				{
					"inputs": [
						{
							"internalType": "address",
							"name": "token",
							"type": "address"
						},
						{
							"internalType": "address[]",
							"name": "users",
							"type": "address[]"
						},
						{
							"internalType": "uint256[]",
							"name": "amounts",
							"type": "uint256[]"
						}
					],
					"name": "bulkSetAllowedAmount",
					"outputs": [],
					"stateMutability": "nonpayable",
					"type": "function"
				},
				{
					"inputs": [
						{
							"internalType": "address",
							"name": "token",
							"type": "address"
						}
					],
					"name": "claim",
					"outputs": [],
					"stateMutability": "nonpayable",
					"type": "function"
				},
				{
					"inputs": [],
					"name": "currentRound",
					"outputs": [
						{
							"internalType": "uint64",
							"name": "start",
							"type": "uint64"
						},
						{
							"internalType": "uint64",
							"name": "end",
							"type": "uint64"
						},
						{
							"internalType": "string",
							"name": "metadataURI",
							"type": "string"
						}
					],
					"stateMutability": "view",
					"type": "function"
				},
				{
					"inputs": [
						{
							"internalType": "address",
							"name": "token",
							"type": "address"
						},
						{
							"internalType": "uint256",
							"name": "amount",
							"type": "uint256"
						}
					],
					"name": "deposit",
					"outputs": [],
					"stateMutability": "payable",
					"type": "function"
				},
				{
					"inputs": [
						{
							"internalType": "address",
							"name": "_scorer",
							"type": "address"
						},
						{
							"internalType": "address",
							"name": "owner",
							"type": "address"
						}
					],
					"name": "initialize",
					"outputs": [],
					"stateMutability": "nonpayable",
					"type": "function"
				},
				{
					"inputs": [],
					"name": "owner",
					"outputs": [
						{
							"internalType": "address",
							"name": "",
							"type": "address"
						}
					],
					"stateMutability": "view",
					"type": "function"
				},
				{
					"inputs": [],
					"name": "renounceOwnership",
					"outputs": [],
					"stateMutability": "nonpayable",
					"type": "function"
				},
				{
					"inputs": [],
					"name": "scorer",
					"outputs": [
						{
							"internalType": "contract IScorer",
							"name": "",
							"type": "address"
						}
					],
					"stateMutability": "view",
					"type": "function"
				},
				{
					"inputs": [
						{
							"internalType": "address",
							"name": "user",
							"type": "address"
						},
						{
							"internalType": "address",
							"name": "token",
							"type": "address"
						},
						{
							"internalType": "uint256",
							"name": "amount",
							"type": "uint256"
						}
					],
					"name": "setAllowedAmount",
					"outputs": [],
					"stateMutability": "nonpayable",
					"type": "function"
				},
				{
					"inputs": [
						{
							"internalType": "uint64",
							"name": "start",
							"type": "uint64"
						},
						{
							"internalType": "uint64",
							"name": "end",
							"type": "uint64"
						},
						{
							"internalType": "string",
							"name": "metadataURI",
							"type": "string"
						}
					],
					"name": "setRound",
					"outputs": [],
					"stateMutability": "nonpayable",
					"type": "function"
				},
				{
					"inputs": [
						{
							"internalType": "address",
							"name": "",
							"type": "address"
						}
					],
					"name": "totalBalances",
					"outputs": [
						{
							"internalType": "uint256",
							"name": "",
							"type": "uint256"
						}
					],
					"stateMutability": "view",
					"type": "function"
				},
				{
					"inputs": [
						{
							"internalType": "address",
							"name": "newOwner",
							"type": "address"
						}
					],
					"name": "transferOwnership",
					"outputs": [],
					"stateMutability": "nonpayable",
					"type": "function"
				},
				{
					"inputs": [
						{
							"internalType": "address",
							"name": "token",
							"type": "address"
						},
						{
							"internalType": "uint256",
							"name": "amount",
							"type": "uint256"
						}
					],
					"name": "withdraw",
					"outputs": [],
					"stateMutability": "nonpayable",
					"type": "function"
				},
				{
					"stateMutability": "payable",
					"type": "receive"
				}
			],
			"devdoc": {
				"errors": {
					"InvalidInitialization()": [
						{
							"details": "The contract is already initialized."
						}
					],
					"NotInitializing()": [
						{
							"details": "The contract is not initializing."
						}
					],
					"OwnableInvalidOwner(address)": [
						{
							"details": "The owner is not a valid owner account. (eg. `address(0)`)"
						}
					],
					"OwnableUnauthorizedAccount(address)": [
						{
							"details": "The caller account is not authorized to perform an operation."
						}
					],
					"SafeERC20FailedOperation(address)": [
						{
							"details": "An operation with an ERC-20 token failed."
						}
					]
				},
				"events": {
					"Initialized(uint64)": {
						"details": "Triggered when the contract has been initialized or reinitialized."
					}
				},
				"kind": "dev",
				"methods": {
					"deposit(address,uint256)": {
						"params": {
							"amount": "The value to add (in wei for Ether).",
							"token": "The token address (address(0) for Ether)."
						}
					},
					"initialize(address,address)": {
						"params": {
							"_scorer": "The scoring contract address.",
							"owner": "The owner address."
						}
					},
					"owner()": {
						"details": "Returns the address of the current owner."
					},
					"renounceOwnership()": {
						"details": "Leaves the contract without owner. It will not be possible to call `onlyOwner` functions. Can only be called by the current owner. NOTE: Renouncing ownership will leave the contract without an owner, thereby disabling any functionality that is only available to the owner."
					},
					"setAllowedAmount(address,address,uint256)": {
						"params": {
							"amount": "The allowed amount for the user.",
							"token": "The token address.",
							"user": "The address of the user."
						}
					},
					"setRound(uint64,uint64,string)": {
						"params": {
							"end": "The end timestamp of the round.",
							"metadataURI": "The IPFS URI for the round metadata.",
							"start": "The start timestamp of the round."
						}
					},
					"transferOwnership(address)": {
						"details": "Transfers ownership of the contract to a new account (`newOwner`). Can only be called by the current owner."
					},
					"withdraw(address,uint256)": {
						"params": {
							"amount": "The amount to withdraw.",
							"token": "The token address (address(0) for Ether)."
						}
					}
				},
				"version": 1
			},
			"evm": {
				"assembly": "    /* \"contracts/sweetspot.sol\":454:6704  contract sweetspot is OwnableUpgradeable, ReentrancyGuardUpgradeable  {... */\n  mstore(0x40, 0x80)\n  callvalue\n  dup1\n  iszero\n  tag_1\n  jumpi\n  0x00\n  dup1\n  revert\ntag_1:\n  pop\n  dataSize(sub_0)\n  dup1\n  dataOffset(sub_0)\n  0x00\n  codecopy\n  0x00\n  return\nstop\n\nsub_0: assembly {\n        /* \"contracts/sweetspot.sol\":454:6704  contract sweetspot is OwnableUpgradeable, ReentrancyGuardUpgradeable  {... */\n      mstore(0x40, 0x80)\n      jumpi(tag_1, lt(calldatasize, 0x04))\n      shr(0xe0, calldataload(0x00))\n      dup1\n      0x8da5cb5b\n      gt\n      tag_18\n      jumpi\n      dup1\n      0xb807a3c4\n      gt\n      tag_19\n      jumpi\n      dup1\n      0xb807a3c4\n      eq\n      tag_14\n      jumpi\n      dup1\n      0xe3e7c1f9\n      eq\n      tag_15\n      jumpi\n      dup1\n      0xf2fde38b\n      eq\n      tag_16\n      jumpi\n      dup1\n      0xf3fef3a3\n      eq\n      tag_17\n      jumpi\n      jump(tag_2)\n    tag_19:\n      dup1\n      0x8da5cb5b\n      eq\n      tag_10\n      jumpi\n      dup1\n      0xa9012c89\n      eq\n      tag_11\n      jumpi\n      dup1\n      0xa9590e8a\n      eq\n      tag_12\n      jumpi\n      dup1\n      0xaee9c872\n      eq\n      tag_13\n      jumpi\n      jump(tag_2)\n    tag_18:\n      dup1\n      0x485cc955\n      gt\n      tag_20\n      jumpi\n      dup1\n      0x485cc955\n      eq\n      tag_6\n      jumpi\n      dup1\n      0x715018a6\n      eq\n      tag_7\n      jumpi\n      dup1\n      0x85c758f7\n      eq\n      tag_8\n      jumpi\n      dup1\n      0x8a19c8bc\n      eq\n      tag_9\n      jumpi\n      jump(tag_2)\n    tag_20:\n      dup1\n      0x1e83409a\n      eq\n      tag_3\n      jumpi\n      dup1\n      0x31f7d964\n      eq\n      tag_4\n      jumpi\n      dup1\n      0x47e7ef24\n      eq\n      tag_5\n      jumpi\n      jump(tag_2)\n    tag_1:\n      jumpi(tag_2, calldatasize)\n        /* \"contracts/sweetspot.sol\":6470:6479  msg.value */\n      callvalue\n        /* \"contracts/sweetspot.sol\":6439:6452  totalBalances */\n      0x35\n        /* \"contracts/sweetspot.sol\":6439:6466  totalBalances[NATIVE_TOKEN] */\n      0x00\n        /* \"contracts/sweetspot.sol\":613:614  0 */\n      dup1\n        /* \"contracts/sweetspot.sol\":6439:6466  totalBalances[NATIVE_TOKEN] */\n      0xffffffffffffffffffffffffffffffffffffffff\n      and\n      0xffffffffffffffffffffffffffffffffffffffff\n      and\n      dup2\n      mstore\n      0x20\n      add\n      swap1\n      dup2\n      mstore\n      0x20\n      add\n      0x00\n      keccak256\n      0x00\n        /* \"contracts/sweetspot.sol\":6439:6479  totalBalances[NATIVE_TOKEN] += msg.value */\n      dup3\n      dup3\n      sload\n      tag_23\n      swap2\n      swap1\n      tag_24\n      jump\t// in\n    tag_23:\n      swap3\n      pop\n      pop\n      dup2\n      swap1\n      sstore\n      pop\n        /* \"contracts/sweetspot.sol\":613:614  0 */\n      0x00\n        /* \"contracts/sweetspot.sol\":6495:6539  Deposit(msg.sender, NATIVE_TOKEN, msg.value) */\n      0xffffffffffffffffffffffffffffffffffffffff\n      and\n        /* \"contracts/sweetspot.sol\":6503:6513  msg.sender */\n      caller\n        /* \"contracts/sweetspot.sol\":6495:6539  Deposit(msg.sender, NATIVE_TOKEN, msg.value) */\n      0xffffffffffffffffffffffffffffffffffffffff\n      and\n      0x5548c837ab068cf56a2c2479df0882a4922fd203edb7517321831d95078c5f62\n        /* \"contracts/sweetspot.sol\":6529:6538  msg.value */\n      callvalue\n        /* \"contracts/sweetspot.sol\":6495:6539  Deposit(msg.sender, NATIVE_TOKEN, msg.value) */\n      mload(0x40)\n      tag_25\n      swap2\n      swap1\n      tag_26\n      jump\t// in\n    tag_25:\n      mload(0x40)\n      dup1\n      swap2\n      sub\n      swap1\n      log3\n        /* \"contracts/sweetspot.sol\":454:6704  contract sweetspot is OwnableUpgradeable, ReentrancyGuardUpgradeable  {... */\n      stop\n    tag_2:\n        /* \"contracts/sweetspot.sol\":6659:6693  revert(\"Sweetspot: use deposit()\") */\n      mload(0x40)\n      0x08c379a000000000000000000000000000000000000000000000000000000000\n      dup2\n      mstore\n      0x04\n      add\n      tag_29\n      swap1\n      tag_30\n      jump\t// in\n    tag_29:\n      mload(0x40)\n      dup1\n      swap2\n      sub\n      swap1\n      revert\n        /* \"contracts/sweetspot.sol\":2971:3903  function claim(address token) external nonReentrant {... */\n    tag_3:\n      callvalue\n      dup1\n      iszero\n      tag_31\n      jumpi\n      0x00\n      dup1\n      revert\n    tag_31:\n      pop\n      tag_32\n      0x04\n      dup1\n      calldatasize\n      sub\n      dup2\n      add\n      swap1\n      tag_33\n      swap2\n      swap1\n      tag_34\n      jump\t// in\n    tag_33:\n      tag_35\n      jump\t// in\n    tag_32:\n      stop\n        /* \"contracts/sweetspot.sol\":566:615  address public constant NATIVE_TOKEN = address(0) */\n    tag_4:\n      callvalue\n      dup1\n      iszero\n      tag_36\n      jumpi\n      0x00\n      dup1\n      revert\n    tag_36:\n      pop\n      tag_37\n      tag_38\n      jump\t// in\n    tag_37:\n      mload(0x40)\n      tag_39\n      swap2\n      swap1\n      tag_40\n      jump\t// in\n    tag_39:\n      mload(0x40)\n      dup1\n      swap2\n      sub\n      swap1\n      return\n        /* \"contracts/sweetspot.sol\":2412:2886  function deposit(address token, uint256 amount) external payable nonReentrant  {... */\n    tag_5:\n      tag_41\n      0x04\n      dup1\n      calldatasize\n      sub\n      dup2\n      add\n      swap1\n      tag_42\n      swap2\n      swap1\n      tag_43\n      jump\t// in\n    tag_42:\n      tag_44\n      jump\t// in\n    tag_41:\n      stop\n        /* \"contracts/sweetspot.sol\":1977:2194  function initialize(address _scorer, address owner) external initializer {... */\n    tag_6:\n      callvalue\n      dup1\n      iszero\n      tag_45\n      jumpi\n      0x00\n      dup1\n      revert\n    tag_45:\n      pop\n      tag_46\n      0x04\n      dup1\n      calldatasize\n      sub\n      dup2\n      add\n      swap1\n      tag_47\n      swap2\n      swap1\n      tag_48\n      jump\t// in\n    tag_47:\n      tag_49\n      jump\t// in\n    tag_46:\n      stop\n        /* \"@openzeppelin/contracts-upgradeable/access/OwnableUpgradeable.sol\":3155:3256  function renounceOwnership() public virtual onlyOwner {... */\n    tag_7:\n      callvalue\n      dup1\n      iszero\n      tag_50\n      jumpi\n      0x00\n      dup1\n      revert\n    tag_50:\n      pop\n      tag_51\n      tag_52\n      jump\t// in\n    tag_51:\n      stop\n        /* \"contracts/sweetspot.sol\":622:643  IScorer public scorer */\n    tag_8:\n      callvalue\n      dup1\n      iszero\n      tag_53\n      jumpi\n      0x00\n      dup1\n      revert\n    tag_53:\n      pop\n      tag_54\n      tag_55\n      jump\t// in\n    tag_54:\n      mload(0x40)\n      tag_56\n      swap2\n      swap1\n      tag_57\n      jump\t// in\n    tag_56:\n      mload(0x40)\n      dup1\n      swap2\n      sub\n      swap1\n      return\n        /* \"contracts/sweetspot.sol\":883:908  Round public currentRound */\n    tag_9:\n      callvalue\n      dup1\n      iszero\n      tag_58\n      jumpi\n      0x00\n      dup1\n      revert\n    tag_58:\n      pop\n      tag_59\n      tag_60\n      jump\t// in\n    tag_59:\n      mload(0x40)\n      tag_61\n      swap4\n      swap3\n      swap2\n      swap1\n      tag_62\n      jump\t// in\n    tag_61:\n      mload(0x40)\n      dup1\n      swap2\n      sub\n      swap1\n      return\n        /* \"@openzeppelin/contracts-upgradeable/access/OwnableUpgradeable.sol\":2441:2585  function owner() public view virtual returns (address) {... */\n    tag_10:\n      callvalue\n      dup1\n      iszero\n      tag_63\n      jumpi\n      0x00\n      dup1\n      revert\n    tag_63:\n      pop\n      tag_64\n      tag_65\n      jump\t// in\n    tag_64:\n      mload(0x40)\n      tag_66\n      swap2\n      swap1\n      tag_40\n      jump\t// in\n    tag_66:\n      mload(0x40)\n      dup1\n      swap2\n      sub\n      swap1\n      return\n        /* \"contracts/sweetspot.sol\":5261:5539  function setRound(uint64  start, uint64  end, string memory metadataURI) external onlyAdmin {... */\n    tag_11:\n      callvalue\n      dup1\n      iszero\n      tag_67\n      jumpi\n      0x00\n      dup1\n      revert\n    tag_67:\n      pop\n      tag_68\n      0x04\n      dup1\n      calldatasize\n      sub\n      dup2\n      add\n      swap1\n      tag_69\n      swap2\n      swap1\n      tag_70\n      jump\t// in\n    tag_69:\n      tag_71\n      jump\t// in\n    tag_68:\n      stop\n        /* \"contracts/sweetspot.sol\":1097:1166  mapping(address => mapping(address => uint256)) public allowedAmounts */\n    tag_12:\n      callvalue\n      dup1\n      iszero\n      tag_72\n      jumpi\n      0x00\n      dup1\n      revert\n    tag_72:\n      pop\n      tag_73\n      0x04\n      dup1\n      calldatasize\n      sub\n      dup2\n      add\n      swap1\n      tag_74\n      swap2\n      swap1\n      tag_48\n      jump\t// in\n    tag_74:\n      tag_75\n      jump\t// in\n    tag_73:\n      mload(0x40)\n      tag_76\n      swap2\n      swap1\n      tag_26\n      jump\t// in\n    tag_76:\n      mload(0x40)\n      dup1\n      swap2\n      sub\n      swap1\n      return\n        /* \"contracts/sweetspot.sol\":999:1047  mapping(address => uint256) public totalBalances */\n    tag_13:\n      callvalue\n      dup1\n      iszero\n      tag_77\n      jumpi\n      0x00\n      dup1\n      revert\n    tag_77:\n      pop\n      tag_78\n      0x04\n      dup1\n      calldatasize\n      sub\n      dup2\n      add\n      swap1\n      tag_79\n      swap2\n      swap1\n      tag_34\n      jump\t// in\n    tag_79:\n      tag_80\n      jump\t// in\n    tag_78:\n      mload(0x40)\n      tag_81\n      swap2\n      swap1\n      tag_26\n      jump\t// in\n    tag_81:\n      mload(0x40)\n      dup1\n      swap2\n      sub\n      swap1\n      return\n        /* \"contracts/sweetspot.sol\":4135:4396  function setAllowedAmount(address user, address token, uint256 amount) external onlyAdmin {... */\n    tag_14:\n      callvalue\n      dup1\n      iszero\n      tag_82\n      jumpi\n      0x00\n      dup1\n      revert\n    tag_82:\n      pop\n      tag_83\n      0x04\n      dup1\n      calldatasize\n      sub\n      dup2\n      add\n      swap1\n      tag_84\n      swap2\n      swap1\n      tag_85\n      jump\t// in\n    tag_84:\n      tag_86\n      jump\t// in\n    tag_83:\n      stop\n        /* \"contracts/sweetspot.sol\":4495:5012  function bulkSetAllowedAmount(... */\n    tag_15:\n      callvalue\n      dup1\n      iszero\n      tag_87\n      jumpi\n      0x00\n      dup1\n      revert\n    tag_87:\n      pop\n      tag_88\n      0x04\n      dup1\n      calldatasize\n      sub\n      dup2\n      add\n      swap1\n      tag_89\n      swap2\n      swap1\n      tag_90\n      jump\t// in\n    tag_89:\n      tag_91\n      jump\t// in\n    tag_88:\n      stop\n        /* \"@openzeppelin/contracts-upgradeable/access/OwnableUpgradeable.sol\":3405:3620  function transferOwnership(address newOwner) public virtual onlyOwner {... */\n    tag_16:\n      callvalue\n      dup1\n      iszero\n      tag_92\n      jumpi\n      0x00\n      dup1\n      revert\n    tag_92:\n      pop\n      tag_93\n      0x04\n      dup1\n      calldatasize\n      sub\n      dup2\n      add\n      swap1\n      tag_94\n      swap2\n      swap1\n      tag_34\n      jump\t// in\n    tag_94:\n      tag_95\n      jump\t// in\n    tag_93:\n      stop\n        /* \"contracts/sweetspot.sol\":5744:6322  function withdraw(address token, uint256 amount) external onlyOwner nonReentrant  {... */\n    tag_17:\n      callvalue\n      dup1\n      iszero\n      tag_96\n      jumpi\n      0x00\n      dup1\n      revert\n    tag_96:\n      pop\n      tag_97\n      0x04\n      dup1\n      calldatasize\n      sub\n      dup2\n      add\n      swap1\n      tag_98\n      swap2\n      swap1\n      tag_43\n      jump\t// in\n    tag_98:\n      tag_99\n      jump\t// in\n    tag_97:\n      stop\n        /* \"contracts/sweetspot.sol\":2971:3903  function claim(address token) external nonReentrant {... */\n    tag_35:\n        /* \"@openzeppelin/contracts-upgradeable/security/ReentrancyGuardUpgradeable.sol\":2526:2547  _nonReentrantBefore() */\n      tag_101\n        /* \"@openzeppelin/contracts-upgradeable/security/ReentrancyGuardUpgradeable.sol\":2526:2545  _nonReentrantBefore */\n      tag_102\n        /* \"@openzeppelin/contracts-upgradeable/security/ReentrancyGuardUpgradeable.sol\":2526:2547  _nonReentrantBefore() */\n      jump\t// in\n    tag_101:\n        /* \"contracts/sweetspot.sol\":3066:3078  currentRound */\n      0x33\n        /* \"contracts/sweetspot.sol\":3066:3084  currentRound.start */\n      0x00\n      add\n      0x00\n      swap1\n      sload\n      swap1\n      0x0100\n      exp\n      swap1\n      div\n      0xffffffffffffffff\n      and\n        /* \"contracts/sweetspot.sol\":3048:3084  block.timestamp < currentRound.start */\n      0xffffffffffffffff\n      and\n        /* \"contracts/sweetspot.sol\":3048:3063  block.timestamp */\n      timestamp\n        /* \"contracts/sweetspot.sol\":3048:3084  block.timestamp < currentRound.start */\n      lt\n        /* \"contracts/sweetspot.sol\":3048:3122  block.timestamp < currentRound.start || block.timestamp > currentRound.end */\n      dup1\n      tag_104\n      jumpi\n      pop\n        /* \"contracts/sweetspot.sol\":3106:3118  currentRound */\n      0x33\n        /* \"contracts/sweetspot.sol\":3106:3122  currentRound.end */\n      0x00\n      add\n      0x08\n      swap1\n      sload\n      swap1\n      0x0100\n      exp\n      swap1\n      div\n      0xffffffffffffffff\n      and\n        /* \"contracts/sweetspot.sol\":3088:3122  block.timestamp > currentRound.end */\n      0xffffffffffffffff\n      and\n        /* \"contracts/sweetspot.sol\":3088:3103  block.timestamp */\n      timestamp\n        /* \"contracts/sweetspot.sol\":3088:3122  block.timestamp > currentRound.end */\n      gt\n        /* \"contracts/sweetspot.sol\":3048:3122  block.timestamp < currentRound.start || block.timestamp > currentRound.end */\n    tag_104:\n        /* \"contracts/sweetspot.sol\":3044:3227  if (block.timestamp < currentRound.start || block.timestamp > currentRound.end) {... */\n      iszero\n      tag_105\n      jumpi\n        /* \"contracts/sweetspot.sol\":3161:3176  block.timestamp */\n      timestamp\n        /* \"contracts/sweetspot.sol\":3178:3190  currentRound */\n      0x33\n        /* \"contracts/sweetspot.sol\":3178:3196  currentRound.start */\n      0x00\n      add\n      0x00\n      swap1\n      sload\n      swap1\n      0x0100\n      exp\n      swap1\n      div\n      0xffffffffffffffff\n      and\n        /* \"contracts/sweetspot.sol\":3198:3210  currentRound */\n      0x33\n        /* \"contracts/sweetspot.sol\":3198:3214  currentRound.end */\n      0x00\n      add\n      0x08\n      swap1\n      sload\n      swap1\n      0x0100\n      exp\n      swap1\n      div\n      0xffffffffffffffff\n      and\n        /* \"contracts/sweetspot.sol\":3146:3215  NotWithinRound(block.timestamp, currentRound.start, currentRound.end) */\n      mload(0x40)\n      0xfa7410d400000000000000000000000000000000000000000000000000000000\n      dup2\n      mstore\n      0x04\n      add\n      tag_106\n      swap4\n      swap3\n      swap2\n      swap1\n      tag_107\n      jump\t// in\n    tag_106:\n      mload(0x40)\n      dup1\n      swap2\n      sub\n      swap1\n      revert\n        /* \"contracts/sweetspot.sol\":3044:3227  if (block.timestamp < currentRound.start || block.timestamp > currentRound.end) {... */\n    tag_105:\n        /* \"contracts/sweetspot.sol\":3239:3264  uint256 userAllowedAmount */\n      0x00\n        /* \"contracts/sweetspot.sol\":3267:3281  allowedAmounts */\n      0x36\n        /* \"contracts/sweetspot.sol\":3267:3293  allowedAmounts[msg.sender] */\n      0x00\n        /* \"contracts/sweetspot.sol\":3282:3292  msg.sender */\n      caller\n        /* \"contracts/sweetspot.sol\":3267:3293  allowedAmounts[msg.sender] */\n      0xffffffffffffffffffffffffffffffffffffffff\n      and\n      0xffffffffffffffffffffffffffffffffffffffff\n      and\n      dup2\n      mstore\n      0x20\n      add\n      swap1\n      dup2\n      mstore\n      0x20\n      add\n      0x00\n      keccak256\n        /* \"contracts/sweetspot.sol\":3267:3300  allowedAmounts[msg.sender][token] */\n      0x00\n        /* \"contracts/sweetspot.sol\":3294:3299  token */\n      dup4\n        /* \"contracts/sweetspot.sol\":3267:3300  allowedAmounts[msg.sender][token] */\n      0xffffffffffffffffffffffffffffffffffffffff\n      and\n      0xffffffffffffffffffffffffffffffffffffffff\n      and\n      dup2\n      mstore\n      0x20\n      add\n      swap1\n      dup2\n      mstore\n      0x20\n      add\n      0x00\n      keccak256\n      sload\n        /* \"contracts/sweetspot.sol\":3239:3300  uint256 userAllowedAmount = allowedAmounts[msg.sender][token] */\n      swap1\n      pop\n        /* \"contracts/sweetspot.sol\":3339:3340  0 */\n      0x00\n        /* \"contracts/sweetspot.sol\":3319:3336  userAllowedAmount */\n      dup2\n        /* \"contracts/sweetspot.sol\":3319:3340  userAllowedAmount > 0 */\n      gt\n        /* \"contracts/sweetspot.sol\":3311:3364  require(userAllowedAmount > 0, \"No claimable amount\") */\n      tag_108\n      jumpi\n      mload(0x40)\n      0x08c379a000000000000000000000000000000000000000000000000000000000\n      dup2\n      mstore\n      0x04\n      add\n      tag_109\n      swap1\n      tag_110\n      jump\t// in\n    tag_109:\n      mload(0x40)\n      dup1\n      swap2\n      sub\n      swap1\n      revert\n    tag_108:\n        /* \"contracts/sweetspot.sol\":3407:3424  userAllowedAmount */\n      dup1\n        /* \"contracts/sweetspot.sol\":3383:3396  totalBalances */\n      0x35\n        /* \"contracts/sweetspot.sol\":3383:3403  totalBalances[token] */\n      0x00\n        /* \"contracts/sweetspot.sol\":3397:3402  token */\n      dup5\n        /* \"contracts/sweetspot.sol\":3383:3403  totalBalances[token] */\n      0xffffffffffffffffffffffffffffffffffffffff\n      and\n      0xffffffffffffffffffffffffffffffffffffffff\n      and\n      dup2\n      mstore\n      0x20\n      add\n      swap1\n      dup2\n      mstore\n      0x20\n      add\n      0x00\n      keccak256\n      sload\n        /* \"contracts/sweetspot.sol\":3383:3424  totalBalances[token] >= userAllowedAmount */\n      lt\n      iszero\n        /* \"contracts/sweetspot.sol\":3375:3454  require(totalBalances[token] >= userAllowedAmount, \"Insufficient funds in jar\") */\n      tag_111\n      jumpi\n      mload(0x40)\n      0x08c379a000000000000000000000000000000000000000000000000000000000\n      dup2\n      mstore\n      0x04\n      add\n      tag_112\n      swap1\n      tag_113\n      jump\t// in\n    tag_112:\n      mload(0x40)\n      dup1\n      swap2\n      sub\n      swap1\n      revert\n    tag_111:\n        /* \"contracts/sweetspot.sol\":3503:3504  0 */\n      0x00\n        /* \"contracts/sweetspot.sol\":3467:3481  allowedAmounts */\n      0x36\n        /* \"contracts/sweetspot.sol\":3467:3493  allowedAmounts[msg.sender] */\n      0x00\n        /* \"contracts/sweetspot.sol\":3482:3492  msg.sender */\n      caller\n        /* \"contracts/sweetspot.sol\":3467:3493  allowedAmounts[msg.sender] */\n      0xffffffffffffffffffffffffffffffffffffffff\n      and\n      0xffffffffffffffffffffffffffffffffffffffff\n      and\n      dup2\n      mstore\n      0x20\n      add\n      swap1\n      dup2\n      mstore\n      0x20\n      add\n      0x00\n      keccak256\n        /* \"contracts/sweetspot.sol\":3467:3500  allowedAmounts[msg.sender][token] */\n      0x00\n        /* \"contracts/sweetspot.sol\":3494:3499  token */\n      dup5\n        /* \"contracts/sweetspot.sol\":3467:3500  allowedAmounts[msg.sender][token] */\n      0xffffffffffffffffffffffffffffffffffffffff\n      and\n      0xffffffffffffffffffffffffffffffffffffffff\n      and\n      dup2\n      mstore\n      0x20\n      add\n      swap1\n      dup2\n      mstore\n      0x20\n      add\n      0x00\n      keccak256\n        /* \"contracts/sweetspot.sol\":3467:3504  allowedAmounts[msg.sender][token] = 0 */\n      dup2\n      swap1\n      sstore\n      pop\n        /* \"contracts/sweetspot.sol\":3539:3556  userAllowedAmount */\n      dup1\n        /* \"contracts/sweetspot.sol\":3515:3528  totalBalances */\n      0x35\n        /* \"contracts/sweetspot.sol\":3515:3535  totalBalances[token] */\n      0x00\n        /* \"contracts/sweetspot.sol\":3529:3534  token */\n      dup5\n        /* \"contracts/sweetspot.sol\":3515:3535  totalBalances[token] */\n      0xffffffffffffffffffffffffffffffffffffffff\n      and\n      0xffffffffffffffffffffffffffffffffffffffff\n      and\n      dup2\n      mstore\n      0x20\n      add\n      swap1\n      dup2\n      mstore\n      0x20\n      add\n      0x00\n      keccak256\n      0x00\n        /* \"contracts/sweetspot.sol\":3515:3556  totalBalances[token] -= userAllowedAmount */\n      dup3\n      dup3\n      sload\n      tag_114\n      swap2\n      swap1\n      tag_115\n      jump\t// in\n    tag_114:\n      swap3\n      pop\n      pop\n      dup2\n      swap1\n      sstore\n      pop\n        /* \"contracts/sweetspot.sol\":613:614  0 */\n      0x00\n        /* \"contracts/sweetspot.sol\":3573:3594  token == NATIVE_TOKEN */\n      0xffffffffffffffffffffffffffffffffffffffff\n      and\n        /* \"contracts/sweetspot.sol\":3573:3578  token */\n      dup3\n        /* \"contracts/sweetspot.sol\":3573:3594  token == NATIVE_TOKEN */\n      0xffffffffffffffffffffffffffffffffffffffff\n      and\n      sub\n        /* \"contracts/sweetspot.sol\":3569:3833  if (token == NATIVE_TOKEN) {... */\n      tag_116\n      jumpi\n        /* \"contracts/sweetspot.sol\":3612:3624  bool success */\n      0x00\n        /* \"contracts/sweetspot.sol\":3630:3640  msg.sender */\n      caller\n        /* \"contracts/sweetspot.sol\":3630:3645  msg.sender.call */\n      0xffffffffffffffffffffffffffffffffffffffff\n      and\n        /* \"contracts/sweetspot.sol\":3653:3670  userAllowedAmount */\n      dup3\n        /* \"contracts/sweetspot.sol\":3630:3675  msg.sender.call{value: userAllowedAmount}(\"\") */\n      mload(0x40)\n      tag_117\n      swap1\n      tag_118\n      jump\t// in\n    tag_117:\n      0x00\n      mload(0x40)\n      dup1\n      dup4\n      sub\n      dup2\n      dup6\n      dup8\n      gas\n      call\n      swap3\n      pop\n      pop\n      pop\n      returndatasize\n      dup1\n      0x00\n      dup2\n      eq\n      tag_121\n      jumpi\n      mload(0x40)\n      swap2\n      pop\n      and(add(returndatasize, 0x3f), not(0x1f))\n      dup3\n      add\n      0x40\n      mstore\n      returndatasize\n      dup3\n      mstore\n      returndatasize\n      0x00\n      0x20\n      dup5\n      add\n      returndatacopy\n      jump(tag_120)\n    tag_121:\n      0x60\n      swap2\n      pop\n    tag_120:\n      pop\n        /* \"contracts/sweetspot.sol\":3611:3675  (bool success, ) = msg.sender.call{value: userAllowedAmount}(\"\") */\n      pop\n      swap1\n      pop\n        /* \"contracts/sweetspot.sol\":3698:3705  success */\n      dup1\n        /* \"contracts/sweetspot.sol\":3690:3731  require(success, \"Ether transfer failed\") */\n      tag_122\n      jumpi\n      mload(0x40)\n      0x08c379a000000000000000000000000000000000000000000000000000000000\n      dup2\n      mstore\n      0x04\n      add\n      tag_123\n      swap1\n      tag_124\n      jump\t// in\n    tag_123:\n      mload(0x40)\n      dup1\n      swap2\n      sub\n      swap1\n      revert\n    tag_122:\n        /* \"contracts/sweetspot.sol\":3596:3743  {... */\n      pop\n        /* \"contracts/sweetspot.sol\":3569:3833  if (token == NATIVE_TOKEN) {... */\n      jump(tag_125)\n    tag_116:\n        /* \"contracts/sweetspot.sol\":3764:3821  IERC20(token).safeTransfer(msg.sender, userAllowedAmount) */\n      tag_126\n        /* \"contracts/sweetspot.sol\":3791:3801  msg.sender */\n      caller\n        /* \"contracts/sweetspot.sol\":3803:3820  userAllowedAmount */\n      dup3\n        /* \"contracts/sweetspot.sol\":3771:3776  token */\n      dup5\n        /* \"contracts/sweetspot.sol\":3764:3790  IERC20(token).safeTransfer */\n      0xffffffffffffffffffffffffffffffffffffffff\n      and\n      tag_127\n      swap1\n        /* \"contracts/sweetspot.sol\":3764:3821  IERC20(token).safeTransfer(msg.sender, userAllowedAmount) */\n      swap3\n      swap2\n      swap1\n      0xffffffff\n      and\n      jump\t// in\n    tag_126:\n        /* \"contracts/sweetspot.sol\":3569:3833  if (token == NATIVE_TOKEN) {... */\n    tag_125:\n        /* \"contracts/sweetspot.sol\":3870:3875  token */\n      dup2\n        /* \"contracts/sweetspot.sol\":3850:3895  Claimed(msg.sender, token, userAllowedAmount) */\n      0xffffffffffffffffffffffffffffffffffffffff\n      and\n        /* \"contracts/sweetspot.sol\":3858:3868  msg.sender */\n      caller\n        /* \"contracts/sweetspot.sol\":3850:3895  Claimed(msg.sender, token, userAllowedAmount) */\n      0xffffffffffffffffffffffffffffffffffffffff\n      and\n      0xf7a40077ff7a04c7e61f6f26fb13774259ddf1b6bce9ecf26a8276cdd3992683\n        /* \"contracts/sweetspot.sol\":3877:3894  userAllowedAmount */\n      dup4\n        /* \"contracts/sweetspot.sol\":3850:3895  Claimed(msg.sender, token, userAllowedAmount) */\n      mload(0x40)\n      tag_128\n      swap2\n      swap1\n      tag_26\n      jump\t// in\n    tag_128:\n      mload(0x40)\n      dup1\n      swap2\n      sub\n      swap1\n      log3\n        /* \"contracts/sweetspot.sol\":3023:3903  {... */\n      pop\n        /* \"@openzeppelin/contracts-upgradeable/security/ReentrancyGuardUpgradeable.sol\":2568:2588  _nonReentrantAfter() */\n      tag_129\n        /* \"@openzeppelin/contracts-upgradeable/security/ReentrancyGuardUpgradeable.sol\":2568:2586  _nonReentrantAfter */\n      tag_130\n        /* \"@openzeppelin/contracts-upgradeable/security/ReentrancyGuardUpgradeable.sol\":2568:2588  _nonReentrantAfter() */\n      jump\t// in\n    tag_129:\n        /* \"contracts/sweetspot.sol\":2971:3903  function claim(address token) external nonReentrant {... */\n      pop\n      jump\t// out\n        /* \"contracts/sweetspot.sol\":566:615  address public constant NATIVE_TOKEN = address(0) */\n    tag_38:\n        /* \"contracts/sweetspot.sol\":613:614  0 */\n      0x00\n        /* \"contracts/sweetspot.sol\":566:615  address public constant NATIVE_TOKEN = address(0) */\n      dup2\n      jump\t// out\n        /* \"contracts/sweetspot.sol\":2412:2886  function deposit(address token, uint256 amount) external payable nonReentrant  {... */\n    tag_44:\n        /* \"@openzeppelin/contracts-upgradeable/security/ReentrancyGuardUpgradeable.sol\":2526:2547  _nonReentrantBefore() */\n      tag_132\n        /* \"@openzeppelin/contracts-upgradeable/security/ReentrancyGuardUpgradeable.sol\":2526:2545  _nonReentrantBefore */\n      tag_102\n        /* \"@openzeppelin/contracts-upgradeable/security/ReentrancyGuardUpgradeable.sol\":2526:2547  _nonReentrantBefore() */\n      jump\t// in\n    tag_132:\n        /* \"contracts/sweetspot.sol\":613:614  0 */\n      0x00\n        /* \"contracts/sweetspot.sol\":2506:2527  token == NATIVE_TOKEN */\n      0xffffffffffffffffffffffffffffffffffffffff\n      and\n        /* \"contracts/sweetspot.sol\":2506:2511  token */\n      dup3\n        /* \"contracts/sweetspot.sol\":2506:2527  token == NATIVE_TOKEN */\n      0xffffffffffffffffffffffffffffffffffffffff\n      and\n      sub\n        /* \"contracts/sweetspot.sol\":2502:2786  if (token == NATIVE_TOKEN) {... */\n      tag_134\n      jumpi\n        /* \"contracts/sweetspot.sol\":2565:2571  amount */\n      dup1\n        /* \"contracts/sweetspot.sol\":2552:2561  msg.value */\n      callvalue\n        /* \"contracts/sweetspot.sol\":2552:2571  msg.value == amount */\n      eq\n        /* \"contracts/sweetspot.sol\":2544:2598  require(msg.value == amount, \"Incorrect Ether amount\") */\n      tag_135\n      jumpi\n      mload(0x40)\n      0x08c379a000000000000000000000000000000000000000000000000000000000\n      dup2\n      mstore\n      0x04\n      add\n      tag_136\n      swap1\n      tag_137\n      jump\t// in\n    tag_136:\n      mload(0x40)\n      dup1\n      swap2\n      sub\n      swap1\n      revert\n    tag_135:\n        /* \"contracts/sweetspot.sol\":2502:2786  if (token == NATIVE_TOKEN) {... */\n      jump(tag_138)\n    tag_134:\n        /* \"contracts/sweetspot.sol\":2648:2649  0 */\n      0x00\n        /* \"contracts/sweetspot.sol\":2639:2645  amount */\n      dup2\n        /* \"contracts/sweetspot.sol\":2639:2649  amount > 0 */\n      gt\n        /* \"contracts/sweetspot.sol\":2631:2694  require(amount > 0, \"Deposit amount must be greater than zero\") */\n      tag_139\n      jumpi\n      mload(0x40)\n      0x08c379a000000000000000000000000000000000000000000000000000000000\n      dup2\n      mstore\n      0x04\n      add\n      tag_140\n      swap1\n      tag_141\n      jump\t// in\n    tag_140:\n      mload(0x40)\n      dup1\n      swap2\n      sub\n      swap1\n      revert\n    tag_139:\n        /* \"contracts/sweetspot.sol\":2709:2774  IERC20(token).safeTransferFrom(msg.sender, address(this), amount) */\n      tag_142\n        /* \"contracts/sweetspot.sol\":2740:2750  msg.sender */\n      caller\n        /* \"contracts/sweetspot.sol\":2760:2764  this */\n      address\n        /* \"contracts/sweetspot.sol\":2767:2773  amount */\n      dup4\n        /* \"contracts/sweetspot.sol\":2716:2721  token */\n      dup6\n        /* \"contracts/sweetspot.sol\":2709:2739  IERC20(token).safeTransferFrom */\n      0xffffffffffffffffffffffffffffffffffffffff\n      and\n      tag_143\n      swap1\n        /* \"contracts/sweetspot.sol\":2709:2774  IERC20(token).safeTransferFrom(msg.sender, address(this), amount) */\n      swap4\n      swap3\n      swap2\n      swap1\n      0xffffffff\n      and\n      jump\t// in\n    tag_142:\n        /* \"contracts/sweetspot.sol\":2502:2786  if (token == NATIVE_TOKEN) {... */\n    tag_138:\n        /* \"contracts/sweetspot.sol\":2822:2828  amount */\n      dup1\n        /* \"contracts/sweetspot.sol\":2798:2811  totalBalances */\n      0x35\n        /* \"contracts/sweetspot.sol\":2798:2818  totalBalances[token] */\n      0x00\n        /* \"contracts/sweetspot.sol\":2812:2817  token */\n      dup5\n        /* \"contracts/sweetspot.sol\":2798:2818  totalBalances[token] */\n      0xffffffffffffffffffffffffffffffffffffffff\n      and\n      0xffffffffffffffffffffffffffffffffffffffff\n      and\n      dup2\n      mstore\n      0x20\n      add\n      swap1\n      dup2\n      mstore\n      0x20\n      add\n      0x00\n      keccak256\n      0x00\n        /* \"contracts/sweetspot.sol\":2798:2828  totalBalances[token] += amount */\n      dup3\n      dup3\n      sload\n      tag_144\n      swap2\n      swap1\n      tag_24\n      jump\t// in\n    tag_144:\n      swap3\n      pop\n      pop\n      dup2\n      swap1\n      sstore\n      pop\n        /* \"contracts/sweetspot.sol\":2864:2869  token */\n      dup2\n        /* \"contracts/sweetspot.sol\":2844:2878  Deposit(msg.sender, token, amount) */\n      0xffffffffffffffffffffffffffffffffffffffff\n      and\n        /* \"contracts/sweetspot.sol\":2852:2862  msg.sender */\n      caller\n        /* \"contracts/sweetspot.sol\":2844:2878  Deposit(msg.sender, token, amount) */\n      0xffffffffffffffffffffffffffffffffffffffff\n      and\n      0x5548c837ab068cf56a2c2479df0882a4922fd203edb7517321831d95078c5f62\n        /* \"contracts/sweetspot.sol\":2871:2877  amount */\n      dup4\n        /* \"contracts/sweetspot.sol\":2844:2878  Deposit(msg.sender, token, amount) */\n      mload(0x40)\n      tag_145\n      swap2\n      swap1\n      tag_26\n      jump\t// in\n    tag_145:\n      mload(0x40)\n      dup1\n      swap2\n      sub\n      swap1\n      log3\n        /* \"@openzeppelin/contracts-upgradeable/security/ReentrancyGuardUpgradeable.sol\":2568:2588  _nonReentrantAfter() */\n      tag_146\n        /* \"@openzeppelin/contracts-upgradeable/security/ReentrancyGuardUpgradeable.sol\":2568:2586  _nonReentrantAfter */\n      tag_130\n        /* \"@openzeppelin/contracts-upgradeable/security/ReentrancyGuardUpgradeable.sol\":2568:2588  _nonReentrantAfter() */\n      jump\t// in\n    tag_146:\n        /* \"contracts/sweetspot.sol\":2412:2886  function deposit(address token, uint256 amount) external payable nonReentrant  {... */\n      pop\n      pop\n      jump\t// out\n        /* \"contracts/sweetspot.sol\":1977:2194  function initialize(address _scorer, address owner) external initializer {... */\n    tag_49:\n        /* \"@openzeppelin/contracts-upgradeable/proxy/utils/Initializable.sol\":4158:4188  InitializableStorage storage $ */\n      0x00\n        /* \"@openzeppelin/contracts-upgradeable/proxy/utils/Initializable.sol\":4191:4217  _getInitializableStorage() */\n      tag_148\n        /* \"@openzeppelin/contracts-upgradeable/proxy/utils/Initializable.sol\":4191:4215  _getInitializableStorage */\n      tag_149\n        /* \"@openzeppelin/contracts-upgradeable/proxy/utils/Initializable.sol\":4191:4217  _getInitializableStorage() */\n      jump\t// in\n    tag_148:\n        /* \"@openzeppelin/contracts-upgradeable/proxy/utils/Initializable.sol\":4158:4217  InitializableStorage storage $ = _getInitializableStorage() */\n      swap1\n      pop\n        /* \"@openzeppelin/contracts-upgradeable/proxy/utils/Initializable.sol\":4279:4298  bool isTopLevelCall */\n      0x00\n        /* \"@openzeppelin/contracts-upgradeable/proxy/utils/Initializable.sol\":4302:4303  $ */\n      dup2\n        /* \"@openzeppelin/contracts-upgradeable/proxy/utils/Initializable.sol\":4302:4317  $._initializing */\n      0x00\n      add\n      0x08\n      swap1\n      sload\n      swap1\n      0x0100\n      exp\n      swap1\n      div\n      0xff\n      and\n        /* \"@openzeppelin/contracts-upgradeable/proxy/utils/Initializable.sol\":4301:4317  !$._initializing */\n      iszero\n        /* \"@openzeppelin/contracts-upgradeable/proxy/utils/Initializable.sol\":4279:4317  bool isTopLevelCall = !$._initializing */\n      swap1\n      pop\n        /* \"@openzeppelin/contracts-upgradeable/proxy/utils/Initializable.sol\":4327:4345  uint64 initialized */\n      0x00\n        /* \"@openzeppelin/contracts-upgradeable/proxy/utils/Initializable.sol\":4348:4349  $ */\n      dup3\n        /* \"@openzeppelin/contracts-upgradeable/proxy/utils/Initializable.sol\":4348:4362  $._initialized */\n      0x00\n      add\n      0x00\n      swap1\n      sload\n      swap1\n      0x0100\n      exp\n      swap1\n      div\n      0xffffffffffffffff\n      and\n        /* \"@openzeppelin/contracts-upgradeable/proxy/utils/Initializable.sol\":4327:4362  uint64 initialized = $._initialized */\n      swap1\n      pop\n        /* \"@openzeppelin/contracts-upgradeable/proxy/utils/Initializable.sol\":4706:4723  bool initialSetup */\n      0x00\n        /* \"@openzeppelin/contracts-upgradeable/proxy/utils/Initializable.sol\":4741:4742  0 */\n      dup1\n        /* \"@openzeppelin/contracts-upgradeable/proxy/utils/Initializable.sol\":4726:4737  initialized */\n      dup3\n        /* \"@openzeppelin/contracts-upgradeable/proxy/utils/Initializable.sol\":4726:4742  initialized == 0 */\n      0xffffffffffffffff\n      and\n      eq\n        /* \"@openzeppelin/contracts-upgradeable/proxy/utils/Initializable.sol\":4726:4760  initialized == 0 && isTopLevelCall */\n      dup1\n      iszero\n      tag_150\n      jumpi\n      pop\n        /* \"@openzeppelin/contracts-upgradeable/proxy/utils/Initializable.sol\":4746:4760  isTopLevelCall */\n      dup3\n        /* \"@openzeppelin/contracts-upgradeable/proxy/utils/Initializable.sol\":4726:4760  initialized == 0 && isTopLevelCall */\n    tag_150:\n        /* \"@openzeppelin/contracts-upgradeable/proxy/utils/Initializable.sol\":4706:4760  bool initialSetup = initialized == 0 && isTopLevelCall */\n      swap1\n      pop\n        /* \"@openzeppelin/contracts-upgradeable/proxy/utils/Initializable.sol\":4770:4787  bool construction */\n      0x00\n        /* \"@openzeppelin/contracts-upgradeable/proxy/utils/Initializable.sol\":4805:4806  1 */\n      0x01\n        /* \"@openzeppelin/contracts-upgradeable/proxy/utils/Initializable.sol\":4790:4801  initialized */\n      dup4\n        /* \"@openzeppelin/contracts-upgradeable/proxy/utils/Initializable.sol\":4790:4806  initialized == 1 */\n      0xffffffffffffffff\n      and\n      eq\n        /* \"@openzeppelin/contracts-upgradeable/proxy/utils/Initializable.sol\":4790:4840  initialized == 1 && address(this).code.length == 0 */\n      dup1\n      iszero\n      tag_151\n      jumpi\n      pop\n        /* \"@openzeppelin/contracts-upgradeable/proxy/utils/Initializable.sol\":4839:4840  0 */\n      0x00\n        /* \"@openzeppelin/contracts-upgradeable/proxy/utils/Initializable.sol\":4818:4822  this */\n      address\n        /* \"@openzeppelin/contracts-upgradeable/proxy/utils/Initializable.sol\":4810:4835  address(this).code.length */\n      0xffffffffffffffffffffffffffffffffffffffff\n      and\n      extcodesize\n        /* \"@openzeppelin/contracts-upgradeable/proxy/utils/Initializable.sol\":4810:4840  address(this).code.length == 0 */\n      eq\n        /* \"@openzeppelin/contracts-upgradeable/proxy/utils/Initializable.sol\":4790:4840  initialized == 1 && address(this).code.length == 0 */\n    tag_151:\n        /* \"@openzeppelin/contracts-upgradeable/proxy/utils/Initializable.sol\":4770:4840  bool construction = initialized == 1 && address(this).code.length == 0 */\n      swap1\n      pop\n        /* \"@openzeppelin/contracts-upgradeable/proxy/utils/Initializable.sol\":4856:4868  initialSetup */\n      dup2\n        /* \"@openzeppelin/contracts-upgradeable/proxy/utils/Initializable.sol\":4855:4868  !initialSetup */\n      iszero\n        /* \"@openzeppelin/contracts-upgradeable/proxy/utils/Initializable.sol\":4855:4885  !initialSetup && !construction */\n      dup1\n      iszero\n      tag_152\n      jumpi\n      pop\n        /* \"@openzeppelin/contracts-upgradeable/proxy/utils/Initializable.sol\":4873:4885  construction */\n      dup1\n        /* \"@openzeppelin/contracts-upgradeable/proxy/utils/Initializable.sol\":4872:4885  !construction */\n      iszero\n        /* \"@openzeppelin/contracts-upgradeable/proxy/utils/Initializable.sol\":4855:4885  !initialSetup && !construction */\n    tag_152:\n        /* \"@openzeppelin/contracts-upgradeable/proxy/utils/Initializable.sol\":4851:4942  if (!initialSetup && !construction) {... */\n      iszero\n      tag_153\n      jumpi\n        /* \"@openzeppelin/contracts-upgradeable/proxy/utils/Initializable.sol\":4908:4931  InvalidInitialization() */\n      mload(0x40)\n      0xf92ee8a900000000000000000000000000000000000000000000000000000000\n      dup2\n      mstore\n      0x04\n      add\n      mload(0x40)\n      dup1\n      swap2\n      sub\n      swap1\n      revert\n        /* \"@openzeppelin/contracts-upgradeable/proxy/utils/Initializable.sol\":4851:4942  if (!initialSetup && !construction) {... */\n    tag_153:\n        /* \"@openzeppelin/contracts-upgradeable/proxy/utils/Initializable.sol\":4968:4969  1 */\n      0x01\n        /* \"@openzeppelin/contracts-upgradeable/proxy/utils/Initializable.sol\":4951:4952  $ */\n      dup6\n        /* \"@openzeppelin/contracts-upgradeable/proxy/utils/Initializable.sol\":4951:4965  $._initialized */\n      0x00\n      add\n      0x00\n        /* \"@openzeppelin/contracts-upgradeable/proxy/utils/Initializable.sol\":4951:4969  $._initialized = 1 */\n      0x0100\n      exp\n      dup2\n      sload\n      dup2\n      0xffffffffffffffff\n      mul\n      not\n      and\n      swap1\n      dup4\n      0xffffffffffffffff\n      and\n      mul\n      or\n      swap1\n      sstore\n      pop\n        /* \"@openzeppelin/contracts-upgradeable/proxy/utils/Initializable.sol\":4983:4997  isTopLevelCall */\n      dup4\n        /* \"@openzeppelin/contracts-upgradeable/proxy/utils/Initializable.sol\":4979:5046  if (isTopLevelCall) {... */\n      iszero\n      tag_154\n      jumpi\n        /* \"@openzeppelin/contracts-upgradeable/proxy/utils/Initializable.sol\":5031:5035  true */\n      0x01\n        /* \"@openzeppelin/contracts-upgradeable/proxy/utils/Initializable.sol\":5013:5014  $ */\n      dup6\n        /* \"@openzeppelin/contracts-upgradeable/proxy/utils/Initializable.sol\":5013:5028  $._initializing */\n      0x00\n      add\n      0x08\n        /* \"@openzeppelin/contracts-upgradeable/proxy/utils/Initializable.sol\":5013:5035  $._initializing = true */\n      0x0100\n      exp\n      dup2\n      sload\n      dup2\n      0xff\n      mul\n      not\n      and\n      swap1\n      dup4\n      iszero\n      iszero\n      mul\n      or\n      swap1\n      sstore\n      pop\n        /* \"@openzeppelin/contracts-upgradeable/proxy/utils/Initializable.sol\":4979:5046  if (isTopLevelCall) {... */\n    tag_154:\n        /* \"contracts/sweetspot.sol\":2061:2082  __Ownable_init(owner) */\n      tag_156\n        /* \"contracts/sweetspot.sol\":2076:2081  owner */\n      dup7\n        /* \"contracts/sweetspot.sol\":2061:2075  __Ownable_init */\n      tag_157\n        /* \"contracts/sweetspot.sol\":2061:2082  __Ownable_init(owner) */\n      jump\t// in\n    tag_156:\n        /* \"contracts/sweetspot.sol\":2126:2150  __ReentrancyGuard_init() */\n      tag_158\n        /* \"contracts/sweetspot.sol\":2126:2148  __ReentrancyGuard_init */\n      tag_159\n        /* \"contracts/sweetspot.sol\":2126:2150  __ReentrancyGuard_init() */\n      jump\t// in\n    tag_158:\n        /* \"contracts/sweetspot.sol\":2178:2185  _scorer */\n      dup7\n        /* \"contracts/sweetspot.sol\":2161:2167  scorer */\n      0x32\n      0x00\n        /* \"contracts/sweetspot.sol\":2161:2186  scorer = IScorer(_scorer) */\n      0x0100\n      exp\n      dup2\n      sload\n      dup2\n      0xffffffffffffffffffffffffffffffffffffffff\n      mul\n      not\n      and\n      swap1\n      dup4\n      0xffffffffffffffffffffffffffffffffffffffff\n      and\n      mul\n      or\n      swap1\n      sstore\n      pop\n        /* \"@openzeppelin/contracts-upgradeable/proxy/utils/Initializable.sol\":5070:5084  isTopLevelCall */\n      dup4\n        /* \"@openzeppelin/contracts-upgradeable/proxy/utils/Initializable.sol\":5066:5167  if (isTopLevelCall) {... */\n      iszero\n      tag_160\n      jumpi\n        /* \"@openzeppelin/contracts-upgradeable/proxy/utils/Initializable.sol\":5118:5123  false */\n      0x00\n        /* \"@openzeppelin/contracts-upgradeable/proxy/utils/Initializable.sol\":5100:5101  $ */\n      dup6\n        /* \"@openzeppelin/contracts-upgradeable/proxy/utils/Initializable.sol\":5100:5115  $._initializing */\n      0x00\n      add\n      0x08\n        /* \"@openzeppelin/contracts-upgradeable/proxy/utils/Initializable.sol\":5100:5123  $._initializing = false */\n      0x0100\n      exp\n      dup2\n      sload\n      dup2\n      0xff\n      mul\n      not\n      and\n      swap1\n      dup4\n      iszero\n      iszero\n      mul\n      or\n      swap1\n      sstore\n      pop\n        /* \"@openzeppelin/contracts-upgradeable/proxy/utils/Initializable.sol\":5142:5156  Initialized(1) */\n      0xc7f505b2f371ae2175ee4913f4499e1f2633a7b5936321eed1cdaeb6115181d2\n        /* \"@openzeppelin/contracts-upgradeable/proxy/utils/Initializable.sol\":5154:5155  1 */\n      0x01\n        /* \"@openzeppelin/contracts-upgradeable/proxy/utils/Initializable.sol\":5142:5156  Initialized(1) */\n      mload(0x40)\n      tag_161\n      swap2\n      swap1\n      tag_162\n      jump\t// in\n    tag_161:\n      mload(0x40)\n      dup1\n      swap2\n      sub\n      swap1\n      log1\n        /* \"@openzeppelin/contracts-upgradeable/proxy/utils/Initializable.sol\":5066:5167  if (isTopLevelCall) {... */\n    tag_160:\n        /* \"@openzeppelin/contracts-upgradeable/proxy/utils/Initializable.sol\":4092:5173  {... */\n      pop\n      pop\n      pop\n      pop\n      pop\n        /* \"contracts/sweetspot.sol\":1977:2194  function initialize(address _scorer, address owner) external initializer {... */\n      pop\n      pop\n      jump\t// out\n        /* \"@openzeppelin/contracts-upgradeable/access/OwnableUpgradeable.sol\":3155:3256  function renounceOwnership() public virtual onlyOwner {... */\n    tag_52:\n        /* \"@openzeppelin/contracts-upgradeable/access/OwnableUpgradeable.sol\":2334:2347  _checkOwner() */\n      tag_164\n        /* \"@openzeppelin/contracts-upgradeable/access/OwnableUpgradeable.sol\":2334:2345  _checkOwner */\n      tag_165\n        /* \"@openzeppelin/contracts-upgradeable/access/OwnableUpgradeable.sol\":2334:2347  _checkOwner() */\n      jump\t// in\n    tag_164:\n        /* \"@openzeppelin/contracts-upgradeable/access/OwnableUpgradeable.sol\":3219:3249  _transferOwnership(address(0)) */\n      tag_167\n        /* \"@openzeppelin/contracts-upgradeable/access/OwnableUpgradeable.sol\":3246:3247  0 */\n      0x00\n        /* \"@openzeppelin/contracts-upgradeable/access/OwnableUpgradeable.sol\":3219:3237  _transferOwnership */\n      tag_168\n        /* \"@openzeppelin/contracts-upgradeable/access/OwnableUpgradeable.sol\":3219:3249  _transferOwnership(address(0)) */\n      jump\t// in\n    tag_167:\n        /* \"@openzeppelin/contracts-upgradeable/access/OwnableUpgradeable.sol\":3155:3256  function renounceOwnership() public virtual onlyOwner {... */\n      jump\t// out\n        /* \"contracts/sweetspot.sol\":622:643  IScorer public scorer */\n    tag_55:\n      0x32\n      0x00\n      swap1\n      sload\n      swap1\n      0x0100\n      exp\n      swap1\n      div\n      0xffffffffffffffffffffffffffffffffffffffff\n      and\n      dup2\n      jump\t// out\n        /* \"contracts/sweetspot.sol\":883:908  Round public currentRound */\n    tag_60:\n      0x33\n      dup1\n      0x00\n      add\n      0x00\n      swap1\n      sload\n      swap1\n      0x0100\n      exp\n      swap1\n      div\n      0xffffffffffffffff\n      and\n      swap1\n      dup1\n      0x00\n      add\n      0x08\n      swap1\n      sload\n      swap1\n      0x0100\n      exp\n      swap1\n      div\n      0xffffffffffffffff\n      and\n      swap1\n      dup1\n      0x01\n      add\n      dup1\n      sload\n      tag_169\n      swap1\n      tag_170\n      jump\t// in\n    tag_169:\n      dup1\n      0x1f\n      add\n      0x20\n      dup1\n      swap2\n      div\n      mul\n      0x20\n      add\n      mload(0x40)\n      swap1\n      dup2\n      add\n      0x40\n      mstore\n      dup1\n      swap3\n      swap2\n      swap1\n      dup2\n      dup2\n      mstore\n      0x20\n      add\n      dup3\n      dup1\n      sload\n      tag_171\n      swap1\n      tag_170\n      jump\t// in\n    tag_171:\n      dup1\n      iszero\n      tag_172\n      jumpi\n      dup1\n      0x1f\n      lt\n      tag_173\n      jumpi\n      0x0100\n      dup1\n      dup4\n      sload\n      div\n      mul\n      dup4\n      mstore\n      swap2\n      0x20\n      add\n      swap2\n      jump(tag_172)\n    tag_173:\n      dup3\n      add\n      swap2\n      swap1\n      0x00\n      mstore\n      keccak256(0x00, 0x20)\n      swap1\n    tag_174:\n      dup2\n      sload\n      dup2\n      mstore\n      swap1\n      0x01\n      add\n      swap1\n      0x20\n      add\n      dup1\n      dup4\n      gt\n      tag_174\n      jumpi\n      dup3\n      swap1\n      sub\n      0x1f\n      and\n      dup3\n      add\n      swap2\n    tag_172:\n      pop\n      pop\n      pop\n      pop\n      pop\n      swap1\n      pop\n      dup4\n      jump\t// out\n        /* \"@openzeppelin/contracts-upgradeable/access/OwnableUpgradeable.sol\":2441:2585  function owner() public view virtual returns (address) {... */\n    tag_65:\n        /* \"@openzeppelin/contracts-upgradeable/access/OwnableUpgradeable.sol\":2487:2494  address */\n      0x00\n        /* \"@openzeppelin/contracts-upgradeable/access/OwnableUpgradeable.sol\":2506:2530  OwnableStorage storage $ */\n      dup1\n        /* \"@openzeppelin/contracts-upgradeable/access/OwnableUpgradeable.sol\":2533:2553  _getOwnableStorage() */\n      tag_176\n        /* \"@openzeppelin/contracts-upgradeable/access/OwnableUpgradeable.sol\":2533:2551  _getOwnableStorage */\n      tag_177\n        /* \"@openzeppelin/contracts-upgradeable/access/OwnableUpgradeable.sol\":2533:2553  _getOwnableStorage() */\n      jump\t// in\n    tag_176:\n        /* \"@openzeppelin/contracts-upgradeable/access/OwnableUpgradeable.sol\":2506:2553  OwnableStorage storage $ = _getOwnableStorage() */\n      swap1\n      pop\n        /* \"@openzeppelin/contracts-upgradeable/access/OwnableUpgradeable.sol\":2570:2571  $ */\n      dup1\n        /* \"@openzeppelin/contracts-upgradeable/access/OwnableUpgradeable.sol\":2570:2578  $._owner */\n      0x00\n      add\n      0x00\n      swap1\n      sload\n      swap1\n      0x0100\n      exp\n      swap1\n      div\n      0xffffffffffffffffffffffffffffffffffffffff\n      and\n        /* \"@openzeppelin/contracts-upgradeable/access/OwnableUpgradeable.sol\":2563:2578  return $._owner */\n      swap2\n      pop\n      pop\n        /* \"@openzeppelin/contracts-upgradeable/access/OwnableUpgradeable.sol\":2441:2585  function owner() public view virtual returns (address) {... */\n      swap1\n      jump\t// out\n        /* \"contracts/sweetspot.sol\":5261:5539  function setRound(uint64  start, uint64  end, string memory metadataURI) external onlyAdmin {... */\n    tag_71:\n        /* \"contracts/sweetspot.sol\":1725:1731  scorer */\n      0x32\n      0x00\n      swap1\n      sload\n      swap1\n      0x0100\n      exp\n      swap1\n      div\n      0xffffffffffffffffffffffffffffffffffffffff\n      and\n        /* \"contracts/sweetspot.sol\":1725:1739  scorer.isAdmin */\n      0xffffffffffffffffffffffffffffffffffffffff\n      and\n      0x24d7806c\n        /* \"contracts/sweetspot.sol\":1740:1750  msg.sender */\n      caller\n        /* \"contracts/sweetspot.sol\":1725:1751  scorer.isAdmin(msg.sender) */\n      mload(0x40)\n      dup3\n      0xffffffff\n      and\n      0xe0\n      shl\n      dup2\n      mstore\n      0x04\n      add\n      tag_179\n      swap2\n      swap1\n      tag_40\n      jump\t// in\n    tag_179:\n      0x20\n      mload(0x40)\n      dup1\n      dup4\n      sub\n      dup2\n      dup7\n      gas\n      staticcall\n      iszero\n      dup1\n      iszero\n      tag_181\n      jumpi\n      returndatasize\n      0x00\n      dup1\n      returndatacopy\n      revert(0x00, returndatasize)\n    tag_181:\n      pop\n      pop\n      pop\n      pop\n      mload(0x40)\n      returndatasize\n      not(0x1f)\n      0x1f\n      dup3\n      add\n      and\n      dup3\n      add\n      dup1\n      0x40\n      mstore\n      pop\n      dup2\n      add\n      swap1\n      tag_182\n      swap2\n      swap1\n      tag_183\n      jump\t// in\n    tag_182:\n        /* \"contracts/sweetspot.sol\":1717:1778  require(scorer.isAdmin(msg.sender), \"Caller is not an admin\") */\n      tag_184\n      jumpi\n      mload(0x40)\n      0x08c379a000000000000000000000000000000000000000000000000000000000\n      dup2\n      mstore\n      0x04\n      add\n      tag_185\n      swap1\n      tag_186\n      jump\t// in\n    tag_185:\n      mload(0x40)\n      dup1\n      swap2\n      sub\n      swap1\n      revert\n    tag_184:\n        /* \"contracts/sweetspot.sol\":5380:5383  end */\n      dup2\n        /* \"contracts/sweetspot.sol\":5372:5383  start < end */\n      0xffffffffffffffff\n      and\n        /* \"contracts/sweetspot.sol\":5372:5377  start */\n      dup4\n        /* \"contracts/sweetspot.sol\":5372:5383  start < end */\n      0xffffffffffffffff\n      and\n      lt\n        /* \"contracts/sweetspot.sol\":5364:5422  require(start < end, \"Start time must be before end time\") */\n      tag_188\n      jumpi\n      mload(0x40)\n      0x08c379a000000000000000000000000000000000000000000000000000000000\n      dup2\n      mstore\n      0x04\n      add\n      tag_189\n      swap1\n      tag_190\n      jump\t// in\n    tag_189:\n      mload(0x40)\n      dup1\n      swap2\n      sub\n      swap1\n      revert\n    tag_188:\n        /* \"contracts/sweetspot.sol\":5448:5478  Round(start, end, metadataURI) */\n      mload(0x40)\n      dup1\n      0x60\n      add\n      0x40\n      mstore\n      dup1\n        /* \"contracts/sweetspot.sol\":5454:5459  start */\n      dup5\n        /* \"contracts/sweetspot.sol\":5448:5478  Round(start, end, metadataURI) */\n      0xffffffffffffffff\n      and\n      dup2\n      mstore\n      0x20\n      add\n        /* \"contracts/sweetspot.sol\":5461:5464  end */\n      dup4\n        /* \"contracts/sweetspot.sol\":5448:5478  Round(start, end, metadataURI) */\n      0xffffffffffffffff\n      and\n      dup2\n      mstore\n      0x20\n      add\n        /* \"contracts/sweetspot.sol\":5466:5477  metadataURI */\n      dup3\n        /* \"contracts/sweetspot.sol\":5448:5478  Round(start, end, metadataURI) */\n      dup2\n      mstore\n      pop\n        /* \"contracts/sweetspot.sol\":5433:5445  currentRound */\n      0x33\n        /* \"contracts/sweetspot.sol\":5433:5478  currentRound = Round(start, end, metadataURI) */\n      0x00\n      dup3\n      add\n      mload\n      dup2\n      0x00\n      add\n      exp(0x0100, 0x00)\n      dup2\n      sload\n      dup2\n      0xffffffffffffffff\n      mul\n      not\n      and\n      swap1\n      dup4\n      0xffffffffffffffff\n      and\n      mul\n      or\n      swap1\n      sstore\n      pop\n      0x20\n      dup3\n      add\n      mload\n      dup2\n      0x00\n      add\n      exp(0x0100, 0x08)\n      dup2\n      sload\n      dup2\n      0xffffffffffffffff\n      mul\n      not\n      and\n      swap1\n      dup4\n      0xffffffffffffffff\n      and\n      mul\n      or\n      swap1\n      sstore\n      pop\n      0x40\n      dup3\n      add\n      mload\n      dup2\n      0x01\n      add\n      swap1\n      dup2\n      tag_191\n      swap2\n      swap1\n      tag_192\n      jump\t// in\n    tag_191:\n      pop\n      swap1\n      pop\n      pop\n        /* \"contracts/sweetspot.sol\":5494:5531  RoundUpdated(start, end, metadataURI) */\n      0x09e6db48f22357e6dce2bbff89db8ff25f0012a08186d6ea72e2343fdc112e13\n        /* \"contracts/sweetspot.sol\":5507:5512  start */\n      dup4\n        /* \"contracts/sweetspot.sol\":5514:5517  end */\n      dup4\n        /* \"contracts/sweetspot.sol\":5519:5530  metadataURI */\n      dup4\n        /* \"contracts/sweetspot.sol\":5494:5531  RoundUpdated(start, end, metadataURI) */\n      mload(0x40)\n      tag_193\n      swap4\n      swap3\n      swap2\n      swap1\n      tag_194\n      jump\t// in\n    tag_193:\n      mload(0x40)\n      dup1\n      swap2\n      sub\n      swap1\n      log1\n        /* \"contracts/sweetspot.sol\":5261:5539  function setRound(uint64  start, uint64  end, string memory metadataURI) external onlyAdmin {... */\n      pop\n      pop\n      pop\n      jump\t// out\n        /* \"contracts/sweetspot.sol\":1097:1166  mapping(address => mapping(address => uint256)) public allowedAmounts */\n    tag_75:\n      mstore(0x20, 0x36)\n      dup2\n      0x00\n      mstore\n      mstore(0x20, keccak256(0x00, 0x40))\n      dup1\n      0x00\n      mstore\n      keccak256(0x00, 0x40)\n      0x00\n      swap2\n      pop\n      swap2\n      pop\n      pop\n      sload\n      dup2\n      jump\t// out\n        /* \"contracts/sweetspot.sol\":999:1047  mapping(address => uint256) public totalBalances */\n    tag_80:\n      mstore(0x20, 0x35)\n      dup1\n      0x00\n      mstore\n      keccak256(0x00, 0x40)\n      0x00\n      swap2\n      pop\n      swap1\n      pop\n      sload\n      dup2\n      jump\t// out\n        /* \"contracts/sweetspot.sol\":4135:4396  function setAllowedAmount(address user, address token, uint256 amount) external onlyAdmin {... */\n    tag_86:\n        /* \"contracts/sweetspot.sol\":1725:1731  scorer */\n      0x32\n      0x00\n      swap1\n      sload\n      swap1\n      0x0100\n      exp\n      swap1\n      div\n      0xffffffffffffffffffffffffffffffffffffffff\n      and\n        /* \"contracts/sweetspot.sol\":1725:1739  scorer.isAdmin */\n      0xffffffffffffffffffffffffffffffffffffffff\n      and\n      0x24d7806c\n        /* \"contracts/sweetspot.sol\":1740:1750  msg.sender */\n      caller\n        /* \"contracts/sweetspot.sol\":1725:1751  scorer.isAdmin(msg.sender) */\n      mload(0x40)\n      dup3\n      0xffffffff\n      and\n      0xe0\n      shl\n      dup2\n      mstore\n      0x04\n      add\n      tag_196\n      swap2\n      swap1\n      tag_40\n      jump\t// in\n    tag_196:\n      0x20\n      mload(0x40)\n      dup1\n      dup4\n      sub\n      dup2\n      dup7\n      gas\n      staticcall\n      iszero\n      dup1\n      iszero\n      tag_198\n      jumpi\n      returndatasize\n      0x00\n      dup1\n      returndatacopy\n      revert(0x00, returndatasize)\n    tag_198:\n      pop\n      pop\n      pop\n      pop\n      mload(0x40)\n      returndatasize\n      not(0x1f)\n      0x1f\n      dup3\n      add\n      and\n      dup3\n      add\n      dup1\n      0x40\n      mstore\n      pop\n      dup2\n      add\n      swap1\n      tag_199\n      swap2\n      swap1\n      tag_183\n      jump\t// in\n    tag_199:\n        /* \"contracts/sweetspot.sol\":1717:1778  require(scorer.isAdmin(msg.sender), \"Caller is not an admin\") */\n      tag_200\n      jumpi\n      mload(0x40)\n      0x08c379a000000000000000000000000000000000000000000000000000000000\n      dup2\n      mstore\n      0x04\n      add\n      tag_201\n      swap1\n      tag_186\n      jump\t// in\n    tag_201:\n      mload(0x40)\n      dup1\n      swap2\n      sub\n      swap1\n      revert\n    tag_200:\n        /* \"contracts/sweetspot.sol\":4260:4261  0 */\n      0x00\n        /* \"contracts/sweetspot.sol\":4244:4262  user != address(0) */\n      0xffffffffffffffffffffffffffffffffffffffff\n      and\n        /* \"contracts/sweetspot.sol\":4244:4248  user */\n      dup4\n        /* \"contracts/sweetspot.sol\":4244:4262  user != address(0) */\n      0xffffffffffffffffffffffffffffffffffffffff\n      and\n      sub\n        /* \"contracts/sweetspot.sol\":4236:4284  require(user != address(0), \"Zero address user\") */\n      tag_203\n      jumpi\n      mload(0x40)\n      0x08c379a000000000000000000000000000000000000000000000000000000000\n      dup2\n      mstore\n      0x04\n      add\n      tag_204\n      swap1\n      tag_205\n      jump\t// in\n    tag_204:\n      mload(0x40)\n      dup1\n      swap2\n      sub\n      swap1\n      revert\n    tag_203:\n        /* \"contracts/sweetspot.sol\":4325:4331  amount */\n      dup1\n        /* \"contracts/sweetspot.sol\":4295:4309  allowedAmounts */\n      0x36\n        /* \"contracts/sweetspot.sol\":4295:4315  allowedAmounts[user] */\n      0x00\n        /* \"contracts/sweetspot.sol\":4310:4314  user */\n      dup6\n        /* \"contracts/sweetspot.sol\":4295:4315  allowedAmounts[user] */\n      0xffffffffffffffffffffffffffffffffffffffff\n      and\n      0xffffffffffffffffffffffffffffffffffffffff\n      and\n      dup2\n      mstore\n      0x20\n      add\n      swap1\n      dup2\n      mstore\n      0x20\n      add\n      0x00\n      keccak256\n        /* \"contracts/sweetspot.sol\":4295:4322  allowedAmounts[user][token] */\n      0x00\n        /* \"contracts/sweetspot.sol\":4316:4321  token */\n      dup5\n        /* \"contracts/sweetspot.sol\":4295:4322  allowedAmounts[user][token] */\n      0xffffffffffffffffffffffffffffffffffffffff\n      and\n      0xffffffffffffffffffffffffffffffffffffffff\n      and\n      dup2\n      mstore\n      0x20\n      add\n      swap1\n      dup2\n      mstore\n      0x20\n      add\n      0x00\n      keccak256\n        /* \"contracts/sweetspot.sol\":4295:4331  allowedAmounts[user][token] = amount */\n      dup2\n      swap1\n      sstore\n      pop\n        /* \"contracts/sweetspot.sol\":4374:4379  token */\n      dup2\n        /* \"contracts/sweetspot.sol\":4347:4388  AllowedAmountUpdated(user, token, amount) */\n      0xffffffffffffffffffffffffffffffffffffffff\n      and\n        /* \"contracts/sweetspot.sol\":4368:4372  user */\n      dup4\n        /* \"contracts/sweetspot.sol\":4347:4388  AllowedAmountUpdated(user, token, amount) */\n      0xffffffffffffffffffffffffffffffffffffffff\n      and\n      0x3d0601f3b0e52fd772f1fa71d91651b34b6a11144bea30d74e0f820019a04dc2\n        /* \"contracts/sweetspot.sol\":4381:4387  amount */\n      dup4\n        /* \"contracts/sweetspot.sol\":4347:4388  AllowedAmountUpdated(user, token, amount) */\n      mload(0x40)\n      tag_206\n      swap2\n      swap1\n      tag_26\n      jump\t// in\n    tag_206:\n      mload(0x40)\n      dup1\n      swap2\n      sub\n      swap1\n      log3\n        /* \"contracts/sweetspot.sol\":4135:4396  function setAllowedAmount(address user, address token, uint256 amount) external onlyAdmin {... */\n      pop\n      pop\n      pop\n      jump\t// out\n        /* \"contracts/sweetspot.sol\":4495:5012  function bulkSetAllowedAmount(... */\n    tag_91:\n        /* \"contracts/sweetspot.sol\":1725:1731  scorer */\n      0x32\n      0x00\n      swap1\n      sload\n      swap1\n      0x0100\n      exp\n      swap1\n      div\n      0xffffffffffffffffffffffffffffffffffffffff\n      and\n        /* \"contracts/sweetspot.sol\":1725:1739  scorer.isAdmin */\n      0xffffffffffffffffffffffffffffffffffffffff\n      and\n      0x24d7806c\n        /* \"contracts/sweetspot.sol\":1740:1750  msg.sender */\n      caller\n        /* \"contracts/sweetspot.sol\":1725:1751  scorer.isAdmin(msg.sender) */\n      mload(0x40)\n      dup3\n      0xffffffff\n      and\n      0xe0\n      shl\n      dup2\n      mstore\n      0x04\n      add\n      tag_208\n      swap2\n      swap1\n      tag_40\n      jump\t// in\n    tag_208:\n      0x20\n      mload(0x40)\n      dup1\n      dup4\n      sub\n      dup2\n      dup7\n      gas\n      staticcall\n      iszero\n      dup1\n      iszero\n      tag_210\n      jumpi\n      returndatasize\n      0x00\n      dup1\n      returndatacopy\n      revert(0x00, returndatasize)\n    tag_210:\n      pop\n      pop\n      pop\n      pop\n      mload(0x40)\n      returndatasize\n      not(0x1f)\n      0x1f\n      dup3\n      add\n      and\n      dup3\n      add\n      dup1\n      0x40\n      mstore\n      pop\n      dup2\n      add\n      swap1\n      tag_211\n      swap2\n      swap1\n      tag_183\n      jump\t// in\n    tag_211:\n        /* \"contracts/sweetspot.sol\":1717:1778  require(scorer.isAdmin(msg.sender), \"Caller is not an admin\") */\n      tag_212\n      jumpi\n      mload(0x40)\n      0x08c379a000000000000000000000000000000000000000000000000000000000\n      dup2\n      mstore\n      0x04\n      add\n      tag_213\n      swap1\n      tag_186\n      jump\t// in\n    tag_213:\n      mload(0x40)\n      dup1\n      swap2\n      sub\n      swap1\n      revert\n    tag_212:\n        /* \"contracts/sweetspot.sol\":4682:4689  amounts */\n      dup2\n      dup2\n        /* \"contracts/sweetspot.sol\":4682:4696  amounts.length */\n      swap1\n      pop\n        /* \"contracts/sweetspot.sol\":4666:4671  users */\n      dup5\n      dup5\n        /* \"contracts/sweetspot.sol\":4666:4678  users.length */\n      swap1\n      pop\n        /* \"contracts/sweetspot.sol\":4666:4696  users.length == amounts.length */\n      eq\n        /* \"contracts/sweetspot.sol\":4658:4725  require(users.length == amounts.length, \"Mismatched array lengths\") */\n      tag_215\n      jumpi\n      mload(0x40)\n      0x08c379a000000000000000000000000000000000000000000000000000000000\n      dup2\n      mstore\n      0x04\n      add\n      tag_216\n      swap1\n      tag_217\n      jump\t// in\n    tag_216:\n      mload(0x40)\n      dup1\n      swap2\n      sub\n      swap1\n      revert\n    tag_215:\n        /* \"contracts/sweetspot.sol\":4741:4750  uint256 i */\n      0x00\n        /* \"contracts/sweetspot.sol\":4736:5005  for (uint256 i = 0; i < users.length; i++) {... */\n    tag_218:\n        /* \"contracts/sweetspot.sol\":4760:4765  users */\n      dup5\n      dup5\n        /* \"contracts/sweetspot.sol\":4760:4772  users.length */\n      swap1\n      pop\n        /* \"contracts/sweetspot.sol\":4756:4757  i */\n      dup2\n        /* \"contracts/sweetspot.sol\":4756:4772  i < users.length */\n      lt\n        /* \"contracts/sweetspot.sol\":4736:5005  for (uint256 i = 0; i < users.length; i++) {... */\n      iszero\n      tag_219\n      jumpi\n        /* \"contracts/sweetspot.sol\":4914:4921  amounts */\n      dup3\n      dup3\n        /* \"contracts/sweetspot.sol\":4922:4923  i */\n      dup3\n        /* \"contracts/sweetspot.sol\":4914:4924  amounts[i] */\n      dup2\n      dup2\n      lt\n      tag_221\n      jumpi\n      tag_222\n      tag_223\n      jump\t// in\n    tag_222:\n    tag_221:\n      swap1\n      pop\n      0x20\n      mul\n      add\n      calldataload\n        /* \"contracts/sweetspot.sol\":4880:4894  allowedAmounts */\n      0x36\n        /* \"contracts/sweetspot.sol\":4880:4904  allowedAmounts[users[i]] */\n      0x00\n        /* \"contracts/sweetspot.sol\":4895:4900  users */\n      dup8\n      dup8\n        /* \"contracts/sweetspot.sol\":4901:4902  i */\n      dup6\n        /* \"contracts/sweetspot.sol\":4895:4903  users[i] */\n      dup2\n      dup2\n      lt\n      tag_224\n      jumpi\n      tag_225\n      tag_223\n      jump\t// in\n    tag_225:\n    tag_224:\n      swap1\n      pop\n      0x20\n      mul\n      add\n      0x20\n      dup2\n      add\n      swap1\n      tag_226\n      swap2\n      swap1\n      tag_34\n      jump\t// in\n    tag_226:\n        /* \"contracts/sweetspot.sol\":4880:4904  allowedAmounts[users[i]] */\n      0xffffffffffffffffffffffffffffffffffffffff\n      and\n      0xffffffffffffffffffffffffffffffffffffffff\n      and\n      dup2\n      mstore\n      0x20\n      add\n      swap1\n      dup2\n      mstore\n      0x20\n      add\n      0x00\n      keccak256\n        /* \"contracts/sweetspot.sol\":4880:4911  allowedAmounts[users[i]][token] */\n      0x00\n        /* \"contracts/sweetspot.sol\":4905:4910  token */\n      dup9\n        /* \"contracts/sweetspot.sol\":4880:4911  allowedAmounts[users[i]][token] */\n      0xffffffffffffffffffffffffffffffffffffffff\n      and\n      0xffffffffffffffffffffffffffffffffffffffff\n      and\n      dup2\n      mstore\n      0x20\n      add\n      swap1\n      dup2\n      mstore\n      0x20\n      add\n      0x00\n      keccak256\n        /* \"contracts/sweetspot.sol\":4880:4924  allowedAmounts[users[i]][token] = amounts[i] */\n      dup2\n      swap1\n      sstore\n      pop\n        /* \"contracts/sweetspot.sol\":4975:4980  token */\n      dup6\n        /* \"contracts/sweetspot.sol\":4944:4993  AllowedAmountUpdated(users[i], token, amounts[i]) */\n      0xffffffffffffffffffffffffffffffffffffffff\n      and\n        /* \"contracts/sweetspot.sol\":4965:4970  users */\n      dup6\n      dup6\n        /* \"contracts/sweetspot.sol\":4971:4972  i */\n      dup4\n        /* \"contracts/sweetspot.sol\":4965:4973  users[i] */\n      dup2\n      dup2\n      lt\n      tag_227\n      jumpi\n      tag_228\n      tag_223\n      jump\t// in\n    tag_228:\n    tag_227:\n      swap1\n      pop\n      0x20\n      mul\n      add\n      0x20\n      dup2\n      add\n      swap1\n      tag_229\n      swap2\n      swap1\n      tag_34\n      jump\t// in\n    tag_229:\n        /* \"contracts/sweetspot.sol\":4944:4993  AllowedAmountUpdated(users[i], token, amounts[i]) */\n      0xffffffffffffffffffffffffffffffffffffffff\n      and\n      0x3d0601f3b0e52fd772f1fa71d91651b34b6a11144bea30d74e0f820019a04dc2\n        /* \"contracts/sweetspot.sol\":4982:4989  amounts */\n      dup6\n      dup6\n        /* \"contracts/sweetspot.sol\":4990:4991  i */\n      dup6\n        /* \"contracts/sweetspot.sol\":4982:4992  amounts[i] */\n      dup2\n      dup2\n      lt\n      tag_230\n      jumpi\n      tag_231\n      tag_223\n      jump\t// in\n    tag_231:\n    tag_230:\n      swap1\n      pop\n      0x20\n      mul\n      add\n      calldataload\n        /* \"contracts/sweetspot.sol\":4944:4993  AllowedAmountUpdated(users[i], token, amounts[i]) */\n      mload(0x40)\n      tag_232\n      swap2\n      swap1\n      tag_26\n      jump\t// in\n    tag_232:\n      mload(0x40)\n      dup1\n      swap2\n      sub\n      swap1\n      log3\n        /* \"contracts/sweetspot.sol\":4774:4777  i++ */\n      dup1\n      dup1\n      0x01\n      add\n      swap2\n      pop\n      pop\n        /* \"contracts/sweetspot.sol\":4736:5005  for (uint256 i = 0; i < users.length; i++) {... */\n      jump(tag_218)\n    tag_219:\n      pop\n        /* \"contracts/sweetspot.sol\":4495:5012  function bulkSetAllowedAmount(... */\n      pop\n      pop\n      pop\n      pop\n      pop\n      jump\t// out\n        /* \"@openzeppelin/contracts-upgradeable/access/OwnableUpgradeable.sol\":3405:3620  function transferOwnership(address newOwner) public virtual onlyOwner {... */\n    tag_95:\n        /* \"@openzeppelin/contracts-upgradeable/access/OwnableUpgradeable.sol\":2334:2347  _checkOwner() */\n      tag_234\n        /* \"@openzeppelin/contracts-upgradeable/access/OwnableUpgradeable.sol\":2334:2345  _checkOwner */\n      tag_165\n        /* \"@openzeppelin/contracts-upgradeable/access/OwnableUpgradeable.sol\":2334:2347  _checkOwner() */\n      jump\t// in\n    tag_234:\n        /* \"@openzeppelin/contracts-upgradeable/access/OwnableUpgradeable.sol\":3509:3510  0 */\n      0x00\n        /* \"@openzeppelin/contracts-upgradeable/access/OwnableUpgradeable.sol\":3489:3511  newOwner == address(0) */\n      0xffffffffffffffffffffffffffffffffffffffff\n      and\n        /* \"@openzeppelin/contracts-upgradeable/access/OwnableUpgradeable.sol\":3489:3497  newOwner */\n      dup2\n        /* \"@openzeppelin/contracts-upgradeable/access/OwnableUpgradeable.sol\":3489:3511  newOwner == address(0) */\n      0xffffffffffffffffffffffffffffffffffffffff\n      and\n      sub\n        /* \"@openzeppelin/contracts-upgradeable/access/OwnableUpgradeable.sol\":3485:3576  if (newOwner == address(0)) {... */\n      tag_236\n      jumpi\n        /* \"@openzeppelin/contracts-upgradeable/access/OwnableUpgradeable.sol\":3562:3563  0 */\n      0x00\n        /* \"@openzeppelin/contracts-upgradeable/access/OwnableUpgradeable.sol\":3534:3565  OwnableInvalidOwner(address(0)) */\n      mload(0x40)\n      0x1e4fbdf700000000000000000000000000000000000000000000000000000000\n      dup2\n      mstore\n      0x04\n      add\n      tag_237\n      swap2\n      swap1\n      tag_40\n      jump\t// in\n    tag_237:\n      mload(0x40)\n      dup1\n      swap2\n      sub\n      swap1\n      revert\n        /* \"@openzeppelin/contracts-upgradeable/access/OwnableUpgradeable.sol\":3485:3576  if (newOwner == address(0)) {... */\n    tag_236:\n        /* \"@openzeppelin/contracts-upgradeable/access/OwnableUpgradeable.sol\":3585:3613  _transferOwnership(newOwner) */\n      tag_238\n        /* \"@openzeppelin/contracts-upgradeable/access/OwnableUpgradeable.sol\":3604:3612  newOwner */\n      dup2\n        /* \"@openzeppelin/contracts-upgradeable/access/OwnableUpgradeable.sol\":3585:3603  _transferOwnership */\n      tag_168\n        /* \"@openzeppelin/contracts-upgradeable/access/OwnableUpgradeable.sol\":3585:3613  _transferOwnership(newOwner) */\n      jump\t// in\n    tag_238:\n        /* \"@openzeppelin/contracts-upgradeable/access/OwnableUpgradeable.sol\":3405:3620  function transferOwnership(address newOwner) public virtual onlyOwner {... */\n      pop\n      jump\t// out\n        /* \"contracts/sweetspot.sol\":5744:6322  function withdraw(address token, uint256 amount) external onlyOwner nonReentrant  {... */\n    tag_99:\n        /* \"@openzeppelin/contracts-upgradeable/access/OwnableUpgradeable.sol\":2334:2347  _checkOwner() */\n      tag_240\n        /* \"@openzeppelin/contracts-upgradeable/access/OwnableUpgradeable.sol\":2334:2345  _checkOwner */\n      tag_165\n        /* \"@openzeppelin/contracts-upgradeable/access/OwnableUpgradeable.sol\":2334:2347  _checkOwner() */\n      jump\t// in\n    tag_240:\n        /* \"@openzeppelin/contracts-upgradeable/security/ReentrancyGuardUpgradeable.sol\":2526:2547  _nonReentrantBefore() */\n      tag_242\n        /* \"@openzeppelin/contracts-upgradeable/security/ReentrancyGuardUpgradeable.sol\":2526:2545  _nonReentrantBefore */\n      tag_102\n        /* \"@openzeppelin/contracts-upgradeable/security/ReentrancyGuardUpgradeable.sol\":2526:2547  _nonReentrantBefore() */\n      jump\t// in\n    tag_242:\n        /* \"contracts/sweetspot.sol\":5854:5855  0 */\n      0x00\n        /* \"contracts/sweetspot.sol\":5845:5851  amount */\n      dup2\n        /* \"contracts/sweetspot.sol\":5845:5855  amount > 0 */\n      gt\n        /* \"contracts/sweetspot.sol\":5837:5903  require(amount > 0, \"Withdrawal amount must be greater than zero\") */\n      tag_244\n      jumpi\n      mload(0x40)\n      0x08c379a000000000000000000000000000000000000000000000000000000000\n      dup2\n      mstore\n      0x04\n      add\n      tag_245\n      swap1\n      tag_246\n      jump\t// in\n    tag_245:\n      mload(0x40)\n      dup1\n      swap2\n      sub\n      swap1\n      revert\n    tag_244:\n        /* \"contracts/sweetspot.sol\":5946:5952  amount */\n      dup1\n        /* \"contracts/sweetspot.sol\":5922:5935  totalBalances */\n      0x35\n        /* \"contracts/sweetspot.sol\":5922:5942  totalBalances[token] */\n      0x00\n        /* \"contracts/sweetspot.sol\":5936:5941  token */\n      dup5\n        /* \"contracts/sweetspot.sol\":5922:5942  totalBalances[token] */\n      0xffffffffffffffffffffffffffffffffffffffff\n      and\n      0xffffffffffffffffffffffffffffffffffffffff\n      and\n      dup2\n      mstore\n      0x20\n      add\n      swap1\n      dup2\n      mstore\n      0x20\n      add\n      0x00\n      keccak256\n      sload\n        /* \"contracts/sweetspot.sol\":5922:5952  totalBalances[token] >= amount */\n      lt\n      iszero\n        /* \"contracts/sweetspot.sol\":5914:5975  require(totalBalances[token] >= amount, \"Insufficient funds\") */\n      tag_247\n      jumpi\n      mload(0x40)\n      0x08c379a000000000000000000000000000000000000000000000000000000000\n      dup2\n      mstore\n      0x04\n      add\n      tag_248\n      swap1\n      tag_249\n      jump\t// in\n    tag_248:\n      mload(0x40)\n      dup1\n      swap2\n      sub\n      swap1\n      revert\n    tag_247:\n        /* \"contracts/sweetspot.sol\":6012:6018  amount */\n      dup1\n        /* \"contracts/sweetspot.sol\":5988:6001  totalBalances */\n      0x35\n        /* \"contracts/sweetspot.sol\":5988:6008  totalBalances[token] */\n      0x00\n        /* \"contracts/sweetspot.sol\":6002:6007  token */\n      dup5\n        /* \"contracts/sweetspot.sol\":5988:6008  totalBalances[token] */\n      0xffffffffffffffffffffffffffffffffffffffff\n      and\n      0xffffffffffffffffffffffffffffffffffffffff\n      and\n      dup2\n      mstore\n      0x20\n      add\n      swap1\n      dup2\n      mstore\n      0x20\n      add\n      0x00\n      keccak256\n      0x00\n        /* \"contracts/sweetspot.sol\":5988:6018  totalBalances[token] -= amount */\n      dup3\n      dup3\n      sload\n      tag_250\n      swap2\n      swap1\n      tag_115\n      jump\t// in\n    tag_250:\n      swap3\n      pop\n      pop\n      dup2\n      swap1\n      sstore\n      pop\n        /* \"contracts/sweetspot.sol\":613:614  0 */\n      0x00\n        /* \"contracts/sweetspot.sol\":6035:6056  token == NATIVE_TOKEN */\n      0xffffffffffffffffffffffffffffffffffffffff\n      and\n        /* \"contracts/sweetspot.sol\":6035:6040  token */\n      dup3\n        /* \"contracts/sweetspot.sol\":6035:6056  token == NATIVE_TOKEN */\n      0xffffffffffffffffffffffffffffffffffffffff\n      and\n      sub\n        /* \"contracts/sweetspot.sol\":6031:6267  if (token == NATIVE_TOKEN) {... */\n      tag_251\n      jumpi\n        /* \"contracts/sweetspot.sol\":6074:6086  bool success */\n      0x00\n        /* \"contracts/sweetspot.sol\":6092:6099  owner() */\n      tag_252\n        /* \"contracts/sweetspot.sol\":6092:6097  owner */\n      tag_65\n        /* \"contracts/sweetspot.sol\":6092:6099  owner() */\n      jump\t// in\n    tag_252:\n        /* \"contracts/sweetspot.sol\":6092:6104  owner().call */\n      0xffffffffffffffffffffffffffffffffffffffff\n      and\n        /* \"contracts/sweetspot.sol\":6112:6118  amount */\n      dup3\n        /* \"contracts/sweetspot.sol\":6092:6123  owner().call{value: amount}(\"\") */\n      mload(0x40)\n      tag_253\n      swap1\n      tag_118\n      jump\t// in\n    tag_253:\n      0x00\n      mload(0x40)\n      dup1\n      dup4\n      sub\n      dup2\n      dup6\n      dup8\n      gas\n      call\n      swap3\n      pop\n      pop\n      pop\n      returndatasize\n      dup1\n      0x00\n      dup2\n      eq\n      tag_256\n      jumpi\n      mload(0x40)\n      swap2\n      pop\n      and(add(returndatasize, 0x3f), not(0x1f))\n      dup3\n      add\n      0x40\n      mstore\n      returndatasize\n      dup3\n      mstore\n      returndatasize\n      0x00\n      0x20\n      dup5\n      add\n      returndatacopy\n      jump(tag_255)\n    tag_256:\n      0x60\n      swap2\n      pop\n    tag_255:\n      pop\n        /* \"contracts/sweetspot.sol\":6073:6123  (bool success, ) = owner().call{value: amount}(\"\") */\n      pop\n      swap1\n      pop\n        /* \"contracts/sweetspot.sol\":6146:6153  success */\n      dup1\n        /* \"contracts/sweetspot.sol\":6138:6179  require(success, \"Ether transfer failed\") */\n      tag_257\n      jumpi\n      mload(0x40)\n      0x08c379a000000000000000000000000000000000000000000000000000000000\n      dup2\n      mstore\n      0x04\n      add\n      tag_258\n      swap1\n      tag_124\n      jump\t// in\n    tag_258:\n      mload(0x40)\n      dup1\n      swap2\n      sub\n      swap1\n      revert\n    tag_257:\n        /* \"contracts/sweetspot.sol\":6058:6191  {... */\n      pop\n        /* \"contracts/sweetspot.sol\":6031:6267  if (token == NATIVE_TOKEN) {... */\n      jump(tag_259)\n    tag_251:\n        /* \"contracts/sweetspot.sol\":6212:6255  IERC20(token).safeTransfer(owner(), amount) */\n      tag_260\n        /* \"contracts/sweetspot.sol\":6239:6246  owner() */\n      tag_261\n        /* \"contracts/sweetspot.sol\":6239:6244  owner */\n      tag_65\n        /* \"contracts/sweetspot.sol\":6239:6246  owner() */\n      jump\t// in\n    tag_261:\n        /* \"contracts/sweetspot.sol\":6248:6254  amount */\n      dup3\n        /* \"contracts/sweetspot.sol\":6219:6224  token */\n      dup5\n        /* \"contracts/sweetspot.sol\":6212:6238  IERC20(token).safeTransfer */\n      0xffffffffffffffffffffffffffffffffffffffff\n      and\n      tag_127\n      swap1\n        /* \"contracts/sweetspot.sol\":6212:6255  IERC20(token).safeTransfer(owner(), amount) */\n      swap3\n      swap2\n      swap1\n      0xffffffff\n      and\n      jump\t// in\n    tag_260:\n        /* \"contracts/sweetspot.sol\":6031:6267  if (token == NATIVE_TOKEN) {... */\n    tag_259:\n        /* \"contracts/sweetspot.sol\":6300:6305  token */\n      dup2\n        /* \"contracts/sweetspot.sol\":6282:6314  Withdraw(owner(), token, amount) */\n      0xffffffffffffffffffffffffffffffffffffffff\n      and\n        /* \"contracts/sweetspot.sol\":6291:6298  owner() */\n      tag_262\n        /* \"contracts/sweetspot.sol\":6291:6296  owner */\n      tag_65\n        /* \"contracts/sweetspot.sol\":6291:6298  owner() */\n      jump\t// in\n    tag_262:\n        /* \"contracts/sweetspot.sol\":6282:6314  Withdraw(owner(), token, amount) */\n      0xffffffffffffffffffffffffffffffffffffffff\n      and\n      0x9b1bfa7fa9ee420a16e124f794c35ac9f90472acc99140eb2f6447c714cad8eb\n        /* \"contracts/sweetspot.sol\":6307:6313  amount */\n      dup4\n        /* \"contracts/sweetspot.sol\":6282:6314  Withdraw(owner(), token, amount) */\n      mload(0x40)\n      tag_263\n      swap2\n      swap1\n      tag_26\n      jump\t// in\n    tag_263:\n      mload(0x40)\n      dup1\n      swap2\n      sub\n      swap1\n      log3\n        /* \"@openzeppelin/contracts-upgradeable/security/ReentrancyGuardUpgradeable.sol\":2568:2588  _nonReentrantAfter() */\n      tag_264\n        /* \"@openzeppelin/contracts-upgradeable/security/ReentrancyGuardUpgradeable.sol\":2568:2586  _nonReentrantAfter */\n      tag_130\n        /* \"@openzeppelin/contracts-upgradeable/security/ReentrancyGuardUpgradeable.sol\":2568:2588  _nonReentrantAfter() */\n      jump\t// in\n    tag_264:\n        /* \"contracts/sweetspot.sol\":5744:6322  function withdraw(address token, uint256 amount) external onlyOwner nonReentrant  {... */\n      pop\n      pop\n      jump\t// out\n        /* \"@openzeppelin/contracts-upgradeable/security/ReentrancyGuardUpgradeable.sol\":2601:2888  function _nonReentrantBefore() private {... */\n    tag_102:\n        /* \"@openzeppelin/contracts-upgradeable/security/ReentrancyGuardUpgradeable.sol\":1851:1852  2 */\n      0x02\n        /* \"@openzeppelin/contracts-upgradeable/security/ReentrancyGuardUpgradeable.sol\":2733:2740  _status */\n      sload(0x00)\n        /* \"@openzeppelin/contracts-upgradeable/security/ReentrancyGuardUpgradeable.sol\":2733:2752  _status != _ENTERED */\n      sub\n        /* \"@openzeppelin/contracts-upgradeable/security/ReentrancyGuardUpgradeable.sol\":2725:2788  require(_status != _ENTERED, \"ReentrancyGuard: reentrant call\") */\n      tag_266\n      jumpi\n      mload(0x40)\n      0x08c379a000000000000000000000000000000000000000000000000000000000\n      dup2\n      mstore\n      0x04\n      add\n      tag_267\n      swap1\n      tag_268\n      jump\t// in\n    tag_267:\n      mload(0x40)\n      dup1\n      swap2\n      sub\n      swap1\n      revert\n    tag_266:\n        /* \"@openzeppelin/contracts-upgradeable/security/ReentrancyGuardUpgradeable.sol\":1851:1852  2 */\n      0x02\n        /* \"@openzeppelin/contracts-upgradeable/security/ReentrancyGuardUpgradeable.sol\":2863:2870  _status */\n      0x00\n        /* \"@openzeppelin/contracts-upgradeable/security/ReentrancyGuardUpgradeable.sol\":2863:2881  _status = _ENTERED */\n      dup2\n      swap1\n      sstore\n      pop\n        /* \"@openzeppelin/contracts-upgradeable/security/ReentrancyGuardUpgradeable.sol\":2601:2888  function _nonReentrantBefore() private {... */\n      jump\t// out\n        /* \"@openzeppelin/contracts/token/ERC20/utils/SafeERC20.sol\":1271:1431  function safeTransfer(IERC20 token, address to, uint256 value) internal {... */\n    tag_127:\n        /* \"@openzeppelin/contracts/token/ERC20/utils/SafeERC20.sol\":1353:1424  _callOptionalReturn(token, abi.encodeCall(token.transfer, (to, value))) */\n      tag_270\n        /* \"@openzeppelin/contracts/token/ERC20/utils/SafeERC20.sol\":1373:1378  token */\n      dup4\n        /* \"@openzeppelin/contracts/token/ERC20/utils/SafeERC20.sol\":1395:1400  token */\n      dup5\n        /* \"@openzeppelin/contracts/token/ERC20/utils/SafeERC20.sol\":1395:1409  token.transfer */\n      0xffffffffffffffffffffffffffffffffffffffff\n      and\n      0xa9059cbb\n        /* \"@openzeppelin/contracts/token/ERC20/utils/SafeERC20.sol\":1412:1414  to */\n      dup6\n        /* \"@openzeppelin/contracts/token/ERC20/utils/SafeERC20.sol\":1416:1421  value */\n      dup6\n        /* \"@openzeppelin/contracts/token/ERC20/utils/SafeERC20.sol\":1380:1423  abi.encodeCall(token.transfer, (to, value)) */\n      add(0x24, mload(0x40))\n      tag_271\n      swap3\n      swap2\n      swap1\n      tag_272\n      jump\t// in\n    tag_271:\n      mload(0x40)\n      0x20\n      dup2\n      dup4\n      sub\n      sub\n      dup2\n      mstore\n      swap1\n      0x40\n      mstore\n      swap2\n      pop\n      0xe0\n      shl\n      0x20\n      dup3\n      add\n      dup1\n      mload\n      0xffffffffffffffffffffffffffffffffffffffffffffffffffffffff\n      dup4\n      dup2\n      dup4\n      and\n      or\n      dup4\n      mstore\n      pop\n      pop\n      pop\n      pop\n        /* \"@openzeppelin/contracts/token/ERC20/utils/SafeERC20.sol\":1353:1372  _callOptionalReturn */\n      tag_273\n        /* \"@openzeppelin/contracts/token/ERC20/utils/SafeERC20.sol\":1353:1424  _callOptionalReturn(token, abi.encodeCall(token.transfer, (to, value))) */\n      jump\t// in\n    tag_270:\n        /* \"@openzeppelin/contracts/token/ERC20/utils/SafeERC20.sol\":1271:1431  function safeTransfer(IERC20 token, address to, uint256 value) internal {... */\n      pop\n      pop\n      pop\n      jump\t// out\n        /* \"@openzeppelin/contracts-upgradeable/security/ReentrancyGuardUpgradeable.sol\":2894:3103  function _nonReentrantAfter() private {... */\n    tag_130:\n        /* \"@openzeppelin/contracts-upgradeable/security/ReentrancyGuardUpgradeable.sol\":1808:1809  1 */\n      0x01\n        /* \"@openzeppelin/contracts-upgradeable/security/ReentrancyGuardUpgradeable.sol\":3074:3081  _status */\n      0x00\n        /* \"@openzeppelin/contracts-upgradeable/security/ReentrancyGuardUpgradeable.sol\":3074:3096  _status = _NOT_ENTERED */\n      dup2\n      swap1\n      sstore\n      pop\n        /* \"@openzeppelin/contracts-upgradeable/security/ReentrancyGuardUpgradeable.sol\":2894:3103  function _nonReentrantAfter() private {... */\n      jump\t// out\n        /* \"@openzeppelin/contracts/token/ERC20/utils/SafeERC20.sol\":1670:1858  function safeTransferFrom(IERC20 token, address from, address to, uint256 value) internal {... */\n    tag_143:\n        /* \"@openzeppelin/contracts/token/ERC20/utils/SafeERC20.sol\":1770:1851  _callOptionalReturn(token, abi.encodeCall(token.transferFrom, (from, to, value))) */\n      tag_276\n        /* \"@openzeppelin/contracts/token/ERC20/utils/SafeERC20.sol\":1790:1795  token */\n      dup5\n        /* \"@openzeppelin/contracts/token/ERC20/utils/SafeERC20.sol\":1812:1817  token */\n      dup6\n        /* \"@openzeppelin/contracts/token/ERC20/utils/SafeERC20.sol\":1812:1830  token.transferFrom */\n      0xffffffffffffffffffffffffffffffffffffffff\n      and\n      0x23b872dd\n        /* \"@openzeppelin/contracts/token/ERC20/utils/SafeERC20.sol\":1833:1837  from */\n      dup7\n        /* \"@openzeppelin/contracts/token/ERC20/utils/SafeERC20.sol\":1839:1841  to */\n      dup7\n        /* \"@openzeppelin/contracts/token/ERC20/utils/SafeERC20.sol\":1843:1848  value */\n      dup7\n        /* \"@openzeppelin/contracts/token/ERC20/utils/SafeERC20.sol\":1797:1850  abi.encodeCall(token.transferFrom, (from, to, value)) */\n      add(0x24, mload(0x40))\n      tag_277\n      swap4\n      swap3\n      swap2\n      swap1\n      tag_278\n      jump\t// in\n    tag_277:\n      mload(0x40)\n      0x20\n      dup2\n      dup4\n      sub\n      sub\n      dup2\n      mstore\n      swap1\n      0x40\n      mstore\n      swap2\n      pop\n      0xe0\n      shl\n      0x20\n      dup3\n      add\n      dup1\n      mload\n      0xffffffffffffffffffffffffffffffffffffffffffffffffffffffff\n      dup4\n      dup2\n      dup4\n      and\n      or\n      dup4\n      mstore\n      pop\n      pop\n      pop\n      pop\n        /* \"@openzeppelin/contracts/token/ERC20/utils/SafeERC20.sol\":1770:1789  _callOptionalReturn */\n      tag_273\n        /* \"@openzeppelin/contracts/token/ERC20/utils/SafeERC20.sol\":1770:1851  _callOptionalReturn(token, abi.encodeCall(token.transferFrom, (from, to, value))) */\n      jump\t// in\n    tag_276:\n        /* \"@openzeppelin/contracts/token/ERC20/utils/SafeERC20.sol\":1670:1858  function safeTransferFrom(IERC20 token, address from, address to, uint256 value) internal {... */\n      pop\n      pop\n      pop\n      pop\n      jump\t// out\n        /* \"@openzeppelin/contracts-upgradeable/proxy/utils/Initializable.sol\":8737:8907  function _getInitializableStorage() private pure returns (InitializableStorage storage $) {... */\n    tag_149:\n        /* \"@openzeppelin/contracts-upgradeable/proxy/utils/Initializable.sol\":8795:8825  InitializableStorage storage $ */\n      0x00\n        /* \"@openzeppelin/contracts-upgradeable/proxy/utils/Initializable.sol\":8870:8891  INITIALIZABLE_STORAGE */\n      0xf0c57e16840df040f15088dc2f81fe391c3923bec73e23a9662efc9c229c6a00\n        /* \"@openzeppelin/contracts-upgradeable/proxy/utils/Initializable.sol\":8860:8891  $.slot := INITIALIZABLE_STORAGE */\n      swap1\n      pop\n        /* \"@openzeppelin/contracts-upgradeable/proxy/utils/Initializable.sol\":8737:8907  function _getInitializableStorage() private pure returns (InitializableStorage storage $) {... */\n      swap1\n      jump\t// out\n        /* \"@openzeppelin/contracts-upgradeable/access/OwnableUpgradeable.sol\":1847:1974  function __Ownable_init(address initialOwner) internal onlyInitializing {... */\n    tag_157:\n        /* \"@openzeppelin/contracts-upgradeable/proxy/utils/Initializable.sol\":6931:6951  _checkInitializing() */\n      tag_281\n        /* \"@openzeppelin/contracts-upgradeable/proxy/utils/Initializable.sol\":6931:6949  _checkInitializing */\n      tag_282\n        /* \"@openzeppelin/contracts-upgradeable/proxy/utils/Initializable.sol\":6931:6951  _checkInitializing() */\n      jump\t// in\n    tag_281:\n        /* \"@openzeppelin/contracts-upgradeable/access/OwnableUpgradeable.sol\":1929:1967  __Ownable_init_unchained(initialOwner) */\n      tag_284\n        /* \"@openzeppelin/contracts-upgradeable/access/OwnableUpgradeable.sol\":1954:1966  initialOwner */\n      dup2\n        /* \"@openzeppelin/contracts-upgradeable/access/OwnableUpgradeable.sol\":1929:1953  __Ownable_init_unchained */\n      tag_285\n        /* \"@openzeppelin/contracts-upgradeable/access/OwnableUpgradeable.sol\":1929:1967  __Ownable_init_unchained(initialOwner) */\n      jump\t// in\n    tag_284:\n        /* \"@openzeppelin/contracts-upgradeable/access/OwnableUpgradeable.sol\":1847:1974  function __Ownable_init(address initialOwner) internal onlyInitializing {... */\n      pop\n      jump\t// out\n        /* \"@openzeppelin/contracts-upgradeable/security/ReentrancyGuardUpgradeable.sol\":1889:2000  function __ReentrancyGuard_init() internal onlyInitializing {... */\n    tag_159:\n        /* \"@openzeppelin/contracts-upgradeable/proxy/utils/Initializable.sol\":6931:6951  _checkInitializing() */\n      tag_287\n        /* \"@openzeppelin/contracts-upgradeable/proxy/utils/Initializable.sol\":6931:6949  _checkInitializing */\n      tag_282\n        /* \"@openzeppelin/contracts-upgradeable/proxy/utils/Initializable.sol\":6931:6951  _checkInitializing() */\n      jump\t// in\n    tag_287:\n        /* \"@openzeppelin/contracts-upgradeable/security/ReentrancyGuardUpgradeable.sol\":1959:1993  __ReentrancyGuard_init_unchained() */\n      tag_289\n        /* \"@openzeppelin/contracts-upgradeable/security/ReentrancyGuardUpgradeable.sol\":1959:1991  __ReentrancyGuard_init_unchained */\n      tag_290\n        /* \"@openzeppelin/contracts-upgradeable/security/ReentrancyGuardUpgradeable.sol\":1959:1993  __ReentrancyGuard_init_unchained() */\n      jump\t// in\n    tag_289:\n        /* \"@openzeppelin/contracts-upgradeable/security/ReentrancyGuardUpgradeable.sol\":1889:2000  function __ReentrancyGuard_init() internal onlyInitializing {... */\n      jump\t// out\n        /* \"@openzeppelin/contracts-upgradeable/access/OwnableUpgradeable.sol\":2658:2820  function _checkOwner() internal view virtual {... */\n    tag_165:\n        /* \"@openzeppelin/contracts-upgradeable/access/OwnableUpgradeable.sol\":2728:2740  _msgSender() */\n      tag_292\n        /* \"@openzeppelin/contracts-upgradeable/access/OwnableUpgradeable.sol\":2728:2738  _msgSender */\n      tag_293\n        /* \"@openzeppelin/contracts-upgradeable/access/OwnableUpgradeable.sol\":2728:2740  _msgSender() */\n      jump\t// in\n    tag_292:\n        /* \"@openzeppelin/contracts-upgradeable/access/OwnableUpgradeable.sol\":2717:2740  owner() != _msgSender() */\n      0xffffffffffffffffffffffffffffffffffffffff\n      and\n        /* \"@openzeppelin/contracts-upgradeable/access/OwnableUpgradeable.sol\":2717:2724  owner() */\n      tag_294\n        /* \"@openzeppelin/contracts-upgradeable/access/OwnableUpgradeable.sol\":2717:2722  owner */\n      tag_65\n        /* \"@openzeppelin/contracts-upgradeable/access/OwnableUpgradeable.sol\":2717:2724  owner() */\n      jump\t// in\n    tag_294:\n        /* \"@openzeppelin/contracts-upgradeable/access/OwnableUpgradeable.sol\":2717:2740  owner() != _msgSender() */\n      0xffffffffffffffffffffffffffffffffffffffff\n      and\n      eq\n        /* \"@openzeppelin/contracts-upgradeable/access/OwnableUpgradeable.sol\":2713:2814  if (owner() != _msgSender()) {... */\n      tag_295\n      jumpi\n        /* \"@openzeppelin/contracts-upgradeable/access/OwnableUpgradeable.sol\":2790:2802  _msgSender() */\n      tag_296\n        /* \"@openzeppelin/contracts-upgradeable/access/OwnableUpgradeable.sol\":2790:2800  _msgSender */\n      tag_293\n        /* \"@openzeppelin/contracts-upgradeable/access/OwnableUpgradeable.sol\":2790:2802  _msgSender() */\n      jump\t// in\n    tag_296:\n        /* \"@openzeppelin/contracts-upgradeable/access/OwnableUpgradeable.sol\":2763:2803  OwnableUnauthorizedAccount(_msgSender()) */\n      mload(0x40)\n      0x118cdaa700000000000000000000000000000000000000000000000000000000\n      dup2\n      mstore\n      0x04\n      add\n      tag_297\n      swap2\n      swap1\n      tag_40\n      jump\t// in\n    tag_297:\n      mload(0x40)\n      dup1\n      swap2\n      sub\n      swap1\n      revert\n        /* \"@openzeppelin/contracts-upgradeable/access/OwnableUpgradeable.sol\":2713:2814  if (owner() != _msgSender()) {... */\n    tag_295:\n        /* \"@openzeppelin/contracts-upgradeable/access/OwnableUpgradeable.sol\":2658:2820  function _checkOwner() internal view virtual {... */\n      jump\t// out\n        /* \"@openzeppelin/contracts-upgradeable/access/OwnableUpgradeable.sol\":3774:4022  function _transferOwnership(address newOwner) internal virtual {... */\n    tag_168:\n        /* \"@openzeppelin/contracts-upgradeable/access/OwnableUpgradeable.sol\":3847:3871  OwnableStorage storage $ */\n      0x00\n        /* \"@openzeppelin/contracts-upgradeable/access/OwnableUpgradeable.sol\":3874:3894  _getOwnableStorage() */\n      tag_299\n        /* \"@openzeppelin/contracts-upgradeable/access/OwnableUpgradeable.sol\":3874:3892  _getOwnableStorage */\n      tag_177\n        /* \"@openzeppelin/contracts-upgradeable/access/OwnableUpgradeable.sol\":3874:3894  _getOwnableStorage() */\n      jump\t// in\n    tag_299:\n        /* \"@openzeppelin/contracts-upgradeable/access/OwnableUpgradeable.sol\":3847:3894  OwnableStorage storage $ = _getOwnableStorage() */\n      swap1\n      pop\n        /* \"@openzeppelin/contracts-upgradeable/access/OwnableUpgradeable.sol\":3904:3920  address oldOwner */\n      0x00\n        /* \"@openzeppelin/contracts-upgradeable/access/OwnableUpgradeable.sol\":3923:3924  $ */\n      dup2\n        /* \"@openzeppelin/contracts-upgradeable/access/OwnableUpgradeable.sol\":3923:3931  $._owner */\n      0x00\n      add\n      0x00\n      swap1\n      sload\n      swap1\n      0x0100\n      exp\n      swap1\n      div\n      0xffffffffffffffffffffffffffffffffffffffff\n      and\n        /* \"@openzeppelin/contracts-upgradeable/access/OwnableUpgradeable.sol\":3904:3931  address oldOwner = $._owner */\n      swap1\n      pop\n        /* \"@openzeppelin/contracts-upgradeable/access/OwnableUpgradeable.sol\":3952:3960  newOwner */\n      dup3\n        /* \"@openzeppelin/contracts-upgradeable/access/OwnableUpgradeable.sol\":3941:3942  $ */\n      dup3\n        /* \"@openzeppelin/contracts-upgradeable/access/OwnableUpgradeable.sol\":3941:3949  $._owner */\n      0x00\n      add\n      0x00\n        /* \"@openzeppelin/contracts-upgradeable/access/OwnableUpgradeable.sol\":3941:3960  $._owner = newOwner */\n      0x0100\n      exp\n      dup2\n      sload\n      dup2\n      0xffffffffffffffffffffffffffffffffffffffff\n      mul\n      not\n      and\n      swap1\n      dup4\n      0xffffffffffffffffffffffffffffffffffffffff\n      and\n      mul\n      or\n      swap1\n      sstore\n      pop\n        /* \"@openzeppelin/contracts-upgradeable/access/OwnableUpgradeable.sol\":4006:4014  newOwner */\n      dup3\n        /* \"@openzeppelin/contracts-upgradeable/access/OwnableUpgradeable.sol\":3975:4015  OwnershipTransferred(oldOwner, newOwner) */\n      0xffffffffffffffffffffffffffffffffffffffff\n      and\n        /* \"@openzeppelin/contracts-upgradeable/access/OwnableUpgradeable.sol\":3996:4004  oldOwner */\n      dup2\n        /* \"@openzeppelin/contracts-upgradeable/access/OwnableUpgradeable.sol\":3975:4015  OwnershipTransferred(oldOwner, newOwner) */\n      0xffffffffffffffffffffffffffffffffffffffff\n      and\n      0x8be0079c531659141344cd1fd0a4f28419497f9722a3daafe3b4186f6b6457e0\n      mload(0x40)\n      mload(0x40)\n      dup1\n      swap2\n      sub\n      swap1\n      log3\n        /* \"@openzeppelin/contracts-upgradeable/access/OwnableUpgradeable.sol\":3837:4022  {... */\n      pop\n      pop\n        /* \"@openzeppelin/contracts-upgradeable/access/OwnableUpgradeable.sol\":3774:4022  function _transferOwnership(address newOwner) internal virtual {... */\n      pop\n      jump\t// out\n        /* \"@openzeppelin/contracts-upgradeable/access/OwnableUpgradeable.sol\":1192:1351  function _getOwnableStorage() private pure returns (OwnableStorage storage $) {... */\n    tag_177:\n        /* \"@openzeppelin/contracts-upgradeable/access/OwnableUpgradeable.sol\":1244:1268  OwnableStorage storage $ */\n      0x00\n        /* \"@openzeppelin/contracts-upgradeable/access/OwnableUpgradeable.sol\":1313:1335  OwnableStorageLocation */\n      0x9016d09d72d40fdae2fd8ceac6b6234c7706214fd39c1cd1e609a0528c199300\n        /* \"@openzeppelin/contracts-upgradeable/access/OwnableUpgradeable.sol\":1303:1335  $.slot := OwnableStorageLocation */\n      swap1\n      pop\n        /* \"@openzeppelin/contracts-upgradeable/access/OwnableUpgradeable.sol\":1192:1351  function _getOwnableStorage() private pure returns (OwnableStorage storage $) {... */\n      swap1\n      jump\t// out\n        /* \"@openzeppelin/contracts/token/ERC20/utils/SafeERC20.sol\":7738:8458  function _callOptionalReturn(IERC20 token, bytes memory data) private {... */\n    tag_273:\n        /* \"@openzeppelin/contracts/token/ERC20/utils/SafeERC20.sol\":7818:7836  uint256 returnSize */\n      0x00\n        /* \"@openzeppelin/contracts/token/ERC20/utils/SafeERC20.sol\":7846:7865  uint256 returnValue */\n      dup1\n        /* \"@openzeppelin/contracts/token/ERC20/utils/SafeERC20.sol\":7984:7988  0x20 */\n      0x20\n        /* \"@openzeppelin/contracts/token/ERC20/utils/SafeERC20.sol\":7981:7982  0 */\n      0x00\n        /* \"@openzeppelin/contracts/token/ERC20/utils/SafeERC20.sol\":7974:7978  data */\n      dup5\n        /* \"@openzeppelin/contracts/token/ERC20/utils/SafeERC20.sol\":7968:7979  mload(data) */\n      mload\n        /* \"@openzeppelin/contracts/token/ERC20/utils/SafeERC20.sol\":7961:7965  0x20 */\n      0x20\n        /* \"@openzeppelin/contracts/token/ERC20/utils/SafeERC20.sol\":7955:7959  data */\n      dup7\n        /* \"@openzeppelin/contracts/token/ERC20/utils/SafeERC20.sol\":7951:7966  add(data, 0x20) */\n      add\n        /* \"@openzeppelin/contracts/token/ERC20/utils/SafeERC20.sol\":7948:7949  0 */\n      0x00\n        /* \"@openzeppelin/contracts/token/ERC20/utils/SafeERC20.sol\":7941:7946  token */\n      dup9\n        /* \"@openzeppelin/contracts/token/ERC20/utils/SafeERC20.sol\":7934:7939  gas() */\n      gas\n        /* \"@openzeppelin/contracts/token/ERC20/utils/SafeERC20.sol\":7929:7989  call(gas(), token, 0, add(data, 0x20), mload(data), 0, 0x20) */\n      call\n        /* \"@openzeppelin/contracts/token/ERC20/utils/SafeERC20.sol\":8041:8048  success */\n      dup1\n        /* \"@openzeppelin/contracts/token/ERC20/utils/SafeERC20.sol\":8031:8207  if iszero(success) {... */\n      tag_302\n      jumpi\n        /* \"@openzeppelin/contracts/token/ERC20/utils/SafeERC20.sol\":8085:8089  0x40 */\n      0x40\n        /* \"@openzeppelin/contracts/token/ERC20/utils/SafeERC20.sol\":8079:8090  mload(0x40) */\n      mload\n        /* \"@openzeppelin/contracts/token/ERC20/utils/SafeERC20.sol\":8130:8146  returndatasize() */\n      returndatasize\n        /* \"@openzeppelin/contracts/token/ERC20/utils/SafeERC20.sol\":8127:8128  0 */\n      0x00\n        /* \"@openzeppelin/contracts/token/ERC20/utils/SafeERC20.sol\":8122:8125  ptr */\n      dup3\n        /* \"@openzeppelin/contracts/token/ERC20/utils/SafeERC20.sol\":8107:8147  returndatacopy(ptr, 0, returndatasize()) */\n      returndatacopy\n        /* \"@openzeppelin/contracts/token/ERC20/utils/SafeERC20.sol\":8176:8192  returndatasize() */\n      returndatasize\n        /* \"@openzeppelin/contracts/token/ERC20/utils/SafeERC20.sol\":8171:8174  ptr */\n      dup2\n        /* \"@openzeppelin/contracts/token/ERC20/utils/SafeERC20.sol\":8164:8193  revert(ptr, returndatasize()) */\n      revert\n        /* \"@openzeppelin/contracts/token/ERC20/utils/SafeERC20.sol\":8031:8207  if iszero(success) {... */\n    tag_302:\n        /* \"@openzeppelin/contracts/token/ERC20/utils/SafeERC20.sol\":8234:8250  returndatasize() */\n      returndatasize\n        /* \"@openzeppelin/contracts/token/ERC20/utils/SafeERC20.sol\":8220:8250  returnSize := returndatasize() */\n      swap3\n      pop\n        /* \"@openzeppelin/contracts/token/ERC20/utils/SafeERC20.sol\":8284:8285  0 */\n      0x00\n        /* \"@openzeppelin/contracts/token/ERC20/utils/SafeERC20.sol\":8278:8286  mload(0) */\n      mload\n        /* \"@openzeppelin/contracts/token/ERC20/utils/SafeERC20.sol\":8263:8286  returnValue := mload(0) */\n      swap2\n      pop\n        /* \"@openzeppelin/contracts/token/ERC20/utils/SafeERC20.sol\":7900:8296  {... */\n      pop\n        /* \"@openzeppelin/contracts/token/ERC20/utils/SafeERC20.sol\":8324:8325  0 */\n      0x00\n        /* \"@openzeppelin/contracts/token/ERC20/utils/SafeERC20.sol\":8310:8320  returnSize */\n      dup3\n        /* \"@openzeppelin/contracts/token/ERC20/utils/SafeERC20.sol\":8310:8325  returnSize == 0 */\n      eq\n        /* \"@openzeppelin/contracts/token/ERC20/utils/SafeERC20.sol\":8310:8378  returnSize == 0 ? address(token).code.length == 0 : returnValue != 1 */\n      tag_303\n      jumpi\n        /* \"@openzeppelin/contracts/token/ERC20/utils/SafeERC20.sol\":8377:8378  1 */\n      0x01\n        /* \"@openzeppelin/contracts/token/ERC20/utils/SafeERC20.sol\":8362:8373  returnValue */\n      dup2\n        /* \"@openzeppelin/contracts/token/ERC20/utils/SafeERC20.sol\":8362:8378  returnValue != 1 */\n      eq\n      iszero\n        /* \"@openzeppelin/contracts/token/ERC20/utils/SafeERC20.sol\":8310:8378  returnSize == 0 ? address(token).code.length == 0 : returnValue != 1 */\n      jump(tag_304)\n    tag_303:\n        /* \"@openzeppelin/contracts/token/ERC20/utils/SafeERC20.sol\":8358:8359  0 */\n      0x00\n        /* \"@openzeppelin/contracts/token/ERC20/utils/SafeERC20.sol\":8336:8341  token */\n      dup5\n        /* \"@openzeppelin/contracts/token/ERC20/utils/SafeERC20.sol\":8328:8354  address(token).code.length */\n      0xffffffffffffffffffffffffffffffffffffffff\n      and\n      extcodesize\n        /* \"@openzeppelin/contracts/token/ERC20/utils/SafeERC20.sol\":8328:8359  address(token).code.length == 0 */\n      eq\n        /* \"@openzeppelin/contracts/token/ERC20/utils/SafeERC20.sol\":8310:8378  returnSize == 0 ? address(token).code.length == 0 : returnValue != 1 */\n    tag_304:\n        /* \"@openzeppelin/contracts/token/ERC20/utils/SafeERC20.sol\":8306:8452  if (returnSize == 0 ? address(token).code.length == 0 : returnValue != 1) {... */\n      iszero\n      tag_305\n      jumpi\n        /* \"@openzeppelin/contracts/token/ERC20/utils/SafeERC20.sol\":8434:8439  token */\n      dup4\n        /* \"@openzeppelin/contracts/token/ERC20/utils/SafeERC20.sol\":8401:8441  SafeERC20FailedOperation(address(token)) */\n      mload(0x40)\n      0x5274afe700000000000000000000000000000000000000000000000000000000\n      dup2\n      mstore\n      0x04\n      add\n      tag_306\n      swap2\n      swap1\n      tag_40\n      jump\t// in\n    tag_306:\n      mload(0x40)\n      dup1\n      swap2\n      sub\n      swap1\n      revert\n        /* \"@openzeppelin/contracts/token/ERC20/utils/SafeERC20.sol\":8306:8452  if (returnSize == 0 ? address(token).code.length == 0 : returnValue != 1) {... */\n    tag_305:\n        /* \"@openzeppelin/contracts/token/ERC20/utils/SafeERC20.sol\":7808:8458  {... */\n      pop\n      pop\n        /* \"@openzeppelin/contracts/token/ERC20/utils/SafeERC20.sol\":7738:8458  function _callOptionalReturn(IERC20 token, bytes memory data) private {... */\n      pop\n      pop\n      jump\t// out\n        /* \"@openzeppelin/contracts-upgradeable/proxy/utils/Initializable.sol\":7084:7225  function _checkInitializing() internal view virtual {... */\n    tag_282:\n        /* \"@openzeppelin/contracts-upgradeable/proxy/utils/Initializable.sol\":7151:7168  _isInitializing() */\n      tag_308\n        /* \"@openzeppelin/contracts-upgradeable/proxy/utils/Initializable.sol\":7151:7166  _isInitializing */\n      tag_309\n        /* \"@openzeppelin/contracts-upgradeable/proxy/utils/Initializable.sol\":7151:7168  _isInitializing() */\n      jump\t// in\n    tag_308:\n        /* \"@openzeppelin/contracts-upgradeable/proxy/utils/Initializable.sol\":7146:7219  if (!_isInitializing()) {... */\n      tag_310\n      jumpi\n        /* \"@openzeppelin/contracts-upgradeable/proxy/utils/Initializable.sol\":7191:7208  NotInitializing() */\n      mload(0x40)\n      0xd7e6bcf800000000000000000000000000000000000000000000000000000000\n      dup2\n      mstore\n      0x04\n      add\n      mload(0x40)\n      dup1\n      swap2\n      sub\n      swap1\n      revert\n        /* \"@openzeppelin/contracts-upgradeable/proxy/utils/Initializable.sol\":7146:7219  if (!_isInitializing()) {... */\n    tag_310:\n        /* \"@openzeppelin/contracts-upgradeable/proxy/utils/Initializable.sol\":7084:7225  function _checkInitializing() internal view virtual {... */\n      jump\t// out\n        /* \"@openzeppelin/contracts-upgradeable/access/OwnableUpgradeable.sol\":1980:2215  function __Ownable_init_unchained(address initialOwner) internal onlyInitializing {... */\n    tag_285:\n        /* \"@openzeppelin/contracts-upgradeable/proxy/utils/Initializable.sol\":6931:6951  _checkInitializing() */\n      tag_312\n        /* \"@openzeppelin/contracts-upgradeable/proxy/utils/Initializable.sol\":6931:6949  _checkInitializing */\n      tag_282\n        /* \"@openzeppelin/contracts-upgradeable/proxy/utils/Initializable.sol\":6931:6951  _checkInitializing() */\n      jump\t// in\n    tag_312:\n        /* \"@openzeppelin/contracts-upgradeable/access/OwnableUpgradeable.sol\":2100:2101  0 */\n      0x00\n        /* \"@openzeppelin/contracts-upgradeable/access/OwnableUpgradeable.sol\":2076:2102  initialOwner == address(0) */\n      0xffffffffffffffffffffffffffffffffffffffff\n      and\n        /* \"@openzeppelin/contracts-upgradeable/access/OwnableUpgradeable.sol\":2076:2088  initialOwner */\n      dup2\n        /* \"@openzeppelin/contracts-upgradeable/access/OwnableUpgradeable.sol\":2076:2102  initialOwner == address(0) */\n      0xffffffffffffffffffffffffffffffffffffffff\n      and\n      sub\n        /* \"@openzeppelin/contracts-upgradeable/access/OwnableUpgradeable.sol\":2072:2167  if (initialOwner == address(0)) {... */\n      tag_314\n      jumpi\n        /* \"@openzeppelin/contracts-upgradeable/access/OwnableUpgradeable.sol\":2153:2154  0 */\n      0x00\n        /* \"@openzeppelin/contracts-upgradeable/access/OwnableUpgradeable.sol\":2125:2156  OwnableInvalidOwner(address(0)) */\n      mload(0x40)\n      0x1e4fbdf700000000000000000000000000000000000000000000000000000000\n      dup2\n      mstore\n      0x04\n      add\n      tag_315\n      swap2\n      swap1\n      tag_40\n      jump\t// in\n    tag_315:\n      mload(0x40)\n      dup1\n      swap2\n      sub\n      swap1\n      revert\n        /* \"@openzeppelin/contracts-upgradeable/access/OwnableUpgradeable.sol\":2072:2167  if (initialOwner == address(0)) {... */\n    tag_314:\n        /* \"@openzeppelin/contracts-upgradeable/access/OwnableUpgradeable.sol\":2176:2208  _transferOwnership(initialOwner) */\n      tag_316\n        /* \"@openzeppelin/contracts-upgradeable/access/OwnableUpgradeable.sol\":2195:2207  initialOwner */\n      dup2\n        /* \"@openzeppelin/contracts-upgradeable/access/OwnableUpgradeable.sol\":2176:2194  _transferOwnership */\n      tag_168\n        /* \"@openzeppelin/contracts-upgradeable/access/OwnableUpgradeable.sol\":2176:2208  _transferOwnership(initialOwner) */\n      jump\t// in\n    tag_316:\n        /* \"@openzeppelin/contracts-upgradeable/access/OwnableUpgradeable.sol\":1980:2215  function __Ownable_init_unchained(address initialOwner) internal onlyInitializing {... */\n      pop\n      jump\t// out\n        /* \"@openzeppelin/contracts-upgradeable/security/ReentrancyGuardUpgradeable.sol\":2006:2115  function __ReentrancyGuard_init_unchained() internal onlyInitializing {... */\n    tag_290:\n        /* \"@openzeppelin/contracts-upgradeable/proxy/utils/Initializable.sol\":6931:6951  _checkInitializing() */\n      tag_318\n        /* \"@openzeppelin/contracts-upgradeable/proxy/utils/Initializable.sol\":6931:6949  _checkInitializing */\n      tag_282\n        /* \"@openzeppelin/contracts-upgradeable/proxy/utils/Initializable.sol\":6931:6951  _checkInitializing() */\n      jump\t// in\n    tag_318:\n        /* \"@openzeppelin/contracts-upgradeable/security/ReentrancyGuardUpgradeable.sol\":1808:1809  1 */\n      0x01\n        /* \"@openzeppelin/contracts-upgradeable/security/ReentrancyGuardUpgradeable.sol\":2086:2093  _status */\n      0x00\n        /* \"@openzeppelin/contracts-upgradeable/security/ReentrancyGuardUpgradeable.sol\":2086:2108  _status = _NOT_ENTERED */\n      dup2\n      swap1\n      sstore\n      pop\n        /* \"@openzeppelin/contracts-upgradeable/security/ReentrancyGuardUpgradeable.sol\":2006:2115  function __ReentrancyGuard_init_unchained() internal onlyInitializing {... */\n      jump\t// out\n        /* \"@openzeppelin/contracts-upgradeable/utils/ContextUpgradeable.sol\":887:983  function _msgSender() internal view virtual returns (address) {... */\n    tag_293:\n        /* \"@openzeppelin/contracts-upgradeable/utils/ContextUpgradeable.sol\":940:947  address */\n      0x00\n        /* \"@openzeppelin/contracts-upgradeable/utils/ContextUpgradeable.sol\":966:976  msg.sender */\n      caller\n        /* \"@openzeppelin/contracts-upgradeable/utils/ContextUpgradeable.sol\":959:976  return msg.sender */\n      swap1\n      pop\n        /* \"@openzeppelin/contracts-upgradeable/utils/ContextUpgradeable.sol\":887:983  function _msgSender() internal view virtual returns (address) {... */\n      swap1\n      jump\t// out\n        /* \"@openzeppelin/contracts-upgradeable/proxy/utils/Initializable.sol\":8487:8607  function _isInitializing() internal view returns (bool) {... */\n    tag_309:\n        /* \"@openzeppelin/contracts-upgradeable/proxy/utils/Initializable.sol\":8537:8541  bool */\n      0x00\n        /* \"@openzeppelin/contracts-upgradeable/proxy/utils/Initializable.sol\":8560:8586  _getInitializableStorage() */\n      tag_322\n        /* \"@openzeppelin/contracts-upgradeable/proxy/utils/Initializable.sol\":8560:8584  _getInitializableStorage */\n      tag_149\n        /* \"@openzeppelin/contracts-upgradeable/proxy/utils/Initializable.sol\":8560:8586  _getInitializableStorage() */\n      jump\t// in\n    tag_322:\n        /* \"@openzeppelin/contracts-upgradeable/proxy/utils/Initializable.sol\":8560:8600  _getInitializableStorage()._initializing */\n      0x00\n      add\n      0x08\n      swap1\n      sload\n      swap1\n      0x0100\n      exp\n      swap1\n      div\n      0xff\n      and\n        /* \"@openzeppelin/contracts-upgradeable/proxy/utils/Initializable.sol\":8553:8600  return _getInitializableStorage()._initializing */\n      swap1\n      pop\n        /* \"@openzeppelin/contracts-upgradeable/proxy/utils/Initializable.sol\":8487:8607  function _isInitializing() internal view returns (bool) {... */\n      swap1\n      jump\t// out\n        /* \"#utility.yul\":7:84   */\n    tag_323:\n        /* \"#utility.yul\":44:51   */\n      0x00\n        /* \"#utility.yul\":73:78   */\n      dup2\n        /* \"#utility.yul\":62:78   */\n      swap1\n      pop\n        /* \"#utility.yul\":7:84   */\n      swap2\n      swap1\n      pop\n      jump\t// out\n        /* \"#utility.yul\":90:270   */\n    tag_324:\n        /* \"#utility.yul\":138:215   */\n      0x4e487b7100000000000000000000000000000000000000000000000000000000\n        /* \"#utility.yul\":135:136   */\n      0x00\n        /* \"#utility.yul\":128:216   */\n      mstore\n        /* \"#utility.yul\":235:239   */\n      0x11\n        /* \"#utility.yul\":232:233   */\n      0x04\n        /* \"#utility.yul\":225:240   */\n      mstore\n        /* \"#utility.yul\":259:263   */\n      0x24\n        /* \"#utility.yul\":256:257   */\n      0x00\n        /* \"#utility.yul\":249:264   */\n      revert\n        /* \"#utility.yul\":276:467   */\n    tag_24:\n        /* \"#utility.yul\":316:319   */\n      0x00\n        /* \"#utility.yul\":335:355   */\n      tag_419\n        /* \"#utility.yul\":353:354   */\n      dup3\n        /* \"#utility.yul\":335:355   */\n      tag_323\n      jump\t// in\n    tag_419:\n        /* \"#utility.yul\":330:355   */\n      swap2\n      pop\n        /* \"#utility.yul\":369:389   */\n      tag_420\n        /* \"#utility.yul\":387:388   */\n      dup4\n        /* \"#utility.yul\":369:389   */\n      tag_323\n      jump\t// in\n    tag_420:\n        /* \"#utility.yul\":364:389   */\n      swap3\n      pop\n        /* \"#utility.yul\":412:413   */\n      dup3\n        /* \"#utility.yul\":409:410   */\n      dup3\n        /* \"#utility.yul\":405:414   */\n      add\n        /* \"#utility.yul\":398:414   */\n      swap1\n      pop\n        /* \"#utility.yul\":433:436   */\n      dup1\n        /* \"#utility.yul\":430:431   */\n      dup3\n        /* \"#utility.yul\":427:437   */\n      gt\n        /* \"#utility.yul\":424:460   */\n      iszero\n      tag_421\n      jumpi\n        /* \"#utility.yul\":440:458   */\n      tag_422\n      tag_324\n      jump\t// in\n    tag_422:\n        /* \"#utility.yul\":424:460   */\n    tag_421:\n        /* \"#utility.yul\":276:467   */\n      swap3\n      swap2\n      pop\n      pop\n      jump\t// out\n        /* \"#utility.yul\":473:591   */\n    tag_325:\n        /* \"#utility.yul\":560:584   */\n      tag_424\n        /* \"#utility.yul\":578:583   */\n      dup2\n        /* \"#utility.yul\":560:584   */\n      tag_323\n      jump\t// in\n    tag_424:\n        /* \"#utility.yul\":555:558   */\n      dup3\n        /* \"#utility.yul\":548:585   */\n      mstore\n        /* \"#utility.yul\":473:591   */\n      pop\n      pop\n      jump\t// out\n        /* \"#utility.yul\":597:819   */\n    tag_26:\n        /* \"#utility.yul\":690:694   */\n      0x00\n        /* \"#utility.yul\":728:730   */\n      0x20\n        /* \"#utility.yul\":717:726   */\n      dup3\n        /* \"#utility.yul\":713:731   */\n      add\n        /* \"#utility.yul\":705:731   */\n      swap1\n      pop\n        /* \"#utility.yul\":741:812   */\n      tag_426\n        /* \"#utility.yul\":809:810   */\n      0x00\n        /* \"#utility.yul\":798:807   */\n      dup4\n        /* \"#utility.yul\":794:811   */\n      add\n        /* \"#utility.yul\":785:791   */\n      dup5\n        /* \"#utility.yul\":741:812   */\n      tag_325\n      jump\t// in\n    tag_426:\n        /* \"#utility.yul\":597:819   */\n      swap3\n      swap2\n      pop\n      pop\n      jump\t// out\n        /* \"#utility.yul\":825:994   */\n    tag_326:\n        /* \"#utility.yul\":909:920   */\n      0x00\n        /* \"#utility.yul\":943:949   */\n      dup3\n        /* \"#utility.yul\":938:941   */\n      dup3\n        /* \"#utility.yul\":931:950   */\n      mstore\n        /* \"#utility.yul\":983:987   */\n      0x20\n        /* \"#utility.yul\":978:981   */\n      dup3\n        /* \"#utility.yul\":974:988   */\n      add\n        /* \"#utility.yul\":959:988   */\n      swap1\n      pop\n        /* \"#utility.yul\":825:994   */\n      swap3\n      swap2\n      pop\n      pop\n      jump\t// out\n        /* \"#utility.yul\":1000:1174   */\n    tag_327:\n        /* \"#utility.yul\":1140:1166   */\n      0x537765657473706f743a20757365206465706f73697428290000000000000000\n        /* \"#utility.yul\":1136:1137   */\n      0x00\n        /* \"#utility.yul\":1128:1134   */\n      dup3\n        /* \"#utility.yul\":1124:1138   */\n      add\n        /* \"#utility.yul\":1117:1167   */\n      mstore\n        /* \"#utility.yul\":1000:1174   */\n      pop\n      jump\t// out\n        /* \"#utility.yul\":1180:1546   */\n    tag_328:\n        /* \"#utility.yul\":1322:1325   */\n      0x00\n        /* \"#utility.yul\":1343:1410   */\n      tag_430\n        /* \"#utility.yul\":1407:1409   */\n      0x18\n        /* \"#utility.yul\":1402:1405   */\n      dup4\n        /* \"#utility.yul\":1343:1410   */\n      tag_326\n      jump\t// in\n    tag_430:\n        /* \"#utility.yul\":1336:1410   */\n      swap2\n      pop\n        /* \"#utility.yul\":1419:1512   */\n      tag_431\n        /* \"#utility.yul\":1508:1511   */\n      dup3\n        /* \"#utility.yul\":1419:1512   */\n      tag_327\n      jump\t// in\n    tag_431:\n        /* \"#utility.yul\":1537:1539   */\n      0x20\n        /* \"#utility.yul\":1532:1535   */\n      dup3\n        /* \"#utility.yul\":1528:1540   */\n      add\n        /* \"#utility.yul\":1521:1540   */\n      swap1\n      pop\n        /* \"#utility.yul\":1180:1546   */\n      swap2\n      swap1\n      pop\n      jump\t// out\n        /* \"#utility.yul\":1552:1971   */\n    tag_30:\n        /* \"#utility.yul\":1718:1722   */\n      0x00\n        /* \"#utility.yul\":1756:1758   */\n      0x20\n        /* \"#utility.yul\":1745:1754   */\n      dup3\n        /* \"#utility.yul\":1741:1759   */\n      add\n        /* \"#utility.yul\":1733:1759   */\n      swap1\n      pop\n        /* \"#utility.yul\":1805:1814   */\n      dup2\n        /* \"#utility.yul\":1799:1803   */\n      dup2\n        /* \"#utility.yul\":1795:1815   */\n      sub\n        /* \"#utility.yul\":1791:1792   */\n      0x00\n        /* \"#utility.yul\":1780:1789   */\n      dup4\n        /* \"#utility.yul\":1776:1793   */\n      add\n        /* \"#utility.yul\":1769:1816   */\n      mstore\n        /* \"#utility.yul\":1833:1964   */\n      tag_433\n        /* \"#utility.yul\":1959:1963   */\n      dup2\n        /* \"#utility.yul\":1833:1964   */\n      tag_328\n      jump\t// in\n    tag_433:\n        /* \"#utility.yul\":1825:1964   */\n      swap1\n      pop\n        /* \"#utility.yul\":1552:1971   */\n      swap2\n      swap1\n      pop\n      jump\t// out\n        /* \"#utility.yul\":1977:2052   */\n    tag_329:\n        /* \"#utility.yul\":2010:2016   */\n      0x00\n        /* \"#utility.yul\":2043:2045   */\n      0x40\n        /* \"#utility.yul\":2037:2046   */\n      mload\n        /* \"#utility.yul\":2027:2046   */\n      swap1\n      pop\n        /* \"#utility.yul\":1977:2052   */\n      swap1\n      jump\t// out\n        /* \"#utility.yul\":2058:2175   */\n    tag_330:\n        /* \"#utility.yul\":2167:2168   */\n      0x00\n        /* \"#utility.yul\":2164:2165   */\n      dup1\n        /* \"#utility.yul\":2157:2169   */\n      revert\n        /* \"#utility.yul\":2181:2298   */\n    tag_331:\n        /* \"#utility.yul\":2290:2291   */\n      0x00\n        /* \"#utility.yul\":2287:2288   */\n      dup1\n        /* \"#utility.yul\":2280:2292   */\n      revert\n        /* \"#utility.yul\":2304:2430   */\n    tag_332:\n        /* \"#utility.yul\":2341:2348   */\n      0x00\n        /* \"#utility.yul\":2381:2423   */\n      0xffffffffffffffffffffffffffffffffffffffff\n        /* \"#utility.yul\":2374:2379   */\n      dup3\n        /* \"#utility.yul\":2370:2424   */\n      and\n        /* \"#utility.yul\":2359:2424   */\n      swap1\n      pop\n        /* \"#utility.yul\":2304:2430   */\n      swap2\n      swap1\n      pop\n      jump\t// out\n        /* \"#utility.yul\":2436:2532   */\n    tag_333:\n        /* \"#utility.yul\":2473:2480   */\n      0x00\n        /* \"#utility.yul\":2502:2526   */\n      tag_439\n        /* \"#utility.yul\":2520:2525   */\n      dup3\n        /* \"#utility.yul\":2502:2526   */\n      tag_332\n      jump\t// in\n    tag_439:\n        /* \"#utility.yul\":2491:2526   */\n      swap1\n      pop\n        /* \"#utility.yul\":2436:2532   */\n      swap2\n      swap1\n      pop\n      jump\t// out\n        /* \"#utility.yul\":2538:2660   */\n    tag_334:\n        /* \"#utility.yul\":2611:2635   */\n      tag_441\n        /* \"#utility.yul\":2629:2634   */\n      dup2\n        /* \"#utility.yul\":2611:2635   */\n      tag_333\n      jump\t// in\n    tag_441:\n        /* \"#utility.yul\":2604:2609   */\n      dup2\n        /* \"#utility.yul\":2601:2636   */\n      eq\n        /* \"#utility.yul\":2591:2654   */\n      tag_442\n      jumpi\n        /* \"#utility.yul\":2650:2651   */\n      0x00\n        /* \"#utility.yul\":2647:2648   */\n      dup1\n        /* \"#utility.yul\":2640:2652   */\n      revert\n        /* \"#utility.yul\":2591:2654   */\n    tag_442:\n        /* \"#utility.yul\":2538:2660   */\n      pop\n      jump\t// out\n        /* \"#utility.yul\":2666:2805   */\n    tag_335:\n        /* \"#utility.yul\":2712:2717   */\n      0x00\n        /* \"#utility.yul\":2750:2756   */\n      dup2\n        /* \"#utility.yul\":2737:2757   */\n      calldataload\n        /* \"#utility.yul\":2728:2757   */\n      swap1\n      pop\n        /* \"#utility.yul\":2766:2799   */\n      tag_444\n        /* \"#utility.yul\":2793:2798   */\n      dup2\n        /* \"#utility.yul\":2766:2799   */\n      tag_334\n      jump\t// in\n    tag_444:\n        /* \"#utility.yul\":2666:2805   */\n      swap3\n      swap2\n      pop\n      pop\n      jump\t// out\n        /* \"#utility.yul\":2811:3140   */\n    tag_34:\n        /* \"#utility.yul\":2870:2876   */\n      0x00\n        /* \"#utility.yul\":2919:2921   */\n      0x20\n        /* \"#utility.yul\":2907:2916   */\n      dup3\n        /* \"#utility.yul\":2898:2905   */\n      dup5\n        /* \"#utility.yul\":2894:2917   */\n      sub\n        /* \"#utility.yul\":2890:2922   */\n      slt\n        /* \"#utility.yul\":2887:3006   */\n      iszero\n      tag_446\n      jumpi\n        /* \"#utility.yul\":2925:3004   */\n      tag_447\n      tag_330\n      jump\t// in\n    tag_447:\n        /* \"#utility.yul\":2887:3006   */\n    tag_446:\n        /* \"#utility.yul\":3045:3046   */\n      0x00\n        /* \"#utility.yul\":3070:3123   */\n      tag_448\n        /* \"#utility.yul\":3115:3122   */\n      dup5\n        /* \"#utility.yul\":3106:3112   */\n      dup3\n        /* \"#utility.yul\":3095:3104   */\n      dup6\n        /* \"#utility.yul\":3091:3113   */\n      add\n        /* \"#utility.yul\":3070:3123   */\n      tag_335\n      jump\t// in\n    tag_448:\n        /* \"#utility.yul\":3060:3123   */\n      swap2\n      pop\n        /* \"#utility.yul\":3016:3133   */\n      pop\n        /* \"#utility.yul\":2811:3140   */\n      swap3\n      swap2\n      pop\n      pop\n      jump\t// out\n        /* \"#utility.yul\":3146:3264   */\n    tag_336:\n        /* \"#utility.yul\":3233:3257   */\n      tag_450\n        /* \"#utility.yul\":3251:3256   */\n      dup2\n        /* \"#utility.yul\":3233:3257   */\n      tag_333\n      jump\t// in\n    tag_450:\n        /* \"#utility.yul\":3228:3231   */\n      dup3\n        /* \"#utility.yul\":3221:3258   */\n      mstore\n        /* \"#utility.yul\":3146:3264   */\n      pop\n      pop\n      jump\t// out\n        /* \"#utility.yul\":3270:3492   */\n    tag_40:\n        /* \"#utility.yul\":3363:3367   */\n      0x00\n        /* \"#utility.yul\":3401:3403   */\n      0x20\n        /* \"#utility.yul\":3390:3399   */\n      dup3\n        /* \"#utility.yul\":3386:3404   */\n      add\n        /* \"#utility.yul\":3378:3404   */\n      swap1\n      pop\n        /* \"#utility.yul\":3414:3485   */\n      tag_452\n        /* \"#utility.yul\":3482:3483   */\n      0x00\n        /* \"#utility.yul\":3471:3480   */\n      dup4\n        /* \"#utility.yul\":3467:3484   */\n      add\n        /* \"#utility.yul\":3458:3464   */\n      dup5\n        /* \"#utility.yul\":3414:3485   */\n      tag_336\n      jump\t// in\n    tag_452:\n        /* \"#utility.yul\":3270:3492   */\n      swap3\n      swap2\n      pop\n      pop\n      jump\t// out\n        /* \"#utility.yul\":3498:3620   */\n    tag_337:\n        /* \"#utility.yul\":3571:3595   */\n      tag_454\n        /* \"#utility.yul\":3589:3594   */\n      dup2\n        /* \"#utility.yul\":3571:3595   */\n      tag_323\n      jump\t// in\n    tag_454:\n        /* \"#utility.yul\":3564:3569   */\n      dup2\n        /* \"#utility.yul\":3561:3596   */\n      eq\n        /* \"#utility.yul\":3551:3614   */\n      tag_455\n      jumpi\n        /* \"#utility.yul\":3610:3611   */\n      0x00\n        /* \"#utility.yul\":3607:3608   */\n      dup1\n        /* \"#utility.yul\":3600:3612   */\n      revert\n        /* \"#utility.yul\":3551:3614   */\n    tag_455:\n        /* \"#utility.yul\":3498:3620   */\n      pop\n      jump\t// out\n        /* \"#utility.yul\":3626:3765   */\n    tag_338:\n        /* \"#utility.yul\":3672:3677   */\n      0x00\n        /* \"#utility.yul\":3710:3716   */\n      dup2\n        /* \"#utility.yul\":3697:3717   */\n      calldataload\n        /* \"#utility.yul\":3688:3717   */\n      swap1\n      pop\n        /* \"#utility.yul\":3726:3759   */\n      tag_457\n        /* \"#utility.yul\":3753:3758   */\n      dup2\n        /* \"#utility.yul\":3726:3759   */\n      tag_337\n      jump\t// in\n    tag_457:\n        /* \"#utility.yul\":3626:3765   */\n      swap3\n      swap2\n      pop\n      pop\n      jump\t// out\n        /* \"#utility.yul\":3771:4245   */\n    tag_43:\n        /* \"#utility.yul\":3839:3845   */\n      0x00\n        /* \"#utility.yul\":3847:3853   */\n      dup1\n        /* \"#utility.yul\":3896:3898   */\n      0x40\n        /* \"#utility.yul\":3884:3893   */\n      dup4\n        /* \"#utility.yul\":3875:3882   */\n      dup6\n        /* \"#utility.yul\":3871:3894   */\n      sub\n        /* \"#utility.yul\":3867:3899   */\n      slt\n        /* \"#utility.yul\":3864:3983   */\n      iszero\n      tag_459\n      jumpi\n        /* \"#utility.yul\":3902:3981   */\n      tag_460\n      tag_330\n      jump\t// in\n    tag_460:\n        /* \"#utility.yul\":3864:3983   */\n    tag_459:\n        /* \"#utility.yul\":4022:4023   */\n      0x00\n        /* \"#utility.yul\":4047:4100   */\n      tag_461\n        /* \"#utility.yul\":4092:4099   */\n      dup6\n        /* \"#utility.yul\":4083:4089   */\n      dup3\n        /* \"#utility.yul\":4072:4081   */\n      dup7\n        /* \"#utility.yul\":4068:4090   */\n      add\n        /* \"#utility.yul\":4047:4100   */\n      tag_335\n      jump\t// in\n    tag_461:\n        /* \"#utility.yul\":4037:4100   */\n      swap3\n      pop\n        /* \"#utility.yul\":3993:4110   */\n      pop\n        /* \"#utility.yul\":4149:4151   */\n      0x20\n        /* \"#utility.yul\":4175:4228   */\n      tag_462\n        /* \"#utility.yul\":4220:4227   */\n      dup6\n        /* \"#utility.yul\":4211:4217   */\n      dup3\n        /* \"#utility.yul\":4200:4209   */\n      dup7\n        /* \"#utility.yul\":4196:4218   */\n      add\n        /* \"#utility.yul\":4175:4228   */\n      tag_338\n      jump\t// in\n    tag_462:\n        /* \"#utility.yul\":4165:4228   */\n      swap2\n      pop\n        /* \"#utility.yul\":4120:4238   */\n      pop\n        /* \"#utility.yul\":3771:4245   */\n      swap3\n      pop\n      swap3\n      swap1\n      pop\n      jump\t// out\n        /* \"#utility.yul\":4251:4725   */\n    tag_48:\n        /* \"#utility.yul\":4319:4325   */\n      0x00\n        /* \"#utility.yul\":4327:4333   */\n      dup1\n        /* \"#utility.yul\":4376:4378   */\n      0x40\n        /* \"#utility.yul\":4364:4373   */\n      dup4\n        /* \"#utility.yul\":4355:4362   */\n      dup6\n        /* \"#utility.yul\":4351:4374   */\n      sub\n        /* \"#utility.yul\":4347:4379   */\n      slt\n        /* \"#utility.yul\":4344:4463   */\n      iszero\n      tag_464\n      jumpi\n        /* \"#utility.yul\":4382:4461   */\n      tag_465\n      tag_330\n      jump\t// in\n    tag_465:\n        /* \"#utility.yul\":4344:4463   */\n    tag_464:\n        /* \"#utility.yul\":4502:4503   */\n      0x00\n        /* \"#utility.yul\":4527:4580   */\n      tag_466\n        /* \"#utility.yul\":4572:4579   */\n      dup6\n        /* \"#utility.yul\":4563:4569   */\n      dup3\n        /* \"#utility.yul\":4552:4561   */\n      dup7\n        /* \"#utility.yul\":4548:4570   */\n      add\n        /* \"#utility.yul\":4527:4580   */\n      tag_335\n      jump\t// in\n    tag_466:\n        /* \"#utility.yul\":4517:4580   */\n      swap3\n      pop\n        /* \"#utility.yul\":4473:4590   */\n      pop\n        /* \"#utility.yul\":4629:4631   */\n      0x20\n        /* \"#utility.yul\":4655:4708   */\n      tag_467\n        /* \"#utility.yul\":4700:4707   */\n      dup6\n        /* \"#utility.yul\":4691:4697   */\n      dup3\n        /* \"#utility.yul\":4680:4689   */\n      dup7\n        /* \"#utility.yul\":4676:4698   */\n      add\n        /* \"#utility.yul\":4655:4708   */\n      tag_335\n      jump\t// in\n    tag_467:\n        /* \"#utility.yul\":4645:4708   */\n      swap2\n      pop\n        /* \"#utility.yul\":4600:4718   */\n      pop\n        /* \"#utility.yul\":4251:4725   */\n      swap3\n      pop\n      swap3\n      swap1\n      pop\n      jump\t// out\n        /* \"#utility.yul\":4731:4791   */\n    tag_339:\n        /* \"#utility.yul\":4759:4762   */\n      0x00\n        /* \"#utility.yul\":4780:4785   */\n      dup2\n        /* \"#utility.yul\":4773:4785   */\n      swap1\n      pop\n        /* \"#utility.yul\":4731:4791   */\n      swap2\n      swap1\n      pop\n      jump\t// out\n        /* \"#utility.yul\":4797:4939   */\n    tag_340:\n        /* \"#utility.yul\":4847:4856   */\n      0x00\n        /* \"#utility.yul\":4880:4933   */\n      tag_470\n        /* \"#utility.yul\":4898:4932   */\n      tag_471\n        /* \"#utility.yul\":4907:4931   */\n      tag_472\n        /* \"#utility.yul\":4925:4930   */\n      dup5\n        /* \"#utility.yul\":4907:4931   */\n      tag_332\n      jump\t// in\n    tag_472:\n        /* \"#utility.yul\":4898:4932   */\n      tag_339\n      jump\t// in\n    tag_471:\n        /* \"#utility.yul\":4880:4933   */\n      tag_332\n      jump\t// in\n    tag_470:\n        /* \"#utility.yul\":4867:4933   */\n      swap1\n      pop\n        /* \"#utility.yul\":4797:4939   */\n      swap2\n      swap1\n      pop\n      jump\t// out\n        /* \"#utility.yul\":4945:5071   */\n    tag_341:\n        /* \"#utility.yul\":4995:5004   */\n      0x00\n        /* \"#utility.yul\":5028:5065   */\n      tag_474\n        /* \"#utility.yul\":5059:5064   */\n      dup3\n        /* \"#utility.yul\":5028:5065   */\n      tag_340\n      jump\t// in\n    tag_474:\n        /* \"#utility.yul\":5015:5065   */\n      swap1\n      pop\n        /* \"#utility.yul\":4945:5071   */\n      swap2\n      swap1\n      pop\n      jump\t// out\n        /* \"#utility.yul\":5077:5219   */\n    tag_342:\n        /* \"#utility.yul\":5143:5152   */\n      0x00\n        /* \"#utility.yul\":5176:5213   */\n      tag_476\n        /* \"#utility.yul\":5207:5212   */\n      dup3\n        /* \"#utility.yul\":5176:5213   */\n      tag_341\n      jump\t// in\n    tag_476:\n        /* \"#utility.yul\":5163:5213   */\n      swap1\n      pop\n        /* \"#utility.yul\":5077:5219   */\n      swap2\n      swap1\n      pop\n      jump\t// out\n        /* \"#utility.yul\":5225:5388   */\n    tag_343:\n        /* \"#utility.yul\":5328:5381   */\n      tag_478\n        /* \"#utility.yul\":5375:5380   */\n      dup2\n        /* \"#utility.yul\":5328:5381   */\n      tag_342\n      jump\t// in\n    tag_478:\n        /* \"#utility.yul\":5323:5326   */\n      dup3\n        /* \"#utility.yul\":5316:5382   */\n      mstore\n        /* \"#utility.yul\":5225:5388   */\n      pop\n      pop\n      jump\t// out\n        /* \"#utility.yul\":5394:5648   */\n    tag_57:\n        /* \"#utility.yul\":5503:5507   */\n      0x00\n        /* \"#utility.yul\":5541:5543   */\n      0x20\n        /* \"#utility.yul\":5530:5539   */\n      dup3\n        /* \"#utility.yul\":5526:5544   */\n      add\n        /* \"#utility.yul\":5518:5544   */\n      swap1\n      pop\n        /* \"#utility.yul\":5554:5641   */\n      tag_480\n        /* \"#utility.yul\":5638:5639   */\n      0x00\n        /* \"#utility.yul\":5627:5636   */\n      dup4\n        /* \"#utility.yul\":5623:5640   */\n      add\n        /* \"#utility.yul\":5614:5620   */\n      dup5\n        /* \"#utility.yul\":5554:5641   */\n      tag_343\n      jump\t// in\n    tag_480:\n        /* \"#utility.yul\":5394:5648   */\n      swap3\n      swap2\n      pop\n      pop\n      jump\t// out\n        /* \"#utility.yul\":5654:5755   */\n    tag_344:\n        /* \"#utility.yul\":5690:5697   */\n      0x00\n        /* \"#utility.yul\":5730:5748   */\n      0xffffffffffffffff\n        /* \"#utility.yul\":5723:5728   */\n      dup3\n        /* \"#utility.yul\":5719:5749   */\n      and\n        /* \"#utility.yul\":5708:5749   */\n      swap1\n      pop\n        /* \"#utility.yul\":5654:5755   */\n      swap2\n      swap1\n      pop\n      jump\t// out\n        /* \"#utility.yul\":5761:5876   */\n    tag_345:\n        /* \"#utility.yul\":5846:5869   */\n      tag_483\n        /* \"#utility.yul\":5863:5868   */\n      dup2\n        /* \"#utility.yul\":5846:5869   */\n      tag_344\n      jump\t// in\n    tag_483:\n        /* \"#utility.yul\":5841:5844   */\n      dup3\n        /* \"#utility.yul\":5834:5870   */\n      mstore\n        /* \"#utility.yul\":5761:5876   */\n      pop\n      pop\n      jump\t// out\n        /* \"#utility.yul\":5882:5981   */\n    tag_346:\n        /* \"#utility.yul\":5934:5940   */\n      0x00\n        /* \"#utility.yul\":5968:5973   */\n      dup2\n        /* \"#utility.yul\":5962:5974   */\n      mload\n        /* \"#utility.yul\":5952:5974   */\n      swap1\n      pop\n        /* \"#utility.yul\":5882:5981   */\n      swap2\n      swap1\n      pop\n      jump\t// out\n        /* \"#utility.yul\":5987:6235   */\n    tag_347:\n        /* \"#utility.yul\":6069:6070   */\n      0x00\n        /* \"#utility.yul\":6079:6192   */\n    tag_486:\n        /* \"#utility.yul\":6093:6099   */\n      dup4\n        /* \"#utility.yul\":6090:6091   */\n      dup2\n        /* \"#utility.yul\":6087:6100   */\n      lt\n        /* \"#utility.yul\":6079:6192   */\n      iszero\n      tag_488\n      jumpi\n        /* \"#utility.yul\":6178:6179   */\n      dup1\n        /* \"#utility.yul\":6173:6176   */\n      dup3\n        /* \"#utility.yul\":6169:6180   */\n      add\n        /* \"#utility.yul\":6163:6181   */\n      mload\n        /* \"#utility.yul\":6159:6160   */\n      dup2\n        /* \"#utility.yul\":6154:6157   */\n      dup5\n        /* \"#utility.yul\":6150:6161   */\n      add\n        /* \"#utility.yul\":6143:6182   */\n      mstore\n        /* \"#utility.yul\":6115:6117   */\n      0x20\n        /* \"#utility.yul\":6112:6113   */\n      dup2\n        /* \"#utility.yul\":6108:6118   */\n      add\n        /* \"#utility.yul\":6103:6118   */\n      swap1\n      pop\n        /* \"#utility.yul\":6079:6192   */\n      jump(tag_486)\n    tag_488:\n        /* \"#utility.yul\":6226:6227   */\n      0x00\n        /* \"#utility.yul\":6217:6223   */\n      dup5\n        /* \"#utility.yul\":6212:6215   */\n      dup5\n        /* \"#utility.yul\":6208:6224   */\n      add\n        /* \"#utility.yul\":6201:6228   */\n      mstore\n        /* \"#utility.yul\":6049:6235   */\n      pop\n        /* \"#utility.yul\":5987:6235   */\n      pop\n      pop\n      pop\n      jump\t// out\n        /* \"#utility.yul\":6241:6343   */\n    tag_348:\n        /* \"#utility.yul\":6282:6288   */\n      0x00\n        /* \"#utility.yul\":6333:6335   */\n      0x1f\n        /* \"#utility.yul\":6329:6336   */\n      not\n        /* \"#utility.yul\":6324:6326   */\n      0x1f\n        /* \"#utility.yul\":6317:6322   */\n      dup4\n        /* \"#utility.yul\":6313:6327   */\n      add\n        /* \"#utility.yul\":6309:6337   */\n      and\n        /* \"#utility.yul\":6299:6337   */\n      swap1\n      pop\n        /* \"#utility.yul\":6241:6343   */\n      swap2\n      swap1\n      pop\n      jump\t// out\n        /* \"#utility.yul\":6349:6726   */\n    tag_349:\n        /* \"#utility.yul\":6437:6440   */\n      0x00\n        /* \"#utility.yul\":6465:6504   */\n      tag_491\n        /* \"#utility.yul\":6498:6503   */\n      dup3\n        /* \"#utility.yul\":6465:6504   */\n      tag_346\n      jump\t// in\n    tag_491:\n        /* \"#utility.yul\":6520:6591   */\n      tag_492\n        /* \"#utility.yul\":6584:6590   */\n      dup2\n        /* \"#utility.yul\":6579:6582   */\n      dup6\n        /* \"#utility.yul\":6520:6591   */\n      tag_326\n      jump\t// in\n    tag_492:\n        /* \"#utility.yul\":6513:6591   */\n      swap4\n      pop\n        /* \"#utility.yul\":6600:6665   */\n      tag_493\n        /* \"#utility.yul\":6658:6664   */\n      dup2\n        /* \"#utility.yul\":6653:6656   */\n      dup6\n        /* \"#utility.yul\":6646:6650   */\n      0x20\n        /* \"#utility.yul\":6639:6644   */\n      dup7\n        /* \"#utility.yul\":6635:6651   */\n      add\n        /* \"#utility.yul\":6600:6665   */\n      tag_347\n      jump\t// in\n    tag_493:\n        /* \"#utility.yul\":6690:6719   */\n      tag_494\n        /* \"#utility.yul\":6712:6718   */\n      dup2\n        /* \"#utility.yul\":6690:6719   */\n      tag_348\n      jump\t// in\n    tag_494:\n        /* \"#utility.yul\":6685:6688   */\n      dup5\n        /* \"#utility.yul\":6681:6720   */\n      add\n        /* \"#utility.yul\":6674:6720   */\n      swap2\n      pop\n        /* \"#utility.yul\":6441:6726   */\n      pop\n        /* \"#utility.yul\":6349:6726   */\n      swap3\n      swap2\n      pop\n      pop\n      jump\t// out\n        /* \"#utility.yul\":6732:7257   */\n    tag_62:\n        /* \"#utility.yul\":6897:6901   */\n      0x00\n        /* \"#utility.yul\":6935:6937   */\n      0x60\n        /* \"#utility.yul\":6924:6933   */\n      dup3\n        /* \"#utility.yul\":6920:6938   */\n      add\n        /* \"#utility.yul\":6912:6938   */\n      swap1\n      pop\n        /* \"#utility.yul\":6948:7017   */\n      tag_496\n        /* \"#utility.yul\":7014:7015   */\n      0x00\n        /* \"#utility.yul\":7003:7012   */\n      dup4\n        /* \"#utility.yul\":6999:7016   */\n      add\n        /* \"#utility.yul\":6990:6996   */\n      dup7\n        /* \"#utility.yul\":6948:7017   */\n      tag_345\n      jump\t// in\n    tag_496:\n        /* \"#utility.yul\":7027:7097   */\n      tag_497\n        /* \"#utility.yul\":7093:7095   */\n      0x20\n        /* \"#utility.yul\":7082:7091   */\n      dup4\n        /* \"#utility.yul\":7078:7096   */\n      add\n        /* \"#utility.yul\":7069:7075   */\n      dup6\n        /* \"#utility.yul\":7027:7097   */\n      tag_345\n      jump\t// in\n    tag_497:\n        /* \"#utility.yul\":7144:7153   */\n      dup2\n        /* \"#utility.yul\":7138:7142   */\n      dup2\n        /* \"#utility.yul\":7134:7154   */\n      sub\n        /* \"#utility.yul\":7129:7131   */\n      0x40\n        /* \"#utility.yul\":7118:7127   */\n      dup4\n        /* \"#utility.yul\":7114:7132   */\n      add\n        /* \"#utility.yul\":7107:7155   */\n      mstore\n        /* \"#utility.yul\":7172:7250   */\n      tag_498\n        /* \"#utility.yul\":7245:7249   */\n      dup2\n        /* \"#utility.yul\":7236:7242   */\n      dup5\n        /* \"#utility.yul\":7172:7250   */\n      tag_349\n      jump\t// in\n    tag_498:\n        /* \"#utility.yul\":7164:7250   */\n      swap1\n      pop\n        /* \"#utility.yul\":6732:7257   */\n      swap5\n      swap4\n      pop\n      pop\n      pop\n      pop\n      jump\t// out\n        /* \"#utility.yul\":7263:7383   */\n    tag_350:\n        /* \"#utility.yul\":7335:7358   */\n      tag_500\n        /* \"#utility.yul\":7352:7357   */\n      dup2\n        /* \"#utility.yul\":7335:7358   */\n      tag_344\n      jump\t// in\n    tag_500:\n        /* \"#utility.yul\":7328:7333   */\n      dup2\n        /* \"#utility.yul\":7325:7359   */\n      eq\n        /* \"#utility.yul\":7315:7377   */\n      tag_501\n      jumpi\n        /* \"#utility.yul\":7373:7374   */\n      0x00\n        /* \"#utility.yul\":7370:7371   */\n      dup1\n        /* \"#utility.yul\":7363:7375   */\n      revert\n        /* \"#utility.yul\":7315:7377   */\n    tag_501:\n        /* \"#utility.yul\":7263:7383   */\n      pop\n      jump\t// out\n        /* \"#utility.yul\":7389:7526   */\n    tag_351:\n        /* \"#utility.yul\":7434:7439   */\n      0x00\n        /* \"#utility.yul\":7472:7478   */\n      dup2\n        /* \"#utility.yul\":7459:7479   */\n      calldataload\n        /* \"#utility.yul\":7450:7479   */\n      swap1\n      pop\n        /* \"#utility.yul\":7488:7520   */\n      tag_503\n        /* \"#utility.yul\":7514:7519   */\n      dup2\n        /* \"#utility.yul\":7488:7520   */\n      tag_350\n      jump\t// in\n    tag_503:\n        /* \"#utility.yul\":7389:7526   */\n      swap3\n      swap2\n      pop\n      pop\n      jump\t// out\n        /* \"#utility.yul\":7532:7649   */\n    tag_352:\n        /* \"#utility.yul\":7641:7642   */\n      0x00\n        /* \"#utility.yul\":7638:7639   */\n      dup1\n        /* \"#utility.yul\":7631:7643   */\n      revert\n        /* \"#utility.yul\":7655:7772   */\n    tag_353:\n        /* \"#utility.yul\":7764:7765   */\n      0x00\n        /* \"#utility.yul\":7761:7762   */\n      dup1\n        /* \"#utility.yul\":7754:7766   */\n      revert\n        /* \"#utility.yul\":7778:7958   */\n    tag_354:\n        /* \"#utility.yul\":7826:7903   */\n      0x4e487b7100000000000000000000000000000000000000000000000000000000\n        /* \"#utility.yul\":7823:7824   */\n      0x00\n        /* \"#utility.yul\":7816:7904   */\n      mstore\n        /* \"#utility.yul\":7923:7927   */\n      0x41\n        /* \"#utility.yul\":7920:7921   */\n      0x04\n        /* \"#utility.yul\":7913:7928   */\n      mstore\n        /* \"#utility.yul\":7947:7951   */\n      0x24\n        /* \"#utility.yul\":7944:7945   */\n      0x00\n        /* \"#utility.yul\":7937:7952   */\n      revert\n        /* \"#utility.yul\":7964:8245   */\n    tag_355:\n        /* \"#utility.yul\":8047:8074   */\n      tag_508\n        /* \"#utility.yul\":8069:8073   */\n      dup3\n        /* \"#utility.yul\":8047:8074   */\n      tag_348\n      jump\t// in\n    tag_508:\n        /* \"#utility.yul\":8039:8045   */\n      dup2\n        /* \"#utility.yul\":8035:8075   */\n      add\n        /* \"#utility.yul\":8177:8183   */\n      dup2\n        /* \"#utility.yul\":8165:8175   */\n      dup2\n        /* \"#utility.yul\":8162:8184   */\n      lt\n        /* \"#utility.yul\":8141:8159   */\n      0xffffffffffffffff\n        /* \"#utility.yul\":8129:8139   */\n      dup3\n        /* \"#utility.yul\":8126:8160   */\n      gt\n        /* \"#utility.yul\":8123:8185   */\n      or\n        /* \"#utility.yul\":8120:8208   */\n      iszero\n      tag_509\n      jumpi\n        /* \"#utility.yul\":8188:8206   */\n      tag_510\n      tag_354\n      jump\t// in\n    tag_510:\n        /* \"#utility.yul\":8120:8208   */\n    tag_509:\n        /* \"#utility.yul\":8228:8238   */\n      dup1\n        /* \"#utility.yul\":8224:8226   */\n      0x40\n        /* \"#utility.yul\":8217:8239   */\n      mstore\n        /* \"#utility.yul\":8007:8245   */\n      pop\n        /* \"#utility.yul\":7964:8245   */\n      pop\n      pop\n      jump\t// out\n        /* \"#utility.yul\":8251:8380   */\n    tag_356:\n        /* \"#utility.yul\":8285:8291   */\n      0x00\n        /* \"#utility.yul\":8312:8332   */\n      tag_512\n      tag_329\n      jump\t// in\n    tag_512:\n        /* \"#utility.yul\":8302:8332   */\n      swap1\n      pop\n        /* \"#utility.yul\":8341:8374   */\n      tag_513\n        /* \"#utility.yul\":8369:8373   */\n      dup3\n        /* \"#utility.yul\":8361:8367   */\n      dup3\n        /* \"#utility.yul\":8341:8374   */\n      tag_355\n      jump\t// in\n    tag_513:\n        /* \"#utility.yul\":8251:8380   */\n      swap2\n      swap1\n      pop\n      jump\t// out\n        /* \"#utility.yul\":8386:8694   */\n    tag_357:\n        /* \"#utility.yul\":8448:8452   */\n      0x00\n        /* \"#utility.yul\":8538:8556   */\n      0xffffffffffffffff\n        /* \"#utility.yul\":8530:8536   */\n      dup3\n        /* \"#utility.yul\":8527:8557   */\n      gt\n        /* \"#utility.yul\":8524:8580   */\n      iszero\n      tag_515\n      jumpi\n        /* \"#utility.yul\":8560:8578   */\n      tag_516\n      tag_354\n      jump\t// in\n    tag_516:\n        /* \"#utility.yul\":8524:8580   */\n    tag_515:\n        /* \"#utility.yul\":8598:8627   */\n      tag_517\n        /* \"#utility.yul\":8620:8626   */\n      dup3\n        /* \"#utility.yul\":8598:8627   */\n      tag_348\n      jump\t// in\n    tag_517:\n        /* \"#utility.yul\":8590:8627   */\n      swap1\n      pop\n        /* \"#utility.yul\":8682:8686   */\n      0x20\n        /* \"#utility.yul\":8676:8680   */\n      dup2\n        /* \"#utility.yul\":8672:8687   */\n      add\n        /* \"#utility.yul\":8664:8687   */\n      swap1\n      pop\n        /* \"#utility.yul\":8386:8694   */\n      swap2\n      swap1\n      pop\n      jump\t// out\n        /* \"#utility.yul\":8700:8848   */\n    tag_358:\n        /* \"#utility.yul\":8798:8804   */\n      dup3\n        /* \"#utility.yul\":8793:8796   */\n      dup2\n        /* \"#utility.yul\":8788:8791   */\n      dup4\n        /* \"#utility.yul\":8775:8805   */\n      calldatacopy\n        /* \"#utility.yul\":8839:8840   */\n      0x00\n        /* \"#utility.yul\":8830:8836   */\n      dup4\n        /* \"#utility.yul\":8825:8828   */\n      dup4\n        /* \"#utility.yul\":8821:8837   */\n      add\n        /* \"#utility.yul\":8814:8841   */\n      mstore\n        /* \"#utility.yul\":8700:8848   */\n      pop\n      pop\n      pop\n      jump\t// out\n        /* \"#utility.yul\":8854:9279   */\n    tag_359:\n        /* \"#utility.yul\":8932:8937   */\n      0x00\n        /* \"#utility.yul\":8957:9023   */\n      tag_520\n        /* \"#utility.yul\":8973:9022   */\n      tag_521\n        /* \"#utility.yul\":9015:9021   */\n      dup5\n        /* \"#utility.yul\":8973:9022   */\n      tag_357\n      jump\t// in\n    tag_521:\n        /* \"#utility.yul\":8957:9023   */\n      tag_356\n      jump\t// in\n    tag_520:\n        /* \"#utility.yul\":8948:9023   */\n      swap1\n      pop\n        /* \"#utility.yul\":9046:9052   */\n      dup3\n        /* \"#utility.yul\":9039:9044   */\n      dup2\n        /* \"#utility.yul\":9032:9053   */\n      mstore\n        /* \"#utility.yul\":9084:9088   */\n      0x20\n        /* \"#utility.yul\":9077:9082   */\n      dup2\n        /* \"#utility.yul\":9073:9089   */\n      add\n        /* \"#utility.yul\":9122:9125   */\n      dup5\n        /* \"#utility.yul\":9113:9119   */\n      dup5\n        /* \"#utility.yul\":9108:9111   */\n      dup5\n        /* \"#utility.yul\":9104:9120   */\n      add\n        /* \"#utility.yul\":9101:9126   */\n      gt\n        /* \"#utility.yul\":9098:9210   */\n      iszero\n      tag_522\n      jumpi\n        /* \"#utility.yul\":9129:9208   */\n      tag_523\n      tag_353\n      jump\t// in\n    tag_523:\n        /* \"#utility.yul\":9098:9210   */\n    tag_522:\n        /* \"#utility.yul\":9219:9273   */\n      tag_524\n        /* \"#utility.yul\":9266:9272   */\n      dup5\n        /* \"#utility.yul\":9261:9264   */\n      dup3\n        /* \"#utility.yul\":9256:9259   */\n      dup6\n        /* \"#utility.yul\":9219:9273   */\n      tag_358\n      jump\t// in\n    tag_524:\n        /* \"#utility.yul\":8938:9279   */\n      pop\n        /* \"#utility.yul\":8854:9279   */\n      swap4\n      swap3\n      pop\n      pop\n      pop\n      jump\t// out\n        /* \"#utility.yul\":9299:9639   */\n    tag_360:\n        /* \"#utility.yul\":9355:9360   */\n      0x00\n        /* \"#utility.yul\":9404:9407   */\n      dup3\n        /* \"#utility.yul\":9397:9401   */\n      0x1f\n        /* \"#utility.yul\":9389:9395   */\n      dup4\n        /* \"#utility.yul\":9385:9402   */\n      add\n        /* \"#utility.yul\":9381:9408   */\n      slt\n        /* \"#utility.yul\":9371:9493   */\n      tag_526\n      jumpi\n        /* \"#utility.yul\":9412:9491   */\n      tag_527\n      tag_352\n      jump\t// in\n    tag_527:\n        /* \"#utility.yul\":9371:9493   */\n    tag_526:\n        /* \"#utility.yul\":9529:9535   */\n      dup2\n        /* \"#utility.yul\":9516:9536   */\n      calldataload\n        /* \"#utility.yul\":9554:9633   */\n      tag_528\n        /* \"#utility.yul\":9629:9632   */\n      dup5\n        /* \"#utility.yul\":9621:9627   */\n      dup3\n        /* \"#utility.yul\":9614:9618   */\n      0x20\n        /* \"#utility.yul\":9606:9612   */\n      dup7\n        /* \"#utility.yul\":9602:9619   */\n      add\n        /* \"#utility.yul\":9554:9633   */\n      tag_359\n      jump\t// in\n    tag_528:\n        /* \"#utility.yul\":9545:9633   */\n      swap2\n      pop\n        /* \"#utility.yul\":9361:9639   */\n      pop\n        /* \"#utility.yul\":9299:9639   */\n      swap3\n      swap2\n      pop\n      pop\n      jump\t// out\n        /* \"#utility.yul\":9645:10440   */\n    tag_70:\n        /* \"#utility.yul\":9730:9736   */\n      0x00\n        /* \"#utility.yul\":9738:9744   */\n      dup1\n        /* \"#utility.yul\":9746:9752   */\n      0x00\n        /* \"#utility.yul\":9795:9797   */\n      0x60\n        /* \"#utility.yul\":9783:9792   */\n      dup5\n        /* \"#utility.yul\":9774:9781   */\n      dup7\n        /* \"#utility.yul\":9770:9793   */\n      sub\n        /* \"#utility.yul\":9766:9798   */\n      slt\n        /* \"#utility.yul\":9763:9882   */\n      iszero\n      tag_530\n      jumpi\n        /* \"#utility.yul\":9801:9880   */\n      tag_531\n      tag_330\n      jump\t// in\n    tag_531:\n        /* \"#utility.yul\":9763:9882   */\n    tag_530:\n        /* \"#utility.yul\":9921:9922   */\n      0x00\n        /* \"#utility.yul\":9946:9998   */\n      tag_532\n        /* \"#utility.yul\":9990:9997   */\n      dup7\n        /* \"#utility.yul\":9981:9987   */\n      dup3\n        /* \"#utility.yul\":9970:9979   */\n      dup8\n        /* \"#utility.yul\":9966:9988   */\n      add\n        /* \"#utility.yul\":9946:9998   */\n      tag_351\n      jump\t// in\n    tag_532:\n        /* \"#utility.yul\":9936:9998   */\n      swap4\n      pop\n        /* \"#utility.yul\":9892:10008   */\n      pop\n        /* \"#utility.yul\":10047:10049   */\n      0x20\n        /* \"#utility.yul\":10073:10125   */\n      tag_533\n        /* \"#utility.yul\":10117:10124   */\n      dup7\n        /* \"#utility.yul\":10108:10114   */\n      dup3\n        /* \"#utility.yul\":10097:10106   */\n      dup8\n        /* \"#utility.yul\":10093:10115   */\n      add\n        /* \"#utility.yul\":10073:10125   */\n      tag_351\n      jump\t// in\n    tag_533:\n        /* \"#utility.yul\":10063:10125   */\n      swap3\n      pop\n        /* \"#utility.yul\":10018:10135   */\n      pop\n        /* \"#utility.yul\":10202:10204   */\n      0x40\n        /* \"#utility.yul\":10191:10200   */\n      dup5\n        /* \"#utility.yul\":10187:10205   */\n      add\n        /* \"#utility.yul\":10174:10206   */\n      calldataload\n        /* \"#utility.yul\":10233:10251   */\n      0xffffffffffffffff\n        /* \"#utility.yul\":10225:10231   */\n      dup2\n        /* \"#utility.yul\":10222:10252   */\n      gt\n        /* \"#utility.yul\":10219:10336   */\n      iszero\n      tag_534\n      jumpi\n        /* \"#utility.yul\":10255:10334   */\n      tag_535\n      tag_331\n      jump\t// in\n    tag_535:\n        /* \"#utility.yul\":10219:10336   */\n    tag_534:\n        /* \"#utility.yul\":10360:10423   */\n      tag_536\n        /* \"#utility.yul\":10415:10422   */\n      dup7\n        /* \"#utility.yul\":10406:10412   */\n      dup3\n        /* \"#utility.yul\":10395:10404   */\n      dup8\n        /* \"#utility.yul\":10391:10413   */\n      add\n        /* \"#utility.yul\":10360:10423   */\n      tag_360\n      jump\t// in\n    tag_536:\n        /* \"#utility.yul\":10350:10423   */\n      swap2\n      pop\n        /* \"#utility.yul\":10145:10433   */\n      pop\n        /* \"#utility.yul\":9645:10440   */\n      swap3\n      pop\n      swap3\n      pop\n      swap3\n      jump\t// out\n        /* \"#utility.yul\":10446:11065   */\n    tag_85:\n        /* \"#utility.yul\":10523:10529   */\n      0x00\n        /* \"#utility.yul\":10531:10537   */\n      dup1\n        /* \"#utility.yul\":10539:10545   */\n      0x00\n        /* \"#utility.yul\":10588:10590   */\n      0x60\n        /* \"#utility.yul\":10576:10585   */\n      dup5\n        /* \"#utility.yul\":10567:10574   */\n      dup7\n        /* \"#utility.yul\":10563:10586   */\n      sub\n        /* \"#utility.yul\":10559:10591   */\n      slt\n        /* \"#utility.yul\":10556:10675   */\n      iszero\n      tag_538\n      jumpi\n        /* \"#utility.yul\":10594:10673   */\n      tag_539\n      tag_330\n      jump\t// in\n    tag_539:\n        /* \"#utility.yul\":10556:10675   */\n    tag_538:\n        /* \"#utility.yul\":10714:10715   */\n      0x00\n        /* \"#utility.yul\":10739:10792   */\n      tag_540\n        /* \"#utility.yul\":10784:10791   */\n      dup7\n        /* \"#utility.yul\":10775:10781   */\n      dup3\n        /* \"#utility.yul\":10764:10773   */\n      dup8\n        /* \"#utility.yul\":10760:10782   */\n      add\n        /* \"#utility.yul\":10739:10792   */\n      tag_335\n      jump\t// in\n    tag_540:\n        /* \"#utility.yul\":10729:10792   */\n      swap4\n      pop\n        /* \"#utility.yul\":10685:10802   */\n      pop\n        /* \"#utility.yul\":10841:10843   */\n      0x20\n        /* \"#utility.yul\":10867:10920   */\n      tag_541\n        /* \"#utility.yul\":10912:10919   */\n      dup7\n        /* \"#utility.yul\":10903:10909   */\n      dup3\n        /* \"#utility.yul\":10892:10901   */\n      dup8\n        /* \"#utility.yul\":10888:10910   */\n      add\n        /* \"#utility.yul\":10867:10920   */\n      tag_335\n      jump\t// in\n    tag_541:\n        /* \"#utility.yul\":10857:10920   */\n      swap3\n      pop\n        /* \"#utility.yul\":10812:10930   */\n      pop\n        /* \"#utility.yul\":10969:10971   */\n      0x40\n        /* \"#utility.yul\":10995:11048   */\n      tag_542\n        /* \"#utility.yul\":11040:11047   */\n      dup7\n        /* \"#utility.yul\":11031:11037   */\n      dup3\n        /* \"#utility.yul\":11020:11029   */\n      dup8\n        /* \"#utility.yul\":11016:11038   */\n      add\n        /* \"#utility.yul\":10995:11048   */\n      tag_338\n      jump\t// in\n    tag_542:\n        /* \"#utility.yul\":10985:11048   */\n      swap2\n      pop\n        /* \"#utility.yul\":10940:11058   */\n      pop\n        /* \"#utility.yul\":10446:11065   */\n      swap3\n      pop\n      swap3\n      pop\n      swap3\n      jump\t// out\n        /* \"#utility.yul\":11071:11188   */\n    tag_361:\n        /* \"#utility.yul\":11180:11181   */\n      0x00\n        /* \"#utility.yul\":11177:11178   */\n      dup1\n        /* \"#utility.yul\":11170:11182   */\n      revert\n        /* \"#utility.yul\":11194:11311   */\n    tag_362:\n        /* \"#utility.yul\":11303:11304   */\n      0x00\n        /* \"#utility.yul\":11300:11301   */\n      dup1\n        /* \"#utility.yul\":11293:11305   */\n      revert\n        /* \"#utility.yul\":11334:11902   */\n    tag_363:\n        /* \"#utility.yul\":11407:11415   */\n      0x00\n        /* \"#utility.yul\":11417:11423   */\n      dup1\n        /* \"#utility.yul\":11467:11470   */\n      dup4\n        /* \"#utility.yul\":11460:11464   */\n      0x1f\n        /* \"#utility.yul\":11452:11458   */\n      dup5\n        /* \"#utility.yul\":11448:11465   */\n      add\n        /* \"#utility.yul\":11444:11471   */\n      slt\n        /* \"#utility.yul\":11434:11556   */\n      tag_546\n      jumpi\n        /* \"#utility.yul\":11475:11554   */\n      tag_547\n      tag_352\n      jump\t// in\n    tag_547:\n        /* \"#utility.yul\":11434:11556   */\n    tag_546:\n        /* \"#utility.yul\":11588:11594   */\n      dup3\n        /* \"#utility.yul\":11575:11595   */\n      calldataload\n        /* \"#utility.yul\":11565:11595   */\n      swap1\n      pop\n        /* \"#utility.yul\":11618:11636   */\n      0xffffffffffffffff\n        /* \"#utility.yul\":11610:11616   */\n      dup2\n        /* \"#utility.yul\":11607:11637   */\n      gt\n        /* \"#utility.yul\":11604:11721   */\n      iszero\n      tag_548\n      jumpi\n        /* \"#utility.yul\":11640:11719   */\n      tag_549\n      tag_361\n      jump\t// in\n    tag_549:\n        /* \"#utility.yul\":11604:11721   */\n    tag_548:\n        /* \"#utility.yul\":11754:11758   */\n      0x20\n        /* \"#utility.yul\":11746:11752   */\n      dup4\n        /* \"#utility.yul\":11742:11759   */\n      add\n        /* \"#utility.yul\":11730:11759   */\n      swap2\n      pop\n        /* \"#utility.yul\":11808:11811   */\n      dup4\n        /* \"#utility.yul\":11800:11804   */\n      0x20\n        /* \"#utility.yul\":11792:11798   */\n      dup3\n        /* \"#utility.yul\":11788:11805   */\n      mul\n        /* \"#utility.yul\":11778:11786   */\n      dup4\n        /* \"#utility.yul\":11774:11806   */\n      add\n        /* \"#utility.yul\":11771:11812   */\n      gt\n        /* \"#utility.yul\":11768:11896   */\n      iszero\n      tag_550\n      jumpi\n        /* \"#utility.yul\":11815:11894   */\n      tag_551\n      tag_362\n      jump\t// in\n    tag_551:\n        /* \"#utility.yul\":11768:11896   */\n    tag_550:\n        /* \"#utility.yul\":11334:11902   */\n      swap3\n      pop\n      swap3\n      swap1\n      pop\n      jump\t// out\n        /* \"#utility.yul\":11925:12493   */\n    tag_364:\n        /* \"#utility.yul\":11998:12006   */\n      0x00\n        /* \"#utility.yul\":12008:12014   */\n      dup1\n        /* \"#utility.yul\":12058:12061   */\n      dup4\n        /* \"#utility.yul\":12051:12055   */\n      0x1f\n        /* \"#utility.yul\":12043:12049   */\n      dup5\n        /* \"#utility.yul\":12039:12056   */\n      add\n        /* \"#utility.yul\":12035:12062   */\n      slt\n        /* \"#utility.yul\":12025:12147   */\n      tag_553\n      jumpi\n        /* \"#utility.yul\":12066:12145   */\n      tag_554\n      tag_352\n      jump\t// in\n    tag_554:\n        /* \"#utility.yul\":12025:12147   */\n    tag_553:\n        /* \"#utility.yul\":12179:12185   */\n      dup3\n        /* \"#utility.yul\":12166:12186   */\n      calldataload\n        /* \"#utility.yul\":12156:12186   */\n      swap1\n      pop\n        /* \"#utility.yul\":12209:12227   */\n      0xffffffffffffffff\n        /* \"#utility.yul\":12201:12207   */\n      dup2\n        /* \"#utility.yul\":12198:12228   */\n      gt\n        /* \"#utility.yul\":12195:12312   */\n      iszero\n      tag_555\n      jumpi\n        /* \"#utility.yul\":12231:12310   */\n      tag_556\n      tag_361\n      jump\t// in\n    tag_556:\n        /* \"#utility.yul\":12195:12312   */\n    tag_555:\n        /* \"#utility.yul\":12345:12349   */\n      0x20\n        /* \"#utility.yul\":12337:12343   */\n      dup4\n        /* \"#utility.yul\":12333:12350   */\n      add\n        /* \"#utility.yul\":12321:12350   */\n      swap2\n      pop\n        /* \"#utility.yul\":12399:12402   */\n      dup4\n        /* \"#utility.yul\":12391:12395   */\n      0x20\n        /* \"#utility.yul\":12383:12389   */\n      dup3\n        /* \"#utility.yul\":12379:12396   */\n      mul\n        /* \"#utility.yul\":12369:12377   */\n      dup4\n        /* \"#utility.yul\":12365:12397   */\n      add\n        /* \"#utility.yul\":12362:12403   */\n      gt\n        /* \"#utility.yul\":12359:12487   */\n      iszero\n      tag_557\n      jumpi\n        /* \"#utility.yul\":12406:12485   */\n      tag_558\n      tag_362\n      jump\t// in\n    tag_558:\n        /* \"#utility.yul\":12359:12487   */\n    tag_557:\n        /* \"#utility.yul\":11925:12493   */\n      swap3\n      pop\n      swap3\n      swap1\n      pop\n      jump\t// out\n        /* \"#utility.yul\":12499:13578   */\n    tag_90:\n        /* \"#utility.yul\":12630:12636   */\n      0x00\n        /* \"#utility.yul\":12638:12644   */\n      dup1\n        /* \"#utility.yul\":12646:12652   */\n      0x00\n        /* \"#utility.yul\":12654:12660   */\n      dup1\n        /* \"#utility.yul\":12662:12668   */\n      0x00\n        /* \"#utility.yul\":12711:12713   */\n      0x60\n        /* \"#utility.yul\":12699:12708   */\n      dup7\n        /* \"#utility.yul\":12690:12697   */\n      dup9\n        /* \"#utility.yul\":12686:12709   */\n      sub\n        /* \"#utility.yul\":12682:12714   */\n      slt\n        /* \"#utility.yul\":12679:12798   */\n      iszero\n      tag_560\n      jumpi\n        /* \"#utility.yul\":12717:12796   */\n      tag_561\n      tag_330\n      jump\t// in\n    tag_561:\n        /* \"#utility.yul\":12679:12798   */\n    tag_560:\n        /* \"#utility.yul\":12837:12838   */\n      0x00\n        /* \"#utility.yul\":12862:12915   */\n      tag_562\n        /* \"#utility.yul\":12907:12914   */\n      dup9\n        /* \"#utility.yul\":12898:12904   */\n      dup3\n        /* \"#utility.yul\":12887:12896   */\n      dup10\n        /* \"#utility.yul\":12883:12905   */\n      add\n        /* \"#utility.yul\":12862:12915   */\n      tag_335\n      jump\t// in\n    tag_562:\n        /* \"#utility.yul\":12852:12915   */\n      swap6\n      pop\n        /* \"#utility.yul\":12808:12925   */\n      pop\n        /* \"#utility.yul\":12992:12994   */\n      0x20\n        /* \"#utility.yul\":12981:12990   */\n      dup7\n        /* \"#utility.yul\":12977:12995   */\n      add\n        /* \"#utility.yul\":12964:12996   */\n      calldataload\n        /* \"#utility.yul\":13023:13041   */\n      0xffffffffffffffff\n        /* \"#utility.yul\":13015:13021   */\n      dup2\n        /* \"#utility.yul\":13012:13042   */\n      gt\n        /* \"#utility.yul\":13009:13126   */\n      iszero\n      tag_563\n      jumpi\n        /* \"#utility.yul\":13045:13124   */\n      tag_564\n      tag_331\n      jump\t// in\n    tag_564:\n        /* \"#utility.yul\":13009:13126   */\n    tag_563:\n        /* \"#utility.yul\":13158:13238   */\n      tag_565\n        /* \"#utility.yul\":13230:13237   */\n      dup9\n        /* \"#utility.yul\":13221:13227   */\n      dup3\n        /* \"#utility.yul\":13210:13219   */\n      dup10\n        /* \"#utility.yul\":13206:13228   */\n      add\n        /* \"#utility.yul\":13158:13238   */\n      tag_363\n      jump\t// in\n    tag_565:\n        /* \"#utility.yul\":13140:13238   */\n      swap5\n      pop\n      swap5\n      pop\n        /* \"#utility.yul\":12935:13248   */\n      pop\n        /* \"#utility.yul\":13315:13317   */\n      0x40\n        /* \"#utility.yul\":13304:13313   */\n      dup7\n        /* \"#utility.yul\":13300:13318   */\n      add\n        /* \"#utility.yul\":13287:13319   */\n      calldataload\n        /* \"#utility.yul\":13346:13364   */\n      0xffffffffffffffff\n        /* \"#utility.yul\":13338:13344   */\n      dup2\n        /* \"#utility.yul\":13335:13365   */\n      gt\n        /* \"#utility.yul\":13332:13449   */\n      iszero\n      tag_566\n      jumpi\n        /* \"#utility.yul\":13368:13447   */\n      tag_567\n      tag_331\n      jump\t// in\n    tag_567:\n        /* \"#utility.yul\":13332:13449   */\n    tag_566:\n        /* \"#utility.yul\":13481:13561   */\n      tag_568\n        /* \"#utility.yul\":13553:13560   */\n      dup9\n        /* \"#utility.yul\":13544:13550   */\n      dup3\n        /* \"#utility.yul\":13533:13542   */\n      dup10\n        /* \"#utility.yul\":13529:13551   */\n      add\n        /* \"#utility.yul\":13481:13561   */\n      tag_364\n      jump\t// in\n    tag_568:\n        /* \"#utility.yul\":13463:13561   */\n      swap3\n      pop\n      swap3\n      pop\n        /* \"#utility.yul\":13258:13571   */\n      pop\n        /* \"#utility.yul\":12499:13578   */\n      swap3\n      swap6\n      pop\n      swap3\n      swap6\n      swap1\n      swap4\n      pop\n      jump\t// out\n        /* \"#utility.yul\":13584:13724   */\n    tag_365:\n        /* \"#utility.yul\":13633:13642   */\n      0x00\n        /* \"#utility.yul\":13666:13718   */\n      tag_570\n        /* \"#utility.yul\":13684:13717   */\n      tag_571\n        /* \"#utility.yul\":13693:13716   */\n      tag_572\n        /* \"#utility.yul\":13710:13715   */\n      dup5\n        /* \"#utility.yul\":13693:13716   */\n      tag_344\n      jump\t// in\n    tag_572:\n        /* \"#utility.yul\":13684:13717   */\n      tag_339\n      jump\t// in\n    tag_571:\n        /* \"#utility.yul\":13666:13718   */\n      tag_323\n      jump\t// in\n    tag_570:\n        /* \"#utility.yul\":13653:13718   */\n      swap1\n      pop\n        /* \"#utility.yul\":13584:13724   */\n      swap2\n      swap1\n      pop\n      jump\t// out\n        /* \"#utility.yul\":13730:13859   */\n    tag_366:\n        /* \"#utility.yul\":13816:13852   */\n      tag_574\n        /* \"#utility.yul\":13846:13851   */\n      dup2\n        /* \"#utility.yul\":13816:13852   */\n      tag_365\n      jump\t// in\n    tag_574:\n        /* \"#utility.yul\":13811:13814   */\n      dup3\n        /* \"#utility.yul\":13804:13853   */\n      mstore\n        /* \"#utility.yul\":13730:13859   */\n      pop\n      pop\n      jump\t// out\n        /* \"#utility.yul\":13865:14303   */\n    tag_107:\n        /* \"#utility.yul\":14012:14016   */\n      0x00\n        /* \"#utility.yul\":14050:14052   */\n      0x60\n        /* \"#utility.yul\":14039:14048   */\n      dup3\n        /* \"#utility.yul\":14035:14053   */\n      add\n        /* \"#utility.yul\":14027:14053   */\n      swap1\n      pop\n        /* \"#utility.yul\":14063:14134   */\n      tag_576\n        /* \"#utility.yul\":14131:14132   */\n      0x00\n        /* \"#utility.yul\":14120:14129   */\n      dup4\n        /* \"#utility.yul\":14116:14133   */\n      add\n        /* \"#utility.yul\":14107:14113   */\n      dup7\n        /* \"#utility.yul\":14063:14134   */\n      tag_325\n      jump\t// in\n    tag_576:\n        /* \"#utility.yul\":14144:14215   */\n      tag_577\n        /* \"#utility.yul\":14211:14213   */\n      0x20\n        /* \"#utility.yul\":14200:14209   */\n      dup4\n        /* \"#utility.yul\":14196:14214   */\n      add\n        /* \"#utility.yul\":14187:14193   */\n      dup6\n        /* \"#utility.yul\":14144:14215   */\n      tag_366\n      jump\t// in\n    tag_577:\n        /* \"#utility.yul\":14225:14296   */\n      tag_578\n        /* \"#utility.yul\":14292:14294   */\n      0x40\n        /* \"#utility.yul\":14281:14290   */\n      dup4\n        /* \"#utility.yul\":14277:14295   */\n      add\n        /* \"#utility.yul\":14268:14274   */\n      dup5\n        /* \"#utility.yul\":14225:14296   */\n      tag_366\n      jump\t// in\n    tag_578:\n        /* \"#utility.yul\":13865:14303   */\n      swap5\n      swap4\n      pop\n      pop\n      pop\n      pop\n      jump\t// out\n        /* \"#utility.yul\":14309:14478   */\n    tag_367:\n        /* \"#utility.yul\":14449:14470   */\n      0x4e6f20636c61696d61626c6520616d6f756e7400000000000000000000000000\n        /* \"#utility.yul\":14445:14446   */\n      0x00\n        /* \"#utility.yul\":14437:14443   */\n      dup3\n        /* \"#utility.yul\":14433:14447   */\n      add\n        /* \"#utility.yul\":14426:14471   */\n      mstore\n        /* \"#utility.yul\":14309:14478   */\n      pop\n      jump\t// out\n        /* \"#utility.yul\":14484:14850   */\n    tag_368:\n        /* \"#utility.yul\":14626:14629   */\n      0x00\n        /* \"#utility.yul\":14647:14714   */\n      tag_581\n        /* \"#utility.yul\":14711:14713   */\n      0x13\n        /* \"#utility.yul\":14706:14709   */\n      dup4\n        /* \"#utility.yul\":14647:14714   */\n      tag_326\n      jump\t// in\n    tag_581:\n        /* \"#utility.yul\":14640:14714   */\n      swap2\n      pop\n        /* \"#utility.yul\":14723:14816   */\n      tag_582\n        /* \"#utility.yul\":14812:14815   */\n      dup3\n        /* \"#utility.yul\":14723:14816   */\n      tag_367\n      jump\t// in\n    tag_582:\n        /* \"#utility.yul\":14841:14843   */\n      0x20\n        /* \"#utility.yul\":14836:14839   */\n      dup3\n        /* \"#utility.yul\":14832:14844   */\n      add\n        /* \"#utility.yul\":14825:14844   */\n      swap1\n      pop\n        /* \"#utility.yul\":14484:14850   */\n      swap2\n      swap1\n      pop\n      jump\t// out\n        /* \"#utility.yul\":14856:15275   */\n    tag_110:\n        /* \"#utility.yul\":15022:15026   */\n      0x00\n        /* \"#utility.yul\":15060:15062   */\n      0x20\n        /* \"#utility.yul\":15049:15058   */\n      dup3\n        /* \"#utility.yul\":15045:15063   */\n      add\n        /* \"#utility.yul\":15037:15063   */\n      swap1\n      pop\n        /* \"#utility.yul\":15109:15118   */\n      dup2\n        /* \"#utility.yul\":15103:15107   */\n      dup2\n        /* \"#utility.yul\":15099:15119   */\n      sub\n        /* \"#utility.yul\":15095:15096   */\n      0x00\n        /* \"#utility.yul\":15084:15093   */\n      dup4\n        /* \"#utility.yul\":15080:15097   */\n      add\n        /* \"#utility.yul\":15073:15120   */\n      mstore\n        /* \"#utility.yul\":15137:15268   */\n      tag_584\n        /* \"#utility.yul\":15263:15267   */\n      dup2\n        /* \"#utility.yul\":15137:15268   */\n      tag_368\n      jump\t// in\n    tag_584:\n        /* \"#utility.yul\":15129:15268   */\n      swap1\n      pop\n        /* \"#utility.yul\":14856:15275   */\n      swap2\n      swap1\n      pop\n      jump\t// out\n        /* \"#utility.yul\":15281:15456   */\n    tag_369:\n        /* \"#utility.yul\":15421:15448   */\n      0x496e73756666696369656e742066756e647320696e206a617200000000000000\n        /* \"#utility.yul\":15417:15418   */\n      0x00\n        /* \"#utility.yul\":15409:15415   */\n      dup3\n        /* \"#utility.yul\":15405:15419   */\n      add\n        /* \"#utility.yul\":15398:15449   */\n      mstore\n        /* \"#utility.yul\":15281:15456   */\n      pop\n      jump\t// out\n        /* \"#utility.yul\":15462:15828   */\n    tag_370:\n        /* \"#utility.yul\":15604:15607   */\n      0x00\n        /* \"#utility.yul\":15625:15692   */\n      tag_587\n        /* \"#utility.yul\":15689:15691   */\n      0x19\n        /* \"#utility.yul\":15684:15687   */\n      dup4\n        /* \"#utility.yul\":15625:15692   */\n      tag_326\n      jump\t// in\n    tag_587:\n        /* \"#utility.yul\":15618:15692   */\n      swap2\n      pop\n        /* \"#utility.yul\":15701:15794   */\n      tag_588\n        /* \"#utility.yul\":15790:15793   */\n      dup3\n        /* \"#utility.yul\":15701:15794   */\n      tag_369\n      jump\t// in\n    tag_588:\n        /* \"#utility.yul\":15819:15821   */\n      0x20\n        /* \"#utility.yul\":15814:15817   */\n      dup3\n        /* \"#utility.yul\":15810:15822   */\n      add\n        /* \"#utility.yul\":15803:15822   */\n      swap1\n      pop\n        /* \"#utility.yul\":15462:15828   */\n      swap2\n      swap1\n      pop\n      jump\t// out\n        /* \"#utility.yul\":15834:16253   */\n    tag_113:\n        /* \"#utility.yul\":16000:16004   */\n      0x00\n        /* \"#utility.yul\":16038:16040   */\n      0x20\n        /* \"#utility.yul\":16027:16036   */\n      dup3\n        /* \"#utility.yul\":16023:16041   */\n      add\n        /* \"#utility.yul\":16015:16041   */\n      swap1\n      pop\n        /* \"#utility.yul\":16087:16096   */\n      dup2\n        /* \"#utility.yul\":16081:16085   */\n      dup2\n        /* \"#utility.yul\":16077:16097   */\n      sub\n        /* \"#utility.yul\":16073:16074   */\n      0x00\n        /* \"#utility.yul\":16062:16071   */\n      dup4\n        /* \"#utility.yul\":16058:16075   */\n      add\n        /* \"#utility.yul\":16051:16098   */\n      mstore\n        /* \"#utility.yul\":16115:16246   */\n      tag_590\n        /* \"#utility.yul\":16241:16245   */\n      dup2\n        /* \"#utility.yul\":16115:16246   */\n      tag_370\n      jump\t// in\n    tag_590:\n        /* \"#utility.yul\":16107:16246   */\n      swap1\n      pop\n        /* \"#utility.yul\":15834:16253   */\n      swap2\n      swap1\n      pop\n      jump\t// out\n        /* \"#utility.yul\":16259:16453   */\n    tag_115:\n        /* \"#utility.yul\":16299:16303   */\n      0x00\n        /* \"#utility.yul\":16319:16339   */\n      tag_592\n        /* \"#utility.yul\":16337:16338   */\n      dup3\n        /* \"#utility.yul\":16319:16339   */\n      tag_323\n      jump\t// in\n    tag_592:\n        /* \"#utility.yul\":16314:16339   */\n      swap2\n      pop\n        /* \"#utility.yul\":16353:16373   */\n      tag_593\n        /* \"#utility.yul\":16371:16372   */\n      dup4\n        /* \"#utility.yul\":16353:16373   */\n      tag_323\n      jump\t// in\n    tag_593:\n        /* \"#utility.yul\":16348:16373   */\n      swap3\n      pop\n        /* \"#utility.yul\":16397:16398   */\n      dup3\n        /* \"#utility.yul\":16394:16395   */\n      dup3\n        /* \"#utility.yul\":16390:16399   */\n      sub\n        /* \"#utility.yul\":16382:16399   */\n      swap1\n      pop\n        /* \"#utility.yul\":16421:16422   */\n      dup2\n        /* \"#utility.yul\":16415:16419   */\n      dup2\n        /* \"#utility.yul\":16412:16423   */\n      gt\n        /* \"#utility.yul\":16409:16446   */\n      iszero\n      tag_594\n      jumpi\n        /* \"#utility.yul\":16426:16444   */\n      tag_595\n      tag_324\n      jump\t// in\n    tag_595:\n        /* \"#utility.yul\":16409:16446   */\n    tag_594:\n        /* \"#utility.yul\":16259:16453   */\n      swap3\n      swap2\n      pop\n      pop\n      jump\t// out\n        /* \"#utility.yul\":16459:16606   */\n    tag_371:\n        /* \"#utility.yul\":16560:16571   */\n      0x00\n        /* \"#utility.yul\":16597:16600   */\n      dup2\n        /* \"#utility.yul\":16582:16600   */\n      swap1\n      pop\n        /* \"#utility.yul\":16459:16606   */\n      swap3\n      swap2\n      pop\n      pop\n      jump\t// out\n        /* \"#utility.yul\":16612:16726   */\n    tag_372:\n      pop\n      jump\t// out\n        /* \"#utility.yul\":16732:17130   */\n    tag_373:\n        /* \"#utility.yul\":16891:16894   */\n      0x00\n        /* \"#utility.yul\":16912:16995   */\n      tag_599\n        /* \"#utility.yul\":16993:16994   */\n      0x00\n        /* \"#utility.yul\":16988:16991   */\n      dup4\n        /* \"#utility.yul\":16912:16995   */\n      tag_371\n      jump\t// in\n    tag_599:\n        /* \"#utility.yul\":16905:16995   */\n      swap2\n      pop\n        /* \"#utility.yul\":17004:17097   */\n      tag_600\n        /* \"#utility.yul\":17093:17096   */\n      dup3\n        /* \"#utility.yul\":17004:17097   */\n      tag_372\n      jump\t// in\n    tag_600:\n        /* \"#utility.yul\":17122:17123   */\n      0x00\n        /* \"#utility.yul\":17117:17120   */\n      dup3\n        /* \"#utility.yul\":17113:17124   */\n      add\n        /* \"#utility.yul\":17106:17124   */\n      swap1\n      pop\n        /* \"#utility.yul\":16732:17130   */\n      swap2\n      swap1\n      pop\n      jump\t// out\n        /* \"#utility.yul\":17136:17515   */\n    tag_118:\n        /* \"#utility.yul\":17320:17323   */\n      0x00\n        /* \"#utility.yul\":17342:17489   */\n      tag_602\n        /* \"#utility.yul\":17485:17488   */\n      dup3\n        /* \"#utility.yul\":17342:17489   */\n      tag_373\n      jump\t// in\n    tag_602:\n        /* \"#utility.yul\":17335:17489   */\n      swap2\n      pop\n        /* \"#utility.yul\":17506:17509   */\n      dup2\n        /* \"#utility.yul\":17499:17509   */\n      swap1\n      pop\n        /* \"#utility.yul\":17136:17515   */\n      swap2\n      swap1\n      pop\n      jump\t// out\n        /* \"#utility.yul\":17521:17692   */\n    tag_374:\n        /* \"#utility.yul\":17661:17684   */\n      0x4574686572207472616e73666572206661696c65640000000000000000000000\n        /* \"#utility.yul\":17657:17658   */\n      0x00\n        /* \"#utility.yul\":17649:17655   */\n      dup3\n        /* \"#utility.yul\":17645:17659   */\n      add\n        /* \"#utility.yul\":17638:17685   */\n      mstore\n        /* \"#utility.yul\":17521:17692   */\n      pop\n      jump\t// out\n        /* \"#utility.yul\":17698:18064   */\n    tag_375:\n        /* \"#utility.yul\":17840:17843   */\n      0x00\n        /* \"#utility.yul\":17861:17928   */\n      tag_605\n        /* \"#utility.yul\":17925:17927   */\n      0x15\n        /* \"#utility.yul\":17920:17923   */\n      dup4\n        /* \"#utility.yul\":17861:17928   */\n      tag_326\n      jump\t// in\n    tag_605:\n        /* \"#utility.yul\":17854:17928   */\n      swap2\n      pop\n        /* \"#utility.yul\":17937:18030   */\n      tag_606\n        /* \"#utility.yul\":18026:18029   */\n      dup3\n        /* \"#utility.yul\":17937:18030   */\n      tag_374\n      jump\t// in\n    tag_606:\n        /* \"#utility.yul\":18055:18057   */\n      0x20\n        /* \"#utility.yul\":18050:18053   */\n      dup3\n        /* \"#utility.yul\":18046:18058   */\n      add\n        /* \"#utility.yul\":18039:18058   */\n      swap1\n      pop\n        /* \"#utility.yul\":17698:18064   */\n      swap2\n      swap1\n      pop\n      jump\t// out\n        /* \"#utility.yul\":18070:18489   */\n    tag_124:\n        /* \"#utility.yul\":18236:18240   */\n      0x00\n        /* \"#utility.yul\":18274:18276   */\n      0x20\n        /* \"#utility.yul\":18263:18272   */\n      dup3\n        /* \"#utility.yul\":18259:18277   */\n      add\n        /* \"#utility.yul\":18251:18277   */\n      swap1\n      pop\n        /* \"#utility.yul\":18323:18332   */\n      dup2\n        /* \"#utility.yul\":18317:18321   */\n      dup2\n        /* \"#utility.yul\":18313:18333   */\n      sub\n        /* \"#utility.yul\":18309:18310   */\n      0x00\n        /* \"#utility.yul\":18298:18307   */\n      dup4\n        /* \"#utility.yul\":18294:18311   */\n      add\n        /* \"#utility.yul\":18287:18334   */\n      mstore\n        /* \"#utility.yul\":18351:18482   */\n      tag_608\n        /* \"#utility.yul\":18477:18481   */\n      dup2\n        /* \"#utility.yul\":18351:18482   */\n      tag_375\n      jump\t// in\n    tag_608:\n        /* \"#utility.yul\":18343:18482   */\n      swap1\n      pop\n        /* \"#utility.yul\":18070:18489   */\n      swap2\n      swap1\n      pop\n      jump\t// out\n        /* \"#utility.yul\":18495:18667   */\n    tag_376:\n        /* \"#utility.yul\":18635:18659   */\n      0x496e636f727265637420457468657220616d6f756e7400000000000000000000\n        /* \"#utility.yul\":18631:18632   */\n      0x00\n        /* \"#utility.yul\":18623:18629   */\n      dup3\n        /* \"#utility.yul\":18619:18633   */\n      add\n        /* \"#utility.yul\":18612:18660   */\n      mstore\n        /* \"#utility.yul\":18495:18667   */\n      pop\n      jump\t// out\n        /* \"#utility.yul\":18673:19039   */\n    tag_377:\n        /* \"#utility.yul\":18815:18818   */\n      0x00\n        /* \"#utility.yul\":18836:18903   */\n      tag_611\n        /* \"#utility.yul\":18900:18902   */\n      0x16\n        /* \"#utility.yul\":18895:18898   */\n      dup4\n        /* \"#utility.yul\":18836:18903   */\n      tag_326\n      jump\t// in\n    tag_611:\n        /* \"#utility.yul\":18829:18903   */\n      swap2\n      pop\n        /* \"#utility.yul\":18912:19005   */\n      tag_612\n        /* \"#utility.yul\":19001:19004   */\n      dup3\n        /* \"#utility.yul\":18912:19005   */\n      tag_376\n      jump\t// in\n    tag_612:\n        /* \"#utility.yul\":19030:19032   */\n      0x20\n        /* \"#utility.yul\":19025:19028   */\n      dup3\n        /* \"#utility.yul\":19021:19033   */\n      add\n        /* \"#utility.yul\":19014:19033   */\n      swap1\n      pop\n        /* \"#utility.yul\":18673:19039   */\n      swap2\n      swap1\n      pop\n      jump\t// out\n        /* \"#utility.yul\":19045:19464   */\n    tag_137:\n        /* \"#utility.yul\":19211:19215   */\n      0x00\n        /* \"#utility.yul\":19249:19251   */\n      0x20\n        /* \"#utility.yul\":19238:19247   */\n      dup3\n        /* \"#utility.yul\":19234:19252   */\n      add\n        /* \"#utility.yul\":19226:19252   */\n      swap1\n      pop\n        /* \"#utility.yul\":19298:19307   */\n      dup2\n        /* \"#utility.yul\":19292:19296   */\n      dup2\n        /* \"#utility.yul\":19288:19308   */\n      sub\n        /* \"#utility.yul\":19284:19285   */\n      0x00\n        /* \"#utility.yul\":19273:19282   */\n      dup4\n        /* \"#utility.yul\":19269:19286   */\n      add\n        /* \"#utility.yul\":19262:19309   */\n      mstore\n        /* \"#utility.yul\":19326:19457   */\n      tag_614\n        /* \"#utility.yul\":19452:19456   */\n      dup2\n        /* \"#utility.yul\":19326:19457   */\n      tag_377\n      jump\t// in\n    tag_614:\n        /* \"#utility.yul\":19318:19457   */\n      swap1\n      pop\n        /* \"#utility.yul\":19045:19464   */\n      swap2\n      swap1\n      pop\n      jump\t// out\n        /* \"#utility.yul\":19470:19697   */\n    tag_378:\n        /* \"#utility.yul\":19610:19644   */\n      0x4465706f73697420616d6f756e74206d75737420626520677265617465722074\n        /* \"#utility.yul\":19606:19607   */\n      0x00\n        /* \"#utility.yul\":19598:19604   */\n      dup3\n        /* \"#utility.yul\":19594:19608   */\n      add\n        /* \"#utility.yul\":19587:19645   */\n      mstore\n        /* \"#utility.yul\":19679:19689   */\n      0x68616e207a65726f000000000000000000000000000000000000000000000000\n        /* \"#utility.yul\":19674:19676   */\n      0x20\n        /* \"#utility.yul\":19666:19672   */\n      dup3\n        /* \"#utility.yul\":19662:19677   */\n      add\n        /* \"#utility.yul\":19655:19690   */\n      mstore\n        /* \"#utility.yul\":19470:19697   */\n      pop\n      jump\t// out\n        /* \"#utility.yul\":19703:20069   */\n    tag_379:\n        /* \"#utility.yul\":19845:19848   */\n      0x00\n        /* \"#utility.yul\":19866:19933   */\n      tag_617\n        /* \"#utility.yul\":19930:19932   */\n      0x28\n        /* \"#utility.yul\":19925:19928   */\n      dup4\n        /* \"#utility.yul\":19866:19933   */\n      tag_326\n      jump\t// in\n    tag_617:\n        /* \"#utility.yul\":19859:19933   */\n      swap2\n      pop\n        /* \"#utility.yul\":19942:20035   */\n      tag_618\n        /* \"#utility.yul\":20031:20034   */\n      dup3\n        /* \"#utility.yul\":19942:20035   */\n      tag_378\n      jump\t// in\n    tag_618:\n        /* \"#utility.yul\":20060:20062   */\n      0x40\n        /* \"#utility.yul\":20055:20058   */\n      dup3\n        /* \"#utility.yul\":20051:20063   */\n      add\n        /* \"#utility.yul\":20044:20063   */\n      swap1\n      pop\n        /* \"#utility.yul\":19703:20069   */\n      swap2\n      swap1\n      pop\n      jump\t// out\n        /* \"#utility.yul\":20075:20494   */\n    tag_141:\n        /* \"#utility.yul\":20241:20245   */\n      0x00\n        /* \"#utility.yul\":20279:20281   */\n      0x20\n        /* \"#utility.yul\":20268:20277   */\n      dup3\n        /* \"#utility.yul\":20264:20282   */\n      add\n        /* \"#utility.yul\":20256:20282   */\n      swap1\n      pop\n        /* \"#utility.yul\":20328:20337   */\n      dup2\n        /* \"#utility.yul\":20322:20326   */\n      dup2\n        /* \"#utility.yul\":20318:20338   */\n      sub\n        /* \"#utility.yul\":20314:20315   */\n      0x00\n        /* \"#utility.yul\":20303:20312   */\n      dup4\n        /* \"#utility.yul\":20299:20316   */\n      add\n        /* \"#utility.yul\":20292:20339   */\n      mstore\n        /* \"#utility.yul\":20356:20487   */\n      tag_620\n        /* \"#utility.yul\":20482:20486   */\n      dup2\n        /* \"#utility.yul\":20356:20487   */\n      tag_379\n      jump\t// in\n    tag_620:\n        /* \"#utility.yul\":20348:20487   */\n      swap1\n      pop\n        /* \"#utility.yul\":20075:20494   */\n      swap2\n      swap1\n      pop\n      jump\t// out\n        /* \"#utility.yul\":20500:20585   */\n    tag_380:\n        /* \"#utility.yul\":20545:20552   */\n      0x00\n        /* \"#utility.yul\":20574:20579   */\n      dup2\n        /* \"#utility.yul\":20563:20579   */\n      swap1\n      pop\n        /* \"#utility.yul\":20500:20585   */\n      swap2\n      swap1\n      pop\n      jump\t// out\n        /* \"#utility.yul\":20591:20747   */\n    tag_381:\n        /* \"#utility.yul\":20648:20657   */\n      0x00\n        /* \"#utility.yul\":20681:20741   */\n      tag_623\n        /* \"#utility.yul\":20698:20740   */\n      tag_624\n        /* \"#utility.yul\":20707:20739   */\n      tag_625\n        /* \"#utility.yul\":20733:20738   */\n      dup5\n        /* \"#utility.yul\":20707:20739   */\n      tag_380\n      jump\t// in\n    tag_625:\n        /* \"#utility.yul\":20698:20740   */\n      tag_339\n      jump\t// in\n    tag_624:\n        /* \"#utility.yul\":20681:20741   */\n      tag_344\n      jump\t// in\n    tag_623:\n        /* \"#utility.yul\":20668:20741   */\n      swap1\n      pop\n        /* \"#utility.yul\":20591:20747   */\n      swap2\n      swap1\n      pop\n      jump\t// out\n        /* \"#utility.yul\":20753:20898   */\n    tag_382:\n        /* \"#utility.yul\":20847:20891   */\n      tag_627\n        /* \"#utility.yul\":20885:20890   */\n      dup2\n        /* \"#utility.yul\":20847:20891   */\n      tag_381\n      jump\t// in\n    tag_627:\n        /* \"#utility.yul\":20842:20845   */\n      dup3\n        /* \"#utility.yul\":20835:20892   */\n      mstore\n        /* \"#utility.yul\":20753:20898   */\n      pop\n      pop\n      jump\t// out\n        /* \"#utility.yul\":20904:21140   */\n    tag_162:\n        /* \"#utility.yul\":21004:21008   */\n      0x00\n        /* \"#utility.yul\":21042:21044   */\n      0x20\n        /* \"#utility.yul\":21031:21040   */\n      dup3\n        /* \"#utility.yul\":21027:21045   */\n      add\n        /* \"#utility.yul\":21019:21045   */\n      swap1\n      pop\n        /* \"#utility.yul\":21055:21133   */\n      tag_629\n        /* \"#utility.yul\":21130:21131   */\n      0x00\n        /* \"#utility.yul\":21119:21128   */\n      dup4\n        /* \"#utility.yul\":21115:21132   */\n      add\n        /* \"#utility.yul\":21106:21112   */\n      dup5\n        /* \"#utility.yul\":21055:21133   */\n      tag_382\n      jump\t// in\n    tag_629:\n        /* \"#utility.yul\":20904:21140   */\n      swap3\n      swap2\n      pop\n      pop\n      jump\t// out\n        /* \"#utility.yul\":21146:21326   */\n    tag_383:\n        /* \"#utility.yul\":21194:21271   */\n      0x4e487b7100000000000000000000000000000000000000000000000000000000\n        /* \"#utility.yul\":21191:21192   */\n      0x00\n        /* \"#utility.yul\":21184:21272   */\n      mstore\n        /* \"#utility.yul\":21291:21295   */\n      0x22\n        /* \"#utility.yul\":21288:21289   */\n      0x04\n        /* \"#utility.yul\":21281:21296   */\n      mstore\n        /* \"#utility.yul\":21315:21319   */\n      0x24\n        /* \"#utility.yul\":21312:21313   */\n      0x00\n        /* \"#utility.yul\":21305:21320   */\n      revert\n        /* \"#utility.yul\":21332:21652   */\n    tag_170:\n        /* \"#utility.yul\":21376:21382   */\n      0x00\n        /* \"#utility.yul\":21413:21414   */\n      0x02\n        /* \"#utility.yul\":21407:21411   */\n      dup3\n        /* \"#utility.yul\":21403:21415   */\n      div\n        /* \"#utility.yul\":21393:21415   */\n      swap1\n      pop\n        /* \"#utility.yul\":21460:21461   */\n      0x01\n        /* \"#utility.yul\":21454:21458   */\n      dup3\n        /* \"#utility.yul\":21450:21462   */\n      and\n        /* \"#utility.yul\":21481:21499   */\n      dup1\n        /* \"#utility.yul\":21471:21552   */\n      tag_632\n      jumpi\n        /* \"#utility.yul\":21537:21541   */\n      0x7f\n        /* \"#utility.yul\":21529:21535   */\n      dup3\n        /* \"#utility.yul\":21525:21542   */\n      and\n        /* \"#utility.yul\":21515:21542   */\n      swap2\n      pop\n        /* \"#utility.yul\":21471:21552   */\n    tag_632:\n        /* \"#utility.yul\":21599:21601   */\n      0x20\n        /* \"#utility.yul\":21591:21597   */\n      dup3\n        /* \"#utility.yul\":21588:21602   */\n      lt\n        /* \"#utility.yul\":21568:21586   */\n      dup2\n        /* \"#utility.yul\":21565:21603   */\n      sub\n        /* \"#utility.yul\":21562:21646   */\n      tag_633\n      jumpi\n        /* \"#utility.yul\":21618:21636   */\n      tag_634\n      tag_383\n      jump\t// in\n    tag_634:\n        /* \"#utility.yul\":21562:21646   */\n    tag_633:\n        /* \"#utility.yul\":21383:21652   */\n      pop\n        /* \"#utility.yul\":21332:21652   */\n      swap2\n      swap1\n      pop\n      jump\t// out\n        /* \"#utility.yul\":21658:21748   */\n    tag_384:\n        /* \"#utility.yul\":21692:21699   */\n      0x00\n        /* \"#utility.yul\":21735:21740   */\n      dup2\n        /* \"#utility.yul\":21728:21741   */\n      iszero\n        /* \"#utility.yul\":21721:21742   */\n      iszero\n        /* \"#utility.yul\":21710:21742   */\n      swap1\n      pop\n        /* \"#utility.yul\":21658:21748   */\n      swap2\n      swap1\n      pop\n      jump\t// out\n        /* \"#utility.yul\":21754:21870   */\n    tag_385:\n        /* \"#utility.yul\":21824:21845   */\n      tag_637\n        /* \"#utility.yul\":21839:21844   */\n      dup2\n        /* \"#utility.yul\":21824:21845   */\n      tag_384\n      jump\t// in\n    tag_637:\n        /* \"#utility.yul\":21817:21822   */\n      dup2\n        /* \"#utility.yul\":21814:21846   */\n      eq\n        /* \"#utility.yul\":21804:21864   */\n      tag_638\n      jumpi\n        /* \"#utility.yul\":21860:21861   */\n      0x00\n        /* \"#utility.yul\":21857:21858   */\n      dup1\n        /* \"#utility.yul\":21850:21862   */\n      revert\n        /* \"#utility.yul\":21804:21864   */\n    tag_638:\n        /* \"#utility.yul\":21754:21870   */\n      pop\n      jump\t// out\n        /* \"#utility.yul\":21876:22013   */\n    tag_386:\n        /* \"#utility.yul\":21930:21935   */\n      0x00\n        /* \"#utility.yul\":21961:21967   */\n      dup2\n        /* \"#utility.yul\":21955:21968   */\n      mload\n        /* \"#utility.yul\":21946:21968   */\n      swap1\n      pop\n        /* \"#utility.yul\":21977:22007   */\n      tag_640\n        /* \"#utility.yul\":22001:22006   */\n      dup2\n        /* \"#utility.yul\":21977:22007   */\n      tag_385\n      jump\t// in\n    tag_640:\n        /* \"#utility.yul\":21876:22013   */\n      swap3\n      swap2\n      pop\n      pop\n      jump\t// out\n        /* \"#utility.yul\":22019:22364   */\n    tag_183:\n        /* \"#utility.yul\":22086:22092   */\n      0x00\n        /* \"#utility.yul\":22135:22137   */\n      0x20\n        /* \"#utility.yul\":22123:22132   */\n      dup3\n        /* \"#utility.yul\":22114:22121   */\n      dup5\n        /* \"#utility.yul\":22110:22133   */\n      sub\n        /* \"#utility.yul\":22106:22138   */\n      slt\n        /* \"#utility.yul\":22103:22222   */\n      iszero\n      tag_642\n      jumpi\n        /* \"#utility.yul\":22141:22220   */\n      tag_643\n      tag_330\n      jump\t// in\n    tag_643:\n        /* \"#utility.yul\":22103:22222   */\n    tag_642:\n        /* \"#utility.yul\":22261:22262   */\n      0x00\n        /* \"#utility.yul\":22286:22347   */\n      tag_644\n        /* \"#utility.yul\":22339:22346   */\n      dup5\n        /* \"#utility.yul\":22330:22336   */\n      dup3\n        /* \"#utility.yul\":22319:22328   */\n      dup6\n        /* \"#utility.yul\":22315:22337   */\n      add\n        /* \"#utility.yul\":22286:22347   */\n      tag_386\n      jump\t// in\n    tag_644:\n        /* \"#utility.yul\":22276:22347   */\n      swap2\n      pop\n        /* \"#utility.yul\":22232:22357   */\n      pop\n        /* \"#utility.yul\":22019:22364   */\n      swap3\n      swap2\n      pop\n      pop\n      jump\t// out\n        /* \"#utility.yul\":22370:22542   */\n    tag_387:\n        /* \"#utility.yul\":22510:22534   */\n      0x43616c6c6572206973206e6f7420616e2061646d696e00000000000000000000\n        /* \"#utility.yul\":22506:22507   */\n      0x00\n        /* \"#utility.yul\":22498:22504   */\n      dup3\n        /* \"#utility.yul\":22494:22508   */\n      add\n        /* \"#utility.yul\":22487:22535   */\n      mstore\n        /* \"#utility.yul\":22370:22542   */\n      pop\n      jump\t// out\n        /* \"#utility.yul\":22548:22914   */\n    tag_388:\n        /* \"#utility.yul\":22690:22693   */\n      0x00\n        /* \"#utility.yul\":22711:22778   */\n      tag_647\n        /* \"#utility.yul\":22775:22777   */\n      0x16\n        /* \"#utility.yul\":22770:22773   */\n      dup4\n        /* \"#utility.yul\":22711:22778   */\n      tag_326\n      jump\t// in\n    tag_647:\n        /* \"#utility.yul\":22704:22778   */\n      swap2\n      pop\n        /* \"#utility.yul\":22787:22880   */\n      tag_648\n        /* \"#utility.yul\":22876:22879   */\n      dup3\n        /* \"#utility.yul\":22787:22880   */\n      tag_387\n      jump\t// in\n    tag_648:\n        /* \"#utility.yul\":22905:22907   */\n      0x20\n        /* \"#utility.yul\":22900:22903   */\n      dup3\n        /* \"#utility.yul\":22896:22908   */\n      add\n        /* \"#utility.yul\":22889:22908   */\n      swap1\n      pop\n        /* \"#utility.yul\":22548:22914   */\n      swap2\n      swap1\n      pop\n      jump\t// out\n        /* \"#utility.yul\":22920:23339   */\n    tag_186:\n        /* \"#utility.yul\":23086:23090   */\n      0x00\n        /* \"#utility.yul\":23124:23126   */\n      0x20\n        /* \"#utility.yul\":23113:23122   */\n      dup3\n        /* \"#utility.yul\":23109:23127   */\n      add\n        /* \"#utility.yul\":23101:23127   */\n      swap1\n      pop\n        /* \"#utility.yul\":23173:23182   */\n      dup2\n        /* \"#utility.yul\":23167:23171   */\n      dup2\n        /* \"#utility.yul\":23163:23183   */\n      sub\n        /* \"#utility.yul\":23159:23160   */\n      0x00\n        /* \"#utility.yul\":23148:23157   */\n      dup4\n        /* \"#utility.yul\":23144:23161   */\n      add\n        /* \"#utility.yul\":23137:23184   */\n      mstore\n        /* \"#utility.yul\":23201:23332   */\n      tag_650\n        /* \"#utility.yul\":23327:23331   */\n      dup2\n        /* \"#utility.yul\":23201:23332   */\n      tag_388\n      jump\t// in\n    tag_650:\n        /* \"#utility.yul\":23193:23332   */\n      swap1\n      pop\n        /* \"#utility.yul\":22920:23339   */\n      swap2\n      swap1\n      pop\n      jump\t// out\n        /* \"#utility.yul\":23345:23566   */\n    tag_389:\n        /* \"#utility.yul\":23485:23519   */\n      0x53746172742074696d65206d757374206265206265666f726520656e64207469\n        /* \"#utility.yul\":23481:23482   */\n      0x00\n        /* \"#utility.yul\":23473:23479   */\n      dup3\n        /* \"#utility.yul\":23469:23483   */\n      add\n        /* \"#utility.yul\":23462:23520   */\n      mstore\n        /* \"#utility.yul\":23554:23558   */\n      0x6d65000000000000000000000000000000000000000000000000000000000000\n        /* \"#utility.yul\":23549:23551   */\n      0x20\n        /* \"#utility.yul\":23541:23547   */\n      dup3\n        /* \"#utility.yul\":23537:23552   */\n      add\n        /* \"#utility.yul\":23530:23559   */\n      mstore\n        /* \"#utility.yul\":23345:23566   */\n      pop\n      jump\t// out\n        /* \"#utility.yul\":23572:23938   */\n    tag_390:\n        /* \"#utility.yul\":23714:23717   */\n      0x00\n        /* \"#utility.yul\":23735:23802   */\n      tag_653\n        /* \"#utility.yul\":23799:23801   */\n      0x22\n        /* \"#utility.yul\":23794:23797   */\n      dup4\n        /* \"#utility.yul\":23735:23802   */\n      tag_326\n      jump\t// in\n    tag_653:\n        /* \"#utility.yul\":23728:23802   */\n      swap2\n      pop\n        /* \"#utility.yul\":23811:23904   */\n      tag_654\n        /* \"#utility.yul\":23900:23903   */\n      dup3\n        /* \"#utility.yul\":23811:23904   */\n      tag_389\n      jump\t// in\n    tag_654:\n        /* \"#utility.yul\":23929:23931   */\n      0x40\n        /* \"#utility.yul\":23924:23927   */\n      dup3\n        /* \"#utility.yul\":23920:23932   */\n      add\n        /* \"#utility.yul\":23913:23932   */\n      swap1\n      pop\n        /* \"#utility.yul\":23572:23938   */\n      swap2\n      swap1\n      pop\n      jump\t// out\n        /* \"#utility.yul\":23944:24363   */\n    tag_190:\n        /* \"#utility.yul\":24110:24114   */\n      0x00\n        /* \"#utility.yul\":24148:24150   */\n      0x20\n        /* \"#utility.yul\":24137:24146   */\n      dup3\n        /* \"#utility.yul\":24133:24151   */\n      add\n        /* \"#utility.yul\":24125:24151   */\n      swap1\n      pop\n        /* \"#utility.yul\":24197:24206   */\n      dup2\n        /* \"#utility.yul\":24191:24195   */\n      dup2\n        /* \"#utility.yul\":24187:24207   */\n      sub\n        /* \"#utility.yul\":24183:24184   */\n      0x00\n        /* \"#utility.yul\":24172:24181   */\n      dup4\n        /* \"#utility.yul\":24168:24185   */\n      add\n        /* \"#utility.yul\":24161:24208   */\n      mstore\n        /* \"#utility.yul\":24225:24356   */\n      tag_656\n        /* \"#utility.yul\":24351:24355   */\n      dup2\n        /* \"#utility.yul\":24225:24356   */\n      tag_390\n      jump\t// in\n    tag_656:\n        /* \"#utility.yul\":24217:24356   */\n      swap1\n      pop\n        /* \"#utility.yul\":23944:24363   */\n      swap2\n      swap1\n      pop\n      jump\t// out\n        /* \"#utility.yul\":24369:24510   */\n    tag_391:\n        /* \"#utility.yul\":24418:24422   */\n      0x00\n        /* \"#utility.yul\":24441:24444   */\n      dup2\n        /* \"#utility.yul\":24433:24444   */\n      swap1\n      pop\n        /* \"#utility.yul\":24464:24467   */\n      dup2\n        /* \"#utility.yul\":24461:24462   */\n      0x00\n        /* \"#utility.yul\":24454:24468   */\n      mstore\n        /* \"#utility.yul\":24498:24502   */\n      0x20\n        /* \"#utility.yul\":24495:24496   */\n      0x00\n        /* \"#utility.yul\":24485:24503   */\n      keccak256\n        /* \"#utility.yul\":24477:24503   */\n      swap1\n      pop\n        /* \"#utility.yul\":24369:24510   */\n      swap2\n      swap1\n      pop\n      jump\t// out\n        /* \"#utility.yul\":24516:24609   */\n    tag_392:\n        /* \"#utility.yul\":24553:24559   */\n      0x00\n        /* \"#utility.yul\":24600:24602   */\n      0x20\n        /* \"#utility.yul\":24595:24597   */\n      0x1f\n        /* \"#utility.yul\":24588:24593   */\n      dup4\n        /* \"#utility.yul\":24584:24598   */\n      add\n        /* \"#utility.yul\":24580:24603   */\n      div\n        /* \"#utility.yul\":24570:24603   */\n      swap1\n      pop\n        /* \"#utility.yul\":24516:24609   */\n      swap2\n      swap1\n      pop\n      jump\t// out\n        /* \"#utility.yul\":24615:24722   */\n    tag_393:\n        /* \"#utility.yul\":24659:24667   */\n      0x00\n        /* \"#utility.yul\":24709:24714   */\n      dup3\n        /* \"#utility.yul\":24703:24707   */\n      dup3\n        /* \"#utility.yul\":24699:24715   */\n      shl\n        /* \"#utility.yul\":24678:24715   */\n      swap1\n      pop\n        /* \"#utility.yul\":24615:24722   */\n      swap3\n      swap2\n      pop\n      pop\n      jump\t// out\n        /* \"#utility.yul\":24728:25121   */\n    tag_394:\n        /* \"#utility.yul\":24797:24803   */\n      0x00\n        /* \"#utility.yul\":24847:24848   */\n      0x08\n        /* \"#utility.yul\":24835:24845   */\n      dup4\n        /* \"#utility.yul\":24831:24849   */\n      mul\n        /* \"#utility.yul\":24870:24967   */\n      tag_661\n        /* \"#utility.yul\":24900:24966   */\n      0xffffffffffffffffffffffffffffffffffffffffffffffffffffffffffffffff\n        /* \"#utility.yul\":24889:24898   */\n      dup3\n        /* \"#utility.yul\":24870:24967   */\n      tag_393\n      jump\t// in\n    tag_661:\n        /* \"#utility.yul\":24988:25027   */\n      tag_662\n        /* \"#utility.yul\":25018:25026   */\n      dup7\n        /* \"#utility.yul\":25007:25016   */\n      dup4\n        /* \"#utility.yul\":24988:25027   */\n      tag_393\n      jump\t// in\n    tag_662:\n        /* \"#utility.yul\":24976:25027   */\n      swap6\n      pop\n        /* \"#utility.yul\":25060:25064   */\n      dup1\n        /* \"#utility.yul\":25056:25065   */\n      not\n        /* \"#utility.yul\":25049:25054   */\n      dup5\n        /* \"#utility.yul\":25045:25066   */\n      and\n        /* \"#utility.yul\":25036:25066   */\n      swap4\n      pop\n        /* \"#utility.yul\":25109:25113   */\n      dup1\n        /* \"#utility.yul\":25099:25107   */\n      dup7\n        /* \"#utility.yul\":25095:25114   */\n      and\n        /* \"#utility.yul\":25088:25093   */\n      dup5\n        /* \"#utility.yul\":25085:25115   */\n      or\n        /* \"#utility.yul\":25075:25115   */\n      swap3\n      pop\n        /* \"#utility.yul\":24804:25121   */\n      pop\n      pop\n        /* \"#utility.yul\":24728:25121   */\n      swap4\n      swap3\n      pop\n      pop\n      pop\n      jump\t// out\n        /* \"#utility.yul\":25127:25269   */\n    tag_395:\n        /* \"#utility.yul\":25177:25186   */\n      0x00\n        /* \"#utility.yul\":25210:25263   */\n      tag_664\n        /* \"#utility.yul\":25228:25262   */\n      tag_665\n        /* \"#utility.yul\":25237:25261   */\n      tag_666\n        /* \"#utility.yul\":25255:25260   */\n      dup5\n        /* \"#utility.yul\":25237:25261   */\n      tag_323\n      jump\t// in\n    tag_666:\n        /* \"#utility.yul\":25228:25262   */\n      tag_339\n      jump\t// in\n    tag_665:\n        /* \"#utility.yul\":25210:25263   */\n      tag_323\n      jump\t// in\n    tag_664:\n        /* \"#utility.yul\":25197:25263   */\n      swap1\n      pop\n        /* \"#utility.yul\":25127:25269   */\n      swap2\n      swap1\n      pop\n      jump\t// out\n        /* \"#utility.yul\":25275:25350   */\n    tag_396:\n        /* \"#utility.yul\":25318:25321   */\n      0x00\n        /* \"#utility.yul\":25339:25344   */\n      dup2\n        /* \"#utility.yul\":25332:25344   */\n      swap1\n      pop\n        /* \"#utility.yul\":25275:25350   */\n      swap2\n      swap1\n      pop\n      jump\t// out\n        /* \"#utility.yul\":25356:25625   */\n    tag_397:\n        /* \"#utility.yul\":25466:25505   */\n      tag_669\n        /* \"#utility.yul\":25497:25504   */\n      dup4\n        /* \"#utility.yul\":25466:25505   */\n      tag_395\n      jump\t// in\n    tag_669:\n        /* \"#utility.yul\":25527:25618   */\n      tag_670\n        /* \"#utility.yul\":25576:25617   */\n      tag_671\n        /* \"#utility.yul\":25600:25616   */\n      dup3\n        /* \"#utility.yul\":25576:25617   */\n      tag_396\n      jump\t// in\n    tag_671:\n        /* \"#utility.yul\":25568:25574   */\n      dup5\n        /* \"#utility.yul\":25561:25565   */\n      dup5\n        /* \"#utility.yul\":25555:25566   */\n      sload\n        /* \"#utility.yul\":25527:25618   */\n      tag_394\n      jump\t// in\n    tag_670:\n        /* \"#utility.yul\":25521:25525   */\n      dup3\n        /* \"#utility.yul\":25514:25619   */\n      sstore\n        /* \"#utility.yul\":25432:25625   */\n      pop\n        /* \"#utility.yul\":25356:25625   */\n      pop\n      pop\n      pop\n      jump\t// out\n        /* \"#utility.yul\":25631:25704   */\n    tag_398:\n        /* \"#utility.yul\":25676:25679   */\n      0x00\n        /* \"#utility.yul\":25631:25704   */\n      swap1\n      jump\t// out\n        /* \"#utility.yul\":25710:25899   */\n    tag_399:\n        /* \"#utility.yul\":25787:25819   */\n      tag_674\n      tag_398\n      jump\t// in\n    tag_674:\n        /* \"#utility.yul\":25828:25893   */\n      tag_675\n        /* \"#utility.yul\":25886:25892   */\n      dup2\n        /* \"#utility.yul\":25878:25884   */\n      dup5\n        /* \"#utility.yul\":25872:25876   */\n      dup5\n        /* \"#utility.yul\":25828:25893   */\n      tag_397\n      jump\t// in\n    tag_675:\n        /* \"#utility.yul\":25763:25899   */\n      pop\n        /* \"#utility.yul\":25710:25899   */\n      pop\n      pop\n      jump\t// out\n        /* \"#utility.yul\":25905:26091   */\n    tag_400:\n        /* \"#utility.yul\":25965:26085   */\n    tag_677:\n        /* \"#utility.yul\":25982:25985   */\n      dup2\n        /* \"#utility.yul\":25975:25980   */\n      dup2\n        /* \"#utility.yul\":25972:25986   */\n      lt\n        /* \"#utility.yul\":25965:26085   */\n      iszero\n      tag_679\n      jumpi\n        /* \"#utility.yul\":26036:26075   */\n      tag_680\n        /* \"#utility.yul\":26073:26074   */\n      0x00\n        /* \"#utility.yul\":26066:26071   */\n      dup3\n        /* \"#utility.yul\":26036:26075   */\n      tag_399\n      jump\t// in\n    tag_680:\n        /* \"#utility.yul\":26009:26010   */\n      0x01\n        /* \"#utility.yul\":26002:26007   */\n      dup2\n        /* \"#utility.yul\":25998:26011   */\n      add\n        /* \"#utility.yul\":25989:26011   */\n      swap1\n      pop\n        /* \"#utility.yul\":25965:26085   */\n      jump(tag_677)\n    tag_679:\n        /* \"#utility.yul\":25905:26091   */\n      pop\n      pop\n      jump\t// out\n        /* \"#utility.yul\":26097:26640   */\n    tag_401:\n        /* \"#utility.yul\":26198:26200   */\n      0x1f\n        /* \"#utility.yul\":26193:26196   */\n      dup3\n        /* \"#utility.yul\":26190:26201   */\n      gt\n        /* \"#utility.yul\":26187:26633   */\n      iszero\n      tag_682\n      jumpi\n        /* \"#utility.yul\":26232:26270   */\n      tag_683\n        /* \"#utility.yul\":26264:26269   */\n      dup2\n        /* \"#utility.yul\":26232:26270   */\n      tag_391\n      jump\t// in\n    tag_683:\n        /* \"#utility.yul\":26316:26345   */\n      tag_684\n        /* \"#utility.yul\":26334:26344   */\n      dup5\n        /* \"#utility.yul\":26316:26345   */\n      tag_392\n      jump\t// in\n    tag_684:\n        /* \"#utility.yul\":26306:26314   */\n      dup2\n        /* \"#utility.yul\":26302:26346   */\n      add\n        /* \"#utility.yul\":26499:26501   */\n      0x20\n        /* \"#utility.yul\":26487:26497   */\n      dup6\n        /* \"#utility.yul\":26484:26502   */\n      lt\n        /* \"#utility.yul\":26481:26530   */\n      iszero\n      tag_685\n      jumpi\n        /* \"#utility.yul\":26520:26528   */\n      dup2\n        /* \"#utility.yul\":26505:26528   */\n      swap1\n      pop\n        /* \"#utility.yul\":26481:26530   */\n    tag_685:\n        /* \"#utility.yul\":26543:26623   */\n      tag_686\n        /* \"#utility.yul\":26599:26621   */\n      tag_687\n        /* \"#utility.yul\":26617:26620   */\n      dup6\n        /* \"#utility.yul\":26599:26621   */\n      tag_392\n      jump\t// in\n    tag_687:\n        /* \"#utility.yul\":26589:26597   */\n      dup4\n        /* \"#utility.yul\":26585:26622   */\n      add\n        /* \"#utility.yul\":26572:26583   */\n      dup3\n        /* \"#utility.yul\":26543:26623   */\n      tag_400\n      jump\t// in\n    tag_686:\n        /* \"#utility.yul\":26202:26633   */\n      pop\n      pop\n        /* \"#utility.yul\":26187:26633   */\n    tag_682:\n        /* \"#utility.yul\":26097:26640   */\n      pop\n      pop\n      pop\n      jump\t// out\n        /* \"#utility.yul\":26646:26763   */\n    tag_402:\n        /* \"#utility.yul\":26700:26708   */\n      0x00\n        /* \"#utility.yul\":26750:26755   */\n      dup3\n        /* \"#utility.yul\":26744:26748   */\n      dup3\n        /* \"#utility.yul\":26740:26756   */\n      shr\n        /* \"#utility.yul\":26719:26756   */\n      swap1\n      pop\n        /* \"#utility.yul\":26646:26763   */\n      swap3\n      swap2\n      pop\n      pop\n      jump\t// out\n        /* \"#utility.yul\":26769:26938   */\n    tag_403:\n        /* \"#utility.yul\":26813:26819   */\n      0x00\n        /* \"#utility.yul\":26846:26897   */\n      tag_690\n        /* \"#utility.yul\":26894:26895   */\n      0x00\n        /* \"#utility.yul\":26890:26896   */\n      not\n        /* \"#utility.yul\":26882:26887   */\n      dup5\n        /* \"#utility.yul\":26879:26880   */\n      0x08\n        /* \"#utility.yul\":26875:26888   */\n      mul\n        /* \"#utility.yul\":26846:26897   */\n      tag_402\n      jump\t// in\n    tag_690:\n        /* \"#utility.yul\":26842:26898   */\n      not\n        /* \"#utility.yul\":26927:26931   */\n      dup1\n        /* \"#utility.yul\":26921:26925   */\n      dup4\n        /* \"#utility.yul\":26917:26932   */\n      and\n        /* \"#utility.yul\":26907:26932   */\n      swap2\n      pop\n        /* \"#utility.yul\":26820:26938   */\n      pop\n        /* \"#utility.yul\":26769:26938   */\n      swap3\n      swap2\n      pop\n      pop\n      jump\t// out\n        /* \"#utility.yul\":26943:27238   */\n    tag_404:\n        /* \"#utility.yul\":27019:27023   */\n      0x00\n        /* \"#utility.yul\":27165:27194   */\n      tag_692\n        /* \"#utility.yul\":27190:27193   */\n      dup4\n        /* \"#utility.yul\":27184:27188   */\n      dup4\n        /* \"#utility.yul\":27165:27194   */\n      tag_403\n      jump\t// in\n    tag_692:\n        /* \"#utility.yul\":27157:27194   */\n      swap2\n      pop\n        /* \"#utility.yul\":27227:27230   */\n      dup3\n        /* \"#utility.yul\":27224:27225   */\n      0x02\n        /* \"#utility.yul\":27220:27231   */\n      mul\n        /* \"#utility.yul\":27214:27218   */\n      dup3\n        /* \"#utility.yul\":27211:27232   */\n      or\n        /* \"#utility.yul\":27203:27232   */\n      swap1\n      pop\n        /* \"#utility.yul\":26943:27238   */\n      swap3\n      swap2\n      pop\n      pop\n      jump\t// out\n        /* \"#utility.yul\":27243:28638   */\n    tag_192:\n        /* \"#utility.yul\":27360:27397   */\n      tag_694\n        /* \"#utility.yul\":27393:27396   */\n      dup3\n        /* \"#utility.yul\":27360:27397   */\n      tag_346\n      jump\t// in\n    tag_694:\n        /* \"#utility.yul\":27462:27480   */\n      0xffffffffffffffff\n        /* \"#utility.yul\":27454:27460   */\n      dup2\n        /* \"#utility.yul\":27451:27481   */\n      gt\n        /* \"#utility.yul\":27448:27504   */\n      iszero\n      tag_695\n      jumpi\n        /* \"#utility.yul\":27484:27502   */\n      tag_696\n      tag_354\n      jump\t// in\n    tag_696:\n        /* \"#utility.yul\":27448:27504   */\n    tag_695:\n        /* \"#utility.yul\":27528:27566   */\n      tag_697\n        /* \"#utility.yul\":27560:27564   */\n      dup3\n        /* \"#utility.yul\":27554:27565   */\n      sload\n        /* \"#utility.yul\":27528:27566   */\n      tag_170\n      jump\t// in\n    tag_697:\n        /* \"#utility.yul\":27613:27680   */\n      tag_698\n        /* \"#utility.yul\":27673:27679   */\n      dup3\n        /* \"#utility.yul\":27665:27671   */\n      dup3\n        /* \"#utility.yul\":27659:27663   */\n      dup6\n        /* \"#utility.yul\":27613:27680   */\n      tag_401\n      jump\t// in\n    tag_698:\n        /* \"#utility.yul\":27707:27708   */\n      0x00\n        /* \"#utility.yul\":27731:27735   */\n      0x20\n        /* \"#utility.yul\":27718:27735   */\n      swap1\n      pop\n        /* \"#utility.yul\":27763:27765   */\n      0x1f\n        /* \"#utility.yul\":27755:27761   */\n      dup4\n        /* \"#utility.yul\":27752:27766   */\n      gt\n        /* \"#utility.yul\":27780:27781   */\n      0x01\n        /* \"#utility.yul\":27775:28393   */\n      dup2\n      eq\n      tag_700\n      jumpi\n        /* \"#utility.yul\":28437:28438   */\n      0x00\n        /* \"#utility.yul\":28454:28460   */\n      dup5\n        /* \"#utility.yul\":28451:28528   */\n      iszero\n      tag_701\n      jumpi\n        /* \"#utility.yul\":28503:28512   */\n      dup3\n        /* \"#utility.yul\":28498:28501   */\n      dup8\n        /* \"#utility.yul\":28494:28513   */\n      add\n        /* \"#utility.yul\":28488:28514   */\n      mload\n        /* \"#utility.yul\":28479:28514   */\n      swap1\n      pop\n        /* \"#utility.yul\":28451:28528   */\n    tag_701:\n        /* \"#utility.yul\":28554:28621   */\n      tag_702\n        /* \"#utility.yul\":28614:28620   */\n      dup6\n        /* \"#utility.yul\":28607:28612   */\n      dup3\n        /* \"#utility.yul\":28554:28621   */\n      tag_404\n      jump\t// in\n    tag_702:\n        /* \"#utility.yul\":28548:28552   */\n      dup7\n        /* \"#utility.yul\":28541:28622   */\n      sstore\n        /* \"#utility.yul\":28410:28632   */\n      pop\n        /* \"#utility.yul\":27745:28632   */\n      jump(tag_699)\n        /* \"#utility.yul\":27775:28393   */\n    tag_700:\n        /* \"#utility.yul\":27827:27831   */\n      0x1f\n        /* \"#utility.yul\":27823:27832   */\n      not\n        /* \"#utility.yul\":27815:27821   */\n      dup5\n        /* \"#utility.yul\":27811:27833   */\n      and\n        /* \"#utility.yul\":27861:27898   */\n      tag_703\n        /* \"#utility.yul\":27893:27897   */\n      dup7\n        /* \"#utility.yul\":27861:27898   */\n      tag_391\n      jump\t// in\n    tag_703:\n        /* \"#utility.yul\":27920:27921   */\n      0x00\n        /* \"#utility.yul\":27934:28142   */\n    tag_704:\n        /* \"#utility.yul\":27948:27955   */\n      dup3\n        /* \"#utility.yul\":27945:27946   */\n      dup2\n        /* \"#utility.yul\":27942:27956   */\n      lt\n        /* \"#utility.yul\":27934:28142   */\n      iszero\n      tag_706\n      jumpi\n        /* \"#utility.yul\":28027:28036   */\n      dup5\n        /* \"#utility.yul\":28022:28025   */\n      dup10\n        /* \"#utility.yul\":28018:28037   */\n      add\n        /* \"#utility.yul\":28012:28038   */\n      mload\n        /* \"#utility.yul\":28004:28010   */\n      dup3\n        /* \"#utility.yul\":27997:28039   */\n      sstore\n        /* \"#utility.yul\":28078:28079   */\n      0x01\n        /* \"#utility.yul\":28070:28076   */\n      dup3\n        /* \"#utility.yul\":28066:28080   */\n      add\n        /* \"#utility.yul\":28056:28080   */\n      swap2\n      pop\n        /* \"#utility.yul\":28125:28127   */\n      0x20\n        /* \"#utility.yul\":28114:28123   */\n      dup6\n        /* \"#utility.yul\":28110:28128   */\n      add\n        /* \"#utility.yul\":28097:28128   */\n      swap5\n      pop\n        /* \"#utility.yul\":27971:27975   */\n      0x20\n        /* \"#utility.yul\":27968:27969   */\n      dup2\n        /* \"#utility.yul\":27964:27976   */\n      add\n        /* \"#utility.yul\":27959:27976   */\n      swap1\n      pop\n        /* \"#utility.yul\":27934:28142   */\n      jump(tag_704)\n    tag_706:\n        /* \"#utility.yul\":28170:28176   */\n      dup7\n        /* \"#utility.yul\":28161:28168   */\n      dup4\n        /* \"#utility.yul\":28158:28177   */\n      lt\n        /* \"#utility.yul\":28155:28334   */\n      iszero\n      tag_707\n      jumpi\n        /* \"#utility.yul\":28228:28237   */\n      dup5\n        /* \"#utility.yul\":28223:28226   */\n      dup10\n        /* \"#utility.yul\":28219:28238   */\n      add\n        /* \"#utility.yul\":28213:28239   */\n      mload\n        /* \"#utility.yul\":28271:28319   */\n      tag_708\n        /* \"#utility.yul\":28313:28317   */\n      0x1f\n        /* \"#utility.yul\":28305:28311   */\n      dup10\n        /* \"#utility.yul\":28301:28318   */\n      and\n        /* \"#utility.yul\":28290:28299   */\n      dup3\n        /* \"#utility.yul\":28271:28319   */\n      tag_403\n      jump\t// in\n    tag_708:\n        /* \"#utility.yul\":28263:28269   */\n      dup4\n        /* \"#utility.yul\":28256:28320   */\n      sstore\n        /* \"#utility.yul\":28178:28334   */\n      pop\n        /* \"#utility.yul\":28155:28334   */\n    tag_707:\n        /* \"#utility.yul\":28380:28381   */\n      0x01\n        /* \"#utility.yul\":28376:28377   */\n      0x02\n        /* \"#utility.yul\":28368:28374   */\n      dup9\n        /* \"#utility.yul\":28364:28378   */\n      mul\n        /* \"#utility.yul\":28360:28382   */\n      add\n        /* \"#utility.yul\":28354:28358   */\n      dup9\n        /* \"#utility.yul\":28347:28383   */\n      sstore\n        /* \"#utility.yul\":27782:28393   */\n      pop\n      pop\n      pop\n        /* \"#utility.yul\":27745:28632   */\n    tag_699:\n      pop\n        /* \"#utility.yul\":27335:28638   */\n      pop\n      pop\n      pop\n        /* \"#utility.yul\":27243:28638   */\n      pop\n      pop\n      jump\t// out\n        /* \"#utility.yul\":28644:29173   */\n    tag_194:\n        /* \"#utility.yul\":28811:28815   */\n      0x00\n        /* \"#utility.yul\":28849:28851   */\n      0x60\n        /* \"#utility.yul\":28838:28847   */\n      dup3\n        /* \"#utility.yul\":28834:28852   */\n      add\n        /* \"#utility.yul\":28826:28852   */\n      swap1\n      pop\n        /* \"#utility.yul\":28862:28932   */\n      tag_710\n        /* \"#utility.yul\":28929:28930   */\n      0x00\n        /* \"#utility.yul\":28918:28927   */\n      dup4\n        /* \"#utility.yul\":28914:28931   */\n      add\n        /* \"#utility.yul\":28905:28911   */\n      dup7\n        /* \"#utility.yul\":28862:28932   */\n      tag_366\n      jump\t// in\n    tag_710:\n        /* \"#utility.yul\":28942:29013   */\n      tag_711\n        /* \"#utility.yul\":29009:29011   */\n      0x20\n        /* \"#utility.yul\":28998:29007   */\n      dup4\n        /* \"#utility.yul\":28994:29012   */\n      add\n        /* \"#utility.yul\":28985:28991   */\n      dup6\n        /* \"#utility.yul\":28942:29013   */\n      tag_366\n      jump\t// in\n    tag_711:\n        /* \"#utility.yul\":29060:29069   */\n      dup2\n        /* \"#utility.yul\":29054:29058   */\n      dup2\n        /* \"#utility.yul\":29050:29070   */\n      sub\n        /* \"#utility.yul\":29045:29047   */\n      0x40\n        /* \"#utility.yul\":29034:29043   */\n      dup4\n        /* \"#utility.yul\":29030:29048   */\n      add\n        /* \"#utility.yul\":29023:29071   */\n      mstore\n        /* \"#utility.yul\":29088:29166   */\n      tag_712\n        /* \"#utility.yul\":29161:29165   */\n      dup2\n        /* \"#utility.yul\":29152:29158   */\n      dup5\n        /* \"#utility.yul\":29088:29166   */\n      tag_349\n      jump\t// in\n    tag_712:\n        /* \"#utility.yul\":29080:29166   */\n      swap1\n      pop\n        /* \"#utility.yul\":28644:29173   */\n      swap5\n      swap4\n      pop\n      pop\n      pop\n      pop\n      jump\t// out\n        /* \"#utility.yul\":29179:29346   */\n    tag_405:\n        /* \"#utility.yul\":29319:29338   */\n      0x5a65726f20616464726573732075736572000000000000000000000000000000\n        /* \"#utility.yul\":29315:29316   */\n      0x00\n        /* \"#utility.yul\":29307:29313   */\n      dup3\n        /* \"#utility.yul\":29303:29317   */\n      add\n        /* \"#utility.yul\":29296:29339   */\n      mstore\n        /* \"#utility.yul\":29179:29346   */\n      pop\n      jump\t// out\n        /* \"#utility.yul\":29352:29718   */\n    tag_406:\n        /* \"#utility.yul\":29494:29497   */\n      0x00\n        /* \"#utility.yul\":29515:29582   */\n      tag_715\n        /* \"#utility.yul\":29579:29581   */\n      0x11\n        /* \"#utility.yul\":29574:29577   */\n      dup4\n        /* \"#utility.yul\":29515:29582   */\n      tag_326\n      jump\t// in\n    tag_715:\n        /* \"#utility.yul\":29508:29582   */\n      swap2\n      pop\n        /* \"#utility.yul\":29591:29684   */\n      tag_716\n        /* \"#utility.yul\":29680:29683   */\n      dup3\n        /* \"#utility.yul\":29591:29684   */\n      tag_405\n      jump\t// in\n    tag_716:\n        /* \"#utility.yul\":29709:29711   */\n      0x20\n        /* \"#utility.yul\":29704:29707   */\n      dup3\n        /* \"#utility.yul\":29700:29712   */\n      add\n        /* \"#utility.yul\":29693:29712   */\n      swap1\n      pop\n        /* \"#utility.yul\":29352:29718   */\n      swap2\n      swap1\n      pop\n      jump\t// out\n        /* \"#utility.yul\":29724:30143   */\n    tag_205:\n        /* \"#utility.yul\":29890:29894   */\n      0x00\n        /* \"#utility.yul\":29928:29930   */\n      0x20\n        /* \"#utility.yul\":29917:29926   */\n      dup3\n        /* \"#utility.yul\":29913:29931   */\n      add\n        /* \"#utility.yul\":29905:29931   */\n      swap1\n      pop\n        /* \"#utility.yul\":29977:29986   */\n      dup2\n        /* \"#utility.yul\":29971:29975   */\n      dup2\n        /* \"#utility.yul\":29967:29987   */\n      sub\n        /* \"#utility.yul\":29963:29964   */\n      0x00\n        /* \"#utility.yul\":29952:29961   */\n      dup4\n        /* \"#utility.yul\":29948:29965   */\n      add\n        /* \"#utility.yul\":29941:29988   */\n      mstore\n        /* \"#utility.yul\":30005:30136   */\n      tag_718\n        /* \"#utility.yul\":30131:30135   */\n      dup2\n        /* \"#utility.yul\":30005:30136   */\n      tag_406\n      jump\t// in\n    tag_718:\n        /* \"#utility.yul\":29997:30136   */\n      swap1\n      pop\n        /* \"#utility.yul\":29724:30143   */\n      swap2\n      swap1\n      pop\n      jump\t// out\n        /* \"#utility.yul\":30149:30323   */\n    tag_407:\n        /* \"#utility.yul\":30289:30315   */\n      0x4d69736d617463686564206172726179206c656e677468730000000000000000\n        /* \"#utility.yul\":30285:30286   */\n      0x00\n        /* \"#utility.yul\":30277:30283   */\n      dup3\n        /* \"#utility.yul\":30273:30287   */\n      add\n        /* \"#utility.yul\":30266:30316   */\n      mstore\n        /* \"#utility.yul\":30149:30323   */\n      pop\n      jump\t// out\n        /* \"#utility.yul\":30329:30695   */\n    tag_408:\n        /* \"#utility.yul\":30471:30474   */\n      0x00\n        /* \"#utility.yul\":30492:30559   */\n      tag_721\n        /* \"#utility.yul\":30556:30558   */\n      0x18\n        /* \"#utility.yul\":30551:30554   */\n      dup4\n        /* \"#utility.yul\":30492:30559   */\n      tag_326\n      jump\t// in\n    tag_721:\n        /* \"#utility.yul\":30485:30559   */\n      swap2\n      pop\n        /* \"#utility.yul\":30568:30661   */\n      tag_722\n        /* \"#utility.yul\":30657:30660   */\n      dup3\n        /* \"#utility.yul\":30568:30661   */\n      tag_407\n      jump\t// in\n    tag_722:\n        /* \"#utility.yul\":30686:30688   */\n      0x20\n        /* \"#utility.yul\":30681:30684   */\n      dup3\n        /* \"#utility.yul\":30677:30689   */\n      add\n        /* \"#utility.yul\":30670:30689   */\n      swap1\n      pop\n        /* \"#utility.yul\":30329:30695   */\n      swap2\n      swap1\n      pop\n      jump\t// out\n        /* \"#utility.yul\":30701:31120   */\n    tag_217:\n        /* \"#utility.yul\":30867:30871   */\n      0x00\n        /* \"#utility.yul\":30905:30907   */\n      0x20\n        /* \"#utility.yul\":30894:30903   */\n      dup3\n        /* \"#utility.yul\":30890:30908   */\n      add\n        /* \"#utility.yul\":30882:30908   */\n      swap1\n      pop\n        /* \"#utility.yul\":30954:30963   */\n      dup2\n        /* \"#utility.yul\":30948:30952   */\n      dup2\n        /* \"#utility.yul\":30944:30964   */\n      sub\n        /* \"#utility.yul\":30940:30941   */\n      0x00\n        /* \"#utility.yul\":30929:30938   */\n      dup4\n        /* \"#utility.yul\":30925:30942   */\n      add\n        /* \"#utility.yul\":30918:30965   */\n      mstore\n        /* \"#utility.yul\":30982:31113   */\n      tag_724\n        /* \"#utility.yul\":31108:31112   */\n      dup2\n        /* \"#utility.yul\":30982:31113   */\n      tag_408\n      jump\t// in\n    tag_724:\n        /* \"#utility.yul\":30974:31113   */\n      swap1\n      pop\n        /* \"#utility.yul\":30701:31120   */\n      swap2\n      swap1\n      pop\n      jump\t// out\n        /* \"#utility.yul\":31126:31306   */\n    tag_223:\n        /* \"#utility.yul\":31174:31251   */\n      0x4e487b7100000000000000000000000000000000000000000000000000000000\n        /* \"#utility.yul\":31171:31172   */\n      0x00\n        /* \"#utility.yul\":31164:31252   */\n      mstore\n        /* \"#utility.yul\":31271:31275   */\n      0x32\n        /* \"#utility.yul\":31268:31269   */\n      0x04\n        /* \"#utility.yul\":31261:31276   */\n      mstore\n        /* \"#utility.yul\":31295:31299   */\n      0x24\n        /* \"#utility.yul\":31292:31293   */\n      0x00\n        /* \"#utility.yul\":31285:31300   */\n      revert\n        /* \"#utility.yul\":31312:31542   */\n    tag_409:\n        /* \"#utility.yul\":31452:31486   */\n      0x5769746864726177616c20616d6f756e74206d75737420626520677265617465\n        /* \"#utility.yul\":31448:31449   */\n      0x00\n        /* \"#utility.yul\":31440:31446   */\n      dup3\n        /* \"#utility.yul\":31436:31450   */\n      add\n        /* \"#utility.yul\":31429:31487   */\n      mstore\n        /* \"#utility.yul\":31521:31534   */\n      0x72207468616e207a65726f000000000000000000000000000000000000000000\n        /* \"#utility.yul\":31516:31518   */\n      0x20\n        /* \"#utility.yul\":31508:31514   */\n      dup3\n        /* \"#utility.yul\":31504:31519   */\n      add\n        /* \"#utility.yul\":31497:31535   */\n      mstore\n        /* \"#utility.yul\":31312:31542   */\n      pop\n      jump\t// out\n        /* \"#utility.yul\":31548:31914   */\n    tag_410:\n        /* \"#utility.yul\":31690:31693   */\n      0x00\n        /* \"#utility.yul\":31711:31778   */\n      tag_728\n        /* \"#utility.yul\":31775:31777   */\n      0x2b\n        /* \"#utility.yul\":31770:31773   */\n      dup4\n        /* \"#utility.yul\":31711:31778   */\n      tag_326\n      jump\t// in\n    tag_728:\n        /* \"#utility.yul\":31704:31778   */\n      swap2\n      pop\n        /* \"#utility.yul\":31787:31880   */\n      tag_729\n        /* \"#utility.yul\":31876:31879   */\n      dup3\n        /* \"#utility.yul\":31787:31880   */\n      tag_409\n      jump\t// in\n    tag_729:\n        /* \"#utility.yul\":31905:31907   */\n      0x40\n        /* \"#utility.yul\":31900:31903   */\n      dup3\n        /* \"#utility.yul\":31896:31908   */\n      add\n        /* \"#utility.yul\":31889:31908   */\n      swap1\n      pop\n        /* \"#utility.yul\":31548:31914   */\n      swap2\n      swap1\n      pop\n      jump\t// out\n        /* \"#utility.yul\":31920:32339   */\n    tag_246:\n        /* \"#utility.yul\":32086:32090   */\n      0x00\n        /* \"#utility.yul\":32124:32126   */\n      0x20\n        /* \"#utility.yul\":32113:32122   */\n      dup3\n        /* \"#utility.yul\":32109:32127   */\n      add\n        /* \"#utility.yul\":32101:32127   */\n      swap1\n      pop\n        /* \"#utility.yul\":32173:32182   */\n      dup2\n        /* \"#utility.yul\":32167:32171   */\n      dup2\n        /* \"#utility.yul\":32163:32183   */\n      sub\n        /* \"#utility.yul\":32159:32160   */\n      0x00\n        /* \"#utility.yul\":32148:32157   */\n      dup4\n        /* \"#utility.yul\":32144:32161   */\n      add\n        /* \"#utility.yul\":32137:32184   */\n      mstore\n        /* \"#utility.yul\":32201:32332   */\n      tag_731\n        /* \"#utility.yul\":32327:32331   */\n      dup2\n        /* \"#utility.yul\":32201:32332   */\n      tag_410\n      jump\t// in\n    tag_731:\n        /* \"#utility.yul\":32193:32332   */\n      swap1\n      pop\n        /* \"#utility.yul\":31920:32339   */\n      swap2\n      swap1\n      pop\n      jump\t// out\n        /* \"#utility.yul\":32345:32513   */\n    tag_411:\n        /* \"#utility.yul\":32485:32505   */\n      0x496e73756666696369656e742066756e64730000000000000000000000000000\n        /* \"#utility.yul\":32481:32482   */\n      0x00\n        /* \"#utility.yul\":32473:32479   */\n      dup3\n        /* \"#utility.yul\":32469:32483   */\n      add\n        /* \"#utility.yul\":32462:32506   */\n      mstore\n        /* \"#utility.yul\":32345:32513   */\n      pop\n      jump\t// out\n        /* \"#utility.yul\":32519:32885   */\n    tag_412:\n        /* \"#utility.yul\":32661:32664   */\n      0x00\n        /* \"#utility.yul\":32682:32749   */\n      tag_734\n        /* \"#utility.yul\":32746:32748   */\n      0x12\n        /* \"#utility.yul\":32741:32744   */\n      dup4\n        /* \"#utility.yul\":32682:32749   */\n      tag_326\n      jump\t// in\n    tag_734:\n        /* \"#utility.yul\":32675:32749   */\n      swap2\n      pop\n        /* \"#utility.yul\":32758:32851   */\n      tag_735\n        /* \"#utility.yul\":32847:32850   */\n      dup3\n        /* \"#utility.yul\":32758:32851   */\n      tag_411\n      jump\t// in\n    tag_735:\n        /* \"#utility.yul\":32876:32878   */\n      0x20\n        /* \"#utility.yul\":32871:32874   */\n      dup3\n        /* \"#utility.yul\":32867:32879   */\n      add\n        /* \"#utility.yul\":32860:32879   */\n      swap1\n      pop\n        /* \"#utility.yul\":32519:32885   */\n      swap2\n      swap1\n      pop\n      jump\t// out\n        /* \"#utility.yul\":32891:33310   */\n    tag_249:\n        /* \"#utility.yul\":33057:33061   */\n      0x00\n        /* \"#utility.yul\":33095:33097   */\n      0x20\n        /* \"#utility.yul\":33084:33093   */\n      dup3\n        /* \"#utility.yul\":33080:33098   */\n      add\n        /* \"#utility.yul\":33072:33098   */\n      swap1\n      pop\n        /* \"#utility.yul\":33144:33153   */\n      dup2\n        /* \"#utility.yul\":33138:33142   */\n      dup2\n        /* \"#utility.yul\":33134:33154   */\n      sub\n        /* \"#utility.yul\":33130:33131   */\n      0x00\n        /* \"#utility.yul\":33119:33128   */\n      dup4\n        /* \"#utility.yul\":33115:33132   */\n      add\n        /* \"#utility.yul\":33108:33155   */\n      mstore\n        /* \"#utility.yul\":33172:33303   */\n      tag_737\n        /* \"#utility.yul\":33298:33302   */\n      dup2\n        /* \"#utility.yul\":33172:33303   */\n      tag_412\n      jump\t// in\n    tag_737:\n        /* \"#utility.yul\":33164:33303   */\n      swap1\n      pop\n        /* \"#utility.yul\":32891:33310   */\n      swap2\n      swap1\n      pop\n      jump\t// out\n        /* \"#utility.yul\":33316:33497   */\n    tag_413:\n        /* \"#utility.yul\":33456:33489   */\n      0x5265656e7472616e637947756172643a207265656e7472616e742063616c6c00\n        /* \"#utility.yul\":33452:33453   */\n      0x00\n        /* \"#utility.yul\":33444:33450   */\n      dup3\n        /* \"#utility.yul\":33440:33454   */\n      add\n        /* \"#utility.yul\":33433:33490   */\n      mstore\n        /* \"#utility.yul\":33316:33497   */\n      pop\n      jump\t// out\n        /* \"#utility.yul\":33503:33869   */\n    tag_414:\n        /* \"#utility.yul\":33645:33648   */\n      0x00\n        /* \"#utility.yul\":33666:33733   */\n      tag_740\n        /* \"#utility.yul\":33730:33732   */\n      0x1f\n        /* \"#utility.yul\":33725:33728   */\n      dup4\n        /* \"#utility.yul\":33666:33733   */\n      tag_326\n      jump\t// in\n    tag_740:\n        /* \"#utility.yul\":33659:33733   */\n      swap2\n      pop\n        /* \"#utility.yul\":33742:33835   */\n      tag_741\n        /* \"#utility.yul\":33831:33834   */\n      dup3\n        /* \"#utility.yul\":33742:33835   */\n      tag_413\n      jump\t// in\n    tag_741:\n        /* \"#utility.yul\":33860:33862   */\n      0x20\n        /* \"#utility.yul\":33855:33858   */\n      dup3\n        /* \"#utility.yul\":33851:33863   */\n      add\n        /* \"#utility.yul\":33844:33863   */\n      swap1\n      pop\n        /* \"#utility.yul\":33503:33869   */\n      swap2\n      swap1\n      pop\n      jump\t// out\n        /* \"#utility.yul\":33875:34294   */\n    tag_268:\n        /* \"#utility.yul\":34041:34045   */\n      0x00\n        /* \"#utility.yul\":34079:34081   */\n      0x20\n        /* \"#utility.yul\":34068:34077   */\n      dup3\n        /* \"#utility.yul\":34064:34082   */\n      add\n        /* \"#utility.yul\":34056:34082   */\n      swap1\n      pop\n        /* \"#utility.yul\":34128:34137   */\n      dup2\n        /* \"#utility.yul\":34122:34126   */\n      dup2\n        /* \"#utility.yul\":34118:34138   */\n      sub\n        /* \"#utility.yul\":34114:34115   */\n      0x00\n        /* \"#utility.yul\":34103:34112   */\n      dup4\n        /* \"#utility.yul\":34099:34116   */\n      add\n        /* \"#utility.yul\":34092:34139   */\n      mstore\n        /* \"#utility.yul\":34156:34287   */\n      tag_743\n        /* \"#utility.yul\":34282:34286   */\n      dup2\n        /* \"#utility.yul\":34156:34287   */\n      tag_414\n      jump\t// in\n    tag_743:\n        /* \"#utility.yul\":34148:34287   */\n      swap1\n      pop\n        /* \"#utility.yul\":33875:34294   */\n      swap2\n      swap1\n      pop\n      jump\t// out\n        /* \"#utility.yul\":34300:34632   */\n    tag_272:\n        /* \"#utility.yul\":34421:34425   */\n      0x00\n        /* \"#utility.yul\":34459:34461   */\n      0x40\n        /* \"#utility.yul\":34448:34457   */\n      dup3\n        /* \"#utility.yul\":34444:34462   */\n      add\n        /* \"#utility.yul\":34436:34462   */\n      swap1\n      pop\n        /* \"#utility.yul\":34472:34543   */\n      tag_745\n        /* \"#utility.yul\":34540:34541   */\n      0x00\n        /* \"#utility.yul\":34529:34538   */\n      dup4\n        /* \"#utility.yul\":34525:34542   */\n      add\n        /* \"#utility.yul\":34516:34522   */\n      dup6\n        /* \"#utility.yul\":34472:34543   */\n      tag_336\n      jump\t// in\n    tag_745:\n        /* \"#utility.yul\":34553:34625   */\n      tag_746\n        /* \"#utility.yul\":34621:34623   */\n      0x20\n        /* \"#utility.yul\":34610:34619   */\n      dup4\n        /* \"#utility.yul\":34606:34624   */\n      add\n        /* \"#utility.yul\":34597:34603   */\n      dup5\n        /* \"#utility.yul\":34553:34625   */\n      tag_325\n      jump\t// in\n    tag_746:\n        /* \"#utility.yul\":34300:34632   */\n      swap4\n      swap3\n      pop\n      pop\n      pop\n      jump\t// out\n        /* \"#utility.yul\":34638:35080   */\n    tag_278:\n        /* \"#utility.yul\":34787:34791   */\n      0x00\n        /* \"#utility.yul\":34825:34827   */\n      0x60\n        /* \"#utility.yul\":34814:34823   */\n      dup3\n        /* \"#utility.yul\":34810:34828   */\n      add\n        /* \"#utility.yul\":34802:34828   */\n      swap1\n      pop\n        /* \"#utility.yul\":34838:34909   */\n      tag_748\n        /* \"#utility.yul\":34906:34907   */\n      0x00\n        /* \"#utility.yul\":34895:34904   */\n      dup4\n        /* \"#utility.yul\":34891:34908   */\n      add\n        /* \"#utility.yul\":34882:34888   */\n      dup7\n        /* \"#utility.yul\":34838:34909   */\n      tag_336\n      jump\t// in\n    tag_748:\n        /* \"#utility.yul\":34919:34991   */\n      tag_749\n        /* \"#utility.yul\":34987:34989   */\n      0x20\n        /* \"#utility.yul\":34976:34985   */\n      dup4\n        /* \"#utility.yul\":34972:34990   */\n      add\n        /* \"#utility.yul\":34963:34969   */\n      dup6\n        /* \"#utility.yul\":34919:34991   */\n      tag_336\n      jump\t// in\n    tag_749:\n        /* \"#utility.yul\":35001:35073   */\n      tag_750\n        /* \"#utility.yul\":35069:35071   */\n      0x40\n        /* \"#utility.yul\":35058:35067   */\n      dup4\n        /* \"#utility.yul\":35054:35072   */\n      add\n        /* \"#utility.yul\":35045:35051   */\n      dup5\n        /* \"#utility.yul\":35001:35073   */\n      tag_325\n      jump\t// in\n    tag_750:\n        /* \"#utility.yul\":34638:35080   */\n      swap5\n      swap4\n      pop\n      pop\n      pop\n      pop\n      jump\t// out\n\n    auxdata: 0xa264697066735822122091196f9bbb7993e4f8222bb807bd2f78c7e9745de458f7283a21cd11c875d3fd64736f6c634300081c0033\n}\n",
				"bytecode": {
					"linkReferences": {},
					"object": "6080604052348015600f57600080fd5b50612f428061001f6000396000f3fe6080604052600436106100ec5760003560e01c80638da5cb5b1161008a578063b807a3c411610059578063b807a3c4146103c0578063e3e7c1f9146103e9578063f2fde38b14610412578063f3fef3a31461043b576101af565b80638da5cb5b146102f2578063a9012c891461031d578063a9590e8a14610346578063aee9c87214610383576101af565b8063485cc955116100c6578063485cc9551461025a578063715018a61461028357806385c758f71461029a5780638a19c8bc146102c5576101af565b80631e83409a146101ea57806331f7d9641461021357806347e7ef241461023e576101af565b366101af5734603560008073ffffffffffffffffffffffffffffffffffffffff1673ffffffffffffffffffffffffffffffffffffffff16815260200190815260200160002060008282546101409190611d34565b92505081905550600073ffffffffffffffffffffffffffffffffffffffff163373ffffffffffffffffffffffffffffffffffffffff167f5548c837ab068cf56a2c2479df0882a4922fd203edb7517321831d95078c5f62346040516101a59190611d77565b60405180910390a3005b6040517f08c379a00000000000000000000000000000000000000000000000000000000081526004016101e190611def565b60405180910390fd5b3480156101f657600080fd5b50610211600480360381019061020c9190611e81565b610464565b005b34801561021f57600080fd5b506102286108d8565b6040516102359190611ebd565b60405180910390f35b61025860048036038101906102539190611f04565b6108dd565b005b34801561026657600080fd5b50610281600480360381019061027c9190611f44565b610a98565b005b34801561028f57600080fd5b50610298610c71565b005b3480156102a657600080fd5b506102af610c85565b6040516102bc9190611fe3565b60405180910390f35b3480156102d157600080fd5b506102da610cab565b6040516102e9939291906120a0565b60405180910390f35b3480156102fe57600080fd5b50610307610d73565b6040516103149190611ebd565b60405180910390f35b34801561032957600080fd5b50610344600480360381019061033f919061223f565b610dab565b005b34801561035257600080fd5b5061036d60048036038101906103689190611f44565b610fc4565b60405161037a9190611d77565b60405180910390f35b34801561038f57600080fd5b506103aa60048036038101906103a59190611e81565b610fe9565b6040516103b79190611d77565b60405180910390f35b3480156103cc57600080fd5b506103e760048036038101906103e291906122ae565b611001565b005b3480156103f557600080fd5b50610410600480360381019061040b91906123b7565b611236565b005b34801561041e57600080fd5b5061043960048036038101906104349190611e81565b6114e2565b005b34801561044757600080fd5b50610462600480360381019061045d9190611f04565b611568565b005b61046c61182b565b603360000160009054906101000a900467ffffffffffffffff1667ffffffffffffffff164210806104bf5750603360000160089054906101000a900467ffffffffffffffff1667ffffffffffffffff1642115b156105375742603360000160009054906101000a900467ffffffffffffffff16603360000160089054906101000a900467ffffffffffffffff166040517ffa7410d400000000000000000000000000000000000000000000000000000000815260040161052e9392919061247d565b60405180910390fd5b6000603660003373ffffffffffffffffffffffffffffffffffffffff1673ffffffffffffffffffffffffffffffffffffffff16815260200190815260200160002060008373ffffffffffffffffffffffffffffffffffffffff1673ffffffffffffffffffffffffffffffffffffffff168152602001908152602001600020549050600081116105fb576040517f08c379a00000000000000000000000000000000000000000000000000000000081526004016105f290612500565b60405180910390fd5b80603560008473ffffffffffffffffffffffffffffffffffffffff1673ffffffffffffffffffffffffffffffffffffffff16815260200190815260200160002054101561067d576040517f08c379a00000000000000000000000000000000000000000000000000000000081526004016106749061256c565b60405180910390fd5b6000603660003373ffffffffffffffffffffffffffffffffffffffff1673ffffffffffffffffffffffffffffffffffffffff16815260200190815260200160002060008473ffffffffffffffffffffffffffffffffffffffff1673ffffffffffffffffffffffffffffffffffffffff1681526020019081526020016000208190555080603560008473ffffffffffffffffffffffffffffffffffffffff1673ffffffffffffffffffffffffffffffffffffffff168152602001908152602001600020600082825461074e919061258c565b92505081905550600073ffffffffffffffffffffffffffffffffffffffff168273ffffffffffffffffffffffffffffffffffffffff160361083b5760003373ffffffffffffffffffffffffffffffffffffffff16826040516107af906125f1565b60006040518083038185875af1925050503d80600081146107ec576040519150601f19603f3d011682016040523d82523d6000602084013e6107f1565b606091505b5050905080610835576040517f08c379a000000000000000000000000000000000000000000000000000000000815260040161082c90612652565b60405180910390fd5b50610867565b61086633828473ffffffffffffffffffffffffffffffffffffffff1661187a9092919063ffffffff16565b5b8173ffffffffffffffffffffffffffffffffffffffff163373ffffffffffffffffffffffffffffffffffffffff167ff7a40077ff7a04c7e61f6f26fb13774259ddf1b6bce9ecf26a8276cdd3992683836040516108c49190611d77565b60405180910390a3506108d56118f9565b50565b600081565b6108e561182b565b600073ffffffffffffffffffffffffffffffffffffffff168273ffffffffffffffffffffffffffffffffffffffff16036109605780341461095b576040517f08c379a0000000000000000000000000000000000000000000000000000000008152600401610952906126be565b60405180910390fd5b6109d1565b600081116109a3576040517f08c379a000000000000000000000000000000000000000000000000000000000815260040161099a90612750565b60405180910390fd5b6109d03330838573ffffffffffffffffffffffffffffffffffffffff16611903909392919063ffffffff16565b5b80603560008473ffffffffffffffffffffffffffffffffffffffff1673ffffffffffffffffffffffffffffffffffffffff1681526020019081526020016000206000828254610a209190611d34565b925050819055508173ffffffffffffffffffffffffffffffffffffffff163373ffffffffffffffffffffffffffffffffffffffff167f5548c837ab068cf56a2c2479df0882a4922fd203edb7517321831d95078c5f6283604051610a849190611d77565b60405180910390a3610a946118f9565b5050565b6000610aa2611985565b905060008160000160089054906101000a900460ff1615905060008260000160009054906101000a900467ffffffffffffffff1690506000808267ffffffffffffffff16148015610af05750825b9050600060018367ffffffffffffffff16148015610b25575060003073ffffffffffffffffffffffffffffffffffffffff163b145b905081158015610b33575080155b15610b6a576040517ff92ee8a900000000000000000000000000000000000000000000000000000000815260040160405180910390fd5b60018560000160006101000a81548167ffffffffffffffff021916908367ffffffffffffffff1602179055508315610bba5760018560000160086101000a81548160ff0219169083151502179055505b610bc3866119ad565b610bcb6119c1565b86603260006101000a81548173ffffffffffffffffffffffffffffffffffffffff021916908373ffffffffffffffffffffffffffffffffffffffff1602179055508315610c685760008560000160086101000a81548160ff0219169083151502179055507fc7f505b2f371ae2175ee4913f4499e1f2633a7b5936321eed1cdaeb6115181d26001604051610c5f91906127ab565b60405180910390a15b50505050505050565b610c796119d3565b610c836000611a5a565b565b603260009054906101000a900473ffffffffffffffffffffffffffffffffffffffff1681565b60338060000160009054906101000a900467ffffffffffffffff16908060000160089054906101000a900467ffffffffffffffff1690806001018054610cf0906127f5565b80601f0160208091040260200160405190810160405280929190818152602001828054610d1c906127f5565b8015610d695780601f10610d3e57610100808354040283529160200191610d69565b820191906000526020600020905b815481529060010190602001808311610d4c57829003601f168201915b5050505050905083565b600080610d7e611b31565b90508060000160009054906101000a900473ffffffffffffffffffffffffffffffffffffffff1691505090565b603260009054906101000a900473ffffffffffffffffffffffffffffffffffffffff1673ffffffffffffffffffffffffffffffffffffffff166324d7806c336040518263ffffffff1660e01b8152600401610e069190611ebd565b602060405180830381865afa158015610e23573d6000803e3d6000fd5b505050506040513d601f19601f82011682018060405250810190610e47919061285e565b610e86576040517f08c379a0000000000000000000000000000000000000000000000000000000008152600401610e7d906128d7565b60405180910390fd5b8167ffffffffffffffff168367ffffffffffffffff1610610edc576040517f08c379a0000000000000000000000000000000000000000000000000000000008152600401610ed390612969565b60405180910390fd5b60405180606001604052808467ffffffffffffffff1681526020018367ffffffffffffffff16815260200182815250603360008201518160000160006101000a81548167ffffffffffffffff021916908367ffffffffffffffff16021790555060208201518160000160086101000a81548167ffffffffffffffff021916908367ffffffffffffffff1602179055506040820151816001019081610f809190612b2b565b509050507f09e6db48f22357e6dce2bbff89db8ff25f0012a08186d6ea72e2343fdc112e13838383604051610fb793929190612bfd565b60405180910390a1505050565b6036602052816000526040600020602052806000526040600020600091509150505481565b60356020528060005260406000206000915090505481565b603260009054906101000a900473ffffffffffffffffffffffffffffffffffffffff1673ffffffffffffffffffffffffffffffffffffffff166324d7806c336040518263ffffffff1660e01b815260040161105c9190611ebd565b602060405180830381865afa158015611079573d6000803e3d6000fd5b505050506040513d601f19601f8201168201806040525081019061109d919061285e565b6110dc576040517f08c379a00000000000000000000000000000000000000000000000000000000081526004016110d3906128d7565b60405180910390fd5b600073ffffffffffffffffffffffffffffffffffffffff168373ffffffffffffffffffffffffffffffffffffffff160361114b576040517f08c379a000000000000000000000000000000000000000000000000000000000815260040161114290612c87565b60405180910390fd5b80603660008573ffffffffffffffffffffffffffffffffffffffff1673ffffffffffffffffffffffffffffffffffffffff16815260200190815260200160002060008473ffffffffffffffffffffffffffffffffffffffff1673ffffffffffffffffffffffffffffffffffffffff168152602001908152602001600020819055508173ffffffffffffffffffffffffffffffffffffffff168373ffffffffffffffffffffffffffffffffffffffff167f3d0601f3b0e52fd772f1fa71d91651b34b6a11144bea30d74e0f820019a04dc2836040516112299190611d77565b60405180910390a3505050565b603260009054906101000a900473ffffffffffffffffffffffffffffffffffffffff1673ffffffffffffffffffffffffffffffffffffffff166324d7806c336040518263ffffffff1660e01b81526004016112919190611ebd565b602060405180830381865afa1580156112ae573d6000803e3d6000fd5b505050506040513d601f19601f820116820180604052508101906112d2919061285e565b611311576040517f08c379a0000000000000000000000000000000000000000000000000000000008152600401611308906128d7565b60405180910390fd5b818190508484905014611359576040517f08c379a000000000000000000000000000000000000000000000000000000000815260040161135090612cf3565b60405180910390fd5b60005b848490508110156114da5782828281811061137a57611379612d13565b5b905060200201356036600087878581811061139857611397612d13565b5b90506020020160208101906113ad9190611e81565b73ffffffffffffffffffffffffffffffffffffffff1673ffffffffffffffffffffffffffffffffffffffff16815260200190815260200160002060008873ffffffffffffffffffffffffffffffffffffffff1673ffffffffffffffffffffffffffffffffffffffff168152602001908152602001600020819055508573ffffffffffffffffffffffffffffffffffffffff1685858381811061145257611451612d13565b5b90506020020160208101906114679190611e81565b73ffffffffffffffffffffffffffffffffffffffff167f3d0601f3b0e52fd772f1fa71d91651b34b6a11144bea30d74e0f820019a04dc28585858181106114b1576114b0612d13565b5b905060200201356040516114c59190611d77565b60405180910390a3808060010191505061135c565b505050505050565b6114ea6119d3565b600073ffffffffffffffffffffffffffffffffffffffff168173ffffffffffffffffffffffffffffffffffffffff160361155c5760006040517f1e4fbdf70000000000000000000000000000000000000000000000000000000081526004016115539190611ebd565b60405180910390fd5b61156581611a5a565b50565b6115706119d3565b61157861182b565b600081116115bb576040517f08c379a00000000000000000000000000000000000000000000000000000000081526004016115b290612db4565b60405180910390fd5b80603560008473ffffffffffffffffffffffffffffffffffffffff1673ffffffffffffffffffffffffffffffffffffffff16815260200190815260200160002054101561163d576040517f08c379a000000000000000000000000000000000000000000000000000000000815260040161163490612e20565b60405180910390fd5b80603560008473ffffffffffffffffffffffffffffffffffffffff1673ffffffffffffffffffffffffffffffffffffffff168152602001908152602001600020600082825461168c919061258c565b92505081905550600073ffffffffffffffffffffffffffffffffffffffff168273ffffffffffffffffffffffffffffffffffffffff16036117805760006116d1610d73565b73ffffffffffffffffffffffffffffffffffffffff16826040516116f4906125f1565b60006040518083038185875af1925050503d8060008114611731576040519150601f19603f3d011682016040523d82523d6000602084013e611736565b606091505b505090508061177a576040517f08c379a000000000000000000000000000000000000000000000000000000000815260040161177190612652565b60405180910390fd5b506117b3565b6117b261178b610d73565b828473ffffffffffffffffffffffffffffffffffffffff1661187a9092919063ffffffff16565b5b8173ffffffffffffffffffffffffffffffffffffffff166117d2610d73565b73ffffffffffffffffffffffffffffffffffffffff167f9b1bfa7fa9ee420a16e124f794c35ac9f90472acc99140eb2f6447c714cad8eb836040516118179190611d77565b60405180910390a36118276118f9565b5050565b600260005403611870576040517f08c379a000000000000000000000000000000000000000000000000000000000815260040161186790612e8c565b60405180910390fd5b6002600081905550565b6118f4838473ffffffffffffffffffffffffffffffffffffffff1663a9059cbb85856040516024016118ad929190612eac565b604051602081830303815290604052915060e01b6020820180517bffffffffffffffffffffffffffffffffffffffffffffffffffffffff8381831617835250505050611b59565b505050565b6001600081905550565b61197f848573ffffffffffffffffffffffffffffffffffffffff166323b872dd86868660405160240161193893929190612ed5565b604051602081830303815290604052915060e01b6020820180517bffffffffffffffffffffffffffffffffffffffffffffffffffffffff8381831617835250505050611b59565b50505050565b60007ff0c57e16840df040f15088dc2f81fe391c3923bec73e23a9662efc9c229c6a00905090565b6119b5611bfb565b6119be81611c3b565b50565b6119c9611bfb565b6119d1611cc1565b565b6119db611cd3565b73ffffffffffffffffffffffffffffffffffffffff166119f9610d73565b73ffffffffffffffffffffffffffffffffffffffff1614611a5857611a1c611cd3565b6040517f118cdaa7000000000000000000000000000000000000000000000000000000008152600401611a4f9190611ebd565b60405180910390fd5b565b6000611a64611b31565b905060008160000160009054906101000a900473ffffffffffffffffffffffffffffffffffffffff169050828260000160006101000a81548173ffffffffffffffffffffffffffffffffffffffff021916908373ffffffffffffffffffffffffffffffffffffffff1602179055508273ffffffffffffffffffffffffffffffffffffffff168173ffffffffffffffffffffffffffffffffffffffff167f8be0079c531659141344cd1fd0a4f28419497f9722a3daafe3b4186f6b6457e060405160405180910390a3505050565b60007f9016d09d72d40fdae2fd8ceac6b6234c7706214fd39c1cd1e609a0528c199300905090565b600080602060008451602086016000885af180611b7c576040513d6000823e3d81fd5b3d925060005191505060008214611b97576001811415611bb3565b60008473ffffffffffffffffffffffffffffffffffffffff163b145b15611bf557836040517f5274afe7000000000000000000000000000000000000000000000000000000008152600401611bec9190611ebd565b60405180910390fd5b50505050565b611c03611cdb565b611c39576040517fd7e6bcf800000000000000000000000000000000000000000000000000000000815260040160405180910390fd5b565b611c43611bfb565b600073ffffffffffffffffffffffffffffffffffffffff168173ffffffffffffffffffffffffffffffffffffffff1603611cb55760006040517f1e4fbdf7000000000000000000000000000000000000000000000000000000008152600401611cac9190611ebd565b60405180910390fd5b611cbe81611a5a565b50565b611cc9611bfb565b6001600081905550565b600033905090565b6000611ce5611985565b60000160089054906101000a900460ff16905090565b6000819050919050565b7f4e487b7100000000000000000000000000000000000000000000000000000000600052601160045260246000fd5b6000611d3f82611cfb565b9150611d4a83611cfb565b9250828201905080821115611d6257611d61611d05565b5b92915050565b611d7181611cfb565b82525050565b6000602082019050611d8c6000830184611d68565b92915050565b600082825260208201905092915050565b7f537765657473706f743a20757365206465706f73697428290000000000000000600082015250565b6000611dd9601883611d92565b9150611de482611da3565b602082019050919050565b60006020820190508181036000830152611e0881611dcc565b9050919050565b6000604051905090565b600080fd5b600080fd5b600073ffffffffffffffffffffffffffffffffffffffff82169050919050565b6000611e4e82611e23565b9050919050565b611e5e81611e43565b8114611e6957600080fd5b50565b600081359050611e7b81611e55565b92915050565b600060208284031215611e9757611e96611e19565b5b6000611ea584828501611e6c565b91505092915050565b611eb781611e43565b82525050565b6000602082019050611ed26000830184611eae565b92915050565b611ee181611cfb565b8114611eec57600080fd5b50565b600081359050611efe81611ed8565b92915050565b60008060408385031215611f1b57611f1a611e19565b5b6000611f2985828601611e6c565b9250506020611f3a85828601611eef565b9150509250929050565b60008060408385031215611f5b57611f5a611e19565b5b6000611f6985828601611e6c565b9250506020611f7a85828601611e6c565b9150509250929050565b6000819050919050565b6000611fa9611fa4611f9f84611e23565b611f84565b611e23565b9050919050565b6000611fbb82611f8e565b9050919050565b6000611fcd82611fb0565b9050919050565b611fdd81611fc2565b82525050565b6000602082019050611ff86000830184611fd4565b92915050565b600067ffffffffffffffff82169050919050565b61201b81611ffe565b82525050565b600081519050919050565b60005b8381101561204a57808201518184015260208101905061202f565b60008484015250505050565b6000601f19601f8301169050919050565b600061207282612021565b61207c8185611d92565b935061208c81856020860161202c565b61209581612056565b840191505092915050565b60006060820190506120b56000830186612012565b6120c26020830185612012565b81810360408301526120d48184612067565b9050949350505050565b6120e781611ffe565b81146120f257600080fd5b50565b600081359050612104816120de565b92915050565b600080fd5b600080fd5b7f4e487b7100000000000000000000000000000000000000000000000000000000600052604160045260246000fd5b61214c82612056565b810181811067ffffffffffffffff8211171561216b5761216a612114565b5b80604052505050565b600061217e611e0f565b905061218a8282612143565b919050565b600067ffffffffffffffff8211156121aa576121a9612114565b5b6121b382612056565b9050602081019050919050565b82818337600083830152505050565b60006121e26121dd8461218f565b612174565b9050828152602081018484840111156121fe576121fd61210f565b5b6122098482856121c0565b509392505050565b600082601f8301126122265761222561210a565b5b81356122368482602086016121cf565b91505092915050565b60008060006060848603121561225857612257611e19565b5b6000612266868287016120f5565b9350506020612277868287016120f5565b925050604084013567ffffffffffffffff81111561229857612297611e1e565b5b6122a486828701612211565b9150509250925092565b6000806000606084860312156122c7576122c6611e19565b5b60006122d586828701611e6c565b93505060206122e686828701611e6c565b92505060406122f786828701611eef565b9150509250925092565b600080fd5b600080fd5b60008083601f8401126123215761232061210a565b5b8235905067ffffffffffffffff81111561233e5761233d612301565b5b60208301915083602082028301111561235a57612359612306565b5b9250929050565b60008083601f8401126123775761237661210a565b5b8235905067ffffffffffffffff81111561239457612393612301565b5b6020830191508360208202830111156123b0576123af612306565b5b9250929050565b6000806000806000606086880312156123d3576123d2611e19565b5b60006123e188828901611e6c565b955050602086013567ffffffffffffffff81111561240257612401611e1e565b5b61240e8882890161230b565b9450945050604086013567ffffffffffffffff81111561243157612430611e1e565b5b61243d88828901612361565b92509250509295509295909350565b600061246761246261245d84611ffe565b611f84565b611cfb565b9050919050565b6124778161244c565b82525050565b60006060820190506124926000830186611d68565b61249f602083018561246e565b6124ac604083018461246e565b949350505050565b7f4e6f20636c61696d61626c6520616d6f756e7400000000000000000000000000600082015250565b60006124ea601383611d92565b91506124f5826124b4565b602082019050919050565b60006020820190508181036000830152612519816124dd565b9050919050565b7f496e73756666696369656e742066756e647320696e206a617200000000000000600082015250565b6000612556601983611d92565b915061256182612520565b602082019050919050565b6000602082019050818103600083015261258581612549565b9050919050565b600061259782611cfb565b91506125a283611cfb565b92508282039050818111156125ba576125b9611d05565b5b92915050565b600081905092915050565b50565b60006125db6000836125c0565b91506125e6826125cb565b600082019050919050565b60006125fc826125ce565b9150819050919050565b7f4574686572207472616e73666572206661696c65640000000000000000000000600082015250565b600061263c601583611d92565b915061264782612606565b602082019050919050565b6000602082019050818103600083015261266b8161262f565b9050919050565b7f496e636f727265637420457468657220616d6f756e7400000000000000000000600082015250565b60006126a8601683611d92565b91506126b382612672565b602082019050919050565b600060208201905081810360008301526126d78161269b565b9050919050565b7f4465706f73697420616d6f756e74206d7573742062652067726561746572207460008201527f68616e207a65726f000000000000000000000000000000000000000000000000602082015250565b600061273a602883611d92565b9150612745826126de565b604082019050919050565b600060208201905081810360008301526127698161272d565b9050919050565b6000819050919050565b600061279561279061278b84612770565b611f84565b611ffe565b9050919050565b6127a58161277a565b82525050565b60006020820190506127c0600083018461279c565b92915050565b7f4e487b7100000000000000000000000000000000000000000000000000000000600052602260045260246000fd5b6000600282049050600182168061280d57607f821691505b6020821081036128205761281f6127c6565b5b50919050565b60008115159050919050565b61283b81612826565b811461284657600080fd5b50565b60008151905061285881612832565b92915050565b60006020828403121561287457612873611e19565b5b600061288284828501612849565b91505092915050565b7f43616c6c6572206973206e6f7420616e2061646d696e00000000000000000000600082015250565b60006128c1601683611d92565b91506128cc8261288b565b602082019050919050565b600060208201905081810360008301526128f0816128b4565b9050919050565b7f53746172742074696d65206d757374206265206265666f726520656e6420746960008201527f6d65000000000000000000000000000000000000000000000000000000000000602082015250565b6000612953602283611d92565b915061295e826128f7565b604082019050919050565b6000602082019050818103600083015261298281612946565b9050919050565b60008190508160005260206000209050919050565b60006020601f8301049050919050565b600082821b905092915050565b6000600883026129eb7fffffffffffffffffffffffffffffffffffffffffffffffffffffffffffffffff826129ae565b6129f586836129ae565b95508019841693508086168417925050509392505050565b6000612a28612a23612a1e84611cfb565b611f84565b611cfb565b9050919050565b6000819050919050565b612a4283612a0d565b612a56612a4e82612a2f565b8484546129bb565b825550505050565b600090565b612a6b612a5e565b612a76818484612a39565b505050565b5b81811015612a9a57612a8f600082612a63565b600181019050612a7c565b5050565b601f821115612adf57612ab081612989565b612ab98461299e565b81016020851015612ac8578190505b612adc612ad48561299e565b830182612a7b565b50505b505050565b600082821c905092915050565b6000612b0260001984600802612ae4565b1980831691505092915050565b6000612b1b8383612af1565b9150826002028217905092915050565b612b3482612021565b67ffffffffffffffff811115612b4d57612b4c612114565b5b612b5782546127f5565b612b62828285612a9e565b600060209050601f831160018114612b955760008415612b83578287015190505b612b8d8582612b0f565b865550612bf5565b601f198416612ba386612989565b60005b82811015612bcb57848901518255600182019150602085019450602081019050612ba6565b86831015612be85784890151612be4601f891682612af1565b8355505b6001600288020188555050505b505050505050565b6000606082019050612c12600083018661246e565b612c1f602083018561246e565b8181036040830152612c318184612067565b9050949350505050565b7f5a65726f20616464726573732075736572000000000000000000000000000000600082015250565b6000612c71601183611d92565b9150612c7c82612c3b565b602082019050919050565b60006020820190508181036000830152612ca081612c64565b9050919050565b7f4d69736d617463686564206172726179206c656e677468730000000000000000600082015250565b6000612cdd601883611d92565b9150612ce882612ca7565b602082019050919050565b60006020820190508181036000830152612d0c81612cd0565b9050919050565b7f4e487b7100000000000000000000000000000000000000000000000000000000600052603260045260246000fd5b7f5769746864726177616c20616d6f756e74206d7573742062652067726561746560008201527f72207468616e207a65726f000000000000000000000000000000000000000000602082015250565b6000612d9e602b83611d92565b9150612da982612d42565b604082019050919050565b60006020820190508181036000830152612dcd81612d91565b9050919050565b7f496e73756666696369656e742066756e64730000000000000000000000000000600082015250565b6000612e0a601283611d92565b9150612e1582612dd4565b602082019050919050565b60006020820190508181036000830152612e3981612dfd565b9050919050565b7f5265656e7472616e637947756172643a207265656e7472616e742063616c6c00600082015250565b6000612e76601f83611d92565b9150612e8182612e40565b602082019050919050565b60006020820190508181036000830152612ea581612e69565b9050919050565b6000604082019050612ec16000830185611eae565b612ece6020830184611d68565b9392505050565b6000606082019050612eea6000830186611eae565b612ef76020830185611eae565b612f046040830184611d68565b94935050505056fea264697066735822122091196f9bbb7993e4f8222bb807bd2f78c7e9745de458f7283a21cd11c875d3fd64736f6c634300081c0033",
					"opcodes": "PUSH1 0x80 PUSH1 0x40 MSTORE CALLVALUE DUP1 ISZERO PUSH1 0xF JUMPI PUSH1 0x0 DUP1 REVERT JUMPDEST POP PUSH2 0x2F42 DUP1 PUSH2 0x1F PUSH1 0x0 CODECOPY PUSH1 0x0 RETURN INVALID PUSH1 0x80 PUSH1 0x40 MSTORE PUSH1 0x4 CALLDATASIZE LT PUSH2 0xEC JUMPI PUSH1 0x0 CALLDATALOAD PUSH1 0xE0 SHR DUP1 PUSH4 0x8DA5CB5B GT PUSH2 0x8A JUMPI DUP1 PUSH4 0xB807A3C4 GT PUSH2 0x59 JUMPI DUP1 PUSH4 0xB807A3C4 EQ PUSH2 0x3C0 JUMPI DUP1 PUSH4 0xE3E7C1F9 EQ PUSH2 0x3E9 JUMPI DUP1 PUSH4 0xF2FDE38B EQ PUSH2 0x412 JUMPI DUP1 PUSH4 0xF3FEF3A3 EQ PUSH2 0x43B JUMPI PUSH2 0x1AF JUMP JUMPDEST DUP1 PUSH4 0x8DA5CB5B EQ PUSH2 0x2F2 JUMPI DUP1 PUSH4 0xA9012C89 EQ PUSH2 0x31D JUMPI DUP1 PUSH4 0xA9590E8A EQ PUSH2 0x346 JUMPI DUP1 PUSH4 0xAEE9C872 EQ PUSH2 0x383 JUMPI PUSH2 0x1AF JUMP JUMPDEST DUP1 PUSH4 0x485CC955 GT PUSH2 0xC6 JUMPI DUP1 PUSH4 0x485CC955 EQ PUSH2 0x25A JUMPI DUP1 PUSH4 0x715018A6 EQ PUSH2 0x283 JUMPI DUP1 PUSH4 0x85C758F7 EQ PUSH2 0x29A JUMPI DUP1 PUSH4 0x8A19C8BC EQ PUSH2 0x2C5 JUMPI PUSH2 0x1AF JUMP JUMPDEST DUP1 PUSH4 0x1E83409A EQ PUSH2 0x1EA JUMPI DUP1 PUSH4 0x31F7D964 EQ PUSH2 0x213 JUMPI DUP1 PUSH4 0x47E7EF24 EQ PUSH2 0x23E JUMPI PUSH2 0x1AF JUMP JUMPDEST CALLDATASIZE PUSH2 0x1AF JUMPI CALLVALUE PUSH1 0x35 PUSH1 0x0 DUP1 PUSH20 0xFFFFFFFFFFFFFFFFFFFFFFFFFFFFFFFFFFFFFFFF AND PUSH20 0xFFFFFFFFFFFFFFFFFFFFFFFFFFFFFFFFFFFFFFFF AND DUP2 MSTORE PUSH1 0x20 ADD SWAP1 DUP2 MSTORE PUSH1 0x20 ADD PUSH1 0x0 KECCAK256 PUSH1 0x0 DUP3 DUP3 SLOAD PUSH2 0x140 SWAP2 SWAP1 PUSH2 0x1D34 JUMP JUMPDEST SWAP3 POP POP DUP2 SWAP1 SSTORE POP PUSH1 0x0 PUSH20 0xFFFFFFFFFFFFFFFFFFFFFFFFFFFFFFFFFFFFFFFF AND CALLER PUSH20 0xFFFFFFFFFFFFFFFFFFFFFFFFFFFFFFFFFFFFFFFF AND PUSH32 0x5548C837AB068CF56A2C2479DF0882A4922FD203EDB7517321831D95078C5F62 CALLVALUE PUSH1 0x40 MLOAD PUSH2 0x1A5 SWAP2 SWAP1 PUSH2 0x1D77 JUMP JUMPDEST PUSH1 0x40 MLOAD DUP1 SWAP2 SUB SWAP1 LOG3 STOP JUMPDEST PUSH1 0x40 MLOAD PUSH32 0x8C379A000000000000000000000000000000000000000000000000000000000 DUP2 MSTORE PUSH1 0x4 ADD PUSH2 0x1E1 SWAP1 PUSH2 0x1DEF JUMP JUMPDEST PUSH1 0x40 MLOAD DUP1 SWAP2 SUB SWAP1 REVERT JUMPDEST CALLVALUE DUP1 ISZERO PUSH2 0x1F6 JUMPI PUSH1 0x0 DUP1 REVERT JUMPDEST POP PUSH2 0x211 PUSH1 0x4 DUP1 CALLDATASIZE SUB DUP2 ADD SWAP1 PUSH2 0x20C SWAP2 SWAP1 PUSH2 0x1E81 JUMP JUMPDEST PUSH2 0x464 JUMP JUMPDEST STOP JUMPDEST CALLVALUE DUP1 ISZERO PUSH2 0x21F JUMPI PUSH1 0x0 DUP1 REVERT JUMPDEST POP PUSH2 0x228 PUSH2 0x8D8 JUMP JUMPDEST PUSH1 0x40 MLOAD PUSH2 0x235 SWAP2 SWAP1 PUSH2 0x1EBD JUMP JUMPDEST PUSH1 0x40 MLOAD DUP1 SWAP2 SUB SWAP1 RETURN JUMPDEST PUSH2 0x258 PUSH1 0x4 DUP1 CALLDATASIZE SUB DUP2 ADD SWAP1 PUSH2 0x253 SWAP2 SWAP1 PUSH2 0x1F04 JUMP JUMPDEST PUSH2 0x8DD JUMP JUMPDEST STOP JUMPDEST CALLVALUE DUP1 ISZERO PUSH2 0x266 JUMPI PUSH1 0x0 DUP1 REVERT JUMPDEST POP PUSH2 0x281 PUSH1 0x4 DUP1 CALLDATASIZE SUB DUP2 ADD SWAP1 PUSH2 0x27C SWAP2 SWAP1 PUSH2 0x1F44 JUMP JUMPDEST PUSH2 0xA98 JUMP JUMPDEST STOP JUMPDEST CALLVALUE DUP1 ISZERO PUSH2 0x28F JUMPI PUSH1 0x0 DUP1 REVERT JUMPDEST POP PUSH2 0x298 PUSH2 0xC71 JUMP JUMPDEST STOP JUMPDEST CALLVALUE DUP1 ISZERO PUSH2 0x2A6 JUMPI PUSH1 0x0 DUP1 REVERT JUMPDEST POP PUSH2 0x2AF PUSH2 0xC85 JUMP JUMPDEST PUSH1 0x40 MLOAD PUSH2 0x2BC SWAP2 SWAP1 PUSH2 0x1FE3 JUMP JUMPDEST PUSH1 0x40 MLOAD DUP1 SWAP2 SUB SWAP1 RETURN JUMPDEST CALLVALUE DUP1 ISZERO PUSH2 0x2D1 JUMPI PUSH1 0x0 DUP1 REVERT JUMPDEST POP PUSH2 0x2DA PUSH2 0xCAB JUMP JUMPDEST PUSH1 0x40 MLOAD PUSH2 0x2E9 SWAP4 SWAP3 SWAP2 SWAP1 PUSH2 0x20A0 JUMP JUMPDEST PUSH1 0x40 MLOAD DUP1 SWAP2 SUB SWAP1 RETURN JUMPDEST CALLVALUE DUP1 ISZERO PUSH2 0x2FE JUMPI PUSH1 0x0 DUP1 REVERT JUMPDEST POP PUSH2 0x307 PUSH2 0xD73 JUMP JUMPDEST PUSH1 0x40 MLOAD PUSH2 0x314 SWAP2 SWAP1 PUSH2 0x1EBD JUMP JUMPDEST PUSH1 0x40 MLOAD DUP1 SWAP2 SUB SWAP1 RETURN JUMPDEST CALLVALUE DUP1 ISZERO PUSH2 0x329 JUMPI PUSH1 0x0 DUP1 REVERT JUMPDEST POP PUSH2 0x344 PUSH1 0x4 DUP1 CALLDATASIZE SUB DUP2 ADD SWAP1 PUSH2 0x33F SWAP2 SWAP1 PUSH2 0x223F JUMP JUMPDEST PUSH2 0xDAB JUMP JUMPDEST STOP JUMPDEST CALLVALUE DUP1 ISZERO PUSH2 0x352 JUMPI PUSH1 0x0 DUP1 REVERT JUMPDEST POP PUSH2 0x36D PUSH1 0x4 DUP1 CALLDATASIZE SUB DUP2 ADD SWAP1 PUSH2 0x368 SWAP2 SWAP1 PUSH2 0x1F44 JUMP JUMPDEST PUSH2 0xFC4 JUMP JUMPDEST PUSH1 0x40 MLOAD PUSH2 0x37A SWAP2 SWAP1 PUSH2 0x1D77 JUMP JUMPDEST PUSH1 0x40 MLOAD DUP1 SWAP2 SUB SWAP1 RETURN JUMPDEST CALLVALUE DUP1 ISZERO PUSH2 0x38F JUMPI PUSH1 0x0 DUP1 REVERT JUMPDEST POP PUSH2 0x3AA PUSH1 0x4 DUP1 CALLDATASIZE SUB DUP2 ADD SWAP1 PUSH2 0x3A5 SWAP2 SWAP1 PUSH2 0x1E81 JUMP JUMPDEST PUSH2 0xFE9 JUMP JUMPDEST PUSH1 0x40 MLOAD PUSH2 0x3B7 SWAP2 SWAP1 PUSH2 0x1D77 JUMP JUMPDEST PUSH1 0x40 MLOAD DUP1 SWAP2 SUB SWAP1 RETURN JUMPDEST CALLVALUE DUP1 ISZERO PUSH2 0x3CC JUMPI PUSH1 0x0 DUP1 REVERT JUMPDEST POP PUSH2 0x3E7 PUSH1 0x4 DUP1 CALLDATASIZE SUB DUP2 ADD SWAP1 PUSH2 0x3E2 SWAP2 SWAP1 PUSH2 0x22AE JUMP JUMPDEST PUSH2 0x1001 JUMP JUMPDEST STOP JUMPDEST CALLVALUE DUP1 ISZERO PUSH2 0x3F5 JUMPI PUSH1 0x0 DUP1 REVERT JUMPDEST POP PUSH2 0x410 PUSH1 0x4 DUP1 CALLDATASIZE SUB DUP2 ADD SWAP1 PUSH2 0x40B SWAP2 SWAP1 PUSH2 0x23B7 JUMP JUMPDEST PUSH2 0x1236 JUMP JUMPDEST STOP JUMPDEST CALLVALUE DUP1 ISZERO PUSH2 0x41E JUMPI PUSH1 0x0 DUP1 REVERT JUMPDEST POP PUSH2 0x439 PUSH1 0x4 DUP1 CALLDATASIZE SUB DUP2 ADD SWAP1 PUSH2 0x434 SWAP2 SWAP1 PUSH2 0x1E81 JUMP JUMPDEST PUSH2 0x14E2 JUMP JUMPDEST STOP JUMPDEST CALLVALUE DUP1 ISZERO PUSH2 0x447 JUMPI PUSH1 0x0 DUP1 REVERT JUMPDEST POP PUSH2 0x462 PUSH1 0x4 DUP1 CALLDATASIZE SUB DUP2 ADD SWAP1 PUSH2 0x45D SWAP2 SWAP1 PUSH2 0x1F04 JUMP JUMPDEST PUSH2 0x1568 JUMP JUMPDEST STOP JUMPDEST PUSH2 0x46C PUSH2 0x182B JUMP JUMPDEST PUSH1 0x33 PUSH1 0x0 ADD PUSH1 0x0 SWAP1 SLOAD SWAP1 PUSH2 0x100 EXP SWAP1 DIV PUSH8 0xFFFFFFFFFFFFFFFF AND PUSH8 0xFFFFFFFFFFFFFFFF AND TIMESTAMP LT DUP1 PUSH2 0x4BF JUMPI POP PUSH1 0x33 PUSH1 0x0 ADD PUSH1 0x8 SWAP1 SLOAD SWAP1 PUSH2 0x100 EXP SWAP1 DIV PUSH8 0xFFFFFFFFFFFFFFFF AND PUSH8 0xFFFFFFFFFFFFFFFF AND TIMESTAMP GT JUMPDEST ISZERO PUSH2 0x537 JUMPI TIMESTAMP PUSH1 0x33 PUSH1 0x0 ADD PUSH1 0x0 SWAP1 SLOAD SWAP1 PUSH2 0x100 EXP SWAP1 DIV PUSH8 0xFFFFFFFFFFFFFFFF AND PUSH1 0x33 PUSH1 0x0 ADD PUSH1 0x8 SWAP1 SLOAD SWAP1 PUSH2 0x100 EXP SWAP1 DIV PUSH8 0xFFFFFFFFFFFFFFFF AND PUSH1 0x40 MLOAD PUSH32 0xFA7410D400000000000000000000000000000000000000000000000000000000 DUP2 MSTORE PUSH1 0x4 ADD PUSH2 0x52E SWAP4 SWAP3 SWAP2 SWAP1 PUSH2 0x247D JUMP JUMPDEST PUSH1 0x40 MLOAD DUP1 SWAP2 SUB SWAP1 REVERT JUMPDEST PUSH1 0x0 PUSH1 0x36 PUSH1 0x0 CALLER PUSH20 0xFFFFFFFFFFFFFFFFFFFFFFFFFFFFFFFFFFFFFFFF AND PUSH20 0xFFFFFFFFFFFFFFFFFFFFFFFFFFFFFFFFFFFFFFFF AND DUP2 MSTORE PUSH1 0x20 ADD SWAP1 DUP2 MSTORE PUSH1 0x20 ADD PUSH1 0x0 KECCAK256 PUSH1 0x0 DUP4 PUSH20 0xFFFFFFFFFFFFFFFFFFFFFFFFFFFFFFFFFFFFFFFF AND PUSH20 0xFFFFFFFFFFFFFFFFFFFFFFFFFFFFFFFFFFFFFFFF AND DUP2 MSTORE PUSH1 0x20 ADD SWAP1 DUP2 MSTORE PUSH1 0x20 ADD PUSH1 0x0 KECCAK256 SLOAD SWAP1 POP PUSH1 0x0 DUP2 GT PUSH2 0x5FB JUMPI PUSH1 0x40 MLOAD PUSH32 0x8C379A000000000000000000000000000000000000000000000000000000000 DUP2 MSTORE PUSH1 0x4 ADD PUSH2 0x5F2 SWAP1 PUSH2 0x2500 JUMP JUMPDEST PUSH1 0x40 MLOAD DUP1 SWAP2 SUB SWAP1 REVERT JUMPDEST DUP1 PUSH1 0x35 PUSH1 0x0 DUP5 PUSH20 0xFFFFFFFFFFFFFFFFFFFFFFFFFFFFFFFFFFFFFFFF AND PUSH20 0xFFFFFFFFFFFFFFFFFFFFFFFFFFFFFFFFFFFFFFFF AND DUP2 MSTORE PUSH1 0x20 ADD SWAP1 DUP2 MSTORE PUSH1 0x20 ADD PUSH1 0x0 KECCAK256 SLOAD LT ISZERO PUSH2 0x67D JUMPI PUSH1 0x40 MLOAD PUSH32 0x8C379A000000000000000000000000000000000000000000000000000000000 DUP2 MSTORE PUSH1 0x4 ADD PUSH2 0x674 SWAP1 PUSH2 0x256C JUMP JUMPDEST PUSH1 0x40 MLOAD DUP1 SWAP2 SUB SWAP1 REVERT JUMPDEST PUSH1 0x0 PUSH1 0x36 PUSH1 0x0 CALLER PUSH20 0xFFFFFFFFFFFFFFFFFFFFFFFFFFFFFFFFFFFFFFFF AND PUSH20 0xFFFFFFFFFFFFFFFFFFFFFFFFFFFFFFFFFFFFFFFF AND DUP2 MSTORE PUSH1 0x20 ADD SWAP1 DUP2 MSTORE PUSH1 0x20 ADD PUSH1 0x0 KECCAK256 PUSH1 0x0 DUP5 PUSH20 0xFFFFFFFFFFFFFFFFFFFFFFFFFFFFFFFFFFFFFFFF AND PUSH20 0xFFFFFFFFFFFFFFFFFFFFFFFFFFFFFFFFFFFFFFFF AND DUP2 MSTORE PUSH1 0x20 ADD SWAP1 DUP2 MSTORE PUSH1 0x20 ADD PUSH1 0x0 KECCAK256 DUP2 SWAP1 SSTORE POP DUP1 PUSH1 0x35 PUSH1 0x0 DUP5 PUSH20 0xFFFFFFFFFFFFFFFFFFFFFFFFFFFFFFFFFFFFFFFF AND PUSH20 0xFFFFFFFFFFFFFFFFFFFFFFFFFFFFFFFFFFFFFFFF AND DUP2 MSTORE PUSH1 0x20 ADD SWAP1 DUP2 MSTORE PUSH1 0x20 ADD PUSH1 0x0 KECCAK256 PUSH1 0x0 DUP3 DUP3 SLOAD PUSH2 0x74E SWAP2 SWAP1 PUSH2 0x258C JUMP JUMPDEST SWAP3 POP POP DUP2 SWAP1 SSTORE POP PUSH1 0x0 PUSH20 0xFFFFFFFFFFFFFFFFFFFFFFFFFFFFFFFFFFFFFFFF AND DUP3 PUSH20 0xFFFFFFFFFFFFFFFFFFFFFFFFFFFFFFFFFFFFFFFF AND SUB PUSH2 0x83B JUMPI PUSH1 0x0 CALLER PUSH20 0xFFFFFFFFFFFFFFFFFFFFFFFFFFFFFFFFFFFFFFFF AND DUP3 PUSH1 0x40 MLOAD PUSH2 0x7AF SWAP1 PUSH2 0x25F1 JUMP JUMPDEST PUSH1 0x0 PUSH1 0x40 MLOAD DUP1 DUP4 SUB DUP2 DUP6 DUP8 GAS CALL SWAP3 POP POP POP RETURNDATASIZE DUP1 PUSH1 0x0 DUP2 EQ PUSH2 0x7EC JUMPI PUSH1 0x40 MLOAD SWAP2 POP PUSH1 0x1F NOT PUSH1 0x3F RETURNDATASIZE ADD AND DUP3 ADD PUSH1 0x40 MSTORE RETURNDATASIZE DUP3 MSTORE RETURNDATASIZE PUSH1 0x0 PUSH1 0x20 DUP5 ADD RETURNDATACOPY PUSH2 0x7F1 JUMP JUMPDEST PUSH1 0x60 SWAP2 POP JUMPDEST POP POP SWAP1 POP DUP1 PUSH2 0x835 JUMPI PUSH1 0x40 MLOAD PUSH32 0x8C379A000000000000000000000000000000000000000000000000000000000 DUP2 MSTORE PUSH1 0x4 ADD PUSH2 0x82C SWAP1 PUSH2 0x2652 JUMP JUMPDEST PUSH1 0x40 MLOAD DUP1 SWAP2 SUB SWAP1 REVERT JUMPDEST POP PUSH2 0x867 JUMP JUMPDEST PUSH2 0x866 CALLER DUP3 DUP5 PUSH20 0xFFFFFFFFFFFFFFFFFFFFFFFFFFFFFFFFFFFFFFFF AND PUSH2 0x187A SWAP1 SWAP3 SWAP2 SWAP1 PUSH4 0xFFFFFFFF AND JUMP JUMPDEST JUMPDEST DUP2 PUSH20 0xFFFFFFFFFFFFFFFFFFFFFFFFFFFFFFFFFFFFFFFF AND CALLER PUSH20 0xFFFFFFFFFFFFFFFFFFFFFFFFFFFFFFFFFFFFFFFF AND PUSH32 0xF7A40077FF7A04C7E61F6F26FB13774259DDF1B6BCE9ECF26A8276CDD3992683 DUP4 PUSH1 0x40 MLOAD PUSH2 0x8C4 SWAP2 SWAP1 PUSH2 0x1D77 JUMP JUMPDEST PUSH1 0x40 MLOAD DUP1 SWAP2 SUB SWAP1 LOG3 POP PUSH2 0x8D5 PUSH2 0x18F9 JUMP JUMPDEST POP JUMP JUMPDEST PUSH1 0x0 DUP2 JUMP JUMPDEST PUSH2 0x8E5 PUSH2 0x182B JUMP JUMPDEST PUSH1 0x0 PUSH20 0xFFFFFFFFFFFFFFFFFFFFFFFFFFFFFFFFFFFFFFFF AND DUP3 PUSH20 0xFFFFFFFFFFFFFFFFFFFFFFFFFFFFFFFFFFFFFFFF AND SUB PUSH2 0x960 JUMPI DUP1 CALLVALUE EQ PUSH2 0x95B JUMPI PUSH1 0x40 MLOAD PUSH32 0x8C379A000000000000000000000000000000000000000000000000000000000 DUP2 MSTORE PUSH1 0x4 ADD PUSH2 0x952 SWAP1 PUSH2 0x26BE JUMP JUMPDEST PUSH1 0x40 MLOAD DUP1 SWAP2 SUB SWAP1 REVERT JUMPDEST PUSH2 0x9D1 JUMP JUMPDEST PUSH1 0x0 DUP2 GT PUSH2 0x9A3 JUMPI PUSH1 0x40 MLOAD PUSH32 0x8C379A000000000000000000000000000000000000000000000000000000000 DUP2 MSTORE PUSH1 0x4 ADD PUSH2 0x99A SWAP1 PUSH2 0x2750 JUMP JUMPDEST PUSH1 0x40 MLOAD DUP1 SWAP2 SUB SWAP1 REVERT JUMPDEST PUSH2 0x9D0 CALLER ADDRESS DUP4 DUP6 PUSH20 0xFFFFFFFFFFFFFFFFFFFFFFFFFFFFFFFFFFFFFFFF AND PUSH2 0x1903 SWAP1 SWAP4 SWAP3 SWAP2 SWAP1 PUSH4 0xFFFFFFFF AND JUMP JUMPDEST JUMPDEST DUP1 PUSH1 0x35 PUSH1 0x0 DUP5 PUSH20 0xFFFFFFFFFFFFFFFFFFFFFFFFFFFFFFFFFFFFFFFF AND PUSH20 0xFFFFFFFFFFFFFFFFFFFFFFFFFFFFFFFFFFFFFFFF AND DUP2 MSTORE PUSH1 0x20 ADD SWAP1 DUP2 MSTORE PUSH1 0x20 ADD PUSH1 0x0 KECCAK256 PUSH1 0x0 DUP3 DUP3 SLOAD PUSH2 0xA20 SWAP2 SWAP1 PUSH2 0x1D34 JUMP JUMPDEST SWAP3 POP POP DUP2 SWAP1 SSTORE POP DUP2 PUSH20 0xFFFFFFFFFFFFFFFFFFFFFFFFFFFFFFFFFFFFFFFF AND CALLER PUSH20 0xFFFFFFFFFFFFFFFFFFFFFFFFFFFFFFFFFFFFFFFF AND PUSH32 0x5548C837AB068CF56A2C2479DF0882A4922FD203EDB7517321831D95078C5F62 DUP4 PUSH1 0x40 MLOAD PUSH2 0xA84 SWAP2 SWAP1 PUSH2 0x1D77 JUMP JUMPDEST PUSH1 0x40 MLOAD DUP1 SWAP2 SUB SWAP1 LOG3 PUSH2 0xA94 PUSH2 0x18F9 JUMP JUMPDEST POP POP JUMP JUMPDEST PUSH1 0x0 PUSH2 0xAA2 PUSH2 0x1985 JUMP JUMPDEST SWAP1 POP PUSH1 0x0 DUP2 PUSH1 0x0 ADD PUSH1 0x8 SWAP1 SLOAD SWAP1 PUSH2 0x100 EXP SWAP1 DIV PUSH1 0xFF AND ISZERO SWAP1 POP PUSH1 0x0 DUP3 PUSH1 0x0 ADD PUSH1 0x0 SWAP1 SLOAD SWAP1 PUSH2 0x100 EXP SWAP1 DIV PUSH8 0xFFFFFFFFFFFFFFFF AND SWAP1 POP PUSH1 0x0 DUP1 DUP3 PUSH8 0xFFFFFFFFFFFFFFFF AND EQ DUP1 ISZERO PUSH2 0xAF0 JUMPI POP DUP3 JUMPDEST SWAP1 POP PUSH1 0x0 PUSH1 0x1 DUP4 PUSH8 0xFFFFFFFFFFFFFFFF AND EQ DUP1 ISZERO PUSH2 0xB25 JUMPI POP PUSH1 0x0 ADDRESS PUSH20 0xFFFFFFFFFFFFFFFFFFFFFFFFFFFFFFFFFFFFFFFF AND EXTCODESIZE EQ JUMPDEST SWAP1 POP DUP2 ISZERO DUP1 ISZERO PUSH2 0xB33 JUMPI POP DUP1 ISZERO JUMPDEST ISZERO PUSH2 0xB6A JUMPI PUSH1 0x40 MLOAD PUSH32 0xF92EE8A900000000000000000000000000000000000000000000000000000000 DUP2 MSTORE PUSH1 0x4 ADD PUSH1 0x40 MLOAD DUP1 SWAP2 SUB SWAP1 REVERT JUMPDEST PUSH1 0x1 DUP6 PUSH1 0x0 ADD PUSH1 0x0 PUSH2 0x100 EXP DUP2 SLOAD DUP2 PUSH8 0xFFFFFFFFFFFFFFFF MUL NOT AND SWAP1 DUP4 PUSH8 0xFFFFFFFFFFFFFFFF AND MUL OR SWAP1 SSTORE POP DUP4 ISZERO PUSH2 0xBBA JUMPI PUSH1 0x1 DUP6 PUSH1 0x0 ADD PUSH1 0x8 PUSH2 0x100 EXP DUP2 SLOAD DUP2 PUSH1 0xFF MUL NOT AND SWAP1 DUP4 ISZERO ISZERO MUL OR SWAP1 SSTORE POP JUMPDEST PUSH2 0xBC3 DUP7 PUSH2 0x19AD JUMP JUMPDEST PUSH2 0xBCB PUSH2 0x19C1 JUMP JUMPDEST DUP7 PUSH1 0x32 PUSH1 0x0 PUSH2 0x100 EXP DUP2 SLOAD DUP2 PUSH20 0xFFFFFFFFFFFFFFFFFFFFFFFFFFFFFFFFFFFFFFFF MUL NOT AND SWAP1 DUP4 PUSH20 0xFFFFFFFFFFFFFFFFFFFFFFFFFFFFFFFFFFFFFFFF AND MUL OR SWAP1 SSTORE POP DUP4 ISZERO PUSH2 0xC68 JUMPI PUSH1 0x0 DUP6 PUSH1 0x0 ADD PUSH1 0x8 PUSH2 0x100 EXP DUP2 SLOAD DUP2 PUSH1 0xFF MUL NOT AND SWAP1 DUP4 ISZERO ISZERO MUL OR SWAP1 SSTORE POP PUSH32 0xC7F505B2F371AE2175EE4913F4499E1F2633A7B5936321EED1CDAEB6115181D2 PUSH1 0x1 PUSH1 0x40 MLOAD PUSH2 0xC5F SWAP2 SWAP1 PUSH2 0x27AB JUMP JUMPDEST PUSH1 0x40 MLOAD DUP1 SWAP2 SUB SWAP1 LOG1 JUMPDEST POP POP POP POP POP POP POP JUMP JUMPDEST PUSH2 0xC79 PUSH2 0x19D3 JUMP JUMPDEST PUSH2 0xC83 PUSH1 0x0 PUSH2 0x1A5A JUMP JUMPDEST JUMP JUMPDEST PUSH1 0x32 PUSH1 0x0 SWAP1 SLOAD SWAP1 PUSH2 0x100 EXP SWAP1 DIV PUSH20 0xFFFFFFFFFFFFFFFFFFFFFFFFFFFFFFFFFFFFFFFF AND DUP2 JUMP JUMPDEST PUSH1 0x33 DUP1 PUSH1 0x0 ADD PUSH1 0x0 SWAP1 SLOAD SWAP1 PUSH2 0x100 EXP SWAP1 DIV PUSH8 0xFFFFFFFFFFFFFFFF AND SWAP1 DUP1 PUSH1 0x0 ADD PUSH1 0x8 SWAP1 SLOAD SWAP1 PUSH2 0x100 EXP SWAP1 DIV PUSH8 0xFFFFFFFFFFFFFFFF AND SWAP1 DUP1 PUSH1 0x1 ADD DUP1 SLOAD PUSH2 0xCF0 SWAP1 PUSH2 0x27F5 JUMP JUMPDEST DUP1 PUSH1 0x1F ADD PUSH1 0x20 DUP1 SWAP2 DIV MUL PUSH1 0x20 ADD PUSH1 0x40 MLOAD SWAP1 DUP2 ADD PUSH1 0x40 MSTORE DUP1 SWAP3 SWAP2 SWAP1 DUP2 DUP2 MSTORE PUSH1 0x20 ADD DUP3 DUP1 SLOAD PUSH2 0xD1C SWAP1 PUSH2 0x27F5 JUMP JUMPDEST DUP1 ISZERO PUSH2 0xD69 JUMPI DUP1 PUSH1 0x1F LT PUSH2 0xD3E JUMPI PUSH2 0x100 DUP1 DUP4 SLOAD DIV MUL DUP4 MSTORE SWAP2 PUSH1 0x20 ADD SWAP2 PUSH2 0xD69 JUMP JUMPDEST DUP3 ADD SWAP2 SWAP1 PUSH1 0x0 MSTORE PUSH1 0x20 PUSH1 0x0 KECCAK256 SWAP1 JUMPDEST DUP2 SLOAD DUP2 MSTORE SWAP1 PUSH1 0x1 ADD SWAP1 PUSH1 0x20 ADD DUP1 DUP4 GT PUSH2 0xD4C JUMPI DUP3 SWAP1 SUB PUSH1 0x1F AND DUP3 ADD SWAP2 JUMPDEST POP POP POP POP POP SWAP1 POP DUP4 JUMP JUMPDEST PUSH1 0x0 DUP1 PUSH2 0xD7E PUSH2 0x1B31 JUMP JUMPDEST SWAP1 POP DUP1 PUSH1 0x0 ADD PUSH1 0x0 SWAP1 SLOAD SWAP1 PUSH2 0x100 EXP SWAP1 DIV PUSH20 0xFFFFFFFFFFFFFFFFFFFFFFFFFFFFFFFFFFFFFFFF AND SWAP2 POP POP SWAP1 JUMP JUMPDEST PUSH1 0x32 PUSH1 0x0 SWAP1 SLOAD SWAP1 PUSH2 0x100 EXP SWAP1 DIV PUSH20 0xFFFFFFFFFFFFFFFFFFFFFFFFFFFFFFFFFFFFFFFF AND PUSH20 0xFFFFFFFFFFFFFFFFFFFFFFFFFFFFFFFFFFFFFFFF AND PUSH4 0x24D7806C CALLER PUSH1 0x40 MLOAD DUP3 PUSH4 0xFFFFFFFF AND PUSH1 0xE0 SHL DUP2 MSTORE PUSH1 0x4 ADD PUSH2 0xE06 SWAP2 SWAP1 PUSH2 0x1EBD JUMP JUMPDEST PUSH1 0x20 PUSH1 0x40 MLOAD DUP1 DUP4 SUB DUP2 DUP7 GAS STATICCALL ISZERO DUP1 ISZERO PUSH2 0xE23 JUMPI RETURNDATASIZE PUSH1 0x0 DUP1 RETURNDATACOPY RETURNDATASIZE PUSH1 0x0 REVERT JUMPDEST POP POP POP POP PUSH1 0x40 MLOAD RETURNDATASIZE PUSH1 0x1F NOT PUSH1 0x1F DUP3 ADD AND DUP3 ADD DUP1 PUSH1 0x40 MSTORE POP DUP2 ADD SWAP1 PUSH2 0xE47 SWAP2 SWAP1 PUSH2 0x285E JUMP JUMPDEST PUSH2 0xE86 JUMPI PUSH1 0x40 MLOAD PUSH32 0x8C379A000000000000000000000000000000000000000000000000000000000 DUP2 MSTORE PUSH1 0x4 ADD PUSH2 0xE7D SWAP1 PUSH2 0x28D7 JUMP JUMPDEST PUSH1 0x40 MLOAD DUP1 SWAP2 SUB SWAP1 REVERT JUMPDEST DUP2 PUSH8 0xFFFFFFFFFFFFFFFF AND DUP4 PUSH8 0xFFFFFFFFFFFFFFFF AND LT PUSH2 0xEDC JUMPI PUSH1 0x40 MLOAD PUSH32 0x8C379A000000000000000000000000000000000000000000000000000000000 DUP2 MSTORE PUSH1 0x4 ADD PUSH2 0xED3 SWAP1 PUSH2 0x2969 JUMP JUMPDEST PUSH1 0x40 MLOAD DUP1 SWAP2 SUB SWAP1 REVERT JUMPDEST PUSH1 0x40 MLOAD DUP1 PUSH1 0x60 ADD PUSH1 0x40 MSTORE DUP1 DUP5 PUSH8 0xFFFFFFFFFFFFFFFF AND DUP2 MSTORE PUSH1 0x20 ADD DUP4 PUSH8 0xFFFFFFFFFFFFFFFF AND DUP2 MSTORE PUSH1 0x20 ADD DUP3 DUP2 MSTORE POP PUSH1 0x33 PUSH1 0x0 DUP3 ADD MLOAD DUP2 PUSH1 0x0 ADD PUSH1 0x0 PUSH2 0x100 EXP DUP2 SLOAD DUP2 PUSH8 0xFFFFFFFFFFFFFFFF MUL NOT AND SWAP1 DUP4 PUSH8 0xFFFFFFFFFFFFFFFF AND MUL OR SWAP1 SSTORE POP PUSH1 0x20 DUP3 ADD MLOAD DUP2 PUSH1 0x0 ADD PUSH1 0x8 PUSH2 0x100 EXP DUP2 SLOAD DUP2 PUSH8 0xFFFFFFFFFFFFFFFF MUL NOT AND SWAP1 DUP4 PUSH8 0xFFFFFFFFFFFFFFFF AND MUL OR SWAP1 SSTORE POP PUSH1 0x40 DUP3 ADD MLOAD DUP2 PUSH1 0x1 ADD SWAP1 DUP2 PUSH2 0xF80 SWAP2 SWAP1 PUSH2 0x2B2B JUMP JUMPDEST POP SWAP1 POP POP PUSH32 0x9E6DB48F22357E6DCE2BBFF89DB8FF25F0012A08186D6EA72E2343FDC112E13 DUP4 DUP4 DUP4 PUSH1 0x40 MLOAD PUSH2 0xFB7 SWAP4 SWAP3 SWAP2 SWAP1 PUSH2 0x2BFD JUMP JUMPDEST PUSH1 0x40 MLOAD DUP1 SWAP2 SUB SWAP1 LOG1 POP POP POP JUMP JUMPDEST PUSH1 0x36 PUSH1 0x20 MSTORE DUP2 PUSH1 0x0 MSTORE PUSH1 0x40 PUSH1 0x0 KECCAK256 PUSH1 0x20 MSTORE DUP1 PUSH1 0x0 MSTORE PUSH1 0x40 PUSH1 0x0 KECCAK256 PUSH1 0x0 SWAP2 POP SWAP2 POP POP SLOAD DUP2 JUMP JUMPDEST PUSH1 0x35 PUSH1 0x20 MSTORE DUP1 PUSH1 0x0 MSTORE PUSH1 0x40 PUSH1 0x0 KECCAK256 PUSH1 0x0 SWAP2 POP SWAP1 POP SLOAD DUP2 JUMP JUMPDEST PUSH1 0x32 PUSH1 0x0 SWAP1 SLOAD SWAP1 PUSH2 0x100 EXP SWAP1 DIV PUSH20 0xFFFFFFFFFFFFFFFFFFFFFFFFFFFFFFFFFFFFFFFF AND PUSH20 0xFFFFFFFFFFFFFFFFFFFFFFFFFFFFFFFFFFFFFFFF AND PUSH4 0x24D7806C CALLER PUSH1 0x40 MLOAD DUP3 PUSH4 0xFFFFFFFF AND PUSH1 0xE0 SHL DUP2 MSTORE PUSH1 0x4 ADD PUSH2 0x105C SWAP2 SWAP1 PUSH2 0x1EBD JUMP JUMPDEST PUSH1 0x20 PUSH1 0x40 MLOAD DUP1 DUP4 SUB DUP2 DUP7 GAS STATICCALL ISZERO DUP1 ISZERO PUSH2 0x1079 JUMPI RETURNDATASIZE PUSH1 0x0 DUP1 RETURNDATACOPY RETURNDATASIZE PUSH1 0x0 REVERT JUMPDEST POP POP POP POP PUSH1 0x40 MLOAD RETURNDATASIZE PUSH1 0x1F NOT PUSH1 0x1F DUP3 ADD AND DUP3 ADD DUP1 PUSH1 0x40 MSTORE POP DUP2 ADD SWAP1 PUSH2 0x109D SWAP2 SWAP1 PUSH2 0x285E JUMP JUMPDEST PUSH2 0x10DC JUMPI PUSH1 0x40 MLOAD PUSH32 0x8C379A000000000000000000000000000000000000000000000000000000000 DUP2 MSTORE PUSH1 0x4 ADD PUSH2 0x10D3 SWAP1 PUSH2 0x28D7 JUMP JUMPDEST PUSH1 0x40 MLOAD DUP1 SWAP2 SUB SWAP1 REVERT JUMPDEST PUSH1 0x0 PUSH20 0xFFFFFFFFFFFFFFFFFFFFFFFFFFFFFFFFFFFFFFFF AND DUP4 PUSH20 0xFFFFFFFFFFFFFFFFFFFFFFFFFFFFFFFFFFFFFFFF AND SUB PUSH2 0x114B JUMPI PUSH1 0x40 MLOAD PUSH32 0x8C379A000000000000000000000000000000000000000000000000000000000 DUP2 MSTORE PUSH1 0x4 ADD PUSH2 0x1142 SWAP1 PUSH2 0x2C87 JUMP JUMPDEST PUSH1 0x40 MLOAD DUP1 SWAP2 SUB SWAP1 REVERT JUMPDEST DUP1 PUSH1 0x36 PUSH1 0x0 DUP6 PUSH20 0xFFFFFFFFFFFFFFFFFFFFFFFFFFFFFFFFFFFFFFFF AND PUSH20 0xFFFFFFFFFFFFFFFFFFFFFFFFFFFFFFFFFFFFFFFF AND DUP2 MSTORE PUSH1 0x20 ADD SWAP1 DUP2 MSTORE PUSH1 0x20 ADD PUSH1 0x0 KECCAK256 PUSH1 0x0 DUP5 PUSH20 0xFFFFFFFFFFFFFFFFFFFFFFFFFFFFFFFFFFFFFFFF AND PUSH20 0xFFFFFFFFFFFFFFFFFFFFFFFFFFFFFFFFFFFFFFFF AND DUP2 MSTORE PUSH1 0x20 ADD SWAP1 DUP2 MSTORE PUSH1 0x20 ADD PUSH1 0x0 KECCAK256 DUP2 SWAP1 SSTORE POP DUP2 PUSH20 0xFFFFFFFFFFFFFFFFFFFFFFFFFFFFFFFFFFFFFFFF AND DUP4 PUSH20 0xFFFFFFFFFFFFFFFFFFFFFFFFFFFFFFFFFFFFFFFF AND PUSH32 0x3D0601F3B0E52FD772F1FA71D91651B34B6A11144BEA30D74E0F820019A04DC2 DUP4 PUSH1 0x40 MLOAD PUSH2 0x1229 SWAP2 SWAP1 PUSH2 0x1D77 JUMP JUMPDEST PUSH1 0x40 MLOAD DUP1 SWAP2 SUB SWAP1 LOG3 POP POP POP JUMP JUMPDEST PUSH1 0x32 PUSH1 0x0 SWAP1 SLOAD SWAP1 PUSH2 0x100 EXP SWAP1 DIV PUSH20 0xFFFFFFFFFFFFFFFFFFFFFFFFFFFFFFFFFFFFFFFF AND PUSH20 0xFFFFFFFFFFFFFFFFFFFFFFFFFFFFFFFFFFFFFFFF AND PUSH4 0x24D7806C CALLER PUSH1 0x40 MLOAD DUP3 PUSH4 0xFFFFFFFF AND PUSH1 0xE0 SHL DUP2 MSTORE PUSH1 0x4 ADD PUSH2 0x1291 SWAP2 SWAP1 PUSH2 0x1EBD JUMP JUMPDEST PUSH1 0x20 PUSH1 0x40 MLOAD DUP1 DUP4 SUB DUP2 DUP7 GAS STATICCALL ISZERO DUP1 ISZERO PUSH2 0x12AE JUMPI RETURNDATASIZE PUSH1 0x0 DUP1 RETURNDATACOPY RETURNDATASIZE PUSH1 0x0 REVERT JUMPDEST POP POP POP POP PUSH1 0x40 MLOAD RETURNDATASIZE PUSH1 0x1F NOT PUSH1 0x1F DUP3 ADD AND DUP3 ADD DUP1 PUSH1 0x40 MSTORE POP DUP2 ADD SWAP1 PUSH2 0x12D2 SWAP2 SWAP1 PUSH2 0x285E JUMP JUMPDEST PUSH2 0x1311 JUMPI PUSH1 0x40 MLOAD PUSH32 0x8C379A000000000000000000000000000000000000000000000000000000000 DUP2 MSTORE PUSH1 0x4 ADD PUSH2 0x1308 SWAP1 PUSH2 0x28D7 JUMP JUMPDEST PUSH1 0x40 MLOAD DUP1 SWAP2 SUB SWAP1 REVERT JUMPDEST DUP2 DUP2 SWAP1 POP DUP5 DUP5 SWAP1 POP EQ PUSH2 0x1359 JUMPI PUSH1 0x40 MLOAD PUSH32 0x8C379A000000000000000000000000000000000000000000000000000000000 DUP2 MSTORE PUSH1 0x4 ADD PUSH2 0x1350 SWAP1 PUSH2 0x2CF3 JUMP JUMPDEST PUSH1 0x40 MLOAD DUP1 SWAP2 SUB SWAP1 REVERT JUMPDEST PUSH1 0x0 JUMPDEST DUP5 DUP5 SWAP1 POP DUP2 LT ISZERO PUSH2 0x14DA JUMPI DUP3 DUP3 DUP3 DUP2 DUP2 LT PUSH2 0x137A JUMPI PUSH2 0x1379 PUSH2 0x2D13 JUMP JUMPDEST JUMPDEST SWAP1 POP PUSH1 0x20 MUL ADD CALLDATALOAD PUSH1 0x36 PUSH1 0x0 DUP8 DUP8 DUP6 DUP2 DUP2 LT PUSH2 0x1398 JUMPI PUSH2 0x1397 PUSH2 0x2D13 JUMP JUMPDEST JUMPDEST SWAP1 POP PUSH1 0x20 MUL ADD PUSH1 0x20 DUP2 ADD SWAP1 PUSH2 0x13AD SWAP2 SWAP1 PUSH2 0x1E81 JUMP JUMPDEST PUSH20 0xFFFFFFFFFFFFFFFFFFFFFFFFFFFFFFFFFFFFFFFF AND PUSH20 0xFFFFFFFFFFFFFFFFFFFFFFFFFFFFFFFFFFFFFFFF AND DUP2 MSTORE PUSH1 0x20 ADD SWAP1 DUP2 MSTORE PUSH1 0x20 ADD PUSH1 0x0 KECCAK256 PUSH1 0x0 DUP9 PUSH20 0xFFFFFFFFFFFFFFFFFFFFFFFFFFFFFFFFFFFFFFFF AND PUSH20 0xFFFFFFFFFFFFFFFFFFFFFFFFFFFFFFFFFFFFFFFF AND DUP2 MSTORE PUSH1 0x20 ADD SWAP1 DUP2 MSTORE PUSH1 0x20 ADD PUSH1 0x0 KECCAK256 DUP2 SWAP1 SSTORE POP DUP6 PUSH20 0xFFFFFFFFFFFFFFFFFFFFFFFFFFFFFFFFFFFFFFFF AND DUP6 DUP6 DUP4 DUP2 DUP2 LT PUSH2 0x1452 JUMPI PUSH2 0x1451 PUSH2 0x2D13 JUMP JUMPDEST JUMPDEST SWAP1 POP PUSH1 0x20 MUL ADD PUSH1 0x20 DUP2 ADD SWAP1 PUSH2 0x1467 SWAP2 SWAP1 PUSH2 0x1E81 JUMP JUMPDEST PUSH20 0xFFFFFFFFFFFFFFFFFFFFFFFFFFFFFFFFFFFFFFFF AND PUSH32 0x3D0601F3B0E52FD772F1FA71D91651B34B6A11144BEA30D74E0F820019A04DC2 DUP6 DUP6 DUP6 DUP2 DUP2 LT PUSH2 0x14B1 JUMPI PUSH2 0x14B0 PUSH2 0x2D13 JUMP JUMPDEST JUMPDEST SWAP1 POP PUSH1 0x20 MUL ADD CALLDATALOAD PUSH1 0x40 MLOAD PUSH2 0x14C5 SWAP2 SWAP1 PUSH2 0x1D77 JUMP JUMPDEST PUSH1 0x40 MLOAD DUP1 SWAP2 SUB SWAP1 LOG3 DUP1 DUP1 PUSH1 0x1 ADD SWAP2 POP POP PUSH2 0x135C JUMP JUMPDEST POP POP POP POP POP POP JUMP JUMPDEST PUSH2 0x14EA PUSH2 0x19D3 JUMP JUMPDEST PUSH1 0x0 PUSH20 0xFFFFFFFFFFFFFFFFFFFFFFFFFFFFFFFFFFFFFFFF AND DUP2 PUSH20 0xFFFFFFFFFFFFFFFFFFFFFFFFFFFFFFFFFFFFFFFF AND SUB PUSH2 0x155C JUMPI PUSH1 0x0 PUSH1 0x40 MLOAD PUSH32 0x1E4FBDF700000000000000000000000000000000000000000000000000000000 DUP2 MSTORE PUSH1 0x4 ADD PUSH2 0x1553 SWAP2 SWAP1 PUSH2 0x1EBD JUMP JUMPDEST PUSH1 0x40 MLOAD DUP1 SWAP2 SUB SWAP1 REVERT JUMPDEST PUSH2 0x1565 DUP2 PUSH2 0x1A5A JUMP JUMPDEST POP JUMP JUMPDEST PUSH2 0x1570 PUSH2 0x19D3 JUMP JUMPDEST PUSH2 0x1578 PUSH2 0x182B JUMP JUMPDEST PUSH1 0x0 DUP2 GT PUSH2 0x15BB JUMPI PUSH1 0x40 MLOAD PUSH32 0x8C379A000000000000000000000000000000000000000000000000000000000 DUP2 MSTORE PUSH1 0x4 ADD PUSH2 0x15B2 SWAP1 PUSH2 0x2DB4 JUMP JUMPDEST PUSH1 0x40 MLOAD DUP1 SWAP2 SUB SWAP1 REVERT JUMPDEST DUP1 PUSH1 0x35 PUSH1 0x0 DUP5 PUSH20 0xFFFFFFFFFFFFFFFFFFFFFFFFFFFFFFFFFFFFFFFF AND PUSH20 0xFFFFFFFFFFFFFFFFFFFFFFFFFFFFFFFFFFFFFFFF AND DUP2 MSTORE PUSH1 0x20 ADD SWAP1 DUP2 MSTORE PUSH1 0x20 ADD PUSH1 0x0 KECCAK256 SLOAD LT ISZERO PUSH2 0x163D JUMPI PUSH1 0x40 MLOAD PUSH32 0x8C379A000000000000000000000000000000000000000000000000000000000 DUP2 MSTORE PUSH1 0x4 ADD PUSH2 0x1634 SWAP1 PUSH2 0x2E20 JUMP JUMPDEST PUSH1 0x40 MLOAD DUP1 SWAP2 SUB SWAP1 REVERT JUMPDEST DUP1 PUSH1 0x35 PUSH1 0x0 DUP5 PUSH20 0xFFFFFFFFFFFFFFFFFFFFFFFFFFFFFFFFFFFFFFFF AND PUSH20 0xFFFFFFFFFFFFFFFFFFFFFFFFFFFFFFFFFFFFFFFF AND DUP2 MSTORE PUSH1 0x20 ADD SWAP1 DUP2 MSTORE PUSH1 0x20 ADD PUSH1 0x0 KECCAK256 PUSH1 0x0 DUP3 DUP3 SLOAD PUSH2 0x168C SWAP2 SWAP1 PUSH2 0x258C JUMP JUMPDEST SWAP3 POP POP DUP2 SWAP1 SSTORE POP PUSH1 0x0 PUSH20 0xFFFFFFFFFFFFFFFFFFFFFFFFFFFFFFFFFFFFFFFF AND DUP3 PUSH20 0xFFFFFFFFFFFFFFFFFFFFFFFFFFFFFFFFFFFFFFFF AND SUB PUSH2 0x1780 JUMPI PUSH1 0x0 PUSH2 0x16D1 PUSH2 0xD73 JUMP JUMPDEST PUSH20 0xFFFFFFFFFFFFFFFFFFFFFFFFFFFFFFFFFFFFFFFF AND DUP3 PUSH1 0x40 MLOAD PUSH2 0x16F4 SWAP1 PUSH2 0x25F1 JUMP JUMPDEST PUSH1 0x0 PUSH1 0x40 MLOAD DUP1 DUP4 SUB DUP2 DUP6 DUP8 GAS CALL SWAP3 POP POP POP RETURNDATASIZE DUP1 PUSH1 0x0 DUP2 EQ PUSH2 0x1731 JUMPI PUSH1 0x40 MLOAD SWAP2 POP PUSH1 0x1F NOT PUSH1 0x3F RETURNDATASIZE ADD AND DUP3 ADD PUSH1 0x40 MSTORE RETURNDATASIZE DUP3 MSTORE RETURNDATASIZE PUSH1 0x0 PUSH1 0x20 DUP5 ADD RETURNDATACOPY PUSH2 0x1736 JUMP JUMPDEST PUSH1 0x60 SWAP2 POP JUMPDEST POP POP SWAP1 POP DUP1 PUSH2 0x177A JUMPI PUSH1 0x40 MLOAD PUSH32 0x8C379A000000000000000000000000000000000000000000000000000000000 DUP2 MSTORE PUSH1 0x4 ADD PUSH2 0x1771 SWAP1 PUSH2 0x2652 JUMP JUMPDEST PUSH1 0x40 MLOAD DUP1 SWAP2 SUB SWAP1 REVERT JUMPDEST POP PUSH2 0x17B3 JUMP JUMPDEST PUSH2 0x17B2 PUSH2 0x178B PUSH2 0xD73 JUMP JUMPDEST DUP3 DUP5 PUSH20 0xFFFFFFFFFFFFFFFFFFFFFFFFFFFFFFFFFFFFFFFF AND PUSH2 0x187A SWAP1 SWAP3 SWAP2 SWAP1 PUSH4 0xFFFFFFFF AND JUMP JUMPDEST JUMPDEST DUP2 PUSH20 0xFFFFFFFFFFFFFFFFFFFFFFFFFFFFFFFFFFFFFFFF AND PUSH2 0x17D2 PUSH2 0xD73 JUMP JUMPDEST PUSH20 0xFFFFFFFFFFFFFFFFFFFFFFFFFFFFFFFFFFFFFFFF AND PUSH32 0x9B1BFA7FA9EE420A16E124F794C35AC9F90472ACC99140EB2F6447C714CAD8EB DUP4 PUSH1 0x40 MLOAD PUSH2 0x1817 SWAP2 SWAP1 PUSH2 0x1D77 JUMP JUMPDEST PUSH1 0x40 MLOAD DUP1 SWAP2 SUB SWAP1 LOG3 PUSH2 0x1827 PUSH2 0x18F9 JUMP JUMPDEST POP POP JUMP JUMPDEST PUSH1 0x2 PUSH1 0x0 SLOAD SUB PUSH2 0x1870 JUMPI PUSH1 0x40 MLOAD PUSH32 0x8C379A000000000000000000000000000000000000000000000000000000000 DUP2 MSTORE PUSH1 0x4 ADD PUSH2 0x1867 SWAP1 PUSH2 0x2E8C JUMP JUMPDEST PUSH1 0x40 MLOAD DUP1 SWAP2 SUB SWAP1 REVERT JUMPDEST PUSH1 0x2 PUSH1 0x0 DUP2 SWAP1 SSTORE POP JUMP JUMPDEST PUSH2 0x18F4 DUP4 DUP5 PUSH20 0xFFFFFFFFFFFFFFFFFFFFFFFFFFFFFFFFFFFFFFFF AND PUSH4 0xA9059CBB DUP6 DUP6 PUSH1 0x40 MLOAD PUSH1 0x24 ADD PUSH2 0x18AD SWAP3 SWAP2 SWAP1 PUSH2 0x2EAC JUMP JUMPDEST PUSH1 0x40 MLOAD PUSH1 0x20 DUP2 DUP4 SUB SUB DUP2 MSTORE SWAP1 PUSH1 0x40 MSTORE SWAP2 POP PUSH1 0xE0 SHL PUSH1 0x20 DUP3 ADD DUP1 MLOAD PUSH28 0xFFFFFFFFFFFFFFFFFFFFFFFFFFFFFFFFFFFFFFFFFFFFFFFFFFFFFFFF DUP4 DUP2 DUP4 AND OR DUP4 MSTORE POP POP POP POP PUSH2 0x1B59 JUMP JUMPDEST POP POP POP JUMP JUMPDEST PUSH1 0x1 PUSH1 0x0 DUP2 SWAP1 SSTORE POP JUMP JUMPDEST PUSH2 0x197F DUP5 DUP6 PUSH20 0xFFFFFFFFFFFFFFFFFFFFFFFFFFFFFFFFFFFFFFFF AND PUSH4 0x23B872DD DUP7 DUP7 DUP7 PUSH1 0x40 MLOAD PUSH1 0x24 ADD PUSH2 0x1938 SWAP4 SWAP3 SWAP2 SWAP1 PUSH2 0x2ED5 JUMP JUMPDEST PUSH1 0x40 MLOAD PUSH1 0x20 DUP2 DUP4 SUB SUB DUP2 MSTORE SWAP1 PUSH1 0x40 MSTORE SWAP2 POP PUSH1 0xE0 SHL PUSH1 0x20 DUP3 ADD DUP1 MLOAD PUSH28 0xFFFFFFFFFFFFFFFFFFFFFFFFFFFFFFFFFFFFFFFFFFFFFFFFFFFFFFFF DUP4 DUP2 DUP4 AND OR DUP4 MSTORE POP POP POP POP PUSH2 0x1B59 JUMP JUMPDEST POP POP POP POP JUMP JUMPDEST PUSH1 0x0 PUSH32 0xF0C57E16840DF040F15088DC2F81FE391C3923BEC73E23A9662EFC9C229C6A00 SWAP1 POP SWAP1 JUMP JUMPDEST PUSH2 0x19B5 PUSH2 0x1BFB JUMP JUMPDEST PUSH2 0x19BE DUP2 PUSH2 0x1C3B JUMP JUMPDEST POP JUMP JUMPDEST PUSH2 0x19C9 PUSH2 0x1BFB JUMP JUMPDEST PUSH2 0x19D1 PUSH2 0x1CC1 JUMP JUMPDEST JUMP JUMPDEST PUSH2 0x19DB PUSH2 0x1CD3 JUMP JUMPDEST PUSH20 0xFFFFFFFFFFFFFFFFFFFFFFFFFFFFFFFFFFFFFFFF AND PUSH2 0x19F9 PUSH2 0xD73 JUMP JUMPDEST PUSH20 0xFFFFFFFFFFFFFFFFFFFFFFFFFFFFFFFFFFFFFFFF AND EQ PUSH2 0x1A58 JUMPI PUSH2 0x1A1C PUSH2 0x1CD3 JUMP JUMPDEST PUSH1 0x40 MLOAD PUSH32 0x118CDAA700000000000000000000000000000000000000000000000000000000 DUP2 MSTORE PUSH1 0x4 ADD PUSH2 0x1A4F SWAP2 SWAP1 PUSH2 0x1EBD JUMP JUMPDEST PUSH1 0x40 MLOAD DUP1 SWAP2 SUB SWAP1 REVERT JUMPDEST JUMP JUMPDEST PUSH1 0x0 PUSH2 0x1A64 PUSH2 0x1B31 JUMP JUMPDEST SWAP1 POP PUSH1 0x0 DUP2 PUSH1 0x0 ADD PUSH1 0x0 SWAP1 SLOAD SWAP1 PUSH2 0x100 EXP SWAP1 DIV PUSH20 0xFFFFFFFFFFFFFFFFFFFFFFFFFFFFFFFFFFFFFFFF AND SWAP1 POP DUP3 DUP3 PUSH1 0x0 ADD PUSH1 0x0 PUSH2 0x100 EXP DUP2 SLOAD DUP2 PUSH20 0xFFFFFFFFFFFFFFFFFFFFFFFFFFFFFFFFFFFFFFFF MUL NOT AND SWAP1 DUP4 PUSH20 0xFFFFFFFFFFFFFFFFFFFFFFFFFFFFFFFFFFFFFFFF AND MUL OR SWAP1 SSTORE POP DUP3 PUSH20 0xFFFFFFFFFFFFFFFFFFFFFFFFFFFFFFFFFFFFFFFF AND DUP2 PUSH20 0xFFFFFFFFFFFFFFFFFFFFFFFFFFFFFFFFFFFFFFFF AND PUSH32 0x8BE0079C531659141344CD1FD0A4F28419497F9722A3DAAFE3B4186F6B6457E0 PUSH1 0x40 MLOAD PUSH1 0x40 MLOAD DUP1 SWAP2 SUB SWAP1 LOG3 POP POP POP JUMP JUMPDEST PUSH1 0x0 PUSH32 0x9016D09D72D40FDAE2FD8CEAC6B6234C7706214FD39C1CD1E609A0528C199300 SWAP1 POP SWAP1 JUMP JUMPDEST PUSH1 0x0 DUP1 PUSH1 0x20 PUSH1 0x0 DUP5 MLOAD PUSH1 0x20 DUP7 ADD PUSH1 0x0 DUP9 GAS CALL DUP1 PUSH2 0x1B7C JUMPI PUSH1 0x40 MLOAD RETURNDATASIZE PUSH1 0x0 DUP3 RETURNDATACOPY RETURNDATASIZE DUP2 REVERT JUMPDEST RETURNDATASIZE SWAP3 POP PUSH1 0x0 MLOAD SWAP2 POP POP PUSH1 0x0 DUP3 EQ PUSH2 0x1B97 JUMPI PUSH1 0x1 DUP2 EQ ISZERO PUSH2 0x1BB3 JUMP JUMPDEST PUSH1 0x0 DUP5 PUSH20 0xFFFFFFFFFFFFFFFFFFFFFFFFFFFFFFFFFFFFFFFF AND EXTCODESIZE EQ JUMPDEST ISZERO PUSH2 0x1BF5 JUMPI DUP4 PUSH1 0x40 MLOAD PUSH32 0x5274AFE700000000000000000000000000000000000000000000000000000000 DUP2 MSTORE PUSH1 0x4 ADD PUSH2 0x1BEC SWAP2 SWAP1 PUSH2 0x1EBD JUMP JUMPDEST PUSH1 0x40 MLOAD DUP1 SWAP2 SUB SWAP1 REVERT JUMPDEST POP POP POP POP JUMP JUMPDEST PUSH2 0x1C03 PUSH2 0x1CDB JUMP JUMPDEST PUSH2 0x1C39 JUMPI PUSH1 0x40 MLOAD PUSH32 0xD7E6BCF800000000000000000000000000000000000000000000000000000000 DUP2 MSTORE PUSH1 0x4 ADD PUSH1 0x40 MLOAD DUP1 SWAP2 SUB SWAP1 REVERT JUMPDEST JUMP JUMPDEST PUSH2 0x1C43 PUSH2 0x1BFB JUMP JUMPDEST PUSH1 0x0 PUSH20 0xFFFFFFFFFFFFFFFFFFFFFFFFFFFFFFFFFFFFFFFF AND DUP2 PUSH20 0xFFFFFFFFFFFFFFFFFFFFFFFFFFFFFFFFFFFFFFFF AND SUB PUSH2 0x1CB5 JUMPI PUSH1 0x0 PUSH1 0x40 MLOAD PUSH32 0x1E4FBDF700000000000000000000000000000000000000000000000000000000 DUP2 MSTORE PUSH1 0x4 ADD PUSH2 0x1CAC SWAP2 SWAP1 PUSH2 0x1EBD JUMP JUMPDEST PUSH1 0x40 MLOAD DUP1 SWAP2 SUB SWAP1 REVERT JUMPDEST PUSH2 0x1CBE DUP2 PUSH2 0x1A5A JUMP JUMPDEST POP JUMP JUMPDEST PUSH2 0x1CC9 PUSH2 0x1BFB JUMP JUMPDEST PUSH1 0x1 PUSH1 0x0 DUP2 SWAP1 SSTORE POP JUMP JUMPDEST PUSH1 0x0 CALLER SWAP1 POP SWAP1 JUMP JUMPDEST PUSH1 0x0 PUSH2 0x1CE5 PUSH2 0x1985 JUMP JUMPDEST PUSH1 0x0 ADD PUSH1 0x8 SWAP1 SLOAD SWAP1 PUSH2 0x100 EXP SWAP1 DIV PUSH1 0xFF AND SWAP1 POP SWAP1 JUMP JUMPDEST PUSH1 0x0 DUP2 SWAP1 POP SWAP2 SWAP1 POP JUMP JUMPDEST PUSH32 0x4E487B7100000000000000000000000000000000000000000000000000000000 PUSH1 0x0 MSTORE PUSH1 0x11 PUSH1 0x4 MSTORE PUSH1 0x24 PUSH1 0x0 REVERT JUMPDEST PUSH1 0x0 PUSH2 0x1D3F DUP3 PUSH2 0x1CFB JUMP JUMPDEST SWAP2 POP PUSH2 0x1D4A DUP4 PUSH2 0x1CFB JUMP JUMPDEST SWAP3 POP DUP3 DUP3 ADD SWAP1 POP DUP1 DUP3 GT ISZERO PUSH2 0x1D62 JUMPI PUSH2 0x1D61 PUSH2 0x1D05 JUMP JUMPDEST JUMPDEST SWAP3 SWAP2 POP POP JUMP JUMPDEST PUSH2 0x1D71 DUP2 PUSH2 0x1CFB JUMP JUMPDEST DUP3 MSTORE POP POP JUMP JUMPDEST PUSH1 0x0 PUSH1 0x20 DUP3 ADD SWAP1 POP PUSH2 0x1D8C PUSH1 0x0 DUP4 ADD DUP5 PUSH2 0x1D68 JUMP JUMPDEST SWAP3 SWAP2 POP POP JUMP JUMPDEST PUSH1 0x0 DUP3 DUP3 MSTORE PUSH1 0x20 DUP3 ADD SWAP1 POP SWAP3 SWAP2 POP POP JUMP JUMPDEST PUSH32 0x537765657473706F743A20757365206465706F73697428290000000000000000 PUSH1 0x0 DUP3 ADD MSTORE POP JUMP JUMPDEST PUSH1 0x0 PUSH2 0x1DD9 PUSH1 0x18 DUP4 PUSH2 0x1D92 JUMP JUMPDEST SWAP2 POP PUSH2 0x1DE4 DUP3 PUSH2 0x1DA3 JUMP JUMPDEST PUSH1 0x20 DUP3 ADD SWAP1 POP SWAP2 SWAP1 POP JUMP JUMPDEST PUSH1 0x0 PUSH1 0x20 DUP3 ADD SWAP1 POP DUP2 DUP2 SUB PUSH1 0x0 DUP4 ADD MSTORE PUSH2 0x1E08 DUP2 PUSH2 0x1DCC JUMP JUMPDEST SWAP1 POP SWAP2 SWAP1 POP JUMP JUMPDEST PUSH1 0x0 PUSH1 0x40 MLOAD SWAP1 POP SWAP1 JUMP JUMPDEST PUSH1 0x0 DUP1 REVERT JUMPDEST PUSH1 0x0 DUP1 REVERT JUMPDEST PUSH1 0x0 PUSH20 0xFFFFFFFFFFFFFFFFFFFFFFFFFFFFFFFFFFFFFFFF DUP3 AND SWAP1 POP SWAP2 SWAP1 POP JUMP JUMPDEST PUSH1 0x0 PUSH2 0x1E4E DUP3 PUSH2 0x1E23 JUMP JUMPDEST SWAP1 POP SWAP2 SWAP1 POP JUMP JUMPDEST PUSH2 0x1E5E DUP2 PUSH2 0x1E43 JUMP JUMPDEST DUP2 EQ PUSH2 0x1E69 JUMPI PUSH1 0x0 DUP1 REVERT JUMPDEST POP JUMP JUMPDEST PUSH1 0x0 DUP2 CALLDATALOAD SWAP1 POP PUSH2 0x1E7B DUP2 PUSH2 0x1E55 JUMP JUMPDEST SWAP3 SWAP2 POP POP JUMP JUMPDEST PUSH1 0x0 PUSH1 0x20 DUP3 DUP5 SUB SLT ISZERO PUSH2 0x1E97 JUMPI PUSH2 0x1E96 PUSH2 0x1E19 JUMP JUMPDEST JUMPDEST PUSH1 0x0 PUSH2 0x1EA5 DUP5 DUP3 DUP6 ADD PUSH2 0x1E6C JUMP JUMPDEST SWAP2 POP POP SWAP3 SWAP2 POP POP JUMP JUMPDEST PUSH2 0x1EB7 DUP2 PUSH2 0x1E43 JUMP JUMPDEST DUP3 MSTORE POP POP JUMP JUMPDEST PUSH1 0x0 PUSH1 0x20 DUP3 ADD SWAP1 POP PUSH2 0x1ED2 PUSH1 0x0 DUP4 ADD DUP5 PUSH2 0x1EAE JUMP JUMPDEST SWAP3 SWAP2 POP POP JUMP JUMPDEST PUSH2 0x1EE1 DUP2 PUSH2 0x1CFB JUMP JUMPDEST DUP2 EQ PUSH2 0x1EEC JUMPI PUSH1 0x0 DUP1 REVERT JUMPDEST POP JUMP JUMPDEST PUSH1 0x0 DUP2 CALLDATALOAD SWAP1 POP PUSH2 0x1EFE DUP2 PUSH2 0x1ED8 JUMP JUMPDEST SWAP3 SWAP2 POP POP JUMP JUMPDEST PUSH1 0x0 DUP1 PUSH1 0x40 DUP4 DUP6 SUB SLT ISZERO PUSH2 0x1F1B JUMPI PUSH2 0x1F1A PUSH2 0x1E19 JUMP JUMPDEST JUMPDEST PUSH1 0x0 PUSH2 0x1F29 DUP6 DUP3 DUP7 ADD PUSH2 0x1E6C JUMP JUMPDEST SWAP3 POP POP PUSH1 0x20 PUSH2 0x1F3A DUP6 DUP3 DUP7 ADD PUSH2 0x1EEF JUMP JUMPDEST SWAP2 POP POP SWAP3 POP SWAP3 SWAP1 POP JUMP JUMPDEST PUSH1 0x0 DUP1 PUSH1 0x40 DUP4 DUP6 SUB SLT ISZERO PUSH2 0x1F5B JUMPI PUSH2 0x1F5A PUSH2 0x1E19 JUMP JUMPDEST JUMPDEST PUSH1 0x0 PUSH2 0x1F69 DUP6 DUP3 DUP7 ADD PUSH2 0x1E6C JUMP JUMPDEST SWAP3 POP POP PUSH1 0x20 PUSH2 0x1F7A DUP6 DUP3 DUP7 ADD PUSH2 0x1E6C JUMP JUMPDEST SWAP2 POP POP SWAP3 POP SWAP3 SWAP1 POP JUMP JUMPDEST PUSH1 0x0 DUP2 SWAP1 POP SWAP2 SWAP1 POP JUMP JUMPDEST PUSH1 0x0 PUSH2 0x1FA9 PUSH2 0x1FA4 PUSH2 0x1F9F DUP5 PUSH2 0x1E23 JUMP JUMPDEST PUSH2 0x1F84 JUMP JUMPDEST PUSH2 0x1E23 JUMP JUMPDEST SWAP1 POP SWAP2 SWAP1 POP JUMP JUMPDEST PUSH1 0x0 PUSH2 0x1FBB DUP3 PUSH2 0x1F8E JUMP JUMPDEST SWAP1 POP SWAP2 SWAP1 POP JUMP JUMPDEST PUSH1 0x0 PUSH2 0x1FCD DUP3 PUSH2 0x1FB0 JUMP JUMPDEST SWAP1 POP SWAP2 SWAP1 POP JUMP JUMPDEST PUSH2 0x1FDD DUP2 PUSH2 0x1FC2 JUMP JUMPDEST DUP3 MSTORE POP POP JUMP JUMPDEST PUSH1 0x0 PUSH1 0x20 DUP3 ADD SWAP1 POP PUSH2 0x1FF8 PUSH1 0x0 DUP4 ADD DUP5 PUSH2 0x1FD4 JUMP JUMPDEST SWAP3 SWAP2 POP POP JUMP JUMPDEST PUSH1 0x0 PUSH8 0xFFFFFFFFFFFFFFFF DUP3 AND SWAP1 POP SWAP2 SWAP1 POP JUMP JUMPDEST PUSH2 0x201B DUP2 PUSH2 0x1FFE JUMP JUMPDEST DUP3 MSTORE POP POP JUMP JUMPDEST PUSH1 0x0 DUP2 MLOAD SWAP1 POP SWAP2 SWAP1 POP JUMP JUMPDEST PUSH1 0x0 JUMPDEST DUP4 DUP2 LT ISZERO PUSH2 0x204A JUMPI DUP1 DUP3 ADD MLOAD DUP2 DUP5 ADD MSTORE PUSH1 0x20 DUP2 ADD SWAP1 POP PUSH2 0x202F JUMP JUMPDEST PUSH1 0x0 DUP5 DUP5 ADD MSTORE POP POP POP POP JUMP JUMPDEST PUSH1 0x0 PUSH1 0x1F NOT PUSH1 0x1F DUP4 ADD AND SWAP1 POP SWAP2 SWAP1 POP JUMP JUMPDEST PUSH1 0x0 PUSH2 0x2072 DUP3 PUSH2 0x2021 JUMP JUMPDEST PUSH2 0x207C DUP2 DUP6 PUSH2 0x1D92 JUMP JUMPDEST SWAP4 POP PUSH2 0x208C DUP2 DUP6 PUSH1 0x20 DUP7 ADD PUSH2 0x202C JUMP JUMPDEST PUSH2 0x2095 DUP2 PUSH2 0x2056 JUMP JUMPDEST DUP5 ADD SWAP2 POP POP SWAP3 SWAP2 POP POP JUMP JUMPDEST PUSH1 0x0 PUSH1 0x60 DUP3 ADD SWAP1 POP PUSH2 0x20B5 PUSH1 0x0 DUP4 ADD DUP7 PUSH2 0x2012 JUMP JUMPDEST PUSH2 0x20C2 PUSH1 0x20 DUP4 ADD DUP6 PUSH2 0x2012 JUMP JUMPDEST DUP2 DUP2 SUB PUSH1 0x40 DUP4 ADD MSTORE PUSH2 0x20D4 DUP2 DUP5 PUSH2 0x2067 JUMP JUMPDEST SWAP1 POP SWAP5 SWAP4 POP POP POP POP JUMP JUMPDEST PUSH2 0x20E7 DUP2 PUSH2 0x1FFE JUMP JUMPDEST DUP2 EQ PUSH2 0x20F2 JUMPI PUSH1 0x0 DUP1 REVERT JUMPDEST POP JUMP JUMPDEST PUSH1 0x0 DUP2 CALLDATALOAD SWAP1 POP PUSH2 0x2104 DUP2 PUSH2 0x20DE JUMP JUMPDEST SWAP3 SWAP2 POP POP JUMP JUMPDEST PUSH1 0x0 DUP1 REVERT JUMPDEST PUSH1 0x0 DUP1 REVERT JUMPDEST PUSH32 0x4E487B7100000000000000000000000000000000000000000000000000000000 PUSH1 0x0 MSTORE PUSH1 0x41 PUSH1 0x4 MSTORE PUSH1 0x24 PUSH1 0x0 REVERT JUMPDEST PUSH2 0x214C DUP3 PUSH2 0x2056 JUMP JUMPDEST DUP2 ADD DUP2 DUP2 LT PUSH8 0xFFFFFFFFFFFFFFFF DUP3 GT OR ISZERO PUSH2 0x216B JUMPI PUSH2 0x216A PUSH2 0x2114 JUMP JUMPDEST JUMPDEST DUP1 PUSH1 0x40 MSTORE POP POP POP JUMP JUMPDEST PUSH1 0x0 PUSH2 0x217E PUSH2 0x1E0F JUMP JUMPDEST SWAP1 POP PUSH2 0x218A DUP3 DUP3 PUSH2 0x2143 JUMP JUMPDEST SWAP2 SWAP1 POP JUMP JUMPDEST PUSH1 0x0 PUSH8 0xFFFFFFFFFFFFFFFF DUP3 GT ISZERO PUSH2 0x21AA JUMPI PUSH2 0x21A9 PUSH2 0x2114 JUMP JUMPDEST JUMPDEST PUSH2 0x21B3 DUP3 PUSH2 0x2056 JUMP JUMPDEST SWAP1 POP PUSH1 0x20 DUP2 ADD SWAP1 POP SWAP2 SWAP1 POP JUMP JUMPDEST DUP3 DUP2 DUP4 CALLDATACOPY PUSH1 0x0 DUP4 DUP4 ADD MSTORE POP POP POP JUMP JUMPDEST PUSH1 0x0 PUSH2 0x21E2 PUSH2 0x21DD DUP5 PUSH2 0x218F JUMP JUMPDEST PUSH2 0x2174 JUMP JUMPDEST SWAP1 POP DUP3 DUP2 MSTORE PUSH1 0x20 DUP2 ADD DUP5 DUP5 DUP5 ADD GT ISZERO PUSH2 0x21FE JUMPI PUSH2 0x21FD PUSH2 0x210F JUMP JUMPDEST JUMPDEST PUSH2 0x2209 DUP5 DUP3 DUP6 PUSH2 0x21C0 JUMP JUMPDEST POP SWAP4 SWAP3 POP POP POP JUMP JUMPDEST PUSH1 0x0 DUP3 PUSH1 0x1F DUP4 ADD SLT PUSH2 0x2226 JUMPI PUSH2 0x2225 PUSH2 0x210A JUMP JUMPDEST JUMPDEST DUP2 CALLDATALOAD PUSH2 0x2236 DUP5 DUP3 PUSH1 0x20 DUP7 ADD PUSH2 0x21CF JUMP JUMPDEST SWAP2 POP POP SWAP3 SWAP2 POP POP JUMP JUMPDEST PUSH1 0x0 DUP1 PUSH1 0x0 PUSH1 0x60 DUP5 DUP7 SUB SLT ISZERO PUSH2 0x2258 JUMPI PUSH2 0x2257 PUSH2 0x1E19 JUMP JUMPDEST JUMPDEST PUSH1 0x0 PUSH2 0x2266 DUP7 DUP3 DUP8 ADD PUSH2 0x20F5 JUMP JUMPDEST SWAP4 POP POP PUSH1 0x20 PUSH2 0x2277 DUP7 DUP3 DUP8 ADD PUSH2 0x20F5 JUMP JUMPDEST SWAP3 POP POP PUSH1 0x40 DUP5 ADD CALLDATALOAD PUSH8 0xFFFFFFFFFFFFFFFF DUP2 GT ISZERO PUSH2 0x2298 JUMPI PUSH2 0x2297 PUSH2 0x1E1E JUMP JUMPDEST JUMPDEST PUSH2 0x22A4 DUP7 DUP3 DUP8 ADD PUSH2 0x2211 JUMP JUMPDEST SWAP2 POP POP SWAP3 POP SWAP3 POP SWAP3 JUMP JUMPDEST PUSH1 0x0 DUP1 PUSH1 0x0 PUSH1 0x60 DUP5 DUP7 SUB SLT ISZERO PUSH2 0x22C7 JUMPI PUSH2 0x22C6 PUSH2 0x1E19 JUMP JUMPDEST JUMPDEST PUSH1 0x0 PUSH2 0x22D5 DUP7 DUP3 DUP8 ADD PUSH2 0x1E6C JUMP JUMPDEST SWAP4 POP POP PUSH1 0x20 PUSH2 0x22E6 DUP7 DUP3 DUP8 ADD PUSH2 0x1E6C JUMP JUMPDEST SWAP3 POP POP PUSH1 0x40 PUSH2 0x22F7 DUP7 DUP3 DUP8 ADD PUSH2 0x1EEF JUMP JUMPDEST SWAP2 POP POP SWAP3 POP SWAP3 POP SWAP3 JUMP JUMPDEST PUSH1 0x0 DUP1 REVERT JUMPDEST PUSH1 0x0 DUP1 REVERT JUMPDEST PUSH1 0x0 DUP1 DUP4 PUSH1 0x1F DUP5 ADD SLT PUSH2 0x2321 JUMPI PUSH2 0x2320 PUSH2 0x210A JUMP JUMPDEST JUMPDEST DUP3 CALLDATALOAD SWAP1 POP PUSH8 0xFFFFFFFFFFFFFFFF DUP2 GT ISZERO PUSH2 0x233E JUMPI PUSH2 0x233D PUSH2 0x2301 JUMP JUMPDEST JUMPDEST PUSH1 0x20 DUP4 ADD SWAP2 POP DUP4 PUSH1 0x20 DUP3 MUL DUP4 ADD GT ISZERO PUSH2 0x235A JUMPI PUSH2 0x2359 PUSH2 0x2306 JUMP JUMPDEST JUMPDEST SWAP3 POP SWAP3 SWAP1 POP JUMP JUMPDEST PUSH1 0x0 DUP1 DUP4 PUSH1 0x1F DUP5 ADD SLT PUSH2 0x2377 JUMPI PUSH2 0x2376 PUSH2 0x210A JUMP JUMPDEST JUMPDEST DUP3 CALLDATALOAD SWAP1 POP PUSH8 0xFFFFFFFFFFFFFFFF DUP2 GT ISZERO PUSH2 0x2394 JUMPI PUSH2 0x2393 PUSH2 0x2301 JUMP JUMPDEST JUMPDEST PUSH1 0x20 DUP4 ADD SWAP2 POP DUP4 PUSH1 0x20 DUP3 MUL DUP4 ADD GT ISZERO PUSH2 0x23B0 JUMPI PUSH2 0x23AF PUSH2 0x2306 JUMP JUMPDEST JUMPDEST SWAP3 POP SWAP3 SWAP1 POP JUMP JUMPDEST PUSH1 0x0 DUP1 PUSH1 0x0 DUP1 PUSH1 0x0 PUSH1 0x60 DUP7 DUP9 SUB SLT ISZERO PUSH2 0x23D3 JUMPI PUSH2 0x23D2 PUSH2 0x1E19 JUMP JUMPDEST JUMPDEST PUSH1 0x0 PUSH2 0x23E1 DUP9 DUP3 DUP10 ADD PUSH2 0x1E6C JUMP JUMPDEST SWAP6 POP POP PUSH1 0x20 DUP7 ADD CALLDATALOAD PUSH8 0xFFFFFFFFFFFFFFFF DUP2 GT ISZERO PUSH2 0x2402 JUMPI PUSH2 0x2401 PUSH2 0x1E1E JUMP JUMPDEST JUMPDEST PUSH2 0x240E DUP9 DUP3 DUP10 ADD PUSH2 0x230B JUMP JUMPDEST SWAP5 POP SWAP5 POP POP PUSH1 0x40 DUP7 ADD CALLDATALOAD PUSH8 0xFFFFFFFFFFFFFFFF DUP2 GT ISZERO PUSH2 0x2431 JUMPI PUSH2 0x2430 PUSH2 0x1E1E JUMP JUMPDEST JUMPDEST PUSH2 0x243D DUP9 DUP3 DUP10 ADD PUSH2 0x2361 JUMP JUMPDEST SWAP3 POP SWAP3 POP POP SWAP3 SWAP6 POP SWAP3 SWAP6 SWAP1 SWAP4 POP JUMP JUMPDEST PUSH1 0x0 PUSH2 0x2467 PUSH2 0x2462 PUSH2 0x245D DUP5 PUSH2 0x1FFE JUMP JUMPDEST PUSH2 0x1F84 JUMP JUMPDEST PUSH2 0x1CFB JUMP JUMPDEST SWAP1 POP SWAP2 SWAP1 POP JUMP JUMPDEST PUSH2 0x2477 DUP2 PUSH2 0x244C JUMP JUMPDEST DUP3 MSTORE POP POP JUMP JUMPDEST PUSH1 0x0 PUSH1 0x60 DUP3 ADD SWAP1 POP PUSH2 0x2492 PUSH1 0x0 DUP4 ADD DUP7 PUSH2 0x1D68 JUMP JUMPDEST PUSH2 0x249F PUSH1 0x20 DUP4 ADD DUP6 PUSH2 0x246E JUMP JUMPDEST PUSH2 0x24AC PUSH1 0x40 DUP4 ADD DUP5 PUSH2 0x246E JUMP JUMPDEST SWAP5 SWAP4 POP POP POP POP JUMP JUMPDEST PUSH32 0x4E6F20636C61696D61626C6520616D6F756E7400000000000000000000000000 PUSH1 0x0 DUP3 ADD MSTORE POP JUMP JUMPDEST PUSH1 0x0 PUSH2 0x24EA PUSH1 0x13 DUP4 PUSH2 0x1D92 JUMP JUMPDEST SWAP2 POP PUSH2 0x24F5 DUP3 PUSH2 0x24B4 JUMP JUMPDEST PUSH1 0x20 DUP3 ADD SWAP1 POP SWAP2 SWAP1 POP JUMP JUMPDEST PUSH1 0x0 PUSH1 0x20 DUP3 ADD SWAP1 POP DUP2 DUP2 SUB PUSH1 0x0 DUP4 ADD MSTORE PUSH2 0x2519 DUP2 PUSH2 0x24DD JUMP JUMPDEST SWAP1 POP SWAP2 SWAP1 POP JUMP JUMPDEST PUSH32 0x496E73756666696369656E742066756E647320696E206A617200000000000000 PUSH1 0x0 DUP3 ADD MSTORE POP JUMP JUMPDEST PUSH1 0x0 PUSH2 0x2556 PUSH1 0x19 DUP4 PUSH2 0x1D92 JUMP JUMPDEST SWAP2 POP PUSH2 0x2561 DUP3 PUSH2 0x2520 JUMP JUMPDEST PUSH1 0x20 DUP3 ADD SWAP1 POP SWAP2 SWAP1 POP JUMP JUMPDEST PUSH1 0x0 PUSH1 0x20 DUP3 ADD SWAP1 POP DUP2 DUP2 SUB PUSH1 0x0 DUP4 ADD MSTORE PUSH2 0x2585 DUP2 PUSH2 0x2549 JUMP JUMPDEST SWAP1 POP SWAP2 SWAP1 POP JUMP JUMPDEST PUSH1 0x0 PUSH2 0x2597 DUP3 PUSH2 0x1CFB JUMP JUMPDEST SWAP2 POP PUSH2 0x25A2 DUP4 PUSH2 0x1CFB JUMP JUMPDEST SWAP3 POP DUP3 DUP3 SUB SWAP1 POP DUP2 DUP2 GT ISZERO PUSH2 0x25BA JUMPI PUSH2 0x25B9 PUSH2 0x1D05 JUMP JUMPDEST JUMPDEST SWAP3 SWAP2 POP POP JUMP JUMPDEST PUSH1 0x0 DUP2 SWAP1 POP SWAP3 SWAP2 POP POP JUMP JUMPDEST POP JUMP JUMPDEST PUSH1 0x0 PUSH2 0x25DB PUSH1 0x0 DUP4 PUSH2 0x25C0 JUMP JUMPDEST SWAP2 POP PUSH2 0x25E6 DUP3 PUSH2 0x25CB JUMP JUMPDEST PUSH1 0x0 DUP3 ADD SWAP1 POP SWAP2 SWAP1 POP JUMP JUMPDEST PUSH1 0x0 PUSH2 0x25FC DUP3 PUSH2 0x25CE JUMP JUMPDEST SWAP2 POP DUP2 SWAP1 POP SWAP2 SWAP1 POP JUMP JUMPDEST PUSH32 0x4574686572207472616E73666572206661696C65640000000000000000000000 PUSH1 0x0 DUP3 ADD MSTORE POP JUMP JUMPDEST PUSH1 0x0 PUSH2 0x263C PUSH1 0x15 DUP4 PUSH2 0x1D92 JUMP JUMPDEST SWAP2 POP PUSH2 0x2647 DUP3 PUSH2 0x2606 JUMP JUMPDEST PUSH1 0x20 DUP3 ADD SWAP1 POP SWAP2 SWAP1 POP JUMP JUMPDEST PUSH1 0x0 PUSH1 0x20 DUP3 ADD SWAP1 POP DUP2 DUP2 SUB PUSH1 0x0 DUP4 ADD MSTORE PUSH2 0x266B DUP2 PUSH2 0x262F JUMP JUMPDEST SWAP1 POP SWAP2 SWAP1 POP JUMP JUMPDEST PUSH32 0x496E636F727265637420457468657220616D6F756E7400000000000000000000 PUSH1 0x0 DUP3 ADD MSTORE POP JUMP JUMPDEST PUSH1 0x0 PUSH2 0x26A8 PUSH1 0x16 DUP4 PUSH2 0x1D92 JUMP JUMPDEST SWAP2 POP PUSH2 0x26B3 DUP3 PUSH2 0x2672 JUMP JUMPDEST PUSH1 0x20 DUP3 ADD SWAP1 POP SWAP2 SWAP1 POP JUMP JUMPDEST PUSH1 0x0 PUSH1 0x20 DUP3 ADD SWAP1 POP DUP2 DUP2 SUB PUSH1 0x0 DUP4 ADD MSTORE PUSH2 0x26D7 DUP2 PUSH2 0x269B JUMP JUMPDEST SWAP1 POP SWAP2 SWAP1 POP JUMP JUMPDEST PUSH32 0x4465706F73697420616D6F756E74206D75737420626520677265617465722074 PUSH1 0x0 DUP3 ADD MSTORE PUSH32 0x68616E207A65726F000000000000000000000000000000000000000000000000 PUSH1 0x20 DUP3 ADD MSTORE POP JUMP JUMPDEST PUSH1 0x0 PUSH2 0x273A PUSH1 0x28 DUP4 PUSH2 0x1D92 JUMP JUMPDEST SWAP2 POP PUSH2 0x2745 DUP3 PUSH2 0x26DE JUMP JUMPDEST PUSH1 0x40 DUP3 ADD SWAP1 POP SWAP2 SWAP1 POP JUMP JUMPDEST PUSH1 0x0 PUSH1 0x20 DUP3 ADD SWAP1 POP DUP2 DUP2 SUB PUSH1 0x0 DUP4 ADD MSTORE PUSH2 0x2769 DUP2 PUSH2 0x272D JUMP JUMPDEST SWAP1 POP SWAP2 SWAP1 POP JUMP JUMPDEST PUSH1 0x0 DUP2 SWAP1 POP SWAP2 SWAP1 POP JUMP JUMPDEST PUSH1 0x0 PUSH2 0x2795 PUSH2 0x2790 PUSH2 0x278B DUP5 PUSH2 0x2770 JUMP JUMPDEST PUSH2 0x1F84 JUMP JUMPDEST PUSH2 0x1FFE JUMP JUMPDEST SWAP1 POP SWAP2 SWAP1 POP JUMP JUMPDEST PUSH2 0x27A5 DUP2 PUSH2 0x277A JUMP JUMPDEST DUP3 MSTORE POP POP JUMP JUMPDEST PUSH1 0x0 PUSH1 0x20 DUP3 ADD SWAP1 POP PUSH2 0x27C0 PUSH1 0x0 DUP4 ADD DUP5 PUSH2 0x279C JUMP JUMPDEST SWAP3 SWAP2 POP POP JUMP JUMPDEST PUSH32 0x4E487B7100000000000000000000000000000000000000000000000000000000 PUSH1 0x0 MSTORE PUSH1 0x22 PUSH1 0x4 MSTORE PUSH1 0x24 PUSH1 0x0 REVERT JUMPDEST PUSH1 0x0 PUSH1 0x2 DUP3 DIV SWAP1 POP PUSH1 0x1 DUP3 AND DUP1 PUSH2 0x280D JUMPI PUSH1 0x7F DUP3 AND SWAP2 POP JUMPDEST PUSH1 0x20 DUP3 LT DUP2 SUB PUSH2 0x2820 JUMPI PUSH2 0x281F PUSH2 0x27C6 JUMP JUMPDEST JUMPDEST POP SWAP2 SWAP1 POP JUMP JUMPDEST PUSH1 0x0 DUP2 ISZERO ISZERO SWAP1 POP SWAP2 SWAP1 POP JUMP JUMPDEST PUSH2 0x283B DUP2 PUSH2 0x2826 JUMP JUMPDEST DUP2 EQ PUSH2 0x2846 JUMPI PUSH1 0x0 DUP1 REVERT JUMPDEST POP JUMP JUMPDEST PUSH1 0x0 DUP2 MLOAD SWAP1 POP PUSH2 0x2858 DUP2 PUSH2 0x2832 JUMP JUMPDEST SWAP3 SWAP2 POP POP JUMP JUMPDEST PUSH1 0x0 PUSH1 0x20 DUP3 DUP5 SUB SLT ISZERO PUSH2 0x2874 JUMPI PUSH2 0x2873 PUSH2 0x1E19 JUMP JUMPDEST JUMPDEST PUSH1 0x0 PUSH2 0x2882 DUP5 DUP3 DUP6 ADD PUSH2 0x2849 JUMP JUMPDEST SWAP2 POP POP SWAP3 SWAP2 POP POP JUMP JUMPDEST PUSH32 0x43616C6C6572206973206E6F7420616E2061646D696E00000000000000000000 PUSH1 0x0 DUP3 ADD MSTORE POP JUMP JUMPDEST PUSH1 0x0 PUSH2 0x28C1 PUSH1 0x16 DUP4 PUSH2 0x1D92 JUMP JUMPDEST SWAP2 POP PUSH2 0x28CC DUP3 PUSH2 0x288B JUMP JUMPDEST PUSH1 0x20 DUP3 ADD SWAP1 POP SWAP2 SWAP1 POP JUMP JUMPDEST PUSH1 0x0 PUSH1 0x20 DUP3 ADD SWAP1 POP DUP2 DUP2 SUB PUSH1 0x0 DUP4 ADD MSTORE PUSH2 0x28F0 DUP2 PUSH2 0x28B4 JUMP JUMPDEST SWAP1 POP SWAP2 SWAP1 POP JUMP JUMPDEST PUSH32 0x53746172742074696D65206D757374206265206265666F726520656E64207469 PUSH1 0x0 DUP3 ADD MSTORE PUSH32 0x6D65000000000000000000000000000000000000000000000000000000000000 PUSH1 0x20 DUP3 ADD MSTORE POP JUMP JUMPDEST PUSH1 0x0 PUSH2 0x2953 PUSH1 0x22 DUP4 PUSH2 0x1D92 JUMP JUMPDEST SWAP2 POP PUSH2 0x295E DUP3 PUSH2 0x28F7 JUMP JUMPDEST PUSH1 0x40 DUP3 ADD SWAP1 POP SWAP2 SWAP1 POP JUMP JUMPDEST PUSH1 0x0 PUSH1 0x20 DUP3 ADD SWAP1 POP DUP2 DUP2 SUB PUSH1 0x0 DUP4 ADD MSTORE PUSH2 0x2982 DUP2 PUSH2 0x2946 JUMP JUMPDEST SWAP1 POP SWAP2 SWAP1 POP JUMP JUMPDEST PUSH1 0x0 DUP2 SWAP1 POP DUP2 PUSH1 0x0 MSTORE PUSH1 0x20 PUSH1 0x0 KECCAK256 SWAP1 POP SWAP2 SWAP1 POP JUMP JUMPDEST PUSH1 0x0 PUSH1 0x20 PUSH1 0x1F DUP4 ADD DIV SWAP1 POP SWAP2 SWAP1 POP JUMP JUMPDEST PUSH1 0x0 DUP3 DUP3 SHL SWAP1 POP SWAP3 SWAP2 POP POP JUMP JUMPDEST PUSH1 0x0 PUSH1 0x8 DUP4 MUL PUSH2 0x29EB PUSH32 0xFFFFFFFFFFFFFFFFFFFFFFFFFFFFFFFFFFFFFFFFFFFFFFFFFFFFFFFFFFFFFFFF DUP3 PUSH2 0x29AE JUMP JUMPDEST PUSH2 0x29F5 DUP7 DUP4 PUSH2 0x29AE JUMP JUMPDEST SWAP6 POP DUP1 NOT DUP5 AND SWAP4 POP DUP1 DUP7 AND DUP5 OR SWAP3 POP POP POP SWAP4 SWAP3 POP POP POP JUMP JUMPDEST PUSH1 0x0 PUSH2 0x2A28 PUSH2 0x2A23 PUSH2 0x2A1E DUP5 PUSH2 0x1CFB JUMP JUMPDEST PUSH2 0x1F84 JUMP JUMPDEST PUSH2 0x1CFB JUMP JUMPDEST SWAP1 POP SWAP2 SWAP1 POP JUMP JUMPDEST PUSH1 0x0 DUP2 SWAP1 POP SWAP2 SWAP1 POP JUMP JUMPDEST PUSH2 0x2A42 DUP4 PUSH2 0x2A0D JUMP JUMPDEST PUSH2 0x2A56 PUSH2 0x2A4E DUP3 PUSH2 0x2A2F JUMP JUMPDEST DUP5 DUP5 SLOAD PUSH2 0x29BB JUMP JUMPDEST DUP3 SSTORE POP POP POP POP JUMP JUMPDEST PUSH1 0x0 SWAP1 JUMP JUMPDEST PUSH2 0x2A6B PUSH2 0x2A5E JUMP JUMPDEST PUSH2 0x2A76 DUP2 DUP5 DUP5 PUSH2 0x2A39 JUMP JUMPDEST POP POP POP JUMP JUMPDEST JUMPDEST DUP2 DUP2 LT ISZERO PUSH2 0x2A9A JUMPI PUSH2 0x2A8F PUSH1 0x0 DUP3 PUSH2 0x2A63 JUMP JUMPDEST PUSH1 0x1 DUP2 ADD SWAP1 POP PUSH2 0x2A7C JUMP JUMPDEST POP POP JUMP JUMPDEST PUSH1 0x1F DUP3 GT ISZERO PUSH2 0x2ADF JUMPI PUSH2 0x2AB0 DUP2 PUSH2 0x2989 JUMP JUMPDEST PUSH2 0x2AB9 DUP5 PUSH2 0x299E JUMP JUMPDEST DUP2 ADD PUSH1 0x20 DUP6 LT ISZERO PUSH2 0x2AC8 JUMPI DUP2 SWAP1 POP JUMPDEST PUSH2 0x2ADC PUSH2 0x2AD4 DUP6 PUSH2 0x299E JUMP JUMPDEST DUP4 ADD DUP3 PUSH2 0x2A7B JUMP JUMPDEST POP POP JUMPDEST POP POP POP JUMP JUMPDEST PUSH1 0x0 DUP3 DUP3 SHR SWAP1 POP SWAP3 SWAP2 POP POP JUMP JUMPDEST PUSH1 0x0 PUSH2 0x2B02 PUSH1 0x0 NOT DUP5 PUSH1 0x8 MUL PUSH2 0x2AE4 JUMP JUMPDEST NOT DUP1 DUP4 AND SWAP2 POP POP SWAP3 SWAP2 POP POP JUMP JUMPDEST PUSH1 0x0 PUSH2 0x2B1B DUP4 DUP4 PUSH2 0x2AF1 JUMP JUMPDEST SWAP2 POP DUP3 PUSH1 0x2 MUL DUP3 OR SWAP1 POP SWAP3 SWAP2 POP POP JUMP JUMPDEST PUSH2 0x2B34 DUP3 PUSH2 0x2021 JUMP JUMPDEST PUSH8 0xFFFFFFFFFFFFFFFF DUP2 GT ISZERO PUSH2 0x2B4D JUMPI PUSH2 0x2B4C PUSH2 0x2114 JUMP JUMPDEST JUMPDEST PUSH2 0x2B57 DUP3 SLOAD PUSH2 0x27F5 JUMP JUMPDEST PUSH2 0x2B62 DUP3 DUP3 DUP6 PUSH2 0x2A9E JUMP JUMPDEST PUSH1 0x0 PUSH1 0x20 SWAP1 POP PUSH1 0x1F DUP4 GT PUSH1 0x1 DUP2 EQ PUSH2 0x2B95 JUMPI PUSH1 0x0 DUP5 ISZERO PUSH2 0x2B83 JUMPI DUP3 DUP8 ADD MLOAD SWAP1 POP JUMPDEST PUSH2 0x2B8D DUP6 DUP3 PUSH2 0x2B0F JUMP JUMPDEST DUP7 SSTORE POP PUSH2 0x2BF5 JUMP JUMPDEST PUSH1 0x1F NOT DUP5 AND PUSH2 0x2BA3 DUP7 PUSH2 0x2989 JUMP JUMPDEST PUSH1 0x0 JUMPDEST DUP3 DUP2 LT ISZERO PUSH2 0x2BCB JUMPI DUP5 DUP10 ADD MLOAD DUP3 SSTORE PUSH1 0x1 DUP3 ADD SWAP2 POP PUSH1 0x20 DUP6 ADD SWAP5 POP PUSH1 0x20 DUP2 ADD SWAP1 POP PUSH2 0x2BA6 JUMP JUMPDEST DUP7 DUP4 LT ISZERO PUSH2 0x2BE8 JUMPI DUP5 DUP10 ADD MLOAD PUSH2 0x2BE4 PUSH1 0x1F DUP10 AND DUP3 PUSH2 0x2AF1 JUMP JUMPDEST DUP4 SSTORE POP JUMPDEST PUSH1 0x1 PUSH1 0x2 DUP9 MUL ADD DUP9 SSTORE POP POP POP JUMPDEST POP POP POP POP POP POP JUMP JUMPDEST PUSH1 0x0 PUSH1 0x60 DUP3 ADD SWAP1 POP PUSH2 0x2C12 PUSH1 0x0 DUP4 ADD DUP7 PUSH2 0x246E JUMP JUMPDEST PUSH2 0x2C1F PUSH1 0x20 DUP4 ADD DUP6 PUSH2 0x246E JUMP JUMPDEST DUP2 DUP2 SUB PUSH1 0x40 DUP4 ADD MSTORE PUSH2 0x2C31 DUP2 DUP5 PUSH2 0x2067 JUMP JUMPDEST SWAP1 POP SWAP5 SWAP4 POP POP POP POP JUMP JUMPDEST PUSH32 0x5A65726F20616464726573732075736572000000000000000000000000000000 PUSH1 0x0 DUP3 ADD MSTORE POP JUMP JUMPDEST PUSH1 0x0 PUSH2 0x2C71 PUSH1 0x11 DUP4 PUSH2 0x1D92 JUMP JUMPDEST SWAP2 POP PUSH2 0x2C7C DUP3 PUSH2 0x2C3B JUMP JUMPDEST PUSH1 0x20 DUP3 ADD SWAP1 POP SWAP2 SWAP1 POP JUMP JUMPDEST PUSH1 0x0 PUSH1 0x20 DUP3 ADD SWAP1 POP DUP2 DUP2 SUB PUSH1 0x0 DUP4 ADD MSTORE PUSH2 0x2CA0 DUP2 PUSH2 0x2C64 JUMP JUMPDEST SWAP1 POP SWAP2 SWAP1 POP JUMP JUMPDEST PUSH32 0x4D69736D617463686564206172726179206C656E677468730000000000000000 PUSH1 0x0 DUP3 ADD MSTORE POP JUMP JUMPDEST PUSH1 0x0 PUSH2 0x2CDD PUSH1 0x18 DUP4 PUSH2 0x1D92 JUMP JUMPDEST SWAP2 POP PUSH2 0x2CE8 DUP3 PUSH2 0x2CA7 JUMP JUMPDEST PUSH1 0x20 DUP3 ADD SWAP1 POP SWAP2 SWAP1 POP JUMP JUMPDEST PUSH1 0x0 PUSH1 0x20 DUP3 ADD SWAP1 POP DUP2 DUP2 SUB PUSH1 0x0 DUP4 ADD MSTORE PUSH2 0x2D0C DUP2 PUSH2 0x2CD0 JUMP JUMPDEST SWAP1 POP SWAP2 SWAP1 POP JUMP JUMPDEST PUSH32 0x4E487B7100000000000000000000000000000000000000000000000000000000 PUSH1 0x0 MSTORE PUSH1 0x32 PUSH1 0x4 MSTORE PUSH1 0x24 PUSH1 0x0 REVERT JUMPDEST PUSH32 0x5769746864726177616C20616D6F756E74206D75737420626520677265617465 PUSH1 0x0 DUP3 ADD MSTORE PUSH32 0x72207468616E207A65726F000000000000000000000000000000000000000000 PUSH1 0x20 DUP3 ADD MSTORE POP JUMP JUMPDEST PUSH1 0x0 PUSH2 0x2D9E PUSH1 0x2B DUP4 PUSH2 0x1D92 JUMP JUMPDEST SWAP2 POP PUSH2 0x2DA9 DUP3 PUSH2 0x2D42 JUMP JUMPDEST PUSH1 0x40 DUP3 ADD SWAP1 POP SWAP2 SWAP1 POP JUMP JUMPDEST PUSH1 0x0 PUSH1 0x20 DUP3 ADD SWAP1 POP DUP2 DUP2 SUB PUSH1 0x0 DUP4 ADD MSTORE PUSH2 0x2DCD DUP2 PUSH2 0x2D91 JUMP JUMPDEST SWAP1 POP SWAP2 SWAP1 POP JUMP JUMPDEST PUSH32 0x496E73756666696369656E742066756E64730000000000000000000000000000 PUSH1 0x0 DUP3 ADD MSTORE POP JUMP JUMPDEST PUSH1 0x0 PUSH2 0x2E0A PUSH1 0x12 DUP4 PUSH2 0x1D92 JUMP JUMPDEST SWAP2 POP PUSH2 0x2E15 DUP3 PUSH2 0x2DD4 JUMP JUMPDEST PUSH1 0x20 DUP3 ADD SWAP1 POP SWAP2 SWAP1 POP JUMP JUMPDEST PUSH1 0x0 PUSH1 0x20 DUP3 ADD SWAP1 POP DUP2 DUP2 SUB PUSH1 0x0 DUP4 ADD MSTORE PUSH2 0x2E39 DUP2 PUSH2 0x2DFD JUMP JUMPDEST SWAP1 POP SWAP2 SWAP1 POP JUMP JUMPDEST PUSH32 0x5265656E7472616E637947756172643A207265656E7472616E742063616C6C00 PUSH1 0x0 DUP3 ADD MSTORE POP JUMP JUMPDEST PUSH1 0x0 PUSH2 0x2E76 PUSH1 0x1F DUP4 PUSH2 0x1D92 JUMP JUMPDEST SWAP2 POP PUSH2 0x2E81 DUP3 PUSH2 0x2E40 JUMP JUMPDEST PUSH1 0x20 DUP3 ADD SWAP1 POP SWAP2 SWAP1 POP JUMP JUMPDEST PUSH1 0x0 PUSH1 0x20 DUP3 ADD SWAP1 POP DUP2 DUP2 SUB PUSH1 0x0 DUP4 ADD MSTORE PUSH2 0x2EA5 DUP2 PUSH2 0x2E69 JUMP JUMPDEST SWAP1 POP SWAP2 SWAP1 POP JUMP JUMPDEST PUSH1 0x0 PUSH1 0x40 DUP3 ADD SWAP1 POP PUSH2 0x2EC1 PUSH1 0x0 DUP4 ADD DUP6 PUSH2 0x1EAE JUMP JUMPDEST PUSH2 0x2ECE PUSH1 0x20 DUP4 ADD DUP5 PUSH2 0x1D68 JUMP JUMPDEST SWAP4 SWAP3 POP POP POP JUMP JUMPDEST PUSH1 0x0 PUSH1 0x60 DUP3 ADD SWAP1 POP PUSH2 0x2EEA PUSH1 0x0 DUP4 ADD DUP7 PUSH2 0x1EAE JUMP JUMPDEST PUSH2 0x2EF7 PUSH1 0x20 DUP4 ADD DUP6 PUSH2 0x1EAE JUMP JUMPDEST PUSH2 0x2F04 PUSH1 0x40 DUP4 ADD DUP5 PUSH2 0x1D68 JUMP JUMPDEST SWAP5 SWAP4 POP POP POP POP JUMP INVALID LOG2 PUSH5 0x6970667358 0x22 SLT KECCAK256 SWAP2 NOT PUSH16 0x9BBB7993E4F8222BB807BD2F78C7E974 TSTORE 0xE4 PC 0xF7 0x28 GASPRICE 0x21 0xCD GT 0xC8 PUSH22 0xD3FD64736F6C634300081C0033000000000000000000 "
				},
				"gasEstimates": {
					"creation": {
						"codeDepositCost": "2419600",
						"executionCost": "2605",
						"totalCost": "2422205"
					},
					"external": {
						"": "474",
						"NATIVE_TOKEN()": "424",
						"allowedAmounts(address,address)": "infinite",
						"bulkSetAllowedAmount(address,address[],uint256[])": "infinite",
						"claim(address)": "infinite",
						"currentRound()": "infinite",
						"deposit(address,uint256)": "infinite",
						"initialize(address,address)": "infinite",
						"owner()": "2599",
						"renounceOwnership()": "infinite",
						"scorer()": "infinite",
						"setAllowedAmount(address,address,uint256)": "infinite",
						"setRound(uint64,uint64,string)": "infinite",
						"totalBalances(address)": "2903",
						"transferOwnership(address)": "infinite",
						"withdraw(address,uint256)": "infinite"
					}
				},
				"methodIdentifiers": {
					"NATIVE_TOKEN()": "31f7d964",
					"allowedAmounts(address,address)": "a9590e8a",
					"bulkSetAllowedAmount(address,address[],uint256[])": "e3e7c1f9",
					"claim(address)": "1e83409a",
					"currentRound()": "8a19c8bc",
					"deposit(address,uint256)": "47e7ef24",
					"initialize(address,address)": "485cc955",
					"owner()": "8da5cb5b",
					"renounceOwnership()": "715018a6",
					"scorer()": "85c758f7",
					"setAllowedAmount(address,address,uint256)": "b807a3c4",
					"setRound(uint64,uint64,string)": "a9012c89",
					"totalBalances(address)": "aee9c872",
					"transferOwnership(address)": "f2fde38b",
					"withdraw(address,uint256)": "f3fef3a3"
				}
			},
			"storageLayout": {
				"storage": [
					{
						"astId": 463,
						"contract": "contracts/sweetspot.sol:sweetspot",
						"label": "_status",
						"offset": 0,
						"slot": "0",
						"type": "t_uint256"
					},
					{
						"astId": 532,
						"contract": "contracts/sweetspot.sol:sweetspot",
						"label": "__gap",
						"offset": 0,
						"slot": "1",
						"type": "t_array(t_uint256)49_storage"
					},
					{
						"astId": 1498,
						"contract": "contracts/sweetspot.sol:sweetspot",
						"label": "scorer",
						"offset": 0,
						"slot": "50",
						"type": "t_contract(IScorer)1472"
					},
					{
						"astId": 1508,
						"contract": "contracts/sweetspot.sol:sweetspot",
						"label": "currentRound",
						"offset": 0,
						"slot": "51",
						"type": "t_struct(Round)1505_storage"
					},
					{
						"astId": 1512,
						"contract": "contracts/sweetspot.sol:sweetspot",
						"label": "totalBalances",
						"offset": 0,
						"slot": "53",
						"type": "t_mapping(t_address,t_uint256)"
					},
					{
						"astId": 1518,
						"contract": "contracts/sweetspot.sol:sweetspot",
						"label": "allowedAmounts",
						"offset": 0,
						"slot": "54",
						"type": "t_mapping(t_address,t_mapping(t_address,t_uint256))"
					}
				],
				"types": {
					"t_address": {
						"encoding": "inplace",
						"label": "address",
						"numberOfBytes": "20"
					},
					"t_array(t_uint256)49_storage": {
						"base": "t_uint256",
						"encoding": "inplace",
						"label": "uint256[49]",
						"numberOfBytes": "1568"
					},
					"t_contract(IScorer)1472": {
						"encoding": "inplace",
						"label": "contract IScorer",
						"numberOfBytes": "20"
					},
					"t_mapping(t_address,t_mapping(t_address,t_uint256))": {
						"encoding": "mapping",
						"key": "t_address",
						"label": "mapping(address => mapping(address => uint256))",
						"numberOfBytes": "32",
						"value": "t_mapping(t_address,t_uint256)"
					},
					"t_mapping(t_address,t_uint256)": {
						"encoding": "mapping",
						"key": "t_address",
						"label": "mapping(address => uint256)",
						"numberOfBytes": "32",
						"value": "t_uint256"
					},
					"t_string_storage": {
						"encoding": "bytes",
						"label": "string",
						"numberOfBytes": "32"
					},
					"t_struct(Round)1505_storage": {
						"encoding": "inplace",
						"label": "struct sweetspot.Round",
						"members": [
							{
								"astId": 1500,
								"contract": "contracts/sweetspot.sol:sweetspot",
								"label": "start",
								"offset": 0,
								"slot": "0",
								"type": "t_uint64"
							},
							{
								"astId": 1502,
								"contract": "contracts/sweetspot.sol:sweetspot",
								"label": "end",
								"offset": 8,
								"slot": "0",
								"type": "t_uint64"
							},
							{
								"astId": 1504,
								"contract": "contracts/sweetspot.sol:sweetspot",
								"label": "metadataURI",
								"offset": 0,
								"slot": "1",
								"type": "t_string_storage"
							}
						],
						"numberOfBytes": "64"
					},
					"t_uint256": {
						"encoding": "inplace",
						"label": "uint256",
						"numberOfBytes": "32"
					},
					"t_uint64": {
						"encoding": "inplace",
						"label": "uint64",
						"numberOfBytes": "8"
					}
				}
			},
			"userdoc": {
				"kind": "user",
				"methods": {
					"bulkSetAllowedAmount(address,address[],uint256[])": {
						"notice": "Sets the allowed amount for multiple users for a given token in one call."
					},
					"claim(address)": {
						"notice": "Claims the full allowed amount for a user during the round."
					},
					"deposit(address,uint256)": {
						"notice": "Deposits funds into this jar for a specific token or Ether."
					},
					"initialize(address,address)": {
						"notice": "Initializes this contract with its initial state."
					},
					"setAllowedAmount(address,address,uint256)": {
						"notice": "Sets the allowed amount for a specific user and token."
					},
					"setRound(uint64,uint64,string)": {
						"notice": "Sets the round duration and metadata URI."
					},
					"withdraw(address,uint256)": {
						"notice": "Withdraws funds from the jar for a specific token or Ether."
					}
				},
				"version": 1
			}
		}
	}
}