{
	"contracts/scorer.sol": {
		"Scorer": {
			"abi": [
				{
					"inputs": [],
					"name": "AccessControlBadConfirmation",
					"type": "error"
				},
				{
					"inputs": [
						{
							"internalType": "address",
							"name": "account",
							"type": "address"
						},
						{
							"internalType": "bytes32",
							"name": "neededRole",
							"type": "bytes32"
						}
					],
					"name": "AccessControlUnauthorizedAccount",
					"type": "error"
				},
				{
					"inputs": [],
					"name": "InvalidInitialization",
					"type": "error"
				},
				{
					"inputs": [],
					"name": "NotInitializing",
					"type": "error"
				},
				{
					"inputs": [
						{
							"internalType": "address",
							"name": "owner",
							"type": "address"
						}
					],
					"name": "OwnableInvalidOwner",
					"type": "error"
				},
				{
					"inputs": [
						{
							"internalType": "address",
							"name": "account",
							"type": "address"
						}
					],
					"name": "OwnableUnauthorizedAccount",
					"type": "error"
				},
				{
					"anonymous": false,
					"inputs": [
						{
							"indexed": true,
							"internalType": "address",
							"name": "admin",
							"type": "address"
						}
					],
					"name": "AdminAdded",
					"type": "event"
				},
				{
					"anonymous": false,
					"inputs": [
						{
							"indexed": true,
							"internalType": "address",
							"name": "admin",
							"type": "address"
						}
					],
					"name": "AdminRemoved",
					"type": "event"
				},
				{
					"anonymous": false,
					"inputs": [
						{
							"indexed": false,
							"internalType": "uint64",
							"name": "version",
							"type": "uint64"
						}
					],
					"name": "Initialized",
					"type": "event"
				},
				{
					"anonymous": false,
					"inputs": [
						{
							"indexed": true,
							"internalType": "address",
							"name": "previousOwner",
							"type": "address"
						},
						{
							"indexed": true,
							"internalType": "address",
							"name": "newOwner",
							"type": "address"
						}
					],
					"name": "OwnershipTransferred",
					"type": "event"
				},
				{
					"anonymous": false,
					"inputs": [
						{
							"indexed": true,
							"internalType": "bytes32",
							"name": "role",
							"type": "bytes32"
						},
						{
							"indexed": true,
							"internalType": "bytes32",
							"name": "previousAdminRole",
							"type": "bytes32"
						},
						{
							"indexed": true,
							"internalType": "bytes32",
							"name": "newAdminRole",
							"type": "bytes32"
						}
					],
					"name": "RoleAdminChanged",
					"type": "event"
				},
				{
					"anonymous": false,
					"inputs": [
						{
							"indexed": true,
							"internalType": "bytes32",
							"name": "role",
							"type": "bytes32"
						},
						{
							"indexed": true,
							"internalType": "address",
							"name": "account",
							"type": "address"
						},
						{
							"indexed": true,
							"internalType": "address",
							"name": "sender",
							"type": "address"
						}
					],
					"name": "RoleGranted",
					"type": "event"
				},
				{
					"anonymous": false,
					"inputs": [
						{
							"indexed": true,
							"internalType": "bytes32",
							"name": "role",
							"type": "bytes32"
						},
						{
							"indexed": true,
							"internalType": "address",
							"name": "account",
							"type": "address"
						},
						{
							"indexed": true,
							"internalType": "address",
							"name": "sender",
							"type": "address"
						}
					],
					"name": "RoleRevoked",
					"type": "event"
				},
				{
					"anonymous": false,
					"inputs": [
						{
							"indexed": false,
							"internalType": "string",
							"name": "scoreType",
							"type": "string"
						}
					],
					"name": "ScoreTypeAdded",
					"type": "event"
				},
				{
					"anonymous": false,
					"inputs": [
						{
							"indexed": false,
							"internalType": "string",
							"name": "scoreType",
							"type": "string"
						}
					],
					"name": "ScoreTypeRemoved",
					"type": "event"
				},
				{
					"anonymous": false,
					"inputs": [
						{
							"indexed": true,
							"internalType": "address",
							"name": "user",
							"type": "address"
						},
						{
							"indexed": false,
							"internalType": "string",
							"name": "scoreType",
							"type": "string"
						},
						{
							"indexed": false,
							"internalType": "uint256",
							"name": "newScore",
							"type": "uint256"
						},
						{
							"indexed": false,
							"internalType": "uint256",
							"name": "oldScore",
							"type": "uint256"
						}
					],
					"name": "ScoreUpdated",
					"type": "event"
				},
				{
					"inputs": [],
					"name": "ADMIN_ROLE",
					"outputs": [
						{
							"internalType": "bytes32",
							"name": "",
							"type": "bytes32"
						}
					],
					"stateMutability": "view",
					"type": "function"
				},
				{
					"inputs": [],
					"name": "DEFAULT_ADMIN_ROLE",
					"outputs": [
						{
							"internalType": "bytes32",
							"name": "",
							"type": "bytes32"
						}
					],
					"stateMutability": "view",
					"type": "function"
				},
				{
					"inputs": [
						{
							"internalType": "address",
							"name": "admin",
							"type": "address"
						}
					],
					"name": "addAdmin",
					"outputs": [],
					"stateMutability": "nonpayable",
					"type": "function"
				},
				{
					"inputs": [
						{
							"internalType": "string",
							"name": "scoreType",
							"type": "string"
						}
					],
					"name": "addScoreType",
					"outputs": [],
					"stateMutability": "nonpayable",
					"type": "function"
				},
				{
					"inputs": [
						{
							"internalType": "bytes32",
							"name": "role",
							"type": "bytes32"
						}
					],
					"name": "getRoleAdmin",
					"outputs": [
						{
							"internalType": "bytes32",
							"name": "",
							"type": "bytes32"
						}
					],
					"stateMutability": "view",
					"type": "function"
				},
				{
					"inputs": [
						{
							"internalType": "bytes32",
							"name": "role",
							"type": "bytes32"
						},
						{
							"internalType": "address",
							"name": "account",
							"type": "address"
						}
					],
					"name": "grantRole",
					"outputs": [],
					"stateMutability": "nonpayable",
					"type": "function"
				},
				{
					"inputs": [
						{
							"internalType": "bytes32",
							"name": "role",
							"type": "bytes32"
						},
						{
							"internalType": "address",
							"name": "account",
							"type": "address"
						}
					],
					"name": "hasRole",
					"outputs": [
						{
							"internalType": "bool",
							"name": "",
							"type": "bool"
						}
					],
					"stateMutability": "view",
					"type": "function"
				},
				{
					"inputs": [
						{
							"internalType": "address",
							"name": "owner",
							"type": "address"
						}
					],
					"name": "initialize",
					"outputs": [],
					"stateMutability": "nonpayable",
					"type": "function"
				},
				{
					"inputs": [
						{
							"internalType": "address",
							"name": "admin",
							"type": "address"
						}
					],
					"name": "isAdmin",
					"outputs": [
						{
							"internalType": "bool",
							"name": "",
							"type": "bool"
						}
					],
					"stateMutability": "view",
					"type": "function"
				},
				{
					"inputs": [],
					"name": "owner",
					"outputs": [
						{
							"internalType": "address",
							"name": "",
							"type": "address"
						}
					],
					"stateMutability": "view",
					"type": "function"
				},
				{
					"inputs": [
						{
							"internalType": "address",
							"name": "admin",
							"type": "address"
						}
					],
					"name": "removeAdmin",
					"outputs": [],
					"stateMutability": "nonpayable",
					"type": "function"
				},
				{
					"inputs": [
						{
							"internalType": "string",
							"name": "scoreType",
							"type": "string"
						}
					],
					"name": "removeScoreType",
					"outputs": [],
					"stateMutability": "nonpayable",
					"type": "function"
				},
				{
					"inputs": [],
					"name": "renounceOwnership",
					"outputs": [],
					"stateMutability": "nonpayable",
					"type": "function"
				},
				{
					"inputs": [
						{
							"internalType": "bytes32",
							"name": "role",
							"type": "bytes32"
						},
						{
							"internalType": "address",
							"name": "callerConfirmation",
							"type": "address"
						}
					],
					"name": "renounceRole",
					"outputs": [],
					"stateMutability": "nonpayable",
					"type": "function"
				},
				{
					"inputs": [
						{
							"internalType": "bytes32",
							"name": "role",
							"type": "bytes32"
						},
						{
							"internalType": "address",
							"name": "account",
							"type": "address"
						}
					],
					"name": "revokeRole",
					"outputs": [],
					"stateMutability": "nonpayable",
					"type": "function"
				},
				{
					"inputs": [
						{
							"internalType": "address",
							"name": "user",
							"type": "address"
						},
						{
							"internalType": "string",
							"name": "scoreType",
							"type": "string"
						}
					],
					"name": "score",
					"outputs": [
						{
							"internalType": "uint256",
							"name": "",
							"type": "uint256"
						}
					],
					"stateMutability": "view",
					"type": "function"
				},
				{
					"inputs": [
						{
							"internalType": "uint256",
							"name": "",
							"type": "uint256"
						}
					],
					"name": "scoreTypes",
					"outputs": [
						{
							"internalType": "string",
							"name": "",
							"type": "string"
						}
					],
					"stateMutability": "view",
					"type": "function"
				},
				{
					"inputs": [
						{
							"internalType": "address",
							"name": "user",
							"type": "address"
						},
						{
							"internalType": "string",
							"name": "scoreType",
							"type": "string"
						},
						{
							"internalType": "uint256",
							"name": "newScore",
							"type": "uint256"
						}
					],
					"name": "setScore",
					"outputs": [],
					"stateMutability": "nonpayable",
					"type": "function"
				},
				{
					"inputs": [
						{
							"internalType": "bytes4",
							"name": "interfaceId",
							"type": "bytes4"
						}
					],
					"name": "supportsInterface",
					"outputs": [
						{
							"internalType": "bool",
							"name": "",
							"type": "bool"
						}
					],
					"stateMutability": "view",
					"type": "function"
				},
				{
					"inputs": [
						{
							"internalType": "address",
							"name": "newOwner",
							"type": "address"
						}
					],
					"name": "transferOwnership",
					"outputs": [],
					"stateMutability": "nonpayable",
					"type": "function"
				}
			],
			"devdoc": {
				"errors": {
					"AccessControlBadConfirmation()": [
						{
							"details": "The caller of a function is not the expected one. NOTE: Don't confuse with {AccessControlUnauthorizedAccount}."
						}
					],
					"AccessControlUnauthorizedAccount(address,bytes32)": [
						{
							"details": "The `account` is missing a role."
						}
					],
					"InvalidInitialization()": [
						{
							"details": "The contract is already initialized."
						}
					],
					"NotInitializing()": [
						{
							"details": "The contract is not initializing."
						}
					],
					"OwnableInvalidOwner(address)": [
						{
							"details": "The owner is not a valid owner account. (eg. `address(0)`)"
						}
					],
					"OwnableUnauthorizedAccount(address)": [
						{
							"details": "The caller account is not authorized to perform an operation."
						}
					]
				},
				"events": {
					"Initialized(uint64)": {
						"details": "Triggered when the contract has been initialized or reinitialized."
					},
					"RoleAdminChanged(bytes32,bytes32,bytes32)": {
						"details": "Emitted when `newAdminRole` is set as ``role``'s admin role, replacing `previousAdminRole` `DEFAULT_ADMIN_ROLE` is the starting admin for all roles, despite {RoleAdminChanged} not being emitted signaling this."
					},
					"RoleGranted(bytes32,address,address)": {
						"details": "Emitted when `account` is granted `role`. `sender` is the account that originated the contract call. This account bears the admin role (for the granted role). Expected in cases where the role was granted using the internal {AccessControl-_grantRole}."
					},
					"RoleRevoked(bytes32,address,address)": {
						"details": "Emitted when `account` is revoked `role`. `sender` is the account that originated the contract call:   - if using `revokeRole`, it is the admin role bearer   - if using `renounceRole`, it is the role bearer (i.e. `account`)"
					}
				},
				"kind": "dev",
				"methods": {
					"addScoreType(string)": {
						"params": {
							"scoreType": "The name of the score type to add."
						}
					},
					"getRoleAdmin(bytes32)": {
						"details": "Returns the admin role that controls `role`. See {grantRole} and {revokeRole}. To change a role's admin, use {_setRoleAdmin}."
					},
					"grantRole(bytes32,address)": {
						"details": "Grants `role` to `account`. If `account` had not been already granted `role`, emits a {RoleGranted} event. Requirements: - the caller must have ``role``'s admin role. May emit a {RoleGranted} event."
					},
					"hasRole(bytes32,address)": {
						"details": "Returns `true` if `account` has been granted `role`."
					},
					"initialize(address)": {
						"params": {
							"owner": "The owner address."
						}
					},
					"owner()": {
						"details": "Returns the address of the current owner."
					},
					"removeScoreType(string)": {
						"params": {
							"scoreType": "The name of the score type to remove."
						}
					},
					"renounceOwnership()": {
						"details": "Leaves the contract without owner. It will not be possible to call `onlyOwner` functions. Can only be called by the current owner. NOTE: Renouncing ownership will leave the contract without an owner, thereby disabling any functionality that is only available to the owner."
					},
					"renounceRole(bytes32,address)": {
						"details": "Revokes `role` from the calling account. Roles are often managed via {grantRole} and {revokeRole}: this function's purpose is to provide a mechanism for accounts to lose their privileges if they are compromised (such as when a trusted device is misplaced). If the calling account had been revoked `role`, emits a {RoleRevoked} event. Requirements: - the caller must be `callerConfirmation`. May emit a {RoleRevoked} event."
					},
					"revokeRole(bytes32,address)": {
						"details": "Revokes `role` from `account`. If `account` had been granted `role`, emits a {RoleRevoked} event. Requirements: - the caller must have ``role``'s admin role. May emit a {RoleRevoked} event."
					},
					"score(address,string)": {
						"params": {
							"scoreType": "The type of the score.",
							"user": "The address of the user."
						},
						"returns": {
							"_0": "The score value for the user and type."
						}
					},
					"setScore(address,string,uint256)": {
						"params": {
							"newScore": "The new score value.",
							"scoreType": "The type of the score.",
							"user": "The address of the user."
						}
					},
					"supportsInterface(bytes4)": {
						"details": "See {IERC165-supportsInterface}."
					},
					"transferOwnership(address)": {
						"details": "Transfers ownership of the contract to a new account (`newOwner`). Can only be called by the current owner."
					}
				},
				"version": 1
			},
			"evm": {
				"assembly": "    /* \"contracts/scorer.sol\":251:3369  contract Scorer is OwnableUpgradeable, AccessControlUpgradeable {... */\n  mstore(0x40, 0x80)\n  callvalue\n  dup1\n  iszero\n  tag_1\n  jumpi\n  0x00\n  dup1\n  revert\ntag_1:\n  pop\n  dataSize(sub_0)\n  dup1\n  dataOffset(sub_0)\n  0x00\n  codecopy\n  0x00\n  return\nstop\n\nsub_0: assembly {\n        /* \"contracts/scorer.sol\":251:3369  contract Scorer is OwnableUpgradeable, AccessControlUpgradeable {... */\n      mstore(0x40, 0x80)\n      callvalue\n      dup1\n      iszero\n      tag_1\n      jumpi\n      0x00\n      dup1\n      revert\n    tag_1:\n      pop\n      jumpi(tag_2, lt(calldatasize, 0x04))\n      shr(0xe0, calldataload(0x00))\n      dup1\n      0x8da5cb5b\n      gt\n      tag_23\n      jumpi\n      dup1\n      0xc9a4909c\n      gt\n      tag_24\n      jumpi\n      dup1\n      0xc9a4909c\n      eq\n      tag_18\n      jumpi\n      dup1\n      0xd2a8e163\n      eq\n      tag_19\n      jumpi\n      dup1\n      0xd547741f\n      eq\n      tag_20\n      jumpi\n      dup1\n      0xdb4f1024\n      eq\n      tag_21\n      jumpi\n      dup1\n      0xf2fde38b\n      eq\n      tag_22\n      jumpi\n      jump(tag_2)\n    tag_24:\n      dup1\n      0x8da5cb5b\n      eq\n      tag_13\n      jumpi\n      dup1\n      0x91d14854\n      eq\n      tag_14\n      jumpi\n      dup1\n      0xa217fddf\n      eq\n      tag_15\n      jumpi\n      dup1\n      0xa34f0e28\n      eq\n      tag_16\n      jumpi\n      dup1\n      0xc4d66de8\n      eq\n      tag_17\n      jumpi\n      jump(tag_2)\n    tag_23:\n      dup1\n      0x3058856a\n      gt\n      tag_25\n      jumpi\n      dup1\n      0x3058856a\n      eq\n      tag_8\n      jumpi\n      dup1\n      0x36568abe\n      eq\n      tag_9\n      jumpi\n      dup1\n      0x70480275\n      eq\n      tag_10\n      jumpi\n      dup1\n      0x715018a6\n      eq\n      tag_11\n      jumpi\n      dup1\n      0x75b238fc\n      eq\n      tag_12\n      jumpi\n      jump(tag_2)\n    tag_25:\n      dup1\n      0x01ffc9a7\n      eq\n      tag_3\n      jumpi\n      dup1\n      0x1785f53c\n      eq\n      tag_4\n      jumpi\n      dup1\n      0x248a9ca3\n      eq\n      tag_5\n      jumpi\n      dup1\n      0x24d7806c\n      eq\n      tag_6\n      jumpi\n      dup1\n      0x2f2ff15d\n      eq\n      tag_7\n      jumpi\n    tag_2:\n      0x00\n      dup1\n      revert\n        /* \"@openzeppelin/contracts-upgradeable/access/AccessControlUpgradeable.sol\":3443:3645  function supportsInterface(bytes4 interfaceId) public view virtual override returns (bool) {... */\n    tag_3:\n      tag_26\n      0x04\n      dup1\n      calldatasize\n      sub\n      dup2\n      add\n      swap1\n      tag_27\n      swap2\n      swap1\n      tag_28\n      jump\t// in\n    tag_27:\n      tag_29\n      jump\t// in\n    tag_26:\n      mload(0x40)\n      tag_30\n      swap2\n      swap1\n      tag_31\n      jump\t// in\n    tag_30:\n      mload(0x40)\n      dup1\n      swap2\n      sub\n      swap1\n      return\n        /* \"contracts/scorer.sol\":3115:3250  function removeAdmin(address admin) external onlyOwner {... */\n    tag_4:\n      tag_32\n      0x04\n      dup1\n      calldatasize\n      sub\n      dup2\n      add\n      swap1\n      tag_33\n      swap2\n      swap1\n      tag_34\n      jump\t// in\n    tag_33:\n      tag_35\n      jump\t// in\n    tag_32:\n      stop\n        /* \"@openzeppelin/contracts-upgradeable/access/AccessControlUpgradeable.sol\":4759:4950  function getRoleAdmin(bytes32 role) public view virtual returns (bytes32) {... */\n    tag_5:\n      tag_36\n      0x04\n      dup1\n      calldatasize\n      sub\n      dup2\n      add\n      swap1\n      tag_37\n      swap2\n      swap1\n      tag_38\n      jump\t// in\n    tag_37:\n      tag_39\n      jump\t// in\n    tag_36:\n      mload(0x40)\n      tag_40\n      swap2\n      swap1\n      tag_41\n      jump\t// in\n    tag_40:\n      mload(0x40)\n      dup1\n      swap2\n      sub\n      swap1\n      return\n        /* \"contracts/scorer.sol\":3256:3367  function isAdmin(address admin) external view returns (bool) {... */\n    tag_6:\n      tag_42\n      0x04\n      dup1\n      calldatasize\n      sub\n      dup2\n      add\n      swap1\n      tag_43\n      swap2\n      swap1\n      tag_34\n      jump\t// in\n    tag_43:\n      tag_44\n      jump\t// in\n    tag_42:\n      mload(0x40)\n      tag_45\n      swap2\n      swap1\n      tag_31\n      jump\t// in\n    tag_45:\n      mload(0x40)\n      dup1\n      swap2\n      sub\n      swap1\n      return\n        /* \"@openzeppelin/contracts-upgradeable/access/AccessControlUpgradeable.sol\":5246:5382  function grantRole(bytes32 role, address account) public virtual onlyRole(getRoleAdmin(role)) {... */\n    tag_7:\n      tag_46\n      0x04\n      dup1\n      calldatasize\n      sub\n      dup2\n      add\n      swap1\n      tag_47\n      swap2\n      swap1\n      tag_48\n      jump\t// in\n    tag_47:\n      tag_49\n      jump\t// in\n    tag_46:\n      stop\n        /* \"contracts/scorer.sol\":2258:2583  function setScore(... */\n    tag_8:\n      tag_50\n      0x04\n      dup1\n      calldatasize\n      sub\n      dup2\n      add\n      swap1\n      tag_51\n      swap2\n      swap1\n      tag_52\n      jump\t// in\n    tag_51:\n      tag_53\n      jump\t// in\n    tag_50:\n      stop\n        /* \"@openzeppelin/contracts-upgradeable/access/AccessControlUpgradeable.sol\":6348:6593  function renounceRole(bytes32 role, address callerConfirmation) public virtual {... */\n    tag_9:\n      tag_54\n      0x04\n      dup1\n      calldatasize\n      sub\n      dup2\n      add\n      swap1\n      tag_55\n      swap2\n      swap1\n      tag_48\n      jump\t// in\n    tag_55:\n      tag_56\n      jump\t// in\n    tag_54:\n      stop\n        /* \"contracts/scorer.sol\":2980:3109  function addAdmin(address admin) external onlyOwner {... */\n    tag_10:\n      tag_57\n      0x04\n      dup1\n      calldatasize\n      sub\n      dup2\n      add\n      swap1\n      tag_58\n      swap2\n      swap1\n      tag_34\n      jump\t// in\n    tag_58:\n      tag_59\n      jump\t// in\n    tag_57:\n      stop\n        /* \"@openzeppelin/contracts-upgradeable/access/OwnableUpgradeable.sol\":3155:3256  function renounceOwnership() public virtual onlyOwner {... */\n    tag_11:\n      tag_60\n      tag_61\n      jump\t// in\n    tag_60:\n      stop\n        /* \"contracts/scorer.sol\":321:381  bytes32 public constant ADMIN_ROLE = keccak256(\"ADMIN_ROLE\") */\n    tag_12:\n      tag_62\n      tag_63\n      jump\t// in\n    tag_62:\n      mload(0x40)\n      tag_64\n      swap2\n      swap1\n      tag_41\n      jump\t// in\n    tag_64:\n      mload(0x40)\n      dup1\n      swap2\n      sub\n      swap1\n      return\n        /* \"@openzeppelin/contracts-upgradeable/access/OwnableUpgradeable.sol\":2441:2585  function owner() public view virtual returns (address) {... */\n    tag_13:\n      tag_65\n      tag_66\n      jump\t// in\n    tag_65:\n      mload(0x40)\n      tag_67\n      swap2\n      swap1\n      tag_68\n      jump\t// in\n    tag_67:\n      mload(0x40)\n      dup1\n      swap2\n      sub\n      swap1\n      return\n        /* \"@openzeppelin/contracts-upgradeable/access/AccessControlUpgradeable.sol\":3732:3939  function hasRole(bytes32 role, address account) public view virtual returns (bool) {... */\n    tag_14:\n      tag_69\n      0x04\n      dup1\n      calldatasize\n      sub\n      dup2\n      add\n      swap1\n      tag_70\n      swap2\n      swap1\n      tag_48\n      jump\t// in\n    tag_70:\n      tag_71\n      jump\t// in\n    tag_69:\n      mload(0x40)\n      tag_72\n      swap2\n      swap1\n      tag_31\n      jump\t// in\n    tag_72:\n      mload(0x40)\n      dup1\n      swap2\n      sub\n      swap1\n      return\n        /* \"@openzeppelin/contracts-upgradeable/access/AccessControlUpgradeable.sol\":2317:2366  bytes32 public constant DEFAULT_ADMIN_ROLE = 0x00 */\n    tag_15:\n      tag_73\n      tag_74\n      jump\t// in\n    tag_73:\n      mload(0x40)\n      tag_75\n      swap2\n      swap1\n      tag_41\n      jump\t// in\n    tag_75:\n      mload(0x40)\n      dup1\n      swap2\n      sub\n      swap1\n      return\n        /* \"contracts/scorer.sol\":1544:2045  function removeScoreType(string memory scoreType) external onlyOwner {... */\n    tag_16:\n      tag_76\n      0x04\n      dup1\n      calldatasize\n      sub\n      dup2\n      add\n      swap1\n      tag_77\n      swap2\n      swap1\n      tag_78\n      jump\t// in\n    tag_77:\n      tag_79\n      jump\t// in\n    tag_76:\n      stop\n        /* \"contracts/scorer.sol\":944:1157  function initialize(address owner) external initializer {... */\n    tag_17:\n      tag_80\n      0x04\n      dup1\n      calldatasize\n      sub\n      dup2\n      add\n      swap1\n      tag_81\n      swap2\n      swap1\n      tag_34\n      jump\t// in\n    tag_81:\n      tag_82\n      jump\t// in\n    tag_80:\n      stop\n        /* \"contracts/scorer.sol\":1270:1419  function addScoreType(string memory scoreType) external onlyOwner {... */\n    tag_18:\n      tag_83\n      0x04\n      dup1\n      calldatasize\n      sub\n      dup2\n      add\n      swap1\n      tag_84\n      swap2\n      swap1\n      tag_78\n      jump\t// in\n    tag_84:\n      tag_85\n      jump\t// in\n    tag_83:\n      stop\n        /* \"contracts/scorer.sol\":479:505  string[] public scoreTypes */\n    tag_19:\n      tag_86\n      0x04\n      dup1\n      calldatasize\n      sub\n      dup2\n      add\n      swap1\n      tag_87\n      swap2\n      swap1\n      tag_88\n      jump\t// in\n    tag_87:\n      tag_89\n      jump\t// in\n    tag_86:\n      mload(0x40)\n      tag_90\n      swap2\n      swap1\n      tag_91\n      jump\t// in\n    tag_90:\n      mload(0x40)\n      dup1\n      swap2\n      sub\n      swap1\n      return\n        /* \"@openzeppelin/contracts-upgradeable/access/AccessControlUpgradeable.sol\":5662:5800  function revokeRole(bytes32 role, address account) public virtual onlyRole(getRoleAdmin(role)) {... */\n    tag_20:\n      tag_92\n      0x04\n      dup1\n      calldatasize\n      sub\n      dup2\n      add\n      swap1\n      tag_93\n      swap2\n      swap1\n      tag_48\n      jump\t// in\n    tag_93:\n      tag_94\n      jump\t// in\n    tag_92:\n      stop\n        /* \"contracts/scorer.sol\":2818:2974  function score(... */\n    tag_21:\n      tag_95\n      0x04\n      dup1\n      calldatasize\n      sub\n      dup2\n      add\n      swap1\n      tag_96\n      swap2\n      swap1\n      tag_97\n      jump\t// in\n    tag_96:\n      tag_98\n      jump\t// in\n    tag_95:\n      mload(0x40)\n      tag_99\n      swap2\n      swap1\n      tag_100\n      jump\t// in\n    tag_99:\n      mload(0x40)\n      dup1\n      swap2\n      sub\n      swap1\n      return\n        /* \"@openzeppelin/contracts-upgradeable/access/OwnableUpgradeable.sol\":3405:3620  function transferOwnership(address newOwner) public virtual onlyOwner {... */\n    tag_22:\n      tag_101\n      0x04\n      dup1\n      calldatasize\n      sub\n      dup2\n      add\n      swap1\n      tag_102\n      swap2\n      swap1\n      tag_34\n      jump\t// in\n    tag_102:\n      tag_103\n      jump\t// in\n    tag_101:\n      stop\n        /* \"@openzeppelin/contracts-upgradeable/access/AccessControlUpgradeable.sol\":3443:3645  function supportsInterface(bytes4 interfaceId) public view virtual override returns (bool) {... */\n    tag_29:\n        /* \"@openzeppelin/contracts-upgradeable/access/AccessControlUpgradeable.sol\":3528:3532  bool */\n      0x00\n        /* \"@openzeppelin/contracts-upgradeable/access/AccessControlUpgradeable.sol\":3566:3598  type(IAccessControl).interfaceId */\n      0x7965db0b00000000000000000000000000000000000000000000000000000000\n        /* \"@openzeppelin/contracts-upgradeable/access/AccessControlUpgradeable.sol\":3551:3598  interfaceId == type(IAccessControl).interfaceId */\n      not(0xffffffffffffffffffffffffffffffffffffffffffffffffffffffff)\n      and\n        /* \"@openzeppelin/contracts-upgradeable/access/AccessControlUpgradeable.sol\":3551:3562  interfaceId */\n      dup3\n        /* \"@openzeppelin/contracts-upgradeable/access/AccessControlUpgradeable.sol\":3551:3598  interfaceId == type(IAccessControl).interfaceId */\n      not(0xffffffffffffffffffffffffffffffffffffffffffffffffffffffff)\n      and\n      eq\n        /* \"@openzeppelin/contracts-upgradeable/access/AccessControlUpgradeable.sol\":3551:3638  interfaceId == type(IAccessControl).interfaceId || super.supportsInterface(interfaceId) */\n      dup1\n      tag_105\n      jumpi\n      pop\n        /* \"@openzeppelin/contracts-upgradeable/access/AccessControlUpgradeable.sol\":3602:3638  super.supportsInterface(interfaceId) */\n      tag_106\n        /* \"@openzeppelin/contracts-upgradeable/access/AccessControlUpgradeable.sol\":3626:3637  interfaceId */\n      dup3\n        /* \"@openzeppelin/contracts-upgradeable/access/AccessControlUpgradeable.sol\":3602:3625  super.supportsInterface */\n      tag_107\n        /* \"@openzeppelin/contracts-upgradeable/access/AccessControlUpgradeable.sol\":3602:3638  super.supportsInterface(interfaceId) */\n      jump\t// in\n    tag_106:\n        /* \"@openzeppelin/contracts-upgradeable/access/AccessControlUpgradeable.sol\":3551:3638  interfaceId == type(IAccessControl).interfaceId || super.supportsInterface(interfaceId) */\n    tag_105:\n        /* \"@openzeppelin/contracts-upgradeable/access/AccessControlUpgradeable.sol\":3544:3638  return interfaceId == type(IAccessControl).interfaceId || super.supportsInterface(interfaceId) */\n      swap1\n      pop\n        /* \"@openzeppelin/contracts-upgradeable/access/AccessControlUpgradeable.sol\":3443:3645  function supportsInterface(bytes4 interfaceId) public view virtual override returns (bool) {... */\n      swap2\n      swap1\n      pop\n      jump\t// out\n        /* \"contracts/scorer.sol\":3115:3250  function removeAdmin(address admin) external onlyOwner {... */\n    tag_35:\n        /* \"@openzeppelin/contracts-upgradeable/access/OwnableUpgradeable.sol\":2334:2347  _checkOwner() */\n      tag_109\n        /* \"@openzeppelin/contracts-upgradeable/access/OwnableUpgradeable.sol\":2334:2345  _checkOwner */\n      tag_110\n        /* \"@openzeppelin/contracts-upgradeable/access/OwnableUpgradeable.sol\":2334:2347  _checkOwner() */\n      jump\t// in\n    tag_109:\n        /* \"contracts/scorer.sol\":3180:3209  revokeRole(ADMIN_ROLE, admin) */\n      tag_112\n        /* \"contracts/scorer.sol\":358:381  keccak256(\"ADMIN_ROLE\") */\n      0xa49807205ce4d355092ef5a8a18f56e8913cf4a201fbe287825b095693c21775\n        /* \"contracts/scorer.sol\":3203:3208  admin */\n      dup3\n        /* \"contracts/scorer.sol\":3180:3190  revokeRole */\n      tag_94\n        /* \"contracts/scorer.sol\":3180:3209  revokeRole(ADMIN_ROLE, admin) */\n      jump\t// in\n    tag_112:\n        /* \"contracts/scorer.sol\":3237:3242  admin */\n      dup1\n        /* \"contracts/scorer.sol\":3224:3243  AdminRemoved(admin) */\n      0xffffffffffffffffffffffffffffffffffffffff\n      and\n      0xa3b62bc36326052d97ea62d63c3d60308ed4c3ea8ac079dd8499f1e9c4f80c0f\n      mload(0x40)\n      mload(0x40)\n      dup1\n      swap2\n      sub\n      swap1\n      log2\n        /* \"contracts/scorer.sol\":3115:3250  function removeAdmin(address admin) external onlyOwner {... */\n      pop\n      jump\t// out\n        /* \"@openzeppelin/contracts-upgradeable/access/AccessControlUpgradeable.sol\":4759:4950  function getRoleAdmin(bytes32 role) public view virtual returns (bytes32) {... */\n    tag_39:\n        /* \"@openzeppelin/contracts-upgradeable/access/AccessControlUpgradeable.sol\":4824:4831  bytes32 */\n      0x00\n        /* \"@openzeppelin/contracts-upgradeable/access/AccessControlUpgradeable.sol\":4843:4873  AccessControlStorage storage $ */\n      dup1\n        /* \"@openzeppelin/contracts-upgradeable/access/AccessControlUpgradeable.sol\":4876:4902  _getAccessControlStorage() */\n      tag_114\n        /* \"@openzeppelin/contracts-upgradeable/access/AccessControlUpgradeable.sol\":4876:4900  _getAccessControlStorage */\n      tag_115\n        /* \"@openzeppelin/contracts-upgradeable/access/AccessControlUpgradeable.sol\":4876:4902  _getAccessControlStorage() */\n      jump\t// in\n    tag_114:\n        /* \"@openzeppelin/contracts-upgradeable/access/AccessControlUpgradeable.sol\":4843:4902  AccessControlStorage storage $ = _getAccessControlStorage() */\n      swap1\n      pop\n        /* \"@openzeppelin/contracts-upgradeable/access/AccessControlUpgradeable.sol\":4919:4920  $ */\n      dup1\n        /* \"@openzeppelin/contracts-upgradeable/access/AccessControlUpgradeable.sol\":4919:4927  $._roles */\n      0x00\n      add\n        /* \"@openzeppelin/contracts-upgradeable/access/AccessControlUpgradeable.sol\":4919:4933  $._roles[role] */\n      0x00\n        /* \"@openzeppelin/contracts-upgradeable/access/AccessControlUpgradeable.sol\":4928:4932  role */\n      dup5\n        /* \"@openzeppelin/contracts-upgradeable/access/AccessControlUpgradeable.sol\":4919:4933  $._roles[role] */\n      dup2\n      mstore\n      0x20\n      add\n      swap1\n      dup2\n      mstore\n      0x20\n      add\n      0x00\n      keccak256\n        /* \"@openzeppelin/contracts-upgradeable/access/AccessControlUpgradeable.sol\":4919:4943  $._roles[role].adminRole */\n      0x01\n      add\n      sload\n        /* \"@openzeppelin/contracts-upgradeable/access/AccessControlUpgradeable.sol\":4912:4943  return $._roles[role].adminRole */\n      swap2\n      pop\n      pop\n        /* \"@openzeppelin/contracts-upgradeable/access/AccessControlUpgradeable.sol\":4759:4950  function getRoleAdmin(bytes32 role) public view virtual returns (bytes32) {... */\n      swap2\n      swap1\n      pop\n      jump\t// out\n        /* \"contracts/scorer.sol\":3256:3367  function isAdmin(address admin) external view returns (bool) {... */\n    tag_44:\n        /* \"contracts/scorer.sol\":3311:3315  bool */\n      0x00\n        /* \"contracts/scorer.sol\":3334:3360  hasRole(ADMIN_ROLE, admin) */\n      tag_117\n        /* \"contracts/scorer.sol\":358:381  keccak256(\"ADMIN_ROLE\") */\n      0xa49807205ce4d355092ef5a8a18f56e8913cf4a201fbe287825b095693c21775\n        /* \"contracts/scorer.sol\":3354:3359  admin */\n      dup4\n        /* \"contracts/scorer.sol\":3334:3341  hasRole */\n      tag_71\n        /* \"contracts/scorer.sol\":3334:3360  hasRole(ADMIN_ROLE, admin) */\n      jump\t// in\n    tag_117:\n        /* \"contracts/scorer.sol\":3327:3360  return hasRole(ADMIN_ROLE, admin) */\n      swap1\n      pop\n        /* \"contracts/scorer.sol\":3256:3367  function isAdmin(address admin) external view returns (bool) {... */\n      swap2\n      swap1\n      pop\n      jump\t// out\n        /* \"@openzeppelin/contracts-upgradeable/access/AccessControlUpgradeable.sol\":5246:5382  function grantRole(bytes32 role, address account) public virtual onlyRole(getRoleAdmin(role)) {... */\n    tag_49:\n        /* \"@openzeppelin/contracts-upgradeable/access/AccessControlUpgradeable.sol\":5320:5338  getRoleAdmin(role) */\n      tag_118\n        /* \"@openzeppelin/contracts-upgradeable/access/AccessControlUpgradeable.sol\":5333:5337  role */\n      dup3\n        /* \"@openzeppelin/contracts-upgradeable/access/AccessControlUpgradeable.sol\":5320:5332  getRoleAdmin */\n      tag_39\n        /* \"@openzeppelin/contracts-upgradeable/access/AccessControlUpgradeable.sol\":5320:5338  getRoleAdmin(role) */\n      jump\t// in\n    tag_118:\n        /* \"@openzeppelin/contracts-upgradeable/access/AccessControlUpgradeable.sol\":3191:3207  _checkRole(role) */\n      tag_120\n        /* \"@openzeppelin/contracts-upgradeable/access/AccessControlUpgradeable.sol\":3202:3206  role */\n      dup2\n        /* \"@openzeppelin/contracts-upgradeable/access/AccessControlUpgradeable.sol\":3191:3201  _checkRole */\n      tag_121\n        /* \"@openzeppelin/contracts-upgradeable/access/AccessControlUpgradeable.sol\":3191:3207  _checkRole(role) */\n      jump\t// in\n    tag_120:\n        /* \"@openzeppelin/contracts-upgradeable/access/AccessControlUpgradeable.sol\":5350:5375  _grantRole(role, account) */\n      tag_123\n        /* \"@openzeppelin/contracts-upgradeable/access/AccessControlUpgradeable.sol\":5361:5365  role */\n      dup4\n        /* \"@openzeppelin/contracts-upgradeable/access/AccessControlUpgradeable.sol\":5367:5374  account */\n      dup4\n        /* \"@openzeppelin/contracts-upgradeable/access/AccessControlUpgradeable.sol\":5350:5360  _grantRole */\n      tag_124\n        /* \"@openzeppelin/contracts-upgradeable/access/AccessControlUpgradeable.sol\":5350:5375  _grantRole(role, account) */\n      jump\t// in\n    tag_123:\n      pop\n        /* \"@openzeppelin/contracts-upgradeable/access/AccessControlUpgradeable.sol\":5246:5382  function grantRole(bytes32 role, address account) public virtual onlyRole(getRoleAdmin(role)) {... */\n      pop\n      pop\n      pop\n      jump\t// out\n        /* \"contracts/scorer.sol\":2258:2583  function setScore(... */\n    tag_53:\n        /* \"contracts/scorer.sol\":358:381  keccak256(\"ADMIN_ROLE\") */\n      0xa49807205ce4d355092ef5a8a18f56e8913cf4a201fbe287825b095693c21775\n        /* \"@openzeppelin/contracts-upgradeable/access/AccessControlUpgradeable.sol\":3191:3207  _checkRole(role) */\n      tag_126\n        /* \"@openzeppelin/contracts-upgradeable/access/AccessControlUpgradeable.sol\":3202:3206  role */\n      dup2\n        /* \"@openzeppelin/contracts-upgradeable/access/AccessControlUpgradeable.sol\":3191:3201  _checkRole */\n      tag_121\n        /* \"@openzeppelin/contracts-upgradeable/access/AccessControlUpgradeable.sol\":3191:3207  _checkRole(role) */\n      jump\t// in\n    tag_126:\n        /* \"contracts/scorer.sol\":2424:2440  uint256 oldScore */\n      0x00\n        /* \"contracts/scorer.sol\":2443:2450  _scores */\n      dup1\n        /* \"contracts/scorer.sol\":2443:2456  _scores[user] */\n      0x00\n        /* \"contracts/scorer.sol\":2451:2455  user */\n      dup7\n        /* \"contracts/scorer.sol\":2443:2456  _scores[user] */\n      0xffffffffffffffffffffffffffffffffffffffff\n      and\n      0xffffffffffffffffffffffffffffffffffffffff\n      and\n      dup2\n      mstore\n      0x20\n      add\n      swap1\n      dup2\n      mstore\n      0x20\n      add\n      0x00\n      keccak256\n        /* \"contracts/scorer.sol\":2457:2466  scoreType */\n      dup5\n        /* \"contracts/scorer.sol\":2443:2467  _scores[user][scoreType] */\n      mload(0x40)\n      tag_128\n      swap2\n      swap1\n      tag_129\n      jump\t// in\n    tag_128:\n      swap1\n      dup2\n      mstore\n      0x20\n      add\n      mload(0x40)\n      dup1\n      swap2\n      sub\n      swap1\n      keccak256\n      sload\n        /* \"contracts/scorer.sol\":2424:2467  uint256 oldScore = _scores[user][scoreType] */\n      swap1\n      pop\n        /* \"contracts/scorer.sol\":2504:2512  newScore */\n      dup3\n        /* \"contracts/scorer.sol\":2477:2484  _scores */\n      0x00\n        /* \"contracts/scorer.sol\":2477:2490  _scores[user] */\n      dup1\n        /* \"contracts/scorer.sol\":2485:2489  user */\n      dup8\n        /* \"contracts/scorer.sol\":2477:2490  _scores[user] */\n      0xffffffffffffffffffffffffffffffffffffffff\n      and\n      0xffffffffffffffffffffffffffffffffffffffff\n      and\n      dup2\n      mstore\n      0x20\n      add\n      swap1\n      dup2\n      mstore\n      0x20\n      add\n      0x00\n      keccak256\n        /* \"contracts/scorer.sol\":2491:2500  scoreType */\n      dup6\n        /* \"contracts/scorer.sol\":2477:2501  _scores[user][scoreType] */\n      mload(0x40)\n      tag_130\n      swap2\n      swap1\n      tag_129\n      jump\t// in\n    tag_130:\n      swap1\n      dup2\n      mstore\n      0x20\n      add\n      mload(0x40)\n      dup1\n      swap2\n      sub\n      swap1\n      keccak256\n        /* \"contracts/scorer.sol\":2477:2512  _scores[user][scoreType] = newScore */\n      dup2\n      swap1\n      sstore\n      pop\n        /* \"contracts/scorer.sol\":2540:2544  user */\n      dup5\n        /* \"contracts/scorer.sol\":2527:2576  ScoreUpdated(user, scoreType, newScore, oldScore) */\n      0xffffffffffffffffffffffffffffffffffffffff\n      and\n      0x96e76e471be932dcf10dfb1789068c3c023ca316d8eca3da1a0e8ab2f97799f6\n        /* \"contracts/scorer.sol\":2546:2555  scoreType */\n      dup6\n        /* \"contracts/scorer.sol\":2557:2565  newScore */\n      dup6\n        /* \"contracts/scorer.sol\":2567:2575  oldScore */\n      dup5\n        /* \"contracts/scorer.sol\":2527:2576  ScoreUpdated(user, scoreType, newScore, oldScore) */\n      mload(0x40)\n      tag_131\n      swap4\n      swap3\n      swap2\n      swap1\n      tag_132\n      jump\t// in\n    tag_131:\n      mload(0x40)\n      dup1\n      swap2\n      sub\n      swap1\n      log2\n        /* \"contracts/scorer.sol\":2393:2583  {... */\n      pop\n        /* \"contracts/scorer.sol\":2258:2583  function setScore(... */\n      pop\n      pop\n      pop\n      pop\n      jump\t// out\n        /* \"@openzeppelin/contracts-upgradeable/access/AccessControlUpgradeable.sol\":6348:6593  function renounceRole(bytes32 role, address callerConfirmation) public virtual {... */\n    tag_56:\n        /* \"@openzeppelin/contracts-upgradeable/access/AccessControlUpgradeable.sol\":6463:6475  _msgSender() */\n      tag_134\n        /* \"@openzeppelin/contracts-upgradeable/access/AccessControlUpgradeable.sol\":6463:6473  _msgSender */\n      tag_135\n        /* \"@openzeppelin/contracts-upgradeable/access/AccessControlUpgradeable.sol\":6463:6475  _msgSender() */\n      jump\t// in\n    tag_134:\n        /* \"@openzeppelin/contracts-upgradeable/access/AccessControlUpgradeable.sol\":6441:6475  callerConfirmation != _msgSender() */\n      0xffffffffffffffffffffffffffffffffffffffff\n      and\n        /* \"@openzeppelin/contracts-upgradeable/access/AccessControlUpgradeable.sol\":6441:6459  callerConfirmation */\n      dup2\n        /* \"@openzeppelin/contracts-upgradeable/access/AccessControlUpgradeable.sol\":6441:6475  callerConfirmation != _msgSender() */\n      0xffffffffffffffffffffffffffffffffffffffff\n      and\n      eq\n        /* \"@openzeppelin/contracts-upgradeable/access/AccessControlUpgradeable.sol\":6437:6539  if (callerConfirmation != _msgSender()) {... */\n      tag_136\n      jumpi\n        /* \"@openzeppelin/contracts-upgradeable/access/AccessControlUpgradeable.sol\":6498:6528  AccessControlBadConfirmation() */\n      mload(0x40)\n      0x6697b23200000000000000000000000000000000000000000000000000000000\n      dup2\n      mstore\n      0x04\n      add\n      mload(0x40)\n      dup1\n      swap2\n      sub\n      swap1\n      revert\n        /* \"@openzeppelin/contracts-upgradeable/access/AccessControlUpgradeable.sol\":6437:6539  if (callerConfirmation != _msgSender()) {... */\n    tag_136:\n        /* \"@openzeppelin/contracts-upgradeable/access/AccessControlUpgradeable.sol\":6549:6586  _revokeRole(role, callerConfirmation) */\n      tag_137\n        /* \"@openzeppelin/contracts-upgradeable/access/AccessControlUpgradeable.sol\":6561:6565  role */\n      dup3\n        /* \"@openzeppelin/contracts-upgradeable/access/AccessControlUpgradeable.sol\":6567:6585  callerConfirmation */\n      dup3\n        /* \"@openzeppelin/contracts-upgradeable/access/AccessControlUpgradeable.sol\":6549:6560  _revokeRole */\n      tag_138\n        /* \"@openzeppelin/contracts-upgradeable/access/AccessControlUpgradeable.sol\":6549:6586  _revokeRole(role, callerConfirmation) */\n      jump\t// in\n    tag_137:\n      pop\n        /* \"@openzeppelin/contracts-upgradeable/access/AccessControlUpgradeable.sol\":6348:6593  function renounceRole(bytes32 role, address callerConfirmation) public virtual {... */\n      pop\n      pop\n      jump\t// out\n        /* \"contracts/scorer.sol\":2980:3109  function addAdmin(address admin) external onlyOwner {... */\n    tag_59:\n        /* \"@openzeppelin/contracts-upgradeable/access/OwnableUpgradeable.sol\":2334:2347  _checkOwner() */\n      tag_140\n        /* \"@openzeppelin/contracts-upgradeable/access/OwnableUpgradeable.sol\":2334:2345  _checkOwner */\n      tag_110\n        /* \"@openzeppelin/contracts-upgradeable/access/OwnableUpgradeable.sol\":2334:2347  _checkOwner() */\n      jump\t// in\n    tag_140:\n        /* \"contracts/scorer.sol\":3042:3070  grantRole(ADMIN_ROLE, admin) */\n      tag_142\n        /* \"contracts/scorer.sol\":358:381  keccak256(\"ADMIN_ROLE\") */\n      0xa49807205ce4d355092ef5a8a18f56e8913cf4a201fbe287825b095693c21775\n        /* \"contracts/scorer.sol\":3064:3069  admin */\n      dup3\n        /* \"contracts/scorer.sol\":3042:3051  grantRole */\n      tag_49\n        /* \"contracts/scorer.sol\":3042:3070  grantRole(ADMIN_ROLE, admin) */\n      jump\t// in\n    tag_142:\n        /* \"contracts/scorer.sol\":3096:3101  admin */\n      dup1\n        /* \"contracts/scorer.sol\":3085:3102  AdminAdded(admin) */\n      0xffffffffffffffffffffffffffffffffffffffff\n      and\n      0x44d6d25963f097ad14f29f06854a01f575648a1ef82f30e562ccd3889717e339\n      mload(0x40)\n      mload(0x40)\n      dup1\n      swap2\n      sub\n      swap1\n      log2\n        /* \"contracts/scorer.sol\":2980:3109  function addAdmin(address admin) external onlyOwner {... */\n      pop\n      jump\t// out\n        /* \"@openzeppelin/contracts-upgradeable/access/OwnableUpgradeable.sol\":3155:3256  function renounceOwnership() public virtual onlyOwner {... */\n    tag_61:\n        /* \"@openzeppelin/contracts-upgradeable/access/OwnableUpgradeable.sol\":2334:2347  _checkOwner() */\n      tag_144\n        /* \"@openzeppelin/contracts-upgradeable/access/OwnableUpgradeable.sol\":2334:2345  _checkOwner */\n      tag_110\n        /* \"@openzeppelin/contracts-upgradeable/access/OwnableUpgradeable.sol\":2334:2347  _checkOwner() */\n      jump\t// in\n    tag_144:\n        /* \"@openzeppelin/contracts-upgradeable/access/OwnableUpgradeable.sol\":3219:3249  _transferOwnership(address(0)) */\n      tag_146\n        /* \"@openzeppelin/contracts-upgradeable/access/OwnableUpgradeable.sol\":3246:3247  0 */\n      0x00\n        /* \"@openzeppelin/contracts-upgradeable/access/OwnableUpgradeable.sol\":3219:3237  _transferOwnership */\n      tag_147\n        /* \"@openzeppelin/contracts-upgradeable/access/OwnableUpgradeable.sol\":3219:3249  _transferOwnership(address(0)) */\n      jump\t// in\n    tag_146:\n        /* \"@openzeppelin/contracts-upgradeable/access/OwnableUpgradeable.sol\":3155:3256  function renounceOwnership() public virtual onlyOwner {... */\n      jump\t// out\n        /* \"contracts/scorer.sol\":321:381  bytes32 public constant ADMIN_ROLE = keccak256(\"ADMIN_ROLE\") */\n    tag_63:\n        /* \"contracts/scorer.sol\":358:381  keccak256(\"ADMIN_ROLE\") */\n      0xa49807205ce4d355092ef5a8a18f56e8913cf4a201fbe287825b095693c21775\n        /* \"contracts/scorer.sol\":321:381  bytes32 public constant ADMIN_ROLE = keccak256(\"ADMIN_ROLE\") */\n      dup2\n      jump\t// out\n        /* \"@openzeppelin/contracts-upgradeable/access/OwnableUpgradeable.sol\":2441:2585  function owner() public view virtual returns (address) {... */\n    tag_66:\n        /* \"@openzeppelin/contracts-upgradeable/access/OwnableUpgradeable.sol\":2487:2494  address */\n      0x00\n        /* \"@openzeppelin/contracts-upgradeable/access/OwnableUpgradeable.sol\":2506:2530  OwnableStorage storage $ */\n      dup1\n        /* \"@openzeppelin/contracts-upgradeable/access/OwnableUpgradeable.sol\":2533:2553  _getOwnableStorage() */\n      tag_149\n        /* \"@openzeppelin/contracts-upgradeable/access/OwnableUpgradeable.sol\":2533:2551  _getOwnableStorage */\n      tag_150\n        /* \"@openzeppelin/contracts-upgradeable/access/OwnableUpgradeable.sol\":2533:2553  _getOwnableStorage() */\n      jump\t// in\n    tag_149:\n        /* \"@openzeppelin/contracts-upgradeable/access/OwnableUpgradeable.sol\":2506:2553  OwnableStorage storage $ = _getOwnableStorage() */\n      swap1\n      pop\n        /* \"@openzeppelin/contracts-upgradeable/access/OwnableUpgradeable.sol\":2570:2571  $ */\n      dup1\n        /* \"@openzeppelin/contracts-upgradeable/access/OwnableUpgradeable.sol\":2570:2578  $._owner */\n      0x00\n      add\n      0x00\n      swap1\n      sload\n      swap1\n      0x0100\n      exp\n      swap1\n      div\n      0xffffffffffffffffffffffffffffffffffffffff\n      and\n        /* \"@openzeppelin/contracts-upgradeable/access/OwnableUpgradeable.sol\":2563:2578  return $._owner */\n      swap2\n      pop\n      pop\n        /* \"@openzeppelin/contracts-upgradeable/access/OwnableUpgradeable.sol\":2441:2585  function owner() public view virtual returns (address) {... */\n      swap1\n      jump\t// out\n        /* \"@openzeppelin/contracts-upgradeable/access/AccessControlUpgradeable.sol\":3732:3939  function hasRole(bytes32 role, address account) public view virtual returns (bool) {... */\n    tag_71:\n        /* \"@openzeppelin/contracts-upgradeable/access/AccessControlUpgradeable.sol\":3809:3813  bool */\n      0x00\n        /* \"@openzeppelin/contracts-upgradeable/access/AccessControlUpgradeable.sol\":3825:3855  AccessControlStorage storage $ */\n      dup1\n        /* \"@openzeppelin/contracts-upgradeable/access/AccessControlUpgradeable.sol\":3858:3884  _getAccessControlStorage() */\n      tag_152\n        /* \"@openzeppelin/contracts-upgradeable/access/AccessControlUpgradeable.sol\":3858:3882  _getAccessControlStorage */\n      tag_115\n        /* \"@openzeppelin/contracts-upgradeable/access/AccessControlUpgradeable.sol\":3858:3884  _getAccessControlStorage() */\n      jump\t// in\n    tag_152:\n        /* \"@openzeppelin/contracts-upgradeable/access/AccessControlUpgradeable.sol\":3825:3884  AccessControlStorage storage $ = _getAccessControlStorage() */\n      swap1\n      pop\n        /* \"@openzeppelin/contracts-upgradeable/access/AccessControlUpgradeable.sol\":3901:3902  $ */\n      dup1\n        /* \"@openzeppelin/contracts-upgradeable/access/AccessControlUpgradeable.sol\":3901:3909  $._roles */\n      0x00\n      add\n        /* \"@openzeppelin/contracts-upgradeable/access/AccessControlUpgradeable.sol\":3901:3915  $._roles[role] */\n      0x00\n        /* \"@openzeppelin/contracts-upgradeable/access/AccessControlUpgradeable.sol\":3910:3914  role */\n      dup6\n        /* \"@openzeppelin/contracts-upgradeable/access/AccessControlUpgradeable.sol\":3901:3915  $._roles[role] */\n      dup2\n      mstore\n      0x20\n      add\n      swap1\n      dup2\n      mstore\n      0x20\n      add\n      0x00\n      keccak256\n        /* \"@openzeppelin/contracts-upgradeable/access/AccessControlUpgradeable.sol\":3901:3923  $._roles[role].hasRole */\n      0x00\n      add\n        /* \"@openzeppelin/contracts-upgradeable/access/AccessControlUpgradeable.sol\":3901:3932  $._roles[role].hasRole[account] */\n      0x00\n        /* \"@openzeppelin/contracts-upgradeable/access/AccessControlUpgradeable.sol\":3924:3931  account */\n      dup5\n        /* \"@openzeppelin/contracts-upgradeable/access/AccessControlUpgradeable.sol\":3901:3932  $._roles[role].hasRole[account] */\n      0xffffffffffffffffffffffffffffffffffffffff\n      and\n      0xffffffffffffffffffffffffffffffffffffffff\n      and\n      dup2\n      mstore\n      0x20\n      add\n      swap1\n      dup2\n      mstore\n      0x20\n      add\n      0x00\n      keccak256\n      0x00\n      swap1\n      sload\n      swap1\n      0x0100\n      exp\n      swap1\n      div\n      0xff\n      and\n        /* \"@openzeppelin/contracts-upgradeable/access/AccessControlUpgradeable.sol\":3894:3932  return $._roles[role].hasRole[account] */\n      swap2\n      pop\n      pop\n        /* \"@openzeppelin/contracts-upgradeable/access/AccessControlUpgradeable.sol\":3732:3939  function hasRole(bytes32 role, address account) public view virtual returns (bool) {... */\n      swap3\n      swap2\n      pop\n      pop\n      jump\t// out\n        /* \"@openzeppelin/contracts-upgradeable/access/AccessControlUpgradeable.sol\":2317:2366  bytes32 public constant DEFAULT_ADMIN_ROLE = 0x00 */\n    tag_74:\n        /* \"@openzeppelin/contracts-upgradeable/access/AccessControlUpgradeable.sol\":2362:2366  0x00 */\n      0x00\n        /* \"@openzeppelin/contracts-upgradeable/access/AccessControlUpgradeable.sol\":2317:2366  bytes32 public constant DEFAULT_ADMIN_ROLE = 0x00 */\n      dup1\n      shl\n      dup2\n      jump\t// out\n        /* \"contracts/scorer.sol\":1544:2045  function removeScoreType(string memory scoreType) external onlyOwner {... */\n    tag_79:\n        /* \"@openzeppelin/contracts-upgradeable/access/OwnableUpgradeable.sol\":2334:2347  _checkOwner() */\n      tag_154\n        /* \"@openzeppelin/contracts-upgradeable/access/OwnableUpgradeable.sol\":2334:2345  _checkOwner */\n      tag_110\n        /* \"@openzeppelin/contracts-upgradeable/access/OwnableUpgradeable.sol\":2334:2347  _checkOwner() */\n      jump\t// in\n    tag_154:\n        /* \"contracts/scorer.sol\":1628:1637  uint256 i */\n      0x00\n        /* \"contracts/scorer.sol\":1623:1999  for (uint256 i = 0; i < scoreTypes.length; i++) {... */\n    tag_156:\n        /* \"contracts/scorer.sol\":1647:1657  scoreTypes */\n      0x01\n        /* \"contracts/scorer.sol\":1647:1664  scoreTypes.length */\n      dup1\n      sload\n      swap1\n      pop\n        /* \"contracts/scorer.sol\":1643:1644  i */\n      dup2\n        /* \"contracts/scorer.sol\":1643:1664  i < scoreTypes.length */\n      lt\n        /* \"contracts/scorer.sol\":1623:1999  for (uint256 i = 0; i < scoreTypes.length; i++) {... */\n      iszero\n      tag_157\n      jumpi\n        /* \"contracts/scorer.sol\":1773:1782  scoreType */\n      dup2\n        /* \"contracts/scorer.sol\":1757:1784  keccak256(bytes(scoreType)) */\n      dup1\n      mload\n      swap1\n      0x20\n      add\n      keccak256\n        /* \"contracts/scorer.sol\":1722:1732  scoreTypes */\n      0x01\n        /* \"contracts/scorer.sol\":1733:1734  i */\n      dup3\n        /* \"contracts/scorer.sol\":1722:1735  scoreTypes[i] */\n      dup2\n      sload\n      dup2\n      lt\n      tag_159\n      jumpi\n      tag_160\n      tag_161\n      jump\t// in\n    tag_160:\n    tag_159:\n      swap1\n      0x00\n      mstore\n      keccak256(0x00, 0x20)\n      add\n        /* \"contracts/scorer.sol\":1706:1737  keccak256(bytes(scoreTypes[i])) */\n      mload(0x40)\n      tag_163\n      swap2\n      swap1\n      tag_164\n      jump\t// in\n    tag_163:\n      mload(0x40)\n      dup1\n      swap2\n      sub\n      swap1\n      keccak256\n        /* \"contracts/scorer.sol\":1706:1784  keccak256(bytes(scoreTypes[i])) ==... */\n      sub\n        /* \"contracts/scorer.sol\":1685:1989  if (... */\n      tag_165\n      jumpi\n        /* \"contracts/scorer.sol\":1833:1843  scoreTypes */\n      0x01\n        /* \"contracts/scorer.sol\":1864:1865  1 */\n      dup1\n        /* \"contracts/scorer.sol\":1844:1854  scoreTypes */\n      dup1\n        /* \"contracts/scorer.sol\":1844:1861  scoreTypes.length */\n      dup1\n      sload\n      swap1\n      pop\n        /* \"contracts/scorer.sol\":1844:1865  scoreTypes.length - 1 */\n      tag_166\n      swap2\n      swap1\n      tag_167\n      jump\t// in\n    tag_166:\n        /* \"contracts/scorer.sol\":1833:1866  scoreTypes[scoreTypes.length - 1] */\n      dup2\n      sload\n      dup2\n      lt\n      tag_168\n      jumpi\n      tag_169\n      tag_161\n      jump\t// in\n    tag_169:\n    tag_168:\n      swap1\n      0x00\n      mstore\n      keccak256(0x00, 0x20)\n      add\n        /* \"contracts/scorer.sol\":1817:1827  scoreTypes */\n      0x01\n        /* \"contracts/scorer.sol\":1828:1829  i */\n      dup3\n        /* \"contracts/scorer.sol\":1817:1830  scoreTypes[i] */\n      dup2\n      sload\n      dup2\n      lt\n      tag_171\n      jumpi\n      tag_172\n      tag_161\n      jump\t// in\n    tag_172:\n    tag_171:\n      swap1\n      0x00\n      mstore\n      keccak256(0x00, 0x20)\n      add\n        /* \"contracts/scorer.sol\":1817:1866  scoreTypes[i] = scoreTypes[scoreTypes.length - 1] */\n      swap1\n      dup2\n      tag_174\n      swap2\n      swap1\n      tag_175\n      jump\t// in\n    tag_174:\n      pop\n        /* \"contracts/scorer.sol\":1884:1894  scoreTypes */\n      0x01\n        /* \"contracts/scorer.sol\":1884:1900  scoreTypes.pop() */\n      dup1\n      sload\n      dup1\n      tag_176\n      jumpi\n      tag_177\n      tag_178\n      jump\t// in\n    tag_177:\n    tag_176:\n      0x01\n      swap1\n      sub\n      dup2\n      dup2\n      swap1\n      0x00\n      mstore\n      keccak256(0x00, 0x20)\n      add\n      0x00\n      tag_180\n      swap2\n      swap1\n      tag_181\n      jump\t// in\n    tag_180:\n      swap1\n      sstore\n        /* \"contracts/scorer.sol\":1923:1950  ScoreTypeRemoved(scoreType) */\n      0xf7c23b97fb023c192527b3f7ec572bfd326a7850df95d8d979233d2c85c12958\n        /* \"contracts/scorer.sol\":1940:1949  scoreType */\n      dup3\n        /* \"contracts/scorer.sol\":1923:1950  ScoreTypeRemoved(scoreType) */\n      mload(0x40)\n      tag_182\n      swap2\n      swap1\n      tag_91\n      jump\t// in\n    tag_182:\n      mload(0x40)\n      dup1\n      swap2\n      sub\n      swap1\n      log1\n        /* \"contracts/scorer.sol\":1968:1975  return; */\n      pop\n      jump(tag_155)\n        /* \"contracts/scorer.sol\":1685:1989  if (... */\n    tag_165:\n        /* \"contracts/scorer.sol\":1666:1669  i++ */\n      dup1\n      dup1\n      0x01\n      add\n      swap2\n      pop\n      pop\n        /* \"contracts/scorer.sol\":1623:1999  for (uint256 i = 0; i < scoreTypes.length; i++) {... */\n      jump(tag_156)\n    tag_157:\n      pop\n        /* \"contracts/scorer.sol\":2008:2038  revert(\"Score type not found\") */\n      mload(0x40)\n      0x08c379a000000000000000000000000000000000000000000000000000000000\n      dup2\n      mstore\n      0x04\n      add\n      tag_183\n      swap1\n      tag_184\n      jump\t// in\n    tag_183:\n      mload(0x40)\n      dup1\n      swap2\n      sub\n      swap1\n      revert\n        /* \"@openzeppelin/contracts-upgradeable/access/OwnableUpgradeable.sol\":2357:2358  _ */\n    tag_155:\n        /* \"contracts/scorer.sol\":1544:2045  function removeScoreType(string memory scoreType) external onlyOwner {... */\n      pop\n      jump\t// out\n        /* \"contracts/scorer.sol\":944:1157  function initialize(address owner) external initializer {... */\n    tag_82:\n        /* \"@openzeppelin/contracts-upgradeable/proxy/utils/Initializable.sol\":4158:4188  InitializableStorage storage $ */\n      0x00\n        /* \"@openzeppelin/contracts-upgradeable/proxy/utils/Initializable.sol\":4191:4217  _getInitializableStorage() */\n      tag_186\n        /* \"@openzeppelin/contracts-upgradeable/proxy/utils/Initializable.sol\":4191:4215  _getInitializableStorage */\n      tag_187\n        /* \"@openzeppelin/contracts-upgradeable/proxy/utils/Initializable.sol\":4191:4217  _getInitializableStorage() */\n      jump\t// in\n    tag_186:\n        /* \"@openzeppelin/contracts-upgradeable/proxy/utils/Initializable.sol\":4158:4217  InitializableStorage storage $ = _getInitializableStorage() */\n      swap1\n      pop\n        /* \"@openzeppelin/contracts-upgradeable/proxy/utils/Initializable.sol\":4279:4298  bool isTopLevelCall */\n      0x00\n        /* \"@openzeppelin/contracts-upgradeable/proxy/utils/Initializable.sol\":4302:4303  $ */\n      dup2\n        /* \"@openzeppelin/contracts-upgradeable/proxy/utils/Initializable.sol\":4302:4317  $._initializing */\n      0x00\n      add\n      0x08\n      swap1\n      sload\n      swap1\n      0x0100\n      exp\n      swap1\n      div\n      0xff\n      and\n        /* \"@openzeppelin/contracts-upgradeable/proxy/utils/Initializable.sol\":4301:4317  !$._initializing */\n      iszero\n        /* \"@openzeppelin/contracts-upgradeable/proxy/utils/Initializable.sol\":4279:4317  bool isTopLevelCall = !$._initializing */\n      swap1\n      pop\n        /* \"@openzeppelin/contracts-upgradeable/proxy/utils/Initializable.sol\":4327:4345  uint64 initialized */\n      0x00\n        /* \"@openzeppelin/contracts-upgradeable/proxy/utils/Initializable.sol\":4348:4349  $ */\n      dup3\n        /* \"@openzeppelin/contracts-upgradeable/proxy/utils/Initializable.sol\":4348:4362  $._initialized */\n      0x00\n      add\n      0x00\n      swap1\n      sload\n      swap1\n      0x0100\n      exp\n      swap1\n      div\n      0xffffffffffffffff\n      and\n        /* \"@openzeppelin/contracts-upgradeable/proxy/utils/Initializable.sol\":4327:4362  uint64 initialized = $._initialized */\n      swap1\n      pop\n        /* \"@openzeppelin/contracts-upgradeable/proxy/utils/Initializable.sol\":4706:4723  bool initialSetup */\n      0x00\n        /* \"@openzeppelin/contracts-upgradeable/proxy/utils/Initializable.sol\":4741:4742  0 */\n      dup1\n        /* \"@openzeppelin/contracts-upgradeable/proxy/utils/Initializable.sol\":4726:4737  initialized */\n      dup3\n        /* \"@openzeppelin/contracts-upgradeable/proxy/utils/Initializable.sol\":4726:4742  initialized == 0 */\n      0xffffffffffffffff\n      and\n      eq\n        /* \"@openzeppelin/contracts-upgradeable/proxy/utils/Initializable.sol\":4726:4760  initialized == 0 && isTopLevelCall */\n      dup1\n      iszero\n      tag_188\n      jumpi\n      pop\n        /* \"@openzeppelin/contracts-upgradeable/proxy/utils/Initializable.sol\":4746:4760  isTopLevelCall */\n      dup3\n        /* \"@openzeppelin/contracts-upgradeable/proxy/utils/Initializable.sol\":4726:4760  initialized == 0 && isTopLevelCall */\n    tag_188:\n        /* \"@openzeppelin/contracts-upgradeable/proxy/utils/Initializable.sol\":4706:4760  bool initialSetup = initialized == 0 && isTopLevelCall */\n      swap1\n      pop\n        /* \"@openzeppelin/contracts-upgradeable/proxy/utils/Initializable.sol\":4770:4787  bool construction */\n      0x00\n        /* \"@openzeppelin/contracts-upgradeable/proxy/utils/Initializable.sol\":4805:4806  1 */\n      0x01\n        /* \"@openzeppelin/contracts-upgradeable/proxy/utils/Initializable.sol\":4790:4801  initialized */\n      dup4\n        /* \"@openzeppelin/contracts-upgradeable/proxy/utils/Initializable.sol\":4790:4806  initialized == 1 */\n      0xffffffffffffffff\n      and\n      eq\n        /* \"@openzeppelin/contracts-upgradeable/proxy/utils/Initializable.sol\":4790:4840  initialized == 1 && address(this).code.length == 0 */\n      dup1\n      iszero\n      tag_189\n      jumpi\n      pop\n        /* \"@openzeppelin/contracts-upgradeable/proxy/utils/Initializable.sol\":4839:4840  0 */\n      0x00\n        /* \"@openzeppelin/contracts-upgradeable/proxy/utils/Initializable.sol\":4818:4822  this */\n      address\n        /* \"@openzeppelin/contracts-upgradeable/proxy/utils/Initializable.sol\":4810:4835  address(this).code.length */\n      0xffffffffffffffffffffffffffffffffffffffff\n      and\n      extcodesize\n        /* \"@openzeppelin/contracts-upgradeable/proxy/utils/Initializable.sol\":4810:4840  address(this).code.length == 0 */\n      eq\n        /* \"@openzeppelin/contracts-upgradeable/proxy/utils/Initializable.sol\":4790:4840  initialized == 1 && address(this).code.length == 0 */\n    tag_189:\n        /* \"@openzeppelin/contracts-upgradeable/proxy/utils/Initializable.sol\":4770:4840  bool construction = initialized == 1 && address(this).code.length == 0 */\n      swap1\n      pop\n        /* \"@openzeppelin/contracts-upgradeable/proxy/utils/Initializable.sol\":4856:4868  initialSetup */\n      dup2\n        /* \"@openzeppelin/contracts-upgradeable/proxy/utils/Initializable.sol\":4855:4868  !initialSetup */\n      iszero\n        /* \"@openzeppelin/contracts-upgradeable/proxy/utils/Initializable.sol\":4855:4885  !initialSetup && !construction */\n      dup1\n      iszero\n      tag_190\n      jumpi\n      pop\n        /* \"@openzeppelin/contracts-upgradeable/proxy/utils/Initializable.sol\":4873:4885  construction */\n      dup1\n        /* \"@openzeppelin/contracts-upgradeable/proxy/utils/Initializable.sol\":4872:4885  !construction */\n      iszero\n        /* \"@openzeppelin/contracts-upgradeable/proxy/utils/Initializable.sol\":4855:4885  !initialSetup && !construction */\n    tag_190:\n        /* \"@openzeppelin/contracts-upgradeable/proxy/utils/Initializable.sol\":4851:4942  if (!initialSetup && !construction) {... */\n      iszero\n      tag_191\n      jumpi\n        /* \"@openzeppelin/contracts-upgradeable/proxy/utils/Initializable.sol\":4908:4931  InvalidInitialization() */\n      mload(0x40)\n      0xf92ee8a900000000000000000000000000000000000000000000000000000000\n      dup2\n      mstore\n      0x04\n      add\n      mload(0x40)\n      dup1\n      swap2\n      sub\n      swap1\n      revert\n        /* \"@openzeppelin/contracts-upgradeable/proxy/utils/Initializable.sol\":4851:4942  if (!initialSetup && !construction) {... */\n    tag_191:\n        /* \"@openzeppelin/contracts-upgradeable/proxy/utils/Initializable.sol\":4968:4969  1 */\n      0x01\n        /* \"@openzeppelin/contracts-upgradeable/proxy/utils/Initializable.sol\":4951:4952  $ */\n      dup6\n        /* \"@openzeppelin/contracts-upgradeable/proxy/utils/Initializable.sol\":4951:4965  $._initialized */\n      0x00\n      add\n      0x00\n        /* \"@openzeppelin/contracts-upgradeable/proxy/utils/Initializable.sol\":4951:4969  $._initialized = 1 */\n      0x0100\n      exp\n      dup2\n      sload\n      dup2\n      0xffffffffffffffff\n      mul\n      not\n      and\n      swap1\n      dup4\n      0xffffffffffffffff\n      and\n      mul\n      or\n      swap1\n      sstore\n      pop\n        /* \"@openzeppelin/contracts-upgradeable/proxy/utils/Initializable.sol\":4983:4997  isTopLevelCall */\n      dup4\n        /* \"@openzeppelin/contracts-upgradeable/proxy/utils/Initializable.sol\":4979:5046  if (isTopLevelCall) {... */\n      iszero\n      tag_192\n      jumpi\n        /* \"@openzeppelin/contracts-upgradeable/proxy/utils/Initializable.sol\":5031:5035  true */\n      0x01\n        /* \"@openzeppelin/contracts-upgradeable/proxy/utils/Initializable.sol\":5013:5014  $ */\n      dup6\n        /* \"@openzeppelin/contracts-upgradeable/proxy/utils/Initializable.sol\":5013:5028  $._initializing */\n      0x00\n      add\n      0x08\n        /* \"@openzeppelin/contracts-upgradeable/proxy/utils/Initializable.sol\":5013:5035  $._initializing = true */\n      0x0100\n      exp\n      dup2\n      sload\n      dup2\n      0xff\n      mul\n      not\n      and\n      swap1\n      dup4\n      iszero\n      iszero\n      mul\n      or\n      swap1\n      sstore\n      pop\n        /* \"@openzeppelin/contracts-upgradeable/proxy/utils/Initializable.sol\":4979:5046  if (isTopLevelCall) {... */\n    tag_192:\n        /* \"contracts/scorer.sol\":1010:1031  __Ownable_init(owner) */\n      tag_194\n        /* \"contracts/scorer.sol\":1025:1030  owner */\n      dup7\n        /* \"contracts/scorer.sol\":1010:1024  __Ownable_init */\n      tag_195\n        /* \"contracts/scorer.sol\":1010:1031  __Ownable_init(owner) */\n      jump\t// in\n    tag_194:\n        /* \"contracts/scorer.sol\":1041:1063  __AccessControl_init() */\n      tag_196\n        /* \"contracts/scorer.sol\":1041:1061  __AccessControl_init */\n      tag_197\n        /* \"contracts/scorer.sol\":1041:1063  __AccessControl_init() */\n      jump\t// in\n    tag_196:\n        /* \"contracts/scorer.sol\":1074:1111  _grantRole(DEFAULT_ADMIN_ROLE, owner) */\n      tag_198\n        /* \"@openzeppelin/contracts-upgradeable/access/AccessControlUpgradeable.sol\":2362:2366  0x00 */\n      0x00\n        /* \"contracts/scorer.sol\":1085:1103  DEFAULT_ADMIN_ROLE */\n      dup1\n      shl\n        /* \"contracts/scorer.sol\":1105:1110  owner */\n      dup8\n        /* \"contracts/scorer.sol\":1074:1084  _grantRole */\n      tag_124\n        /* \"contracts/scorer.sol\":1074:1111  _grantRole(DEFAULT_ADMIN_ROLE, owner) */\n      jump\t// in\n    tag_198:\n      pop\n        /* \"contracts/scorer.sol\":1121:1150  _grantRole(ADMIN_ROLE, owner) */\n      tag_199\n        /* \"contracts/scorer.sol\":358:381  keccak256(\"ADMIN_ROLE\") */\n      0xa49807205ce4d355092ef5a8a18f56e8913cf4a201fbe287825b095693c21775\n        /* \"contracts/scorer.sol\":1144:1149  owner */\n      dup8\n        /* \"contracts/scorer.sol\":1121:1131  _grantRole */\n      tag_124\n        /* \"contracts/scorer.sol\":1121:1150  _grantRole(ADMIN_ROLE, owner) */\n      jump\t// in\n    tag_199:\n      pop\n        /* \"@openzeppelin/contracts-upgradeable/proxy/utils/Initializable.sol\":5070:5084  isTopLevelCall */\n      dup4\n        /* \"@openzeppelin/contracts-upgradeable/proxy/utils/Initializable.sol\":5066:5167  if (isTopLevelCall) {... */\n      iszero\n      tag_200\n      jumpi\n        /* \"@openzeppelin/contracts-upgradeable/proxy/utils/Initializable.sol\":5118:5123  false */\n      0x00\n        /* \"@openzeppelin/contracts-upgradeable/proxy/utils/Initializable.sol\":5100:5101  $ */\n      dup6\n        /* \"@openzeppelin/contracts-upgradeable/proxy/utils/Initializable.sol\":5100:5115  $._initializing */\n      0x00\n      add\n      0x08\n        /* \"@openzeppelin/contracts-upgradeable/proxy/utils/Initializable.sol\":5100:5123  $._initializing = false */\n      0x0100\n      exp\n      dup2\n      sload\n      dup2\n      0xff\n      mul\n      not\n      and\n      swap1\n      dup4\n      iszero\n      iszero\n      mul\n      or\n      swap1\n      sstore\n      pop\n        /* \"@openzeppelin/contracts-upgradeable/proxy/utils/Initializable.sol\":5142:5156  Initialized(1) */\n      0xc7f505b2f371ae2175ee4913f4499e1f2633a7b5936321eed1cdaeb6115181d2\n        /* \"@openzeppelin/contracts-upgradeable/proxy/utils/Initializable.sol\":5154:5155  1 */\n      0x01\n        /* \"@openzeppelin/contracts-upgradeable/proxy/utils/Initializable.sol\":5142:5156  Initialized(1) */\n      mload(0x40)\n      tag_201\n      swap2\n      swap1\n      tag_202\n      jump\t// in\n    tag_201:\n      mload(0x40)\n      dup1\n      swap2\n      sub\n      swap1\n      log1\n        /* \"@openzeppelin/contracts-upgradeable/proxy/utils/Initializable.sol\":5066:5167  if (isTopLevelCall) {... */\n    tag_200:\n        /* \"@openzeppelin/contracts-upgradeable/proxy/utils/Initializable.sol\":4092:5173  {... */\n      pop\n      pop\n      pop\n      pop\n      pop\n        /* \"contracts/scorer.sol\":944:1157  function initialize(address owner) external initializer {... */\n      pop\n      jump\t// out\n        /* \"contracts/scorer.sol\":1270:1419  function addScoreType(string memory scoreType) external onlyOwner {... */\n    tag_85:\n        /* \"@openzeppelin/contracts-upgradeable/access/OwnableUpgradeable.sol\":2334:2347  _checkOwner() */\n      tag_204\n        /* \"@openzeppelin/contracts-upgradeable/access/OwnableUpgradeable.sol\":2334:2345  _checkOwner */\n      tag_110\n        /* \"@openzeppelin/contracts-upgradeable/access/OwnableUpgradeable.sol\":2334:2347  _checkOwner() */\n      jump\t// in\n    tag_204:\n        /* \"contracts/scorer.sol\":1346:1356  scoreTypes */\n      0x01\n        /* \"contracts/scorer.sol\":1362:1371  scoreType */\n      dup2\n        /* \"contracts/scorer.sol\":1346:1372  scoreTypes.push(scoreType) */\n      swap1\n      dup1\n      0x01\n      dup2\n      sload\n      add\n      dup1\n      dup3\n      sstore\n      dup1\n      swap2\n      pop\n      pop\n      0x01\n      swap1\n      sub\n      swap1\n      0x00\n      mstore\n      keccak256(0x00, 0x20)\n      add\n      0x00\n      swap1\n      swap2\n      swap1\n      swap2\n      swap1\n      swap2\n      pop\n      swap1\n      dup2\n      tag_207\n      swap2\n      swap1\n      tag_208\n      jump\t// in\n    tag_207:\n      pop\n        /* \"contracts/scorer.sol\":1387:1412  ScoreTypeAdded(scoreType) */\n      0xa72133137aa3e3b5619506c1c0113005b6db9e05730aabc696a1686379a24c04\n        /* \"contracts/scorer.sol\":1402:1411  scoreType */\n      dup2\n        /* \"contracts/scorer.sol\":1387:1412  ScoreTypeAdded(scoreType) */\n      mload(0x40)\n      tag_209\n      swap2\n      swap1\n      tag_91\n      jump\t// in\n    tag_209:\n      mload(0x40)\n      dup1\n      swap2\n      sub\n      swap1\n      log1\n        /* \"contracts/scorer.sol\":1270:1419  function addScoreType(string memory scoreType) external onlyOwner {... */\n      pop\n      jump\t// out\n        /* \"contracts/scorer.sol\":479:505  string[] public scoreTypes */\n    tag_89:\n      0x01\n      dup2\n      dup2\n      sload\n      dup2\n      lt\n      tag_210\n      jumpi\n      0x00\n      dup1\n      revert\n    tag_210:\n      swap1\n      0x00\n      mstore\n      keccak256(0x00, 0x20)\n      add\n      0x00\n      swap2\n      pop\n      swap1\n      pop\n      dup1\n      sload\n      tag_212\n      swap1\n      tag_213\n      jump\t// in\n    tag_212:\n      dup1\n      0x1f\n      add\n      0x20\n      dup1\n      swap2\n      div\n      mul\n      0x20\n      add\n      mload(0x40)\n      swap1\n      dup2\n      add\n      0x40\n      mstore\n      dup1\n      swap3\n      swap2\n      swap1\n      dup2\n      dup2\n      mstore\n      0x20\n      add\n      dup3\n      dup1\n      sload\n      tag_214\n      swap1\n      tag_213\n      jump\t// in\n    tag_214:\n      dup1\n      iszero\n      tag_215\n      jumpi\n      dup1\n      0x1f\n      lt\n      tag_216\n      jumpi\n      0x0100\n      dup1\n      dup4\n      sload\n      div\n      mul\n      dup4\n      mstore\n      swap2\n      0x20\n      add\n      swap2\n      jump(tag_215)\n    tag_216:\n      dup3\n      add\n      swap2\n      swap1\n      0x00\n      mstore\n      keccak256(0x00, 0x20)\n      swap1\n    tag_217:\n      dup2\n      sload\n      dup2\n      mstore\n      swap1\n      0x01\n      add\n      swap1\n      0x20\n      add\n      dup1\n      dup4\n      gt\n      tag_217\n      jumpi\n      dup3\n      swap1\n      sub\n      0x1f\n      and\n      dup3\n      add\n      swap2\n    tag_215:\n      pop\n      pop\n      pop\n      pop\n      pop\n      dup2\n      jump\t// out\n        /* \"@openzeppelin/contracts-upgradeable/access/AccessControlUpgradeable.sol\":5662:5800  function revokeRole(bytes32 role, address account) public virtual onlyRole(getRoleAdmin(role)) {... */\n    tag_94:\n        /* \"@openzeppelin/contracts-upgradeable/access/AccessControlUpgradeable.sol\":5737:5755  getRoleAdmin(role) */\n      tag_218\n        /* \"@openzeppelin/contracts-upgradeable/access/AccessControlUpgradeable.sol\":5750:5754  role */\n      dup3\n        /* \"@openzeppelin/contracts-upgradeable/access/AccessControlUpgradeable.sol\":5737:5749  getRoleAdmin */\n      tag_39\n        /* \"@openzeppelin/contracts-upgradeable/access/AccessControlUpgradeable.sol\":5737:5755  getRoleAdmin(role) */\n      jump\t// in\n    tag_218:\n        /* \"@openzeppelin/contracts-upgradeable/access/AccessControlUpgradeable.sol\":3191:3207  _checkRole(role) */\n      tag_220\n        /* \"@openzeppelin/contracts-upgradeable/access/AccessControlUpgradeable.sol\":3202:3206  role */\n      dup2\n        /* \"@openzeppelin/contracts-upgradeable/access/AccessControlUpgradeable.sol\":3191:3201  _checkRole */\n      tag_121\n        /* \"@openzeppelin/contracts-upgradeable/access/AccessControlUpgradeable.sol\":3191:3207  _checkRole(role) */\n      jump\t// in\n    tag_220:\n        /* \"@openzeppelin/contracts-upgradeable/access/AccessControlUpgradeable.sol\":5767:5793  _revokeRole(role, account) */\n      tag_222\n        /* \"@openzeppelin/contracts-upgradeable/access/AccessControlUpgradeable.sol\":5779:5783  role */\n      dup4\n        /* \"@openzeppelin/contracts-upgradeable/access/AccessControlUpgradeable.sol\":5785:5792  account */\n      dup4\n        /* \"@openzeppelin/contracts-upgradeable/access/AccessControlUpgradeable.sol\":5767:5778  _revokeRole */\n      tag_138\n        /* \"@openzeppelin/contracts-upgradeable/access/AccessControlUpgradeable.sol\":5767:5793  _revokeRole(role, account) */\n      jump\t// in\n    tag_222:\n      pop\n        /* \"@openzeppelin/contracts-upgradeable/access/AccessControlUpgradeable.sol\":5662:5800  function revokeRole(bytes32 role, address account) public virtual onlyRole(getRoleAdmin(role)) {... */\n      pop\n      pop\n      pop\n      jump\t// out\n        /* \"contracts/scorer.sol\":2818:2974  function score(... */\n    tag_98:\n        /* \"contracts/scorer.sol\":2917:2924  uint256 */\n      0x00\n        /* \"contracts/scorer.sol\":2943:2950  _scores */\n      dup1\n        /* \"contracts/scorer.sol\":2943:2956  _scores[user] */\n      0x00\n        /* \"contracts/scorer.sol\":2951:2955  user */\n      dup5\n        /* \"contracts/scorer.sol\":2943:2956  _scores[user] */\n      0xffffffffffffffffffffffffffffffffffffffff\n      and\n      0xffffffffffffffffffffffffffffffffffffffff\n      and\n      dup2\n      mstore\n      0x20\n      add\n      swap1\n      dup2\n      mstore\n      0x20\n      add\n      0x00\n      keccak256\n        /* \"contracts/scorer.sol\":2957:2966  scoreType */\n      dup3\n        /* \"contracts/scorer.sol\":2943:2967  _scores[user][scoreType] */\n      mload(0x40)\n      tag_224\n      swap2\n      swap1\n      tag_129\n      jump\t// in\n    tag_224:\n      swap1\n      dup2\n      mstore\n      0x20\n      add\n      mload(0x40)\n      dup1\n      swap2\n      sub\n      swap1\n      keccak256\n      sload\n        /* \"contracts/scorer.sol\":2936:2967  return _scores[user][scoreType] */\n      swap1\n      pop\n        /* \"contracts/scorer.sol\":2818:2974  function score(... */\n      swap3\n      swap2\n      pop\n      pop\n      jump\t// out\n        /* \"@openzeppelin/contracts-upgradeable/access/OwnableUpgradeable.sol\":3405:3620  function transferOwnership(address newOwner) public virtual onlyOwner {... */\n    tag_103:\n        /* \"@openzeppelin/contracts-upgradeable/access/OwnableUpgradeable.sol\":2334:2347  _checkOwner() */\n      tag_226\n        /* \"@openzeppelin/contracts-upgradeable/access/OwnableUpgradeable.sol\":2334:2345  _checkOwner */\n      tag_110\n        /* \"@openzeppelin/contracts-upgradeable/access/OwnableUpgradeable.sol\":2334:2347  _checkOwner() */\n      jump\t// in\n    tag_226:\n        /* \"@openzeppelin/contracts-upgradeable/access/OwnableUpgradeable.sol\":3509:3510  0 */\n      0x00\n        /* \"@openzeppelin/contracts-upgradeable/access/OwnableUpgradeable.sol\":3489:3511  newOwner == address(0) */\n      0xffffffffffffffffffffffffffffffffffffffff\n      and\n        /* \"@openzeppelin/contracts-upgradeable/access/OwnableUpgradeable.sol\":3489:3497  newOwner */\n      dup2\n        /* \"@openzeppelin/contracts-upgradeable/access/OwnableUpgradeable.sol\":3489:3511  newOwner == address(0) */\n      0xffffffffffffffffffffffffffffffffffffffff\n      and\n      sub\n        /* \"@openzeppelin/contracts-upgradeable/access/OwnableUpgradeable.sol\":3485:3576  if (newOwner == address(0)) {... */\n      tag_228\n      jumpi\n        /* \"@openzeppelin/contracts-upgradeable/access/OwnableUpgradeable.sol\":3562:3563  0 */\n      0x00\n        /* \"@openzeppelin/contracts-upgradeable/access/OwnableUpgradeable.sol\":3534:3565  OwnableInvalidOwner(address(0)) */\n      mload(0x40)\n      0x1e4fbdf700000000000000000000000000000000000000000000000000000000\n      dup2\n      mstore\n      0x04\n      add\n      tag_229\n      swap2\n      swap1\n      tag_68\n      jump\t// in\n    tag_229:\n      mload(0x40)\n      dup1\n      swap2\n      sub\n      swap1\n      revert\n        /* \"@openzeppelin/contracts-upgradeable/access/OwnableUpgradeable.sol\":3485:3576  if (newOwner == address(0)) {... */\n    tag_228:\n        /* \"@openzeppelin/contracts-upgradeable/access/OwnableUpgradeable.sol\":3585:3613  _transferOwnership(newOwner) */\n      tag_230\n        /* \"@openzeppelin/contracts-upgradeable/access/OwnableUpgradeable.sol\":3604:3612  newOwner */\n      dup2\n        /* \"@openzeppelin/contracts-upgradeable/access/OwnableUpgradeable.sol\":3585:3603  _transferOwnership */\n      tag_147\n        /* \"@openzeppelin/contracts-upgradeable/access/OwnableUpgradeable.sol\":3585:3613  _transferOwnership(newOwner) */\n      jump\t// in\n    tag_230:\n        /* \"@openzeppelin/contracts-upgradeable/access/OwnableUpgradeable.sol\":3405:3620  function transferOwnership(address newOwner) public virtual onlyOwner {... */\n      pop\n      jump\t// out\n        /* \"@openzeppelin/contracts-upgradeable/utils/introspection/ERC165Upgradeable.sol\":1035:1181  function supportsInterface(bytes4 interfaceId) public view virtual returns (bool) {... */\n    tag_107:\n        /* \"@openzeppelin/contracts-upgradeable/utils/introspection/ERC165Upgradeable.sol\":1111:1115  bool */\n      0x00\n        /* \"@openzeppelin/contracts-upgradeable/utils/introspection/ERC165Upgradeable.sol\":1149:1174  type(IERC165).interfaceId */\n      0x01ffc9a700000000000000000000000000000000000000000000000000000000\n        /* \"@openzeppelin/contracts-upgradeable/utils/introspection/ERC165Upgradeable.sol\":1134:1174  interfaceId == type(IERC165).interfaceId */\n      not(0xffffffffffffffffffffffffffffffffffffffffffffffffffffffff)\n      and\n        /* \"@openzeppelin/contracts-upgradeable/utils/introspection/ERC165Upgradeable.sol\":1134:1145  interfaceId */\n      dup3\n        /* \"@openzeppelin/contracts-upgradeable/utils/introspection/ERC165Upgradeable.sol\":1134:1174  interfaceId == type(IERC165).interfaceId */\n      not(0xffffffffffffffffffffffffffffffffffffffffffffffffffffffff)\n      and\n      eq\n        /* \"@openzeppelin/contracts-upgradeable/utils/introspection/ERC165Upgradeable.sol\":1127:1174  return interfaceId == type(IERC165).interfaceId */\n      swap1\n      pop\n        /* \"@openzeppelin/contracts-upgradeable/utils/introspection/ERC165Upgradeable.sol\":1035:1181  function supportsInterface(bytes4 interfaceId) public view virtual returns (bool) {... */\n      swap2\n      swap1\n      pop\n      jump\t// out\n        /* \"@openzeppelin/contracts-upgradeable/access/OwnableUpgradeable.sol\":2658:2820  function _checkOwner() internal view virtual {... */\n    tag_110:\n        /* \"@openzeppelin/contracts-upgradeable/access/OwnableUpgradeable.sol\":2728:2740  _msgSender() */\n      tag_233\n        /* \"@openzeppelin/contracts-upgradeable/access/OwnableUpgradeable.sol\":2728:2738  _msgSender */\n      tag_135\n        /* \"@openzeppelin/contracts-upgradeable/access/OwnableUpgradeable.sol\":2728:2740  _msgSender() */\n      jump\t// in\n    tag_233:\n        /* \"@openzeppelin/contracts-upgradeable/access/OwnableUpgradeable.sol\":2717:2740  owner() != _msgSender() */\n      0xffffffffffffffffffffffffffffffffffffffff\n      and\n        /* \"@openzeppelin/contracts-upgradeable/access/OwnableUpgradeable.sol\":2717:2724  owner() */\n      tag_234\n        /* \"@openzeppelin/contracts-upgradeable/access/OwnableUpgradeable.sol\":2717:2722  owner */\n      tag_66\n        /* \"@openzeppelin/contracts-upgradeable/access/OwnableUpgradeable.sol\":2717:2724  owner() */\n      jump\t// in\n    tag_234:\n        /* \"@openzeppelin/contracts-upgradeable/access/OwnableUpgradeable.sol\":2717:2740  owner() != _msgSender() */\n      0xffffffffffffffffffffffffffffffffffffffff\n      and\n      eq\n        /* \"@openzeppelin/contracts-upgradeable/access/OwnableUpgradeable.sol\":2713:2814  if (owner() != _msgSender()) {... */\n      tag_235\n      jumpi\n        /* \"@openzeppelin/contracts-upgradeable/access/OwnableUpgradeable.sol\":2790:2802  _msgSender() */\n      tag_236\n        /* \"@openzeppelin/contracts-upgradeable/access/OwnableUpgradeable.sol\":2790:2800  _msgSender */\n      tag_135\n        /* \"@openzeppelin/contracts-upgradeable/access/OwnableUpgradeable.sol\":2790:2802  _msgSender() */\n      jump\t// in\n    tag_236:\n        /* \"@openzeppelin/contracts-upgradeable/access/OwnableUpgradeable.sol\":2763:2803  OwnableUnauthorizedAccount(_msgSender()) */\n      mload(0x40)\n      0x118cdaa700000000000000000000000000000000000000000000000000000000\n      dup2\n      mstore\n      0x04\n      add\n      tag_237\n      swap2\n      swap1\n      tag_68\n      jump\t// in\n    tag_237:\n      mload(0x40)\n      dup1\n      swap2\n      sub\n      swap1\n      revert\n        /* \"@openzeppelin/contracts-upgradeable/access/OwnableUpgradeable.sol\":2713:2814  if (owner() != _msgSender()) {... */\n    tag_235:\n        /* \"@openzeppelin/contracts-upgradeable/access/OwnableUpgradeable.sol\":2658:2820  function _checkOwner() internal view virtual {... */\n      jump\t// out\n        /* \"@openzeppelin/contracts-upgradeable/access/AccessControlUpgradeable.sol\":2787:2964  function _getAccessControlStorage() private pure returns (AccessControlStorage storage $) {... */\n    tag_115:\n        /* \"@openzeppelin/contracts-upgradeable/access/AccessControlUpgradeable.sol\":2845:2875  AccessControlStorage storage $ */\n      0x00\n        /* \"@openzeppelin/contracts-upgradeable/access/AccessControlUpgradeable.sol\":2920:2948  AccessControlStorageLocation */\n      0x02dd7bc7dec4dceedda775e58dd541e08a116c6c53815c0bd028192f7b626800\n        /* \"@openzeppelin/contracts-upgradeable/access/AccessControlUpgradeable.sol\":2910:2948  $.slot := AccessControlStorageLocation */\n      swap1\n      pop\n        /* \"@openzeppelin/contracts-upgradeable/access/AccessControlUpgradeable.sol\":2787:2964  function _getAccessControlStorage() private pure returns (AccessControlStorage storage $) {... */\n      swap1\n      jump\t// out\n        /* \"@openzeppelin/contracts-upgradeable/access/AccessControlUpgradeable.sol\":4148:4251  function _checkRole(bytes32 role) internal view virtual {... */\n    tag_121:\n        /* \"@openzeppelin/contracts-upgradeable/access/AccessControlUpgradeable.sol\":4214:4244  _checkRole(role, _msgSender()) */\n      tag_240\n        /* \"@openzeppelin/contracts-upgradeable/access/AccessControlUpgradeable.sol\":4225:4229  role */\n      dup2\n        /* \"@openzeppelin/contracts-upgradeable/access/AccessControlUpgradeable.sol\":4231:4243  _msgSender() */\n      tag_241\n        /* \"@openzeppelin/contracts-upgradeable/access/AccessControlUpgradeable.sol\":4231:4241  _msgSender */\n      tag_135\n        /* \"@openzeppelin/contracts-upgradeable/access/AccessControlUpgradeable.sol\":4231:4243  _msgSender() */\n      jump\t// in\n    tag_241:\n        /* \"@openzeppelin/contracts-upgradeable/access/AccessControlUpgradeable.sol\":4214:4224  _checkRole */\n      tag_242\n        /* \"@openzeppelin/contracts-upgradeable/access/AccessControlUpgradeable.sol\":4214:4244  _checkRole(role, _msgSender()) */\n      jump\t// in\n    tag_240:\n        /* \"@openzeppelin/contracts-upgradeable/access/AccessControlUpgradeable.sol\":4148:4251  function _checkRole(bytes32 role) internal view virtual {... */\n      pop\n      jump\t// out\n        /* \"@openzeppelin/contracts-upgradeable/access/AccessControlUpgradeable.sol\":7270:7657  function _grantRole(bytes32 role, address account) internal virtual returns (bool) {... */\n    tag_124:\n        /* \"@openzeppelin/contracts-upgradeable/access/AccessControlUpgradeable.sol\":7347:7351  bool */\n      0x00\n        /* \"@openzeppelin/contracts-upgradeable/access/AccessControlUpgradeable.sol\":7363:7393  AccessControlStorage storage $ */\n      dup1\n        /* \"@openzeppelin/contracts-upgradeable/access/AccessControlUpgradeable.sol\":7396:7422  _getAccessControlStorage() */\n      tag_244\n        /* \"@openzeppelin/contracts-upgradeable/access/AccessControlUpgradeable.sol\":7396:7420  _getAccessControlStorage */\n      tag_115\n        /* \"@openzeppelin/contracts-upgradeable/access/AccessControlUpgradeable.sol\":7396:7422  _getAccessControlStorage() */\n      jump\t// in\n    tag_244:\n        /* \"@openzeppelin/contracts-upgradeable/access/AccessControlUpgradeable.sol\":7363:7422  AccessControlStorage storage $ = _getAccessControlStorage() */\n      swap1\n      pop\n        /* \"@openzeppelin/contracts-upgradeable/access/AccessControlUpgradeable.sol\":7437:7459  hasRole(role, account) */\n      tag_245\n        /* \"@openzeppelin/contracts-upgradeable/access/AccessControlUpgradeable.sol\":7445:7449  role */\n      dup5\n        /* \"@openzeppelin/contracts-upgradeable/access/AccessControlUpgradeable.sol\":7451:7458  account */\n      dup5\n        /* \"@openzeppelin/contracts-upgradeable/access/AccessControlUpgradeable.sol\":7437:7444  hasRole */\n      tag_71\n        /* \"@openzeppelin/contracts-upgradeable/access/AccessControlUpgradeable.sol\":7437:7459  hasRole(role, account) */\n      jump\t// in\n    tag_245:\n        /* \"@openzeppelin/contracts-upgradeable/access/AccessControlUpgradeable.sol\":7432:7651  if (!hasRole(role, account)) {... */\n      tag_246\n      jumpi\n        /* \"@openzeppelin/contracts-upgradeable/access/AccessControlUpgradeable.sol\":7509:7513  true */\n      0x01\n        /* \"@openzeppelin/contracts-upgradeable/access/AccessControlUpgradeable.sol\":7475:7476  $ */\n      dup2\n        /* \"@openzeppelin/contracts-upgradeable/access/AccessControlUpgradeable.sol\":7475:7483  $._roles */\n      0x00\n      add\n        /* \"@openzeppelin/contracts-upgradeable/access/AccessControlUpgradeable.sol\":7475:7489  $._roles[role] */\n      0x00\n        /* \"@openzeppelin/contracts-upgradeable/access/AccessControlUpgradeable.sol\":7484:7488  role */\n      dup7\n        /* \"@openzeppelin/contracts-upgradeable/access/AccessControlUpgradeable.sol\":7475:7489  $._roles[role] */\n      dup2\n      mstore\n      0x20\n      add\n      swap1\n      dup2\n      mstore\n      0x20\n      add\n      0x00\n      keccak256\n        /* \"@openzeppelin/contracts-upgradeable/access/AccessControlUpgradeable.sol\":7475:7497  $._roles[role].hasRole */\n      0x00\n      add\n        /* \"@openzeppelin/contracts-upgradeable/access/AccessControlUpgradeable.sol\":7475:7506  $._roles[role].hasRole[account] */\n      0x00\n        /* \"@openzeppelin/contracts-upgradeable/access/AccessControlUpgradeable.sol\":7498:7505  account */\n      dup6\n        /* \"@openzeppelin/contracts-upgradeable/access/AccessControlUpgradeable.sol\":7475:7506  $._roles[role].hasRole[account] */\n      0xffffffffffffffffffffffffffffffffffffffff\n      and\n      0xffffffffffffffffffffffffffffffffffffffff\n      and\n      dup2\n      mstore\n      0x20\n      add\n      swap1\n      dup2\n      mstore\n      0x20\n      add\n      0x00\n      keccak256\n      0x00\n        /* \"@openzeppelin/contracts-upgradeable/access/AccessControlUpgradeable.sol\":7475:7513  $._roles[role].hasRole[account] = true */\n      0x0100\n      exp\n      dup2\n      sload\n      dup2\n      0xff\n      mul\n      not\n      and\n      swap1\n      dup4\n      iszero\n      iszero\n      mul\n      or\n      swap1\n      sstore\n      pop\n        /* \"@openzeppelin/contracts-upgradeable/access/AccessControlUpgradeable.sol\":7559:7571  _msgSender() */\n      tag_247\n        /* \"@openzeppelin/contracts-upgradeable/access/AccessControlUpgradeable.sol\":7559:7569  _msgSender */\n      tag_135\n        /* \"@openzeppelin/contracts-upgradeable/access/AccessControlUpgradeable.sol\":7559:7571  _msgSender() */\n      jump\t// in\n    tag_247:\n        /* \"@openzeppelin/contracts-upgradeable/access/AccessControlUpgradeable.sol\":7532:7572  RoleGranted(role, account, _msgSender()) */\n      0xffffffffffffffffffffffffffffffffffffffff\n      and\n        /* \"@openzeppelin/contracts-upgradeable/access/AccessControlUpgradeable.sol\":7550:7557  account */\n      dup4\n        /* \"@openzeppelin/contracts-upgradeable/access/AccessControlUpgradeable.sol\":7532:7572  RoleGranted(role, account, _msgSender()) */\n      0xffffffffffffffffffffffffffffffffffffffff\n      and\n        /* \"@openzeppelin/contracts-upgradeable/access/AccessControlUpgradeable.sol\":7544:7548  role */\n      dup6\n        /* \"@openzeppelin/contracts-upgradeable/access/AccessControlUpgradeable.sol\":7532:7572  RoleGranted(role, account, _msgSender()) */\n      0x2f8788117e7eff1d82e926ec794901d17c78024a50270940304540a733656f0d\n      mload(0x40)\n      mload(0x40)\n      dup1\n      swap2\n      sub\n      swap1\n      log4\n        /* \"@openzeppelin/contracts-upgradeable/access/AccessControlUpgradeable.sol\":7593:7597  true */\n      0x01\n        /* \"@openzeppelin/contracts-upgradeable/access/AccessControlUpgradeable.sol\":7586:7597  return true */\n      swap2\n      pop\n      pop\n      jump(tag_243)\n        /* \"@openzeppelin/contracts-upgradeable/access/AccessControlUpgradeable.sol\":7432:7651  if (!hasRole(role, account)) {... */\n    tag_246:\n        /* \"@openzeppelin/contracts-upgradeable/access/AccessControlUpgradeable.sol\":7635:7640  false */\n      0x00\n        /* \"@openzeppelin/contracts-upgradeable/access/AccessControlUpgradeable.sol\":7628:7640  return false */\n      swap2\n      pop\n      pop\n        /* \"@openzeppelin/contracts-upgradeable/access/AccessControlUpgradeable.sol\":7270:7657  function _grantRole(bytes32 role, address account) internal virtual returns (bool) {... */\n    tag_243:\n      swap3\n      swap2\n      pop\n      pop\n      jump\t// out\n        /* \"@openzeppelin/contracts-upgradeable/utils/ContextUpgradeable.sol\":887:983  function _msgSender() internal view virtual returns (address) {... */\n    tag_135:\n        /* \"@openzeppelin/contracts-upgradeable/utils/ContextUpgradeable.sol\":940:947  address */\n      0x00\n        /* \"@openzeppelin/contracts-upgradeable/utils/ContextUpgradeable.sol\":966:976  msg.sender */\n      caller\n        /* \"@openzeppelin/contracts-upgradeable/utils/ContextUpgradeable.sol\":959:976  return msg.sender */\n      swap1\n      pop\n        /* \"@openzeppelin/contracts-upgradeable/utils/ContextUpgradeable.sol\":887:983  function _msgSender() internal view virtual returns (address) {... */\n      swap1\n      jump\t// out\n        /* \"@openzeppelin/contracts-upgradeable/access/AccessControlUpgradeable.sol\":7892:8280  function _revokeRole(bytes32 role, address account) internal virtual returns (bool) {... */\n    tag_138:\n        /* \"@openzeppelin/contracts-upgradeable/access/AccessControlUpgradeable.sol\":7970:7974  bool */\n      0x00\n        /* \"@openzeppelin/contracts-upgradeable/access/AccessControlUpgradeable.sol\":7986:8016  AccessControlStorage storage $ */\n      dup1\n        /* \"@openzeppelin/contracts-upgradeable/access/AccessControlUpgradeable.sol\":8019:8045  _getAccessControlStorage() */\n      tag_251\n        /* \"@openzeppelin/contracts-upgradeable/access/AccessControlUpgradeable.sol\":8019:8043  _getAccessControlStorage */\n      tag_115\n        /* \"@openzeppelin/contracts-upgradeable/access/AccessControlUpgradeable.sol\":8019:8045  _getAccessControlStorage() */\n      jump\t// in\n    tag_251:\n        /* \"@openzeppelin/contracts-upgradeable/access/AccessControlUpgradeable.sol\":7986:8045  AccessControlStorage storage $ = _getAccessControlStorage() */\n      swap1\n      pop\n        /* \"@openzeppelin/contracts-upgradeable/access/AccessControlUpgradeable.sol\":8059:8081  hasRole(role, account) */\n      tag_252\n        /* \"@openzeppelin/contracts-upgradeable/access/AccessControlUpgradeable.sol\":8067:8071  role */\n      dup5\n        /* \"@openzeppelin/contracts-upgradeable/access/AccessControlUpgradeable.sol\":8073:8080  account */\n      dup5\n        /* \"@openzeppelin/contracts-upgradeable/access/AccessControlUpgradeable.sol\":8059:8066  hasRole */\n      tag_71\n        /* \"@openzeppelin/contracts-upgradeable/access/AccessControlUpgradeable.sol\":8059:8081  hasRole(role, account) */\n      jump\t// in\n    tag_252:\n        /* \"@openzeppelin/contracts-upgradeable/access/AccessControlUpgradeable.sol\":8055:8274  if (hasRole(role, account)) {... */\n      iszero\n      tag_253\n      jumpi\n        /* \"@openzeppelin/contracts-upgradeable/access/AccessControlUpgradeable.sol\":8131:8136  false */\n      0x00\n        /* \"@openzeppelin/contracts-upgradeable/access/AccessControlUpgradeable.sol\":8097:8098  $ */\n      dup2\n        /* \"@openzeppelin/contracts-upgradeable/access/AccessControlUpgradeable.sol\":8097:8105  $._roles */\n      0x00\n      add\n        /* \"@openzeppelin/contracts-upgradeable/access/AccessControlUpgradeable.sol\":8097:8111  $._roles[role] */\n      0x00\n        /* \"@openzeppelin/contracts-upgradeable/access/AccessControlUpgradeable.sol\":8106:8110  role */\n      dup7\n        /* \"@openzeppelin/contracts-upgradeable/access/AccessControlUpgradeable.sol\":8097:8111  $._roles[role] */\n      dup2\n      mstore\n      0x20\n      add\n      swap1\n      dup2\n      mstore\n      0x20\n      add\n      0x00\n      keccak256\n        /* \"@openzeppelin/contracts-upgradeable/access/AccessControlUpgradeable.sol\":8097:8119  $._roles[role].hasRole */\n      0x00\n      add\n        /* \"@openzeppelin/contracts-upgradeable/access/AccessControlUpgradeable.sol\":8097:8128  $._roles[role].hasRole[account] */\n      0x00\n        /* \"@openzeppelin/contracts-upgradeable/access/AccessControlUpgradeable.sol\":8120:8127  account */\n      dup6\n        /* \"@openzeppelin/contracts-upgradeable/access/AccessControlUpgradeable.sol\":8097:8128  $._roles[role].hasRole[account] */\n      0xffffffffffffffffffffffffffffffffffffffff\n      and\n      0xffffffffffffffffffffffffffffffffffffffff\n      and\n      dup2\n      mstore\n      0x20\n      add\n      swap1\n      dup2\n      mstore\n      0x20\n      add\n      0x00\n      keccak256\n      0x00\n        /* \"@openzeppelin/contracts-upgradeable/access/AccessControlUpgradeable.sol\":8097:8136  $._roles[role].hasRole[account] = false */\n      0x0100\n      exp\n      dup2\n      sload\n      dup2\n      0xff\n      mul\n      not\n      and\n      swap1\n      dup4\n      iszero\n      iszero\n      mul\n      or\n      swap1\n      sstore\n      pop\n        /* \"@openzeppelin/contracts-upgradeable/access/AccessControlUpgradeable.sol\":8182:8194  _msgSender() */\n      tag_254\n        /* \"@openzeppelin/contracts-upgradeable/access/AccessControlUpgradeable.sol\":8182:8192  _msgSender */\n      tag_135\n        /* \"@openzeppelin/contracts-upgradeable/access/AccessControlUpgradeable.sol\":8182:8194  _msgSender() */\n      jump\t// in\n    tag_254:\n        /* \"@openzeppelin/contracts-upgradeable/access/AccessControlUpgradeable.sol\":8155:8195  RoleRevoked(role, account, _msgSender()) */\n      0xffffffffffffffffffffffffffffffffffffffff\n      and\n        /* \"@openzeppelin/contracts-upgradeable/access/AccessControlUpgradeable.sol\":8173:8180  account */\n      dup4\n        /* \"@openzeppelin/contracts-upgradeable/access/AccessControlUpgradeable.sol\":8155:8195  RoleRevoked(role, account, _msgSender()) */\n      0xffffffffffffffffffffffffffffffffffffffff\n      and\n        /* \"@openzeppelin/contracts-upgradeable/access/AccessControlUpgradeable.sol\":8167:8171  role */\n      dup6\n        /* \"@openzeppelin/contracts-upgradeable/access/AccessControlUpgradeable.sol\":8155:8195  RoleRevoked(role, account, _msgSender()) */\n      0xf6391f5c32d9c69d2a47ea670b442974b53935d1edc7fd64eb21e047a839171b\n      mload(0x40)\n      mload(0x40)\n      dup1\n      swap2\n      sub\n      swap1\n      log4\n        /* \"@openzeppelin/contracts-upgradeable/access/AccessControlUpgradeable.sol\":8216:8220  true */\n      0x01\n        /* \"@openzeppelin/contracts-upgradeable/access/AccessControlUpgradeable.sol\":8209:8220  return true */\n      swap2\n      pop\n      pop\n      jump(tag_250)\n        /* \"@openzeppelin/contracts-upgradeable/access/AccessControlUpgradeable.sol\":8055:8274  if (hasRole(role, account)) {... */\n    tag_253:\n        /* \"@openzeppelin/contracts-upgradeable/access/AccessControlUpgradeable.sol\":8258:8263  false */\n      0x00\n        /* \"@openzeppelin/contracts-upgradeable/access/AccessControlUpgradeable.sol\":8251:8263  return false */\n      swap2\n      pop\n      pop\n        /* \"@openzeppelin/contracts-upgradeable/access/AccessControlUpgradeable.sol\":7892:8280  function _revokeRole(bytes32 role, address account) internal virtual returns (bool) {... */\n    tag_250:\n      swap3\n      swap2\n      pop\n      pop\n      jump\t// out\n        /* \"@openzeppelin/contracts-upgradeable/access/OwnableUpgradeable.sol\":3774:4022  function _transferOwnership(address newOwner) internal virtual {... */\n    tag_147:\n        /* \"@openzeppelin/contracts-upgradeable/access/OwnableUpgradeable.sol\":3847:3871  OwnableStorage storage $ */\n      0x00\n        /* \"@openzeppelin/contracts-upgradeable/access/OwnableUpgradeable.sol\":3874:3894  _getOwnableStorage() */\n      tag_257\n        /* \"@openzeppelin/contracts-upgradeable/access/OwnableUpgradeable.sol\":3874:3892  _getOwnableStorage */\n      tag_150\n        /* \"@openzeppelin/contracts-upgradeable/access/OwnableUpgradeable.sol\":3874:3894  _getOwnableStorage() */\n      jump\t// in\n    tag_257:\n        /* \"@openzeppelin/contracts-upgradeable/access/OwnableUpgradeable.sol\":3847:3894  OwnableStorage storage $ = _getOwnableStorage() */\n      swap1\n      pop\n        /* \"@openzeppelin/contracts-upgradeable/access/OwnableUpgradeable.sol\":3904:3920  address oldOwner */\n      0x00\n        /* \"@openzeppelin/contracts-upgradeable/access/OwnableUpgradeable.sol\":3923:3924  $ */\n      dup2\n        /* \"@openzeppelin/contracts-upgradeable/access/OwnableUpgradeable.sol\":3923:3931  $._owner */\n      0x00\n      add\n      0x00\n      swap1\n      sload\n      swap1\n      0x0100\n      exp\n      swap1\n      div\n      0xffffffffffffffffffffffffffffffffffffffff\n      and\n        /* \"@openzeppelin/contracts-upgradeable/access/OwnableUpgradeable.sol\":3904:3931  address oldOwner = $._owner */\n      swap1\n      pop\n        /* \"@openzeppelin/contracts-upgradeable/access/OwnableUpgradeable.sol\":3952:3960  newOwner */\n      dup3\n        /* \"@openzeppelin/contracts-upgradeable/access/OwnableUpgradeable.sol\":3941:3942  $ */\n      dup3\n        /* \"@openzeppelin/contracts-upgradeable/access/OwnableUpgradeable.sol\":3941:3949  $._owner */\n      0x00\n      add\n      0x00\n        /* \"@openzeppelin/contracts-upgradeable/access/OwnableUpgradeable.sol\":3941:3960  $._owner = newOwner */\n      0x0100\n      exp\n      dup2\n      sload\n      dup2\n      0xffffffffffffffffffffffffffffffffffffffff\n      mul\n      not\n      and\n      swap1\n      dup4\n      0xffffffffffffffffffffffffffffffffffffffff\n      and\n      mul\n      or\n      swap1\n      sstore\n      pop\n        /* \"@openzeppelin/contracts-upgradeable/access/OwnableUpgradeable.sol\":4006:4014  newOwner */\n      dup3\n        /* \"@openzeppelin/contracts-upgradeable/access/OwnableUpgradeable.sol\":3975:4015  OwnershipTransferred(oldOwner, newOwner) */\n      0xffffffffffffffffffffffffffffffffffffffff\n      and\n        /* \"@openzeppelin/contracts-upgradeable/access/OwnableUpgradeable.sol\":3996:4004  oldOwner */\n      dup2\n        /* \"@openzeppelin/contracts-upgradeable/access/OwnableUpgradeable.sol\":3975:4015  OwnershipTransferred(oldOwner, newOwner) */\n      0xffffffffffffffffffffffffffffffffffffffff\n      and\n      0x8be0079c531659141344cd1fd0a4f28419497f9722a3daafe3b4186f6b6457e0\n      mload(0x40)\n      mload(0x40)\n      dup1\n      swap2\n      sub\n      swap1\n      log3\n        /* \"@openzeppelin/contracts-upgradeable/access/OwnableUpgradeable.sol\":3837:4022  {... */\n      pop\n      pop\n        /* \"@openzeppelin/contracts-upgradeable/access/OwnableUpgradeable.sol\":3774:4022  function _transferOwnership(address newOwner) internal virtual {... */\n      pop\n      jump\t// out\n        /* \"@openzeppelin/contracts-upgradeable/access/OwnableUpgradeable.sol\":1192:1351  function _getOwnableStorage() private pure returns (OwnableStorage storage $) {... */\n    tag_150:\n        /* \"@openzeppelin/contracts-upgradeable/access/OwnableUpgradeable.sol\":1244:1268  OwnableStorage storage $ */\n      0x00\n        /* \"@openzeppelin/contracts-upgradeable/access/OwnableUpgradeable.sol\":1313:1335  OwnableStorageLocation */\n      0x9016d09d72d40fdae2fd8ceac6b6234c7706214fd39c1cd1e609a0528c199300\n        /* \"@openzeppelin/contracts-upgradeable/access/OwnableUpgradeable.sol\":1303:1335  $.slot := OwnableStorageLocation */\n      swap1\n      pop\n        /* \"@openzeppelin/contracts-upgradeable/access/OwnableUpgradeable.sol\":1192:1351  function _getOwnableStorage() private pure returns (OwnableStorage storage $) {... */\n      swap1\n      jump\t// out\n        /* \"@openzeppelin/contracts-upgradeable/proxy/utils/Initializable.sol\":8737:8907  function _getInitializableStorage() private pure returns (InitializableStorage storage $) {... */\n    tag_187:\n        /* \"@openzeppelin/contracts-upgradeable/proxy/utils/Initializable.sol\":8795:8825  InitializableStorage storage $ */\n      0x00\n        /* \"@openzeppelin/contracts-upgradeable/proxy/utils/Initializable.sol\":8870:8891  INITIALIZABLE_STORAGE */\n      0xf0c57e16840df040f15088dc2f81fe391c3923bec73e23a9662efc9c229c6a00\n        /* \"@openzeppelin/contracts-upgradeable/proxy/utils/Initializable.sol\":8860:8891  $.slot := INITIALIZABLE_STORAGE */\n      swap1\n      pop\n        /* \"@openzeppelin/contracts-upgradeable/proxy/utils/Initializable.sol\":8737:8907  function _getInitializableStorage() private pure returns (InitializableStorage storage $) {... */\n      swap1\n      jump\t// out\n        /* \"@openzeppelin/contracts-upgradeable/access/OwnableUpgradeable.sol\":1847:1974  function __Ownable_init(address initialOwner) internal onlyInitializing {... */\n    tag_195:\n        /* \"@openzeppelin/contracts-upgradeable/proxy/utils/Initializable.sol\":6931:6951  _checkInitializing() */\n      tag_261\n        /* \"@openzeppelin/contracts-upgradeable/proxy/utils/Initializable.sol\":6931:6949  _checkInitializing */\n      tag_262\n        /* \"@openzeppelin/contracts-upgradeable/proxy/utils/Initializable.sol\":6931:6951  _checkInitializing() */\n      jump\t// in\n    tag_261:\n        /* \"@openzeppelin/contracts-upgradeable/access/OwnableUpgradeable.sol\":1929:1967  __Ownable_init_unchained(initialOwner) */\n      tag_264\n        /* \"@openzeppelin/contracts-upgradeable/access/OwnableUpgradeable.sol\":1954:1966  initialOwner */\n      dup2\n        /* \"@openzeppelin/contracts-upgradeable/access/OwnableUpgradeable.sol\":1929:1953  __Ownable_init_unchained */\n      tag_265\n        /* \"@openzeppelin/contracts-upgradeable/access/OwnableUpgradeable.sol\":1929:1967  __Ownable_init_unchained(initialOwner) */\n      jump\t// in\n    tag_264:\n        /* \"@openzeppelin/contracts-upgradeable/access/OwnableUpgradeable.sol\":1847:1974  function __Ownable_init(address initialOwner) internal onlyInitializing {... */\n      pop\n      jump\t// out\n        /* \"@openzeppelin/contracts-upgradeable/access/AccessControlUpgradeable.sol\":3231:3296  function __AccessControl_init() internal onlyInitializing {... */\n    tag_197:\n        /* \"@openzeppelin/contracts-upgradeable/proxy/utils/Initializable.sol\":6931:6951  _checkInitializing() */\n      tag_267\n        /* \"@openzeppelin/contracts-upgradeable/proxy/utils/Initializable.sol\":6931:6949  _checkInitializing */\n      tag_262\n        /* \"@openzeppelin/contracts-upgradeable/proxy/utils/Initializable.sol\":6931:6951  _checkInitializing() */\n      jump\t// in\n    tag_267:\n        /* \"@openzeppelin/contracts-upgradeable/access/AccessControlUpgradeable.sol\":3231:3296  function __AccessControl_init() internal onlyInitializing {... */\n      jump\t// out\n        /* \"@openzeppelin/contracts-upgradeable/access/AccessControlUpgradeable.sol\":4381:4578  function _checkRole(bytes32 role, address account) internal view virtual {... */\n    tag_242:\n        /* \"@openzeppelin/contracts-upgradeable/access/AccessControlUpgradeable.sol\":4469:4491  hasRole(role, account) */\n      tag_270\n        /* \"@openzeppelin/contracts-upgradeable/access/AccessControlUpgradeable.sol\":4477:4481  role */\n      dup3\n        /* \"@openzeppelin/contracts-upgradeable/access/AccessControlUpgradeable.sol\":4483:4490  account */\n      dup3\n        /* \"@openzeppelin/contracts-upgradeable/access/AccessControlUpgradeable.sol\":4469:4476  hasRole */\n      tag_71\n        /* \"@openzeppelin/contracts-upgradeable/access/AccessControlUpgradeable.sol\":4469:4491  hasRole(role, account) */\n      jump\t// in\n    tag_270:\n        /* \"@openzeppelin/contracts-upgradeable/access/AccessControlUpgradeable.sol\":4464:4572  if (!hasRole(role, account)) {... */\n      tag_271\n      jumpi\n        /* \"@openzeppelin/contracts-upgradeable/access/AccessControlUpgradeable.sol\":4547:4554  account */\n      dup1\n        /* \"@openzeppelin/contracts-upgradeable/access/AccessControlUpgradeable.sol\":4556:4560  role */\n      dup3\n        /* \"@openzeppelin/contracts-upgradeable/access/AccessControlUpgradeable.sol\":4514:4561  AccessControlUnauthorizedAccount(account, role) */\n      mload(0x40)\n      0xe2517d3f00000000000000000000000000000000000000000000000000000000\n      dup2\n      mstore\n      0x04\n      add\n      tag_272\n      swap3\n      swap2\n      swap1\n      tag_273\n      jump\t// in\n    tag_272:\n      mload(0x40)\n      dup1\n      swap2\n      sub\n      swap1\n      revert\n        /* \"@openzeppelin/contracts-upgradeable/access/AccessControlUpgradeable.sol\":4464:4572  if (!hasRole(role, account)) {... */\n    tag_271:\n        /* \"@openzeppelin/contracts-upgradeable/access/AccessControlUpgradeable.sol\":4381:4578  function _checkRole(bytes32 role, address account) internal view virtual {... */\n      pop\n      pop\n      jump\t// out\n        /* \"@openzeppelin/contracts-upgradeable/proxy/utils/Initializable.sol\":7084:7225  function _checkInitializing() internal view virtual {... */\n    tag_262:\n        /* \"@openzeppelin/contracts-upgradeable/proxy/utils/Initializable.sol\":7151:7168  _isInitializing() */\n      tag_275\n        /* \"@openzeppelin/contracts-upgradeable/proxy/utils/Initializable.sol\":7151:7166  _isInitializing */\n      tag_276\n        /* \"@openzeppelin/contracts-upgradeable/proxy/utils/Initializable.sol\":7151:7168  _isInitializing() */\n      jump\t// in\n    tag_275:\n        /* \"@openzeppelin/contracts-upgradeable/proxy/utils/Initializable.sol\":7146:7219  if (!_isInitializing()) {... */\n      tag_277\n      jumpi\n        /* \"@openzeppelin/contracts-upgradeable/proxy/utils/Initializable.sol\":7191:7208  NotInitializing() */\n      mload(0x40)\n      0xd7e6bcf800000000000000000000000000000000000000000000000000000000\n      dup2\n      mstore\n      0x04\n      add\n      mload(0x40)\n      dup1\n      swap2\n      sub\n      swap1\n      revert\n        /* \"@openzeppelin/contracts-upgradeable/proxy/utils/Initializable.sol\":7146:7219  if (!_isInitializing()) {... */\n    tag_277:\n        /* \"@openzeppelin/contracts-upgradeable/proxy/utils/Initializable.sol\":7084:7225  function _checkInitializing() internal view virtual {... */\n      jump\t// out\n        /* \"@openzeppelin/contracts-upgradeable/access/OwnableUpgradeable.sol\":1980:2215  function __Ownable_init_unchained(address initialOwner) internal onlyInitializing {... */\n    tag_265:\n        /* \"@openzeppelin/contracts-upgradeable/proxy/utils/Initializable.sol\":6931:6951  _checkInitializing() */\n      tag_279\n        /* \"@openzeppelin/contracts-upgradeable/proxy/utils/Initializable.sol\":6931:6949  _checkInitializing */\n      tag_262\n        /* \"@openzeppelin/contracts-upgradeable/proxy/utils/Initializable.sol\":6931:6951  _checkInitializing() */\n      jump\t// in\n    tag_279:\n        /* \"@openzeppelin/contracts-upgradeable/access/OwnableUpgradeable.sol\":2100:2101  0 */\n      0x00\n        /* \"@openzeppelin/contracts-upgradeable/access/OwnableUpgradeable.sol\":2076:2102  initialOwner == address(0) */\n      0xffffffffffffffffffffffffffffffffffffffff\n      and\n        /* \"@openzeppelin/contracts-upgradeable/access/OwnableUpgradeable.sol\":2076:2088  initialOwner */\n      dup2\n        /* \"@openzeppelin/contracts-upgradeable/access/OwnableUpgradeable.sol\":2076:2102  initialOwner == address(0) */\n      0xffffffffffffffffffffffffffffffffffffffff\n      and\n      sub\n        /* \"@openzeppelin/contracts-upgradeable/access/OwnableUpgradeable.sol\":2072:2167  if (initialOwner == address(0)) {... */\n      tag_281\n      jumpi\n        /* \"@openzeppelin/contracts-upgradeable/access/OwnableUpgradeable.sol\":2153:2154  0 */\n      0x00\n        /* \"@openzeppelin/contracts-upgradeable/access/OwnableUpgradeable.sol\":2125:2156  OwnableInvalidOwner(address(0)) */\n      mload(0x40)\n      0x1e4fbdf700000000000000000000000000000000000000000000000000000000\n      dup2\n      mstore\n      0x04\n      add\n      tag_282\n      swap2\n      swap1\n      tag_68\n      jump\t// in\n    tag_282:\n      mload(0x40)\n      dup1\n      swap2\n      sub\n      swap1\n      revert\n        /* \"@openzeppelin/contracts-upgradeable/access/OwnableUpgradeable.sol\":2072:2167  if (initialOwner == address(0)) {... */\n    tag_281:\n        /* \"@openzeppelin/contracts-upgradeable/access/OwnableUpgradeable.sol\":2176:2208  _transferOwnership(initialOwner) */\n      tag_283\n        /* \"@openzeppelin/contracts-upgradeable/access/OwnableUpgradeable.sol\":2195:2207  initialOwner */\n      dup2\n        /* \"@openzeppelin/contracts-upgradeable/access/OwnableUpgradeable.sol\":2176:2194  _transferOwnership */\n      tag_147\n        /* \"@openzeppelin/contracts-upgradeable/access/OwnableUpgradeable.sol\":2176:2208  _transferOwnership(initialOwner) */\n      jump\t// in\n    tag_283:\n        /* \"@openzeppelin/contracts-upgradeable/access/OwnableUpgradeable.sol\":1980:2215  function __Ownable_init_unchained(address initialOwner) internal onlyInitializing {... */\n      pop\n      jump\t// out\n        /* \"@openzeppelin/contracts-upgradeable/proxy/utils/Initializable.sol\":8487:8607  function _isInitializing() internal view returns (bool) {... */\n    tag_276:\n        /* \"@openzeppelin/contracts-upgradeable/proxy/utils/Initializable.sol\":8537:8541  bool */\n      0x00\n        /* \"@openzeppelin/contracts-upgradeable/proxy/utils/Initializable.sol\":8560:8586  _getInitializableStorage() */\n      tag_285\n        /* \"@openzeppelin/contracts-upgradeable/proxy/utils/Initializable.sol\":8560:8584  _getInitializableStorage */\n      tag_187\n        /* \"@openzeppelin/contracts-upgradeable/proxy/utils/Initializable.sol\":8560:8586  _getInitializableStorage() */\n      jump\t// in\n    tag_285:\n        /* \"@openzeppelin/contracts-upgradeable/proxy/utils/Initializable.sol\":8560:8600  _getInitializableStorage()._initializing */\n      0x00\n      add\n      0x08\n      swap1\n      sload\n      swap1\n      0x0100\n      exp\n      swap1\n      div\n      0xff\n      and\n        /* \"@openzeppelin/contracts-upgradeable/proxy/utils/Initializable.sol\":8553:8600  return _getInitializableStorage()._initializing */\n      swap1\n      pop\n        /* \"@openzeppelin/contracts-upgradeable/proxy/utils/Initializable.sol\":8487:8607  function _isInitializing() internal view returns (bool) {... */\n      swap1\n      jump\t// out\n    tag_181:\n      pop\n      dup1\n      sload\n      tag_286\n      swap1\n      tag_213\n      jump\t// in\n    tag_286:\n      0x00\n      dup3\n      sstore\n      dup1\n      0x1f\n      lt\n      tag_288\n      jumpi\n      pop\n      jump(tag_287)\n    tag_288:\n      0x1f\n      add\n      0x20\n      swap1\n      div\n      swap1\n      0x00\n      mstore\n      keccak256(0x00, 0x20)\n      swap1\n      dup2\n      add\n      swap1\n      tag_289\n      swap2\n      swap1\n      tag_290\n      jump\t// in\n    tag_289:\n    tag_287:\n      pop\n      jump\t// out\n    tag_290:\n    tag_291:\n      dup1\n      dup3\n      gt\n      iszero\n      tag_292\n      jumpi\n      0x00\n      dup2\n      0x00\n      swap1\n      sstore\n      pop\n      0x01\n      add\n      jump(tag_291)\n    tag_292:\n      pop\n      swap1\n      jump\t// out\n        /* \"#utility.yul\":7:82   */\n    tag_293:\n        /* \"#utility.yul\":40:46   */\n      0x00\n        /* \"#utility.yul\":73:75   */\n      0x40\n        /* \"#utility.yul\":67:76   */\n      mload\n        /* \"#utility.yul\":57:76   */\n      swap1\n      pop\n        /* \"#utility.yul\":7:82   */\n      swap1\n      jump\t// out\n        /* \"#utility.yul\":88:205   */\n    tag_294:\n        /* \"#utility.yul\":197:198   */\n      0x00\n        /* \"#utility.yul\":194:195   */\n      dup1\n        /* \"#utility.yul\":187:199   */\n      revert\n        /* \"#utility.yul\":211:328   */\n    tag_295:\n        /* \"#utility.yul\":320:321   */\n      0x00\n        /* \"#utility.yul\":317:318   */\n      dup1\n        /* \"#utility.yul\":310:322   */\n      revert\n        /* \"#utility.yul\":334:483   */\n    tag_296:\n        /* \"#utility.yul\":370:377   */\n      0x00\n        /* \"#utility.yul\":410:476   */\n      0xffffffff00000000000000000000000000000000000000000000000000000000\n        /* \"#utility.yul\":403:408   */\n      dup3\n        /* \"#utility.yul\":399:477   */\n      and\n        /* \"#utility.yul\":388:477   */\n      swap1\n      pop\n        /* \"#utility.yul\":334:483   */\n      swap2\n      swap1\n      pop\n      jump\t// out\n        /* \"#utility.yul\":489:609   */\n    tag_297:\n        /* \"#utility.yul\":561:584   */\n      tag_364\n        /* \"#utility.yul\":578:583   */\n      dup2\n        /* \"#utility.yul\":561:584   */\n      tag_296\n      jump\t// in\n    tag_364:\n        /* \"#utility.yul\":554:559   */\n      dup2\n        /* \"#utility.yul\":551:585   */\n      eq\n        /* \"#utility.yul\":541:603   */\n      tag_365\n      jumpi\n        /* \"#utility.yul\":599:600   */\n      0x00\n        /* \"#utility.yul\":596:597   */\n      dup1\n        /* \"#utility.yul\":589:601   */\n      revert\n        /* \"#utility.yul\":541:603   */\n    tag_365:\n        /* \"#utility.yul\":489:609   */\n      pop\n      jump\t// out\n        /* \"#utility.yul\":615:752   */\n    tag_298:\n        /* \"#utility.yul\":660:665   */\n      0x00\n        /* \"#utility.yul\":698:704   */\n      dup2\n        /* \"#utility.yul\":685:705   */\n      calldataload\n        /* \"#utility.yul\":676:705   */\n      swap1\n      pop\n        /* \"#utility.yul\":714:746   */\n      tag_367\n        /* \"#utility.yul\":740:745   */\n      dup2\n        /* \"#utility.yul\":714:746   */\n      tag_297\n      jump\t// in\n    tag_367:\n        /* \"#utility.yul\":615:752   */\n      swap3\n      swap2\n      pop\n      pop\n      jump\t// out\n        /* \"#utility.yul\":758:1085   */\n    tag_28:\n        /* \"#utility.yul\":816:822   */\n      0x00\n        /* \"#utility.yul\":865:867   */\n      0x20\n        /* \"#utility.yul\":853:862   */\n      dup3\n        /* \"#utility.yul\":844:851   */\n      dup5\n        /* \"#utility.yul\":840:863   */\n      sub\n        /* \"#utility.yul\":836:868   */\n      slt\n        /* \"#utility.yul\":833:952   */\n      iszero\n      tag_369\n      jumpi\n        /* \"#utility.yul\":871:950   */\n      tag_370\n      tag_294\n      jump\t// in\n    tag_370:\n        /* \"#utility.yul\":833:952   */\n    tag_369:\n        /* \"#utility.yul\":991:992   */\n      0x00\n        /* \"#utility.yul\":1016:1068   */\n      tag_371\n        /* \"#utility.yul\":1060:1067   */\n      dup5\n        /* \"#utility.yul\":1051:1057   */\n      dup3\n        /* \"#utility.yul\":1040:1049   */\n      dup6\n        /* \"#utility.yul\":1036:1058   */\n      add\n        /* \"#utility.yul\":1016:1068   */\n      tag_298\n      jump\t// in\n    tag_371:\n        /* \"#utility.yul\":1006:1068   */\n      swap2\n      pop\n        /* \"#utility.yul\":962:1078   */\n      pop\n        /* \"#utility.yul\":758:1085   */\n      swap3\n      swap2\n      pop\n      pop\n      jump\t// out\n        /* \"#utility.yul\":1091:1181   */\n    tag_299:\n        /* \"#utility.yul\":1125:1132   */\n      0x00\n        /* \"#utility.yul\":1168:1173   */\n      dup2\n        /* \"#utility.yul\":1161:1174   */\n      iszero\n        /* \"#utility.yul\":1154:1175   */\n      iszero\n        /* \"#utility.yul\":1143:1175   */\n      swap1\n      pop\n        /* \"#utility.yul\":1091:1181   */\n      swap2\n      swap1\n      pop\n      jump\t// out\n        /* \"#utility.yul\":1187:1296   */\n    tag_300:\n        /* \"#utility.yul\":1268:1289   */\n      tag_374\n        /* \"#utility.yul\":1283:1288   */\n      dup2\n        /* \"#utility.yul\":1268:1289   */\n      tag_299\n      jump\t// in\n    tag_374:\n        /* \"#utility.yul\":1263:1266   */\n      dup3\n        /* \"#utility.yul\":1256:1290   */\n      mstore\n        /* \"#utility.yul\":1187:1296   */\n      pop\n      pop\n      jump\t// out\n        /* \"#utility.yul\":1302:1512   */\n    tag_31:\n        /* \"#utility.yul\":1389:1393   */\n      0x00\n        /* \"#utility.yul\":1427:1429   */\n      0x20\n        /* \"#utility.yul\":1416:1425   */\n      dup3\n        /* \"#utility.yul\":1412:1430   */\n      add\n        /* \"#utility.yul\":1404:1430   */\n      swap1\n      pop\n        /* \"#utility.yul\":1440:1505   */\n      tag_376\n        /* \"#utility.yul\":1502:1503   */\n      0x00\n        /* \"#utility.yul\":1491:1500   */\n      dup4\n        /* \"#utility.yul\":1487:1504   */\n      add\n        /* \"#utility.yul\":1478:1484   */\n      dup5\n        /* \"#utility.yul\":1440:1505   */\n      tag_300\n      jump\t// in\n    tag_376:\n        /* \"#utility.yul\":1302:1512   */\n      swap3\n      swap2\n      pop\n      pop\n      jump\t// out\n        /* \"#utility.yul\":1518:1644   */\n    tag_301:\n        /* \"#utility.yul\":1555:1562   */\n      0x00\n        /* \"#utility.yul\":1595:1637   */\n      0xffffffffffffffffffffffffffffffffffffffff\n        /* \"#utility.yul\":1588:1593   */\n      dup3\n        /* \"#utility.yul\":1584:1638   */\n      and\n        /* \"#utility.yul\":1573:1638   */\n      swap1\n      pop\n        /* \"#utility.yul\":1518:1644   */\n      swap2\n      swap1\n      pop\n      jump\t// out\n        /* \"#utility.yul\":1650:1746   */\n    tag_302:\n        /* \"#utility.yul\":1687:1694   */\n      0x00\n        /* \"#utility.yul\":1716:1740   */\n      tag_379\n        /* \"#utility.yul\":1734:1739   */\n      dup3\n        /* \"#utility.yul\":1716:1740   */\n      tag_301\n      jump\t// in\n    tag_379:\n        /* \"#utility.yul\":1705:1740   */\n      swap1\n      pop\n        /* \"#utility.yul\":1650:1746   */\n      swap2\n      swap1\n      pop\n      jump\t// out\n        /* \"#utility.yul\":1752:1874   */\n    tag_303:\n        /* \"#utility.yul\":1825:1849   */\n      tag_381\n        /* \"#utility.yul\":1843:1848   */\n      dup2\n        /* \"#utility.yul\":1825:1849   */\n      tag_302\n      jump\t// in\n    tag_381:\n        /* \"#utility.yul\":1818:1823   */\n      dup2\n        /* \"#utility.yul\":1815:1850   */\n      eq\n        /* \"#utility.yul\":1805:1868   */\n      tag_382\n      jumpi\n        /* \"#utility.yul\":1864:1865   */\n      0x00\n        /* \"#utility.yul\":1861:1862   */\n      dup1\n        /* \"#utility.yul\":1854:1866   */\n      revert\n        /* \"#utility.yul\":1805:1868   */\n    tag_382:\n        /* \"#utility.yul\":1752:1874   */\n      pop\n      jump\t// out\n        /* \"#utility.yul\":1880:2019   */\n    tag_304:\n        /* \"#utility.yul\":1926:1931   */\n      0x00\n        /* \"#utility.yul\":1964:1970   */\n      dup2\n        /* \"#utility.yul\":1951:1971   */\n      calldataload\n        /* \"#utility.yul\":1942:1971   */\n      swap1\n      pop\n        /* \"#utility.yul\":1980:2013   */\n      tag_384\n        /* \"#utility.yul\":2007:2012   */\n      dup2\n        /* \"#utility.yul\":1980:2013   */\n      tag_303\n      jump\t// in\n    tag_384:\n        /* \"#utility.yul\":1880:2019   */\n      swap3\n      swap2\n      pop\n      pop\n      jump\t// out\n        /* \"#utility.yul\":2025:2354   */\n    tag_34:\n        /* \"#utility.yul\":2084:2090   */\n      0x00\n        /* \"#utility.yul\":2133:2135   */\n      0x20\n        /* \"#utility.yul\":2121:2130   */\n      dup3\n        /* \"#utility.yul\":2112:2119   */\n      dup5\n        /* \"#utility.yul\":2108:2131   */\n      sub\n        /* \"#utility.yul\":2104:2136   */\n      slt\n        /* \"#utility.yul\":2101:2220   */\n      iszero\n      tag_386\n      jumpi\n        /* \"#utility.yul\":2139:2218   */\n      tag_387\n      tag_294\n      jump\t// in\n    tag_387:\n        /* \"#utility.yul\":2101:2220   */\n    tag_386:\n        /* \"#utility.yul\":2259:2260   */\n      0x00\n        /* \"#utility.yul\":2284:2337   */\n      tag_388\n        /* \"#utility.yul\":2329:2336   */\n      dup5\n        /* \"#utility.yul\":2320:2326   */\n      dup3\n        /* \"#utility.yul\":2309:2318   */\n      dup6\n        /* \"#utility.yul\":2305:2327   */\n      add\n        /* \"#utility.yul\":2284:2337   */\n      tag_304\n      jump\t// in\n    tag_388:\n        /* \"#utility.yul\":2274:2337   */\n      swap2\n      pop\n        /* \"#utility.yul\":2230:2347   */\n      pop\n        /* \"#utility.yul\":2025:2354   */\n      swap3\n      swap2\n      pop\n      pop\n      jump\t// out\n        /* \"#utility.yul\":2360:2437   */\n    tag_305:\n        /* \"#utility.yul\":2397:2404   */\n      0x00\n        /* \"#utility.yul\":2426:2431   */\n      dup2\n        /* \"#utility.yul\":2415:2431   */\n      swap1\n      pop\n        /* \"#utility.yul\":2360:2437   */\n      swap2\n      swap1\n      pop\n      jump\t// out\n        /* \"#utility.yul\":2443:2565   */\n    tag_306:\n        /* \"#utility.yul\":2516:2540   */\n      tag_391\n        /* \"#utility.yul\":2534:2539   */\n      dup2\n        /* \"#utility.yul\":2516:2540   */\n      tag_305\n      jump\t// in\n    tag_391:\n        /* \"#utility.yul\":2509:2514   */\n      dup2\n        /* \"#utility.yul\":2506:2541   */\n      eq\n        /* \"#utility.yul\":2496:2559   */\n      tag_392\n      jumpi\n        /* \"#utility.yul\":2555:2556   */\n      0x00\n        /* \"#utility.yul\":2552:2553   */\n      dup1\n        /* \"#utility.yul\":2545:2557   */\n      revert\n        /* \"#utility.yul\":2496:2559   */\n    tag_392:\n        /* \"#utility.yul\":2443:2565   */\n      pop\n      jump\t// out\n        /* \"#utility.yul\":2571:2710   */\n    tag_307:\n        /* \"#utility.yul\":2617:2622   */\n      0x00\n        /* \"#utility.yul\":2655:2661   */\n      dup2\n        /* \"#utility.yul\":2642:2662   */\n      calldataload\n        /* \"#utility.yul\":2633:2662   */\n      swap1\n      pop\n        /* \"#utility.yul\":2671:2704   */\n      tag_394\n        /* \"#utility.yul\":2698:2703   */\n      dup2\n        /* \"#utility.yul\":2671:2704   */\n      tag_306\n      jump\t// in\n    tag_394:\n        /* \"#utility.yul\":2571:2710   */\n      swap3\n      swap2\n      pop\n      pop\n      jump\t// out\n        /* \"#utility.yul\":2716:3045   */\n    tag_38:\n        /* \"#utility.yul\":2775:2781   */\n      0x00\n        /* \"#utility.yul\":2824:2826   */\n      0x20\n        /* \"#utility.yul\":2812:2821   */\n      dup3\n        /* \"#utility.yul\":2803:2810   */\n      dup5\n        /* \"#utility.yul\":2799:2822   */\n      sub\n        /* \"#utility.yul\":2795:2827   */\n      slt\n        /* \"#utility.yul\":2792:2911   */\n      iszero\n      tag_396\n      jumpi\n        /* \"#utility.yul\":2830:2909   */\n      tag_397\n      tag_294\n      jump\t// in\n    tag_397:\n        /* \"#utility.yul\":2792:2911   */\n    tag_396:\n        /* \"#utility.yul\":2950:2951   */\n      0x00\n        /* \"#utility.yul\":2975:3028   */\n      tag_398\n        /* \"#utility.yul\":3020:3027   */\n      dup5\n        /* \"#utility.yul\":3011:3017   */\n      dup3\n        /* \"#utility.yul\":3000:3009   */\n      dup6\n        /* \"#utility.yul\":2996:3018   */\n      add\n        /* \"#utility.yul\":2975:3028   */\n      tag_307\n      jump\t// in\n    tag_398:\n        /* \"#utility.yul\":2965:3028   */\n      swap2\n      pop\n        /* \"#utility.yul\":2921:3038   */\n      pop\n        /* \"#utility.yul\":2716:3045   */\n      swap3\n      swap2\n      pop\n      pop\n      jump\t// out\n        /* \"#utility.yul\":3051:3169   */\n    tag_308:\n        /* \"#utility.yul\":3138:3162   */\n      tag_400\n        /* \"#utility.yul\":3156:3161   */\n      dup2\n        /* \"#utility.yul\":3138:3162   */\n      tag_305\n      jump\t// in\n    tag_400:\n        /* \"#utility.yul\":3133:3136   */\n      dup3\n        /* \"#utility.yul\":3126:3163   */\n      mstore\n        /* \"#utility.yul\":3051:3169   */\n      pop\n      pop\n      jump\t// out\n        /* \"#utility.yul\":3175:3397   */\n    tag_41:\n        /* \"#utility.yul\":3268:3272   */\n      0x00\n        /* \"#utility.yul\":3306:3308   */\n      0x20\n        /* \"#utility.yul\":3295:3304   */\n      dup3\n        /* \"#utility.yul\":3291:3309   */\n      add\n        /* \"#utility.yul\":3283:3309   */\n      swap1\n      pop\n        /* \"#utility.yul\":3319:3390   */\n      tag_402\n        /* \"#utility.yul\":3387:3388   */\n      0x00\n        /* \"#utility.yul\":3376:3385   */\n      dup4\n        /* \"#utility.yul\":3372:3389   */\n      add\n        /* \"#utility.yul\":3363:3369   */\n      dup5\n        /* \"#utility.yul\":3319:3390   */\n      tag_308\n      jump\t// in\n    tag_402:\n        /* \"#utility.yul\":3175:3397   */\n      swap3\n      swap2\n      pop\n      pop\n      jump\t// out\n        /* \"#utility.yul\":3403:3877   */\n    tag_48:\n        /* \"#utility.yul\":3471:3477   */\n      0x00\n        /* \"#utility.yul\":3479:3485   */\n      dup1\n        /* \"#utility.yul\":3528:3530   */\n      0x40\n        /* \"#utility.yul\":3516:3525   */\n      dup4\n        /* \"#utility.yul\":3507:3514   */\n      dup6\n        /* \"#utility.yul\":3503:3526   */\n      sub\n        /* \"#utility.yul\":3499:3531   */\n      slt\n        /* \"#utility.yul\":3496:3615   */\n      iszero\n      tag_404\n      jumpi\n        /* \"#utility.yul\":3534:3613   */\n      tag_405\n      tag_294\n      jump\t// in\n    tag_405:\n        /* \"#utility.yul\":3496:3615   */\n    tag_404:\n        /* \"#utility.yul\":3654:3655   */\n      0x00\n        /* \"#utility.yul\":3679:3732   */\n      tag_406\n        /* \"#utility.yul\":3724:3731   */\n      dup6\n        /* \"#utility.yul\":3715:3721   */\n      dup3\n        /* \"#utility.yul\":3704:3713   */\n      dup7\n        /* \"#utility.yul\":3700:3722   */\n      add\n        /* \"#utility.yul\":3679:3732   */\n      tag_307\n      jump\t// in\n    tag_406:\n        /* \"#utility.yul\":3669:3732   */\n      swap3\n      pop\n        /* \"#utility.yul\":3625:3742   */\n      pop\n        /* \"#utility.yul\":3781:3783   */\n      0x20\n        /* \"#utility.yul\":3807:3860   */\n      tag_407\n        /* \"#utility.yul\":3852:3859   */\n      dup6\n        /* \"#utility.yul\":3843:3849   */\n      dup3\n        /* \"#utility.yul\":3832:3841   */\n      dup7\n        /* \"#utility.yul\":3828:3850   */\n      add\n        /* \"#utility.yul\":3807:3860   */\n      tag_304\n      jump\t// in\n    tag_407:\n        /* \"#utility.yul\":3797:3860   */\n      swap2\n      pop\n        /* \"#utility.yul\":3752:3870   */\n      pop\n        /* \"#utility.yul\":3403:3877   */\n      swap3\n      pop\n      swap3\n      swap1\n      pop\n      jump\t// out\n        /* \"#utility.yul\":3883:4000   */\n    tag_309:\n        /* \"#utility.yul\":3992:3993   */\n      0x00\n        /* \"#utility.yul\":3989:3990   */\n      dup1\n        /* \"#utility.yul\":3982:3994   */\n      revert\n        /* \"#utility.yul\":4006:4123   */\n    tag_310:\n        /* \"#utility.yul\":4115:4116   */\n      0x00\n        /* \"#utility.yul\":4112:4113   */\n      dup1\n        /* \"#utility.yul\":4105:4117   */\n      revert\n        /* \"#utility.yul\":4129:4231   */\n    tag_311:\n        /* \"#utility.yul\":4170:4176   */\n      0x00\n        /* \"#utility.yul\":4221:4223   */\n      0x1f\n        /* \"#utility.yul\":4217:4224   */\n      not\n        /* \"#utility.yul\":4212:4214   */\n      0x1f\n        /* \"#utility.yul\":4205:4210   */\n      dup4\n        /* \"#utility.yul\":4201:4215   */\n      add\n        /* \"#utility.yul\":4197:4225   */\n      and\n        /* \"#utility.yul\":4187:4225   */\n      swap1\n      pop\n        /* \"#utility.yul\":4129:4231   */\n      swap2\n      swap1\n      pop\n      jump\t// out\n        /* \"#utility.yul\":4237:4417   */\n    tag_312:\n        /* \"#utility.yul\":4285:4362   */\n      0x4e487b7100000000000000000000000000000000000000000000000000000000\n        /* \"#utility.yul\":4282:4283   */\n      0x00\n        /* \"#utility.yul\":4275:4363   */\n      mstore\n        /* \"#utility.yul\":4382:4386   */\n      0x41\n        /* \"#utility.yul\":4379:4380   */\n      0x04\n        /* \"#utility.yul\":4372:4387   */\n      mstore\n        /* \"#utility.yul\":4406:4410   */\n      0x24\n        /* \"#utility.yul\":4403:4404   */\n      0x00\n        /* \"#utility.yul\":4396:4411   */\n      revert\n        /* \"#utility.yul\":4423:4704   */\n    tag_313:\n        /* \"#utility.yul\":4506:4533   */\n      tag_413\n        /* \"#utility.yul\":4528:4532   */\n      dup3\n        /* \"#utility.yul\":4506:4533   */\n      tag_311\n      jump\t// in\n    tag_413:\n        /* \"#utility.yul\":4498:4504   */\n      dup2\n        /* \"#utility.yul\":4494:4534   */\n      add\n        /* \"#utility.yul\":4636:4642   */\n      dup2\n        /* \"#utility.yul\":4624:4634   */\n      dup2\n        /* \"#utility.yul\":4621:4643   */\n      lt\n        /* \"#utility.yul\":4600:4618   */\n      0xffffffffffffffff\n        /* \"#utility.yul\":4588:4598   */\n      dup3\n        /* \"#utility.yul\":4585:4619   */\n      gt\n        /* \"#utility.yul\":4582:4644   */\n      or\n        /* \"#utility.yul\":4579:4667   */\n      iszero\n      tag_414\n      jumpi\n        /* \"#utility.yul\":4647:4665   */\n      tag_415\n      tag_312\n      jump\t// in\n    tag_415:\n        /* \"#utility.yul\":4579:4667   */\n    tag_414:\n        /* \"#utility.yul\":4687:4697   */\n      dup1\n        /* \"#utility.yul\":4683:4685   */\n      0x40\n        /* \"#utility.yul\":4676:4698   */\n      mstore\n        /* \"#utility.yul\":4466:4704   */\n      pop\n        /* \"#utility.yul\":4423:4704   */\n      pop\n      pop\n      jump\t// out\n        /* \"#utility.yul\":4710:4839   */\n    tag_314:\n        /* \"#utility.yul\":4744:4750   */\n      0x00\n        /* \"#utility.yul\":4771:4791   */\n      tag_417\n      tag_293\n      jump\t// in\n    tag_417:\n        /* \"#utility.yul\":4761:4791   */\n      swap1\n      pop\n        /* \"#utility.yul\":4800:4833   */\n      tag_418\n        /* \"#utility.yul\":4828:4832   */\n      dup3\n        /* \"#utility.yul\":4820:4826   */\n      dup3\n        /* \"#utility.yul\":4800:4833   */\n      tag_313\n      jump\t// in\n    tag_418:\n        /* \"#utility.yul\":4710:4839   */\n      swap2\n      swap1\n      pop\n      jump\t// out\n        /* \"#utility.yul\":4845:5153   */\n    tag_315:\n        /* \"#utility.yul\":4907:4911   */\n      0x00\n        /* \"#utility.yul\":4997:5015   */\n      0xffffffffffffffff\n        /* \"#utility.yul\":4989:4995   */\n      dup3\n        /* \"#utility.yul\":4986:5016   */\n      gt\n        /* \"#utility.yul\":4983:5039   */\n      iszero\n      tag_420\n      jumpi\n        /* \"#utility.yul\":5019:5037   */\n      tag_421\n      tag_312\n      jump\t// in\n    tag_421:\n        /* \"#utility.yul\":4983:5039   */\n    tag_420:\n        /* \"#utility.yul\":5057:5086   */\n      tag_422\n        /* \"#utility.yul\":5079:5085   */\n      dup3\n        /* \"#utility.yul\":5057:5086   */\n      tag_311\n      jump\t// in\n    tag_422:\n        /* \"#utility.yul\":5049:5086   */\n      swap1\n      pop\n        /* \"#utility.yul\":5141:5145   */\n      0x20\n        /* \"#utility.yul\":5135:5139   */\n      dup2\n        /* \"#utility.yul\":5131:5146   */\n      add\n        /* \"#utility.yul\":5123:5146   */\n      swap1\n      pop\n        /* \"#utility.yul\":4845:5153   */\n      swap2\n      swap1\n      pop\n      jump\t// out\n        /* \"#utility.yul\":5159:5307   */\n    tag_316:\n        /* \"#utility.yul\":5257:5263   */\n      dup3\n        /* \"#utility.yul\":5252:5255   */\n      dup2\n        /* \"#utility.yul\":5247:5250   */\n      dup4\n        /* \"#utility.yul\":5234:5264   */\n      calldatacopy\n        /* \"#utility.yul\":5298:5299   */\n      0x00\n        /* \"#utility.yul\":5289:5295   */\n      dup4\n        /* \"#utility.yul\":5284:5287   */\n      dup4\n        /* \"#utility.yul\":5280:5296   */\n      add\n        /* \"#utility.yul\":5273:5300   */\n      mstore\n        /* \"#utility.yul\":5159:5307   */\n      pop\n      pop\n      pop\n      jump\t// out\n        /* \"#utility.yul\":5313:5738   */\n    tag_317:\n        /* \"#utility.yul\":5391:5396   */\n      0x00\n        /* \"#utility.yul\":5416:5482   */\n      tag_425\n        /* \"#utility.yul\":5432:5481   */\n      tag_426\n        /* \"#utility.yul\":5474:5480   */\n      dup5\n        /* \"#utility.yul\":5432:5481   */\n      tag_315\n      jump\t// in\n    tag_426:\n        /* \"#utility.yul\":5416:5482   */\n      tag_314\n      jump\t// in\n    tag_425:\n        /* \"#utility.yul\":5407:5482   */\n      swap1\n      pop\n        /* \"#utility.yul\":5505:5511   */\n      dup3\n        /* \"#utility.yul\":5498:5503   */\n      dup2\n        /* \"#utility.yul\":5491:5512   */\n      mstore\n        /* \"#utility.yul\":5543:5547   */\n      0x20\n        /* \"#utility.yul\":5536:5541   */\n      dup2\n        /* \"#utility.yul\":5532:5548   */\n      add\n        /* \"#utility.yul\":5581:5584   */\n      dup5\n        /* \"#utility.yul\":5572:5578   */\n      dup5\n        /* \"#utility.yul\":5567:5570   */\n      dup5\n        /* \"#utility.yul\":5563:5579   */\n      add\n        /* \"#utility.yul\":5560:5585   */\n      gt\n        /* \"#utility.yul\":5557:5669   */\n      iszero\n      tag_427\n      jumpi\n        /* \"#utility.yul\":5588:5667   */\n      tag_428\n      tag_310\n      jump\t// in\n    tag_428:\n        /* \"#utility.yul\":5557:5669   */\n    tag_427:\n        /* \"#utility.yul\":5678:5732   */\n      tag_429\n        /* \"#utility.yul\":5725:5731   */\n      dup5\n        /* \"#utility.yul\":5720:5723   */\n      dup3\n        /* \"#utility.yul\":5715:5718   */\n      dup6\n        /* \"#utility.yul\":5678:5732   */\n      tag_316\n      jump\t// in\n    tag_429:\n        /* \"#utility.yul\":5397:5738   */\n      pop\n        /* \"#utility.yul\":5313:5738   */\n      swap4\n      swap3\n      pop\n      pop\n      pop\n      jump\t// out\n        /* \"#utility.yul\":5758:6098   */\n    tag_318:\n        /* \"#utility.yul\":5814:5819   */\n      0x00\n        /* \"#utility.yul\":5863:5866   */\n      dup3\n        /* \"#utility.yul\":5856:5860   */\n      0x1f\n        /* \"#utility.yul\":5848:5854   */\n      dup4\n        /* \"#utility.yul\":5844:5861   */\n      add\n        /* \"#utility.yul\":5840:5867   */\n      slt\n        /* \"#utility.yul\":5830:5952   */\n      tag_431\n      jumpi\n        /* \"#utility.yul\":5871:5950   */\n      tag_432\n      tag_309\n      jump\t// in\n    tag_432:\n        /* \"#utility.yul\":5830:5952   */\n    tag_431:\n        /* \"#utility.yul\":5988:5994   */\n      dup2\n        /* \"#utility.yul\":5975:5995   */\n      calldataload\n        /* \"#utility.yul\":6013:6092   */\n      tag_433\n        /* \"#utility.yul\":6088:6091   */\n      dup5\n        /* \"#utility.yul\":6080:6086   */\n      dup3\n        /* \"#utility.yul\":6073:6077   */\n      0x20\n        /* \"#utility.yul\":6065:6071   */\n      dup7\n        /* \"#utility.yul\":6061:6078   */\n      add\n        /* \"#utility.yul\":6013:6092   */\n      tag_317\n      jump\t// in\n    tag_433:\n        /* \"#utility.yul\":6004:6092   */\n      swap2\n      pop\n        /* \"#utility.yul\":5820:6098   */\n      pop\n        /* \"#utility.yul\":5758:6098   */\n      swap3\n      swap2\n      pop\n      pop\n      jump\t// out\n        /* \"#utility.yul\":6104:6181   */\n    tag_319:\n        /* \"#utility.yul\":6141:6148   */\n      0x00\n        /* \"#utility.yul\":6170:6175   */\n      dup2\n        /* \"#utility.yul\":6159:6175   */\n      swap1\n      pop\n        /* \"#utility.yul\":6104:6181   */\n      swap2\n      swap1\n      pop\n      jump\t// out\n        /* \"#utility.yul\":6187:6309   */\n    tag_320:\n        /* \"#utility.yul\":6260:6284   */\n      tag_436\n        /* \"#utility.yul\":6278:6283   */\n      dup2\n        /* \"#utility.yul\":6260:6284   */\n      tag_319\n      jump\t// in\n    tag_436:\n        /* \"#utility.yul\":6253:6258   */\n      dup2\n        /* \"#utility.yul\":6250:6285   */\n      eq\n        /* \"#utility.yul\":6240:6303   */\n      tag_437\n      jumpi\n        /* \"#utility.yul\":6299:6300   */\n      0x00\n        /* \"#utility.yul\":6296:6297   */\n      dup1\n        /* \"#utility.yul\":6289:6301   */\n      revert\n        /* \"#utility.yul\":6240:6303   */\n    tag_437:\n        /* \"#utility.yul\":6187:6309   */\n      pop\n      jump\t// out\n        /* \"#utility.yul\":6315:6454   */\n    tag_321:\n        /* \"#utility.yul\":6361:6366   */\n      0x00\n        /* \"#utility.yul\":6399:6405   */\n      dup2\n        /* \"#utility.yul\":6386:6406   */\n      calldataload\n        /* \"#utility.yul\":6377:6406   */\n      swap1\n      pop\n        /* \"#utility.yul\":6415:6448   */\n      tag_439\n        /* \"#utility.yul\":6442:6447   */\n      dup2\n        /* \"#utility.yul\":6415:6448   */\n      tag_320\n      jump\t// in\n    tag_439:\n        /* \"#utility.yul\":6315:6454   */\n      swap3\n      swap2\n      pop\n      pop\n      jump\t// out\n        /* \"#utility.yul\":6460:7259   */\n    tag_52:\n        /* \"#utility.yul\":6547:6553   */\n      0x00\n        /* \"#utility.yul\":6555:6561   */\n      dup1\n        /* \"#utility.yul\":6563:6569   */\n      0x00\n        /* \"#utility.yul\":6612:6614   */\n      0x60\n        /* \"#utility.yul\":6600:6609   */\n      dup5\n        /* \"#utility.yul\":6591:6598   */\n      dup7\n        /* \"#utility.yul\":6587:6610   */\n      sub\n        /* \"#utility.yul\":6583:6615   */\n      slt\n        /* \"#utility.yul\":6580:6699   */\n      iszero\n      tag_441\n      jumpi\n        /* \"#utility.yul\":6618:6697   */\n      tag_442\n      tag_294\n      jump\t// in\n    tag_442:\n        /* \"#utility.yul\":6580:6699   */\n    tag_441:\n        /* \"#utility.yul\":6738:6739   */\n      0x00\n        /* \"#utility.yul\":6763:6816   */\n      tag_443\n        /* \"#utility.yul\":6808:6815   */\n      dup7\n        /* \"#utility.yul\":6799:6805   */\n      dup3\n        /* \"#utility.yul\":6788:6797   */\n      dup8\n        /* \"#utility.yul\":6784:6806   */\n      add\n        /* \"#utility.yul\":6763:6816   */\n      tag_304\n      jump\t// in\n    tag_443:\n        /* \"#utility.yul\":6753:6816   */\n      swap4\n      pop\n        /* \"#utility.yul\":6709:6826   */\n      pop\n        /* \"#utility.yul\":6893:6895   */\n      0x20\n        /* \"#utility.yul\":6882:6891   */\n      dup5\n        /* \"#utility.yul\":6878:6896   */\n      add\n        /* \"#utility.yul\":6865:6897   */\n      calldataload\n        /* \"#utility.yul\":6924:6942   */\n      0xffffffffffffffff\n        /* \"#utility.yul\":6916:6922   */\n      dup2\n        /* \"#utility.yul\":6913:6943   */\n      gt\n        /* \"#utility.yul\":6910:7027   */\n      iszero\n      tag_444\n      jumpi\n        /* \"#utility.yul\":6946:7025   */\n      tag_445\n      tag_295\n      jump\t// in\n    tag_445:\n        /* \"#utility.yul\":6910:7027   */\n    tag_444:\n        /* \"#utility.yul\":7051:7114   */\n      tag_446\n        /* \"#utility.yul\":7106:7113   */\n      dup7\n        /* \"#utility.yul\":7097:7103   */\n      dup3\n        /* \"#utility.yul\":7086:7095   */\n      dup8\n        /* \"#utility.yul\":7082:7104   */\n      add\n        /* \"#utility.yul\":7051:7114   */\n      tag_318\n      jump\t// in\n    tag_446:\n        /* \"#utility.yul\":7041:7114   */\n      swap3\n      pop\n        /* \"#utility.yul\":6836:7124   */\n      pop\n        /* \"#utility.yul\":7163:7165   */\n      0x40\n        /* \"#utility.yul\":7189:7242   */\n      tag_447\n        /* \"#utility.yul\":7234:7241   */\n      dup7\n        /* \"#utility.yul\":7225:7231   */\n      dup3\n        /* \"#utility.yul\":7214:7223   */\n      dup8\n        /* \"#utility.yul\":7210:7232   */\n      add\n        /* \"#utility.yul\":7189:7242   */\n      tag_321\n      jump\t// in\n    tag_447:\n        /* \"#utility.yul\":7179:7242   */\n      swap2\n      pop\n        /* \"#utility.yul\":7134:7252   */\n      pop\n        /* \"#utility.yul\":6460:7259   */\n      swap3\n      pop\n      swap3\n      pop\n      swap3\n      jump\t// out\n        /* \"#utility.yul\":7265:7383   */\n    tag_322:\n        /* \"#utility.yul\":7352:7376   */\n      tag_449\n        /* \"#utility.yul\":7370:7375   */\n      dup2\n        /* \"#utility.yul\":7352:7376   */\n      tag_302\n      jump\t// in\n    tag_449:\n        /* \"#utility.yul\":7347:7350   */\n      dup3\n        /* \"#utility.yul\":7340:7377   */\n      mstore\n        /* \"#utility.yul\":7265:7383   */\n      pop\n      pop\n      jump\t// out\n        /* \"#utility.yul\":7389:7611   */\n    tag_68:\n        /* \"#utility.yul\":7482:7486   */\n      0x00\n        /* \"#utility.yul\":7520:7522   */\n      0x20\n        /* \"#utility.yul\":7509:7518   */\n      dup3\n        /* \"#utility.yul\":7505:7523   */\n      add\n        /* \"#utility.yul\":7497:7523   */\n      swap1\n      pop\n        /* \"#utility.yul\":7533:7604   */\n      tag_451\n        /* \"#utility.yul\":7601:7602   */\n      0x00\n        /* \"#utility.yul\":7590:7599   */\n      dup4\n        /* \"#utility.yul\":7586:7603   */\n      add\n        /* \"#utility.yul\":7577:7583   */\n      dup5\n        /* \"#utility.yul\":7533:7604   */\n      tag_322\n      jump\t// in\n    tag_451:\n        /* \"#utility.yul\":7389:7611   */\n      swap3\n      swap2\n      pop\n      pop\n      jump\t// out\n        /* \"#utility.yul\":7617:8126   */\n    tag_78:\n        /* \"#utility.yul\":7686:7692   */\n      0x00\n        /* \"#utility.yul\":7735:7737   */\n      0x20\n        /* \"#utility.yul\":7723:7732   */\n      dup3\n        /* \"#utility.yul\":7714:7721   */\n      dup5\n        /* \"#utility.yul\":7710:7733   */\n      sub\n        /* \"#utility.yul\":7706:7738   */\n      slt\n        /* \"#utility.yul\":7703:7822   */\n      iszero\n      tag_453\n      jumpi\n        /* \"#utility.yul\":7741:7820   */\n      tag_454\n      tag_294\n      jump\t// in\n    tag_454:\n        /* \"#utility.yul\":7703:7822   */\n    tag_453:\n        /* \"#utility.yul\":7889:7890   */\n      0x00\n        /* \"#utility.yul\":7878:7887   */\n      dup3\n        /* \"#utility.yul\":7874:7891   */\n      add\n        /* \"#utility.yul\":7861:7892   */\n      calldataload\n        /* \"#utility.yul\":7919:7937   */\n      0xffffffffffffffff\n        /* \"#utility.yul\":7911:7917   */\n      dup2\n        /* \"#utility.yul\":7908:7938   */\n      gt\n        /* \"#utility.yul\":7905:8022   */\n      iszero\n      tag_455\n      jumpi\n        /* \"#utility.yul\":7941:8020   */\n      tag_456\n      tag_295\n      jump\t// in\n    tag_456:\n        /* \"#utility.yul\":7905:8022   */\n    tag_455:\n        /* \"#utility.yul\":8046:8109   */\n      tag_457\n        /* \"#utility.yul\":8101:8108   */\n      dup5\n        /* \"#utility.yul\":8092:8098   */\n      dup3\n        /* \"#utility.yul\":8081:8090   */\n      dup6\n        /* \"#utility.yul\":8077:8099   */\n      add\n        /* \"#utility.yul\":8046:8109   */\n      tag_318\n      jump\t// in\n    tag_457:\n        /* \"#utility.yul\":8036:8109   */\n      swap2\n      pop\n        /* \"#utility.yul\":7832:8119   */\n      pop\n        /* \"#utility.yul\":7617:8126   */\n      swap3\n      swap2\n      pop\n      pop\n      jump\t// out\n        /* \"#utility.yul\":8132:8461   */\n    tag_88:\n        /* \"#utility.yul\":8191:8197   */\n      0x00\n        /* \"#utility.yul\":8240:8242   */\n      0x20\n        /* \"#utility.yul\":8228:8237   */\n      dup3\n        /* \"#utility.yul\":8219:8226   */\n      dup5\n        /* \"#utility.yul\":8215:8238   */\n      sub\n        /* \"#utility.yul\":8211:8243   */\n      slt\n        /* \"#utility.yul\":8208:8327   */\n      iszero\n      tag_459\n      jumpi\n        /* \"#utility.yul\":8246:8325   */\n      tag_460\n      tag_294\n      jump\t// in\n    tag_460:\n        /* \"#utility.yul\":8208:8327   */\n    tag_459:\n        /* \"#utility.yul\":8366:8367   */\n      0x00\n        /* \"#utility.yul\":8391:8444   */\n      tag_461\n        /* \"#utility.yul\":8436:8443   */\n      dup5\n        /* \"#utility.yul\":8427:8433   */\n      dup3\n        /* \"#utility.yul\":8416:8425   */\n      dup6\n        /* \"#utility.yul\":8412:8434   */\n      add\n        /* \"#utility.yul\":8391:8444   */\n      tag_321\n      jump\t// in\n    tag_461:\n        /* \"#utility.yul\":8381:8444   */\n      swap2\n      pop\n        /* \"#utility.yul\":8337:8454   */\n      pop\n        /* \"#utility.yul\":8132:8461   */\n      swap3\n      swap2\n      pop\n      pop\n      jump\t// out\n        /* \"#utility.yul\":8467:8566   */\n    tag_323:\n        /* \"#utility.yul\":8519:8525   */\n      0x00\n        /* \"#utility.yul\":8553:8558   */\n      dup2\n        /* \"#utility.yul\":8547:8559   */\n      mload\n        /* \"#utility.yul\":8537:8559   */\n      swap1\n      pop\n        /* \"#utility.yul\":8467:8566   */\n      swap2\n      swap1\n      pop\n      jump\t// out\n        /* \"#utility.yul\":8572:8741   */\n    tag_324:\n        /* \"#utility.yul\":8656:8667   */\n      0x00\n        /* \"#utility.yul\":8690:8696   */\n      dup3\n        /* \"#utility.yul\":8685:8688   */\n      dup3\n        /* \"#utility.yul\":8678:8697   */\n      mstore\n        /* \"#utility.yul\":8730:8734   */\n      0x20\n        /* \"#utility.yul\":8725:8728   */\n      dup3\n        /* \"#utility.yul\":8721:8735   */\n      add\n        /* \"#utility.yul\":8706:8735   */\n      swap1\n      pop\n        /* \"#utility.yul\":8572:8741   */\n      swap3\n      swap2\n      pop\n      pop\n      jump\t// out\n        /* \"#utility.yul\":8747:8886   */\n    tag_325:\n        /* \"#utility.yul\":8836:8842   */\n      dup3\n        /* \"#utility.yul\":8831:8834   */\n      dup2\n        /* \"#utility.yul\":8826:8829   */\n      dup4\n        /* \"#utility.yul\":8820:8843   */\n      mcopy\n        /* \"#utility.yul\":8877:8878   */\n      0x00\n        /* \"#utility.yul\":8868:8874   */\n      dup4\n        /* \"#utility.yul\":8863:8866   */\n      dup4\n        /* \"#utility.yul\":8859:8875   */\n      add\n        /* \"#utility.yul\":8852:8879   */\n      mstore\n        /* \"#utility.yul\":8747:8886   */\n      pop\n      pop\n      pop\n      jump\t// out\n        /* \"#utility.yul\":8892:9269   */\n    tag_326:\n        /* \"#utility.yul\":8980:8983   */\n      0x00\n        /* \"#utility.yul\":9008:9047   */\n      tag_466\n        /* \"#utility.yul\":9041:9046   */\n      dup3\n        /* \"#utility.yul\":9008:9047   */\n      tag_323\n      jump\t// in\n    tag_466:\n        /* \"#utility.yul\":9063:9134   */\n      tag_467\n        /* \"#utility.yul\":9127:9133   */\n      dup2\n        /* \"#utility.yul\":9122:9125   */\n      dup6\n        /* \"#utility.yul\":9063:9134   */\n      tag_324\n      jump\t// in\n    tag_467:\n        /* \"#utility.yul\":9056:9134   */\n      swap4\n      pop\n        /* \"#utility.yul\":9143:9208   */\n      tag_468\n        /* \"#utility.yul\":9201:9207   */\n      dup2\n        /* \"#utility.yul\":9196:9199   */\n      dup6\n        /* \"#utility.yul\":9189:9193   */\n      0x20\n        /* \"#utility.yul\":9182:9187   */\n      dup7\n        /* \"#utility.yul\":9178:9194   */\n      add\n        /* \"#utility.yul\":9143:9208   */\n      tag_325\n      jump\t// in\n    tag_468:\n        /* \"#utility.yul\":9233:9262   */\n      tag_469\n        /* \"#utility.yul\":9255:9261   */\n      dup2\n        /* \"#utility.yul\":9233:9262   */\n      tag_311\n      jump\t// in\n    tag_469:\n        /* \"#utility.yul\":9228:9231   */\n      dup5\n        /* \"#utility.yul\":9224:9263   */\n      add\n        /* \"#utility.yul\":9217:9263   */\n      swap2\n      pop\n        /* \"#utility.yul\":8984:9269   */\n      pop\n        /* \"#utility.yul\":8892:9269   */\n      swap3\n      swap2\n      pop\n      pop\n      jump\t// out\n        /* \"#utility.yul\":9275:9588   */\n    tag_91:\n        /* \"#utility.yul\":9388:9392   */\n      0x00\n        /* \"#utility.yul\":9426:9428   */\n      0x20\n        /* \"#utility.yul\":9415:9424   */\n      dup3\n        /* \"#utility.yul\":9411:9429   */\n      add\n        /* \"#utility.yul\":9403:9429   */\n      swap1\n      pop\n        /* \"#utility.yul\":9475:9484   */\n      dup2\n        /* \"#utility.yul\":9469:9473   */\n      dup2\n        /* \"#utility.yul\":9465:9485   */\n      sub\n        /* \"#utility.yul\":9461:9462   */\n      0x00\n        /* \"#utility.yul\":9450:9459   */\n      dup4\n        /* \"#utility.yul\":9446:9463   */\n      add\n        /* \"#utility.yul\":9439:9486   */\n      mstore\n        /* \"#utility.yul\":9503:9581   */\n      tag_471\n        /* \"#utility.yul\":9576:9580   */\n      dup2\n        /* \"#utility.yul\":9567:9573   */\n      dup5\n        /* \"#utility.yul\":9503:9581   */\n      tag_326\n      jump\t// in\n    tag_471:\n        /* \"#utility.yul\":9495:9581   */\n      swap1\n      pop\n        /* \"#utility.yul\":9275:9588   */\n      swap3\n      swap2\n      pop\n      pop\n      jump\t// out\n        /* \"#utility.yul\":9594:10248   */\n    tag_97:\n        /* \"#utility.yul\":9672:9678   */\n      0x00\n        /* \"#utility.yul\":9680:9686   */\n      dup1\n        /* \"#utility.yul\":9729:9731   */\n      0x40\n        /* \"#utility.yul\":9717:9726   */\n      dup4\n        /* \"#utility.yul\":9708:9715   */\n      dup6\n        /* \"#utility.yul\":9704:9727   */\n      sub\n        /* \"#utility.yul\":9700:9732   */\n      slt\n        /* \"#utility.yul\":9697:9816   */\n      iszero\n      tag_473\n      jumpi\n        /* \"#utility.yul\":9735:9814   */\n      tag_474\n      tag_294\n      jump\t// in\n    tag_474:\n        /* \"#utility.yul\":9697:9816   */\n    tag_473:\n        /* \"#utility.yul\":9855:9856   */\n      0x00\n        /* \"#utility.yul\":9880:9933   */\n      tag_475\n        /* \"#utility.yul\":9925:9932   */\n      dup6\n        /* \"#utility.yul\":9916:9922   */\n      dup3\n        /* \"#utility.yul\":9905:9914   */\n      dup7\n        /* \"#utility.yul\":9901:9923   */\n      add\n        /* \"#utility.yul\":9880:9933   */\n      tag_304\n      jump\t// in\n    tag_475:\n        /* \"#utility.yul\":9870:9933   */\n      swap3\n      pop\n        /* \"#utility.yul\":9826:9943   */\n      pop\n        /* \"#utility.yul\":10010:10012   */\n      0x20\n        /* \"#utility.yul\":9999:10008   */\n      dup4\n        /* \"#utility.yul\":9995:10013   */\n      add\n        /* \"#utility.yul\":9982:10014   */\n      calldataload\n        /* \"#utility.yul\":10041:10059   */\n      0xffffffffffffffff\n        /* \"#utility.yul\":10033:10039   */\n      dup2\n        /* \"#utility.yul\":10030:10060   */\n      gt\n        /* \"#utility.yul\":10027:10144   */\n      iszero\n      tag_476\n      jumpi\n        /* \"#utility.yul\":10063:10142   */\n      tag_477\n      tag_295\n      jump\t// in\n    tag_477:\n        /* \"#utility.yul\":10027:10144   */\n    tag_476:\n        /* \"#utility.yul\":10168:10231   */\n      tag_478\n        /* \"#utility.yul\":10223:10230   */\n      dup6\n        /* \"#utility.yul\":10214:10220   */\n      dup3\n        /* \"#utility.yul\":10203:10212   */\n      dup7\n        /* \"#utility.yul\":10199:10221   */\n      add\n        /* \"#utility.yul\":10168:10231   */\n      tag_318\n      jump\t// in\n    tag_478:\n        /* \"#utility.yul\":10158:10231   */\n      swap2\n      pop\n        /* \"#utility.yul\":9953:10241   */\n      pop\n        /* \"#utility.yul\":9594:10248   */\n      swap3\n      pop\n      swap3\n      swap1\n      pop\n      jump\t// out\n        /* \"#utility.yul\":10254:10372   */\n    tag_327:\n        /* \"#utility.yul\":10341:10365   */\n      tag_480\n        /* \"#utility.yul\":10359:10364   */\n      dup2\n        /* \"#utility.yul\":10341:10365   */\n      tag_319\n      jump\t// in\n    tag_480:\n        /* \"#utility.yul\":10336:10339   */\n      dup3\n        /* \"#utility.yul\":10329:10366   */\n      mstore\n        /* \"#utility.yul\":10254:10372   */\n      pop\n      pop\n      jump\t// out\n        /* \"#utility.yul\":10378:10600   */\n    tag_100:\n        /* \"#utility.yul\":10471:10475   */\n      0x00\n        /* \"#utility.yul\":10509:10511   */\n      0x20\n        /* \"#utility.yul\":10498:10507   */\n      dup3\n        /* \"#utility.yul\":10494:10512   */\n      add\n        /* \"#utility.yul\":10486:10512   */\n      swap1\n      pop\n        /* \"#utility.yul\":10522:10593   */\n      tag_482\n        /* \"#utility.yul\":10590:10591   */\n      0x00\n        /* \"#utility.yul\":10579:10588   */\n      dup4\n        /* \"#utility.yul\":10575:10592   */\n      add\n        /* \"#utility.yul\":10566:10572   */\n      dup5\n        /* \"#utility.yul\":10522:10593   */\n      tag_327\n      jump\t// in\n    tag_482:\n        /* \"#utility.yul\":10378:10600   */\n      swap3\n      swap2\n      pop\n      pop\n      jump\t// out\n        /* \"#utility.yul\":10606:10754   */\n    tag_328:\n        /* \"#utility.yul\":10708:10719   */\n      0x00\n        /* \"#utility.yul\":10745:10748   */\n      dup2\n        /* \"#utility.yul\":10730:10748   */\n      swap1\n      pop\n        /* \"#utility.yul\":10606:10754   */\n      swap3\n      swap2\n      pop\n      pop\n      jump\t// out\n        /* \"#utility.yul\":10760:11150   */\n    tag_329:\n        /* \"#utility.yul\":10866:10869   */\n      0x00\n        /* \"#utility.yul\":10894:10933   */\n      tag_485\n        /* \"#utility.yul\":10927:10932   */\n      dup3\n        /* \"#utility.yul\":10894:10933   */\n      tag_323\n      jump\t// in\n    tag_485:\n        /* \"#utility.yul\":10949:11038   */\n      tag_486\n        /* \"#utility.yul\":11031:11037   */\n      dup2\n        /* \"#utility.yul\":11026:11029   */\n      dup6\n        /* \"#utility.yul\":10949:11038   */\n      tag_328\n      jump\t// in\n    tag_486:\n        /* \"#utility.yul\":10942:11038   */\n      swap4\n      pop\n        /* \"#utility.yul\":11047:11112   */\n      tag_487\n        /* \"#utility.yul\":11105:11111   */\n      dup2\n        /* \"#utility.yul\":11100:11103   */\n      dup6\n        /* \"#utility.yul\":11093:11097   */\n      0x20\n        /* \"#utility.yul\":11086:11091   */\n      dup7\n        /* \"#utility.yul\":11082:11098   */\n      add\n        /* \"#utility.yul\":11047:11112   */\n      tag_325\n      jump\t// in\n    tag_487:\n        /* \"#utility.yul\":11137:11143   */\n      dup1\n        /* \"#utility.yul\":11132:11135   */\n      dup5\n        /* \"#utility.yul\":11128:11144   */\n      add\n        /* \"#utility.yul\":11121:11144   */\n      swap2\n      pop\n        /* \"#utility.yul\":10870:11150   */\n      pop\n        /* \"#utility.yul\":10760:11150   */\n      swap3\n      swap2\n      pop\n      pop\n      jump\t// out\n        /* \"#utility.yul\":11156:11431   */\n    tag_129:\n        /* \"#utility.yul\":11288:11291   */\n      0x00\n        /* \"#utility.yul\":11310:11405   */\n      tag_489\n        /* \"#utility.yul\":11401:11404   */\n      dup3\n        /* \"#utility.yul\":11392:11398   */\n      dup5\n        /* \"#utility.yul\":11310:11405   */\n      tag_329\n      jump\t// in\n    tag_489:\n        /* \"#utility.yul\":11303:11405   */\n      swap2\n      pop\n        /* \"#utility.yul\":11422:11425   */\n      dup2\n        /* \"#utility.yul\":11415:11425   */\n      swap1\n      pop\n        /* \"#utility.yul\":11156:11431   */\n      swap3\n      swap2\n      pop\n      pop\n      jump\t// out\n        /* \"#utility.yul\":11437:11970   */\n    tag_132:\n        /* \"#utility.yul\":11606:11610   */\n      0x00\n        /* \"#utility.yul\":11644:11646   */\n      0x60\n        /* \"#utility.yul\":11633:11642   */\n      dup3\n        /* \"#utility.yul\":11629:11647   */\n      add\n        /* \"#utility.yul\":11621:11647   */\n      swap1\n      pop\n        /* \"#utility.yul\":11693:11702   */\n      dup2\n        /* \"#utility.yul\":11687:11691   */\n      dup2\n        /* \"#utility.yul\":11683:11703   */\n      sub\n        /* \"#utility.yul\":11679:11680   */\n      0x00\n        /* \"#utility.yul\":11668:11677   */\n      dup4\n        /* \"#utility.yul\":11664:11681   */\n      add\n        /* \"#utility.yul\":11657:11704   */\n      mstore\n        /* \"#utility.yul\":11721:11799   */\n      tag_491\n        /* \"#utility.yul\":11794:11798   */\n      dup2\n        /* \"#utility.yul\":11785:11791   */\n      dup7\n        /* \"#utility.yul\":11721:11799   */\n      tag_326\n      jump\t// in\n    tag_491:\n        /* \"#utility.yul\":11713:11799   */\n      swap1\n      pop\n        /* \"#utility.yul\":11809:11881   */\n      tag_492\n        /* \"#utility.yul\":11877:11879   */\n      0x20\n        /* \"#utility.yul\":11866:11875   */\n      dup4\n        /* \"#utility.yul\":11862:11880   */\n      add\n        /* \"#utility.yul\":11853:11859   */\n      dup6\n        /* \"#utility.yul\":11809:11881   */\n      tag_327\n      jump\t// in\n    tag_492:\n        /* \"#utility.yul\":11891:11963   */\n      tag_493\n        /* \"#utility.yul\":11959:11961   */\n      0x40\n        /* \"#utility.yul\":11948:11957   */\n      dup4\n        /* \"#utility.yul\":11944:11962   */\n      add\n        /* \"#utility.yul\":11935:11941   */\n      dup5\n        /* \"#utility.yul\":11891:11963   */\n      tag_327\n      jump\t// in\n    tag_493:\n        /* \"#utility.yul\":11437:11970   */\n      swap5\n      swap4\n      pop\n      pop\n      pop\n      pop\n      jump\t// out\n        /* \"#utility.yul\":11976:12156   */\n    tag_161:\n        /* \"#utility.yul\":12024:12101   */\n      0x4e487b7100000000000000000000000000000000000000000000000000000000\n        /* \"#utility.yul\":12021:12022   */\n      0x00\n        /* \"#utility.yul\":12014:12102   */\n      mstore\n        /* \"#utility.yul\":12121:12125   */\n      0x32\n        /* \"#utility.yul\":12118:12119   */\n      0x04\n        /* \"#utility.yul\":12111:12126   */\n      mstore\n        /* \"#utility.yul\":12145:12149   */\n      0x24\n        /* \"#utility.yul\":12142:12143   */\n      0x00\n        /* \"#utility.yul\":12135:12150   */\n      revert\n        /* \"#utility.yul\":12162:12342   */\n    tag_330:\n        /* \"#utility.yul\":12210:12287   */\n      0x4e487b7100000000000000000000000000000000000000000000000000000000\n        /* \"#utility.yul\":12207:12208   */\n      0x00\n        /* \"#utility.yul\":12200:12288   */\n      mstore\n        /* \"#utility.yul\":12307:12311   */\n      0x22\n        /* \"#utility.yul\":12304:12305   */\n      0x04\n        /* \"#utility.yul\":12297:12312   */\n      mstore\n        /* \"#utility.yul\":12331:12335   */\n      0x24\n        /* \"#utility.yul\":12328:12329   */\n      0x00\n        /* \"#utility.yul\":12321:12336   */\n      revert\n        /* \"#utility.yul\":12348:12668   */\n    tag_213:\n        /* \"#utility.yul\":12392:12398   */\n      0x00\n        /* \"#utility.yul\":12429:12430   */\n      0x02\n        /* \"#utility.yul\":12423:12427   */\n      dup3\n        /* \"#utility.yul\":12419:12431   */\n      div\n        /* \"#utility.yul\":12409:12431   */\n      swap1\n      pop\n        /* \"#utility.yul\":12476:12477   */\n      0x01\n        /* \"#utility.yul\":12470:12474   */\n      dup3\n        /* \"#utility.yul\":12466:12478   */\n      and\n        /* \"#utility.yul\":12497:12515   */\n      dup1\n        /* \"#utility.yul\":12487:12568   */\n      tag_497\n      jumpi\n        /* \"#utility.yul\":12553:12557   */\n      0x7f\n        /* \"#utility.yul\":12545:12551   */\n      dup3\n        /* \"#utility.yul\":12541:12558   */\n      and\n        /* \"#utility.yul\":12531:12558   */\n      swap2\n      pop\n        /* \"#utility.yul\":12487:12568   */\n    tag_497:\n        /* \"#utility.yul\":12615:12617   */\n      0x20\n        /* \"#utility.yul\":12607:12613   */\n      dup3\n        /* \"#utility.yul\":12604:12618   */\n      lt\n        /* \"#utility.yul\":12584:12602   */\n      dup2\n        /* \"#utility.yul\":12581:12619   */\n      sub\n        /* \"#utility.yul\":12578:12662   */\n      tag_498\n      jumpi\n        /* \"#utility.yul\":12634:12652   */\n      tag_499\n      tag_330\n      jump\t// in\n    tag_499:\n        /* \"#utility.yul\":12578:12662   */\n    tag_498:\n        /* \"#utility.yul\":12399:12668   */\n      pop\n        /* \"#utility.yul\":12348:12668   */\n      swap2\n      swap1\n      pop\n      jump\t// out\n        /* \"#utility.yul\":12674:12821   */\n    tag_331:\n        /* \"#utility.yul\":12775:12786   */\n      0x00\n        /* \"#utility.yul\":12812:12815   */\n      dup2\n        /* \"#utility.yul\":12797:12815   */\n      swap1\n      pop\n        /* \"#utility.yul\":12674:12821   */\n      swap3\n      swap2\n      pop\n      pop\n      jump\t// out\n        /* \"#utility.yul\":12827:12971   */\n    tag_332:\n        /* \"#utility.yul\":12879:12883   */\n      0x00\n        /* \"#utility.yul\":12902:12905   */\n      dup2\n        /* \"#utility.yul\":12894:12905   */\n      swap1\n      pop\n        /* \"#utility.yul\":12925:12928   */\n      dup2\n        /* \"#utility.yul\":12922:12923   */\n      0x00\n        /* \"#utility.yul\":12915:12929   */\n      mstore\n        /* \"#utility.yul\":12959:12963   */\n      0x20\n        /* \"#utility.yul\":12956:12957   */\n      0x00\n        /* \"#utility.yul\":12946:12964   */\n      keccak256\n        /* \"#utility.yul\":12938:12964   */\n      swap1\n      pop\n        /* \"#utility.yul\":12827:12971   */\n      swap2\n      swap1\n      pop\n      jump\t// out\n        /* \"#utility.yul\":12999:13877   */\n    tag_333:\n        /* \"#utility.yul\":13104:13107   */\n      0x00\n        /* \"#utility.yul\":13141:13146   */\n      dup2\n        /* \"#utility.yul\":13135:13147   */\n      sload\n        /* \"#utility.yul\":13170:13206   */\n      tag_503\n        /* \"#utility.yul\":13196:13205   */\n      dup2\n        /* \"#utility.yul\":13170:13206   */\n      tag_213\n      jump\t// in\n    tag_503:\n        /* \"#utility.yul\":13222:13310   */\n      tag_504\n        /* \"#utility.yul\":13303:13309   */\n      dup2\n        /* \"#utility.yul\":13298:13301   */\n      dup7\n        /* \"#utility.yul\":13222:13310   */\n      tag_331\n      jump\t// in\n    tag_504:\n        /* \"#utility.yul\":13215:13310   */\n      swap5\n      pop\n        /* \"#utility.yul\":13341:13342   */\n      0x01\n        /* \"#utility.yul\":13330:13339   */\n      dup3\n        /* \"#utility.yul\":13326:13343   */\n      and\n        /* \"#utility.yul\":13357:13358   */\n      0x00\n        /* \"#utility.yul\":13352:13518   */\n      dup2\n      eq\n      tag_506\n      jumpi\n        /* \"#utility.yul\":13532:13533   */\n      0x01\n        /* \"#utility.yul\":13527:13871   */\n      dup2\n      eq\n      tag_507\n      jumpi\n        /* \"#utility.yul\":13319:13871   */\n      jump(tag_505)\n        /* \"#utility.yul\":13352:13518   */\n    tag_506:\n        /* \"#utility.yul\":13436:13440   */\n      0xff\n        /* \"#utility.yul\":13432:13441   */\n      not\n        /* \"#utility.yul\":13421:13430   */\n      dup4\n        /* \"#utility.yul\":13417:13442   */\n      and\n        /* \"#utility.yul\":13412:13415   */\n      dup7\n        /* \"#utility.yul\":13405:13443   */\n      mstore\n        /* \"#utility.yul\":13498:13504   */\n      dup2\n        /* \"#utility.yul\":13491:13505   */\n      iszero\n        /* \"#utility.yul\":13484:13506   */\n      iszero\n        /* \"#utility.yul\":13476:13482   */\n      dup3\n        /* \"#utility.yul\":13472:13507   */\n      mul\n        /* \"#utility.yul\":13467:13470   */\n      dup7\n        /* \"#utility.yul\":13463:13508   */\n      add\n        /* \"#utility.yul\":13456:13508   */\n      swap4\n      pop\n        /* \"#utility.yul\":13352:13518   */\n      jump(tag_505)\n        /* \"#utility.yul\":13527:13871   */\n    tag_507:\n        /* \"#utility.yul\":13594:13635   */\n      tag_508\n        /* \"#utility.yul\":13629:13634   */\n      dup6\n        /* \"#utility.yul\":13594:13635   */\n      tag_332\n      jump\t// in\n    tag_508:\n        /* \"#utility.yul\":13657:13658   */\n      0x00\n        /* \"#utility.yul\":13671:13825   */\n    tag_509:\n        /* \"#utility.yul\":13685:13691   */\n      dup4\n        /* \"#utility.yul\":13682:13683   */\n      dup2\n        /* \"#utility.yul\":13679:13692   */\n      lt\n        /* \"#utility.yul\":13671:13825   */\n      iszero\n      tag_511\n      jumpi\n        /* \"#utility.yul\":13759:13766   */\n      dup2\n        /* \"#utility.yul\":13753:13767   */\n      sload\n        /* \"#utility.yul\":13749:13750   */\n      dup2\n        /* \"#utility.yul\":13744:13747   */\n      dup10\n        /* \"#utility.yul\":13740:13751   */\n      add\n        /* \"#utility.yul\":13733:13768   */\n      mstore\n        /* \"#utility.yul\":13809:13810   */\n      0x01\n        /* \"#utility.yul\":13800:13807   */\n      dup3\n        /* \"#utility.yul\":13796:13811   */\n      add\n        /* \"#utility.yul\":13785:13811   */\n      swap2\n      pop\n        /* \"#utility.yul\":13707:13711   */\n      0x20\n        /* \"#utility.yul\":13704:13705   */\n      dup2\n        /* \"#utility.yul\":13700:13712   */\n      add\n        /* \"#utility.yul\":13695:13712   */\n      swap1\n      pop\n        /* \"#utility.yul\":13671:13825   */\n      jump(tag_509)\n    tag_511:\n        /* \"#utility.yul\":13854:13860   */\n      dup4\n        /* \"#utility.yul\":13849:13852   */\n      dup9\n        /* \"#utility.yul\":13845:13861   */\n      add\n        /* \"#utility.yul\":13838:13861   */\n      swap6\n      pop\n        /* \"#utility.yul\":13534:13871   */\n      pop\n      pop\n        /* \"#utility.yul\":13319:13871   */\n    tag_505:\n      pop\n        /* \"#utility.yul\":13108:13877   */\n      pop\n      pop\n        /* \"#utility.yul\":12999:13877   */\n      swap3\n      swap2\n      pop\n      pop\n      jump\t// out\n        /* \"#utility.yul\":13883:14156   */\n    tag_164:\n        /* \"#utility.yul\":14014:14017   */\n      0x00\n        /* \"#utility.yul\":14036:14130   */\n      tag_513\n        /* \"#utility.yul\":14126:14129   */\n      dup3\n        /* \"#utility.yul\":14117:14123   */\n      dup5\n        /* \"#utility.yul\":14036:14130   */\n      tag_333\n      jump\t// in\n    tag_513:\n        /* \"#utility.yul\":14029:14130   */\n      swap2\n      pop\n        /* \"#utility.yul\":14147:14150   */\n      dup2\n        /* \"#utility.yul\":14140:14150   */\n      swap1\n      pop\n        /* \"#utility.yul\":13883:14156   */\n      swap3\n      swap2\n      pop\n      pop\n      jump\t// out\n        /* \"#utility.yul\":14162:14342   */\n    tag_334:\n        /* \"#utility.yul\":14210:14287   */\n      0x4e487b7100000000000000000000000000000000000000000000000000000000\n        /* \"#utility.yul\":14207:14208   */\n      0x00\n        /* \"#utility.yul\":14200:14288   */\n      mstore\n        /* \"#utility.yul\":14307:14311   */\n      0x11\n        /* \"#utility.yul\":14304:14305   */\n      0x04\n        /* \"#utility.yul\":14297:14312   */\n      mstore\n        /* \"#utility.yul\":14331:14335   */\n      0x24\n        /* \"#utility.yul\":14328:14329   */\n      0x00\n        /* \"#utility.yul\":14321:14336   */\n      revert\n        /* \"#utility.yul\":14348:14542   */\n    tag_167:\n        /* \"#utility.yul\":14388:14392   */\n      0x00\n        /* \"#utility.yul\":14408:14428   */\n      tag_516\n        /* \"#utility.yul\":14426:14427   */\n      dup3\n        /* \"#utility.yul\":14408:14428   */\n      tag_319\n      jump\t// in\n    tag_516:\n        /* \"#utility.yul\":14403:14428   */\n      swap2\n      pop\n        /* \"#utility.yul\":14442:14462   */\n      tag_517\n        /* \"#utility.yul\":14460:14461   */\n      dup4\n        /* \"#utility.yul\":14442:14462   */\n      tag_319\n      jump\t// in\n    tag_517:\n        /* \"#utility.yul\":14437:14462   */\n      swap3\n      pop\n        /* \"#utility.yul\":14486:14487   */\n      dup3\n        /* \"#utility.yul\":14483:14484   */\n      dup3\n        /* \"#utility.yul\":14479:14488   */\n      sub\n        /* \"#utility.yul\":14471:14488   */\n      swap1\n      pop\n        /* \"#utility.yul\":14510:14511   */\n      dup2\n        /* \"#utility.yul\":14504:14508   */\n      dup2\n        /* \"#utility.yul\":14501:14512   */\n      gt\n        /* \"#utility.yul\":14498:14535   */\n      iszero\n      tag_518\n      jumpi\n        /* \"#utility.yul\":14515:14533   */\n      tag_519\n      tag_334\n      jump\t// in\n    tag_519:\n        /* \"#utility.yul\":14498:14535   */\n    tag_518:\n        /* \"#utility.yul\":14348:14542   */\n      swap3\n      swap2\n      pop\n      pop\n      jump\t// out\n        /* \"#utility.yul\":14548:14701   */\n    tag_335:\n        /* \"#utility.yul\":14601:14607   */\n      0x00\n        /* \"#utility.yul\":14635:14640   */\n      dup2\n        /* \"#utility.yul\":14629:14641   */\n      sload\n        /* \"#utility.yul\":14619:14641   */\n      swap1\n      pop\n        /* \"#utility.yul\":14661:14694   */\n      tag_521\n        /* \"#utility.yul\":14687:14693   */\n      dup2\n        /* \"#utility.yul\":14661:14694   */\n      tag_213\n      jump\t// in\n    tag_521:\n        /* \"#utility.yul\":14651:14694   */\n      swap1\n      pop\n        /* \"#utility.yul\":14548:14701   */\n      swap2\n      swap1\n      pop\n      jump\t// out\n        /* \"#utility.yul\":14707:14848   */\n    tag_336:\n        /* \"#utility.yul\":14756:14760   */\n      0x00\n        /* \"#utility.yul\":14779:14782   */\n      dup2\n        /* \"#utility.yul\":14771:14782   */\n      swap1\n      pop\n        /* \"#utility.yul\":14802:14805   */\n      dup2\n        /* \"#utility.yul\":14799:14800   */\n      0x00\n        /* \"#utility.yul\":14792:14806   */\n      mstore\n        /* \"#utility.yul\":14836:14840   */\n      0x20\n        /* \"#utility.yul\":14833:14834   */\n      0x00\n        /* \"#utility.yul\":14823:14841   */\n      keccak256\n        /* \"#utility.yul\":14815:14841   */\n      swap1\n      pop\n        /* \"#utility.yul\":14707:14848   */\n      swap2\n      swap1\n      pop\n      jump\t// out\n        /* \"#utility.yul\":14854:14999   */\n    tag_337:\n        /* \"#utility.yul\":14907:14911   */\n      0x00\n        /* \"#utility.yul\":14930:14933   */\n      dup2\n        /* \"#utility.yul\":14922:14933   */\n      swap1\n      pop\n        /* \"#utility.yul\":14953:14956   */\n      dup2\n        /* \"#utility.yul\":14950:14951   */\n      0x00\n        /* \"#utility.yul\":14943:14957   */\n      mstore\n        /* \"#utility.yul\":14987:14991   */\n      0x20\n        /* \"#utility.yul\":14984:14985   */\n      0x00\n        /* \"#utility.yul\":14974:14992   */\n      keccak256\n        /* \"#utility.yul\":14966:14992   */\n      swap1\n      pop\n        /* \"#utility.yul\":14854:14999   */\n      swap2\n      swap1\n      pop\n      jump\t// out\n        /* \"#utility.yul\":15005:15098   */\n    tag_338:\n        /* \"#utility.yul\":15042:15048   */\n      0x00\n        /* \"#utility.yul\":15089:15091   */\n      0x20\n        /* \"#utility.yul\":15084:15086   */\n      0x1f\n        /* \"#utility.yul\":15077:15082   */\n      dup4\n        /* \"#utility.yul\":15073:15087   */\n      add\n        /* \"#utility.yul\":15069:15092   */\n      div\n        /* \"#utility.yul\":15059:15092   */\n      swap1\n      pop\n        /* \"#utility.yul\":15005:15098   */\n      swap2\n      swap1\n      pop\n      jump\t// out\n        /* \"#utility.yul\":15104:15211   */\n    tag_339:\n        /* \"#utility.yul\":15148:15156   */\n      0x00\n        /* \"#utility.yul\":15198:15203   */\n      dup3\n        /* \"#utility.yul\":15192:15196   */\n      dup3\n        /* \"#utility.yul\":15188:15204   */\n      shl\n        /* \"#utility.yul\":15167:15204   */\n      swap1\n      pop\n        /* \"#utility.yul\":15104:15211   */\n      swap3\n      swap2\n      pop\n      pop\n      jump\t// out\n        /* \"#utility.yul\":15217:15610   */\n    tag_340:\n        /* \"#utility.yul\":15286:15292   */\n      0x00\n        /* \"#utility.yul\":15336:15337   */\n      0x08\n        /* \"#utility.yul\":15324:15334   */\n      dup4\n        /* \"#utility.yul\":15320:15338   */\n      mul\n        /* \"#utility.yul\":15359:15456   */\n      tag_527\n        /* \"#utility.yul\":15389:15455   */\n      0xffffffffffffffffffffffffffffffffffffffffffffffffffffffffffffffff\n        /* \"#utility.yul\":15378:15387   */\n      dup3\n        /* \"#utility.yul\":15359:15456   */\n      tag_339\n      jump\t// in\n    tag_527:\n        /* \"#utility.yul\":15477:15516   */\n      tag_528\n        /* \"#utility.yul\":15507:15515   */\n      dup7\n        /* \"#utility.yul\":15496:15505   */\n      dup4\n        /* \"#utility.yul\":15477:15516   */\n      tag_339\n      jump\t// in\n    tag_528:\n        /* \"#utility.yul\":15465:15516   */\n      swap6\n      pop\n        /* \"#utility.yul\":15549:15553   */\n      dup1\n        /* \"#utility.yul\":15545:15554   */\n      not\n        /* \"#utility.yul\":15538:15543   */\n      dup5\n        /* \"#utility.yul\":15534:15555   */\n      and\n        /* \"#utility.yul\":15525:15555   */\n      swap4\n      pop\n        /* \"#utility.yul\":15598:15602   */\n      dup1\n        /* \"#utility.yul\":15588:15596   */\n      dup7\n        /* \"#utility.yul\":15584:15603   */\n      and\n        /* \"#utility.yul\":15577:15582   */\n      dup5\n        /* \"#utility.yul\":15574:15604   */\n      or\n        /* \"#utility.yul\":15564:15604   */\n      swap3\n      pop\n        /* \"#utility.yul\":15293:15610   */\n      pop\n      pop\n        /* \"#utility.yul\":15217:15610   */\n      swap4\n      swap3\n      pop\n      pop\n      pop\n      jump\t// out\n        /* \"#utility.yul\":15616:15676   */\n    tag_341:\n        /* \"#utility.yul\":15644:15647   */\n      0x00\n        /* \"#utility.yul\":15665:15670   */\n      dup2\n        /* \"#utility.yul\":15658:15670   */\n      swap1\n      pop\n        /* \"#utility.yul\":15616:15676   */\n      swap2\n      swap1\n      pop\n      jump\t// out\n        /* \"#utility.yul\":15682:15824   */\n    tag_342:\n        /* \"#utility.yul\":15732:15741   */\n      0x00\n        /* \"#utility.yul\":15765:15818   */\n      tag_531\n        /* \"#utility.yul\":15783:15817   */\n      tag_532\n        /* \"#utility.yul\":15792:15816   */\n      tag_533\n        /* \"#utility.yul\":15810:15815   */\n      dup5\n        /* \"#utility.yul\":15792:15816   */\n      tag_319\n      jump\t// in\n    tag_533:\n        /* \"#utility.yul\":15783:15817   */\n      tag_341\n      jump\t// in\n    tag_532:\n        /* \"#utility.yul\":15765:15818   */\n      tag_319\n      jump\t// in\n    tag_531:\n        /* \"#utility.yul\":15752:15818   */\n      swap1\n      pop\n        /* \"#utility.yul\":15682:15824   */\n      swap2\n      swap1\n      pop\n      jump\t// out\n        /* \"#utility.yul\":15830:15905   */\n    tag_343:\n        /* \"#utility.yul\":15873:15876   */\n      0x00\n        /* \"#utility.yul\":15894:15899   */\n      dup2\n        /* \"#utility.yul\":15887:15899   */\n      swap1\n      pop\n        /* \"#utility.yul\":15830:15905   */\n      swap2\n      swap1\n      pop\n      jump\t// out\n        /* \"#utility.yul\":15911:16180   */\n    tag_344:\n        /* \"#utility.yul\":16021:16060   */\n      tag_536\n        /* \"#utility.yul\":16052:16059   */\n      dup4\n        /* \"#utility.yul\":16021:16060   */\n      tag_342\n      jump\t// in\n    tag_536:\n        /* \"#utility.yul\":16082:16173   */\n      tag_537\n        /* \"#utility.yul\":16131:16172   */\n      tag_538\n        /* \"#utility.yul\":16155:16171   */\n      dup3\n        /* \"#utility.yul\":16131:16172   */\n      tag_343\n      jump\t// in\n    tag_538:\n        /* \"#utility.yul\":16123:16129   */\n      dup5\n        /* \"#utility.yul\":16116:16120   */\n      dup5\n        /* \"#utility.yul\":16110:16121   */\n      sload\n        /* \"#utility.yul\":16082:16173   */\n      tag_340\n      jump\t// in\n    tag_537:\n        /* \"#utility.yul\":16076:16080   */\n      dup3\n        /* \"#utility.yul\":16069:16174   */\n      sstore\n        /* \"#utility.yul\":15987:16180   */\n      pop\n        /* \"#utility.yul\":15911:16180   */\n      pop\n      pop\n      pop\n      jump\t// out\n        /* \"#utility.yul\":16186:16259   */\n    tag_345:\n        /* \"#utility.yul\":16231:16234   */\n      0x00\n        /* \"#utility.yul\":16186:16259   */\n      swap1\n      jump\t// out\n        /* \"#utility.yul\":16265:16454   */\n    tag_346:\n        /* \"#utility.yul\":16342:16374   */\n      tag_541\n      tag_345\n      jump\t// in\n    tag_541:\n        /* \"#utility.yul\":16383:16448   */\n      tag_542\n        /* \"#utility.yul\":16441:16447   */\n      dup2\n        /* \"#utility.yul\":16433:16439   */\n      dup5\n        /* \"#utility.yul\":16427:16431   */\n      dup5\n        /* \"#utility.yul\":16383:16448   */\n      tag_344\n      jump\t// in\n    tag_542:\n        /* \"#utility.yul\":16318:16454   */\n      pop\n        /* \"#utility.yul\":16265:16454   */\n      pop\n      pop\n      jump\t// out\n        /* \"#utility.yul\":16460:16646   */\n    tag_347:\n        /* \"#utility.yul\":16520:16640   */\n    tag_544:\n        /* \"#utility.yul\":16537:16540   */\n      dup2\n        /* \"#utility.yul\":16530:16535   */\n      dup2\n        /* \"#utility.yul\":16527:16541   */\n      lt\n        /* \"#utility.yul\":16520:16640   */\n      iszero\n      tag_546\n      jumpi\n        /* \"#utility.yul\":16591:16630   */\n      tag_547\n        /* \"#utility.yul\":16628:16629   */\n      0x00\n        /* \"#utility.yul\":16621:16626   */\n      dup3\n        /* \"#utility.yul\":16591:16630   */\n      tag_346\n      jump\t// in\n    tag_547:\n        /* \"#utility.yul\":16564:16565   */\n      0x01\n        /* \"#utility.yul\":16557:16562   */\n      dup2\n        /* \"#utility.yul\":16553:16566   */\n      add\n        /* \"#utility.yul\":16544:16566   */\n      swap1\n      pop\n        /* \"#utility.yul\":16520:16640   */\n      jump(tag_544)\n    tag_546:\n        /* \"#utility.yul\":16460:16646   */\n      pop\n      pop\n      jump\t// out\n        /* \"#utility.yul\":16652:17195   */\n    tag_348:\n        /* \"#utility.yul\":16753:16755   */\n      0x1f\n        /* \"#utility.yul\":16748:16751   */\n      dup3\n        /* \"#utility.yul\":16745:16756   */\n      gt\n        /* \"#utility.yul\":16742:17188   */\n      iszero\n      tag_549\n      jumpi\n        /* \"#utility.yul\":16787:16825   */\n      tag_550\n        /* \"#utility.yul\":16819:16824   */\n      dup2\n        /* \"#utility.yul\":16787:16825   */\n      tag_336\n      jump\t// in\n    tag_550:\n        /* \"#utility.yul\":16871:16900   */\n      tag_551\n        /* \"#utility.yul\":16889:16899   */\n      dup5\n        /* \"#utility.yul\":16871:16900   */\n      tag_338\n      jump\t// in\n    tag_551:\n        /* \"#utility.yul\":16861:16869   */\n      dup2\n        /* \"#utility.yul\":16857:16901   */\n      add\n        /* \"#utility.yul\":17054:17056   */\n      0x20\n        /* \"#utility.yul\":17042:17052   */\n      dup6\n        /* \"#utility.yul\":17039:17057   */\n      lt\n        /* \"#utility.yul\":17036:17085   */\n      iszero\n      tag_552\n      jumpi\n        /* \"#utility.yul\":17075:17083   */\n      dup2\n        /* \"#utility.yul\":17060:17083   */\n      swap1\n      pop\n        /* \"#utility.yul\":17036:17085   */\n    tag_552:\n        /* \"#utility.yul\":17098:17178   */\n      tag_553\n        /* \"#utility.yul\":17154:17176   */\n      tag_554\n        /* \"#utility.yul\":17172:17175   */\n      dup6\n        /* \"#utility.yul\":17154:17176   */\n      tag_338\n      jump\t// in\n    tag_554:\n        /* \"#utility.yul\":17144:17152   */\n      dup4\n        /* \"#utility.yul\":17140:17177   */\n      add\n        /* \"#utility.yul\":17127:17138   */\n      dup3\n        /* \"#utility.yul\":17098:17178   */\n      tag_347\n      jump\t// in\n    tag_553:\n        /* \"#utility.yul\":16757:17188   */\n      pop\n      pop\n        /* \"#utility.yul\":16742:17188   */\n    tag_549:\n        /* \"#utility.yul\":16652:17195   */\n      pop\n      pop\n      pop\n      jump\t// out\n        /* \"#utility.yul\":17201:17318   */\n    tag_349:\n        /* \"#utility.yul\":17255:17263   */\n      0x00\n        /* \"#utility.yul\":17305:17310   */\n      dup3\n        /* \"#utility.yul\":17299:17303   */\n      dup3\n        /* \"#utility.yul\":17295:17311   */\n      shr\n        /* \"#utility.yul\":17274:17311   */\n      swap1\n      pop\n        /* \"#utility.yul\":17201:17318   */\n      swap3\n      swap2\n      pop\n      pop\n      jump\t// out\n        /* \"#utility.yul\":17324:17493   */\n    tag_350:\n        /* \"#utility.yul\":17368:17374   */\n      0x00\n        /* \"#utility.yul\":17401:17452   */\n      tag_557\n        /* \"#utility.yul\":17449:17450   */\n      0x00\n        /* \"#utility.yul\":17445:17451   */\n      not\n        /* \"#utility.yul\":17437:17442   */\n      dup5\n        /* \"#utility.yul\":17434:17435   */\n      0x08\n        /* \"#utility.yul\":17430:17443   */\n      mul\n        /* \"#utility.yul\":17401:17452   */\n      tag_349\n      jump\t// in\n    tag_557:\n        /* \"#utility.yul\":17397:17453   */\n      not\n        /* \"#utility.yul\":17482:17486   */\n      dup1\n        /* \"#utility.yul\":17476:17480   */\n      dup4\n        /* \"#utility.yul\":17472:17487   */\n      and\n        /* \"#utility.yul\":17462:17487   */\n      swap2\n      pop\n        /* \"#utility.yul\":17375:17493   */\n      pop\n        /* \"#utility.yul\":17324:17493   */\n      swap3\n      swap2\n      pop\n      pop\n      jump\t// out\n        /* \"#utility.yul\":17498:17793   */\n    tag_351:\n        /* \"#utility.yul\":17574:17578   */\n      0x00\n        /* \"#utility.yul\":17720:17749   */\n      tag_559\n        /* \"#utility.yul\":17745:17748   */\n      dup4\n        /* \"#utility.yul\":17739:17743   */\n      dup4\n        /* \"#utility.yul\":17720:17749   */\n      tag_350\n      jump\t// in\n    tag_559:\n        /* \"#utility.yul\":17712:17749   */\n      swap2\n      pop\n        /* \"#utility.yul\":17782:17785   */\n      dup3\n        /* \"#utility.yul\":17779:17780   */\n      0x02\n        /* \"#utility.yul\":17775:17786   */\n      mul\n        /* \"#utility.yul\":17769:17773   */\n      dup3\n        /* \"#utility.yul\":17766:17787   */\n      or\n        /* \"#utility.yul\":17758:17787   */\n      swap1\n      pop\n        /* \"#utility.yul\":17498:17793   */\n      swap3\n      swap2\n      pop\n      pop\n      jump\t// out\n        /* \"#utility.yul\":17798:19261   */\n    tag_175:\n        /* \"#utility.yul\":17913:17916   */\n      dup2\n        /* \"#utility.yul\":17907:17911   */\n      dup2\n        /* \"#utility.yul\":17904:17917   */\n      sub\n        /* \"#utility.yul\":17901:17927   */\n      tag_561\n      jumpi\n        /* \"#utility.yul\":17920:17925   */\n      pop\n      pop\n      jump(tag_560)\n        /* \"#utility.yul\":17901:17927   */\n    tag_561:\n        /* \"#utility.yul\":17951:17989   */\n      tag_562\n        /* \"#utility.yul\":17985:17988   */\n      dup3\n        /* \"#utility.yul\":17951:17989   */\n      tag_335\n      jump\t// in\n    tag_562:\n        /* \"#utility.yul\":18054:18072   */\n      0xffffffffffffffff\n        /* \"#utility.yul\":18046:18052   */\n      dup2\n        /* \"#utility.yul\":18043:18073   */\n      gt\n        /* \"#utility.yul\":18040:18096   */\n      iszero\n      tag_563\n      jumpi\n        /* \"#utility.yul\":18076:18094   */\n      tag_564\n      tag_312\n      jump\t// in\n    tag_564:\n        /* \"#utility.yul\":18040:18096   */\n    tag_563:\n        /* \"#utility.yul\":18120:18158   */\n      tag_565\n        /* \"#utility.yul\":18152:18156   */\n      dup3\n        /* \"#utility.yul\":18146:18157   */\n      sload\n        /* \"#utility.yul\":18120:18158   */\n      tag_213\n      jump\t// in\n    tag_565:\n        /* \"#utility.yul\":18205:18272   */\n      tag_566\n        /* \"#utility.yul\":18265:18271   */\n      dup3\n        /* \"#utility.yul\":18257:18263   */\n      dup3\n        /* \"#utility.yul\":18251:18255   */\n      dup6\n        /* \"#utility.yul\":18205:18272   */\n      tag_348\n      jump\t// in\n    tag_566:\n        /* \"#utility.yul\":18299:18300   */\n      0x00\n        /* \"#utility.yul\":18328:18330   */\n      0x1f\n        /* \"#utility.yul\":18320:18326   */\n      dup4\n        /* \"#utility.yul\":18317:18331   */\n      gt\n        /* \"#utility.yul\":18345:18346   */\n      0x01\n        /* \"#utility.yul\":18340:19016   */\n      dup2\n      eq\n      tag_568\n      jumpi\n        /* \"#utility.yul\":19060:19061   */\n      0x00\n        /* \"#utility.yul\":19077:19083   */\n      dup5\n        /* \"#utility.yul\":19074:19151   */\n      iszero\n      tag_569\n      jumpi\n        /* \"#utility.yul\":19126:19135   */\n      dup3\n        /* \"#utility.yul\":19121:19124   */\n      dup8\n        /* \"#utility.yul\":19117:19136   */\n      add\n        /* \"#utility.yul\":19111:19137   */\n      sload\n        /* \"#utility.yul\":19102:19137   */\n      swap1\n      pop\n        /* \"#utility.yul\":19074:19151   */\n    tag_569:\n        /* \"#utility.yul\":19177:19244   */\n      tag_570\n        /* \"#utility.yul\":19237:19243   */\n      dup6\n        /* \"#utility.yul\":19230:19235   */\n      dup3\n        /* \"#utility.yul\":19177:19244   */\n      tag_351\n      jump\t// in\n    tag_570:\n        /* \"#utility.yul\":19171:19175   */\n      dup7\n        /* \"#utility.yul\":19164:19245   */\n      sstore\n        /* \"#utility.yul\":19033:19255   */\n      pop\n        /* \"#utility.yul\":18310:19255   */\n      jump(tag_567)\n        /* \"#utility.yul\":18340:19016   */\n    tag_568:\n        /* \"#utility.yul\":18392:18396   */\n      0x1f\n        /* \"#utility.yul\":18388:18397   */\n      not\n        /* \"#utility.yul\":18380:18386   */\n      dup5\n        /* \"#utility.yul\":18376:18398   */\n      and\n        /* \"#utility.yul\":18418:18458   */\n      tag_571\n        /* \"#utility.yul\":18454:18457   */\n      dup8\n        /* \"#utility.yul\":18418:18458   */\n      tag_337\n      jump\t// in\n    tag_571:\n        /* \"#utility.yul\":18411:18458   */\n      swap7\n      pop\n        /* \"#utility.yul\":18485:18522   */\n      tag_572\n        /* \"#utility.yul\":18517:18521   */\n      dup7\n        /* \"#utility.yul\":18485:18522   */\n      tag_336\n      jump\t// in\n    tag_572:\n        /* \"#utility.yul\":18544:18545   */\n      0x00\n        /* \"#utility.yul\":18558:18765   */\n    tag_573:\n        /* \"#utility.yul\":18572:18579   */\n      dup3\n        /* \"#utility.yul\":18569:18570   */\n      dup2\n        /* \"#utility.yul\":18566:18580   */\n      lt\n        /* \"#utility.yul\":18558:18765   */\n      iszero\n      tag_575\n      jumpi\n        /* \"#utility.yul\":18651:18660   */\n      dup5\n        /* \"#utility.yul\":18646:18649   */\n      dup10\n        /* \"#utility.yul\":18642:18661   */\n      add\n        /* \"#utility.yul\":18636:18662   */\n      sload\n        /* \"#utility.yul\":18628:18634   */\n      dup3\n        /* \"#utility.yul\":18621:18663   */\n      sstore\n        /* \"#utility.yul\":18702:18703   */\n      0x01\n        /* \"#utility.yul\":18694:18700   */\n      dup3\n        /* \"#utility.yul\":18690:18704   */\n      add\n        /* \"#utility.yul\":18680:18704   */\n      swap2\n      pop\n        /* \"#utility.yul\":18749:18750   */\n      0x01\n        /* \"#utility.yul\":18738:18747   */\n      dup6\n        /* \"#utility.yul\":18734:18751   */\n      add\n        /* \"#utility.yul\":18721:18751   */\n      swap5\n      pop\n        /* \"#utility.yul\":18595:18599   */\n      0x20\n        /* \"#utility.yul\":18592:18593   */\n      dup2\n        /* \"#utility.yul\":18588:18600   */\n      add\n        /* \"#utility.yul\":18583:18600   */\n      swap1\n      pop\n        /* \"#utility.yul\":18558:18765   */\n      jump(tag_573)\n    tag_575:\n        /* \"#utility.yul\":18793:18799   */\n      dup7\n        /* \"#utility.yul\":18784:18791   */\n      dup4\n        /* \"#utility.yul\":18781:18800   */\n      lt\n        /* \"#utility.yul\":18778:18957   */\n      iszero\n      tag_576\n      jumpi\n        /* \"#utility.yul\":18851:18860   */\n      dup5\n        /* \"#utility.yul\":18846:18849   */\n      dup10\n        /* \"#utility.yul\":18842:18861   */\n      add\n        /* \"#utility.yul\":18836:18862   */\n      sload\n        /* \"#utility.yul\":18894:18942   */\n      tag_577\n        /* \"#utility.yul\":18936:18940   */\n      0x1f\n        /* \"#utility.yul\":18928:18934   */\n      dup10\n        /* \"#utility.yul\":18924:18941   */\n      and\n        /* \"#utility.yul\":18913:18922   */\n      dup3\n        /* \"#utility.yul\":18894:18942   */\n      tag_350\n      jump\t// in\n    tag_577:\n        /* \"#utility.yul\":18886:18892   */\n      dup4\n        /* \"#utility.yul\":18879:18943   */\n      sstore\n        /* \"#utility.yul\":18801:18957   */\n      pop\n        /* \"#utility.yul\":18778:18957   */\n    tag_576:\n        /* \"#utility.yul\":19003:19004   */\n      0x01\n        /* \"#utility.yul\":18999:19000   */\n      0x02\n        /* \"#utility.yul\":18991:18997   */\n      dup9\n        /* \"#utility.yul\":18987:19001   */\n      mul\n        /* \"#utility.yul\":18983:19005   */\n      add\n        /* \"#utility.yul\":18977:18981   */\n      dup9\n        /* \"#utility.yul\":18970:19006   */\n      sstore\n        /* \"#utility.yul\":18347:19016   */\n      pop\n      pop\n      pop\n        /* \"#utility.yul\":18310:19255   */\n    tag_567:\n      pop\n        /* \"#utility.yul\":17891:19261   */\n      pop\n      pop\n      pop\n        /* \"#utility.yul\":17798:19261   */\n      pop\n      pop\n    tag_560:\n      jump\t// out\n        /* \"#utility.yul\":19267:19447   */\n    tag_178:\n        /* \"#utility.yul\":19315:19392   */\n      0x4e487b7100000000000000000000000000000000000000000000000000000000\n        /* \"#utility.yul\":19312:19313   */\n      0x00\n        /* \"#utility.yul\":19305:19393   */\n      mstore\n        /* \"#utility.yul\":19412:19416   */\n      0x31\n        /* \"#utility.yul\":19409:19410   */\n      0x04\n        /* \"#utility.yul\":19402:19417   */\n      mstore\n        /* \"#utility.yul\":19436:19440   */\n      0x24\n        /* \"#utility.yul\":19433:19434   */\n      0x00\n        /* \"#utility.yul\":19426:19441   */\n      revert\n        /* \"#utility.yul\":19453:19623   */\n    tag_352:\n        /* \"#utility.yul\":19593:19615   */\n      0x53636f72652074797065206e6f7420666f756e64000000000000000000000000\n        /* \"#utility.yul\":19589:19590   */\n      0x00\n        /* \"#utility.yul\":19581:19587   */\n      dup3\n        /* \"#utility.yul\":19577:19591   */\n      add\n        /* \"#utility.yul\":19570:19616   */\n      mstore\n        /* \"#utility.yul\":19453:19623   */\n      pop\n      jump\t// out\n        /* \"#utility.yul\":19629:19995   */\n    tag_353:\n        /* \"#utility.yul\":19771:19774   */\n      0x00\n        /* \"#utility.yul\":19792:19859   */\n      tag_581\n        /* \"#utility.yul\":19856:19858   */\n      0x14\n        /* \"#utility.yul\":19851:19854   */\n      dup4\n        /* \"#utility.yul\":19792:19859   */\n      tag_324\n      jump\t// in\n    tag_581:\n        /* \"#utility.yul\":19785:19859   */\n      swap2\n      pop\n        /* \"#utility.yul\":19868:19961   */\n      tag_582\n        /* \"#utility.yul\":19957:19960   */\n      dup3\n        /* \"#utility.yul\":19868:19961   */\n      tag_352\n      jump\t// in\n    tag_582:\n        /* \"#utility.yul\":19986:19988   */\n      0x20\n        /* \"#utility.yul\":19981:19984   */\n      dup3\n        /* \"#utility.yul\":19977:19989   */\n      add\n        /* \"#utility.yul\":19970:19989   */\n      swap1\n      pop\n        /* \"#utility.yul\":19629:19995   */\n      swap2\n      swap1\n      pop\n      jump\t// out\n        /* \"#utility.yul\":20001:20420   */\n    tag_184:\n        /* \"#utility.yul\":20167:20171   */\n      0x00\n        /* \"#utility.yul\":20205:20207   */\n      0x20\n        /* \"#utility.yul\":20194:20203   */\n      dup3\n        /* \"#utility.yul\":20190:20208   */\n      add\n        /* \"#utility.yul\":20182:20208   */\n      swap1\n      pop\n        /* \"#utility.yul\":20254:20263   */\n      dup2\n        /* \"#utility.yul\":20248:20252   */\n      dup2\n        /* \"#utility.yul\":20244:20264   */\n      sub\n        /* \"#utility.yul\":20240:20241   */\n      0x00\n        /* \"#utility.yul\":20229:20238   */\n      dup4\n        /* \"#utility.yul\":20225:20242   */\n      add\n        /* \"#utility.yul\":20218:20265   */\n      mstore\n        /* \"#utility.yul\":20282:20413   */\n      tag_584\n        /* \"#utility.yul\":20408:20412   */\n      dup2\n        /* \"#utility.yul\":20282:20413   */\n      tag_353\n      jump\t// in\n    tag_584:\n        /* \"#utility.yul\":20274:20413   */\n      swap1\n      pop\n        /* \"#utility.yul\":20001:20420   */\n      swap2\n      swap1\n      pop\n      jump\t// out\n        /* \"#utility.yul\":20426:20511   */\n    tag_354:\n        /* \"#utility.yul\":20471:20478   */\n      0x00\n        /* \"#utility.yul\":20500:20505   */\n      dup2\n        /* \"#utility.yul\":20489:20505   */\n      swap1\n      pop\n        /* \"#utility.yul\":20426:20511   */\n      swap2\n      swap1\n      pop\n      jump\t// out\n        /* \"#utility.yul\":20517:20618   */\n    tag_355:\n        /* \"#utility.yul\":20553:20560   */\n      0x00\n        /* \"#utility.yul\":20593:20611   */\n      0xffffffffffffffff\n        /* \"#utility.yul\":20586:20591   */\n      dup3\n        /* \"#utility.yul\":20582:20612   */\n      and\n        /* \"#utility.yul\":20571:20612   */\n      swap1\n      pop\n        /* \"#utility.yul\":20517:20618   */\n      swap2\n      swap1\n      pop\n      jump\t// out\n        /* \"#utility.yul\":20624:20780   */\n    tag_356:\n        /* \"#utility.yul\":20681:20690   */\n      0x00\n        /* \"#utility.yul\":20714:20774   */\n      tag_588\n        /* \"#utility.yul\":20731:20773   */\n      tag_589\n        /* \"#utility.yul\":20740:20772   */\n      tag_590\n        /* \"#utility.yul\":20766:20771   */\n      dup5\n        /* \"#utility.yul\":20740:20772   */\n      tag_354\n      jump\t// in\n    tag_590:\n        /* \"#utility.yul\":20731:20773   */\n      tag_341\n      jump\t// in\n    tag_589:\n        /* \"#utility.yul\":20714:20774   */\n      tag_355\n      jump\t// in\n    tag_588:\n        /* \"#utility.yul\":20701:20774   */\n      swap1\n      pop\n        /* \"#utility.yul\":20624:20780   */\n      swap2\n      swap1\n      pop\n      jump\t// out\n        /* \"#utility.yul\":20786:20931   */\n    tag_357:\n        /* \"#utility.yul\":20880:20924   */\n      tag_592\n        /* \"#utility.yul\":20918:20923   */\n      dup2\n        /* \"#utility.yul\":20880:20924   */\n      tag_356\n      jump\t// in\n    tag_592:\n        /* \"#utility.yul\":20875:20878   */\n      dup3\n        /* \"#utility.yul\":20868:20925   */\n      mstore\n        /* \"#utility.yul\":20786:20931   */\n      pop\n      pop\n      jump\t// out\n        /* \"#utility.yul\":20937:21173   */\n    tag_202:\n        /* \"#utility.yul\":21037:21041   */\n      0x00\n        /* \"#utility.yul\":21075:21077   */\n      0x20\n        /* \"#utility.yul\":21064:21073   */\n      dup3\n        /* \"#utility.yul\":21060:21078   */\n      add\n        /* \"#utility.yul\":21052:21078   */\n      swap1\n      pop\n        /* \"#utility.yul\":21088:21166   */\n      tag_594\n        /* \"#utility.yul\":21163:21164   */\n      0x00\n        /* \"#utility.yul\":21152:21161   */\n      dup4\n        /* \"#utility.yul\":21148:21165   */\n      add\n        /* \"#utility.yul\":21139:21145   */\n      dup5\n        /* \"#utility.yul\":21088:21166   */\n      tag_357\n      jump\t// in\n    tag_594:\n        /* \"#utility.yul\":20937:21173   */\n      swap3\n      swap2\n      pop\n      pop\n      jump\t// out\n        /* \"#utility.yul\":21179:22574   */\n    tag_208:\n        /* \"#utility.yul\":21296:21333   */\n      tag_596\n        /* \"#utility.yul\":21329:21332   */\n      dup3\n        /* \"#utility.yul\":21296:21333   */\n      tag_323\n      jump\t// in\n    tag_596:\n        /* \"#utility.yul\":21398:21416   */\n      0xffffffffffffffff\n        /* \"#utility.yul\":21390:21396   */\n      dup2\n        /* \"#utility.yul\":21387:21417   */\n      gt\n        /* \"#utility.yul\":21384:21440   */\n      iszero\n      tag_597\n      jumpi\n        /* \"#utility.yul\":21420:21438   */\n      tag_598\n      tag_312\n      jump\t// in\n    tag_598:\n        /* \"#utility.yul\":21384:21440   */\n    tag_597:\n        /* \"#utility.yul\":21464:21502   */\n      tag_599\n        /* \"#utility.yul\":21496:21500   */\n      dup3\n        /* \"#utility.yul\":21490:21501   */\n      sload\n        /* \"#utility.yul\":21464:21502   */\n      tag_213\n      jump\t// in\n    tag_599:\n        /* \"#utility.yul\":21549:21616   */\n      tag_600\n        /* \"#utility.yul\":21609:21615   */\n      dup3\n        /* \"#utility.yul\":21601:21607   */\n      dup3\n        /* \"#utility.yul\":21595:21599   */\n      dup6\n        /* \"#utility.yul\":21549:21616   */\n      tag_348\n      jump\t// in\n    tag_600:\n        /* \"#utility.yul\":21643:21644   */\n      0x00\n        /* \"#utility.yul\":21667:21671   */\n      0x20\n        /* \"#utility.yul\":21654:21671   */\n      swap1\n      pop\n        /* \"#utility.yul\":21699:21701   */\n      0x1f\n        /* \"#utility.yul\":21691:21697   */\n      dup4\n        /* \"#utility.yul\":21688:21702   */\n      gt\n        /* \"#utility.yul\":21716:21717   */\n      0x01\n        /* \"#utility.yul\":21711:22329   */\n      dup2\n      eq\n      tag_602\n      jumpi\n        /* \"#utility.yul\":22373:22374   */\n      0x00\n        /* \"#utility.yul\":22390:22396   */\n      dup5\n        /* \"#utility.yul\":22387:22464   */\n      iszero\n      tag_603\n      jumpi\n        /* \"#utility.yul\":22439:22448   */\n      dup3\n        /* \"#utility.yul\":22434:22437   */\n      dup8\n        /* \"#utility.yul\":22430:22449   */\n      add\n        /* \"#utility.yul\":22424:22450   */\n      mload\n        /* \"#utility.yul\":22415:22450   */\n      swap1\n      pop\n        /* \"#utility.yul\":22387:22464   */\n    tag_603:\n        /* \"#utility.yul\":22490:22557   */\n      tag_604\n        /* \"#utility.yul\":22550:22556   */\n      dup6\n        /* \"#utility.yul\":22543:22548   */\n      dup3\n        /* \"#utility.yul\":22490:22557   */\n      tag_351\n      jump\t// in\n    tag_604:\n        /* \"#utility.yul\":22484:22488   */\n      dup7\n        /* \"#utility.yul\":22477:22558   */\n      sstore\n        /* \"#utility.yul\":22346:22568   */\n      pop\n        /* \"#utility.yul\":21681:22568   */\n      jump(tag_601)\n        /* \"#utility.yul\":21711:22329   */\n    tag_602:\n        /* \"#utility.yul\":21763:21767   */\n      0x1f\n        /* \"#utility.yul\":21759:21768   */\n      not\n        /* \"#utility.yul\":21751:21757   */\n      dup5\n        /* \"#utility.yul\":21747:21769   */\n      and\n        /* \"#utility.yul\":21797:21834   */\n      tag_605\n        /* \"#utility.yul\":21829:21833   */\n      dup7\n        /* \"#utility.yul\":21797:21834   */\n      tag_336\n      jump\t// in\n    tag_605:\n        /* \"#utility.yul\":21856:21857   */\n      0x00\n        /* \"#utility.yul\":21870:22078   */\n    tag_606:\n        /* \"#utility.yul\":21884:21891   */\n      dup3\n        /* \"#utility.yul\":21881:21882   */\n      dup2\n        /* \"#utility.yul\":21878:21892   */\n      lt\n        /* \"#utility.yul\":21870:22078   */\n      iszero\n      tag_608\n      jumpi\n        /* \"#utility.yul\":21963:21972   */\n      dup5\n        /* \"#utility.yul\":21958:21961   */\n      dup10\n        /* \"#utility.yul\":21954:21973   */\n      add\n        /* \"#utility.yul\":21948:21974   */\n      mload\n        /* \"#utility.yul\":21940:21946   */\n      dup3\n        /* \"#utility.yul\":21933:21975   */\n      sstore\n        /* \"#utility.yul\":22014:22015   */\n      0x01\n        /* \"#utility.yul\":22006:22012   */\n      dup3\n        /* \"#utility.yul\":22002:22016   */\n      add\n        /* \"#utility.yul\":21992:22016   */\n      swap2\n      pop\n        /* \"#utility.yul\":22061:22063   */\n      0x20\n        /* \"#utility.yul\":22050:22059   */\n      dup6\n        /* \"#utility.yul\":22046:22064   */\n      add\n        /* \"#utility.yul\":22033:22064   */\n      swap5\n      pop\n        /* \"#utility.yul\":21907:21911   */\n      0x20\n        /* \"#utility.yul\":21904:21905   */\n      dup2\n        /* \"#utility.yul\":21900:21912   */\n      add\n        /* \"#utility.yul\":21895:21912   */\n      swap1\n      pop\n        /* \"#utility.yul\":21870:22078   */\n      jump(tag_606)\n    tag_608:\n        /* \"#utility.yul\":22106:22112   */\n      dup7\n        /* \"#utility.yul\":22097:22104   */\n      dup4\n        /* \"#utility.yul\":22094:22113   */\n      lt\n        /* \"#utility.yul\":22091:22270   */\n      iszero\n      tag_609\n      jumpi\n        /* \"#utility.yul\":22164:22173   */\n      dup5\n        /* \"#utility.yul\":22159:22162   */\n      dup10\n        /* \"#utility.yul\":22155:22174   */\n      add\n        /* \"#utility.yul\":22149:22175   */\n      mload\n        /* \"#utility.yul\":22207:22255   */\n      tag_610\n        /* \"#utility.yul\":22249:22253   */\n      0x1f\n        /* \"#utility.yul\":22241:22247   */\n      dup10\n        /* \"#utility.yul\":22237:22254   */\n      and\n        /* \"#utility.yul\":22226:22235   */\n      dup3\n        /* \"#utility.yul\":22207:22255   */\n      tag_350\n      jump\t// in\n    tag_610:\n        /* \"#utility.yul\":22199:22205   */\n      dup4\n        /* \"#utility.yul\":22192:22256   */\n      sstore\n        /* \"#utility.yul\":22114:22270   */\n      pop\n        /* \"#utility.yul\":22091:22270   */\n    tag_609:\n        /* \"#utility.yul\":22316:22317   */\n      0x01\n        /* \"#utility.yul\":22312:22313   */\n      0x02\n        /* \"#utility.yul\":22304:22310   */\n      dup9\n        /* \"#utility.yul\":22300:22314   */\n      mul\n        /* \"#utility.yul\":22296:22318   */\n      add\n        /* \"#utility.yul\":22290:22294   */\n      dup9\n        /* \"#utility.yul\":22283:22319   */\n      sstore\n        /* \"#utility.yul\":21718:22329   */\n      pop\n      pop\n      pop\n        /* \"#utility.yul\":21681:22568   */\n    tag_601:\n      pop\n        /* \"#utility.yul\":21271:22574   */\n      pop\n      pop\n      pop\n        /* \"#utility.yul\":21179:22574   */\n      pop\n      pop\n      jump\t// out\n        /* \"#utility.yul\":22580:22912   */\n    tag_273:\n        /* \"#utility.yul\":22701:22705   */\n      0x00\n        /* \"#utility.yul\":22739:22741   */\n      0x40\n        /* \"#utility.yul\":22728:22737   */\n      dup3\n        /* \"#utility.yul\":22724:22742   */\n      add\n        /* \"#utility.yul\":22716:22742   */\n      swap1\n      pop\n        /* \"#utility.yul\":22752:22823   */\n      tag_612\n        /* \"#utility.yul\":22820:22821   */\n      0x00\n        /* \"#utility.yul\":22809:22818   */\n      dup4\n        /* \"#utility.yul\":22805:22822   */\n      add\n        /* \"#utility.yul\":22796:22802   */\n      dup6\n        /* \"#utility.yul\":22752:22823   */\n      tag_322\n      jump\t// in\n    tag_612:\n        /* \"#utility.yul\":22833:22905   */\n      tag_613\n        /* \"#utility.yul\":22901:22903   */\n      0x20\n        /* \"#utility.yul\":22890:22899   */\n      dup4\n        /* \"#utility.yul\":22886:22904   */\n      add\n        /* \"#utility.yul\":22877:22883   */\n      dup5\n        /* \"#utility.yul\":22833:22905   */\n      tag_308\n      jump\t// in\n    tag_613:\n        /* \"#utility.yul\":22580:22912   */\n      swap4\n      swap3\n      pop\n      pop\n      pop\n      jump\t// out\n\n    auxdata: 0xa2646970667358221220e0de0fe916a479724f453b6dc2b65d19d32efbef7e6fb97f4991174b3327ad4864736f6c634300081a0033\n}\n",
				"bytecode": {
					"linkReferences": {},
					"object": "6080604052348015600e575f80fd5b50611ff28061001c5f395ff3fe608060405234801561000f575f80fd5b506004361061012a575f3560e01c80638da5cb5b116100ab578063c9a4909c1161006f578063c9a4909c14610316578063d2a8e16314610332578063d547741f14610362578063db4f10241461037e578063f2fde38b146103ae5761012a565b80638da5cb5b1461027257806391d1485414610290578063a217fddf146102c0578063a34f0e28146102de578063c4d66de8146102fa5761012a565b80633058856a116100f25780633058856a146101f657806336568abe14610212578063704802751461022e578063715018a61461024a57806375b238fc146102545761012a565b806301ffc9a71461012e5780631785f53c1461015e578063248a9ca31461017a57806324d7806c146101aa5780632f2ff15d146101da575b5f80fd5b610148600480360381019061014391906113dd565b6103ca565b6040516101559190611422565b60405180910390f35b61017860048036038101906101739190611495565b610443565b005b610194600480360381019061018f91906114f3565b6104bb565b6040516101a1919061152d565b60405180910390f35b6101c460048036038101906101bf9190611495565b6104e5565b6040516101d19190611422565b60405180910390f35b6101f460048036038101906101ef9190611546565b610517565b005b610210600480360381019061020b91906116f3565b610539565b005b61022c60048036038101906102279190611546565b610675565b005b61024860048036038101906102439190611495565b6106f0565b005b610252610768565b005b61025c61077b565b604051610269919061152d565b60405180910390f35b61027a61079f565b604051610287919061176e565b60405180910390f35b6102aa60048036038101906102a59190611546565b6107d4565b6040516102b79190611422565b60405180910390f35b6102c8610845565b6040516102d5919061152d565b60405180910390f35b6102f860048036038101906102f39190611787565b61084b565b005b610314600480360381019061030f9190611495565b6109aa565b005b610330600480360381019061032b9190611787565b610b6b565b005b61034c600480360381019061034791906117ce565b610bdf565b6040516103599190611859565b60405180910390f35b61037c60048036038101906103779190611546565b610c85565b005b61039860048036038101906103939190611879565b610ca7565b6040516103a591906118e2565b60405180910390f35b6103c860048036038101906103c39190611495565b610d09565b005b5f7f7965db0b000000000000000000000000000000000000000000000000000000007bffffffffffffffffffffffffffffffffffffffffffffffffffffffff1916827bffffffffffffffffffffffffffffffffffffffffffffffffffffffff1916148061043c575061043b82610d8d565b5b9050919050565b61044b610df6565b6104757fa49807205ce4d355092ef5a8a18f56e8913cf4a201fbe287825b095693c2177582610c85565b8073ffffffffffffffffffffffffffffffffffffffff167fa3b62bc36326052d97ea62d63c3d60308ed4c3ea8ac079dd8499f1e9c4f80c0f60405160405180910390a250565b5f806104c5610e7d565b9050805f015f8481526020019081526020015f2060010154915050919050565b5f6105107fa49807205ce4d355092ef5a8a18f56e8913cf4a201fbe287825b095693c21775836107d4565b9050919050565b610520826104bb565b61052981610ea4565b6105338383610eb8565b50505050565b7fa49807205ce4d355092ef5a8a18f56e8913cf4a201fbe287825b095693c2177561056381610ea4565b5f805f8673ffffffffffffffffffffffffffffffffffffffff1673ffffffffffffffffffffffffffffffffffffffff1681526020019081526020015f20846040516105ae9190611935565b9081526020016040518091039020549050825f808773ffffffffffffffffffffffffffffffffffffffff1673ffffffffffffffffffffffffffffffffffffffff1681526020019081526020015f208560405161060a9190611935565b9081526020016040518091039020819055508473ffffffffffffffffffffffffffffffffffffffff167f96e76e471be932dcf10dfb1789068c3c023ca316d8eca3da1a0e8ab2f97799f68585846040516106669392919061194b565b60405180910390a25050505050565b61067d610fb0565b73ffffffffffffffffffffffffffffffffffffffff168173ffffffffffffffffffffffffffffffffffffffff16146106e1576040517f6697b23200000000000000000000000000000000000000000000000000000000815260040160405180910390fd5b6106eb8282610fb7565b505050565b6106f8610df6565b6107227fa49807205ce4d355092ef5a8a18f56e8913cf4a201fbe287825b095693c2177582610517565b8073ffffffffffffffffffffffffffffffffffffffff167f44d6d25963f097ad14f29f06854a01f575648a1ef82f30e562ccd3889717e33960405160405180910390a250565b610770610df6565b6107795f6110af565b565b7fa49807205ce4d355092ef5a8a18f56e8913cf4a201fbe287825b095693c2177581565b5f806107a9611180565b9050805f015f9054906101000a900473ffffffffffffffffffffffffffffffffffffffff1691505090565b5f806107de610e7d565b9050805f015f8581526020019081526020015f205f015f8473ffffffffffffffffffffffffffffffffffffffff1673ffffffffffffffffffffffffffffffffffffffff1681526020019081526020015f205f9054906101000a900460ff1691505092915050565b5f801b81565b610853610df6565b5f5b60018054905081101561096b5781805190602001206001828154811061087e5761087d611987565b5b905f5260205f20016040516108939190611aad565b60405180910390200361095e5760018080805490506108b29190611af0565b815481106108c3576108c2611987565b5b905f5260205f2001600182815481106108df576108de611987565b5b905f5260205f200190816108f39190611ce7565b50600180548061090657610905611dcc565b5b600190038181905f5260205f20015f61091f919061131f565b90557ff7c23b97fb023c192527b3f7ec572bfd326a7850df95d8d979233d2c85c12958826040516109509190611859565b60405180910390a1506109a7565b8080600101915050610855565b506040517f08c379a000000000000000000000000000000000000000000000000000000000815260040161099e90611e43565b60405180910390fd5b50565b5f6109b36111a7565b90505f815f0160089054906101000a900460ff161590505f825f015f9054906101000a900467ffffffffffffffff1690505f808267ffffffffffffffff161480156109fb5750825b90505f60018367ffffffffffffffff16148015610a2e57505f3073ffffffffffffffffffffffffffffffffffffffff163b145b905081158015610a3c575080155b15610a73576040517ff92ee8a900000000000000000000000000000000000000000000000000000000815260040160405180910390fd5b6001855f015f6101000a81548167ffffffffffffffff021916908367ffffffffffffffff1602179055508315610ac0576001855f0160086101000a81548160ff0219169083151502179055505b610ac9866111ce565b610ad16111e2565b610add5f801b87610eb8565b50610b087fa49807205ce4d355092ef5a8a18f56e8913cf4a201fbe287825b095693c2177587610eb8565b508315610b63575f855f0160086101000a81548160ff0219169083151502179055507fc7f505b2f371ae2175ee4913f4499e1f2633a7b5936321eed1cdaeb6115181d26001604051610b5a9190611ead565b60405180910390a15b505050505050565b610b73610df6565b600181908060018154018082558091505060019003905f5260205f20015f909190919091509081610ba49190611ec6565b507fa72133137aa3e3b5619506c1c0113005b6db9e05730aabc696a1686379a24c0481604051610bd49190611859565b60405180910390a150565b60018181548110610bee575f80fd5b905f5260205f20015f915090508054610c06906119e1565b80601f0160208091040260200160405190810160405280929190818152602001828054610c32906119e1565b8015610c7d5780601f10610c5457610100808354040283529160200191610c7d565b820191905f5260205f20905b815481529060010190602001808311610c6057829003601f168201915b505050505081565b610c8e826104bb565b610c9781610ea4565b610ca18383610fb7565b50505050565b5f805f8473ffffffffffffffffffffffffffffffffffffffff1673ffffffffffffffffffffffffffffffffffffffff1681526020019081526020015f2082604051610cf29190611935565b908152602001604051809103902054905092915050565b610d11610df6565b5f73ffffffffffffffffffffffffffffffffffffffff168173ffffffffffffffffffffffffffffffffffffffff1603610d81575f6040517f1e4fbdf7000000000000000000000000000000000000000000000000000000008152600401610d78919061176e565b60405180910390fd5b610d8a816110af565b50565b5f7f01ffc9a7000000000000000000000000000000000000000000000000000000007bffffffffffffffffffffffffffffffffffffffffffffffffffffffff1916827bffffffffffffffffffffffffffffffffffffffffffffffffffffffff1916149050919050565b610dfe610fb0565b73ffffffffffffffffffffffffffffffffffffffff16610e1c61079f565b73ffffffffffffffffffffffffffffffffffffffff1614610e7b57610e3f610fb0565b6040517f118cdaa7000000000000000000000000000000000000000000000000000000008152600401610e72919061176e565b60405180910390fd5b565b5f7f02dd7bc7dec4dceedda775e58dd541e08a116c6c53815c0bd028192f7b626800905090565b610eb581610eb0610fb0565b6111ec565b50565b5f80610ec2610e7d565b9050610ece84846107d4565b610fa5576001815f015f8681526020019081526020015f205f015f8573ffffffffffffffffffffffffffffffffffffffff1673ffffffffffffffffffffffffffffffffffffffff1681526020019081526020015f205f6101000a81548160ff021916908315150217905550610f41610fb0565b73ffffffffffffffffffffffffffffffffffffffff168373ffffffffffffffffffffffffffffffffffffffff16857f2f8788117e7eff1d82e926ec794901d17c78024a50270940304540a733656f0d60405160405180910390a46001915050610faa565b5f9150505b92915050565b5f33905090565b5f80610fc1610e7d565b9050610fcd84846107d4565b156110a4575f815f015f8681526020019081526020015f205f015f8573ffffffffffffffffffffffffffffffffffffffff1673ffffffffffffffffffffffffffffffffffffffff1681526020019081526020015f205f6101000a81548160ff021916908315150217905550611040610fb0565b73ffffffffffffffffffffffffffffffffffffffff168373ffffffffffffffffffffffffffffffffffffffff16857ff6391f5c32d9c69d2a47ea670b442974b53935d1edc7fd64eb21e047a839171b60405160405180910390a460019150506110a9565b5f9150505b92915050565b5f6110b8611180565b90505f815f015f9054906101000a900473ffffffffffffffffffffffffffffffffffffffff16905082825f015f6101000a81548173ffffffffffffffffffffffffffffffffffffffff021916908373ffffffffffffffffffffffffffffffffffffffff1602179055508273ffffffffffffffffffffffffffffffffffffffff168173ffffffffffffffffffffffffffffffffffffffff167f8be0079c531659141344cd1fd0a4f28419497f9722a3daafe3b4186f6b6457e060405160405180910390a3505050565b5f7f9016d09d72d40fdae2fd8ceac6b6234c7706214fd39c1cd1e609a0528c199300905090565b5f7ff0c57e16840df040f15088dc2f81fe391c3923bec73e23a9662efc9c229c6a00905090565b6111d661123d565b6111df8161127d565b50565b6111ea61123d565b565b6111f682826107d4565b6112395780826040517fe2517d3f000000000000000000000000000000000000000000000000000000008152600401611230929190611f95565b60405180910390fd5b5050565b611245611301565b61127b576040517fd7e6bcf800000000000000000000000000000000000000000000000000000000815260040160405180910390fd5b565b61128561123d565b5f73ffffffffffffffffffffffffffffffffffffffff168173ffffffffffffffffffffffffffffffffffffffff16036112f5575f6040517f1e4fbdf70000000000000000000000000000000000000000000000000000000081526004016112ec919061176e565b60405180910390fd5b6112fe816110af565b50565b5f61130a6111a7565b5f0160089054906101000a900460ff16905090565b50805461132b906119e1565b5f825580601f1061133c5750611359565b601f0160209004905f5260205f2090810190611358919061135c565b5b50565b5b80821115611373575f815f90555060010161135d565b5090565b5f604051905090565b5f80fd5b5f80fd5b5f7fffffffff0000000000000000000000000000000000000000000000000000000082169050919050565b6113bc81611388565b81146113c6575f80fd5b50565b5f813590506113d7816113b3565b92915050565b5f602082840312156113f2576113f1611380565b5b5f6113ff848285016113c9565b91505092915050565b5f8115159050919050565b61141c81611408565b82525050565b5f6020820190506114355f830184611413565b92915050565b5f73ffffffffffffffffffffffffffffffffffffffff82169050919050565b5f6114648261143b565b9050919050565b6114748161145a565b811461147e575f80fd5b50565b5f8135905061148f8161146b565b92915050565b5f602082840312156114aa576114a9611380565b5b5f6114b784828501611481565b91505092915050565b5f819050919050565b6114d2816114c0565b81146114dc575f80fd5b50565b5f813590506114ed816114c9565b92915050565b5f6020828403121561150857611507611380565b5b5f611515848285016114df565b91505092915050565b611527816114c0565b82525050565b5f6020820190506115405f83018461151e565b92915050565b5f806040838503121561155c5761155b611380565b5b5f611569858286016114df565b925050602061157a85828601611481565b9150509250929050565b5f80fd5b5f80fd5b5f601f19601f8301169050919050565b7f4e487b71000000000000000000000000000000000000000000000000000000005f52604160045260245ffd5b6115d28261158c565b810181811067ffffffffffffffff821117156115f1576115f061159c565b5b80604052505050565b5f611603611377565b905061160f82826115c9565b919050565b5f67ffffffffffffffff82111561162e5761162d61159c565b5b6116378261158c565b9050602081019050919050565b828183375f83830152505050565b5f61166461165f84611614565b6115fa565b9050828152602081018484840111156116805761167f611588565b5b61168b848285611644565b509392505050565b5f82601f8301126116a7576116a6611584565b5b81356116b7848260208601611652565b91505092915050565b5f819050919050565b6116d2816116c0565b81146116dc575f80fd5b50565b5f813590506116ed816116c9565b92915050565b5f805f6060848603121561170a57611709611380565b5b5f61171786828701611481565b935050602084013567ffffffffffffffff81111561173857611737611384565b5b61174486828701611693565b9250506040611755868287016116df565b9150509250925092565b6117688161145a565b82525050565b5f6020820190506117815f83018461175f565b92915050565b5f6020828403121561179c5761179b611380565b5b5f82013567ffffffffffffffff8111156117b9576117b8611384565b5b6117c584828501611693565b91505092915050565b5f602082840312156117e3576117e2611380565b5b5f6117f0848285016116df565b91505092915050565b5f81519050919050565b5f82825260208201905092915050565b8281835e5f83830152505050565b5f61182b826117f9565b6118358185611803565b9350611845818560208601611813565b61184e8161158c565b840191505092915050565b5f6020820190508181035f8301526118718184611821565b905092915050565b5f806040838503121561188f5761188e611380565b5b5f61189c85828601611481565b925050602083013567ffffffffffffffff8111156118bd576118bc611384565b5b6118c985828601611693565b9150509250929050565b6118dc816116c0565b82525050565b5f6020820190506118f55f8301846118d3565b92915050565b5f81905092915050565b5f61190f826117f9565b61191981856118fb565b9350611929818560208601611813565b80840191505092915050565b5f6119408284611905565b915081905092915050565b5f6060820190508181035f8301526119638186611821565b905061197260208301856118d3565b61197f60408301846118d3565b949350505050565b7f4e487b71000000000000000000000000000000000000000000000000000000005f52603260045260245ffd5b7f4e487b71000000000000000000000000000000000000000000000000000000005f52602260045260245ffd5b5f60028204905060018216806119f857607f821691505b602082108103611a0b57611a0a6119b4565b5b50919050565b5f81905092915050565b5f819050815f5260205f209050919050565b5f8154611a39816119e1565b611a438186611a11565b9450600182165f8114611a5d5760018114611a7257611aa4565b60ff1983168652811515820286019350611aa4565b611a7b85611a1b565b5f5b83811015611a9c57815481890152600182019150602081019050611a7d565b838801955050505b50505092915050565b5f611ab88284611a2d565b915081905092915050565b7f4e487b71000000000000000000000000000000000000000000000000000000005f52601160045260245ffd5b5f611afa826116c0565b9150611b05836116c0565b9250828203905081811115611b1d57611b1c611ac3565b5b92915050565b5f81549050611b31816119e1565b9050919050565b5f819050815f5260205f209050919050565b5f819050815f5260205f209050919050565b5f6020601f8301049050919050565b5f82821b905092915050565b5f60088302611ba67fffffffffffffffffffffffffffffffffffffffffffffffffffffffffffffffff82611b6b565b611bb08683611b6b565b95508019841693508086168417925050509392505050565b5f819050919050565b5f611beb611be6611be1846116c0565b611bc8565b6116c0565b9050919050565b5f819050919050565b611c0483611bd1565b611c18611c1082611bf2565b848454611b77565b825550505050565b5f90565b611c2c611c20565b611c37818484611bfb565b505050565b5b81811015611c5a57611c4f5f82611c24565b600181019050611c3d565b5050565b601f821115611c9f57611c7081611b38565b611c7984611b5c565b81016020851015611c88578190505b611c9c611c9485611b5c565b830182611c3c565b50505b505050565b5f82821c905092915050565b5f611cbf5f1984600802611ca4565b1980831691505092915050565b5f611cd78383611cb0565b9150826002028217905092915050565b818103611cf5575050611dca565b611cfe82611b23565b67ffffffffffffffff811115611d1757611d1661159c565b5b611d2182546119e1565b611d2c828285611c5e565b5f601f831160018114611d59575f8415611d47578287015490505b611d518582611ccc565b865550611dc3565b601f198416611d6787611b4a565b9650611d7286611b38565b5f5b82811015611d9957848901548255600182019150600185019450602081019050611d74565b86831015611db65784890154611db2601f891682611cb0565b8355505b6001600288020188555050505b5050505050505b565b7f4e487b71000000000000000000000000000000000000000000000000000000005f52603160045260245ffd5b7f53636f72652074797065206e6f7420666f756e640000000000000000000000005f82015250565b5f611e2d601483611803565b9150611e3882611df9565b602082019050919050565b5f6020820190508181035f830152611e5a81611e21565b9050919050565b5f819050919050565b5f67ffffffffffffffff82169050919050565b5f611e97611e92611e8d84611e61565b611bc8565b611e6a565b9050919050565b611ea781611e7d565b82525050565b5f602082019050611ec05f830184611e9e565b92915050565b611ecf826117f9565b67ffffffffffffffff811115611ee857611ee761159c565b5b611ef282546119e1565b611efd828285611c5e565b5f60209050601f831160018114611f2e575f8415611f1c578287015190505b611f268582611ccc565b865550611f8d565b601f198416611f3c86611b38565b5f5b82811015611f6357848901518255600182019150602085019450602081019050611f3e565b86831015611f805784890151611f7c601f891682611cb0565b8355505b6001600288020188555050505b505050505050565b5f604082019050611fa85f83018561175f565b611fb5602083018461151e565b939250505056fea2646970667358221220e0de0fe916a479724f453b6dc2b65d19d32efbef7e6fb97f4991174b3327ad4864736f6c634300081a0033",
					"opcodes": "PUSH1 0x80 PUSH1 0x40 MSTORE CALLVALUE DUP1 ISZERO PUSH1 0xE JUMPI PUSH0 DUP1 REVERT JUMPDEST POP PUSH2 0x1FF2 DUP1 PUSH2 0x1C PUSH0 CODECOPY PUSH0 RETURN INVALID PUSH1 0x80 PUSH1 0x40 MSTORE CALLVALUE DUP1 ISZERO PUSH2 0xF JUMPI PUSH0 DUP1 REVERT JUMPDEST POP PUSH1 0x4 CALLDATASIZE LT PUSH2 0x12A JUMPI PUSH0 CALLDATALOAD PUSH1 0xE0 SHR DUP1 PUSH4 0x8DA5CB5B GT PUSH2 0xAB JUMPI DUP1 PUSH4 0xC9A4909C GT PUSH2 0x6F JUMPI DUP1 PUSH4 0xC9A4909C EQ PUSH2 0x316 JUMPI DUP1 PUSH4 0xD2A8E163 EQ PUSH2 0x332 JUMPI DUP1 PUSH4 0xD547741F EQ PUSH2 0x362 JUMPI DUP1 PUSH4 0xDB4F1024 EQ PUSH2 0x37E JUMPI DUP1 PUSH4 0xF2FDE38B EQ PUSH2 0x3AE JUMPI PUSH2 0x12A JUMP JUMPDEST DUP1 PUSH4 0x8DA5CB5B EQ PUSH2 0x272 JUMPI DUP1 PUSH4 0x91D14854 EQ PUSH2 0x290 JUMPI DUP1 PUSH4 0xA217FDDF EQ PUSH2 0x2C0 JUMPI DUP1 PUSH4 0xA34F0E28 EQ PUSH2 0x2DE JUMPI DUP1 PUSH4 0xC4D66DE8 EQ PUSH2 0x2FA JUMPI PUSH2 0x12A JUMP JUMPDEST DUP1 PUSH4 0x3058856A GT PUSH2 0xF2 JUMPI DUP1 PUSH4 0x3058856A EQ PUSH2 0x1F6 JUMPI DUP1 PUSH4 0x36568ABE EQ PUSH2 0x212 JUMPI DUP1 PUSH4 0x70480275 EQ PUSH2 0x22E JUMPI DUP1 PUSH4 0x715018A6 EQ PUSH2 0x24A JUMPI DUP1 PUSH4 0x75B238FC EQ PUSH2 0x254 JUMPI PUSH2 0x12A JUMP JUMPDEST DUP1 PUSH4 0x1FFC9A7 EQ PUSH2 0x12E JUMPI DUP1 PUSH4 0x1785F53C EQ PUSH2 0x15E JUMPI DUP1 PUSH4 0x248A9CA3 EQ PUSH2 0x17A JUMPI DUP1 PUSH4 0x24D7806C EQ PUSH2 0x1AA JUMPI DUP1 PUSH4 0x2F2FF15D EQ PUSH2 0x1DA JUMPI JUMPDEST PUSH0 DUP1 REVERT JUMPDEST PUSH2 0x148 PUSH1 0x4 DUP1 CALLDATASIZE SUB DUP2 ADD SWAP1 PUSH2 0x143 SWAP2 SWAP1 PUSH2 0x13DD JUMP JUMPDEST PUSH2 0x3CA JUMP JUMPDEST PUSH1 0x40 MLOAD PUSH2 0x155 SWAP2 SWAP1 PUSH2 0x1422 JUMP JUMPDEST PUSH1 0x40 MLOAD DUP1 SWAP2 SUB SWAP1 RETURN JUMPDEST PUSH2 0x178 PUSH1 0x4 DUP1 CALLDATASIZE SUB DUP2 ADD SWAP1 PUSH2 0x173 SWAP2 SWAP1 PUSH2 0x1495 JUMP JUMPDEST PUSH2 0x443 JUMP JUMPDEST STOP JUMPDEST PUSH2 0x194 PUSH1 0x4 DUP1 CALLDATASIZE SUB DUP2 ADD SWAP1 PUSH2 0x18F SWAP2 SWAP1 PUSH2 0x14F3 JUMP JUMPDEST PUSH2 0x4BB JUMP JUMPDEST PUSH1 0x40 MLOAD PUSH2 0x1A1 SWAP2 SWAP1 PUSH2 0x152D JUMP JUMPDEST PUSH1 0x40 MLOAD DUP1 SWAP2 SUB SWAP1 RETURN JUMPDEST PUSH2 0x1C4 PUSH1 0x4 DUP1 CALLDATASIZE SUB DUP2 ADD SWAP1 PUSH2 0x1BF SWAP2 SWAP1 PUSH2 0x1495 JUMP JUMPDEST PUSH2 0x4E5 JUMP JUMPDEST PUSH1 0x40 MLOAD PUSH2 0x1D1 SWAP2 SWAP1 PUSH2 0x1422 JUMP JUMPDEST PUSH1 0x40 MLOAD DUP1 SWAP2 SUB SWAP1 RETURN JUMPDEST PUSH2 0x1F4 PUSH1 0x4 DUP1 CALLDATASIZE SUB DUP2 ADD SWAP1 PUSH2 0x1EF SWAP2 SWAP1 PUSH2 0x1546 JUMP JUMPDEST PUSH2 0x517 JUMP JUMPDEST STOP JUMPDEST PUSH2 0x210 PUSH1 0x4 DUP1 CALLDATASIZE SUB DUP2 ADD SWAP1 PUSH2 0x20B SWAP2 SWAP1 PUSH2 0x16F3 JUMP JUMPDEST PUSH2 0x539 JUMP JUMPDEST STOP JUMPDEST PUSH2 0x22C PUSH1 0x4 DUP1 CALLDATASIZE SUB DUP2 ADD SWAP1 PUSH2 0x227 SWAP2 SWAP1 PUSH2 0x1546 JUMP JUMPDEST PUSH2 0x675 JUMP JUMPDEST STOP JUMPDEST PUSH2 0x248 PUSH1 0x4 DUP1 CALLDATASIZE SUB DUP2 ADD SWAP1 PUSH2 0x243 SWAP2 SWAP1 PUSH2 0x1495 JUMP JUMPDEST PUSH2 0x6F0 JUMP JUMPDEST STOP JUMPDEST PUSH2 0x252 PUSH2 0x768 JUMP JUMPDEST STOP JUMPDEST PUSH2 0x25C PUSH2 0x77B JUMP JUMPDEST PUSH1 0x40 MLOAD PUSH2 0x269 SWAP2 SWAP1 PUSH2 0x152D JUMP JUMPDEST PUSH1 0x40 MLOAD DUP1 SWAP2 SUB SWAP1 RETURN JUMPDEST PUSH2 0x27A PUSH2 0x79F JUMP JUMPDEST PUSH1 0x40 MLOAD PUSH2 0x287 SWAP2 SWAP1 PUSH2 0x176E JUMP JUMPDEST PUSH1 0x40 MLOAD DUP1 SWAP2 SUB SWAP1 RETURN JUMPDEST PUSH2 0x2AA PUSH1 0x4 DUP1 CALLDATASIZE SUB DUP2 ADD SWAP1 PUSH2 0x2A5 SWAP2 SWAP1 PUSH2 0x1546 JUMP JUMPDEST PUSH2 0x7D4 JUMP JUMPDEST PUSH1 0x40 MLOAD PUSH2 0x2B7 SWAP2 SWAP1 PUSH2 0x1422 JUMP JUMPDEST PUSH1 0x40 MLOAD DUP1 SWAP2 SUB SWAP1 RETURN JUMPDEST PUSH2 0x2C8 PUSH2 0x845 JUMP JUMPDEST PUSH1 0x40 MLOAD PUSH2 0x2D5 SWAP2 SWAP1 PUSH2 0x152D JUMP JUMPDEST PUSH1 0x40 MLOAD DUP1 SWAP2 SUB SWAP1 RETURN JUMPDEST PUSH2 0x2F8 PUSH1 0x4 DUP1 CALLDATASIZE SUB DUP2 ADD SWAP1 PUSH2 0x2F3 SWAP2 SWAP1 PUSH2 0x1787 JUMP JUMPDEST PUSH2 0x84B JUMP JUMPDEST STOP JUMPDEST PUSH2 0x314 PUSH1 0x4 DUP1 CALLDATASIZE SUB DUP2 ADD SWAP1 PUSH2 0x30F SWAP2 SWAP1 PUSH2 0x1495 JUMP JUMPDEST PUSH2 0x9AA JUMP JUMPDEST STOP JUMPDEST PUSH2 0x330 PUSH1 0x4 DUP1 CALLDATASIZE SUB DUP2 ADD SWAP1 PUSH2 0x32B SWAP2 SWAP1 PUSH2 0x1787 JUMP JUMPDEST PUSH2 0xB6B JUMP JUMPDEST STOP JUMPDEST PUSH2 0x34C PUSH1 0x4 DUP1 CALLDATASIZE SUB DUP2 ADD SWAP1 PUSH2 0x347 SWAP2 SWAP1 PUSH2 0x17CE JUMP JUMPDEST PUSH2 0xBDF JUMP JUMPDEST PUSH1 0x40 MLOAD PUSH2 0x359 SWAP2 SWAP1 PUSH2 0x1859 JUMP JUMPDEST PUSH1 0x40 MLOAD DUP1 SWAP2 SUB SWAP1 RETURN JUMPDEST PUSH2 0x37C PUSH1 0x4 DUP1 CALLDATASIZE SUB DUP2 ADD SWAP1 PUSH2 0x377 SWAP2 SWAP1 PUSH2 0x1546 JUMP JUMPDEST PUSH2 0xC85 JUMP JUMPDEST STOP JUMPDEST PUSH2 0x398 PUSH1 0x4 DUP1 CALLDATASIZE SUB DUP2 ADD SWAP1 PUSH2 0x393 SWAP2 SWAP1 PUSH2 0x1879 JUMP JUMPDEST PUSH2 0xCA7 JUMP JUMPDEST PUSH1 0x40 MLOAD PUSH2 0x3A5 SWAP2 SWAP1 PUSH2 0x18E2 JUMP JUMPDEST PUSH1 0x40 MLOAD DUP1 SWAP2 SUB SWAP1 RETURN JUMPDEST PUSH2 0x3C8 PUSH1 0x4 DUP1 CALLDATASIZE SUB DUP2 ADD SWAP1 PUSH2 0x3C3 SWAP2 SWAP1 PUSH2 0x1495 JUMP JUMPDEST PUSH2 0xD09 JUMP JUMPDEST STOP JUMPDEST PUSH0 PUSH32 0x7965DB0B00000000000000000000000000000000000000000000000000000000 PUSH28 0xFFFFFFFFFFFFFFFFFFFFFFFFFFFFFFFFFFFFFFFFFFFFFFFFFFFFFFFF NOT AND DUP3 PUSH28 0xFFFFFFFFFFFFFFFFFFFFFFFFFFFFFFFFFFFFFFFFFFFFFFFFFFFFFFFF NOT AND EQ DUP1 PUSH2 0x43C JUMPI POP PUSH2 0x43B DUP3 PUSH2 0xD8D JUMP JUMPDEST JUMPDEST SWAP1 POP SWAP2 SWAP1 POP JUMP JUMPDEST PUSH2 0x44B PUSH2 0xDF6 JUMP JUMPDEST PUSH2 0x475 PUSH32 0xA49807205CE4D355092EF5A8A18F56E8913CF4A201FBE287825B095693C21775 DUP3 PUSH2 0xC85 JUMP JUMPDEST DUP1 PUSH20 0xFFFFFFFFFFFFFFFFFFFFFFFFFFFFFFFFFFFFFFFF AND PUSH32 0xA3B62BC36326052D97EA62D63C3D60308ED4C3EA8AC079DD8499F1E9C4F80C0F PUSH1 0x40 MLOAD PUSH1 0x40 MLOAD DUP1 SWAP2 SUB SWAP1 LOG2 POP JUMP JUMPDEST PUSH0 DUP1 PUSH2 0x4C5 PUSH2 0xE7D JUMP JUMPDEST SWAP1 POP DUP1 PUSH0 ADD PUSH0 DUP5 DUP2 MSTORE PUSH1 0x20 ADD SWAP1 DUP2 MSTORE PUSH1 0x20 ADD PUSH0 KECCAK256 PUSH1 0x1 ADD SLOAD SWAP2 POP POP SWAP2 SWAP1 POP JUMP JUMPDEST PUSH0 PUSH2 0x510 PUSH32 0xA49807205CE4D355092EF5A8A18F56E8913CF4A201FBE287825B095693C21775 DUP4 PUSH2 0x7D4 JUMP JUMPDEST SWAP1 POP SWAP2 SWAP1 POP JUMP JUMPDEST PUSH2 0x520 DUP3 PUSH2 0x4BB JUMP JUMPDEST PUSH2 0x529 DUP2 PUSH2 0xEA4 JUMP JUMPDEST PUSH2 0x533 DUP4 DUP4 PUSH2 0xEB8 JUMP JUMPDEST POP POP POP POP JUMP JUMPDEST PUSH32 0xA49807205CE4D355092EF5A8A18F56E8913CF4A201FBE287825B095693C21775 PUSH2 0x563 DUP2 PUSH2 0xEA4 JUMP JUMPDEST PUSH0 DUP1 PUSH0 DUP7 PUSH20 0xFFFFFFFFFFFFFFFFFFFFFFFFFFFFFFFFFFFFFFFF AND PUSH20 0xFFFFFFFFFFFFFFFFFFFFFFFFFFFFFFFFFFFFFFFF AND DUP2 MSTORE PUSH1 0x20 ADD SWAP1 DUP2 MSTORE PUSH1 0x20 ADD PUSH0 KECCAK256 DUP5 PUSH1 0x40 MLOAD PUSH2 0x5AE SWAP2 SWAP1 PUSH2 0x1935 JUMP JUMPDEST SWAP1 DUP2 MSTORE PUSH1 0x20 ADD PUSH1 0x40 MLOAD DUP1 SWAP2 SUB SWAP1 KECCAK256 SLOAD SWAP1 POP DUP3 PUSH0 DUP1 DUP8 PUSH20 0xFFFFFFFFFFFFFFFFFFFFFFFFFFFFFFFFFFFFFFFF AND PUSH20 0xFFFFFFFFFFFFFFFFFFFFFFFFFFFFFFFFFFFFFFFF AND DUP2 MSTORE PUSH1 0x20 ADD SWAP1 DUP2 MSTORE PUSH1 0x20 ADD PUSH0 KECCAK256 DUP6 PUSH1 0x40 MLOAD PUSH2 0x60A SWAP2 SWAP1 PUSH2 0x1935 JUMP JUMPDEST SWAP1 DUP2 MSTORE PUSH1 0x20 ADD PUSH1 0x40 MLOAD DUP1 SWAP2 SUB SWAP1 KECCAK256 DUP2 SWAP1 SSTORE POP DUP5 PUSH20 0xFFFFFFFFFFFFFFFFFFFFFFFFFFFFFFFFFFFFFFFF AND PUSH32 0x96E76E471BE932DCF10DFB1789068C3C023CA316D8ECA3DA1A0E8AB2F97799F6 DUP6 DUP6 DUP5 PUSH1 0x40 MLOAD PUSH2 0x666 SWAP4 SWAP3 SWAP2 SWAP1 PUSH2 0x194B JUMP JUMPDEST PUSH1 0x40 MLOAD DUP1 SWAP2 SUB SWAP1 LOG2 POP POP POP POP POP JUMP JUMPDEST PUSH2 0x67D PUSH2 0xFB0 JUMP JUMPDEST PUSH20 0xFFFFFFFFFFFFFFFFFFFFFFFFFFFFFFFFFFFFFFFF AND DUP2 PUSH20 0xFFFFFFFFFFFFFFFFFFFFFFFFFFFFFFFFFFFFFFFF AND EQ PUSH2 0x6E1 JUMPI PUSH1 0x40 MLOAD PUSH32 0x6697B23200000000000000000000000000000000000000000000000000000000 DUP2 MSTORE PUSH1 0x4 ADD PUSH1 0x40 MLOAD DUP1 SWAP2 SUB SWAP1 REVERT JUMPDEST PUSH2 0x6EB DUP3 DUP3 PUSH2 0xFB7 JUMP JUMPDEST POP POP POP JUMP JUMPDEST PUSH2 0x6F8 PUSH2 0xDF6 JUMP JUMPDEST PUSH2 0x722 PUSH32 0xA49807205CE4D355092EF5A8A18F56E8913CF4A201FBE287825B095693C21775 DUP3 PUSH2 0x517 JUMP JUMPDEST DUP1 PUSH20 0xFFFFFFFFFFFFFFFFFFFFFFFFFFFFFFFFFFFFFFFF AND PUSH32 0x44D6D25963F097AD14F29F06854A01F575648A1EF82F30E562CCD3889717E339 PUSH1 0x40 MLOAD PUSH1 0x40 MLOAD DUP1 SWAP2 SUB SWAP1 LOG2 POP JUMP JUMPDEST PUSH2 0x770 PUSH2 0xDF6 JUMP JUMPDEST PUSH2 0x779 PUSH0 PUSH2 0x10AF JUMP JUMPDEST JUMP JUMPDEST PUSH32 0xA49807205CE4D355092EF5A8A18F56E8913CF4A201FBE287825B095693C21775 DUP2 JUMP JUMPDEST PUSH0 DUP1 PUSH2 0x7A9 PUSH2 0x1180 JUMP JUMPDEST SWAP1 POP DUP1 PUSH0 ADD PUSH0 SWAP1 SLOAD SWAP1 PUSH2 0x100 EXP SWAP1 DIV PUSH20 0xFFFFFFFFFFFFFFFFFFFFFFFFFFFFFFFFFFFFFFFF AND SWAP2 POP POP SWAP1 JUMP JUMPDEST PUSH0 DUP1 PUSH2 0x7DE PUSH2 0xE7D JUMP JUMPDEST SWAP1 POP DUP1 PUSH0 ADD PUSH0 DUP6 DUP2 MSTORE PUSH1 0x20 ADD SWAP1 DUP2 MSTORE PUSH1 0x20 ADD PUSH0 KECCAK256 PUSH0 ADD PUSH0 DUP5 PUSH20 0xFFFFFFFFFFFFFFFFFFFFFFFFFFFFFFFFFFFFFFFF AND PUSH20 0xFFFFFFFFFFFFFFFFFFFFFFFFFFFFFFFFFFFFFFFF AND DUP2 MSTORE PUSH1 0x20 ADD SWAP1 DUP2 MSTORE PUSH1 0x20 ADD PUSH0 KECCAK256 PUSH0 SWAP1 SLOAD SWAP1 PUSH2 0x100 EXP SWAP1 DIV PUSH1 0xFF AND SWAP2 POP POP SWAP3 SWAP2 POP POP JUMP JUMPDEST PUSH0 DUP1 SHL DUP2 JUMP JUMPDEST PUSH2 0x853 PUSH2 0xDF6 JUMP JUMPDEST PUSH0 JUMPDEST PUSH1 0x1 DUP1 SLOAD SWAP1 POP DUP2 LT ISZERO PUSH2 0x96B JUMPI DUP2 DUP1 MLOAD SWAP1 PUSH1 0x20 ADD KECCAK256 PUSH1 0x1 DUP3 DUP2 SLOAD DUP2 LT PUSH2 0x87E JUMPI PUSH2 0x87D PUSH2 0x1987 JUMP JUMPDEST JUMPDEST SWAP1 PUSH0 MSTORE PUSH1 0x20 PUSH0 KECCAK256 ADD PUSH1 0x40 MLOAD PUSH2 0x893 SWAP2 SWAP1 PUSH2 0x1AAD JUMP JUMPDEST PUSH1 0x40 MLOAD DUP1 SWAP2 SUB SWAP1 KECCAK256 SUB PUSH2 0x95E JUMPI PUSH1 0x1 DUP1 DUP1 DUP1 SLOAD SWAP1 POP PUSH2 0x8B2 SWAP2 SWAP1 PUSH2 0x1AF0 JUMP JUMPDEST DUP2 SLOAD DUP2 LT PUSH2 0x8C3 JUMPI PUSH2 0x8C2 PUSH2 0x1987 JUMP JUMPDEST JUMPDEST SWAP1 PUSH0 MSTORE PUSH1 0x20 PUSH0 KECCAK256 ADD PUSH1 0x1 DUP3 DUP2 SLOAD DUP2 LT PUSH2 0x8DF JUMPI PUSH2 0x8DE PUSH2 0x1987 JUMP JUMPDEST JUMPDEST SWAP1 PUSH0 MSTORE PUSH1 0x20 PUSH0 KECCAK256 ADD SWAP1 DUP2 PUSH2 0x8F3 SWAP2 SWAP1 PUSH2 0x1CE7 JUMP JUMPDEST POP PUSH1 0x1 DUP1 SLOAD DUP1 PUSH2 0x906 JUMPI PUSH2 0x905 PUSH2 0x1DCC JUMP JUMPDEST JUMPDEST PUSH1 0x1 SWAP1 SUB DUP2 DUP2 SWAP1 PUSH0 MSTORE PUSH1 0x20 PUSH0 KECCAK256 ADD PUSH0 PUSH2 0x91F SWAP2 SWAP1 PUSH2 0x131F JUMP JUMPDEST SWAP1 SSTORE PUSH32 0xF7C23B97FB023C192527B3F7EC572BFD326A7850DF95D8D979233D2C85C12958 DUP3 PUSH1 0x40 MLOAD PUSH2 0x950 SWAP2 SWAP1 PUSH2 0x1859 JUMP JUMPDEST PUSH1 0x40 MLOAD DUP1 SWAP2 SUB SWAP1 LOG1 POP PUSH2 0x9A7 JUMP JUMPDEST DUP1 DUP1 PUSH1 0x1 ADD SWAP2 POP POP PUSH2 0x855 JUMP JUMPDEST POP PUSH1 0x40 MLOAD PUSH32 0x8C379A000000000000000000000000000000000000000000000000000000000 DUP2 MSTORE PUSH1 0x4 ADD PUSH2 0x99E SWAP1 PUSH2 0x1E43 JUMP JUMPDEST PUSH1 0x40 MLOAD DUP1 SWAP2 SUB SWAP1 REVERT JUMPDEST POP JUMP JUMPDEST PUSH0 PUSH2 0x9B3 PUSH2 0x11A7 JUMP JUMPDEST SWAP1 POP PUSH0 DUP2 PUSH0 ADD PUSH1 0x8 SWAP1 SLOAD SWAP1 PUSH2 0x100 EXP SWAP1 DIV PUSH1 0xFF AND ISZERO SWAP1 POP PUSH0 DUP3 PUSH0 ADD PUSH0 SWAP1 SLOAD SWAP1 PUSH2 0x100 EXP SWAP1 DIV PUSH8 0xFFFFFFFFFFFFFFFF AND SWAP1 POP PUSH0 DUP1 DUP3 PUSH8 0xFFFFFFFFFFFFFFFF AND EQ DUP1 ISZERO PUSH2 0x9FB JUMPI POP DUP3 JUMPDEST SWAP1 POP PUSH0 PUSH1 0x1 DUP4 PUSH8 0xFFFFFFFFFFFFFFFF AND EQ DUP1 ISZERO PUSH2 0xA2E JUMPI POP PUSH0 ADDRESS PUSH20 0xFFFFFFFFFFFFFFFFFFFFFFFFFFFFFFFFFFFFFFFF AND EXTCODESIZE EQ JUMPDEST SWAP1 POP DUP2 ISZERO DUP1 ISZERO PUSH2 0xA3C JUMPI POP DUP1 ISZERO JUMPDEST ISZERO PUSH2 0xA73 JUMPI PUSH1 0x40 MLOAD PUSH32 0xF92EE8A900000000000000000000000000000000000000000000000000000000 DUP2 MSTORE PUSH1 0x4 ADD PUSH1 0x40 MLOAD DUP1 SWAP2 SUB SWAP1 REVERT JUMPDEST PUSH1 0x1 DUP6 PUSH0 ADD PUSH0 PUSH2 0x100 EXP DUP2 SLOAD DUP2 PUSH8 0xFFFFFFFFFFFFFFFF MUL NOT AND SWAP1 DUP4 PUSH8 0xFFFFFFFFFFFFFFFF AND MUL OR SWAP1 SSTORE POP DUP4 ISZERO PUSH2 0xAC0 JUMPI PUSH1 0x1 DUP6 PUSH0 ADD PUSH1 0x8 PUSH2 0x100 EXP DUP2 SLOAD DUP2 PUSH1 0xFF MUL NOT AND SWAP1 DUP4 ISZERO ISZERO MUL OR SWAP1 SSTORE POP JUMPDEST PUSH2 0xAC9 DUP7 PUSH2 0x11CE JUMP JUMPDEST PUSH2 0xAD1 PUSH2 0x11E2 JUMP JUMPDEST PUSH2 0xADD PUSH0 DUP1 SHL DUP8 PUSH2 0xEB8 JUMP JUMPDEST POP PUSH2 0xB08 PUSH32 0xA49807205CE4D355092EF5A8A18F56E8913CF4A201FBE287825B095693C21775 DUP8 PUSH2 0xEB8 JUMP JUMPDEST POP DUP4 ISZERO PUSH2 0xB63 JUMPI PUSH0 DUP6 PUSH0 ADD PUSH1 0x8 PUSH2 0x100 EXP DUP2 SLOAD DUP2 PUSH1 0xFF MUL NOT AND SWAP1 DUP4 ISZERO ISZERO MUL OR SWAP1 SSTORE POP PUSH32 0xC7F505B2F371AE2175EE4913F4499E1F2633A7B5936321EED1CDAEB6115181D2 PUSH1 0x1 PUSH1 0x40 MLOAD PUSH2 0xB5A SWAP2 SWAP1 PUSH2 0x1EAD JUMP JUMPDEST PUSH1 0x40 MLOAD DUP1 SWAP2 SUB SWAP1 LOG1 JUMPDEST POP POP POP POP POP POP JUMP JUMPDEST PUSH2 0xB73 PUSH2 0xDF6 JUMP JUMPDEST PUSH1 0x1 DUP2 SWAP1 DUP1 PUSH1 0x1 DUP2 SLOAD ADD DUP1 DUP3 SSTORE DUP1 SWAP2 POP POP PUSH1 0x1 SWAP1 SUB SWAP1 PUSH0 MSTORE PUSH1 0x20 PUSH0 KECCAK256 ADD PUSH0 SWAP1 SWAP2 SWAP1 SWAP2 SWAP1 SWAP2 POP SWAP1 DUP2 PUSH2 0xBA4 SWAP2 SWAP1 PUSH2 0x1EC6 JUMP JUMPDEST POP PUSH32 0xA72133137AA3E3B5619506C1C0113005B6DB9E05730AABC696A1686379A24C04 DUP2 PUSH1 0x40 MLOAD PUSH2 0xBD4 SWAP2 SWAP1 PUSH2 0x1859 JUMP JUMPDEST PUSH1 0x40 MLOAD DUP1 SWAP2 SUB SWAP1 LOG1 POP JUMP JUMPDEST PUSH1 0x1 DUP2 DUP2 SLOAD DUP2 LT PUSH2 0xBEE JUMPI PUSH0 DUP1 REVERT JUMPDEST SWAP1 PUSH0 MSTORE PUSH1 0x20 PUSH0 KECCAK256 ADD PUSH0 SWAP2 POP SWAP1 POP DUP1 SLOAD PUSH2 0xC06 SWAP1 PUSH2 0x19E1 JUMP JUMPDEST DUP1 PUSH1 0x1F ADD PUSH1 0x20 DUP1 SWAP2 DIV MUL PUSH1 0x20 ADD PUSH1 0x40 MLOAD SWAP1 DUP2 ADD PUSH1 0x40 MSTORE DUP1 SWAP3 SWAP2 SWAP1 DUP2 DUP2 MSTORE PUSH1 0x20 ADD DUP3 DUP1 SLOAD PUSH2 0xC32 SWAP1 PUSH2 0x19E1 JUMP JUMPDEST DUP1 ISZERO PUSH2 0xC7D JUMPI DUP1 PUSH1 0x1F LT PUSH2 0xC54 JUMPI PUSH2 0x100 DUP1 DUP4 SLOAD DIV MUL DUP4 MSTORE SWAP2 PUSH1 0x20 ADD SWAP2 PUSH2 0xC7D JUMP JUMPDEST DUP3 ADD SWAP2 SWAP1 PUSH0 MSTORE PUSH1 0x20 PUSH0 KECCAK256 SWAP1 JUMPDEST DUP2 SLOAD DUP2 MSTORE SWAP1 PUSH1 0x1 ADD SWAP1 PUSH1 0x20 ADD DUP1 DUP4 GT PUSH2 0xC60 JUMPI DUP3 SWAP1 SUB PUSH1 0x1F AND DUP3 ADD SWAP2 JUMPDEST POP POP POP POP POP DUP2 JUMP JUMPDEST PUSH2 0xC8E DUP3 PUSH2 0x4BB JUMP JUMPDEST PUSH2 0xC97 DUP2 PUSH2 0xEA4 JUMP JUMPDEST PUSH2 0xCA1 DUP4 DUP4 PUSH2 0xFB7 JUMP JUMPDEST POP POP POP POP JUMP JUMPDEST PUSH0 DUP1 PUSH0 DUP5 PUSH20 0xFFFFFFFFFFFFFFFFFFFFFFFFFFFFFFFFFFFFFFFF AND PUSH20 0xFFFFFFFFFFFFFFFFFFFFFFFFFFFFFFFFFFFFFFFF AND DUP2 MSTORE PUSH1 0x20 ADD SWAP1 DUP2 MSTORE PUSH1 0x20 ADD PUSH0 KECCAK256 DUP3 PUSH1 0x40 MLOAD PUSH2 0xCF2 SWAP2 SWAP1 PUSH2 0x1935 JUMP JUMPDEST SWAP1 DUP2 MSTORE PUSH1 0x20 ADD PUSH1 0x40 MLOAD DUP1 SWAP2 SUB SWAP1 KECCAK256 SLOAD SWAP1 POP SWAP3 SWAP2 POP POP JUMP JUMPDEST PUSH2 0xD11 PUSH2 0xDF6 JUMP JUMPDEST PUSH0 PUSH20 0xFFFFFFFFFFFFFFFFFFFFFFFFFFFFFFFFFFFFFFFF AND DUP2 PUSH20 0xFFFFFFFFFFFFFFFFFFFFFFFFFFFFFFFFFFFFFFFF AND SUB PUSH2 0xD81 JUMPI PUSH0 PUSH1 0x40 MLOAD PUSH32 0x1E4FBDF700000000000000000000000000000000000000000000000000000000 DUP2 MSTORE PUSH1 0x4 ADD PUSH2 0xD78 SWAP2 SWAP1 PUSH2 0x176E JUMP JUMPDEST PUSH1 0x40 MLOAD DUP1 SWAP2 SUB SWAP1 REVERT JUMPDEST PUSH2 0xD8A DUP2 PUSH2 0x10AF JUMP JUMPDEST POP JUMP JUMPDEST PUSH0 PUSH32 0x1FFC9A700000000000000000000000000000000000000000000000000000000 PUSH28 0xFFFFFFFFFFFFFFFFFFFFFFFFFFFFFFFFFFFFFFFFFFFFFFFFFFFFFFFF NOT AND DUP3 PUSH28 0xFFFFFFFFFFFFFFFFFFFFFFFFFFFFFFFFFFFFFFFFFFFFFFFFFFFFFFFF NOT AND EQ SWAP1 POP SWAP2 SWAP1 POP JUMP JUMPDEST PUSH2 0xDFE PUSH2 0xFB0 JUMP JUMPDEST PUSH20 0xFFFFFFFFFFFFFFFFFFFFFFFFFFFFFFFFFFFFFFFF AND PUSH2 0xE1C PUSH2 0x79F JUMP JUMPDEST PUSH20 0xFFFFFFFFFFFFFFFFFFFFFFFFFFFFFFFFFFFFFFFF AND EQ PUSH2 0xE7B JUMPI PUSH2 0xE3F PUSH2 0xFB0 JUMP JUMPDEST PUSH1 0x40 MLOAD PUSH32 0x118CDAA700000000000000000000000000000000000000000000000000000000 DUP2 MSTORE PUSH1 0x4 ADD PUSH2 0xE72 SWAP2 SWAP1 PUSH2 0x176E JUMP JUMPDEST PUSH1 0x40 MLOAD DUP1 SWAP2 SUB SWAP1 REVERT JUMPDEST JUMP JUMPDEST PUSH0 PUSH32 0x2DD7BC7DEC4DCEEDDA775E58DD541E08A116C6C53815C0BD028192F7B626800 SWAP1 POP SWAP1 JUMP JUMPDEST PUSH2 0xEB5 DUP2 PUSH2 0xEB0 PUSH2 0xFB0 JUMP JUMPDEST PUSH2 0x11EC JUMP JUMPDEST POP JUMP JUMPDEST PUSH0 DUP1 PUSH2 0xEC2 PUSH2 0xE7D JUMP JUMPDEST SWAP1 POP PUSH2 0xECE DUP5 DUP5 PUSH2 0x7D4 JUMP JUMPDEST PUSH2 0xFA5 JUMPI PUSH1 0x1 DUP2 PUSH0 ADD PUSH0 DUP7 DUP2 MSTORE PUSH1 0x20 ADD SWAP1 DUP2 MSTORE PUSH1 0x20 ADD PUSH0 KECCAK256 PUSH0 ADD PUSH0 DUP6 PUSH20 0xFFFFFFFFFFFFFFFFFFFFFFFFFFFFFFFFFFFFFFFF AND PUSH20 0xFFFFFFFFFFFFFFFFFFFFFFFFFFFFFFFFFFFFFFFF AND DUP2 MSTORE PUSH1 0x20 ADD SWAP1 DUP2 MSTORE PUSH1 0x20 ADD PUSH0 KECCAK256 PUSH0 PUSH2 0x100 EXP DUP2 SLOAD DUP2 PUSH1 0xFF MUL NOT AND SWAP1 DUP4 ISZERO ISZERO MUL OR SWAP1 SSTORE POP PUSH2 0xF41 PUSH2 0xFB0 JUMP JUMPDEST PUSH20 0xFFFFFFFFFFFFFFFFFFFFFFFFFFFFFFFFFFFFFFFF AND DUP4 PUSH20 0xFFFFFFFFFFFFFFFFFFFFFFFFFFFFFFFFFFFFFFFF AND DUP6 PUSH32 0x2F8788117E7EFF1D82E926EC794901D17C78024A50270940304540A733656F0D PUSH1 0x40 MLOAD PUSH1 0x40 MLOAD DUP1 SWAP2 SUB SWAP1 LOG4 PUSH1 0x1 SWAP2 POP POP PUSH2 0xFAA JUMP JUMPDEST PUSH0 SWAP2 POP POP JUMPDEST SWAP3 SWAP2 POP POP JUMP JUMPDEST PUSH0 CALLER SWAP1 POP SWAP1 JUMP JUMPDEST PUSH0 DUP1 PUSH2 0xFC1 PUSH2 0xE7D JUMP JUMPDEST SWAP1 POP PUSH2 0xFCD DUP5 DUP5 PUSH2 0x7D4 JUMP JUMPDEST ISZERO PUSH2 0x10A4 JUMPI PUSH0 DUP2 PUSH0 ADD PUSH0 DUP7 DUP2 MSTORE PUSH1 0x20 ADD SWAP1 DUP2 MSTORE PUSH1 0x20 ADD PUSH0 KECCAK256 PUSH0 ADD PUSH0 DUP6 PUSH20 0xFFFFFFFFFFFFFFFFFFFFFFFFFFFFFFFFFFFFFFFF AND PUSH20 0xFFFFFFFFFFFFFFFFFFFFFFFFFFFFFFFFFFFFFFFF AND DUP2 MSTORE PUSH1 0x20 ADD SWAP1 DUP2 MSTORE PUSH1 0x20 ADD PUSH0 KECCAK256 PUSH0 PUSH2 0x100 EXP DUP2 SLOAD DUP2 PUSH1 0xFF MUL NOT AND SWAP1 DUP4 ISZERO ISZERO MUL OR SWAP1 SSTORE POP PUSH2 0x1040 PUSH2 0xFB0 JUMP JUMPDEST PUSH20 0xFFFFFFFFFFFFFFFFFFFFFFFFFFFFFFFFFFFFFFFF AND DUP4 PUSH20 0xFFFFFFFFFFFFFFFFFFFFFFFFFFFFFFFFFFFFFFFF AND DUP6 PUSH32 0xF6391F5C32D9C69D2A47EA670B442974B53935D1EDC7FD64EB21E047A839171B PUSH1 0x40 MLOAD PUSH1 0x40 MLOAD DUP1 SWAP2 SUB SWAP1 LOG4 PUSH1 0x1 SWAP2 POP POP PUSH2 0x10A9 JUMP JUMPDEST PUSH0 SWAP2 POP POP JUMPDEST SWAP3 SWAP2 POP POP JUMP JUMPDEST PUSH0 PUSH2 0x10B8 PUSH2 0x1180 JUMP JUMPDEST SWAP1 POP PUSH0 DUP2 PUSH0 ADD PUSH0 SWAP1 SLOAD SWAP1 PUSH2 0x100 EXP SWAP1 DIV PUSH20 0xFFFFFFFFFFFFFFFFFFFFFFFFFFFFFFFFFFFFFFFF AND SWAP1 POP DUP3 DUP3 PUSH0 ADD PUSH0 PUSH2 0x100 EXP DUP2 SLOAD DUP2 PUSH20 0xFFFFFFFFFFFFFFFFFFFFFFFFFFFFFFFFFFFFFFFF MUL NOT AND SWAP1 DUP4 PUSH20 0xFFFFFFFFFFFFFFFFFFFFFFFFFFFFFFFFFFFFFFFF AND MUL OR SWAP1 SSTORE POP DUP3 PUSH20 0xFFFFFFFFFFFFFFFFFFFFFFFFFFFFFFFFFFFFFFFF AND DUP2 PUSH20 0xFFFFFFFFFFFFFFFFFFFFFFFFFFFFFFFFFFFFFFFF AND PUSH32 0x8BE0079C531659141344CD1FD0A4F28419497F9722A3DAAFE3B4186F6B6457E0 PUSH1 0x40 MLOAD PUSH1 0x40 MLOAD DUP1 SWAP2 SUB SWAP1 LOG3 POP POP POP JUMP JUMPDEST PUSH0 PUSH32 0x9016D09D72D40FDAE2FD8CEAC6B6234C7706214FD39C1CD1E609A0528C199300 SWAP1 POP SWAP1 JUMP JUMPDEST PUSH0 PUSH32 0xF0C57E16840DF040F15088DC2F81FE391C3923BEC73E23A9662EFC9C229C6A00 SWAP1 POP SWAP1 JUMP JUMPDEST PUSH2 0x11D6 PUSH2 0x123D JUMP JUMPDEST PUSH2 0x11DF DUP2 PUSH2 0x127D JUMP JUMPDEST POP JUMP JUMPDEST PUSH2 0x11EA PUSH2 0x123D JUMP JUMPDEST JUMP JUMPDEST PUSH2 0x11F6 DUP3 DUP3 PUSH2 0x7D4 JUMP JUMPDEST PUSH2 0x1239 JUMPI DUP1 DUP3 PUSH1 0x40 MLOAD PUSH32 0xE2517D3F00000000000000000000000000000000000000000000000000000000 DUP2 MSTORE PUSH1 0x4 ADD PUSH2 0x1230 SWAP3 SWAP2 SWAP1 PUSH2 0x1F95 JUMP JUMPDEST PUSH1 0x40 MLOAD DUP1 SWAP2 SUB SWAP1 REVERT JUMPDEST POP POP JUMP JUMPDEST PUSH2 0x1245 PUSH2 0x1301 JUMP JUMPDEST PUSH2 0x127B JUMPI PUSH1 0x40 MLOAD PUSH32 0xD7E6BCF800000000000000000000000000000000000000000000000000000000 DUP2 MSTORE PUSH1 0x4 ADD PUSH1 0x40 MLOAD DUP1 SWAP2 SUB SWAP1 REVERT JUMPDEST JUMP JUMPDEST PUSH2 0x1285 PUSH2 0x123D JUMP JUMPDEST PUSH0 PUSH20 0xFFFFFFFFFFFFFFFFFFFFFFFFFFFFFFFFFFFFFFFF AND DUP2 PUSH20 0xFFFFFFFFFFFFFFFFFFFFFFFFFFFFFFFFFFFFFFFF AND SUB PUSH2 0x12F5 JUMPI PUSH0 PUSH1 0x40 MLOAD PUSH32 0x1E4FBDF700000000000000000000000000000000000000000000000000000000 DUP2 MSTORE PUSH1 0x4 ADD PUSH2 0x12EC SWAP2 SWAP1 PUSH2 0x176E JUMP JUMPDEST PUSH1 0x40 MLOAD DUP1 SWAP2 SUB SWAP1 REVERT JUMPDEST PUSH2 0x12FE DUP2 PUSH2 0x10AF JUMP JUMPDEST POP JUMP JUMPDEST PUSH0 PUSH2 0x130A PUSH2 0x11A7 JUMP JUMPDEST PUSH0 ADD PUSH1 0x8 SWAP1 SLOAD SWAP1 PUSH2 0x100 EXP SWAP1 DIV PUSH1 0xFF AND SWAP1 POP SWAP1 JUMP JUMPDEST POP DUP1 SLOAD PUSH2 0x132B SWAP1 PUSH2 0x19E1 JUMP JUMPDEST PUSH0 DUP3 SSTORE DUP1 PUSH1 0x1F LT PUSH2 0x133C JUMPI POP PUSH2 0x1359 JUMP JUMPDEST PUSH1 0x1F ADD PUSH1 0x20 SWAP1 DIV SWAP1 PUSH0 MSTORE PUSH1 0x20 PUSH0 KECCAK256 SWAP1 DUP2 ADD SWAP1 PUSH2 0x1358 SWAP2 SWAP1 PUSH2 0x135C JUMP JUMPDEST JUMPDEST POP JUMP JUMPDEST JUMPDEST DUP1 DUP3 GT ISZERO PUSH2 0x1373 JUMPI PUSH0 DUP2 PUSH0 SWAP1 SSTORE POP PUSH1 0x1 ADD PUSH2 0x135D JUMP JUMPDEST POP SWAP1 JUMP JUMPDEST PUSH0 PUSH1 0x40 MLOAD SWAP1 POP SWAP1 JUMP JUMPDEST PUSH0 DUP1 REVERT JUMPDEST PUSH0 DUP1 REVERT JUMPDEST PUSH0 PUSH32 0xFFFFFFFF00000000000000000000000000000000000000000000000000000000 DUP3 AND SWAP1 POP SWAP2 SWAP1 POP JUMP JUMPDEST PUSH2 0x13BC DUP2 PUSH2 0x1388 JUMP JUMPDEST DUP2 EQ PUSH2 0x13C6 JUMPI PUSH0 DUP1 REVERT JUMPDEST POP JUMP JUMPDEST PUSH0 DUP2 CALLDATALOAD SWAP1 POP PUSH2 0x13D7 DUP2 PUSH2 0x13B3 JUMP JUMPDEST SWAP3 SWAP2 POP POP JUMP JUMPDEST PUSH0 PUSH1 0x20 DUP3 DUP5 SUB SLT ISZERO PUSH2 0x13F2 JUMPI PUSH2 0x13F1 PUSH2 0x1380 JUMP JUMPDEST JUMPDEST PUSH0 PUSH2 0x13FF DUP5 DUP3 DUP6 ADD PUSH2 0x13C9 JUMP JUMPDEST SWAP2 POP POP SWAP3 SWAP2 POP POP JUMP JUMPDEST PUSH0 DUP2 ISZERO ISZERO SWAP1 POP SWAP2 SWAP1 POP JUMP JUMPDEST PUSH2 0x141C DUP2 PUSH2 0x1408 JUMP JUMPDEST DUP3 MSTORE POP POP JUMP JUMPDEST PUSH0 PUSH1 0x20 DUP3 ADD SWAP1 POP PUSH2 0x1435 PUSH0 DUP4 ADD DUP5 PUSH2 0x1413 JUMP JUMPDEST SWAP3 SWAP2 POP POP JUMP JUMPDEST PUSH0 PUSH20 0xFFFFFFFFFFFFFFFFFFFFFFFFFFFFFFFFFFFFFFFF DUP3 AND SWAP1 POP SWAP2 SWAP1 POP JUMP JUMPDEST PUSH0 PUSH2 0x1464 DUP3 PUSH2 0x143B JUMP JUMPDEST SWAP1 POP SWAP2 SWAP1 POP JUMP JUMPDEST PUSH2 0x1474 DUP2 PUSH2 0x145A JUMP JUMPDEST DUP2 EQ PUSH2 0x147E JUMPI PUSH0 DUP1 REVERT JUMPDEST POP JUMP JUMPDEST PUSH0 DUP2 CALLDATALOAD SWAP1 POP PUSH2 0x148F DUP2 PUSH2 0x146B JUMP JUMPDEST SWAP3 SWAP2 POP POP JUMP JUMPDEST PUSH0 PUSH1 0x20 DUP3 DUP5 SUB SLT ISZERO PUSH2 0x14AA JUMPI PUSH2 0x14A9 PUSH2 0x1380 JUMP JUMPDEST JUMPDEST PUSH0 PUSH2 0x14B7 DUP5 DUP3 DUP6 ADD PUSH2 0x1481 JUMP JUMPDEST SWAP2 POP POP SWAP3 SWAP2 POP POP JUMP JUMPDEST PUSH0 DUP2 SWAP1 POP SWAP2 SWAP1 POP JUMP JUMPDEST PUSH2 0x14D2 DUP2 PUSH2 0x14C0 JUMP JUMPDEST DUP2 EQ PUSH2 0x14DC JUMPI PUSH0 DUP1 REVERT JUMPDEST POP JUMP JUMPDEST PUSH0 DUP2 CALLDATALOAD SWAP1 POP PUSH2 0x14ED DUP2 PUSH2 0x14C9 JUMP JUMPDEST SWAP3 SWAP2 POP POP JUMP JUMPDEST PUSH0 PUSH1 0x20 DUP3 DUP5 SUB SLT ISZERO PUSH2 0x1508 JUMPI PUSH2 0x1507 PUSH2 0x1380 JUMP JUMPDEST JUMPDEST PUSH0 PUSH2 0x1515 DUP5 DUP3 DUP6 ADD PUSH2 0x14DF JUMP JUMPDEST SWAP2 POP POP SWAP3 SWAP2 POP POP JUMP JUMPDEST PUSH2 0x1527 DUP2 PUSH2 0x14C0 JUMP JUMPDEST DUP3 MSTORE POP POP JUMP JUMPDEST PUSH0 PUSH1 0x20 DUP3 ADD SWAP1 POP PUSH2 0x1540 PUSH0 DUP4 ADD DUP5 PUSH2 0x151E JUMP JUMPDEST SWAP3 SWAP2 POP POP JUMP JUMPDEST PUSH0 DUP1 PUSH1 0x40 DUP4 DUP6 SUB SLT ISZERO PUSH2 0x155C JUMPI PUSH2 0x155B PUSH2 0x1380 JUMP JUMPDEST JUMPDEST PUSH0 PUSH2 0x1569 DUP6 DUP3 DUP7 ADD PUSH2 0x14DF JUMP JUMPDEST SWAP3 POP POP PUSH1 0x20 PUSH2 0x157A DUP6 DUP3 DUP7 ADD PUSH2 0x1481 JUMP JUMPDEST SWAP2 POP POP SWAP3 POP SWAP3 SWAP1 POP JUMP JUMPDEST PUSH0 DUP1 REVERT JUMPDEST PUSH0 DUP1 REVERT JUMPDEST PUSH0 PUSH1 0x1F NOT PUSH1 0x1F DUP4 ADD AND SWAP1 POP SWAP2 SWAP1 POP JUMP JUMPDEST PUSH32 0x4E487B7100000000000000000000000000000000000000000000000000000000 PUSH0 MSTORE PUSH1 0x41 PUSH1 0x4 MSTORE PUSH1 0x24 PUSH0 REVERT JUMPDEST PUSH2 0x15D2 DUP3 PUSH2 0x158C JUMP JUMPDEST DUP2 ADD DUP2 DUP2 LT PUSH8 0xFFFFFFFFFFFFFFFF DUP3 GT OR ISZERO PUSH2 0x15F1 JUMPI PUSH2 0x15F0 PUSH2 0x159C JUMP JUMPDEST JUMPDEST DUP1 PUSH1 0x40 MSTORE POP POP POP JUMP JUMPDEST PUSH0 PUSH2 0x1603 PUSH2 0x1377 JUMP JUMPDEST SWAP1 POP PUSH2 0x160F DUP3 DUP3 PUSH2 0x15C9 JUMP JUMPDEST SWAP2 SWAP1 POP JUMP JUMPDEST PUSH0 PUSH8 0xFFFFFFFFFFFFFFFF DUP3 GT ISZERO PUSH2 0x162E JUMPI PUSH2 0x162D PUSH2 0x159C JUMP JUMPDEST JUMPDEST PUSH2 0x1637 DUP3 PUSH2 0x158C JUMP JUMPDEST SWAP1 POP PUSH1 0x20 DUP2 ADD SWAP1 POP SWAP2 SWAP1 POP JUMP JUMPDEST DUP3 DUP2 DUP4 CALLDATACOPY PUSH0 DUP4 DUP4 ADD MSTORE POP POP POP JUMP JUMPDEST PUSH0 PUSH2 0x1664 PUSH2 0x165F DUP5 PUSH2 0x1614 JUMP JUMPDEST PUSH2 0x15FA JUMP JUMPDEST SWAP1 POP DUP3 DUP2 MSTORE PUSH1 0x20 DUP2 ADD DUP5 DUP5 DUP5 ADD GT ISZERO PUSH2 0x1680 JUMPI PUSH2 0x167F PUSH2 0x1588 JUMP JUMPDEST JUMPDEST PUSH2 0x168B DUP5 DUP3 DUP6 PUSH2 0x1644 JUMP JUMPDEST POP SWAP4 SWAP3 POP POP POP JUMP JUMPDEST PUSH0 DUP3 PUSH1 0x1F DUP4 ADD SLT PUSH2 0x16A7 JUMPI PUSH2 0x16A6 PUSH2 0x1584 JUMP JUMPDEST JUMPDEST DUP2 CALLDATALOAD PUSH2 0x16B7 DUP5 DUP3 PUSH1 0x20 DUP7 ADD PUSH2 0x1652 JUMP JUMPDEST SWAP2 POP POP SWAP3 SWAP2 POP POP JUMP JUMPDEST PUSH0 DUP2 SWAP1 POP SWAP2 SWAP1 POP JUMP JUMPDEST PUSH2 0x16D2 DUP2 PUSH2 0x16C0 JUMP JUMPDEST DUP2 EQ PUSH2 0x16DC JUMPI PUSH0 DUP1 REVERT JUMPDEST POP JUMP JUMPDEST PUSH0 DUP2 CALLDATALOAD SWAP1 POP PUSH2 0x16ED DUP2 PUSH2 0x16C9 JUMP JUMPDEST SWAP3 SWAP2 POP POP JUMP JUMPDEST PUSH0 DUP1 PUSH0 PUSH1 0x60 DUP5 DUP7 SUB SLT ISZERO PUSH2 0x170A JUMPI PUSH2 0x1709 PUSH2 0x1380 JUMP JUMPDEST JUMPDEST PUSH0 PUSH2 0x1717 DUP7 DUP3 DUP8 ADD PUSH2 0x1481 JUMP JUMPDEST SWAP4 POP POP PUSH1 0x20 DUP5 ADD CALLDATALOAD PUSH8 0xFFFFFFFFFFFFFFFF DUP2 GT ISZERO PUSH2 0x1738 JUMPI PUSH2 0x1737 PUSH2 0x1384 JUMP JUMPDEST JUMPDEST PUSH2 0x1744 DUP7 DUP3 DUP8 ADD PUSH2 0x1693 JUMP JUMPDEST SWAP3 POP POP PUSH1 0x40 PUSH2 0x1755 DUP7 DUP3 DUP8 ADD PUSH2 0x16DF JUMP JUMPDEST SWAP2 POP POP SWAP3 POP SWAP3 POP SWAP3 JUMP JUMPDEST PUSH2 0x1768 DUP2 PUSH2 0x145A JUMP JUMPDEST DUP3 MSTORE POP POP JUMP JUMPDEST PUSH0 PUSH1 0x20 DUP3 ADD SWAP1 POP PUSH2 0x1781 PUSH0 DUP4 ADD DUP5 PUSH2 0x175F JUMP JUMPDEST SWAP3 SWAP2 POP POP JUMP JUMPDEST PUSH0 PUSH1 0x20 DUP3 DUP5 SUB SLT ISZERO PUSH2 0x179C JUMPI PUSH2 0x179B PUSH2 0x1380 JUMP JUMPDEST JUMPDEST PUSH0 DUP3 ADD CALLDATALOAD PUSH8 0xFFFFFFFFFFFFFFFF DUP2 GT ISZERO PUSH2 0x17B9 JUMPI PUSH2 0x17B8 PUSH2 0x1384 JUMP JUMPDEST JUMPDEST PUSH2 0x17C5 DUP5 DUP3 DUP6 ADD PUSH2 0x1693 JUMP JUMPDEST SWAP2 POP POP SWAP3 SWAP2 POP POP JUMP JUMPDEST PUSH0 PUSH1 0x20 DUP3 DUP5 SUB SLT ISZERO PUSH2 0x17E3 JUMPI PUSH2 0x17E2 PUSH2 0x1380 JUMP JUMPDEST JUMPDEST PUSH0 PUSH2 0x17F0 DUP5 DUP3 DUP6 ADD PUSH2 0x16DF JUMP JUMPDEST SWAP2 POP POP SWAP3 SWAP2 POP POP JUMP JUMPDEST PUSH0 DUP2 MLOAD SWAP1 POP SWAP2 SWAP1 POP JUMP JUMPDEST PUSH0 DUP3 DUP3 MSTORE PUSH1 0x20 DUP3 ADD SWAP1 POP SWAP3 SWAP2 POP POP JUMP JUMPDEST DUP3 DUP2 DUP4 MCOPY PUSH0 DUP4 DUP4 ADD MSTORE POP POP POP JUMP JUMPDEST PUSH0 PUSH2 0x182B DUP3 PUSH2 0x17F9 JUMP JUMPDEST PUSH2 0x1835 DUP2 DUP6 PUSH2 0x1803 JUMP JUMPDEST SWAP4 POP PUSH2 0x1845 DUP2 DUP6 PUSH1 0x20 DUP7 ADD PUSH2 0x1813 JUMP JUMPDEST PUSH2 0x184E DUP2 PUSH2 0x158C JUMP JUMPDEST DUP5 ADD SWAP2 POP POP SWAP3 SWAP2 POP POP JUMP JUMPDEST PUSH0 PUSH1 0x20 DUP3 ADD SWAP1 POP DUP2 DUP2 SUB PUSH0 DUP4 ADD MSTORE PUSH2 0x1871 DUP2 DUP5 PUSH2 0x1821 JUMP JUMPDEST SWAP1 POP SWAP3 SWAP2 POP POP JUMP JUMPDEST PUSH0 DUP1 PUSH1 0x40 DUP4 DUP6 SUB SLT ISZERO PUSH2 0x188F JUMPI PUSH2 0x188E PUSH2 0x1380 JUMP JUMPDEST JUMPDEST PUSH0 PUSH2 0x189C DUP6 DUP3 DUP7 ADD PUSH2 0x1481 JUMP JUMPDEST SWAP3 POP POP PUSH1 0x20 DUP4 ADD CALLDATALOAD PUSH8 0xFFFFFFFFFFFFFFFF DUP2 GT ISZERO PUSH2 0x18BD JUMPI PUSH2 0x18BC PUSH2 0x1384 JUMP JUMPDEST JUMPDEST PUSH2 0x18C9 DUP6 DUP3 DUP7 ADD PUSH2 0x1693 JUMP JUMPDEST SWAP2 POP POP SWAP3 POP SWAP3 SWAP1 POP JUMP JUMPDEST PUSH2 0x18DC DUP2 PUSH2 0x16C0 JUMP JUMPDEST DUP3 MSTORE POP POP JUMP JUMPDEST PUSH0 PUSH1 0x20 DUP3 ADD SWAP1 POP PUSH2 0x18F5 PUSH0 DUP4 ADD DUP5 PUSH2 0x18D3 JUMP JUMPDEST SWAP3 SWAP2 POP POP JUMP JUMPDEST PUSH0 DUP2 SWAP1 POP SWAP3 SWAP2 POP POP JUMP JUMPDEST PUSH0 PUSH2 0x190F DUP3 PUSH2 0x17F9 JUMP JUMPDEST PUSH2 0x1919 DUP2 DUP6 PUSH2 0x18FB JUMP JUMPDEST SWAP4 POP PUSH2 0x1929 DUP2 DUP6 PUSH1 0x20 DUP7 ADD PUSH2 0x1813 JUMP JUMPDEST DUP1 DUP5 ADD SWAP2 POP POP SWAP3 SWAP2 POP POP JUMP JUMPDEST PUSH0 PUSH2 0x1940 DUP3 DUP5 PUSH2 0x1905 JUMP JUMPDEST SWAP2 POP DUP2 SWAP1 POP SWAP3 SWAP2 POP POP JUMP JUMPDEST PUSH0 PUSH1 0x60 DUP3 ADD SWAP1 POP DUP2 DUP2 SUB PUSH0 DUP4 ADD MSTORE PUSH2 0x1963 DUP2 DUP7 PUSH2 0x1821 JUMP JUMPDEST SWAP1 POP PUSH2 0x1972 PUSH1 0x20 DUP4 ADD DUP6 PUSH2 0x18D3 JUMP JUMPDEST PUSH2 0x197F PUSH1 0x40 DUP4 ADD DUP5 PUSH2 0x18D3 JUMP JUMPDEST SWAP5 SWAP4 POP POP POP POP JUMP JUMPDEST PUSH32 0x4E487B7100000000000000000000000000000000000000000000000000000000 PUSH0 MSTORE PUSH1 0x32 PUSH1 0x4 MSTORE PUSH1 0x24 PUSH0 REVERT JUMPDEST PUSH32 0x4E487B7100000000000000000000000000000000000000000000000000000000 PUSH0 MSTORE PUSH1 0x22 PUSH1 0x4 MSTORE PUSH1 0x24 PUSH0 REVERT JUMPDEST PUSH0 PUSH1 0x2 DUP3 DIV SWAP1 POP PUSH1 0x1 DUP3 AND DUP1 PUSH2 0x19F8 JUMPI PUSH1 0x7F DUP3 AND SWAP2 POP JUMPDEST PUSH1 0x20 DUP3 LT DUP2 SUB PUSH2 0x1A0B JUMPI PUSH2 0x1A0A PUSH2 0x19B4 JUMP JUMPDEST JUMPDEST POP SWAP2 SWAP1 POP JUMP JUMPDEST PUSH0 DUP2 SWAP1 POP SWAP3 SWAP2 POP POP JUMP JUMPDEST PUSH0 DUP2 SWAP1 POP DUP2 PUSH0 MSTORE PUSH1 0x20 PUSH0 KECCAK256 SWAP1 POP SWAP2 SWAP1 POP JUMP JUMPDEST PUSH0 DUP2 SLOAD PUSH2 0x1A39 DUP2 PUSH2 0x19E1 JUMP JUMPDEST PUSH2 0x1A43 DUP2 DUP7 PUSH2 0x1A11 JUMP JUMPDEST SWAP5 POP PUSH1 0x1 DUP3 AND PUSH0 DUP2 EQ PUSH2 0x1A5D JUMPI PUSH1 0x1 DUP2 EQ PUSH2 0x1A72 JUMPI PUSH2 0x1AA4 JUMP JUMPDEST PUSH1 0xFF NOT DUP4 AND DUP7 MSTORE DUP2 ISZERO ISZERO DUP3 MUL DUP7 ADD SWAP4 POP PUSH2 0x1AA4 JUMP JUMPDEST PUSH2 0x1A7B DUP6 PUSH2 0x1A1B JUMP JUMPDEST PUSH0 JUMPDEST DUP4 DUP2 LT ISZERO PUSH2 0x1A9C JUMPI DUP2 SLOAD DUP2 DUP10 ADD MSTORE PUSH1 0x1 DUP3 ADD SWAP2 POP PUSH1 0x20 DUP2 ADD SWAP1 POP PUSH2 0x1A7D JUMP JUMPDEST DUP4 DUP9 ADD SWAP6 POP POP POP JUMPDEST POP POP POP SWAP3 SWAP2 POP POP JUMP JUMPDEST PUSH0 PUSH2 0x1AB8 DUP3 DUP5 PUSH2 0x1A2D JUMP JUMPDEST SWAP2 POP DUP2 SWAP1 POP SWAP3 SWAP2 POP POP JUMP JUMPDEST PUSH32 0x4E487B7100000000000000000000000000000000000000000000000000000000 PUSH0 MSTORE PUSH1 0x11 PUSH1 0x4 MSTORE PUSH1 0x24 PUSH0 REVERT JUMPDEST PUSH0 PUSH2 0x1AFA DUP3 PUSH2 0x16C0 JUMP JUMPDEST SWAP2 POP PUSH2 0x1B05 DUP4 PUSH2 0x16C0 JUMP JUMPDEST SWAP3 POP DUP3 DUP3 SUB SWAP1 POP DUP2 DUP2 GT ISZERO PUSH2 0x1B1D JUMPI PUSH2 0x1B1C PUSH2 0x1AC3 JUMP JUMPDEST JUMPDEST SWAP3 SWAP2 POP POP JUMP JUMPDEST PUSH0 DUP2 SLOAD SWAP1 POP PUSH2 0x1B31 DUP2 PUSH2 0x19E1 JUMP JUMPDEST SWAP1 POP SWAP2 SWAP1 POP JUMP JUMPDEST PUSH0 DUP2 SWAP1 POP DUP2 PUSH0 MSTORE PUSH1 0x20 PUSH0 KECCAK256 SWAP1 POP SWAP2 SWAP1 POP JUMP JUMPDEST PUSH0 DUP2 SWAP1 POP DUP2 PUSH0 MSTORE PUSH1 0x20 PUSH0 KECCAK256 SWAP1 POP SWAP2 SWAP1 POP JUMP JUMPDEST PUSH0 PUSH1 0x20 PUSH1 0x1F DUP4 ADD DIV SWAP1 POP SWAP2 SWAP1 POP JUMP JUMPDEST PUSH0 DUP3 DUP3 SHL SWAP1 POP SWAP3 SWAP2 POP POP JUMP JUMPDEST PUSH0 PUSH1 0x8 DUP4 MUL PUSH2 0x1BA6 PUSH32 0xFFFFFFFFFFFFFFFFFFFFFFFFFFFFFFFFFFFFFFFFFFFFFFFFFFFFFFFFFFFFFFFF DUP3 PUSH2 0x1B6B JUMP JUMPDEST PUSH2 0x1BB0 DUP7 DUP4 PUSH2 0x1B6B JUMP JUMPDEST SWAP6 POP DUP1 NOT DUP5 AND SWAP4 POP DUP1 DUP7 AND DUP5 OR SWAP3 POP POP POP SWAP4 SWAP3 POP POP POP JUMP JUMPDEST PUSH0 DUP2 SWAP1 POP SWAP2 SWAP1 POP JUMP JUMPDEST PUSH0 PUSH2 0x1BEB PUSH2 0x1BE6 PUSH2 0x1BE1 DUP5 PUSH2 0x16C0 JUMP JUMPDEST PUSH2 0x1BC8 JUMP JUMPDEST PUSH2 0x16C0 JUMP JUMPDEST SWAP1 POP SWAP2 SWAP1 POP JUMP JUMPDEST PUSH0 DUP2 SWAP1 POP SWAP2 SWAP1 POP JUMP JUMPDEST PUSH2 0x1C04 DUP4 PUSH2 0x1BD1 JUMP JUMPDEST PUSH2 0x1C18 PUSH2 0x1C10 DUP3 PUSH2 0x1BF2 JUMP JUMPDEST DUP5 DUP5 SLOAD PUSH2 0x1B77 JUMP JUMPDEST DUP3 SSTORE POP POP POP POP JUMP JUMPDEST PUSH0 SWAP1 JUMP JUMPDEST PUSH2 0x1C2C PUSH2 0x1C20 JUMP JUMPDEST PUSH2 0x1C37 DUP2 DUP5 DUP5 PUSH2 0x1BFB JUMP JUMPDEST POP POP POP JUMP JUMPDEST JUMPDEST DUP2 DUP2 LT ISZERO PUSH2 0x1C5A JUMPI PUSH2 0x1C4F PUSH0 DUP3 PUSH2 0x1C24 JUMP JUMPDEST PUSH1 0x1 DUP2 ADD SWAP1 POP PUSH2 0x1C3D JUMP JUMPDEST POP POP JUMP JUMPDEST PUSH1 0x1F DUP3 GT ISZERO PUSH2 0x1C9F JUMPI PUSH2 0x1C70 DUP2 PUSH2 0x1B38 JUMP JUMPDEST PUSH2 0x1C79 DUP5 PUSH2 0x1B5C JUMP JUMPDEST DUP2 ADD PUSH1 0x20 DUP6 LT ISZERO PUSH2 0x1C88 JUMPI DUP2 SWAP1 POP JUMPDEST PUSH2 0x1C9C PUSH2 0x1C94 DUP6 PUSH2 0x1B5C JUMP JUMPDEST DUP4 ADD DUP3 PUSH2 0x1C3C JUMP JUMPDEST POP POP JUMPDEST POP POP POP JUMP JUMPDEST PUSH0 DUP3 DUP3 SHR SWAP1 POP SWAP3 SWAP2 POP POP JUMP JUMPDEST PUSH0 PUSH2 0x1CBF PUSH0 NOT DUP5 PUSH1 0x8 MUL PUSH2 0x1CA4 JUMP JUMPDEST NOT DUP1 DUP4 AND SWAP2 POP POP SWAP3 SWAP2 POP POP JUMP JUMPDEST PUSH0 PUSH2 0x1CD7 DUP4 DUP4 PUSH2 0x1CB0 JUMP JUMPDEST SWAP2 POP DUP3 PUSH1 0x2 MUL DUP3 OR SWAP1 POP SWAP3 SWAP2 POP POP JUMP JUMPDEST DUP2 DUP2 SUB PUSH2 0x1CF5 JUMPI POP POP PUSH2 0x1DCA JUMP JUMPDEST PUSH2 0x1CFE DUP3 PUSH2 0x1B23 JUMP JUMPDEST PUSH8 0xFFFFFFFFFFFFFFFF DUP2 GT ISZERO PUSH2 0x1D17 JUMPI PUSH2 0x1D16 PUSH2 0x159C JUMP JUMPDEST JUMPDEST PUSH2 0x1D21 DUP3 SLOAD PUSH2 0x19E1 JUMP JUMPDEST PUSH2 0x1D2C DUP3 DUP3 DUP6 PUSH2 0x1C5E JUMP JUMPDEST PUSH0 PUSH1 0x1F DUP4 GT PUSH1 0x1 DUP2 EQ PUSH2 0x1D59 JUMPI PUSH0 DUP5 ISZERO PUSH2 0x1D47 JUMPI DUP3 DUP8 ADD SLOAD SWAP1 POP JUMPDEST PUSH2 0x1D51 DUP6 DUP3 PUSH2 0x1CCC JUMP JUMPDEST DUP7 SSTORE POP PUSH2 0x1DC3 JUMP JUMPDEST PUSH1 0x1F NOT DUP5 AND PUSH2 0x1D67 DUP8 PUSH2 0x1B4A JUMP JUMPDEST SWAP7 POP PUSH2 0x1D72 DUP7 PUSH2 0x1B38 JUMP JUMPDEST PUSH0 JUMPDEST DUP3 DUP2 LT ISZERO PUSH2 0x1D99 JUMPI DUP5 DUP10 ADD SLOAD DUP3 SSTORE PUSH1 0x1 DUP3 ADD SWAP2 POP PUSH1 0x1 DUP6 ADD SWAP5 POP PUSH1 0x20 DUP2 ADD SWAP1 POP PUSH2 0x1D74 JUMP JUMPDEST DUP7 DUP4 LT ISZERO PUSH2 0x1DB6 JUMPI DUP5 DUP10 ADD SLOAD PUSH2 0x1DB2 PUSH1 0x1F DUP10 AND DUP3 PUSH2 0x1CB0 JUMP JUMPDEST DUP4 SSTORE POP JUMPDEST PUSH1 0x1 PUSH1 0x2 DUP9 MUL ADD DUP9 SSTORE POP POP POP JUMPDEST POP POP POP POP POP POP JUMPDEST JUMP JUMPDEST PUSH32 0x4E487B7100000000000000000000000000000000000000000000000000000000 PUSH0 MSTORE PUSH1 0x31 PUSH1 0x4 MSTORE PUSH1 0x24 PUSH0 REVERT JUMPDEST PUSH32 0x53636F72652074797065206E6F7420666F756E64000000000000000000000000 PUSH0 DUP3 ADD MSTORE POP JUMP JUMPDEST PUSH0 PUSH2 0x1E2D PUSH1 0x14 DUP4 PUSH2 0x1803 JUMP JUMPDEST SWAP2 POP PUSH2 0x1E38 DUP3 PUSH2 0x1DF9 JUMP JUMPDEST PUSH1 0x20 DUP3 ADD SWAP1 POP SWAP2 SWAP1 POP JUMP JUMPDEST PUSH0 PUSH1 0x20 DUP3 ADD SWAP1 POP DUP2 DUP2 SUB PUSH0 DUP4 ADD MSTORE PUSH2 0x1E5A DUP2 PUSH2 0x1E21 JUMP JUMPDEST SWAP1 POP SWAP2 SWAP1 POP JUMP JUMPDEST PUSH0 DUP2 SWAP1 POP SWAP2 SWAP1 POP JUMP JUMPDEST PUSH0 PUSH8 0xFFFFFFFFFFFFFFFF DUP3 AND SWAP1 POP SWAP2 SWAP1 POP JUMP JUMPDEST PUSH0 PUSH2 0x1E97 PUSH2 0x1E92 PUSH2 0x1E8D DUP5 PUSH2 0x1E61 JUMP JUMPDEST PUSH2 0x1BC8 JUMP JUMPDEST PUSH2 0x1E6A JUMP JUMPDEST SWAP1 POP SWAP2 SWAP1 POP JUMP JUMPDEST PUSH2 0x1EA7 DUP2 PUSH2 0x1E7D JUMP JUMPDEST DUP3 MSTORE POP POP JUMP JUMPDEST PUSH0 PUSH1 0x20 DUP3 ADD SWAP1 POP PUSH2 0x1EC0 PUSH0 DUP4 ADD DUP5 PUSH2 0x1E9E JUMP JUMPDEST SWAP3 SWAP2 POP POP JUMP JUMPDEST PUSH2 0x1ECF DUP3 PUSH2 0x17F9 JUMP JUMPDEST PUSH8 0xFFFFFFFFFFFFFFFF DUP2 GT ISZERO PUSH2 0x1EE8 JUMPI PUSH2 0x1EE7 PUSH2 0x159C JUMP JUMPDEST JUMPDEST PUSH2 0x1EF2 DUP3 SLOAD PUSH2 0x19E1 JUMP JUMPDEST PUSH2 0x1EFD DUP3 DUP3 DUP6 PUSH2 0x1C5E JUMP JUMPDEST PUSH0 PUSH1 0x20 SWAP1 POP PUSH1 0x1F DUP4 GT PUSH1 0x1 DUP2 EQ PUSH2 0x1F2E JUMPI PUSH0 DUP5 ISZERO PUSH2 0x1F1C JUMPI DUP3 DUP8 ADD MLOAD SWAP1 POP JUMPDEST PUSH2 0x1F26 DUP6 DUP3 PUSH2 0x1CCC JUMP JUMPDEST DUP7 SSTORE POP PUSH2 0x1F8D JUMP JUMPDEST PUSH1 0x1F NOT DUP5 AND PUSH2 0x1F3C DUP7 PUSH2 0x1B38 JUMP JUMPDEST PUSH0 JUMPDEST DUP3 DUP2 LT ISZERO PUSH2 0x1F63 JUMPI DUP5 DUP10 ADD MLOAD DUP3 SSTORE PUSH1 0x1 DUP3 ADD SWAP2 POP PUSH1 0x20 DUP6 ADD SWAP5 POP PUSH1 0x20 DUP2 ADD SWAP1 POP PUSH2 0x1F3E JUMP JUMPDEST DUP7 DUP4 LT ISZERO PUSH2 0x1F80 JUMPI DUP5 DUP10 ADD MLOAD PUSH2 0x1F7C PUSH1 0x1F DUP10 AND DUP3 PUSH2 0x1CB0 JUMP JUMPDEST DUP4 SSTORE POP JUMPDEST PUSH1 0x1 PUSH1 0x2 DUP9 MUL ADD DUP9 SSTORE POP POP POP JUMPDEST POP POP POP POP POP POP JUMP JUMPDEST PUSH0 PUSH1 0x40 DUP3 ADD SWAP1 POP PUSH2 0x1FA8 PUSH0 DUP4 ADD DUP6 PUSH2 0x175F JUMP JUMPDEST PUSH2 0x1FB5 PUSH1 0x20 DUP4 ADD DUP5 PUSH2 0x151E JUMP JUMPDEST SWAP4 SWAP3 POP POP POP JUMP INVALID LOG2 PUSH5 0x6970667358 0x22 SLT KECCAK256 0xE0 0xDE 0xF 0xE9 AND LOG4 PUSH26 0x724F453B6DC2B65D19D32EFBEF7E6FB97F4991174B3327AD4864 PUSH20 0x6F6C634300081A00330000000000000000000000 "
				},
				"gasEstimates": {
					"creation": {
						"codeDepositCost": "1635600",
						"executionCost": "1713",
						"totalCost": "1637313"
					},
					"external": {
						"ADMIN_ROLE()": "436",
						"DEFAULT_ADMIN_ROLE()": "397",
						"addAdmin(address)": "infinite",
						"addScoreType(string)": "infinite",
						"getRoleAdmin(bytes32)": "infinite",
						"grantRole(bytes32,address)": "infinite",
						"hasRole(bytes32,address)": "3219",
						"initialize(address)": "infinite",
						"isAdmin(address)": "3140",
						"owner()": "2590",
						"removeAdmin(address)": "infinite",
						"removeScoreType(string)": "infinite",
						"renounceOwnership()": "infinite",
						"renounceRole(bytes32,address)": "infinite",
						"revokeRole(bytes32,address)": "infinite",
						"score(address,string)": "infinite",
						"scoreTypes(uint256)": "infinite",
						"setScore(address,string,uint256)": "infinite",
						"supportsInterface(bytes4)": "741",
						"transferOwnership(address)": "infinite"
					}
				},
				"methodIdentifiers": {
					"ADMIN_ROLE()": "75b238fc",
					"DEFAULT_ADMIN_ROLE()": "a217fddf",
					"addAdmin(address)": "70480275",
					"addScoreType(string)": "c9a4909c",
					"getRoleAdmin(bytes32)": "248a9ca3",
					"grantRole(bytes32,address)": "2f2ff15d",
					"hasRole(bytes32,address)": "91d14854",
					"initialize(address)": "c4d66de8",
					"isAdmin(address)": "24d7806c",
					"owner()": "8da5cb5b",
					"removeAdmin(address)": "1785f53c",
					"removeScoreType(string)": "a34f0e28",
					"renounceOwnership()": "715018a6",
					"renounceRole(bytes32,address)": "36568abe",
					"revokeRole(bytes32,address)": "d547741f",
					"score(address,string)": "db4f1024",
					"scoreTypes(uint256)": "d2a8e163",
					"setScore(address,string,uint256)": "3058856a",
					"supportsInterface(bytes4)": "01ffc9a7",
					"transferOwnership(address)": "f2fde38b"
				}
			},
			"storageLayout": {
				"storage": [
					{
						"astId": 1012,
						"contract": "contracts/scorer.sol:Scorer",
						"label": "_scores",
						"offset": 0,
						"slot": "0",
						"type": "t_mapping(t_address,t_mapping(t_string_memory_ptr,t_uint256))"
					},
					{
						"astId": 1015,
						"contract": "contracts/scorer.sol:Scorer",
						"label": "scoreTypes",
						"offset": 0,
						"slot": "1",
						"type": "t_array(t_string_storage)dyn_storage"
					}
				],
				"types": {
					"t_address": {
						"encoding": "inplace",
						"label": "address",
						"numberOfBytes": "20"
					},
					"t_array(t_string_storage)dyn_storage": {
						"base": "t_string_storage",
						"encoding": "dynamic_array",
						"label": "string[]",
						"numberOfBytes": "32"
					},
					"t_mapping(t_address,t_mapping(t_string_memory_ptr,t_uint256))": {
						"encoding": "mapping",
						"key": "t_address",
						"label": "mapping(address => mapping(string => uint256))",
						"numberOfBytes": "32",
						"value": "t_mapping(t_string_memory_ptr,t_uint256)"
					},
					"t_mapping(t_string_memory_ptr,t_uint256)": {
						"encoding": "mapping",
						"key": "t_string_memory_ptr",
						"label": "mapping(string => uint256)",
						"numberOfBytes": "32",
						"value": "t_uint256"
					},
					"t_string_memory_ptr": {
						"encoding": "bytes",
						"label": "string",
						"numberOfBytes": "32"
					},
					"t_string_storage": {
						"encoding": "bytes",
						"label": "string",
						"numberOfBytes": "32"
					},
					"t_uint256": {
						"encoding": "inplace",
						"label": "uint256",
						"numberOfBytes": "32"
					}
				}
			},
			"userdoc": {
				"kind": "user",
				"methods": {
					"addScoreType(string)": {
						"notice": "Adds a new score type."
					},
					"initialize(address)": {
						"notice": "Initializes the contract by setting up its initial state."
					},
					"removeScoreType(string)": {
						"notice": "Removes an existing score type."
					},
					"score(address,string)": {
						"notice": "Retrieves the score of a specific user for a given type."
					},
					"setScore(address,string,uint256)": {
						"notice": "Sets the score for a specific user and type."
					}
				},
				"version": 1
			}
		}
	}
}