{
	"contracts/sweetspot.sol": {
		"sweetspot": {
			"abi": [
				{
					"inputs": [],
					"name": "InvalidInitialization",
					"type": "error"
				},
				{
					"inputs": [],
					"name": "NotInitializing",
					"type": "error"
				},
				{
					"inputs": [
						{
							"internalType": "uint256",
							"name": "currentTime",
							"type": "uint256"
						},
						{
							"internalType": "uint256",
							"name": "start",
							"type": "uint256"
						},
						{
							"internalType": "uint256",
							"name": "end",
							"type": "uint256"
						}
					],
					"name": "NotWithinRound",
					"type": "error"
				},
				{
					"inputs": [
						{
							"internalType": "address",
							"name": "owner",
							"type": "address"
						}
					],
					"name": "OwnableInvalidOwner",
					"type": "error"
				},
				{
					"inputs": [
						{
							"internalType": "address",
							"name": "account",
							"type": "address"
						}
					],
					"name": "OwnableUnauthorizedAccount",
					"type": "error"
				},
				{
					"inputs": [
						{
							"internalType": "address",
							"name": "token",
							"type": "address"
						}
					],
					"name": "SafeERC20FailedOperation",
					"type": "error"
				},
				{
					"anonymous": false,
					"inputs": [
						{
							"indexed": true,
							"internalType": "address",
							"name": "user",
							"type": "address"
						},
						{
							"indexed": true,
							"internalType": "address",
							"name": "token",
							"type": "address"
						},
						{
							"indexed": false,
							"internalType": "uint256",
							"name": "newAmount",
							"type": "uint256"
						}
					],
					"name": "AllowedAmountUpdated",
					"type": "event"
				},
				{
					"anonymous": false,
					"inputs": [
						{
							"indexed": true,
							"internalType": "address",
							"name": "claimant",
							"type": "address"
						},
						{
							"indexed": true,
							"internalType": "address",
							"name": "token",
							"type": "address"
						},
						{
							"indexed": false,
							"internalType": "uint256",
							"name": "amount",
							"type": "uint256"
						}
					],
					"name": "Claimed",
					"type": "event"
				},
				{
					"anonymous": false,
					"inputs": [
						{
							"indexed": true,
							"internalType": "address",
							"name": "depositor",
							"type": "address"
						},
						{
							"indexed": true,
							"internalType": "address",
							"name": "token",
							"type": "address"
						},
						{
							"indexed": false,
							"internalType": "uint256",
							"name": "amount",
							"type": "uint256"
						}
					],
					"name": "Deposit",
					"type": "event"
				},
				{
					"anonymous": false,
					"inputs": [
						{
							"indexed": false,
							"internalType": "uint64",
							"name": "version",
							"type": "uint64"
						}
					],
					"name": "Initialized",
					"type": "event"
				},
				{
					"anonymous": false,
					"inputs": [
						{
							"indexed": true,
							"internalType": "address",
							"name": "previousOwner",
							"type": "address"
						},
						{
							"indexed": true,
							"internalType": "address",
							"name": "newOwner",
							"type": "address"
						}
					],
					"name": "OwnershipTransferred",
					"type": "event"
				},
				{
					"anonymous": false,
					"inputs": [
						{
							"indexed": false,
							"internalType": "uint256",
							"name": "start",
							"type": "uint256"
						},
						{
							"indexed": false,
							"internalType": "uint256",
							"name": "end",
							"type": "uint256"
						},
						{
							"indexed": false,
							"internalType": "string",
							"name": "metadataURI",
							"type": "string"
						}
					],
					"name": "RoundUpdated",
					"type": "event"
				},
				{
					"anonymous": false,
					"inputs": [
						{
							"indexed": true,
							"internalType": "address",
							"name": "withdrawer",
							"type": "address"
						},
						{
							"indexed": true,
							"internalType": "address",
							"name": "token",
							"type": "address"
						},
						{
							"indexed": false,
							"internalType": "uint256",
							"name": "amount",
							"type": "uint256"
						}
					],
					"name": "Withdraw",
					"type": "event"
				},
				{
					"stateMutability": "payable",
					"type": "fallback"
				},
				{
					"inputs": [],
					"name": "NATIVE_TOKEN",
					"outputs": [
						{
							"internalType": "address",
							"name": "",
							"type": "address"
						}
					],
					"stateMutability": "view",
					"type": "function"
				},
				{
					"inputs": [
						{
							"internalType": "address",
							"name": "",
							"type": "address"
						},
						{
							"internalType": "address",
							"name": "",
							"type": "address"
						}
					],
					"name": "allowedAmounts",
					"outputs": [
						{
							"internalType": "uint256",
							"name": "",
							"type": "uint256"
						}
					],
					"stateMutability": "view",
					"type": "function"
				},
				{
					"inputs": [
						{
							"internalType": "address",
							"name": "token",
							"type": "address"
						},
						{
							"internalType": "address[]",
							"name": "users",
							"type": "address[]"
						},
						{
							"internalType": "uint256[]",
							"name": "amounts",
							"type": "uint256[]"
						}
					],
					"name": "bulkSetAllowedAmount",
					"outputs": [],
					"stateMutability": "nonpayable",
					"type": "function"
				},
				{
					"inputs": [
						{
							"internalType": "address",
							"name": "token",
							"type": "address"
						}
					],
					"name": "claim",
					"outputs": [],
					"stateMutability": "nonpayable",
					"type": "function"
				},
				{
					"inputs": [],
					"name": "currentRound",
					"outputs": [
						{
							"internalType": "uint64",
							"name": "start",
							"type": "uint64"
						},
						{
							"internalType": "uint64",
							"name": "end",
							"type": "uint64"
						},
						{
							"internalType": "string",
							"name": "metadataURI",
							"type": "string"
						}
					],
					"stateMutability": "view",
					"type": "function"
				},
				{
					"inputs": [
						{
							"internalType": "address",
							"name": "token",
							"type": "address"
						},
						{
							"internalType": "uint256",
							"name": "amount",
							"type": "uint256"
						}
					],
					"name": "deposit",
					"outputs": [],
					"stateMutability": "payable",
					"type": "function"
				},
				{
					"inputs": [
						{
							"internalType": "address",
							"name": "_scorer",
							"type": "address"
						},
						{
							"internalType": "address",
							"name": "owner",
							"type": "address"
						}
					],
					"name": "initialize",
					"outputs": [],
					"stateMutability": "nonpayable",
					"type": "function"
				},
				{
					"inputs": [],
					"name": "owner",
					"outputs": [
						{
							"internalType": "address",
							"name": "",
							"type": "address"
						}
					],
					"stateMutability": "view",
					"type": "function"
				},
				{
					"inputs": [],
					"name": "renounceOwnership",
					"outputs": [],
					"stateMutability": "nonpayable",
					"type": "function"
				},
				{
					"inputs": [],
					"name": "scorer",
					"outputs": [
						{
							"internalType": "contract IScorer",
							"name": "",
							"type": "address"
						}
					],
					"stateMutability": "view",
					"type": "function"
				},
				{
					"inputs": [
						{
							"internalType": "address",
							"name": "user",
							"type": "address"
						},
						{
							"internalType": "address",
							"name": "token",
							"type": "address"
						},
						{
							"internalType": "uint256",
							"name": "amount",
							"type": "uint256"
						}
					],
					"name": "setAllowedAmount",
					"outputs": [],
					"stateMutability": "nonpayable",
					"type": "function"
				},
				{
					"inputs": [
						{
							"internalType": "uint64",
							"name": "start",
							"type": "uint64"
						},
						{
							"internalType": "uint64",
							"name": "end",
							"type": "uint64"
						},
						{
							"internalType": "string",
							"name": "metadataURI",
							"type": "string"
						}
					],
					"name": "setRound",
					"outputs": [],
					"stateMutability": "nonpayable",
					"type": "function"
				},
				{
					"inputs": [
						{
							"internalType": "address",
							"name": "",
							"type": "address"
						}
					],
					"name": "totalBalances",
					"outputs": [
						{
							"internalType": "uint256",
							"name": "",
							"type": "uint256"
						}
					],
					"stateMutability": "view",
					"type": "function"
				},
				{
					"inputs": [
						{
							"internalType": "address",
							"name": "newOwner",
							"type": "address"
						}
					],
					"name": "transferOwnership",
					"outputs": [],
					"stateMutability": "nonpayable",
					"type": "function"
				},
				{
					"inputs": [
						{
							"internalType": "address",
							"name": "token",
							"type": "address"
						},
						{
							"internalType": "uint256",
							"name": "amount",
							"type": "uint256"
						}
					],
					"name": "withdraw",
					"outputs": [],
					"stateMutability": "nonpayable",
					"type": "function"
				},
				{
					"stateMutability": "payable",
					"type": "receive"
				}
			],
			"devdoc": {
				"errors": {
					"InvalidInitialization()": [
						{
							"details": "The contract is already initialized."
						}
					],
					"NotInitializing()": [
						{
							"details": "The contract is not initializing."
						}
					],
					"OwnableInvalidOwner(address)": [
						{
							"details": "The owner is not a valid owner account. (eg. `address(0)`)"
						}
					],
					"OwnableUnauthorizedAccount(address)": [
						{
							"details": "The caller account is not authorized to perform an operation."
						}
					],
					"SafeERC20FailedOperation(address)": [
						{
							"details": "An operation with an ERC-20 token failed."
						}
					]
				},
				"events": {
					"Initialized(uint64)": {
						"details": "Triggered when the contract has been initialized or reinitialized."
					}
				},
				"kind": "dev",
				"methods": {
					"deposit(address,uint256)": {
						"params": {
							"amount": "The value to add (in wei for Ether).",
							"token": "The token address (address(0) for Ether)."
						}
					},
					"initialize(address,address)": {
						"params": {
							"_scorer": "The scoring contract address.",
							"owner": "The owner address."
						}
					},
					"owner()": {
						"details": "Returns the address of the current owner."
					},
					"renounceOwnership()": {
						"details": "Leaves the contract without owner. It will not be possible to call `onlyOwner` functions. Can only be called by the current owner. NOTE: Renouncing ownership will leave the contract without an owner, thereby disabling any functionality that is only available to the owner."
					},
					"setAllowedAmount(address,address,uint256)": {
						"params": {
							"amount": "The allowed amount for the user.",
							"token": "The token address.",
							"user": "The address of the user."
						}
					},
					"setRound(uint64,uint64,string)": {
						"params": {
							"end": "The end timestamp of the round.",
							"metadataURI": "The IPFS URI for the round metadata.",
							"start": "The start timestamp of the round."
						}
					},
					"transferOwnership(address)": {
						"details": "Transfers ownership of the contract to a new account (`newOwner`). Can only be called by the current owner."
					},
					"withdraw(address,uint256)": {
						"params": {
							"amount": "The amount to withdraw.",
							"token": "The token address (address(0) for Ether)."
						}
					}
				},
				"version": 1
			},
			"evm": {
				"assembly": "    /* \"contracts/sweetspot.sol\":454:6704  contract sweetspot is OwnableUpgradeable, ReentrancyGuardUpgradeable  {... */\n  mstore(0x40, 0x80)\n  callvalue\n  dup1\n  iszero\n  tag_1\n  jumpi\n  0x00\n  dup1\n  revert\ntag_1:\n  pop\n  dataSize(sub_0)\n  dup1\n  dataOffset(sub_0)\n  0x00\n  codecopy\n  0x00\n  return\nstop\n\nsub_0: assembly {\n        /* \"contracts/sweetspot.sol\":454:6704  contract sweetspot is OwnableUpgradeable, ReentrancyGuardUpgradeable  {... */\n      mstore(0x40, 0x80)\n      jumpi(tag_1, lt(calldatasize, 0x04))\n      shr(0xe0, calldataload(0x00))\n      dup1\n      0x8da5cb5b\n      gt\n      tag_18\n      jumpi\n      dup1\n      0xb807a3c4\n      gt\n      tag_19\n      jumpi\n      dup1\n      0xb807a3c4\n      eq\n      tag_14\n      jumpi\n      dup1\n      0xe3e7c1f9\n      eq\n      tag_15\n      jumpi\n      dup1\n      0xf2fde38b\n      eq\n      tag_16\n      jumpi\n      dup1\n      0xf3fef3a3\n      eq\n      tag_17\n      jumpi\n      jump(tag_2)\n    tag_19:\n      dup1\n      0x8da5cb5b\n      eq\n      tag_10\n      jumpi\n      dup1\n      0xa9012c89\n      eq\n      tag_11\n      jumpi\n      dup1\n      0xa9590e8a\n      eq\n      tag_12\n      jumpi\n      dup1\n      0xaee9c872\n      eq\n      tag_13\n      jumpi\n      jump(tag_2)\n    tag_18:\n      dup1\n      0x485cc955\n      gt\n      tag_20\n      jumpi\n      dup1\n      0x485cc955\n      eq\n      tag_6\n      jumpi\n      dup1\n      0x715018a6\n      eq\n      tag_7\n      jumpi\n      dup1\n      0x85c758f7\n      eq\n      tag_8\n      jumpi\n      dup1\n      0x8a19c8bc\n      eq\n      tag_9\n      jumpi\n      jump(tag_2)\n    tag_20:\n      dup1\n      0x1e83409a\n      eq\n      tag_3\n      jumpi\n      dup1\n      0x31f7d964\n      eq\n      tag_4\n      jumpi\n      dup1\n      0x47e7ef24\n      eq\n      tag_5\n      jumpi\n      jump(tag_2)\n    tag_1:\n      jumpi(tag_2, calldatasize)\n        /* \"contracts/sweetspot.sol\":6470:6479  msg.value */\n      callvalue\n        /* \"contracts/sweetspot.sol\":6439:6452  totalBalances */\n      0x35\n        /* \"contracts/sweetspot.sol\":6439:6466  totalBalances[NATIVE_TOKEN] */\n      0x00\n        /* \"contracts/sweetspot.sol\":613:614  0 */\n      dup1\n        /* \"contracts/sweetspot.sol\":6439:6466  totalBalances[NATIVE_TOKEN] */\n      0xffffffffffffffffffffffffffffffffffffffff\n      and\n      0xffffffffffffffffffffffffffffffffffffffff\n      and\n      dup2\n      mstore\n      0x20\n      add\n      swap1\n      dup2\n      mstore\n      0x20\n      add\n      0x00\n      keccak256\n      0x00\n        /* \"contracts/sweetspot.sol\":6439:6479  totalBalances[NATIVE_TOKEN] += msg.value */\n      dup3\n      dup3\n      sload\n      tag_23\n      swap2\n      swap1\n      tag_24\n      jump\t// in\n    tag_23:\n      swap3\n      pop\n      pop\n      dup2\n      swap1\n      sstore\n      pop\n        /* \"contracts/sweetspot.sol\":613:614  0 */\n      0x00\n        /* \"contracts/sweetspot.sol\":6495:6539  Deposit(msg.sender, NATIVE_TOKEN, msg.value) */\n      0xffffffffffffffffffffffffffffffffffffffff\n      and\n        /* \"contracts/sweetspot.sol\":6503:6513  msg.sender */\n      caller\n        /* \"contracts/sweetspot.sol\":6495:6539  Deposit(msg.sender, NATIVE_TOKEN, msg.value) */\n      0xffffffffffffffffffffffffffffffffffffffff\n      and\n      0x5548c837ab068cf56a2c2479df0882a4922fd203edb7517321831d95078c5f62\n        /* \"contracts/sweetspot.sol\":6529:6538  msg.value */\n      callvalue\n        /* \"contracts/sweetspot.sol\":6495:6539  Deposit(msg.sender, NATIVE_TOKEN, msg.value) */\n      mload(0x40)\n      tag_25\n      swap2\n      swap1\n      tag_26\n      jump\t// in\n    tag_25:\n      mload(0x40)\n      dup1\n      swap2\n      sub\n      swap1\n      log3\n        /* \"contracts/sweetspot.sol\":454:6704  contract sweetspot is OwnableUpgradeable, ReentrancyGuardUpgradeable  {... */\n      stop\n    tag_2:\n        /* \"contracts/sweetspot.sol\":6659:6693  revert(\"Sweetspot: use deposit()\") */\n      mload(0x40)\n      0x08c379a000000000000000000000000000000000000000000000000000000000\n      dup2\n      mstore\n      0x04\n      add\n      tag_29\n      swap1\n      tag_30\n      jump\t// in\n    tag_29:\n      mload(0x40)\n      dup1\n      swap2\n      sub\n      swap1\n      revert\n        /* \"contracts/sweetspot.sol\":2971:3903  function claim(address token) external nonReentrant {... */\n    tag_3:\n      callvalue\n      dup1\n      iszero\n      tag_31\n      jumpi\n      0x00\n      dup1\n      revert\n    tag_31:\n      pop\n      tag_32\n      0x04\n      dup1\n      calldatasize\n      sub\n      dup2\n      add\n      swap1\n      tag_33\n      swap2\n      swap1\n      tag_34\n      jump\t// in\n    tag_33:\n      tag_35\n      jump\t// in\n    tag_32:\n      stop\n        /* \"contracts/sweetspot.sol\":566:615  address public constant NATIVE_TOKEN = address(0) */\n    tag_4:\n      callvalue\n      dup1\n      iszero\n      tag_36\n      jumpi\n      0x00\n      dup1\n      revert\n    tag_36:\n      pop\n      tag_37\n      tag_38\n      jump\t// in\n    tag_37:\n      mload(0x40)\n      tag_39\n      swap2\n      swap1\n      tag_40\n      jump\t// in\n    tag_39:\n      mload(0x40)\n      dup1\n      swap2\n      sub\n      swap1\n      return\n        /* \"contracts/sweetspot.sol\":2412:2886  function deposit(address token, uint256 amount) external payable nonReentrant  {... */\n    tag_5:\n      tag_41\n      0x04\n      dup1\n      calldatasize\n      sub\n      dup2\n      add\n      swap1\n      tag_42\n      swap2\n      swap1\n      tag_43\n      jump\t// in\n    tag_42:\n      tag_44\n      jump\t// in\n    tag_41:\n      stop\n        /* \"contracts/sweetspot.sol\":1977:2194  function initialize(address _scorer, address owner) external initializer {... */\n    tag_6:\n      callvalue\n      dup1\n      iszero\n      tag_45\n      jumpi\n      0x00\n      dup1\n      revert\n    tag_45:\n      pop\n      tag_46\n      0x04\n      dup1\n      calldatasize\n      sub\n      dup2\n      add\n      swap1\n      tag_47\n      swap2\n      swap1\n      tag_48\n      jump\t// in\n    tag_47:\n      tag_49\n      jump\t// in\n    tag_46:\n      stop\n        /* \"@openzeppelin/contracts-upgradeable/access/OwnableUpgradeable.sol\":3155:3256  function renounceOwnership() public virtual onlyOwner {... */\n    tag_7:\n      callvalue\n      dup1\n      iszero\n      tag_50\n      jumpi\n      0x00\n      dup1\n      revert\n    tag_50:\n      pop\n      tag_51\n      tag_52\n      jump\t// in\n    tag_51:\n      stop\n        /* \"contracts/sweetspot.sol\":622:643  IScorer public scorer */\n    tag_8:\n      callvalue\n      dup1\n      iszero\n      tag_53\n      jumpi\n      0x00\n      dup1\n      revert\n    tag_53:\n      pop\n      tag_54\n      tag_55\n      jump\t// in\n    tag_54:\n      mload(0x40)\n      tag_56\n      swap2\n      swap1\n      tag_57\n      jump\t// in\n    tag_56:\n      mload(0x40)\n      dup1\n      swap2\n      sub\n      swap1\n      return\n        /* \"contracts/sweetspot.sol\":883:908  Round public currentRound */\n    tag_9:\n      callvalue\n      dup1\n      iszero\n      tag_58\n      jumpi\n      0x00\n      dup1\n      revert\n    tag_58:\n      pop\n      tag_59\n      tag_60\n      jump\t// in\n    tag_59:\n      mload(0x40)\n      tag_61\n      swap4\n      swap3\n      swap2\n      swap1\n      tag_62\n      jump\t// in\n    tag_61:\n      mload(0x40)\n      dup1\n      swap2\n      sub\n      swap1\n      return\n        /* \"@openzeppelin/contracts-upgradeable/access/OwnableUpgradeable.sol\":2441:2585  function owner() public view virtual returns (address) {... */\n    tag_10:\n      callvalue\n      dup1\n      iszero\n      tag_63\n      jumpi\n      0x00\n      dup1\n      revert\n    tag_63:\n      pop\n      tag_64\n      tag_65\n      jump\t// in\n    tag_64:\n      mload(0x40)\n      tag_66\n      swap2\n      swap1\n      tag_40\n      jump\t// in\n    tag_66:\n      mload(0x40)\n      dup1\n      swap2\n      sub\n      swap1\n      return\n        /* \"contracts/sweetspot.sol\":5261:5539  function setRound(uint64  start, uint64  end, string memory metadataURI) external onlyAdmin {... */\n    tag_11:\n      callvalue\n      dup1\n      iszero\n      tag_67\n      jumpi\n      0x00\n      dup1\n      revert\n    tag_67:\n      pop\n      tag_68\n      0x04\n      dup1\n      calldatasize\n      sub\n      dup2\n      add\n      swap1\n      tag_69\n      swap2\n      swap1\n      tag_70\n      jump\t// in\n    tag_69:\n      tag_71\n      jump\t// in\n    tag_68:\n      stop\n        /* \"contracts/sweetspot.sol\":1097:1166  mapping(address => mapping(address => uint256)) public allowedAmounts */\n    tag_12:\n      callvalue\n      dup1\n      iszero\n      tag_72\n      jumpi\n      0x00\n      dup1\n      revert\n    tag_72:\n      pop\n      tag_73\n      0x04\n      dup1\n      calldatasize\n      sub\n      dup2\n      add\n      swap1\n      tag_74\n      swap2\n      swap1\n      tag_48\n      jump\t// in\n    tag_74:\n      tag_75\n      jump\t// in\n    tag_73:\n      mload(0x40)\n      tag_76\n      swap2\n      swap1\n      tag_26\n      jump\t// in\n    tag_76:\n      mload(0x40)\n      dup1\n      swap2\n      sub\n      swap1\n      return\n        /* \"contracts/sweetspot.sol\":999:1047  mapping(address => uint256) public totalBalances */\n    tag_13:\n      callvalue\n      dup1\n      iszero\n      tag_77\n      jumpi\n      0x00\n      dup1\n      revert\n    tag_77:\n      pop\n      tag_78\n      0x04\n      dup1\n      calldatasize\n      sub\n      dup2\n      add\n      swap1\n      tag_79\n      swap2\n      swap1\n      tag_34\n      jump\t// in\n    tag_79:\n      tag_80\n      jump\t// in\n    tag_78:\n      mload(0x40)\n      tag_81\n      swap2\n      swap1\n      tag_26\n      jump\t// in\n    tag_81:\n      mload(0x40)\n      dup1\n      swap2\n      sub\n      swap1\n      return\n        /* \"contracts/sweetspot.sol\":4135:4396  function setAllowedAmount(address user, address token, uint256 amount) external onlyAdmin {... */\n    tag_14:\n      callvalue\n      dup1\n      iszero\n      tag_82\n      jumpi\n      0x00\n      dup1\n      revert\n    tag_82:\n      pop\n      tag_83\n      0x04\n      dup1\n      calldatasize\n      sub\n      dup2\n      add\n      swap1\n      tag_84\n      swap2\n      swap1\n      tag_85\n      jump\t// in\n    tag_84:\n      tag_86\n      jump\t// in\n    tag_83:\n      stop\n        /* \"contracts/sweetspot.sol\":4495:5012  function bulkSetAllowedAmount(... */\n    tag_15:\n      callvalue\n      dup1\n      iszero\n      tag_87\n      jumpi\n      0x00\n      dup1\n      revert\n    tag_87:\n      pop\n      tag_88\n      0x04\n      dup1\n      calldatasize\n      sub\n      dup2\n      add\n      swap1\n      tag_89\n      swap2\n      swap1\n      tag_90\n      jump\t// in\n    tag_89:\n      tag_91\n      jump\t// in\n    tag_88:\n      stop\n        /* \"@openzeppelin/contracts-upgradeable/access/OwnableUpgradeable.sol\":3405:3620  function transferOwnership(address newOwner) public virtual onlyOwner {... */\n    tag_16:\n      callvalue\n      dup1\n      iszero\n      tag_92\n      jumpi\n      0x00\n      dup1\n      revert\n    tag_92:\n      pop\n      tag_93\n      0x04\n      dup1\n      calldatasize\n      sub\n      dup2\n      add\n      swap1\n      tag_94\n      swap2\n      swap1\n      tag_34\n      jump\t// in\n    tag_94:\n      tag_95\n      jump\t// in\n    tag_93:\n      stop\n        /* \"contracts/sweetspot.sol\":5744:6322  function withdraw(address token, uint256 amount) external onlyOwner nonReentrant  {... */\n    tag_17:\n      callvalue\n      dup1\n      iszero\n      tag_96\n      jumpi\n      0x00\n      dup1\n      revert\n    tag_96:\n      pop\n      tag_97\n      0x04\n      dup1\n      calldatasize\n      sub\n      dup2\n      add\n      swap1\n      tag_98\n      swap2\n      swap1\n      tag_43\n      jump\t// in\n    tag_98:\n      tag_99\n      jump\t// in\n    tag_97:\n      stop\n        /* \"contracts/sweetspot.sol\":2971:3903  function claim(address token) external nonReentrant {... */\n    tag_35:\n        /* \"@openzeppelin/contracts-upgradeable/security/ReentrancyGuardUpgradeable.sol\":2526:2547  _nonReentrantBefore() */\n      tag_101\n        /* \"@openzeppelin/contracts-upgradeable/security/ReentrancyGuardUpgradeable.sol\":2526:2545  _nonReentrantBefore */\n      tag_102\n        /* \"@openzeppelin/contracts-upgradeable/security/ReentrancyGuardUpgradeable.sol\":2526:2547  _nonReentrantBefore() */\n      jump\t// in\n    tag_101:\n        /* \"contracts/sweetspot.sol\":3066:3078  currentRound */\n      0x33\n        /* \"contracts/sweetspot.sol\":3066:3084  currentRound.start */\n      0x00\n      add\n      0x00\n      swap1\n      sload\n      swap1\n      0x0100\n      exp\n      swap1\n      div\n      0xffffffffffffffff\n      and\n        /* \"contracts/sweetspot.sol\":3048:3084  block.timestamp < currentRound.start */\n      0xffffffffffffffff\n      and\n        /* \"contracts/sweetspot.sol\":3048:3063  block.timestamp */\n      timestamp\n        /* \"contracts/sweetspot.sol\":3048:3084  block.timestamp < currentRound.start */\n      lt\n        /* \"contracts/sweetspot.sol\":3048:3122  block.timestamp < currentRound.start || block.timestamp > currentRound.end */\n      dup1\n      tag_104\n      jumpi\n      pop\n        /* \"contracts/sweetspot.sol\":3106:3118  currentRound */\n      0x33\n        /* \"contracts/sweetspot.sol\":3106:3122  currentRound.end */\n      0x00\n      add\n      0x08\n      swap1\n      sload\n      swap1\n      0x0100\n      exp\n      swap1\n      div\n      0xffffffffffffffff\n      and\n        /* \"contracts/sweetspot.sol\":3088:3122  block.timestamp > currentRound.end */\n      0xffffffffffffffff\n      and\n        /* \"contracts/sweetspot.sol\":3088:3103  block.timestamp */\n      timestamp\n        /* \"contracts/sweetspot.sol\":3088:3122  block.timestamp > currentRound.end */\n      gt\n        /* \"contracts/sweetspot.sol\":3048:3122  block.timestamp < currentRound.start || block.timestamp > currentRound.end */\n    tag_104:\n        /* \"contracts/sweetspot.sol\":3044:3227  if (block.timestamp < currentRound.start || block.timestamp > currentRound.end) {... */\n      iszero\n      tag_105\n      jumpi\n        /* \"contracts/sweetspot.sol\":3161:3176  block.timestamp */\n      timestamp\n        /* \"contracts/sweetspot.sol\":3178:3190  currentRound */\n      0x33\n        /* \"contracts/sweetspot.sol\":3178:3196  currentRound.start */\n      0x00\n      add\n      0x00\n      swap1\n      sload\n      swap1\n      0x0100\n      exp\n      swap1\n      div\n      0xffffffffffffffff\n      and\n        /* \"contracts/sweetspot.sol\":3198:3210  currentRound */\n      0x33\n        /* \"contracts/sweetspot.sol\":3198:3214  currentRound.end */\n      0x00\n      add\n      0x08\n      swap1\n      sload\n      swap1\n      0x0100\n      exp\n      swap1\n      div\n      0xffffffffffffffff\n      and\n        /* \"contracts/sweetspot.sol\":3146:3215  NotWithinRound(block.timestamp, currentRound.start, currentRound.end) */\n      mload(0x40)\n      0xfa7410d400000000000000000000000000000000000000000000000000000000\n      dup2\n      mstore\n      0x04\n      add\n      tag_106\n      swap4\n      swap3\n      swap2\n      swap1\n      tag_107\n      jump\t// in\n    tag_106:\n      mload(0x40)\n      dup1\n      swap2\n      sub\n      swap1\n      revert\n        /* \"contracts/sweetspot.sol\":3044:3227  if (block.timestamp < currentRound.start || block.timestamp > currentRound.end) {... */\n    tag_105:\n        /* \"contracts/sweetspot.sol\":3239:3264  uint256 userAllowedAmount */\n      0x00\n        /* \"contracts/sweetspot.sol\":3267:3281  allowedAmounts */\n      0x36\n        /* \"contracts/sweetspot.sol\":3267:3293  allowedAmounts[msg.sender] */\n      0x00\n        /* \"contracts/sweetspot.sol\":3282:3292  msg.sender */\n      caller\n        /* \"contracts/sweetspot.sol\":3267:3293  allowedAmounts[msg.sender] */\n      0xffffffffffffffffffffffffffffffffffffffff\n      and\n      0xffffffffffffffffffffffffffffffffffffffff\n      and\n      dup2\n      mstore\n      0x20\n      add\n      swap1\n      dup2\n      mstore\n      0x20\n      add\n      0x00\n      keccak256\n        /* \"contracts/sweetspot.sol\":3267:3300  allowedAmounts[msg.sender][token] */\n      0x00\n        /* \"contracts/sweetspot.sol\":3294:3299  token */\n      dup4\n        /* \"contracts/sweetspot.sol\":3267:3300  allowedAmounts[msg.sender][token] */\n      0xffffffffffffffffffffffffffffffffffffffff\n      and\n      0xffffffffffffffffffffffffffffffffffffffff\n      and\n      dup2\n      mstore\n      0x20\n      add\n      swap1\n      dup2\n      mstore\n      0x20\n      add\n      0x00\n      keccak256\n      sload\n        /* \"contracts/sweetspot.sol\":3239:3300  uint256 userAllowedAmount = allowedAmounts[msg.sender][token] */\n      swap1\n      pop\n        /* \"contracts/sweetspot.sol\":3339:3340  0 */\n      0x00\n        /* \"contracts/sweetspot.sol\":3319:3336  userAllowedAmount */\n      dup2\n        /* \"contracts/sweetspot.sol\":3319:3340  userAllowedAmount > 0 */\n      gt\n        /* \"contracts/sweetspot.sol\":3311:3364  require(userAllowedAmount > 0, \"No claimable amount\") */\n      tag_108\n      jumpi\n      mload(0x40)\n      0x08c379a000000000000000000000000000000000000000000000000000000000\n      dup2\n      mstore\n      0x04\n      add\n      tag_109\n      swap1\n      tag_110\n      jump\t// in\n    tag_109:\n      mload(0x40)\n      dup1\n      swap2\n      sub\n      swap1\n      revert\n    tag_108:\n        /* \"contracts/sweetspot.sol\":3407:3424  userAllowedAmount */\n      dup1\n        /* \"contracts/sweetspot.sol\":3383:3396  totalBalances */\n      0x35\n        /* \"contracts/sweetspot.sol\":3383:3403  totalBalances[token] */\n      0x00\n        /* \"contracts/sweetspot.sol\":3397:3402  token */\n      dup5\n        /* \"contracts/sweetspot.sol\":3383:3403  totalBalances[token] */\n      0xffffffffffffffffffffffffffffffffffffffff\n      and\n      0xffffffffffffffffffffffffffffffffffffffff\n      and\n      dup2\n      mstore\n      0x20\n      add\n      swap1\n      dup2\n      mstore\n      0x20\n      add\n      0x00\n      keccak256\n      sload\n        /* \"contracts/sweetspot.sol\":3383:3424  totalBalances[token] >= userAllowedAmount */\n      lt\n      iszero\n        /* \"contracts/sweetspot.sol\":3375:3454  require(totalBalances[token] >= userAllowedAmount, \"Insufficient funds in jar\") */\n      tag_111\n      jumpi\n      mload(0x40)\n      0x08c379a000000000000000000000000000000000000000000000000000000000\n      dup2\n      mstore\n      0x04\n      add\n      tag_112\n      swap1\n      tag_113\n      jump\t// in\n    tag_112:\n      mload(0x40)\n      dup1\n      swap2\n      sub\n      swap1\n      revert\n    tag_111:\n        /* \"contracts/sweetspot.sol\":3503:3504  0 */\n      0x00\n        /* \"contracts/sweetspot.sol\":3467:3481  allowedAmounts */\n      0x36\n        /* \"contracts/sweetspot.sol\":3467:3493  allowedAmounts[msg.sender] */\n      0x00\n        /* \"contracts/sweetspot.sol\":3482:3492  msg.sender */\n      caller\n        /* \"contracts/sweetspot.sol\":3467:3493  allowedAmounts[msg.sender] */\n      0xffffffffffffffffffffffffffffffffffffffff\n      and\n      0xffffffffffffffffffffffffffffffffffffffff\n      and\n      dup2\n      mstore\n      0x20\n      add\n      swap1\n      dup2\n      mstore\n      0x20\n      add\n      0x00\n      keccak256\n        /* \"contracts/sweetspot.sol\":3467:3500  allowedAmounts[msg.sender][token] */\n      0x00\n        /* \"contracts/sweetspot.sol\":3494:3499  token */\n      dup5\n        /* \"contracts/sweetspot.sol\":3467:3500  allowedAmounts[msg.sender][token] */\n      0xffffffffffffffffffffffffffffffffffffffff\n      and\n      0xffffffffffffffffffffffffffffffffffffffff\n      and\n      dup2\n      mstore\n      0x20\n      add\n      swap1\n      dup2\n      mstore\n      0x20\n      add\n      0x00\n      keccak256\n        /* \"contracts/sweetspot.sol\":3467:3504  allowedAmounts[msg.sender][token] = 0 */\n      dup2\n      swap1\n      sstore\n      pop\n        /* \"contracts/sweetspot.sol\":3539:3556  userAllowedAmount */\n      dup1\n        /* \"contracts/sweetspot.sol\":3515:3528  totalBalances */\n      0x35\n        /* \"contracts/sweetspot.sol\":3515:3535  totalBalances[token] */\n      0x00\n        /* \"contracts/sweetspot.sol\":3529:3534  token */\n      dup5\n        /* \"contracts/sweetspot.sol\":3515:3535  totalBalances[token] */\n      0xffffffffffffffffffffffffffffffffffffffff\n      and\n      0xffffffffffffffffffffffffffffffffffffffff\n      and\n      dup2\n      mstore\n      0x20\n      add\n      swap1\n      dup2\n      mstore\n      0x20\n      add\n      0x00\n      keccak256\n      0x00\n        /* \"contracts/sweetspot.sol\":3515:3556  totalBalances[token] -= userAllowedAmount */\n      dup3\n      dup3\n      sload\n      tag_114\n      swap2\n      swap1\n      tag_115\n      jump\t// in\n    tag_114:\n      swap3\n      pop\n      pop\n      dup2\n      swap1\n      sstore\n      pop\n        /* \"contracts/sweetspot.sol\":613:614  0 */\n      0x00\n        /* \"contracts/sweetspot.sol\":3573:3594  token == NATIVE_TOKEN */\n      0xffffffffffffffffffffffffffffffffffffffff\n      and\n        /* \"contracts/sweetspot.sol\":3573:3578  token */\n      dup3\n        /* \"contracts/sweetspot.sol\":3573:3594  token == NATIVE_TOKEN */\n      0xffffffffffffffffffffffffffffffffffffffff\n      and\n      sub\n        /* \"contracts/sweetspot.sol\":3569:3833  if (token == NATIVE_TOKEN) {... */\n      tag_116\n      jumpi\n        /* \"contracts/sweetspot.sol\":3612:3624  bool success */\n      0x00\n        /* \"contracts/sweetspot.sol\":3630:3640  msg.sender */\n      caller\n        /* \"contracts/sweetspot.sol\":3630:3645  msg.sender.call */\n      0xffffffffffffffffffffffffffffffffffffffff\n      and\n        /* \"contracts/sweetspot.sol\":3653:3670  userAllowedAmount */\n      dup3\n        /* \"contracts/sweetspot.sol\":3630:3675  msg.sender.call{value: userAllowedAmount}(\"\") */\n      mload(0x40)\n      tag_117\n      swap1\n      tag_118\n      jump\t// in\n    tag_117:\n      0x00\n      mload(0x40)\n      dup1\n      dup4\n      sub\n      dup2\n      dup6\n      dup8\n      gas\n      call\n      swap3\n      pop\n      pop\n      pop\n      returndatasize\n      dup1\n      0x00\n      dup2\n      eq\n      tag_121\n      jumpi\n      mload(0x40)\n      swap2\n      pop\n      and(add(returndatasize, 0x3f), not(0x1f))\n      dup3\n      add\n      0x40\n      mstore\n      returndatasize\n      dup3\n      mstore\n      returndatasize\n      0x00\n      0x20\n      dup5\n      add\n      returndatacopy\n      jump(tag_120)\n    tag_121:\n      0x60\n      swap2\n      pop\n    tag_120:\n      pop\n        /* \"contracts/sweetspot.sol\":3611:3675  (bool success, ) = msg.sender.call{value: userAllowedAmount}(\"\") */\n      pop\n      swap1\n      pop\n        /* \"contracts/sweetspot.sol\":3698:3705  success */\n      dup1\n        /* \"contracts/sweetspot.sol\":3690:3731  require(success, \"Ether transfer failed\") */\n      tag_122\n      jumpi\n      mload(0x40)\n      0x08c379a000000000000000000000000000000000000000000000000000000000\n      dup2\n      mstore\n      0x04\n      add\n      tag_123\n      swap1\n      tag_124\n      jump\t// in\n    tag_123:\n      mload(0x40)\n      dup1\n      swap2\n      sub\n      swap1\n      revert\n    tag_122:\n        /* \"contracts/sweetspot.sol\":3596:3743  {... */\n      pop\n        /* \"contracts/sweetspot.sol\":3569:3833  if (token == NATIVE_TOKEN) {... */\n      jump(tag_125)\n    tag_116:\n        /* \"contracts/sweetspot.sol\":3764:3821  IERC20(token).safeTransfer(msg.sender, userAllowedAmount) */\n      tag_126\n        /* \"contracts/sweetspot.sol\":3791:3801  msg.sender */\n      caller\n        /* \"contracts/sweetspot.sol\":3803:3820  userAllowedAmount */\n      dup3\n        /* \"contracts/sweetspot.sol\":3771:3776  token */\n      dup5\n        /* \"contracts/sweetspot.sol\":3764:3790  IERC20(token).safeTransfer */\n      0xffffffffffffffffffffffffffffffffffffffff\n      and\n      tag_127\n      swap1\n        /* \"contracts/sweetspot.sol\":3764:3821  IERC20(token).safeTransfer(msg.sender, userAllowedAmount) */\n      swap3\n      swap2\n      swap1\n      0xffffffff\n      and\n      jump\t// in\n    tag_126:\n        /* \"contracts/sweetspot.sol\":3569:3833  if (token == NATIVE_TOKEN) {... */\n    tag_125:\n        /* \"contracts/sweetspot.sol\":3870:3875  token */\n      dup2\n        /* \"contracts/sweetspot.sol\":3850:3895  Claimed(msg.sender, token, userAllowedAmount) */\n      0xffffffffffffffffffffffffffffffffffffffff\n      and\n        /* \"contracts/sweetspot.sol\":3858:3868  msg.sender */\n      caller\n        /* \"contracts/sweetspot.sol\":3850:3895  Claimed(msg.sender, token, userAllowedAmount) */\n      0xffffffffffffffffffffffffffffffffffffffff\n      and\n      0xf7a40077ff7a04c7e61f6f26fb13774259ddf1b6bce9ecf26a8276cdd3992683\n        /* \"contracts/sweetspot.sol\":3877:3894  userAllowedAmount */\n      dup4\n        /* \"contracts/sweetspot.sol\":3850:3895  Claimed(msg.sender, token, userAllowedAmount) */\n      mload(0x40)\n      tag_128\n      swap2\n      swap1\n      tag_26\n      jump\t// in\n    tag_128:\n      mload(0x40)\n      dup1\n      swap2\n      sub\n      swap1\n      log3\n        /* \"contracts/sweetspot.sol\":3023:3903  {... */\n      pop\n        /* \"@openzeppelin/contracts-upgradeable/security/ReentrancyGuardUpgradeable.sol\":2568:2588  _nonReentrantAfter() */\n      tag_129\n        /* \"@openzeppelin/contracts-upgradeable/security/ReentrancyGuardUpgradeable.sol\":2568:2586  _nonReentrantAfter */\n      tag_130\n        /* \"@openzeppelin/contracts-upgradeable/security/ReentrancyGuardUpgradeable.sol\":2568:2588  _nonReentrantAfter() */\n      jump\t// in\n    tag_129:\n        /* \"contracts/sweetspot.sol\":2971:3903  function claim(address token) external nonReentrant {... */\n      pop\n      jump\t// out\n        /* \"contracts/sweetspot.sol\":566:615  address public constant NATIVE_TOKEN = address(0) */\n    tag_38:\n        /* \"contracts/sweetspot.sol\":613:614  0 */\n      0x00\n        /* \"contracts/sweetspot.sol\":566:615  address public constant NATIVE_TOKEN = address(0) */\n      dup2\n      jump\t// out\n        /* \"contracts/sweetspot.sol\":2412:2886  function deposit(address token, uint256 amount) external payable nonReentrant  {... */\n    tag_44:\n        /* \"@openzeppelin/contracts-upgradeable/security/ReentrancyGuardUpgradeable.sol\":2526:2547  _nonReentrantBefore() */\n      tag_132\n        /* \"@openzeppelin/contracts-upgradeable/security/ReentrancyGuardUpgradeable.sol\":2526:2545  _nonReentrantBefore */\n      tag_102\n        /* \"@openzeppelin/contracts-upgradeable/security/ReentrancyGuardUpgradeable.sol\":2526:2547  _nonReentrantBefore() */\n      jump\t// in\n    tag_132:\n        /* \"contracts/sweetspot.sol\":613:614  0 */\n      0x00\n        /* \"contracts/sweetspot.sol\":2506:2527  token == NATIVE_TOKEN */\n      0xffffffffffffffffffffffffffffffffffffffff\n      and\n        /* \"contracts/sweetspot.sol\":2506:2511  token */\n      dup3\n        /* \"contracts/sweetspot.sol\":2506:2527  token == NATIVE_TOKEN */\n      0xffffffffffffffffffffffffffffffffffffffff\n      and\n      sub\n        /* \"contracts/sweetspot.sol\":2502:2786  if (token == NATIVE_TOKEN) {... */\n      tag_134\n      jumpi\n        /* \"contracts/sweetspot.sol\":2565:2571  amount */\n      dup1\n        /* \"contracts/sweetspot.sol\":2552:2561  msg.value */\n      callvalue\n        /* \"contracts/sweetspot.sol\":2552:2571  msg.value == amount */\n      eq\n        /* \"contracts/sweetspot.sol\":2544:2598  require(msg.value == amount, \"Incorrect Ether amount\") */\n      tag_135\n      jumpi\n      mload(0x40)\n      0x08c379a000000000000000000000000000000000000000000000000000000000\n      dup2\n      mstore\n      0x04\n      add\n      tag_136\n      swap1\n      tag_137\n      jump\t// in\n    tag_136:\n      mload(0x40)\n      dup1\n      swap2\n      sub\n      swap1\n      revert\n    tag_135:\n        /* \"contracts/sweetspot.sol\":2502:2786  if (token == NATIVE_TOKEN) {... */\n      jump(tag_138)\n    tag_134:\n        /* \"contracts/sweetspot.sol\":2648:2649  0 */\n      0x00\n        /* \"contracts/sweetspot.sol\":2639:2645  amount */\n      dup2\n        /* \"contracts/sweetspot.sol\":2639:2649  amount > 0 */\n      gt\n        /* \"contracts/sweetspot.sol\":2631:2694  require(amount > 0, \"Deposit amount must be greater than zero\") */\n      tag_139\n      jumpi\n      mload(0x40)\n      0x08c379a000000000000000000000000000000000000000000000000000000000\n      dup2\n      mstore\n      0x04\n      add\n      tag_140\n      swap1\n      tag_141\n      jump\t// in\n    tag_140:\n      mload(0x40)\n      dup1\n      swap2\n      sub\n      swap1\n      revert\n    tag_139:\n        /* \"contracts/sweetspot.sol\":2709:2774  IERC20(token).safeTransferFrom(msg.sender, address(this), amount) */\n      tag_142\n        /* \"contracts/sweetspot.sol\":2740:2750  msg.sender */\n      caller\n        /* \"contracts/sweetspot.sol\":2760:2764  this */\n      address\n        /* \"contracts/sweetspot.sol\":2767:2773  amount */\n      dup4\n        /* \"contracts/sweetspot.sol\":2716:2721  token */\n      dup6\n        /* \"contracts/sweetspot.sol\":2709:2739  IERC20(token).safeTransferFrom */\n      0xffffffffffffffffffffffffffffffffffffffff\n      and\n      tag_143\n      swap1\n        /* \"contracts/sweetspot.sol\":2709:2774  IERC20(token).safeTransferFrom(msg.sender, address(this), amount) */\n      swap4\n      swap3\n      swap2\n      swap1\n      0xffffffff\n      and\n      jump\t// in\n    tag_142:\n        /* \"contracts/sweetspot.sol\":2502:2786  if (token == NATIVE_TOKEN) {... */\n    tag_138:\n        /* \"contracts/sweetspot.sol\":2822:2828  amount */\n      dup1\n        /* \"contracts/sweetspot.sol\":2798:2811  totalBalances */\n      0x35\n        /* \"contracts/sweetspot.sol\":2798:2818  totalBalances[token] */\n      0x00\n        /* \"contracts/sweetspot.sol\":2812:2817  token */\n      dup5\n        /* \"contracts/sweetspot.sol\":2798:2818  totalBalances[token] */\n      0xffffffffffffffffffffffffffffffffffffffff\n      and\n      0xffffffffffffffffffffffffffffffffffffffff\n      and\n      dup2\n      mstore\n      0x20\n      add\n      swap1\n      dup2\n      mstore\n      0x20\n      add\n      0x00\n      keccak256\n      0x00\n        /* \"contracts/sweetspot.sol\":2798:2828  totalBalances[token] += amount */\n      dup3\n      dup3\n      sload\n      tag_144\n      swap2\n      swap1\n      tag_24\n      jump\t// in\n    tag_144:\n      swap3\n      pop\n      pop\n      dup2\n      swap1\n      sstore\n      pop\n        /* \"contracts/sweetspot.sol\":2864:2869  token */\n      dup2\n        /* \"contracts/sweetspot.sol\":2844:2878  Deposit(msg.sender, token, amount) */\n      0xffffffffffffffffffffffffffffffffffffffff\n      and\n        /* \"contracts/sweetspot.sol\":2852:2862  msg.sender */\n      caller\n        /* \"contracts/sweetspot.sol\":2844:2878  Deposit(msg.sender, token, amount) */\n      0xffffffffffffffffffffffffffffffffffffffff\n      and\n      0x5548c837ab068cf56a2c2479df0882a4922fd203edb7517321831d95078c5f62\n        /* \"contracts/sweetspot.sol\":2871:2877  amount */\n      dup4\n        /* \"contracts/sweetspot.sol\":2844:2878  Deposit(msg.sender, token, amount) */\n      mload(0x40)\n      tag_145\n      swap2\n      swap1\n      tag_26\n      jump\t// in\n    tag_145:\n      mload(0x40)\n      dup1\n      swap2\n      sub\n      swap1\n      log3\n        /* \"@openzeppelin/contracts-upgradeable/security/ReentrancyGuardUpgradeable.sol\":2568:2588  _nonReentrantAfter() */\n      tag_146\n        /* \"@openzeppelin/contracts-upgradeable/security/ReentrancyGuardUpgradeable.sol\":2568:2586  _nonReentrantAfter */\n      tag_130\n        /* \"@openzeppelin/contracts-upgradeable/security/ReentrancyGuardUpgradeable.sol\":2568:2588  _nonReentrantAfter() */\n      jump\t// in\n    tag_146:\n        /* \"contracts/sweetspot.sol\":2412:2886  function deposit(address token, uint256 amount) external payable nonReentrant  {... */\n      pop\n      pop\n      jump\t// out\n        /* \"contracts/sweetspot.sol\":1977:2194  function initialize(address _scorer, address owner) external initializer {... */\n    tag_49:\n        /* \"@openzeppelin/contracts-upgradeable/proxy/utils/Initializable.sol\":4158:4188  InitializableStorage storage $ */\n      0x00\n        /* \"@openzeppelin/contracts-upgradeable/proxy/utils/Initializable.sol\":4191:4217  _getInitializableStorage() */\n      tag_148\n        /* \"@openzeppelin/contracts-upgradeable/proxy/utils/Initializable.sol\":4191:4215  _getInitializableStorage */\n      tag_149\n        /* \"@openzeppelin/contracts-upgradeable/proxy/utils/Initializable.sol\":4191:4217  _getInitializableStorage() */\n      jump\t// in\n    tag_148:\n        /* \"@openzeppelin/contracts-upgradeable/proxy/utils/Initializable.sol\":4158:4217  InitializableStorage storage $ = _getInitializableStorage() */\n      swap1\n      pop\n        /* \"@openzeppelin/contracts-upgradeable/proxy/utils/Initializable.sol\":4279:4298  bool isTopLevelCall */\n      0x00\n        /* \"@openzeppelin/contracts-upgradeable/proxy/utils/Initializable.sol\":4302:4303  $ */\n      dup2\n        /* \"@openzeppelin/contracts-upgradeable/proxy/utils/Initializable.sol\":4302:4317  $._initializing */\n      0x00\n      add\n      0x08\n      swap1\n      sload\n      swap1\n      0x0100\n      exp\n      swap1\n      div\n      0xff\n      and\n        /* \"@openzeppelin/contracts-upgradeable/proxy/utils/Initializable.sol\":4301:4317  !$._initializing */\n      iszero\n        /* \"@openzeppelin/contracts-upgradeable/proxy/utils/Initializable.sol\":4279:4317  bool isTopLevelCall = !$._initializing */\n      swap1\n      pop\n        /* \"@openzeppelin/contracts-upgradeable/proxy/utils/Initializable.sol\":4327:4345  uint64 initialized */\n      0x00\n        /* \"@openzeppelin/contracts-upgradeable/proxy/utils/Initializable.sol\":4348:4349  $ */\n      dup3\n        /* \"@openzeppelin/contracts-upgradeable/proxy/utils/Initializable.sol\":4348:4362  $._initialized */\n      0x00\n      add\n      0x00\n      swap1\n      sload\n      swap1\n      0x0100\n      exp\n      swap1\n      div\n      0xffffffffffffffff\n      and\n        /* \"@openzeppelin/contracts-upgradeable/proxy/utils/Initializable.sol\":4327:4362  uint64 initialized = $._initialized */\n      swap1\n      pop\n        /* \"@openzeppelin/contracts-upgradeable/proxy/utils/Initializable.sol\":4706:4723  bool initialSetup */\n      0x00\n        /* \"@openzeppelin/contracts-upgradeable/proxy/utils/Initializable.sol\":4741:4742  0 */\n      dup1\n        /* \"@openzeppelin/contracts-upgradeable/proxy/utils/Initializable.sol\":4726:4737  initialized */\n      dup3\n        /* \"@openzeppelin/contracts-upgradeable/proxy/utils/Initializable.sol\":4726:4742  initialized == 0 */\n      0xffffffffffffffff\n      and\n      eq\n        /* \"@openzeppelin/contracts-upgradeable/proxy/utils/Initializable.sol\":4726:4760  initialized == 0 && isTopLevelCall */\n      dup1\n      iszero\n      tag_150\n      jumpi\n      pop\n        /* \"@openzeppelin/contracts-upgradeable/proxy/utils/Initializable.sol\":4746:4760  isTopLevelCall */\n      dup3\n        /* \"@openzeppelin/contracts-upgradeable/proxy/utils/Initializable.sol\":4726:4760  initialized == 0 && isTopLevelCall */\n    tag_150:\n        /* \"@openzeppelin/contracts-upgradeable/proxy/utils/Initializable.sol\":4706:4760  bool initialSetup = initialized == 0 && isTopLevelCall */\n      swap1\n      pop\n        /* \"@openzeppelin/contracts-upgradeable/proxy/utils/Initializable.sol\":4770:4787  bool construction */\n      0x00\n        /* \"@openzeppelin/contracts-upgradeable/proxy/utils/Initializable.sol\":4805:4806  1 */\n      0x01\n        /* \"@openzeppelin/contracts-upgradeable/proxy/utils/Initializable.sol\":4790:4801  initialized */\n      dup4\n        /* \"@openzeppelin/contracts-upgradeable/proxy/utils/Initializable.sol\":4790:4806  initialized == 1 */\n      0xffffffffffffffff\n      and\n      eq\n        /* \"@openzeppelin/contracts-upgradeable/proxy/utils/Initializable.sol\":4790:4840  initialized == 1 && address(this).code.length == 0 */\n      dup1\n      iszero\n      tag_151\n      jumpi\n      pop\n        /* \"@openzeppelin/contracts-upgradeable/proxy/utils/Initializable.sol\":4839:4840  0 */\n      0x00\n        /* \"@openzeppelin/contracts-upgradeable/proxy/utils/Initializable.sol\":4818:4822  this */\n      address\n        /* \"@openzeppelin/contracts-upgradeable/proxy/utils/Initializable.sol\":4810:4835  address(this).code.length */\n      0xffffffffffffffffffffffffffffffffffffffff\n      and\n      extcodesize\n        /* \"@openzeppelin/contracts-upgradeable/proxy/utils/Initializable.sol\":4810:4840  address(this).code.length == 0 */\n      eq\n        /* \"@openzeppelin/contracts-upgradeable/proxy/utils/Initializable.sol\":4790:4840  initialized == 1 && address(this).code.length == 0 */\n    tag_151:\n        /* \"@openzeppelin/contracts-upgradeable/proxy/utils/Initializable.sol\":4770:4840  bool construction = initialized == 1 && address(this).code.length == 0 */\n      swap1\n      pop\n        /* \"@openzeppelin/contracts-upgradeable/proxy/utils/Initializable.sol\":4856:4868  initialSetup */\n      dup2\n        /* \"@openzeppelin/contracts-upgradeable/proxy/utils/Initializable.sol\":4855:4868  !initialSetup */\n      iszero\n        /* \"@openzeppelin/contracts-upgradeable/proxy/utils/Initializable.sol\":4855:4885  !initialSetup && !construction */\n      dup1\n      iszero\n      tag_152\n      jumpi\n      pop\n        /* \"@openzeppelin/contracts-upgradeable/proxy/utils/Initializable.sol\":4873:4885  construction */\n      dup1\n        /* \"@openzeppelin/contracts-upgradeable/proxy/utils/Initializable.sol\":4872:4885  !construction */\n      iszero\n        /* \"@openzeppelin/contracts-upgradeable/proxy/utils/Initializable.sol\":4855:4885  !initialSetup && !construction */\n    tag_152:\n        /* \"@openzeppelin/contracts-upgradeable/proxy/utils/Initializable.sol\":4851:4942  if (!initialSetup && !construction) {... */\n      iszero\n      tag_153\n      jumpi\n        /* \"@openzeppelin/contracts-upgradeable/proxy/utils/Initializable.sol\":4908:4931  InvalidInitialization() */\n      mload(0x40)\n      0xf92ee8a900000000000000000000000000000000000000000000000000000000\n      dup2\n      mstore\n      0x04\n      add\n      mload(0x40)\n      dup1\n      swap2\n      sub\n      swap1\n      revert\n        /* \"@openzeppelin/contracts-upgradeable/proxy/utils/Initializable.sol\":4851:4942  if (!initialSetup && !construction) {... */\n    tag_153:\n        /* \"@openzeppelin/contracts-upgradeable/proxy/utils/Initializable.sol\":4968:4969  1 */\n      0x01\n        /* \"@openzeppelin/contracts-upgradeable/proxy/utils/Initializable.sol\":4951:4952  $ */\n      dup6\n        /* \"@openzeppelin/contracts-upgradeable/proxy/utils/Initializable.sol\":4951:4965  $._initialized */\n      0x00\n      add\n      0x00\n        /* \"@openzeppelin/contracts-upgradeable/proxy/utils/Initializable.sol\":4951:4969  $._initialized = 1 */\n      0x0100\n      exp\n      dup2\n      sload\n      dup2\n      0xffffffffffffffff\n      mul\n      not\n      and\n      swap1\n      dup4\n      0xffffffffffffffff\n      and\n      mul\n      or\n      swap1\n      sstore\n      pop\n        /* \"@openzeppelin/contracts-upgradeable/proxy/utils/Initializable.sol\":4983:4997  isTopLevelCall */\n      dup4\n        /* \"@openzeppelin/contracts-upgradeable/proxy/utils/Initializable.sol\":4979:5046  if (isTopLevelCall) {... */\n      iszero\n      tag_154\n      jumpi\n        /* \"@openzeppelin/contracts-upgradeable/proxy/utils/Initializable.sol\":5031:5035  true */\n      0x01\n        /* \"@openzeppelin/contracts-upgradeable/proxy/utils/Initializable.sol\":5013:5014  $ */\n      dup6\n        /* \"@openzeppelin/contracts-upgradeable/proxy/utils/Initializable.sol\":5013:5028  $._initializing */\n      0x00\n      add\n      0x08\n        /* \"@openzeppelin/contracts-upgradeable/proxy/utils/Initializable.sol\":5013:5035  $._initializing = true */\n      0x0100\n      exp\n      dup2\n      sload\n      dup2\n      0xff\n      mul\n      not\n      and\n      swap1\n      dup4\n      iszero\n      iszero\n      mul\n      or\n      swap1\n      sstore\n      pop\n        /* \"@openzeppelin/contracts-upgradeable/proxy/utils/Initializable.sol\":4979:5046  if (isTopLevelCall) {... */\n    tag_154:\n        /* \"contracts/sweetspot.sol\":2061:2082  __Ownable_init(owner) */\n      tag_156\n        /* \"contracts/sweetspot.sol\":2076:2081  owner */\n      dup7\n        /* \"contracts/sweetspot.sol\":2061:2075  __Ownable_init */\n      tag_157\n        /* \"contracts/sweetspot.sol\":2061:2082  __Ownable_init(owner) */\n      jump\t// in\n    tag_156:\n        /* \"contracts/sweetspot.sol\":2126:2150  __ReentrancyGuard_init() */\n      tag_158\n        /* \"contracts/sweetspot.sol\":2126:2148  __ReentrancyGuard_init */\n      tag_159\n        /* \"contracts/sweetspot.sol\":2126:2150  __ReentrancyGuard_init() */\n      jump\t// in\n    tag_158:\n        /* \"contracts/sweetspot.sol\":2178:2185  _scorer */\n      dup7\n        /* \"contracts/sweetspot.sol\":2161:2167  scorer */\n      0x32\n      0x00\n        /* \"contracts/sweetspot.sol\":2161:2186  scorer = IScorer(_scorer) */\n      0x0100\n      exp\n      dup2\n      sload\n      dup2\n      0xffffffffffffffffffffffffffffffffffffffff\n      mul\n      not\n      and\n      swap1\n      dup4\n      0xffffffffffffffffffffffffffffffffffffffff\n      and\n      mul\n      or\n      swap1\n      sstore\n      pop\n        /* \"@openzeppelin/contracts-upgradeable/proxy/utils/Initializable.sol\":5070:5084  isTopLevelCall */\n      dup4\n        /* \"@openzeppelin/contracts-upgradeable/proxy/utils/Initializable.sol\":5066:5167  if (isTopLevelCall) {... */\n      iszero\n      tag_160\n      jumpi\n        /* \"@openzeppelin/contracts-upgradeable/proxy/utils/Initializable.sol\":5118:5123  false */\n      0x00\n        /* \"@openzeppelin/contracts-upgradeable/proxy/utils/Initializable.sol\":5100:5101  $ */\n      dup6\n        /* \"@openzeppelin/contracts-upgradeable/proxy/utils/Initializable.sol\":5100:5115  $._initializing */\n      0x00\n      add\n      0x08\n        /* \"@openzeppelin/contracts-upgradeable/proxy/utils/Initializable.sol\":5100:5123  $._initializing = false */\n      0x0100\n      exp\n      dup2\n      sload\n      dup2\n      0xff\n      mul\n      not\n      and\n      swap1\n      dup4\n      iszero\n      iszero\n      mul\n      or\n      swap1\n      sstore\n      pop\n        /* \"@openzeppelin/contracts-upgradeable/proxy/utils/Initializable.sol\":5142:5156  Initialized(1) */\n      0xc7f505b2f371ae2175ee4913f4499e1f2633a7b5936321eed1cdaeb6115181d2\n        /* \"@openzeppelin/contracts-upgradeable/proxy/utils/Initializable.sol\":5154:5155  1 */\n      0x01\n        /* \"@openzeppelin/contracts-upgradeable/proxy/utils/Initializable.sol\":5142:5156  Initialized(1) */\n      mload(0x40)\n      tag_161\n      swap2\n      swap1\n      tag_162\n      jump\t// in\n    tag_161:\n      mload(0x40)\n      dup1\n      swap2\n      sub\n      swap1\n      log1\n        /* \"@openzeppelin/contracts-upgradeable/proxy/utils/Initializable.sol\":5066:5167  if (isTopLevelCall) {... */\n    tag_160:\n        /* \"@openzeppelin/contracts-upgradeable/proxy/utils/Initializable.sol\":4092:5173  {... */\n      pop\n      pop\n      pop\n      pop\n      pop\n        /* \"contracts/sweetspot.sol\":1977:2194  function initialize(address _scorer, address owner) external initializer {... */\n      pop\n      pop\n      jump\t// out\n        /* \"@openzeppelin/contracts-upgradeable/access/OwnableUpgradeable.sol\":3155:3256  function renounceOwnership() public virtual onlyOwner {... */\n    tag_52:\n        /* \"@openzeppelin/contracts-upgradeable/access/OwnableUpgradeable.sol\":2334:2347  _checkOwner() */\n      tag_164\n        /* \"@openzeppelin/contracts-upgradeable/access/OwnableUpgradeable.sol\":2334:2345  _checkOwner */\n      tag_165\n        /* \"@openzeppelin/contracts-upgradeable/access/OwnableUpgradeable.sol\":2334:2347  _checkOwner() */\n      jump\t// in\n    tag_164:\n        /* \"@openzeppelin/contracts-upgradeable/access/OwnableUpgradeable.sol\":3219:3249  _transferOwnership(address(0)) */\n      tag_167\n        /* \"@openzeppelin/contracts-upgradeable/access/OwnableUpgradeable.sol\":3246:3247  0 */\n      0x00\n        /* \"@openzeppelin/contracts-upgradeable/access/OwnableUpgradeable.sol\":3219:3237  _transferOwnership */\n      tag_168\n        /* \"@openzeppelin/contracts-upgradeable/access/OwnableUpgradeable.sol\":3219:3249  _transferOwnership(address(0)) */\n      jump\t// in\n    tag_167:\n        /* \"@openzeppelin/contracts-upgradeable/access/OwnableUpgradeable.sol\":3155:3256  function renounceOwnership() public virtual onlyOwner {... */\n      jump\t// out\n        /* \"contracts/sweetspot.sol\":622:643  IScorer public scorer */\n    tag_55:\n      0x32\n      0x00\n      swap1\n      sload\n      swap1\n      0x0100\n      exp\n      swap1\n      div\n      0xffffffffffffffffffffffffffffffffffffffff\n      and\n      dup2\n      jump\t// out\n        /* \"contracts/sweetspot.sol\":883:908  Round public currentRound */\n    tag_60:\n      0x33\n      dup1\n      0x00\n      add\n      0x00\n      swap1\n      sload\n      swap1\n      0x0100\n      exp\n      swap1\n      div\n      0xffffffffffffffff\n      and\n      swap1\n      dup1\n      0x00\n      add\n      0x08\n      swap1\n      sload\n      swap1\n      0x0100\n      exp\n      swap1\n      div\n      0xffffffffffffffff\n      and\n      swap1\n      dup1\n      0x01\n      add\n      dup1\n      sload\n      tag_169\n      swap1\n      tag_170\n      jump\t// in\n    tag_169:\n      dup1\n      0x1f\n      add\n      0x20\n      dup1\n      swap2\n      div\n      mul\n      0x20\n      add\n      mload(0x40)\n      swap1\n      dup2\n      add\n      0x40\n      mstore\n      dup1\n      swap3\n      swap2\n      swap1\n      dup2\n      dup2\n      mstore\n      0x20\n      add\n      dup3\n      dup1\n      sload\n      tag_171\n      swap1\n      tag_170\n      jump\t// in\n    tag_171:\n      dup1\n      iszero\n      tag_172\n      jumpi\n      dup1\n      0x1f\n      lt\n      tag_173\n      jumpi\n      0x0100\n      dup1\n      dup4\n      sload\n      div\n      mul\n      dup4\n      mstore\n      swap2\n      0x20\n      add\n      swap2\n      jump(tag_172)\n    tag_173:\n      dup3\n      add\n      swap2\n      swap1\n      0x00\n      mstore\n      keccak256(0x00, 0x20)\n      swap1\n    tag_174:\n      dup2\n      sload\n      dup2\n      mstore\n      swap1\n      0x01\n      add\n      swap1\n      0x20\n      add\n      dup1\n      dup4\n      gt\n      tag_174\n      jumpi\n      dup3\n      swap1\n      sub\n      0x1f\n      and\n      dup3\n      add\n      swap2\n    tag_172:\n      pop\n      pop\n      pop\n      pop\n      pop\n      swap1\n      pop\n      dup4\n      jump\t// out\n        /* \"@openzeppelin/contracts-upgradeable/access/OwnableUpgradeable.sol\":2441:2585  function owner() public view virtual returns (address) {... */\n    tag_65:\n        /* \"@openzeppelin/contracts-upgradeable/access/OwnableUpgradeable.sol\":2487:2494  address */\n      0x00\n        /* \"@openzeppelin/contracts-upgradeable/access/OwnableUpgradeable.sol\":2506:2530  OwnableStorage storage $ */\n      dup1\n        /* \"@openzeppelin/contracts-upgradeable/access/OwnableUpgradeable.sol\":2533:2553  _getOwnableStorage() */\n      tag_176\n        /* \"@openzeppelin/contracts-upgradeable/access/OwnableUpgradeable.sol\":2533:2551  _getOwnableStorage */\n      tag_177\n        /* \"@openzeppelin/contracts-upgradeable/access/OwnableUpgradeable.sol\":2533:2553  _getOwnableStorage() */\n      jump\t// in\n    tag_176:\n        /* \"@openzeppelin/contracts-upgradeable/access/OwnableUpgradeable.sol\":2506:2553  OwnableStorage storage $ = _getOwnableStorage() */\n      swap1\n      pop\n        /* \"@openzeppelin/contracts-upgradeable/access/OwnableUpgradeable.sol\":2570:2571  $ */\n      dup1\n        /* \"@openzeppelin/contracts-upgradeable/access/OwnableUpgradeable.sol\":2570:2578  $._owner */\n      0x00\n      add\n      0x00\n      swap1\n      sload\n      swap1\n      0x0100\n      exp\n      swap1\n      div\n      0xffffffffffffffffffffffffffffffffffffffff\n      and\n        /* \"@openzeppelin/contracts-upgradeable/access/OwnableUpgradeable.sol\":2563:2578  return $._owner */\n      swap2\n      pop\n      pop\n        /* \"@openzeppelin/contracts-upgradeable/access/OwnableUpgradeable.sol\":2441:2585  function owner() public view virtual returns (address) {... */\n      swap1\n      jump\t// out\n        /* \"contracts/sweetspot.sol\":5261:5539  function setRound(uint64  start, uint64  end, string memory metadataURI) external onlyAdmin {... */\n    tag_71:\n        /* \"contracts/sweetspot.sol\":1725:1731  scorer */\n      0x32\n      0x00\n      swap1\n      sload\n      swap1\n      0x0100\n      exp\n      swap1\n      div\n      0xffffffffffffffffffffffffffffffffffffffff\n      and\n        /* \"contracts/sweetspot.sol\":1725:1739  scorer.isAdmin */\n      0xffffffffffffffffffffffffffffffffffffffff\n      and\n      0x24d7806c\n        /* \"contracts/sweetspot.sol\":1740:1750  msg.sender */\n      caller\n        /* \"contracts/sweetspot.sol\":1725:1751  scorer.isAdmin(msg.sender) */\n      mload(0x40)\n      dup3\n      0xffffffff\n      and\n      0xe0\n      shl\n      dup2\n      mstore\n      0x04\n      add\n      tag_179\n      swap2\n      swap1\n      tag_40\n      jump\t// in\n    tag_179:\n      0x20\n      mload(0x40)\n      dup1\n      dup4\n      sub\n      dup2\n      dup7\n      gas\n      staticcall\n      iszero\n      dup1\n      iszero\n      tag_181\n      jumpi\n      returndatasize\n      0x00\n      dup1\n      returndatacopy\n      revert(0x00, returndatasize)\n    tag_181:\n      pop\n      pop\n      pop\n      pop\n      mload(0x40)\n      returndatasize\n      not(0x1f)\n      0x1f\n      dup3\n      add\n      and\n      dup3\n      add\n      dup1\n      0x40\n      mstore\n      pop\n      dup2\n      add\n      swap1\n      tag_182\n      swap2\n      swap1\n      tag_183\n      jump\t// in\n    tag_182:\n        /* \"contracts/sweetspot.sol\":1717:1778  require(scorer.isAdmin(msg.sender), \"Caller is not an admin\") */\n      tag_184\n      jumpi\n      mload(0x40)\n      0x08c379a000000000000000000000000000000000000000000000000000000000\n      dup2\n      mstore\n      0x04\n      add\n      tag_185\n      swap1\n      tag_186\n      jump\t// in\n    tag_185:\n      mload(0x40)\n      dup1\n      swap2\n      sub\n      swap1\n      revert\n    tag_184:\n        /* \"contracts/sweetspot.sol\":5380:5383  end */\n      dup2\n        /* \"contracts/sweetspot.sol\":5372:5383  start < end */\n      0xffffffffffffffff\n      and\n        /* \"contracts/sweetspot.sol\":5372:5377  start */\n      dup4\n        /* \"contracts/sweetspot.sol\":5372:5383  start < end */\n      0xffffffffffffffff\n      and\n      lt\n        /* \"contracts/sweetspot.sol\":5364:5422  require(start < end, \"Start time must be before end time\") */\n      tag_188\n      jumpi\n      mload(0x40)\n      0x08c379a000000000000000000000000000000000000000000000000000000000\n      dup2\n      mstore\n      0x04\n      add\n      tag_189\n      swap1\n      tag_190\n      jump\t// in\n    tag_189:\n      mload(0x40)\n      dup1\n      swap2\n      sub\n      swap1\n      revert\n    tag_188:\n        /* \"contracts/sweetspot.sol\":5448:5478  Round(start, end, metadataURI) */\n      mload(0x40)\n      dup1\n      0x60\n      add\n      0x40\n      mstore\n      dup1\n        /* \"contracts/sweetspot.sol\":5454:5459  start */\n      dup5\n        /* \"contracts/sweetspot.sol\":5448:5478  Round(start, end, metadataURI) */\n      0xffffffffffffffff\n      and\n      dup2\n      mstore\n      0x20\n      add\n        /* \"contracts/sweetspot.sol\":5461:5464  end */\n      dup4\n        /* \"contracts/sweetspot.sol\":5448:5478  Round(start, end, metadataURI) */\n      0xffffffffffffffff\n      and\n      dup2\n      mstore\n      0x20\n      add\n        /* \"contracts/sweetspot.sol\":5466:5477  metadataURI */\n      dup3\n        /* \"contracts/sweetspot.sol\":5448:5478  Round(start, end, metadataURI) */\n      dup2\n      mstore\n      pop\n        /* \"contracts/sweetspot.sol\":5433:5445  currentRound */\n      0x33\n        /* \"contracts/sweetspot.sol\":5433:5478  currentRound = Round(start, end, metadataURI) */\n      0x00\n      dup3\n      add\n      mload\n      dup2\n      0x00\n      add\n      exp(0x0100, 0x00)\n      dup2\n      sload\n      dup2\n      0xffffffffffffffff\n      mul\n      not\n      and\n      swap1\n      dup4\n      0xffffffffffffffff\n      and\n      mul\n      or\n      swap1\n      sstore\n      pop\n      0x20\n      dup3\n      add\n      mload\n      dup2\n      0x00\n      add\n      exp(0x0100, 0x08)\n      dup2\n      sload\n      dup2\n      0xffffffffffffffff\n      mul\n      not\n      and\n      swap1\n      dup4\n      0xffffffffffffffff\n      and\n      mul\n      or\n      swap1\n      sstore\n      pop\n      0x40\n      dup3\n      add\n      mload\n      dup2\n      0x01\n      add\n      swap1\n      dup2\n      tag_191\n      swap2\n      swap1\n      tag_192\n      jump\t// in\n    tag_191:\n      pop\n      swap1\n      pop\n      pop\n        /* \"contracts/sweetspot.sol\":5494:5531  RoundUpdated(start, end, metadataURI) */\n      0x09e6db48f22357e6dce2bbff89db8ff25f0012a08186d6ea72e2343fdc112e13\n        /* \"contracts/sweetspot.sol\":5507:5512  start */\n      dup4\n        /* \"contracts/sweetspot.sol\":5514:5517  end */\n      dup4\n        /* \"contracts/sweetspot.sol\":5519:5530  metadataURI */\n      dup4\n        /* \"contracts/sweetspot.sol\":5494:5531  RoundUpdated(start, end, metadataURI) */\n      mload(0x40)\n      tag_193\n      swap4\n      swap3\n      swap2\n      swap1\n      tag_194\n      jump\t// in\n    tag_193:\n      mload(0x40)\n      dup1\n      swap2\n      sub\n      swap1\n      log1\n        /* \"contracts/sweetspot.sol\":5261:5539  function setRound(uint64  start, uint64  end, string memory metadataURI) external onlyAdmin {... */\n      pop\n      pop\n      pop\n      jump\t// out\n        /* \"contracts/sweetspot.sol\":1097:1166  mapping(address => mapping(address => uint256)) public allowedAmounts */\n    tag_75:\n      mstore(0x20, 0x36)\n      dup2\n      0x00\n      mstore\n      mstore(0x20, keccak256(0x00, 0x40))\n      dup1\n      0x00\n      mstore\n      keccak256(0x00, 0x40)\n      0x00\n      swap2\n      pop\n      swap2\n      pop\n      pop\n      sload\n      dup2\n      jump\t// out\n        /* \"contracts/sweetspot.sol\":999:1047  mapping(address => uint256) public totalBalances */\n    tag_80:\n      mstore(0x20, 0x35)\n      dup1\n      0x00\n      mstore\n      keccak256(0x00, 0x40)\n      0x00\n      swap2\n      pop\n      swap1\n      pop\n      sload\n      dup2\n      jump\t// out\n        /* \"contracts/sweetspot.sol\":4135:4396  function setAllowedAmount(address user, address token, uint256 amount) external onlyAdmin {... */\n    tag_86:\n        /* \"contracts/sweetspot.sol\":1725:1731  scorer */\n      0x32\n      0x00\n      swap1\n      sload\n      swap1\n      0x0100\n      exp\n      swap1\n      div\n      0xffffffffffffffffffffffffffffffffffffffff\n      and\n        /* \"contracts/sweetspot.sol\":1725:1739  scorer.isAdmin */\n      0xffffffffffffffffffffffffffffffffffffffff\n      and\n      0x24d7806c\n        /* \"contracts/sweetspot.sol\":1740:1750  msg.sender */\n      caller\n        /* \"contracts/sweetspot.sol\":1725:1751  scorer.isAdmin(msg.sender) */\n      mload(0x40)\n      dup3\n      0xffffffff\n      and\n      0xe0\n      shl\n      dup2\n      mstore\n      0x04\n      add\n      tag_196\n      swap2\n      swap1\n      tag_40\n      jump\t// in\n    tag_196:\n      0x20\n      mload(0x40)\n      dup1\n      dup4\n      sub\n      dup2\n      dup7\n      gas\n      staticcall\n      iszero\n      dup1\n      iszero\n      tag_198\n      jumpi\n      returndatasize\n      0x00\n      dup1\n      returndatacopy\n      revert(0x00, returndatasize)\n    tag_198:\n      pop\n      pop\n      pop\n      pop\n      mload(0x40)\n      returndatasize\n      not(0x1f)\n      0x1f\n      dup3\n      add\n      and\n      dup3\n      add\n      dup1\n      0x40\n      mstore\n      pop\n      dup2\n      add\n      swap1\n      tag_199\n      swap2\n      swap1\n      tag_183\n      jump\t// in\n    tag_199:\n        /* \"contracts/sweetspot.sol\":1717:1778  require(scorer.isAdmin(msg.sender), \"Caller is not an admin\") */\n      tag_200\n      jumpi\n      mload(0x40)\n      0x08c379a000000000000000000000000000000000000000000000000000000000\n      dup2\n      mstore\n      0x04\n      add\n      tag_201\n      swap1\n      tag_186\n      jump\t// in\n    tag_201:\n      mload(0x40)\n      dup1\n      swap2\n      sub\n      swap1\n      revert\n    tag_200:\n        /* \"contracts/sweetspot.sol\":4260:4261  0 */\n      0x00\n        /* \"contracts/sweetspot.sol\":4244:4262  user != address(0) */\n      0xffffffffffffffffffffffffffffffffffffffff\n      and\n        /* \"contracts/sweetspot.sol\":4244:4248  user */\n      dup4\n        /* \"contracts/sweetspot.sol\":4244:4262  user != address(0) */\n      0xffffffffffffffffffffffffffffffffffffffff\n      and\n      sub\n        /* \"contracts/sweetspot.sol\":4236:4284  require(user != address(0), \"Zero address user\") */\n      tag_203\n      jumpi\n      mload(0x40)\n      0x08c379a000000000000000000000000000000000000000000000000000000000\n      dup2\n      mstore\n      0x04\n      add\n      tag_204\n      swap1\n      tag_205\n      jump\t// in\n    tag_204:\n      mload(0x40)\n      dup1\n      swap2\n      sub\n      swap1\n      revert\n    tag_203:\n        /* \"contracts/sweetspot.sol\":4325:4331  amount */\n      dup1\n        /* \"contracts/sweetspot.sol\":4295:4309  allowedAmounts */\n      0x36\n        /* \"contracts/sweetspot.sol\":4295:4315  allowedAmounts[user] */\n      0x00\n        /* \"contracts/sweetspot.sol\":4310:4314  user */\n      dup6\n        /* \"contracts/sweetspot.sol\":4295:4315  allowedAmounts[user] */\n      0xffffffffffffffffffffffffffffffffffffffff\n      and\n      0xffffffffffffffffffffffffffffffffffffffff\n      and\n      dup2\n      mstore\n      0x20\n      add\n      swap1\n      dup2\n      mstore\n      0x20\n      add\n      0x00\n      keccak256\n        /* \"contracts/sweetspot.sol\":4295:4322  allowedAmounts[user][token] */\n      0x00\n        /* \"contracts/sweetspot.sol\":4316:4321  token */\n      dup5\n        /* \"contracts/sweetspot.sol\":4295:4322  allowedAmounts[user][token] */\n      0xffffffffffffffffffffffffffffffffffffffff\n      and\n      0xffffffffffffffffffffffffffffffffffffffff\n      and\n      dup2\n      mstore\n      0x20\n      add\n      swap1\n      dup2\n      mstore\n      0x20\n      add\n      0x00\n      keccak256\n        /* \"contracts/sweetspot.sol\":4295:4331  allowedAmounts[user][token] = amount */\n      dup2\n      swap1\n      sstore\n      pop\n        /* \"contracts/sweetspot.sol\":4374:4379  token */\n      dup2\n        /* \"contracts/sweetspot.sol\":4347:4388  AllowedAmountUpdated(user, token, amount) */\n      0xffffffffffffffffffffffffffffffffffffffff\n      and\n        /* \"contracts/sweetspot.sol\":4368:4372  user */\n      dup4\n        /* \"contracts/sweetspot.sol\":4347:4388  AllowedAmountUpdated(user, token, amount) */\n      0xffffffffffffffffffffffffffffffffffffffff\n      and\n      0x3d0601f3b0e52fd772f1fa71d91651b34b6a11144bea30d74e0f820019a04dc2\n        /* \"contracts/sweetspot.sol\":4381:4387  amount */\n      dup4\n        /* \"contracts/sweetspot.sol\":4347:4388  AllowedAmountUpdated(user, token, amount) */\n      mload(0x40)\n      tag_206\n      swap2\n      swap1\n      tag_26\n      jump\t// in\n    tag_206:\n      mload(0x40)\n      dup1\n      swap2\n      sub\n      swap1\n      log3\n        /* \"contracts/sweetspot.sol\":4135:4396  function setAllowedAmount(address user, address token, uint256 amount) external onlyAdmin {... */\n      pop\n      pop\n      pop\n      jump\t// out\n        /* \"contracts/sweetspot.sol\":4495:5012  function bulkSetAllowedAmount(... */\n    tag_91:\n        /* \"contracts/sweetspot.sol\":1725:1731  scorer */\n      0x32\n      0x00\n      swap1\n      sload\n      swap1\n      0x0100\n      exp\n      swap1\n      div\n      0xffffffffffffffffffffffffffffffffffffffff\n      and\n        /* \"contracts/sweetspot.sol\":1725:1739  scorer.isAdmin */\n      0xffffffffffffffffffffffffffffffffffffffff\n      and\n      0x24d7806c\n        /* \"contracts/sweetspot.sol\":1740:1750  msg.sender */\n      caller\n        /* \"contracts/sweetspot.sol\":1725:1751  scorer.isAdmin(msg.sender) */\n      mload(0x40)\n      dup3\n      0xffffffff\n      and\n      0xe0\n      shl\n      dup2\n      mstore\n      0x04\n      add\n      tag_208\n      swap2\n      swap1\n      tag_40\n      jump\t// in\n    tag_208:\n      0x20\n      mload(0x40)\n      dup1\n      dup4\n      sub\n      dup2\n      dup7\n      gas\n      staticcall\n      iszero\n      dup1\n      iszero\n      tag_210\n      jumpi\n      returndatasize\n      0x00\n      dup1\n      returndatacopy\n      revert(0x00, returndatasize)\n    tag_210:\n      pop\n      pop\n      pop\n      pop\n      mload(0x40)\n      returndatasize\n      not(0x1f)\n      0x1f\n      dup3\n      add\n      and\n      dup3\n      add\n      dup1\n      0x40\n      mstore\n      pop\n      dup2\n      add\n      swap1\n      tag_211\n      swap2\n      swap1\n      tag_183\n      jump\t// in\n    tag_211:\n        /* \"contracts/sweetspot.sol\":1717:1778  require(scorer.isAdmin(msg.sender), \"Caller is not an admin\") */\n      tag_212\n      jumpi\n      mload(0x40)\n      0x08c379a000000000000000000000000000000000000000000000000000000000\n      dup2\n      mstore\n      0x04\n      add\n      tag_213\n      swap1\n      tag_186\n      jump\t// in\n    tag_213:\n      mload(0x40)\n      dup1\n      swap2\n      sub\n      swap1\n      revert\n    tag_212:\n        /* \"contracts/sweetspot.sol\":4682:4689  amounts */\n      dup2\n      dup2\n        /* \"contracts/sweetspot.sol\":4682:4696  amounts.length */\n      swap1\n      pop\n        /* \"contracts/sweetspot.sol\":4666:4671  users */\n      dup5\n      dup5\n        /* \"contracts/sweetspot.sol\":4666:4678  users.length */\n      swap1\n      pop\n        /* \"contracts/sweetspot.sol\":4666:4696  users.length == amounts.length */\n      eq\n        /* \"contracts/sweetspot.sol\":4658:4725  require(users.length == amounts.length, \"Mismatched array lengths\") */\n      tag_215\n      jumpi\n      mload(0x40)\n      0x08c379a000000000000000000000000000000000000000000000000000000000\n      dup2\n      mstore\n      0x04\n      add\n      tag_216\n      swap1\n      tag_217\n      jump\t// in\n    tag_216:\n      mload(0x40)\n      dup1\n      swap2\n      sub\n      swap1\n      revert\n    tag_215:\n        /* \"contracts/sweetspot.sol\":4741:4750  uint256 i */\n      0x00\n        /* \"contracts/sweetspot.sol\":4736:5005  for (uint256 i = 0; i < users.length; i++) {... */\n    tag_218:\n        /* \"contracts/sweetspot.sol\":4760:4765  users */\n      dup5\n      dup5\n        /* \"contracts/sweetspot.sol\":4760:4772  users.length */\n      swap1\n      pop\n        /* \"contracts/sweetspot.sol\":4756:4757  i */\n      dup2\n        /* \"contracts/sweetspot.sol\":4756:4772  i < users.length */\n      lt\n        /* \"contracts/sweetspot.sol\":4736:5005  for (uint256 i = 0; i < users.length; i++) {... */\n      iszero\n      tag_219\n      jumpi\n        /* \"contracts/sweetspot.sol\":4914:4921  amounts */\n      dup3\n      dup3\n        /* \"contracts/sweetspot.sol\":4922:4923  i */\n      dup3\n        /* \"contracts/sweetspot.sol\":4914:4924  amounts[i] */\n      dup2\n      dup2\n      lt\n      tag_221\n      jumpi\n      tag_222\n      tag_223\n      jump\t// in\n    tag_222:\n    tag_221:\n      swap1\n      pop\n      0x20\n      mul\n      add\n      calldataload\n        /* \"contracts/sweetspot.sol\":4880:4894  allowedAmounts */\n      0x36\n        /* \"contracts/sweetspot.sol\":4880:4904  allowedAmounts[users[i]] */\n      0x00\n        /* \"contracts/sweetspot.sol\":4895:4900  users */\n      dup8\n      dup8\n        /* \"contracts/sweetspot.sol\":4901:4902  i */\n      dup6\n        /* \"contracts/sweetspot.sol\":4895:4903  users[i] */\n      dup2\n      dup2\n      lt\n      tag_224\n      jumpi\n      tag_225\n      tag_223\n      jump\t// in\n    tag_225:\n    tag_224:\n      swap1\n      pop\n      0x20\n      mul\n      add\n      0x20\n      dup2\n      add\n      swap1\n      tag_226\n      swap2\n      swap1\n      tag_34\n      jump\t// in\n    tag_226:\n        /* \"contracts/sweetspot.sol\":4880:4904  allowedAmounts[users[i]] */\n      0xffffffffffffffffffffffffffffffffffffffff\n      and\n      0xffffffffffffffffffffffffffffffffffffffff\n      and\n      dup2\n      mstore\n      0x20\n      add\n      swap1\n      dup2\n      mstore\n      0x20\n      add\n      0x00\n      keccak256\n        /* \"contracts/sweetspot.sol\":4880:4911  allowedAmounts[users[i]][token] */\n      0x00\n        /* \"contracts/sweetspot.sol\":4905:4910  token */\n      dup9\n        /* \"contracts/sweetspot.sol\":4880:4911  allowedAmounts[users[i]][token] */\n      0xffffffffffffffffffffffffffffffffffffffff\n      and\n      0xffffffffffffffffffffffffffffffffffffffff\n      and\n      dup2\n      mstore\n      0x20\n      add\n      swap1\n      dup2\n      mstore\n      0x20\n      add\n      0x00\n      keccak256\n        /* \"contracts/sweetspot.sol\":4880:4924  allowedAmounts[users[i]][token] = amounts[i] */\n      dup2\n      swap1\n      sstore\n      pop\n        /* \"contracts/sweetspot.sol\":4975:4980  token */\n      dup6\n        /* \"contracts/sweetspot.sol\":4944:4993  AllowedAmountUpdated(users[i], token, amounts[i]) */\n      0xffffffffffffffffffffffffffffffffffffffff\n      and\n        /* \"contracts/sweetspot.sol\":4965:4970  users */\n      dup6\n      dup6\n        /* \"contracts/sweetspot.sol\":4971:4972  i */\n      dup4\n        /* \"contracts/sweetspot.sol\":4965:4973  users[i] */\n      dup2\n      dup2\n      lt\n      tag_227\n      jumpi\n      tag_228\n      tag_223\n      jump\t// in\n    tag_228:\n    tag_227:\n      swap1\n      pop\n      0x20\n      mul\n      add\n      0x20\n      dup2\n      add\n      swap1\n      tag_229\n      swap2\n      swap1\n      tag_34\n      jump\t// in\n    tag_229:\n        /* \"contracts/sweetspot.sol\":4944:4993  AllowedAmountUpdated(users[i], token, amounts[i]) */\n      0xffffffffffffffffffffffffffffffffffffffff\n      and\n      0x3d0601f3b0e52fd772f1fa71d91651b34b6a11144bea30d74e0f820019a04dc2\n        /* \"contracts/sweetspot.sol\":4982:4989  amounts */\n      dup6\n      dup6\n        /* \"contracts/sweetspot.sol\":4990:4991  i */\n      dup6\n        /* \"contracts/sweetspot.sol\":4982:4992  amounts[i] */\n      dup2\n      dup2\n      lt\n      tag_230\n      jumpi\n      tag_231\n      tag_223\n      jump\t// in\n    tag_231:\n    tag_230:\n      swap1\n      pop\n      0x20\n      mul\n      add\n      calldataload\n        /* \"contracts/sweetspot.sol\":4944:4993  AllowedAmountUpdated(users[i], token, amounts[i]) */\n      mload(0x40)\n      tag_232\n      swap2\n      swap1\n      tag_26\n      jump\t// in\n    tag_232:\n      mload(0x40)\n      dup1\n      swap2\n      sub\n      swap1\n      log3\n        /* \"contracts/sweetspot.sol\":4774:4777  i++ */\n      dup1\n      dup1\n      0x01\n      add\n      swap2\n      pop\n      pop\n        /* \"contracts/sweetspot.sol\":4736:5005  for (uint256 i = 0; i < users.length; i++) {... */\n      jump(tag_218)\n    tag_219:\n      pop\n        /* \"contracts/sweetspot.sol\":4495:5012  function bulkSetAllowedAmount(... */\n      pop\n      pop\n      pop\n      pop\n      pop\n      jump\t// out\n        /* \"@openzeppelin/contracts-upgradeable/access/OwnableUpgradeable.sol\":3405:3620  function transferOwnership(address newOwner) public virtual onlyOwner {... */\n    tag_95:\n        /* \"@openzeppelin/contracts-upgradeable/access/OwnableUpgradeable.sol\":2334:2347  _checkOwner() */\n      tag_234\n        /* \"@openzeppelin/contracts-upgradeable/access/OwnableUpgradeable.sol\":2334:2345  _checkOwner */\n      tag_165\n        /* \"@openzeppelin/contracts-upgradeable/access/OwnableUpgradeable.sol\":2334:2347  _checkOwner() */\n      jump\t// in\n    tag_234:\n        /* \"@openzeppelin/contracts-upgradeable/access/OwnableUpgradeable.sol\":3509:3510  0 */\n      0x00\n        /* \"@openzeppelin/contracts-upgradeable/access/OwnableUpgradeable.sol\":3489:3511  newOwner == address(0) */\n      0xffffffffffffffffffffffffffffffffffffffff\n      and\n        /* \"@openzeppelin/contracts-upgradeable/access/OwnableUpgradeable.sol\":3489:3497  newOwner */\n      dup2\n        /* \"@openzeppelin/contracts-upgradeable/access/OwnableUpgradeable.sol\":3489:3511  newOwner == address(0) */\n      0xffffffffffffffffffffffffffffffffffffffff\n      and\n      sub\n        /* \"@openzeppelin/contracts-upgradeable/access/OwnableUpgradeable.sol\":3485:3576  if (newOwner == address(0)) {... */\n      tag_236\n      jumpi\n        /* \"@openzeppelin/contracts-upgradeable/access/OwnableUpgradeable.sol\":3562:3563  0 */\n      0x00\n        /* \"@openzeppelin/contracts-upgradeable/access/OwnableUpgradeable.sol\":3534:3565  OwnableInvalidOwner(address(0)) */\n      mload(0x40)\n      0x1e4fbdf700000000000000000000000000000000000000000000000000000000\n      dup2\n      mstore\n      0x04\n      add\n      tag_237\n      swap2\n      swap1\n      tag_40\n      jump\t// in\n    tag_237:\n      mload(0x40)\n      dup1\n      swap2\n      sub\n      swap1\n      revert\n        /* \"@openzeppelin/contracts-upgradeable/access/OwnableUpgradeable.sol\":3485:3576  if (newOwner == address(0)) {... */\n    tag_236:\n        /* \"@openzeppelin/contracts-upgradeable/access/OwnableUpgradeable.sol\":3585:3613  _transferOwnership(newOwner) */\n      tag_238\n        /* \"@openzeppelin/contracts-upgradeable/access/OwnableUpgradeable.sol\":3604:3612  newOwner */\n      dup2\n        /* \"@openzeppelin/contracts-upgradeable/access/OwnableUpgradeable.sol\":3585:3603  _transferOwnership */\n      tag_168\n        /* \"@openzeppelin/contracts-upgradeable/access/OwnableUpgradeable.sol\":3585:3613  _transferOwnership(newOwner) */\n      jump\t// in\n    tag_238:\n        /* \"@openzeppelin/contracts-upgradeable/access/OwnableUpgradeable.sol\":3405:3620  function transferOwnership(address newOwner) public virtual onlyOwner {... */\n      pop\n      jump\t// out\n        /* \"contracts/sweetspot.sol\":5744:6322  function withdraw(address token, uint256 amount) external onlyOwner nonReentrant  {... */\n    tag_99:\n        /* \"@openzeppelin/contracts-upgradeable/access/OwnableUpgradeable.sol\":2334:2347  _checkOwner() */\n      tag_240\n        /* \"@openzeppelin/contracts-upgradeable/access/OwnableUpgradeable.sol\":2334:2345  _checkOwner */\n      tag_165\n        /* \"@openzeppelin/contracts-upgradeable/access/OwnableUpgradeable.sol\":2334:2347  _checkOwner() */\n      jump\t// in\n    tag_240:\n        /* \"@openzeppelin/contracts-upgradeable/security/ReentrancyGuardUpgradeable.sol\":2526:2547  _nonReentrantBefore() */\n      tag_242\n        /* \"@openzeppelin/contracts-upgradeable/security/ReentrancyGuardUpgradeable.sol\":2526:2545  _nonReentrantBefore */\n      tag_102\n        /* \"@openzeppelin/contracts-upgradeable/security/ReentrancyGuardUpgradeable.sol\":2526:2547  _nonReentrantBefore() */\n      jump\t// in\n    tag_242:\n        /* \"contracts/sweetspot.sol\":5854:5855  0 */\n      0x00\n        /* \"contracts/sweetspot.sol\":5845:5851  amount */\n      dup2\n        /* \"contracts/sweetspot.sol\":5845:5855  amount > 0 */\n      gt\n        /* \"contracts/sweetspot.sol\":5837:5903  require(amount > 0, \"Withdrawal amount must be greater than zero\") */\n      tag_244\n      jumpi\n      mload(0x40)\n      0x08c379a000000000000000000000000000000000000000000000000000000000\n      dup2\n      mstore\n      0x04\n      add\n      tag_245\n      swap1\n      tag_246\n      jump\t// in\n    tag_245:\n      mload(0x40)\n      dup1\n      swap2\n      sub\n      swap1\n      revert\n    tag_244:\n        /* \"contracts/sweetspot.sol\":5946:5952  amount */\n      dup1\n        /* \"contracts/sweetspot.sol\":5922:5935  totalBalances */\n      0x35\n        /* \"contracts/sweetspot.sol\":5922:5942  totalBalances[token] */\n      0x00\n        /* \"contracts/sweetspot.sol\":5936:5941  token */\n      dup5\n        /* \"contracts/sweetspot.sol\":5922:5942  totalBalances[token] */\n      0xffffffffffffffffffffffffffffffffffffffff\n      and\n      0xffffffffffffffffffffffffffffffffffffffff\n      and\n      dup2\n      mstore\n      0x20\n      add\n      swap1\n      dup2\n      mstore\n      0x20\n      add\n      0x00\n      keccak256\n      sload\n        /* \"contracts/sweetspot.sol\":5922:5952  totalBalances[token] >= amount */\n      lt\n      iszero\n        /* \"contracts/sweetspot.sol\":5914:5975  require(totalBalances[token] >= amount, \"Insufficient funds\") */\n      tag_247\n      jumpi\n      mload(0x40)\n      0x08c379a000000000000000000000000000000000000000000000000000000000\n      dup2\n      mstore\n      0x04\n      add\n      tag_248\n      swap1\n      tag_249\n      jump\t// in\n    tag_248:\n      mload(0x40)\n      dup1\n      swap2\n      sub\n      swap1\n      revert\n    tag_247:\n        /* \"contracts/sweetspot.sol\":6012:6018  amount */\n      dup1\n        /* \"contracts/sweetspot.sol\":5988:6001  totalBalances */\n      0x35\n        /* \"contracts/sweetspot.sol\":5988:6008  totalBalances[token] */\n      0x00\n        /* \"contracts/sweetspot.sol\":6002:6007  token */\n      dup5\n        /* \"contracts/sweetspot.sol\":5988:6008  totalBalances[token] */\n      0xffffffffffffffffffffffffffffffffffffffff\n      and\n      0xffffffffffffffffffffffffffffffffffffffff\n      and\n      dup2\n      mstore\n      0x20\n      add\n      swap1\n      dup2\n      mstore\n      0x20\n      add\n      0x00\n      keccak256\n      0x00\n        /* \"contracts/sweetspot.sol\":5988:6018  totalBalances[token] -= amount */\n      dup3\n      dup3\n      sload\n      tag_250\n      swap2\n      swap1\n      tag_115\n      jump\t// in\n    tag_250:\n      swap3\n      pop\n      pop\n      dup2\n      swap1\n      sstore\n      pop\n        /* \"contracts/sweetspot.sol\":613:614  0 */\n      0x00\n        /* \"contracts/sweetspot.sol\":6035:6056  token == NATIVE_TOKEN */\n      0xffffffffffffffffffffffffffffffffffffffff\n      and\n        /* \"contracts/sweetspot.sol\":6035:6040  token */\n      dup3\n        /* \"contracts/sweetspot.sol\":6035:6056  token == NATIVE_TOKEN */\n      0xffffffffffffffffffffffffffffffffffffffff\n      and\n      sub\n        /* \"contracts/sweetspot.sol\":6031:6267  if (token == NATIVE_TOKEN) {... */\n      tag_251\n      jumpi\n        /* \"contracts/sweetspot.sol\":6074:6086  bool success */\n      0x00\n        /* \"contracts/sweetspot.sol\":6092:6099  owner() */\n      tag_252\n        /* \"contracts/sweetspot.sol\":6092:6097  owner */\n      tag_65\n        /* \"contracts/sweetspot.sol\":6092:6099  owner() */\n      jump\t// in\n    tag_252:\n        /* \"contracts/sweetspot.sol\":6092:6104  owner().call */\n      0xffffffffffffffffffffffffffffffffffffffff\n      and\n        /* \"contracts/sweetspot.sol\":6112:6118  amount */\n      dup3\n        /* \"contracts/sweetspot.sol\":6092:6123  owner().call{value: amount}(\"\") */\n      mload(0x40)\n      tag_253\n      swap1\n      tag_118\n      jump\t// in\n    tag_253:\n      0x00\n      mload(0x40)\n      dup1\n      dup4\n      sub\n      dup2\n      dup6\n      dup8\n      gas\n      call\n      swap3\n      pop\n      pop\n      pop\n      returndatasize\n      dup1\n      0x00\n      dup2\n      eq\n      tag_256\n      jumpi\n      mload(0x40)\n      swap2\n      pop\n      and(add(returndatasize, 0x3f), not(0x1f))\n      dup3\n      add\n      0x40\n      mstore\n      returndatasize\n      dup3\n      mstore\n      returndatasize\n      0x00\n      0x20\n      dup5\n      add\n      returndatacopy\n      jump(tag_255)\n    tag_256:\n      0x60\n      swap2\n      pop\n    tag_255:\n      pop\n        /* \"contracts/sweetspot.sol\":6073:6123  (bool success, ) = owner().call{value: amount}(\"\") */\n      pop\n      swap1\n      pop\n        /* \"contracts/sweetspot.sol\":6146:6153  success */\n      dup1\n        /* \"contracts/sweetspot.sol\":6138:6179  require(success, \"Ether transfer failed\") */\n      tag_257\n      jumpi\n      mload(0x40)\n      0x08c379a000000000000000000000000000000000000000000000000000000000\n      dup2\n      mstore\n      0x04\n      add\n      tag_258\n      swap1\n      tag_124\n      jump\t// in\n    tag_258:\n      mload(0x40)\n      dup1\n      swap2\n      sub\n      swap1\n      revert\n    tag_257:\n        /* \"contracts/sweetspot.sol\":6058:6191  {... */\n      pop\n        /* \"contracts/sweetspot.sol\":6031:6267  if (token == NATIVE_TOKEN) {... */\n      jump(tag_259)\n    tag_251:\n        /* \"contracts/sweetspot.sol\":6212:6255  IERC20(token).safeTransfer(owner(), amount) */\n      tag_260\n        /* \"contracts/sweetspot.sol\":6239:6246  owner() */\n      tag_261\n        /* \"contracts/sweetspot.sol\":6239:6244  owner */\n      tag_65\n        /* \"contracts/sweetspot.sol\":6239:6246  owner() */\n      jump\t// in\n    tag_261:\n        /* \"contracts/sweetspot.sol\":6248:6254  amount */\n      dup3\n        /* \"contracts/sweetspot.sol\":6219:6224  token */\n      dup5\n        /* \"contracts/sweetspot.sol\":6212:6238  IERC20(token).safeTransfer */\n      0xffffffffffffffffffffffffffffffffffffffff\n      and\n      tag_127\n      swap1\n        /* \"contracts/sweetspot.sol\":6212:6255  IERC20(token).safeTransfer(owner(), amount) */\n      swap3\n      swap2\n      swap1\n      0xffffffff\n      and\n      jump\t// in\n    tag_260:\n        /* \"contracts/sweetspot.sol\":6031:6267  if (token == NATIVE_TOKEN) {... */\n    tag_259:\n        /* \"contracts/sweetspot.sol\":6300:6305  token */\n      dup2\n        /* \"contracts/sweetspot.sol\":6282:6314  Withdraw(owner(), token, amount) */\n      0xffffffffffffffffffffffffffffffffffffffff\n      and\n        /* \"contracts/sweetspot.sol\":6291:6298  owner() */\n      tag_262\n        /* \"contracts/sweetspot.sol\":6291:6296  owner */\n      tag_65\n        /* \"contracts/sweetspot.sol\":6291:6298  owner() */\n      jump\t// in\n    tag_262:\n        /* \"contracts/sweetspot.sol\":6282:6314  Withdraw(owner(), token, amount) */\n      0xffffffffffffffffffffffffffffffffffffffff\n      and\n      0x9b1bfa7fa9ee420a16e124f794c35ac9f90472acc99140eb2f6447c714cad8eb\n        /* \"contracts/sweetspot.sol\":6307:6313  amount */\n      dup4\n        /* \"contracts/sweetspot.sol\":6282:6314  Withdraw(owner(), token, amount) */\n      mload(0x40)\n      tag_263\n      swap2\n      swap1\n      tag_26\n      jump\t// in\n    tag_263:\n      mload(0x40)\n      dup1\n      swap2\n      sub\n      swap1\n      log3\n        /* \"@openzeppelin/contracts-upgradeable/security/ReentrancyGuardUpgradeable.sol\":2568:2588  _nonReentrantAfter() */\n      tag_264\n        /* \"@openzeppelin/contracts-upgradeable/security/ReentrancyGuardUpgradeable.sol\":2568:2586  _nonReentrantAfter */\n      tag_130\n        /* \"@openzeppelin/contracts-upgradeable/security/ReentrancyGuardUpgradeable.sol\":2568:2588  _nonReentrantAfter() */\n      jump\t// in\n    tag_264:\n        /* \"contracts/sweetspot.sol\":5744:6322  function withdraw(address token, uint256 amount) external onlyOwner nonReentrant  {... */\n      pop\n      pop\n      jump\t// out\n        /* \"@openzeppelin/contracts-upgradeable/security/ReentrancyGuardUpgradeable.sol\":2601:2888  function _nonReentrantBefore() private {... */\n    tag_102:\n        /* \"@openzeppelin/contracts-upgradeable/security/ReentrancyGuardUpgradeable.sol\":1851:1852  2 */\n      0x02\n        /* \"@openzeppelin/contracts-upgradeable/security/ReentrancyGuardUpgradeable.sol\":2733:2740  _status */\n      sload(0x00)\n        /* \"@openzeppelin/contracts-upgradeable/security/ReentrancyGuardUpgradeable.sol\":2733:2752  _status != _ENTERED */\n      sub\n        /* \"@openzeppelin/contracts-upgradeable/security/ReentrancyGuardUpgradeable.sol\":2725:2788  require(_status != _ENTERED, \"ReentrancyGuard: reentrant call\") */\n      tag_266\n      jumpi\n      mload(0x40)\n      0x08c379a000000000000000000000000000000000000000000000000000000000\n      dup2\n      mstore\n      0x04\n      add\n      tag_267\n      swap1\n      tag_268\n      jump\t// in\n    tag_267:\n      mload(0x40)\n      dup1\n      swap2\n      sub\n      swap1\n      revert\n    tag_266:\n        /* \"@openzeppelin/contracts-upgradeable/security/ReentrancyGuardUpgradeable.sol\":1851:1852  2 */\n      0x02\n        /* \"@openzeppelin/contracts-upgradeable/security/ReentrancyGuardUpgradeable.sol\":2863:2870  _status */\n      0x00\n        /* \"@openzeppelin/contracts-upgradeable/security/ReentrancyGuardUpgradeable.sol\":2863:2881  _status = _ENTERED */\n      dup2\n      swap1\n      sstore\n      pop\n        /* \"@openzeppelin/contracts-upgradeable/security/ReentrancyGuardUpgradeable.sol\":2601:2888  function _nonReentrantBefore() private {... */\n      jump\t// out\n        /* \"@openzeppelin/contracts/token/ERC20/utils/SafeERC20.sol\":1271:1431  function safeTransfer(IERC20 token, address to, uint256 value) internal {... */\n    tag_127:\n        /* \"@openzeppelin/contracts/token/ERC20/utils/SafeERC20.sol\":1353:1424  _callOptionalReturn(token, abi.encodeCall(token.transfer, (to, value))) */\n      tag_270\n        /* \"@openzeppelin/contracts/token/ERC20/utils/SafeERC20.sol\":1373:1378  token */\n      dup4\n        /* \"@openzeppelin/contracts/token/ERC20/utils/SafeERC20.sol\":1395:1400  token */\n      dup5\n        /* \"@openzeppelin/contracts/token/ERC20/utils/SafeERC20.sol\":1395:1409  token.transfer */\n      0xffffffffffffffffffffffffffffffffffffffff\n      and\n      0xa9059cbb\n        /* \"@openzeppelin/contracts/token/ERC20/utils/SafeERC20.sol\":1412:1414  to */\n      dup6\n        /* \"@openzeppelin/contracts/token/ERC20/utils/SafeERC20.sol\":1416:1421  value */\n      dup6\n        /* \"@openzeppelin/contracts/token/ERC20/utils/SafeERC20.sol\":1380:1423  abi.encodeCall(token.transfer, (to, value)) */\n      add(0x24, mload(0x40))\n      tag_271\n      swap3\n      swap2\n      swap1\n      tag_272\n      jump\t// in\n    tag_271:\n      mload(0x40)\n      0x20\n      dup2\n      dup4\n      sub\n      sub\n      dup2\n      mstore\n      swap1\n      0x40\n      mstore\n      swap2\n      pop\n      0xe0\n      shl\n      0x20\n      dup3\n      add\n      dup1\n      mload\n      0xffffffffffffffffffffffffffffffffffffffffffffffffffffffff\n      dup4\n      dup2\n      dup4\n      and\n      or\n      dup4\n      mstore\n      pop\n      pop\n      pop\n      pop\n        /* \"@openzeppelin/contracts/token/ERC20/utils/SafeERC20.sol\":1353:1372  _callOptionalReturn */\n      tag_273\n        /* \"@openzeppelin/contracts/token/ERC20/utils/SafeERC20.sol\":1353:1424  _callOptionalReturn(token, abi.encodeCall(token.transfer, (to, value))) */\n      jump\t// in\n    tag_270:\n        /* \"@openzeppelin/contracts/token/ERC20/utils/SafeERC20.sol\":1271:1431  function safeTransfer(IERC20 token, address to, uint256 value) internal {... */\n      pop\n      pop\n      pop\n      jump\t// out\n        /* \"@openzeppelin/contracts-upgradeable/security/ReentrancyGuardUpgradeable.sol\":2894:3103  function _nonReentrantAfter() private {... */\n    tag_130:\n        /* \"@openzeppelin/contracts-upgradeable/security/ReentrancyGuardUpgradeable.sol\":1808:1809  1 */\n      0x01\n        /* \"@openzeppelin/contracts-upgradeable/security/ReentrancyGuardUpgradeable.sol\":3074:3081  _status */\n      0x00\n        /* \"@openzeppelin/contracts-upgradeable/security/ReentrancyGuardUpgradeable.sol\":3074:3096  _status = _NOT_ENTERED */\n      dup2\n      swap1\n      sstore\n      pop\n        /* \"@openzeppelin/contracts-upgradeable/security/ReentrancyGuardUpgradeable.sol\":2894:3103  function _nonReentrantAfter() private {... */\n      jump\t// out\n        /* \"@openzeppelin/contracts/token/ERC20/utils/SafeERC20.sol\":1670:1858  function safeTransferFrom(IERC20 token, address from, address to, uint256 value) internal {... */\n    tag_143:\n        /* \"@openzeppelin/contracts/token/ERC20/utils/SafeERC20.sol\":1770:1851  _callOptionalReturn(token, abi.encodeCall(token.transferFrom, (from, to, value))) */\n      tag_276\n        /* \"@openzeppelin/contracts/token/ERC20/utils/SafeERC20.sol\":1790:1795  token */\n      dup5\n        /* \"@openzeppelin/contracts/token/ERC20/utils/SafeERC20.sol\":1812:1817  token */\n      dup6\n        /* \"@openzeppelin/contracts/token/ERC20/utils/SafeERC20.sol\":1812:1830  token.transferFrom */\n      0xffffffffffffffffffffffffffffffffffffffff\n      and\n      0x23b872dd\n        /* \"@openzeppelin/contracts/token/ERC20/utils/SafeERC20.sol\":1833:1837  from */\n      dup7\n        /* \"@openzeppelin/contracts/token/ERC20/utils/SafeERC20.sol\":1839:1841  to */\n      dup7\n        /* \"@openzeppelin/contracts/token/ERC20/utils/SafeERC20.sol\":1843:1848  value */\n      dup7\n        /* \"@openzeppelin/contracts/token/ERC20/utils/SafeERC20.sol\":1797:1850  abi.encodeCall(token.transferFrom, (from, to, value)) */\n      add(0x24, mload(0x40))\n      tag_277\n      swap4\n      swap3\n      swap2\n      swap1\n      tag_278\n      jump\t// in\n    tag_277:\n      mload(0x40)\n      0x20\n      dup2\n      dup4\n      sub\n      sub\n      dup2\n      mstore\n      swap1\n      0x40\n      mstore\n      swap2\n      pop\n      0xe0\n      shl\n      0x20\n      dup3\n      add\n      dup1\n      mload\n      0xffffffffffffffffffffffffffffffffffffffffffffffffffffffff\n      dup4\n      dup2\n      dup4\n      and\n      or\n      dup4\n      mstore\n      pop\n      pop\n      pop\n      pop\n        /* \"@openzeppelin/contracts/token/ERC20/utils/SafeERC20.sol\":1770:1789  _callOptionalReturn */\n      tag_273\n        /* \"@openzeppelin/contracts/token/ERC20/utils/SafeERC20.sol\":1770:1851  _callOptionalReturn(token, abi.encodeCall(token.transferFrom, (from, to, value))) */\n      jump\t// in\n    tag_276:\n        /* \"@openzeppelin/contracts/token/ERC20/utils/SafeERC20.sol\":1670:1858  function safeTransferFrom(IERC20 token, address from, address to, uint256 value) internal {... */\n      pop\n      pop\n      pop\n      pop\n      jump\t// out\n        /* \"@openzeppelin/contracts-upgradeable/proxy/utils/Initializable.sol\":8737:8907  function _getInitializableStorage() private pure returns (InitializableStorage storage $) {... */\n    tag_149:\n        /* \"@openzeppelin/contracts-upgradeable/proxy/utils/Initializable.sol\":8795:8825  InitializableStorage storage $ */\n      0x00\n        /* \"@openzeppelin/contracts-upgradeable/proxy/utils/Initializable.sol\":8870:8891  INITIALIZABLE_STORAGE */\n      0xf0c57e16840df040f15088dc2f81fe391c3923bec73e23a9662efc9c229c6a00\n        /* \"@openzeppelin/contracts-upgradeable/proxy/utils/Initializable.sol\":8860:8891  $.slot := INITIALIZABLE_STORAGE */\n      swap1\n      pop\n        /* \"@openzeppelin/contracts-upgradeable/proxy/utils/Initializable.sol\":8737:8907  function _getInitializableStorage() private pure returns (InitializableStorage storage $) {... */\n      swap1\n      jump\t// out\n        /* \"@openzeppelin/contracts-upgradeable/access/OwnableUpgradeable.sol\":1847:1974  function __Ownable_init(address initialOwner) internal onlyInitializing {... */\n    tag_157:\n        /* \"@openzeppelin/contracts-upgradeable/proxy/utils/Initializable.sol\":6931:6951  _checkInitializing() */\n      tag_281\n        /* \"@openzeppelin/contracts-upgradeable/proxy/utils/Initializable.sol\":6931:6949  _checkInitializing */\n      tag_282\n        /* \"@openzeppelin/contracts-upgradeable/proxy/utils/Initializable.sol\":6931:6951  _checkInitializing() */\n      jump\t// in\n    tag_281:\n        /* \"@openzeppelin/contracts-upgradeable/access/OwnableUpgradeable.sol\":1929:1967  __Ownable_init_unchained(initialOwner) */\n      tag_284\n        /* \"@openzeppelin/contracts-upgradeable/access/OwnableUpgradeable.sol\":1954:1966  initialOwner */\n      dup2\n        /* \"@openzeppelin/contracts-upgradeable/access/OwnableUpgradeable.sol\":1929:1953  __Ownable_init_unchained */\n      tag_285\n        /* \"@openzeppelin/contracts-upgradeable/access/OwnableUpgradeable.sol\":1929:1967  __Ownable_init_unchained(initialOwner) */\n      jump\t// in\n    tag_284:\n        /* \"@openzeppelin/contracts-upgradeable/access/OwnableUpgradeable.sol\":1847:1974  function __Ownable_init(address initialOwner) internal onlyInitializing {... */\n      pop\n      jump\t// out\n        /* \"@openzeppelin/contracts-upgradeable/security/ReentrancyGuardUpgradeable.sol\":1889:2000  function __ReentrancyGuard_init() internal onlyInitializing {... */\n    tag_159:\n        /* \"@openzeppelin/contracts-upgradeable/proxy/utils/Initializable.sol\":6931:6951  _checkInitializing() */\n      tag_287\n        /* \"@openzeppelin/contracts-upgradeable/proxy/utils/Initializable.sol\":6931:6949  _checkInitializing */\n      tag_282\n        /* \"@openzeppelin/contracts-upgradeable/proxy/utils/Initializable.sol\":6931:6951  _checkInitializing() */\n      jump\t// in\n    tag_287:\n        /* \"@openzeppelin/contracts-upgradeable/security/ReentrancyGuardUpgradeable.sol\":1959:1993  __ReentrancyGuard_init_unchained() */\n      tag_289\n        /* \"@openzeppelin/contracts-upgradeable/security/ReentrancyGuardUpgradeable.sol\":1959:1991  __ReentrancyGuard_init_unchained */\n      tag_290\n        /* \"@openzeppelin/contracts-upgradeable/security/ReentrancyGuardUpgradeable.sol\":1959:1993  __ReentrancyGuard_init_unchained() */\n      jump\t// in\n    tag_289:\n        /* \"@openzeppelin/contracts-upgradeable/security/ReentrancyGuardUpgradeable.sol\":1889:2000  function __ReentrancyGuard_init() internal onlyInitializing {... */\n      jump\t// out\n        /* \"@openzeppelin/contracts-upgradeable/access/OwnableUpgradeable.sol\":2658:2820  function _checkOwner() internal view virtual {... */\n    tag_165:\n        /* \"@openzeppelin/contracts-upgradeable/access/OwnableUpgradeable.sol\":2728:2740  _msgSender() */\n      tag_292\n        /* \"@openzeppelin/contracts-upgradeable/access/OwnableUpgradeable.sol\":2728:2738  _msgSender */\n      tag_293\n        /* \"@openzeppelin/contracts-upgradeable/access/OwnableUpgradeable.sol\":2728:2740  _msgSender() */\n      jump\t// in\n    tag_292:\n        /* \"@openzeppelin/contracts-upgradeable/access/OwnableUpgradeable.sol\":2717:2740  owner() != _msgSender() */\n      0xffffffffffffffffffffffffffffffffffffffff\n      and\n        /* \"@openzeppelin/contracts-upgradeable/access/OwnableUpgradeable.sol\":2717:2724  owner() */\n      tag_294\n        /* \"@openzeppelin/contracts-upgradeable/access/OwnableUpgradeable.sol\":2717:2722  owner */\n      tag_65\n        /* \"@openzeppelin/contracts-upgradeable/access/OwnableUpgradeable.sol\":2717:2724  owner() */\n      jump\t// in\n    tag_294:\n        /* \"@openzeppelin/contracts-upgradeable/access/OwnableUpgradeable.sol\":2717:2740  owner() != _msgSender() */\n      0xffffffffffffffffffffffffffffffffffffffff\n      and\n      eq\n        /* \"@openzeppelin/contracts-upgradeable/access/OwnableUpgradeable.sol\":2713:2814  if (owner() != _msgSender()) {... */\n      tag_295\n      jumpi\n        /* \"@openzeppelin/contracts-upgradeable/access/OwnableUpgradeable.sol\":2790:2802  _msgSender() */\n      tag_296\n        /* \"@openzeppelin/contracts-upgradeable/access/OwnableUpgradeable.sol\":2790:2800  _msgSender */\n      tag_293\n        /* \"@openzeppelin/contracts-upgradeable/access/OwnableUpgradeable.sol\":2790:2802  _msgSender() */\n      jump\t// in\n    tag_296:\n        /* \"@openzeppelin/contracts-upgradeable/access/OwnableUpgradeable.sol\":2763:2803  OwnableUnauthorizedAccount(_msgSender()) */\n      mload(0x40)\n      0x118cdaa700000000000000000000000000000000000000000000000000000000\n      dup2\n      mstore\n      0x04\n      add\n      tag_297\n      swap2\n      swap1\n      tag_40\n      jump\t// in\n    tag_297:\n      mload(0x40)\n      dup1\n      swap2\n      sub\n      swap1\n      revert\n        /* \"@openzeppelin/contracts-upgradeable/access/OwnableUpgradeable.sol\":2713:2814  if (owner() != _msgSender()) {... */\n    tag_295:\n        /* \"@openzeppelin/contracts-upgradeable/access/OwnableUpgradeable.sol\":2658:2820  function _checkOwner() internal view virtual {... */\n      jump\t// out\n        /* \"@openzeppelin/contracts-upgradeable/access/OwnableUpgradeable.sol\":3774:4022  function _transferOwnership(address newOwner) internal virtual {... */\n    tag_168:\n        /* \"@openzeppelin/contracts-upgradeable/access/OwnableUpgradeable.sol\":3847:3871  OwnableStorage storage $ */\n      0x00\n        /* \"@openzeppelin/contracts-upgradeable/access/OwnableUpgradeable.sol\":3874:3894  _getOwnableStorage() */\n      tag_299\n        /* \"@openzeppelin/contracts-upgradeable/access/OwnableUpgradeable.sol\":3874:3892  _getOwnableStorage */\n      tag_177\n        /* \"@openzeppelin/contracts-upgradeable/access/OwnableUpgradeable.sol\":3874:3894  _getOwnableStorage() */\n      jump\t// in\n    tag_299:\n        /* \"@openzeppelin/contracts-upgradeable/access/OwnableUpgradeable.sol\":3847:3894  OwnableStorage storage $ = _getOwnableStorage() */\n      swap1\n      pop\n        /* \"@openzeppelin/contracts-upgradeable/access/OwnableUpgradeable.sol\":3904:3920  address oldOwner */\n      0x00\n        /* \"@openzeppelin/contracts-upgradeable/access/OwnableUpgradeable.sol\":3923:3924  $ */\n      dup2\n        /* \"@openzeppelin/contracts-upgradeable/access/OwnableUpgradeable.sol\":3923:3931  $._owner */\n      0x00\n      add\n      0x00\n      swap1\n      sload\n      swap1\n      0x0100\n      exp\n      swap1\n      div\n      0xffffffffffffffffffffffffffffffffffffffff\n      and\n        /* \"@openzeppelin/contracts-upgradeable/access/OwnableUpgradeable.sol\":3904:3931  address oldOwner = $._owner */\n      swap1\n      pop\n        /* \"@openzeppelin/contracts-upgradeable/access/OwnableUpgradeable.sol\":3952:3960  newOwner */\n      dup3\n        /* \"@openzeppelin/contracts-upgradeable/access/OwnableUpgradeable.sol\":3941:3942  $ */\n      dup3\n        /* \"@openzeppelin/contracts-upgradeable/access/OwnableUpgradeable.sol\":3941:3949  $._owner */\n      0x00\n      add\n      0x00\n        /* \"@openzeppelin/contracts-upgradeable/access/OwnableUpgradeable.sol\":3941:3960  $._owner = newOwner */\n      0x0100\n      exp\n      dup2\n      sload\n      dup2\n      0xffffffffffffffffffffffffffffffffffffffff\n      mul\n      not\n      and\n      swap1\n      dup4\n      0xffffffffffffffffffffffffffffffffffffffff\n      and\n      mul\n      or\n      swap1\n      sstore\n      pop\n        /* \"@openzeppelin/contracts-upgradeable/access/OwnableUpgradeable.sol\":4006:4014  newOwner */\n      dup3\n        /* \"@openzeppelin/contracts-upgradeable/access/OwnableUpgradeable.sol\":3975:4015  OwnershipTransferred(oldOwner, newOwner) */\n      0xffffffffffffffffffffffffffffffffffffffff\n      and\n        /* \"@openzeppelin/contracts-upgradeable/access/OwnableUpgradeable.sol\":3996:4004  oldOwner */\n      dup2\n        /* \"@openzeppelin/contracts-upgradeable/access/OwnableUpgradeable.sol\":3975:4015  OwnershipTransferred(oldOwner, newOwner) */\n      0xffffffffffffffffffffffffffffffffffffffff\n      and\n      0x8be0079c531659141344cd1fd0a4f28419497f9722a3daafe3b4186f6b6457e0\n      mload(0x40)\n      mload(0x40)\n      dup1\n      swap2\n      sub\n      swap1\n      log3\n        /* \"@openzeppelin/contracts-upgradeable/access/OwnableUpgradeable.sol\":3837:4022  {... */\n      pop\n      pop\n        /* \"@openzeppelin/contracts-upgradeable/access/OwnableUpgradeable.sol\":3774:4022  function _transferOwnership(address newOwner) internal virtual {... */\n      pop\n      jump\t// out\n        /* \"@openzeppelin/contracts-upgradeable/access/OwnableUpgradeable.sol\":1192:1351  function _getOwnableStorage() private pure returns (OwnableStorage storage $) {... */\n    tag_177:\n        /* \"@openzeppelin/contracts-upgradeable/access/OwnableUpgradeable.sol\":1244:1268  OwnableStorage storage $ */\n      0x00\n        /* \"@openzeppelin/contracts-upgradeable/access/OwnableUpgradeable.sol\":1313:1335  OwnableStorageLocation */\n      0x9016d09d72d40fdae2fd8ceac6b6234c7706214fd39c1cd1e609a0528c199300\n        /* \"@openzeppelin/contracts-upgradeable/access/OwnableUpgradeable.sol\":1303:1335  $.slot := OwnableStorageLocation */\n      swap1\n      pop\n        /* \"@openzeppelin/contracts-upgradeable/access/OwnableUpgradeable.sol\":1192:1351  function _getOwnableStorage() private pure returns (OwnableStorage storage $) {... */\n      swap1\n      jump\t// out\n        /* \"@openzeppelin/contracts/token/ERC20/utils/SafeERC20.sol\":7738:8458  function _callOptionalReturn(IERC20 token, bytes memory data) private {... */\n    tag_273:\n        /* \"@openzeppelin/contracts/token/ERC20/utils/SafeERC20.sol\":7818:7836  uint256 returnSize */\n      0x00\n        /* \"@openzeppelin/contracts/token/ERC20/utils/SafeERC20.sol\":7846:7865  uint256 returnValue */\n      dup1\n        /* \"@openzeppelin/contracts/token/ERC20/utils/SafeERC20.sol\":7984:7988  0x20 */\n      0x20\n        /* \"@openzeppelin/contracts/token/ERC20/utils/SafeERC20.sol\":7981:7982  0 */\n      0x00\n        /* \"@openzeppelin/contracts/token/ERC20/utils/SafeERC20.sol\":7974:7978  data */\n      dup5\n        /* \"@openzeppelin/contracts/token/ERC20/utils/SafeERC20.sol\":7968:7979  mload(data) */\n      mload\n        /* \"@openzeppelin/contracts/token/ERC20/utils/SafeERC20.sol\":7961:7965  0x20 */\n      0x20\n        /* \"@openzeppelin/contracts/token/ERC20/utils/SafeERC20.sol\":7955:7959  data */\n      dup7\n        /* \"@openzeppelin/contracts/token/ERC20/utils/SafeERC20.sol\":7951:7966  add(data, 0x20) */\n      add\n        /* \"@openzeppelin/contracts/token/ERC20/utils/SafeERC20.sol\":7948:7949  0 */\n      0x00\n        /* \"@openzeppelin/contracts/token/ERC20/utils/SafeERC20.sol\":7941:7946  token */\n      dup9\n        /* \"@openzeppelin/contracts/token/ERC20/utils/SafeERC20.sol\":7934:7939  gas() */\n      gas\n        /* \"@openzeppelin/contracts/token/ERC20/utils/SafeERC20.sol\":7929:7989  call(gas(), token, 0, add(data, 0x20), mload(data), 0, 0x20) */\n      call\n        /* \"@openzeppelin/contracts/token/ERC20/utils/SafeERC20.sol\":8041:8048  success */\n      dup1\n        /* \"@openzeppelin/contracts/token/ERC20/utils/SafeERC20.sol\":8031:8207  if iszero(success) {... */\n      tag_302\n      jumpi\n        /* \"@openzeppelin/contracts/token/ERC20/utils/SafeERC20.sol\":8085:8089  0x40 */\n      0x40\n        /* \"@openzeppelin/contracts/token/ERC20/utils/SafeERC20.sol\":8079:8090  mload(0x40) */\n      mload\n        /* \"@openzeppelin/contracts/token/ERC20/utils/SafeERC20.sol\":8130:8146  returndatasize() */\n      returndatasize\n        /* \"@openzeppelin/contracts/token/ERC20/utils/SafeERC20.sol\":8127:8128  0 */\n      0x00\n        /* \"@openzeppelin/contracts/token/ERC20/utils/SafeERC20.sol\":8122:8125  ptr */\n      dup3\n        /* \"@openzeppelin/contracts/token/ERC20/utils/SafeERC20.sol\":8107:8147  returndatacopy(ptr, 0, returndatasize()) */\n      returndatacopy\n        /* \"@openzeppelin/contracts/token/ERC20/utils/SafeERC20.sol\":8176:8192  returndatasize() */\n      returndatasize\n        /* \"@openzeppelin/contracts/token/ERC20/utils/SafeERC20.sol\":8171:8174  ptr */\n      dup2\n        /* \"@openzeppelin/contracts/token/ERC20/utils/SafeERC20.sol\":8164:8193  revert(ptr, returndatasize()) */\n      revert\n        /* \"@openzeppelin/contracts/token/ERC20/utils/SafeERC20.sol\":8031:8207  if iszero(success) {... */\n    tag_302:\n        /* \"@openzeppelin/contracts/token/ERC20/utils/SafeERC20.sol\":8234:8250  returndatasize() */\n      returndatasize\n        /* \"@openzeppelin/contracts/token/ERC20/utils/SafeERC20.sol\":8220:8250  returnSize := returndatasize() */\n      swap3\n      pop\n        /* \"@openzeppelin/contracts/token/ERC20/utils/SafeERC20.sol\":8284:8285  0 */\n      0x00\n        /* \"@openzeppelin/contracts/token/ERC20/utils/SafeERC20.sol\":8278:8286  mload(0) */\n      mload\n        /* \"@openzeppelin/contracts/token/ERC20/utils/SafeERC20.sol\":8263:8286  returnValue := mload(0) */\n      swap2\n      pop\n        /* \"@openzeppelin/contracts/token/ERC20/utils/SafeERC20.sol\":7900:8296  {... */\n      pop\n        /* \"@openzeppelin/contracts/token/ERC20/utils/SafeERC20.sol\":8324:8325  0 */\n      0x00\n        /* \"@openzeppelin/contracts/token/ERC20/utils/SafeERC20.sol\":8310:8320  returnSize */\n      dup3\n        /* \"@openzeppelin/contracts/token/ERC20/utils/SafeERC20.sol\":8310:8325  returnSize == 0 */\n      eq\n        /* \"@openzeppelin/contracts/token/ERC20/utils/SafeERC20.sol\":8310:8378  returnSize == 0 ? address(token).code.length == 0 : returnValue != 1 */\n      tag_303\n      jumpi\n        /* \"@openzeppelin/contracts/token/ERC20/utils/SafeERC20.sol\":8377:8378  1 */\n      0x01\n        /* \"@openzeppelin/contracts/token/ERC20/utils/SafeERC20.sol\":8362:8373  returnValue */\n      dup2\n        /* \"@openzeppelin/contracts/token/ERC20/utils/SafeERC20.sol\":8362:8378  returnValue != 1 */\n      eq\n      iszero\n        /* \"@openzeppelin/contracts/token/ERC20/utils/SafeERC20.sol\":8310:8378  returnSize == 0 ? address(token).code.length == 0 : returnValue != 1 */\n      jump(tag_304)\n    tag_303:\n        /* \"@openzeppelin/contracts/token/ERC20/utils/SafeERC20.sol\":8358:8359  0 */\n      0x00\n        /* \"@openzeppelin/contracts/token/ERC20/utils/SafeERC20.sol\":8336:8341  token */\n      dup5\n        /* \"@openzeppelin/contracts/token/ERC20/utils/SafeERC20.sol\":8328:8354  address(token).code.length */\n      0xffffffffffffffffffffffffffffffffffffffff\n      and\n      extcodesize\n        /* \"@openzeppelin/contracts/token/ERC20/utils/SafeERC20.sol\":8328:8359  address(token).code.length == 0 */\n      eq\n        /* \"@openzeppelin/contracts/token/ERC20/utils/SafeERC20.sol\":8310:8378  returnSize == 0 ? address(token).code.length == 0 : returnValue != 1 */\n    tag_304:\n        /* \"@openzeppelin/contracts/token/ERC20/utils/SafeERC20.sol\":8306:8452  if (returnSize == 0 ? address(token).code.length == 0 : returnValue != 1) {... */\n      iszero\n      tag_305\n      jumpi\n        /* \"@openzeppelin/contracts/token/ERC20/utils/SafeERC20.sol\":8434:8439  token */\n      dup4\n        /* \"@openzeppelin/contracts/token/ERC20/utils/SafeERC20.sol\":8401:8441  SafeERC20FailedOperation(address(token)) */\n      mload(0x40)\n      0x5274afe700000000000000000000000000000000000000000000000000000000\n      dup2\n      mstore\n      0x04\n      add\n      tag_306\n      swap2\n      swap1\n      tag_40\n      jump\t// in\n    tag_306:\n      mload(0x40)\n      dup1\n      swap2\n      sub\n      swap1\n      revert\n        /* \"@openzeppelin/contracts/token/ERC20/utils/SafeERC20.sol\":8306:8452  if (returnSize == 0 ? address(token).code.length == 0 : returnValue != 1) {... */\n    tag_305:\n        /* \"@openzeppelin/contracts/token/ERC20/utils/SafeERC20.sol\":7808:8458  {... */\n      pop\n      pop\n        /* \"@openzeppelin/contracts/token/ERC20/utils/SafeERC20.sol\":7738:8458  function _callOptionalReturn(IERC20 token, bytes memory data) private {... */\n      pop\n      pop\n      jump\t// out\n        /* \"@openzeppelin/contracts-upgradeable/proxy/utils/Initializable.sol\":7084:7225  function _checkInitializing() internal view virtual {... */\n    tag_282:\n        /* \"@openzeppelin/contracts-upgradeable/proxy/utils/Initializable.sol\":7151:7168  _isInitializing() */\n      tag_308\n        /* \"@openzeppelin/contracts-upgradeable/proxy/utils/Initializable.sol\":7151:7166  _isInitializing */\n      tag_309\n        /* \"@openzeppelin/contracts-upgradeable/proxy/utils/Initializable.sol\":7151:7168  _isInitializing() */\n      jump\t// in\n    tag_308:\n        /* \"@openzeppelin/contracts-upgradeable/proxy/utils/Initializable.sol\":7146:7219  if (!_isInitializing()) {... */\n      tag_310\n      jumpi\n        /* \"@openzeppelin/contracts-upgradeable/proxy/utils/Initializable.sol\":7191:7208  NotInitializing() */\n      mload(0x40)\n      0xd7e6bcf800000000000000000000000000000000000000000000000000000000\n      dup2\n      mstore\n      0x04\n      add\n      mload(0x40)\n      dup1\n      swap2\n      sub\n      swap1\n      revert\n        /* \"@openzeppelin/contracts-upgradeable/proxy/utils/Initializable.sol\":7146:7219  if (!_isInitializing()) {... */\n    tag_310:\n        /* \"@openzeppelin/contracts-upgradeable/proxy/utils/Initializable.sol\":7084:7225  function _checkInitializing() internal view virtual {... */\n      jump\t// out\n        /* \"@openzeppelin/contracts-upgradeable/access/OwnableUpgradeable.sol\":1980:2215  function __Ownable_init_unchained(address initialOwner) internal onlyInitializing {... */\n    tag_285:\n        /* \"@openzeppelin/contracts-upgradeable/proxy/utils/Initializable.sol\":6931:6951  _checkInitializing() */\n      tag_312\n        /* \"@openzeppelin/contracts-upgradeable/proxy/utils/Initializable.sol\":6931:6949  _checkInitializing */\n      tag_282\n        /* \"@openzeppelin/contracts-upgradeable/proxy/utils/Initializable.sol\":6931:6951  _checkInitializing() */\n      jump\t// in\n    tag_312:\n        /* \"@openzeppelin/contracts-upgradeable/access/OwnableUpgradeable.sol\":2100:2101  0 */\n      0x00\n        /* \"@openzeppelin/contracts-upgradeable/access/OwnableUpgradeable.sol\":2076:2102  initialOwner == address(0) */\n      0xffffffffffffffffffffffffffffffffffffffff\n      and\n        /* \"@openzeppelin/contracts-upgradeable/access/OwnableUpgradeable.sol\":2076:2088  initialOwner */\n      dup2\n        /* \"@openzeppelin/contracts-upgradeable/access/OwnableUpgradeable.sol\":2076:2102  initialOwner == address(0) */\n      0xffffffffffffffffffffffffffffffffffffffff\n      and\n      sub\n        /* \"@openzeppelin/contracts-upgradeable/access/OwnableUpgradeable.sol\":2072:2167  if (initialOwner == address(0)) {... */\n      tag_314\n      jumpi\n        /* \"@openzeppelin/contracts-upgradeable/access/OwnableUpgradeable.sol\":2153:2154  0 */\n      0x00\n        /* \"@openzeppelin/contracts-upgradeable/access/OwnableUpgradeable.sol\":2125:2156  OwnableInvalidOwner(address(0)) */\n      mload(0x40)\n      0x1e4fbdf700000000000000000000000000000000000000000000000000000000\n      dup2\n      mstore\n      0x04\n      add\n      tag_315\n      swap2\n      swap1\n      tag_40\n      jump\t// in\n    tag_315:\n      mload(0x40)\n      dup1\n      swap2\n      sub\n      swap1\n      revert\n        /* \"@openzeppelin/contracts-upgradeable/access/OwnableUpgradeable.sol\":2072:2167  if (initialOwner == address(0)) {... */\n    tag_314:\n        /* \"@openzeppelin/contracts-upgradeable/access/OwnableUpgradeable.sol\":2176:2208  _transferOwnership(initialOwner) */\n      tag_316\n        /* \"@openzeppelin/contracts-upgradeable/access/OwnableUpgradeable.sol\":2195:2207  initialOwner */\n      dup2\n        /* \"@openzeppelin/contracts-upgradeable/access/OwnableUpgradeable.sol\":2176:2194  _transferOwnership */\n      tag_168\n        /* \"@openzeppelin/contracts-upgradeable/access/OwnableUpgradeable.sol\":2176:2208  _transferOwnership(initialOwner) */\n      jump\t// in\n    tag_316:\n        /* \"@openzeppelin/contracts-upgradeable/access/OwnableUpgradeable.sol\":1980:2215  function __Ownable_init_unchained(address initialOwner) internal onlyInitializing {... */\n      pop\n      jump\t// out\n        /* \"@openzeppelin/contracts-upgradeable/security/ReentrancyGuardUpgradeable.sol\":2006:2115  function __ReentrancyGuard_init_unchained() internal onlyInitializing {... */\n    tag_290:\n        /* \"@openzeppelin/contracts-upgradeable/proxy/utils/Initializable.sol\":6931:6951  _checkInitializing() */\n      tag_318\n        /* \"@openzeppelin/contracts-upgradeable/proxy/utils/Initializable.sol\":6931:6949  _checkInitializing */\n      tag_282\n        /* \"@openzeppelin/contracts-upgradeable/proxy/utils/Initializable.sol\":6931:6951  _checkInitializing() */\n      jump\t// in\n    tag_318:\n        /* \"@openzeppelin/contracts-upgradeable/security/ReentrancyGuardUpgradeable.sol\":1808:1809  1 */\n      0x01\n        /* \"@openzeppelin/contracts-upgradeable/security/ReentrancyGuardUpgradeable.sol\":2086:2093  _status */\n      0x00\n        /* \"@openzeppelin/contracts-upgradeable/security/ReentrancyGuardUpgradeable.sol\":2086:2108  _status = _NOT_ENTERED */\n      dup2\n      swap1\n      sstore\n      pop\n        /* \"@openzeppelin/contracts-upgradeable/security/ReentrancyGuardUpgradeable.sol\":2006:2115  function __ReentrancyGuard_init_unchained() internal onlyInitializing {... */\n      jump\t// out\n        /* \"@openzeppelin/contracts-upgradeable/utils/ContextUpgradeable.sol\":887:983  function _msgSender() internal view virtual returns (address) {... */\n    tag_293:\n        /* \"@openzeppelin/contracts-upgradeable/utils/ContextUpgradeable.sol\":940:947  address */\n      0x00\n        /* \"@openzeppelin/contracts-upgradeable/utils/ContextUpgradeable.sol\":966:976  msg.sender */\n      caller\n        /* \"@openzeppelin/contracts-upgradeable/utils/ContextUpgradeable.sol\":959:976  return msg.sender */\n      swap1\n      pop\n        /* \"@openzeppelin/contracts-upgradeable/utils/ContextUpgradeable.sol\":887:983  function _msgSender() internal view virtual returns (address) {... */\n      swap1\n      jump\t// out\n        /* \"@openzeppelin/contracts-upgradeable/proxy/utils/Initializable.sol\":8487:8607  function _isInitializing() internal view returns (bool) {... */\n    tag_309:\n        /* \"@openzeppelin/contracts-upgradeable/proxy/utils/Initializable.sol\":8537:8541  bool */\n      0x00\n        /* \"@openzeppelin/contracts-upgradeable/proxy/utils/Initializable.sol\":8560:8586  _getInitializableStorage() */\n      tag_322\n        /* \"@openzeppelin/contracts-upgradeable/proxy/utils/Initializable.sol\":8560:8584  _getInitializableStorage */\n      tag_149\n        /* \"@openzeppelin/contracts-upgradeable/proxy/utils/Initializable.sol\":8560:8586  _getInitializableStorage() */\n      jump\t// in\n    tag_322:\n        /* \"@openzeppelin/contracts-upgradeable/proxy/utils/Initializable.sol\":8560:8600  _getInitializableStorage()._initializing */\n      0x00\n      add\n      0x08\n      swap1\n      sload\n      swap1\n      0x0100\n      exp\n      swap1\n      div\n      0xff\n      and\n        /* \"@openzeppelin/contracts-upgradeable/proxy/utils/Initializable.sol\":8553:8600  return _getInitializableStorage()._initializing */\n      swap1\n      pop\n        /* \"@openzeppelin/contracts-upgradeable/proxy/utils/Initializable.sol\":8487:8607  function _isInitializing() internal view returns (bool) {... */\n      swap1\n      jump\t// out\n        /* \"#utility.yul\":7:84   */\n    tag_323:\n        /* \"#utility.yul\":44:51   */\n      0x00\n        /* \"#utility.yul\":73:78   */\n      dup2\n        /* \"#utility.yul\":62:78   */\n      swap1\n      pop\n        /* \"#utility.yul\":7:84   */\n      swap2\n      swap1\n      pop\n      jump\t// out\n        /* \"#utility.yul\":90:270   */\n    tag_324:\n        /* \"#utility.yul\":138:215   */\n      0x4e487b7100000000000000000000000000000000000000000000000000000000\n        /* \"#utility.yul\":135:136   */\n      0x00\n        /* \"#utility.yul\":128:216   */\n      mstore\n        /* \"#utility.yul\":235:239   */\n      0x11\n        /* \"#utility.yul\":232:233   */\n      0x04\n        /* \"#utility.yul\":225:240   */\n      mstore\n        /* \"#utility.yul\":259:263   */\n      0x24\n        /* \"#utility.yul\":256:257   */\n      0x00\n        /* \"#utility.yul\":249:264   */\n      revert\n        /* \"#utility.yul\":276:467   */\n    tag_24:\n        /* \"#utility.yul\":316:319   */\n      0x00\n        /* \"#utility.yul\":335:355   */\n      tag_419\n        /* \"#utility.yul\":353:354   */\n      dup3\n        /* \"#utility.yul\":335:355   */\n      tag_323\n      jump\t// in\n    tag_419:\n        /* \"#utility.yul\":330:355   */\n      swap2\n      pop\n        /* \"#utility.yul\":369:389   */\n      tag_420\n        /* \"#utility.yul\":387:388   */\n      dup4\n        /* \"#utility.yul\":369:389   */\n      tag_323\n      jump\t// in\n    tag_420:\n        /* \"#utility.yul\":364:389   */\n      swap3\n      pop\n        /* \"#utility.yul\":412:413   */\n      dup3\n        /* \"#utility.yul\":409:410   */\n      dup3\n        /* \"#utility.yul\":405:414   */\n      add\n        /* \"#utility.yul\":398:414   */\n      swap1\n      pop\n        /* \"#utility.yul\":433:436   */\n      dup1\n        /* \"#utility.yul\":430:431   */\n      dup3\n        /* \"#utility.yul\":427:437   */\n      gt\n        /* \"#utility.yul\":424:460   */\n      iszero\n      tag_421\n      jumpi\n        /* \"#utility.yul\":440:458   */\n      tag_422\n      tag_324\n      jump\t// in\n    tag_422:\n        /* \"#utility.yul\":424:460   */\n    tag_421:\n        /* \"#utility.yul\":276:467   */\n      swap3\n      swap2\n      pop\n      pop\n      jump\t// out\n        /* \"#utility.yul\":473:591   */\n    tag_325:\n        /* \"#utility.yul\":560:584   */\n      tag_424\n        /* \"#utility.yul\":578:583   */\n      dup2\n        /* \"#utility.yul\":560:584   */\n      tag_323\n      jump\t// in\n    tag_424:\n        /* \"#utility.yul\":555:558   */\n      dup3\n        /* \"#utility.yul\":548:585   */\n      mstore\n        /* \"#utility.yul\":473:591   */\n      pop\n      pop\n      jump\t// out\n        /* \"#utility.yul\":597:819   */\n    tag_26:\n        /* \"#utility.yul\":690:694   */\n      0x00\n        /* \"#utility.yul\":728:730   */\n      0x20\n        /* \"#utility.yul\":717:726   */\n      dup3\n        /* \"#utility.yul\":713:731   */\n      add\n        /* \"#utility.yul\":705:731   */\n      swap1\n      pop\n        /* \"#utility.yul\":741:812   */\n      tag_426\n        /* \"#utility.yul\":809:810   */\n      0x00\n        /* \"#utility.yul\":798:807   */\n      dup4\n        /* \"#utility.yul\":794:811   */\n      add\n        /* \"#utility.yul\":785:791   */\n      dup5\n        /* \"#utility.yul\":741:812   */\n      tag_325\n      jump\t// in\n    tag_426:\n        /* \"#utility.yul\":597:819   */\n      swap3\n      swap2\n      pop\n      pop\n      jump\t// out\n        /* \"#utility.yul\":825:994   */\n    tag_326:\n        /* \"#utility.yul\":909:920   */\n      0x00\n        /* \"#utility.yul\":943:949   */\n      dup3\n        /* \"#utility.yul\":938:941   */\n      dup3\n        /* \"#utility.yul\":931:950   */\n      mstore\n        /* \"#utility.yul\":983:987   */\n      0x20\n        /* \"#utility.yul\":978:981   */\n      dup3\n        /* \"#utility.yul\":974:988   */\n      add\n        /* \"#utility.yul\":959:988   */\n      swap1\n      pop\n        /* \"#utility.yul\":825:994   */\n      swap3\n      swap2\n      pop\n      pop\n      jump\t// out\n        /* \"#utility.yul\":1000:1174   */\n    tag_327:\n        /* \"#utility.yul\":1140:1166   */\n      0x537765657473706f743a20757365206465706f73697428290000000000000000\n        /* \"#utility.yul\":1136:1137   */\n      0x00\n        /* \"#utility.yul\":1128:1134   */\n      dup3\n        /* \"#utility.yul\":1124:1138   */\n      add\n        /* \"#utility.yul\":1117:1167   */\n      mstore\n        /* \"#utility.yul\":1000:1174   */\n      pop\n      jump\t// out\n        /* \"#utility.yul\":1180:1546   */\n    tag_328:\n        /* \"#utility.yul\":1322:1325   */\n      0x00\n        /* \"#utility.yul\":1343:1410   */\n      tag_430\n        /* \"#utility.yul\":1407:1409   */\n      0x18\n        /* \"#utility.yul\":1402:1405   */\n      dup4\n        /* \"#utility.yul\":1343:1410   */\n      tag_326\n      jump\t// in\n    tag_430:\n        /* \"#utility.yul\":1336:1410   */\n      swap2\n      pop\n        /* \"#utility.yul\":1419:1512   */\n      tag_431\n        /* \"#utility.yul\":1508:1511   */\n      dup3\n        /* \"#utility.yul\":1419:1512   */\n      tag_327\n      jump\t// in\n    tag_431:\n        /* \"#utility.yul\":1537:1539   */\n      0x20\n        /* \"#utility.yul\":1532:1535   */\n      dup3\n        /* \"#utility.yul\":1528:1540   */\n      add\n        /* \"#utility.yul\":1521:1540   */\n      swap1\n      pop\n        /* \"#utility.yul\":1180:1546   */\n      swap2\n      swap1\n      pop\n      jump\t// out\n        /* \"#utility.yul\":1552:1971   */\n    tag_30:\n        /* \"#utility.yul\":1718:1722   */\n      0x00\n        /* \"#utility.yul\":1756:1758   */\n      0x20\n        /* \"#utility.yul\":1745:1754   */\n      dup3\n        /* \"#utility.yul\":1741:1759   */\n      add\n        /* \"#utility.yul\":1733:1759   */\n      swap1\n      pop\n        /* \"#utility.yul\":1805:1814   */\n      dup2\n        /* \"#utility.yul\":1799:1803   */\n      dup2\n        /* \"#utility.yul\":1795:1815   */\n      sub\n        /* \"#utility.yul\":1791:1792   */\n      0x00\n        /* \"#utility.yul\":1780:1789   */\n      dup4\n        /* \"#utility.yul\":1776:1793   */\n      add\n        /* \"#utility.yul\":1769:1816   */\n      mstore\n        /* \"#utility.yul\":1833:1964   */\n      tag_433\n        /* \"#utility.yul\":1959:1963   */\n      dup2\n        /* \"#utility.yul\":1833:1964   */\n      tag_328\n      jump\t// in\n    tag_433:\n        /* \"#utility.yul\":1825:1964   */\n      swap1\n      pop\n        /* \"#utility.yul\":1552:1971   */\n      swap2\n      swap1\n      pop\n      jump\t// out\n        /* \"#utility.yul\":1977:2052   */\n    tag_329:\n        /* \"#utility.yul\":2010:2016   */\n      0x00\n        /* \"#utility.yul\":2043:2045   */\n      0x40\n        /* \"#utility.yul\":2037:2046   */\n      mload\n        /* \"#utility.yul\":2027:2046   */\n      swap1\n      pop\n        /* \"#utility.yul\":1977:2052   */\n      swap1\n      jump\t// out\n        /* \"#utility.yul\":2058:2175   */\n    tag_330:\n        /* \"#utility.yul\":2167:2168   */\n      0x00\n        /* \"#utility.yul\":2164:2165   */\n      dup1\n        /* \"#utility.yul\":2157:2169   */\n      revert\n        /* \"#utility.yul\":2181:2298   */\n    tag_331:\n        /* \"#utility.yul\":2290:2291   */\n      0x00\n        /* \"#utility.yul\":2287:2288   */\n      dup1\n        /* \"#utility.yul\":2280:2292   */\n      revert\n        /* \"#utility.yul\":2304:2430   */\n    tag_332:\n        /* \"#utility.yul\":2341:2348   */\n      0x00\n        /* \"#utility.yul\":2381:2423   */\n      0xffffffffffffffffffffffffffffffffffffffff\n        /* \"#utility.yul\":2374:2379   */\n      dup3\n        /* \"#utility.yul\":2370:2424   */\n      and\n        /* \"#utility.yul\":2359:2424   */\n      swap1\n      pop\n        /* \"#utility.yul\":2304:2430   */\n      swap2\n      swap1\n      pop\n      jump\t// out\n        /* \"#utility.yul\":2436:2532   */\n    tag_333:\n        /* \"#utility.yul\":2473:2480   */\n      0x00\n        /* \"#utility.yul\":2502:2526   */\n      tag_439\n        /* \"#utility.yul\":2520:2525   */\n      dup3\n        /* \"#utility.yul\":2502:2526   */\n      tag_332\n      jump\t// in\n    tag_439:\n        /* \"#utility.yul\":2491:2526   */\n      swap1\n      pop\n        /* \"#utility.yul\":2436:2532   */\n      swap2\n      swap1\n      pop\n      jump\t// out\n        /* \"#utility.yul\":2538:2660   */\n    tag_334:\n        /* \"#utility.yul\":2611:2635   */\n      tag_441\n        /* \"#utility.yul\":2629:2634   */\n      dup2\n        /* \"#utility.yul\":2611:2635   */\n      tag_333\n      jump\t// in\n    tag_441:\n        /* \"#utility.yul\":2604:2609   */\n      dup2\n        /* \"#utility.yul\":2601:2636   */\n      eq\n        /* \"#utility.yul\":2591:2654   */\n      tag_442\n      jumpi\n        /* \"#utility.yul\":2650:2651   */\n      0x00\n        /* \"#utility.yul\":2647:2648   */\n      dup1\n        /* \"#utility.yul\":2640:2652   */\n      revert\n        /* \"#utility.yul\":2591:2654   */\n    tag_442:\n        /* \"#utility.yul\":2538:2660   */\n      pop\n      jump\t// out\n        /* \"#utility.yul\":2666:2805   */\n    tag_335:\n        /* \"#utility.yul\":2712:2717   */\n      0x00\n        /* \"#utility.yul\":2750:2756   */\n      dup2\n        /* \"#utility.yul\":2737:2757   */\n      calldataload\n        /* \"#utility.yul\":2728:2757   */\n      swap1\n      pop\n        /* \"#utility.yul\":2766:2799   */\n      tag_444\n        /* \"#utility.yul\":2793:2798   */\n      dup2\n        /* \"#utility.yul\":2766:2799   */\n      tag_334\n      jump\t// in\n    tag_444:\n        /* \"#utility.yul\":2666:2805   */\n      swap3\n      swap2\n      pop\n      pop\n      jump\t// out\n        /* \"#utility.yul\":2811:3140   */\n    tag_34:\n        /* \"#utility.yul\":2870:2876   */\n      0x00\n        /* \"#utility.yul\":2919:2921   */\n      0x20\n        /* \"#utility.yul\":2907:2916   */\n      dup3\n        /* \"#utility.yul\":2898:2905   */\n      dup5\n        /* \"#utility.yul\":2894:2917   */\n      sub\n        /* \"#utility.yul\":2890:2922   */\n      slt\n        /* \"#utility.yul\":2887:3006   */\n      iszero\n      tag_446\n      jumpi\n        /* \"#utility.yul\":2925:3004   */\n      tag_447\n      tag_330\n      jump\t// in\n    tag_447:\n        /* \"#utility.yul\":2887:3006   */\n    tag_446:\n        /* \"#utility.yul\":3045:3046   */\n      0x00\n        /* \"#utility.yul\":3070:3123   */\n      tag_448\n        /* \"#utility.yul\":3115:3122   */\n      dup5\n        /* \"#utility.yul\":3106:3112   */\n      dup3\n        /* \"#utility.yul\":3095:3104   */\n      dup6\n        /* \"#utility.yul\":3091:3113   */\n      add\n        /* \"#utility.yul\":3070:3123   */\n      tag_335\n      jump\t// in\n    tag_448:\n        /* \"#utility.yul\":3060:3123   */\n      swap2\n      pop\n        /* \"#utility.yul\":3016:3133   */\n      pop\n        /* \"#utility.yul\":2811:3140   */\n      swap3\n      swap2\n      pop\n      pop\n      jump\t// out\n        /* \"#utility.yul\":3146:3264   */\n    tag_336:\n        /* \"#utility.yul\":3233:3257   */\n      tag_450\n        /* \"#utility.yul\":3251:3256   */\n      dup2\n        /* \"#utility.yul\":3233:3257   */\n      tag_333\n      jump\t// in\n    tag_450:\n        /* \"#utility.yul\":3228:3231   */\n      dup3\n        /* \"#utility.yul\":3221:3258   */\n      mstore\n        /* \"#utility.yul\":3146:3264   */\n      pop\n      pop\n      jump\t// out\n        /* \"#utility.yul\":3270:3492   */\n    tag_40:\n        /* \"#utility.yul\":3363:3367   */\n      0x00\n        /* \"#utility.yul\":3401:3403   */\n      0x20\n        /* \"#utility.yul\":3390:3399   */\n      dup3\n        /* \"#utility.yul\":3386:3404   */\n      add\n        /* \"#utility.yul\":3378:3404   */\n      swap1\n      pop\n        /* \"#utility.yul\":3414:3485   */\n      tag_452\n        /* \"#utility.yul\":3482:3483   */\n      0x00\n        /* \"#utility.yul\":3471:3480   */\n      dup4\n        /* \"#utility.yul\":3467:3484   */\n      add\n        /* \"#utility.yul\":3458:3464   */\n      dup5\n        /* \"#utility.yul\":3414:3485   */\n      tag_336\n      jump\t// in\n    tag_452:\n        /* \"#utility.yul\":3270:3492   */\n      swap3\n      swap2\n      pop\n      pop\n      jump\t// out\n        /* \"#utility.yul\":3498:3620   */\n    tag_337:\n        /* \"#utility.yul\":3571:3595   */\n      tag_454\n        /* \"#utility.yul\":3589:3594   */\n      dup2\n        /* \"#utility.yul\":3571:3595   */\n      tag_323\n      jump\t// in\n    tag_454:\n        /* \"#utility.yul\":3564:3569   */\n      dup2\n        /* \"#utility.yul\":3561:3596   */\n      eq\n        /* \"#utility.yul\":3551:3614   */\n      tag_455\n      jumpi\n        /* \"#utility.yul\":3610:3611   */\n      0x00\n        /* \"#utility.yul\":3607:3608   */\n      dup1\n        /* \"#utility.yul\":3600:3612   */\n      revert\n        /* \"#utility.yul\":3551:3614   */\n    tag_455:\n        /* \"#utility.yul\":3498:3620   */\n      pop\n      jump\t// out\n        /* \"#utility.yul\":3626:3765   */\n    tag_338:\n        /* \"#utility.yul\":3672:3677   */\n      0x00\n        /* \"#utility.yul\":3710:3716   */\n      dup2\n        /* \"#utility.yul\":3697:3717   */\n      calldataload\n        /* \"#utility.yul\":3688:3717   */\n      swap1\n      pop\n        /* \"#utility.yul\":3726:3759   */\n      tag_457\n        /* \"#utility.yul\":3753:3758   */\n      dup2\n        /* \"#utility.yul\":3726:3759   */\n      tag_337\n      jump\t// in\n    tag_457:\n        /* \"#utility.yul\":3626:3765   */\n      swap3\n      swap2\n      pop\n      pop\n      jump\t// out\n        /* \"#utility.yul\":3771:4245   */\n    tag_43:\n        /* \"#utility.yul\":3839:3845   */\n      0x00\n        /* \"#utility.yul\":3847:3853   */\n      dup1\n        /* \"#utility.yul\":3896:3898   */\n      0x40\n        /* \"#utility.yul\":3884:3893   */\n      dup4\n        /* \"#utility.yul\":3875:3882   */\n      dup6\n        /* \"#utility.yul\":3871:3894   */\n      sub\n        /* \"#utility.yul\":3867:3899   */\n      slt\n        /* \"#utility.yul\":3864:3983   */\n      iszero\n      tag_459\n      jumpi\n        /* \"#utility.yul\":3902:3981   */\n      tag_460\n      tag_330\n      jump\t// in\n    tag_460:\n        /* \"#utility.yul\":3864:3983   */\n    tag_459:\n        /* \"#utility.yul\":4022:4023   */\n      0x00\n        /* \"#utility.yul\":4047:4100   */\n      tag_461\n        /* \"#utility.yul\":4092:4099   */\n      dup6\n        /* \"#utility.yul\":4083:4089   */\n      dup3\n        /* \"#utility.yul\":4072:4081   */\n      dup7\n        /* \"#utility.yul\":4068:4090   */\n      add\n        /* \"#utility.yul\":4047:4100   */\n      tag_335\n      jump\t// in\n    tag_461:\n        /* \"#utility.yul\":4037:4100   */\n      swap3\n      pop\n        /* \"#utility.yul\":3993:4110   */\n      pop\n        /* \"#utility.yul\":4149:4151   */\n      0x20\n        /* \"#utility.yul\":4175:4228   */\n      tag_462\n        /* \"#utility.yul\":4220:4227   */\n      dup6\n        /* \"#utility.yul\":4211:4217   */\n      dup3\n        /* \"#utility.yul\":4200:4209   */\n      dup7\n        /* \"#utility.yul\":4196:4218   */\n      add\n        /* \"#utility.yul\":4175:4228   */\n      tag_338\n      jump\t// in\n    tag_462:\n        /* \"#utility.yul\":4165:4228   */\n      swap2\n      pop\n        /* \"#utility.yul\":4120:4238   */\n      pop\n        /* \"#utility.yul\":3771:4245   */\n      swap3\n      pop\n      swap3\n      swap1\n      pop\n      jump\t// out\n        /* \"#utility.yul\":4251:4725   */\n    tag_48:\n        /* \"#utility.yul\":4319:4325   */\n      0x00\n        /* \"#utility.yul\":4327:4333   */\n      dup1\n        /* \"#utility.yul\":4376:4378   */\n      0x40\n        /* \"#utility.yul\":4364:4373   */\n      dup4\n        /* \"#utility.yul\":4355:4362   */\n      dup6\n        /* \"#utility.yul\":4351:4374   */\n      sub\n        /* \"#utility.yul\":4347:4379   */\n      slt\n        /* \"#utility.yul\":4344:4463   */\n      iszero\n      tag_464\n      jumpi\n        /* \"#utility.yul\":4382:4461   */\n      tag_465\n      tag_330\n      jump\t// in\n    tag_465:\n        /* \"#utility.yul\":4344:4463   */\n    tag_464:\n        /* \"#utility.yul\":4502:4503   */\n      0x00\n        /* \"#utility.yul\":4527:4580   */\n      tag_466\n        /* \"#utility.yul\":4572:4579   */\n      dup6\n        /* \"#utility.yul\":4563:4569   */\n      dup3\n        /* \"#utility.yul\":4552:4561   */\n      dup7\n        /* \"#utility.yul\":4548:4570   */\n      add\n        /* \"#utility.yul\":4527:4580   */\n      tag_335\n      jump\t// in\n    tag_466:\n        /* \"#utility.yul\":4517:4580   */\n      swap3\n      pop\n        /* \"#utility.yul\":4473:4590   */\n      pop\n        /* \"#utility.yul\":4629:4631   */\n      0x20\n        /* \"#utility.yul\":4655:4708   */\n      tag_467\n        /* \"#utility.yul\":4700:4707   */\n      dup6\n        /* \"#utility.yul\":4691:4697   */\n      dup3\n        /* \"#utility.yul\":4680:4689   */\n      dup7\n        /* \"#utility.yul\":4676:4698   */\n      add\n        /* \"#utility.yul\":4655:4708   */\n      tag_335\n      jump\t// in\n    tag_467:\n        /* \"#utility.yul\":4645:4708   */\n      swap2\n      pop\n        /* \"#utility.yul\":4600:4718   */\n      pop\n        /* \"#utility.yul\":4251:4725   */\n      swap3\n      pop\n      swap3\n      swap1\n      pop\n      jump\t// out\n        /* \"#utility.yul\":4731:4791   */\n    tag_339:\n        /* \"#utility.yul\":4759:4762   */\n      0x00\n        /* \"#utility.yul\":4780:4785   */\n      dup2\n        /* \"#utility.yul\":4773:4785   */\n      swap1\n      pop\n        /* \"#utility.yul\":4731:4791   */\n      swap2\n      swap1\n      pop\n      jump\t// out\n        /* \"#utility.yul\":4797:4939   */\n    tag_340:\n        /* \"#utility.yul\":4847:4856   */\n      0x00\n        /* \"#utility.yul\":4880:4933   */\n      tag_470\n        /* \"#utility.yul\":4898:4932   */\n      tag_471\n        /* \"#utility.yul\":4907:4931   */\n      tag_472\n        /* \"#utility.yul\":4925:4930   */\n      dup5\n        /* \"#utility.yul\":4907:4931   */\n      tag_332\n      jump\t// in\n    tag_472:\n        /* \"#utility.yul\":4898:4932   */\n      tag_339\n      jump\t// in\n    tag_471:\n        /* \"#utility.yul\":4880:4933   */\n      tag_332\n      jump\t// in\n    tag_470:\n        /* \"#utility.yul\":4867:4933   */\n      swap1\n      pop\n        /* \"#utility.yul\":4797:4939   */\n      swap2\n      swap1\n      pop\n      jump\t// out\n        /* \"#utility.yul\":4945:5071   */\n    tag_341:\n        /* \"#utility.yul\":4995:5004   */\n      0x00\n        /* \"#utility.yul\":5028:5065   */\n      tag_474\n        /* \"#utility.yul\":5059:5064   */\n      dup3\n        /* \"#utility.yul\":5028:5065   */\n      tag_340\n      jump\t// in\n    tag_474:\n        /* \"#utility.yul\":5015:5065   */\n      swap1\n      pop\n        /* \"#utility.yul\":4945:5071   */\n      swap2\n      swap1\n      pop\n      jump\t// out\n        /* \"#utility.yul\":5077:5219   */\n    tag_342:\n        /* \"#utility.yul\":5143:5152   */\n      0x00\n        /* \"#utility.yul\":5176:5213   */\n      tag_476\n        /* \"#utility.yul\":5207:5212   */\n      dup3\n        /* \"#utility.yul\":5176:5213   */\n      tag_341\n      jump\t// in\n    tag_476:\n        /* \"#utility.yul\":5163:5213   */\n      swap1\n      pop\n        /* \"#utility.yul\":5077:5219   */\n      swap2\n      swap1\n      pop\n      jump\t// out\n        /* \"#utility.yul\":5225:5388   */\n    tag_343:\n        /* \"#utility.yul\":5328:5381   */\n      tag_478\n        /* \"#utility.yul\":5375:5380   */\n      dup2\n        /* \"#utility.yul\":5328:5381   */\n      tag_342\n      jump\t// in\n    tag_478:\n        /* \"#utility.yul\":5323:5326   */\n      dup3\n        /* \"#utility.yul\":5316:5382   */\n      mstore\n        /* \"#utility.yul\":5225:5388   */\n      pop\n      pop\n      jump\t// out\n        /* \"#utility.yul\":5394:5648   */\n    tag_57:\n        /* \"#utility.yul\":5503:5507   */\n      0x00\n        /* \"#utility.yul\":5541:5543   */\n      0x20\n        /* \"#utility.yul\":5530:5539   */\n      dup3\n        /* \"#utility.yul\":5526:5544   */\n      add\n        /* \"#utility.yul\":5518:5544   */\n      swap1\n      pop\n        /* \"#utility.yul\":5554:5641   */\n      tag_480\n        /* \"#utility.yul\":5638:5639   */\n      0x00\n        /* \"#utility.yul\":5627:5636   */\n      dup4\n        /* \"#utility.yul\":5623:5640   */\n      add\n        /* \"#utility.yul\":5614:5620   */\n      dup5\n        /* \"#utility.yul\":5554:5641   */\n      tag_343\n      jump\t// in\n    tag_480:\n        /* \"#utility.yul\":5394:5648   */\n      swap3\n      swap2\n      pop\n      pop\n      jump\t// out\n        /* \"#utility.yul\":5654:5755   */\n    tag_344:\n        /* \"#utility.yul\":5690:5697   */\n      0x00\n        /* \"#utility.yul\":5730:5748   */\n      0xffffffffffffffff\n        /* \"#utility.yul\":5723:5728   */\n      dup3\n        /* \"#utility.yul\":5719:5749   */\n      and\n        /* \"#utility.yul\":5708:5749   */\n      swap1\n      pop\n        /* \"#utility.yul\":5654:5755   */\n      swap2\n      swap1\n      pop\n      jump\t// out\n        /* \"#utility.yul\":5761:5876   */\n    tag_345:\n        /* \"#utility.yul\":5846:5869   */\n      tag_483\n        /* \"#utility.yul\":5863:5868   */\n      dup2\n        /* \"#utility.yul\":5846:5869   */\n      tag_344\n      jump\t// in\n    tag_483:\n        /* \"#utility.yul\":5841:5844   */\n      dup3\n        /* \"#utility.yul\":5834:5870   */\n      mstore\n        /* \"#utility.yul\":5761:5876   */\n      pop\n      pop\n      jump\t// out\n        /* \"#utility.yul\":5882:5981   */\n    tag_346:\n        /* \"#utility.yul\":5934:5940   */\n      0x00\n        /* \"#utility.yul\":5968:5973   */\n      dup2\n        /* \"#utility.yul\":5962:5974   */\n      mload\n        /* \"#utility.yul\":5952:5974   */\n      swap1\n      pop\n        /* \"#utility.yul\":5882:5981   */\n      swap2\n      swap1\n      pop\n      jump\t// out\n        /* \"#utility.yul\":5987:6126   */\n    tag_347:\n        /* \"#utility.yul\":6076:6082   */\n      dup3\n        /* \"#utility.yul\":6071:6074   */\n      dup2\n        /* \"#utility.yul\":6066:6069   */\n      dup4\n        /* \"#utility.yul\":6060:6083   */\n      mcopy\n        /* \"#utility.yul\":6117:6118   */\n      0x00\n        /* \"#utility.yul\":6108:6114   */\n      dup4\n        /* \"#utility.yul\":6103:6106   */\n      dup4\n        /* \"#utility.yul\":6099:6115   */\n      add\n        /* \"#utility.yul\":6092:6119   */\n      mstore\n        /* \"#utility.yul\":5987:6126   */\n      pop\n      pop\n      pop\n      jump\t// out\n        /* \"#utility.yul\":6132:6234   */\n    tag_348:\n        /* \"#utility.yul\":6173:6179   */\n      0x00\n        /* \"#utility.yul\":6224:6226   */\n      0x1f\n        /* \"#utility.yul\":6220:6227   */\n      not\n        /* \"#utility.yul\":6215:6217   */\n      0x1f\n        /* \"#utility.yul\":6208:6213   */\n      dup4\n        /* \"#utility.yul\":6204:6218   */\n      add\n        /* \"#utility.yul\":6200:6228   */\n      and\n        /* \"#utility.yul\":6190:6228   */\n      swap1\n      pop\n        /* \"#utility.yul\":6132:6234   */\n      swap2\n      swap1\n      pop\n      jump\t// out\n        /* \"#utility.yul\":6240:6617   */\n    tag_349:\n        /* \"#utility.yul\":6328:6331   */\n      0x00\n        /* \"#utility.yul\":6356:6395   */\n      tag_488\n        /* \"#utility.yul\":6389:6394   */\n      dup3\n        /* \"#utility.yul\":6356:6395   */\n      tag_346\n      jump\t// in\n    tag_488:\n        /* \"#utility.yul\":6411:6482   */\n      tag_489\n        /* \"#utility.yul\":6475:6481   */\n      dup2\n        /* \"#utility.yul\":6470:6473   */\n      dup6\n        /* \"#utility.yul\":6411:6482   */\n      tag_326\n      jump\t// in\n    tag_489:\n        /* \"#utility.yul\":6404:6482   */\n      swap4\n      pop\n        /* \"#utility.yul\":6491:6556   */\n      tag_490\n        /* \"#utility.yul\":6549:6555   */\n      dup2\n        /* \"#utility.yul\":6544:6547   */\n      dup6\n        /* \"#utility.yul\":6537:6541   */\n      0x20\n        /* \"#utility.yul\":6530:6535   */\n      dup7\n        /* \"#utility.yul\":6526:6542   */\n      add\n        /* \"#utility.yul\":6491:6556   */\n      tag_347\n      jump\t// in\n    tag_490:\n        /* \"#utility.yul\":6581:6610   */\n      tag_491\n        /* \"#utility.yul\":6603:6609   */\n      dup2\n        /* \"#utility.yul\":6581:6610   */\n      tag_348\n      jump\t// in\n    tag_491:\n        /* \"#utility.yul\":6576:6579   */\n      dup5\n        /* \"#utility.yul\":6572:6611   */\n      add\n        /* \"#utility.yul\":6565:6611   */\n      swap2\n      pop\n        /* \"#utility.yul\":6332:6617   */\n      pop\n        /* \"#utility.yul\":6240:6617   */\n      swap3\n      swap2\n      pop\n      pop\n      jump\t// out\n        /* \"#utility.yul\":6623:7148   */\n    tag_62:\n        /* \"#utility.yul\":6788:6792   */\n      0x00\n        /* \"#utility.yul\":6826:6828   */\n      0x60\n        /* \"#utility.yul\":6815:6824   */\n      dup3\n        /* \"#utility.yul\":6811:6829   */\n      add\n        /* \"#utility.yul\":6803:6829   */\n      swap1\n      pop\n        /* \"#utility.yul\":6839:6908   */\n      tag_493\n        /* \"#utility.yul\":6905:6906   */\n      0x00\n        /* \"#utility.yul\":6894:6903   */\n      dup4\n        /* \"#utility.yul\":6890:6907   */\n      add\n        /* \"#utility.yul\":6881:6887   */\n      dup7\n        /* \"#utility.yul\":6839:6908   */\n      tag_345\n      jump\t// in\n    tag_493:\n        /* \"#utility.yul\":6918:6988   */\n      tag_494\n        /* \"#utility.yul\":6984:6986   */\n      0x20\n        /* \"#utility.yul\":6973:6982   */\n      dup4\n        /* \"#utility.yul\":6969:6987   */\n      add\n        /* \"#utility.yul\":6960:6966   */\n      dup6\n        /* \"#utility.yul\":6918:6988   */\n      tag_345\n      jump\t// in\n    tag_494:\n        /* \"#utility.yul\":7035:7044   */\n      dup2\n        /* \"#utility.yul\":7029:7033   */\n      dup2\n        /* \"#utility.yul\":7025:7045   */\n      sub\n        /* \"#utility.yul\":7020:7022   */\n      0x40\n        /* \"#utility.yul\":7009:7018   */\n      dup4\n        /* \"#utility.yul\":7005:7023   */\n      add\n        /* \"#utility.yul\":6998:7046   */\n      mstore\n        /* \"#utility.yul\":7063:7141   */\n      tag_495\n        /* \"#utility.yul\":7136:7140   */\n      dup2\n        /* \"#utility.yul\":7127:7133   */\n      dup5\n        /* \"#utility.yul\":7063:7141   */\n      tag_349\n      jump\t// in\n    tag_495:\n        /* \"#utility.yul\":7055:7141   */\n      swap1\n      pop\n        /* \"#utility.yul\":6623:7148   */\n      swap5\n      swap4\n      pop\n      pop\n      pop\n      pop\n      jump\t// out\n        /* \"#utility.yul\":7154:7274   */\n    tag_350:\n        /* \"#utility.yul\":7226:7249   */\n      tag_497\n        /* \"#utility.yul\":7243:7248   */\n      dup2\n        /* \"#utility.yul\":7226:7249   */\n      tag_344\n      jump\t// in\n    tag_497:\n        /* \"#utility.yul\":7219:7224   */\n      dup2\n        /* \"#utility.yul\":7216:7250   */\n      eq\n        /* \"#utility.yul\":7206:7268   */\n      tag_498\n      jumpi\n        /* \"#utility.yul\":7264:7265   */\n      0x00\n        /* \"#utility.yul\":7261:7262   */\n      dup1\n        /* \"#utility.yul\":7254:7266   */\n      revert\n        /* \"#utility.yul\":7206:7268   */\n    tag_498:\n        /* \"#utility.yul\":7154:7274   */\n      pop\n      jump\t// out\n        /* \"#utility.yul\":7280:7417   */\n    tag_351:\n        /* \"#utility.yul\":7325:7330   */\n      0x00\n        /* \"#utility.yul\":7363:7369   */\n      dup2\n        /* \"#utility.yul\":7350:7370   */\n      calldataload\n        /* \"#utility.yul\":7341:7370   */\n      swap1\n      pop\n        /* \"#utility.yul\":7379:7411   */\n      tag_500\n        /* \"#utility.yul\":7405:7410   */\n      dup2\n        /* \"#utility.yul\":7379:7411   */\n      tag_350\n      jump\t// in\n    tag_500:\n        /* \"#utility.yul\":7280:7417   */\n      swap3\n      swap2\n      pop\n      pop\n      jump\t// out\n        /* \"#utility.yul\":7423:7540   */\n    tag_352:\n        /* \"#utility.yul\":7532:7533   */\n      0x00\n        /* \"#utility.yul\":7529:7530   */\n      dup1\n        /* \"#utility.yul\":7522:7534   */\n      revert\n        /* \"#utility.yul\":7546:7663   */\n    tag_353:\n        /* \"#utility.yul\":7655:7656   */\n      0x00\n        /* \"#utility.yul\":7652:7653   */\n      dup1\n        /* \"#utility.yul\":7645:7657   */\n      revert\n        /* \"#utility.yul\":7669:7849   */\n    tag_354:\n        /* \"#utility.yul\":7717:7794   */\n      0x4e487b7100000000000000000000000000000000000000000000000000000000\n        /* \"#utility.yul\":7714:7715   */\n      0x00\n        /* \"#utility.yul\":7707:7795   */\n      mstore\n        /* \"#utility.yul\":7814:7818   */\n      0x41\n        /* \"#utility.yul\":7811:7812   */\n      0x04\n        /* \"#utility.yul\":7804:7819   */\n      mstore\n        /* \"#utility.yul\":7838:7842   */\n      0x24\n        /* \"#utility.yul\":7835:7836   */\n      0x00\n        /* \"#utility.yul\":7828:7843   */\n      revert\n        /* \"#utility.yul\":7855:8136   */\n    tag_355:\n        /* \"#utility.yul\":7938:7965   */\n      tag_505\n        /* \"#utility.yul\":7960:7964   */\n      dup3\n        /* \"#utility.yul\":7938:7965   */\n      tag_348\n      jump\t// in\n    tag_505:\n        /* \"#utility.yul\":7930:7936   */\n      dup2\n        /* \"#utility.yul\":7926:7966   */\n      add\n        /* \"#utility.yul\":8068:8074   */\n      dup2\n        /* \"#utility.yul\":8056:8066   */\n      dup2\n        /* \"#utility.yul\":8053:8075   */\n      lt\n        /* \"#utility.yul\":8032:8050   */\n      0xffffffffffffffff\n        /* \"#utility.yul\":8020:8030   */\n      dup3\n        /* \"#utility.yul\":8017:8051   */\n      gt\n        /* \"#utility.yul\":8014:8076   */\n      or\n        /* \"#utility.yul\":8011:8099   */\n      iszero\n      tag_506\n      jumpi\n        /* \"#utility.yul\":8079:8097   */\n      tag_507\n      tag_354\n      jump\t// in\n    tag_507:\n        /* \"#utility.yul\":8011:8099   */\n    tag_506:\n        /* \"#utility.yul\":8119:8129   */\n      dup1\n        /* \"#utility.yul\":8115:8117   */\n      0x40\n        /* \"#utility.yul\":8108:8130   */\n      mstore\n        /* \"#utility.yul\":7898:8136   */\n      pop\n        /* \"#utility.yul\":7855:8136   */\n      pop\n      pop\n      jump\t// out\n        /* \"#utility.yul\":8142:8271   */\n    tag_356:\n        /* \"#utility.yul\":8176:8182   */\n      0x00\n        /* \"#utility.yul\":8203:8223   */\n      tag_509\n      tag_329\n      jump\t// in\n    tag_509:\n        /* \"#utility.yul\":8193:8223   */\n      swap1\n      pop\n        /* \"#utility.yul\":8232:8265   */\n      tag_510\n        /* \"#utility.yul\":8260:8264   */\n      dup3\n        /* \"#utility.yul\":8252:8258   */\n      dup3\n        /* \"#utility.yul\":8232:8265   */\n      tag_355\n      jump\t// in\n    tag_510:\n        /* \"#utility.yul\":8142:8271   */\n      swap2\n      swap1\n      pop\n      jump\t// out\n        /* \"#utility.yul\":8277:8585   */\n    tag_357:\n        /* \"#utility.yul\":8339:8343   */\n      0x00\n        /* \"#utility.yul\":8429:8447   */\n      0xffffffffffffffff\n        /* \"#utility.yul\":8421:8427   */\n      dup3\n        /* \"#utility.yul\":8418:8448   */\n      gt\n        /* \"#utility.yul\":8415:8471   */\n      iszero\n      tag_512\n      jumpi\n        /* \"#utility.yul\":8451:8469   */\n      tag_513\n      tag_354\n      jump\t// in\n    tag_513:\n        /* \"#utility.yul\":8415:8471   */\n    tag_512:\n        /* \"#utility.yul\":8489:8518   */\n      tag_514\n        /* \"#utility.yul\":8511:8517   */\n      dup3\n        /* \"#utility.yul\":8489:8518   */\n      tag_348\n      jump\t// in\n    tag_514:\n        /* \"#utility.yul\":8481:8518   */\n      swap1\n      pop\n        /* \"#utility.yul\":8573:8577   */\n      0x20\n        /* \"#utility.yul\":8567:8571   */\n      dup2\n        /* \"#utility.yul\":8563:8578   */\n      add\n        /* \"#utility.yul\":8555:8578   */\n      swap1\n      pop\n        /* \"#utility.yul\":8277:8585   */\n      swap2\n      swap1\n      pop\n      jump\t// out\n        /* \"#utility.yul\":8591:8739   */\n    tag_358:\n        /* \"#utility.yul\":8689:8695   */\n      dup3\n        /* \"#utility.yul\":8684:8687   */\n      dup2\n        /* \"#utility.yul\":8679:8682   */\n      dup4\n        /* \"#utility.yul\":8666:8696   */\n      calldatacopy\n        /* \"#utility.yul\":8730:8731   */\n      0x00\n        /* \"#utility.yul\":8721:8727   */\n      dup4\n        /* \"#utility.yul\":8716:8719   */\n      dup4\n        /* \"#utility.yul\":8712:8728   */\n      add\n        /* \"#utility.yul\":8705:8732   */\n      mstore\n        /* \"#utility.yul\":8591:8739   */\n      pop\n      pop\n      pop\n      jump\t// out\n        /* \"#utility.yul\":8745:9170   */\n    tag_359:\n        /* \"#utility.yul\":8823:8828   */\n      0x00\n        /* \"#utility.yul\":8848:8914   */\n      tag_517\n        /* \"#utility.yul\":8864:8913   */\n      tag_518\n        /* \"#utility.yul\":8906:8912   */\n      dup5\n        /* \"#utility.yul\":8864:8913   */\n      tag_357\n      jump\t// in\n    tag_518:\n        /* \"#utility.yul\":8848:8914   */\n      tag_356\n      jump\t// in\n    tag_517:\n        /* \"#utility.yul\":8839:8914   */\n      swap1\n      pop\n        /* \"#utility.yul\":8937:8943   */\n      dup3\n        /* \"#utility.yul\":8930:8935   */\n      dup2\n        /* \"#utility.yul\":8923:8944   */\n      mstore\n        /* \"#utility.yul\":8975:8979   */\n      0x20\n        /* \"#utility.yul\":8968:8973   */\n      dup2\n        /* \"#utility.yul\":8964:8980   */\n      add\n        /* \"#utility.yul\":9013:9016   */\n      dup5\n        /* \"#utility.yul\":9004:9010   */\n      dup5\n        /* \"#utility.yul\":8999:9002   */\n      dup5\n        /* \"#utility.yul\":8995:9011   */\n      add\n        /* \"#utility.yul\":8992:9017   */\n      gt\n        /* \"#utility.yul\":8989:9101   */\n      iszero\n      tag_519\n      jumpi\n        /* \"#utility.yul\":9020:9099   */\n      tag_520\n      tag_353\n      jump\t// in\n    tag_520:\n        /* \"#utility.yul\":8989:9101   */\n    tag_519:\n        /* \"#utility.yul\":9110:9164   */\n      tag_521\n        /* \"#utility.yul\":9157:9163   */\n      dup5\n        /* \"#utility.yul\":9152:9155   */\n      dup3\n        /* \"#utility.yul\":9147:9150   */\n      dup6\n        /* \"#utility.yul\":9110:9164   */\n      tag_358\n      jump\t// in\n    tag_521:\n        /* \"#utility.yul\":8829:9170   */\n      pop\n        /* \"#utility.yul\":8745:9170   */\n      swap4\n      swap3\n      pop\n      pop\n      pop\n      jump\t// out\n        /* \"#utility.yul\":9190:9530   */\n    tag_360:\n        /* \"#utility.yul\":9246:9251   */\n      0x00\n        /* \"#utility.yul\":9295:9298   */\n      dup3\n        /* \"#utility.yul\":9288:9292   */\n      0x1f\n        /* \"#utility.yul\":9280:9286   */\n      dup4\n        /* \"#utility.yul\":9276:9293   */\n      add\n        /* \"#utility.yul\":9272:9299   */\n      slt\n        /* \"#utility.yul\":9262:9384   */\n      tag_523\n      jumpi\n        /* \"#utility.yul\":9303:9382   */\n      tag_524\n      tag_352\n      jump\t// in\n    tag_524:\n        /* \"#utility.yul\":9262:9384   */\n    tag_523:\n        /* \"#utility.yul\":9420:9426   */\n      dup2\n        /* \"#utility.yul\":9407:9427   */\n      calldataload\n        /* \"#utility.yul\":9445:9524   */\n      tag_525\n        /* \"#utility.yul\":9520:9523   */\n      dup5\n        /* \"#utility.yul\":9512:9518   */\n      dup3\n        /* \"#utility.yul\":9505:9509   */\n      0x20\n        /* \"#utility.yul\":9497:9503   */\n      dup7\n        /* \"#utility.yul\":9493:9510   */\n      add\n        /* \"#utility.yul\":9445:9524   */\n      tag_359\n      jump\t// in\n    tag_525:\n        /* \"#utility.yul\":9436:9524   */\n      swap2\n      pop\n        /* \"#utility.yul\":9252:9530   */\n      pop\n        /* \"#utility.yul\":9190:9530   */\n      swap3\n      swap2\n      pop\n      pop\n      jump\t// out\n        /* \"#utility.yul\":9536:10331   */\n    tag_70:\n        /* \"#utility.yul\":9621:9627   */\n      0x00\n        /* \"#utility.yul\":9629:9635   */\n      dup1\n        /* \"#utility.yul\":9637:9643   */\n      0x00\n        /* \"#utility.yul\":9686:9688   */\n      0x60\n        /* \"#utility.yul\":9674:9683   */\n      dup5\n        /* \"#utility.yul\":9665:9672   */\n      dup7\n        /* \"#utility.yul\":9661:9684   */\n      sub\n        /* \"#utility.yul\":9657:9689   */\n      slt\n        /* \"#utility.yul\":9654:9773   */\n      iszero\n      tag_527\n      jumpi\n        /* \"#utility.yul\":9692:9771   */\n      tag_528\n      tag_330\n      jump\t// in\n    tag_528:\n        /* \"#utility.yul\":9654:9773   */\n    tag_527:\n        /* \"#utility.yul\":9812:9813   */\n      0x00\n        /* \"#utility.yul\":9837:9889   */\n      tag_529\n        /* \"#utility.yul\":9881:9888   */\n      dup7\n        /* \"#utility.yul\":9872:9878   */\n      dup3\n        /* \"#utility.yul\":9861:9870   */\n      dup8\n        /* \"#utility.yul\":9857:9879   */\n      add\n        /* \"#utility.yul\":9837:9889   */\n      tag_351\n      jump\t// in\n    tag_529:\n        /* \"#utility.yul\":9827:9889   */\n      swap4\n      pop\n        /* \"#utility.yul\":9783:9899   */\n      pop\n        /* \"#utility.yul\":9938:9940   */\n      0x20\n        /* \"#utility.yul\":9964:10016   */\n      tag_530\n        /* \"#utility.yul\":10008:10015   */\n      dup7\n        /* \"#utility.yul\":9999:10005   */\n      dup3\n        /* \"#utility.yul\":9988:9997   */\n      dup8\n        /* \"#utility.yul\":9984:10006   */\n      add\n        /* \"#utility.yul\":9964:10016   */\n      tag_351\n      jump\t// in\n    tag_530:\n        /* \"#utility.yul\":9954:10016   */\n      swap3\n      pop\n        /* \"#utility.yul\":9909:10026   */\n      pop\n        /* \"#utility.yul\":10093:10095   */\n      0x40\n        /* \"#utility.yul\":10082:10091   */\n      dup5\n        /* \"#utility.yul\":10078:10096   */\n      add\n        /* \"#utility.yul\":10065:10097   */\n      calldataload\n        /* \"#utility.yul\":10124:10142   */\n      0xffffffffffffffff\n        /* \"#utility.yul\":10116:10122   */\n      dup2\n        /* \"#utility.yul\":10113:10143   */\n      gt\n        /* \"#utility.yul\":10110:10227   */\n      iszero\n      tag_531\n      jumpi\n        /* \"#utility.yul\":10146:10225   */\n      tag_532\n      tag_331\n      jump\t// in\n    tag_532:\n        /* \"#utility.yul\":10110:10227   */\n    tag_531:\n        /* \"#utility.yul\":10251:10314   */\n      tag_533\n        /* \"#utility.yul\":10306:10313   */\n      dup7\n        /* \"#utility.yul\":10297:10303   */\n      dup3\n        /* \"#utility.yul\":10286:10295   */\n      dup8\n        /* \"#utility.yul\":10282:10304   */\n      add\n        /* \"#utility.yul\":10251:10314   */\n      tag_360\n      jump\t// in\n    tag_533:\n        /* \"#utility.yul\":10241:10314   */\n      swap2\n      pop\n        /* \"#utility.yul\":10036:10324   */\n      pop\n        /* \"#utility.yul\":9536:10331   */\n      swap3\n      pop\n      swap3\n      pop\n      swap3\n      jump\t// out\n        /* \"#utility.yul\":10337:10956   */\n    tag_85:\n        /* \"#utility.yul\":10414:10420   */\n      0x00\n        /* \"#utility.yul\":10422:10428   */\n      dup1\n        /* \"#utility.yul\":10430:10436   */\n      0x00\n        /* \"#utility.yul\":10479:10481   */\n      0x60\n        /* \"#utility.yul\":10467:10476   */\n      dup5\n        /* \"#utility.yul\":10458:10465   */\n      dup7\n        /* \"#utility.yul\":10454:10477   */\n      sub\n        /* \"#utility.yul\":10450:10482   */\n      slt\n        /* \"#utility.yul\":10447:10566   */\n      iszero\n      tag_535\n      jumpi\n        /* \"#utility.yul\":10485:10564   */\n      tag_536\n      tag_330\n      jump\t// in\n    tag_536:\n        /* \"#utility.yul\":10447:10566   */\n    tag_535:\n        /* \"#utility.yul\":10605:10606   */\n      0x00\n        /* \"#utility.yul\":10630:10683   */\n      tag_537\n        /* \"#utility.yul\":10675:10682   */\n      dup7\n        /* \"#utility.yul\":10666:10672   */\n      dup3\n        /* \"#utility.yul\":10655:10664   */\n      dup8\n        /* \"#utility.yul\":10651:10673   */\n      add\n        /* \"#utility.yul\":10630:10683   */\n      tag_335\n      jump\t// in\n    tag_537:\n        /* \"#utility.yul\":10620:10683   */\n      swap4\n      pop\n        /* \"#utility.yul\":10576:10693   */\n      pop\n        /* \"#utility.yul\":10732:10734   */\n      0x20\n        /* \"#utility.yul\":10758:10811   */\n      tag_538\n        /* \"#utility.yul\":10803:10810   */\n      dup7\n        /* \"#utility.yul\":10794:10800   */\n      dup3\n        /* \"#utility.yul\":10783:10792   */\n      dup8\n        /* \"#utility.yul\":10779:10801   */\n      add\n        /* \"#utility.yul\":10758:10811   */\n      tag_335\n      jump\t// in\n    tag_538:\n        /* \"#utility.yul\":10748:10811   */\n      swap3\n      pop\n        /* \"#utility.yul\":10703:10821   */\n      pop\n        /* \"#utility.yul\":10860:10862   */\n      0x40\n        /* \"#utility.yul\":10886:10939   */\n      tag_539\n        /* \"#utility.yul\":10931:10938   */\n      dup7\n        /* \"#utility.yul\":10922:10928   */\n      dup3\n        /* \"#utility.yul\":10911:10920   */\n      dup8\n        /* \"#utility.yul\":10907:10929   */\n      add\n        /* \"#utility.yul\":10886:10939   */\n      tag_338\n      jump\t// in\n    tag_539:\n        /* \"#utility.yul\":10876:10939   */\n      swap2\n      pop\n        /* \"#utility.yul\":10831:10949   */\n      pop\n        /* \"#utility.yul\":10337:10956   */\n      swap3\n      pop\n      swap3\n      pop\n      swap3\n      jump\t// out\n        /* \"#utility.yul\":10962:11079   */\n    tag_361:\n        /* \"#utility.yul\":11071:11072   */\n      0x00\n        /* \"#utility.yul\":11068:11069   */\n      dup1\n        /* \"#utility.yul\":11061:11073   */\n      revert\n        /* \"#utility.yul\":11085:11202   */\n    tag_362:\n        /* \"#utility.yul\":11194:11195   */\n      0x00\n        /* \"#utility.yul\":11191:11192   */\n      dup1\n        /* \"#utility.yul\":11184:11196   */\n      revert\n        /* \"#utility.yul\":11225:11793   */\n    tag_363:\n        /* \"#utility.yul\":11298:11306   */\n      0x00\n        /* \"#utility.yul\":11308:11314   */\n      dup1\n        /* \"#utility.yul\":11358:11361   */\n      dup4\n        /* \"#utility.yul\":11351:11355   */\n      0x1f\n        /* \"#utility.yul\":11343:11349   */\n      dup5\n        /* \"#utility.yul\":11339:11356   */\n      add\n        /* \"#utility.yul\":11335:11362   */\n      slt\n        /* \"#utility.yul\":11325:11447   */\n      tag_543\n      jumpi\n        /* \"#utility.yul\":11366:11445   */\n      tag_544\n      tag_352\n      jump\t// in\n    tag_544:\n        /* \"#utility.yul\":11325:11447   */\n    tag_543:\n        /* \"#utility.yul\":11479:11485   */\n      dup3\n        /* \"#utility.yul\":11466:11486   */\n      calldataload\n        /* \"#utility.yul\":11456:11486   */\n      swap1\n      pop\n        /* \"#utility.yul\":11509:11527   */\n      0xffffffffffffffff\n        /* \"#utility.yul\":11501:11507   */\n      dup2\n        /* \"#utility.yul\":11498:11528   */\n      gt\n        /* \"#utility.yul\":11495:11612   */\n      iszero\n      tag_545\n      jumpi\n        /* \"#utility.yul\":11531:11610   */\n      tag_546\n      tag_361\n      jump\t// in\n    tag_546:\n        /* \"#utility.yul\":11495:11612   */\n    tag_545:\n        /* \"#utility.yul\":11645:11649   */\n      0x20\n        /* \"#utility.yul\":11637:11643   */\n      dup4\n        /* \"#utility.yul\":11633:11650   */\n      add\n        /* \"#utility.yul\":11621:11650   */\n      swap2\n      pop\n        /* \"#utility.yul\":11699:11702   */\n      dup4\n        /* \"#utility.yul\":11691:11695   */\n      0x20\n        /* \"#utility.yul\":11683:11689   */\n      dup3\n        /* \"#utility.yul\":11679:11696   */\n      mul\n        /* \"#utility.yul\":11669:11677   */\n      dup4\n        /* \"#utility.yul\":11665:11697   */\n      add\n        /* \"#utility.yul\":11662:11703   */\n      gt\n        /* \"#utility.yul\":11659:11787   */\n      iszero\n      tag_547\n      jumpi\n        /* \"#utility.yul\":11706:11785   */\n      tag_548\n      tag_362\n      jump\t// in\n    tag_548:\n        /* \"#utility.yul\":11659:11787   */\n    tag_547:\n        /* \"#utility.yul\":11225:11793   */\n      swap3\n      pop\n      swap3\n      swap1\n      pop\n      jump\t// out\n        /* \"#utility.yul\":11816:12384   */\n    tag_364:\n        /* \"#utility.yul\":11889:11897   */\n      0x00\n        /* \"#utility.yul\":11899:11905   */\n      dup1\n        /* \"#utility.yul\":11949:11952   */\n      dup4\n        /* \"#utility.yul\":11942:11946   */\n      0x1f\n        /* \"#utility.yul\":11934:11940   */\n      dup5\n        /* \"#utility.yul\":11930:11947   */\n      add\n        /* \"#utility.yul\":11926:11953   */\n      slt\n        /* \"#utility.yul\":11916:12038   */\n      tag_550\n      jumpi\n        /* \"#utility.yul\":11957:12036   */\n      tag_551\n      tag_352\n      jump\t// in\n    tag_551:\n        /* \"#utility.yul\":11916:12038   */\n    tag_550:\n        /* \"#utility.yul\":12070:12076   */\n      dup3\n        /* \"#utility.yul\":12057:12077   */\n      calldataload\n        /* \"#utility.yul\":12047:12077   */\n      swap1\n      pop\n        /* \"#utility.yul\":12100:12118   */\n      0xffffffffffffffff\n        /* \"#utility.yul\":12092:12098   */\n      dup2\n        /* \"#utility.yul\":12089:12119   */\n      gt\n        /* \"#utility.yul\":12086:12203   */\n      iszero\n      tag_552\n      jumpi\n        /* \"#utility.yul\":12122:12201   */\n      tag_553\n      tag_361\n      jump\t// in\n    tag_553:\n        /* \"#utility.yul\":12086:12203   */\n    tag_552:\n        /* \"#utility.yul\":12236:12240   */\n      0x20\n        /* \"#utility.yul\":12228:12234   */\n      dup4\n        /* \"#utility.yul\":12224:12241   */\n      add\n        /* \"#utility.yul\":12212:12241   */\n      swap2\n      pop\n        /* \"#utility.yul\":12290:12293   */\n      dup4\n        /* \"#utility.yul\":12282:12286   */\n      0x20\n        /* \"#utility.yul\":12274:12280   */\n      dup3\n        /* \"#utility.yul\":12270:12287   */\n      mul\n        /* \"#utility.yul\":12260:12268   */\n      dup4\n        /* \"#utility.yul\":12256:12288   */\n      add\n        /* \"#utility.yul\":12253:12294   */\n      gt\n        /* \"#utility.yul\":12250:12378   */\n      iszero\n      tag_554\n      jumpi\n        /* \"#utility.yul\":12297:12376   */\n      tag_555\n      tag_362\n      jump\t// in\n    tag_555:\n        /* \"#utility.yul\":12250:12378   */\n    tag_554:\n        /* \"#utility.yul\":11816:12384   */\n      swap3\n      pop\n      swap3\n      swap1\n      pop\n      jump\t// out\n        /* \"#utility.yul\":12390:13469   */\n    tag_90:\n        /* \"#utility.yul\":12521:12527   */\n      0x00\n        /* \"#utility.yul\":12529:12535   */\n      dup1\n        /* \"#utility.yul\":12537:12543   */\n      0x00\n        /* \"#utility.yul\":12545:12551   */\n      dup1\n        /* \"#utility.yul\":12553:12559   */\n      0x00\n        /* \"#utility.yul\":12602:12604   */\n      0x60\n        /* \"#utility.yul\":12590:12599   */\n      dup7\n        /* \"#utility.yul\":12581:12588   */\n      dup9\n        /* \"#utility.yul\":12577:12600   */\n      sub\n        /* \"#utility.yul\":12573:12605   */\n      slt\n        /* \"#utility.yul\":12570:12689   */\n      iszero\n      tag_557\n      jumpi\n        /* \"#utility.yul\":12608:12687   */\n      tag_558\n      tag_330\n      jump\t// in\n    tag_558:\n        /* \"#utility.yul\":12570:12689   */\n    tag_557:\n        /* \"#utility.yul\":12728:12729   */\n      0x00\n        /* \"#utility.yul\":12753:12806   */\n      tag_559\n        /* \"#utility.yul\":12798:12805   */\n      dup9\n        /* \"#utility.yul\":12789:12795   */\n      dup3\n        /* \"#utility.yul\":12778:12787   */\n      dup10\n        /* \"#utility.yul\":12774:12796   */\n      add\n        /* \"#utility.yul\":12753:12806   */\n      tag_335\n      jump\t// in\n    tag_559:\n        /* \"#utility.yul\":12743:12806   */\n      swap6\n      pop\n        /* \"#utility.yul\":12699:12816   */\n      pop\n        /* \"#utility.yul\":12883:12885   */\n      0x20\n        /* \"#utility.yul\":12872:12881   */\n      dup7\n        /* \"#utility.yul\":12868:12886   */\n      add\n        /* \"#utility.yul\":12855:12887   */\n      calldataload\n        /* \"#utility.yul\":12914:12932   */\n      0xffffffffffffffff\n        /* \"#utility.yul\":12906:12912   */\n      dup2\n        /* \"#utility.yul\":12903:12933   */\n      gt\n        /* \"#utility.yul\":12900:13017   */\n      iszero\n      tag_560\n      jumpi\n        /* \"#utility.yul\":12936:13015   */\n      tag_561\n      tag_331\n      jump\t// in\n    tag_561:\n        /* \"#utility.yul\":12900:13017   */\n    tag_560:\n        /* \"#utility.yul\":13049:13129   */\n      tag_562\n        /* \"#utility.yul\":13121:13128   */\n      dup9\n        /* \"#utility.yul\":13112:13118   */\n      dup3\n        /* \"#utility.yul\":13101:13110   */\n      dup10\n        /* \"#utility.yul\":13097:13119   */\n      add\n        /* \"#utility.yul\":13049:13129   */\n      tag_363\n      jump\t// in\n    tag_562:\n        /* \"#utility.yul\":13031:13129   */\n      swap5\n      pop\n      swap5\n      pop\n        /* \"#utility.yul\":12826:13139   */\n      pop\n        /* \"#utility.yul\":13206:13208   */\n      0x40\n        /* \"#utility.yul\":13195:13204   */\n      dup7\n        /* \"#utility.yul\":13191:13209   */\n      add\n        /* \"#utility.yul\":13178:13210   */\n      calldataload\n        /* \"#utility.yul\":13237:13255   */\n      0xffffffffffffffff\n        /* \"#utility.yul\":13229:13235   */\n      dup2\n        /* \"#utility.yul\":13226:13256   */\n      gt\n        /* \"#utility.yul\":13223:13340   */\n      iszero\n      tag_563\n      jumpi\n        /* \"#utility.yul\":13259:13338   */\n      tag_564\n      tag_331\n      jump\t// in\n    tag_564:\n        /* \"#utility.yul\":13223:13340   */\n    tag_563:\n        /* \"#utility.yul\":13372:13452   */\n      tag_565\n        /* \"#utility.yul\":13444:13451   */\n      dup9\n        /* \"#utility.yul\":13435:13441   */\n      dup3\n        /* \"#utility.yul\":13424:13433   */\n      dup10\n        /* \"#utility.yul\":13420:13442   */\n      add\n        /* \"#utility.yul\":13372:13452   */\n      tag_364\n      jump\t// in\n    tag_565:\n        /* \"#utility.yul\":13354:13452   */\n      swap3\n      pop\n      swap3\n      pop\n        /* \"#utility.yul\":13149:13462   */\n      pop\n        /* \"#utility.yul\":12390:13469   */\n      swap3\n      swap6\n      pop\n      swap3\n      swap6\n      swap1\n      swap4\n      pop\n      jump\t// out\n        /* \"#utility.yul\":13475:13615   */\n    tag_365:\n        /* \"#utility.yul\":13524:13533   */\n      0x00\n        /* \"#utility.yul\":13557:13609   */\n      tag_567\n        /* \"#utility.yul\":13575:13608   */\n      tag_568\n        /* \"#utility.yul\":13584:13607   */\n      tag_569\n        /* \"#utility.yul\":13601:13606   */\n      dup5\n        /* \"#utility.yul\":13584:13607   */\n      tag_344\n      jump\t// in\n    tag_569:\n        /* \"#utility.yul\":13575:13608   */\n      tag_339\n      jump\t// in\n    tag_568:\n        /* \"#utility.yul\":13557:13609   */\n      tag_323\n      jump\t// in\n    tag_567:\n        /* \"#utility.yul\":13544:13609   */\n      swap1\n      pop\n        /* \"#utility.yul\":13475:13615   */\n      swap2\n      swap1\n      pop\n      jump\t// out\n        /* \"#utility.yul\":13621:13750   */\n    tag_366:\n        /* \"#utility.yul\":13707:13743   */\n      tag_571\n        /* \"#utility.yul\":13737:13742   */\n      dup2\n        /* \"#utility.yul\":13707:13743   */\n      tag_365\n      jump\t// in\n    tag_571:\n        /* \"#utility.yul\":13702:13705   */\n      dup3\n        /* \"#utility.yul\":13695:13744   */\n      mstore\n        /* \"#utility.yul\":13621:13750   */\n      pop\n      pop\n      jump\t// out\n        /* \"#utility.yul\":13756:14194   */\n    tag_107:\n        /* \"#utility.yul\":13903:13907   */\n      0x00\n        /* \"#utility.yul\":13941:13943   */\n      0x60\n        /* \"#utility.yul\":13930:13939   */\n      dup3\n        /* \"#utility.yul\":13926:13944   */\n      add\n        /* \"#utility.yul\":13918:13944   */\n      swap1\n      pop\n        /* \"#utility.yul\":13954:14025   */\n      tag_573\n        /* \"#utility.yul\":14022:14023   */\n      0x00\n        /* \"#utility.yul\":14011:14020   */\n      dup4\n        /* \"#utility.yul\":14007:14024   */\n      add\n        /* \"#utility.yul\":13998:14004   */\n      dup7\n        /* \"#utility.yul\":13954:14025   */\n      tag_325\n      jump\t// in\n    tag_573:\n        /* \"#utility.yul\":14035:14106   */\n      tag_574\n        /* \"#utility.yul\":14102:14104   */\n      0x20\n        /* \"#utility.yul\":14091:14100   */\n      dup4\n        /* \"#utility.yul\":14087:14105   */\n      add\n        /* \"#utility.yul\":14078:14084   */\n      dup6\n        /* \"#utility.yul\":14035:14106   */\n      tag_366\n      jump\t// in\n    tag_574:\n        /* \"#utility.yul\":14116:14187   */\n      tag_575\n        /* \"#utility.yul\":14183:14185   */\n      0x40\n        /* \"#utility.yul\":14172:14181   */\n      dup4\n        /* \"#utility.yul\":14168:14186   */\n      add\n        /* \"#utility.yul\":14159:14165   */\n      dup5\n        /* \"#utility.yul\":14116:14187   */\n      tag_366\n      jump\t// in\n    tag_575:\n        /* \"#utility.yul\":13756:14194   */\n      swap5\n      swap4\n      pop\n      pop\n      pop\n      pop\n      jump\t// out\n        /* \"#utility.yul\":14200:14369   */\n    tag_367:\n        /* \"#utility.yul\":14340:14361   */\n      0x4e6f20636c61696d61626c6520616d6f756e7400000000000000000000000000\n        /* \"#utility.yul\":14336:14337   */\n      0x00\n        /* \"#utility.yul\":14328:14334   */\n      dup3\n        /* \"#utility.yul\":14324:14338   */\n      add\n        /* \"#utility.yul\":14317:14362   */\n      mstore\n        /* \"#utility.yul\":14200:14369   */\n      pop\n      jump\t// out\n        /* \"#utility.yul\":14375:14741   */\n    tag_368:\n        /* \"#utility.yul\":14517:14520   */\n      0x00\n        /* \"#utility.yul\":14538:14605   */\n      tag_578\n        /* \"#utility.yul\":14602:14604   */\n      0x13\n        /* \"#utility.yul\":14597:14600   */\n      dup4\n        /* \"#utility.yul\":14538:14605   */\n      tag_326\n      jump\t// in\n    tag_578:\n        /* \"#utility.yul\":14531:14605   */\n      swap2\n      pop\n        /* \"#utility.yul\":14614:14707   */\n      tag_579\n        /* \"#utility.yul\":14703:14706   */\n      dup3\n        /* \"#utility.yul\":14614:14707   */\n      tag_367\n      jump\t// in\n    tag_579:\n        /* \"#utility.yul\":14732:14734   */\n      0x20\n        /* \"#utility.yul\":14727:14730   */\n      dup3\n        /* \"#utility.yul\":14723:14735   */\n      add\n        /* \"#utility.yul\":14716:14735   */\n      swap1\n      pop\n        /* \"#utility.yul\":14375:14741   */\n      swap2\n      swap1\n      pop\n      jump\t// out\n        /* \"#utility.yul\":14747:15166   */\n    tag_110:\n        /* \"#utility.yul\":14913:14917   */\n      0x00\n        /* \"#utility.yul\":14951:14953   */\n      0x20\n        /* \"#utility.yul\":14940:14949   */\n      dup3\n        /* \"#utility.yul\":14936:14954   */\n      add\n        /* \"#utility.yul\":14928:14954   */\n      swap1\n      pop\n        /* \"#utility.yul\":15000:15009   */\n      dup2\n        /* \"#utility.yul\":14994:14998   */\n      dup2\n        /* \"#utility.yul\":14990:15010   */\n      sub\n        /* \"#utility.yul\":14986:14987   */\n      0x00\n        /* \"#utility.yul\":14975:14984   */\n      dup4\n        /* \"#utility.yul\":14971:14988   */\n      add\n        /* \"#utility.yul\":14964:15011   */\n      mstore\n        /* \"#utility.yul\":15028:15159   */\n      tag_581\n        /* \"#utility.yul\":15154:15158   */\n      dup2\n        /* \"#utility.yul\":15028:15159   */\n      tag_368\n      jump\t// in\n    tag_581:\n        /* \"#utility.yul\":15020:15159   */\n      swap1\n      pop\n        /* \"#utility.yul\":14747:15166   */\n      swap2\n      swap1\n      pop\n      jump\t// out\n        /* \"#utility.yul\":15172:15347   */\n    tag_369:\n        /* \"#utility.yul\":15312:15339   */\n      0x496e73756666696369656e742066756e647320696e206a617200000000000000\n        /* \"#utility.yul\":15308:15309   */\n      0x00\n        /* \"#utility.yul\":15300:15306   */\n      dup3\n        /* \"#utility.yul\":15296:15310   */\n      add\n        /* \"#utility.yul\":15289:15340   */\n      mstore\n        /* \"#utility.yul\":15172:15347   */\n      pop\n      jump\t// out\n        /* \"#utility.yul\":15353:15719   */\n    tag_370:\n        /* \"#utility.yul\":15495:15498   */\n      0x00\n        /* \"#utility.yul\":15516:15583   */\n      tag_584\n        /* \"#utility.yul\":15580:15582   */\n      0x19\n        /* \"#utility.yul\":15575:15578   */\n      dup4\n        /* \"#utility.yul\":15516:15583   */\n      tag_326\n      jump\t// in\n    tag_584:\n        /* \"#utility.yul\":15509:15583   */\n      swap2\n      pop\n        /* \"#utility.yul\":15592:15685   */\n      tag_585\n        /* \"#utility.yul\":15681:15684   */\n      dup3\n        /* \"#utility.yul\":15592:15685   */\n      tag_369\n      jump\t// in\n    tag_585:\n        /* \"#utility.yul\":15710:15712   */\n      0x20\n        /* \"#utility.yul\":15705:15708   */\n      dup3\n        /* \"#utility.yul\":15701:15713   */\n      add\n        /* \"#utility.yul\":15694:15713   */\n      swap1\n      pop\n        /* \"#utility.yul\":15353:15719   */\n      swap2\n      swap1\n      pop\n      jump\t// out\n        /* \"#utility.yul\":15725:16144   */\n    tag_113:\n        /* \"#utility.yul\":15891:15895   */\n      0x00\n        /* \"#utility.yul\":15929:15931   */\n      0x20\n        /* \"#utility.yul\":15918:15927   */\n      dup3\n        /* \"#utility.yul\":15914:15932   */\n      add\n        /* \"#utility.yul\":15906:15932   */\n      swap1\n      pop\n        /* \"#utility.yul\":15978:15987   */\n      dup2\n        /* \"#utility.yul\":15972:15976   */\n      dup2\n        /* \"#utility.yul\":15968:15988   */\n      sub\n        /* \"#utility.yul\":15964:15965   */\n      0x00\n        /* \"#utility.yul\":15953:15962   */\n      dup4\n        /* \"#utility.yul\":15949:15966   */\n      add\n        /* \"#utility.yul\":15942:15989   */\n      mstore\n        /* \"#utility.yul\":16006:16137   */\n      tag_587\n        /* \"#utility.yul\":16132:16136   */\n      dup2\n        /* \"#utility.yul\":16006:16137   */\n      tag_370\n      jump\t// in\n    tag_587:\n        /* \"#utility.yul\":15998:16137   */\n      swap1\n      pop\n        /* \"#utility.yul\":15725:16144   */\n      swap2\n      swap1\n      pop\n      jump\t// out\n        /* \"#utility.yul\":16150:16344   */\n    tag_115:\n        /* \"#utility.yul\":16190:16194   */\n      0x00\n        /* \"#utility.yul\":16210:16230   */\n      tag_589\n        /* \"#utility.yul\":16228:16229   */\n      dup3\n        /* \"#utility.yul\":16210:16230   */\n      tag_323\n      jump\t// in\n    tag_589:\n        /* \"#utility.yul\":16205:16230   */\n      swap2\n      pop\n        /* \"#utility.yul\":16244:16264   */\n      tag_590\n        /* \"#utility.yul\":16262:16263   */\n      dup4\n        /* \"#utility.yul\":16244:16264   */\n      tag_323\n      jump\t// in\n    tag_590:\n        /* \"#utility.yul\":16239:16264   */\n      swap3\n      pop\n        /* \"#utility.yul\":16288:16289   */\n      dup3\n        /* \"#utility.yul\":16285:16286   */\n      dup3\n        /* \"#utility.yul\":16281:16290   */\n      sub\n        /* \"#utility.yul\":16273:16290   */\n      swap1\n      pop\n        /* \"#utility.yul\":16312:16313   */\n      dup2\n        /* \"#utility.yul\":16306:16310   */\n      dup2\n        /* \"#utility.yul\":16303:16314   */\n      gt\n        /* \"#utility.yul\":16300:16337   */\n      iszero\n      tag_591\n      jumpi\n        /* \"#utility.yul\":16317:16335   */\n      tag_592\n      tag_324\n      jump\t// in\n    tag_592:\n        /* \"#utility.yul\":16300:16337   */\n    tag_591:\n        /* \"#utility.yul\":16150:16344   */\n      swap3\n      swap2\n      pop\n      pop\n      jump\t// out\n        /* \"#utility.yul\":16350:16497   */\n    tag_371:\n        /* \"#utility.yul\":16451:16462   */\n      0x00\n        /* \"#utility.yul\":16488:16491   */\n      dup2\n        /* \"#utility.yul\":16473:16491   */\n      swap1\n      pop\n        /* \"#utility.yul\":16350:16497   */\n      swap3\n      swap2\n      pop\n      pop\n      jump\t// out\n        /* \"#utility.yul\":16503:16617   */\n    tag_372:\n      pop\n      jump\t// out\n        /* \"#utility.yul\":16623:17021   */\n    tag_373:\n        /* \"#utility.yul\":16782:16785   */\n      0x00\n        /* \"#utility.yul\":16803:16886   */\n      tag_596\n        /* \"#utility.yul\":16884:16885   */\n      0x00\n        /* \"#utility.yul\":16879:16882   */\n      dup4\n        /* \"#utility.yul\":16803:16886   */\n      tag_371\n      jump\t// in\n    tag_596:\n        /* \"#utility.yul\":16796:16886   */\n      swap2\n      pop\n        /* \"#utility.yul\":16895:16988   */\n      tag_597\n        /* \"#utility.yul\":16984:16987   */\n      dup3\n        /* \"#utility.yul\":16895:16988   */\n      tag_372\n      jump\t// in\n    tag_597:\n        /* \"#utility.yul\":17013:17014   */\n      0x00\n        /* \"#utility.yul\":17008:17011   */\n      dup3\n        /* \"#utility.yul\":17004:17015   */\n      add\n        /* \"#utility.yul\":16997:17015   */\n      swap1\n      pop\n        /* \"#utility.yul\":16623:17021   */\n      swap2\n      swap1\n      pop\n      jump\t// out\n        /* \"#utility.yul\":17027:17406   */\n    tag_118:\n        /* \"#utility.yul\":17211:17214   */\n      0x00\n        /* \"#utility.yul\":17233:17380   */\n      tag_599\n        /* \"#utility.yul\":17376:17379   */\n      dup3\n        /* \"#utility.yul\":17233:17380   */\n      tag_373\n      jump\t// in\n    tag_599:\n        /* \"#utility.yul\":17226:17380   */\n      swap2\n      pop\n        /* \"#utility.yul\":17397:17400   */\n      dup2\n        /* \"#utility.yul\":17390:17400   */\n      swap1\n      pop\n        /* \"#utility.yul\":17027:17406   */\n      swap2\n      swap1\n      pop\n      jump\t// out\n        /* \"#utility.yul\":17412:17583   */\n    tag_374:\n        /* \"#utility.yul\":17552:17575   */\n      0x4574686572207472616e73666572206661696c65640000000000000000000000\n        /* \"#utility.yul\":17548:17549   */\n      0x00\n        /* \"#utility.yul\":17540:17546   */\n      dup3\n        /* \"#utility.yul\":17536:17550   */\n      add\n        /* \"#utility.yul\":17529:17576   */\n      mstore\n        /* \"#utility.yul\":17412:17583   */\n      pop\n      jump\t// out\n        /* \"#utility.yul\":17589:17955   */\n    tag_375:\n        /* \"#utility.yul\":17731:17734   */\n      0x00\n        /* \"#utility.yul\":17752:17819   */\n      tag_602\n        /* \"#utility.yul\":17816:17818   */\n      0x15\n        /* \"#utility.yul\":17811:17814   */\n      dup4\n        /* \"#utility.yul\":17752:17819   */\n      tag_326\n      jump\t// in\n    tag_602:\n        /* \"#utility.yul\":17745:17819   */\n      swap2\n      pop\n        /* \"#utility.yul\":17828:17921   */\n      tag_603\n        /* \"#utility.yul\":17917:17920   */\n      dup3\n        /* \"#utility.yul\":17828:17921   */\n      tag_374\n      jump\t// in\n    tag_603:\n        /* \"#utility.yul\":17946:17948   */\n      0x20\n        /* \"#utility.yul\":17941:17944   */\n      dup3\n        /* \"#utility.yul\":17937:17949   */\n      add\n        /* \"#utility.yul\":17930:17949   */\n      swap1\n      pop\n        /* \"#utility.yul\":17589:17955   */\n      swap2\n      swap1\n      pop\n      jump\t// out\n        /* \"#utility.yul\":17961:18380   */\n    tag_124:\n        /* \"#utility.yul\":18127:18131   */\n      0x00\n        /* \"#utility.yul\":18165:18167   */\n      0x20\n        /* \"#utility.yul\":18154:18163   */\n      dup3\n        /* \"#utility.yul\":18150:18168   */\n      add\n        /* \"#utility.yul\":18142:18168   */\n      swap1\n      pop\n        /* \"#utility.yul\":18214:18223   */\n      dup2\n        /* \"#utility.yul\":18208:18212   */\n      dup2\n        /* \"#utility.yul\":18204:18224   */\n      sub\n        /* \"#utility.yul\":18200:18201   */\n      0x00\n        /* \"#utility.yul\":18189:18198   */\n      dup4\n        /* \"#utility.yul\":18185:18202   */\n      add\n        /* \"#utility.yul\":18178:18225   */\n      mstore\n        /* \"#utility.yul\":18242:18373   */\n      tag_605\n        /* \"#utility.yul\":18368:18372   */\n      dup2\n        /* \"#utility.yul\":18242:18373   */\n      tag_375\n      jump\t// in\n    tag_605:\n        /* \"#utility.yul\":18234:18373   */\n      swap1\n      pop\n        /* \"#utility.yul\":17961:18380   */\n      swap2\n      swap1\n      pop\n      jump\t// out\n        /* \"#utility.yul\":18386:18558   */\n    tag_376:\n        /* \"#utility.yul\":18526:18550   */\n      0x496e636f727265637420457468657220616d6f756e7400000000000000000000\n        /* \"#utility.yul\":18522:18523   */\n      0x00\n        /* \"#utility.yul\":18514:18520   */\n      dup3\n        /* \"#utility.yul\":18510:18524   */\n      add\n        /* \"#utility.yul\":18503:18551   */\n      mstore\n        /* \"#utility.yul\":18386:18558   */\n      pop\n      jump\t// out\n        /* \"#utility.yul\":18564:18930   */\n    tag_377:\n        /* \"#utility.yul\":18706:18709   */\n      0x00\n        /* \"#utility.yul\":18727:18794   */\n      tag_608\n        /* \"#utility.yul\":18791:18793   */\n      0x16\n        /* \"#utility.yul\":18786:18789   */\n      dup4\n        /* \"#utility.yul\":18727:18794   */\n      tag_326\n      jump\t// in\n    tag_608:\n        /* \"#utility.yul\":18720:18794   */\n      swap2\n      pop\n        /* \"#utility.yul\":18803:18896   */\n      tag_609\n        /* \"#utility.yul\":18892:18895   */\n      dup3\n        /* \"#utility.yul\":18803:18896   */\n      tag_376\n      jump\t// in\n    tag_609:\n        /* \"#utility.yul\":18921:18923   */\n      0x20\n        /* \"#utility.yul\":18916:18919   */\n      dup3\n        /* \"#utility.yul\":18912:18924   */\n      add\n        /* \"#utility.yul\":18905:18924   */\n      swap1\n      pop\n        /* \"#utility.yul\":18564:18930   */\n      swap2\n      swap1\n      pop\n      jump\t// out\n        /* \"#utility.yul\":18936:19355   */\n    tag_137:\n        /* \"#utility.yul\":19102:19106   */\n      0x00\n        /* \"#utility.yul\":19140:19142   */\n      0x20\n        /* \"#utility.yul\":19129:19138   */\n      dup3\n        /* \"#utility.yul\":19125:19143   */\n      add\n        /* \"#utility.yul\":19117:19143   */\n      swap1\n      pop\n        /* \"#utility.yul\":19189:19198   */\n      dup2\n        /* \"#utility.yul\":19183:19187   */\n      dup2\n        /* \"#utility.yul\":19179:19199   */\n      sub\n        /* \"#utility.yul\":19175:19176   */\n      0x00\n        /* \"#utility.yul\":19164:19173   */\n      dup4\n        /* \"#utility.yul\":19160:19177   */\n      add\n        /* \"#utility.yul\":19153:19200   */\n      mstore\n        /* \"#utility.yul\":19217:19348   */\n      tag_611\n        /* \"#utility.yul\":19343:19347   */\n      dup2\n        /* \"#utility.yul\":19217:19348   */\n      tag_377\n      jump\t// in\n    tag_611:\n        /* \"#utility.yul\":19209:19348   */\n      swap1\n      pop\n        /* \"#utility.yul\":18936:19355   */\n      swap2\n      swap1\n      pop\n      jump\t// out\n        /* \"#utility.yul\":19361:19588   */\n    tag_378:\n        /* \"#utility.yul\":19501:19535   */\n      0x4465706f73697420616d6f756e74206d75737420626520677265617465722074\n        /* \"#utility.yul\":19497:19498   */\n      0x00\n        /* \"#utility.yul\":19489:19495   */\n      dup3\n        /* \"#utility.yul\":19485:19499   */\n      add\n        /* \"#utility.yul\":19478:19536   */\n      mstore\n        /* \"#utility.yul\":19570:19580   */\n      0x68616e207a65726f000000000000000000000000000000000000000000000000\n        /* \"#utility.yul\":19565:19567   */\n      0x20\n        /* \"#utility.yul\":19557:19563   */\n      dup3\n        /* \"#utility.yul\":19553:19568   */\n      add\n        /* \"#utility.yul\":19546:19581   */\n      mstore\n        /* \"#utility.yul\":19361:19588   */\n      pop\n      jump\t// out\n        /* \"#utility.yul\":19594:19960   */\n    tag_379:\n        /* \"#utility.yul\":19736:19739   */\n      0x00\n        /* \"#utility.yul\":19757:19824   */\n      tag_614\n        /* \"#utility.yul\":19821:19823   */\n      0x28\n        /* \"#utility.yul\":19816:19819   */\n      dup4\n        /* \"#utility.yul\":19757:19824   */\n      tag_326\n      jump\t// in\n    tag_614:\n        /* \"#utility.yul\":19750:19824   */\n      swap2\n      pop\n        /* \"#utility.yul\":19833:19926   */\n      tag_615\n        /* \"#utility.yul\":19922:19925   */\n      dup3\n        /* \"#utility.yul\":19833:19926   */\n      tag_378\n      jump\t// in\n    tag_615:\n        /* \"#utility.yul\":19951:19953   */\n      0x40\n        /* \"#utility.yul\":19946:19949   */\n      dup3\n        /* \"#utility.yul\":19942:19954   */\n      add\n        /* \"#utility.yul\":19935:19954   */\n      swap1\n      pop\n        /* \"#utility.yul\":19594:19960   */\n      swap2\n      swap1\n      pop\n      jump\t// out\n        /* \"#utility.yul\":19966:20385   */\n    tag_141:\n        /* \"#utility.yul\":20132:20136   */\n      0x00\n        /* \"#utility.yul\":20170:20172   */\n      0x20\n        /* \"#utility.yul\":20159:20168   */\n      dup3\n        /* \"#utility.yul\":20155:20173   */\n      add\n        /* \"#utility.yul\":20147:20173   */\n      swap1\n      pop\n        /* \"#utility.yul\":20219:20228   */\n      dup2\n        /* \"#utility.yul\":20213:20217   */\n      dup2\n        /* \"#utility.yul\":20209:20229   */\n      sub\n        /* \"#utility.yul\":20205:20206   */\n      0x00\n        /* \"#utility.yul\":20194:20203   */\n      dup4\n        /* \"#utility.yul\":20190:20207   */\n      add\n        /* \"#utility.yul\":20183:20230   */\n      mstore\n        /* \"#utility.yul\":20247:20378   */\n      tag_617\n        /* \"#utility.yul\":20373:20377   */\n      dup2\n        /* \"#utility.yul\":20247:20378   */\n      tag_379\n      jump\t// in\n    tag_617:\n        /* \"#utility.yul\":20239:20378   */\n      swap1\n      pop\n        /* \"#utility.yul\":19966:20385   */\n      swap2\n      swap1\n      pop\n      jump\t// out\n        /* \"#utility.yul\":20391:20476   */\n    tag_380:\n        /* \"#utility.yul\":20436:20443   */\n      0x00\n        /* \"#utility.yul\":20465:20470   */\n      dup2\n        /* \"#utility.yul\":20454:20470   */\n      swap1\n      pop\n        /* \"#utility.yul\":20391:20476   */\n      swap2\n      swap1\n      pop\n      jump\t// out\n        /* \"#utility.yul\":20482:20638   */\n    tag_381:\n        /* \"#utility.yul\":20539:20548   */\n      0x00\n        /* \"#utility.yul\":20572:20632   */\n      tag_620\n        /* \"#utility.yul\":20589:20631   */\n      tag_621\n        /* \"#utility.yul\":20598:20630   */\n      tag_622\n        /* \"#utility.yul\":20624:20629   */\n      dup5\n        /* \"#utility.yul\":20598:20630   */\n      tag_380\n      jump\t// in\n    tag_622:\n        /* \"#utility.yul\":20589:20631   */\n      tag_339\n      jump\t// in\n    tag_621:\n        /* \"#utility.yul\":20572:20632   */\n      tag_344\n      jump\t// in\n    tag_620:\n        /* \"#utility.yul\":20559:20632   */\n      swap1\n      pop\n        /* \"#utility.yul\":20482:20638   */\n      swap2\n      swap1\n      pop\n      jump\t// out\n        /* \"#utility.yul\":20644:20789   */\n    tag_382:\n        /* \"#utility.yul\":20738:20782   */\n      tag_624\n        /* \"#utility.yul\":20776:20781   */\n      dup2\n        /* \"#utility.yul\":20738:20782   */\n      tag_381\n      jump\t// in\n    tag_624:\n        /* \"#utility.yul\":20733:20736   */\n      dup3\n        /* \"#utility.yul\":20726:20783   */\n      mstore\n        /* \"#utility.yul\":20644:20789   */\n      pop\n      pop\n      jump\t// out\n        /* \"#utility.yul\":20795:21031   */\n    tag_162:\n        /* \"#utility.yul\":20895:20899   */\n      0x00\n        /* \"#utility.yul\":20933:20935   */\n      0x20\n        /* \"#utility.yul\":20922:20931   */\n      dup3\n        /* \"#utility.yul\":20918:20936   */\n      add\n        /* \"#utility.yul\":20910:20936   */\n      swap1\n      pop\n        /* \"#utility.yul\":20946:21024   */\n      tag_626\n        /* \"#utility.yul\":21021:21022   */\n      0x00\n        /* \"#utility.yul\":21010:21019   */\n      dup4\n        /* \"#utility.yul\":21006:21023   */\n      add\n        /* \"#utility.yul\":20997:21003   */\n      dup5\n        /* \"#utility.yul\":20946:21024   */\n      tag_382\n      jump\t// in\n    tag_626:\n        /* \"#utility.yul\":20795:21031   */\n      swap3\n      swap2\n      pop\n      pop\n      jump\t// out\n        /* \"#utility.yul\":21037:21217   */\n    tag_383:\n        /* \"#utility.yul\":21085:21162   */\n      0x4e487b7100000000000000000000000000000000000000000000000000000000\n        /* \"#utility.yul\":21082:21083   */\n      0x00\n        /* \"#utility.yul\":21075:21163   */\n      mstore\n        /* \"#utility.yul\":21182:21186   */\n      0x22\n        /* \"#utility.yul\":21179:21180   */\n      0x04\n        /* \"#utility.yul\":21172:21187   */\n      mstore\n        /* \"#utility.yul\":21206:21210   */\n      0x24\n        /* \"#utility.yul\":21203:21204   */\n      0x00\n        /* \"#utility.yul\":21196:21211   */\n      revert\n        /* \"#utility.yul\":21223:21543   */\n    tag_170:\n        /* \"#utility.yul\":21267:21273   */\n      0x00\n        /* \"#utility.yul\":21304:21305   */\n      0x02\n        /* \"#utility.yul\":21298:21302   */\n      dup3\n        /* \"#utility.yul\":21294:21306   */\n      div\n        /* \"#utility.yul\":21284:21306   */\n      swap1\n      pop\n        /* \"#utility.yul\":21351:21352   */\n      0x01\n        /* \"#utility.yul\":21345:21349   */\n      dup3\n        /* \"#utility.yul\":21341:21353   */\n      and\n        /* \"#utility.yul\":21372:21390   */\n      dup1\n        /* \"#utility.yul\":21362:21443   */\n      tag_629\n      jumpi\n        /* \"#utility.yul\":21428:21432   */\n      0x7f\n        /* \"#utility.yul\":21420:21426   */\n      dup3\n        /* \"#utility.yul\":21416:21433   */\n      and\n        /* \"#utility.yul\":21406:21433   */\n      swap2\n      pop\n        /* \"#utility.yul\":21362:21443   */\n    tag_629:\n        /* \"#utility.yul\":21490:21492   */\n      0x20\n        /* \"#utility.yul\":21482:21488   */\n      dup3\n        /* \"#utility.yul\":21479:21493   */\n      lt\n        /* \"#utility.yul\":21459:21477   */\n      dup2\n        /* \"#utility.yul\":21456:21494   */\n      sub\n        /* \"#utility.yul\":21453:21537   */\n      tag_630\n      jumpi\n        /* \"#utility.yul\":21509:21527   */\n      tag_631\n      tag_383\n      jump\t// in\n    tag_631:\n        /* \"#utility.yul\":21453:21537   */\n    tag_630:\n        /* \"#utility.yul\":21274:21543   */\n      pop\n        /* \"#utility.yul\":21223:21543   */\n      swap2\n      swap1\n      pop\n      jump\t// out\n        /* \"#utility.yul\":21549:21639   */\n    tag_384:\n        /* \"#utility.yul\":21583:21590   */\n      0x00\n        /* \"#utility.yul\":21626:21631   */\n      dup2\n        /* \"#utility.yul\":21619:21632   */\n      iszero\n        /* \"#utility.yul\":21612:21633   */\n      iszero\n        /* \"#utility.yul\":21601:21633   */\n      swap1\n      pop\n        /* \"#utility.yul\":21549:21639   */\n      swap2\n      swap1\n      pop\n      jump\t// out\n        /* \"#utility.yul\":21645:21761   */\n    tag_385:\n        /* \"#utility.yul\":21715:21736   */\n      tag_634\n        /* \"#utility.yul\":21730:21735   */\n      dup2\n        /* \"#utility.yul\":21715:21736   */\n      tag_384\n      jump\t// in\n    tag_634:\n        /* \"#utility.yul\":21708:21713   */\n      dup2\n        /* \"#utility.yul\":21705:21737   */\n      eq\n        /* \"#utility.yul\":21695:21755   */\n      tag_635\n      jumpi\n        /* \"#utility.yul\":21751:21752   */\n      0x00\n        /* \"#utility.yul\":21748:21749   */\n      dup1\n        /* \"#utility.yul\":21741:21753   */\n      revert\n        /* \"#utility.yul\":21695:21755   */\n    tag_635:\n        /* \"#utility.yul\":21645:21761   */\n      pop\n      jump\t// out\n        /* \"#utility.yul\":21767:21904   */\n    tag_386:\n        /* \"#utility.yul\":21821:21826   */\n      0x00\n        /* \"#utility.yul\":21852:21858   */\n      dup2\n        /* \"#utility.yul\":21846:21859   */\n      mload\n        /* \"#utility.yul\":21837:21859   */\n      swap1\n      pop\n        /* \"#utility.yul\":21868:21898   */\n      tag_637\n        /* \"#utility.yul\":21892:21897   */\n      dup2\n        /* \"#utility.yul\":21868:21898   */\n      tag_385\n      jump\t// in\n    tag_637:\n        /* \"#utility.yul\":21767:21904   */\n      swap3\n      swap2\n      pop\n      pop\n      jump\t// out\n        /* \"#utility.yul\":21910:22255   */\n    tag_183:\n        /* \"#utility.yul\":21977:21983   */\n      0x00\n        /* \"#utility.yul\":22026:22028   */\n      0x20\n        /* \"#utility.yul\":22014:22023   */\n      dup3\n        /* \"#utility.yul\":22005:22012   */\n      dup5\n        /* \"#utility.yul\":22001:22024   */\n      sub\n        /* \"#utility.yul\":21997:22029   */\n      slt\n        /* \"#utility.yul\":21994:22113   */\n      iszero\n      tag_639\n      jumpi\n        /* \"#utility.yul\":22032:22111   */\n      tag_640\n      tag_330\n      jump\t// in\n    tag_640:\n        /* \"#utility.yul\":21994:22113   */\n    tag_639:\n        /* \"#utility.yul\":22152:22153   */\n      0x00\n        /* \"#utility.yul\":22177:22238   */\n      tag_641\n        /* \"#utility.yul\":22230:22237   */\n      dup5\n        /* \"#utility.yul\":22221:22227   */\n      dup3\n        /* \"#utility.yul\":22210:22219   */\n      dup6\n        /* \"#utility.yul\":22206:22228   */\n      add\n        /* \"#utility.yul\":22177:22238   */\n      tag_386\n      jump\t// in\n    tag_641:\n        /* \"#utility.yul\":22167:22238   */\n      swap2\n      pop\n        /* \"#utility.yul\":22123:22248   */\n      pop\n        /* \"#utility.yul\":21910:22255   */\n      swap3\n      swap2\n      pop\n      pop\n      jump\t// out\n        /* \"#utility.yul\":22261:22433   */\n    tag_387:\n        /* \"#utility.yul\":22401:22425   */\n      0x43616c6c6572206973206e6f7420616e2061646d696e00000000000000000000\n        /* \"#utility.yul\":22397:22398   */\n      0x00\n        /* \"#utility.yul\":22389:22395   */\n      dup3\n        /* \"#utility.yul\":22385:22399   */\n      add\n        /* \"#utility.yul\":22378:22426   */\n      mstore\n        /* \"#utility.yul\":22261:22433   */\n      pop\n      jump\t// out\n        /* \"#utility.yul\":22439:22805   */\n    tag_388:\n        /* \"#utility.yul\":22581:22584   */\n      0x00\n        /* \"#utility.yul\":22602:22669   */\n      tag_644\n        /* \"#utility.yul\":22666:22668   */\n      0x16\n        /* \"#utility.yul\":22661:22664   */\n      dup4\n        /* \"#utility.yul\":22602:22669   */\n      tag_326\n      jump\t// in\n    tag_644:\n        /* \"#utility.yul\":22595:22669   */\n      swap2\n      pop\n        /* \"#utility.yul\":22678:22771   */\n      tag_645\n        /* \"#utility.yul\":22767:22770   */\n      dup3\n        /* \"#utility.yul\":22678:22771   */\n      tag_387\n      jump\t// in\n    tag_645:\n        /* \"#utility.yul\":22796:22798   */\n      0x20\n        /* \"#utility.yul\":22791:22794   */\n      dup3\n        /* \"#utility.yul\":22787:22799   */\n      add\n        /* \"#utility.yul\":22780:22799   */\n      swap1\n      pop\n        /* \"#utility.yul\":22439:22805   */\n      swap2\n      swap1\n      pop\n      jump\t// out\n        /* \"#utility.yul\":22811:23230   */\n    tag_186:\n        /* \"#utility.yul\":22977:22981   */\n      0x00\n        /* \"#utility.yul\":23015:23017   */\n      0x20\n        /* \"#utility.yul\":23004:23013   */\n      dup3\n        /* \"#utility.yul\":23000:23018   */\n      add\n        /* \"#utility.yul\":22992:23018   */\n      swap1\n      pop\n        /* \"#utility.yul\":23064:23073   */\n      dup2\n        /* \"#utility.yul\":23058:23062   */\n      dup2\n        /* \"#utility.yul\":23054:23074   */\n      sub\n        /* \"#utility.yul\":23050:23051   */\n      0x00\n        /* \"#utility.yul\":23039:23048   */\n      dup4\n        /* \"#utility.yul\":23035:23052   */\n      add\n        /* \"#utility.yul\":23028:23075   */\n      mstore\n        /* \"#utility.yul\":23092:23223   */\n      tag_647\n        /* \"#utility.yul\":23218:23222   */\n      dup2\n        /* \"#utility.yul\":23092:23223   */\n      tag_388\n      jump\t// in\n    tag_647:\n        /* \"#utility.yul\":23084:23223   */\n      swap1\n      pop\n        /* \"#utility.yul\":22811:23230   */\n      swap2\n      swap1\n      pop\n      jump\t// out\n        /* \"#utility.yul\":23236:23457   */\n    tag_389:\n        /* \"#utility.yul\":23376:23410   */\n      0x53746172742074696d65206d757374206265206265666f726520656e64207469\n        /* \"#utility.yul\":23372:23373   */\n      0x00\n        /* \"#utility.yul\":23364:23370   */\n      dup3\n        /* \"#utility.yul\":23360:23374   */\n      add\n        /* \"#utility.yul\":23353:23411   */\n      mstore\n        /* \"#utility.yul\":23445:23449   */\n      0x6d65000000000000000000000000000000000000000000000000000000000000\n        /* \"#utility.yul\":23440:23442   */\n      0x20\n        /* \"#utility.yul\":23432:23438   */\n      dup3\n        /* \"#utility.yul\":23428:23443   */\n      add\n        /* \"#utility.yul\":23421:23450   */\n      mstore\n        /* \"#utility.yul\":23236:23457   */\n      pop\n      jump\t// out\n        /* \"#utility.yul\":23463:23829   */\n    tag_390:\n        /* \"#utility.yul\":23605:23608   */\n      0x00\n        /* \"#utility.yul\":23626:23693   */\n      tag_650\n        /* \"#utility.yul\":23690:23692   */\n      0x22\n        /* \"#utility.yul\":23685:23688   */\n      dup4\n        /* \"#utility.yul\":23626:23693   */\n      tag_326\n      jump\t// in\n    tag_650:\n        /* \"#utility.yul\":23619:23693   */\n      swap2\n      pop\n        /* \"#utility.yul\":23702:23795   */\n      tag_651\n        /* \"#utility.yul\":23791:23794   */\n      dup3\n        /* \"#utility.yul\":23702:23795   */\n      tag_389\n      jump\t// in\n    tag_651:\n        /* \"#utility.yul\":23820:23822   */\n      0x40\n        /* \"#utility.yul\":23815:23818   */\n      dup3\n        /* \"#utility.yul\":23811:23823   */\n      add\n        /* \"#utility.yul\":23804:23823   */\n      swap1\n      pop\n        /* \"#utility.yul\":23463:23829   */\n      swap2\n      swap1\n      pop\n      jump\t// out\n        /* \"#utility.yul\":23835:24254   */\n    tag_190:\n        /* \"#utility.yul\":24001:24005   */\n      0x00\n        /* \"#utility.yul\":24039:24041   */\n      0x20\n        /* \"#utility.yul\":24028:24037   */\n      dup3\n        /* \"#utility.yul\":24024:24042   */\n      add\n        /* \"#utility.yul\":24016:24042   */\n      swap1\n      pop\n        /* \"#utility.yul\":24088:24097   */\n      dup2\n        /* \"#utility.yul\":24082:24086   */\n      dup2\n        /* \"#utility.yul\":24078:24098   */\n      sub\n        /* \"#utility.yul\":24074:24075   */\n      0x00\n        /* \"#utility.yul\":24063:24072   */\n      dup4\n        /* \"#utility.yul\":24059:24076   */\n      add\n        /* \"#utility.yul\":24052:24099   */\n      mstore\n        /* \"#utility.yul\":24116:24247   */\n      tag_653\n        /* \"#utility.yul\":24242:24246   */\n      dup2\n        /* \"#utility.yul\":24116:24247   */\n      tag_390\n      jump\t// in\n    tag_653:\n        /* \"#utility.yul\":24108:24247   */\n      swap1\n      pop\n        /* \"#utility.yul\":23835:24254   */\n      swap2\n      swap1\n      pop\n      jump\t// out\n        /* \"#utility.yul\":24260:24401   */\n    tag_391:\n        /* \"#utility.yul\":24309:24313   */\n      0x00\n        /* \"#utility.yul\":24332:24335   */\n      dup2\n        /* \"#utility.yul\":24324:24335   */\n      swap1\n      pop\n        /* \"#utility.yul\":24355:24358   */\n      dup2\n        /* \"#utility.yul\":24352:24353   */\n      0x00\n        /* \"#utility.yul\":24345:24359   */\n      mstore\n        /* \"#utility.yul\":24389:24393   */\n      0x20\n        /* \"#utility.yul\":24386:24387   */\n      0x00\n        /* \"#utility.yul\":24376:24394   */\n      keccak256\n        /* \"#utility.yul\":24368:24394   */\n      swap1\n      pop\n        /* \"#utility.yul\":24260:24401   */\n      swap2\n      swap1\n      pop\n      jump\t// out\n        /* \"#utility.yul\":24407:24500   */\n    tag_392:\n        /* \"#utility.yul\":24444:24450   */\n      0x00\n        /* \"#utility.yul\":24491:24493   */\n      0x20\n        /* \"#utility.yul\":24486:24488   */\n      0x1f\n        /* \"#utility.yul\":24479:24484   */\n      dup4\n        /* \"#utility.yul\":24475:24489   */\n      add\n        /* \"#utility.yul\":24471:24494   */\n      div\n        /* \"#utility.yul\":24461:24494   */\n      swap1\n      pop\n        /* \"#utility.yul\":24407:24500   */\n      swap2\n      swap1\n      pop\n      jump\t// out\n        /* \"#utility.yul\":24506:24613   */\n    tag_393:\n        /* \"#utility.yul\":24550:24558   */\n      0x00\n        /* \"#utility.yul\":24600:24605   */\n      dup3\n        /* \"#utility.yul\":24594:24598   */\n      dup3\n        /* \"#utility.yul\":24590:24606   */\n      shl\n        /* \"#utility.yul\":24569:24606   */\n      swap1\n      pop\n        /* \"#utility.yul\":24506:24613   */\n      swap3\n      swap2\n      pop\n      pop\n      jump\t// out\n        /* \"#utility.yul\":24619:25012   */\n    tag_394:\n        /* \"#utility.yul\":24688:24694   */\n      0x00\n        /* \"#utility.yul\":24738:24739   */\n      0x08\n        /* \"#utility.yul\":24726:24736   */\n      dup4\n        /* \"#utility.yul\":24722:24740   */\n      mul\n        /* \"#utility.yul\":24761:24858   */\n      tag_658\n        /* \"#utility.yul\":24791:24857   */\n      0xffffffffffffffffffffffffffffffffffffffffffffffffffffffffffffffff\n        /* \"#utility.yul\":24780:24789   */\n      dup3\n        /* \"#utility.yul\":24761:24858   */\n      tag_393\n      jump\t// in\n    tag_658:\n        /* \"#utility.yul\":24879:24918   */\n      tag_659\n        /* \"#utility.yul\":24909:24917   */\n      dup7\n        /* \"#utility.yul\":24898:24907   */\n      dup4\n        /* \"#utility.yul\":24879:24918   */\n      tag_393\n      jump\t// in\n    tag_659:\n        /* \"#utility.yul\":24867:24918   */\n      swap6\n      pop\n        /* \"#utility.yul\":24951:24955   */\n      dup1\n        /* \"#utility.yul\":24947:24956   */\n      not\n        /* \"#utility.yul\":24940:24945   */\n      dup5\n        /* \"#utility.yul\":24936:24957   */\n      and\n        /* \"#utility.yul\":24927:24957   */\n      swap4\n      pop\n        /* \"#utility.yul\":25000:25004   */\n      dup1\n        /* \"#utility.yul\":24990:24998   */\n      dup7\n        /* \"#utility.yul\":24986:25005   */\n      and\n        /* \"#utility.yul\":24979:24984   */\n      dup5\n        /* \"#utility.yul\":24976:25006   */\n      or\n        /* \"#utility.yul\":24966:25006   */\n      swap3\n      pop\n        /* \"#utility.yul\":24695:25012   */\n      pop\n      pop\n        /* \"#utility.yul\":24619:25012   */\n      swap4\n      swap3\n      pop\n      pop\n      pop\n      jump\t// out\n        /* \"#utility.yul\":25018:25160   */\n    tag_395:\n        /* \"#utility.yul\":25068:25077   */\n      0x00\n        /* \"#utility.yul\":25101:25154   */\n      tag_661\n        /* \"#utility.yul\":25119:25153   */\n      tag_662\n        /* \"#utility.yul\":25128:25152   */\n      tag_663\n        /* \"#utility.yul\":25146:25151   */\n      dup5\n        /* \"#utility.yul\":25128:25152   */\n      tag_323\n      jump\t// in\n    tag_663:\n        /* \"#utility.yul\":25119:25153   */\n      tag_339\n      jump\t// in\n    tag_662:\n        /* \"#utility.yul\":25101:25154   */\n      tag_323\n      jump\t// in\n    tag_661:\n        /* \"#utility.yul\":25088:25154   */\n      swap1\n      pop\n        /* \"#utility.yul\":25018:25160   */\n      swap2\n      swap1\n      pop\n      jump\t// out\n        /* \"#utility.yul\":25166:25241   */\n    tag_396:\n        /* \"#utility.yul\":25209:25212   */\n      0x00\n        /* \"#utility.yul\":25230:25235   */\n      dup2\n        /* \"#utility.yul\":25223:25235   */\n      swap1\n      pop\n        /* \"#utility.yul\":25166:25241   */\n      swap2\n      swap1\n      pop\n      jump\t// out\n        /* \"#utility.yul\":25247:25516   */\n    tag_397:\n        /* \"#utility.yul\":25357:25396   */\n      tag_666\n        /* \"#utility.yul\":25388:25395   */\n      dup4\n        /* \"#utility.yul\":25357:25396   */\n      tag_395\n      jump\t// in\n    tag_666:\n        /* \"#utility.yul\":25418:25509   */\n      tag_667\n        /* \"#utility.yul\":25467:25508   */\n      tag_668\n        /* \"#utility.yul\":25491:25507   */\n      dup3\n        /* \"#utility.yul\":25467:25508   */\n      tag_396\n      jump\t// in\n    tag_668:\n        /* \"#utility.yul\":25459:25465   */\n      dup5\n        /* \"#utility.yul\":25452:25456   */\n      dup5\n        /* \"#utility.yul\":25446:25457   */\n      sload\n        /* \"#utility.yul\":25418:25509   */\n      tag_394\n      jump\t// in\n    tag_667:\n        /* \"#utility.yul\":25412:25416   */\n      dup3\n        /* \"#utility.yul\":25405:25510   */\n      sstore\n        /* \"#utility.yul\":25323:25516   */\n      pop\n        /* \"#utility.yul\":25247:25516   */\n      pop\n      pop\n      pop\n      jump\t// out\n        /* \"#utility.yul\":25522:25595   */\n    tag_398:\n        /* \"#utility.yul\":25567:25570   */\n      0x00\n        /* \"#utility.yul\":25522:25595   */\n      swap1\n      jump\t// out\n        /* \"#utility.yul\":25601:25790   */\n    tag_399:\n        /* \"#utility.yul\":25678:25710   */\n      tag_671\n      tag_398\n      jump\t// in\n    tag_671:\n        /* \"#utility.yul\":25719:25784   */\n      tag_672\n        /* \"#utility.yul\":25777:25783   */\n      dup2\n        /* \"#utility.yul\":25769:25775   */\n      dup5\n        /* \"#utility.yul\":25763:25767   */\n      dup5\n        /* \"#utility.yul\":25719:25784   */\n      tag_397\n      jump\t// in\n    tag_672:\n        /* \"#utility.yul\":25654:25790   */\n      pop\n        /* \"#utility.yul\":25601:25790   */\n      pop\n      pop\n      jump\t// out\n        /* \"#utility.yul\":25796:25982   */\n    tag_400:\n        /* \"#utility.yul\":25856:25976   */\n    tag_674:\n        /* \"#utility.yul\":25873:25876   */\n      dup2\n        /* \"#utility.yul\":25866:25871   */\n      dup2\n        /* \"#utility.yul\":25863:25877   */\n      lt\n        /* \"#utility.yul\":25856:25976   */\n      iszero\n      tag_676\n      jumpi\n        /* \"#utility.yul\":25927:25966   */\n      tag_677\n        /* \"#utility.yul\":25964:25965   */\n      0x00\n        /* \"#utility.yul\":25957:25962   */\n      dup3\n        /* \"#utility.yul\":25927:25966   */\n      tag_399\n      jump\t// in\n    tag_677:\n        /* \"#utility.yul\":25900:25901   */\n      0x01\n        /* \"#utility.yul\":25893:25898   */\n      dup2\n        /* \"#utility.yul\":25889:25902   */\n      add\n        /* \"#utility.yul\":25880:25902   */\n      swap1\n      pop\n        /* \"#utility.yul\":25856:25976   */\n      jump(tag_674)\n    tag_676:\n        /* \"#utility.yul\":25796:25982   */\n      pop\n      pop\n      jump\t// out\n        /* \"#utility.yul\":25988:26531   */\n    tag_401:\n        /* \"#utility.yul\":26089:26091   */\n      0x1f\n        /* \"#utility.yul\":26084:26087   */\n      dup3\n        /* \"#utility.yul\":26081:26092   */\n      gt\n        /* \"#utility.yul\":26078:26524   */\n      iszero\n      tag_679\n      jumpi\n        /* \"#utility.yul\":26123:26161   */\n      tag_680\n        /* \"#utility.yul\":26155:26160   */\n      dup2\n        /* \"#utility.yul\":26123:26161   */\n      tag_391\n      jump\t// in\n    tag_680:\n        /* \"#utility.yul\":26207:26236   */\n      tag_681\n        /* \"#utility.yul\":26225:26235   */\n      dup5\n        /* \"#utility.yul\":26207:26236   */\n      tag_392\n      jump\t// in\n    tag_681:\n        /* \"#utility.yul\":26197:26205   */\n      dup2\n        /* \"#utility.yul\":26193:26237   */\n      add\n        /* \"#utility.yul\":26390:26392   */\n      0x20\n        /* \"#utility.yul\":26378:26388   */\n      dup6\n        /* \"#utility.yul\":26375:26393   */\n      lt\n        /* \"#utility.yul\":26372:26421   */\n      iszero\n      tag_682\n      jumpi\n        /* \"#utility.yul\":26411:26419   */\n      dup2\n        /* \"#utility.yul\":26396:26419   */\n      swap1\n      pop\n        /* \"#utility.yul\":26372:26421   */\n    tag_682:\n        /* \"#utility.yul\":26434:26514   */\n      tag_683\n        /* \"#utility.yul\":26490:26512   */\n      tag_684\n        /* \"#utility.yul\":26508:26511   */\n      dup6\n        /* \"#utility.yul\":26490:26512   */\n      tag_392\n      jump\t// in\n    tag_684:\n        /* \"#utility.yul\":26480:26488   */\n      dup4\n        /* \"#utility.yul\":26476:26513   */\n      add\n        /* \"#utility.yul\":26463:26474   */\n      dup3\n        /* \"#utility.yul\":26434:26514   */\n      tag_400\n      jump\t// in\n    tag_683:\n        /* \"#utility.yul\":26093:26524   */\n      pop\n      pop\n        /* \"#utility.yul\":26078:26524   */\n    tag_679:\n        /* \"#utility.yul\":25988:26531   */\n      pop\n      pop\n      pop\n      jump\t// out\n        /* \"#utility.yul\":26537:26654   */\n    tag_402:\n        /* \"#utility.yul\":26591:26599   */\n      0x00\n        /* \"#utility.yul\":26641:26646   */\n      dup3\n        /* \"#utility.yul\":26635:26639   */\n      dup3\n        /* \"#utility.yul\":26631:26647   */\n      shr\n        /* \"#utility.yul\":26610:26647   */\n      swap1\n      pop\n        /* \"#utility.yul\":26537:26654   */\n      swap3\n      swap2\n      pop\n      pop\n      jump\t// out\n        /* \"#utility.yul\":26660:26829   */\n    tag_403:\n        /* \"#utility.yul\":26704:26710   */\n      0x00\n        /* \"#utility.yul\":26737:26788   */\n      tag_687\n        /* \"#utility.yul\":26785:26786   */\n      0x00\n        /* \"#utility.yul\":26781:26787   */\n      not\n        /* \"#utility.yul\":26773:26778   */\n      dup5\n        /* \"#utility.yul\":26770:26771   */\n      0x08\n        /* \"#utility.yul\":26766:26779   */\n      mul\n        /* \"#utility.yul\":26737:26788   */\n      tag_402\n      jump\t// in\n    tag_687:\n        /* \"#utility.yul\":26733:26789   */\n      not\n        /* \"#utility.yul\":26818:26822   */\n      dup1\n        /* \"#utility.yul\":26812:26816   */\n      dup4\n        /* \"#utility.yul\":26808:26823   */\n      and\n        /* \"#utility.yul\":26798:26823   */\n      swap2\n      pop\n        /* \"#utility.yul\":26711:26829   */\n      pop\n        /* \"#utility.yul\":26660:26829   */\n      swap3\n      swap2\n      pop\n      pop\n      jump\t// out\n        /* \"#utility.yul\":26834:27129   */\n    tag_404:\n        /* \"#utility.yul\":26910:26914   */\n      0x00\n        /* \"#utility.yul\":27056:27085   */\n      tag_689\n        /* \"#utility.yul\":27081:27084   */\n      dup4\n        /* \"#utility.yul\":27075:27079   */\n      dup4\n        /* \"#utility.yul\":27056:27085   */\n      tag_403\n      jump\t// in\n    tag_689:\n        /* \"#utility.yul\":27048:27085   */\n      swap2\n      pop\n        /* \"#utility.yul\":27118:27121   */\n      dup3\n        /* \"#utility.yul\":27115:27116   */\n      0x02\n        /* \"#utility.yul\":27111:27122   */\n      mul\n        /* \"#utility.yul\":27105:27109   */\n      dup3\n        /* \"#utility.yul\":27102:27123   */\n      or\n        /* \"#utility.yul\":27094:27123   */\n      swap1\n      pop\n        /* \"#utility.yul\":26834:27129   */\n      swap3\n      swap2\n      pop\n      pop\n      jump\t// out\n        /* \"#utility.yul\":27134:28529   */\n    tag_192:\n        /* \"#utility.yul\":27251:27288   */\n      tag_691\n        /* \"#utility.yul\":27284:27287   */\n      dup3\n        /* \"#utility.yul\":27251:27288   */\n      tag_346\n      jump\t// in\n    tag_691:\n        /* \"#utility.yul\":27353:27371   */\n      0xffffffffffffffff\n        /* \"#utility.yul\":27345:27351   */\n      dup2\n        /* \"#utility.yul\":27342:27372   */\n      gt\n        /* \"#utility.yul\":27339:27395   */\n      iszero\n      tag_692\n      jumpi\n        /* \"#utility.yul\":27375:27393   */\n      tag_693\n      tag_354\n      jump\t// in\n    tag_693:\n        /* \"#utility.yul\":27339:27395   */\n    tag_692:\n        /* \"#utility.yul\":27419:27457   */\n      tag_694\n        /* \"#utility.yul\":27451:27455   */\n      dup3\n        /* \"#utility.yul\":27445:27456   */\n      sload\n        /* \"#utility.yul\":27419:27457   */\n      tag_170\n      jump\t// in\n    tag_694:\n        /* \"#utility.yul\":27504:27571   */\n      tag_695\n        /* \"#utility.yul\":27564:27570   */\n      dup3\n        /* \"#utility.yul\":27556:27562   */\n      dup3\n        /* \"#utility.yul\":27550:27554   */\n      dup6\n        /* \"#utility.yul\":27504:27571   */\n      tag_401\n      jump\t// in\n    tag_695:\n        /* \"#utility.yul\":27598:27599   */\n      0x00\n        /* \"#utility.yul\":27622:27626   */\n      0x20\n        /* \"#utility.yul\":27609:27626   */\n      swap1\n      pop\n        /* \"#utility.yul\":27654:27656   */\n      0x1f\n        /* \"#utility.yul\":27646:27652   */\n      dup4\n        /* \"#utility.yul\":27643:27657   */\n      gt\n        /* \"#utility.yul\":27671:27672   */\n      0x01\n        /* \"#utility.yul\":27666:28284   */\n      dup2\n      eq\n      tag_697\n      jumpi\n        /* \"#utility.yul\":28328:28329   */\n      0x00\n        /* \"#utility.yul\":28345:28351   */\n      dup5\n        /* \"#utility.yul\":28342:28419   */\n      iszero\n      tag_698\n      jumpi\n        /* \"#utility.yul\":28394:28403   */\n      dup3\n        /* \"#utility.yul\":28389:28392   */\n      dup8\n        /* \"#utility.yul\":28385:28404   */\n      add\n        /* \"#utility.yul\":28379:28405   */\n      mload\n        /* \"#utility.yul\":28370:28405   */\n      swap1\n      pop\n        /* \"#utility.yul\":28342:28419   */\n    tag_698:\n        /* \"#utility.yul\":28445:28512   */\n      tag_699\n        /* \"#utility.yul\":28505:28511   */\n      dup6\n        /* \"#utility.yul\":28498:28503   */\n      dup3\n        /* \"#utility.yul\":28445:28512   */\n      tag_404\n      jump\t// in\n    tag_699:\n        /* \"#utility.yul\":28439:28443   */\n      dup7\n        /* \"#utility.yul\":28432:28513   */\n      sstore\n        /* \"#utility.yul\":28301:28523   */\n      pop\n        /* \"#utility.yul\":27636:28523   */\n      jump(tag_696)\n        /* \"#utility.yul\":27666:28284   */\n    tag_697:\n        /* \"#utility.yul\":27718:27722   */\n      0x1f\n        /* \"#utility.yul\":27714:27723   */\n      not\n        /* \"#utility.yul\":27706:27712   */\n      dup5\n        /* \"#utility.yul\":27702:27724   */\n      and\n        /* \"#utility.yul\":27752:27789   */\n      tag_700\n        /* \"#utility.yul\":27784:27788   */\n      dup7\n        /* \"#utility.yul\":27752:27789   */\n      tag_391\n      jump\t// in\n    tag_700:\n        /* \"#utility.yul\":27811:27812   */\n      0x00\n        /* \"#utility.yul\":27825:28033   */\n    tag_701:\n        /* \"#utility.yul\":27839:27846   */\n      dup3\n        /* \"#utility.yul\":27836:27837   */\n      dup2\n        /* \"#utility.yul\":27833:27847   */\n      lt\n        /* \"#utility.yul\":27825:28033   */\n      iszero\n      tag_703\n      jumpi\n        /* \"#utility.yul\":27918:27927   */\n      dup5\n        /* \"#utility.yul\":27913:27916   */\n      dup10\n        /* \"#utility.yul\":27909:27928   */\n      add\n        /* \"#utility.yul\":27903:27929   */\n      mload\n        /* \"#utility.yul\":27895:27901   */\n      dup3\n        /* \"#utility.yul\":27888:27930   */\n      sstore\n        /* \"#utility.yul\":27969:27970   */\n      0x01\n        /* \"#utility.yul\":27961:27967   */\n      dup3\n        /* \"#utility.yul\":27957:27971   */\n      add\n        /* \"#utility.yul\":27947:27971   */\n      swap2\n      pop\n        /* \"#utility.yul\":28016:28018   */\n      0x20\n        /* \"#utility.yul\":28005:28014   */\n      dup6\n        /* \"#utility.yul\":28001:28019   */\n      add\n        /* \"#utility.yul\":27988:28019   */\n      swap5\n      pop\n        /* \"#utility.yul\":27862:27866   */\n      0x20\n        /* \"#utility.yul\":27859:27860   */\n      dup2\n        /* \"#utility.yul\":27855:27867   */\n      add\n        /* \"#utility.yul\":27850:27867   */\n      swap1\n      pop\n        /* \"#utility.yul\":27825:28033   */\n      jump(tag_701)\n    tag_703:\n        /* \"#utility.yul\":28061:28067   */\n      dup7\n        /* \"#utility.yul\":28052:28059   */\n      dup4\n        /* \"#utility.yul\":28049:28068   */\n      lt\n        /* \"#utility.yul\":28046:28225   */\n      iszero\n      tag_704\n      jumpi\n        /* \"#utility.yul\":28119:28128   */\n      dup5\n        /* \"#utility.yul\":28114:28117   */\n      dup10\n        /* \"#utility.yul\":28110:28129   */\n      add\n        /* \"#utility.yul\":28104:28130   */\n      mload\n        /* \"#utility.yul\":28162:28210   */\n      tag_705\n        /* \"#utility.yul\":28204:28208   */\n      0x1f\n        /* \"#utility.yul\":28196:28202   */\n      dup10\n        /* \"#utility.yul\":28192:28209   */\n      and\n        /* \"#utility.yul\":28181:28190   */\n      dup3\n        /* \"#utility.yul\":28162:28210   */\n      tag_403\n      jump\t// in\n    tag_705:\n        /* \"#utility.yul\":28154:28160   */\n      dup4\n        /* \"#utility.yul\":28147:28211   */\n      sstore\n        /* \"#utility.yul\":28069:28225   */\n      pop\n        /* \"#utility.yul\":28046:28225   */\n    tag_704:\n        /* \"#utility.yul\":28271:28272   */\n      0x01\n        /* \"#utility.yul\":28267:28268   */\n      0x02\n        /* \"#utility.yul\":28259:28265   */\n      dup9\n        /* \"#utility.yul\":28255:28269   */\n      mul\n        /* \"#utility.yul\":28251:28273   */\n      add\n        /* \"#utility.yul\":28245:28249   */\n      dup9\n        /* \"#utility.yul\":28238:28274   */\n      sstore\n        /* \"#utility.yul\":27673:28284   */\n      pop\n      pop\n      pop\n        /* \"#utility.yul\":27636:28523   */\n    tag_696:\n      pop\n        /* \"#utility.yul\":27226:28529   */\n      pop\n      pop\n      pop\n        /* \"#utility.yul\":27134:28529   */\n      pop\n      pop\n      jump\t// out\n        /* \"#utility.yul\":28535:29064   */\n    tag_194:\n        /* \"#utility.yul\":28702:28706   */\n      0x00\n        /* \"#utility.yul\":28740:28742   */\n      0x60\n        /* \"#utility.yul\":28729:28738   */\n      dup3\n        /* \"#utility.yul\":28725:28743   */\n      add\n        /* \"#utility.yul\":28717:28743   */\n      swap1\n      pop\n        /* \"#utility.yul\":28753:28823   */\n      tag_707\n        /* \"#utility.yul\":28820:28821   */\n      0x00\n        /* \"#utility.yul\":28809:28818   */\n      dup4\n        /* \"#utility.yul\":28805:28822   */\n      add\n        /* \"#utility.yul\":28796:28802   */\n      dup7\n        /* \"#utility.yul\":28753:28823   */\n      tag_366\n      jump\t// in\n    tag_707:\n        /* \"#utility.yul\":28833:28904   */\n      tag_708\n        /* \"#utility.yul\":28900:28902   */\n      0x20\n        /* \"#utility.yul\":28889:28898   */\n      dup4\n        /* \"#utility.yul\":28885:28903   */\n      add\n        /* \"#utility.yul\":28876:28882   */\n      dup6\n        /* \"#utility.yul\":28833:28904   */\n      tag_366\n      jump\t// in\n    tag_708:\n        /* \"#utility.yul\":28951:28960   */\n      dup2\n        /* \"#utility.yul\":28945:28949   */\n      dup2\n        /* \"#utility.yul\":28941:28961   */\n      sub\n        /* \"#utility.yul\":28936:28938   */\n      0x40\n        /* \"#utility.yul\":28925:28934   */\n      dup4\n        /* \"#utility.yul\":28921:28939   */\n      add\n        /* \"#utility.yul\":28914:28962   */\n      mstore\n        /* \"#utility.yul\":28979:29057   */\n      tag_709\n        /* \"#utility.yul\":29052:29056   */\n      dup2\n        /* \"#utility.yul\":29043:29049   */\n      dup5\n        /* \"#utility.yul\":28979:29057   */\n      tag_349\n      jump\t// in\n    tag_709:\n        /* \"#utility.yul\":28971:29057   */\n      swap1\n      pop\n        /* \"#utility.yul\":28535:29064   */\n      swap5\n      swap4\n      pop\n      pop\n      pop\n      pop\n      jump\t// out\n        /* \"#utility.yul\":29070:29237   */\n    tag_405:\n        /* \"#utility.yul\":29210:29229   */\n      0x5a65726f20616464726573732075736572000000000000000000000000000000\n        /* \"#utility.yul\":29206:29207   */\n      0x00\n        /* \"#utility.yul\":29198:29204   */\n      dup3\n        /* \"#utility.yul\":29194:29208   */\n      add\n        /* \"#utility.yul\":29187:29230   */\n      mstore\n        /* \"#utility.yul\":29070:29237   */\n      pop\n      jump\t// out\n        /* \"#utility.yul\":29243:29609   */\n    tag_406:\n        /* \"#utility.yul\":29385:29388   */\n      0x00\n        /* \"#utility.yul\":29406:29473   */\n      tag_712\n        /* \"#utility.yul\":29470:29472   */\n      0x11\n        /* \"#utility.yul\":29465:29468   */\n      dup4\n        /* \"#utility.yul\":29406:29473   */\n      tag_326\n      jump\t// in\n    tag_712:\n        /* \"#utility.yul\":29399:29473   */\n      swap2\n      pop\n        /* \"#utility.yul\":29482:29575   */\n      tag_713\n        /* \"#utility.yul\":29571:29574   */\n      dup3\n        /* \"#utility.yul\":29482:29575   */\n      tag_405\n      jump\t// in\n    tag_713:\n        /* \"#utility.yul\":29600:29602   */\n      0x20\n        /* \"#utility.yul\":29595:29598   */\n      dup3\n        /* \"#utility.yul\":29591:29603   */\n      add\n        /* \"#utility.yul\":29584:29603   */\n      swap1\n      pop\n        /* \"#utility.yul\":29243:29609   */\n      swap2\n      swap1\n      pop\n      jump\t// out\n        /* \"#utility.yul\":29615:30034   */\n    tag_205:\n        /* \"#utility.yul\":29781:29785   */\n      0x00\n        /* \"#utility.yul\":29819:29821   */\n      0x20\n        /* \"#utility.yul\":29808:29817   */\n      dup3\n        /* \"#utility.yul\":29804:29822   */\n      add\n        /* \"#utility.yul\":29796:29822   */\n      swap1\n      pop\n        /* \"#utility.yul\":29868:29877   */\n      dup2\n        /* \"#utility.yul\":29862:29866   */\n      dup2\n        /* \"#utility.yul\":29858:29878   */\n      sub\n        /* \"#utility.yul\":29854:29855   */\n      0x00\n        /* \"#utility.yul\":29843:29852   */\n      dup4\n        /* \"#utility.yul\":29839:29856   */\n      add\n        /* \"#utility.yul\":29832:29879   */\n      mstore\n        /* \"#utility.yul\":29896:30027   */\n      tag_715\n        /* \"#utility.yul\":30022:30026   */\n      dup2\n        /* \"#utility.yul\":29896:30027   */\n      tag_406\n      jump\t// in\n    tag_715:\n        /* \"#utility.yul\":29888:30027   */\n      swap1\n      pop\n        /* \"#utility.yul\":29615:30034   */\n      swap2\n      swap1\n      pop\n      jump\t// out\n        /* \"#utility.yul\":30040:30214   */\n    tag_407:\n        /* \"#utility.yul\":30180:30206   */\n      0x4d69736d617463686564206172726179206c656e677468730000000000000000\n        /* \"#utility.yul\":30176:30177   */\n      0x00\n        /* \"#utility.yul\":30168:30174   */\n      dup3\n        /* \"#utility.yul\":30164:30178   */\n      add\n        /* \"#utility.yul\":30157:30207   */\n      mstore\n        /* \"#utility.yul\":30040:30214   */\n      pop\n      jump\t// out\n        /* \"#utility.yul\":30220:30586   */\n    tag_408:\n        /* \"#utility.yul\":30362:30365   */\n      0x00\n        /* \"#utility.yul\":30383:30450   */\n      tag_718\n        /* \"#utility.yul\":30447:30449   */\n      0x18\n        /* \"#utility.yul\":30442:30445   */\n      dup4\n        /* \"#utility.yul\":30383:30450   */\n      tag_326\n      jump\t// in\n    tag_718:\n        /* \"#utility.yul\":30376:30450   */\n      swap2\n      pop\n        /* \"#utility.yul\":30459:30552   */\n      tag_719\n        /* \"#utility.yul\":30548:30551   */\n      dup3\n        /* \"#utility.yul\":30459:30552   */\n      tag_407\n      jump\t// in\n    tag_719:\n        /* \"#utility.yul\":30577:30579   */\n      0x20\n        /* \"#utility.yul\":30572:30575   */\n      dup3\n        /* \"#utility.yul\":30568:30580   */\n      add\n        /* \"#utility.yul\":30561:30580   */\n      swap1\n      pop\n        /* \"#utility.yul\":30220:30586   */\n      swap2\n      swap1\n      pop\n      jump\t// out\n        /* \"#utility.yul\":30592:31011   */\n    tag_217:\n        /* \"#utility.yul\":30758:30762   */\n      0x00\n        /* \"#utility.yul\":30796:30798   */\n      0x20\n        /* \"#utility.yul\":30785:30794   */\n      dup3\n        /* \"#utility.yul\":30781:30799   */\n      add\n        /* \"#utility.yul\":30773:30799   */\n      swap1\n      pop\n        /* \"#utility.yul\":30845:30854   */\n      dup2\n        /* \"#utility.yul\":30839:30843   */\n      dup2\n        /* \"#utility.yul\":30835:30855   */\n      sub\n        /* \"#utility.yul\":30831:30832   */\n      0x00\n        /* \"#utility.yul\":30820:30829   */\n      dup4\n        /* \"#utility.yul\":30816:30833   */\n      add\n        /* \"#utility.yul\":30809:30856   */\n      mstore\n        /* \"#utility.yul\":30873:31004   */\n      tag_721\n        /* \"#utility.yul\":30999:31003   */\n      dup2\n        /* \"#utility.yul\":30873:31004   */\n      tag_408\n      jump\t// in\n    tag_721:\n        /* \"#utility.yul\":30865:31004   */\n      swap1\n      pop\n        /* \"#utility.yul\":30592:31011   */\n      swap2\n      swap1\n      pop\n      jump\t// out\n        /* \"#utility.yul\":31017:31197   */\n    tag_223:\n        /* \"#utility.yul\":31065:31142   */\n      0x4e487b7100000000000000000000000000000000000000000000000000000000\n        /* \"#utility.yul\":31062:31063   */\n      0x00\n        /* \"#utility.yul\":31055:31143   */\n      mstore\n        /* \"#utility.yul\":31162:31166   */\n      0x32\n        /* \"#utility.yul\":31159:31160   */\n      0x04\n        /* \"#utility.yul\":31152:31167   */\n      mstore\n        /* \"#utility.yul\":31186:31190   */\n      0x24\n        /* \"#utility.yul\":31183:31184   */\n      0x00\n        /* \"#utility.yul\":31176:31191   */\n      revert\n        /* \"#utility.yul\":31203:31433   */\n    tag_409:\n        /* \"#utility.yul\":31343:31377   */\n      0x5769746864726177616c20616d6f756e74206d75737420626520677265617465\n        /* \"#utility.yul\":31339:31340   */\n      0x00\n        /* \"#utility.yul\":31331:31337   */\n      dup3\n        /* \"#utility.yul\":31327:31341   */\n      add\n        /* \"#utility.yul\":31320:31378   */\n      mstore\n        /* \"#utility.yul\":31412:31425   */\n      0x72207468616e207a65726f000000000000000000000000000000000000000000\n        /* \"#utility.yul\":31407:31409   */\n      0x20\n        /* \"#utility.yul\":31399:31405   */\n      dup3\n        /* \"#utility.yul\":31395:31410   */\n      add\n        /* \"#utility.yul\":31388:31426   */\n      mstore\n        /* \"#utility.yul\":31203:31433   */\n      pop\n      jump\t// out\n        /* \"#utility.yul\":31439:31805   */\n    tag_410:\n        /* \"#utility.yul\":31581:31584   */\n      0x00\n        /* \"#utility.yul\":31602:31669   */\n      tag_725\n        /* \"#utility.yul\":31666:31668   */\n      0x2b\n        /* \"#utility.yul\":31661:31664   */\n      dup4\n        /* \"#utility.yul\":31602:31669   */\n      tag_326\n      jump\t// in\n    tag_725:\n        /* \"#utility.yul\":31595:31669   */\n      swap2\n      pop\n        /* \"#utility.yul\":31678:31771   */\n      tag_726\n        /* \"#utility.yul\":31767:31770   */\n      dup3\n        /* \"#utility.yul\":31678:31771   */\n      tag_409\n      jump\t// in\n    tag_726:\n        /* \"#utility.yul\":31796:31798   */\n      0x40\n        /* \"#utility.yul\":31791:31794   */\n      dup3\n        /* \"#utility.yul\":31787:31799   */\n      add\n        /* \"#utility.yul\":31780:31799   */\n      swap1\n      pop\n        /* \"#utility.yul\":31439:31805   */\n      swap2\n      swap1\n      pop\n      jump\t// out\n        /* \"#utility.yul\":31811:32230   */\n    tag_246:\n        /* \"#utility.yul\":31977:31981   */\n      0x00\n        /* \"#utility.yul\":32015:32017   */\n      0x20\n        /* \"#utility.yul\":32004:32013   */\n      dup3\n        /* \"#utility.yul\":32000:32018   */\n      add\n        /* \"#utility.yul\":31992:32018   */\n      swap1\n      pop\n        /* \"#utility.yul\":32064:32073   */\n      dup2\n        /* \"#utility.yul\":32058:32062   */\n      dup2\n        /* \"#utility.yul\":32054:32074   */\n      sub\n        /* \"#utility.yul\":32050:32051   */\n      0x00\n        /* \"#utility.yul\":32039:32048   */\n      dup4\n        /* \"#utility.yul\":32035:32052   */\n      add\n        /* \"#utility.yul\":32028:32075   */\n      mstore\n        /* \"#utility.yul\":32092:32223   */\n      tag_728\n        /* \"#utility.yul\":32218:32222   */\n      dup2\n        /* \"#utility.yul\":32092:32223   */\n      tag_410\n      jump\t// in\n    tag_728:\n        /* \"#utility.yul\":32084:32223   */\n      swap1\n      pop\n        /* \"#utility.yul\":31811:32230   */\n      swap2\n      swap1\n      pop\n      jump\t// out\n        /* \"#utility.yul\":32236:32404   */\n    tag_411:\n        /* \"#utility.yul\":32376:32396   */\n      0x496e73756666696369656e742066756e64730000000000000000000000000000\n        /* \"#utility.yul\":32372:32373   */\n      0x00\n        /* \"#utility.yul\":32364:32370   */\n      dup3\n        /* \"#utility.yul\":32360:32374   */\n      add\n        /* \"#utility.yul\":32353:32397   */\n      mstore\n        /* \"#utility.yul\":32236:32404   */\n      pop\n      jump\t// out\n        /* \"#utility.yul\":32410:32776   */\n    tag_412:\n        /* \"#utility.yul\":32552:32555   */\n      0x00\n        /* \"#utility.yul\":32573:32640   */\n      tag_731\n        /* \"#utility.yul\":32637:32639   */\n      0x12\n        /* \"#utility.yul\":32632:32635   */\n      dup4\n        /* \"#utility.yul\":32573:32640   */\n      tag_326\n      jump\t// in\n    tag_731:\n        /* \"#utility.yul\":32566:32640   */\n      swap2\n      pop\n        /* \"#utility.yul\":32649:32742   */\n      tag_732\n        /* \"#utility.yul\":32738:32741   */\n      dup3\n        /* \"#utility.yul\":32649:32742   */\n      tag_411\n      jump\t// in\n    tag_732:\n        /* \"#utility.yul\":32767:32769   */\n      0x20\n        /* \"#utility.yul\":32762:32765   */\n      dup3\n        /* \"#utility.yul\":32758:32770   */\n      add\n        /* \"#utility.yul\":32751:32770   */\n      swap1\n      pop\n        /* \"#utility.yul\":32410:32776   */\n      swap2\n      swap1\n      pop\n      jump\t// out\n        /* \"#utility.yul\":32782:33201   */\n    tag_249:\n        /* \"#utility.yul\":32948:32952   */\n      0x00\n        /* \"#utility.yul\":32986:32988   */\n      0x20\n        /* \"#utility.yul\":32975:32984   */\n      dup3\n        /* \"#utility.yul\":32971:32989   */\n      add\n        /* \"#utility.yul\":32963:32989   */\n      swap1\n      pop\n        /* \"#utility.yul\":33035:33044   */\n      dup2\n        /* \"#utility.yul\":33029:33033   */\n      dup2\n        /* \"#utility.yul\":33025:33045   */\n      sub\n        /* \"#utility.yul\":33021:33022   */\n      0x00\n        /* \"#utility.yul\":33010:33019   */\n      dup4\n        /* \"#utility.yul\":33006:33023   */\n      add\n        /* \"#utility.yul\":32999:33046   */\n      mstore\n        /* \"#utility.yul\":33063:33194   */\n      tag_734\n        /* \"#utility.yul\":33189:33193   */\n      dup2\n        /* \"#utility.yul\":33063:33194   */\n      tag_412\n      jump\t// in\n    tag_734:\n        /* \"#utility.yul\":33055:33194   */\n      swap1\n      pop\n        /* \"#utility.yul\":32782:33201   */\n      swap2\n      swap1\n      pop\n      jump\t// out\n        /* \"#utility.yul\":33207:33388   */\n    tag_413:\n        /* \"#utility.yul\":33347:33380   */\n      0x5265656e7472616e637947756172643a207265656e7472616e742063616c6c00\n        /* \"#utility.yul\":33343:33344   */\n      0x00\n        /* \"#utility.yul\":33335:33341   */\n      dup3\n        /* \"#utility.yul\":33331:33345   */\n      add\n        /* \"#utility.yul\":33324:33381   */\n      mstore\n        /* \"#utility.yul\":33207:33388   */\n      pop\n      jump\t// out\n        /* \"#utility.yul\":33394:33760   */\n    tag_414:\n        /* \"#utility.yul\":33536:33539   */\n      0x00\n        /* \"#utility.yul\":33557:33624   */\n      tag_737\n        /* \"#utility.yul\":33621:33623   */\n      0x1f\n        /* \"#utility.yul\":33616:33619   */\n      dup4\n        /* \"#utility.yul\":33557:33624   */\n      tag_326\n      jump\t// in\n    tag_737:\n        /* \"#utility.yul\":33550:33624   */\n      swap2\n      pop\n        /* \"#utility.yul\":33633:33726   */\n      tag_738\n        /* \"#utility.yul\":33722:33725   */\n      dup3\n        /* \"#utility.yul\":33633:33726   */\n      tag_413\n      jump\t// in\n    tag_738:\n        /* \"#utility.yul\":33751:33753   */\n      0x20\n        /* \"#utility.yul\":33746:33749   */\n      dup3\n        /* \"#utility.yul\":33742:33754   */\n      add\n        /* \"#utility.yul\":33735:33754   */\n      swap1\n      pop\n        /* \"#utility.yul\":33394:33760   */\n      swap2\n      swap1\n      pop\n      jump\t// out\n        /* \"#utility.yul\":33766:34185   */\n    tag_268:\n        /* \"#utility.yul\":33932:33936   */\n      0x00\n        /* \"#utility.yul\":33970:33972   */\n      0x20\n        /* \"#utility.yul\":33959:33968   */\n      dup3\n        /* \"#utility.yul\":33955:33973   */\n      add\n        /* \"#utility.yul\":33947:33973   */\n      swap1\n      pop\n        /* \"#utility.yul\":34019:34028   */\n      dup2\n        /* \"#utility.yul\":34013:34017   */\n      dup2\n        /* \"#utility.yul\":34009:34029   */\n      sub\n        /* \"#utility.yul\":34005:34006   */\n      0x00\n        /* \"#utility.yul\":33994:34003   */\n      dup4\n        /* \"#utility.yul\":33990:34007   */\n      add\n        /* \"#utility.yul\":33983:34030   */\n      mstore\n        /* \"#utility.yul\":34047:34178   */\n      tag_740\n        /* \"#utility.yul\":34173:34177   */\n      dup2\n        /* \"#utility.yul\":34047:34178   */\n      tag_414\n      jump\t// in\n    tag_740:\n        /* \"#utility.yul\":34039:34178   */\n      swap1\n      pop\n        /* \"#utility.yul\":33766:34185   */\n      swap2\n      swap1\n      pop\n      jump\t// out\n        /* \"#utility.yul\":34191:34523   */\n    tag_272:\n        /* \"#utility.yul\":34312:34316   */\n      0x00\n        /* \"#utility.yul\":34350:34352   */\n      0x40\n        /* \"#utility.yul\":34339:34348   */\n      dup3\n        /* \"#utility.yul\":34335:34353   */\n      add\n        /* \"#utility.yul\":34327:34353   */\n      swap1\n      pop\n        /* \"#utility.yul\":34363:34434   */\n      tag_742\n        /* \"#utility.yul\":34431:34432   */\n      0x00\n        /* \"#utility.yul\":34420:34429   */\n      dup4\n        /* \"#utility.yul\":34416:34433   */\n      add\n        /* \"#utility.yul\":34407:34413   */\n      dup6\n        /* \"#utility.yul\":34363:34434   */\n      tag_336\n      jump\t// in\n    tag_742:\n        /* \"#utility.yul\":34444:34516   */\n      tag_743\n        /* \"#utility.yul\":34512:34514   */\n      0x20\n        /* \"#utility.yul\":34501:34510   */\n      dup4\n        /* \"#utility.yul\":34497:34515   */\n      add\n        /* \"#utility.yul\":34488:34494   */\n      dup5\n        /* \"#utility.yul\":34444:34516   */\n      tag_325\n      jump\t// in\n    tag_743:\n        /* \"#utility.yul\":34191:34523   */\n      swap4\n      swap3\n      pop\n      pop\n      pop\n      jump\t// out\n        /* \"#utility.yul\":34529:34971   */\n    tag_278:\n        /* \"#utility.yul\":34678:34682   */\n      0x00\n        /* \"#utility.yul\":34716:34718   */\n      0x60\n        /* \"#utility.yul\":34705:34714   */\n      dup3\n        /* \"#utility.yul\":34701:34719   */\n      add\n        /* \"#utility.yul\":34693:34719   */\n      swap1\n      pop\n        /* \"#utility.yul\":34729:34800   */\n      tag_745\n        /* \"#utility.yul\":34797:34798   */\n      0x00\n        /* \"#utility.yul\":34786:34795   */\n      dup4\n        /* \"#utility.yul\":34782:34799   */\n      add\n        /* \"#utility.yul\":34773:34779   */\n      dup7\n        /* \"#utility.yul\":34729:34800   */\n      tag_336\n      jump\t// in\n    tag_745:\n        /* \"#utility.yul\":34810:34882   */\n      tag_746\n        /* \"#utility.yul\":34878:34880   */\n      0x20\n        /* \"#utility.yul\":34867:34876   */\n      dup4\n        /* \"#utility.yul\":34863:34881   */\n      add\n        /* \"#utility.yul\":34854:34860   */\n      dup6\n        /* \"#utility.yul\":34810:34882   */\n      tag_336\n      jump\t// in\n    tag_746:\n        /* \"#utility.yul\":34892:34964   */\n      tag_747\n        /* \"#utility.yul\":34960:34962   */\n      0x40\n        /* \"#utility.yul\":34949:34958   */\n      dup4\n        /* \"#utility.yul\":34945:34963   */\n      add\n        /* \"#utility.yul\":34936:34942   */\n      dup5\n        /* \"#utility.yul\":34892:34964   */\n      tag_325\n      jump\t// in\n    tag_747:\n        /* \"#utility.yul\":34529:34971   */\n      swap5\n      swap4\n      pop\n      pop\n      pop\n      pop\n      jump\t// out\n\n    auxdata: 0xa26469706673582212208523ef908c51dcee6fa87df007e6a606ded81ab694063b67e7b2bc736656fecd64736f6c634300081a0033\n}\n",
				"bytecode": {
					"linkReferences": {},
					"object": "6080604052348015600e575f80fd5b50612df68061001c5f395ff3fe6080604052600436106100eb575f3560e01c80638da5cb5b11610089578063b807a3c411610058578063b807a3c4146103b1578063e3e7c1f9146103d9578063f2fde38b14610401578063f3fef3a314610429576101aa565b80638da5cb5b146102e7578063a9012c8914610311578063a9590e8a14610339578063aee9c87214610375576101aa565b8063485cc955116100c5578063485cc95514610253578063715018a61461027b57806385c758f7146102915780638a19c8bc146102bb576101aa565b80631e83409a146101e557806331f7d9641461020d57806347e7ef2414610237576101aa565b366101aa573460355f8073ffffffffffffffffffffffffffffffffffffffff1673ffffffffffffffffffffffffffffffffffffffff1681526020019081526020015f205f82825461013c9190611ca0565b925050819055505f73ffffffffffffffffffffffffffffffffffffffff163373ffffffffffffffffffffffffffffffffffffffff167f5548c837ab068cf56a2c2479df0882a4922fd203edb7517321831d95078c5f62346040516101a09190611ce2565b60405180910390a3005b6040517f08c379a00000000000000000000000000000000000000000000000000000000081526004016101dc90611d55565b60405180910390fd5b3480156101f0575f80fd5b5061020b60048036038101906102069190611dde565b610451565b005b348015610218575f80fd5b506102216108aa565b60405161022e9190611e18565b60405180910390f35b610251600480360381019061024c9190611e5b565b6108ae565b005b34801561025e575f80fd5b5061027960048036038101906102749190611e99565b610a64565b005b348015610286575f80fd5b5061028f610c2e565b005b34801561029c575f80fd5b506102a5610c41565b6040516102b29190611f32565b60405180910390f35b3480156102c6575f80fd5b506102cf610c66565b6040516102de93929190611fcd565b60405180910390f35b3480156102f2575f80fd5b506102fb610d29565b6040516103089190611e18565b60405180910390f35b34801561031c575f80fd5b506103376004803603810190610332919061215f565b610d5e565b005b348015610344575f80fd5b5061035f600480360381019061035a9190611e99565b610f70565b60405161036c9190611ce2565b60405180910390f35b348015610380575f80fd5b5061039b60048036038101906103969190611dde565b610f90565b6040516103a89190611ce2565b60405180910390f35b3480156103bc575f80fd5b506103d760048036038101906103d291906121cb565b610fa5565b005b3480156103e4575f80fd5b506103ff60048036038101906103fa91906122cd565b6111d2565b005b34801561040c575f80fd5b5061042760048036038101906104229190611dde565b611476565b005b348015610434575f80fd5b5061044f600480360381019061044a9190611e5b565b6114fa565b005b6104596117b2565b60335f015f9054906101000a900467ffffffffffffffff1667ffffffffffffffff164210806104a9575060335f0160089054906101000a900467ffffffffffffffff1667ffffffffffffffff1642115b1561051e574260335f015f9054906101000a900467ffffffffffffffff1660335f0160089054906101000a900467ffffffffffffffff166040517ffa7410d40000000000000000000000000000000000000000000000000000000081526004016105159392919061238e565b60405180910390fd5b5f60365f3373ffffffffffffffffffffffffffffffffffffffff1673ffffffffffffffffffffffffffffffffffffffff1681526020019081526020015f205f8373ffffffffffffffffffffffffffffffffffffffff1673ffffffffffffffffffffffffffffffffffffffff1681526020019081526020015f205490505f81116105dc576040517f08c379a00000000000000000000000000000000000000000000000000000000081526004016105d39061240d565b60405180910390fd5b8060355f8473ffffffffffffffffffffffffffffffffffffffff1673ffffffffffffffffffffffffffffffffffffffff1681526020019081526020015f2054101561065c576040517f08c379a000000000000000000000000000000000000000000000000000000000815260040161065390612475565b60405180910390fd5b5f60365f3373ffffffffffffffffffffffffffffffffffffffff1673ffffffffffffffffffffffffffffffffffffffff1681526020019081526020015f205f8473ffffffffffffffffffffffffffffffffffffffff1673ffffffffffffffffffffffffffffffffffffffff1681526020019081526020015f20819055508060355f8473ffffffffffffffffffffffffffffffffffffffff1673ffffffffffffffffffffffffffffffffffffffff1681526020019081526020015f205f8282546107259190612493565b925050819055505f73ffffffffffffffffffffffffffffffffffffffff168273ffffffffffffffffffffffffffffffffffffffff160361080d575f3373ffffffffffffffffffffffffffffffffffffffff1682604051610784906124f3565b5f6040518083038185875af1925050503d805f81146107be576040519150601f19603f3d011682016040523d82523d5f602084013e6107c3565b606091505b5050905080610807576040517f08c379a00000000000000000000000000000000000000000000000000000000081526004016107fe90612551565b60405180910390fd5b50610839565b61083833828473ffffffffffffffffffffffffffffffffffffffff166117ff9092919063ffffffff16565b5b8173ffffffffffffffffffffffffffffffffffffffff163373ffffffffffffffffffffffffffffffffffffffff167ff7a40077ff7a04c7e61f6f26fb13774259ddf1b6bce9ecf26a8276cdd3992683836040516108969190611ce2565b60405180910390a3506108a761187e565b50565b5f81565b6108b66117b2565b5f73ffffffffffffffffffffffffffffffffffffffff168273ffffffffffffffffffffffffffffffffffffffff16036109305780341461092b576040517f08c379a0000000000000000000000000000000000000000000000000000000008152600401610922906125b9565b60405180910390fd5b6109a0565b5f8111610972576040517f08c379a000000000000000000000000000000000000000000000000000000000815260040161096990612647565b60405180910390fd5b61099f3330838573ffffffffffffffffffffffffffffffffffffffff16611887909392919063ffffffff16565b5b8060355f8473ffffffffffffffffffffffffffffffffffffffff1673ffffffffffffffffffffffffffffffffffffffff1681526020019081526020015f205f8282546109ec9190611ca0565b925050819055508173ffffffffffffffffffffffffffffffffffffffff163373ffffffffffffffffffffffffffffffffffffffff167f5548c837ab068cf56a2c2479df0882a4922fd203edb7517321831d95078c5f6283604051610a509190611ce2565b60405180910390a3610a6061187e565b5050565b5f610a6d611909565b90505f815f0160089054906101000a900460ff161590505f825f015f9054906101000a900467ffffffffffffffff1690505f808267ffffffffffffffff16148015610ab55750825b90505f60018367ffffffffffffffff16148015610ae857505f3073ffffffffffffffffffffffffffffffffffffffff163b145b905081158015610af6575080155b15610b2d576040517ff92ee8a900000000000000000000000000000000000000000000000000000000815260040160405180910390fd5b6001855f015f6101000a81548167ffffffffffffffff021916908367ffffffffffffffff1602179055508315610b7a576001855f0160086101000a81548160ff0219169083151502179055505b610b8386611930565b610b8b611944565b8660325f6101000a81548173ffffffffffffffffffffffffffffffffffffffff021916908373ffffffffffffffffffffffffffffffffffffffff1602179055508315610c25575f855f0160086101000a81548160ff0219169083151502179055507fc7f505b2f371ae2175ee4913f4499e1f2633a7b5936321eed1cdaeb6115181d26001604051610c1c919061269e565b60405180910390a15b50505050505050565b610c36611956565b610c3f5f6119dd565b565b60325f9054906101000a900473ffffffffffffffffffffffffffffffffffffffff1681565b6033805f015f9054906101000a900467ffffffffffffffff1690805f0160089054906101000a900467ffffffffffffffff1690806001018054610ca8906126e4565b80601f0160208091040260200160405190810160405280929190818152602001828054610cd4906126e4565b8015610d1f5780601f10610cf657610100808354040283529160200191610d1f565b820191905f5260205f20905b815481529060010190602001808311610d0257829003601f168201915b5050505050905083565b5f80610d33611aae565b9050805f015f9054906101000a900473ffffffffffffffffffffffffffffffffffffffff1691505090565b60325f9054906101000a900473ffffffffffffffffffffffffffffffffffffffff1673ffffffffffffffffffffffffffffffffffffffff166324d7806c336040518263ffffffff1660e01b8152600401610db89190611e18565b602060405180830381865afa158015610dd3573d5f803e3d5ffd5b505050506040513d601f19601f82011682018060405250810190610df79190612749565b610e36576040517f08c379a0000000000000000000000000000000000000000000000000000000008152600401610e2d906127be565b60405180910390fd5b8167ffffffffffffffff168367ffffffffffffffff1610610e8c576040517f08c379a0000000000000000000000000000000000000000000000000000000008152600401610e839061284c565b60405180910390fd5b60405180606001604052808467ffffffffffffffff1681526020018367ffffffffffffffff1681526020018281525060335f820151815f015f6101000a81548167ffffffffffffffff021916908367ffffffffffffffff1602179055506020820151815f0160086101000a81548167ffffffffffffffff021916908367ffffffffffffffff1602179055506040820151816001019081610f2c91906129fe565b509050507f09e6db48f22357e6dce2bbff89db8ff25f0012a08186d6ea72e2343fdc112e13838383604051610f6393929190612acd565b60405180910390a1505050565b6036602052815f5260405f20602052805f5260405f205f91509150505481565b6035602052805f5260405f205f915090505481565b60325f9054906101000a900473ffffffffffffffffffffffffffffffffffffffff1673ffffffffffffffffffffffffffffffffffffffff166324d7806c336040518263ffffffff1660e01b8152600401610fff9190611e18565b602060405180830381865afa15801561101a573d5f803e3d5ffd5b505050506040513d601f19601f8201168201806040525081019061103e9190612749565b61107d576040517f08c379a0000000000000000000000000000000000000000000000000000000008152600401611074906127be565b60405180910390fd5b5f73ffffffffffffffffffffffffffffffffffffffff168373ffffffffffffffffffffffffffffffffffffffff16036110eb576040517f08c379a00000000000000000000000000000000000000000000000000000000081526004016110e290612b53565b60405180910390fd5b8060365f8573ffffffffffffffffffffffffffffffffffffffff1673ffffffffffffffffffffffffffffffffffffffff1681526020019081526020015f205f8473ffffffffffffffffffffffffffffffffffffffff1673ffffffffffffffffffffffffffffffffffffffff1681526020019081526020015f20819055508173ffffffffffffffffffffffffffffffffffffffff168373ffffffffffffffffffffffffffffffffffffffff167f3d0601f3b0e52fd772f1fa71d91651b34b6a11144bea30d74e0f820019a04dc2836040516111c59190611ce2565b60405180910390a3505050565b60325f9054906101000a900473ffffffffffffffffffffffffffffffffffffffff1673ffffffffffffffffffffffffffffffffffffffff166324d7806c336040518263ffffffff1660e01b815260040161122c9190611e18565b602060405180830381865afa158015611247573d5f803e3d5ffd5b505050506040513d601f19601f8201168201806040525081019061126b9190612749565b6112aa576040517f08c379a00000000000000000000000000000000000000000000000000000000081526004016112a1906127be565b60405180910390fd5b8181905084849050146112f2576040517f08c379a00000000000000000000000000000000000000000000000000000000081526004016112e990612bbb565b60405180910390fd5b5f5b8484905081101561146e5782828281811061131257611311612bd9565b5b9050602002013560365f87878581811061132f5761132e612bd9565b5b90506020020160208101906113449190611dde565b73ffffffffffffffffffffffffffffffffffffffff1673ffffffffffffffffffffffffffffffffffffffff1681526020019081526020015f205f8873ffffffffffffffffffffffffffffffffffffffff1673ffffffffffffffffffffffffffffffffffffffff1681526020019081526020015f20819055508573ffffffffffffffffffffffffffffffffffffffff168585838181106113e6576113e5612bd9565b5b90506020020160208101906113fb9190611dde565b73ffffffffffffffffffffffffffffffffffffffff167f3d0601f3b0e52fd772f1fa71d91651b34b6a11144bea30d74e0f820019a04dc285858581811061144557611444612bd9565b5b905060200201356040516114599190611ce2565b60405180910390a380806001019150506112f4565b505050505050565b61147e611956565b5f73ffffffffffffffffffffffffffffffffffffffff168173ffffffffffffffffffffffffffffffffffffffff16036114ee575f6040517f1e4fbdf70000000000000000000000000000000000000000000000000000000081526004016114e59190611e18565b60405180910390fd5b6114f7816119dd565b50565b611502611956565b61150a6117b2565b5f811161154c576040517f08c379a000000000000000000000000000000000000000000000000000000000815260040161154390612c76565b60405180910390fd5b8060355f8473ffffffffffffffffffffffffffffffffffffffff1673ffffffffffffffffffffffffffffffffffffffff1681526020019081526020015f205410156115cc576040517f08c379a00000000000000000000000000000000000000000000000000000000081526004016115c390612cde565b60405180910390fd5b8060355f8473ffffffffffffffffffffffffffffffffffffffff1673ffffffffffffffffffffffffffffffffffffffff1681526020019081526020015f205f8282546116189190612493565b925050819055505f73ffffffffffffffffffffffffffffffffffffffff168273ffffffffffffffffffffffffffffffffffffffff1603611707575f61165b610d29565b73ffffffffffffffffffffffffffffffffffffffff168260405161167e906124f3565b5f6040518083038185875af1925050503d805f81146116b8576040519150601f19603f3d011682016040523d82523d5f602084013e6116bd565b606091505b5050905080611701576040517f08c379a00000000000000000000000000000000000000000000000000000000081526004016116f890612551565b60405180910390fd5b5061173a565b611739611712610d29565b828473ffffffffffffffffffffffffffffffffffffffff166117ff9092919063ffffffff16565b5b8173ffffffffffffffffffffffffffffffffffffffff16611759610d29565b73ffffffffffffffffffffffffffffffffffffffff167f9b1bfa7fa9ee420a16e124f794c35ac9f90472acc99140eb2f6447c714cad8eb8360405161179e9190611ce2565b60405180910390a36117ae61187e565b5050565b60025f54036117f6576040517f08c379a00000000000000000000000000000000000000000000000000000000081526004016117ed90612d46565b60405180910390fd5b60025f81905550565b611879838473ffffffffffffffffffffffffffffffffffffffff1663a9059cbb8585604051602401611832929190612d64565b604051602081830303815290604052915060e01b6020820180517bffffffffffffffffffffffffffffffffffffffffffffffffffffffff8381831617835250505050611ad5565b505050565b60015f81905550565b611903848573ffffffffffffffffffffffffffffffffffffffff166323b872dd8686866040516024016118bc93929190612d8b565b604051602081830303815290604052915060e01b6020820180517bffffffffffffffffffffffffffffffffffffffffffffffffffffffff8381831617835250505050611ad5565b50505050565b5f7ff0c57e16840df040f15088dc2f81fe391c3923bec73e23a9662efc9c229c6a00905090565b611938611b70565b61194181611bb0565b50565b61194c611b70565b611954611c34565b565b61195e611c45565b73ffffffffffffffffffffffffffffffffffffffff1661197c610d29565b73ffffffffffffffffffffffffffffffffffffffff16146119db5761199f611c45565b6040517f118cdaa70000000000000000000000000000000000000000000000000000000081526004016119d29190611e18565b60405180910390fd5b565b5f6119e6611aae565b90505f815f015f9054906101000a900473ffffffffffffffffffffffffffffffffffffffff16905082825f015f6101000a81548173ffffffffffffffffffffffffffffffffffffffff021916908373ffffffffffffffffffffffffffffffffffffffff1602179055508273ffffffffffffffffffffffffffffffffffffffff168173ffffffffffffffffffffffffffffffffffffffff167f8be0079c531659141344cd1fd0a4f28419497f9722a3daafe3b4186f6b6457e060405160405180910390a3505050565b5f7f9016d09d72d40fdae2fd8ceac6b6234c7706214fd39c1cd1e609a0528c199300905090565b5f8060205f8451602086015f885af180611af4576040513d5f823e3d81fd5b3d92505f519150505f8214611b0d576001811415611b28565b5f8473ffffffffffffffffffffffffffffffffffffffff163b145b15611b6a57836040517f5274afe7000000000000000000000000000000000000000000000000000000008152600401611b619190611e18565b60405180910390fd5b50505050565b611b78611c4c565b611bae576040517fd7e6bcf800000000000000000000000000000000000000000000000000000000815260040160405180910390fd5b565b611bb8611b70565b5f73ffffffffffffffffffffffffffffffffffffffff168173ffffffffffffffffffffffffffffffffffffffff1603611c28575f6040517f1e4fbdf7000000000000000000000000000000000000000000000000000000008152600401611c1f9190611e18565b60405180910390fd5b611c31816119dd565b50565b611c3c611b70565b60015f81905550565b5f33905090565b5f611c55611909565b5f0160089054906101000a900460ff16905090565b5f819050919050565b7f4e487b71000000000000000000000000000000000000000000000000000000005f52601160045260245ffd5b5f611caa82611c6a565b9150611cb583611c6a565b9250828201905080821115611ccd57611ccc611c73565b5b92915050565b611cdc81611c6a565b82525050565b5f602082019050611cf55f830184611cd3565b92915050565b5f82825260208201905092915050565b7f537765657473706f743a20757365206465706f736974282900000000000000005f82015250565b5f611d3f601883611cfb565b9150611d4a82611d0b565b602082019050919050565b5f6020820190508181035f830152611d6c81611d33565b9050919050565b5f604051905090565b5f80fd5b5f80fd5b5f73ffffffffffffffffffffffffffffffffffffffff82169050919050565b5f611dad82611d84565b9050919050565b611dbd81611da3565b8114611dc7575f80fd5b50565b5f81359050611dd881611db4565b92915050565b5f60208284031215611df357611df2611d7c565b5b5f611e0084828501611dca565b91505092915050565b611e1281611da3565b82525050565b5f602082019050611e2b5f830184611e09565b92915050565b611e3a81611c6a565b8114611e44575f80fd5b50565b5f81359050611e5581611e31565b92915050565b5f8060408385031215611e7157611e70611d7c565b5b5f611e7e85828601611dca565b9250506020611e8f85828601611e47565b9150509250929050565b5f8060408385031215611eaf57611eae611d7c565b5b5f611ebc85828601611dca565b9250506020611ecd85828601611dca565b9150509250929050565b5f819050919050565b5f611efa611ef5611ef084611d84565b611ed7565b611d84565b9050919050565b5f611f0b82611ee0565b9050919050565b5f611f1c82611f01565b9050919050565b611f2c81611f12565b82525050565b5f602082019050611f455f830184611f23565b92915050565b5f67ffffffffffffffff82169050919050565b611f6781611f4b565b82525050565b5f81519050919050565b8281835e5f83830152505050565b5f601f19601f8301169050919050565b5f611f9f82611f6d565b611fa98185611cfb565b9350611fb9818560208601611f77565b611fc281611f85565b840191505092915050565b5f606082019050611fe05f830186611f5e565b611fed6020830185611f5e565b8181036040830152611fff8184611f95565b9050949350505050565b61201281611f4b565b811461201c575f80fd5b50565b5f8135905061202d81612009565b92915050565b5f80fd5b5f80fd5b7f4e487b71000000000000000000000000000000000000000000000000000000005f52604160045260245ffd5b61207182611f85565b810181811067ffffffffffffffff821117156120905761208f61203b565b5b80604052505050565b5f6120a2611d73565b90506120ae8282612068565b919050565b5f67ffffffffffffffff8211156120cd576120cc61203b565b5b6120d682611f85565b9050602081019050919050565b828183375f83830152505050565b5f6121036120fe846120b3565b612099565b90508281526020810184848401111561211f5761211e612037565b5b61212a8482856120e3565b509392505050565b5f82601f83011261214657612145612033565b5b81356121568482602086016120f1565b91505092915050565b5f805f6060848603121561217657612175611d7c565b5b5f6121838682870161201f565b93505060206121948682870161201f565b925050604084013567ffffffffffffffff8111156121b5576121b4611d80565b5b6121c186828701612132565b9150509250925092565b5f805f606084860312156121e2576121e1611d7c565b5b5f6121ef86828701611dca565b935050602061220086828701611dca565b925050604061221186828701611e47565b9150509250925092565b5f80fd5b5f80fd5b5f8083601f84011261223857612237612033565b5b8235905067ffffffffffffffff8111156122555761225461221b565b5b6020830191508360208202830111156122715761227061221f565b5b9250929050565b5f8083601f84011261228d5761228c612033565b5b8235905067ffffffffffffffff8111156122aa576122a961221b565b5b6020830191508360208202830111156122c6576122c561221f565b5b9250929050565b5f805f805f606086880312156122e6576122e5611d7c565b5b5f6122f388828901611dca565b955050602086013567ffffffffffffffff81111561231457612313611d80565b5b61232088828901612223565b9450945050604086013567ffffffffffffffff81111561234357612342611d80565b5b61234f88828901612278565b92509250509295509295909350565b5f61237861237361236e84611f4b565b611ed7565b611c6a565b9050919050565b6123888161235e565b82525050565b5f6060820190506123a15f830186611cd3565b6123ae602083018561237f565b6123bb604083018461237f565b949350505050565b7f4e6f20636c61696d61626c6520616d6f756e74000000000000000000000000005f82015250565b5f6123f7601383611cfb565b9150612402826123c3565b602082019050919050565b5f6020820190508181035f830152612424816123eb565b9050919050565b7f496e73756666696369656e742066756e647320696e206a6172000000000000005f82015250565b5f61245f601983611cfb565b915061246a8261242b565b602082019050919050565b5f6020820190508181035f83015261248c81612453565b9050919050565b5f61249d82611c6a565b91506124a883611c6a565b92508282039050818111156124c0576124bf611c73565b5b92915050565b5f81905092915050565b50565b5f6124de5f836124c6565b91506124e9826124d0565b5f82019050919050565b5f6124fd826124d3565b9150819050919050565b7f4574686572207472616e73666572206661696c656400000000000000000000005f82015250565b5f61253b601583611cfb565b915061254682612507565b602082019050919050565b5f6020820190508181035f8301526125688161252f565b9050919050565b7f496e636f727265637420457468657220616d6f756e74000000000000000000005f82015250565b5f6125a3601683611cfb565b91506125ae8261256f565b602082019050919050565b5f6020820190508181035f8301526125d081612597565b9050919050565b7f4465706f73697420616d6f756e74206d757374206265206772656174657220745f8201527f68616e207a65726f000000000000000000000000000000000000000000000000602082015250565b5f612631602883611cfb565b915061263c826125d7565b604082019050919050565b5f6020820190508181035f83015261265e81612625565b9050919050565b5f819050919050565b5f61268861268361267e84612665565b611ed7565b611f4b565b9050919050565b6126988161266e565b82525050565b5f6020820190506126b15f83018461268f565b92915050565b7f4e487b71000000000000000000000000000000000000000000000000000000005f52602260045260245ffd5b5f60028204905060018216806126fb57607f821691505b60208210810361270e5761270d6126b7565b5b50919050565b5f8115159050919050565b61272881612714565b8114612732575f80fd5b50565b5f815190506127438161271f565b92915050565b5f6020828403121561275e5761275d611d7c565b5b5f61276b84828501612735565b91505092915050565b7f43616c6c6572206973206e6f7420616e2061646d696e000000000000000000005f82015250565b5f6127a8601683611cfb565b91506127b382612774565b602082019050919050565b5f6020820190508181035f8301526127d58161279c565b9050919050565b7f53746172742074696d65206d757374206265206265666f726520656e642074695f8201527f6d65000000000000000000000000000000000000000000000000000000000000602082015250565b5f612836602283611cfb565b9150612841826127dc565b604082019050919050565b5f6020820190508181035f8301526128638161282a565b9050919050565b5f819050815f5260205f209050919050565b5f6020601f8301049050919050565b5f82821b905092915050565b5f600883026128c67fffffffffffffffffffffffffffffffffffffffffffffffffffffffffffffffff8261288b565b6128d0868361288b565b95508019841693508086168417925050509392505050565b5f6129026128fd6128f884611c6a565b611ed7565b611c6a565b9050919050565b5f819050919050565b61291b836128e8565b61292f61292782612909565b848454612897565b825550505050565b5f90565b612943612937565b61294e818484612912565b505050565b5b81811015612971576129665f8261293b565b600181019050612954565b5050565b601f8211156129b6576129878161286a565b6129908461287c565b8101602085101561299f578190505b6129b36129ab8561287c565b830182612953565b50505b505050565b5f82821c905092915050565b5f6129d65f19846008026129bb565b1980831691505092915050565b5f6129ee83836129c7565b9150826002028217905092915050565b612a0782611f6d565b67ffffffffffffffff811115612a2057612a1f61203b565b5b612a2a82546126e4565b612a35828285612975565b5f60209050601f831160018114612a66575f8415612a54578287015190505b612a5e85826129e3565b865550612ac5565b601f198416612a748661286a565b5f5b82811015612a9b57848901518255600182019150602085019450602081019050612a76565b86831015612ab85784890151612ab4601f8916826129c7565b8355505b6001600288020188555050505b505050505050565b5f606082019050612ae05f83018661237f565b612aed602083018561237f565b8181036040830152612aff8184611f95565b9050949350505050565b7f5a65726f206164647265737320757365720000000000000000000000000000005f82015250565b5f612b3d601183611cfb565b9150612b4882612b09565b602082019050919050565b5f6020820190508181035f830152612b6a81612b31565b9050919050565b7f4d69736d617463686564206172726179206c656e6774687300000000000000005f82015250565b5f612ba5601883611cfb565b9150612bb082612b71565b602082019050919050565b5f6020820190508181035f830152612bd281612b99565b9050919050565b7f4e487b71000000000000000000000000000000000000000000000000000000005f52603260045260245ffd5b7f5769746864726177616c20616d6f756e74206d757374206265206772656174655f8201527f72207468616e207a65726f000000000000000000000000000000000000000000602082015250565b5f612c60602b83611cfb565b9150612c6b82612c06565b604082019050919050565b5f6020820190508181035f830152612c8d81612c54565b9050919050565b7f496e73756666696369656e742066756e647300000000000000000000000000005f82015250565b5f612cc8601283611cfb565b9150612cd382612c94565b602082019050919050565b5f6020820190508181035f830152612cf581612cbc565b9050919050565b7f5265656e7472616e637947756172643a207265656e7472616e742063616c6c005f82015250565b5f612d30601f83611cfb565b9150612d3b82612cfc565b602082019050919050565b5f6020820190508181035f830152612d5d81612d24565b9050919050565b5f604082019050612d775f830185611e09565b612d846020830184611cd3565b9392505050565b5f606082019050612d9e5f830186611e09565b612dab6020830185611e09565b612db86040830184611cd3565b94935050505056fea26469706673582212208523ef908c51dcee6fa87df007e6a606ded81ab694063b67e7b2bc736656fecd64736f6c634300081a0033",
					"opcodes": "PUSH1 0x80 PUSH1 0x40 MSTORE CALLVALUE DUP1 ISZERO PUSH1 0xE JUMPI PUSH0 DUP1 REVERT JUMPDEST POP PUSH2 0x2DF6 DUP1 PUSH2 0x1C PUSH0 CODECOPY PUSH0 RETURN INVALID PUSH1 0x80 PUSH1 0x40 MSTORE PUSH1 0x4 CALLDATASIZE LT PUSH2 0xEB JUMPI PUSH0 CALLDATALOAD PUSH1 0xE0 SHR DUP1 PUSH4 0x8DA5CB5B GT PUSH2 0x89 JUMPI DUP1 PUSH4 0xB807A3C4 GT PUSH2 0x58 JUMPI DUP1 PUSH4 0xB807A3C4 EQ PUSH2 0x3B1 JUMPI DUP1 PUSH4 0xE3E7C1F9 EQ PUSH2 0x3D9 JUMPI DUP1 PUSH4 0xF2FDE38B EQ PUSH2 0x401 JUMPI DUP1 PUSH4 0xF3FEF3A3 EQ PUSH2 0x429 JUMPI PUSH2 0x1AA JUMP JUMPDEST DUP1 PUSH4 0x8DA5CB5B EQ PUSH2 0x2E7 JUMPI DUP1 PUSH4 0xA9012C89 EQ PUSH2 0x311 JUMPI DUP1 PUSH4 0xA9590E8A EQ PUSH2 0x339 JUMPI DUP1 PUSH4 0xAEE9C872 EQ PUSH2 0x375 JUMPI PUSH2 0x1AA JUMP JUMPDEST DUP1 PUSH4 0x485CC955 GT PUSH2 0xC5 JUMPI DUP1 PUSH4 0x485CC955 EQ PUSH2 0x253 JUMPI DUP1 PUSH4 0x715018A6 EQ PUSH2 0x27B JUMPI DUP1 PUSH4 0x85C758F7 EQ PUSH2 0x291 JUMPI DUP1 PUSH4 0x8A19C8BC EQ PUSH2 0x2BB JUMPI PUSH2 0x1AA JUMP JUMPDEST DUP1 PUSH4 0x1E83409A EQ PUSH2 0x1E5 JUMPI DUP1 PUSH4 0x31F7D964 EQ PUSH2 0x20D JUMPI DUP1 PUSH4 0x47E7EF24 EQ PUSH2 0x237 JUMPI PUSH2 0x1AA JUMP JUMPDEST CALLDATASIZE PUSH2 0x1AA JUMPI CALLVALUE PUSH1 0x35 PUSH0 DUP1 PUSH20 0xFFFFFFFFFFFFFFFFFFFFFFFFFFFFFFFFFFFFFFFF AND PUSH20 0xFFFFFFFFFFFFFFFFFFFFFFFFFFFFFFFFFFFFFFFF AND DUP2 MSTORE PUSH1 0x20 ADD SWAP1 DUP2 MSTORE PUSH1 0x20 ADD PUSH0 KECCAK256 PUSH0 DUP3 DUP3 SLOAD PUSH2 0x13C SWAP2 SWAP1 PUSH2 0x1CA0 JUMP JUMPDEST SWAP3 POP POP DUP2 SWAP1 SSTORE POP PUSH0 PUSH20 0xFFFFFFFFFFFFFFFFFFFFFFFFFFFFFFFFFFFFFFFF AND CALLER PUSH20 0xFFFFFFFFFFFFFFFFFFFFFFFFFFFFFFFFFFFFFFFF AND PUSH32 0x5548C837AB068CF56A2C2479DF0882A4922FD203EDB7517321831D95078C5F62 CALLVALUE PUSH1 0x40 MLOAD PUSH2 0x1A0 SWAP2 SWAP1 PUSH2 0x1CE2 JUMP JUMPDEST PUSH1 0x40 MLOAD DUP1 SWAP2 SUB SWAP1 LOG3 STOP JUMPDEST PUSH1 0x40 MLOAD PUSH32 0x8C379A000000000000000000000000000000000000000000000000000000000 DUP2 MSTORE PUSH1 0x4 ADD PUSH2 0x1DC SWAP1 PUSH2 0x1D55 JUMP JUMPDEST PUSH1 0x40 MLOAD DUP1 SWAP2 SUB SWAP1 REVERT JUMPDEST CALLVALUE DUP1 ISZERO PUSH2 0x1F0 JUMPI PUSH0 DUP1 REVERT JUMPDEST POP PUSH2 0x20B PUSH1 0x4 DUP1 CALLDATASIZE SUB DUP2 ADD SWAP1 PUSH2 0x206 SWAP2 SWAP1 PUSH2 0x1DDE JUMP JUMPDEST PUSH2 0x451 JUMP JUMPDEST STOP JUMPDEST CALLVALUE DUP1 ISZERO PUSH2 0x218 JUMPI PUSH0 DUP1 REVERT JUMPDEST POP PUSH2 0x221 PUSH2 0x8AA JUMP JUMPDEST PUSH1 0x40 MLOAD PUSH2 0x22E SWAP2 SWAP1 PUSH2 0x1E18 JUMP JUMPDEST PUSH1 0x40 MLOAD DUP1 SWAP2 SUB SWAP1 RETURN JUMPDEST PUSH2 0x251 PUSH1 0x4 DUP1 CALLDATASIZE SUB DUP2 ADD SWAP1 PUSH2 0x24C SWAP2 SWAP1 PUSH2 0x1E5B JUMP JUMPDEST PUSH2 0x8AE JUMP JUMPDEST STOP JUMPDEST CALLVALUE DUP1 ISZERO PUSH2 0x25E JUMPI PUSH0 DUP1 REVERT JUMPDEST POP PUSH2 0x279 PUSH1 0x4 DUP1 CALLDATASIZE SUB DUP2 ADD SWAP1 PUSH2 0x274 SWAP2 SWAP1 PUSH2 0x1E99 JUMP JUMPDEST PUSH2 0xA64 JUMP JUMPDEST STOP JUMPDEST CALLVALUE DUP1 ISZERO PUSH2 0x286 JUMPI PUSH0 DUP1 REVERT JUMPDEST POP PUSH2 0x28F PUSH2 0xC2E JUMP JUMPDEST STOP JUMPDEST CALLVALUE DUP1 ISZERO PUSH2 0x29C JUMPI PUSH0 DUP1 REVERT JUMPDEST POP PUSH2 0x2A5 PUSH2 0xC41 JUMP JUMPDEST PUSH1 0x40 MLOAD PUSH2 0x2B2 SWAP2 SWAP1 PUSH2 0x1F32 JUMP JUMPDEST PUSH1 0x40 MLOAD DUP1 SWAP2 SUB SWAP1 RETURN JUMPDEST CALLVALUE DUP1 ISZERO PUSH2 0x2C6 JUMPI PUSH0 DUP1 REVERT JUMPDEST POP PUSH2 0x2CF PUSH2 0xC66 JUMP JUMPDEST PUSH1 0x40 MLOAD PUSH2 0x2DE SWAP4 SWAP3 SWAP2 SWAP1 PUSH2 0x1FCD JUMP JUMPDEST PUSH1 0x40 MLOAD DUP1 SWAP2 SUB SWAP1 RETURN JUMPDEST CALLVALUE DUP1 ISZERO PUSH2 0x2F2 JUMPI PUSH0 DUP1 REVERT JUMPDEST POP PUSH2 0x2FB PUSH2 0xD29 JUMP JUMPDEST PUSH1 0x40 MLOAD PUSH2 0x308 SWAP2 SWAP1 PUSH2 0x1E18 JUMP JUMPDEST PUSH1 0x40 MLOAD DUP1 SWAP2 SUB SWAP1 RETURN JUMPDEST CALLVALUE DUP1 ISZERO PUSH2 0x31C JUMPI PUSH0 DUP1 REVERT JUMPDEST POP PUSH2 0x337 PUSH1 0x4 DUP1 CALLDATASIZE SUB DUP2 ADD SWAP1 PUSH2 0x332 SWAP2 SWAP1 PUSH2 0x215F JUMP JUMPDEST PUSH2 0xD5E JUMP JUMPDEST STOP JUMPDEST CALLVALUE DUP1 ISZERO PUSH2 0x344 JUMPI PUSH0 DUP1 REVERT JUMPDEST POP PUSH2 0x35F PUSH1 0x4 DUP1 CALLDATASIZE SUB DUP2 ADD SWAP1 PUSH2 0x35A SWAP2 SWAP1 PUSH2 0x1E99 JUMP JUMPDEST PUSH2 0xF70 JUMP JUMPDEST PUSH1 0x40 MLOAD PUSH2 0x36C SWAP2 SWAP1 PUSH2 0x1CE2 JUMP JUMPDEST PUSH1 0x40 MLOAD DUP1 SWAP2 SUB SWAP1 RETURN JUMPDEST CALLVALUE DUP1 ISZERO PUSH2 0x380 JUMPI PUSH0 DUP1 REVERT JUMPDEST POP PUSH2 0x39B PUSH1 0x4 DUP1 CALLDATASIZE SUB DUP2 ADD SWAP1 PUSH2 0x396 SWAP2 SWAP1 PUSH2 0x1DDE JUMP JUMPDEST PUSH2 0xF90 JUMP JUMPDEST PUSH1 0x40 MLOAD PUSH2 0x3A8 SWAP2 SWAP1 PUSH2 0x1CE2 JUMP JUMPDEST PUSH1 0x40 MLOAD DUP1 SWAP2 SUB SWAP1 RETURN JUMPDEST CALLVALUE DUP1 ISZERO PUSH2 0x3BC JUMPI PUSH0 DUP1 REVERT JUMPDEST POP PUSH2 0x3D7 PUSH1 0x4 DUP1 CALLDATASIZE SUB DUP2 ADD SWAP1 PUSH2 0x3D2 SWAP2 SWAP1 PUSH2 0x21CB JUMP JUMPDEST PUSH2 0xFA5 JUMP JUMPDEST STOP JUMPDEST CALLVALUE DUP1 ISZERO PUSH2 0x3E4 JUMPI PUSH0 DUP1 REVERT JUMPDEST POP PUSH2 0x3FF PUSH1 0x4 DUP1 CALLDATASIZE SUB DUP2 ADD SWAP1 PUSH2 0x3FA SWAP2 SWAP1 PUSH2 0x22CD JUMP JUMPDEST PUSH2 0x11D2 JUMP JUMPDEST STOP JUMPDEST CALLVALUE DUP1 ISZERO PUSH2 0x40C JUMPI PUSH0 DUP1 REVERT JUMPDEST POP PUSH2 0x427 PUSH1 0x4 DUP1 CALLDATASIZE SUB DUP2 ADD SWAP1 PUSH2 0x422 SWAP2 SWAP1 PUSH2 0x1DDE JUMP JUMPDEST PUSH2 0x1476 JUMP JUMPDEST STOP JUMPDEST CALLVALUE DUP1 ISZERO PUSH2 0x434 JUMPI PUSH0 DUP1 REVERT JUMPDEST POP PUSH2 0x44F PUSH1 0x4 DUP1 CALLDATASIZE SUB DUP2 ADD SWAP1 PUSH2 0x44A SWAP2 SWAP1 PUSH2 0x1E5B JUMP JUMPDEST PUSH2 0x14FA JUMP JUMPDEST STOP JUMPDEST PUSH2 0x459 PUSH2 0x17B2 JUMP JUMPDEST PUSH1 0x33 PUSH0 ADD PUSH0 SWAP1 SLOAD SWAP1 PUSH2 0x100 EXP SWAP1 DIV PUSH8 0xFFFFFFFFFFFFFFFF AND PUSH8 0xFFFFFFFFFFFFFFFF AND TIMESTAMP LT DUP1 PUSH2 0x4A9 JUMPI POP PUSH1 0x33 PUSH0 ADD PUSH1 0x8 SWAP1 SLOAD SWAP1 PUSH2 0x100 EXP SWAP1 DIV PUSH8 0xFFFFFFFFFFFFFFFF AND PUSH8 0xFFFFFFFFFFFFFFFF AND TIMESTAMP GT JUMPDEST ISZERO PUSH2 0x51E JUMPI TIMESTAMP PUSH1 0x33 PUSH0 ADD PUSH0 SWAP1 SLOAD SWAP1 PUSH2 0x100 EXP SWAP1 DIV PUSH8 0xFFFFFFFFFFFFFFFF AND PUSH1 0x33 PUSH0 ADD PUSH1 0x8 SWAP1 SLOAD SWAP1 PUSH2 0x100 EXP SWAP1 DIV PUSH8 0xFFFFFFFFFFFFFFFF AND PUSH1 0x40 MLOAD PUSH32 0xFA7410D400000000000000000000000000000000000000000000000000000000 DUP2 MSTORE PUSH1 0x4 ADD PUSH2 0x515 SWAP4 SWAP3 SWAP2 SWAP1 PUSH2 0x238E JUMP JUMPDEST PUSH1 0x40 MLOAD DUP1 SWAP2 SUB SWAP1 REVERT JUMPDEST PUSH0 PUSH1 0x36 PUSH0 CALLER PUSH20 0xFFFFFFFFFFFFFFFFFFFFFFFFFFFFFFFFFFFFFFFF AND PUSH20 0xFFFFFFFFFFFFFFFFFFFFFFFFFFFFFFFFFFFFFFFF AND DUP2 MSTORE PUSH1 0x20 ADD SWAP1 DUP2 MSTORE PUSH1 0x20 ADD PUSH0 KECCAK256 PUSH0 DUP4 PUSH20 0xFFFFFFFFFFFFFFFFFFFFFFFFFFFFFFFFFFFFFFFF AND PUSH20 0xFFFFFFFFFFFFFFFFFFFFFFFFFFFFFFFFFFFFFFFF AND DUP2 MSTORE PUSH1 0x20 ADD SWAP1 DUP2 MSTORE PUSH1 0x20 ADD PUSH0 KECCAK256 SLOAD SWAP1 POP PUSH0 DUP2 GT PUSH2 0x5DC JUMPI PUSH1 0x40 MLOAD PUSH32 0x8C379A000000000000000000000000000000000000000000000000000000000 DUP2 MSTORE PUSH1 0x4 ADD PUSH2 0x5D3 SWAP1 PUSH2 0x240D JUMP JUMPDEST PUSH1 0x40 MLOAD DUP1 SWAP2 SUB SWAP1 REVERT JUMPDEST DUP1 PUSH1 0x35 PUSH0 DUP5 PUSH20 0xFFFFFFFFFFFFFFFFFFFFFFFFFFFFFFFFFFFFFFFF AND PUSH20 0xFFFFFFFFFFFFFFFFFFFFFFFFFFFFFFFFFFFFFFFF AND DUP2 MSTORE PUSH1 0x20 ADD SWAP1 DUP2 MSTORE PUSH1 0x20 ADD PUSH0 KECCAK256 SLOAD LT ISZERO PUSH2 0x65C JUMPI PUSH1 0x40 MLOAD PUSH32 0x8C379A000000000000000000000000000000000000000000000000000000000 DUP2 MSTORE PUSH1 0x4 ADD PUSH2 0x653 SWAP1 PUSH2 0x2475 JUMP JUMPDEST PUSH1 0x40 MLOAD DUP1 SWAP2 SUB SWAP1 REVERT JUMPDEST PUSH0 PUSH1 0x36 PUSH0 CALLER PUSH20 0xFFFFFFFFFFFFFFFFFFFFFFFFFFFFFFFFFFFFFFFF AND PUSH20 0xFFFFFFFFFFFFFFFFFFFFFFFFFFFFFFFFFFFFFFFF AND DUP2 MSTORE PUSH1 0x20 ADD SWAP1 DUP2 MSTORE PUSH1 0x20 ADD PUSH0 KECCAK256 PUSH0 DUP5 PUSH20 0xFFFFFFFFFFFFFFFFFFFFFFFFFFFFFFFFFFFFFFFF AND PUSH20 0xFFFFFFFFFFFFFFFFFFFFFFFFFFFFFFFFFFFFFFFF AND DUP2 MSTORE PUSH1 0x20 ADD SWAP1 DUP2 MSTORE PUSH1 0x20 ADD PUSH0 KECCAK256 DUP2 SWAP1 SSTORE POP DUP1 PUSH1 0x35 PUSH0 DUP5 PUSH20 0xFFFFFFFFFFFFFFFFFFFFFFFFFFFFFFFFFFFFFFFF AND PUSH20 0xFFFFFFFFFFFFFFFFFFFFFFFFFFFFFFFFFFFFFFFF AND DUP2 MSTORE PUSH1 0x20 ADD SWAP1 DUP2 MSTORE PUSH1 0x20 ADD PUSH0 KECCAK256 PUSH0 DUP3 DUP3 SLOAD PUSH2 0x725 SWAP2 SWAP1 PUSH2 0x2493 JUMP JUMPDEST SWAP3 POP POP DUP2 SWAP1 SSTORE POP PUSH0 PUSH20 0xFFFFFFFFFFFFFFFFFFFFFFFFFFFFFFFFFFFFFFFF AND DUP3 PUSH20 0xFFFFFFFFFFFFFFFFFFFFFFFFFFFFFFFFFFFFFFFF AND SUB PUSH2 0x80D JUMPI PUSH0 CALLER PUSH20 0xFFFFFFFFFFFFFFFFFFFFFFFFFFFFFFFFFFFFFFFF AND DUP3 PUSH1 0x40 MLOAD PUSH2 0x784 SWAP1 PUSH2 0x24F3 JUMP JUMPDEST PUSH0 PUSH1 0x40 MLOAD DUP1 DUP4 SUB DUP2 DUP6 DUP8 GAS CALL SWAP3 POP POP POP RETURNDATASIZE DUP1 PUSH0 DUP2 EQ PUSH2 0x7BE JUMPI PUSH1 0x40 MLOAD SWAP2 POP PUSH1 0x1F NOT PUSH1 0x3F RETURNDATASIZE ADD AND DUP3 ADD PUSH1 0x40 MSTORE RETURNDATASIZE DUP3 MSTORE RETURNDATASIZE PUSH0 PUSH1 0x20 DUP5 ADD RETURNDATACOPY PUSH2 0x7C3 JUMP JUMPDEST PUSH1 0x60 SWAP2 POP JUMPDEST POP POP SWAP1 POP DUP1 PUSH2 0x807 JUMPI PUSH1 0x40 MLOAD PUSH32 0x8C379A000000000000000000000000000000000000000000000000000000000 DUP2 MSTORE PUSH1 0x4 ADD PUSH2 0x7FE SWAP1 PUSH2 0x2551 JUMP JUMPDEST PUSH1 0x40 MLOAD DUP1 SWAP2 SUB SWAP1 REVERT JUMPDEST POP PUSH2 0x839 JUMP JUMPDEST PUSH2 0x838 CALLER DUP3 DUP5 PUSH20 0xFFFFFFFFFFFFFFFFFFFFFFFFFFFFFFFFFFFFFFFF AND PUSH2 0x17FF SWAP1 SWAP3 SWAP2 SWAP1 PUSH4 0xFFFFFFFF AND JUMP JUMPDEST JUMPDEST DUP2 PUSH20 0xFFFFFFFFFFFFFFFFFFFFFFFFFFFFFFFFFFFFFFFF AND CALLER PUSH20 0xFFFFFFFFFFFFFFFFFFFFFFFFFFFFFFFFFFFFFFFF AND PUSH32 0xF7A40077FF7A04C7E61F6F26FB13774259DDF1B6BCE9ECF26A8276CDD3992683 DUP4 PUSH1 0x40 MLOAD PUSH2 0x896 SWAP2 SWAP1 PUSH2 0x1CE2 JUMP JUMPDEST PUSH1 0x40 MLOAD DUP1 SWAP2 SUB SWAP1 LOG3 POP PUSH2 0x8A7 PUSH2 0x187E JUMP JUMPDEST POP JUMP JUMPDEST PUSH0 DUP2 JUMP JUMPDEST PUSH2 0x8B6 PUSH2 0x17B2 JUMP JUMPDEST PUSH0 PUSH20 0xFFFFFFFFFFFFFFFFFFFFFFFFFFFFFFFFFFFFFFFF AND DUP3 PUSH20 0xFFFFFFFFFFFFFFFFFFFFFFFFFFFFFFFFFFFFFFFF AND SUB PUSH2 0x930 JUMPI DUP1 CALLVALUE EQ PUSH2 0x92B JUMPI PUSH1 0x40 MLOAD PUSH32 0x8C379A000000000000000000000000000000000000000000000000000000000 DUP2 MSTORE PUSH1 0x4 ADD PUSH2 0x922 SWAP1 PUSH2 0x25B9 JUMP JUMPDEST PUSH1 0x40 MLOAD DUP1 SWAP2 SUB SWAP1 REVERT JUMPDEST PUSH2 0x9A0 JUMP JUMPDEST PUSH0 DUP2 GT PUSH2 0x972 JUMPI PUSH1 0x40 MLOAD PUSH32 0x8C379A000000000000000000000000000000000000000000000000000000000 DUP2 MSTORE PUSH1 0x4 ADD PUSH2 0x969 SWAP1 PUSH2 0x2647 JUMP JUMPDEST PUSH1 0x40 MLOAD DUP1 SWAP2 SUB SWAP1 REVERT JUMPDEST PUSH2 0x99F CALLER ADDRESS DUP4 DUP6 PUSH20 0xFFFFFFFFFFFFFFFFFFFFFFFFFFFFFFFFFFFFFFFF AND PUSH2 0x1887 SWAP1 SWAP4 SWAP3 SWAP2 SWAP1 PUSH4 0xFFFFFFFF AND JUMP JUMPDEST JUMPDEST DUP1 PUSH1 0x35 PUSH0 DUP5 PUSH20 0xFFFFFFFFFFFFFFFFFFFFFFFFFFFFFFFFFFFFFFFF AND PUSH20 0xFFFFFFFFFFFFFFFFFFFFFFFFFFFFFFFFFFFFFFFF AND DUP2 MSTORE PUSH1 0x20 ADD SWAP1 DUP2 MSTORE PUSH1 0x20 ADD PUSH0 KECCAK256 PUSH0 DUP3 DUP3 SLOAD PUSH2 0x9EC SWAP2 SWAP1 PUSH2 0x1CA0 JUMP JUMPDEST SWAP3 POP POP DUP2 SWAP1 SSTORE POP DUP2 PUSH20 0xFFFFFFFFFFFFFFFFFFFFFFFFFFFFFFFFFFFFFFFF AND CALLER PUSH20 0xFFFFFFFFFFFFFFFFFFFFFFFFFFFFFFFFFFFFFFFF AND PUSH32 0x5548C837AB068CF56A2C2479DF0882A4922FD203EDB7517321831D95078C5F62 DUP4 PUSH1 0x40 MLOAD PUSH2 0xA50 SWAP2 SWAP1 PUSH2 0x1CE2 JUMP JUMPDEST PUSH1 0x40 MLOAD DUP1 SWAP2 SUB SWAP1 LOG3 PUSH2 0xA60 PUSH2 0x187E JUMP JUMPDEST POP POP JUMP JUMPDEST PUSH0 PUSH2 0xA6D PUSH2 0x1909 JUMP JUMPDEST SWAP1 POP PUSH0 DUP2 PUSH0 ADD PUSH1 0x8 SWAP1 SLOAD SWAP1 PUSH2 0x100 EXP SWAP1 DIV PUSH1 0xFF AND ISZERO SWAP1 POP PUSH0 DUP3 PUSH0 ADD PUSH0 SWAP1 SLOAD SWAP1 PUSH2 0x100 EXP SWAP1 DIV PUSH8 0xFFFFFFFFFFFFFFFF AND SWAP1 POP PUSH0 DUP1 DUP3 PUSH8 0xFFFFFFFFFFFFFFFF AND EQ DUP1 ISZERO PUSH2 0xAB5 JUMPI POP DUP3 JUMPDEST SWAP1 POP PUSH0 PUSH1 0x1 DUP4 PUSH8 0xFFFFFFFFFFFFFFFF AND EQ DUP1 ISZERO PUSH2 0xAE8 JUMPI POP PUSH0 ADDRESS PUSH20 0xFFFFFFFFFFFFFFFFFFFFFFFFFFFFFFFFFFFFFFFF AND EXTCODESIZE EQ JUMPDEST SWAP1 POP DUP2 ISZERO DUP1 ISZERO PUSH2 0xAF6 JUMPI POP DUP1 ISZERO JUMPDEST ISZERO PUSH2 0xB2D JUMPI PUSH1 0x40 MLOAD PUSH32 0xF92EE8A900000000000000000000000000000000000000000000000000000000 DUP2 MSTORE PUSH1 0x4 ADD PUSH1 0x40 MLOAD DUP1 SWAP2 SUB SWAP1 REVERT JUMPDEST PUSH1 0x1 DUP6 PUSH0 ADD PUSH0 PUSH2 0x100 EXP DUP2 SLOAD DUP2 PUSH8 0xFFFFFFFFFFFFFFFF MUL NOT AND SWAP1 DUP4 PUSH8 0xFFFFFFFFFFFFFFFF AND MUL OR SWAP1 SSTORE POP DUP4 ISZERO PUSH2 0xB7A JUMPI PUSH1 0x1 DUP6 PUSH0 ADD PUSH1 0x8 PUSH2 0x100 EXP DUP2 SLOAD DUP2 PUSH1 0xFF MUL NOT AND SWAP1 DUP4 ISZERO ISZERO MUL OR SWAP1 SSTORE POP JUMPDEST PUSH2 0xB83 DUP7 PUSH2 0x1930 JUMP JUMPDEST PUSH2 0xB8B PUSH2 0x1944 JUMP JUMPDEST DUP7 PUSH1 0x32 PUSH0 PUSH2 0x100 EXP DUP2 SLOAD DUP2 PUSH20 0xFFFFFFFFFFFFFFFFFFFFFFFFFFFFFFFFFFFFFFFF MUL NOT AND SWAP1 DUP4 PUSH20 0xFFFFFFFFFFFFFFFFFFFFFFFFFFFFFFFFFFFFFFFF AND MUL OR SWAP1 SSTORE POP DUP4 ISZERO PUSH2 0xC25 JUMPI PUSH0 DUP6 PUSH0 ADD PUSH1 0x8 PUSH2 0x100 EXP DUP2 SLOAD DUP2 PUSH1 0xFF MUL NOT AND SWAP1 DUP4 ISZERO ISZERO MUL OR SWAP1 SSTORE POP PUSH32 0xC7F505B2F371AE2175EE4913F4499E1F2633A7B5936321EED1CDAEB6115181D2 PUSH1 0x1 PUSH1 0x40 MLOAD PUSH2 0xC1C SWAP2 SWAP1 PUSH2 0x269E JUMP JUMPDEST PUSH1 0x40 MLOAD DUP1 SWAP2 SUB SWAP1 LOG1 JUMPDEST POP POP POP POP POP POP POP JUMP JUMPDEST PUSH2 0xC36 PUSH2 0x1956 JUMP JUMPDEST PUSH2 0xC3F PUSH0 PUSH2 0x19DD JUMP JUMPDEST JUMP JUMPDEST PUSH1 0x32 PUSH0 SWAP1 SLOAD SWAP1 PUSH2 0x100 EXP SWAP1 DIV PUSH20 0xFFFFFFFFFFFFFFFFFFFFFFFFFFFFFFFFFFFFFFFF AND DUP2 JUMP JUMPDEST PUSH1 0x33 DUP1 PUSH0 ADD PUSH0 SWAP1 SLOAD SWAP1 PUSH2 0x100 EXP SWAP1 DIV PUSH8 0xFFFFFFFFFFFFFFFF AND SWAP1 DUP1 PUSH0 ADD PUSH1 0x8 SWAP1 SLOAD SWAP1 PUSH2 0x100 EXP SWAP1 DIV PUSH8 0xFFFFFFFFFFFFFFFF AND SWAP1 DUP1 PUSH1 0x1 ADD DUP1 SLOAD PUSH2 0xCA8 SWAP1 PUSH2 0x26E4 JUMP JUMPDEST DUP1 PUSH1 0x1F ADD PUSH1 0x20 DUP1 SWAP2 DIV MUL PUSH1 0x20 ADD PUSH1 0x40 MLOAD SWAP1 DUP2 ADD PUSH1 0x40 MSTORE DUP1 SWAP3 SWAP2 SWAP1 DUP2 DUP2 MSTORE PUSH1 0x20 ADD DUP3 DUP1 SLOAD PUSH2 0xCD4 SWAP1 PUSH2 0x26E4 JUMP JUMPDEST DUP1 ISZERO PUSH2 0xD1F JUMPI DUP1 PUSH1 0x1F LT PUSH2 0xCF6 JUMPI PUSH2 0x100 DUP1 DUP4 SLOAD DIV MUL DUP4 MSTORE SWAP2 PUSH1 0x20 ADD SWAP2 PUSH2 0xD1F JUMP JUMPDEST DUP3 ADD SWAP2 SWAP1 PUSH0 MSTORE PUSH1 0x20 PUSH0 KECCAK256 SWAP1 JUMPDEST DUP2 SLOAD DUP2 MSTORE SWAP1 PUSH1 0x1 ADD SWAP1 PUSH1 0x20 ADD DUP1 DUP4 GT PUSH2 0xD02 JUMPI DUP3 SWAP1 SUB PUSH1 0x1F AND DUP3 ADD SWAP2 JUMPDEST POP POP POP POP POP SWAP1 POP DUP4 JUMP JUMPDEST PUSH0 DUP1 PUSH2 0xD33 PUSH2 0x1AAE JUMP JUMPDEST SWAP1 POP DUP1 PUSH0 ADD PUSH0 SWAP1 SLOAD SWAP1 PUSH2 0x100 EXP SWAP1 DIV PUSH20 0xFFFFFFFFFFFFFFFFFFFFFFFFFFFFFFFFFFFFFFFF AND SWAP2 POP POP SWAP1 JUMP JUMPDEST PUSH1 0x32 PUSH0 SWAP1 SLOAD SWAP1 PUSH2 0x100 EXP SWAP1 DIV PUSH20 0xFFFFFFFFFFFFFFFFFFFFFFFFFFFFFFFFFFFFFFFF AND PUSH20 0xFFFFFFFFFFFFFFFFFFFFFFFFFFFFFFFFFFFFFFFF AND PUSH4 0x24D7806C CALLER PUSH1 0x40 MLOAD DUP3 PUSH4 0xFFFFFFFF AND PUSH1 0xE0 SHL DUP2 MSTORE PUSH1 0x4 ADD PUSH2 0xDB8 SWAP2 SWAP1 PUSH2 0x1E18 JUMP JUMPDEST PUSH1 0x20 PUSH1 0x40 MLOAD DUP1 DUP4 SUB DUP2 DUP7 GAS STATICCALL ISZERO DUP1 ISZERO PUSH2 0xDD3 JUMPI RETURNDATASIZE PUSH0 DUP1 RETURNDATACOPY RETURNDATASIZE PUSH0 REVERT JUMPDEST POP POP POP POP PUSH1 0x40 MLOAD RETURNDATASIZE PUSH1 0x1F NOT PUSH1 0x1F DUP3 ADD AND DUP3 ADD DUP1 PUSH1 0x40 MSTORE POP DUP2 ADD SWAP1 PUSH2 0xDF7 SWAP2 SWAP1 PUSH2 0x2749 JUMP JUMPDEST PUSH2 0xE36 JUMPI PUSH1 0x40 MLOAD PUSH32 0x8C379A000000000000000000000000000000000000000000000000000000000 DUP2 MSTORE PUSH1 0x4 ADD PUSH2 0xE2D SWAP1 PUSH2 0x27BE JUMP JUMPDEST PUSH1 0x40 MLOAD DUP1 SWAP2 SUB SWAP1 REVERT JUMPDEST DUP2 PUSH8 0xFFFFFFFFFFFFFFFF AND DUP4 PUSH8 0xFFFFFFFFFFFFFFFF AND LT PUSH2 0xE8C JUMPI PUSH1 0x40 MLOAD PUSH32 0x8C379A000000000000000000000000000000000000000000000000000000000 DUP2 MSTORE PUSH1 0x4 ADD PUSH2 0xE83 SWAP1 PUSH2 0x284C JUMP JUMPDEST PUSH1 0x40 MLOAD DUP1 SWAP2 SUB SWAP1 REVERT JUMPDEST PUSH1 0x40 MLOAD DUP1 PUSH1 0x60 ADD PUSH1 0x40 MSTORE DUP1 DUP5 PUSH8 0xFFFFFFFFFFFFFFFF AND DUP2 MSTORE PUSH1 0x20 ADD DUP4 PUSH8 0xFFFFFFFFFFFFFFFF AND DUP2 MSTORE PUSH1 0x20 ADD DUP3 DUP2 MSTORE POP PUSH1 0x33 PUSH0 DUP3 ADD MLOAD DUP2 PUSH0 ADD PUSH0 PUSH2 0x100 EXP DUP2 SLOAD DUP2 PUSH8 0xFFFFFFFFFFFFFFFF MUL NOT AND SWAP1 DUP4 PUSH8 0xFFFFFFFFFFFFFFFF AND MUL OR SWAP1 SSTORE POP PUSH1 0x20 DUP3 ADD MLOAD DUP2 PUSH0 ADD PUSH1 0x8 PUSH2 0x100 EXP DUP2 SLOAD DUP2 PUSH8 0xFFFFFFFFFFFFFFFF MUL NOT AND SWAP1 DUP4 PUSH8 0xFFFFFFFFFFFFFFFF AND MUL OR SWAP1 SSTORE POP PUSH1 0x40 DUP3 ADD MLOAD DUP2 PUSH1 0x1 ADD SWAP1 DUP2 PUSH2 0xF2C SWAP2 SWAP1 PUSH2 0x29FE JUMP JUMPDEST POP SWAP1 POP POP PUSH32 0x9E6DB48F22357E6DCE2BBFF89DB8FF25F0012A08186D6EA72E2343FDC112E13 DUP4 DUP4 DUP4 PUSH1 0x40 MLOAD PUSH2 0xF63 SWAP4 SWAP3 SWAP2 SWAP1 PUSH2 0x2ACD JUMP JUMPDEST PUSH1 0x40 MLOAD DUP1 SWAP2 SUB SWAP1 LOG1 POP POP POP JUMP JUMPDEST PUSH1 0x36 PUSH1 0x20 MSTORE DUP2 PUSH0 MSTORE PUSH1 0x40 PUSH0 KECCAK256 PUSH1 0x20 MSTORE DUP1 PUSH0 MSTORE PUSH1 0x40 PUSH0 KECCAK256 PUSH0 SWAP2 POP SWAP2 POP POP SLOAD DUP2 JUMP JUMPDEST PUSH1 0x35 PUSH1 0x20 MSTORE DUP1 PUSH0 MSTORE PUSH1 0x40 PUSH0 KECCAK256 PUSH0 SWAP2 POP SWAP1 POP SLOAD DUP2 JUMP JUMPDEST PUSH1 0x32 PUSH0 SWAP1 SLOAD SWAP1 PUSH2 0x100 EXP SWAP1 DIV PUSH20 0xFFFFFFFFFFFFFFFFFFFFFFFFFFFFFFFFFFFFFFFF AND PUSH20 0xFFFFFFFFFFFFFFFFFFFFFFFFFFFFFFFFFFFFFFFF AND PUSH4 0x24D7806C CALLER PUSH1 0x40 MLOAD DUP3 PUSH4 0xFFFFFFFF AND PUSH1 0xE0 SHL DUP2 MSTORE PUSH1 0x4 ADD PUSH2 0xFFF SWAP2 SWAP1 PUSH2 0x1E18 JUMP JUMPDEST PUSH1 0x20 PUSH1 0x40 MLOAD DUP1 DUP4 SUB DUP2 DUP7 GAS STATICCALL ISZERO DUP1 ISZERO PUSH2 0x101A JUMPI RETURNDATASIZE PUSH0 DUP1 RETURNDATACOPY RETURNDATASIZE PUSH0 REVERT JUMPDEST POP POP POP POP PUSH1 0x40 MLOAD RETURNDATASIZE PUSH1 0x1F NOT PUSH1 0x1F DUP3 ADD AND DUP3 ADD DUP1 PUSH1 0x40 MSTORE POP DUP2 ADD SWAP1 PUSH2 0x103E SWAP2 SWAP1 PUSH2 0x2749 JUMP JUMPDEST PUSH2 0x107D JUMPI PUSH1 0x40 MLOAD PUSH32 0x8C379A000000000000000000000000000000000000000000000000000000000 DUP2 MSTORE PUSH1 0x4 ADD PUSH2 0x1074 SWAP1 PUSH2 0x27BE JUMP JUMPDEST PUSH1 0x40 MLOAD DUP1 SWAP2 SUB SWAP1 REVERT JUMPDEST PUSH0 PUSH20 0xFFFFFFFFFFFFFFFFFFFFFFFFFFFFFFFFFFFFFFFF AND DUP4 PUSH20 0xFFFFFFFFFFFFFFFFFFFFFFFFFFFFFFFFFFFFFFFF AND SUB PUSH2 0x10EB JUMPI PUSH1 0x40 MLOAD PUSH32 0x8C379A000000000000000000000000000000000000000000000000000000000 DUP2 MSTORE PUSH1 0x4 ADD PUSH2 0x10E2 SWAP1 PUSH2 0x2B53 JUMP JUMPDEST PUSH1 0x40 MLOAD DUP1 SWAP2 SUB SWAP1 REVERT JUMPDEST DUP1 PUSH1 0x36 PUSH0 DUP6 PUSH20 0xFFFFFFFFFFFFFFFFFFFFFFFFFFFFFFFFFFFFFFFF AND PUSH20 0xFFFFFFFFFFFFFFFFFFFFFFFFFFFFFFFFFFFFFFFF AND DUP2 MSTORE PUSH1 0x20 ADD SWAP1 DUP2 MSTORE PUSH1 0x20 ADD PUSH0 KECCAK256 PUSH0 DUP5 PUSH20 0xFFFFFFFFFFFFFFFFFFFFFFFFFFFFFFFFFFFFFFFF AND PUSH20 0xFFFFFFFFFFFFFFFFFFFFFFFFFFFFFFFFFFFFFFFF AND DUP2 MSTORE PUSH1 0x20 ADD SWAP1 DUP2 MSTORE PUSH1 0x20 ADD PUSH0 KECCAK256 DUP2 SWAP1 SSTORE POP DUP2 PUSH20 0xFFFFFFFFFFFFFFFFFFFFFFFFFFFFFFFFFFFFFFFF AND DUP4 PUSH20 0xFFFFFFFFFFFFFFFFFFFFFFFFFFFFFFFFFFFFFFFF AND PUSH32 0x3D0601F3B0E52FD772F1FA71D91651B34B6A11144BEA30D74E0F820019A04DC2 DUP4 PUSH1 0x40 MLOAD PUSH2 0x11C5 SWAP2 SWAP1 PUSH2 0x1CE2 JUMP JUMPDEST PUSH1 0x40 MLOAD DUP1 SWAP2 SUB SWAP1 LOG3 POP POP POP JUMP JUMPDEST PUSH1 0x32 PUSH0 SWAP1 SLOAD SWAP1 PUSH2 0x100 EXP SWAP1 DIV PUSH20 0xFFFFFFFFFFFFFFFFFFFFFFFFFFFFFFFFFFFFFFFF AND PUSH20 0xFFFFFFFFFFFFFFFFFFFFFFFFFFFFFFFFFFFFFFFF AND PUSH4 0x24D7806C CALLER PUSH1 0x40 MLOAD DUP3 PUSH4 0xFFFFFFFF AND PUSH1 0xE0 SHL DUP2 MSTORE PUSH1 0x4 ADD PUSH2 0x122C SWAP2 SWAP1 PUSH2 0x1E18 JUMP JUMPDEST PUSH1 0x20 PUSH1 0x40 MLOAD DUP1 DUP4 SUB DUP2 DUP7 GAS STATICCALL ISZERO DUP1 ISZERO PUSH2 0x1247 JUMPI RETURNDATASIZE PUSH0 DUP1 RETURNDATACOPY RETURNDATASIZE PUSH0 REVERT JUMPDEST POP POP POP POP PUSH1 0x40 MLOAD RETURNDATASIZE PUSH1 0x1F NOT PUSH1 0x1F DUP3 ADD AND DUP3 ADD DUP1 PUSH1 0x40 MSTORE POP DUP2 ADD SWAP1 PUSH2 0x126B SWAP2 SWAP1 PUSH2 0x2749 JUMP JUMPDEST PUSH2 0x12AA JUMPI PUSH1 0x40 MLOAD PUSH32 0x8C379A000000000000000000000000000000000000000000000000000000000 DUP2 MSTORE PUSH1 0x4 ADD PUSH2 0x12A1 SWAP1 PUSH2 0x27BE JUMP JUMPDEST PUSH1 0x40 MLOAD DUP1 SWAP2 SUB SWAP1 REVERT JUMPDEST DUP2 DUP2 SWAP1 POP DUP5 DUP5 SWAP1 POP EQ PUSH2 0x12F2 JUMPI PUSH1 0x40 MLOAD PUSH32 0x8C379A000000000000000000000000000000000000000000000000000000000 DUP2 MSTORE PUSH1 0x4 ADD PUSH2 0x12E9 SWAP1 PUSH2 0x2BBB JUMP JUMPDEST PUSH1 0x40 MLOAD DUP1 SWAP2 SUB SWAP1 REVERT JUMPDEST PUSH0 JUMPDEST DUP5 DUP5 SWAP1 POP DUP2 LT ISZERO PUSH2 0x146E JUMPI DUP3 DUP3 DUP3 DUP2 DUP2 LT PUSH2 0x1312 JUMPI PUSH2 0x1311 PUSH2 0x2BD9 JUMP JUMPDEST JUMPDEST SWAP1 POP PUSH1 0x20 MUL ADD CALLDATALOAD PUSH1 0x36 PUSH0 DUP8 DUP8 DUP6 DUP2 DUP2 LT PUSH2 0x132F JUMPI PUSH2 0x132E PUSH2 0x2BD9 JUMP JUMPDEST JUMPDEST SWAP1 POP PUSH1 0x20 MUL ADD PUSH1 0x20 DUP2 ADD SWAP1 PUSH2 0x1344 SWAP2 SWAP1 PUSH2 0x1DDE JUMP JUMPDEST PUSH20 0xFFFFFFFFFFFFFFFFFFFFFFFFFFFFFFFFFFFFFFFF AND PUSH20 0xFFFFFFFFFFFFFFFFFFFFFFFFFFFFFFFFFFFFFFFF AND DUP2 MSTORE PUSH1 0x20 ADD SWAP1 DUP2 MSTORE PUSH1 0x20 ADD PUSH0 KECCAK256 PUSH0 DUP9 PUSH20 0xFFFFFFFFFFFFFFFFFFFFFFFFFFFFFFFFFFFFFFFF AND PUSH20 0xFFFFFFFFFFFFFFFFFFFFFFFFFFFFFFFFFFFFFFFF AND DUP2 MSTORE PUSH1 0x20 ADD SWAP1 DUP2 MSTORE PUSH1 0x20 ADD PUSH0 KECCAK256 DUP2 SWAP1 SSTORE POP DUP6 PUSH20 0xFFFFFFFFFFFFFFFFFFFFFFFFFFFFFFFFFFFFFFFF AND DUP6 DUP6 DUP4 DUP2 DUP2 LT PUSH2 0x13E6 JUMPI PUSH2 0x13E5 PUSH2 0x2BD9 JUMP JUMPDEST JUMPDEST SWAP1 POP PUSH1 0x20 MUL ADD PUSH1 0x20 DUP2 ADD SWAP1 PUSH2 0x13FB SWAP2 SWAP1 PUSH2 0x1DDE JUMP JUMPDEST PUSH20 0xFFFFFFFFFFFFFFFFFFFFFFFFFFFFFFFFFFFFFFFF AND PUSH32 0x3D0601F3B0E52FD772F1FA71D91651B34B6A11144BEA30D74E0F820019A04DC2 DUP6 DUP6 DUP6 DUP2 DUP2 LT PUSH2 0x1445 JUMPI PUSH2 0x1444 PUSH2 0x2BD9 JUMP JUMPDEST JUMPDEST SWAP1 POP PUSH1 0x20 MUL ADD CALLDATALOAD PUSH1 0x40 MLOAD PUSH2 0x1459 SWAP2 SWAP1 PUSH2 0x1CE2 JUMP JUMPDEST PUSH1 0x40 MLOAD DUP1 SWAP2 SUB SWAP1 LOG3 DUP1 DUP1 PUSH1 0x1 ADD SWAP2 POP POP PUSH2 0x12F4 JUMP JUMPDEST POP POP POP POP POP POP JUMP JUMPDEST PUSH2 0x147E PUSH2 0x1956 JUMP JUMPDEST PUSH0 PUSH20 0xFFFFFFFFFFFFFFFFFFFFFFFFFFFFFFFFFFFFFFFF AND DUP2 PUSH20 0xFFFFFFFFFFFFFFFFFFFFFFFFFFFFFFFFFFFFFFFF AND SUB PUSH2 0x14EE JUMPI PUSH0 PUSH1 0x40 MLOAD PUSH32 0x1E4FBDF700000000000000000000000000000000000000000000000000000000 DUP2 MSTORE PUSH1 0x4 ADD PUSH2 0x14E5 SWAP2 SWAP1 PUSH2 0x1E18 JUMP JUMPDEST PUSH1 0x40 MLOAD DUP1 SWAP2 SUB SWAP1 REVERT JUMPDEST PUSH2 0x14F7 DUP2 PUSH2 0x19DD JUMP JUMPDEST POP JUMP JUMPDEST PUSH2 0x1502 PUSH2 0x1956 JUMP JUMPDEST PUSH2 0x150A PUSH2 0x17B2 JUMP JUMPDEST PUSH0 DUP2 GT PUSH2 0x154C JUMPI PUSH1 0x40 MLOAD PUSH32 0x8C379A000000000000000000000000000000000000000000000000000000000 DUP2 MSTORE PUSH1 0x4 ADD PUSH2 0x1543 SWAP1 PUSH2 0x2C76 JUMP JUMPDEST PUSH1 0x40 MLOAD DUP1 SWAP2 SUB SWAP1 REVERT JUMPDEST DUP1 PUSH1 0x35 PUSH0 DUP5 PUSH20 0xFFFFFFFFFFFFFFFFFFFFFFFFFFFFFFFFFFFFFFFF AND PUSH20 0xFFFFFFFFFFFFFFFFFFFFFFFFFFFFFFFFFFFFFFFF AND DUP2 MSTORE PUSH1 0x20 ADD SWAP1 DUP2 MSTORE PUSH1 0x20 ADD PUSH0 KECCAK256 SLOAD LT ISZERO PUSH2 0x15CC JUMPI PUSH1 0x40 MLOAD PUSH32 0x8C379A000000000000000000000000000000000000000000000000000000000 DUP2 MSTORE PUSH1 0x4 ADD PUSH2 0x15C3 SWAP1 PUSH2 0x2CDE JUMP JUMPDEST PUSH1 0x40 MLOAD DUP1 SWAP2 SUB SWAP1 REVERT JUMPDEST DUP1 PUSH1 0x35 PUSH0 DUP5 PUSH20 0xFFFFFFFFFFFFFFFFFFFFFFFFFFFFFFFFFFFFFFFF AND PUSH20 0xFFFFFFFFFFFFFFFFFFFFFFFFFFFFFFFFFFFFFFFF AND DUP2 MSTORE PUSH1 0x20 ADD SWAP1 DUP2 MSTORE PUSH1 0x20 ADD PUSH0 KECCAK256 PUSH0 DUP3 DUP3 SLOAD PUSH2 0x1618 SWAP2 SWAP1 PUSH2 0x2493 JUMP JUMPDEST SWAP3 POP POP DUP2 SWAP1 SSTORE POP PUSH0 PUSH20 0xFFFFFFFFFFFFFFFFFFFFFFFFFFFFFFFFFFFFFFFF AND DUP3 PUSH20 0xFFFFFFFFFFFFFFFFFFFFFFFFFFFFFFFFFFFFFFFF AND SUB PUSH2 0x1707 JUMPI PUSH0 PUSH2 0x165B PUSH2 0xD29 JUMP JUMPDEST PUSH20 0xFFFFFFFFFFFFFFFFFFFFFFFFFFFFFFFFFFFFFFFF AND DUP3 PUSH1 0x40 MLOAD PUSH2 0x167E SWAP1 PUSH2 0x24F3 JUMP JUMPDEST PUSH0 PUSH1 0x40 MLOAD DUP1 DUP4 SUB DUP2 DUP6 DUP8 GAS CALL SWAP3 POP POP POP RETURNDATASIZE DUP1 PUSH0 DUP2 EQ PUSH2 0x16B8 JUMPI PUSH1 0x40 MLOAD SWAP2 POP PUSH1 0x1F NOT PUSH1 0x3F RETURNDATASIZE ADD AND DUP3 ADD PUSH1 0x40 MSTORE RETURNDATASIZE DUP3 MSTORE RETURNDATASIZE PUSH0 PUSH1 0x20 DUP5 ADD RETURNDATACOPY PUSH2 0x16BD JUMP JUMPDEST PUSH1 0x60 SWAP2 POP JUMPDEST POP POP SWAP1 POP DUP1 PUSH2 0x1701 JUMPI PUSH1 0x40 MLOAD PUSH32 0x8C379A000000000000000000000000000000000000000000000000000000000 DUP2 MSTORE PUSH1 0x4 ADD PUSH2 0x16F8 SWAP1 PUSH2 0x2551 JUMP JUMPDEST PUSH1 0x40 MLOAD DUP1 SWAP2 SUB SWAP1 REVERT JUMPDEST POP PUSH2 0x173A JUMP JUMPDEST PUSH2 0x1739 PUSH2 0x1712 PUSH2 0xD29 JUMP JUMPDEST DUP3 DUP5 PUSH20 0xFFFFFFFFFFFFFFFFFFFFFFFFFFFFFFFFFFFFFFFF AND PUSH2 0x17FF SWAP1 SWAP3 SWAP2 SWAP1 PUSH4 0xFFFFFFFF AND JUMP JUMPDEST JUMPDEST DUP2 PUSH20 0xFFFFFFFFFFFFFFFFFFFFFFFFFFFFFFFFFFFFFFFF AND PUSH2 0x1759 PUSH2 0xD29 JUMP JUMPDEST PUSH20 0xFFFFFFFFFFFFFFFFFFFFFFFFFFFFFFFFFFFFFFFF AND PUSH32 0x9B1BFA7FA9EE420A16E124F794C35AC9F90472ACC99140EB2F6447C714CAD8EB DUP4 PUSH1 0x40 MLOAD PUSH2 0x179E SWAP2 SWAP1 PUSH2 0x1CE2 JUMP JUMPDEST PUSH1 0x40 MLOAD DUP1 SWAP2 SUB SWAP1 LOG3 PUSH2 0x17AE PUSH2 0x187E JUMP JUMPDEST POP POP JUMP JUMPDEST PUSH1 0x2 PUSH0 SLOAD SUB PUSH2 0x17F6 JUMPI PUSH1 0x40 MLOAD PUSH32 0x8C379A000000000000000000000000000000000000000000000000000000000 DUP2 MSTORE PUSH1 0x4 ADD PUSH2 0x17ED SWAP1 PUSH2 0x2D46 JUMP JUMPDEST PUSH1 0x40 MLOAD DUP1 SWAP2 SUB SWAP1 REVERT JUMPDEST PUSH1 0x2 PUSH0 DUP2 SWAP1 SSTORE POP JUMP JUMPDEST PUSH2 0x1879 DUP4 DUP5 PUSH20 0xFFFFFFFFFFFFFFFFFFFFFFFFFFFFFFFFFFFFFFFF AND PUSH4 0xA9059CBB DUP6 DUP6 PUSH1 0x40 MLOAD PUSH1 0x24 ADD PUSH2 0x1832 SWAP3 SWAP2 SWAP1 PUSH2 0x2D64 JUMP JUMPDEST PUSH1 0x40 MLOAD PUSH1 0x20 DUP2 DUP4 SUB SUB DUP2 MSTORE SWAP1 PUSH1 0x40 MSTORE SWAP2 POP PUSH1 0xE0 SHL PUSH1 0x20 DUP3 ADD DUP1 MLOAD PUSH28 0xFFFFFFFFFFFFFFFFFFFFFFFFFFFFFFFFFFFFFFFFFFFFFFFFFFFFFFFF DUP4 DUP2 DUP4 AND OR DUP4 MSTORE POP POP POP POP PUSH2 0x1AD5 JUMP JUMPDEST POP POP POP JUMP JUMPDEST PUSH1 0x1 PUSH0 DUP2 SWAP1 SSTORE POP JUMP JUMPDEST PUSH2 0x1903 DUP5 DUP6 PUSH20 0xFFFFFFFFFFFFFFFFFFFFFFFFFFFFFFFFFFFFFFFF AND PUSH4 0x23B872DD DUP7 DUP7 DUP7 PUSH1 0x40 MLOAD PUSH1 0x24 ADD PUSH2 0x18BC SWAP4 SWAP3 SWAP2 SWAP1 PUSH2 0x2D8B JUMP JUMPDEST PUSH1 0x40 MLOAD PUSH1 0x20 DUP2 DUP4 SUB SUB DUP2 MSTORE SWAP1 PUSH1 0x40 MSTORE SWAP2 POP PUSH1 0xE0 SHL PUSH1 0x20 DUP3 ADD DUP1 MLOAD PUSH28 0xFFFFFFFFFFFFFFFFFFFFFFFFFFFFFFFFFFFFFFFFFFFFFFFFFFFFFFFF DUP4 DUP2 DUP4 AND OR DUP4 MSTORE POP POP POP POP PUSH2 0x1AD5 JUMP JUMPDEST POP POP POP POP JUMP JUMPDEST PUSH0 PUSH32 0xF0C57E16840DF040F15088DC2F81FE391C3923BEC73E23A9662EFC9C229C6A00 SWAP1 POP SWAP1 JUMP JUMPDEST PUSH2 0x1938 PUSH2 0x1B70 JUMP JUMPDEST PUSH2 0x1941 DUP2 PUSH2 0x1BB0 JUMP JUMPDEST POP JUMP JUMPDEST PUSH2 0x194C PUSH2 0x1B70 JUMP JUMPDEST PUSH2 0x1954 PUSH2 0x1C34 JUMP JUMPDEST JUMP JUMPDEST PUSH2 0x195E PUSH2 0x1C45 JUMP JUMPDEST PUSH20 0xFFFFFFFFFFFFFFFFFFFFFFFFFFFFFFFFFFFFFFFF AND PUSH2 0x197C PUSH2 0xD29 JUMP JUMPDEST PUSH20 0xFFFFFFFFFFFFFFFFFFFFFFFFFFFFFFFFFFFFFFFF AND EQ PUSH2 0x19DB JUMPI PUSH2 0x199F PUSH2 0x1C45 JUMP JUMPDEST PUSH1 0x40 MLOAD PUSH32 0x118CDAA700000000000000000000000000000000000000000000000000000000 DUP2 MSTORE PUSH1 0x4 ADD PUSH2 0x19D2 SWAP2 SWAP1 PUSH2 0x1E18 JUMP JUMPDEST PUSH1 0x40 MLOAD DUP1 SWAP2 SUB SWAP1 REVERT JUMPDEST JUMP JUMPDEST PUSH0 PUSH2 0x19E6 PUSH2 0x1AAE JUMP JUMPDEST SWAP1 POP PUSH0 DUP2 PUSH0 ADD PUSH0 SWAP1 SLOAD SWAP1 PUSH2 0x100 EXP SWAP1 DIV PUSH20 0xFFFFFFFFFFFFFFFFFFFFFFFFFFFFFFFFFFFFFFFF AND SWAP1 POP DUP3 DUP3 PUSH0 ADD PUSH0 PUSH2 0x100 EXP DUP2 SLOAD DUP2 PUSH20 0xFFFFFFFFFFFFFFFFFFFFFFFFFFFFFFFFFFFFFFFF MUL NOT AND SWAP1 DUP4 PUSH20 0xFFFFFFFFFFFFFFFFFFFFFFFFFFFFFFFFFFFFFFFF AND MUL OR SWAP1 SSTORE POP DUP3 PUSH20 0xFFFFFFFFFFFFFFFFFFFFFFFFFFFFFFFFFFFFFFFF AND DUP2 PUSH20 0xFFFFFFFFFFFFFFFFFFFFFFFFFFFFFFFFFFFFFFFF AND PUSH32 0x8BE0079C531659141344CD1FD0A4F28419497F9722A3DAAFE3B4186F6B6457E0 PUSH1 0x40 MLOAD PUSH1 0x40 MLOAD DUP1 SWAP2 SUB SWAP1 LOG3 POP POP POP JUMP JUMPDEST PUSH0 PUSH32 0x9016D09D72D40FDAE2FD8CEAC6B6234C7706214FD39C1CD1E609A0528C199300 SWAP1 POP SWAP1 JUMP JUMPDEST PUSH0 DUP1 PUSH1 0x20 PUSH0 DUP5 MLOAD PUSH1 0x20 DUP7 ADD PUSH0 DUP9 GAS CALL DUP1 PUSH2 0x1AF4 JUMPI PUSH1 0x40 MLOAD RETURNDATASIZE PUSH0 DUP3 RETURNDATACOPY RETURNDATASIZE DUP2 REVERT JUMPDEST RETURNDATASIZE SWAP3 POP PUSH0 MLOAD SWAP2 POP POP PUSH0 DUP3 EQ PUSH2 0x1B0D JUMPI PUSH1 0x1 DUP2 EQ ISZERO PUSH2 0x1B28 JUMP JUMPDEST PUSH0 DUP5 PUSH20 0xFFFFFFFFFFFFFFFFFFFFFFFFFFFFFFFFFFFFFFFF AND EXTCODESIZE EQ JUMPDEST ISZERO PUSH2 0x1B6A JUMPI DUP4 PUSH1 0x40 MLOAD PUSH32 0x5274AFE700000000000000000000000000000000000000000000000000000000 DUP2 MSTORE PUSH1 0x4 ADD PUSH2 0x1B61 SWAP2 SWAP1 PUSH2 0x1E18 JUMP JUMPDEST PUSH1 0x40 MLOAD DUP1 SWAP2 SUB SWAP1 REVERT JUMPDEST POP POP POP POP JUMP JUMPDEST PUSH2 0x1B78 PUSH2 0x1C4C JUMP JUMPDEST PUSH2 0x1BAE JUMPI PUSH1 0x40 MLOAD PUSH32 0xD7E6BCF800000000000000000000000000000000000000000000000000000000 DUP2 MSTORE PUSH1 0x4 ADD PUSH1 0x40 MLOAD DUP1 SWAP2 SUB SWAP1 REVERT JUMPDEST JUMP JUMPDEST PUSH2 0x1BB8 PUSH2 0x1B70 JUMP JUMPDEST PUSH0 PUSH20 0xFFFFFFFFFFFFFFFFFFFFFFFFFFFFFFFFFFFFFFFF AND DUP2 PUSH20 0xFFFFFFFFFFFFFFFFFFFFFFFFFFFFFFFFFFFFFFFF AND SUB PUSH2 0x1C28 JUMPI PUSH0 PUSH1 0x40 MLOAD PUSH32 0x1E4FBDF700000000000000000000000000000000000000000000000000000000 DUP2 MSTORE PUSH1 0x4 ADD PUSH2 0x1C1F SWAP2 SWAP1 PUSH2 0x1E18 JUMP JUMPDEST PUSH1 0x40 MLOAD DUP1 SWAP2 SUB SWAP1 REVERT JUMPDEST PUSH2 0x1C31 DUP2 PUSH2 0x19DD JUMP JUMPDEST POP JUMP JUMPDEST PUSH2 0x1C3C PUSH2 0x1B70 JUMP JUMPDEST PUSH1 0x1 PUSH0 DUP2 SWAP1 SSTORE POP JUMP JUMPDEST PUSH0 CALLER SWAP1 POP SWAP1 JUMP JUMPDEST PUSH0 PUSH2 0x1C55 PUSH2 0x1909 JUMP JUMPDEST PUSH0 ADD PUSH1 0x8 SWAP1 SLOAD SWAP1 PUSH2 0x100 EXP SWAP1 DIV PUSH1 0xFF AND SWAP1 POP SWAP1 JUMP JUMPDEST PUSH0 DUP2 SWAP1 POP SWAP2 SWAP1 POP JUMP JUMPDEST PUSH32 0x4E487B7100000000000000000000000000000000000000000000000000000000 PUSH0 MSTORE PUSH1 0x11 PUSH1 0x4 MSTORE PUSH1 0x24 PUSH0 REVERT JUMPDEST PUSH0 PUSH2 0x1CAA DUP3 PUSH2 0x1C6A JUMP JUMPDEST SWAP2 POP PUSH2 0x1CB5 DUP4 PUSH2 0x1C6A JUMP JUMPDEST SWAP3 POP DUP3 DUP3 ADD SWAP1 POP DUP1 DUP3 GT ISZERO PUSH2 0x1CCD JUMPI PUSH2 0x1CCC PUSH2 0x1C73 JUMP JUMPDEST JUMPDEST SWAP3 SWAP2 POP POP JUMP JUMPDEST PUSH2 0x1CDC DUP2 PUSH2 0x1C6A JUMP JUMPDEST DUP3 MSTORE POP POP JUMP JUMPDEST PUSH0 PUSH1 0x20 DUP3 ADD SWAP1 POP PUSH2 0x1CF5 PUSH0 DUP4 ADD DUP5 PUSH2 0x1CD3 JUMP JUMPDEST SWAP3 SWAP2 POP POP JUMP JUMPDEST PUSH0 DUP3 DUP3 MSTORE PUSH1 0x20 DUP3 ADD SWAP1 POP SWAP3 SWAP2 POP POP JUMP JUMPDEST PUSH32 0x537765657473706F743A20757365206465706F73697428290000000000000000 PUSH0 DUP3 ADD MSTORE POP JUMP JUMPDEST PUSH0 PUSH2 0x1D3F PUSH1 0x18 DUP4 PUSH2 0x1CFB JUMP JUMPDEST SWAP2 POP PUSH2 0x1D4A DUP3 PUSH2 0x1D0B JUMP JUMPDEST PUSH1 0x20 DUP3 ADD SWAP1 POP SWAP2 SWAP1 POP JUMP JUMPDEST PUSH0 PUSH1 0x20 DUP3 ADD SWAP1 POP DUP2 DUP2 SUB PUSH0 DUP4 ADD MSTORE PUSH2 0x1D6C DUP2 PUSH2 0x1D33 JUMP JUMPDEST SWAP1 POP SWAP2 SWAP1 POP JUMP JUMPDEST PUSH0 PUSH1 0x40 MLOAD SWAP1 POP SWAP1 JUMP JUMPDEST PUSH0 DUP1 REVERT JUMPDEST PUSH0 DUP1 REVERT JUMPDEST PUSH0 PUSH20 0xFFFFFFFFFFFFFFFFFFFFFFFFFFFFFFFFFFFFFFFF DUP3 AND SWAP1 POP SWAP2 SWAP1 POP JUMP JUMPDEST PUSH0 PUSH2 0x1DAD DUP3 PUSH2 0x1D84 JUMP JUMPDEST SWAP1 POP SWAP2 SWAP1 POP JUMP JUMPDEST PUSH2 0x1DBD DUP2 PUSH2 0x1DA3 JUMP JUMPDEST DUP2 EQ PUSH2 0x1DC7 JUMPI PUSH0 DUP1 REVERT JUMPDEST POP JUMP JUMPDEST PUSH0 DUP2 CALLDATALOAD SWAP1 POP PUSH2 0x1DD8 DUP2 PUSH2 0x1DB4 JUMP JUMPDEST SWAP3 SWAP2 POP POP JUMP JUMPDEST PUSH0 PUSH1 0x20 DUP3 DUP5 SUB SLT ISZERO PUSH2 0x1DF3 JUMPI PUSH2 0x1DF2 PUSH2 0x1D7C JUMP JUMPDEST JUMPDEST PUSH0 PUSH2 0x1E00 DUP5 DUP3 DUP6 ADD PUSH2 0x1DCA JUMP JUMPDEST SWAP2 POP POP SWAP3 SWAP2 POP POP JUMP JUMPDEST PUSH2 0x1E12 DUP2 PUSH2 0x1DA3 JUMP JUMPDEST DUP3 MSTORE POP POP JUMP JUMPDEST PUSH0 PUSH1 0x20 DUP3 ADD SWAP1 POP PUSH2 0x1E2B PUSH0 DUP4 ADD DUP5 PUSH2 0x1E09 JUMP JUMPDEST SWAP3 SWAP2 POP POP JUMP JUMPDEST PUSH2 0x1E3A DUP2 PUSH2 0x1C6A JUMP JUMPDEST DUP2 EQ PUSH2 0x1E44 JUMPI PUSH0 DUP1 REVERT JUMPDEST POP JUMP JUMPDEST PUSH0 DUP2 CALLDATALOAD SWAP1 POP PUSH2 0x1E55 DUP2 PUSH2 0x1E31 JUMP JUMPDEST SWAP3 SWAP2 POP POP JUMP JUMPDEST PUSH0 DUP1 PUSH1 0x40 DUP4 DUP6 SUB SLT ISZERO PUSH2 0x1E71 JUMPI PUSH2 0x1E70 PUSH2 0x1D7C JUMP JUMPDEST JUMPDEST PUSH0 PUSH2 0x1E7E DUP6 DUP3 DUP7 ADD PUSH2 0x1DCA JUMP JUMPDEST SWAP3 POP POP PUSH1 0x20 PUSH2 0x1E8F DUP6 DUP3 DUP7 ADD PUSH2 0x1E47 JUMP JUMPDEST SWAP2 POP POP SWAP3 POP SWAP3 SWAP1 POP JUMP JUMPDEST PUSH0 DUP1 PUSH1 0x40 DUP4 DUP6 SUB SLT ISZERO PUSH2 0x1EAF JUMPI PUSH2 0x1EAE PUSH2 0x1D7C JUMP JUMPDEST JUMPDEST PUSH0 PUSH2 0x1EBC DUP6 DUP3 DUP7 ADD PUSH2 0x1DCA JUMP JUMPDEST SWAP3 POP POP PUSH1 0x20 PUSH2 0x1ECD DUP6 DUP3 DUP7 ADD PUSH2 0x1DCA JUMP JUMPDEST SWAP2 POP POP SWAP3 POP SWAP3 SWAP1 POP JUMP JUMPDEST PUSH0 DUP2 SWAP1 POP SWAP2 SWAP1 POP JUMP JUMPDEST PUSH0 PUSH2 0x1EFA PUSH2 0x1EF5 PUSH2 0x1EF0 DUP5 PUSH2 0x1D84 JUMP JUMPDEST PUSH2 0x1ED7 JUMP JUMPDEST PUSH2 0x1D84 JUMP JUMPDEST SWAP1 POP SWAP2 SWAP1 POP JUMP JUMPDEST PUSH0 PUSH2 0x1F0B DUP3 PUSH2 0x1EE0 JUMP JUMPDEST SWAP1 POP SWAP2 SWAP1 POP JUMP JUMPDEST PUSH0 PUSH2 0x1F1C DUP3 PUSH2 0x1F01 JUMP JUMPDEST SWAP1 POP SWAP2 SWAP1 POP JUMP JUMPDEST PUSH2 0x1F2C DUP2 PUSH2 0x1F12 JUMP JUMPDEST DUP3 MSTORE POP POP JUMP JUMPDEST PUSH0 PUSH1 0x20 DUP3 ADD SWAP1 POP PUSH2 0x1F45 PUSH0 DUP4 ADD DUP5 PUSH2 0x1F23 JUMP JUMPDEST SWAP3 SWAP2 POP POP JUMP JUMPDEST PUSH0 PUSH8 0xFFFFFFFFFFFFFFFF DUP3 AND SWAP1 POP SWAP2 SWAP1 POP JUMP JUMPDEST PUSH2 0x1F67 DUP2 PUSH2 0x1F4B JUMP JUMPDEST DUP3 MSTORE POP POP JUMP JUMPDEST PUSH0 DUP2 MLOAD SWAP1 POP SWAP2 SWAP1 POP JUMP JUMPDEST DUP3 DUP2 DUP4 MCOPY PUSH0 DUP4 DUP4 ADD MSTORE POP POP POP JUMP JUMPDEST PUSH0 PUSH1 0x1F NOT PUSH1 0x1F DUP4 ADD AND SWAP1 POP SWAP2 SWAP1 POP JUMP JUMPDEST PUSH0 PUSH2 0x1F9F DUP3 PUSH2 0x1F6D JUMP JUMPDEST PUSH2 0x1FA9 DUP2 DUP6 PUSH2 0x1CFB JUMP JUMPDEST SWAP4 POP PUSH2 0x1FB9 DUP2 DUP6 PUSH1 0x20 DUP7 ADD PUSH2 0x1F77 JUMP JUMPDEST PUSH2 0x1FC2 DUP2 PUSH2 0x1F85 JUMP JUMPDEST DUP5 ADD SWAP2 POP POP SWAP3 SWAP2 POP POP JUMP JUMPDEST PUSH0 PUSH1 0x60 DUP3 ADD SWAP1 POP PUSH2 0x1FE0 PUSH0 DUP4 ADD DUP7 PUSH2 0x1F5E JUMP JUMPDEST PUSH2 0x1FED PUSH1 0x20 DUP4 ADD DUP6 PUSH2 0x1F5E JUMP JUMPDEST DUP2 DUP2 SUB PUSH1 0x40 DUP4 ADD MSTORE PUSH2 0x1FFF DUP2 DUP5 PUSH2 0x1F95 JUMP JUMPDEST SWAP1 POP SWAP5 SWAP4 POP POP POP POP JUMP JUMPDEST PUSH2 0x2012 DUP2 PUSH2 0x1F4B JUMP JUMPDEST DUP2 EQ PUSH2 0x201C JUMPI PUSH0 DUP1 REVERT JUMPDEST POP JUMP JUMPDEST PUSH0 DUP2 CALLDATALOAD SWAP1 POP PUSH2 0x202D DUP2 PUSH2 0x2009 JUMP JUMPDEST SWAP3 SWAP2 POP POP JUMP JUMPDEST PUSH0 DUP1 REVERT JUMPDEST PUSH0 DUP1 REVERT JUMPDEST PUSH32 0x4E487B7100000000000000000000000000000000000000000000000000000000 PUSH0 MSTORE PUSH1 0x41 PUSH1 0x4 MSTORE PUSH1 0x24 PUSH0 REVERT JUMPDEST PUSH2 0x2071 DUP3 PUSH2 0x1F85 JUMP JUMPDEST DUP2 ADD DUP2 DUP2 LT PUSH8 0xFFFFFFFFFFFFFFFF DUP3 GT OR ISZERO PUSH2 0x2090 JUMPI PUSH2 0x208F PUSH2 0x203B JUMP JUMPDEST JUMPDEST DUP1 PUSH1 0x40 MSTORE POP POP POP JUMP JUMPDEST PUSH0 PUSH2 0x20A2 PUSH2 0x1D73 JUMP JUMPDEST SWAP1 POP PUSH2 0x20AE DUP3 DUP3 PUSH2 0x2068 JUMP JUMPDEST SWAP2 SWAP1 POP JUMP JUMPDEST PUSH0 PUSH8 0xFFFFFFFFFFFFFFFF DUP3 GT ISZERO PUSH2 0x20CD JUMPI PUSH2 0x20CC PUSH2 0x203B JUMP JUMPDEST JUMPDEST PUSH2 0x20D6 DUP3 PUSH2 0x1F85 JUMP JUMPDEST SWAP1 POP PUSH1 0x20 DUP2 ADD SWAP1 POP SWAP2 SWAP1 POP JUMP JUMPDEST DUP3 DUP2 DUP4 CALLDATACOPY PUSH0 DUP4 DUP4 ADD MSTORE POP POP POP JUMP JUMPDEST PUSH0 PUSH2 0x2103 PUSH2 0x20FE DUP5 PUSH2 0x20B3 JUMP JUMPDEST PUSH2 0x2099 JUMP JUMPDEST SWAP1 POP DUP3 DUP2 MSTORE PUSH1 0x20 DUP2 ADD DUP5 DUP5 DUP5 ADD GT ISZERO PUSH2 0x211F JUMPI PUSH2 0x211E PUSH2 0x2037 JUMP JUMPDEST JUMPDEST PUSH2 0x212A DUP5 DUP3 DUP6 PUSH2 0x20E3 JUMP JUMPDEST POP SWAP4 SWAP3 POP POP POP JUMP JUMPDEST PUSH0 DUP3 PUSH1 0x1F DUP4 ADD SLT PUSH2 0x2146 JUMPI PUSH2 0x2145 PUSH2 0x2033 JUMP JUMPDEST JUMPDEST DUP2 CALLDATALOAD PUSH2 0x2156 DUP5 DUP3 PUSH1 0x20 DUP7 ADD PUSH2 0x20F1 JUMP JUMPDEST SWAP2 POP POP SWAP3 SWAP2 POP POP JUMP JUMPDEST PUSH0 DUP1 PUSH0 PUSH1 0x60 DUP5 DUP7 SUB SLT ISZERO PUSH2 0x2176 JUMPI PUSH2 0x2175 PUSH2 0x1D7C JUMP JUMPDEST JUMPDEST PUSH0 PUSH2 0x2183 DUP7 DUP3 DUP8 ADD PUSH2 0x201F JUMP JUMPDEST SWAP4 POP POP PUSH1 0x20 PUSH2 0x2194 DUP7 DUP3 DUP8 ADD PUSH2 0x201F JUMP JUMPDEST SWAP3 POP POP PUSH1 0x40 DUP5 ADD CALLDATALOAD PUSH8 0xFFFFFFFFFFFFFFFF DUP2 GT ISZERO PUSH2 0x21B5 JUMPI PUSH2 0x21B4 PUSH2 0x1D80 JUMP JUMPDEST JUMPDEST PUSH2 0x21C1 DUP7 DUP3 DUP8 ADD PUSH2 0x2132 JUMP JUMPDEST SWAP2 POP POP SWAP3 POP SWAP3 POP SWAP3 JUMP JUMPDEST PUSH0 DUP1 PUSH0 PUSH1 0x60 DUP5 DUP7 SUB SLT ISZERO PUSH2 0x21E2 JUMPI PUSH2 0x21E1 PUSH2 0x1D7C JUMP JUMPDEST JUMPDEST PUSH0 PUSH2 0x21EF DUP7 DUP3 DUP8 ADD PUSH2 0x1DCA JUMP JUMPDEST SWAP4 POP POP PUSH1 0x20 PUSH2 0x2200 DUP7 DUP3 DUP8 ADD PUSH2 0x1DCA JUMP JUMPDEST SWAP3 POP POP PUSH1 0x40 PUSH2 0x2211 DUP7 DUP3 DUP8 ADD PUSH2 0x1E47 JUMP JUMPDEST SWAP2 POP POP SWAP3 POP SWAP3 POP SWAP3 JUMP JUMPDEST PUSH0 DUP1 REVERT JUMPDEST PUSH0 DUP1 REVERT JUMPDEST PUSH0 DUP1 DUP4 PUSH1 0x1F DUP5 ADD SLT PUSH2 0x2238 JUMPI PUSH2 0x2237 PUSH2 0x2033 JUMP JUMPDEST JUMPDEST DUP3 CALLDATALOAD SWAP1 POP PUSH8 0xFFFFFFFFFFFFFFFF DUP2 GT ISZERO PUSH2 0x2255 JUMPI PUSH2 0x2254 PUSH2 0x221B JUMP JUMPDEST JUMPDEST PUSH1 0x20 DUP4 ADD SWAP2 POP DUP4 PUSH1 0x20 DUP3 MUL DUP4 ADD GT ISZERO PUSH2 0x2271 JUMPI PUSH2 0x2270 PUSH2 0x221F JUMP JUMPDEST JUMPDEST SWAP3 POP SWAP3 SWAP1 POP JUMP JUMPDEST PUSH0 DUP1 DUP4 PUSH1 0x1F DUP5 ADD SLT PUSH2 0x228D JUMPI PUSH2 0x228C PUSH2 0x2033 JUMP JUMPDEST JUMPDEST DUP3 CALLDATALOAD SWAP1 POP PUSH8 0xFFFFFFFFFFFFFFFF DUP2 GT ISZERO PUSH2 0x22AA JUMPI PUSH2 0x22A9 PUSH2 0x221B JUMP JUMPDEST JUMPDEST PUSH1 0x20 DUP4 ADD SWAP2 POP DUP4 PUSH1 0x20 DUP3 MUL DUP4 ADD GT ISZERO PUSH2 0x22C6 JUMPI PUSH2 0x22C5 PUSH2 0x221F JUMP JUMPDEST JUMPDEST SWAP3 POP SWAP3 SWAP1 POP JUMP JUMPDEST PUSH0 DUP1 PUSH0 DUP1 PUSH0 PUSH1 0x60 DUP7 DUP9 SUB SLT ISZERO PUSH2 0x22E6 JUMPI PUSH2 0x22E5 PUSH2 0x1D7C JUMP JUMPDEST JUMPDEST PUSH0 PUSH2 0x22F3 DUP9 DUP3 DUP10 ADD PUSH2 0x1DCA JUMP JUMPDEST SWAP6 POP POP PUSH1 0x20 DUP7 ADD CALLDATALOAD PUSH8 0xFFFFFFFFFFFFFFFF DUP2 GT ISZERO PUSH2 0x2314 JUMPI PUSH2 0x2313 PUSH2 0x1D80 JUMP JUMPDEST JUMPDEST PUSH2 0x2320 DUP9 DUP3 DUP10 ADD PUSH2 0x2223 JUMP JUMPDEST SWAP5 POP SWAP5 POP POP PUSH1 0x40 DUP7 ADD CALLDATALOAD PUSH8 0xFFFFFFFFFFFFFFFF DUP2 GT ISZERO PUSH2 0x2343 JUMPI PUSH2 0x2342 PUSH2 0x1D80 JUMP JUMPDEST JUMPDEST PUSH2 0x234F DUP9 DUP3 DUP10 ADD PUSH2 0x2278 JUMP JUMPDEST SWAP3 POP SWAP3 POP POP SWAP3 SWAP6 POP SWAP3 SWAP6 SWAP1 SWAP4 POP JUMP JUMPDEST PUSH0 PUSH2 0x2378 PUSH2 0x2373 PUSH2 0x236E DUP5 PUSH2 0x1F4B JUMP JUMPDEST PUSH2 0x1ED7 JUMP JUMPDEST PUSH2 0x1C6A JUMP JUMPDEST SWAP1 POP SWAP2 SWAP1 POP JUMP JUMPDEST PUSH2 0x2388 DUP2 PUSH2 0x235E JUMP JUMPDEST DUP3 MSTORE POP POP JUMP JUMPDEST PUSH0 PUSH1 0x60 DUP3 ADD SWAP1 POP PUSH2 0x23A1 PUSH0 DUP4 ADD DUP7 PUSH2 0x1CD3 JUMP JUMPDEST PUSH2 0x23AE PUSH1 0x20 DUP4 ADD DUP6 PUSH2 0x237F JUMP JUMPDEST PUSH2 0x23BB PUSH1 0x40 DUP4 ADD DUP5 PUSH2 0x237F JUMP JUMPDEST SWAP5 SWAP4 POP POP POP POP JUMP JUMPDEST PUSH32 0x4E6F20636C61696D61626C6520616D6F756E7400000000000000000000000000 PUSH0 DUP3 ADD MSTORE POP JUMP JUMPDEST PUSH0 PUSH2 0x23F7 PUSH1 0x13 DUP4 PUSH2 0x1CFB JUMP JUMPDEST SWAP2 POP PUSH2 0x2402 DUP3 PUSH2 0x23C3 JUMP JUMPDEST PUSH1 0x20 DUP3 ADD SWAP1 POP SWAP2 SWAP1 POP JUMP JUMPDEST PUSH0 PUSH1 0x20 DUP3 ADD SWAP1 POP DUP2 DUP2 SUB PUSH0 DUP4 ADD MSTORE PUSH2 0x2424 DUP2 PUSH2 0x23EB JUMP JUMPDEST SWAP1 POP SWAP2 SWAP1 POP JUMP JUMPDEST PUSH32 0x496E73756666696369656E742066756E647320696E206A617200000000000000 PUSH0 DUP3 ADD MSTORE POP JUMP JUMPDEST PUSH0 PUSH2 0x245F PUSH1 0x19 DUP4 PUSH2 0x1CFB JUMP JUMPDEST SWAP2 POP PUSH2 0x246A DUP3 PUSH2 0x242B JUMP JUMPDEST PUSH1 0x20 DUP3 ADD SWAP1 POP SWAP2 SWAP1 POP JUMP JUMPDEST PUSH0 PUSH1 0x20 DUP3 ADD SWAP1 POP DUP2 DUP2 SUB PUSH0 DUP4 ADD MSTORE PUSH2 0x248C DUP2 PUSH2 0x2453 JUMP JUMPDEST SWAP1 POP SWAP2 SWAP1 POP JUMP JUMPDEST PUSH0 PUSH2 0x249D DUP3 PUSH2 0x1C6A JUMP JUMPDEST SWAP2 POP PUSH2 0x24A8 DUP4 PUSH2 0x1C6A JUMP JUMPDEST SWAP3 POP DUP3 DUP3 SUB SWAP1 POP DUP2 DUP2 GT ISZERO PUSH2 0x24C0 JUMPI PUSH2 0x24BF PUSH2 0x1C73 JUMP JUMPDEST JUMPDEST SWAP3 SWAP2 POP POP JUMP JUMPDEST PUSH0 DUP2 SWAP1 POP SWAP3 SWAP2 POP POP JUMP JUMPDEST POP JUMP JUMPDEST PUSH0 PUSH2 0x24DE PUSH0 DUP4 PUSH2 0x24C6 JUMP JUMPDEST SWAP2 POP PUSH2 0x24E9 DUP3 PUSH2 0x24D0 JUMP JUMPDEST PUSH0 DUP3 ADD SWAP1 POP SWAP2 SWAP1 POP JUMP JUMPDEST PUSH0 PUSH2 0x24FD DUP3 PUSH2 0x24D3 JUMP JUMPDEST SWAP2 POP DUP2 SWAP1 POP SWAP2 SWAP1 POP JUMP JUMPDEST PUSH32 0x4574686572207472616E73666572206661696C65640000000000000000000000 PUSH0 DUP3 ADD MSTORE POP JUMP JUMPDEST PUSH0 PUSH2 0x253B PUSH1 0x15 DUP4 PUSH2 0x1CFB JUMP JUMPDEST SWAP2 POP PUSH2 0x2546 DUP3 PUSH2 0x2507 JUMP JUMPDEST PUSH1 0x20 DUP3 ADD SWAP1 POP SWAP2 SWAP1 POP JUMP JUMPDEST PUSH0 PUSH1 0x20 DUP3 ADD SWAP1 POP DUP2 DUP2 SUB PUSH0 DUP4 ADD MSTORE PUSH2 0x2568 DUP2 PUSH2 0x252F JUMP JUMPDEST SWAP1 POP SWAP2 SWAP1 POP JUMP JUMPDEST PUSH32 0x496E636F727265637420457468657220616D6F756E7400000000000000000000 PUSH0 DUP3 ADD MSTORE POP JUMP JUMPDEST PUSH0 PUSH2 0x25A3 PUSH1 0x16 DUP4 PUSH2 0x1CFB JUMP JUMPDEST SWAP2 POP PUSH2 0x25AE DUP3 PUSH2 0x256F JUMP JUMPDEST PUSH1 0x20 DUP3 ADD SWAP1 POP SWAP2 SWAP1 POP JUMP JUMPDEST PUSH0 PUSH1 0x20 DUP3 ADD SWAP1 POP DUP2 DUP2 SUB PUSH0 DUP4 ADD MSTORE PUSH2 0x25D0 DUP2 PUSH2 0x2597 JUMP JUMPDEST SWAP1 POP SWAP2 SWAP1 POP JUMP JUMPDEST PUSH32 0x4465706F73697420616D6F756E74206D75737420626520677265617465722074 PUSH0 DUP3 ADD MSTORE PUSH32 0x68616E207A65726F000000000000000000000000000000000000000000000000 PUSH1 0x20 DUP3 ADD MSTORE POP JUMP JUMPDEST PUSH0 PUSH2 0x2631 PUSH1 0x28 DUP4 PUSH2 0x1CFB JUMP JUMPDEST SWAP2 POP PUSH2 0x263C DUP3 PUSH2 0x25D7 JUMP JUMPDEST PUSH1 0x40 DUP3 ADD SWAP1 POP SWAP2 SWAP1 POP JUMP JUMPDEST PUSH0 PUSH1 0x20 DUP3 ADD SWAP1 POP DUP2 DUP2 SUB PUSH0 DUP4 ADD MSTORE PUSH2 0x265E DUP2 PUSH2 0x2625 JUMP JUMPDEST SWAP1 POP SWAP2 SWAP1 POP JUMP JUMPDEST PUSH0 DUP2 SWAP1 POP SWAP2 SWAP1 POP JUMP JUMPDEST PUSH0 PUSH2 0x2688 PUSH2 0x2683 PUSH2 0x267E DUP5 PUSH2 0x2665 JUMP JUMPDEST PUSH2 0x1ED7 JUMP JUMPDEST PUSH2 0x1F4B JUMP JUMPDEST SWAP1 POP SWAP2 SWAP1 POP JUMP JUMPDEST PUSH2 0x2698 DUP2 PUSH2 0x266E JUMP JUMPDEST DUP3 MSTORE POP POP JUMP JUMPDEST PUSH0 PUSH1 0x20 DUP3 ADD SWAP1 POP PUSH2 0x26B1 PUSH0 DUP4 ADD DUP5 PUSH2 0x268F JUMP JUMPDEST SWAP3 SWAP2 POP POP JUMP JUMPDEST PUSH32 0x4E487B7100000000000000000000000000000000000000000000000000000000 PUSH0 MSTORE PUSH1 0x22 PUSH1 0x4 MSTORE PUSH1 0x24 PUSH0 REVERT JUMPDEST PUSH0 PUSH1 0x2 DUP3 DIV SWAP1 POP PUSH1 0x1 DUP3 AND DUP1 PUSH2 0x26FB JUMPI PUSH1 0x7F DUP3 AND SWAP2 POP JUMPDEST PUSH1 0x20 DUP3 LT DUP2 SUB PUSH2 0x270E JUMPI PUSH2 0x270D PUSH2 0x26B7 JUMP JUMPDEST JUMPDEST POP SWAP2 SWAP1 POP JUMP JUMPDEST PUSH0 DUP2 ISZERO ISZERO SWAP1 POP SWAP2 SWAP1 POP JUMP JUMPDEST PUSH2 0x2728 DUP2 PUSH2 0x2714 JUMP JUMPDEST DUP2 EQ PUSH2 0x2732 JUMPI PUSH0 DUP1 REVERT JUMPDEST POP JUMP JUMPDEST PUSH0 DUP2 MLOAD SWAP1 POP PUSH2 0x2743 DUP2 PUSH2 0x271F JUMP JUMPDEST SWAP3 SWAP2 POP POP JUMP JUMPDEST PUSH0 PUSH1 0x20 DUP3 DUP5 SUB SLT ISZERO PUSH2 0x275E JUMPI PUSH2 0x275D PUSH2 0x1D7C JUMP JUMPDEST JUMPDEST PUSH0 PUSH2 0x276B DUP5 DUP3 DUP6 ADD PUSH2 0x2735 JUMP JUMPDEST SWAP2 POP POP SWAP3 SWAP2 POP POP JUMP JUMPDEST PUSH32 0x43616C6C6572206973206E6F7420616E2061646D696E00000000000000000000 PUSH0 DUP3 ADD MSTORE POP JUMP JUMPDEST PUSH0 PUSH2 0x27A8 PUSH1 0x16 DUP4 PUSH2 0x1CFB JUMP JUMPDEST SWAP2 POP PUSH2 0x27B3 DUP3 PUSH2 0x2774 JUMP JUMPDEST PUSH1 0x20 DUP3 ADD SWAP1 POP SWAP2 SWAP1 POP JUMP JUMPDEST PUSH0 PUSH1 0x20 DUP3 ADD SWAP1 POP DUP2 DUP2 SUB PUSH0 DUP4 ADD MSTORE PUSH2 0x27D5 DUP2 PUSH2 0x279C JUMP JUMPDEST SWAP1 POP SWAP2 SWAP1 POP JUMP JUMPDEST PUSH32 0x53746172742074696D65206D757374206265206265666F726520656E64207469 PUSH0 DUP3 ADD MSTORE PUSH32 0x6D65000000000000000000000000000000000000000000000000000000000000 PUSH1 0x20 DUP3 ADD MSTORE POP JUMP JUMPDEST PUSH0 PUSH2 0x2836 PUSH1 0x22 DUP4 PUSH2 0x1CFB JUMP JUMPDEST SWAP2 POP PUSH2 0x2841 DUP3 PUSH2 0x27DC JUMP JUMPDEST PUSH1 0x40 DUP3 ADD SWAP1 POP SWAP2 SWAP1 POP JUMP JUMPDEST PUSH0 PUSH1 0x20 DUP3 ADD SWAP1 POP DUP2 DUP2 SUB PUSH0 DUP4 ADD MSTORE PUSH2 0x2863 DUP2 PUSH2 0x282A JUMP JUMPDEST SWAP1 POP SWAP2 SWAP1 POP JUMP JUMPDEST PUSH0 DUP2 SWAP1 POP DUP2 PUSH0 MSTORE PUSH1 0x20 PUSH0 KECCAK256 SWAP1 POP SWAP2 SWAP1 POP JUMP JUMPDEST PUSH0 PUSH1 0x20 PUSH1 0x1F DUP4 ADD DIV SWAP1 POP SWAP2 SWAP1 POP JUMP JUMPDEST PUSH0 DUP3 DUP3 SHL SWAP1 POP SWAP3 SWAP2 POP POP JUMP JUMPDEST PUSH0 PUSH1 0x8 DUP4 MUL PUSH2 0x28C6 PUSH32 0xFFFFFFFFFFFFFFFFFFFFFFFFFFFFFFFFFFFFFFFFFFFFFFFFFFFFFFFFFFFFFFFF DUP3 PUSH2 0x288B JUMP JUMPDEST PUSH2 0x28D0 DUP7 DUP4 PUSH2 0x288B JUMP JUMPDEST SWAP6 POP DUP1 NOT DUP5 AND SWAP4 POP DUP1 DUP7 AND DUP5 OR SWAP3 POP POP POP SWAP4 SWAP3 POP POP POP JUMP JUMPDEST PUSH0 PUSH2 0x2902 PUSH2 0x28FD PUSH2 0x28F8 DUP5 PUSH2 0x1C6A JUMP JUMPDEST PUSH2 0x1ED7 JUMP JUMPDEST PUSH2 0x1C6A JUMP JUMPDEST SWAP1 POP SWAP2 SWAP1 POP JUMP JUMPDEST PUSH0 DUP2 SWAP1 POP SWAP2 SWAP1 POP JUMP JUMPDEST PUSH2 0x291B DUP4 PUSH2 0x28E8 JUMP JUMPDEST PUSH2 0x292F PUSH2 0x2927 DUP3 PUSH2 0x2909 JUMP JUMPDEST DUP5 DUP5 SLOAD PUSH2 0x2897 JUMP JUMPDEST DUP3 SSTORE POP POP POP POP JUMP JUMPDEST PUSH0 SWAP1 JUMP JUMPDEST PUSH2 0x2943 PUSH2 0x2937 JUMP JUMPDEST PUSH2 0x294E DUP2 DUP5 DUP5 PUSH2 0x2912 JUMP JUMPDEST POP POP POP JUMP JUMPDEST JUMPDEST DUP2 DUP2 LT ISZERO PUSH2 0x2971 JUMPI PUSH2 0x2966 PUSH0 DUP3 PUSH2 0x293B JUMP JUMPDEST PUSH1 0x1 DUP2 ADD SWAP1 POP PUSH2 0x2954 JUMP JUMPDEST POP POP JUMP JUMPDEST PUSH1 0x1F DUP3 GT ISZERO PUSH2 0x29B6 JUMPI PUSH2 0x2987 DUP2 PUSH2 0x286A JUMP JUMPDEST PUSH2 0x2990 DUP5 PUSH2 0x287C JUMP JUMPDEST DUP2 ADD PUSH1 0x20 DUP6 LT ISZERO PUSH2 0x299F JUMPI DUP2 SWAP1 POP JUMPDEST PUSH2 0x29B3 PUSH2 0x29AB DUP6 PUSH2 0x287C JUMP JUMPDEST DUP4 ADD DUP3 PUSH2 0x2953 JUMP JUMPDEST POP POP JUMPDEST POP POP POP JUMP JUMPDEST PUSH0 DUP3 DUP3 SHR SWAP1 POP SWAP3 SWAP2 POP POP JUMP JUMPDEST PUSH0 PUSH2 0x29D6 PUSH0 NOT DUP5 PUSH1 0x8 MUL PUSH2 0x29BB JUMP JUMPDEST NOT DUP1 DUP4 AND SWAP2 POP POP SWAP3 SWAP2 POP POP JUMP JUMPDEST PUSH0 PUSH2 0x29EE DUP4 DUP4 PUSH2 0x29C7 JUMP JUMPDEST SWAP2 POP DUP3 PUSH1 0x2 MUL DUP3 OR SWAP1 POP SWAP3 SWAP2 POP POP JUMP JUMPDEST PUSH2 0x2A07 DUP3 PUSH2 0x1F6D JUMP JUMPDEST PUSH8 0xFFFFFFFFFFFFFFFF DUP2 GT ISZERO PUSH2 0x2A20 JUMPI PUSH2 0x2A1F PUSH2 0x203B JUMP JUMPDEST JUMPDEST PUSH2 0x2A2A DUP3 SLOAD PUSH2 0x26E4 JUMP JUMPDEST PUSH2 0x2A35 DUP3 DUP3 DUP6 PUSH2 0x2975 JUMP JUMPDEST PUSH0 PUSH1 0x20 SWAP1 POP PUSH1 0x1F DUP4 GT PUSH1 0x1 DUP2 EQ PUSH2 0x2A66 JUMPI PUSH0 DUP5 ISZERO PUSH2 0x2A54 JUMPI DUP3 DUP8 ADD MLOAD SWAP1 POP JUMPDEST PUSH2 0x2A5E DUP6 DUP3 PUSH2 0x29E3 JUMP JUMPDEST DUP7 SSTORE POP PUSH2 0x2AC5 JUMP JUMPDEST PUSH1 0x1F NOT DUP5 AND PUSH2 0x2A74 DUP7 PUSH2 0x286A JUMP JUMPDEST PUSH0 JUMPDEST DUP3 DUP2 LT ISZERO PUSH2 0x2A9B JUMPI DUP5 DUP10 ADD MLOAD DUP3 SSTORE PUSH1 0x1 DUP3 ADD SWAP2 POP PUSH1 0x20 DUP6 ADD SWAP5 POP PUSH1 0x20 DUP2 ADD SWAP1 POP PUSH2 0x2A76 JUMP JUMPDEST DUP7 DUP4 LT ISZERO PUSH2 0x2AB8 JUMPI DUP5 DUP10 ADD MLOAD PUSH2 0x2AB4 PUSH1 0x1F DUP10 AND DUP3 PUSH2 0x29C7 JUMP JUMPDEST DUP4 SSTORE POP JUMPDEST PUSH1 0x1 PUSH1 0x2 DUP9 MUL ADD DUP9 SSTORE POP POP POP JUMPDEST POP POP POP POP POP POP JUMP JUMPDEST PUSH0 PUSH1 0x60 DUP3 ADD SWAP1 POP PUSH2 0x2AE0 PUSH0 DUP4 ADD DUP7 PUSH2 0x237F JUMP JUMPDEST PUSH2 0x2AED PUSH1 0x20 DUP4 ADD DUP6 PUSH2 0x237F JUMP JUMPDEST DUP2 DUP2 SUB PUSH1 0x40 DUP4 ADD MSTORE PUSH2 0x2AFF DUP2 DUP5 PUSH2 0x1F95 JUMP JUMPDEST SWAP1 POP SWAP5 SWAP4 POP POP POP POP JUMP JUMPDEST PUSH32 0x5A65726F20616464726573732075736572000000000000000000000000000000 PUSH0 DUP3 ADD MSTORE POP JUMP JUMPDEST PUSH0 PUSH2 0x2B3D PUSH1 0x11 DUP4 PUSH2 0x1CFB JUMP JUMPDEST SWAP2 POP PUSH2 0x2B48 DUP3 PUSH2 0x2B09 JUMP JUMPDEST PUSH1 0x20 DUP3 ADD SWAP1 POP SWAP2 SWAP1 POP JUMP JUMPDEST PUSH0 PUSH1 0x20 DUP3 ADD SWAP1 POP DUP2 DUP2 SUB PUSH0 DUP4 ADD MSTORE PUSH2 0x2B6A DUP2 PUSH2 0x2B31 JUMP JUMPDEST SWAP1 POP SWAP2 SWAP1 POP JUMP JUMPDEST PUSH32 0x4D69736D617463686564206172726179206C656E677468730000000000000000 PUSH0 DUP3 ADD MSTORE POP JUMP JUMPDEST PUSH0 PUSH2 0x2BA5 PUSH1 0x18 DUP4 PUSH2 0x1CFB JUMP JUMPDEST SWAP2 POP PUSH2 0x2BB0 DUP3 PUSH2 0x2B71 JUMP JUMPDEST PUSH1 0x20 DUP3 ADD SWAP1 POP SWAP2 SWAP1 POP JUMP JUMPDEST PUSH0 PUSH1 0x20 DUP3 ADD SWAP1 POP DUP2 DUP2 SUB PUSH0 DUP4 ADD MSTORE PUSH2 0x2BD2 DUP2 PUSH2 0x2B99 JUMP JUMPDEST SWAP1 POP SWAP2 SWAP1 POP JUMP JUMPDEST PUSH32 0x4E487B7100000000000000000000000000000000000000000000000000000000 PUSH0 MSTORE PUSH1 0x32 PUSH1 0x4 MSTORE PUSH1 0x24 PUSH0 REVERT JUMPDEST PUSH32 0x5769746864726177616C20616D6F756E74206D75737420626520677265617465 PUSH0 DUP3 ADD MSTORE PUSH32 0x72207468616E207A65726F000000000000000000000000000000000000000000 PUSH1 0x20 DUP3 ADD MSTORE POP JUMP JUMPDEST PUSH0 PUSH2 0x2C60 PUSH1 0x2B DUP4 PUSH2 0x1CFB JUMP JUMPDEST SWAP2 POP PUSH2 0x2C6B DUP3 PUSH2 0x2C06 JUMP JUMPDEST PUSH1 0x40 DUP3 ADD SWAP1 POP SWAP2 SWAP1 POP JUMP JUMPDEST PUSH0 PUSH1 0x20 DUP3 ADD SWAP1 POP DUP2 DUP2 SUB PUSH0 DUP4 ADD MSTORE PUSH2 0x2C8D DUP2 PUSH2 0x2C54 JUMP JUMPDEST SWAP1 POP SWAP2 SWAP1 POP JUMP JUMPDEST PUSH32 0x496E73756666696369656E742066756E64730000000000000000000000000000 PUSH0 DUP3 ADD MSTORE POP JUMP JUMPDEST PUSH0 PUSH2 0x2CC8 PUSH1 0x12 DUP4 PUSH2 0x1CFB JUMP JUMPDEST SWAP2 POP PUSH2 0x2CD3 DUP3 PUSH2 0x2C94 JUMP JUMPDEST PUSH1 0x20 DUP3 ADD SWAP1 POP SWAP2 SWAP1 POP JUMP JUMPDEST PUSH0 PUSH1 0x20 DUP3 ADD SWAP1 POP DUP2 DUP2 SUB PUSH0 DUP4 ADD MSTORE PUSH2 0x2CF5 DUP2 PUSH2 0x2CBC JUMP JUMPDEST SWAP1 POP SWAP2 SWAP1 POP JUMP JUMPDEST PUSH32 0x5265656E7472616E637947756172643A207265656E7472616E742063616C6C00 PUSH0 DUP3 ADD MSTORE POP JUMP JUMPDEST PUSH0 PUSH2 0x2D30 PUSH1 0x1F DUP4 PUSH2 0x1CFB JUMP JUMPDEST SWAP2 POP PUSH2 0x2D3B DUP3 PUSH2 0x2CFC JUMP JUMPDEST PUSH1 0x20 DUP3 ADD SWAP1 POP SWAP2 SWAP1 POP JUMP JUMPDEST PUSH0 PUSH1 0x20 DUP3 ADD SWAP1 POP DUP2 DUP2 SUB PUSH0 DUP4 ADD MSTORE PUSH2 0x2D5D DUP2 PUSH2 0x2D24 JUMP JUMPDEST SWAP1 POP SWAP2 SWAP1 POP JUMP JUMPDEST PUSH0 PUSH1 0x40 DUP3 ADD SWAP1 POP PUSH2 0x2D77 PUSH0 DUP4 ADD DUP6 PUSH2 0x1E09 JUMP JUMPDEST PUSH2 0x2D84 PUSH1 0x20 DUP4 ADD DUP5 PUSH2 0x1CD3 JUMP JUMPDEST SWAP4 SWAP3 POP POP POP JUMP JUMPDEST PUSH0 PUSH1 0x60 DUP3 ADD SWAP1 POP PUSH2 0x2D9E PUSH0 DUP4 ADD DUP7 PUSH2 0x1E09 JUMP JUMPDEST PUSH2 0x2DAB PUSH1 0x20 DUP4 ADD DUP6 PUSH2 0x1E09 JUMP JUMPDEST PUSH2 0x2DB8 PUSH1 0x40 DUP4 ADD DUP5 PUSH2 0x1CD3 JUMP JUMPDEST SWAP5 SWAP4 POP POP POP POP JUMP INVALID LOG2 PUSH5 0x6970667358 0x22 SLT KECCAK256 DUP6 0x23 0xEF SWAP1 DUP13 MLOAD 0xDC 0xEE PUSH16 0xA87DF007E6A606DED81AB694063B67E7 0xB2 0xBC PUSH20 0x6656FECD64736F6C634300081A00330000000000 "
				},
				"gasEstimates": {
					"creation": {
						"codeDepositCost": "2353200",
						"executionCost": "2521",
						"totalCost": "2355721"
					},
					"external": {
						"": "468",
						"NATIVE_TOKEN()": "418",
						"allowedAmounts(address,address)": "infinite",
						"bulkSetAllowedAmount(address,address[],uint256[])": "infinite",
						"claim(address)": "infinite",
						"currentRound()": "infinite",
						"deposit(address,uint256)": "infinite",
						"initialize(address,address)": "infinite",
						"owner()": "2590",
						"renounceOwnership()": "infinite",
						"scorer()": "infinite",
						"setAllowedAmount(address,address,uint256)": "infinite",
						"setRound(uint64,uint64,string)": "infinite",
						"totalBalances(address)": "2891",
						"transferOwnership(address)": "infinite",
						"withdraw(address,uint256)": "infinite"
					}
				},
				"methodIdentifiers": {
					"NATIVE_TOKEN()": "31f7d964",
					"allowedAmounts(address,address)": "a9590e8a",
					"bulkSetAllowedAmount(address,address[],uint256[])": "e3e7c1f9",
					"claim(address)": "1e83409a",
					"currentRound()": "8a19c8bc",
					"deposit(address,uint256)": "47e7ef24",
					"initialize(address,address)": "485cc955",
					"owner()": "8da5cb5b",
					"renounceOwnership()": "715018a6",
					"scorer()": "85c758f7",
					"setAllowedAmount(address,address,uint256)": "b807a3c4",
					"setRound(uint64,uint64,string)": "a9012c89",
					"totalBalances(address)": "aee9c872",
					"transferOwnership(address)": "f2fde38b",
					"withdraw(address,uint256)": "f3fef3a3"
				}
			},
			"storageLayout": {
				"storage": [
					{
						"astId": 463,
						"contract": "contracts/sweetspot.sol:sweetspot",
						"label": "_status",
						"offset": 0,
						"slot": "0",
						"type": "t_uint256"
					},
					{
						"astId": 532,
						"contract": "contracts/sweetspot.sol:sweetspot",
						"label": "__gap",
						"offset": 0,
						"slot": "1",
						"type": "t_array(t_uint256)49_storage"
					},
					{
						"astId": 1498,
						"contract": "contracts/sweetspot.sol:sweetspot",
						"label": "scorer",
						"offset": 0,
						"slot": "50",
						"type": "t_contract(IScorer)1472"
					},
					{
						"astId": 1508,
						"contract": "contracts/sweetspot.sol:sweetspot",
						"label": "currentRound",
						"offset": 0,
						"slot": "51",
						"type": "t_struct(Round)1505_storage"
					},
					{
						"astId": 1512,
						"contract": "contracts/sweetspot.sol:sweetspot",
						"label": "totalBalances",
						"offset": 0,
						"slot": "53",
						"type": "t_mapping(t_address,t_uint256)"
					},
					{
						"astId": 1518,
						"contract": "contracts/sweetspot.sol:sweetspot",
						"label": "allowedAmounts",
						"offset": 0,
						"slot": "54",
						"type": "t_mapping(t_address,t_mapping(t_address,t_uint256))"
					}
				],
				"types": {
					"t_address": {
						"encoding": "inplace",
						"label": "address",
						"numberOfBytes": "20"
					},
					"t_array(t_uint256)49_storage": {
						"base": "t_uint256",
						"encoding": "inplace",
						"label": "uint256[49]",
						"numberOfBytes": "1568"
					},
					"t_contract(IScorer)1472": {
						"encoding": "inplace",
						"label": "contract IScorer",
						"numberOfBytes": "20"
					},
					"t_mapping(t_address,t_mapping(t_address,t_uint256))": {
						"encoding": "mapping",
						"key": "t_address",
						"label": "mapping(address => mapping(address => uint256))",
						"numberOfBytes": "32",
						"value": "t_mapping(t_address,t_uint256)"
					},
					"t_mapping(t_address,t_uint256)": {
						"encoding": "mapping",
						"key": "t_address",
						"label": "mapping(address => uint256)",
						"numberOfBytes": "32",
						"value": "t_uint256"
					},
					"t_string_storage": {
						"encoding": "bytes",
						"label": "string",
						"numberOfBytes": "32"
					},
					"t_struct(Round)1505_storage": {
						"encoding": "inplace",
						"label": "struct sweetspot.Round",
						"members": [
							{
								"astId": 1500,
								"contract": "contracts/sweetspot.sol:sweetspot",
								"label": "start",
								"offset": 0,
								"slot": "0",
								"type": "t_uint64"
							},
							{
								"astId": 1502,
								"contract": "contracts/sweetspot.sol:sweetspot",
								"label": "end",
								"offset": 8,
								"slot": "0",
								"type": "t_uint64"
							},
							{
								"astId": 1504,
								"contract": "contracts/sweetspot.sol:sweetspot",
								"label": "metadataURI",
								"offset": 0,
								"slot": "1",
								"type": "t_string_storage"
							}
						],
						"numberOfBytes": "64"
					},
					"t_uint256": {
						"encoding": "inplace",
						"label": "uint256",
						"numberOfBytes": "32"
					},
					"t_uint64": {
						"encoding": "inplace",
						"label": "uint64",
						"numberOfBytes": "8"
					}
				}
			},
			"userdoc": {
				"kind": "user",
				"methods": {
					"bulkSetAllowedAmount(address,address[],uint256[])": {
						"notice": "Sets the allowed amount for multiple users for a given token in one call."
					},
					"claim(address)": {
						"notice": "Claims the full allowed amount for a user during the round."
					},
					"deposit(address,uint256)": {
						"notice": "Deposits funds into this jar for a specific token or Ether."
					},
					"initialize(address,address)": {
						"notice": "Initializes this contract with its initial state."
					},
					"setAllowedAmount(address,address,uint256)": {
						"notice": "Sets the allowed amount for a specific user and token."
					},
					"setRound(uint64,uint64,string)": {
						"notice": "Sets the round duration and metadata URI."
					},
					"withdraw(address,uint256)": {
						"notice": "Withdraws funds from the jar for a specific token or Ether."
					}
				},
				"version": 1
			}
		}
	}
}