{
	"contracts/scorer.sol": {
		"Scorer": {
			"abi": [
				{
					"inputs": [],
					"name": "AccessControlBadConfirmation",
					"type": "error"
				},
				{
					"inputs": [
						{
							"internalType": "address",
							"name": "account",
							"type": "address"
						},
						{
							"internalType": "bytes32",
							"name": "neededRole",
							"type": "bytes32"
						}
					],
					"name": "AccessControlUnauthorizedAccount",
					"type": "error"
				},
				{
					"inputs": [
						{
							"internalType": "string",
							"name": "scoreType",
							"type": "string"
						}
					],
					"name": "DuplicateScoreType",
					"type": "error"
				},
				{
					"inputs": [],
					"name": "InvalidInitialization",
					"type": "error"
				},
				{
					"inputs": [],
					"name": "NotInitializing",
					"type": "error"
				},
				{
					"inputs": [
						{
							"internalType": "address",
							"name": "owner",
							"type": "address"
						}
					],
					"name": "OwnableInvalidOwner",
					"type": "error"
				},
				{
					"inputs": [
						{
							"internalType": "address",
							"name": "account",
							"type": "address"
						}
					],
					"name": "OwnableUnauthorizedAccount",
					"type": "error"
				},
				{
					"inputs": [
						{
							"internalType": "string",
							"name": "scoreType",
							"type": "string"
						}
					],
					"name": "ScoreTypeNotFound",
					"type": "error"
				},
				{
					"anonymous": false,
					"inputs": [
						{
							"indexed": false,
							"internalType": "uint64",
							"name": "version",
							"type": "uint64"
						}
					],
					"name": "Initialized",
					"type": "event"
				},
				{
					"anonymous": false,
					"inputs": [
						{
							"indexed": true,
							"internalType": "address",
							"name": "previousOwner",
							"type": "address"
						},
						{
							"indexed": true,
							"internalType": "address",
							"name": "newOwner",
							"type": "address"
						}
					],
					"name": "OwnershipTransferred",
					"type": "event"
				},
				{
					"anonymous": false,
					"inputs": [
						{
							"indexed": true,
							"internalType": "bytes32",
							"name": "role",
							"type": "bytes32"
						},
						{
							"indexed": true,
							"internalType": "bytes32",
							"name": "previousAdminRole",
							"type": "bytes32"
						},
						{
							"indexed": true,
							"internalType": "bytes32",
							"name": "newAdminRole",
							"type": "bytes32"
						}
					],
					"name": "RoleAdminChanged",
					"type": "event"
				},
				{
					"anonymous": false,
					"inputs": [
						{
							"indexed": true,
							"internalType": "bytes32",
							"name": "role",
							"type": "bytes32"
						},
						{
							"indexed": true,
							"internalType": "address",
							"name": "account",
							"type": "address"
						},
						{
							"indexed": true,
							"internalType": "address",
							"name": "sender",
							"type": "address"
						}
					],
					"name": "RoleGranted",
					"type": "event"
				},
				{
					"anonymous": false,
					"inputs": [
						{
							"indexed": true,
							"internalType": "bytes32",
							"name": "role",
							"type": "bytes32"
						},
						{
							"indexed": true,
							"internalType": "address",
							"name": "account",
							"type": "address"
						},
						{
							"indexed": true,
							"internalType": "address",
							"name": "sender",
							"type": "address"
						}
					],
					"name": "RoleRevoked",
					"type": "event"
				},
				{
					"anonymous": false,
					"inputs": [
						{
							"indexed": false,
							"internalType": "string",
							"name": "scoreType",
							"type": "string"
						}
					],
					"name": "ScoreTypeAdded",
					"type": "event"
				},
				{
					"anonymous": false,
					"inputs": [
						{
							"indexed": false,
							"internalType": "string",
							"name": "scoreType",
							"type": "string"
						}
					],
					"name": "ScoreTypeRemoved",
					"type": "event"
				},
				{
					"anonymous": false,
					"inputs": [
						{
							"indexed": true,
							"internalType": "address",
							"name": "user",
							"type": "address"
						},
						{
							"indexed": false,
							"internalType": "string",
							"name": "scoreType",
							"type": "string"
						},
						{
							"indexed": false,
							"internalType": "uint256",
							"name": "newScore",
							"type": "uint256"
						},
						{
							"indexed": false,
							"internalType": "uint256",
							"name": "oldScore",
							"type": "uint256"
						}
					],
					"name": "ScoreUpdated",
					"type": "event"
				},
				{
					"inputs": [],
					"name": "ADMIN_ROLE",
					"outputs": [
						{
							"internalType": "bytes32",
							"name": "",
							"type": "bytes32"
						}
					],
					"stateMutability": "view",
					"type": "function"
				},
				{
					"inputs": [],
					"name": "DEFAULT_ADMIN_ROLE",
					"outputs": [
						{
							"internalType": "bytes32",
							"name": "",
							"type": "bytes32"
						}
					],
					"stateMutability": "view",
					"type": "function"
				},
				{
					"inputs": [
						{
							"internalType": "address",
							"name": "admin",
							"type": "address"
						}
					],
					"name": "addAdmin",
					"outputs": [],
					"stateMutability": "nonpayable",
					"type": "function"
				},
				{
					"inputs": [
						{
							"internalType": "string",
							"name": "scoreType",
							"type": "string"
						}
					],
					"name": "addScoreType",
					"outputs": [],
					"stateMutability": "nonpayable",
					"type": "function"
				},
				{
					"inputs": [
						{
							"internalType": "bytes32",
							"name": "role",
							"type": "bytes32"
						}
					],
					"name": "getRoleAdmin",
					"outputs": [
						{
							"internalType": "bytes32",
							"name": "",
							"type": "bytes32"
						}
					],
					"stateMutability": "view",
					"type": "function"
				},
				{
					"inputs": [
						{
							"internalType": "bytes32",
							"name": "role",
							"type": "bytes32"
						},
						{
							"internalType": "address",
							"name": "account",
							"type": "address"
						}
					],
					"name": "grantRole",
					"outputs": [],
					"stateMutability": "nonpayable",
					"type": "function"
				},
				{
					"inputs": [
						{
							"internalType": "bytes32",
							"name": "role",
							"type": "bytes32"
						},
						{
							"internalType": "address",
							"name": "account",
							"type": "address"
						}
					],
					"name": "hasRole",
					"outputs": [
						{
							"internalType": "bool",
							"name": "",
							"type": "bool"
						}
					],
					"stateMutability": "view",
					"type": "function"
				},
				{
					"inputs": [
						{
							"internalType": "address",
							"name": "owner",
							"type": "address"
						}
					],
					"name": "initialize",
					"outputs": [],
					"stateMutability": "nonpayable",
					"type": "function"
				},
				{
					"inputs": [
						{
							"internalType": "address",
							"name": "admin",
							"type": "address"
						}
					],
					"name": "isAdmin",
					"outputs": [
						{
							"internalType": "bool",
							"name": "",
							"type": "bool"
						}
					],
					"stateMutability": "view",
					"type": "function"
				},
				{
					"inputs": [],
					"name": "owner",
					"outputs": [
						{
							"internalType": "address",
							"name": "",
							"type": "address"
						}
					],
					"stateMutability": "view",
					"type": "function"
				},
				{
					"inputs": [
						{
							"internalType": "address",
							"name": "admin",
							"type": "address"
						}
					],
					"name": "removeAdmin",
					"outputs": [],
					"stateMutability": "nonpayable",
					"type": "function"
				},
				{
					"inputs": [
						{
							"internalType": "string",
							"name": "scoreType",
							"type": "string"
						}
					],
					"name": "removeScoreType",
					"outputs": [],
					"stateMutability": "nonpayable",
					"type": "function"
				},
				{
					"inputs": [],
					"name": "renounceOwnership",
					"outputs": [],
					"stateMutability": "nonpayable",
					"type": "function"
				},
				{
					"inputs": [
						{
							"internalType": "bytes32",
							"name": "role",
							"type": "bytes32"
						},
						{
							"internalType": "address",
							"name": "callerConfirmation",
							"type": "address"
						}
					],
					"name": "renounceRole",
					"outputs": [],
					"stateMutability": "nonpayable",
					"type": "function"
				},
				{
					"inputs": [
						{
							"internalType": "bytes32",
							"name": "role",
							"type": "bytes32"
						},
						{
							"internalType": "address",
							"name": "account",
							"type": "address"
						}
					],
					"name": "revokeRole",
					"outputs": [],
					"stateMutability": "nonpayable",
					"type": "function"
				},
				{
					"inputs": [
						{
							"internalType": "address",
							"name": "user",
							"type": "address"
						},
						{
							"internalType": "string",
							"name": "scoreType",
							"type": "string"
						}
					],
					"name": "score",
					"outputs": [
						{
							"internalType": "uint128",
							"name": "",
							"type": "uint128"
						}
					],
					"stateMutability": "view",
					"type": "function"
				},
				{
					"inputs": [
						{
							"internalType": "uint256",
							"name": "",
							"type": "uint256"
						}
					],
					"name": "scoreTypes",
					"outputs": [
						{
							"internalType": "string",
							"name": "",
							"type": "string"
						}
					],
					"stateMutability": "view",
					"type": "function"
				},
				{
					"inputs": [
						{
							"internalType": "address",
							"name": "user",
							"type": "address"
						},
						{
							"internalType": "string",
							"name": "scoreType",
							"type": "string"
						},
						{
							"internalType": "uint128",
							"name": "newScore",
							"type": "uint128"
						}
					],
					"name": "setScore",
					"outputs": [],
					"stateMutability": "nonpayable",
					"type": "function"
				},
				{
					"inputs": [
						{
							"internalType": "bytes4",
							"name": "interfaceId",
							"type": "bytes4"
						}
					],
					"name": "supportsInterface",
					"outputs": [
						{
							"internalType": "bool",
							"name": "",
							"type": "bool"
						}
					],
					"stateMutability": "view",
					"type": "function"
				},
				{
					"inputs": [
						{
							"internalType": "address",
							"name": "newOwner",
							"type": "address"
						}
					],
					"name": "transferOwnership",
					"outputs": [],
					"stateMutability": "nonpayable",
					"type": "function"
				}
			],
			"devdoc": {
				"details": "A contract for managing user scores by type, using AccessControl for admin privileges.",
				"errors": {
					"AccessControlBadConfirmation()": [
						{
							"details": "The caller of a function is not the expected one. NOTE: Don't confuse with {AccessControlUnauthorizedAccount}."
						}
					],
					"AccessControlUnauthorizedAccount(address,bytes32)": [
						{
							"details": "The `account` is missing a role."
						}
					],
					"InvalidInitialization()": [
						{
							"details": "The contract is already initialized."
						}
					],
					"NotInitializing()": [
						{
							"details": "The contract is not initializing."
						}
					],
					"OwnableInvalidOwner(address)": [
						{
							"details": "The owner is not a valid owner account. (eg. `address(0)`)"
						}
					],
					"OwnableUnauthorizedAccount(address)": [
						{
							"details": "The caller account is not authorized to perform an operation."
						}
					],
					"ScoreTypeNotFound(string)": [
						{
							"details": "Custom errors for cheaper revert messages"
						}
					]
				},
				"events": {
					"Initialized(uint64)": {
						"details": "Triggered when the contract has been initialized or reinitialized."
					},
					"RoleAdminChanged(bytes32,bytes32,bytes32)": {
						"details": "Emitted when `newAdminRole` is set as ``role``'s admin role, replacing `previousAdminRole` `DEFAULT_ADMIN_ROLE` is the starting admin for all roles, despite {RoleAdminChanged} not being emitted signaling this."
					},
					"RoleGranted(bytes32,address,address)": {
						"details": "Emitted when `account` is granted `role`. `sender` is the account that originated the contract call. This account bears the admin role (for the granted role). Expected in cases where the role was granted using the internal {AccessControl-_grantRole}."
					},
					"RoleRevoked(bytes32,address,address)": {
						"details": "Emitted when `account` is revoked `role`. `sender` is the account that originated the contract call:   - if using `revokeRole`, it is the admin role bearer   - if using `renounceRole`, it is the role bearer (i.e. `account`)"
					}
				},
				"kind": "dev",
				"methods": {
					"addAdmin(address)": {
						"params": {
							"admin": "The address to be granted admin privileges."
						}
					},
					"addScoreType(string)": {
						"params": {
							"scoreType": "The name of the score type to add."
						}
					},
					"getRoleAdmin(bytes32)": {
						"details": "Returns the admin role that controls `role`. See {grantRole} and {revokeRole}. To change a role's admin, use {_setRoleAdmin}."
					},
					"grantRole(bytes32,address)": {
						"details": "Grants `role` to `account`. If `account` had not been already granted `role`, emits a {RoleGranted} event. Requirements: - the caller must have ``role``'s admin role. May emit a {RoleGranted} event."
					},
					"hasRole(bytes32,address)": {
						"details": "Returns `true` if `account` has been granted `role`."
					},
					"initialize(address)": {
						"params": {
							"owner": "The owner address."
						}
					},
					"isAdmin(address)": {
						"params": {
							"admin": "The address to be checked."
						},
						"returns": {
							"_0": "True if the address has admin privileges, false otherwise."
						}
					},
					"owner()": {
						"details": "Returns the address of the current owner."
					},
					"removeAdmin(address)": {
						"params": {
							"admin": "The address to be revoked of admin privileges."
						}
					},
					"removeScoreType(string)": {
						"params": {
							"scoreType": "The name of the score type to remove."
						}
					},
					"renounceOwnership()": {
						"details": "Leaves the contract without owner. It will not be possible to call `onlyOwner` functions. Can only be called by the current owner. NOTE: Renouncing ownership will leave the contract without an owner, thereby disabling any functionality that is only available to the owner."
					},
					"renounceRole(bytes32,address)": {
						"details": "Revokes `role` from the calling account. Roles are often managed via {grantRole} and {revokeRole}: this function's purpose is to provide a mechanism for accounts to lose their privileges if they are compromised (such as when a trusted device is misplaced). If the calling account had been revoked `role`, emits a {RoleRevoked} event. Requirements: - the caller must be `callerConfirmation`. May emit a {RoleRevoked} event."
					},
					"revokeRole(bytes32,address)": {
						"details": "Revokes `role` from `account`. If `account` had been granted `role`, emits a {RoleRevoked} event. Requirements: - the caller must have ``role``'s admin role. May emit a {RoleRevoked} event."
					},
					"score(address,string)": {
						"params": {
							"scoreType": "The type of the score.",
							"user": "The address of the user."
						},
						"returns": {
							"_0": "The score value (uint128)."
						}
					},
					"setScore(address,string,uint128)": {
						"params": {
							"newScore": "The new score value.",
							"scoreType": "The type of the score.",
							"user": "The address of the user."
						}
					},
					"supportsInterface(bytes4)": {
						"details": "See {IERC165-supportsInterface}."
					},
					"transferOwnership(address)": {
						"details": "Transfers ownership of the contract to a new account (`newOwner`). Can only be called by the current owner."
					}
				},
				"title": "Scorer",
				"version": 1
			},
			"evm": {
				"assembly": "    /* \"contracts/scorer.sol\":371:5270  contract Scorer is OwnableUpgradeable, AccessControlUpgradeable {... */\n  mstore(0x40, 0x80)\n  callvalue\n  dup1\n  iszero\n  tag_1\n  jumpi\n  0x00\n  dup1\n  revert\ntag_1:\n  pop\n  dataSize(sub_0)\n  dup1\n  dataOffset(sub_0)\n  0x00\n  codecopy\n  0x00\n  return\nstop\n\nsub_0: assembly {\n        /* \"contracts/scorer.sol\":371:5270  contract Scorer is OwnableUpgradeable, AccessControlUpgradeable {... */\n      mstore(0x40, 0x80)\n      callvalue\n      dup1\n      iszero\n      tag_1\n      jumpi\n      0x00\n      dup1\n      revert\n    tag_1:\n      pop\n      jumpi(tag_2, lt(calldatasize, 0x04))\n      shr(0xe0, calldataload(0x00))\n      dup1\n      0x91d14854\n      gt\n      tag_23\n      jumpi\n      dup1\n      0xc9a4909c\n      gt\n      tag_24\n      jumpi\n      dup1\n      0xc9a4909c\n      eq\n      tag_18\n      jumpi\n      dup1\n      0xd2a8e163\n      eq\n      tag_19\n      jumpi\n      dup1\n      0xd547741f\n      eq\n      tag_20\n      jumpi\n      dup1\n      0xdb4f1024\n      eq\n      tag_21\n      jumpi\n      dup1\n      0xf2fde38b\n      eq\n      tag_22\n      jumpi\n      jump(tag_2)\n    tag_24:\n      dup1\n      0x91d14854\n      eq\n      tag_13\n      jumpi\n      dup1\n      0xa217fddf\n      eq\n      tag_14\n      jumpi\n      dup1\n      0xa34f0e28\n      eq\n      tag_15\n      jumpi\n      dup1\n      0xc4d66de8\n      eq\n      tag_16\n      jumpi\n      dup1\n      0xc87a774b\n      eq\n      tag_17\n      jumpi\n      jump(tag_2)\n    tag_23:\n      dup1\n      0x36568abe\n      gt\n      tag_25\n      jumpi\n      dup1\n      0x36568abe\n      eq\n      tag_8\n      jumpi\n      dup1\n      0x70480275\n      eq\n      tag_9\n      jumpi\n      dup1\n      0x715018a6\n      eq\n      tag_10\n      jumpi\n      dup1\n      0x75b238fc\n      eq\n      tag_11\n      jumpi\n      dup1\n      0x8da5cb5b\n      eq\n      tag_12\n      jumpi\n      jump(tag_2)\n    tag_25:\n      dup1\n      0x01ffc9a7\n      eq\n      tag_3\n      jumpi\n      dup1\n      0x1785f53c\n      eq\n      tag_4\n      jumpi\n      dup1\n      0x248a9ca3\n      eq\n      tag_5\n      jumpi\n      dup1\n      0x24d7806c\n      eq\n      tag_6\n      jumpi\n      dup1\n      0x2f2ff15d\n      eq\n      tag_7\n      jumpi\n    tag_2:\n      0x00\n      dup1\n      revert\n        /* \"@openzeppelin/contracts-upgradeable/access/AccessControlUpgradeable.sol\":3443:3645  function supportsInterface(bytes4 interfaceId) public view virtual override returns (bool) {... */\n    tag_3:\n      tag_26\n      0x04\n      dup1\n      calldatasize\n      sub\n      dup2\n      add\n      swap1\n      tag_27\n      swap2\n      swap1\n      tag_28\n      jump\t// in\n    tag_27:\n      tag_29\n      jump\t// in\n    tag_26:\n      mload(0x40)\n      tag_30\n      swap2\n      swap1\n      tag_31\n      jump\t// in\n    tag_30:\n      mload(0x40)\n      dup1\n      swap2\n      sub\n      swap1\n      return\n        /* \"contracts/scorer.sol\":4852:4953  function removeAdmin(address admin) external onlyOwner {... */\n    tag_4:\n      tag_32\n      0x04\n      dup1\n      calldatasize\n      sub\n      dup2\n      add\n      swap1\n      tag_33\n      swap2\n      swap1\n      tag_34\n      jump\t// in\n    tag_33:\n      tag_35\n      jump\t// in\n    tag_32:\n      stop\n        /* \"@openzeppelin/contracts-upgradeable/access/AccessControlUpgradeable.sol\":4759:4950  function getRoleAdmin(bytes32 role) public view virtual returns (bytes32) {... */\n    tag_5:\n      tag_36\n      0x04\n      dup1\n      calldatasize\n      sub\n      dup2\n      add\n      swap1\n      tag_37\n      swap2\n      swap1\n      tag_38\n      jump\t// in\n    tag_37:\n      tag_39\n      jump\t// in\n    tag_36:\n      mload(0x40)\n      tag_40\n      swap2\n      swap1\n      tag_41\n      jump\t// in\n    tag_40:\n      mload(0x40)\n      dup1\n      swap2\n      sub\n      swap1\n      return\n        /* \"contracts/scorer.sol\":5157:5268  function isAdmin(address admin) external view returns (bool) {... */\n    tag_6:\n      tag_42\n      0x04\n      dup1\n      calldatasize\n      sub\n      dup2\n      add\n      swap1\n      tag_43\n      swap2\n      swap1\n      tag_34\n      jump\t// in\n    tag_43:\n      tag_44\n      jump\t// in\n    tag_42:\n      mload(0x40)\n      tag_45\n      swap2\n      swap1\n      tag_31\n      jump\t// in\n    tag_45:\n      mload(0x40)\n      dup1\n      swap2\n      sub\n      swap1\n      return\n        /* \"@openzeppelin/contracts-upgradeable/access/AccessControlUpgradeable.sol\":5246:5382  function grantRole(bytes32 role, address account) public virtual onlyRole(getRoleAdmin(role)) {... */\n    tag_7:\n      tag_46\n      0x04\n      dup1\n      calldatasize\n      sub\n      dup2\n      add\n      swap1\n      tag_47\n      swap2\n      swap1\n      tag_48\n      jump\t// in\n    tag_47:\n      tag_49\n      jump\t// in\n    tag_46:\n      stop\n        /* \"@openzeppelin/contracts-upgradeable/access/AccessControlUpgradeable.sol\":6348:6593  function renounceRole(bytes32 role, address callerConfirmation) public virtual {... */\n    tag_8:\n      tag_50\n      0x04\n      dup1\n      calldatasize\n      sub\n      dup2\n      add\n      swap1\n      tag_51\n      swap2\n      swap1\n      tag_48\n      jump\t// in\n    tag_51:\n      tag_52\n      jump\t// in\n    tag_50:\n      stop\n        /* \"contracts/scorer.sol\":4602:4699  function addAdmin(address admin) external onlyOwner {... */\n    tag_9:\n      tag_53\n      0x04\n      dup1\n      calldatasize\n      sub\n      dup2\n      add\n      swap1\n      tag_54\n      swap2\n      swap1\n      tag_34\n      jump\t// in\n    tag_54:\n      tag_55\n      jump\t// in\n    tag_53:\n      stop\n        /* \"@openzeppelin/contracts-upgradeable/access/OwnableUpgradeable.sol\":3155:3256  function renounceOwnership() public virtual onlyOwner {... */\n    tag_10:\n      tag_56\n      tag_57\n      jump\t// in\n    tag_56:\n      stop\n        /* \"contracts/scorer.sol\":441:501  bytes32 public constant ADMIN_ROLE = keccak256(\"ADMIN_ROLE\") */\n    tag_11:\n      tag_58\n      tag_59\n      jump\t// in\n    tag_58:\n      mload(0x40)\n      tag_60\n      swap2\n      swap1\n      tag_41\n      jump\t// in\n    tag_60:\n      mload(0x40)\n      dup1\n      swap2\n      sub\n      swap1\n      return\n        /* \"@openzeppelin/contracts-upgradeable/access/OwnableUpgradeable.sol\":2441:2585  function owner() public view virtual returns (address) {... */\n    tag_12:\n      tag_61\n      tag_62\n      jump\t// in\n    tag_61:\n      mload(0x40)\n      tag_63\n      swap2\n      swap1\n      tag_64\n      jump\t// in\n    tag_63:\n      mload(0x40)\n      dup1\n      swap2\n      sub\n      swap1\n      return\n        /* \"@openzeppelin/contracts-upgradeable/access/AccessControlUpgradeable.sol\":3732:3939  function hasRole(bytes32 role, address account) public view virtual returns (bool) {... */\n    tag_13:\n      tag_65\n      0x04\n      dup1\n      calldatasize\n      sub\n      dup2\n      add\n      swap1\n      tag_66\n      swap2\n      swap1\n      tag_48\n      jump\t// in\n    tag_66:\n      tag_67\n      jump\t// in\n    tag_65:\n      mload(0x40)\n      tag_68\n      swap2\n      swap1\n      tag_31\n      jump\t// in\n    tag_68:\n      mload(0x40)\n      dup1\n      swap2\n      sub\n      swap1\n      return\n        /* \"@openzeppelin/contracts-upgradeable/access/AccessControlUpgradeable.sol\":2317:2366  bytes32 public constant DEFAULT_ADMIN_ROLE = 0x00 */\n    tag_14:\n      tag_69\n      tag_70\n      jump\t// in\n    tag_69:\n      mload(0x40)\n      tag_71\n      swap2\n      swap1\n      tag_41\n      jump\t// in\n    tag_71:\n      mload(0x40)\n      dup1\n      swap2\n      sub\n      swap1\n      return\n        /* \"contracts/scorer.sol\":2348:3265  function removeScoreType(string memory scoreType)... */\n    tag_15:\n      tag_72\n      0x04\n      dup1\n      calldatasize\n      sub\n      dup2\n      add\n      swap1\n      tag_73\n      swap2\n      swap1\n      tag_74\n      jump\t// in\n    tag_73:\n      tag_75\n      jump\t// in\n    tag_72:\n      stop\n        /* \"contracts/scorer.sol\":1511:1724  function initialize(address owner) external initializer {... */\n    tag_16:\n      tag_76\n      0x04\n      dup1\n      calldatasize\n      sub\n      dup2\n      add\n      swap1\n      tag_77\n      swap2\n      swap1\n      tag_34\n      jump\t// in\n    tag_77:\n      tag_78\n      jump\t// in\n    tag_76:\n      stop\n        /* \"contracts/scorer.sol\":3482:4066  function setScore(... */\n    tag_17:\n      tag_79\n      0x04\n      dup1\n      calldatasize\n      sub\n      dup2\n      add\n      swap1\n      tag_80\n      swap2\n      swap1\n      tag_81\n      jump\t// in\n    tag_80:\n      tag_82\n      jump\t// in\n    tag_79:\n      stop\n        /* \"contracts/scorer.sol\":1873:2188  function addScoreType(string memory scoreType)... */\n    tag_18:\n      tag_83\n      0x04\n      dup1\n      calldatasize\n      sub\n      dup2\n      add\n      swap1\n      tag_84\n      swap2\n      swap1\n      tag_74\n      jump\t// in\n    tag_84:\n      tag_85\n      jump\t// in\n    tag_83:\n      stop\n        /* \"contracts/scorer.sol\":690:716  string[] public scoreTypes */\n    tag_19:\n      tag_86\n      0x04\n      dup1\n      calldatasize\n      sub\n      dup2\n      add\n      swap1\n      tag_87\n      swap2\n      swap1\n      tag_88\n      jump\t// in\n    tag_87:\n      tag_89\n      jump\t// in\n    tag_86:\n      mload(0x40)\n      tag_90\n      swap2\n      swap1\n      tag_91\n      jump\t// in\n    tag_90:\n      mload(0x40)\n      dup1\n      swap2\n      sub\n      swap1\n      return\n        /* \"@openzeppelin/contracts-upgradeable/access/AccessControlUpgradeable.sol\":5662:5800  function revokeRole(bytes32 role, address account) public virtual onlyRole(getRoleAdmin(role)) {... */\n    tag_20:\n      tag_92\n      0x04\n      dup1\n      calldatasize\n      sub\n      dup2\n      add\n      swap1\n      tag_93\n      swap2\n      swap1\n      tag_48\n      jump\t// in\n    tag_93:\n      tag_94\n      jump\t// in\n    tag_92:\n      stop\n        /* \"contracts/scorer.sol\":4293:4455  function score(address user, string memory scoreType)... */\n    tag_21:\n      tag_95\n      0x04\n      dup1\n      calldatasize\n      sub\n      dup2\n      add\n      swap1\n      tag_96\n      swap2\n      swap1\n      tag_97\n      jump\t// in\n    tag_96:\n      tag_98\n      jump\t// in\n    tag_95:\n      mload(0x40)\n      tag_99\n      swap2\n      swap1\n      tag_100\n      jump\t// in\n    tag_99:\n      mload(0x40)\n      dup1\n      swap2\n      sub\n      swap1\n      return\n        /* \"@openzeppelin/contracts-upgradeable/access/OwnableUpgradeable.sol\":3405:3620  function transferOwnership(address newOwner) public virtual onlyOwner {... */\n    tag_22:\n      tag_101\n      0x04\n      dup1\n      calldatasize\n      sub\n      dup2\n      add\n      swap1\n      tag_102\n      swap2\n      swap1\n      tag_34\n      jump\t// in\n    tag_102:\n      tag_103\n      jump\t// in\n    tag_101:\n      stop\n        /* \"@openzeppelin/contracts-upgradeable/access/AccessControlUpgradeable.sol\":3443:3645  function supportsInterface(bytes4 interfaceId) public view virtual override returns (bool) {... */\n    tag_29:\n        /* \"@openzeppelin/contracts-upgradeable/access/AccessControlUpgradeable.sol\":3528:3532  bool */\n      0x00\n        /* \"@openzeppelin/contracts-upgradeable/access/AccessControlUpgradeable.sol\":3566:3598  type(IAccessControl).interfaceId */\n      0x7965db0b00000000000000000000000000000000000000000000000000000000\n        /* \"@openzeppelin/contracts-upgradeable/access/AccessControlUpgradeable.sol\":3551:3598  interfaceId == type(IAccessControl).interfaceId */\n      not(0xffffffffffffffffffffffffffffffffffffffffffffffffffffffff)\n      and\n        /* \"@openzeppelin/contracts-upgradeable/access/AccessControlUpgradeable.sol\":3551:3562  interfaceId */\n      dup3\n        /* \"@openzeppelin/contracts-upgradeable/access/AccessControlUpgradeable.sol\":3551:3598  interfaceId == type(IAccessControl).interfaceId */\n      not(0xffffffffffffffffffffffffffffffffffffffffffffffffffffffff)\n      and\n      eq\n        /* \"@openzeppelin/contracts-upgradeable/access/AccessControlUpgradeable.sol\":3551:3638  interfaceId == type(IAccessControl).interfaceId || super.supportsInterface(interfaceId) */\n      dup1\n      tag_105\n      jumpi\n      pop\n        /* \"@openzeppelin/contracts-upgradeable/access/AccessControlUpgradeable.sol\":3602:3638  super.supportsInterface(interfaceId) */\n      tag_106\n        /* \"@openzeppelin/contracts-upgradeable/access/AccessControlUpgradeable.sol\":3626:3637  interfaceId */\n      dup3\n        /* \"@openzeppelin/contracts-upgradeable/access/AccessControlUpgradeable.sol\":3602:3625  super.supportsInterface */\n      tag_107\n        /* \"@openzeppelin/contracts-upgradeable/access/AccessControlUpgradeable.sol\":3602:3638  super.supportsInterface(interfaceId) */\n      jump\t// in\n    tag_106:\n        /* \"@openzeppelin/contracts-upgradeable/access/AccessControlUpgradeable.sol\":3551:3638  interfaceId == type(IAccessControl).interfaceId || super.supportsInterface(interfaceId) */\n    tag_105:\n        /* \"@openzeppelin/contracts-upgradeable/access/AccessControlUpgradeable.sol\":3544:3638  return interfaceId == type(IAccessControl).interfaceId || super.supportsInterface(interfaceId) */\n      swap1\n      pop\n        /* \"@openzeppelin/contracts-upgradeable/access/AccessControlUpgradeable.sol\":3443:3645  function supportsInterface(bytes4 interfaceId) public view virtual override returns (bool) {... */\n      swap2\n      swap1\n      pop\n      jump\t// out\n        /* \"contracts/scorer.sol\":4852:4953  function removeAdmin(address admin) external onlyOwner {... */\n    tag_35:\n        /* \"@openzeppelin/contracts-upgradeable/access/OwnableUpgradeable.sol\":2334:2347  _checkOwner() */\n      tag_109\n        /* \"@openzeppelin/contracts-upgradeable/access/OwnableUpgradeable.sol\":2334:2345  _checkOwner */\n      tag_110\n        /* \"@openzeppelin/contracts-upgradeable/access/OwnableUpgradeable.sol\":2334:2347  _checkOwner() */\n      jump\t// in\n    tag_109:\n        /* \"contracts/scorer.sol\":4917:4946  revokeRole(ADMIN_ROLE, admin) */\n      tag_112\n        /* \"contracts/scorer.sol\":478:501  keccak256(\"ADMIN_ROLE\") */\n      0xa49807205ce4d355092ef5a8a18f56e8913cf4a201fbe287825b095693c21775\n        /* \"contracts/scorer.sol\":4940:4945  admin */\n      dup3\n        /* \"contracts/scorer.sol\":4917:4927  revokeRole */\n      tag_94\n        /* \"contracts/scorer.sol\":4917:4946  revokeRole(ADMIN_ROLE, admin) */\n      jump\t// in\n    tag_112:\n        /* \"contracts/scorer.sol\":4852:4953  function removeAdmin(address admin) external onlyOwner {... */\n      pop\n      jump\t// out\n        /* \"@openzeppelin/contracts-upgradeable/access/AccessControlUpgradeable.sol\":4759:4950  function getRoleAdmin(bytes32 role) public view virtual returns (bytes32) {... */\n    tag_39:\n        /* \"@openzeppelin/contracts-upgradeable/access/AccessControlUpgradeable.sol\":4824:4831  bytes32 */\n      0x00\n        /* \"@openzeppelin/contracts-upgradeable/access/AccessControlUpgradeable.sol\":4843:4873  AccessControlStorage storage $ */\n      dup1\n        /* \"@openzeppelin/contracts-upgradeable/access/AccessControlUpgradeable.sol\":4876:4902  _getAccessControlStorage() */\n      tag_114\n        /* \"@openzeppelin/contracts-upgradeable/access/AccessControlUpgradeable.sol\":4876:4900  _getAccessControlStorage */\n      tag_115\n        /* \"@openzeppelin/contracts-upgradeable/access/AccessControlUpgradeable.sol\":4876:4902  _getAccessControlStorage() */\n      jump\t// in\n    tag_114:\n        /* \"@openzeppelin/contracts-upgradeable/access/AccessControlUpgradeable.sol\":4843:4902  AccessControlStorage storage $ = _getAccessControlStorage() */\n      swap1\n      pop\n        /* \"@openzeppelin/contracts-upgradeable/access/AccessControlUpgradeable.sol\":4919:4920  $ */\n      dup1\n        /* \"@openzeppelin/contracts-upgradeable/access/AccessControlUpgradeable.sol\":4919:4927  $._roles */\n      0x00\n      add\n        /* \"@openzeppelin/contracts-upgradeable/access/AccessControlUpgradeable.sol\":4919:4933  $._roles[role] */\n      0x00\n        /* \"@openzeppelin/contracts-upgradeable/access/AccessControlUpgradeable.sol\":4928:4932  role */\n      dup5\n        /* \"@openzeppelin/contracts-upgradeable/access/AccessControlUpgradeable.sol\":4919:4933  $._roles[role] */\n      dup2\n      mstore\n      0x20\n      add\n      swap1\n      dup2\n      mstore\n      0x20\n      add\n      0x00\n      keccak256\n        /* \"@openzeppelin/contracts-upgradeable/access/AccessControlUpgradeable.sol\":4919:4943  $._roles[role].adminRole */\n      0x01\n      add\n      sload\n        /* \"@openzeppelin/contracts-upgradeable/access/AccessControlUpgradeable.sol\":4912:4943  return $._roles[role].adminRole */\n      swap2\n      pop\n      pop\n        /* \"@openzeppelin/contracts-upgradeable/access/AccessControlUpgradeable.sol\":4759:4950  function getRoleAdmin(bytes32 role) public view virtual returns (bytes32) {... */\n      swap2\n      swap1\n      pop\n      jump\t// out\n        /* \"contracts/scorer.sol\":5157:5268  function isAdmin(address admin) external view returns (bool) {... */\n    tag_44:\n        /* \"contracts/scorer.sol\":5212:5216  bool */\n      0x00\n        /* \"contracts/scorer.sol\":5235:5261  hasRole(ADMIN_ROLE, admin) */\n      tag_117\n        /* \"contracts/scorer.sol\":478:501  keccak256(\"ADMIN_ROLE\") */\n      0xa49807205ce4d355092ef5a8a18f56e8913cf4a201fbe287825b095693c21775\n        /* \"contracts/scorer.sol\":5255:5260  admin */\n      dup4\n        /* \"contracts/scorer.sol\":5235:5242  hasRole */\n      tag_67\n        /* \"contracts/scorer.sol\":5235:5261  hasRole(ADMIN_ROLE, admin) */\n      jump\t// in\n    tag_117:\n        /* \"contracts/scorer.sol\":5228:5261  return hasRole(ADMIN_ROLE, admin) */\n      swap1\n      pop\n        /* \"contracts/scorer.sol\":5157:5268  function isAdmin(address admin) external view returns (bool) {... */\n      swap2\n      swap1\n      pop\n      jump\t// out\n        /* \"@openzeppelin/contracts-upgradeable/access/AccessControlUpgradeable.sol\":5246:5382  function grantRole(bytes32 role, address account) public virtual onlyRole(getRoleAdmin(role)) {... */\n    tag_49:\n        /* \"@openzeppelin/contracts-upgradeable/access/AccessControlUpgradeable.sol\":5320:5338  getRoleAdmin(role) */\n      tag_118\n        /* \"@openzeppelin/contracts-upgradeable/access/AccessControlUpgradeable.sol\":5333:5337  role */\n      dup3\n        /* \"@openzeppelin/contracts-upgradeable/access/AccessControlUpgradeable.sol\":5320:5332  getRoleAdmin */\n      tag_39\n        /* \"@openzeppelin/contracts-upgradeable/access/AccessControlUpgradeable.sol\":5320:5338  getRoleAdmin(role) */\n      jump\t// in\n    tag_118:\n        /* \"@openzeppelin/contracts-upgradeable/access/AccessControlUpgradeable.sol\":3191:3207  _checkRole(role) */\n      tag_120\n        /* \"@openzeppelin/contracts-upgradeable/access/AccessControlUpgradeable.sol\":3202:3206  role */\n      dup2\n        /* \"@openzeppelin/contracts-upgradeable/access/AccessControlUpgradeable.sol\":3191:3201  _checkRole */\n      tag_121\n        /* \"@openzeppelin/contracts-upgradeable/access/AccessControlUpgradeable.sol\":3191:3207  _checkRole(role) */\n      jump\t// in\n    tag_120:\n        /* \"@openzeppelin/contracts-upgradeable/access/AccessControlUpgradeable.sol\":5350:5375  _grantRole(role, account) */\n      tag_123\n        /* \"@openzeppelin/contracts-upgradeable/access/AccessControlUpgradeable.sol\":5361:5365  role */\n      dup4\n        /* \"@openzeppelin/contracts-upgradeable/access/AccessControlUpgradeable.sol\":5367:5374  account */\n      dup4\n        /* \"@openzeppelin/contracts-upgradeable/access/AccessControlUpgradeable.sol\":5350:5360  _grantRole */\n      tag_124\n        /* \"@openzeppelin/contracts-upgradeable/access/AccessControlUpgradeable.sol\":5350:5375  _grantRole(role, account) */\n      jump\t// in\n    tag_123:\n      pop\n        /* \"@openzeppelin/contracts-upgradeable/access/AccessControlUpgradeable.sol\":5246:5382  function grantRole(bytes32 role, address account) public virtual onlyRole(getRoleAdmin(role)) {... */\n      pop\n      pop\n      pop\n      jump\t// out\n        /* \"@openzeppelin/contracts-upgradeable/access/AccessControlUpgradeable.sol\":6348:6593  function renounceRole(bytes32 role, address callerConfirmation) public virtual {... */\n    tag_52:\n        /* \"@openzeppelin/contracts-upgradeable/access/AccessControlUpgradeable.sol\":6463:6475  _msgSender() */\n      tag_126\n        /* \"@openzeppelin/contracts-upgradeable/access/AccessControlUpgradeable.sol\":6463:6473  _msgSender */\n      tag_127\n        /* \"@openzeppelin/contracts-upgradeable/access/AccessControlUpgradeable.sol\":6463:6475  _msgSender() */\n      jump\t// in\n    tag_126:\n        /* \"@openzeppelin/contracts-upgradeable/access/AccessControlUpgradeable.sol\":6441:6475  callerConfirmation != _msgSender() */\n      0xffffffffffffffffffffffffffffffffffffffff\n      and\n        /* \"@openzeppelin/contracts-upgradeable/access/AccessControlUpgradeable.sol\":6441:6459  callerConfirmation */\n      dup2\n        /* \"@openzeppelin/contracts-upgradeable/access/AccessControlUpgradeable.sol\":6441:6475  callerConfirmation != _msgSender() */\n      0xffffffffffffffffffffffffffffffffffffffff\n      and\n      eq\n        /* \"@openzeppelin/contracts-upgradeable/access/AccessControlUpgradeable.sol\":6437:6539  if (callerConfirmation != _msgSender()) {... */\n      tag_128\n      jumpi\n        /* \"@openzeppelin/contracts-upgradeable/access/AccessControlUpgradeable.sol\":6498:6528  AccessControlBadConfirmation() */\n      mload(0x40)\n      0x6697b23200000000000000000000000000000000000000000000000000000000\n      dup2\n      mstore\n      0x04\n      add\n      mload(0x40)\n      dup1\n      swap2\n      sub\n      swap1\n      revert\n        /* \"@openzeppelin/contracts-upgradeable/access/AccessControlUpgradeable.sol\":6437:6539  if (callerConfirmation != _msgSender()) {... */\n    tag_128:\n        /* \"@openzeppelin/contracts-upgradeable/access/AccessControlUpgradeable.sol\":6549:6586  _revokeRole(role, callerConfirmation) */\n      tag_129\n        /* \"@openzeppelin/contracts-upgradeable/access/AccessControlUpgradeable.sol\":6561:6565  role */\n      dup3\n        /* \"@openzeppelin/contracts-upgradeable/access/AccessControlUpgradeable.sol\":6567:6585  callerConfirmation */\n      dup3\n        /* \"@openzeppelin/contracts-upgradeable/access/AccessControlUpgradeable.sol\":6549:6560  _revokeRole */\n      tag_130\n        /* \"@openzeppelin/contracts-upgradeable/access/AccessControlUpgradeable.sol\":6549:6586  _revokeRole(role, callerConfirmation) */\n      jump\t// in\n    tag_129:\n      pop\n        /* \"@openzeppelin/contracts-upgradeable/access/AccessControlUpgradeable.sol\":6348:6593  function renounceRole(bytes32 role, address callerConfirmation) public virtual {... */\n      pop\n      pop\n      jump\t// out\n        /* \"contracts/scorer.sol\":4602:4699  function addAdmin(address admin) external onlyOwner {... */\n    tag_55:\n        /* \"@openzeppelin/contracts-upgradeable/access/OwnableUpgradeable.sol\":2334:2347  _checkOwner() */\n      tag_132\n        /* \"@openzeppelin/contracts-upgradeable/access/OwnableUpgradeable.sol\":2334:2345  _checkOwner */\n      tag_110\n        /* \"@openzeppelin/contracts-upgradeable/access/OwnableUpgradeable.sol\":2334:2347  _checkOwner() */\n      jump\t// in\n    tag_132:\n        /* \"contracts/scorer.sol\":4664:4692  grantRole(ADMIN_ROLE, admin) */\n      tag_134\n        /* \"contracts/scorer.sol\":478:501  keccak256(\"ADMIN_ROLE\") */\n      0xa49807205ce4d355092ef5a8a18f56e8913cf4a201fbe287825b095693c21775\n        /* \"contracts/scorer.sol\":4686:4691  admin */\n      dup3\n        /* \"contracts/scorer.sol\":4664:4673  grantRole */\n      tag_49\n        /* \"contracts/scorer.sol\":4664:4692  grantRole(ADMIN_ROLE, admin) */\n      jump\t// in\n    tag_134:\n        /* \"contracts/scorer.sol\":4602:4699  function addAdmin(address admin) external onlyOwner {... */\n      pop\n      jump\t// out\n        /* \"@openzeppelin/contracts-upgradeable/access/OwnableUpgradeable.sol\":3155:3256  function renounceOwnership() public virtual onlyOwner {... */\n    tag_57:\n        /* \"@openzeppelin/contracts-upgradeable/access/OwnableUpgradeable.sol\":2334:2347  _checkOwner() */\n      tag_136\n        /* \"@openzeppelin/contracts-upgradeable/access/OwnableUpgradeable.sol\":2334:2345  _checkOwner */\n      tag_110\n        /* \"@openzeppelin/contracts-upgradeable/access/OwnableUpgradeable.sol\":2334:2347  _checkOwner() */\n      jump\t// in\n    tag_136:\n        /* \"@openzeppelin/contracts-upgradeable/access/OwnableUpgradeable.sol\":3219:3249  _transferOwnership(address(0)) */\n      tag_138\n        /* \"@openzeppelin/contracts-upgradeable/access/OwnableUpgradeable.sol\":3246:3247  0 */\n      0x00\n        /* \"@openzeppelin/contracts-upgradeable/access/OwnableUpgradeable.sol\":3219:3237  _transferOwnership */\n      tag_139\n        /* \"@openzeppelin/contracts-upgradeable/access/OwnableUpgradeable.sol\":3219:3249  _transferOwnership(address(0)) */\n      jump\t// in\n    tag_138:\n        /* \"@openzeppelin/contracts-upgradeable/access/OwnableUpgradeable.sol\":3155:3256  function renounceOwnership() public virtual onlyOwner {... */\n      jump\t// out\n        /* \"contracts/scorer.sol\":441:501  bytes32 public constant ADMIN_ROLE = keccak256(\"ADMIN_ROLE\") */\n    tag_59:\n        /* \"contracts/scorer.sol\":478:501  keccak256(\"ADMIN_ROLE\") */\n      0xa49807205ce4d355092ef5a8a18f56e8913cf4a201fbe287825b095693c21775\n        /* \"contracts/scorer.sol\":441:501  bytes32 public constant ADMIN_ROLE = keccak256(\"ADMIN_ROLE\") */\n      dup2\n      jump\t// out\n        /* \"@openzeppelin/contracts-upgradeable/access/OwnableUpgradeable.sol\":2441:2585  function owner() public view virtual returns (address) {... */\n    tag_62:\n        /* \"@openzeppelin/contracts-upgradeable/access/OwnableUpgradeable.sol\":2487:2494  address */\n      0x00\n        /* \"@openzeppelin/contracts-upgradeable/access/OwnableUpgradeable.sol\":2506:2530  OwnableStorage storage $ */\n      dup1\n        /* \"@openzeppelin/contracts-upgradeable/access/OwnableUpgradeable.sol\":2533:2553  _getOwnableStorage() */\n      tag_141\n        /* \"@openzeppelin/contracts-upgradeable/access/OwnableUpgradeable.sol\":2533:2551  _getOwnableStorage */\n      tag_142\n        /* \"@openzeppelin/contracts-upgradeable/access/OwnableUpgradeable.sol\":2533:2553  _getOwnableStorage() */\n      jump\t// in\n    tag_141:\n        /* \"@openzeppelin/contracts-upgradeable/access/OwnableUpgradeable.sol\":2506:2553  OwnableStorage storage $ = _getOwnableStorage() */\n      swap1\n      pop\n        /* \"@openzeppelin/contracts-upgradeable/access/OwnableUpgradeable.sol\":2570:2571  $ */\n      dup1\n        /* \"@openzeppelin/contracts-upgradeable/access/OwnableUpgradeable.sol\":2570:2578  $._owner */\n      0x00\n      add\n      0x00\n      swap1\n      sload\n      swap1\n      0x0100\n      exp\n      swap1\n      div\n      0xffffffffffffffffffffffffffffffffffffffff\n      and\n        /* \"@openzeppelin/contracts-upgradeable/access/OwnableUpgradeable.sol\":2563:2578  return $._owner */\n      swap2\n      pop\n      pop\n        /* \"@openzeppelin/contracts-upgradeable/access/OwnableUpgradeable.sol\":2441:2585  function owner() public view virtual returns (address) {... */\n      swap1\n      jump\t// out\n        /* \"@openzeppelin/contracts-upgradeable/access/AccessControlUpgradeable.sol\":3732:3939  function hasRole(bytes32 role, address account) public view virtual returns (bool) {... */\n    tag_67:\n        /* \"@openzeppelin/contracts-upgradeable/access/AccessControlUpgradeable.sol\":3809:3813  bool */\n      0x00\n        /* \"@openzeppelin/contracts-upgradeable/access/AccessControlUpgradeable.sol\":3825:3855  AccessControlStorage storage $ */\n      dup1\n        /* \"@openzeppelin/contracts-upgradeable/access/AccessControlUpgradeable.sol\":3858:3884  _getAccessControlStorage() */\n      tag_144\n        /* \"@openzeppelin/contracts-upgradeable/access/AccessControlUpgradeable.sol\":3858:3882  _getAccessControlStorage */\n      tag_115\n        /* \"@openzeppelin/contracts-upgradeable/access/AccessControlUpgradeable.sol\":3858:3884  _getAccessControlStorage() */\n      jump\t// in\n    tag_144:\n        /* \"@openzeppelin/contracts-upgradeable/access/AccessControlUpgradeable.sol\":3825:3884  AccessControlStorage storage $ = _getAccessControlStorage() */\n      swap1\n      pop\n        /* \"@openzeppelin/contracts-upgradeable/access/AccessControlUpgradeable.sol\":3901:3902  $ */\n      dup1\n        /* \"@openzeppelin/contracts-upgradeable/access/AccessControlUpgradeable.sol\":3901:3909  $._roles */\n      0x00\n      add\n        /* \"@openzeppelin/contracts-upgradeable/access/AccessControlUpgradeable.sol\":3901:3915  $._roles[role] */\n      0x00\n        /* \"@openzeppelin/contracts-upgradeable/access/AccessControlUpgradeable.sol\":3910:3914  role */\n      dup6\n        /* \"@openzeppelin/contracts-upgradeable/access/AccessControlUpgradeable.sol\":3901:3915  $._roles[role] */\n      dup2\n      mstore\n      0x20\n      add\n      swap1\n      dup2\n      mstore\n      0x20\n      add\n      0x00\n      keccak256\n        /* \"@openzeppelin/contracts-upgradeable/access/AccessControlUpgradeable.sol\":3901:3923  $._roles[role].hasRole */\n      0x00\n      add\n        /* \"@openzeppelin/contracts-upgradeable/access/AccessControlUpgradeable.sol\":3901:3932  $._roles[role].hasRole[account] */\n      0x00\n        /* \"@openzeppelin/contracts-upgradeable/access/AccessControlUpgradeable.sol\":3924:3931  account */\n      dup5\n        /* \"@openzeppelin/contracts-upgradeable/access/AccessControlUpgradeable.sol\":3901:3932  $._roles[role].hasRole[account] */\n      0xffffffffffffffffffffffffffffffffffffffff\n      and\n      0xffffffffffffffffffffffffffffffffffffffff\n      and\n      dup2\n      mstore\n      0x20\n      add\n      swap1\n      dup2\n      mstore\n      0x20\n      add\n      0x00\n      keccak256\n      0x00\n      swap1\n      sload\n      swap1\n      0x0100\n      exp\n      swap1\n      div\n      0xff\n      and\n        /* \"@openzeppelin/contracts-upgradeable/access/AccessControlUpgradeable.sol\":3894:3932  return $._roles[role].hasRole[account] */\n      swap2\n      pop\n      pop\n        /* \"@openzeppelin/contracts-upgradeable/access/AccessControlUpgradeable.sol\":3732:3939  function hasRole(bytes32 role, address account) public view virtual returns (bool) {... */\n      swap3\n      swap2\n      pop\n      pop\n      jump\t// out\n        /* \"@openzeppelin/contracts-upgradeable/access/AccessControlUpgradeable.sol\":2317:2366  bytes32 public constant DEFAULT_ADMIN_ROLE = 0x00 */\n    tag_70:\n        /* \"@openzeppelin/contracts-upgradeable/access/AccessControlUpgradeable.sol\":2362:2366  0x00 */\n      0x00\n        /* \"@openzeppelin/contracts-upgradeable/access/AccessControlUpgradeable.sol\":2317:2366  bytes32 public constant DEFAULT_ADMIN_ROLE = 0x00 */\n      dup1\n      shl\n      dup2\n      jump\t// out\n        /* \"contracts/scorer.sol\":2348:3265  function removeScoreType(string memory scoreType)... */\n    tag_75:\n        /* \"@openzeppelin/contracts-upgradeable/access/OwnableUpgradeable.sol\":2334:2347  _checkOwner() */\n      tag_146\n        /* \"@openzeppelin/contracts-upgradeable/access/OwnableUpgradeable.sol\":2334:2345  _checkOwner */\n      tag_110\n        /* \"@openzeppelin/contracts-upgradeable/access/OwnableUpgradeable.sol\":2334:2347  _checkOwner() */\n      jump\t// in\n    tag_146:\n        /* \"contracts/scorer.sol\":2452:2467  scoreTypeExists */\n      0x02\n        /* \"contracts/scorer.sol\":2468:2477  scoreType */\n      dup2\n        /* \"contracts/scorer.sol\":2452:2478  scoreTypeExists[scoreType] */\n      mload(0x40)\n      tag_148\n      swap2\n      swap1\n      tag_149\n      jump\t// in\n    tag_148:\n      swap1\n      dup2\n      mstore\n      0x20\n      add\n      mload(0x40)\n      dup1\n      swap2\n      sub\n      swap1\n      keccak256\n      0x00\n      swap1\n      sload\n      swap1\n      0x0100\n      exp\n      swap1\n      div\n      0xff\n      and\n        /* \"contracts/scorer.sol\":2447:2540  if (!scoreTypeExists[scoreType]) {... */\n      tag_150\n      jumpi\n        /* \"contracts/scorer.sol\":2519:2528  scoreType */\n      dup1\n        /* \"contracts/scorer.sol\":2501:2529  ScoreTypeNotFound(scoreType) */\n      mload(0x40)\n      0x7becad5200000000000000000000000000000000000000000000000000000000\n      dup2\n      mstore\n      0x04\n      add\n      tag_151\n      swap2\n      swap1\n      tag_91\n      jump\t// in\n    tag_151:\n      mload(0x40)\n      dup1\n      swap2\n      sub\n      swap1\n      revert\n        /* \"contracts/scorer.sol\":2447:2540  if (!scoreTypeExists[scoreType]) {... */\n    tag_150:\n        /* \"contracts/scorer.sol\":2629:2634  false */\n      0x00\n        /* \"contracts/scorer.sol\":2600:2615  scoreTypeExists */\n      0x02\n        /* \"contracts/scorer.sol\":2616:2625  scoreType */\n      dup3\n        /* \"contracts/scorer.sol\":2600:2626  scoreTypeExists[scoreType] */\n      mload(0x40)\n      tag_152\n      swap2\n      swap1\n      tag_149\n      jump\t// in\n    tag_152:\n      swap1\n      dup2\n      mstore\n      0x20\n      add\n      mload(0x40)\n      dup1\n      swap2\n      sub\n      swap1\n      keccak256\n      0x00\n        /* \"contracts/scorer.sol\":2600:2634  scoreTypeExists[scoreType] = false */\n      0x0100\n      exp\n      dup2\n      sload\n      dup2\n      0xff\n      mul\n      not\n      and\n      swap1\n      dup4\n      iszero\n      iszero\n      mul\n      or\n      swap1\n      sstore\n      pop\n        /* \"contracts/scorer.sol\":2720:2731  uint256 len */\n      0x00\n        /* \"contracts/scorer.sol\":2734:2744  scoreTypes */\n      0x01\n        /* \"contracts/scorer.sol\":2734:2751  scoreTypes.length */\n      dup1\n      sload\n      swap1\n      pop\n        /* \"contracts/scorer.sol\":2720:2751  uint256 len = scoreTypes.length */\n      swap1\n      pop\n        /* \"contracts/scorer.sol\":2766:2775  uint256 i */\n      0x00\n        /* \"contracts/scorer.sol\":2761:3109  for (uint256 i = 0; i < len; i++) {... */\n    tag_153:\n        /* \"contracts/scorer.sol\":2785:2788  len */\n      dup2\n        /* \"contracts/scorer.sol\":2781:2782  i */\n      dup2\n        /* \"contracts/scorer.sol\":2781:2788  i < len */\n      lt\n        /* \"contracts/scorer.sol\":2761:3109  for (uint256 i = 0; i < len; i++) {... */\n      iszero\n      tag_154\n      jumpi\n        /* \"contracts/scorer.sol\":2897:2906  scoreType */\n      dup3\n        /* \"contracts/scorer.sol\":2881:2908  keccak256(bytes(scoreType)) */\n      dup1\n      mload\n      swap1\n      0x20\n      add\n      keccak256\n        /* \"contracts/scorer.sol\":2846:2856  scoreTypes */\n      0x01\n        /* \"contracts/scorer.sol\":2857:2858  i */\n      dup3\n        /* \"contracts/scorer.sol\":2846:2859  scoreTypes[i] */\n      dup2\n      sload\n      dup2\n      lt\n      tag_156\n      jumpi\n      tag_157\n      tag_158\n      jump\t// in\n    tag_157:\n    tag_156:\n      swap1\n      0x00\n      mstore\n      keccak256(0x00, 0x20)\n      add\n        /* \"contracts/scorer.sol\":2830:2861  keccak256(bytes(scoreTypes[i])) */\n      mload(0x40)\n      tag_160\n      swap2\n      swap1\n      tag_161\n      jump\t// in\n    tag_160:\n      mload(0x40)\n      dup1\n      swap2\n      sub\n      swap1\n      keccak256\n        /* \"contracts/scorer.sol\":2830:2908  keccak256(bytes(scoreTypes[i])) ==... */\n      sub\n        /* \"contracts/scorer.sol\":2809:3099  if (... */\n      tag_162\n      jumpi\n        /* \"contracts/scorer.sol\":2957:2967  scoreTypes */\n      0x01\n        /* \"contracts/scorer.sol\":2974:2975  1 */\n      dup1\n        /* \"contracts/scorer.sol\":2968:2971  len */\n      dup4\n        /* \"contracts/scorer.sol\":2968:2975  len - 1 */\n      tag_163\n      swap2\n      swap1\n      tag_164\n      jump\t// in\n    tag_163:\n        /* \"contracts/scorer.sol\":2957:2976  scoreTypes[len - 1] */\n      dup2\n      sload\n      dup2\n      lt\n      tag_165\n      jumpi\n      tag_166\n      tag_158\n      jump\t// in\n    tag_166:\n    tag_165:\n      swap1\n      0x00\n      mstore\n      keccak256(0x00, 0x20)\n      add\n        /* \"contracts/scorer.sol\":2941:2951  scoreTypes */\n      0x01\n        /* \"contracts/scorer.sol\":2952:2953  i */\n      dup3\n        /* \"contracts/scorer.sol\":2941:2954  scoreTypes[i] */\n      dup2\n      sload\n      dup2\n      lt\n      tag_168\n      jumpi\n      tag_169\n      tag_158\n      jump\t// in\n    tag_169:\n    tag_168:\n      swap1\n      0x00\n      mstore\n      keccak256(0x00, 0x20)\n      add\n        /* \"contracts/scorer.sol\":2941:2976  scoreTypes[i] = scoreTypes[len - 1] */\n      swap1\n      dup2\n      tag_171\n      swap2\n      swap1\n      tag_172\n      jump\t// in\n    tag_171:\n      pop\n        /* \"contracts/scorer.sol\":2994:3004  scoreTypes */\n      0x01\n        /* \"contracts/scorer.sol\":2994:3010  scoreTypes.pop() */\n      dup1\n      sload\n      dup1\n      tag_173\n      jumpi\n      tag_174\n      tag_175\n      jump\t// in\n    tag_174:\n    tag_173:\n      0x01\n      swap1\n      sub\n      dup2\n      dup2\n      swap1\n      0x00\n      mstore\n      keccak256(0x00, 0x20)\n      add\n      0x00\n      tag_177\n      swap2\n      swap1\n      tag_178\n      jump\t// in\n    tag_177:\n      swap1\n      sstore\n        /* \"contracts/scorer.sol\":3033:3060  ScoreTypeRemoved(scoreType) */\n      0xf7c23b97fb023c192527b3f7ec572bfd326a7850df95d8d979233d2c85c12958\n        /* \"contracts/scorer.sol\":3050:3059  scoreType */\n      dup4\n        /* \"contracts/scorer.sol\":3033:3060  ScoreTypeRemoved(scoreType) */\n      mload(0x40)\n      tag_179\n      swap2\n      swap1\n      tag_91\n      jump\t// in\n    tag_179:\n      mload(0x40)\n      dup1\n      swap2\n      sub\n      swap1\n      log1\n        /* \"contracts/scorer.sol\":3078:3085  return; */\n      pop\n      pop\n      jump(tag_147)\n        /* \"contracts/scorer.sol\":2809:3099  if (... */\n    tag_162:\n        /* \"contracts/scorer.sol\":2790:2793  i++ */\n      dup1\n      dup1\n      0x01\n      add\n      swap2\n      pop\n      pop\n        /* \"contracts/scorer.sol\":2761:3109  for (uint256 i = 0; i < len; i++) {... */\n      jump(tag_153)\n    tag_154:\n      pop\n        /* \"contracts/scorer.sol\":3248:3257  scoreType */\n      dup2\n        /* \"contracts/scorer.sol\":3230:3258  ScoreTypeNotFound(scoreType) */\n      mload(0x40)\n      0x7becad5200000000000000000000000000000000000000000000000000000000\n      dup2\n      mstore\n      0x04\n      add\n      tag_180\n      swap2\n      swap1\n      tag_91\n      jump\t// in\n    tag_180:\n      mload(0x40)\n      dup1\n      swap2\n      sub\n      swap1\n      revert\n        /* \"@openzeppelin/contracts-upgradeable/access/OwnableUpgradeable.sol\":2357:2358  _ */\n    tag_147:\n        /* \"contracts/scorer.sol\":2348:3265  function removeScoreType(string memory scoreType)... */\n      pop\n      jump\t// out\n        /* \"contracts/scorer.sol\":1511:1724  function initialize(address owner) external initializer {... */\n    tag_78:\n        /* \"@openzeppelin/contracts-upgradeable/proxy/utils/Initializable.sol\":4158:4188  InitializableStorage storage $ */\n      0x00\n        /* \"@openzeppelin/contracts-upgradeable/proxy/utils/Initializable.sol\":4191:4217  _getInitializableStorage() */\n      tag_182\n        /* \"@openzeppelin/contracts-upgradeable/proxy/utils/Initializable.sol\":4191:4215  _getInitializableStorage */\n      tag_183\n        /* \"@openzeppelin/contracts-upgradeable/proxy/utils/Initializable.sol\":4191:4217  _getInitializableStorage() */\n      jump\t// in\n    tag_182:\n        /* \"@openzeppelin/contracts-upgradeable/proxy/utils/Initializable.sol\":4158:4217  InitializableStorage storage $ = _getInitializableStorage() */\n      swap1\n      pop\n        /* \"@openzeppelin/contracts-upgradeable/proxy/utils/Initializable.sol\":4279:4298  bool isTopLevelCall */\n      0x00\n        /* \"@openzeppelin/contracts-upgradeable/proxy/utils/Initializable.sol\":4302:4303  $ */\n      dup2\n        /* \"@openzeppelin/contracts-upgradeable/proxy/utils/Initializable.sol\":4302:4317  $._initializing */\n      0x00\n      add\n      0x08\n      swap1\n      sload\n      swap1\n      0x0100\n      exp\n      swap1\n      div\n      0xff\n      and\n        /* \"@openzeppelin/contracts-upgradeable/proxy/utils/Initializable.sol\":4301:4317  !$._initializing */\n      iszero\n        /* \"@openzeppelin/contracts-upgradeable/proxy/utils/Initializable.sol\":4279:4317  bool isTopLevelCall = !$._initializing */\n      swap1\n      pop\n        /* \"@openzeppelin/contracts-upgradeable/proxy/utils/Initializable.sol\":4327:4345  uint64 initialized */\n      0x00\n        /* \"@openzeppelin/contracts-upgradeable/proxy/utils/Initializable.sol\":4348:4349  $ */\n      dup3\n        /* \"@openzeppelin/contracts-upgradeable/proxy/utils/Initializable.sol\":4348:4362  $._initialized */\n      0x00\n      add\n      0x00\n      swap1\n      sload\n      swap1\n      0x0100\n      exp\n      swap1\n      div\n      0xffffffffffffffff\n      and\n        /* \"@openzeppelin/contracts-upgradeable/proxy/utils/Initializable.sol\":4327:4362  uint64 initialized = $._initialized */\n      swap1\n      pop\n        /* \"@openzeppelin/contracts-upgradeable/proxy/utils/Initializable.sol\":4706:4723  bool initialSetup */\n      0x00\n        /* \"@openzeppelin/contracts-upgradeable/proxy/utils/Initializable.sol\":4741:4742  0 */\n      dup1\n        /* \"@openzeppelin/contracts-upgradeable/proxy/utils/Initializable.sol\":4726:4737  initialized */\n      dup3\n        /* \"@openzeppelin/contracts-upgradeable/proxy/utils/Initializable.sol\":4726:4742  initialized == 0 */\n      0xffffffffffffffff\n      and\n      eq\n        /* \"@openzeppelin/contracts-upgradeable/proxy/utils/Initializable.sol\":4726:4760  initialized == 0 && isTopLevelCall */\n      dup1\n      iszero\n      tag_184\n      jumpi\n      pop\n        /* \"@openzeppelin/contracts-upgradeable/proxy/utils/Initializable.sol\":4746:4760  isTopLevelCall */\n      dup3\n        /* \"@openzeppelin/contracts-upgradeable/proxy/utils/Initializable.sol\":4726:4760  initialized == 0 && isTopLevelCall */\n    tag_184:\n        /* \"@openzeppelin/contracts-upgradeable/proxy/utils/Initializable.sol\":4706:4760  bool initialSetup = initialized == 0 && isTopLevelCall */\n      swap1\n      pop\n        /* \"@openzeppelin/contracts-upgradeable/proxy/utils/Initializable.sol\":4770:4787  bool construction */\n      0x00\n        /* \"@openzeppelin/contracts-upgradeable/proxy/utils/Initializable.sol\":4805:4806  1 */\n      0x01\n        /* \"@openzeppelin/contracts-upgradeable/proxy/utils/Initializable.sol\":4790:4801  initialized */\n      dup4\n        /* \"@openzeppelin/contracts-upgradeable/proxy/utils/Initializable.sol\":4790:4806  initialized == 1 */\n      0xffffffffffffffff\n      and\n      eq\n        /* \"@openzeppelin/contracts-upgradeable/proxy/utils/Initializable.sol\":4790:4840  initialized == 1 && address(this).code.length == 0 */\n      dup1\n      iszero\n      tag_185\n      jumpi\n      pop\n        /* \"@openzeppelin/contracts-upgradeable/proxy/utils/Initializable.sol\":4839:4840  0 */\n      0x00\n        /* \"@openzeppelin/contracts-upgradeable/proxy/utils/Initializable.sol\":4818:4822  this */\n      address\n        /* \"@openzeppelin/contracts-upgradeable/proxy/utils/Initializable.sol\":4810:4835  address(this).code.length */\n      0xffffffffffffffffffffffffffffffffffffffff\n      and\n      extcodesize\n        /* \"@openzeppelin/contracts-upgradeable/proxy/utils/Initializable.sol\":4810:4840  address(this).code.length == 0 */\n      eq\n        /* \"@openzeppelin/contracts-upgradeable/proxy/utils/Initializable.sol\":4790:4840  initialized == 1 && address(this).code.length == 0 */\n    tag_185:\n        /* \"@openzeppelin/contracts-upgradeable/proxy/utils/Initializable.sol\":4770:4840  bool construction = initialized == 1 && address(this).code.length == 0 */\n      swap1\n      pop\n        /* \"@openzeppelin/contracts-upgradeable/proxy/utils/Initializable.sol\":4856:4868  initialSetup */\n      dup2\n        /* \"@openzeppelin/contracts-upgradeable/proxy/utils/Initializable.sol\":4855:4868  !initialSetup */\n      iszero\n        /* \"@openzeppelin/contracts-upgradeable/proxy/utils/Initializable.sol\":4855:4885  !initialSetup && !construction */\n      dup1\n      iszero\n      tag_186\n      jumpi\n      pop\n        /* \"@openzeppelin/contracts-upgradeable/proxy/utils/Initializable.sol\":4873:4885  construction */\n      dup1\n        /* \"@openzeppelin/contracts-upgradeable/proxy/utils/Initializable.sol\":4872:4885  !construction */\n      iszero\n        /* \"@openzeppelin/contracts-upgradeable/proxy/utils/Initializable.sol\":4855:4885  !initialSetup && !construction */\n    tag_186:\n        /* \"@openzeppelin/contracts-upgradeable/proxy/utils/Initializable.sol\":4851:4942  if (!initialSetup && !construction) {... */\n      iszero\n      tag_187\n      jumpi\n        /* \"@openzeppelin/contracts-upgradeable/proxy/utils/Initializable.sol\":4908:4931  InvalidInitialization() */\n      mload(0x40)\n      0xf92ee8a900000000000000000000000000000000000000000000000000000000\n      dup2\n      mstore\n      0x04\n      add\n      mload(0x40)\n      dup1\n      swap2\n      sub\n      swap1\n      revert\n        /* \"@openzeppelin/contracts-upgradeable/proxy/utils/Initializable.sol\":4851:4942  if (!initialSetup && !construction) {... */\n    tag_187:\n        /* \"@openzeppelin/contracts-upgradeable/proxy/utils/Initializable.sol\":4968:4969  1 */\n      0x01\n        /* \"@openzeppelin/contracts-upgradeable/proxy/utils/Initializable.sol\":4951:4952  $ */\n      dup6\n        /* \"@openzeppelin/contracts-upgradeable/proxy/utils/Initializable.sol\":4951:4965  $._initialized */\n      0x00\n      add\n      0x00\n        /* \"@openzeppelin/contracts-upgradeable/proxy/utils/Initializable.sol\":4951:4969  $._initialized = 1 */\n      0x0100\n      exp\n      dup2\n      sload\n      dup2\n      0xffffffffffffffff\n      mul\n      not\n      and\n      swap1\n      dup4\n      0xffffffffffffffff\n      and\n      mul\n      or\n      swap1\n      sstore\n      pop\n        /* \"@openzeppelin/contracts-upgradeable/proxy/utils/Initializable.sol\":4983:4997  isTopLevelCall */\n      dup4\n        /* \"@openzeppelin/contracts-upgradeable/proxy/utils/Initializable.sol\":4979:5046  if (isTopLevelCall) {... */\n      iszero\n      tag_188\n      jumpi\n        /* \"@openzeppelin/contracts-upgradeable/proxy/utils/Initializable.sol\":5031:5035  true */\n      0x01\n        /* \"@openzeppelin/contracts-upgradeable/proxy/utils/Initializable.sol\":5013:5014  $ */\n      dup6\n        /* \"@openzeppelin/contracts-upgradeable/proxy/utils/Initializable.sol\":5013:5028  $._initializing */\n      0x00\n      add\n      0x08\n        /* \"@openzeppelin/contracts-upgradeable/proxy/utils/Initializable.sol\":5013:5035  $._initializing = true */\n      0x0100\n      exp\n      dup2\n      sload\n      dup2\n      0xff\n      mul\n      not\n      and\n      swap1\n      dup4\n      iszero\n      iszero\n      mul\n      or\n      swap1\n      sstore\n      pop\n        /* \"@openzeppelin/contracts-upgradeable/proxy/utils/Initializable.sol\":4979:5046  if (isTopLevelCall) {... */\n    tag_188:\n        /* \"contracts/scorer.sol\":1577:1598  __Ownable_init(owner) */\n      tag_190\n        /* \"contracts/scorer.sol\":1592:1597  owner */\n      dup7\n        /* \"contracts/scorer.sol\":1577:1591  __Ownable_init */\n      tag_191\n        /* \"contracts/scorer.sol\":1577:1598  __Ownable_init(owner) */\n      jump\t// in\n    tag_190:\n        /* \"contracts/scorer.sol\":1608:1630  __AccessControl_init() */\n      tag_192\n        /* \"contracts/scorer.sol\":1608:1628  __AccessControl_init */\n      tag_193\n        /* \"contracts/scorer.sol\":1608:1630  __AccessControl_init() */\n      jump\t// in\n    tag_192:\n        /* \"contracts/scorer.sol\":1641:1678  _grantRole(DEFAULT_ADMIN_ROLE, owner) */\n      tag_194\n        /* \"@openzeppelin/contracts-upgradeable/access/AccessControlUpgradeable.sol\":2362:2366  0x00 */\n      0x00\n        /* \"contracts/scorer.sol\":1652:1670  DEFAULT_ADMIN_ROLE */\n      dup1\n      shl\n        /* \"contracts/scorer.sol\":1672:1677  owner */\n      dup8\n        /* \"contracts/scorer.sol\":1641:1651  _grantRole */\n      tag_124\n        /* \"contracts/scorer.sol\":1641:1678  _grantRole(DEFAULT_ADMIN_ROLE, owner) */\n      jump\t// in\n    tag_194:\n      pop\n        /* \"contracts/scorer.sol\":1688:1717  _grantRole(ADMIN_ROLE, owner) */\n      tag_195\n        /* \"contracts/scorer.sol\":478:501  keccak256(\"ADMIN_ROLE\") */\n      0xa49807205ce4d355092ef5a8a18f56e8913cf4a201fbe287825b095693c21775\n        /* \"contracts/scorer.sol\":1711:1716  owner */\n      dup8\n        /* \"contracts/scorer.sol\":1688:1698  _grantRole */\n      tag_124\n        /* \"contracts/scorer.sol\":1688:1717  _grantRole(ADMIN_ROLE, owner) */\n      jump\t// in\n    tag_195:\n      pop\n        /* \"@openzeppelin/contracts-upgradeable/proxy/utils/Initializable.sol\":5070:5084  isTopLevelCall */\n      dup4\n        /* \"@openzeppelin/contracts-upgradeable/proxy/utils/Initializable.sol\":5066:5167  if (isTopLevelCall) {... */\n      iszero\n      tag_196\n      jumpi\n        /* \"@openzeppelin/contracts-upgradeable/proxy/utils/Initializable.sol\":5118:5123  false */\n      0x00\n        /* \"@openzeppelin/contracts-upgradeable/proxy/utils/Initializable.sol\":5100:5101  $ */\n      dup6\n        /* \"@openzeppelin/contracts-upgradeable/proxy/utils/Initializable.sol\":5100:5115  $._initializing */\n      0x00\n      add\n      0x08\n        /* \"@openzeppelin/contracts-upgradeable/proxy/utils/Initializable.sol\":5100:5123  $._initializing = false */\n      0x0100\n      exp\n      dup2\n      sload\n      dup2\n      0xff\n      mul\n      not\n      and\n      swap1\n      dup4\n      iszero\n      iszero\n      mul\n      or\n      swap1\n      sstore\n      pop\n        /* \"@openzeppelin/contracts-upgradeable/proxy/utils/Initializable.sol\":5142:5156  Initialized(1) */\n      0xc7f505b2f371ae2175ee4913f4499e1f2633a7b5936321eed1cdaeb6115181d2\n        /* \"@openzeppelin/contracts-upgradeable/proxy/utils/Initializable.sol\":5154:5155  1 */\n      0x01\n        /* \"@openzeppelin/contracts-upgradeable/proxy/utils/Initializable.sol\":5142:5156  Initialized(1) */\n      mload(0x40)\n      tag_197\n      swap2\n      swap1\n      tag_198\n      jump\t// in\n    tag_197:\n      mload(0x40)\n      dup1\n      swap2\n      sub\n      swap1\n      log1\n        /* \"@openzeppelin/contracts-upgradeable/proxy/utils/Initializable.sol\":5066:5167  if (isTopLevelCall) {... */\n    tag_196:\n        /* \"@openzeppelin/contracts-upgradeable/proxy/utils/Initializable.sol\":4092:5173  {... */\n      pop\n      pop\n      pop\n      pop\n      pop\n        /* \"contracts/scorer.sol\":1511:1724  function initialize(address owner) external initializer {... */\n      pop\n      jump\t// out\n        /* \"contracts/scorer.sol\":3482:4066  function setScore(... */\n    tag_82:\n        /* \"contracts/scorer.sol\":478:501  keccak256(\"ADMIN_ROLE\") */\n      0xa49807205ce4d355092ef5a8a18f56e8913cf4a201fbe287825b095693c21775\n        /* \"@openzeppelin/contracts-upgradeable/access/AccessControlUpgradeable.sol\":3191:3207  _checkRole(role) */\n      tag_200\n        /* \"@openzeppelin/contracts-upgradeable/access/AccessControlUpgradeable.sol\":3202:3206  role */\n      dup2\n        /* \"@openzeppelin/contracts-upgradeable/access/AccessControlUpgradeable.sol\":3191:3201  _checkRole */\n      tag_121\n        /* \"@openzeppelin/contracts-upgradeable/access/AccessControlUpgradeable.sol\":3191:3207  _checkRole(role) */\n      jump\t// in\n    tag_200:\n        /* \"contracts/scorer.sol\":3652:3667  scoreTypeExists */\n      0x02\n        /* \"contracts/scorer.sol\":3668:3677  scoreType */\n      dup4\n        /* \"contracts/scorer.sol\":3652:3678  scoreTypeExists[scoreType] */\n      mload(0x40)\n      tag_202\n      swap2\n      swap1\n      tag_149\n      jump\t// in\n    tag_202:\n      swap1\n      dup2\n      mstore\n      0x20\n      add\n      mload(0x40)\n      dup1\n      swap2\n      sub\n      swap1\n      keccak256\n      0x00\n      swap1\n      sload\n      swap1\n      0x0100\n      exp\n      swap1\n      div\n      0xff\n      and\n        /* \"contracts/scorer.sol\":3647:3740  if (!scoreTypeExists[scoreType]) {... */\n      tag_203\n      jumpi\n        /* \"contracts/scorer.sol\":3719:3728  scoreType */\n      dup3\n        /* \"contracts/scorer.sol\":3701:3729  ScoreTypeNotFound(scoreType) */\n      mload(0x40)\n      0x7becad5200000000000000000000000000000000000000000000000000000000\n      dup2\n      mstore\n      0x04\n      add\n      tag_204\n      swap2\n      swap1\n      tag_91\n      jump\t// in\n    tag_204:\n      mload(0x40)\n      dup1\n      swap2\n      sub\n      swap1\n      revert\n        /* \"contracts/scorer.sol\":3647:3740  if (!scoreTypeExists[scoreType]) {... */\n    tag_203:\n        /* \"contracts/scorer.sol\":3906:3922  uint128 oldScore */\n      0x00\n        /* \"contracts/scorer.sol\":3925:3932  _scores */\n      dup1\n        /* \"contracts/scorer.sol\":3925:3938  _scores[user] */\n      0x00\n        /* \"contracts/scorer.sol\":3933:3937  user */\n      dup7\n        /* \"contracts/scorer.sol\":3925:3938  _scores[user] */\n      0xffffffffffffffffffffffffffffffffffffffff\n      and\n      0xffffffffffffffffffffffffffffffffffffffff\n      and\n      dup2\n      mstore\n      0x20\n      add\n      swap1\n      dup2\n      mstore\n      0x20\n      add\n      0x00\n      keccak256\n        /* \"contracts/scorer.sol\":3939:3948  scoreType */\n      dup5\n        /* \"contracts/scorer.sol\":3925:3949  _scores[user][scoreType] */\n      mload(0x40)\n      tag_205\n      swap2\n      swap1\n      tag_149\n      jump\t// in\n    tag_205:\n      swap1\n      dup2\n      mstore\n      0x20\n      add\n      mload(0x40)\n      dup1\n      swap2\n      sub\n      swap1\n      keccak256\n      0x00\n      swap1\n      sload\n      swap1\n      0x0100\n      exp\n      swap1\n      div\n      0xffffffffffffffffffffffffffffffff\n      and\n        /* \"contracts/scorer.sol\":3906:3949  uint128 oldScore = _scores[user][scoreType] */\n      swap1\n      pop\n        /* \"contracts/scorer.sol\":3986:3994  newScore */\n      dup3\n        /* \"contracts/scorer.sol\":3959:3966  _scores */\n      0x00\n        /* \"contracts/scorer.sol\":3959:3972  _scores[user] */\n      dup1\n        /* \"contracts/scorer.sol\":3967:3971  user */\n      dup8\n        /* \"contracts/scorer.sol\":3959:3972  _scores[user] */\n      0xffffffffffffffffffffffffffffffffffffffff\n      and\n      0xffffffffffffffffffffffffffffffffffffffff\n      and\n      dup2\n      mstore\n      0x20\n      add\n      swap1\n      dup2\n      mstore\n      0x20\n      add\n      0x00\n      keccak256\n        /* \"contracts/scorer.sol\":3973:3982  scoreType */\n      dup6\n        /* \"contracts/scorer.sol\":3959:3983  _scores[user][scoreType] */\n      mload(0x40)\n      tag_206\n      swap2\n      swap1\n      tag_149\n      jump\t// in\n    tag_206:\n      swap1\n      dup2\n      mstore\n      0x20\n      add\n      mload(0x40)\n      dup1\n      swap2\n      sub\n      swap1\n      keccak256\n      0x00\n        /* \"contracts/scorer.sol\":3959:3994  _scores[user][scoreType] = newScore */\n      0x0100\n      exp\n      dup2\n      sload\n      dup2\n      0xffffffffffffffffffffffffffffffff\n      mul\n      not\n      and\n      swap1\n      dup4\n      0xffffffffffffffffffffffffffffffff\n      and\n      mul\n      or\n      swap1\n      sstore\n      pop\n        /* \"contracts/scorer.sol\":4023:4027  user */\n      dup5\n        /* \"contracts/scorer.sol\":4010:4059  ScoreUpdated(user, scoreType, newScore, oldScore) */\n      0xffffffffffffffffffffffffffffffffffffffff\n      and\n      0x96e76e471be932dcf10dfb1789068c3c023ca316d8eca3da1a0e8ab2f97799f6\n        /* \"contracts/scorer.sol\":4029:4038  scoreType */\n      dup6\n        /* \"contracts/scorer.sol\":4040:4048  newScore */\n      dup6\n        /* \"contracts/scorer.sol\":4050:4058  oldScore */\n      dup5\n        /* \"contracts/scorer.sol\":4010:4059  ScoreUpdated(user, scoreType, newScore, oldScore) */\n      mload(0x40)\n      tag_207\n      swap4\n      swap3\n      swap2\n      swap1\n      tag_208\n      jump\t// in\n    tag_207:\n      mload(0x40)\n      dup1\n      swap2\n      sub\n      swap1\n      log2\n        /* \"contracts/scorer.sol\":3637:4066  {... */\n      pop\n        /* \"contracts/scorer.sol\":3482:4066  function setScore(... */\n      pop\n      pop\n      pop\n      pop\n      jump\t// out\n        /* \"contracts/scorer.sol\":1873:2188  function addScoreType(string memory scoreType)... */\n    tag_85:\n        /* \"@openzeppelin/contracts-upgradeable/access/OwnableUpgradeable.sol\":2334:2347  _checkOwner() */\n      tag_210\n        /* \"@openzeppelin/contracts-upgradeable/access/OwnableUpgradeable.sol\":2334:2345  _checkOwner */\n      tag_110\n        /* \"@openzeppelin/contracts-upgradeable/access/OwnableUpgradeable.sol\":2334:2347  _checkOwner() */\n      jump\t// in\n    tag_210:\n        /* \"contracts/scorer.sol\":1973:1988  scoreTypeExists */\n      0x02\n        /* \"contracts/scorer.sol\":1989:1998  scoreType */\n      dup2\n        /* \"contracts/scorer.sol\":1973:1999  scoreTypeExists[scoreType] */\n      mload(0x40)\n      tag_212\n      swap2\n      swap1\n      tag_149\n      jump\t// in\n    tag_212:\n      swap1\n      dup2\n      mstore\n      0x20\n      add\n      mload(0x40)\n      dup1\n      swap2\n      sub\n      swap1\n      keccak256\n      0x00\n      swap1\n      sload\n      swap1\n      0x0100\n      exp\n      swap1\n      div\n      0xff\n      and\n        /* \"contracts/scorer.sol\":1969:2062  if (scoreTypeExists[scoreType]) {... */\n      iszero\n      tag_213\n      jumpi\n        /* \"contracts/scorer.sol\":2041:2050  scoreType */\n      dup1\n        /* \"contracts/scorer.sol\":2022:2051  DuplicateScoreType(scoreType) */\n      mload(0x40)\n      0x69fee1e600000000000000000000000000000000000000000000000000000000\n      dup2\n      mstore\n      0x04\n      add\n      tag_214\n      swap2\n      swap1\n      tag_91\n      jump\t// in\n    tag_214:\n      mload(0x40)\n      dup1\n      swap2\n      sub\n      swap1\n      revert\n        /* \"contracts/scorer.sol\":1969:2062  if (scoreTypeExists[scoreType]) {... */\n    tag_213:\n        /* \"contracts/scorer.sol\":2071:2081  scoreTypes */\n      0x01\n        /* \"contracts/scorer.sol\":2087:2096  scoreType */\n      dup2\n        /* \"contracts/scorer.sol\":2071:2097  scoreTypes.push(scoreType) */\n      swap1\n      dup1\n      0x01\n      dup2\n      sload\n      add\n      dup1\n      dup3\n      sstore\n      dup1\n      swap2\n      pop\n      pop\n      0x01\n      swap1\n      sub\n      swap1\n      0x00\n      mstore\n      keccak256(0x00, 0x20)\n      add\n      0x00\n      swap1\n      swap2\n      swap1\n      swap2\n      swap1\n      swap2\n      pop\n      swap1\n      dup2\n      tag_216\n      swap2\n      swap1\n      tag_217\n      jump\t// in\n    tag_216:\n      pop\n        /* \"contracts/scorer.sol\":2136:2140  true */\n      0x01\n        /* \"contracts/scorer.sol\":2107:2122  scoreTypeExists */\n      0x02\n        /* \"contracts/scorer.sol\":2123:2132  scoreType */\n      dup3\n        /* \"contracts/scorer.sol\":2107:2133  scoreTypeExists[scoreType] */\n      mload(0x40)\n      tag_218\n      swap2\n      swap1\n      tag_149\n      jump\t// in\n    tag_218:\n      swap1\n      dup2\n      mstore\n      0x20\n      add\n      mload(0x40)\n      dup1\n      swap2\n      sub\n      swap1\n      keccak256\n      0x00\n        /* \"contracts/scorer.sol\":2107:2140  scoreTypeExists[scoreType] = true */\n      0x0100\n      exp\n      dup2\n      sload\n      dup2\n      0xff\n      mul\n      not\n      and\n      swap1\n      dup4\n      iszero\n      iszero\n      mul\n      or\n      swap1\n      sstore\n      pop\n        /* \"contracts/scorer.sol\":2156:2181  ScoreTypeAdded(scoreType) */\n      0xa72133137aa3e3b5619506c1c0113005b6db9e05730aabc696a1686379a24c04\n        /* \"contracts/scorer.sol\":2171:2180  scoreType */\n      dup2\n        /* \"contracts/scorer.sol\":2156:2181  ScoreTypeAdded(scoreType) */\n      mload(0x40)\n      tag_219\n      swap2\n      swap1\n      tag_91\n      jump\t// in\n    tag_219:\n      mload(0x40)\n      dup1\n      swap2\n      sub\n      swap1\n      log1\n        /* \"contracts/scorer.sol\":1873:2188  function addScoreType(string memory scoreType)... */\n      pop\n      jump\t// out\n        /* \"contracts/scorer.sol\":690:716  string[] public scoreTypes */\n    tag_89:\n      0x01\n      dup2\n      dup2\n      sload\n      dup2\n      lt\n      tag_220\n      jumpi\n      0x00\n      dup1\n      revert\n    tag_220:\n      swap1\n      0x00\n      mstore\n      keccak256(0x00, 0x20)\n      add\n      0x00\n      swap2\n      pop\n      swap1\n      pop\n      dup1\n      sload\n      tag_222\n      swap1\n      tag_223\n      jump\t// in\n    tag_222:\n      dup1\n      0x1f\n      add\n      0x20\n      dup1\n      swap2\n      div\n      mul\n      0x20\n      add\n      mload(0x40)\n      swap1\n      dup2\n      add\n      0x40\n      mstore\n      dup1\n      swap3\n      swap2\n      swap1\n      dup2\n      dup2\n      mstore\n      0x20\n      add\n      dup3\n      dup1\n      sload\n      tag_224\n      swap1\n      tag_223\n      jump\t// in\n    tag_224:\n      dup1\n      iszero\n      tag_225\n      jumpi\n      dup1\n      0x1f\n      lt\n      tag_226\n      jumpi\n      0x0100\n      dup1\n      dup4\n      sload\n      div\n      mul\n      dup4\n      mstore\n      swap2\n      0x20\n      add\n      swap2\n      jump(tag_225)\n    tag_226:\n      dup3\n      add\n      swap2\n      swap1\n      0x00\n      mstore\n      keccak256(0x00, 0x20)\n      swap1\n    tag_227:\n      dup2\n      sload\n      dup2\n      mstore\n      swap1\n      0x01\n      add\n      swap1\n      0x20\n      add\n      dup1\n      dup4\n      gt\n      tag_227\n      jumpi\n      dup3\n      swap1\n      sub\n      0x1f\n      and\n      dup3\n      add\n      swap2\n    tag_225:\n      pop\n      pop\n      pop\n      pop\n      pop\n      dup2\n      jump\t// out\n        /* \"@openzeppelin/contracts-upgradeable/access/AccessControlUpgradeable.sol\":5662:5800  function revokeRole(bytes32 role, address account) public virtual onlyRole(getRoleAdmin(role)) {... */\n    tag_94:\n        /* \"@openzeppelin/contracts-upgradeable/access/AccessControlUpgradeable.sol\":5737:5755  getRoleAdmin(role) */\n      tag_228\n        /* \"@openzeppelin/contracts-upgradeable/access/AccessControlUpgradeable.sol\":5750:5754  role */\n      dup3\n        /* \"@openzeppelin/contracts-upgradeable/access/AccessControlUpgradeable.sol\":5737:5749  getRoleAdmin */\n      tag_39\n        /* \"@openzeppelin/contracts-upgradeable/access/AccessControlUpgradeable.sol\":5737:5755  getRoleAdmin(role) */\n      jump\t// in\n    tag_228:\n        /* \"@openzeppelin/contracts-upgradeable/access/AccessControlUpgradeable.sol\":3191:3207  _checkRole(role) */\n      tag_230\n        /* \"@openzeppelin/contracts-upgradeable/access/AccessControlUpgradeable.sol\":3202:3206  role */\n      dup2\n        /* \"@openzeppelin/contracts-upgradeable/access/AccessControlUpgradeable.sol\":3191:3201  _checkRole */\n      tag_121\n        /* \"@openzeppelin/contracts-upgradeable/access/AccessControlUpgradeable.sol\":3191:3207  _checkRole(role) */\n      jump\t// in\n    tag_230:\n        /* \"@openzeppelin/contracts-upgradeable/access/AccessControlUpgradeable.sol\":5767:5793  _revokeRole(role, account) */\n      tag_232\n        /* \"@openzeppelin/contracts-upgradeable/access/AccessControlUpgradeable.sol\":5779:5783  role */\n      dup4\n        /* \"@openzeppelin/contracts-upgradeable/access/AccessControlUpgradeable.sol\":5785:5792  account */\n      dup4\n        /* \"@openzeppelin/contracts-upgradeable/access/AccessControlUpgradeable.sol\":5767:5778  _revokeRole */\n      tag_130\n        /* \"@openzeppelin/contracts-upgradeable/access/AccessControlUpgradeable.sol\":5767:5793  _revokeRole(role, account) */\n      jump\t// in\n    tag_232:\n      pop\n        /* \"@openzeppelin/contracts-upgradeable/access/AccessControlUpgradeable.sol\":5662:5800  function revokeRole(bytes32 role, address account) public virtual onlyRole(getRoleAdmin(role)) {... */\n      pop\n      pop\n      pop\n      jump\t// out\n        /* \"contracts/scorer.sol\":4293:4455  function score(address user, string memory scoreType)... */\n    tag_98:\n        /* \"contracts/scorer.sol\":4394:4401  uint128 */\n      0x00\n        /* \"contracts/scorer.sol\":4424:4431  _scores */\n      dup1\n        /* \"contracts/scorer.sol\":4424:4437  _scores[user] */\n      0x00\n        /* \"contracts/scorer.sol\":4432:4436  user */\n      dup5\n        /* \"contracts/scorer.sol\":4424:4437  _scores[user] */\n      0xffffffffffffffffffffffffffffffffffffffff\n      and\n      0xffffffffffffffffffffffffffffffffffffffff\n      and\n      dup2\n      mstore\n      0x20\n      add\n      swap1\n      dup2\n      mstore\n      0x20\n      add\n      0x00\n      keccak256\n        /* \"contracts/scorer.sol\":4438:4447  scoreType */\n      dup3\n        /* \"contracts/scorer.sol\":4424:4448  _scores[user][scoreType] */\n      mload(0x40)\n      tag_234\n      swap2\n      swap1\n      tag_149\n      jump\t// in\n    tag_234:\n      swap1\n      dup2\n      mstore\n      0x20\n      add\n      mload(0x40)\n      dup1\n      swap2\n      sub\n      swap1\n      keccak256\n      0x00\n      swap1\n      sload\n      swap1\n      0x0100\n      exp\n      swap1\n      div\n      0xffffffffffffffffffffffffffffffff\n      and\n        /* \"contracts/scorer.sol\":4417:4448  return _scores[user][scoreType] */\n      swap1\n      pop\n        /* \"contracts/scorer.sol\":4293:4455  function score(address user, string memory scoreType)... */\n      swap3\n      swap2\n      pop\n      pop\n      jump\t// out\n        /* \"@openzeppelin/contracts-upgradeable/access/OwnableUpgradeable.sol\":3405:3620  function transferOwnership(address newOwner) public virtual onlyOwner {... */\n    tag_103:\n        /* \"@openzeppelin/contracts-upgradeable/access/OwnableUpgradeable.sol\":2334:2347  _checkOwner() */\n      tag_236\n        /* \"@openzeppelin/contracts-upgradeable/access/OwnableUpgradeable.sol\":2334:2345  _checkOwner */\n      tag_110\n        /* \"@openzeppelin/contracts-upgradeable/access/OwnableUpgradeable.sol\":2334:2347  _checkOwner() */\n      jump\t// in\n    tag_236:\n        /* \"@openzeppelin/contracts-upgradeable/access/OwnableUpgradeable.sol\":3509:3510  0 */\n      0x00\n        /* \"@openzeppelin/contracts-upgradeable/access/OwnableUpgradeable.sol\":3489:3511  newOwner == address(0) */\n      0xffffffffffffffffffffffffffffffffffffffff\n      and\n        /* \"@openzeppelin/contracts-upgradeable/access/OwnableUpgradeable.sol\":3489:3497  newOwner */\n      dup2\n        /* \"@openzeppelin/contracts-upgradeable/access/OwnableUpgradeable.sol\":3489:3511  newOwner == address(0) */\n      0xffffffffffffffffffffffffffffffffffffffff\n      and\n      sub\n        /* \"@openzeppelin/contracts-upgradeable/access/OwnableUpgradeable.sol\":3485:3576  if (newOwner == address(0)) {... */\n      tag_238\n      jumpi\n        /* \"@openzeppelin/contracts-upgradeable/access/OwnableUpgradeable.sol\":3562:3563  0 */\n      0x00\n        /* \"@openzeppelin/contracts-upgradeable/access/OwnableUpgradeable.sol\":3534:3565  OwnableInvalidOwner(address(0)) */\n      mload(0x40)\n      0x1e4fbdf700000000000000000000000000000000000000000000000000000000\n      dup2\n      mstore\n      0x04\n      add\n      tag_239\n      swap2\n      swap1\n      tag_64\n      jump\t// in\n    tag_239:\n      mload(0x40)\n      dup1\n      swap2\n      sub\n      swap1\n      revert\n        /* \"@openzeppelin/contracts-upgradeable/access/OwnableUpgradeable.sol\":3485:3576  if (newOwner == address(0)) {... */\n    tag_238:\n        /* \"@openzeppelin/contracts-upgradeable/access/OwnableUpgradeable.sol\":3585:3613  _transferOwnership(newOwner) */\n      tag_240\n        /* \"@openzeppelin/contracts-upgradeable/access/OwnableUpgradeable.sol\":3604:3612  newOwner */\n      dup2\n        /* \"@openzeppelin/contracts-upgradeable/access/OwnableUpgradeable.sol\":3585:3603  _transferOwnership */\n      tag_139\n        /* \"@openzeppelin/contracts-upgradeable/access/OwnableUpgradeable.sol\":3585:3613  _transferOwnership(newOwner) */\n      jump\t// in\n    tag_240:\n        /* \"@openzeppelin/contracts-upgradeable/access/OwnableUpgradeable.sol\":3405:3620  function transferOwnership(address newOwner) public virtual onlyOwner {... */\n      pop\n      jump\t// out\n        /* \"@openzeppelin/contracts-upgradeable/utils/introspection/ERC165Upgradeable.sol\":1035:1181  function supportsInterface(bytes4 interfaceId) public view virtual returns (bool) {... */\n    tag_107:\n        /* \"@openzeppelin/contracts-upgradeable/utils/introspection/ERC165Upgradeable.sol\":1111:1115  bool */\n      0x00\n        /* \"@openzeppelin/contracts-upgradeable/utils/introspection/ERC165Upgradeable.sol\":1149:1174  type(IERC165).interfaceId */\n      0x01ffc9a700000000000000000000000000000000000000000000000000000000\n        /* \"@openzeppelin/contracts-upgradeable/utils/introspection/ERC165Upgradeable.sol\":1134:1174  interfaceId == type(IERC165).interfaceId */\n      not(0xffffffffffffffffffffffffffffffffffffffffffffffffffffffff)\n      and\n        /* \"@openzeppelin/contracts-upgradeable/utils/introspection/ERC165Upgradeable.sol\":1134:1145  interfaceId */\n      dup3\n        /* \"@openzeppelin/contracts-upgradeable/utils/introspection/ERC165Upgradeable.sol\":1134:1174  interfaceId == type(IERC165).interfaceId */\n      not(0xffffffffffffffffffffffffffffffffffffffffffffffffffffffff)\n      and\n      eq\n        /* \"@openzeppelin/contracts-upgradeable/utils/introspection/ERC165Upgradeable.sol\":1127:1174  return interfaceId == type(IERC165).interfaceId */\n      swap1\n      pop\n        /* \"@openzeppelin/contracts-upgradeable/utils/introspection/ERC165Upgradeable.sol\":1035:1181  function supportsInterface(bytes4 interfaceId) public view virtual returns (bool) {... */\n      swap2\n      swap1\n      pop\n      jump\t// out\n        /* \"@openzeppelin/contracts-upgradeable/access/OwnableUpgradeable.sol\":2658:2820  function _checkOwner() internal view virtual {... */\n    tag_110:\n        /* \"@openzeppelin/contracts-upgradeable/access/OwnableUpgradeable.sol\":2728:2740  _msgSender() */\n      tag_243\n        /* \"@openzeppelin/contracts-upgradeable/access/OwnableUpgradeable.sol\":2728:2738  _msgSender */\n      tag_127\n        /* \"@openzeppelin/contracts-upgradeable/access/OwnableUpgradeable.sol\":2728:2740  _msgSender() */\n      jump\t// in\n    tag_243:\n        /* \"@openzeppelin/contracts-upgradeable/access/OwnableUpgradeable.sol\":2717:2740  owner() != _msgSender() */\n      0xffffffffffffffffffffffffffffffffffffffff\n      and\n        /* \"@openzeppelin/contracts-upgradeable/access/OwnableUpgradeable.sol\":2717:2724  owner() */\n      tag_244\n        /* \"@openzeppelin/contracts-upgradeable/access/OwnableUpgradeable.sol\":2717:2722  owner */\n      tag_62\n        /* \"@openzeppelin/contracts-upgradeable/access/OwnableUpgradeable.sol\":2717:2724  owner() */\n      jump\t// in\n    tag_244:\n        /* \"@openzeppelin/contracts-upgradeable/access/OwnableUpgradeable.sol\":2717:2740  owner() != _msgSender() */\n      0xffffffffffffffffffffffffffffffffffffffff\n      and\n      eq\n        /* \"@openzeppelin/contracts-upgradeable/access/OwnableUpgradeable.sol\":2713:2814  if (owner() != _msgSender()) {... */\n      tag_245\n      jumpi\n        /* \"@openzeppelin/contracts-upgradeable/access/OwnableUpgradeable.sol\":2790:2802  _msgSender() */\n      tag_246\n        /* \"@openzeppelin/contracts-upgradeable/access/OwnableUpgradeable.sol\":2790:2800  _msgSender */\n      tag_127\n        /* \"@openzeppelin/contracts-upgradeable/access/OwnableUpgradeable.sol\":2790:2802  _msgSender() */\n      jump\t// in\n    tag_246:\n        /* \"@openzeppelin/contracts-upgradeable/access/OwnableUpgradeable.sol\":2763:2803  OwnableUnauthorizedAccount(_msgSender()) */\n      mload(0x40)\n      0x118cdaa700000000000000000000000000000000000000000000000000000000\n      dup2\n      mstore\n      0x04\n      add\n      tag_247\n      swap2\n      swap1\n      tag_64\n      jump\t// in\n    tag_247:\n      mload(0x40)\n      dup1\n      swap2\n      sub\n      swap1\n      revert\n        /* \"@openzeppelin/contracts-upgradeable/access/OwnableUpgradeable.sol\":2713:2814  if (owner() != _msgSender()) {... */\n    tag_245:\n        /* \"@openzeppelin/contracts-upgradeable/access/OwnableUpgradeable.sol\":2658:2820  function _checkOwner() internal view virtual {... */\n      jump\t// out\n        /* \"@openzeppelin/contracts-upgradeable/access/AccessControlUpgradeable.sol\":2787:2964  function _getAccessControlStorage() private pure returns (AccessControlStorage storage $) {... */\n    tag_115:\n        /* \"@openzeppelin/contracts-upgradeable/access/AccessControlUpgradeable.sol\":2845:2875  AccessControlStorage storage $ */\n      0x00\n        /* \"@openzeppelin/contracts-upgradeable/access/AccessControlUpgradeable.sol\":2920:2948  AccessControlStorageLocation */\n      0x02dd7bc7dec4dceedda775e58dd541e08a116c6c53815c0bd028192f7b626800\n        /* \"@openzeppelin/contracts-upgradeable/access/AccessControlUpgradeable.sol\":2910:2948  $.slot := AccessControlStorageLocation */\n      swap1\n      pop\n        /* \"@openzeppelin/contracts-upgradeable/access/AccessControlUpgradeable.sol\":2787:2964  function _getAccessControlStorage() private pure returns (AccessControlStorage storage $) {... */\n      swap1\n      jump\t// out\n        /* \"@openzeppelin/contracts-upgradeable/access/AccessControlUpgradeable.sol\":4148:4251  function _checkRole(bytes32 role) internal view virtual {... */\n    tag_121:\n        /* \"@openzeppelin/contracts-upgradeable/access/AccessControlUpgradeable.sol\":4214:4244  _checkRole(role, _msgSender()) */\n      tag_250\n        /* \"@openzeppelin/contracts-upgradeable/access/AccessControlUpgradeable.sol\":4225:4229  role */\n      dup2\n        /* \"@openzeppelin/contracts-upgradeable/access/AccessControlUpgradeable.sol\":4231:4243  _msgSender() */\n      tag_251\n        /* \"@openzeppelin/contracts-upgradeable/access/AccessControlUpgradeable.sol\":4231:4241  _msgSender */\n      tag_127\n        /* \"@openzeppelin/contracts-upgradeable/access/AccessControlUpgradeable.sol\":4231:4243  _msgSender() */\n      jump\t// in\n    tag_251:\n        /* \"@openzeppelin/contracts-upgradeable/access/AccessControlUpgradeable.sol\":4214:4224  _checkRole */\n      tag_252\n        /* \"@openzeppelin/contracts-upgradeable/access/AccessControlUpgradeable.sol\":4214:4244  _checkRole(role, _msgSender()) */\n      jump\t// in\n    tag_250:\n        /* \"@openzeppelin/contracts-upgradeable/access/AccessControlUpgradeable.sol\":4148:4251  function _checkRole(bytes32 role) internal view virtual {... */\n      pop\n      jump\t// out\n        /* \"@openzeppelin/contracts-upgradeable/access/AccessControlUpgradeable.sol\":7270:7657  function _grantRole(bytes32 role, address account) internal virtual returns (bool) {... */\n    tag_124:\n        /* \"@openzeppelin/contracts-upgradeable/access/AccessControlUpgradeable.sol\":7347:7351  bool */\n      0x00\n        /* \"@openzeppelin/contracts-upgradeable/access/AccessControlUpgradeable.sol\":7363:7393  AccessControlStorage storage $ */\n      dup1\n        /* \"@openzeppelin/contracts-upgradeable/access/AccessControlUpgradeable.sol\":7396:7422  _getAccessControlStorage() */\n      tag_254\n        /* \"@openzeppelin/contracts-upgradeable/access/AccessControlUpgradeable.sol\":7396:7420  _getAccessControlStorage */\n      tag_115\n        /* \"@openzeppelin/contracts-upgradeable/access/AccessControlUpgradeable.sol\":7396:7422  _getAccessControlStorage() */\n      jump\t// in\n    tag_254:\n        /* \"@openzeppelin/contracts-upgradeable/access/AccessControlUpgradeable.sol\":7363:7422  AccessControlStorage storage $ = _getAccessControlStorage() */\n      swap1\n      pop\n        /* \"@openzeppelin/contracts-upgradeable/access/AccessControlUpgradeable.sol\":7437:7459  hasRole(role, account) */\n      tag_255\n        /* \"@openzeppelin/contracts-upgradeable/access/AccessControlUpgradeable.sol\":7445:7449  role */\n      dup5\n        /* \"@openzeppelin/contracts-upgradeable/access/AccessControlUpgradeable.sol\":7451:7458  account */\n      dup5\n        /* \"@openzeppelin/contracts-upgradeable/access/AccessControlUpgradeable.sol\":7437:7444  hasRole */\n      tag_67\n        /* \"@openzeppelin/contracts-upgradeable/access/AccessControlUpgradeable.sol\":7437:7459  hasRole(role, account) */\n      jump\t// in\n    tag_255:\n        /* \"@openzeppelin/contracts-upgradeable/access/AccessControlUpgradeable.sol\":7432:7651  if (!hasRole(role, account)) {... */\n      tag_256\n      jumpi\n        /* \"@openzeppelin/contracts-upgradeable/access/AccessControlUpgradeable.sol\":7509:7513  true */\n      0x01\n        /* \"@openzeppelin/contracts-upgradeable/access/AccessControlUpgradeable.sol\":7475:7476  $ */\n      dup2\n        /* \"@openzeppelin/contracts-upgradeable/access/AccessControlUpgradeable.sol\":7475:7483  $._roles */\n      0x00\n      add\n        /* \"@openzeppelin/contracts-upgradeable/access/AccessControlUpgradeable.sol\":7475:7489  $._roles[role] */\n      0x00\n        /* \"@openzeppelin/contracts-upgradeable/access/AccessControlUpgradeable.sol\":7484:7488  role */\n      dup7\n        /* \"@openzeppelin/contracts-upgradeable/access/AccessControlUpgradeable.sol\":7475:7489  $._roles[role] */\n      dup2\n      mstore\n      0x20\n      add\n      swap1\n      dup2\n      mstore\n      0x20\n      add\n      0x00\n      keccak256\n        /* \"@openzeppelin/contracts-upgradeable/access/AccessControlUpgradeable.sol\":7475:7497  $._roles[role].hasRole */\n      0x00\n      add\n        /* \"@openzeppelin/contracts-upgradeable/access/AccessControlUpgradeable.sol\":7475:7506  $._roles[role].hasRole[account] */\n      0x00\n        /* \"@openzeppelin/contracts-upgradeable/access/AccessControlUpgradeable.sol\":7498:7505  account */\n      dup6\n        /* \"@openzeppelin/contracts-upgradeable/access/AccessControlUpgradeable.sol\":7475:7506  $._roles[role].hasRole[account] */\n      0xffffffffffffffffffffffffffffffffffffffff\n      and\n      0xffffffffffffffffffffffffffffffffffffffff\n      and\n      dup2\n      mstore\n      0x20\n      add\n      swap1\n      dup2\n      mstore\n      0x20\n      add\n      0x00\n      keccak256\n      0x00\n        /* \"@openzeppelin/contracts-upgradeable/access/AccessControlUpgradeable.sol\":7475:7513  $._roles[role].hasRole[account] = true */\n      0x0100\n      exp\n      dup2\n      sload\n      dup2\n      0xff\n      mul\n      not\n      and\n      swap1\n      dup4\n      iszero\n      iszero\n      mul\n      or\n      swap1\n      sstore\n      pop\n        /* \"@openzeppelin/contracts-upgradeable/access/AccessControlUpgradeable.sol\":7559:7571  _msgSender() */\n      tag_257\n        /* \"@openzeppelin/contracts-upgradeable/access/AccessControlUpgradeable.sol\":7559:7569  _msgSender */\n      tag_127\n        /* \"@openzeppelin/contracts-upgradeable/access/AccessControlUpgradeable.sol\":7559:7571  _msgSender() */\n      jump\t// in\n    tag_257:\n        /* \"@openzeppelin/contracts-upgradeable/access/AccessControlUpgradeable.sol\":7532:7572  RoleGranted(role, account, _msgSender()) */\n      0xffffffffffffffffffffffffffffffffffffffff\n      and\n        /* \"@openzeppelin/contracts-upgradeable/access/AccessControlUpgradeable.sol\":7550:7557  account */\n      dup4\n        /* \"@openzeppelin/contracts-upgradeable/access/AccessControlUpgradeable.sol\":7532:7572  RoleGranted(role, account, _msgSender()) */\n      0xffffffffffffffffffffffffffffffffffffffff\n      and\n        /* \"@openzeppelin/contracts-upgradeable/access/AccessControlUpgradeable.sol\":7544:7548  role */\n      dup6\n        /* \"@openzeppelin/contracts-upgradeable/access/AccessControlUpgradeable.sol\":7532:7572  RoleGranted(role, account, _msgSender()) */\n      0x2f8788117e7eff1d82e926ec794901d17c78024a50270940304540a733656f0d\n      mload(0x40)\n      mload(0x40)\n      dup1\n      swap2\n      sub\n      swap1\n      log4\n        /* \"@openzeppelin/contracts-upgradeable/access/AccessControlUpgradeable.sol\":7593:7597  true */\n      0x01\n        /* \"@openzeppelin/contracts-upgradeable/access/AccessControlUpgradeable.sol\":7586:7597  return true */\n      swap2\n      pop\n      pop\n      jump(tag_253)\n        /* \"@openzeppelin/contracts-upgradeable/access/AccessControlUpgradeable.sol\":7432:7651  if (!hasRole(role, account)) {... */\n    tag_256:\n        /* \"@openzeppelin/contracts-upgradeable/access/AccessControlUpgradeable.sol\":7635:7640  false */\n      0x00\n        /* \"@openzeppelin/contracts-upgradeable/access/AccessControlUpgradeable.sol\":7628:7640  return false */\n      swap2\n      pop\n      pop\n        /* \"@openzeppelin/contracts-upgradeable/access/AccessControlUpgradeable.sol\":7270:7657  function _grantRole(bytes32 role, address account) internal virtual returns (bool) {... */\n    tag_253:\n      swap3\n      swap2\n      pop\n      pop\n      jump\t// out\n        /* \"@openzeppelin/contracts-upgradeable/utils/ContextUpgradeable.sol\":887:983  function _msgSender() internal view virtual returns (address) {... */\n    tag_127:\n        /* \"@openzeppelin/contracts-upgradeable/utils/ContextUpgradeable.sol\":940:947  address */\n      0x00\n        /* \"@openzeppelin/contracts-upgradeable/utils/ContextUpgradeable.sol\":966:976  msg.sender */\n      caller\n        /* \"@openzeppelin/contracts-upgradeable/utils/ContextUpgradeable.sol\":959:976  return msg.sender */\n      swap1\n      pop\n        /* \"@openzeppelin/contracts-upgradeable/utils/ContextUpgradeable.sol\":887:983  function _msgSender() internal view virtual returns (address) {... */\n      swap1\n      jump\t// out\n        /* \"@openzeppelin/contracts-upgradeable/access/AccessControlUpgradeable.sol\":7892:8280  function _revokeRole(bytes32 role, address account) internal virtual returns (bool) {... */\n    tag_130:\n        /* \"@openzeppelin/contracts-upgradeable/access/AccessControlUpgradeable.sol\":7970:7974  bool */\n      0x00\n        /* \"@openzeppelin/contracts-upgradeable/access/AccessControlUpgradeable.sol\":7986:8016  AccessControlStorage storage $ */\n      dup1\n        /* \"@openzeppelin/contracts-upgradeable/access/AccessControlUpgradeable.sol\":8019:8045  _getAccessControlStorage() */\n      tag_261\n        /* \"@openzeppelin/contracts-upgradeable/access/AccessControlUpgradeable.sol\":8019:8043  _getAccessControlStorage */\n      tag_115\n        /* \"@openzeppelin/contracts-upgradeable/access/AccessControlUpgradeable.sol\":8019:8045  _getAccessControlStorage() */\n      jump\t// in\n    tag_261:\n        /* \"@openzeppelin/contracts-upgradeable/access/AccessControlUpgradeable.sol\":7986:8045  AccessControlStorage storage $ = _getAccessControlStorage() */\n      swap1\n      pop\n        /* \"@openzeppelin/contracts-upgradeable/access/AccessControlUpgradeable.sol\":8059:8081  hasRole(role, account) */\n      tag_262\n        /* \"@openzeppelin/contracts-upgradeable/access/AccessControlUpgradeable.sol\":8067:8071  role */\n      dup5\n        /* \"@openzeppelin/contracts-upgradeable/access/AccessControlUpgradeable.sol\":8073:8080  account */\n      dup5\n        /* \"@openzeppelin/contracts-upgradeable/access/AccessControlUpgradeable.sol\":8059:8066  hasRole */\n      tag_67\n        /* \"@openzeppelin/contracts-upgradeable/access/AccessControlUpgradeable.sol\":8059:8081  hasRole(role, account) */\n      jump\t// in\n    tag_262:\n        /* \"@openzeppelin/contracts-upgradeable/access/AccessControlUpgradeable.sol\":8055:8274  if (hasRole(role, account)) {... */\n      iszero\n      tag_263\n      jumpi\n        /* \"@openzeppelin/contracts-upgradeable/access/AccessControlUpgradeable.sol\":8131:8136  false */\n      0x00\n        /* \"@openzeppelin/contracts-upgradeable/access/AccessControlUpgradeable.sol\":8097:8098  $ */\n      dup2\n        /* \"@openzeppelin/contracts-upgradeable/access/AccessControlUpgradeable.sol\":8097:8105  $._roles */\n      0x00\n      add\n        /* \"@openzeppelin/contracts-upgradeable/access/AccessControlUpgradeable.sol\":8097:8111  $._roles[role] */\n      0x00\n        /* \"@openzeppelin/contracts-upgradeable/access/AccessControlUpgradeable.sol\":8106:8110  role */\n      dup7\n        /* \"@openzeppelin/contracts-upgradeable/access/AccessControlUpgradeable.sol\":8097:8111  $._roles[role] */\n      dup2\n      mstore\n      0x20\n      add\n      swap1\n      dup2\n      mstore\n      0x20\n      add\n      0x00\n      keccak256\n        /* \"@openzeppelin/contracts-upgradeable/access/AccessControlUpgradeable.sol\":8097:8119  $._roles[role].hasRole */\n      0x00\n      add\n        /* \"@openzeppelin/contracts-upgradeable/access/AccessControlUpgradeable.sol\":8097:8128  $._roles[role].hasRole[account] */\n      0x00\n        /* \"@openzeppelin/contracts-upgradeable/access/AccessControlUpgradeable.sol\":8120:8127  account */\n      dup6\n        /* \"@openzeppelin/contracts-upgradeable/access/AccessControlUpgradeable.sol\":8097:8128  $._roles[role].hasRole[account] */\n      0xffffffffffffffffffffffffffffffffffffffff\n      and\n      0xffffffffffffffffffffffffffffffffffffffff\n      and\n      dup2\n      mstore\n      0x20\n      add\n      swap1\n      dup2\n      mstore\n      0x20\n      add\n      0x00\n      keccak256\n      0x00\n        /* \"@openzeppelin/contracts-upgradeable/access/AccessControlUpgradeable.sol\":8097:8136  $._roles[role].hasRole[account] = false */\n      0x0100\n      exp\n      dup2\n      sload\n      dup2\n      0xff\n      mul\n      not\n      and\n      swap1\n      dup4\n      iszero\n      iszero\n      mul\n      or\n      swap1\n      sstore\n      pop\n        /* \"@openzeppelin/contracts-upgradeable/access/AccessControlUpgradeable.sol\":8182:8194  _msgSender() */\n      tag_264\n        /* \"@openzeppelin/contracts-upgradeable/access/AccessControlUpgradeable.sol\":8182:8192  _msgSender */\n      tag_127\n        /* \"@openzeppelin/contracts-upgradeable/access/AccessControlUpgradeable.sol\":8182:8194  _msgSender() */\n      jump\t// in\n    tag_264:\n        /* \"@openzeppelin/contracts-upgradeable/access/AccessControlUpgradeable.sol\":8155:8195  RoleRevoked(role, account, _msgSender()) */\n      0xffffffffffffffffffffffffffffffffffffffff\n      and\n        /* \"@openzeppelin/contracts-upgradeable/access/AccessControlUpgradeable.sol\":8173:8180  account */\n      dup4\n        /* \"@openzeppelin/contracts-upgradeable/access/AccessControlUpgradeable.sol\":8155:8195  RoleRevoked(role, account, _msgSender()) */\n      0xffffffffffffffffffffffffffffffffffffffff\n      and\n        /* \"@openzeppelin/contracts-upgradeable/access/AccessControlUpgradeable.sol\":8167:8171  role */\n      dup6\n        /* \"@openzeppelin/contracts-upgradeable/access/AccessControlUpgradeable.sol\":8155:8195  RoleRevoked(role, account, _msgSender()) */\n      0xf6391f5c32d9c69d2a47ea670b442974b53935d1edc7fd64eb21e047a839171b\n      mload(0x40)\n      mload(0x40)\n      dup1\n      swap2\n      sub\n      swap1\n      log4\n        /* \"@openzeppelin/contracts-upgradeable/access/AccessControlUpgradeable.sol\":8216:8220  true */\n      0x01\n        /* \"@openzeppelin/contracts-upgradeable/access/AccessControlUpgradeable.sol\":8209:8220  return true */\n      swap2\n      pop\n      pop\n      jump(tag_260)\n        /* \"@openzeppelin/contracts-upgradeable/access/AccessControlUpgradeable.sol\":8055:8274  if (hasRole(role, account)) {... */\n    tag_263:\n        /* \"@openzeppelin/contracts-upgradeable/access/AccessControlUpgradeable.sol\":8258:8263  false */\n      0x00\n        /* \"@openzeppelin/contracts-upgradeable/access/AccessControlUpgradeable.sol\":8251:8263  return false */\n      swap2\n      pop\n      pop\n        /* \"@openzeppelin/contracts-upgradeable/access/AccessControlUpgradeable.sol\":7892:8280  function _revokeRole(bytes32 role, address account) internal virtual returns (bool) {... */\n    tag_260:\n      swap3\n      swap2\n      pop\n      pop\n      jump\t// out\n        /* \"@openzeppelin/contracts-upgradeable/access/OwnableUpgradeable.sol\":3774:4022  function _transferOwnership(address newOwner) internal virtual {... */\n    tag_139:\n        /* \"@openzeppelin/contracts-upgradeable/access/OwnableUpgradeable.sol\":3847:3871  OwnableStorage storage $ */\n      0x00\n        /* \"@openzeppelin/contracts-upgradeable/access/OwnableUpgradeable.sol\":3874:3894  _getOwnableStorage() */\n      tag_267\n        /* \"@openzeppelin/contracts-upgradeable/access/OwnableUpgradeable.sol\":3874:3892  _getOwnableStorage */\n      tag_142\n        /* \"@openzeppelin/contracts-upgradeable/access/OwnableUpgradeable.sol\":3874:3894  _getOwnableStorage() */\n      jump\t// in\n    tag_267:\n        /* \"@openzeppelin/contracts-upgradeable/access/OwnableUpgradeable.sol\":3847:3894  OwnableStorage storage $ = _getOwnableStorage() */\n      swap1\n      pop\n        /* \"@openzeppelin/contracts-upgradeable/access/OwnableUpgradeable.sol\":3904:3920  address oldOwner */\n      0x00\n        /* \"@openzeppelin/contracts-upgradeable/access/OwnableUpgradeable.sol\":3923:3924  $ */\n      dup2\n        /* \"@openzeppelin/contracts-upgradeable/access/OwnableUpgradeable.sol\":3923:3931  $._owner */\n      0x00\n      add\n      0x00\n      swap1\n      sload\n      swap1\n      0x0100\n      exp\n      swap1\n      div\n      0xffffffffffffffffffffffffffffffffffffffff\n      and\n        /* \"@openzeppelin/contracts-upgradeable/access/OwnableUpgradeable.sol\":3904:3931  address oldOwner = $._owner */\n      swap1\n      pop\n        /* \"@openzeppelin/contracts-upgradeable/access/OwnableUpgradeable.sol\":3952:3960  newOwner */\n      dup3\n        /* \"@openzeppelin/contracts-upgradeable/access/OwnableUpgradeable.sol\":3941:3942  $ */\n      dup3\n        /* \"@openzeppelin/contracts-upgradeable/access/OwnableUpgradeable.sol\":3941:3949  $._owner */\n      0x00\n      add\n      0x00\n        /* \"@openzeppelin/contracts-upgradeable/access/OwnableUpgradeable.sol\":3941:3960  $._owner = newOwner */\n      0x0100\n      exp\n      dup2\n      sload\n      dup2\n      0xffffffffffffffffffffffffffffffffffffffff\n      mul\n      not\n      and\n      swap1\n      dup4\n      0xffffffffffffffffffffffffffffffffffffffff\n      and\n      mul\n      or\n      swap1\n      sstore\n      pop\n        /* \"@openzeppelin/contracts-upgradeable/access/OwnableUpgradeable.sol\":4006:4014  newOwner */\n      dup3\n        /* \"@openzeppelin/contracts-upgradeable/access/OwnableUpgradeable.sol\":3975:4015  OwnershipTransferred(oldOwner, newOwner) */\n      0xffffffffffffffffffffffffffffffffffffffff\n      and\n        /* \"@openzeppelin/contracts-upgradeable/access/OwnableUpgradeable.sol\":3996:4004  oldOwner */\n      dup2\n        /* \"@openzeppelin/contracts-upgradeable/access/OwnableUpgradeable.sol\":3975:4015  OwnershipTransferred(oldOwner, newOwner) */\n      0xffffffffffffffffffffffffffffffffffffffff\n      and\n      0x8be0079c531659141344cd1fd0a4f28419497f9722a3daafe3b4186f6b6457e0\n      mload(0x40)\n      mload(0x40)\n      dup1\n      swap2\n      sub\n      swap1\n      log3\n        /* \"@openzeppelin/contracts-upgradeable/access/OwnableUpgradeable.sol\":3837:4022  {... */\n      pop\n      pop\n        /* \"@openzeppelin/contracts-upgradeable/access/OwnableUpgradeable.sol\":3774:4022  function _transferOwnership(address newOwner) internal virtual {... */\n      pop\n      jump\t// out\n        /* \"@openzeppelin/contracts-upgradeable/access/OwnableUpgradeable.sol\":1192:1351  function _getOwnableStorage() private pure returns (OwnableStorage storage $) {... */\n    tag_142:\n        /* \"@openzeppelin/contracts-upgradeable/access/OwnableUpgradeable.sol\":1244:1268  OwnableStorage storage $ */\n      0x00\n        /* \"@openzeppelin/contracts-upgradeable/access/OwnableUpgradeable.sol\":1313:1335  OwnableStorageLocation */\n      0x9016d09d72d40fdae2fd8ceac6b6234c7706214fd39c1cd1e609a0528c199300\n        /* \"@openzeppelin/contracts-upgradeable/access/OwnableUpgradeable.sol\":1303:1335  $.slot := OwnableStorageLocation */\n      swap1\n      pop\n        /* \"@openzeppelin/contracts-upgradeable/access/OwnableUpgradeable.sol\":1192:1351  function _getOwnableStorage() private pure returns (OwnableStorage storage $) {... */\n      swap1\n      jump\t// out\n        /* \"@openzeppelin/contracts-upgradeable/proxy/utils/Initializable.sol\":8737:8907  function _getInitializableStorage() private pure returns (InitializableStorage storage $) {... */\n    tag_183:\n        /* \"@openzeppelin/contracts-upgradeable/proxy/utils/Initializable.sol\":8795:8825  InitializableStorage storage $ */\n      0x00\n        /* \"@openzeppelin/contracts-upgradeable/proxy/utils/Initializable.sol\":8870:8891  INITIALIZABLE_STORAGE */\n      0xf0c57e16840df040f15088dc2f81fe391c3923bec73e23a9662efc9c229c6a00\n        /* \"@openzeppelin/contracts-upgradeable/proxy/utils/Initializable.sol\":8860:8891  $.slot := INITIALIZABLE_STORAGE */\n      swap1\n      pop\n        /* \"@openzeppelin/contracts-upgradeable/proxy/utils/Initializable.sol\":8737:8907  function _getInitializableStorage() private pure returns (InitializableStorage storage $) {... */\n      swap1\n      jump\t// out\n        /* \"@openzeppelin/contracts-upgradeable/access/OwnableUpgradeable.sol\":1847:1974  function __Ownable_init(address initialOwner) internal onlyInitializing {... */\n    tag_191:\n        /* \"@openzeppelin/contracts-upgradeable/proxy/utils/Initializable.sol\":6931:6951  _checkInitializing() */\n      tag_271\n        /* \"@openzeppelin/contracts-upgradeable/proxy/utils/Initializable.sol\":6931:6949  _checkInitializing */\n      tag_272\n        /* \"@openzeppelin/contracts-upgradeable/proxy/utils/Initializable.sol\":6931:6951  _checkInitializing() */\n      jump\t// in\n    tag_271:\n        /* \"@openzeppelin/contracts-upgradeable/access/OwnableUpgradeable.sol\":1929:1967  __Ownable_init_unchained(initialOwner) */\n      tag_274\n        /* \"@openzeppelin/contracts-upgradeable/access/OwnableUpgradeable.sol\":1954:1966  initialOwner */\n      dup2\n        /* \"@openzeppelin/contracts-upgradeable/access/OwnableUpgradeable.sol\":1929:1953  __Ownable_init_unchained */\n      tag_275\n        /* \"@openzeppelin/contracts-upgradeable/access/OwnableUpgradeable.sol\":1929:1967  __Ownable_init_unchained(initialOwner) */\n      jump\t// in\n    tag_274:\n        /* \"@openzeppelin/contracts-upgradeable/access/OwnableUpgradeable.sol\":1847:1974  function __Ownable_init(address initialOwner) internal onlyInitializing {... */\n      pop\n      jump\t// out\n        /* \"@openzeppelin/contracts-upgradeable/access/AccessControlUpgradeable.sol\":3231:3296  function __AccessControl_init() internal onlyInitializing {... */\n    tag_193:\n        /* \"@openzeppelin/contracts-upgradeable/proxy/utils/Initializable.sol\":6931:6951  _checkInitializing() */\n      tag_277\n        /* \"@openzeppelin/contracts-upgradeable/proxy/utils/Initializable.sol\":6931:6949  _checkInitializing */\n      tag_272\n        /* \"@openzeppelin/contracts-upgradeable/proxy/utils/Initializable.sol\":6931:6951  _checkInitializing() */\n      jump\t// in\n    tag_277:\n        /* \"@openzeppelin/contracts-upgradeable/access/AccessControlUpgradeable.sol\":3231:3296  function __AccessControl_init() internal onlyInitializing {... */\n      jump\t// out\n        /* \"@openzeppelin/contracts-upgradeable/access/AccessControlUpgradeable.sol\":4381:4578  function _checkRole(bytes32 role, address account) internal view virtual {... */\n    tag_252:\n        /* \"@openzeppelin/contracts-upgradeable/access/AccessControlUpgradeable.sol\":4469:4491  hasRole(role, account) */\n      tag_280\n        /* \"@openzeppelin/contracts-upgradeable/access/AccessControlUpgradeable.sol\":4477:4481  role */\n      dup3\n        /* \"@openzeppelin/contracts-upgradeable/access/AccessControlUpgradeable.sol\":4483:4490  account */\n      dup3\n        /* \"@openzeppelin/contracts-upgradeable/access/AccessControlUpgradeable.sol\":4469:4476  hasRole */\n      tag_67\n        /* \"@openzeppelin/contracts-upgradeable/access/AccessControlUpgradeable.sol\":4469:4491  hasRole(role, account) */\n      jump\t// in\n    tag_280:\n        /* \"@openzeppelin/contracts-upgradeable/access/AccessControlUpgradeable.sol\":4464:4572  if (!hasRole(role, account)) {... */\n      tag_281\n      jumpi\n        /* \"@openzeppelin/contracts-upgradeable/access/AccessControlUpgradeable.sol\":4547:4554  account */\n      dup1\n        /* \"@openzeppelin/contracts-upgradeable/access/AccessControlUpgradeable.sol\":4556:4560  role */\n      dup3\n        /* \"@openzeppelin/contracts-upgradeable/access/AccessControlUpgradeable.sol\":4514:4561  AccessControlUnauthorizedAccount(account, role) */\n      mload(0x40)\n      0xe2517d3f00000000000000000000000000000000000000000000000000000000\n      dup2\n      mstore\n      0x04\n      add\n      tag_282\n      swap3\n      swap2\n      swap1\n      tag_283\n      jump\t// in\n    tag_282:\n      mload(0x40)\n      dup1\n      swap2\n      sub\n      swap1\n      revert\n        /* \"@openzeppelin/contracts-upgradeable/access/AccessControlUpgradeable.sol\":4464:4572  if (!hasRole(role, account)) {... */\n    tag_281:\n        /* \"@openzeppelin/contracts-upgradeable/access/AccessControlUpgradeable.sol\":4381:4578  function _checkRole(bytes32 role, address account) internal view virtual {... */\n      pop\n      pop\n      jump\t// out\n        /* \"@openzeppelin/contracts-upgradeable/proxy/utils/Initializable.sol\":7084:7225  function _checkInitializing() internal view virtual {... */\n    tag_272:\n        /* \"@openzeppelin/contracts-upgradeable/proxy/utils/Initializable.sol\":7151:7168  _isInitializing() */\n      tag_285\n        /* \"@openzeppelin/contracts-upgradeable/proxy/utils/Initializable.sol\":7151:7166  _isInitializing */\n      tag_286\n        /* \"@openzeppelin/contracts-upgradeable/proxy/utils/Initializable.sol\":7151:7168  _isInitializing() */\n      jump\t// in\n    tag_285:\n        /* \"@openzeppelin/contracts-upgradeable/proxy/utils/Initializable.sol\":7146:7219  if (!_isInitializing()) {... */\n      tag_287\n      jumpi\n        /* \"@openzeppelin/contracts-upgradeable/proxy/utils/Initializable.sol\":7191:7208  NotInitializing() */\n      mload(0x40)\n      0xd7e6bcf800000000000000000000000000000000000000000000000000000000\n      dup2\n      mstore\n      0x04\n      add\n      mload(0x40)\n      dup1\n      swap2\n      sub\n      swap1\n      revert\n        /* \"@openzeppelin/contracts-upgradeable/proxy/utils/Initializable.sol\":7146:7219  if (!_isInitializing()) {... */\n    tag_287:\n        /* \"@openzeppelin/contracts-upgradeable/proxy/utils/Initializable.sol\":7084:7225  function _checkInitializing() internal view virtual {... */\n      jump\t// out\n        /* \"@openzeppelin/contracts-upgradeable/access/OwnableUpgradeable.sol\":1980:2215  function __Ownable_init_unchained(address initialOwner) internal onlyInitializing {... */\n    tag_275:\n        /* \"@openzeppelin/contracts-upgradeable/proxy/utils/Initializable.sol\":6931:6951  _checkInitializing() */\n      tag_289\n        /* \"@openzeppelin/contracts-upgradeable/proxy/utils/Initializable.sol\":6931:6949  _checkInitializing */\n      tag_272\n        /* \"@openzeppelin/contracts-upgradeable/proxy/utils/Initializable.sol\":6931:6951  _checkInitializing() */\n      jump\t// in\n    tag_289:\n        /* \"@openzeppelin/contracts-upgradeable/access/OwnableUpgradeable.sol\":2100:2101  0 */\n      0x00\n        /* \"@openzeppelin/contracts-upgradeable/access/OwnableUpgradeable.sol\":2076:2102  initialOwner == address(0) */\n      0xffffffffffffffffffffffffffffffffffffffff\n      and\n        /* \"@openzeppelin/contracts-upgradeable/access/OwnableUpgradeable.sol\":2076:2088  initialOwner */\n      dup2\n        /* \"@openzeppelin/contracts-upgradeable/access/OwnableUpgradeable.sol\":2076:2102  initialOwner == address(0) */\n      0xffffffffffffffffffffffffffffffffffffffff\n      and\n      sub\n        /* \"@openzeppelin/contracts-upgradeable/access/OwnableUpgradeable.sol\":2072:2167  if (initialOwner == address(0)) {... */\n      tag_291\n      jumpi\n        /* \"@openzeppelin/contracts-upgradeable/access/OwnableUpgradeable.sol\":2153:2154  0 */\n      0x00\n        /* \"@openzeppelin/contracts-upgradeable/access/OwnableUpgradeable.sol\":2125:2156  OwnableInvalidOwner(address(0)) */\n      mload(0x40)\n      0x1e4fbdf700000000000000000000000000000000000000000000000000000000\n      dup2\n      mstore\n      0x04\n      add\n      tag_292\n      swap2\n      swap1\n      tag_64\n      jump\t// in\n    tag_292:\n      mload(0x40)\n      dup1\n      swap2\n      sub\n      swap1\n      revert\n        /* \"@openzeppelin/contracts-upgradeable/access/OwnableUpgradeable.sol\":2072:2167  if (initialOwner == address(0)) {... */\n    tag_291:\n        /* \"@openzeppelin/contracts-upgradeable/access/OwnableUpgradeable.sol\":2176:2208  _transferOwnership(initialOwner) */\n      tag_293\n        /* \"@openzeppelin/contracts-upgradeable/access/OwnableUpgradeable.sol\":2195:2207  initialOwner */\n      dup2\n        /* \"@openzeppelin/contracts-upgradeable/access/OwnableUpgradeable.sol\":2176:2194  _transferOwnership */\n      tag_139\n        /* \"@openzeppelin/contracts-upgradeable/access/OwnableUpgradeable.sol\":2176:2208  _transferOwnership(initialOwner) */\n      jump\t// in\n    tag_293:\n        /* \"@openzeppelin/contracts-upgradeable/access/OwnableUpgradeable.sol\":1980:2215  function __Ownable_init_unchained(address initialOwner) internal onlyInitializing {... */\n      pop\n      jump\t// out\n        /* \"@openzeppelin/contracts-upgradeable/proxy/utils/Initializable.sol\":8487:8607  function _isInitializing() internal view returns (bool) {... */\n    tag_286:\n        /* \"@openzeppelin/contracts-upgradeable/proxy/utils/Initializable.sol\":8537:8541  bool */\n      0x00\n        /* \"@openzeppelin/contracts-upgradeable/proxy/utils/Initializable.sol\":8560:8586  _getInitializableStorage() */\n      tag_295\n        /* \"@openzeppelin/contracts-upgradeable/proxy/utils/Initializable.sol\":8560:8584  _getInitializableStorage */\n      tag_183\n        /* \"@openzeppelin/contracts-upgradeable/proxy/utils/Initializable.sol\":8560:8586  _getInitializableStorage() */\n      jump\t// in\n    tag_295:\n        /* \"@openzeppelin/contracts-upgradeable/proxy/utils/Initializable.sol\":8560:8600  _getInitializableStorage()._initializing */\n      0x00\n      add\n      0x08\n      swap1\n      sload\n      swap1\n      0x0100\n      exp\n      swap1\n      div\n      0xff\n      and\n        /* \"@openzeppelin/contracts-upgradeable/proxy/utils/Initializable.sol\":8553:8600  return _getInitializableStorage()._initializing */\n      swap1\n      pop\n        /* \"@openzeppelin/contracts-upgradeable/proxy/utils/Initializable.sol\":8487:8607  function _isInitializing() internal view returns (bool) {... */\n      swap1\n      jump\t// out\n    tag_178:\n      pop\n      dup1\n      sload\n      tag_296\n      swap1\n      tag_223\n      jump\t// in\n    tag_296:\n      0x00\n      dup3\n      sstore\n      dup1\n      0x1f\n      lt\n      tag_298\n      jumpi\n      pop\n      jump(tag_297)\n    tag_298:\n      0x1f\n      add\n      0x20\n      swap1\n      div\n      swap1\n      0x00\n      mstore\n      keccak256(0x00, 0x20)\n      swap1\n      dup2\n      add\n      swap1\n      tag_299\n      swap2\n      swap1\n      tag_300\n      jump\t// in\n    tag_299:\n    tag_297:\n      pop\n      jump\t// out\n    tag_300:\n    tag_301:\n      dup1\n      dup3\n      gt\n      iszero\n      tag_302\n      jumpi\n      0x00\n      dup2\n      0x00\n      swap1\n      sstore\n      pop\n      0x01\n      add\n      jump(tag_301)\n    tag_302:\n      pop\n      swap1\n      jump\t// out\n        /* \"#utility.yul\":7:82   */\n    tag_303:\n        /* \"#utility.yul\":40:46   */\n      0x00\n        /* \"#utility.yul\":73:75   */\n      0x40\n        /* \"#utility.yul\":67:76   */\n      mload\n        /* \"#utility.yul\":57:76   */\n      swap1\n      pop\n        /* \"#utility.yul\":7:82   */\n      swap1\n      jump\t// out\n        /* \"#utility.yul\":88:205   */\n    tag_304:\n        /* \"#utility.yul\":197:198   */\n      0x00\n        /* \"#utility.yul\":194:195   */\n      dup1\n        /* \"#utility.yul\":187:199   */\n      revert\n        /* \"#utility.yul\":211:328   */\n    tag_305:\n        /* \"#utility.yul\":320:321   */\n      0x00\n        /* \"#utility.yul\":317:318   */\n      dup1\n        /* \"#utility.yul\":310:322   */\n      revert\n        /* \"#utility.yul\":334:483   */\n    tag_306:\n        /* \"#utility.yul\":370:377   */\n      0x00\n        /* \"#utility.yul\":410:476   */\n      0xffffffff00000000000000000000000000000000000000000000000000000000\n        /* \"#utility.yul\":403:408   */\n      dup3\n        /* \"#utility.yul\":399:477   */\n      and\n        /* \"#utility.yul\":388:477   */\n      swap1\n      pop\n        /* \"#utility.yul\":334:483   */\n      swap2\n      swap1\n      pop\n      jump\t// out\n        /* \"#utility.yul\":489:609   */\n    tag_307:\n        /* \"#utility.yul\":561:584   */\n      tag_377\n        /* \"#utility.yul\":578:583   */\n      dup2\n        /* \"#utility.yul\":561:584   */\n      tag_306\n      jump\t// in\n    tag_377:\n        /* \"#utility.yul\":554:559   */\n      dup2\n        /* \"#utility.yul\":551:585   */\n      eq\n        /* \"#utility.yul\":541:603   */\n      tag_378\n      jumpi\n        /* \"#utility.yul\":599:600   */\n      0x00\n        /* \"#utility.yul\":596:597   */\n      dup1\n        /* \"#utility.yul\":589:601   */\n      revert\n        /* \"#utility.yul\":541:603   */\n    tag_378:\n        /* \"#utility.yul\":489:609   */\n      pop\n      jump\t// out\n        /* \"#utility.yul\":615:752   */\n    tag_308:\n        /* \"#utility.yul\":660:665   */\n      0x00\n        /* \"#utility.yul\":698:704   */\n      dup2\n        /* \"#utility.yul\":685:705   */\n      calldataload\n        /* \"#utility.yul\":676:705   */\n      swap1\n      pop\n        /* \"#utility.yul\":714:746   */\n      tag_380\n        /* \"#utility.yul\":740:745   */\n      dup2\n        /* \"#utility.yul\":714:746   */\n      tag_307\n      jump\t// in\n    tag_380:\n        /* \"#utility.yul\":615:752   */\n      swap3\n      swap2\n      pop\n      pop\n      jump\t// out\n        /* \"#utility.yul\":758:1085   */\n    tag_28:\n        /* \"#utility.yul\":816:822   */\n      0x00\n        /* \"#utility.yul\":865:867   */\n      0x20\n        /* \"#utility.yul\":853:862   */\n      dup3\n        /* \"#utility.yul\":844:851   */\n      dup5\n        /* \"#utility.yul\":840:863   */\n      sub\n        /* \"#utility.yul\":836:868   */\n      slt\n        /* \"#utility.yul\":833:952   */\n      iszero\n      tag_382\n      jumpi\n        /* \"#utility.yul\":871:950   */\n      tag_383\n      tag_304\n      jump\t// in\n    tag_383:\n        /* \"#utility.yul\":833:952   */\n    tag_382:\n        /* \"#utility.yul\":991:992   */\n      0x00\n        /* \"#utility.yul\":1016:1068   */\n      tag_384\n        /* \"#utility.yul\":1060:1067   */\n      dup5\n        /* \"#utility.yul\":1051:1057   */\n      dup3\n        /* \"#utility.yul\":1040:1049   */\n      dup6\n        /* \"#utility.yul\":1036:1058   */\n      add\n        /* \"#utility.yul\":1016:1068   */\n      tag_308\n      jump\t// in\n    tag_384:\n        /* \"#utility.yul\":1006:1068   */\n      swap2\n      pop\n        /* \"#utility.yul\":962:1078   */\n      pop\n        /* \"#utility.yul\":758:1085   */\n      swap3\n      swap2\n      pop\n      pop\n      jump\t// out\n        /* \"#utility.yul\":1091:1181   */\n    tag_309:\n        /* \"#utility.yul\":1125:1132   */\n      0x00\n        /* \"#utility.yul\":1168:1173   */\n      dup2\n        /* \"#utility.yul\":1161:1174   */\n      iszero\n        /* \"#utility.yul\":1154:1175   */\n      iszero\n        /* \"#utility.yul\":1143:1175   */\n      swap1\n      pop\n        /* \"#utility.yul\":1091:1181   */\n      swap2\n      swap1\n      pop\n      jump\t// out\n        /* \"#utility.yul\":1187:1296   */\n    tag_310:\n        /* \"#utility.yul\":1268:1289   */\n      tag_387\n        /* \"#utility.yul\":1283:1288   */\n      dup2\n        /* \"#utility.yul\":1268:1289   */\n      tag_309\n      jump\t// in\n    tag_387:\n        /* \"#utility.yul\":1263:1266   */\n      dup3\n        /* \"#utility.yul\":1256:1290   */\n      mstore\n        /* \"#utility.yul\":1187:1296   */\n      pop\n      pop\n      jump\t// out\n        /* \"#utility.yul\":1302:1512   */\n    tag_31:\n        /* \"#utility.yul\":1389:1393   */\n      0x00\n        /* \"#utility.yul\":1427:1429   */\n      0x20\n        /* \"#utility.yul\":1416:1425   */\n      dup3\n        /* \"#utility.yul\":1412:1430   */\n      add\n        /* \"#utility.yul\":1404:1430   */\n      swap1\n      pop\n        /* \"#utility.yul\":1440:1505   */\n      tag_389\n        /* \"#utility.yul\":1502:1503   */\n      0x00\n        /* \"#utility.yul\":1491:1500   */\n      dup4\n        /* \"#utility.yul\":1487:1504   */\n      add\n        /* \"#utility.yul\":1478:1484   */\n      dup5\n        /* \"#utility.yul\":1440:1505   */\n      tag_310\n      jump\t// in\n    tag_389:\n        /* \"#utility.yul\":1302:1512   */\n      swap3\n      swap2\n      pop\n      pop\n      jump\t// out\n        /* \"#utility.yul\":1518:1644   */\n    tag_311:\n        /* \"#utility.yul\":1555:1562   */\n      0x00\n        /* \"#utility.yul\":1595:1637   */\n      0xffffffffffffffffffffffffffffffffffffffff\n        /* \"#utility.yul\":1588:1593   */\n      dup3\n        /* \"#utility.yul\":1584:1638   */\n      and\n        /* \"#utility.yul\":1573:1638   */\n      swap1\n      pop\n        /* \"#utility.yul\":1518:1644   */\n      swap2\n      swap1\n      pop\n      jump\t// out\n        /* \"#utility.yul\":1650:1746   */\n    tag_312:\n        /* \"#utility.yul\":1687:1694   */\n      0x00\n        /* \"#utility.yul\":1716:1740   */\n      tag_392\n        /* \"#utility.yul\":1734:1739   */\n      dup3\n        /* \"#utility.yul\":1716:1740   */\n      tag_311\n      jump\t// in\n    tag_392:\n        /* \"#utility.yul\":1705:1740   */\n      swap1\n      pop\n        /* \"#utility.yul\":1650:1746   */\n      swap2\n      swap1\n      pop\n      jump\t// out\n        /* \"#utility.yul\":1752:1874   */\n    tag_313:\n        /* \"#utility.yul\":1825:1849   */\n      tag_394\n        /* \"#utility.yul\":1843:1848   */\n      dup2\n        /* \"#utility.yul\":1825:1849   */\n      tag_312\n      jump\t// in\n    tag_394:\n        /* \"#utility.yul\":1818:1823   */\n      dup2\n        /* \"#utility.yul\":1815:1850   */\n      eq\n        /* \"#utility.yul\":1805:1868   */\n      tag_395\n      jumpi\n        /* \"#utility.yul\":1864:1865   */\n      0x00\n        /* \"#utility.yul\":1861:1862   */\n      dup1\n        /* \"#utility.yul\":1854:1866   */\n      revert\n        /* \"#utility.yul\":1805:1868   */\n    tag_395:\n        /* \"#utility.yul\":1752:1874   */\n      pop\n      jump\t// out\n        /* \"#utility.yul\":1880:2019   */\n    tag_314:\n        /* \"#utility.yul\":1926:1931   */\n      0x00\n        /* \"#utility.yul\":1964:1970   */\n      dup2\n        /* \"#utility.yul\":1951:1971   */\n      calldataload\n        /* \"#utility.yul\":1942:1971   */\n      swap1\n      pop\n        /* \"#utility.yul\":1980:2013   */\n      tag_397\n        /* \"#utility.yul\":2007:2012   */\n      dup2\n        /* \"#utility.yul\":1980:2013   */\n      tag_313\n      jump\t// in\n    tag_397:\n        /* \"#utility.yul\":1880:2019   */\n      swap3\n      swap2\n      pop\n      pop\n      jump\t// out\n        /* \"#utility.yul\":2025:2354   */\n    tag_34:\n        /* \"#utility.yul\":2084:2090   */\n      0x00\n        /* \"#utility.yul\":2133:2135   */\n      0x20\n        /* \"#utility.yul\":2121:2130   */\n      dup3\n        /* \"#utility.yul\":2112:2119   */\n      dup5\n        /* \"#utility.yul\":2108:2131   */\n      sub\n        /* \"#utility.yul\":2104:2136   */\n      slt\n        /* \"#utility.yul\":2101:2220   */\n      iszero\n      tag_399\n      jumpi\n        /* \"#utility.yul\":2139:2218   */\n      tag_400\n      tag_304\n      jump\t// in\n    tag_400:\n        /* \"#utility.yul\":2101:2220   */\n    tag_399:\n        /* \"#utility.yul\":2259:2260   */\n      0x00\n        /* \"#utility.yul\":2284:2337   */\n      tag_401\n        /* \"#utility.yul\":2329:2336   */\n      dup5\n        /* \"#utility.yul\":2320:2326   */\n      dup3\n        /* \"#utility.yul\":2309:2318   */\n      dup6\n        /* \"#utility.yul\":2305:2327   */\n      add\n        /* \"#utility.yul\":2284:2337   */\n      tag_314\n      jump\t// in\n    tag_401:\n        /* \"#utility.yul\":2274:2337   */\n      swap2\n      pop\n        /* \"#utility.yul\":2230:2347   */\n      pop\n        /* \"#utility.yul\":2025:2354   */\n      swap3\n      swap2\n      pop\n      pop\n      jump\t// out\n        /* \"#utility.yul\":2360:2437   */\n    tag_315:\n        /* \"#utility.yul\":2397:2404   */\n      0x00\n        /* \"#utility.yul\":2426:2431   */\n      dup2\n        /* \"#utility.yul\":2415:2431   */\n      swap1\n      pop\n        /* \"#utility.yul\":2360:2437   */\n      swap2\n      swap1\n      pop\n      jump\t// out\n        /* \"#utility.yul\":2443:2565   */\n    tag_316:\n        /* \"#utility.yul\":2516:2540   */\n      tag_404\n        /* \"#utility.yul\":2534:2539   */\n      dup2\n        /* \"#utility.yul\":2516:2540   */\n      tag_315\n      jump\t// in\n    tag_404:\n        /* \"#utility.yul\":2509:2514   */\n      dup2\n        /* \"#utility.yul\":2506:2541   */\n      eq\n        /* \"#utility.yul\":2496:2559   */\n      tag_405\n      jumpi\n        /* \"#utility.yul\":2555:2556   */\n      0x00\n        /* \"#utility.yul\":2552:2553   */\n      dup1\n        /* \"#utility.yul\":2545:2557   */\n      revert\n        /* \"#utility.yul\":2496:2559   */\n    tag_405:\n        /* \"#utility.yul\":2443:2565   */\n      pop\n      jump\t// out\n        /* \"#utility.yul\":2571:2710   */\n    tag_317:\n        /* \"#utility.yul\":2617:2622   */\n      0x00\n        /* \"#utility.yul\":2655:2661   */\n      dup2\n        /* \"#utility.yul\":2642:2662   */\n      calldataload\n        /* \"#utility.yul\":2633:2662   */\n      swap1\n      pop\n        /* \"#utility.yul\":2671:2704   */\n      tag_407\n        /* \"#utility.yul\":2698:2703   */\n      dup2\n        /* \"#utility.yul\":2671:2704   */\n      tag_316\n      jump\t// in\n    tag_407:\n        /* \"#utility.yul\":2571:2710   */\n      swap3\n      swap2\n      pop\n      pop\n      jump\t// out\n        /* \"#utility.yul\":2716:3045   */\n    tag_38:\n        /* \"#utility.yul\":2775:2781   */\n      0x00\n        /* \"#utility.yul\":2824:2826   */\n      0x20\n        /* \"#utility.yul\":2812:2821   */\n      dup3\n        /* \"#utility.yul\":2803:2810   */\n      dup5\n        /* \"#utility.yul\":2799:2822   */\n      sub\n        /* \"#utility.yul\":2795:2827   */\n      slt\n        /* \"#utility.yul\":2792:2911   */\n      iszero\n      tag_409\n      jumpi\n        /* \"#utility.yul\":2830:2909   */\n      tag_410\n      tag_304\n      jump\t// in\n    tag_410:\n        /* \"#utility.yul\":2792:2911   */\n    tag_409:\n        /* \"#utility.yul\":2950:2951   */\n      0x00\n        /* \"#utility.yul\":2975:3028   */\n      tag_411\n        /* \"#utility.yul\":3020:3027   */\n      dup5\n        /* \"#utility.yul\":3011:3017   */\n      dup3\n        /* \"#utility.yul\":3000:3009   */\n      dup6\n        /* \"#utility.yul\":2996:3018   */\n      add\n        /* \"#utility.yul\":2975:3028   */\n      tag_317\n      jump\t// in\n    tag_411:\n        /* \"#utility.yul\":2965:3028   */\n      swap2\n      pop\n        /* \"#utility.yul\":2921:3038   */\n      pop\n        /* \"#utility.yul\":2716:3045   */\n      swap3\n      swap2\n      pop\n      pop\n      jump\t// out\n        /* \"#utility.yul\":3051:3169   */\n    tag_318:\n        /* \"#utility.yul\":3138:3162   */\n      tag_413\n        /* \"#utility.yul\":3156:3161   */\n      dup2\n        /* \"#utility.yul\":3138:3162   */\n      tag_315\n      jump\t// in\n    tag_413:\n        /* \"#utility.yul\":3133:3136   */\n      dup3\n        /* \"#utility.yul\":3126:3163   */\n      mstore\n        /* \"#utility.yul\":3051:3169   */\n      pop\n      pop\n      jump\t// out\n        /* \"#utility.yul\":3175:3397   */\n    tag_41:\n        /* \"#utility.yul\":3268:3272   */\n      0x00\n        /* \"#utility.yul\":3306:3308   */\n      0x20\n        /* \"#utility.yul\":3295:3304   */\n      dup3\n        /* \"#utility.yul\":3291:3309   */\n      add\n        /* \"#utility.yul\":3283:3309   */\n      swap1\n      pop\n        /* \"#utility.yul\":3319:3390   */\n      tag_415\n        /* \"#utility.yul\":3387:3388   */\n      0x00\n        /* \"#utility.yul\":3376:3385   */\n      dup4\n        /* \"#utility.yul\":3372:3389   */\n      add\n        /* \"#utility.yul\":3363:3369   */\n      dup5\n        /* \"#utility.yul\":3319:3390   */\n      tag_318\n      jump\t// in\n    tag_415:\n        /* \"#utility.yul\":3175:3397   */\n      swap3\n      swap2\n      pop\n      pop\n      jump\t// out\n        /* \"#utility.yul\":3403:3877   */\n    tag_48:\n        /* \"#utility.yul\":3471:3477   */\n      0x00\n        /* \"#utility.yul\":3479:3485   */\n      dup1\n        /* \"#utility.yul\":3528:3530   */\n      0x40\n        /* \"#utility.yul\":3516:3525   */\n      dup4\n        /* \"#utility.yul\":3507:3514   */\n      dup6\n        /* \"#utility.yul\":3503:3526   */\n      sub\n        /* \"#utility.yul\":3499:3531   */\n      slt\n        /* \"#utility.yul\":3496:3615   */\n      iszero\n      tag_417\n      jumpi\n        /* \"#utility.yul\":3534:3613   */\n      tag_418\n      tag_304\n      jump\t// in\n    tag_418:\n        /* \"#utility.yul\":3496:3615   */\n    tag_417:\n        /* \"#utility.yul\":3654:3655   */\n      0x00\n        /* \"#utility.yul\":3679:3732   */\n      tag_419\n        /* \"#utility.yul\":3724:3731   */\n      dup6\n        /* \"#utility.yul\":3715:3721   */\n      dup3\n        /* \"#utility.yul\":3704:3713   */\n      dup7\n        /* \"#utility.yul\":3700:3722   */\n      add\n        /* \"#utility.yul\":3679:3732   */\n      tag_317\n      jump\t// in\n    tag_419:\n        /* \"#utility.yul\":3669:3732   */\n      swap3\n      pop\n        /* \"#utility.yul\":3625:3742   */\n      pop\n        /* \"#utility.yul\":3781:3783   */\n      0x20\n        /* \"#utility.yul\":3807:3860   */\n      tag_420\n        /* \"#utility.yul\":3852:3859   */\n      dup6\n        /* \"#utility.yul\":3843:3849   */\n      dup3\n        /* \"#utility.yul\":3832:3841   */\n      dup7\n        /* \"#utility.yul\":3828:3850   */\n      add\n        /* \"#utility.yul\":3807:3860   */\n      tag_314\n      jump\t// in\n    tag_420:\n        /* \"#utility.yul\":3797:3860   */\n      swap2\n      pop\n        /* \"#utility.yul\":3752:3870   */\n      pop\n        /* \"#utility.yul\":3403:3877   */\n      swap3\n      pop\n      swap3\n      swap1\n      pop\n      jump\t// out\n        /* \"#utility.yul\":3883:4001   */\n    tag_319:\n        /* \"#utility.yul\":3970:3994   */\n      tag_422\n        /* \"#utility.yul\":3988:3993   */\n      dup2\n        /* \"#utility.yul\":3970:3994   */\n      tag_312\n      jump\t// in\n    tag_422:\n        /* \"#utility.yul\":3965:3968   */\n      dup3\n        /* \"#utility.yul\":3958:3995   */\n      mstore\n        /* \"#utility.yul\":3883:4001   */\n      pop\n      pop\n      jump\t// out\n        /* \"#utility.yul\":4007:4229   */\n    tag_64:\n        /* \"#utility.yul\":4100:4104   */\n      0x00\n        /* \"#utility.yul\":4138:4140   */\n      0x20\n        /* \"#utility.yul\":4127:4136   */\n      dup3\n        /* \"#utility.yul\":4123:4141   */\n      add\n        /* \"#utility.yul\":4115:4141   */\n      swap1\n      pop\n        /* \"#utility.yul\":4151:4222   */\n      tag_424\n        /* \"#utility.yul\":4219:4220   */\n      0x00\n        /* \"#utility.yul\":4208:4217   */\n      dup4\n        /* \"#utility.yul\":4204:4221   */\n      add\n        /* \"#utility.yul\":4195:4201   */\n      dup5\n        /* \"#utility.yul\":4151:4222   */\n      tag_319\n      jump\t// in\n    tag_424:\n        /* \"#utility.yul\":4007:4229   */\n      swap3\n      swap2\n      pop\n      pop\n      jump\t// out\n        /* \"#utility.yul\":4235:4352   */\n    tag_320:\n        /* \"#utility.yul\":4344:4345   */\n      0x00\n        /* \"#utility.yul\":4341:4342   */\n      dup1\n        /* \"#utility.yul\":4334:4346   */\n      revert\n        /* \"#utility.yul\":4358:4475   */\n    tag_321:\n        /* \"#utility.yul\":4467:4468   */\n      0x00\n        /* \"#utility.yul\":4464:4465   */\n      dup1\n        /* \"#utility.yul\":4457:4469   */\n      revert\n        /* \"#utility.yul\":4481:4583   */\n    tag_322:\n        /* \"#utility.yul\":4522:4528   */\n      0x00\n        /* \"#utility.yul\":4573:4575   */\n      0x1f\n        /* \"#utility.yul\":4569:4576   */\n      not\n        /* \"#utility.yul\":4564:4566   */\n      0x1f\n        /* \"#utility.yul\":4557:4562   */\n      dup4\n        /* \"#utility.yul\":4553:4567   */\n      add\n        /* \"#utility.yul\":4549:4577   */\n      and\n        /* \"#utility.yul\":4539:4577   */\n      swap1\n      pop\n        /* \"#utility.yul\":4481:4583   */\n      swap2\n      swap1\n      pop\n      jump\t// out\n        /* \"#utility.yul\":4589:4769   */\n    tag_323:\n        /* \"#utility.yul\":4637:4714   */\n      0x4e487b7100000000000000000000000000000000000000000000000000000000\n        /* \"#utility.yul\":4634:4635   */\n      0x00\n        /* \"#utility.yul\":4627:4715   */\n      mstore\n        /* \"#utility.yul\":4734:4738   */\n      0x41\n        /* \"#utility.yul\":4731:4732   */\n      0x04\n        /* \"#utility.yul\":4724:4739   */\n      mstore\n        /* \"#utility.yul\":4758:4762   */\n      0x24\n        /* \"#utility.yul\":4755:4756   */\n      0x00\n        /* \"#utility.yul\":4748:4763   */\n      revert\n        /* \"#utility.yul\":4775:5056   */\n    tag_324:\n        /* \"#utility.yul\":4858:4885   */\n      tag_430\n        /* \"#utility.yul\":4880:4884   */\n      dup3\n        /* \"#utility.yul\":4858:4885   */\n      tag_322\n      jump\t// in\n    tag_430:\n        /* \"#utility.yul\":4850:4856   */\n      dup2\n        /* \"#utility.yul\":4846:4886   */\n      add\n        /* \"#utility.yul\":4988:4994   */\n      dup2\n        /* \"#utility.yul\":4976:4986   */\n      dup2\n        /* \"#utility.yul\":4973:4995   */\n      lt\n        /* \"#utility.yul\":4952:4970   */\n      0xffffffffffffffff\n        /* \"#utility.yul\":4940:4950   */\n      dup3\n        /* \"#utility.yul\":4937:4971   */\n      gt\n        /* \"#utility.yul\":4934:4996   */\n      or\n        /* \"#utility.yul\":4931:5019   */\n      iszero\n      tag_431\n      jumpi\n        /* \"#utility.yul\":4999:5017   */\n      tag_432\n      tag_323\n      jump\t// in\n    tag_432:\n        /* \"#utility.yul\":4931:5019   */\n    tag_431:\n        /* \"#utility.yul\":5039:5049   */\n      dup1\n        /* \"#utility.yul\":5035:5037   */\n      0x40\n        /* \"#utility.yul\":5028:5050   */\n      mstore\n        /* \"#utility.yul\":4818:5056   */\n      pop\n        /* \"#utility.yul\":4775:5056   */\n      pop\n      pop\n      jump\t// out\n        /* \"#utility.yul\":5062:5191   */\n    tag_325:\n        /* \"#utility.yul\":5096:5102   */\n      0x00\n        /* \"#utility.yul\":5123:5143   */\n      tag_434\n      tag_303\n      jump\t// in\n    tag_434:\n        /* \"#utility.yul\":5113:5143   */\n      swap1\n      pop\n        /* \"#utility.yul\":5152:5185   */\n      tag_435\n        /* \"#utility.yul\":5180:5184   */\n      dup3\n        /* \"#utility.yul\":5172:5178   */\n      dup3\n        /* \"#utility.yul\":5152:5185   */\n      tag_324\n      jump\t// in\n    tag_435:\n        /* \"#utility.yul\":5062:5191   */\n      swap2\n      swap1\n      pop\n      jump\t// out\n        /* \"#utility.yul\":5197:5505   */\n    tag_326:\n        /* \"#utility.yul\":5259:5263   */\n      0x00\n        /* \"#utility.yul\":5349:5367   */\n      0xffffffffffffffff\n        /* \"#utility.yul\":5341:5347   */\n      dup3\n        /* \"#utility.yul\":5338:5368   */\n      gt\n        /* \"#utility.yul\":5335:5391   */\n      iszero\n      tag_437\n      jumpi\n        /* \"#utility.yul\":5371:5389   */\n      tag_438\n      tag_323\n      jump\t// in\n    tag_438:\n        /* \"#utility.yul\":5335:5391   */\n    tag_437:\n        /* \"#utility.yul\":5409:5438   */\n      tag_439\n        /* \"#utility.yul\":5431:5437   */\n      dup3\n        /* \"#utility.yul\":5409:5438   */\n      tag_322\n      jump\t// in\n    tag_439:\n        /* \"#utility.yul\":5401:5438   */\n      swap1\n      pop\n        /* \"#utility.yul\":5493:5497   */\n      0x20\n        /* \"#utility.yul\":5487:5491   */\n      dup2\n        /* \"#utility.yul\":5483:5498   */\n      add\n        /* \"#utility.yul\":5475:5498   */\n      swap1\n      pop\n        /* \"#utility.yul\":5197:5505   */\n      swap2\n      swap1\n      pop\n      jump\t// out\n        /* \"#utility.yul\":5511:5659   */\n    tag_327:\n        /* \"#utility.yul\":5609:5615   */\n      dup3\n        /* \"#utility.yul\":5604:5607   */\n      dup2\n        /* \"#utility.yul\":5599:5602   */\n      dup4\n        /* \"#utility.yul\":5586:5616   */\n      calldatacopy\n        /* \"#utility.yul\":5650:5651   */\n      0x00\n        /* \"#utility.yul\":5641:5647   */\n      dup4\n        /* \"#utility.yul\":5636:5639   */\n      dup4\n        /* \"#utility.yul\":5632:5648   */\n      add\n        /* \"#utility.yul\":5625:5652   */\n      mstore\n        /* \"#utility.yul\":5511:5659   */\n      pop\n      pop\n      pop\n      jump\t// out\n        /* \"#utility.yul\":5665:6090   */\n    tag_328:\n        /* \"#utility.yul\":5743:5748   */\n      0x00\n        /* \"#utility.yul\":5768:5834   */\n      tag_442\n        /* \"#utility.yul\":5784:5833   */\n      tag_443\n        /* \"#utility.yul\":5826:5832   */\n      dup5\n        /* \"#utility.yul\":5784:5833   */\n      tag_326\n      jump\t// in\n    tag_443:\n        /* \"#utility.yul\":5768:5834   */\n      tag_325\n      jump\t// in\n    tag_442:\n        /* \"#utility.yul\":5759:5834   */\n      swap1\n      pop\n        /* \"#utility.yul\":5857:5863   */\n      dup3\n        /* \"#utility.yul\":5850:5855   */\n      dup2\n        /* \"#utility.yul\":5843:5864   */\n      mstore\n        /* \"#utility.yul\":5895:5899   */\n      0x20\n        /* \"#utility.yul\":5888:5893   */\n      dup2\n        /* \"#utility.yul\":5884:5900   */\n      add\n        /* \"#utility.yul\":5933:5936   */\n      dup5\n        /* \"#utility.yul\":5924:5930   */\n      dup5\n        /* \"#utility.yul\":5919:5922   */\n      dup5\n        /* \"#utility.yul\":5915:5931   */\n      add\n        /* \"#utility.yul\":5912:5937   */\n      gt\n        /* \"#utility.yul\":5909:6021   */\n      iszero\n      tag_444\n      jumpi\n        /* \"#utility.yul\":5940:6019   */\n      tag_445\n      tag_321\n      jump\t// in\n    tag_445:\n        /* \"#utility.yul\":5909:6021   */\n    tag_444:\n        /* \"#utility.yul\":6030:6084   */\n      tag_446\n        /* \"#utility.yul\":6077:6083   */\n      dup5\n        /* \"#utility.yul\":6072:6075   */\n      dup3\n        /* \"#utility.yul\":6067:6070   */\n      dup6\n        /* \"#utility.yul\":6030:6084   */\n      tag_327\n      jump\t// in\n    tag_446:\n        /* \"#utility.yul\":5749:6090   */\n      pop\n        /* \"#utility.yul\":5665:6090   */\n      swap4\n      swap3\n      pop\n      pop\n      pop\n      jump\t// out\n        /* \"#utility.yul\":6110:6450   */\n    tag_329:\n        /* \"#utility.yul\":6166:6171   */\n      0x00\n        /* \"#utility.yul\":6215:6218   */\n      dup3\n        /* \"#utility.yul\":6208:6212   */\n      0x1f\n        /* \"#utility.yul\":6200:6206   */\n      dup4\n        /* \"#utility.yul\":6196:6213   */\n      add\n        /* \"#utility.yul\":6192:6219   */\n      slt\n        /* \"#utility.yul\":6182:6304   */\n      tag_448\n      jumpi\n        /* \"#utility.yul\":6223:6302   */\n      tag_449\n      tag_320\n      jump\t// in\n    tag_449:\n        /* \"#utility.yul\":6182:6304   */\n    tag_448:\n        /* \"#utility.yul\":6340:6346   */\n      dup2\n        /* \"#utility.yul\":6327:6347   */\n      calldataload\n        /* \"#utility.yul\":6365:6444   */\n      tag_450\n        /* \"#utility.yul\":6440:6443   */\n      dup5\n        /* \"#utility.yul\":6432:6438   */\n      dup3\n        /* \"#utility.yul\":6425:6429   */\n      0x20\n        /* \"#utility.yul\":6417:6423   */\n      dup7\n        /* \"#utility.yul\":6413:6430   */\n      add\n        /* \"#utility.yul\":6365:6444   */\n      tag_328\n      jump\t// in\n    tag_450:\n        /* \"#utility.yul\":6356:6444   */\n      swap2\n      pop\n        /* \"#utility.yul\":6172:6450   */\n      pop\n        /* \"#utility.yul\":6110:6450   */\n      swap3\n      swap2\n      pop\n      pop\n      jump\t// out\n        /* \"#utility.yul\":6456:6965   */\n    tag_74:\n        /* \"#utility.yul\":6525:6531   */\n      0x00\n        /* \"#utility.yul\":6574:6576   */\n      0x20\n        /* \"#utility.yul\":6562:6571   */\n      dup3\n        /* \"#utility.yul\":6553:6560   */\n      dup5\n        /* \"#utility.yul\":6549:6572   */\n      sub\n        /* \"#utility.yul\":6545:6577   */\n      slt\n        /* \"#utility.yul\":6542:6661   */\n      iszero\n      tag_452\n      jumpi\n        /* \"#utility.yul\":6580:6659   */\n      tag_453\n      tag_304\n      jump\t// in\n    tag_453:\n        /* \"#utility.yul\":6542:6661   */\n    tag_452:\n        /* \"#utility.yul\":6728:6729   */\n      0x00\n        /* \"#utility.yul\":6717:6726   */\n      dup3\n        /* \"#utility.yul\":6713:6730   */\n      add\n        /* \"#utility.yul\":6700:6731   */\n      calldataload\n        /* \"#utility.yul\":6758:6776   */\n      0xffffffffffffffff\n        /* \"#utility.yul\":6750:6756   */\n      dup2\n        /* \"#utility.yul\":6747:6777   */\n      gt\n        /* \"#utility.yul\":6744:6861   */\n      iszero\n      tag_454\n      jumpi\n        /* \"#utility.yul\":6780:6859   */\n      tag_455\n      tag_305\n      jump\t// in\n    tag_455:\n        /* \"#utility.yul\":6744:6861   */\n    tag_454:\n        /* \"#utility.yul\":6885:6948   */\n      tag_456\n        /* \"#utility.yul\":6940:6947   */\n      dup5\n        /* \"#utility.yul\":6931:6937   */\n      dup3\n        /* \"#utility.yul\":6920:6929   */\n      dup6\n        /* \"#utility.yul\":6916:6938   */\n      add\n        /* \"#utility.yul\":6885:6948   */\n      tag_329\n      jump\t// in\n    tag_456:\n        /* \"#utility.yul\":6875:6948   */\n      swap2\n      pop\n        /* \"#utility.yul\":6671:6958   */\n      pop\n        /* \"#utility.yul\":6456:6965   */\n      swap3\n      swap2\n      pop\n      pop\n      jump\t// out\n        /* \"#utility.yul\":6971:7089   */\n    tag_330:\n        /* \"#utility.yul\":7008:7015   */\n      0x00\n        /* \"#utility.yul\":7048:7082   */\n      0xffffffffffffffffffffffffffffffff\n        /* \"#utility.yul\":7041:7046   */\n      dup3\n        /* \"#utility.yul\":7037:7083   */\n      and\n        /* \"#utility.yul\":7026:7083   */\n      swap1\n      pop\n        /* \"#utility.yul\":6971:7089   */\n      swap2\n      swap1\n      pop\n      jump\t// out\n        /* \"#utility.yul\":7095:7217   */\n    tag_331:\n        /* \"#utility.yul\":7168:7192   */\n      tag_459\n        /* \"#utility.yul\":7186:7191   */\n      dup2\n        /* \"#utility.yul\":7168:7192   */\n      tag_330\n      jump\t// in\n    tag_459:\n        /* \"#utility.yul\":7161:7166   */\n      dup2\n        /* \"#utility.yul\":7158:7193   */\n      eq\n        /* \"#utility.yul\":7148:7211   */\n      tag_460\n      jumpi\n        /* \"#utility.yul\":7207:7208   */\n      0x00\n        /* \"#utility.yul\":7204:7205   */\n      dup1\n        /* \"#utility.yul\":7197:7209   */\n      revert\n        /* \"#utility.yul\":7148:7211   */\n    tag_460:\n        /* \"#utility.yul\":7095:7217   */\n      pop\n      jump\t// out\n        /* \"#utility.yul\":7223:7362   */\n    tag_332:\n        /* \"#utility.yul\":7269:7274   */\n      0x00\n        /* \"#utility.yul\":7307:7313   */\n      dup2\n        /* \"#utility.yul\":7294:7314   */\n      calldataload\n        /* \"#utility.yul\":7285:7314   */\n      swap1\n      pop\n        /* \"#utility.yul\":7323:7356   */\n      tag_462\n        /* \"#utility.yul\":7350:7355   */\n      dup2\n        /* \"#utility.yul\":7323:7356   */\n      tag_331\n      jump\t// in\n    tag_462:\n        /* \"#utility.yul\":7223:7362   */\n      swap3\n      swap2\n      pop\n      pop\n      jump\t// out\n        /* \"#utility.yul\":7368:8167   */\n    tag_81:\n        /* \"#utility.yul\":7455:7461   */\n      0x00\n        /* \"#utility.yul\":7463:7469   */\n      dup1\n        /* \"#utility.yul\":7471:7477   */\n      0x00\n        /* \"#utility.yul\":7520:7522   */\n      0x60\n        /* \"#utility.yul\":7508:7517   */\n      dup5\n        /* \"#utility.yul\":7499:7506   */\n      dup7\n        /* \"#utility.yul\":7495:7518   */\n      sub\n        /* \"#utility.yul\":7491:7523   */\n      slt\n        /* \"#utility.yul\":7488:7607   */\n      iszero\n      tag_464\n      jumpi\n        /* \"#utility.yul\":7526:7605   */\n      tag_465\n      tag_304\n      jump\t// in\n    tag_465:\n        /* \"#utility.yul\":7488:7607   */\n    tag_464:\n        /* \"#utility.yul\":7646:7647   */\n      0x00\n        /* \"#utility.yul\":7671:7724   */\n      tag_466\n        /* \"#utility.yul\":7716:7723   */\n      dup7\n        /* \"#utility.yul\":7707:7713   */\n      dup3\n        /* \"#utility.yul\":7696:7705   */\n      dup8\n        /* \"#utility.yul\":7692:7714   */\n      add\n        /* \"#utility.yul\":7671:7724   */\n      tag_314\n      jump\t// in\n    tag_466:\n        /* \"#utility.yul\":7661:7724   */\n      swap4\n      pop\n        /* \"#utility.yul\":7617:7734   */\n      pop\n        /* \"#utility.yul\":7801:7803   */\n      0x20\n        /* \"#utility.yul\":7790:7799   */\n      dup5\n        /* \"#utility.yul\":7786:7804   */\n      add\n        /* \"#utility.yul\":7773:7805   */\n      calldataload\n        /* \"#utility.yul\":7832:7850   */\n      0xffffffffffffffff\n        /* \"#utility.yul\":7824:7830   */\n      dup2\n        /* \"#utility.yul\":7821:7851   */\n      gt\n        /* \"#utility.yul\":7818:7935   */\n      iszero\n      tag_467\n      jumpi\n        /* \"#utility.yul\":7854:7933   */\n      tag_468\n      tag_305\n      jump\t// in\n    tag_468:\n        /* \"#utility.yul\":7818:7935   */\n    tag_467:\n        /* \"#utility.yul\":7959:8022   */\n      tag_469\n        /* \"#utility.yul\":8014:8021   */\n      dup7\n        /* \"#utility.yul\":8005:8011   */\n      dup3\n        /* \"#utility.yul\":7994:8003   */\n      dup8\n        /* \"#utility.yul\":7990:8012   */\n      add\n        /* \"#utility.yul\":7959:8022   */\n      tag_329\n      jump\t// in\n    tag_469:\n        /* \"#utility.yul\":7949:8022   */\n      swap3\n      pop\n        /* \"#utility.yul\":7744:8032   */\n      pop\n        /* \"#utility.yul\":8071:8073   */\n      0x40\n        /* \"#utility.yul\":8097:8150   */\n      tag_470\n        /* \"#utility.yul\":8142:8149   */\n      dup7\n        /* \"#utility.yul\":8133:8139   */\n      dup3\n        /* \"#utility.yul\":8122:8131   */\n      dup8\n        /* \"#utility.yul\":8118:8140   */\n      add\n        /* \"#utility.yul\":8097:8150   */\n      tag_332\n      jump\t// in\n    tag_470:\n        /* \"#utility.yul\":8087:8150   */\n      swap2\n      pop\n        /* \"#utility.yul\":8042:8160   */\n      pop\n        /* \"#utility.yul\":7368:8167   */\n      swap3\n      pop\n      swap3\n      pop\n      swap3\n      jump\t// out\n        /* \"#utility.yul\":8173:8250   */\n    tag_333:\n        /* \"#utility.yul\":8210:8217   */\n      0x00\n        /* \"#utility.yul\":8239:8244   */\n      dup2\n        /* \"#utility.yul\":8228:8244   */\n      swap1\n      pop\n        /* \"#utility.yul\":8173:8250   */\n      swap2\n      swap1\n      pop\n      jump\t// out\n        /* \"#utility.yul\":8256:8378   */\n    tag_334:\n        /* \"#utility.yul\":8329:8353   */\n      tag_473\n        /* \"#utility.yul\":8347:8352   */\n      dup2\n        /* \"#utility.yul\":8329:8353   */\n      tag_333\n      jump\t// in\n    tag_473:\n        /* \"#utility.yul\":8322:8327   */\n      dup2\n        /* \"#utility.yul\":8319:8354   */\n      eq\n        /* \"#utility.yul\":8309:8372   */\n      tag_474\n      jumpi\n        /* \"#utility.yul\":8368:8369   */\n      0x00\n        /* \"#utility.yul\":8365:8366   */\n      dup1\n        /* \"#utility.yul\":8358:8370   */\n      revert\n        /* \"#utility.yul\":8309:8372   */\n    tag_474:\n        /* \"#utility.yul\":8256:8378   */\n      pop\n      jump\t// out\n        /* \"#utility.yul\":8384:8523   */\n    tag_335:\n        /* \"#utility.yul\":8430:8435   */\n      0x00\n        /* \"#utility.yul\":8468:8474   */\n      dup2\n        /* \"#utility.yul\":8455:8475   */\n      calldataload\n        /* \"#utility.yul\":8446:8475   */\n      swap1\n      pop\n        /* \"#utility.yul\":8484:8517   */\n      tag_476\n        /* \"#utility.yul\":8511:8516   */\n      dup2\n        /* \"#utility.yul\":8484:8517   */\n      tag_334\n      jump\t// in\n    tag_476:\n        /* \"#utility.yul\":8384:8523   */\n      swap3\n      swap2\n      pop\n      pop\n      jump\t// out\n        /* \"#utility.yul\":8529:8858   */\n    tag_88:\n        /* \"#utility.yul\":8588:8594   */\n      0x00\n        /* \"#utility.yul\":8637:8639   */\n      0x20\n        /* \"#utility.yul\":8625:8634   */\n      dup3\n        /* \"#utility.yul\":8616:8623   */\n      dup5\n        /* \"#utility.yul\":8612:8635   */\n      sub\n        /* \"#utility.yul\":8608:8640   */\n      slt\n        /* \"#utility.yul\":8605:8724   */\n      iszero\n      tag_478\n      jumpi\n        /* \"#utility.yul\":8643:8722   */\n      tag_479\n      tag_304\n      jump\t// in\n    tag_479:\n        /* \"#utility.yul\":8605:8724   */\n    tag_478:\n        /* \"#utility.yul\":8763:8764   */\n      0x00\n        /* \"#utility.yul\":8788:8841   */\n      tag_480\n        /* \"#utility.yul\":8833:8840   */\n      dup5\n        /* \"#utility.yul\":8824:8830   */\n      dup3\n        /* \"#utility.yul\":8813:8822   */\n      dup6\n        /* \"#utility.yul\":8809:8831   */\n      add\n        /* \"#utility.yul\":8788:8841   */\n      tag_335\n      jump\t// in\n    tag_480:\n        /* \"#utility.yul\":8778:8841   */\n      swap2\n      pop\n        /* \"#utility.yul\":8734:8851   */\n      pop\n        /* \"#utility.yul\":8529:8858   */\n      swap3\n      swap2\n      pop\n      pop\n      jump\t// out\n        /* \"#utility.yul\":8864:8963   */\n    tag_336:\n        /* \"#utility.yul\":8916:8922   */\n      0x00\n        /* \"#utility.yul\":8950:8955   */\n      dup2\n        /* \"#utility.yul\":8944:8956   */\n      mload\n        /* \"#utility.yul\":8934:8956   */\n      swap1\n      pop\n        /* \"#utility.yul\":8864:8963   */\n      swap2\n      swap1\n      pop\n      jump\t// out\n        /* \"#utility.yul\":8969:9138   */\n    tag_337:\n        /* \"#utility.yul\":9053:9064   */\n      0x00\n        /* \"#utility.yul\":9087:9093   */\n      dup3\n        /* \"#utility.yul\":9082:9085   */\n      dup3\n        /* \"#utility.yul\":9075:9094   */\n      mstore\n        /* \"#utility.yul\":9127:9131   */\n      0x20\n        /* \"#utility.yul\":9122:9125   */\n      dup3\n        /* \"#utility.yul\":9118:9132   */\n      add\n        /* \"#utility.yul\":9103:9132   */\n      swap1\n      pop\n        /* \"#utility.yul\":8969:9138   */\n      swap3\n      swap2\n      pop\n      pop\n      jump\t// out\n        /* \"#utility.yul\":9144:9283   */\n    tag_338:\n        /* \"#utility.yul\":9233:9239   */\n      dup3\n        /* \"#utility.yul\":9228:9231   */\n      dup2\n        /* \"#utility.yul\":9223:9226   */\n      dup4\n        /* \"#utility.yul\":9217:9240   */\n      mcopy\n        /* \"#utility.yul\":9274:9275   */\n      0x00\n        /* \"#utility.yul\":9265:9271   */\n      dup4\n        /* \"#utility.yul\":9260:9263   */\n      dup4\n        /* \"#utility.yul\":9256:9272   */\n      add\n        /* \"#utility.yul\":9249:9276   */\n      mstore\n        /* \"#utility.yul\":9144:9283   */\n      pop\n      pop\n      pop\n      jump\t// out\n        /* \"#utility.yul\":9289:9666   */\n    tag_339:\n        /* \"#utility.yul\":9377:9380   */\n      0x00\n        /* \"#utility.yul\":9405:9444   */\n      tag_485\n        /* \"#utility.yul\":9438:9443   */\n      dup3\n        /* \"#utility.yul\":9405:9444   */\n      tag_336\n      jump\t// in\n    tag_485:\n        /* \"#utility.yul\":9460:9531   */\n      tag_486\n        /* \"#utility.yul\":9524:9530   */\n      dup2\n        /* \"#utility.yul\":9519:9522   */\n      dup6\n        /* \"#utility.yul\":9460:9531   */\n      tag_337\n      jump\t// in\n    tag_486:\n        /* \"#utility.yul\":9453:9531   */\n      swap4\n      pop\n        /* \"#utility.yul\":9540:9605   */\n      tag_487\n        /* \"#utility.yul\":9598:9604   */\n      dup2\n        /* \"#utility.yul\":9593:9596   */\n      dup6\n        /* \"#utility.yul\":9586:9590   */\n      0x20\n        /* \"#utility.yul\":9579:9584   */\n      dup7\n        /* \"#utility.yul\":9575:9591   */\n      add\n        /* \"#utility.yul\":9540:9605   */\n      tag_338\n      jump\t// in\n    tag_487:\n        /* \"#utility.yul\":9630:9659   */\n      tag_488\n        /* \"#utility.yul\":9652:9658   */\n      dup2\n        /* \"#utility.yul\":9630:9659   */\n      tag_322\n      jump\t// in\n    tag_488:\n        /* \"#utility.yul\":9625:9628   */\n      dup5\n        /* \"#utility.yul\":9621:9660   */\n      add\n        /* \"#utility.yul\":9614:9660   */\n      swap2\n      pop\n        /* \"#utility.yul\":9381:9666   */\n      pop\n        /* \"#utility.yul\":9289:9666   */\n      swap3\n      swap2\n      pop\n      pop\n      jump\t// out\n        /* \"#utility.yul\":9672:9985   */\n    tag_91:\n        /* \"#utility.yul\":9785:9789   */\n      0x00\n        /* \"#utility.yul\":9823:9825   */\n      0x20\n        /* \"#utility.yul\":9812:9821   */\n      dup3\n        /* \"#utility.yul\":9808:9826   */\n      add\n        /* \"#utility.yul\":9800:9826   */\n      swap1\n      pop\n        /* \"#utility.yul\":9872:9881   */\n      dup2\n        /* \"#utility.yul\":9866:9870   */\n      dup2\n        /* \"#utility.yul\":9862:9882   */\n      sub\n        /* \"#utility.yul\":9858:9859   */\n      0x00\n        /* \"#utility.yul\":9847:9856   */\n      dup4\n        /* \"#utility.yul\":9843:9860   */\n      add\n        /* \"#utility.yul\":9836:9883   */\n      mstore\n        /* \"#utility.yul\":9900:9978   */\n      tag_490\n        /* \"#utility.yul\":9973:9977   */\n      dup2\n        /* \"#utility.yul\":9964:9970   */\n      dup5\n        /* \"#utility.yul\":9900:9978   */\n      tag_339\n      jump\t// in\n    tag_490:\n        /* \"#utility.yul\":9892:9978   */\n      swap1\n      pop\n        /* \"#utility.yul\":9672:9985   */\n      swap3\n      swap2\n      pop\n      pop\n      jump\t// out\n        /* \"#utility.yul\":9991:10645   */\n    tag_97:\n        /* \"#utility.yul\":10069:10075   */\n      0x00\n        /* \"#utility.yul\":10077:10083   */\n      dup1\n        /* \"#utility.yul\":10126:10128   */\n      0x40\n        /* \"#utility.yul\":10114:10123   */\n      dup4\n        /* \"#utility.yul\":10105:10112   */\n      dup6\n        /* \"#utility.yul\":10101:10124   */\n      sub\n        /* \"#utility.yul\":10097:10129   */\n      slt\n        /* \"#utility.yul\":10094:10213   */\n      iszero\n      tag_492\n      jumpi\n        /* \"#utility.yul\":10132:10211   */\n      tag_493\n      tag_304\n      jump\t// in\n    tag_493:\n        /* \"#utility.yul\":10094:10213   */\n    tag_492:\n        /* \"#utility.yul\":10252:10253   */\n      0x00\n        /* \"#utility.yul\":10277:10330   */\n      tag_494\n        /* \"#utility.yul\":10322:10329   */\n      dup6\n        /* \"#utility.yul\":10313:10319   */\n      dup3\n        /* \"#utility.yul\":10302:10311   */\n      dup7\n        /* \"#utility.yul\":10298:10320   */\n      add\n        /* \"#utility.yul\":10277:10330   */\n      tag_314\n      jump\t// in\n    tag_494:\n        /* \"#utility.yul\":10267:10330   */\n      swap3\n      pop\n        /* \"#utility.yul\":10223:10340   */\n      pop\n        /* \"#utility.yul\":10407:10409   */\n      0x20\n        /* \"#utility.yul\":10396:10405   */\n      dup4\n        /* \"#utility.yul\":10392:10410   */\n      add\n        /* \"#utility.yul\":10379:10411   */\n      calldataload\n        /* \"#utility.yul\":10438:10456   */\n      0xffffffffffffffff\n        /* \"#utility.yul\":10430:10436   */\n      dup2\n        /* \"#utility.yul\":10427:10457   */\n      gt\n        /* \"#utility.yul\":10424:10541   */\n      iszero\n      tag_495\n      jumpi\n        /* \"#utility.yul\":10460:10539   */\n      tag_496\n      tag_305\n      jump\t// in\n    tag_496:\n        /* \"#utility.yul\":10424:10541   */\n    tag_495:\n        /* \"#utility.yul\":10565:10628   */\n      tag_497\n        /* \"#utility.yul\":10620:10627   */\n      dup6\n        /* \"#utility.yul\":10611:10617   */\n      dup3\n        /* \"#utility.yul\":10600:10609   */\n      dup7\n        /* \"#utility.yul\":10596:10618   */\n      add\n        /* \"#utility.yul\":10565:10628   */\n      tag_329\n      jump\t// in\n    tag_497:\n        /* \"#utility.yul\":10555:10628   */\n      swap2\n      pop\n        /* \"#utility.yul\":10350:10638   */\n      pop\n        /* \"#utility.yul\":9991:10645   */\n      swap3\n      pop\n      swap3\n      swap1\n      pop\n      jump\t// out\n        /* \"#utility.yul\":10651:10769   */\n    tag_340:\n        /* \"#utility.yul\":10738:10762   */\n      tag_499\n        /* \"#utility.yul\":10756:10761   */\n      dup2\n        /* \"#utility.yul\":10738:10762   */\n      tag_330\n      jump\t// in\n    tag_499:\n        /* \"#utility.yul\":10733:10736   */\n      dup3\n        /* \"#utility.yul\":10726:10763   */\n      mstore\n        /* \"#utility.yul\":10651:10769   */\n      pop\n      pop\n      jump\t// out\n        /* \"#utility.yul\":10775:10997   */\n    tag_100:\n        /* \"#utility.yul\":10868:10872   */\n      0x00\n        /* \"#utility.yul\":10906:10908   */\n      0x20\n        /* \"#utility.yul\":10895:10904   */\n      dup3\n        /* \"#utility.yul\":10891:10909   */\n      add\n        /* \"#utility.yul\":10883:10909   */\n      swap1\n      pop\n        /* \"#utility.yul\":10919:10990   */\n      tag_501\n        /* \"#utility.yul\":10987:10988   */\n      0x00\n        /* \"#utility.yul\":10976:10985   */\n      dup4\n        /* \"#utility.yul\":10972:10989   */\n      add\n        /* \"#utility.yul\":10963:10969   */\n      dup5\n        /* \"#utility.yul\":10919:10990   */\n      tag_340\n      jump\t// in\n    tag_501:\n        /* \"#utility.yul\":10775:10997   */\n      swap3\n      swap2\n      pop\n      pop\n      jump\t// out\n        /* \"#utility.yul\":11003:11151   */\n    tag_341:\n        /* \"#utility.yul\":11105:11116   */\n      0x00\n        /* \"#utility.yul\":11142:11145   */\n      dup2\n        /* \"#utility.yul\":11127:11145   */\n      swap1\n      pop\n        /* \"#utility.yul\":11003:11151   */\n      swap3\n      swap2\n      pop\n      pop\n      jump\t// out\n        /* \"#utility.yul\":11157:11547   */\n    tag_342:\n        /* \"#utility.yul\":11263:11266   */\n      0x00\n        /* \"#utility.yul\":11291:11330   */\n      tag_504\n        /* \"#utility.yul\":11324:11329   */\n      dup3\n        /* \"#utility.yul\":11291:11330   */\n      tag_336\n      jump\t// in\n    tag_504:\n        /* \"#utility.yul\":11346:11435   */\n      tag_505\n        /* \"#utility.yul\":11428:11434   */\n      dup2\n        /* \"#utility.yul\":11423:11426   */\n      dup6\n        /* \"#utility.yul\":11346:11435   */\n      tag_341\n      jump\t// in\n    tag_505:\n        /* \"#utility.yul\":11339:11435   */\n      swap4\n      pop\n        /* \"#utility.yul\":11444:11509   */\n      tag_506\n        /* \"#utility.yul\":11502:11508   */\n      dup2\n        /* \"#utility.yul\":11497:11500   */\n      dup6\n        /* \"#utility.yul\":11490:11494   */\n      0x20\n        /* \"#utility.yul\":11483:11488   */\n      dup7\n        /* \"#utility.yul\":11479:11495   */\n      add\n        /* \"#utility.yul\":11444:11509   */\n      tag_338\n      jump\t// in\n    tag_506:\n        /* \"#utility.yul\":11534:11540   */\n      dup1\n        /* \"#utility.yul\":11529:11532   */\n      dup5\n        /* \"#utility.yul\":11525:11541   */\n      add\n        /* \"#utility.yul\":11518:11541   */\n      swap2\n      pop\n        /* \"#utility.yul\":11267:11547   */\n      pop\n        /* \"#utility.yul\":11157:11547   */\n      swap3\n      swap2\n      pop\n      pop\n      jump\t// out\n        /* \"#utility.yul\":11553:11828   */\n    tag_149:\n        /* \"#utility.yul\":11685:11688   */\n      0x00\n        /* \"#utility.yul\":11707:11802   */\n      tag_508\n        /* \"#utility.yul\":11798:11801   */\n      dup3\n        /* \"#utility.yul\":11789:11795   */\n      dup5\n        /* \"#utility.yul\":11707:11802   */\n      tag_342\n      jump\t// in\n    tag_508:\n        /* \"#utility.yul\":11700:11802   */\n      swap2\n      pop\n        /* \"#utility.yul\":11819:11822   */\n      dup2\n        /* \"#utility.yul\":11812:11822   */\n      swap1\n      pop\n        /* \"#utility.yul\":11553:11828   */\n      swap3\n      swap2\n      pop\n      pop\n      jump\t// out\n        /* \"#utility.yul\":11834:12014   */\n    tag_158:\n        /* \"#utility.yul\":11882:11959   */\n      0x4e487b7100000000000000000000000000000000000000000000000000000000\n        /* \"#utility.yul\":11879:11880   */\n      0x00\n        /* \"#utility.yul\":11872:11960   */\n      mstore\n        /* \"#utility.yul\":11979:11983   */\n      0x32\n        /* \"#utility.yul\":11976:11977   */\n      0x04\n        /* \"#utility.yul\":11969:11984   */\n      mstore\n        /* \"#utility.yul\":12003:12007   */\n      0x24\n        /* \"#utility.yul\":12000:12001   */\n      0x00\n        /* \"#utility.yul\":11993:12008   */\n      revert\n        /* \"#utility.yul\":12020:12200   */\n    tag_343:\n        /* \"#utility.yul\":12068:12145   */\n      0x4e487b7100000000000000000000000000000000000000000000000000000000\n        /* \"#utility.yul\":12065:12066   */\n      0x00\n        /* \"#utility.yul\":12058:12146   */\n      mstore\n        /* \"#utility.yul\":12165:12169   */\n      0x22\n        /* \"#utility.yul\":12162:12163   */\n      0x04\n        /* \"#utility.yul\":12155:12170   */\n      mstore\n        /* \"#utility.yul\":12189:12193   */\n      0x24\n        /* \"#utility.yul\":12186:12187   */\n      0x00\n        /* \"#utility.yul\":12179:12194   */\n      revert\n        /* \"#utility.yul\":12206:12526   */\n    tag_223:\n        /* \"#utility.yul\":12250:12256   */\n      0x00\n        /* \"#utility.yul\":12287:12288   */\n      0x02\n        /* \"#utility.yul\":12281:12285   */\n      dup3\n        /* \"#utility.yul\":12277:12289   */\n      div\n        /* \"#utility.yul\":12267:12289   */\n      swap1\n      pop\n        /* \"#utility.yul\":12334:12335   */\n      0x01\n        /* \"#utility.yul\":12328:12332   */\n      dup3\n        /* \"#utility.yul\":12324:12336   */\n      and\n        /* \"#utility.yul\":12355:12373   */\n      dup1\n        /* \"#utility.yul\":12345:12426   */\n      tag_512\n      jumpi\n        /* \"#utility.yul\":12411:12415   */\n      0x7f\n        /* \"#utility.yul\":12403:12409   */\n      dup3\n        /* \"#utility.yul\":12399:12416   */\n      and\n        /* \"#utility.yul\":12389:12416   */\n      swap2\n      pop\n        /* \"#utility.yul\":12345:12426   */\n    tag_512:\n        /* \"#utility.yul\":12473:12475   */\n      0x20\n        /* \"#utility.yul\":12465:12471   */\n      dup3\n        /* \"#utility.yul\":12462:12476   */\n      lt\n        /* \"#utility.yul\":12442:12460   */\n      dup2\n        /* \"#utility.yul\":12439:12477   */\n      sub\n        /* \"#utility.yul\":12436:12520   */\n      tag_513\n      jumpi\n        /* \"#utility.yul\":12492:12510   */\n      tag_514\n      tag_343\n      jump\t// in\n    tag_514:\n        /* \"#utility.yul\":12436:12520   */\n    tag_513:\n        /* \"#utility.yul\":12257:12526   */\n      pop\n        /* \"#utility.yul\":12206:12526   */\n      swap2\n      swap1\n      pop\n      jump\t// out\n        /* \"#utility.yul\":12532:12679   */\n    tag_344:\n        /* \"#utility.yul\":12633:12644   */\n      0x00\n        /* \"#utility.yul\":12670:12673   */\n      dup2\n        /* \"#utility.yul\":12655:12673   */\n      swap1\n      pop\n        /* \"#utility.yul\":12532:12679   */\n      swap3\n      swap2\n      pop\n      pop\n      jump\t// out\n        /* \"#utility.yul\":12685:12829   */\n    tag_345:\n        /* \"#utility.yul\":12737:12741   */\n      0x00\n        /* \"#utility.yul\":12760:12763   */\n      dup2\n        /* \"#utility.yul\":12752:12763   */\n      swap1\n      pop\n        /* \"#utility.yul\":12783:12786   */\n      dup2\n        /* \"#utility.yul\":12780:12781   */\n      0x00\n        /* \"#utility.yul\":12773:12787   */\n      mstore\n        /* \"#utility.yul\":12817:12821   */\n      0x20\n        /* \"#utility.yul\":12814:12815   */\n      0x00\n        /* \"#utility.yul\":12804:12822   */\n      keccak256\n        /* \"#utility.yul\":12796:12822   */\n      swap1\n      pop\n        /* \"#utility.yul\":12685:12829   */\n      swap2\n      swap1\n      pop\n      jump\t// out\n        /* \"#utility.yul\":12857:13735   */\n    tag_346:\n        /* \"#utility.yul\":12962:12965   */\n      0x00\n        /* \"#utility.yul\":12999:13004   */\n      dup2\n        /* \"#utility.yul\":12993:13005   */\n      sload\n        /* \"#utility.yul\":13028:13064   */\n      tag_518\n        /* \"#utility.yul\":13054:13063   */\n      dup2\n        /* \"#utility.yul\":13028:13064   */\n      tag_223\n      jump\t// in\n    tag_518:\n        /* \"#utility.yul\":13080:13168   */\n      tag_519\n        /* \"#utility.yul\":13161:13167   */\n      dup2\n        /* \"#utility.yul\":13156:13159   */\n      dup7\n        /* \"#utility.yul\":13080:13168   */\n      tag_344\n      jump\t// in\n    tag_519:\n        /* \"#utility.yul\":13073:13168   */\n      swap5\n      pop\n        /* \"#utility.yul\":13199:13200   */\n      0x01\n        /* \"#utility.yul\":13188:13197   */\n      dup3\n        /* \"#utility.yul\":13184:13201   */\n      and\n        /* \"#utility.yul\":13215:13216   */\n      0x00\n        /* \"#utility.yul\":13210:13376   */\n      dup2\n      eq\n      tag_521\n      jumpi\n        /* \"#utility.yul\":13390:13391   */\n      0x01\n        /* \"#utility.yul\":13385:13729   */\n      dup2\n      eq\n      tag_522\n      jumpi\n        /* \"#utility.yul\":13177:13729   */\n      jump(tag_520)\n        /* \"#utility.yul\":13210:13376   */\n    tag_521:\n        /* \"#utility.yul\":13294:13298   */\n      0xff\n        /* \"#utility.yul\":13290:13299   */\n      not\n        /* \"#utility.yul\":13279:13288   */\n      dup4\n        /* \"#utility.yul\":13275:13300   */\n      and\n        /* \"#utility.yul\":13270:13273   */\n      dup7\n        /* \"#utility.yul\":13263:13301   */\n      mstore\n        /* \"#utility.yul\":13356:13362   */\n      dup2\n        /* \"#utility.yul\":13349:13363   */\n      iszero\n        /* \"#utility.yul\":13342:13364   */\n      iszero\n        /* \"#utility.yul\":13334:13340   */\n      dup3\n        /* \"#utility.yul\":13330:13365   */\n      mul\n        /* \"#utility.yul\":13325:13328   */\n      dup7\n        /* \"#utility.yul\":13321:13366   */\n      add\n        /* \"#utility.yul\":13314:13366   */\n      swap4\n      pop\n        /* \"#utility.yul\":13210:13376   */\n      jump(tag_520)\n        /* \"#utility.yul\":13385:13729   */\n    tag_522:\n        /* \"#utility.yul\":13452:13493   */\n      tag_523\n        /* \"#utility.yul\":13487:13492   */\n      dup6\n        /* \"#utility.yul\":13452:13493   */\n      tag_345\n      jump\t// in\n    tag_523:\n        /* \"#utility.yul\":13515:13516   */\n      0x00\n        /* \"#utility.yul\":13529:13683   */\n    tag_524:\n        /* \"#utility.yul\":13543:13549   */\n      dup4\n        /* \"#utility.yul\":13540:13541   */\n      dup2\n        /* \"#utility.yul\":13537:13550   */\n      lt\n        /* \"#utility.yul\":13529:13683   */\n      iszero\n      tag_526\n      jumpi\n        /* \"#utility.yul\":13617:13624   */\n      dup2\n        /* \"#utility.yul\":13611:13625   */\n      sload\n        /* \"#utility.yul\":13607:13608   */\n      dup2\n        /* \"#utility.yul\":13602:13605   */\n      dup10\n        /* \"#utility.yul\":13598:13609   */\n      add\n        /* \"#utility.yul\":13591:13626   */\n      mstore\n        /* \"#utility.yul\":13667:13668   */\n      0x01\n        /* \"#utility.yul\":13658:13665   */\n      dup3\n        /* \"#utility.yul\":13654:13669   */\n      add\n        /* \"#utility.yul\":13643:13669   */\n      swap2\n      pop\n        /* \"#utility.yul\":13565:13569   */\n      0x20\n        /* \"#utility.yul\":13562:13563   */\n      dup2\n        /* \"#utility.yul\":13558:13570   */\n      add\n        /* \"#utility.yul\":13553:13570   */\n      swap1\n      pop\n        /* \"#utility.yul\":13529:13683   */\n      jump(tag_524)\n    tag_526:\n        /* \"#utility.yul\":13712:13718   */\n      dup4\n        /* \"#utility.yul\":13707:13710   */\n      dup9\n        /* \"#utility.yul\":13703:13719   */\n      add\n        /* \"#utility.yul\":13696:13719   */\n      swap6\n      pop\n        /* \"#utility.yul\":13392:13729   */\n      pop\n      pop\n        /* \"#utility.yul\":13177:13729   */\n    tag_520:\n      pop\n        /* \"#utility.yul\":12966:13735   */\n      pop\n      pop\n        /* \"#utility.yul\":12857:13735   */\n      swap3\n      swap2\n      pop\n      pop\n      jump\t// out\n        /* \"#utility.yul\":13741:14014   */\n    tag_161:\n        /* \"#utility.yul\":13872:13875   */\n      0x00\n        /* \"#utility.yul\":13894:13988   */\n      tag_528\n        /* \"#utility.yul\":13984:13987   */\n      dup3\n        /* \"#utility.yul\":13975:13981   */\n      dup5\n        /* \"#utility.yul\":13894:13988   */\n      tag_346\n      jump\t// in\n    tag_528:\n        /* \"#utility.yul\":13887:13988   */\n      swap2\n      pop\n        /* \"#utility.yul\":14005:14008   */\n      dup2\n        /* \"#utility.yul\":13998:14008   */\n      swap1\n      pop\n        /* \"#utility.yul\":13741:14014   */\n      swap3\n      swap2\n      pop\n      pop\n      jump\t// out\n        /* \"#utility.yul\":14020:14200   */\n    tag_347:\n        /* \"#utility.yul\":14068:14145   */\n      0x4e487b7100000000000000000000000000000000000000000000000000000000\n        /* \"#utility.yul\":14065:14066   */\n      0x00\n        /* \"#utility.yul\":14058:14146   */\n      mstore\n        /* \"#utility.yul\":14165:14169   */\n      0x11\n        /* \"#utility.yul\":14162:14163   */\n      0x04\n        /* \"#utility.yul\":14155:14170   */\n      mstore\n        /* \"#utility.yul\":14189:14193   */\n      0x24\n        /* \"#utility.yul\":14186:14187   */\n      0x00\n        /* \"#utility.yul\":14179:14194   */\n      revert\n        /* \"#utility.yul\":14206:14400   */\n    tag_164:\n        /* \"#utility.yul\":14246:14250   */\n      0x00\n        /* \"#utility.yul\":14266:14286   */\n      tag_531\n        /* \"#utility.yul\":14284:14285   */\n      dup3\n        /* \"#utility.yul\":14266:14286   */\n      tag_333\n      jump\t// in\n    tag_531:\n        /* \"#utility.yul\":14261:14286   */\n      swap2\n      pop\n        /* \"#utility.yul\":14300:14320   */\n      tag_532\n        /* \"#utility.yul\":14318:14319   */\n      dup4\n        /* \"#utility.yul\":14300:14320   */\n      tag_333\n      jump\t// in\n    tag_532:\n        /* \"#utility.yul\":14295:14320   */\n      swap3\n      pop\n        /* \"#utility.yul\":14344:14345   */\n      dup3\n        /* \"#utility.yul\":14341:14342   */\n      dup3\n        /* \"#utility.yul\":14337:14346   */\n      sub\n        /* \"#utility.yul\":14329:14346   */\n      swap1\n      pop\n        /* \"#utility.yul\":14368:14369   */\n      dup2\n        /* \"#utility.yul\":14362:14366   */\n      dup2\n        /* \"#utility.yul\":14359:14370   */\n      gt\n        /* \"#utility.yul\":14356:14393   */\n      iszero\n      tag_533\n      jumpi\n        /* \"#utility.yul\":14373:14391   */\n      tag_534\n      tag_347\n      jump\t// in\n    tag_534:\n        /* \"#utility.yul\":14356:14393   */\n    tag_533:\n        /* \"#utility.yul\":14206:14400   */\n      swap3\n      swap2\n      pop\n      pop\n      jump\t// out\n        /* \"#utility.yul\":14406:14559   */\n    tag_348:\n        /* \"#utility.yul\":14459:14465   */\n      0x00\n        /* \"#utility.yul\":14493:14498   */\n      dup2\n        /* \"#utility.yul\":14487:14499   */\n      sload\n        /* \"#utility.yul\":14477:14499   */\n      swap1\n      pop\n        /* \"#utility.yul\":14519:14552   */\n      tag_536\n        /* \"#utility.yul\":14545:14551   */\n      dup2\n        /* \"#utility.yul\":14519:14552   */\n      tag_223\n      jump\t// in\n    tag_536:\n        /* \"#utility.yul\":14509:14552   */\n      swap1\n      pop\n        /* \"#utility.yul\":14406:14559   */\n      swap2\n      swap1\n      pop\n      jump\t// out\n        /* \"#utility.yul\":14565:14706   */\n    tag_349:\n        /* \"#utility.yul\":14614:14618   */\n      0x00\n        /* \"#utility.yul\":14637:14640   */\n      dup2\n        /* \"#utility.yul\":14629:14640   */\n      swap1\n      pop\n        /* \"#utility.yul\":14660:14663   */\n      dup2\n        /* \"#utility.yul\":14657:14658   */\n      0x00\n        /* \"#utility.yul\":14650:14664   */\n      mstore\n        /* \"#utility.yul\":14694:14698   */\n      0x20\n        /* \"#utility.yul\":14691:14692   */\n      0x00\n        /* \"#utility.yul\":14681:14699   */\n      keccak256\n        /* \"#utility.yul\":14673:14699   */\n      swap1\n      pop\n        /* \"#utility.yul\":14565:14706   */\n      swap2\n      swap1\n      pop\n      jump\t// out\n        /* \"#utility.yul\":14712:14857   */\n    tag_350:\n        /* \"#utility.yul\":14765:14769   */\n      0x00\n        /* \"#utility.yul\":14788:14791   */\n      dup2\n        /* \"#utility.yul\":14780:14791   */\n      swap1\n      pop\n        /* \"#utility.yul\":14811:14814   */\n      dup2\n        /* \"#utility.yul\":14808:14809   */\n      0x00\n        /* \"#utility.yul\":14801:14815   */\n      mstore\n        /* \"#utility.yul\":14845:14849   */\n      0x20\n        /* \"#utility.yul\":14842:14843   */\n      0x00\n        /* \"#utility.yul\":14832:14850   */\n      keccak256\n        /* \"#utility.yul\":14824:14850   */\n      swap1\n      pop\n        /* \"#utility.yul\":14712:14857   */\n      swap2\n      swap1\n      pop\n      jump\t// out\n        /* \"#utility.yul\":14863:14956   */\n    tag_351:\n        /* \"#utility.yul\":14900:14906   */\n      0x00\n        /* \"#utility.yul\":14947:14949   */\n      0x20\n        /* \"#utility.yul\":14942:14944   */\n      0x1f\n        /* \"#utility.yul\":14935:14940   */\n      dup4\n        /* \"#utility.yul\":14931:14945   */\n      add\n        /* \"#utility.yul\":14927:14950   */\n      div\n        /* \"#utility.yul\":14917:14950   */\n      swap1\n      pop\n        /* \"#utility.yul\":14863:14956   */\n      swap2\n      swap1\n      pop\n      jump\t// out\n        /* \"#utility.yul\":14962:15069   */\n    tag_352:\n        /* \"#utility.yul\":15006:15014   */\n      0x00\n        /* \"#utility.yul\":15056:15061   */\n      dup3\n        /* \"#utility.yul\":15050:15054   */\n      dup3\n        /* \"#utility.yul\":15046:15062   */\n      shl\n        /* \"#utility.yul\":15025:15062   */\n      swap1\n      pop\n        /* \"#utility.yul\":14962:15069   */\n      swap3\n      swap2\n      pop\n      pop\n      jump\t// out\n        /* \"#utility.yul\":15075:15468   */\n    tag_353:\n        /* \"#utility.yul\":15144:15150   */\n      0x00\n        /* \"#utility.yul\":15194:15195   */\n      0x08\n        /* \"#utility.yul\":15182:15192   */\n      dup4\n        /* \"#utility.yul\":15178:15196   */\n      mul\n        /* \"#utility.yul\":15217:15314   */\n      tag_542\n        /* \"#utility.yul\":15247:15313   */\n      0xffffffffffffffffffffffffffffffffffffffffffffffffffffffffffffffff\n        /* \"#utility.yul\":15236:15245   */\n      dup3\n        /* \"#utility.yul\":15217:15314   */\n      tag_352\n      jump\t// in\n    tag_542:\n        /* \"#utility.yul\":15335:15374   */\n      tag_543\n        /* \"#utility.yul\":15365:15373   */\n      dup7\n        /* \"#utility.yul\":15354:15363   */\n      dup4\n        /* \"#utility.yul\":15335:15374   */\n      tag_352\n      jump\t// in\n    tag_543:\n        /* \"#utility.yul\":15323:15374   */\n      swap6\n      pop\n        /* \"#utility.yul\":15407:15411   */\n      dup1\n        /* \"#utility.yul\":15403:15412   */\n      not\n        /* \"#utility.yul\":15396:15401   */\n      dup5\n        /* \"#utility.yul\":15392:15413   */\n      and\n        /* \"#utility.yul\":15383:15413   */\n      swap4\n      pop\n        /* \"#utility.yul\":15456:15460   */\n      dup1\n        /* \"#utility.yul\":15446:15454   */\n      dup7\n        /* \"#utility.yul\":15442:15461   */\n      and\n        /* \"#utility.yul\":15435:15440   */\n      dup5\n        /* \"#utility.yul\":15432:15462   */\n      or\n        /* \"#utility.yul\":15422:15462   */\n      swap3\n      pop\n        /* \"#utility.yul\":15151:15468   */\n      pop\n      pop\n        /* \"#utility.yul\":15075:15468   */\n      swap4\n      swap3\n      pop\n      pop\n      pop\n      jump\t// out\n        /* \"#utility.yul\":15474:15534   */\n    tag_354:\n        /* \"#utility.yul\":15502:15505   */\n      0x00\n        /* \"#utility.yul\":15523:15528   */\n      dup2\n        /* \"#utility.yul\":15516:15528   */\n      swap1\n      pop\n        /* \"#utility.yul\":15474:15534   */\n      swap2\n      swap1\n      pop\n      jump\t// out\n        /* \"#utility.yul\":15540:15682   */\n    tag_355:\n        /* \"#utility.yul\":15590:15599   */\n      0x00\n        /* \"#utility.yul\":15623:15676   */\n      tag_546\n        /* \"#utility.yul\":15641:15675   */\n      tag_547\n        /* \"#utility.yul\":15650:15674   */\n      tag_548\n        /* \"#utility.yul\":15668:15673   */\n      dup5\n        /* \"#utility.yul\":15650:15674   */\n      tag_333\n      jump\t// in\n    tag_548:\n        /* \"#utility.yul\":15641:15675   */\n      tag_354\n      jump\t// in\n    tag_547:\n        /* \"#utility.yul\":15623:15676   */\n      tag_333\n      jump\t// in\n    tag_546:\n        /* \"#utility.yul\":15610:15676   */\n      swap1\n      pop\n        /* \"#utility.yul\":15540:15682   */\n      swap2\n      swap1\n      pop\n      jump\t// out\n        /* \"#utility.yul\":15688:15763   */\n    tag_356:\n        /* \"#utility.yul\":15731:15734   */\n      0x00\n        /* \"#utility.yul\":15752:15757   */\n      dup2\n        /* \"#utility.yul\":15745:15757   */\n      swap1\n      pop\n        /* \"#utility.yul\":15688:15763   */\n      swap2\n      swap1\n      pop\n      jump\t// out\n        /* \"#utility.yul\":15769:16038   */\n    tag_357:\n        /* \"#utility.yul\":15879:15918   */\n      tag_551\n        /* \"#utility.yul\":15910:15917   */\n      dup4\n        /* \"#utility.yul\":15879:15918   */\n      tag_355\n      jump\t// in\n    tag_551:\n        /* \"#utility.yul\":15940:16031   */\n      tag_552\n        /* \"#utility.yul\":15989:16030   */\n      tag_553\n        /* \"#utility.yul\":16013:16029   */\n      dup3\n        /* \"#utility.yul\":15989:16030   */\n      tag_356\n      jump\t// in\n    tag_553:\n        /* \"#utility.yul\":15981:15987   */\n      dup5\n        /* \"#utility.yul\":15974:15978   */\n      dup5\n        /* \"#utility.yul\":15968:15979   */\n      sload\n        /* \"#utility.yul\":15940:16031   */\n      tag_353\n      jump\t// in\n    tag_552:\n        /* \"#utility.yul\":15934:15938   */\n      dup3\n        /* \"#utility.yul\":15927:16032   */\n      sstore\n        /* \"#utility.yul\":15845:16038   */\n      pop\n        /* \"#utility.yul\":15769:16038   */\n      pop\n      pop\n      pop\n      jump\t// out\n        /* \"#utility.yul\":16044:16117   */\n    tag_358:\n        /* \"#utility.yul\":16089:16092   */\n      0x00\n        /* \"#utility.yul\":16044:16117   */\n      swap1\n      jump\t// out\n        /* \"#utility.yul\":16123:16312   */\n    tag_359:\n        /* \"#utility.yul\":16200:16232   */\n      tag_556\n      tag_358\n      jump\t// in\n    tag_556:\n        /* \"#utility.yul\":16241:16306   */\n      tag_557\n        /* \"#utility.yul\":16299:16305   */\n      dup2\n        /* \"#utility.yul\":16291:16297   */\n      dup5\n        /* \"#utility.yul\":16285:16289   */\n      dup5\n        /* \"#utility.yul\":16241:16306   */\n      tag_357\n      jump\t// in\n    tag_557:\n        /* \"#utility.yul\":16176:16312   */\n      pop\n        /* \"#utility.yul\":16123:16312   */\n      pop\n      pop\n      jump\t// out\n        /* \"#utility.yul\":16318:16504   */\n    tag_360:\n        /* \"#utility.yul\":16378:16498   */\n    tag_559:\n        /* \"#utility.yul\":16395:16398   */\n      dup2\n        /* \"#utility.yul\":16388:16393   */\n      dup2\n        /* \"#utility.yul\":16385:16399   */\n      lt\n        /* \"#utility.yul\":16378:16498   */\n      iszero\n      tag_561\n      jumpi\n        /* \"#utility.yul\":16449:16488   */\n      tag_562\n        /* \"#utility.yul\":16486:16487   */\n      0x00\n        /* \"#utility.yul\":16479:16484   */\n      dup3\n        /* \"#utility.yul\":16449:16488   */\n      tag_359\n      jump\t// in\n    tag_562:\n        /* \"#utility.yul\":16422:16423   */\n      0x01\n        /* \"#utility.yul\":16415:16420   */\n      dup2\n        /* \"#utility.yul\":16411:16424   */\n      add\n        /* \"#utility.yul\":16402:16424   */\n      swap1\n      pop\n        /* \"#utility.yul\":16378:16498   */\n      jump(tag_559)\n    tag_561:\n        /* \"#utility.yul\":16318:16504   */\n      pop\n      pop\n      jump\t// out\n        /* \"#utility.yul\":16510:17053   */\n    tag_361:\n        /* \"#utility.yul\":16611:16613   */\n      0x1f\n        /* \"#utility.yul\":16606:16609   */\n      dup3\n        /* \"#utility.yul\":16603:16614   */\n      gt\n        /* \"#utility.yul\":16600:17046   */\n      iszero\n      tag_564\n      jumpi\n        /* \"#utility.yul\":16645:16683   */\n      tag_565\n        /* \"#utility.yul\":16677:16682   */\n      dup2\n        /* \"#utility.yul\":16645:16683   */\n      tag_349\n      jump\t// in\n    tag_565:\n        /* \"#utility.yul\":16729:16758   */\n      tag_566\n        /* \"#utility.yul\":16747:16757   */\n      dup5\n        /* \"#utility.yul\":16729:16758   */\n      tag_351\n      jump\t// in\n    tag_566:\n        /* \"#utility.yul\":16719:16727   */\n      dup2\n        /* \"#utility.yul\":16715:16759   */\n      add\n        /* \"#utility.yul\":16912:16914   */\n      0x20\n        /* \"#utility.yul\":16900:16910   */\n      dup6\n        /* \"#utility.yul\":16897:16915   */\n      lt\n        /* \"#utility.yul\":16894:16943   */\n      iszero\n      tag_567\n      jumpi\n        /* \"#utility.yul\":16933:16941   */\n      dup2\n        /* \"#utility.yul\":16918:16941   */\n      swap1\n      pop\n        /* \"#utility.yul\":16894:16943   */\n    tag_567:\n        /* \"#utility.yul\":16956:17036   */\n      tag_568\n        /* \"#utility.yul\":17012:17034   */\n      tag_569\n        /* \"#utility.yul\":17030:17033   */\n      dup6\n        /* \"#utility.yul\":17012:17034   */\n      tag_351\n      jump\t// in\n    tag_569:\n        /* \"#utility.yul\":17002:17010   */\n      dup4\n        /* \"#utility.yul\":16998:17035   */\n      add\n        /* \"#utility.yul\":16985:16996   */\n      dup3\n        /* \"#utility.yul\":16956:17036   */\n      tag_360\n      jump\t// in\n    tag_568:\n        /* \"#utility.yul\":16615:17046   */\n      pop\n      pop\n        /* \"#utility.yul\":16600:17046   */\n    tag_564:\n        /* \"#utility.yul\":16510:17053   */\n      pop\n      pop\n      pop\n      jump\t// out\n        /* \"#utility.yul\":17059:17176   */\n    tag_362:\n        /* \"#utility.yul\":17113:17121   */\n      0x00\n        /* \"#utility.yul\":17163:17168   */\n      dup3\n        /* \"#utility.yul\":17157:17161   */\n      dup3\n        /* \"#utility.yul\":17153:17169   */\n      shr\n        /* \"#utility.yul\":17132:17169   */\n      swap1\n      pop\n        /* \"#utility.yul\":17059:17176   */\n      swap3\n      swap2\n      pop\n      pop\n      jump\t// out\n        /* \"#utility.yul\":17182:17351   */\n    tag_363:\n        /* \"#utility.yul\":17226:17232   */\n      0x00\n        /* \"#utility.yul\":17259:17310   */\n      tag_572\n        /* \"#utility.yul\":17307:17308   */\n      0x00\n        /* \"#utility.yul\":17303:17309   */\n      not\n        /* \"#utility.yul\":17295:17300   */\n      dup5\n        /* \"#utility.yul\":17292:17293   */\n      0x08\n        /* \"#utility.yul\":17288:17301   */\n      mul\n        /* \"#utility.yul\":17259:17310   */\n      tag_362\n      jump\t// in\n    tag_572:\n        /* \"#utility.yul\":17255:17311   */\n      not\n        /* \"#utility.yul\":17340:17344   */\n      dup1\n        /* \"#utility.yul\":17334:17338   */\n      dup4\n        /* \"#utility.yul\":17330:17345   */\n      and\n        /* \"#utility.yul\":17320:17345   */\n      swap2\n      pop\n        /* \"#utility.yul\":17233:17351   */\n      pop\n        /* \"#utility.yul\":17182:17351   */\n      swap3\n      swap2\n      pop\n      pop\n      jump\t// out\n        /* \"#utility.yul\":17356:17651   */\n    tag_364:\n        /* \"#utility.yul\":17432:17436   */\n      0x00\n        /* \"#utility.yul\":17578:17607   */\n      tag_574\n        /* \"#utility.yul\":17603:17606   */\n      dup4\n        /* \"#utility.yul\":17597:17601   */\n      dup4\n        /* \"#utility.yul\":17578:17607   */\n      tag_363\n      jump\t// in\n    tag_574:\n        /* \"#utility.yul\":17570:17607   */\n      swap2\n      pop\n        /* \"#utility.yul\":17640:17643   */\n      dup3\n        /* \"#utility.yul\":17637:17638   */\n      0x02\n        /* \"#utility.yul\":17633:17644   */\n      mul\n        /* \"#utility.yul\":17627:17631   */\n      dup3\n        /* \"#utility.yul\":17624:17645   */\n      or\n        /* \"#utility.yul\":17616:17645   */\n      swap1\n      pop\n        /* \"#utility.yul\":17356:17651   */\n      swap3\n      swap2\n      pop\n      pop\n      jump\t// out\n        /* \"#utility.yul\":17656:19119   */\n    tag_172:\n        /* \"#utility.yul\":17771:17774   */\n      dup2\n        /* \"#utility.yul\":17765:17769   */\n      dup2\n        /* \"#utility.yul\":17762:17775   */\n      sub\n        /* \"#utility.yul\":17759:17785   */\n      tag_576\n      jumpi\n        /* \"#utility.yul\":17778:17783   */\n      pop\n      pop\n      jump(tag_575)\n        /* \"#utility.yul\":17759:17785   */\n    tag_576:\n        /* \"#utility.yul\":17809:17847   */\n      tag_577\n        /* \"#utility.yul\":17843:17846   */\n      dup3\n        /* \"#utility.yul\":17809:17847   */\n      tag_348\n      jump\t// in\n    tag_577:\n        /* \"#utility.yul\":17912:17930   */\n      0xffffffffffffffff\n        /* \"#utility.yul\":17904:17910   */\n      dup2\n        /* \"#utility.yul\":17901:17931   */\n      gt\n        /* \"#utility.yul\":17898:17954   */\n      iszero\n      tag_578\n      jumpi\n        /* \"#utility.yul\":17934:17952   */\n      tag_579\n      tag_323\n      jump\t// in\n    tag_579:\n        /* \"#utility.yul\":17898:17954   */\n    tag_578:\n        /* \"#utility.yul\":17978:18016   */\n      tag_580\n        /* \"#utility.yul\":18010:18014   */\n      dup3\n        /* \"#utility.yul\":18004:18015   */\n      sload\n        /* \"#utility.yul\":17978:18016   */\n      tag_223\n      jump\t// in\n    tag_580:\n        /* \"#utility.yul\":18063:18130   */\n      tag_581\n        /* \"#utility.yul\":18123:18129   */\n      dup3\n        /* \"#utility.yul\":18115:18121   */\n      dup3\n        /* \"#utility.yul\":18109:18113   */\n      dup6\n        /* \"#utility.yul\":18063:18130   */\n      tag_361\n      jump\t// in\n    tag_581:\n        /* \"#utility.yul\":18157:18158   */\n      0x00\n        /* \"#utility.yul\":18186:18188   */\n      0x1f\n        /* \"#utility.yul\":18178:18184   */\n      dup4\n        /* \"#utility.yul\":18175:18189   */\n      gt\n        /* \"#utility.yul\":18203:18204   */\n      0x01\n        /* \"#utility.yul\":18198:18874   */\n      dup2\n      eq\n      tag_583\n      jumpi\n        /* \"#utility.yul\":18918:18919   */\n      0x00\n        /* \"#utility.yul\":18935:18941   */\n      dup5\n        /* \"#utility.yul\":18932:19009   */\n      iszero\n      tag_584\n      jumpi\n        /* \"#utility.yul\":18984:18993   */\n      dup3\n        /* \"#utility.yul\":18979:18982   */\n      dup8\n        /* \"#utility.yul\":18975:18994   */\n      add\n        /* \"#utility.yul\":18969:18995   */\n      sload\n        /* \"#utility.yul\":18960:18995   */\n      swap1\n      pop\n        /* \"#utility.yul\":18932:19009   */\n    tag_584:\n        /* \"#utility.yul\":19035:19102   */\n      tag_585\n        /* \"#utility.yul\":19095:19101   */\n      dup6\n        /* \"#utility.yul\":19088:19093   */\n      dup3\n        /* \"#utility.yul\":19035:19102   */\n      tag_364\n      jump\t// in\n    tag_585:\n        /* \"#utility.yul\":19029:19033   */\n      dup7\n        /* \"#utility.yul\":19022:19103   */\n      sstore\n        /* \"#utility.yul\":18891:19113   */\n      pop\n        /* \"#utility.yul\":18168:19113   */\n      jump(tag_582)\n        /* \"#utility.yul\":18198:18874   */\n    tag_583:\n        /* \"#utility.yul\":18250:18254   */\n      0x1f\n        /* \"#utility.yul\":18246:18255   */\n      not\n        /* \"#utility.yul\":18238:18244   */\n      dup5\n        /* \"#utility.yul\":18234:18256   */\n      and\n        /* \"#utility.yul\":18276:18316   */\n      tag_586\n        /* \"#utility.yul\":18312:18315   */\n      dup8\n        /* \"#utility.yul\":18276:18316   */\n      tag_350\n      jump\t// in\n    tag_586:\n        /* \"#utility.yul\":18269:18316   */\n      swap7\n      pop\n        /* \"#utility.yul\":18343:18380   */\n      tag_587\n        /* \"#utility.yul\":18375:18379   */\n      dup7\n        /* \"#utility.yul\":18343:18380   */\n      tag_349\n      jump\t// in\n    tag_587:\n        /* \"#utility.yul\":18402:18403   */\n      0x00\n        /* \"#utility.yul\":18416:18623   */\n    tag_588:\n        /* \"#utility.yul\":18430:18437   */\n      dup3\n        /* \"#utility.yul\":18427:18428   */\n      dup2\n        /* \"#utility.yul\":18424:18438   */\n      lt\n        /* \"#utility.yul\":18416:18623   */\n      iszero\n      tag_590\n      jumpi\n        /* \"#utility.yul\":18509:18518   */\n      dup5\n        /* \"#utility.yul\":18504:18507   */\n      dup10\n        /* \"#utility.yul\":18500:18519   */\n      add\n        /* \"#utility.yul\":18494:18520   */\n      sload\n        /* \"#utility.yul\":18486:18492   */\n      dup3\n        /* \"#utility.yul\":18479:18521   */\n      sstore\n        /* \"#utility.yul\":18560:18561   */\n      0x01\n        /* \"#utility.yul\":18552:18558   */\n      dup3\n        /* \"#utility.yul\":18548:18562   */\n      add\n        /* \"#utility.yul\":18538:18562   */\n      swap2\n      pop\n        /* \"#utility.yul\":18607:18608   */\n      0x01\n        /* \"#utility.yul\":18596:18605   */\n      dup6\n        /* \"#utility.yul\":18592:18609   */\n      add\n        /* \"#utility.yul\":18579:18609   */\n      swap5\n      pop\n        /* \"#utility.yul\":18453:18457   */\n      0x20\n        /* \"#utility.yul\":18450:18451   */\n      dup2\n        /* \"#utility.yul\":18446:18458   */\n      add\n        /* \"#utility.yul\":18441:18458   */\n      swap1\n      pop\n        /* \"#utility.yul\":18416:18623   */\n      jump(tag_588)\n    tag_590:\n        /* \"#utility.yul\":18651:18657   */\n      dup7\n        /* \"#utility.yul\":18642:18649   */\n      dup4\n        /* \"#utility.yul\":18639:18658   */\n      lt\n        /* \"#utility.yul\":18636:18815   */\n      iszero\n      tag_591\n      jumpi\n        /* \"#utility.yul\":18709:18718   */\n      dup5\n        /* \"#utility.yul\":18704:18707   */\n      dup10\n        /* \"#utility.yul\":18700:18719   */\n      add\n        /* \"#utility.yul\":18694:18720   */\n      sload\n        /* \"#utility.yul\":18752:18800   */\n      tag_592\n        /* \"#utility.yul\":18794:18798   */\n      0x1f\n        /* \"#utility.yul\":18786:18792   */\n      dup10\n        /* \"#utility.yul\":18782:18799   */\n      and\n        /* \"#utility.yul\":18771:18780   */\n      dup3\n        /* \"#utility.yul\":18752:18800   */\n      tag_363\n      jump\t// in\n    tag_592:\n        /* \"#utility.yul\":18744:18750   */\n      dup4\n        /* \"#utility.yul\":18737:18801   */\n      sstore\n        /* \"#utility.yul\":18659:18815   */\n      pop\n        /* \"#utility.yul\":18636:18815   */\n    tag_591:\n        /* \"#utility.yul\":18861:18862   */\n      0x01\n        /* \"#utility.yul\":18857:18858   */\n      0x02\n        /* \"#utility.yul\":18849:18855   */\n      dup9\n        /* \"#utility.yul\":18845:18859   */\n      mul\n        /* \"#utility.yul\":18841:18863   */\n      add\n        /* \"#utility.yul\":18835:18839   */\n      dup9\n        /* \"#utility.yul\":18828:18864   */\n      sstore\n        /* \"#utility.yul\":18205:18874   */\n      pop\n      pop\n      pop\n        /* \"#utility.yul\":18168:19113   */\n    tag_582:\n      pop\n        /* \"#utility.yul\":17749:19119   */\n      pop\n      pop\n      pop\n        /* \"#utility.yul\":17656:19119   */\n      pop\n      pop\n    tag_575:\n      jump\t// out\n        /* \"#utility.yul\":19125:19305   */\n    tag_175:\n        /* \"#utility.yul\":19173:19250   */\n      0x4e487b7100000000000000000000000000000000000000000000000000000000\n        /* \"#utility.yul\":19170:19171   */\n      0x00\n        /* \"#utility.yul\":19163:19251   */\n      mstore\n        /* \"#utility.yul\":19270:19274   */\n      0x31\n        /* \"#utility.yul\":19267:19268   */\n      0x04\n        /* \"#utility.yul\":19260:19275   */\n      mstore\n        /* \"#utility.yul\":19294:19298   */\n      0x24\n        /* \"#utility.yul\":19291:19292   */\n      0x00\n        /* \"#utility.yul\":19284:19299   */\n      revert\n        /* \"#utility.yul\":19311:19396   */\n    tag_365:\n        /* \"#utility.yul\":19356:19363   */\n      0x00\n        /* \"#utility.yul\":19385:19390   */\n      dup2\n        /* \"#utility.yul\":19374:19390   */\n      swap1\n      pop\n        /* \"#utility.yul\":19311:19396   */\n      swap2\n      swap1\n      pop\n      jump\t// out\n        /* \"#utility.yul\":19402:19503   */\n    tag_366:\n        /* \"#utility.yul\":19438:19445   */\n      0x00\n        /* \"#utility.yul\":19478:19496   */\n      0xffffffffffffffff\n        /* \"#utility.yul\":19471:19476   */\n      dup3\n        /* \"#utility.yul\":19467:19497   */\n      and\n        /* \"#utility.yul\":19456:19497   */\n      swap1\n      pop\n        /* \"#utility.yul\":19402:19503   */\n      swap2\n      swap1\n      pop\n      jump\t// out\n        /* \"#utility.yul\":19509:19665   */\n    tag_367:\n        /* \"#utility.yul\":19566:19575   */\n      0x00\n        /* \"#utility.yul\":19599:19659   */\n      tag_597\n        /* \"#utility.yul\":19616:19658   */\n      tag_598\n        /* \"#utility.yul\":19625:19657   */\n      tag_599\n        /* \"#utility.yul\":19651:19656   */\n      dup5\n        /* \"#utility.yul\":19625:19657   */\n      tag_365\n      jump\t// in\n    tag_599:\n        /* \"#utility.yul\":19616:19658   */\n      tag_354\n      jump\t// in\n    tag_598:\n        /* \"#utility.yul\":19599:19659   */\n      tag_366\n      jump\t// in\n    tag_597:\n        /* \"#utility.yul\":19586:19659   */\n      swap1\n      pop\n        /* \"#utility.yul\":19509:19665   */\n      swap2\n      swap1\n      pop\n      jump\t// out\n        /* \"#utility.yul\":19671:19816   */\n    tag_368:\n        /* \"#utility.yul\":19765:19809   */\n      tag_601\n        /* \"#utility.yul\":19803:19808   */\n      dup2\n        /* \"#utility.yul\":19765:19809   */\n      tag_367\n      jump\t// in\n    tag_601:\n        /* \"#utility.yul\":19760:19763   */\n      dup3\n        /* \"#utility.yul\":19753:19810   */\n      mstore\n        /* \"#utility.yul\":19671:19816   */\n      pop\n      pop\n      jump\t// out\n        /* \"#utility.yul\":19822:20058   */\n    tag_198:\n        /* \"#utility.yul\":19922:19926   */\n      0x00\n        /* \"#utility.yul\":19960:19962   */\n      0x20\n        /* \"#utility.yul\":19949:19958   */\n      dup3\n        /* \"#utility.yul\":19945:19963   */\n      add\n        /* \"#utility.yul\":19937:19963   */\n      swap1\n      pop\n        /* \"#utility.yul\":19973:20051   */\n      tag_603\n        /* \"#utility.yul\":20048:20049   */\n      0x00\n        /* \"#utility.yul\":20037:20046   */\n      dup4\n        /* \"#utility.yul\":20033:20050   */\n      add\n        /* \"#utility.yul\":20024:20030   */\n      dup5\n        /* \"#utility.yul\":19973:20051   */\n      tag_368\n      jump\t// in\n    tag_603:\n        /* \"#utility.yul\":19822:20058   */\n      swap3\n      swap2\n      pop\n      pop\n      jump\t// out\n        /* \"#utility.yul\":20064:20206   */\n    tag_369:\n        /* \"#utility.yul\":20114:20123   */\n      0x00\n        /* \"#utility.yul\":20147:20200   */\n      tag_605\n        /* \"#utility.yul\":20165:20199   */\n      tag_606\n        /* \"#utility.yul\":20174:20198   */\n      tag_607\n        /* \"#utility.yul\":20192:20197   */\n      dup5\n        /* \"#utility.yul\":20174:20198   */\n      tag_330\n      jump\t// in\n    tag_607:\n        /* \"#utility.yul\":20165:20199   */\n      tag_354\n      jump\t// in\n    tag_606:\n        /* \"#utility.yul\":20147:20200   */\n      tag_333\n      jump\t// in\n    tag_605:\n        /* \"#utility.yul\":20134:20200   */\n      swap1\n      pop\n        /* \"#utility.yul\":20064:20206   */\n      swap2\n      swap1\n      pop\n      jump\t// out\n        /* \"#utility.yul\":20212:20343   */\n    tag_370:\n        /* \"#utility.yul\":20299:20336   */\n      tag_609\n        /* \"#utility.yul\":20330:20335   */\n      dup2\n        /* \"#utility.yul\":20299:20336   */\n      tag_369\n      jump\t// in\n    tag_609:\n        /* \"#utility.yul\":20294:20297   */\n      dup3\n        /* \"#utility.yul\":20287:20337   */\n      mstore\n        /* \"#utility.yul\":20212:20343   */\n      pop\n      pop\n      jump\t// out\n        /* \"#utility.yul\":20349:20882   */\n    tag_208:\n        /* \"#utility.yul\":20518:20522   */\n      0x00\n        /* \"#utility.yul\":20556:20558   */\n      0x60\n        /* \"#utility.yul\":20545:20554   */\n      dup3\n        /* \"#utility.yul\":20541:20559   */\n      add\n        /* \"#utility.yul\":20533:20559   */\n      swap1\n      pop\n        /* \"#utility.yul\":20605:20614   */\n      dup2\n        /* \"#utility.yul\":20599:20603   */\n      dup2\n        /* \"#utility.yul\":20595:20615   */\n      sub\n        /* \"#utility.yul\":20591:20592   */\n      0x00\n        /* \"#utility.yul\":20580:20589   */\n      dup4\n        /* \"#utility.yul\":20576:20593   */\n      add\n        /* \"#utility.yul\":20569:20616   */\n      mstore\n        /* \"#utility.yul\":20633:20711   */\n      tag_611\n        /* \"#utility.yul\":20706:20710   */\n      dup2\n        /* \"#utility.yul\":20697:20703   */\n      dup7\n        /* \"#utility.yul\":20633:20711   */\n      tag_339\n      jump\t// in\n    tag_611:\n        /* \"#utility.yul\":20625:20711   */\n      swap1\n      pop\n        /* \"#utility.yul\":20721:20793   */\n      tag_612\n        /* \"#utility.yul\":20789:20791   */\n      0x20\n        /* \"#utility.yul\":20778:20787   */\n      dup4\n        /* \"#utility.yul\":20774:20792   */\n      add\n        /* \"#utility.yul\":20765:20771   */\n      dup6\n        /* \"#utility.yul\":20721:20793   */\n      tag_370\n      jump\t// in\n    tag_612:\n        /* \"#utility.yul\":20803:20875   */\n      tag_613\n        /* \"#utility.yul\":20871:20873   */\n      0x40\n        /* \"#utility.yul\":20860:20869   */\n      dup4\n        /* \"#utility.yul\":20856:20874   */\n      add\n        /* \"#utility.yul\":20847:20853   */\n      dup5\n        /* \"#utility.yul\":20803:20875   */\n      tag_370\n      jump\t// in\n    tag_613:\n        /* \"#utility.yul\":20349:20882   */\n      swap5\n      swap4\n      pop\n      pop\n      pop\n      pop\n      jump\t// out\n        /* \"#utility.yul\":20888:22283   */\n    tag_217:\n        /* \"#utility.yul\":21005:21042   */\n      tag_615\n        /* \"#utility.yul\":21038:21041   */\n      dup3\n        /* \"#utility.yul\":21005:21042   */\n      tag_336\n      jump\t// in\n    tag_615:\n        /* \"#utility.yul\":21107:21125   */\n      0xffffffffffffffff\n        /* \"#utility.yul\":21099:21105   */\n      dup2\n        /* \"#utility.yul\":21096:21126   */\n      gt\n        /* \"#utility.yul\":21093:21149   */\n      iszero\n      tag_616\n      jumpi\n        /* \"#utility.yul\":21129:21147   */\n      tag_617\n      tag_323\n      jump\t// in\n    tag_617:\n        /* \"#utility.yul\":21093:21149   */\n    tag_616:\n        /* \"#utility.yul\":21173:21211   */\n      tag_618\n        /* \"#utility.yul\":21205:21209   */\n      dup3\n        /* \"#utility.yul\":21199:21210   */\n      sload\n        /* \"#utility.yul\":21173:21211   */\n      tag_223\n      jump\t// in\n    tag_618:\n        /* \"#utility.yul\":21258:21325   */\n      tag_619\n        /* \"#utility.yul\":21318:21324   */\n      dup3\n        /* \"#utility.yul\":21310:21316   */\n      dup3\n        /* \"#utility.yul\":21304:21308   */\n      dup6\n        /* \"#utility.yul\":21258:21325   */\n      tag_361\n      jump\t// in\n    tag_619:\n        /* \"#utility.yul\":21352:21353   */\n      0x00\n        /* \"#utility.yul\":21376:21380   */\n      0x20\n        /* \"#utility.yul\":21363:21380   */\n      swap1\n      pop\n        /* \"#utility.yul\":21408:21410   */\n      0x1f\n        /* \"#utility.yul\":21400:21406   */\n      dup4\n        /* \"#utility.yul\":21397:21411   */\n      gt\n        /* \"#utility.yul\":21425:21426   */\n      0x01\n        /* \"#utility.yul\":21420:22038   */\n      dup2\n      eq\n      tag_621\n      jumpi\n        /* \"#utility.yul\":22082:22083   */\n      0x00\n        /* \"#utility.yul\":22099:22105   */\n      dup5\n        /* \"#utility.yul\":22096:22173   */\n      iszero\n      tag_622\n      jumpi\n        /* \"#utility.yul\":22148:22157   */\n      dup3\n        /* \"#utility.yul\":22143:22146   */\n      dup8\n        /* \"#utility.yul\":22139:22158   */\n      add\n        /* \"#utility.yul\":22133:22159   */\n      mload\n        /* \"#utility.yul\":22124:22159   */\n      swap1\n      pop\n        /* \"#utility.yul\":22096:22173   */\n    tag_622:\n        /* \"#utility.yul\":22199:22266   */\n      tag_623\n        /* \"#utility.yul\":22259:22265   */\n      dup6\n        /* \"#utility.yul\":22252:22257   */\n      dup3\n        /* \"#utility.yul\":22199:22266   */\n      tag_364\n      jump\t// in\n    tag_623:\n        /* \"#utility.yul\":22193:22197   */\n      dup7\n        /* \"#utility.yul\":22186:22267   */\n      sstore\n        /* \"#utility.yul\":22055:22277   */\n      pop\n        /* \"#utility.yul\":21390:22277   */\n      jump(tag_620)\n        /* \"#utility.yul\":21420:22038   */\n    tag_621:\n        /* \"#utility.yul\":21472:21476   */\n      0x1f\n        /* \"#utility.yul\":21468:21477   */\n      not\n        /* \"#utility.yul\":21460:21466   */\n      dup5\n        /* \"#utility.yul\":21456:21478   */\n      and\n        /* \"#utility.yul\":21506:21543   */\n      tag_624\n        /* \"#utility.yul\":21538:21542   */\n      dup7\n        /* \"#utility.yul\":21506:21543   */\n      tag_349\n      jump\t// in\n    tag_624:\n        /* \"#utility.yul\":21565:21566   */\n      0x00\n        /* \"#utility.yul\":21579:21787   */\n    tag_625:\n        /* \"#utility.yul\":21593:21600   */\n      dup3\n        /* \"#utility.yul\":21590:21591   */\n      dup2\n        /* \"#utility.yul\":21587:21601   */\n      lt\n        /* \"#utility.yul\":21579:21787   */\n      iszero\n      tag_627\n      jumpi\n        /* \"#utility.yul\":21672:21681   */\n      dup5\n        /* \"#utility.yul\":21667:21670   */\n      dup10\n        /* \"#utility.yul\":21663:21682   */\n      add\n        /* \"#utility.yul\":21657:21683   */\n      mload\n        /* \"#utility.yul\":21649:21655   */\n      dup3\n        /* \"#utility.yul\":21642:21684   */\n      sstore\n        /* \"#utility.yul\":21723:21724   */\n      0x01\n        /* \"#utility.yul\":21715:21721   */\n      dup3\n        /* \"#utility.yul\":21711:21725   */\n      add\n        /* \"#utility.yul\":21701:21725   */\n      swap2\n      pop\n        /* \"#utility.yul\":21770:21772   */\n      0x20\n        /* \"#utility.yul\":21759:21768   */\n      dup6\n        /* \"#utility.yul\":21755:21773   */\n      add\n        /* \"#utility.yul\":21742:21773   */\n      swap5\n      pop\n        /* \"#utility.yul\":21616:21620   */\n      0x20\n        /* \"#utility.yul\":21613:21614   */\n      dup2\n        /* \"#utility.yul\":21609:21621   */\n      add\n        /* \"#utility.yul\":21604:21621   */\n      swap1\n      pop\n        /* \"#utility.yul\":21579:21787   */\n      jump(tag_625)\n    tag_627:\n        /* \"#utility.yul\":21815:21821   */\n      dup7\n        /* \"#utility.yul\":21806:21813   */\n      dup4\n        /* \"#utility.yul\":21803:21822   */\n      lt\n        /* \"#utility.yul\":21800:21979   */\n      iszero\n      tag_628\n      jumpi\n        /* \"#utility.yul\":21873:21882   */\n      dup5\n        /* \"#utility.yul\":21868:21871   */\n      dup10\n        /* \"#utility.yul\":21864:21883   */\n      add\n        /* \"#utility.yul\":21858:21884   */\n      mload\n        /* \"#utility.yul\":21916:21964   */\n      tag_629\n        /* \"#utility.yul\":21958:21962   */\n      0x1f\n        /* \"#utility.yul\":21950:21956   */\n      dup10\n        /* \"#utility.yul\":21946:21963   */\n      and\n        /* \"#utility.yul\":21935:21944   */\n      dup3\n        /* \"#utility.yul\":21916:21964   */\n      tag_363\n      jump\t// in\n    tag_629:\n        /* \"#utility.yul\":21908:21914   */\n      dup4\n        /* \"#utility.yul\":21901:21965   */\n      sstore\n        /* \"#utility.yul\":21823:21979   */\n      pop\n        /* \"#utility.yul\":21800:21979   */\n    tag_628:\n        /* \"#utility.yul\":22025:22026   */\n      0x01\n        /* \"#utility.yul\":22021:22022   */\n      0x02\n        /* \"#utility.yul\":22013:22019   */\n      dup9\n        /* \"#utility.yul\":22009:22023   */\n      mul\n        /* \"#utility.yul\":22005:22027   */\n      add\n        /* \"#utility.yul\":21999:22003   */\n      dup9\n        /* \"#utility.yul\":21992:22028   */\n      sstore\n        /* \"#utility.yul\":21427:22038   */\n      pop\n      pop\n      pop\n        /* \"#utility.yul\":21390:22277   */\n    tag_620:\n      pop\n        /* \"#utility.yul\":20980:22283   */\n      pop\n      pop\n      pop\n        /* \"#utility.yul\":20888:22283   */\n      pop\n      pop\n      jump\t// out\n        /* \"#utility.yul\":22289:22621   */\n    tag_283:\n        /* \"#utility.yul\":22410:22414   */\n      0x00\n        /* \"#utility.yul\":22448:22450   */\n      0x40\n        /* \"#utility.yul\":22437:22446   */\n      dup3\n        /* \"#utility.yul\":22433:22451   */\n      add\n        /* \"#utility.yul\":22425:22451   */\n      swap1\n      pop\n        /* \"#utility.yul\":22461:22532   */\n      tag_631\n        /* \"#utility.yul\":22529:22530   */\n      0x00\n        /* \"#utility.yul\":22518:22527   */\n      dup4\n        /* \"#utility.yul\":22514:22531   */\n      add\n        /* \"#utility.yul\":22505:22511   */\n      dup6\n        /* \"#utility.yul\":22461:22532   */\n      tag_319\n      jump\t// in\n    tag_631:\n        /* \"#utility.yul\":22542:22614   */\n      tag_632\n        /* \"#utility.yul\":22610:22612   */\n      0x20\n        /* \"#utility.yul\":22599:22608   */\n      dup4\n        /* \"#utility.yul\":22595:22613   */\n      add\n        /* \"#utility.yul\":22586:22592   */\n      dup5\n        /* \"#utility.yul\":22542:22614   */\n      tag_318\n      jump\t// in\n    tag_632:\n        /* \"#utility.yul\":22289:22621   */\n      swap4\n      swap3\n      pop\n      pop\n      pop\n      jump\t// out\n\n    auxdata: 0xa2646970667358221220c598f1300d679fe5323e38631877f9f8302fa6d65f075eb903046642a4cc0d4e64736f6c634300081a0033\n}\n",
				"bytecode": {
					"linkReferences": {},
					"object": "6080604052348015600e575f80fd5b506121938061001c5f395ff3fe608060405234801561000f575f80fd5b506004361061012a575f3560e01c806391d14854116100ab578063c9a4909c1161006f578063c9a4909c14610316578063d2a8e16314610332578063d547741f14610362578063db4f10241461037e578063f2fde38b146103ae5761012a565b806391d1485414610274578063a217fddf146102a4578063a34f0e28146102c2578063c4d66de8146102de578063c87a774b146102fa5761012a565b806336568abe116100f257806336568abe146101f65780637048027514610212578063715018a61461022e57806375b238fc146102385780638da5cb5b146102565761012a565b806301ffc9a71461012e5780631785f53c1461015e578063248a9ca31461017a57806324d7806c146101aa5780632f2ff15d146101da575b5f80fd5b61014860048036038101906101439190611571565b6103ca565b60405161015591906115b6565b60405180910390f35b61017860048036038101906101739190611629565b610443565b005b610194600480360381019061018f9190611687565b610478565b6040516101a191906116c1565b60405180910390f35b6101c460048036038101906101bf9190611629565b6104a2565b6040516101d191906115b6565b60405180910390f35b6101f460048036038101906101ef91906116da565b6104d4565b005b610210600480360381019061020b91906116da565b6104f6565b005b61022c60048036038101906102279190611629565b610571565b005b6102366105a6565b005b6102406105b9565b60405161024d91906116c1565b60405180910390f35b61025e6105dd565b60405161026b9190611727565b60405180910390f35b61028e600480360381019061028991906116da565b610612565b60405161029b91906115b6565b60405180910390f35b6102ac610683565b6040516102b991906116c1565b60405180910390f35b6102dc60048036038101906102d7919061187c565b610689565b005b6102f860048036038101906102f39190611629565b61088c565b005b610314600480360381019061030f9190611908565b610a4d565b005b610330600480360381019061032b919061187c565b610c41565b005b61034c600480360381019061034791906119a7565b610d58565b6040516103599190611a32565b60405180910390f35b61037c600480360381019061037791906116da565b610dfe565b005b61039860048036038101906103939190611a52565b610e20565b6040516103a59190611abb565b60405180910390f35b6103c860048036038101906103c39190611629565b610e9d565b005b5f7f7965db0b000000000000000000000000000000000000000000000000000000007bffffffffffffffffffffffffffffffffffffffffffffffffffffffff1916827bffffffffffffffffffffffffffffffffffffffffffffffffffffffff1916148061043c575061043b82610f21565b5b9050919050565b61044b610f8a565b6104757fa49807205ce4d355092ef5a8a18f56e8913cf4a201fbe287825b095693c2177582610dfe565b50565b5f80610482611011565b9050805f015f8481526020019081526020015f2060010154915050919050565b5f6104cd7fa49807205ce4d355092ef5a8a18f56e8913cf4a201fbe287825b095693c2177583610612565b9050919050565b6104dd82610478565b6104e681611038565b6104f0838361104c565b50505050565b6104fe611144565b73ffffffffffffffffffffffffffffffffffffffff168173ffffffffffffffffffffffffffffffffffffffff1614610562576040517f6697b23200000000000000000000000000000000000000000000000000000000815260040160405180910390fd5b61056c828261114b565b505050565b610579610f8a565b6105a37fa49807205ce4d355092ef5a8a18f56e8913cf4a201fbe287825b095693c21775826104d4565b50565b6105ae610f8a565b6105b75f611243565b565b7fa49807205ce4d355092ef5a8a18f56e8913cf4a201fbe287825b095693c2177581565b5f806105e7611314565b9050805f015f9054906101000a900473ffffffffffffffffffffffffffffffffffffffff1691505090565b5f8061061c611011565b9050805f015f8581526020019081526020015f205f015f8473ffffffffffffffffffffffffffffffffffffffff1673ffffffffffffffffffffffffffffffffffffffff1681526020019081526020015f205f9054906101000a900460ff1691505092915050565b5f801b81565b610691610f8a565b6002816040516106a19190611b0e565b90815260200160405180910390205f9054906101000a900460ff166106fd57806040517f7becad520000000000000000000000000000000000000000000000000000000081526004016106f49190611a32565b60405180910390fd5b5f60028260405161070e9190611b0e565b90815260200160405180910390205f6101000a81548160ff0219169083151502179055505f60018054905090505f5b8181101561084b5782805190602001206001828154811061076157610760611b24565b5b905f5260205f20016040516107769190611c4a565b60405180910390200361083e57600180836107919190611c8d565b815481106107a2576107a1611b24565b5b905f5260205f2001600182815481106107be576107bd611b24565b5b905f5260205f200190816107d29190611e84565b5060018054806107e5576107e4611f69565b5b600190038181905f5260205f20015f6107fe91906114b3565b90557ff7c23b97fb023c192527b3f7ec572bfd326a7850df95d8d979233d2c85c129588360405161082f9190611a32565b60405180910390a15050610889565b808060010191505061073d565b50816040517f7becad520000000000000000000000000000000000000000000000000000000081526004016108809190611a32565b60405180910390fd5b50565b5f61089561133b565b90505f815f0160089054906101000a900460ff161590505f825f015f9054906101000a900467ffffffffffffffff1690505f808267ffffffffffffffff161480156108dd5750825b90505f60018367ffffffffffffffff1614801561091057505f3073ffffffffffffffffffffffffffffffffffffffff163b145b90508115801561091e575080155b15610955576040517ff92ee8a900000000000000000000000000000000000000000000000000000000815260040160405180910390fd5b6001855f015f6101000a81548167ffffffffffffffff021916908367ffffffffffffffff16021790555083156109a2576001855f0160086101000a81548160ff0219169083151502179055505b6109ab86611362565b6109b3611376565b6109bf5f801b8761104c565b506109ea7fa49807205ce4d355092ef5a8a18f56e8913cf4a201fbe287825b095693c217758761104c565b508315610a45575f855f0160086101000a81548160ff0219169083151502179055507fc7f505b2f371ae2175ee4913f4499e1f2633a7b5936321eed1cdaeb6115181d26001604051610a3c9190611fe2565b60405180910390a15b505050505050565b7fa49807205ce4d355092ef5a8a18f56e8913cf4a201fbe287825b095693c21775610a7781611038565b600283604051610a879190611b0e565b90815260200160405180910390205f9054906101000a900460ff16610ae357826040517f7becad52000000000000000000000000000000000000000000000000000000008152600401610ada9190611a32565b60405180910390fd5b5f805f8673ffffffffffffffffffffffffffffffffffffffff1673ffffffffffffffffffffffffffffffffffffffff1681526020019081526020015f2084604051610b2e9190611b0e565b90815260200160405180910390205f9054906101000a90046fffffffffffffffffffffffffffffffff169050825f808773ffffffffffffffffffffffffffffffffffffffff1673ffffffffffffffffffffffffffffffffffffffff1681526020019081526020015f2085604051610ba59190611b0e565b90815260200160405180910390205f6101000a8154816fffffffffffffffffffffffffffffffff02191690836fffffffffffffffffffffffffffffffff1602179055508473ffffffffffffffffffffffffffffffffffffffff167f96e76e471be932dcf10dfb1789068c3c023ca316d8eca3da1a0e8ab2f97799f6858584604051610c329392919061202b565b60405180910390a25050505050565b610c49610f8a565b600281604051610c599190611b0e565b90815260200160405180910390205f9054906101000a900460ff1615610cb657806040517f69fee1e6000000000000000000000000000000000000000000000000000000008152600401610cad9190611a32565b60405180910390fd5b600181908060018154018082558091505060019003905f5260205f20015f909190919091509081610ce79190612067565b506001600282604051610cfa9190611b0e565b90815260200160405180910390205f6101000a81548160ff0219169083151502179055507fa72133137aa3e3b5619506c1c0113005b6db9e05730aabc696a1686379a24c0481604051610d4d9190611a32565b60405180910390a150565b60018181548110610d67575f80fd5b905f5260205f20015f915090508054610d7f90611b7e565b80601f0160208091040260200160405190810160405280929190818152602001828054610dab90611b7e565b8015610df65780601f10610dcd57610100808354040283529160200191610df6565b820191905f5260205f20905b815481529060010190602001808311610dd957829003601f168201915b505050505081565b610e0782610478565b610e1081611038565b610e1a838361114b565b50505050565b5f805f8473ffffffffffffffffffffffffffffffffffffffff1673ffffffffffffffffffffffffffffffffffffffff1681526020019081526020015f2082604051610e6b9190611b0e565b90815260200160405180910390205f9054906101000a90046fffffffffffffffffffffffffffffffff16905092915050565b610ea5610f8a565b5f73ffffffffffffffffffffffffffffffffffffffff168173ffffffffffffffffffffffffffffffffffffffff1603610f15575f6040517f1e4fbdf7000000000000000000000000000000000000000000000000000000008152600401610f0c9190611727565b60405180910390fd5b610f1e81611243565b50565b5f7f01ffc9a7000000000000000000000000000000000000000000000000000000007bffffffffffffffffffffffffffffffffffffffffffffffffffffffff1916827bffffffffffffffffffffffffffffffffffffffffffffffffffffffff1916149050919050565b610f92611144565b73ffffffffffffffffffffffffffffffffffffffff16610fb06105dd565b73ffffffffffffffffffffffffffffffffffffffff161461100f57610fd3611144565b6040517f118cdaa70000000000000000000000000000000000000000000000000000000081526004016110069190611727565b60405180910390fd5b565b5f7f02dd7bc7dec4dceedda775e58dd541e08a116c6c53815c0bd028192f7b626800905090565b61104981611044611144565b611380565b50565b5f80611056611011565b90506110628484610612565b611139576001815f015f8681526020019081526020015f205f015f8573ffffffffffffffffffffffffffffffffffffffff1673ffffffffffffffffffffffffffffffffffffffff1681526020019081526020015f205f6101000a81548160ff0219169083151502179055506110d5611144565b73ffffffffffffffffffffffffffffffffffffffff168373ffffffffffffffffffffffffffffffffffffffff16857f2f8788117e7eff1d82e926ec794901d17c78024a50270940304540a733656f0d60405160405180910390a4600191505061113e565b5f9150505b92915050565b5f33905090565b5f80611155611011565b90506111618484610612565b15611238575f815f015f8681526020019081526020015f205f015f8573ffffffffffffffffffffffffffffffffffffffff1673ffffffffffffffffffffffffffffffffffffffff1681526020019081526020015f205f6101000a81548160ff0219169083151502179055506111d4611144565b73ffffffffffffffffffffffffffffffffffffffff168373ffffffffffffffffffffffffffffffffffffffff16857ff6391f5c32d9c69d2a47ea670b442974b53935d1edc7fd64eb21e047a839171b60405160405180910390a4600191505061123d565b5f9150505b92915050565b5f61124c611314565b90505f815f015f9054906101000a900473ffffffffffffffffffffffffffffffffffffffff16905082825f015f6101000a81548173ffffffffffffffffffffffffffffffffffffffff021916908373ffffffffffffffffffffffffffffffffffffffff1602179055508273ffffffffffffffffffffffffffffffffffffffff168173ffffffffffffffffffffffffffffffffffffffff167f8be0079c531659141344cd1fd0a4f28419497f9722a3daafe3b4186f6b6457e060405160405180910390a3505050565b5f7f9016d09d72d40fdae2fd8ceac6b6234c7706214fd39c1cd1e609a0528c199300905090565b5f7ff0c57e16840df040f15088dc2f81fe391c3923bec73e23a9662efc9c229c6a00905090565b61136a6113d1565b61137381611411565b50565b61137e6113d1565b565b61138a8282610612565b6113cd5780826040517fe2517d3f0000000000000000000000000000000000000000000000000000000081526004016113c4929190612136565b60405180910390fd5b5050565b6113d9611495565b61140f576040517fd7e6bcf800000000000000000000000000000000000000000000000000000000815260040160405180910390fd5b565b6114196113d1565b5f73ffffffffffffffffffffffffffffffffffffffff168173ffffffffffffffffffffffffffffffffffffffff1603611489575f6040517f1e4fbdf70000000000000000000000000000000000000000000000000000000081526004016114809190611727565b60405180910390fd5b61149281611243565b50565b5f61149e61133b565b5f0160089054906101000a900460ff16905090565b5080546114bf90611b7e565b5f825580601f106114d057506114ed565b601f0160209004905f5260205f20908101906114ec91906114f0565b5b50565b5b80821115611507575f815f9055506001016114f1565b5090565b5f604051905090565b5f80fd5b5f80fd5b5f7fffffffff0000000000000000000000000000000000000000000000000000000082169050919050565b6115508161151c565b811461155a575f80fd5b50565b5f8135905061156b81611547565b92915050565b5f6020828403121561158657611585611514565b5b5f6115938482850161155d565b91505092915050565b5f8115159050919050565b6115b08161159c565b82525050565b5f6020820190506115c95f8301846115a7565b92915050565b5f73ffffffffffffffffffffffffffffffffffffffff82169050919050565b5f6115f8826115cf565b9050919050565b611608816115ee565b8114611612575f80fd5b50565b5f81359050611623816115ff565b92915050565b5f6020828403121561163e5761163d611514565b5b5f61164b84828501611615565b91505092915050565b5f819050919050565b61166681611654565b8114611670575f80fd5b50565b5f813590506116818161165d565b92915050565b5f6020828403121561169c5761169b611514565b5b5f6116a984828501611673565b91505092915050565b6116bb81611654565b82525050565b5f6020820190506116d45f8301846116b2565b92915050565b5f80604083850312156116f0576116ef611514565b5b5f6116fd85828601611673565b925050602061170e85828601611615565b9150509250929050565b611721816115ee565b82525050565b5f60208201905061173a5f830184611718565b92915050565b5f80fd5b5f80fd5b5f601f19601f8301169050919050565b7f4e487b71000000000000000000000000000000000000000000000000000000005f52604160045260245ffd5b61178e82611748565b810181811067ffffffffffffffff821117156117ad576117ac611758565b5b80604052505050565b5f6117bf61150b565b90506117cb8282611785565b919050565b5f67ffffffffffffffff8211156117ea576117e9611758565b5b6117f382611748565b9050602081019050919050565b828183375f83830152505050565b5f61182061181b846117d0565b6117b6565b90508281526020810184848401111561183c5761183b611744565b5b611847848285611800565b509392505050565b5f82601f83011261186357611862611740565b5b813561187384826020860161180e565b91505092915050565b5f6020828403121561189157611890611514565b5b5f82013567ffffffffffffffff8111156118ae576118ad611518565b5b6118ba8482850161184f565b91505092915050565b5f6fffffffffffffffffffffffffffffffff82169050919050565b6118e7816118c3565b81146118f1575f80fd5b50565b5f81359050611902816118de565b92915050565b5f805f6060848603121561191f5761191e611514565b5b5f61192c86828701611615565b935050602084013567ffffffffffffffff81111561194d5761194c611518565b5b6119598682870161184f565b925050604061196a868287016118f4565b9150509250925092565b5f819050919050565b61198681611974565b8114611990575f80fd5b50565b5f813590506119a18161197d565b92915050565b5f602082840312156119bc576119bb611514565b5b5f6119c984828501611993565b91505092915050565b5f81519050919050565b5f82825260208201905092915050565b8281835e5f83830152505050565b5f611a04826119d2565b611a0e81856119dc565b9350611a1e8185602086016119ec565b611a2781611748565b840191505092915050565b5f6020820190508181035f830152611a4a81846119fa565b905092915050565b5f8060408385031215611a6857611a67611514565b5b5f611a7585828601611615565b925050602083013567ffffffffffffffff811115611a9657611a95611518565b5b611aa28582860161184f565b9150509250929050565b611ab5816118c3565b82525050565b5f602082019050611ace5f830184611aac565b92915050565b5f81905092915050565b5f611ae8826119d2565b611af28185611ad4565b9350611b028185602086016119ec565b80840191505092915050565b5f611b198284611ade565b915081905092915050565b7f4e487b71000000000000000000000000000000000000000000000000000000005f52603260045260245ffd5b7f4e487b71000000000000000000000000000000000000000000000000000000005f52602260045260245ffd5b5f6002820490506001821680611b9557607f821691505b602082108103611ba857611ba7611b51565b5b50919050565b5f81905092915050565b5f819050815f5260205f209050919050565b5f8154611bd681611b7e565b611be08186611bae565b9450600182165f8114611bfa5760018114611c0f57611c41565b60ff1983168652811515820286019350611c41565b611c1885611bb8565b5f5b83811015611c3957815481890152600182019150602081019050611c1a565b838801955050505b50505092915050565b5f611c558284611bca565b915081905092915050565b7f4e487b71000000000000000000000000000000000000000000000000000000005f52601160045260245ffd5b5f611c9782611974565b9150611ca283611974565b9250828203905081811115611cba57611cb9611c60565b5b92915050565b5f81549050611cce81611b7e565b9050919050565b5f819050815f5260205f209050919050565b5f819050815f5260205f209050919050565b5f6020601f8301049050919050565b5f82821b905092915050565b5f60088302611d437fffffffffffffffffffffffffffffffffffffffffffffffffffffffffffffffff82611d08565b611d4d8683611d08565b95508019841693508086168417925050509392505050565b5f819050919050565b5f611d88611d83611d7e84611974565b611d65565b611974565b9050919050565b5f819050919050565b611da183611d6e565b611db5611dad82611d8f565b848454611d14565b825550505050565b5f90565b611dc9611dbd565b611dd4818484611d98565b505050565b5b81811015611df757611dec5f82611dc1565b600181019050611dda565b5050565b601f821115611e3c57611e0d81611cd5565b611e1684611cf9565b81016020851015611e25578190505b611e39611e3185611cf9565b830182611dd9565b50505b505050565b5f82821c905092915050565b5f611e5c5f1984600802611e41565b1980831691505092915050565b5f611e748383611e4d565b9150826002028217905092915050565b818103611e92575050611f67565b611e9b82611cc0565b67ffffffffffffffff811115611eb457611eb3611758565b5b611ebe8254611b7e565b611ec9828285611dfb565b5f601f831160018114611ef6575f8415611ee4578287015490505b611eee8582611e69565b865550611f60565b601f198416611f0487611ce7565b9650611f0f86611cd5565b5f5b82811015611f3657848901548255600182019150600185019450602081019050611f11565b86831015611f535784890154611f4f601f891682611e4d565b8355505b6001600288020188555050505b5050505050505b565b7f4e487b71000000000000000000000000000000000000000000000000000000005f52603160045260245ffd5b5f819050919050565b5f67ffffffffffffffff82169050919050565b5f611fcc611fc7611fc284611f96565b611d65565b611f9f565b9050919050565b611fdc81611fb2565b82525050565b5f602082019050611ff55f830184611fd3565b92915050565b5f61201561201061200b846118c3565b611d65565b611974565b9050919050565b61202581611ffb565b82525050565b5f6060820190508181035f83015261204381866119fa565b9050612052602083018561201c565b61205f604083018461201c565b949350505050565b612070826119d2565b67ffffffffffffffff81111561208957612088611758565b5b6120938254611b7e565b61209e828285611dfb565b5f60209050601f8311600181146120cf575f84156120bd578287015190505b6120c78582611e69565b86555061212e565b601f1984166120dd86611cd5565b5f5b82811015612104578489015182556001820191506020850194506020810190506120df565b86831015612121578489015161211d601f891682611e4d565b8355505b6001600288020188555050505b505050505050565b5f6040820190506121495f830185611718565b61215660208301846116b2565b939250505056fea2646970667358221220c598f1300d679fe5323e38631877f9f8302fa6d65f075eb903046642a4cc0d4e64736f6c634300081a0033",
					"opcodes": "PUSH1 0x80 PUSH1 0x40 MSTORE CALLVALUE DUP1 ISZERO PUSH1 0xE JUMPI PUSH0 DUP1 REVERT JUMPDEST POP PUSH2 0x2193 DUP1 PUSH2 0x1C PUSH0 CODECOPY PUSH0 RETURN INVALID PUSH1 0x80 PUSH1 0x40 MSTORE CALLVALUE DUP1 ISZERO PUSH2 0xF JUMPI PUSH0 DUP1 REVERT JUMPDEST POP PUSH1 0x4 CALLDATASIZE LT PUSH2 0x12A JUMPI PUSH0 CALLDATALOAD PUSH1 0xE0 SHR DUP1 PUSH4 0x91D14854 GT PUSH2 0xAB JUMPI DUP1 PUSH4 0xC9A4909C GT PUSH2 0x6F JUMPI DUP1 PUSH4 0xC9A4909C EQ PUSH2 0x316 JUMPI DUP1 PUSH4 0xD2A8E163 EQ PUSH2 0x332 JUMPI DUP1 PUSH4 0xD547741F EQ PUSH2 0x362 JUMPI DUP1 PUSH4 0xDB4F1024 EQ PUSH2 0x37E JUMPI DUP1 PUSH4 0xF2FDE38B EQ PUSH2 0x3AE JUMPI PUSH2 0x12A JUMP JUMPDEST DUP1 PUSH4 0x91D14854 EQ PUSH2 0x274 JUMPI DUP1 PUSH4 0xA217FDDF EQ PUSH2 0x2A4 JUMPI DUP1 PUSH4 0xA34F0E28 EQ PUSH2 0x2C2 JUMPI DUP1 PUSH4 0xC4D66DE8 EQ PUSH2 0x2DE JUMPI DUP1 PUSH4 0xC87A774B EQ PUSH2 0x2FA JUMPI PUSH2 0x12A JUMP JUMPDEST DUP1 PUSH4 0x36568ABE GT PUSH2 0xF2 JUMPI DUP1 PUSH4 0x36568ABE EQ PUSH2 0x1F6 JUMPI DUP1 PUSH4 0x70480275 EQ PUSH2 0x212 JUMPI DUP1 PUSH4 0x715018A6 EQ PUSH2 0x22E JUMPI DUP1 PUSH4 0x75B238FC EQ PUSH2 0x238 JUMPI DUP1 PUSH4 0x8DA5CB5B EQ PUSH2 0x256 JUMPI PUSH2 0x12A JUMP JUMPDEST DUP1 PUSH4 0x1FFC9A7 EQ PUSH2 0x12E JUMPI DUP1 PUSH4 0x1785F53C EQ PUSH2 0x15E JUMPI DUP1 PUSH4 0x248A9CA3 EQ PUSH2 0x17A JUMPI DUP1 PUSH4 0x24D7806C EQ PUSH2 0x1AA JUMPI DUP1 PUSH4 0x2F2FF15D EQ PUSH2 0x1DA JUMPI JUMPDEST PUSH0 DUP1 REVERT JUMPDEST PUSH2 0x148 PUSH1 0x4 DUP1 CALLDATASIZE SUB DUP2 ADD SWAP1 PUSH2 0x143 SWAP2 SWAP1 PUSH2 0x1571 JUMP JUMPDEST PUSH2 0x3CA JUMP JUMPDEST PUSH1 0x40 MLOAD PUSH2 0x155 SWAP2 SWAP1 PUSH2 0x15B6 JUMP JUMPDEST PUSH1 0x40 MLOAD DUP1 SWAP2 SUB SWAP1 RETURN JUMPDEST PUSH2 0x178 PUSH1 0x4 DUP1 CALLDATASIZE SUB DUP2 ADD SWAP1 PUSH2 0x173 SWAP2 SWAP1 PUSH2 0x1629 JUMP JUMPDEST PUSH2 0x443 JUMP JUMPDEST STOP JUMPDEST PUSH2 0x194 PUSH1 0x4 DUP1 CALLDATASIZE SUB DUP2 ADD SWAP1 PUSH2 0x18F SWAP2 SWAP1 PUSH2 0x1687 JUMP JUMPDEST PUSH2 0x478 JUMP JUMPDEST PUSH1 0x40 MLOAD PUSH2 0x1A1 SWAP2 SWAP1 PUSH2 0x16C1 JUMP JUMPDEST PUSH1 0x40 MLOAD DUP1 SWAP2 SUB SWAP1 RETURN JUMPDEST PUSH2 0x1C4 PUSH1 0x4 DUP1 CALLDATASIZE SUB DUP2 ADD SWAP1 PUSH2 0x1BF SWAP2 SWAP1 PUSH2 0x1629 JUMP JUMPDEST PUSH2 0x4A2 JUMP JUMPDEST PUSH1 0x40 MLOAD PUSH2 0x1D1 SWAP2 SWAP1 PUSH2 0x15B6 JUMP JUMPDEST PUSH1 0x40 MLOAD DUP1 SWAP2 SUB SWAP1 RETURN JUMPDEST PUSH2 0x1F4 PUSH1 0x4 DUP1 CALLDATASIZE SUB DUP2 ADD SWAP1 PUSH2 0x1EF SWAP2 SWAP1 PUSH2 0x16DA JUMP JUMPDEST PUSH2 0x4D4 JUMP JUMPDEST STOP JUMPDEST PUSH2 0x210 PUSH1 0x4 DUP1 CALLDATASIZE SUB DUP2 ADD SWAP1 PUSH2 0x20B SWAP2 SWAP1 PUSH2 0x16DA JUMP JUMPDEST PUSH2 0x4F6 JUMP JUMPDEST STOP JUMPDEST PUSH2 0x22C PUSH1 0x4 DUP1 CALLDATASIZE SUB DUP2 ADD SWAP1 PUSH2 0x227 SWAP2 SWAP1 PUSH2 0x1629 JUMP JUMPDEST PUSH2 0x571 JUMP JUMPDEST STOP JUMPDEST PUSH2 0x236 PUSH2 0x5A6 JUMP JUMPDEST STOP JUMPDEST PUSH2 0x240 PUSH2 0x5B9 JUMP JUMPDEST PUSH1 0x40 MLOAD PUSH2 0x24D SWAP2 SWAP1 PUSH2 0x16C1 JUMP JUMPDEST PUSH1 0x40 MLOAD DUP1 SWAP2 SUB SWAP1 RETURN JUMPDEST PUSH2 0x25E PUSH2 0x5DD JUMP JUMPDEST PUSH1 0x40 MLOAD PUSH2 0x26B SWAP2 SWAP1 PUSH2 0x1727 JUMP JUMPDEST PUSH1 0x40 MLOAD DUP1 SWAP2 SUB SWAP1 RETURN JUMPDEST PUSH2 0x28E PUSH1 0x4 DUP1 CALLDATASIZE SUB DUP2 ADD SWAP1 PUSH2 0x289 SWAP2 SWAP1 PUSH2 0x16DA JUMP JUMPDEST PUSH2 0x612 JUMP JUMPDEST PUSH1 0x40 MLOAD PUSH2 0x29B SWAP2 SWAP1 PUSH2 0x15B6 JUMP JUMPDEST PUSH1 0x40 MLOAD DUP1 SWAP2 SUB SWAP1 RETURN JUMPDEST PUSH2 0x2AC PUSH2 0x683 JUMP JUMPDEST PUSH1 0x40 MLOAD PUSH2 0x2B9 SWAP2 SWAP1 PUSH2 0x16C1 JUMP JUMPDEST PUSH1 0x40 MLOAD DUP1 SWAP2 SUB SWAP1 RETURN JUMPDEST PUSH2 0x2DC PUSH1 0x4 DUP1 CALLDATASIZE SUB DUP2 ADD SWAP1 PUSH2 0x2D7 SWAP2 SWAP1 PUSH2 0x187C JUMP JUMPDEST PUSH2 0x689 JUMP JUMPDEST STOP JUMPDEST PUSH2 0x2F8 PUSH1 0x4 DUP1 CALLDATASIZE SUB DUP2 ADD SWAP1 PUSH2 0x2F3 SWAP2 SWAP1 PUSH2 0x1629 JUMP JUMPDEST PUSH2 0x88C JUMP JUMPDEST STOP JUMPDEST PUSH2 0x314 PUSH1 0x4 DUP1 CALLDATASIZE SUB DUP2 ADD SWAP1 PUSH2 0x30F SWAP2 SWAP1 PUSH2 0x1908 JUMP JUMPDEST PUSH2 0xA4D JUMP JUMPDEST STOP JUMPDEST PUSH2 0x330 PUSH1 0x4 DUP1 CALLDATASIZE SUB DUP2 ADD SWAP1 PUSH2 0x32B SWAP2 SWAP1 PUSH2 0x187C JUMP JUMPDEST PUSH2 0xC41 JUMP JUMPDEST STOP JUMPDEST PUSH2 0x34C PUSH1 0x4 DUP1 CALLDATASIZE SUB DUP2 ADD SWAP1 PUSH2 0x347 SWAP2 SWAP1 PUSH2 0x19A7 JUMP JUMPDEST PUSH2 0xD58 JUMP JUMPDEST PUSH1 0x40 MLOAD PUSH2 0x359 SWAP2 SWAP1 PUSH2 0x1A32 JUMP JUMPDEST PUSH1 0x40 MLOAD DUP1 SWAP2 SUB SWAP1 RETURN JUMPDEST PUSH2 0x37C PUSH1 0x4 DUP1 CALLDATASIZE SUB DUP2 ADD SWAP1 PUSH2 0x377 SWAP2 SWAP1 PUSH2 0x16DA JUMP JUMPDEST PUSH2 0xDFE JUMP JUMPDEST STOP JUMPDEST PUSH2 0x398 PUSH1 0x4 DUP1 CALLDATASIZE SUB DUP2 ADD SWAP1 PUSH2 0x393 SWAP2 SWAP1 PUSH2 0x1A52 JUMP JUMPDEST PUSH2 0xE20 JUMP JUMPDEST PUSH1 0x40 MLOAD PUSH2 0x3A5 SWAP2 SWAP1 PUSH2 0x1ABB JUMP JUMPDEST PUSH1 0x40 MLOAD DUP1 SWAP2 SUB SWAP1 RETURN JUMPDEST PUSH2 0x3C8 PUSH1 0x4 DUP1 CALLDATASIZE SUB DUP2 ADD SWAP1 PUSH2 0x3C3 SWAP2 SWAP1 PUSH2 0x1629 JUMP JUMPDEST PUSH2 0xE9D JUMP JUMPDEST STOP JUMPDEST PUSH0 PUSH32 0x7965DB0B00000000000000000000000000000000000000000000000000000000 PUSH28 0xFFFFFFFFFFFFFFFFFFFFFFFFFFFFFFFFFFFFFFFFFFFFFFFFFFFFFFFF NOT AND DUP3 PUSH28 0xFFFFFFFFFFFFFFFFFFFFFFFFFFFFFFFFFFFFFFFFFFFFFFFFFFFFFFFF NOT AND EQ DUP1 PUSH2 0x43C JUMPI POP PUSH2 0x43B DUP3 PUSH2 0xF21 JUMP JUMPDEST JUMPDEST SWAP1 POP SWAP2 SWAP1 POP JUMP JUMPDEST PUSH2 0x44B PUSH2 0xF8A JUMP JUMPDEST PUSH2 0x475 PUSH32 0xA49807205CE4D355092EF5A8A18F56E8913CF4A201FBE287825B095693C21775 DUP3 PUSH2 0xDFE JUMP JUMPDEST POP JUMP JUMPDEST PUSH0 DUP1 PUSH2 0x482 PUSH2 0x1011 JUMP JUMPDEST SWAP1 POP DUP1 PUSH0 ADD PUSH0 DUP5 DUP2 MSTORE PUSH1 0x20 ADD SWAP1 DUP2 MSTORE PUSH1 0x20 ADD PUSH0 KECCAK256 PUSH1 0x1 ADD SLOAD SWAP2 POP POP SWAP2 SWAP1 POP JUMP JUMPDEST PUSH0 PUSH2 0x4CD PUSH32 0xA49807205CE4D355092EF5A8A18F56E8913CF4A201FBE287825B095693C21775 DUP4 PUSH2 0x612 JUMP JUMPDEST SWAP1 POP SWAP2 SWAP1 POP JUMP JUMPDEST PUSH2 0x4DD DUP3 PUSH2 0x478 JUMP JUMPDEST PUSH2 0x4E6 DUP2 PUSH2 0x1038 JUMP JUMPDEST PUSH2 0x4F0 DUP4 DUP4 PUSH2 0x104C JUMP JUMPDEST POP POP POP POP JUMP JUMPDEST PUSH2 0x4FE PUSH2 0x1144 JUMP JUMPDEST PUSH20 0xFFFFFFFFFFFFFFFFFFFFFFFFFFFFFFFFFFFFFFFF AND DUP2 PUSH20 0xFFFFFFFFFFFFFFFFFFFFFFFFFFFFFFFFFFFFFFFF AND EQ PUSH2 0x562 JUMPI PUSH1 0x40 MLOAD PUSH32 0x6697B23200000000000000000000000000000000000000000000000000000000 DUP2 MSTORE PUSH1 0x4 ADD PUSH1 0x40 MLOAD DUP1 SWAP2 SUB SWAP1 REVERT JUMPDEST PUSH2 0x56C DUP3 DUP3 PUSH2 0x114B JUMP JUMPDEST POP POP POP JUMP JUMPDEST PUSH2 0x579 PUSH2 0xF8A JUMP JUMPDEST PUSH2 0x5A3 PUSH32 0xA49807205CE4D355092EF5A8A18F56E8913CF4A201FBE287825B095693C21775 DUP3 PUSH2 0x4D4 JUMP JUMPDEST POP JUMP JUMPDEST PUSH2 0x5AE PUSH2 0xF8A JUMP JUMPDEST PUSH2 0x5B7 PUSH0 PUSH2 0x1243 JUMP JUMPDEST JUMP JUMPDEST PUSH32 0xA49807205CE4D355092EF5A8A18F56E8913CF4A201FBE287825B095693C21775 DUP2 JUMP JUMPDEST PUSH0 DUP1 PUSH2 0x5E7 PUSH2 0x1314 JUMP JUMPDEST SWAP1 POP DUP1 PUSH0 ADD PUSH0 SWAP1 SLOAD SWAP1 PUSH2 0x100 EXP SWAP1 DIV PUSH20 0xFFFFFFFFFFFFFFFFFFFFFFFFFFFFFFFFFFFFFFFF AND SWAP2 POP POP SWAP1 JUMP JUMPDEST PUSH0 DUP1 PUSH2 0x61C PUSH2 0x1011 JUMP JUMPDEST SWAP1 POP DUP1 PUSH0 ADD PUSH0 DUP6 DUP2 MSTORE PUSH1 0x20 ADD SWAP1 DUP2 MSTORE PUSH1 0x20 ADD PUSH0 KECCAK256 PUSH0 ADD PUSH0 DUP5 PUSH20 0xFFFFFFFFFFFFFFFFFFFFFFFFFFFFFFFFFFFFFFFF AND PUSH20 0xFFFFFFFFFFFFFFFFFFFFFFFFFFFFFFFFFFFFFFFF AND DUP2 MSTORE PUSH1 0x20 ADD SWAP1 DUP2 MSTORE PUSH1 0x20 ADD PUSH0 KECCAK256 PUSH0 SWAP1 SLOAD SWAP1 PUSH2 0x100 EXP SWAP1 DIV PUSH1 0xFF AND SWAP2 POP POP SWAP3 SWAP2 POP POP JUMP JUMPDEST PUSH0 DUP1 SHL DUP2 JUMP JUMPDEST PUSH2 0x691 PUSH2 0xF8A JUMP JUMPDEST PUSH1 0x2 DUP2 PUSH1 0x40 MLOAD PUSH2 0x6A1 SWAP2 SWAP1 PUSH2 0x1B0E JUMP JUMPDEST SWAP1 DUP2 MSTORE PUSH1 0x20 ADD PUSH1 0x40 MLOAD DUP1 SWAP2 SUB SWAP1 KECCAK256 PUSH0 SWAP1 SLOAD SWAP1 PUSH2 0x100 EXP SWAP1 DIV PUSH1 0xFF AND PUSH2 0x6FD JUMPI DUP1 PUSH1 0x40 MLOAD PUSH32 0x7BECAD5200000000000000000000000000000000000000000000000000000000 DUP2 MSTORE PUSH1 0x4 ADD PUSH2 0x6F4 SWAP2 SWAP1 PUSH2 0x1A32 JUMP JUMPDEST PUSH1 0x40 MLOAD DUP1 SWAP2 SUB SWAP1 REVERT JUMPDEST PUSH0 PUSH1 0x2 DUP3 PUSH1 0x40 MLOAD PUSH2 0x70E SWAP2 SWAP1 PUSH2 0x1B0E JUMP JUMPDEST SWAP1 DUP2 MSTORE PUSH1 0x20 ADD PUSH1 0x40 MLOAD DUP1 SWAP2 SUB SWAP1 KECCAK256 PUSH0 PUSH2 0x100 EXP DUP2 SLOAD DUP2 PUSH1 0xFF MUL NOT AND SWAP1 DUP4 ISZERO ISZERO MUL OR SWAP1 SSTORE POP PUSH0 PUSH1 0x1 DUP1 SLOAD SWAP1 POP SWAP1 POP PUSH0 JUMPDEST DUP2 DUP2 LT ISZERO PUSH2 0x84B JUMPI DUP3 DUP1 MLOAD SWAP1 PUSH1 0x20 ADD KECCAK256 PUSH1 0x1 DUP3 DUP2 SLOAD DUP2 LT PUSH2 0x761 JUMPI PUSH2 0x760 PUSH2 0x1B24 JUMP JUMPDEST JUMPDEST SWAP1 PUSH0 MSTORE PUSH1 0x20 PUSH0 KECCAK256 ADD PUSH1 0x40 MLOAD PUSH2 0x776 SWAP2 SWAP1 PUSH2 0x1C4A JUMP JUMPDEST PUSH1 0x40 MLOAD DUP1 SWAP2 SUB SWAP1 KECCAK256 SUB PUSH2 0x83E JUMPI PUSH1 0x1 DUP1 DUP4 PUSH2 0x791 SWAP2 SWAP1 PUSH2 0x1C8D JUMP JUMPDEST DUP2 SLOAD DUP2 LT PUSH2 0x7A2 JUMPI PUSH2 0x7A1 PUSH2 0x1B24 JUMP JUMPDEST JUMPDEST SWAP1 PUSH0 MSTORE PUSH1 0x20 PUSH0 KECCAK256 ADD PUSH1 0x1 DUP3 DUP2 SLOAD DUP2 LT PUSH2 0x7BE JUMPI PUSH2 0x7BD PUSH2 0x1B24 JUMP JUMPDEST JUMPDEST SWAP1 PUSH0 MSTORE PUSH1 0x20 PUSH0 KECCAK256 ADD SWAP1 DUP2 PUSH2 0x7D2 SWAP2 SWAP1 PUSH2 0x1E84 JUMP JUMPDEST POP PUSH1 0x1 DUP1 SLOAD DUP1 PUSH2 0x7E5 JUMPI PUSH2 0x7E4 PUSH2 0x1F69 JUMP JUMPDEST JUMPDEST PUSH1 0x1 SWAP1 SUB DUP2 DUP2 SWAP1 PUSH0 MSTORE PUSH1 0x20 PUSH0 KECCAK256 ADD PUSH0 PUSH2 0x7FE SWAP2 SWAP1 PUSH2 0x14B3 JUMP JUMPDEST SWAP1 SSTORE PUSH32 0xF7C23B97FB023C192527B3F7EC572BFD326A7850DF95D8D979233D2C85C12958 DUP4 PUSH1 0x40 MLOAD PUSH2 0x82F SWAP2 SWAP1 PUSH2 0x1A32 JUMP JUMPDEST PUSH1 0x40 MLOAD DUP1 SWAP2 SUB SWAP1 LOG1 POP POP PUSH2 0x889 JUMP JUMPDEST DUP1 DUP1 PUSH1 0x1 ADD SWAP2 POP POP PUSH2 0x73D JUMP JUMPDEST POP DUP2 PUSH1 0x40 MLOAD PUSH32 0x7BECAD5200000000000000000000000000000000000000000000000000000000 DUP2 MSTORE PUSH1 0x4 ADD PUSH2 0x880 SWAP2 SWAP1 PUSH2 0x1A32 JUMP JUMPDEST PUSH1 0x40 MLOAD DUP1 SWAP2 SUB SWAP1 REVERT JUMPDEST POP JUMP JUMPDEST PUSH0 PUSH2 0x895 PUSH2 0x133B JUMP JUMPDEST SWAP1 POP PUSH0 DUP2 PUSH0 ADD PUSH1 0x8 SWAP1 SLOAD SWAP1 PUSH2 0x100 EXP SWAP1 DIV PUSH1 0xFF AND ISZERO SWAP1 POP PUSH0 DUP3 PUSH0 ADD PUSH0 SWAP1 SLOAD SWAP1 PUSH2 0x100 EXP SWAP1 DIV PUSH8 0xFFFFFFFFFFFFFFFF AND SWAP1 POP PUSH0 DUP1 DUP3 PUSH8 0xFFFFFFFFFFFFFFFF AND EQ DUP1 ISZERO PUSH2 0x8DD JUMPI POP DUP3 JUMPDEST SWAP1 POP PUSH0 PUSH1 0x1 DUP4 PUSH8 0xFFFFFFFFFFFFFFFF AND EQ DUP1 ISZERO PUSH2 0x910 JUMPI POP PUSH0 ADDRESS PUSH20 0xFFFFFFFFFFFFFFFFFFFFFFFFFFFFFFFFFFFFFFFF AND EXTCODESIZE EQ JUMPDEST SWAP1 POP DUP2 ISZERO DUP1 ISZERO PUSH2 0x91E JUMPI POP DUP1 ISZERO JUMPDEST ISZERO PUSH2 0x955 JUMPI PUSH1 0x40 MLOAD PUSH32 0xF92EE8A900000000000000000000000000000000000000000000000000000000 DUP2 MSTORE PUSH1 0x4 ADD PUSH1 0x40 MLOAD DUP1 SWAP2 SUB SWAP1 REVERT JUMPDEST PUSH1 0x1 DUP6 PUSH0 ADD PUSH0 PUSH2 0x100 EXP DUP2 SLOAD DUP2 PUSH8 0xFFFFFFFFFFFFFFFF MUL NOT AND SWAP1 DUP4 PUSH8 0xFFFFFFFFFFFFFFFF AND MUL OR SWAP1 SSTORE POP DUP4 ISZERO PUSH2 0x9A2 JUMPI PUSH1 0x1 DUP6 PUSH0 ADD PUSH1 0x8 PUSH2 0x100 EXP DUP2 SLOAD DUP2 PUSH1 0xFF MUL NOT AND SWAP1 DUP4 ISZERO ISZERO MUL OR SWAP1 SSTORE POP JUMPDEST PUSH2 0x9AB DUP7 PUSH2 0x1362 JUMP JUMPDEST PUSH2 0x9B3 PUSH2 0x1376 JUMP JUMPDEST PUSH2 0x9BF PUSH0 DUP1 SHL DUP8 PUSH2 0x104C JUMP JUMPDEST POP PUSH2 0x9EA PUSH32 0xA49807205CE4D355092EF5A8A18F56E8913CF4A201FBE287825B095693C21775 DUP8 PUSH2 0x104C JUMP JUMPDEST POP DUP4 ISZERO PUSH2 0xA45 JUMPI PUSH0 DUP6 PUSH0 ADD PUSH1 0x8 PUSH2 0x100 EXP DUP2 SLOAD DUP2 PUSH1 0xFF MUL NOT AND SWAP1 DUP4 ISZERO ISZERO MUL OR SWAP1 SSTORE POP PUSH32 0xC7F505B2F371AE2175EE4913F4499E1F2633A7B5936321EED1CDAEB6115181D2 PUSH1 0x1 PUSH1 0x40 MLOAD PUSH2 0xA3C SWAP2 SWAP1 PUSH2 0x1FE2 JUMP JUMPDEST PUSH1 0x40 MLOAD DUP1 SWAP2 SUB SWAP1 LOG1 JUMPDEST POP POP POP POP POP POP JUMP JUMPDEST PUSH32 0xA49807205CE4D355092EF5A8A18F56E8913CF4A201FBE287825B095693C21775 PUSH2 0xA77 DUP2 PUSH2 0x1038 JUMP JUMPDEST PUSH1 0x2 DUP4 PUSH1 0x40 MLOAD PUSH2 0xA87 SWAP2 SWAP1 PUSH2 0x1B0E JUMP JUMPDEST SWAP1 DUP2 MSTORE PUSH1 0x20 ADD PUSH1 0x40 MLOAD DUP1 SWAP2 SUB SWAP1 KECCAK256 PUSH0 SWAP1 SLOAD SWAP1 PUSH2 0x100 EXP SWAP1 DIV PUSH1 0xFF AND PUSH2 0xAE3 JUMPI DUP3 PUSH1 0x40 MLOAD PUSH32 0x7BECAD5200000000000000000000000000000000000000000000000000000000 DUP2 MSTORE PUSH1 0x4 ADD PUSH2 0xADA SWAP2 SWAP1 PUSH2 0x1A32 JUMP JUMPDEST PUSH1 0x40 MLOAD DUP1 SWAP2 SUB SWAP1 REVERT JUMPDEST PUSH0 DUP1 PUSH0 DUP7 PUSH20 0xFFFFFFFFFFFFFFFFFFFFFFFFFFFFFFFFFFFFFFFF AND PUSH20 0xFFFFFFFFFFFFFFFFFFFFFFFFFFFFFFFFFFFFFFFF AND DUP2 MSTORE PUSH1 0x20 ADD SWAP1 DUP2 MSTORE PUSH1 0x20 ADD PUSH0 KECCAK256 DUP5 PUSH1 0x40 MLOAD PUSH2 0xB2E SWAP2 SWAP1 PUSH2 0x1B0E JUMP JUMPDEST SWAP1 DUP2 MSTORE PUSH1 0x20 ADD PUSH1 0x40 MLOAD DUP1 SWAP2 SUB SWAP1 KECCAK256 PUSH0 SWAP1 SLOAD SWAP1 PUSH2 0x100 EXP SWAP1 DIV PUSH16 0xFFFFFFFFFFFFFFFFFFFFFFFFFFFFFFFF AND SWAP1 POP DUP3 PUSH0 DUP1 DUP8 PUSH20 0xFFFFFFFFFFFFFFFFFFFFFFFFFFFFFFFFFFFFFFFF AND PUSH20 0xFFFFFFFFFFFFFFFFFFFFFFFFFFFFFFFFFFFFFFFF AND DUP2 MSTORE PUSH1 0x20 ADD SWAP1 DUP2 MSTORE PUSH1 0x20 ADD PUSH0 KECCAK256 DUP6 PUSH1 0x40 MLOAD PUSH2 0xBA5 SWAP2 SWAP1 PUSH2 0x1B0E JUMP JUMPDEST SWAP1 DUP2 MSTORE PUSH1 0x20 ADD PUSH1 0x40 MLOAD DUP1 SWAP2 SUB SWAP1 KECCAK256 PUSH0 PUSH2 0x100 EXP DUP2 SLOAD DUP2 PUSH16 0xFFFFFFFFFFFFFFFFFFFFFFFFFFFFFFFF MUL NOT AND SWAP1 DUP4 PUSH16 0xFFFFFFFFFFFFFFFFFFFFFFFFFFFFFFFF AND MUL OR SWAP1 SSTORE POP DUP5 PUSH20 0xFFFFFFFFFFFFFFFFFFFFFFFFFFFFFFFFFFFFFFFF AND PUSH32 0x96E76E471BE932DCF10DFB1789068C3C023CA316D8ECA3DA1A0E8AB2F97799F6 DUP6 DUP6 DUP5 PUSH1 0x40 MLOAD PUSH2 0xC32 SWAP4 SWAP3 SWAP2 SWAP1 PUSH2 0x202B JUMP JUMPDEST PUSH1 0x40 MLOAD DUP1 SWAP2 SUB SWAP1 LOG2 POP POP POP POP POP JUMP JUMPDEST PUSH2 0xC49 PUSH2 0xF8A JUMP JUMPDEST PUSH1 0x2 DUP2 PUSH1 0x40 MLOAD PUSH2 0xC59 SWAP2 SWAP1 PUSH2 0x1B0E JUMP JUMPDEST SWAP1 DUP2 MSTORE PUSH1 0x20 ADD PUSH1 0x40 MLOAD DUP1 SWAP2 SUB SWAP1 KECCAK256 PUSH0 SWAP1 SLOAD SWAP1 PUSH2 0x100 EXP SWAP1 DIV PUSH1 0xFF AND ISZERO PUSH2 0xCB6 JUMPI DUP1 PUSH1 0x40 MLOAD PUSH32 0x69FEE1E600000000000000000000000000000000000000000000000000000000 DUP2 MSTORE PUSH1 0x4 ADD PUSH2 0xCAD SWAP2 SWAP1 PUSH2 0x1A32 JUMP JUMPDEST PUSH1 0x40 MLOAD DUP1 SWAP2 SUB SWAP1 REVERT JUMPDEST PUSH1 0x1 DUP2 SWAP1 DUP1 PUSH1 0x1 DUP2 SLOAD ADD DUP1 DUP3 SSTORE DUP1 SWAP2 POP POP PUSH1 0x1 SWAP1 SUB SWAP1 PUSH0 MSTORE PUSH1 0x20 PUSH0 KECCAK256 ADD PUSH0 SWAP1 SWAP2 SWAP1 SWAP2 SWAP1 SWAP2 POP SWAP1 DUP2 PUSH2 0xCE7 SWAP2 SWAP1 PUSH2 0x2067 JUMP JUMPDEST POP PUSH1 0x1 PUSH1 0x2 DUP3 PUSH1 0x40 MLOAD PUSH2 0xCFA SWAP2 SWAP1 PUSH2 0x1B0E JUMP JUMPDEST SWAP1 DUP2 MSTORE PUSH1 0x20 ADD PUSH1 0x40 MLOAD DUP1 SWAP2 SUB SWAP1 KECCAK256 PUSH0 PUSH2 0x100 EXP DUP2 SLOAD DUP2 PUSH1 0xFF MUL NOT AND SWAP1 DUP4 ISZERO ISZERO MUL OR SWAP1 SSTORE POP PUSH32 0xA72133137AA3E3B5619506C1C0113005B6DB9E05730AABC696A1686379A24C04 DUP2 PUSH1 0x40 MLOAD PUSH2 0xD4D SWAP2 SWAP1 PUSH2 0x1A32 JUMP JUMPDEST PUSH1 0x40 MLOAD DUP1 SWAP2 SUB SWAP1 LOG1 POP JUMP JUMPDEST PUSH1 0x1 DUP2 DUP2 SLOAD DUP2 LT PUSH2 0xD67 JUMPI PUSH0 DUP1 REVERT JUMPDEST SWAP1 PUSH0 MSTORE PUSH1 0x20 PUSH0 KECCAK256 ADD PUSH0 SWAP2 POP SWAP1 POP DUP1 SLOAD PUSH2 0xD7F SWAP1 PUSH2 0x1B7E JUMP JUMPDEST DUP1 PUSH1 0x1F ADD PUSH1 0x20 DUP1 SWAP2 DIV MUL PUSH1 0x20 ADD PUSH1 0x40 MLOAD SWAP1 DUP2 ADD PUSH1 0x40 MSTORE DUP1 SWAP3 SWAP2 SWAP1 DUP2 DUP2 MSTORE PUSH1 0x20 ADD DUP3 DUP1 SLOAD PUSH2 0xDAB SWAP1 PUSH2 0x1B7E JUMP JUMPDEST DUP1 ISZERO PUSH2 0xDF6 JUMPI DUP1 PUSH1 0x1F LT PUSH2 0xDCD JUMPI PUSH2 0x100 DUP1 DUP4 SLOAD DIV MUL DUP4 MSTORE SWAP2 PUSH1 0x20 ADD SWAP2 PUSH2 0xDF6 JUMP JUMPDEST DUP3 ADD SWAP2 SWAP1 PUSH0 MSTORE PUSH1 0x20 PUSH0 KECCAK256 SWAP1 JUMPDEST DUP2 SLOAD DUP2 MSTORE SWAP1 PUSH1 0x1 ADD SWAP1 PUSH1 0x20 ADD DUP1 DUP4 GT PUSH2 0xDD9 JUMPI DUP3 SWAP1 SUB PUSH1 0x1F AND DUP3 ADD SWAP2 JUMPDEST POP POP POP POP POP DUP2 JUMP JUMPDEST PUSH2 0xE07 DUP3 PUSH2 0x478 JUMP JUMPDEST PUSH2 0xE10 DUP2 PUSH2 0x1038 JUMP JUMPDEST PUSH2 0xE1A DUP4 DUP4 PUSH2 0x114B JUMP JUMPDEST POP POP POP POP JUMP JUMPDEST PUSH0 DUP1 PUSH0 DUP5 PUSH20 0xFFFFFFFFFFFFFFFFFFFFFFFFFFFFFFFFFFFFFFFF AND PUSH20 0xFFFFFFFFFFFFFFFFFFFFFFFFFFFFFFFFFFFFFFFF AND DUP2 MSTORE PUSH1 0x20 ADD SWAP1 DUP2 MSTORE PUSH1 0x20 ADD PUSH0 KECCAK256 DUP3 PUSH1 0x40 MLOAD PUSH2 0xE6B SWAP2 SWAP1 PUSH2 0x1B0E JUMP JUMPDEST SWAP1 DUP2 MSTORE PUSH1 0x20 ADD PUSH1 0x40 MLOAD DUP1 SWAP2 SUB SWAP1 KECCAK256 PUSH0 SWAP1 SLOAD SWAP1 PUSH2 0x100 EXP SWAP1 DIV PUSH16 0xFFFFFFFFFFFFFFFFFFFFFFFFFFFFFFFF AND SWAP1 POP SWAP3 SWAP2 POP POP JUMP JUMPDEST PUSH2 0xEA5 PUSH2 0xF8A JUMP JUMPDEST PUSH0 PUSH20 0xFFFFFFFFFFFFFFFFFFFFFFFFFFFFFFFFFFFFFFFF AND DUP2 PUSH20 0xFFFFFFFFFFFFFFFFFFFFFFFFFFFFFFFFFFFFFFFF AND SUB PUSH2 0xF15 JUMPI PUSH0 PUSH1 0x40 MLOAD PUSH32 0x1E4FBDF700000000000000000000000000000000000000000000000000000000 DUP2 MSTORE PUSH1 0x4 ADD PUSH2 0xF0C SWAP2 SWAP1 PUSH2 0x1727 JUMP JUMPDEST PUSH1 0x40 MLOAD DUP1 SWAP2 SUB SWAP1 REVERT JUMPDEST PUSH2 0xF1E DUP2 PUSH2 0x1243 JUMP JUMPDEST POP JUMP JUMPDEST PUSH0 PUSH32 0x1FFC9A700000000000000000000000000000000000000000000000000000000 PUSH28 0xFFFFFFFFFFFFFFFFFFFFFFFFFFFFFFFFFFFFFFFFFFFFFFFFFFFFFFFF NOT AND DUP3 PUSH28 0xFFFFFFFFFFFFFFFFFFFFFFFFFFFFFFFFFFFFFFFFFFFFFFFFFFFFFFFF NOT AND EQ SWAP1 POP SWAP2 SWAP1 POP JUMP JUMPDEST PUSH2 0xF92 PUSH2 0x1144 JUMP JUMPDEST PUSH20 0xFFFFFFFFFFFFFFFFFFFFFFFFFFFFFFFFFFFFFFFF AND PUSH2 0xFB0 PUSH2 0x5DD JUMP JUMPDEST PUSH20 0xFFFFFFFFFFFFFFFFFFFFFFFFFFFFFFFFFFFFFFFF AND EQ PUSH2 0x100F JUMPI PUSH2 0xFD3 PUSH2 0x1144 JUMP JUMPDEST PUSH1 0x40 MLOAD PUSH32 0x118CDAA700000000000000000000000000000000000000000000000000000000 DUP2 MSTORE PUSH1 0x4 ADD PUSH2 0x1006 SWAP2 SWAP1 PUSH2 0x1727 JUMP JUMPDEST PUSH1 0x40 MLOAD DUP1 SWAP2 SUB SWAP1 REVERT JUMPDEST JUMP JUMPDEST PUSH0 PUSH32 0x2DD7BC7DEC4DCEEDDA775E58DD541E08A116C6C53815C0BD028192F7B626800 SWAP1 POP SWAP1 JUMP JUMPDEST PUSH2 0x1049 DUP2 PUSH2 0x1044 PUSH2 0x1144 JUMP JUMPDEST PUSH2 0x1380 JUMP JUMPDEST POP JUMP JUMPDEST PUSH0 DUP1 PUSH2 0x1056 PUSH2 0x1011 JUMP JUMPDEST SWAP1 POP PUSH2 0x1062 DUP5 DUP5 PUSH2 0x612 JUMP JUMPDEST PUSH2 0x1139 JUMPI PUSH1 0x1 DUP2 PUSH0 ADD PUSH0 DUP7 DUP2 MSTORE PUSH1 0x20 ADD SWAP1 DUP2 MSTORE PUSH1 0x20 ADD PUSH0 KECCAK256 PUSH0 ADD PUSH0 DUP6 PUSH20 0xFFFFFFFFFFFFFFFFFFFFFFFFFFFFFFFFFFFFFFFF AND PUSH20 0xFFFFFFFFFFFFFFFFFFFFFFFFFFFFFFFFFFFFFFFF AND DUP2 MSTORE PUSH1 0x20 ADD SWAP1 DUP2 MSTORE PUSH1 0x20 ADD PUSH0 KECCAK256 PUSH0 PUSH2 0x100 EXP DUP2 SLOAD DUP2 PUSH1 0xFF MUL NOT AND SWAP1 DUP4 ISZERO ISZERO MUL OR SWAP1 SSTORE POP PUSH2 0x10D5 PUSH2 0x1144 JUMP JUMPDEST PUSH20 0xFFFFFFFFFFFFFFFFFFFFFFFFFFFFFFFFFFFFFFFF AND DUP4 PUSH20 0xFFFFFFFFFFFFFFFFFFFFFFFFFFFFFFFFFFFFFFFF AND DUP6 PUSH32 0x2F8788117E7EFF1D82E926EC794901D17C78024A50270940304540A733656F0D PUSH1 0x40 MLOAD PUSH1 0x40 MLOAD DUP1 SWAP2 SUB SWAP1 LOG4 PUSH1 0x1 SWAP2 POP POP PUSH2 0x113E JUMP JUMPDEST PUSH0 SWAP2 POP POP JUMPDEST SWAP3 SWAP2 POP POP JUMP JUMPDEST PUSH0 CALLER SWAP1 POP SWAP1 JUMP JUMPDEST PUSH0 DUP1 PUSH2 0x1155 PUSH2 0x1011 JUMP JUMPDEST SWAP1 POP PUSH2 0x1161 DUP5 DUP5 PUSH2 0x612 JUMP JUMPDEST ISZERO PUSH2 0x1238 JUMPI PUSH0 DUP2 PUSH0 ADD PUSH0 DUP7 DUP2 MSTORE PUSH1 0x20 ADD SWAP1 DUP2 MSTORE PUSH1 0x20 ADD PUSH0 KECCAK256 PUSH0 ADD PUSH0 DUP6 PUSH20 0xFFFFFFFFFFFFFFFFFFFFFFFFFFFFFFFFFFFFFFFF AND PUSH20 0xFFFFFFFFFFFFFFFFFFFFFFFFFFFFFFFFFFFFFFFF AND DUP2 MSTORE PUSH1 0x20 ADD SWAP1 DUP2 MSTORE PUSH1 0x20 ADD PUSH0 KECCAK256 PUSH0 PUSH2 0x100 EXP DUP2 SLOAD DUP2 PUSH1 0xFF MUL NOT AND SWAP1 DUP4 ISZERO ISZERO MUL OR SWAP1 SSTORE POP PUSH2 0x11D4 PUSH2 0x1144 JUMP JUMPDEST PUSH20 0xFFFFFFFFFFFFFFFFFFFFFFFFFFFFFFFFFFFFFFFF AND DUP4 PUSH20 0xFFFFFFFFFFFFFFFFFFFFFFFFFFFFFFFFFFFFFFFF AND DUP6 PUSH32 0xF6391F5C32D9C69D2A47EA670B442974B53935D1EDC7FD64EB21E047A839171B PUSH1 0x40 MLOAD PUSH1 0x40 MLOAD DUP1 SWAP2 SUB SWAP1 LOG4 PUSH1 0x1 SWAP2 POP POP PUSH2 0x123D JUMP JUMPDEST PUSH0 SWAP2 POP POP JUMPDEST SWAP3 SWAP2 POP POP JUMP JUMPDEST PUSH0 PUSH2 0x124C PUSH2 0x1314 JUMP JUMPDEST SWAP1 POP PUSH0 DUP2 PUSH0 ADD PUSH0 SWAP1 SLOAD SWAP1 PUSH2 0x100 EXP SWAP1 DIV PUSH20 0xFFFFFFFFFFFFFFFFFFFFFFFFFFFFFFFFFFFFFFFF AND SWAP1 POP DUP3 DUP3 PUSH0 ADD PUSH0 PUSH2 0x100 EXP DUP2 SLOAD DUP2 PUSH20 0xFFFFFFFFFFFFFFFFFFFFFFFFFFFFFFFFFFFFFFFF MUL NOT AND SWAP1 DUP4 PUSH20 0xFFFFFFFFFFFFFFFFFFFFFFFFFFFFFFFFFFFFFFFF AND MUL OR SWAP1 SSTORE POP DUP3 PUSH20 0xFFFFFFFFFFFFFFFFFFFFFFFFFFFFFFFFFFFFFFFF AND DUP2 PUSH20 0xFFFFFFFFFFFFFFFFFFFFFFFFFFFFFFFFFFFFFFFF AND PUSH32 0x8BE0079C531659141344CD1FD0A4F28419497F9722A3DAAFE3B4186F6B6457E0 PUSH1 0x40 MLOAD PUSH1 0x40 MLOAD DUP1 SWAP2 SUB SWAP1 LOG3 POP POP POP JUMP JUMPDEST PUSH0 PUSH32 0x9016D09D72D40FDAE2FD8CEAC6B6234C7706214FD39C1CD1E609A0528C199300 SWAP1 POP SWAP1 JUMP JUMPDEST PUSH0 PUSH32 0xF0C57E16840DF040F15088DC2F81FE391C3923BEC73E23A9662EFC9C229C6A00 SWAP1 POP SWAP1 JUMP JUMPDEST PUSH2 0x136A PUSH2 0x13D1 JUMP JUMPDEST PUSH2 0x1373 DUP2 PUSH2 0x1411 JUMP JUMPDEST POP JUMP JUMPDEST PUSH2 0x137E PUSH2 0x13D1 JUMP JUMPDEST JUMP JUMPDEST PUSH2 0x138A DUP3 DUP3 PUSH2 0x612 JUMP JUMPDEST PUSH2 0x13CD JUMPI DUP1 DUP3 PUSH1 0x40 MLOAD PUSH32 0xE2517D3F00000000000000000000000000000000000000000000000000000000 DUP2 MSTORE PUSH1 0x4 ADD PUSH2 0x13C4 SWAP3 SWAP2 SWAP1 PUSH2 0x2136 JUMP JUMPDEST PUSH1 0x40 MLOAD DUP1 SWAP2 SUB SWAP1 REVERT JUMPDEST POP POP JUMP JUMPDEST PUSH2 0x13D9 PUSH2 0x1495 JUMP JUMPDEST PUSH2 0x140F JUMPI PUSH1 0x40 MLOAD PUSH32 0xD7E6BCF800000000000000000000000000000000000000000000000000000000 DUP2 MSTORE PUSH1 0x4 ADD PUSH1 0x40 MLOAD DUP1 SWAP2 SUB SWAP1 REVERT JUMPDEST JUMP JUMPDEST PUSH2 0x1419 PUSH2 0x13D1 JUMP JUMPDEST PUSH0 PUSH20 0xFFFFFFFFFFFFFFFFFFFFFFFFFFFFFFFFFFFFFFFF AND DUP2 PUSH20 0xFFFFFFFFFFFFFFFFFFFFFFFFFFFFFFFFFFFFFFFF AND SUB PUSH2 0x1489 JUMPI PUSH0 PUSH1 0x40 MLOAD PUSH32 0x1E4FBDF700000000000000000000000000000000000000000000000000000000 DUP2 MSTORE PUSH1 0x4 ADD PUSH2 0x1480 SWAP2 SWAP1 PUSH2 0x1727 JUMP JUMPDEST PUSH1 0x40 MLOAD DUP1 SWAP2 SUB SWAP1 REVERT JUMPDEST PUSH2 0x1492 DUP2 PUSH2 0x1243 JUMP JUMPDEST POP JUMP JUMPDEST PUSH0 PUSH2 0x149E PUSH2 0x133B JUMP JUMPDEST PUSH0 ADD PUSH1 0x8 SWAP1 SLOAD SWAP1 PUSH2 0x100 EXP SWAP1 DIV PUSH1 0xFF AND SWAP1 POP SWAP1 JUMP JUMPDEST POP DUP1 SLOAD PUSH2 0x14BF SWAP1 PUSH2 0x1B7E JUMP JUMPDEST PUSH0 DUP3 SSTORE DUP1 PUSH1 0x1F LT PUSH2 0x14D0 JUMPI POP PUSH2 0x14ED JUMP JUMPDEST PUSH1 0x1F ADD PUSH1 0x20 SWAP1 DIV SWAP1 PUSH0 MSTORE PUSH1 0x20 PUSH0 KECCAK256 SWAP1 DUP2 ADD SWAP1 PUSH2 0x14EC SWAP2 SWAP1 PUSH2 0x14F0 JUMP JUMPDEST JUMPDEST POP JUMP JUMPDEST JUMPDEST DUP1 DUP3 GT ISZERO PUSH2 0x1507 JUMPI PUSH0 DUP2 PUSH0 SWAP1 SSTORE POP PUSH1 0x1 ADD PUSH2 0x14F1 JUMP JUMPDEST POP SWAP1 JUMP JUMPDEST PUSH0 PUSH1 0x40 MLOAD SWAP1 POP SWAP1 JUMP JUMPDEST PUSH0 DUP1 REVERT JUMPDEST PUSH0 DUP1 REVERT JUMPDEST PUSH0 PUSH32 0xFFFFFFFF00000000000000000000000000000000000000000000000000000000 DUP3 AND SWAP1 POP SWAP2 SWAP1 POP JUMP JUMPDEST PUSH2 0x1550 DUP2 PUSH2 0x151C JUMP JUMPDEST DUP2 EQ PUSH2 0x155A JUMPI PUSH0 DUP1 REVERT JUMPDEST POP JUMP JUMPDEST PUSH0 DUP2 CALLDATALOAD SWAP1 POP PUSH2 0x156B DUP2 PUSH2 0x1547 JUMP JUMPDEST SWAP3 SWAP2 POP POP JUMP JUMPDEST PUSH0 PUSH1 0x20 DUP3 DUP5 SUB SLT ISZERO PUSH2 0x1586 JUMPI PUSH2 0x1585 PUSH2 0x1514 JUMP JUMPDEST JUMPDEST PUSH0 PUSH2 0x1593 DUP5 DUP3 DUP6 ADD PUSH2 0x155D JUMP JUMPDEST SWAP2 POP POP SWAP3 SWAP2 POP POP JUMP JUMPDEST PUSH0 DUP2 ISZERO ISZERO SWAP1 POP SWAP2 SWAP1 POP JUMP JUMPDEST PUSH2 0x15B0 DUP2 PUSH2 0x159C JUMP JUMPDEST DUP3 MSTORE POP POP JUMP JUMPDEST PUSH0 PUSH1 0x20 DUP3 ADD SWAP1 POP PUSH2 0x15C9 PUSH0 DUP4 ADD DUP5 PUSH2 0x15A7 JUMP JUMPDEST SWAP3 SWAP2 POP POP JUMP JUMPDEST PUSH0 PUSH20 0xFFFFFFFFFFFFFFFFFFFFFFFFFFFFFFFFFFFFFFFF DUP3 AND SWAP1 POP SWAP2 SWAP1 POP JUMP JUMPDEST PUSH0 PUSH2 0x15F8 DUP3 PUSH2 0x15CF JUMP JUMPDEST SWAP1 POP SWAP2 SWAP1 POP JUMP JUMPDEST PUSH2 0x1608 DUP2 PUSH2 0x15EE JUMP JUMPDEST DUP2 EQ PUSH2 0x1612 JUMPI PUSH0 DUP1 REVERT JUMPDEST POP JUMP JUMPDEST PUSH0 DUP2 CALLDATALOAD SWAP1 POP PUSH2 0x1623 DUP2 PUSH2 0x15FF JUMP JUMPDEST SWAP3 SWAP2 POP POP JUMP JUMPDEST PUSH0 PUSH1 0x20 DUP3 DUP5 SUB SLT ISZERO PUSH2 0x163E JUMPI PUSH2 0x163D PUSH2 0x1514 JUMP JUMPDEST JUMPDEST PUSH0 PUSH2 0x164B DUP5 DUP3 DUP6 ADD PUSH2 0x1615 JUMP JUMPDEST SWAP2 POP POP SWAP3 SWAP2 POP POP JUMP JUMPDEST PUSH0 DUP2 SWAP1 POP SWAP2 SWAP1 POP JUMP JUMPDEST PUSH2 0x1666 DUP2 PUSH2 0x1654 JUMP JUMPDEST DUP2 EQ PUSH2 0x1670 JUMPI PUSH0 DUP1 REVERT JUMPDEST POP JUMP JUMPDEST PUSH0 DUP2 CALLDATALOAD SWAP1 POP PUSH2 0x1681 DUP2 PUSH2 0x165D JUMP JUMPDEST SWAP3 SWAP2 POP POP JUMP JUMPDEST PUSH0 PUSH1 0x20 DUP3 DUP5 SUB SLT ISZERO PUSH2 0x169C JUMPI PUSH2 0x169B PUSH2 0x1514 JUMP JUMPDEST JUMPDEST PUSH0 PUSH2 0x16A9 DUP5 DUP3 DUP6 ADD PUSH2 0x1673 JUMP JUMPDEST SWAP2 POP POP SWAP3 SWAP2 POP POP JUMP JUMPDEST PUSH2 0x16BB DUP2 PUSH2 0x1654 JUMP JUMPDEST DUP3 MSTORE POP POP JUMP JUMPDEST PUSH0 PUSH1 0x20 DUP3 ADD SWAP1 POP PUSH2 0x16D4 PUSH0 DUP4 ADD DUP5 PUSH2 0x16B2 JUMP JUMPDEST SWAP3 SWAP2 POP POP JUMP JUMPDEST PUSH0 DUP1 PUSH1 0x40 DUP4 DUP6 SUB SLT ISZERO PUSH2 0x16F0 JUMPI PUSH2 0x16EF PUSH2 0x1514 JUMP JUMPDEST JUMPDEST PUSH0 PUSH2 0x16FD DUP6 DUP3 DUP7 ADD PUSH2 0x1673 JUMP JUMPDEST SWAP3 POP POP PUSH1 0x20 PUSH2 0x170E DUP6 DUP3 DUP7 ADD PUSH2 0x1615 JUMP JUMPDEST SWAP2 POP POP SWAP3 POP SWAP3 SWAP1 POP JUMP JUMPDEST PUSH2 0x1721 DUP2 PUSH2 0x15EE JUMP JUMPDEST DUP3 MSTORE POP POP JUMP JUMPDEST PUSH0 PUSH1 0x20 DUP3 ADD SWAP1 POP PUSH2 0x173A PUSH0 DUP4 ADD DUP5 PUSH2 0x1718 JUMP JUMPDEST SWAP3 SWAP2 POP POP JUMP JUMPDEST PUSH0 DUP1 REVERT JUMPDEST PUSH0 DUP1 REVERT JUMPDEST PUSH0 PUSH1 0x1F NOT PUSH1 0x1F DUP4 ADD AND SWAP1 POP SWAP2 SWAP1 POP JUMP JUMPDEST PUSH32 0x4E487B7100000000000000000000000000000000000000000000000000000000 PUSH0 MSTORE PUSH1 0x41 PUSH1 0x4 MSTORE PUSH1 0x24 PUSH0 REVERT JUMPDEST PUSH2 0x178E DUP3 PUSH2 0x1748 JUMP JUMPDEST DUP2 ADD DUP2 DUP2 LT PUSH8 0xFFFFFFFFFFFFFFFF DUP3 GT OR ISZERO PUSH2 0x17AD JUMPI PUSH2 0x17AC PUSH2 0x1758 JUMP JUMPDEST JUMPDEST DUP1 PUSH1 0x40 MSTORE POP POP POP JUMP JUMPDEST PUSH0 PUSH2 0x17BF PUSH2 0x150B JUMP JUMPDEST SWAP1 POP PUSH2 0x17CB DUP3 DUP3 PUSH2 0x1785 JUMP JUMPDEST SWAP2 SWAP1 POP JUMP JUMPDEST PUSH0 PUSH8 0xFFFFFFFFFFFFFFFF DUP3 GT ISZERO PUSH2 0x17EA JUMPI PUSH2 0x17E9 PUSH2 0x1758 JUMP JUMPDEST JUMPDEST PUSH2 0x17F3 DUP3 PUSH2 0x1748 JUMP JUMPDEST SWAP1 POP PUSH1 0x20 DUP2 ADD SWAP1 POP SWAP2 SWAP1 POP JUMP JUMPDEST DUP3 DUP2 DUP4 CALLDATACOPY PUSH0 DUP4 DUP4 ADD MSTORE POP POP POP JUMP JUMPDEST PUSH0 PUSH2 0x1820 PUSH2 0x181B DUP5 PUSH2 0x17D0 JUMP JUMPDEST PUSH2 0x17B6 JUMP JUMPDEST SWAP1 POP DUP3 DUP2 MSTORE PUSH1 0x20 DUP2 ADD DUP5 DUP5 DUP5 ADD GT ISZERO PUSH2 0x183C JUMPI PUSH2 0x183B PUSH2 0x1744 JUMP JUMPDEST JUMPDEST PUSH2 0x1847 DUP5 DUP3 DUP6 PUSH2 0x1800 JUMP JUMPDEST POP SWAP4 SWAP3 POP POP POP JUMP JUMPDEST PUSH0 DUP3 PUSH1 0x1F DUP4 ADD SLT PUSH2 0x1863 JUMPI PUSH2 0x1862 PUSH2 0x1740 JUMP JUMPDEST JUMPDEST DUP2 CALLDATALOAD PUSH2 0x1873 DUP5 DUP3 PUSH1 0x20 DUP7 ADD PUSH2 0x180E JUMP JUMPDEST SWAP2 POP POP SWAP3 SWAP2 POP POP JUMP JUMPDEST PUSH0 PUSH1 0x20 DUP3 DUP5 SUB SLT ISZERO PUSH2 0x1891 JUMPI PUSH2 0x1890 PUSH2 0x1514 JUMP JUMPDEST JUMPDEST PUSH0 DUP3 ADD CALLDATALOAD PUSH8 0xFFFFFFFFFFFFFFFF DUP2 GT ISZERO PUSH2 0x18AE JUMPI PUSH2 0x18AD PUSH2 0x1518 JUMP JUMPDEST JUMPDEST PUSH2 0x18BA DUP5 DUP3 DUP6 ADD PUSH2 0x184F JUMP JUMPDEST SWAP2 POP POP SWAP3 SWAP2 POP POP JUMP JUMPDEST PUSH0 PUSH16 0xFFFFFFFFFFFFFFFFFFFFFFFFFFFFFFFF DUP3 AND SWAP1 POP SWAP2 SWAP1 POP JUMP JUMPDEST PUSH2 0x18E7 DUP2 PUSH2 0x18C3 JUMP JUMPDEST DUP2 EQ PUSH2 0x18F1 JUMPI PUSH0 DUP1 REVERT JUMPDEST POP JUMP JUMPDEST PUSH0 DUP2 CALLDATALOAD SWAP1 POP PUSH2 0x1902 DUP2 PUSH2 0x18DE JUMP JUMPDEST SWAP3 SWAP2 POP POP JUMP JUMPDEST PUSH0 DUP1 PUSH0 PUSH1 0x60 DUP5 DUP7 SUB SLT ISZERO PUSH2 0x191F JUMPI PUSH2 0x191E PUSH2 0x1514 JUMP JUMPDEST JUMPDEST PUSH0 PUSH2 0x192C DUP7 DUP3 DUP8 ADD PUSH2 0x1615 JUMP JUMPDEST SWAP4 POP POP PUSH1 0x20 DUP5 ADD CALLDATALOAD PUSH8 0xFFFFFFFFFFFFFFFF DUP2 GT ISZERO PUSH2 0x194D JUMPI PUSH2 0x194C PUSH2 0x1518 JUMP JUMPDEST JUMPDEST PUSH2 0x1959 DUP7 DUP3 DUP8 ADD PUSH2 0x184F JUMP JUMPDEST SWAP3 POP POP PUSH1 0x40 PUSH2 0x196A DUP7 DUP3 DUP8 ADD PUSH2 0x18F4 JUMP JUMPDEST SWAP2 POP POP SWAP3 POP SWAP3 POP SWAP3 JUMP JUMPDEST PUSH0 DUP2 SWAP1 POP SWAP2 SWAP1 POP JUMP JUMPDEST PUSH2 0x1986 DUP2 PUSH2 0x1974 JUMP JUMPDEST DUP2 EQ PUSH2 0x1990 JUMPI PUSH0 DUP1 REVERT JUMPDEST POP JUMP JUMPDEST PUSH0 DUP2 CALLDATALOAD SWAP1 POP PUSH2 0x19A1 DUP2 PUSH2 0x197D JUMP JUMPDEST SWAP3 SWAP2 POP POP JUMP JUMPDEST PUSH0 PUSH1 0x20 DUP3 DUP5 SUB SLT ISZERO PUSH2 0x19BC JUMPI PUSH2 0x19BB PUSH2 0x1514 JUMP JUMPDEST JUMPDEST PUSH0 PUSH2 0x19C9 DUP5 DUP3 DUP6 ADD PUSH2 0x1993 JUMP JUMPDEST SWAP2 POP POP SWAP3 SWAP2 POP POP JUMP JUMPDEST PUSH0 DUP2 MLOAD SWAP1 POP SWAP2 SWAP1 POP JUMP JUMPDEST PUSH0 DUP3 DUP3 MSTORE PUSH1 0x20 DUP3 ADD SWAP1 POP SWAP3 SWAP2 POP POP JUMP JUMPDEST DUP3 DUP2 DUP4 MCOPY PUSH0 DUP4 DUP4 ADD MSTORE POP POP POP JUMP JUMPDEST PUSH0 PUSH2 0x1A04 DUP3 PUSH2 0x19D2 JUMP JUMPDEST PUSH2 0x1A0E DUP2 DUP6 PUSH2 0x19DC JUMP JUMPDEST SWAP4 POP PUSH2 0x1A1E DUP2 DUP6 PUSH1 0x20 DUP7 ADD PUSH2 0x19EC JUMP JUMPDEST PUSH2 0x1A27 DUP2 PUSH2 0x1748 JUMP JUMPDEST DUP5 ADD SWAP2 POP POP SWAP3 SWAP2 POP POP JUMP JUMPDEST PUSH0 PUSH1 0x20 DUP3 ADD SWAP1 POP DUP2 DUP2 SUB PUSH0 DUP4 ADD MSTORE PUSH2 0x1A4A DUP2 DUP5 PUSH2 0x19FA JUMP JUMPDEST SWAP1 POP SWAP3 SWAP2 POP POP JUMP JUMPDEST PUSH0 DUP1 PUSH1 0x40 DUP4 DUP6 SUB SLT ISZERO PUSH2 0x1A68 JUMPI PUSH2 0x1A67 PUSH2 0x1514 JUMP JUMPDEST JUMPDEST PUSH0 PUSH2 0x1A75 DUP6 DUP3 DUP7 ADD PUSH2 0x1615 JUMP JUMPDEST SWAP3 POP POP PUSH1 0x20 DUP4 ADD CALLDATALOAD PUSH8 0xFFFFFFFFFFFFFFFF DUP2 GT ISZERO PUSH2 0x1A96 JUMPI PUSH2 0x1A95 PUSH2 0x1518 JUMP JUMPDEST JUMPDEST PUSH2 0x1AA2 DUP6 DUP3 DUP7 ADD PUSH2 0x184F JUMP JUMPDEST SWAP2 POP POP SWAP3 POP SWAP3 SWAP1 POP JUMP JUMPDEST PUSH2 0x1AB5 DUP2 PUSH2 0x18C3 JUMP JUMPDEST DUP3 MSTORE POP POP JUMP JUMPDEST PUSH0 PUSH1 0x20 DUP3 ADD SWAP1 POP PUSH2 0x1ACE PUSH0 DUP4 ADD DUP5 PUSH2 0x1AAC JUMP JUMPDEST SWAP3 SWAP2 POP POP JUMP JUMPDEST PUSH0 DUP2 SWAP1 POP SWAP3 SWAP2 POP POP JUMP JUMPDEST PUSH0 PUSH2 0x1AE8 DUP3 PUSH2 0x19D2 JUMP JUMPDEST PUSH2 0x1AF2 DUP2 DUP6 PUSH2 0x1AD4 JUMP JUMPDEST SWAP4 POP PUSH2 0x1B02 DUP2 DUP6 PUSH1 0x20 DUP7 ADD PUSH2 0x19EC JUMP JUMPDEST DUP1 DUP5 ADD SWAP2 POP POP SWAP3 SWAP2 POP POP JUMP JUMPDEST PUSH0 PUSH2 0x1B19 DUP3 DUP5 PUSH2 0x1ADE JUMP JUMPDEST SWAP2 POP DUP2 SWAP1 POP SWAP3 SWAP2 POP POP JUMP JUMPDEST PUSH32 0x4E487B7100000000000000000000000000000000000000000000000000000000 PUSH0 MSTORE PUSH1 0x32 PUSH1 0x4 MSTORE PUSH1 0x24 PUSH0 REVERT JUMPDEST PUSH32 0x4E487B7100000000000000000000000000000000000000000000000000000000 PUSH0 MSTORE PUSH1 0x22 PUSH1 0x4 MSTORE PUSH1 0x24 PUSH0 REVERT JUMPDEST PUSH0 PUSH1 0x2 DUP3 DIV SWAP1 POP PUSH1 0x1 DUP3 AND DUP1 PUSH2 0x1B95 JUMPI PUSH1 0x7F DUP3 AND SWAP2 POP JUMPDEST PUSH1 0x20 DUP3 LT DUP2 SUB PUSH2 0x1BA8 JUMPI PUSH2 0x1BA7 PUSH2 0x1B51 JUMP JUMPDEST JUMPDEST POP SWAP2 SWAP1 POP JUMP JUMPDEST PUSH0 DUP2 SWAP1 POP SWAP3 SWAP2 POP POP JUMP JUMPDEST PUSH0 DUP2 SWAP1 POP DUP2 PUSH0 MSTORE PUSH1 0x20 PUSH0 KECCAK256 SWAP1 POP SWAP2 SWAP1 POP JUMP JUMPDEST PUSH0 DUP2 SLOAD PUSH2 0x1BD6 DUP2 PUSH2 0x1B7E JUMP JUMPDEST PUSH2 0x1BE0 DUP2 DUP7 PUSH2 0x1BAE JUMP JUMPDEST SWAP5 POP PUSH1 0x1 DUP3 AND PUSH0 DUP2 EQ PUSH2 0x1BFA JUMPI PUSH1 0x1 DUP2 EQ PUSH2 0x1C0F JUMPI PUSH2 0x1C41 JUMP JUMPDEST PUSH1 0xFF NOT DUP4 AND DUP7 MSTORE DUP2 ISZERO ISZERO DUP3 MUL DUP7 ADD SWAP4 POP PUSH2 0x1C41 JUMP JUMPDEST PUSH2 0x1C18 DUP6 PUSH2 0x1BB8 JUMP JUMPDEST PUSH0 JUMPDEST DUP4 DUP2 LT ISZERO PUSH2 0x1C39 JUMPI DUP2 SLOAD DUP2 DUP10 ADD MSTORE PUSH1 0x1 DUP3 ADD SWAP2 POP PUSH1 0x20 DUP2 ADD SWAP1 POP PUSH2 0x1C1A JUMP JUMPDEST DUP4 DUP9 ADD SWAP6 POP POP POP JUMPDEST POP POP POP SWAP3 SWAP2 POP POP JUMP JUMPDEST PUSH0 PUSH2 0x1C55 DUP3 DUP5 PUSH2 0x1BCA JUMP JUMPDEST SWAP2 POP DUP2 SWAP1 POP SWAP3 SWAP2 POP POP JUMP JUMPDEST PUSH32 0x4E487B7100000000000000000000000000000000000000000000000000000000 PUSH0 MSTORE PUSH1 0x11 PUSH1 0x4 MSTORE PUSH1 0x24 PUSH0 REVERT JUMPDEST PUSH0 PUSH2 0x1C97 DUP3 PUSH2 0x1974 JUMP JUMPDEST SWAP2 POP PUSH2 0x1CA2 DUP4 PUSH2 0x1974 JUMP JUMPDEST SWAP3 POP DUP3 DUP3 SUB SWAP1 POP DUP2 DUP2 GT ISZERO PUSH2 0x1CBA JUMPI PUSH2 0x1CB9 PUSH2 0x1C60 JUMP JUMPDEST JUMPDEST SWAP3 SWAP2 POP POP JUMP JUMPDEST PUSH0 DUP2 SLOAD SWAP1 POP PUSH2 0x1CCE DUP2 PUSH2 0x1B7E JUMP JUMPDEST SWAP1 POP SWAP2 SWAP1 POP JUMP JUMPDEST PUSH0 DUP2 SWAP1 POP DUP2 PUSH0 MSTORE PUSH1 0x20 PUSH0 KECCAK256 SWAP1 POP SWAP2 SWAP1 POP JUMP JUMPDEST PUSH0 DUP2 SWAP1 POP DUP2 PUSH0 MSTORE PUSH1 0x20 PUSH0 KECCAK256 SWAP1 POP SWAP2 SWAP1 POP JUMP JUMPDEST PUSH0 PUSH1 0x20 PUSH1 0x1F DUP4 ADD DIV SWAP1 POP SWAP2 SWAP1 POP JUMP JUMPDEST PUSH0 DUP3 DUP3 SHL SWAP1 POP SWAP3 SWAP2 POP POP JUMP JUMPDEST PUSH0 PUSH1 0x8 DUP4 MUL PUSH2 0x1D43 PUSH32 0xFFFFFFFFFFFFFFFFFFFFFFFFFFFFFFFFFFFFFFFFFFFFFFFFFFFFFFFFFFFFFFFF DUP3 PUSH2 0x1D08 JUMP JUMPDEST PUSH2 0x1D4D DUP7 DUP4 PUSH2 0x1D08 JUMP JUMPDEST SWAP6 POP DUP1 NOT DUP5 AND SWAP4 POP DUP1 DUP7 AND DUP5 OR SWAP3 POP POP POP SWAP4 SWAP3 POP POP POP JUMP JUMPDEST PUSH0 DUP2 SWAP1 POP SWAP2 SWAP1 POP JUMP JUMPDEST PUSH0 PUSH2 0x1D88 PUSH2 0x1D83 PUSH2 0x1D7E DUP5 PUSH2 0x1974 JUMP JUMPDEST PUSH2 0x1D65 JUMP JUMPDEST PUSH2 0x1974 JUMP JUMPDEST SWAP1 POP SWAP2 SWAP1 POP JUMP JUMPDEST PUSH0 DUP2 SWAP1 POP SWAP2 SWAP1 POP JUMP JUMPDEST PUSH2 0x1DA1 DUP4 PUSH2 0x1D6E JUMP JUMPDEST PUSH2 0x1DB5 PUSH2 0x1DAD DUP3 PUSH2 0x1D8F JUMP JUMPDEST DUP5 DUP5 SLOAD PUSH2 0x1D14 JUMP JUMPDEST DUP3 SSTORE POP POP POP POP JUMP JUMPDEST PUSH0 SWAP1 JUMP JUMPDEST PUSH2 0x1DC9 PUSH2 0x1DBD JUMP JUMPDEST PUSH2 0x1DD4 DUP2 DUP5 DUP5 PUSH2 0x1D98 JUMP JUMPDEST POP POP POP JUMP JUMPDEST JUMPDEST DUP2 DUP2 LT ISZERO PUSH2 0x1DF7 JUMPI PUSH2 0x1DEC PUSH0 DUP3 PUSH2 0x1DC1 JUMP JUMPDEST PUSH1 0x1 DUP2 ADD SWAP1 POP PUSH2 0x1DDA JUMP JUMPDEST POP POP JUMP JUMPDEST PUSH1 0x1F DUP3 GT ISZERO PUSH2 0x1E3C JUMPI PUSH2 0x1E0D DUP2 PUSH2 0x1CD5 JUMP JUMPDEST PUSH2 0x1E16 DUP5 PUSH2 0x1CF9 JUMP JUMPDEST DUP2 ADD PUSH1 0x20 DUP6 LT ISZERO PUSH2 0x1E25 JUMPI DUP2 SWAP1 POP JUMPDEST PUSH2 0x1E39 PUSH2 0x1E31 DUP6 PUSH2 0x1CF9 JUMP JUMPDEST DUP4 ADD DUP3 PUSH2 0x1DD9 JUMP JUMPDEST POP POP JUMPDEST POP POP POP JUMP JUMPDEST PUSH0 DUP3 DUP3 SHR SWAP1 POP SWAP3 SWAP2 POP POP JUMP JUMPDEST PUSH0 PUSH2 0x1E5C PUSH0 NOT DUP5 PUSH1 0x8 MUL PUSH2 0x1E41 JUMP JUMPDEST NOT DUP1 DUP4 AND SWAP2 POP POP SWAP3 SWAP2 POP POP JUMP JUMPDEST PUSH0 PUSH2 0x1E74 DUP4 DUP4 PUSH2 0x1E4D JUMP JUMPDEST SWAP2 POP DUP3 PUSH1 0x2 MUL DUP3 OR SWAP1 POP SWAP3 SWAP2 POP POP JUMP JUMPDEST DUP2 DUP2 SUB PUSH2 0x1E92 JUMPI POP POP PUSH2 0x1F67 JUMP JUMPDEST PUSH2 0x1E9B DUP3 PUSH2 0x1CC0 JUMP JUMPDEST PUSH8 0xFFFFFFFFFFFFFFFF DUP2 GT ISZERO PUSH2 0x1EB4 JUMPI PUSH2 0x1EB3 PUSH2 0x1758 JUMP JUMPDEST JUMPDEST PUSH2 0x1EBE DUP3 SLOAD PUSH2 0x1B7E JUMP JUMPDEST PUSH2 0x1EC9 DUP3 DUP3 DUP6 PUSH2 0x1DFB JUMP JUMPDEST PUSH0 PUSH1 0x1F DUP4 GT PUSH1 0x1 DUP2 EQ PUSH2 0x1EF6 JUMPI PUSH0 DUP5 ISZERO PUSH2 0x1EE4 JUMPI DUP3 DUP8 ADD SLOAD SWAP1 POP JUMPDEST PUSH2 0x1EEE DUP6 DUP3 PUSH2 0x1E69 JUMP JUMPDEST DUP7 SSTORE POP PUSH2 0x1F60 JUMP JUMPDEST PUSH1 0x1F NOT DUP5 AND PUSH2 0x1F04 DUP8 PUSH2 0x1CE7 JUMP JUMPDEST SWAP7 POP PUSH2 0x1F0F DUP7 PUSH2 0x1CD5 JUMP JUMPDEST PUSH0 JUMPDEST DUP3 DUP2 LT ISZERO PUSH2 0x1F36 JUMPI DUP5 DUP10 ADD SLOAD DUP3 SSTORE PUSH1 0x1 DUP3 ADD SWAP2 POP PUSH1 0x1 DUP6 ADD SWAP5 POP PUSH1 0x20 DUP2 ADD SWAP1 POP PUSH2 0x1F11 JUMP JUMPDEST DUP7 DUP4 LT ISZERO PUSH2 0x1F53 JUMPI DUP5 DUP10 ADD SLOAD PUSH2 0x1F4F PUSH1 0x1F DUP10 AND DUP3 PUSH2 0x1E4D JUMP JUMPDEST DUP4 SSTORE POP JUMPDEST PUSH1 0x1 PUSH1 0x2 DUP9 MUL ADD DUP9 SSTORE POP POP POP JUMPDEST POP POP POP POP POP POP JUMPDEST JUMP JUMPDEST PUSH32 0x4E487B7100000000000000000000000000000000000000000000000000000000 PUSH0 MSTORE PUSH1 0x31 PUSH1 0x4 MSTORE PUSH1 0x24 PUSH0 REVERT JUMPDEST PUSH0 DUP2 SWAP1 POP SWAP2 SWAP1 POP JUMP JUMPDEST PUSH0 PUSH8 0xFFFFFFFFFFFFFFFF DUP3 AND SWAP1 POP SWAP2 SWAP1 POP JUMP JUMPDEST PUSH0 PUSH2 0x1FCC PUSH2 0x1FC7 PUSH2 0x1FC2 DUP5 PUSH2 0x1F96 JUMP JUMPDEST PUSH2 0x1D65 JUMP JUMPDEST PUSH2 0x1F9F JUMP JUMPDEST SWAP1 POP SWAP2 SWAP1 POP JUMP JUMPDEST PUSH2 0x1FDC DUP2 PUSH2 0x1FB2 JUMP JUMPDEST DUP3 MSTORE POP POP JUMP JUMPDEST PUSH0 PUSH1 0x20 DUP3 ADD SWAP1 POP PUSH2 0x1FF5 PUSH0 DUP4 ADD DUP5 PUSH2 0x1FD3 JUMP JUMPDEST SWAP3 SWAP2 POP POP JUMP JUMPDEST PUSH0 PUSH2 0x2015 PUSH2 0x2010 PUSH2 0x200B DUP5 PUSH2 0x18C3 JUMP JUMPDEST PUSH2 0x1D65 JUMP JUMPDEST PUSH2 0x1974 JUMP JUMPDEST SWAP1 POP SWAP2 SWAP1 POP JUMP JUMPDEST PUSH2 0x2025 DUP2 PUSH2 0x1FFB JUMP JUMPDEST DUP3 MSTORE POP POP JUMP JUMPDEST PUSH0 PUSH1 0x60 DUP3 ADD SWAP1 POP DUP2 DUP2 SUB PUSH0 DUP4 ADD MSTORE PUSH2 0x2043 DUP2 DUP7 PUSH2 0x19FA JUMP JUMPDEST SWAP1 POP PUSH2 0x2052 PUSH1 0x20 DUP4 ADD DUP6 PUSH2 0x201C JUMP JUMPDEST PUSH2 0x205F PUSH1 0x40 DUP4 ADD DUP5 PUSH2 0x201C JUMP JUMPDEST SWAP5 SWAP4 POP POP POP POP JUMP JUMPDEST PUSH2 0x2070 DUP3 PUSH2 0x19D2 JUMP JUMPDEST PUSH8 0xFFFFFFFFFFFFFFFF DUP2 GT ISZERO PUSH2 0x2089 JUMPI PUSH2 0x2088 PUSH2 0x1758 JUMP JUMPDEST JUMPDEST PUSH2 0x2093 DUP3 SLOAD PUSH2 0x1B7E JUMP JUMPDEST PUSH2 0x209E DUP3 DUP3 DUP6 PUSH2 0x1DFB JUMP JUMPDEST PUSH0 PUSH1 0x20 SWAP1 POP PUSH1 0x1F DUP4 GT PUSH1 0x1 DUP2 EQ PUSH2 0x20CF JUMPI PUSH0 DUP5 ISZERO PUSH2 0x20BD JUMPI DUP3 DUP8 ADD MLOAD SWAP1 POP JUMPDEST PUSH2 0x20C7 DUP6 DUP3 PUSH2 0x1E69 JUMP JUMPDEST DUP7 SSTORE POP PUSH2 0x212E JUMP JUMPDEST PUSH1 0x1F NOT DUP5 AND PUSH2 0x20DD DUP7 PUSH2 0x1CD5 JUMP JUMPDEST PUSH0 JUMPDEST DUP3 DUP2 LT ISZERO PUSH2 0x2104 JUMPI DUP5 DUP10 ADD MLOAD DUP3 SSTORE PUSH1 0x1 DUP3 ADD SWAP2 POP PUSH1 0x20 DUP6 ADD SWAP5 POP PUSH1 0x20 DUP2 ADD SWAP1 POP PUSH2 0x20DF JUMP JUMPDEST DUP7 DUP4 LT ISZERO PUSH2 0x2121 JUMPI DUP5 DUP10 ADD MLOAD PUSH2 0x211D PUSH1 0x1F DUP10 AND DUP3 PUSH2 0x1E4D JUMP JUMPDEST DUP4 SSTORE POP JUMPDEST PUSH1 0x1 PUSH1 0x2 DUP9 MUL ADD DUP9 SSTORE POP POP POP JUMPDEST POP POP POP POP POP POP JUMP JUMPDEST PUSH0 PUSH1 0x40 DUP3 ADD SWAP1 POP PUSH2 0x2149 PUSH0 DUP4 ADD DUP6 PUSH2 0x1718 JUMP JUMPDEST PUSH2 0x2156 PUSH1 0x20 DUP4 ADD DUP5 PUSH2 0x16B2 JUMP JUMPDEST SWAP4 SWAP3 POP POP POP JUMP INVALID LOG2 PUSH5 0x6970667358 0x22 SLT KECCAK256 0xC5 SWAP9 CALL ADDRESS 0xD PUSH8 0x9FE5323E38631877 0xF9 0xF8 ADDRESS 0x2F 0xA6 0xD6 PUSH0 SMOD MCOPY 0xB9 SUB DIV PUSH7 0x42A4CC0D4E6473 PUSH16 0x6C634300081A00330000000000000000 "
				},
				"gasEstimates": {
					"creation": {
						"codeDepositCost": "1719000",
						"executionCost": "1804",
						"totalCost": "1720804"
					},
					"external": {
						"ADMIN_ROLE()": "414",
						"DEFAULT_ADMIN_ROLE()": "375",
						"addAdmin(address)": "infinite",
						"addScoreType(string)": "infinite",
						"getRoleAdmin(bytes32)": "infinite",
						"grantRole(bytes32,address)": "infinite",
						"hasRole(bytes32,address)": "3197",
						"initialize(address)": "infinite",
						"isAdmin(address)": "3140",
						"owner()": "2678",
						"removeAdmin(address)": "infinite",
						"removeScoreType(string)": "infinite",
						"renounceOwnership()": "infinite",
						"renounceRole(bytes32,address)": "infinite",
						"revokeRole(bytes32,address)": "infinite",
						"score(address,string)": "infinite",
						"scoreTypes(uint256)": "infinite",
						"setScore(address,string,uint128)": "infinite",
						"supportsInterface(bytes4)": "741",
						"transferOwnership(address)": "infinite"
					}
				},
				"methodIdentifiers": {
					"ADMIN_ROLE()": "75b238fc",
					"DEFAULT_ADMIN_ROLE()": "a217fddf",
					"addAdmin(address)": "70480275",
					"addScoreType(string)": "c9a4909c",
					"getRoleAdmin(bytes32)": "248a9ca3",
					"grantRole(bytes32,address)": "2f2ff15d",
					"hasRole(bytes32,address)": "91d14854",
					"initialize(address)": "c4d66de8",
					"isAdmin(address)": "24d7806c",
					"owner()": "8da5cb5b",
					"removeAdmin(address)": "1785f53c",
					"removeScoreType(string)": "a34f0e28",
					"renounceOwnership()": "715018a6",
					"renounceRole(bytes32,address)": "36568abe",
					"revokeRole(bytes32,address)": "d547741f",
					"score(address,string)": "db4f1024",
					"scoreTypes(uint256)": "d2a8e163",
					"setScore(address,string,uint128)": "c87a774b",
					"supportsInterface(bytes4)": "01ffc9a7",
					"transferOwnership(address)": "f2fde38b"
				}
			},
			"storageLayout": {
				"storage": [
					{
						"astId": 1014,
						"contract": "contracts/scorer.sol:Scorer",
						"label": "_scores",
						"offset": 0,
						"slot": "0",
						"type": "t_mapping(t_address,t_mapping(t_string_memory_ptr,t_uint128))"
					},
					{
						"astId": 1018,
						"contract": "contracts/scorer.sol:Scorer",
						"label": "scoreTypes",
						"offset": 0,
						"slot": "1",
						"type": "t_array(t_string_storage)dyn_storage"
					},
					{
						"astId": 1023,
						"contract": "contracts/scorer.sol:Scorer",
						"label": "scoreTypeExists",
						"offset": 0,
						"slot": "2",
						"type": "t_mapping(t_string_memory_ptr,t_bool)"
					}
				],
				"types": {
					"t_address": {
						"encoding": "inplace",
						"label": "address",
						"numberOfBytes": "20"
					},
					"t_array(t_string_storage)dyn_storage": {
						"base": "t_string_storage",
						"encoding": "dynamic_array",
						"label": "string[]",
						"numberOfBytes": "32"
					},
					"t_bool": {
						"encoding": "inplace",
						"label": "bool",
						"numberOfBytes": "1"
					},
					"t_mapping(t_address,t_mapping(t_string_memory_ptr,t_uint128))": {
						"encoding": "mapping",
						"key": "t_address",
						"label": "mapping(address => mapping(string => uint128))",
						"numberOfBytes": "32",
						"value": "t_mapping(t_string_memory_ptr,t_uint128)"
					},
					"t_mapping(t_string_memory_ptr,t_bool)": {
						"encoding": "mapping",
						"key": "t_string_memory_ptr",
						"label": "mapping(string => bool)",
						"numberOfBytes": "32",
						"value": "t_bool"
					},
					"t_mapping(t_string_memory_ptr,t_uint128)": {
						"encoding": "mapping",
						"key": "t_string_memory_ptr",
						"label": "mapping(string => uint128)",
						"numberOfBytes": "32",
						"value": "t_uint128"
					},
					"t_string_memory_ptr": {
						"encoding": "bytes",
						"label": "string",
						"numberOfBytes": "32"
					},
					"t_string_storage": {
						"encoding": "bytes",
						"label": "string",
						"numberOfBytes": "32"
					},
					"t_uint128": {
						"encoding": "inplace",
						"label": "uint128",
						"numberOfBytes": "16"
					}
				}
			},
			"userdoc": {
				"events": {
					"ScoreTypeAdded(string)": {
						"notice": "Emitted when a new score type is added"
					},
					"ScoreTypeRemoved(string)": {
						"notice": "Emitted when a score type is removed"
					},
					"ScoreUpdated(address,string,uint256,uint256)": {
						"notice": "Emitted when a user's score is updated"
					}
				},
				"kind": "user",
				"methods": {
					"addAdmin(address)": {
						"notice": "Grants the ADMIN_ROLE to a specified address."
					},
					"addScoreType(string)": {
						"notice": "Adds a new score type. Reverts if it already exists."
					},
					"initialize(address)": {
						"notice": "Initializes the contract by setting up its initial state."
					},
					"isAdmin(address)": {
						"notice": "Checks if a given address has the ADMIN_ROLE."
					},
					"removeAdmin(address)": {
						"notice": "Revokes the ADMIN_ROLE from a specified address."
					},
					"removeScoreType(string)": {
						"notice": "Removes an existing score type. Reverts if it doesn't exist."
					},
					"score(address,string)": {
						"notice": "Retrieves the score of a specific user for a given type."
					},
					"scoreTypes(uint256)": {
						"notice": "Array to hold the list of score types"
					},
					"setScore(address,string,uint128)": {
						"notice": "Sets the score for a specific user and type."
					}
				},
				"version": 1
			}
		}
	}
}