{
	"contracts/cookie-jar.sol": {
		"nCookieJar": {
			"abi": [
				{
					"inputs": [
						{
							"internalType": "address",
							"name": "_token",
							"type": "address"
						},
						{
							"internalType": "address",
							"name": "_scorer",
							"type": "address"
						},
						{
							"internalType": "uint256",
							"name": "_dailyLimit",
							"type": "uint256"
						}
					],
					"stateMutability": "nonpayable",
					"type": "constructor"
				},
				{
					"anonymous": false,
					"inputs": [
						{
							"indexed": true,
							"internalType": "address",
							"name": "claimant",
							"type": "address"
						},
						{
							"indexed": false,
							"internalType": "uint256",
							"name": "amount",
							"type": "uint256"
						}
					],
					"name": "Claimed",
					"type": "event"
				},
				{
					"anonymous": false,
					"inputs": [
						{
							"indexed": true,
							"internalType": "address",
							"name": "depositor",
							"type": "address"
						},
						{
							"indexed": false,
							"internalType": "uint256",
							"name": "amount",
							"type": "uint256"
						}
					],
					"name": "Deposit",
					"type": "event"
				},
				{
					"anonymous": false,
					"inputs": [
						{
							"indexed": false,
							"internalType": "uint256",
							"name": "newLimit",
							"type": "uint256"
						}
					],
					"name": "UpdatedDailyLimit",
					"type": "event"
				},
				{
					"inputs": [
						{
							"internalType": "uint256",
							"name": "amount",
							"type": "uint256"
						}
					],
					"name": "claim",
					"outputs": [],
					"stateMutability": "nonpayable",
					"type": "function"
				},
				{
					"inputs": [],
					"name": "dailyLimit",
					"outputs": [
						{
							"internalType": "uint256",
							"name": "",
							"type": "uint256"
						}
					],
					"stateMutability": "view",
					"type": "function"
				},
				{
					"inputs": [
						{
							"internalType": "uint256",
							"name": "amount",
							"type": "uint256"
						}
					],
					"name": "deposit",
					"outputs": [],
					"stateMutability": "payable",
					"type": "function"
				},
				{
					"inputs": [
						{
							"internalType": "address",
							"name": "",
							"type": "address"
						}
					],
					"name": "lastClaimed",
					"outputs": [
						{
							"internalType": "uint256",
							"name": "",
							"type": "uint256"
						}
					],
					"stateMutability": "view",
					"type": "function"
				},
				{
					"inputs": [],
					"name": "owner",
					"outputs": [
						{
							"internalType": "address",
							"name": "",
							"type": "address"
						}
					],
					"stateMutability": "view",
					"type": "function"
				},
				{
					"inputs": [],
					"name": "scorer",
					"outputs": [
						{
							"internalType": "contract IScorer",
							"name": "",
							"type": "address"
						}
					],
					"stateMutability": "view",
					"type": "function"
				},
				{
					"inputs": [
						{
							"internalType": "address",
							"name": "_scorer",
							"type": "address"
						}
					],
					"name": "setScorer",
					"outputs": [],
					"stateMutability": "nonpayable",
					"type": "function"
				},
				{
					"inputs": [],
					"name": "token",
					"outputs": [
						{
							"internalType": "address",
							"name": "",
							"type": "address"
						}
					],
					"stateMutability": "view",
					"type": "function"
				},
				{
					"inputs": [],
					"name": "totalBalance",
					"outputs": [
						{
							"internalType": "uint256",
							"name": "",
							"type": "uint256"
						}
					],
					"stateMutability": "view",
					"type": "function"
				},
				{
					"inputs": [
						{
							"internalType": "uint256",
							"name": "newLimit",
							"type": "uint256"
						}
					],
					"name": "updateDailyLimit",
					"outputs": [],
					"stateMutability": "nonpayable",
					"type": "function"
				},
				{
					"inputs": [
						{
							"internalType": "uint256",
							"name": "amount",
							"type": "uint256"
						}
					],
					"name": "withdraw",
					"outputs": [],
					"stateMutability": "nonpayable",
					"type": "function"
				},
				{
					"stateMutability": "payable",
					"type": "receive"
				}
			],
			"devdoc": {
				"kind": "dev",
				"methods": {},
				"version": 1
			},
			"evm": {
				"assembly": "    /* \"contracts/cookie-jar.sol\":445:3401  contract nCookieJar {... */\n  mstore(0x40, 0x80)\n    /* \"contracts/cookie-jar.sol\":1125:1358  constructor(... */\n  callvalue\n  dup1\n  iszero\n  tag_1\n  jumpi\n  0x00\n  dup1\n  revert\ntag_1:\n  pop\n  mload(0x40)\n  sub(codesize, bytecodeSize)\n  dup1\n  bytecodeSize\n  dup4\n  codecopy\n  dup2\n  dup2\n  add\n  0x40\n  mstore\n  dup2\n  add\n  swap1\n  tag_2\n  swap2\n  swap1\n  tag_3\n  jump\t// in\ntag_2:\n    /* \"contracts/cookie-jar.sol\":1244:1254  msg.sender */\n  caller\n    /* \"contracts/cookie-jar.sol\":1236:1241  owner */\n  0x00\n  dup1\n    /* \"contracts/cookie-jar.sol\":1236:1254  owner = msg.sender */\n  0x0100\n  exp\n  dup2\n  sload\n  dup2\n  0xffffffffffffffffffffffffffffffffffffffff\n  mul\n  not\n  and\n  swap1\n  dup4\n  0xffffffffffffffffffffffffffffffffffffffff\n  and\n  mul\n  or\n  swap1\n  sstore\n  pop\n    /* \"contracts/cookie-jar.sol\":1273:1279  _token */\n  dup3\n    /* \"contracts/cookie-jar.sol\":1265:1270  token */\n  0x01\n  0x00\n    /* \"contracts/cookie-jar.sol\":1265:1279  token = _token */\n  0x0100\n  exp\n  dup2\n  sload\n  dup2\n  0xffffffffffffffffffffffffffffffffffffffff\n  mul\n  not\n  and\n  swap1\n  dup4\n  0xffffffffffffffffffffffffffffffffffffffff\n  and\n  mul\n  or\n  swap1\n  sstore\n  pop\n    /* \"contracts/cookie-jar.sol\":1307:1314  _scorer */\n  dup2\n    /* \"contracts/cookie-jar.sol\":1290:1296  scorer */\n  0x02\n  0x00\n    /* \"contracts/cookie-jar.sol\":1290:1315  scorer = IScorer(_scorer) */\n  0x0100\n  exp\n  dup2\n  sload\n  dup2\n  0xffffffffffffffffffffffffffffffffffffffff\n  mul\n  not\n  and\n  swap1\n  dup4\n  0xffffffffffffffffffffffffffffffffffffffff\n  and\n  mul\n  or\n  swap1\n  sstore\n  pop\n    /* \"contracts/cookie-jar.sol\":1339:1350  _dailyLimit */\n  dup1\n    /* \"contracts/cookie-jar.sol\":1326:1336  dailyLimit */\n  0x03\n    /* \"contracts/cookie-jar.sol\":1326:1350  dailyLimit = _dailyLimit */\n  dup2\n  swap1\n  sstore\n  pop\n    /* \"contracts/cookie-jar.sol\":1125:1358  constructor(... */\n  pop\n  pop\n  pop\n    /* \"contracts/cookie-jar.sol\":445:3401  contract nCookieJar {... */\n  jump(tag_6)\n    /* \"#utility.yul\":88:205   */\ntag_8:\n    /* \"#utility.yul\":197:198   */\n  0x00\n    /* \"#utility.yul\":194:195   */\n  dup1\n    /* \"#utility.yul\":187:199   */\n  revert\n    /* \"#utility.yul\":334:460   */\ntag_10:\n    /* \"#utility.yul\":371:378   */\n  0x00\n    /* \"#utility.yul\":411:453   */\n  0xffffffffffffffffffffffffffffffffffffffff\n    /* \"#utility.yul\":404:409   */\n  dup3\n    /* \"#utility.yul\":400:454   */\n  and\n    /* \"#utility.yul\":389:454   */\n  swap1\n  pop\n    /* \"#utility.yul\":334:460   */\n  swap2\n  swap1\n  pop\n  jump\t// out\n    /* \"#utility.yul\":466:562   */\ntag_11:\n    /* \"#utility.yul\":503:510   */\n  0x00\n    /* \"#utility.yul\":532:556   */\n  tag_23\n    /* \"#utility.yul\":550:555   */\n  dup3\n    /* \"#utility.yul\":532:556   */\n  tag_10\n  jump\t// in\ntag_23:\n    /* \"#utility.yul\":521:556   */\n  swap1\n  pop\n    /* \"#utility.yul\":466:562   */\n  swap2\n  swap1\n  pop\n  jump\t// out\n    /* \"#utility.yul\":568:690   */\ntag_12:\n    /* \"#utility.yul\":641:665   */\n  tag_25\n    /* \"#utility.yul\":659:664   */\n  dup2\n    /* \"#utility.yul\":641:665   */\n  tag_11\n  jump\t// in\ntag_25:\n    /* \"#utility.yul\":634:639   */\n  dup2\n    /* \"#utility.yul\":631:666   */\n  eq\n    /* \"#utility.yul\":621:684   */\n  tag_26\n  jumpi\n    /* \"#utility.yul\":680:681   */\n  0x00\n    /* \"#utility.yul\":677:678   */\n  dup1\n    /* \"#utility.yul\":670:682   */\n  revert\n    /* \"#utility.yul\":621:684   */\ntag_26:\n    /* \"#utility.yul\":568:690   */\n  pop\n  jump\t// out\n    /* \"#utility.yul\":696:839   */\ntag_13:\n    /* \"#utility.yul\":753:758   */\n  0x00\n    /* \"#utility.yul\":784:790   */\n  dup2\n    /* \"#utility.yul\":778:791   */\n  mload\n    /* \"#utility.yul\":769:791   */\n  swap1\n  pop\n    /* \"#utility.yul\":800:833   */\n  tag_28\n    /* \"#utility.yul\":827:832   */\n  dup2\n    /* \"#utility.yul\":800:833   */\n  tag_12\n  jump\t// in\ntag_28:\n    /* \"#utility.yul\":696:839   */\n  swap3\n  swap2\n  pop\n  pop\n  jump\t// out\n    /* \"#utility.yul\":845:922   */\ntag_14:\n    /* \"#utility.yul\":882:889   */\n  0x00\n    /* \"#utility.yul\":911:916   */\n  dup2\n    /* \"#utility.yul\":900:916   */\n  swap1\n  pop\n    /* \"#utility.yul\":845:922   */\n  swap2\n  swap1\n  pop\n  jump\t// out\n    /* \"#utility.yul\":928:1050   */\ntag_15:\n    /* \"#utility.yul\":1001:1025   */\n  tag_31\n    /* \"#utility.yul\":1019:1024   */\n  dup2\n    /* \"#utility.yul\":1001:1025   */\n  tag_14\n  jump\t// in\ntag_31:\n    /* \"#utility.yul\":994:999   */\n  dup2\n    /* \"#utility.yul\":991:1026   */\n  eq\n    /* \"#utility.yul\":981:1044   */\n  tag_32\n  jumpi\n    /* \"#utility.yul\":1040:1041   */\n  0x00\n    /* \"#utility.yul\":1037:1038   */\n  dup1\n    /* \"#utility.yul\":1030:1042   */\n  revert\n    /* \"#utility.yul\":981:1044   */\ntag_32:\n    /* \"#utility.yul\":928:1050   */\n  pop\n  jump\t// out\n    /* \"#utility.yul\":1056:1199   */\ntag_16:\n    /* \"#utility.yul\":1113:1118   */\n  0x00\n    /* \"#utility.yul\":1144:1150   */\n  dup2\n    /* \"#utility.yul\":1138:1151   */\n  mload\n    /* \"#utility.yul\":1129:1151   */\n  swap1\n  pop\n    /* \"#utility.yul\":1160:1193   */\n  tag_34\n    /* \"#utility.yul\":1187:1192   */\n  dup2\n    /* \"#utility.yul\":1160:1193   */\n  tag_15\n  jump\t// in\ntag_34:\n    /* \"#utility.yul\":1056:1199   */\n  swap3\n  swap2\n  pop\n  pop\n  jump\t// out\n    /* \"#utility.yul\":1205:1868   */\ntag_3:\n    /* \"#utility.yul\":1293:1299   */\n  0x00\n    /* \"#utility.yul\":1301:1307   */\n  dup1\n    /* \"#utility.yul\":1309:1315   */\n  0x00\n    /* \"#utility.yul\":1358:1360   */\n  0x60\n    /* \"#utility.yul\":1346:1355   */\n  dup5\n    /* \"#utility.yul\":1337:1344   */\n  dup7\n    /* \"#utility.yul\":1333:1356   */\n  sub\n    /* \"#utility.yul\":1329:1361   */\n  slt\n    /* \"#utility.yul\":1326:1445   */\n  iszero\n  tag_36\n  jumpi\n    /* \"#utility.yul\":1364:1443   */\n  tag_37\n  tag_8\n  jump\t// in\ntag_37:\n    /* \"#utility.yul\":1326:1445   */\ntag_36:\n    /* \"#utility.yul\":1484:1485   */\n  0x00\n    /* \"#utility.yul\":1509:1573   */\n  tag_38\n    /* \"#utility.yul\":1565:1572   */\n  dup7\n    /* \"#utility.yul\":1556:1562   */\n  dup3\n    /* \"#utility.yul\":1545:1554   */\n  dup8\n    /* \"#utility.yul\":1541:1563   */\n  add\n    /* \"#utility.yul\":1509:1573   */\n  tag_13\n  jump\t// in\ntag_38:\n    /* \"#utility.yul\":1499:1573   */\n  swap4\n  pop\n    /* \"#utility.yul\":1455:1583   */\n  pop\n    /* \"#utility.yul\":1622:1624   */\n  0x20\n    /* \"#utility.yul\":1648:1712   */\n  tag_39\n    /* \"#utility.yul\":1704:1711   */\n  dup7\n    /* \"#utility.yul\":1695:1701   */\n  dup3\n    /* \"#utility.yul\":1684:1693   */\n  dup8\n    /* \"#utility.yul\":1680:1702   */\n  add\n    /* \"#utility.yul\":1648:1712   */\n  tag_13\n  jump\t// in\ntag_39:\n    /* \"#utility.yul\":1638:1712   */\n  swap3\n  pop\n    /* \"#utility.yul\":1593:1722   */\n  pop\n    /* \"#utility.yul\":1761:1763   */\n  0x40\n    /* \"#utility.yul\":1787:1851   */\n  tag_40\n    /* \"#utility.yul\":1843:1850   */\n  dup7\n    /* \"#utility.yul\":1834:1840   */\n  dup3\n    /* \"#utility.yul\":1823:1832   */\n  dup8\n    /* \"#utility.yul\":1819:1841   */\n  add\n    /* \"#utility.yul\":1787:1851   */\n  tag_16\n  jump\t// in\ntag_40:\n    /* \"#utility.yul\":1777:1851   */\n  swap2\n  pop\n    /* \"#utility.yul\":1732:1861   */\n  pop\n    /* \"#utility.yul\":1205:1868   */\n  swap3\n  pop\n  swap3\n  pop\n  swap3\n  jump\t// out\n    /* \"contracts/cookie-jar.sol\":445:3401  contract nCookieJar {... */\ntag_6:\n  dataSize(sub_0)\n  dup1\n  dataOffset(sub_0)\n  0x00\n  codecopy\n  0x00\n  return\nstop\n\nsub_0: assembly {\n        /* \"contracts/cookie-jar.sol\":445:3401  contract nCookieJar {... */\n      mstore(0x40, 0x80)\n      jumpi(tag_1, lt(calldatasize, 0x04))\n      shr(0xe0, calldataload(0x00))\n      dup1\n      0x85c758f7\n      gt\n      tag_14\n      jumpi\n      dup1\n      0x85c758f7\n      eq\n      tag_8\n      jumpi\n      dup1\n      0x8da5cb5b\n      eq\n      tag_9\n      jumpi\n      dup1\n      0xad7a672f\n      eq\n      tag_10\n      jumpi\n      dup1\n      0xb6b55f25\n      eq\n      tag_11\n      jumpi\n      dup1\n      0xf8175d78\n      eq\n      tag_12\n      jumpi\n      dup1\n      0xfc0c546a\n      eq\n      tag_13\n      jumpi\n      jump(tag_2)\n    tag_14:\n      dup1\n      0x013eba92\n      eq\n      tag_3\n      jumpi\n      dup1\n      0x03191ffc\n      eq\n      tag_4\n      jumpi\n      dup1\n      0x2e1a7d4d\n      eq\n      tag_5\n      jumpi\n      dup1\n      0x379607f5\n      eq\n      tag_6\n      jumpi\n      dup1\n      0x67eeba0c\n      eq\n      tag_7\n      jumpi\n      jump(tag_2)\n    tag_1:\n      jumpi(tag_2, calldatasize)\n        /* \"contracts/cookie-jar.sol\":3335:3344  msg.value */\n      callvalue\n        /* \"contracts/cookie-jar.sol\":3319:3331  totalBalance */\n      0x04\n      0x00\n        /* \"contracts/cookie-jar.sol\":3319:3344  totalBalance += msg.value */\n      dup3\n      dup3\n      sload\n      tag_17\n      swap2\n      swap1\n      tag_18\n      jump\t// in\n    tag_17:\n      swap3\n      pop\n      pop\n      dup2\n      swap1\n      sstore\n      pop\n        /* \"contracts/cookie-jar.sol\":3368:3378  msg.sender */\n      caller\n        /* \"contracts/cookie-jar.sol\":3360:3390  Deposit(msg.sender, msg.value) */\n      0xffffffffffffffffffffffffffffffffffffffff\n      and\n      0xe1fffcc4923d04b559f4d29a8bfc6cda04eb5b0d3c460751c2402c5c5cc9109c\n        /* \"contracts/cookie-jar.sol\":3380:3389  msg.value */\n      callvalue\n        /* \"contracts/cookie-jar.sol\":3360:3390  Deposit(msg.sender, msg.value) */\n      mload(0x40)\n      tag_19\n      swap2\n      swap1\n      tag_20\n      jump\t// in\n    tag_19:\n      mload(0x40)\n      dup1\n      swap2\n      sub\n      swap1\n      log2\n        /* \"contracts/cookie-jar.sol\":445:3401  contract nCookieJar {... */\n      stop\n    tag_2:\n      0x00\n      dup1\n      revert\n        /* \"contracts/cookie-jar.sol\":753:799  mapping(address => uint256) public lastClaimed */\n    tag_3:\n      callvalue\n      dup1\n      iszero\n      tag_21\n      jumpi\n      0x00\n      dup1\n      revert\n    tag_21:\n      pop\n      tag_22\n      0x04\n      dup1\n      calldatasize\n      sub\n      dup2\n      add\n      swap1\n      tag_23\n      swap2\n      swap1\n      tag_24\n      jump\t// in\n    tag_23:\n      tag_25\n      jump\t// in\n    tag_22:\n      mload(0x40)\n      tag_26\n      swap2\n      swap1\n      tag_20\n      jump\t// in\n    tag_26:\n      mload(0x40)\n      dup1\n      swap2\n      sub\n      swap1\n      return\n        /* \"contracts/cookie-jar.sol\":3174:3273  function setScorer(address _scorer) external onlyOwner {... */\n    tag_4:\n      callvalue\n      dup1\n      iszero\n      tag_27\n      jumpi\n      0x00\n      dup1\n      revert\n    tag_27:\n      pop\n      tag_28\n      0x04\n      dup1\n      calldatasize\n      sub\n      dup2\n      add\n      swap1\n      tag_29\n      swap2\n      swap1\n      tag_24\n      jump\t// in\n    tag_29:\n      tag_30\n      jump\t// in\n    tag_28:\n      stop\n        /* \"contracts/cookie-jar.sol\":2712:3166  function withdraw(uint256 amount) external onlyOwner {... */\n    tag_5:\n      callvalue\n      dup1\n      iszero\n      tag_31\n      jumpi\n      0x00\n      dup1\n      revert\n    tag_31:\n      pop\n      tag_32\n      0x04\n      dup1\n      calldatasize\n      sub\n      dup2\n      add\n      swap1\n      tag_33\n      swap2\n      swap1\n      tag_34\n      jump\t// in\n    tag_33:\n      tag_35\n      jump\t// in\n    tag_32:\n      stop\n        /* \"contracts/cookie-jar.sol\":1774:2550  function claim(uint256 amount) external {... */\n    tag_6:\n      callvalue\n      dup1\n      iszero\n      tag_36\n      jumpi\n      0x00\n      dup1\n      revert\n    tag_36:\n      pop\n      tag_37\n      0x04\n      dup1\n      calldatasize\n      sub\n      dup2\n      add\n      swap1\n      tag_38\n      swap2\n      swap1\n      tag_34\n      jump\t// in\n    tag_38:\n      tag_39\n      jump\t// in\n    tag_37:\n      stop\n        /* \"contracts/cookie-jar.sol\":633:658  uint256 public dailyLimit */\n    tag_7:\n      callvalue\n      dup1\n      iszero\n      tag_40\n      jumpi\n      0x00\n      dup1\n      revert\n    tag_40:\n      pop\n      tag_41\n      tag_42\n      jump\t// in\n    tag_41:\n      mload(0x40)\n      tag_43\n      swap2\n      swap1\n      tag_20\n      jump\t// in\n    tag_43:\n      mload(0x40)\n      dup1\n      swap2\n      sub\n      swap1\n      return\n        /* \"contracts/cookie-jar.sol\":569:590  IScorer public scorer */\n    tag_8:\n      callvalue\n      dup1\n      iszero\n      tag_44\n      jumpi\n      0x00\n      dup1\n      revert\n    tag_44:\n      pop\n      tag_45\n      tag_46\n      jump\t// in\n    tag_45:\n      mload(0x40)\n      tag_47\n      swap2\n      swap1\n      tag_48\n      jump\t// in\n    tag_47:\n      mload(0x40)\n      dup1\n      swap2\n      sub\n      swap1\n      return\n        /* \"contracts/cookie-jar.sol\":472:492  address public owner */\n    tag_9:\n      callvalue\n      dup1\n      iszero\n      tag_49\n      jumpi\n      0x00\n      dup1\n      revert\n    tag_49:\n      pop\n      tag_50\n      tag_51\n      jump\t// in\n    tag_50:\n      mload(0x40)\n      tag_52\n      swap2\n      swap1\n      tag_53\n      jump\t// in\n    tag_52:\n      mload(0x40)\n      dup1\n      swap2\n      sub\n      swap1\n      return\n        /* \"contracts/cookie-jar.sol\":691:718  uint256 public totalBalance */\n    tag_10:\n      callvalue\n      dup1\n      iszero\n      tag_54\n      jumpi\n      0x00\n      dup1\n      revert\n    tag_54:\n      pop\n      tag_55\n      tag_56\n      jump\t// in\n    tag_55:\n      mload(0x40)\n      tag_57\n      swap2\n      swap1\n      tag_20\n      jump\t// in\n    tag_57:\n      mload(0x40)\n      dup1\n      swap2\n      sub\n      swap1\n      return\n        /* \"contracts/cookie-jar.sol\":1366:1766  function deposit(uint256 amount) external payable {... */\n    tag_11:\n      tag_58\n      0x04\n      dup1\n      calldatasize\n      sub\n      dup2\n      add\n      swap1\n      tag_59\n      swap2\n      swap1\n      tag_34\n      jump\t// in\n    tag_59:\n      tag_60\n      jump\t// in\n    tag_58:\n      stop\n        /* \"contracts/cookie-jar.sol\":2558:2704  function updateDailyLimit(uint256 newLimit) external onlyOwner {... */\n    tag_12:\n      callvalue\n      dup1\n      iszero\n      tag_61\n      jumpi\n      0x00\n      dup1\n      revert\n    tag_61:\n      pop\n      tag_62\n      0x04\n      dup1\n      calldatasize\n      sub\n      dup2\n      add\n      swap1\n      tag_63\n      swap2\n      swap1\n      tag_34\n      jump\t// in\n    tag_63:\n      tag_64\n      jump\t// in\n    tag_62:\n      stop\n        /* \"contracts/cookie-jar.sol\":499:519  address public token */\n    tag_13:\n      callvalue\n      dup1\n      iszero\n      tag_65\n      jumpi\n      0x00\n      dup1\n      revert\n    tag_65:\n      pop\n      tag_66\n      tag_67\n      jump\t// in\n    tag_66:\n      mload(0x40)\n      tag_68\n      swap2\n      swap1\n      tag_53\n      jump\t// in\n    tag_68:\n      mload(0x40)\n      dup1\n      swap2\n      sub\n      swap1\n      return\n        /* \"contracts/cookie-jar.sol\":753:799  mapping(address => uint256) public lastClaimed */\n    tag_25:\n      mstore(0x20, 0x05)\n      dup1\n      0x00\n      mstore\n      keccak256(0x00, 0x40)\n      0x00\n      swap2\n      pop\n      swap1\n      pop\n      sload\n      dup2\n      jump\t// out\n        /* \"contracts/cookie-jar.sol\":3174:3273  function setScorer(address _scorer) external onlyOwner {... */\n    tag_30:\n        /* \"contracts/cookie-jar.sol\":1073:1078  owner */\n      0x00\n      dup1\n      sload\n      swap1\n      0x0100\n      exp\n      swap1\n      div\n      0xffffffffffffffffffffffffffffffffffffffff\n      and\n        /* \"contracts/cookie-jar.sol\":1059:1078  msg.sender == owner */\n      0xffffffffffffffffffffffffffffffffffffffff\n      and\n        /* \"contracts/cookie-jar.sol\":1059:1069  msg.sender */\n      caller\n        /* \"contracts/cookie-jar.sol\":1059:1078  msg.sender == owner */\n      0xffffffffffffffffffffffffffffffffffffffff\n      and\n      eq\n        /* \"contracts/cookie-jar.sol\":1051:1097  require(msg.sender == owner, \"Not authorized\") */\n      tag_70\n      jumpi\n      mload(0x40)\n      0x08c379a000000000000000000000000000000000000000000000000000000000\n      dup2\n      mstore\n      0x04\n      add\n      tag_71\n      swap1\n      tag_72\n      jump\t// in\n    tag_71:\n      mload(0x40)\n      dup1\n      swap2\n      sub\n      swap1\n      revert\n    tag_70:\n        /* \"contracts/cookie-jar.sol\":3257:3264  _scorer */\n      dup1\n        /* \"contracts/cookie-jar.sol\":3240:3246  scorer */\n      0x02\n      0x00\n        /* \"contracts/cookie-jar.sol\":3240:3265  scorer = IScorer(_scorer) */\n      0x0100\n      exp\n      dup2\n      sload\n      dup2\n      0xffffffffffffffffffffffffffffffffffffffff\n      mul\n      not\n      and\n      swap1\n      dup4\n      0xffffffffffffffffffffffffffffffffffffffff\n      and\n      mul\n      or\n      swap1\n      sstore\n      pop\n        /* \"contracts/cookie-jar.sol\":3174:3273  function setScorer(address _scorer) external onlyOwner {... */\n      pop\n      jump\t// out\n        /* \"contracts/cookie-jar.sol\":2712:3166  function withdraw(uint256 amount) external onlyOwner {... */\n    tag_35:\n        /* \"contracts/cookie-jar.sol\":1073:1078  owner */\n      0x00\n      dup1\n      sload\n      swap1\n      0x0100\n      exp\n      swap1\n      div\n      0xffffffffffffffffffffffffffffffffffffffff\n      and\n        /* \"contracts/cookie-jar.sol\":1059:1078  msg.sender == owner */\n      0xffffffffffffffffffffffffffffffffffffffff\n      and\n        /* \"contracts/cookie-jar.sol\":1059:1069  msg.sender */\n      caller\n        /* \"contracts/cookie-jar.sol\":1059:1078  msg.sender == owner */\n      0xffffffffffffffffffffffffffffffffffffffff\n      and\n      eq\n        /* \"contracts/cookie-jar.sol\":1051:1097  require(msg.sender == owner, \"Not authorized\") */\n      tag_75\n      jumpi\n      mload(0x40)\n      0x08c379a000000000000000000000000000000000000000000000000000000000\n      dup2\n      mstore\n      0x04\n      add\n      tag_76\n      swap1\n      tag_72\n      jump\t// in\n    tag_76:\n      mload(0x40)\n      dup1\n      swap2\n      sub\n      swap1\n      revert\n    tag_75:\n        /* \"contracts/cookie-jar.sol\":2794:2806  totalBalance */\n      sload(0x04)\n        /* \"contracts/cookie-jar.sol\":2784:2790  amount */\n      dup2\n        /* \"contracts/cookie-jar.sol\":2784:2806  amount <= totalBalance */\n      gt\n      iszero\n        /* \"contracts/cookie-jar.sol\":2776:2829  require(amount <= totalBalance, \"Insufficient funds\") */\n      tag_78\n      jumpi\n      mload(0x40)\n      0x08c379a000000000000000000000000000000000000000000000000000000000\n      dup2\n      mstore\n      0x04\n      add\n      tag_79\n      swap1\n      tag_80\n      jump\t// in\n    tag_79:\n      mload(0x40)\n      dup1\n      swap2\n      sub\n      swap1\n      revert\n    tag_78:\n        /* \"contracts/cookie-jar.sol\":2858:2864  amount */\n      dup1\n        /* \"contracts/cookie-jar.sol\":2842:2854  totalBalance */\n      0x04\n      0x00\n        /* \"contracts/cookie-jar.sol\":2842:2864  totalBalance -= amount */\n      dup3\n      dup3\n      sload\n      tag_81\n      swap2\n      swap1\n      tag_82\n      jump\t// in\n    tag_81:\n      swap3\n      pop\n      pop\n      dup2\n      swap1\n      sstore\n      pop\n        /* \"contracts/cookie-jar.sol\":2896:2897  0 */\n      0x00\n        /* \"contracts/cookie-jar.sol\":2879:2898  token == address(0) */\n      0xffffffffffffffffffffffffffffffffffffffff\n      and\n        /* \"contracts/cookie-jar.sol\":2879:2884  token */\n      0x01\n      0x00\n      swap1\n      sload\n      swap1\n      0x0100\n      exp\n      swap1\n      div\n      0xffffffffffffffffffffffffffffffffffffffff\n      and\n        /* \"contracts/cookie-jar.sol\":2879:2898  token == address(0) */\n      0xffffffffffffffffffffffffffffffffffffffff\n      and\n      sub\n        /* \"contracts/cookie-jar.sol\":2875:3159  if (token == address(0)) {... */\n      tag_83\n      jumpi\n        /* \"contracts/cookie-jar.sol\":2945:2957  bool success */\n      0x00\n        /* \"contracts/cookie-jar.sol\":2963:2968  owner */\n      dup1\n      0x00\n      swap1\n      sload\n      swap1\n      0x0100\n      exp\n      swap1\n      div\n      0xffffffffffffffffffffffffffffffffffffffff\n      and\n        /* \"contracts/cookie-jar.sol\":2963:2973  owner.call */\n      0xffffffffffffffffffffffffffffffffffffffff\n      and\n        /* \"contracts/cookie-jar.sol\":2981:2987  amount */\n      dup3\n        /* \"contracts/cookie-jar.sol\":2963:2992  owner.call{value: amount}(\"\") */\n      mload(0x40)\n      tag_84\n      swap1\n      tag_85\n      jump\t// in\n    tag_84:\n      0x00\n      mload(0x40)\n      dup1\n      dup4\n      sub\n      dup2\n      dup6\n      dup8\n      gas\n      call\n      swap3\n      pop\n      pop\n      pop\n      returndatasize\n      dup1\n      0x00\n      dup2\n      eq\n      tag_88\n      jumpi\n      mload(0x40)\n      swap2\n      pop\n      and(add(returndatasize, 0x3f), not(0x1f))\n      dup3\n      add\n      0x40\n      mstore\n      returndatasize\n      dup3\n      mstore\n      returndatasize\n      0x00\n      0x20\n      dup5\n      add\n      returndatacopy\n      jump(tag_87)\n    tag_88:\n      0x60\n      swap2\n      pop\n    tag_87:\n      pop\n        /* \"contracts/cookie-jar.sol\":2944:2992  (bool success, ) = owner.call{value: amount}(\"\") */\n      pop\n      swap1\n      pop\n        /* \"contracts/cookie-jar.sol\":3015:3022  success */\n      dup1\n        /* \"contracts/cookie-jar.sol\":3007:3046  require(success, \"ETH transfer failed\") */\n      tag_89\n      jumpi\n      mload(0x40)\n      0x08c379a000000000000000000000000000000000000000000000000000000000\n      dup2\n      mstore\n      0x04\n      add\n      tag_90\n      swap1\n      tag_91\n      jump\t// in\n    tag_90:\n      mload(0x40)\n      dup1\n      swap2\n      sub\n      swap1\n      revert\n    tag_89:\n        /* \"contracts/cookie-jar.sol\":2900:3058  {... */\n      pop\n        /* \"contracts/cookie-jar.sol\":2875:3159  if (token == address(0)) {... */\n      jump(tag_92)\n    tag_83:\n        /* \"contracts/cookie-jar.sol\":3117:3122  token */\n      0x01\n      0x00\n      swap1\n      sload\n      swap1\n      0x0100\n      exp\n      swap1\n      div\n      0xffffffffffffffffffffffffffffffffffffffff\n      and\n        /* \"contracts/cookie-jar.sol\":3110:3132  IERC20(token).transfer */\n      0xffffffffffffffffffffffffffffffffffffffff\n      and\n      0xa9059cbb\n        /* \"contracts/cookie-jar.sol\":3133:3138  owner */\n      0x00\n      dup1\n      sload\n      swap1\n      0x0100\n      exp\n      swap1\n      div\n      0xffffffffffffffffffffffffffffffffffffffff\n      and\n        /* \"contracts/cookie-jar.sol\":3140:3146  amount */\n      dup4\n        /* \"contracts/cookie-jar.sol\":3110:3147  IERC20(token).transfer(owner, amount) */\n      mload(0x40)\n      dup4\n      0xffffffff\n      and\n      0xe0\n      shl\n      dup2\n      mstore\n      0x04\n      add\n      tag_93\n      swap3\n      swap2\n      swap1\n      tag_94\n      jump\t// in\n    tag_93:\n      0x20\n      mload(0x40)\n      dup1\n      dup4\n      sub\n      dup2\n      0x00\n      dup8\n      gas\n      call\n      iszero\n      dup1\n      iszero\n      tag_96\n      jumpi\n      returndatasize\n      0x00\n      dup1\n      returndatacopy\n      revert(0x00, returndatasize)\n    tag_96:\n      pop\n      pop\n      pop\n      pop\n      mload(0x40)\n      returndatasize\n      not(0x1f)\n      0x1f\n      dup3\n      add\n      and\n      dup3\n      add\n      dup1\n      0x40\n      mstore\n      pop\n      dup2\n      add\n      swap1\n      tag_97\n      swap2\n      swap1\n      tag_98\n      jump\t// in\n    tag_97:\n      pop\n        /* \"contracts/cookie-jar.sol\":2875:3159  if (token == address(0)) {... */\n    tag_92:\n        /* \"contracts/cookie-jar.sol\":2712:3166  function withdraw(uint256 amount) external onlyOwner {... */\n      pop\n      jump\t// out\n        /* \"contracts/cookie-jar.sol\":1774:2550  function claim(uint256 amount) external {... */\n    tag_39:\n        /* \"contracts/cookie-jar.sol\":1843:1853  dailyLimit */\n      sload(0x03)\n        /* \"contracts/cookie-jar.sol\":1833:1839  amount */\n      dup2\n        /* \"contracts/cookie-jar.sol\":1833:1853  amount <= dailyLimit */\n      gt\n      iszero\n        /* \"contracts/cookie-jar.sol\":1825:1877  require(amount <= dailyLimit, \"Exceeds daily limit\") */\n      tag_100\n      jumpi\n      mload(0x40)\n      0x08c379a000000000000000000000000000000000000000000000000000000000\n      dup2\n      mstore\n      0x04\n      add\n      tag_101\n      swap1\n      tag_102\n      jump\t// in\n    tag_101:\n      mload(0x40)\n      dup1\n      swap2\n      sub\n      swap1\n      revert\n    tag_100:\n        /* \"contracts/cookie-jar.sol\":1941:1947  1 days */\n      0x015180\n        /* \"contracts/cookie-jar.sol\":1914:1925  lastClaimed */\n      0x05\n        /* \"contracts/cookie-jar.sol\":1914:1937  lastClaimed[msg.sender] */\n      0x00\n        /* \"contracts/cookie-jar.sol\":1926:1936  msg.sender */\n      caller\n        /* \"contracts/cookie-jar.sol\":1914:1937  lastClaimed[msg.sender] */\n      0xffffffffffffffffffffffffffffffffffffffff\n      and\n      0xffffffffffffffffffffffffffffffffffffffff\n      and\n      dup2\n      mstore\n      0x20\n      add\n      swap1\n      dup2\n      mstore\n      0x20\n      add\n      0x00\n      keccak256\n      sload\n        /* \"contracts/cookie-jar.sol\":1896:1911  block.timestamp */\n      timestamp\n        /* \"contracts/cookie-jar.sol\":1896:1937  block.timestamp - lastClaimed[msg.sender] */\n      tag_103\n      swap2\n      swap1\n      tag_82\n      jump\t// in\n    tag_103:\n        /* \"contracts/cookie-jar.sol\":1896:1947  block.timestamp - lastClaimed[msg.sender] >= 1 days */\n      lt\n      iszero\n        /* \"contracts/cookie-jar.sol\":1888:1977  require(block.timestamp - lastClaimed[msg.sender] >= 1 days, \"Daily claim limit reached\") */\n      tag_104\n      jumpi\n      mload(0x40)\n      0x08c379a000000000000000000000000000000000000000000000000000000000\n      dup2\n      mstore\n      0x04\n      add\n      tag_105\n      swap1\n      tag_106\n      jump\t// in\n    tag_105:\n      mload(0x40)\n      dup1\n      swap2\n      sub\n      swap1\n      revert\n    tag_104:\n        /* \"contracts/cookie-jar.sol\":2023:2024  0 */\n      0x00\n        /* \"contracts/cookie-jar.sol\":1996:2002  scorer */\n      0x02\n      0x00\n      swap1\n      sload\n      swap1\n      0x0100\n      exp\n      swap1\n      div\n      0xffffffffffffffffffffffffffffffffffffffff\n      and\n        /* \"contracts/cookie-jar.sol\":1996:2008  scorer.score */\n      0xffffffffffffffffffffffffffffffffffffffff\n      and\n      0x776f3843\n        /* \"contracts/cookie-jar.sol\":2009:2019  msg.sender */\n      caller\n        /* \"contracts/cookie-jar.sol\":1996:2020  scorer.score(msg.sender) */\n      mload(0x40)\n      dup3\n      0xffffffff\n      and\n      0xe0\n      shl\n      dup2\n      mstore\n      0x04\n      add\n      tag_107\n      swap2\n      swap1\n      tag_53\n      jump\t// in\n    tag_107:\n      0x20\n      mload(0x40)\n      dup1\n      dup4\n      sub\n      dup2\n      dup7\n      gas\n      staticcall\n      iszero\n      dup1\n      iszero\n      tag_109\n      jumpi\n      returndatasize\n      0x00\n      dup1\n      returndatacopy\n      revert(0x00, returndatasize)\n    tag_109:\n      pop\n      pop\n      pop\n      pop\n      mload(0x40)\n      returndatasize\n      not(0x1f)\n      0x1f\n      dup3\n      add\n      and\n      dup3\n      add\n      dup1\n      0x40\n      mstore\n      pop\n      dup2\n      add\n      swap1\n      tag_110\n      swap2\n      swap1\n      tag_111\n      jump\t// in\n    tag_110:\n        /* \"contracts/cookie-jar.sol\":1996:2024  scorer.score(msg.sender) > 0 */\n      gt\n        /* \"contracts/cookie-jar.sol\":1988:2041  require(scorer.score(msg.sender) > 0, \"Not eligible\") */\n      tag_112\n      jumpi\n      mload(0x40)\n      0x08c379a000000000000000000000000000000000000000000000000000000000\n      dup2\n      mstore\n      0x04\n      add\n      tag_113\n      swap1\n      tag_114\n      jump\t// in\n    tag_113:\n      mload(0x40)\n      dup1\n      swap2\n      sub\n      swap1\n      revert\n    tag_112:\n        /* \"contracts/cookie-jar.sol\":2070:2082  totalBalance */\n      sload(0x04)\n        /* \"contracts/cookie-jar.sol\":2060:2066  amount */\n      dup2\n        /* \"contracts/cookie-jar.sol\":2060:2082  amount <= totalBalance */\n      gt\n      iszero\n        /* \"contracts/cookie-jar.sol\":2052:2112  require(amount <= totalBalance, \"Insufficient funds in jar\") */\n      tag_115\n      jumpi\n      mload(0x40)\n      0x08c379a000000000000000000000000000000000000000000000000000000000\n      dup2\n      mstore\n      0x04\n      add\n      tag_116\n      swap1\n      tag_117\n      jump\t// in\n    tag_116:\n      mload(0x40)\n      dup1\n      swap2\n      sub\n      swap1\n      revert\n    tag_115:\n        /* \"contracts/cookie-jar.sol\":2151:2166  block.timestamp */\n      timestamp\n        /* \"contracts/cookie-jar.sol\":2125:2136  lastClaimed */\n      0x05\n        /* \"contracts/cookie-jar.sol\":2125:2148  lastClaimed[msg.sender] */\n      0x00\n        /* \"contracts/cookie-jar.sol\":2137:2147  msg.sender */\n      caller\n        /* \"contracts/cookie-jar.sol\":2125:2148  lastClaimed[msg.sender] */\n      0xffffffffffffffffffffffffffffffffffffffff\n      and\n      0xffffffffffffffffffffffffffffffffffffffff\n      and\n      dup2\n      mstore\n      0x20\n      add\n      swap1\n      dup2\n      mstore\n      0x20\n      add\n      0x00\n      keccak256\n        /* \"contracts/cookie-jar.sol\":2125:2166  lastClaimed[msg.sender] = block.timestamp */\n      dup2\n      swap1\n      sstore\n      pop\n        /* \"contracts/cookie-jar.sol\":2193:2199  amount */\n      dup1\n        /* \"contracts/cookie-jar.sol\":2177:2189  totalBalance */\n      0x04\n      0x00\n        /* \"contracts/cookie-jar.sol\":2177:2199  totalBalance -= amount */\n      dup3\n      dup3\n      sload\n      tag_118\n      swap2\n      swap1\n      tag_82\n      jump\t// in\n    tag_118:\n      swap3\n      pop\n      pop\n      dup2\n      swap1\n      sstore\n      pop\n        /* \"contracts/cookie-jar.sol\":2233:2234  0 */\n      0x00\n        /* \"contracts/cookie-jar.sol\":2216:2235  token == address(0) */\n      0xffffffffffffffffffffffffffffffffffffffff\n      and\n        /* \"contracts/cookie-jar.sol\":2216:2221  token */\n      0x01\n      0x00\n      swap1\n      sload\n      swap1\n      0x0100\n      exp\n      swap1\n      div\n      0xffffffffffffffffffffffffffffffffffffffff\n      and\n        /* \"contracts/cookie-jar.sol\":2216:2235  token == address(0) */\n      0xffffffffffffffffffffffffffffffffffffffff\n      and\n      sub\n        /* \"contracts/cookie-jar.sol\":2212:2498  if (token == address(0)) {... */\n      tag_119\n      jumpi\n        /* \"contracts/cookie-jar.sol\":2278:2290  bool success */\n      0x00\n        /* \"contracts/cookie-jar.sol\":2296:2306  msg.sender */\n      caller\n        /* \"contracts/cookie-jar.sol\":2296:2311  msg.sender.call */\n      0xffffffffffffffffffffffffffffffffffffffff\n      and\n        /* \"contracts/cookie-jar.sol\":2319:2325  amount */\n      dup3\n        /* \"contracts/cookie-jar.sol\":2296:2330  msg.sender.call{value: amount}(\"\") */\n      mload(0x40)\n      tag_120\n      swap1\n      tag_85\n      jump\t// in\n    tag_120:\n      0x00\n      mload(0x40)\n      dup1\n      dup4\n      sub\n      dup2\n      dup6\n      dup8\n      gas\n      call\n      swap3\n      pop\n      pop\n      pop\n      returndatasize\n      dup1\n      0x00\n      dup2\n      eq\n      tag_123\n      jumpi\n      mload(0x40)\n      swap2\n      pop\n      and(add(returndatasize, 0x3f), not(0x1f))\n      dup3\n      add\n      0x40\n      mstore\n      returndatasize\n      dup3\n      mstore\n      returndatasize\n      0x00\n      0x20\n      dup5\n      add\n      returndatacopy\n      jump(tag_122)\n    tag_123:\n      0x60\n      swap2\n      pop\n    tag_122:\n      pop\n        /* \"contracts/cookie-jar.sol\":2277:2330  (bool success, ) = msg.sender.call{value: amount}(\"\") */\n      pop\n      swap1\n      pop\n        /* \"contracts/cookie-jar.sol\":2353:2360  success */\n      dup1\n        /* \"contracts/cookie-jar.sol\":2345:2384  require(success, \"ETH transfer failed\") */\n      tag_124\n      jumpi\n      mload(0x40)\n      0x08c379a000000000000000000000000000000000000000000000000000000000\n      dup2\n      mstore\n      0x04\n      add\n      tag_125\n      swap1\n      tag_91\n      jump\t// in\n    tag_125:\n      mload(0x40)\n      dup1\n      swap2\n      sub\n      swap1\n      revert\n    tag_124:\n        /* \"contracts/cookie-jar.sol\":2237:2396  {... */\n      pop\n        /* \"contracts/cookie-jar.sol\":2212:2498  if (token == address(0)) {... */\n      jump(tag_126)\n    tag_119:\n        /* \"contracts/cookie-jar.sol\":2451:2456  token */\n      0x01\n      0x00\n      swap1\n      sload\n      swap1\n      0x0100\n      exp\n      swap1\n      div\n      0xffffffffffffffffffffffffffffffffffffffff\n      and\n        /* \"contracts/cookie-jar.sol\":2444:2466  IERC20(token).transfer */\n      0xffffffffffffffffffffffffffffffffffffffff\n      and\n      0xa9059cbb\n        /* \"contracts/cookie-jar.sol\":2467:2477  msg.sender */\n      caller\n        /* \"contracts/cookie-jar.sol\":2479:2485  amount */\n      dup4\n        /* \"contracts/cookie-jar.sol\":2444:2486  IERC20(token).transfer(msg.sender, amount) */\n      mload(0x40)\n      dup4\n      0xffffffff\n      and\n      0xe0\n      shl\n      dup2\n      mstore\n      0x04\n      add\n      tag_127\n      swap3\n      swap2\n      swap1\n      tag_94\n      jump\t// in\n    tag_127:\n      0x20\n      mload(0x40)\n      dup1\n      dup4\n      sub\n      dup2\n      0x00\n      dup8\n      gas\n      call\n      iszero\n      dup1\n      iszero\n      tag_129\n      jumpi\n      returndatasize\n      0x00\n      dup1\n      returndatacopy\n      revert(0x00, returndatasize)\n    tag_129:\n      pop\n      pop\n      pop\n      pop\n      mload(0x40)\n      returndatasize\n      not(0x1f)\n      0x1f\n      dup3\n      add\n      and\n      dup3\n      add\n      dup1\n      0x40\n      mstore\n      pop\n      dup2\n      add\n      swap1\n      tag_130\n      swap2\n      swap1\n      tag_98\n      jump\t// in\n    tag_130:\n      pop\n        /* \"contracts/cookie-jar.sol\":2212:2498  if (token == address(0)) {... */\n    tag_126:\n        /* \"contracts/cookie-jar.sol\":2523:2533  msg.sender */\n      caller\n        /* \"contracts/cookie-jar.sol\":2515:2542  Claimed(msg.sender, amount) */\n      0xffffffffffffffffffffffffffffffffffffffff\n      and\n      0xd8138f8a3f377c5259ca548e70e4c2de94f129f5a11036a15b69513cba2b426a\n        /* \"contracts/cookie-jar.sol\":2535:2541  amount */\n      dup3\n        /* \"contracts/cookie-jar.sol\":2515:2542  Claimed(msg.sender, amount) */\n      mload(0x40)\n      tag_131\n      swap2\n      swap1\n      tag_20\n      jump\t// in\n    tag_131:\n      mload(0x40)\n      dup1\n      swap2\n      sub\n      swap1\n      log2\n        /* \"contracts/cookie-jar.sol\":1774:2550  function claim(uint256 amount) external {... */\n      pop\n      jump\t// out\n        /* \"contracts/cookie-jar.sol\":633:658  uint256 public dailyLimit */\n    tag_42:\n      sload(0x03)\n      dup2\n      jump\t// out\n        /* \"contracts/cookie-jar.sol\":569:590  IScorer public scorer */\n    tag_46:\n      0x02\n      0x00\n      swap1\n      sload\n      swap1\n      0x0100\n      exp\n      swap1\n      div\n      0xffffffffffffffffffffffffffffffffffffffff\n      and\n      dup2\n      jump\t// out\n        /* \"contracts/cookie-jar.sol\":472:492  address public owner */\n    tag_51:\n      0x00\n      dup1\n      sload\n      swap1\n      0x0100\n      exp\n      swap1\n      div\n      0xffffffffffffffffffffffffffffffffffffffff\n      and\n      dup2\n      jump\t// out\n        /* \"contracts/cookie-jar.sol\":691:718  uint256 public totalBalance */\n    tag_56:\n      sload(0x04)\n      dup2\n      jump\t// out\n        /* \"contracts/cookie-jar.sol\":1366:1766  function deposit(uint256 amount) external payable {... */\n    tag_60:\n        /* \"contracts/cookie-jar.sol\":1448:1449  0 */\n      0x00\n        /* \"contracts/cookie-jar.sol\":1431:1450  token == address(0) */\n      0xffffffffffffffffffffffffffffffffffffffff\n      and\n        /* \"contracts/cookie-jar.sol\":1431:1436  token */\n      0x01\n      0x00\n      swap1\n      sload\n      swap1\n      0x0100\n      exp\n      swap1\n      div\n      0xffffffffffffffffffffffffffffffffffffffff\n      and\n        /* \"contracts/cookie-jar.sol\":1431:1450  token == address(0) */\n      0xffffffffffffffffffffffffffffffffffffffff\n      and\n      sub\n        /* \"contracts/cookie-jar.sol\":1427:1683  if (token == address(0)) {... */\n      tag_133\n      jumpi\n        /* \"contracts/cookie-jar.sol\":1516:1522  amount */\n      dup1\n        /* \"contracts/cookie-jar.sol\":1503:1512  msg.value */\n      callvalue\n        /* \"contracts/cookie-jar.sol\":1503:1522  msg.value == amount */\n      eq\n        /* \"contracts/cookie-jar.sol\":1495:1547  require(msg.value == amount, \"Incorrect ETH amount\") */\n      tag_134\n      jumpi\n      mload(0x40)\n      0x08c379a000000000000000000000000000000000000000000000000000000000\n      dup2\n      mstore\n      0x04\n      add\n      tag_135\n      swap1\n      tag_136\n      jump\t// in\n    tag_135:\n      mload(0x40)\n      dup1\n      swap2\n      sub\n      swap1\n      revert\n    tag_134:\n        /* \"contracts/cookie-jar.sol\":1427:1683  if (token == address(0)) {... */\n      jump(tag_137)\n    tag_133:\n        /* \"contracts/cookie-jar.sol\":1617:1622  token */\n      0x01\n      0x00\n      swap1\n      sload\n      swap1\n      0x0100\n      exp\n      swap1\n      div\n      0xffffffffffffffffffffffffffffffffffffffff\n      and\n        /* \"contracts/cookie-jar.sol\":1610:1636  IERC20(token).transferFrom */\n      0xffffffffffffffffffffffffffffffffffffffff\n      and\n      0x23b872dd\n        /* \"contracts/cookie-jar.sol\":1637:1647  msg.sender */\n      caller\n        /* \"contracts/cookie-jar.sol\":1657:1661  this */\n      address\n        /* \"contracts/cookie-jar.sol\":1664:1670  amount */\n      dup5\n        /* \"contracts/cookie-jar.sol\":1610:1671  IERC20(token).transferFrom(msg.sender, address(this), amount) */\n      mload(0x40)\n      dup5\n      0xffffffff\n      and\n      0xe0\n      shl\n      dup2\n      mstore\n      0x04\n      add\n      tag_138\n      swap4\n      swap3\n      swap2\n      swap1\n      tag_139\n      jump\t// in\n    tag_138:\n      0x20\n      mload(0x40)\n      dup1\n      dup4\n      sub\n      dup2\n      0x00\n      dup8\n      gas\n      call\n      iszero\n      dup1\n      iszero\n      tag_141\n      jumpi\n      returndatasize\n      0x00\n      dup1\n      returndatacopy\n      revert(0x00, returndatasize)\n    tag_141:\n      pop\n      pop\n      pop\n      pop\n      mload(0x40)\n      returndatasize\n      not(0x1f)\n      0x1f\n      dup3\n      add\n      and\n      dup3\n      add\n      dup1\n      0x40\n      mstore\n      pop\n      dup2\n      add\n      swap1\n      tag_142\n      swap2\n      swap1\n      tag_98\n      jump\t// in\n    tag_142:\n      pop\n        /* \"contracts/cookie-jar.sol\":1427:1683  if (token == address(0)) {... */\n    tag_137:\n        /* \"contracts/cookie-jar.sol\":1709:1715  amount */\n      dup1\n        /* \"contracts/cookie-jar.sol\":1693:1705  totalBalance */\n      0x04\n      0x00\n        /* \"contracts/cookie-jar.sol\":1693:1715  totalBalance += amount */\n      dup3\n      dup3\n      sload\n      tag_143\n      swap2\n      swap1\n      tag_18\n      jump\t// in\n    tag_143:\n      swap3\n      pop\n      pop\n      dup2\n      swap1\n      sstore\n      pop\n        /* \"contracts/cookie-jar.sol\":1739:1749  msg.sender */\n      caller\n        /* \"contracts/cookie-jar.sol\":1731:1758  Deposit(msg.sender, amount) */\n      0xffffffffffffffffffffffffffffffffffffffff\n      and\n      0xe1fffcc4923d04b559f4d29a8bfc6cda04eb5b0d3c460751c2402c5c5cc9109c\n        /* \"contracts/cookie-jar.sol\":1751:1757  amount */\n      dup3\n        /* \"contracts/cookie-jar.sol\":1731:1758  Deposit(msg.sender, amount) */\n      mload(0x40)\n      tag_144\n      swap2\n      swap1\n      tag_20\n      jump\t// in\n    tag_144:\n      mload(0x40)\n      dup1\n      swap2\n      sub\n      swap1\n      log2\n        /* \"contracts/cookie-jar.sol\":1366:1766  function deposit(uint256 amount) external payable {... */\n      pop\n      jump\t// out\n        /* \"contracts/cookie-jar.sol\":2558:2704  function updateDailyLimit(uint256 newLimit) external onlyOwner {... */\n    tag_64:\n        /* \"contracts/cookie-jar.sol\":1073:1078  owner */\n      0x00\n      dup1\n      sload\n      swap1\n      0x0100\n      exp\n      swap1\n      div\n      0xffffffffffffffffffffffffffffffffffffffff\n      and\n        /* \"contracts/cookie-jar.sol\":1059:1078  msg.sender == owner */\n      0xffffffffffffffffffffffffffffffffffffffff\n      and\n        /* \"contracts/cookie-jar.sol\":1059:1069  msg.sender */\n      caller\n        /* \"contracts/cookie-jar.sol\":1059:1078  msg.sender == owner */\n      0xffffffffffffffffffffffffffffffffffffffff\n      and\n      eq\n        /* \"contracts/cookie-jar.sol\":1051:1097  require(msg.sender == owner, \"Not authorized\") */\n      tag_146\n      jumpi\n      mload(0x40)\n      0x08c379a000000000000000000000000000000000000000000000000000000000\n      dup2\n      mstore\n      0x04\n      add\n      tag_147\n      swap1\n      tag_72\n      jump\t// in\n    tag_147:\n      mload(0x40)\n      dup1\n      swap2\n      sub\n      swap1\n      revert\n    tag_146:\n        /* \"contracts/cookie-jar.sol\":2645:2653  newLimit */\n      dup1\n        /* \"contracts/cookie-jar.sol\":2632:2642  dailyLimit */\n      0x03\n        /* \"contracts/cookie-jar.sol\":2632:2653  dailyLimit = newLimit */\n      dup2\n      swap1\n      sstore\n      pop\n        /* \"contracts/cookie-jar.sol\":2669:2696  UpdatedDailyLimit(newLimit) */\n      0x69e4f4585a710debc30f07c33dcded264dd61e9dd02a9dfad6584a9189f185e4\n        /* \"contracts/cookie-jar.sol\":2687:2695  newLimit */\n      dup2\n        /* \"contracts/cookie-jar.sol\":2669:2696  UpdatedDailyLimit(newLimit) */\n      mload(0x40)\n      tag_149\n      swap2\n      swap1\n      tag_20\n      jump\t// in\n    tag_149:\n      mload(0x40)\n      dup1\n      swap2\n      sub\n      swap1\n      log1\n        /* \"contracts/cookie-jar.sol\":2558:2704  function updateDailyLimit(uint256 newLimit) external onlyOwner {... */\n      pop\n      jump\t// out\n        /* \"contracts/cookie-jar.sol\":499:519  address public token */\n    tag_67:\n      0x01\n      0x00\n      swap1\n      sload\n      swap1\n      0x0100\n      exp\n      swap1\n      div\n      0xffffffffffffffffffffffffffffffffffffffff\n      and\n      dup2\n      jump\t// out\n        /* \"#utility.yul\":7:84   */\n    tag_150:\n        /* \"#utility.yul\":44:51   */\n      0x00\n        /* \"#utility.yul\":73:78   */\n      dup2\n        /* \"#utility.yul\":62:78   */\n      swap1\n      pop\n        /* \"#utility.yul\":7:84   */\n      swap2\n      swap1\n      pop\n      jump\t// out\n        /* \"#utility.yul\":90:270   */\n    tag_151:\n        /* \"#utility.yul\":138:215   */\n      0x4e487b7100000000000000000000000000000000000000000000000000000000\n        /* \"#utility.yul\":135:136   */\n      0x00\n        /* \"#utility.yul\":128:216   */\n      mstore\n        /* \"#utility.yul\":235:239   */\n      0x11\n        /* \"#utility.yul\":232:233   */\n      0x04\n        /* \"#utility.yul\":225:240   */\n      mstore\n        /* \"#utility.yul\":259:263   */\n      0x24\n        /* \"#utility.yul\":256:257   */\n      0x00\n        /* \"#utility.yul\":249:264   */\n      revert\n        /* \"#utility.yul\":276:467   */\n    tag_18:\n        /* \"#utility.yul\":316:319   */\n      0x00\n        /* \"#utility.yul\":335:355   */\n      tag_196\n        /* \"#utility.yul\":353:354   */\n      dup3\n        /* \"#utility.yul\":335:355   */\n      tag_150\n      jump\t// in\n    tag_196:\n        /* \"#utility.yul\":330:355   */\n      swap2\n      pop\n        /* \"#utility.yul\":369:389   */\n      tag_197\n        /* \"#utility.yul\":387:388   */\n      dup4\n        /* \"#utility.yul\":369:389   */\n      tag_150\n      jump\t// in\n    tag_197:\n        /* \"#utility.yul\":364:389   */\n      swap3\n      pop\n        /* \"#utility.yul\":412:413   */\n      dup3\n        /* \"#utility.yul\":409:410   */\n      dup3\n        /* \"#utility.yul\":405:414   */\n      add\n        /* \"#utility.yul\":398:414   */\n      swap1\n      pop\n        /* \"#utility.yul\":433:436   */\n      dup1\n        /* \"#utility.yul\":430:431   */\n      dup3\n        /* \"#utility.yul\":427:437   */\n      gt\n        /* \"#utility.yul\":424:460   */\n      iszero\n      tag_198\n      jumpi\n        /* \"#utility.yul\":440:458   */\n      tag_199\n      tag_151\n      jump\t// in\n    tag_199:\n        /* \"#utility.yul\":424:460   */\n    tag_198:\n        /* \"#utility.yul\":276:467   */\n      swap3\n      swap2\n      pop\n      pop\n      jump\t// out\n        /* \"#utility.yul\":473:591   */\n    tag_152:\n        /* \"#utility.yul\":560:584   */\n      tag_201\n        /* \"#utility.yul\":578:583   */\n      dup2\n        /* \"#utility.yul\":560:584   */\n      tag_150\n      jump\t// in\n    tag_201:\n        /* \"#utility.yul\":555:558   */\n      dup3\n        /* \"#utility.yul\":548:585   */\n      mstore\n        /* \"#utility.yul\":473:591   */\n      pop\n      pop\n      jump\t// out\n        /* \"#utility.yul\":597:819   */\n    tag_20:\n        /* \"#utility.yul\":690:694   */\n      0x00\n        /* \"#utility.yul\":728:730   */\n      0x20\n        /* \"#utility.yul\":717:726   */\n      dup3\n        /* \"#utility.yul\":713:731   */\n      add\n        /* \"#utility.yul\":705:731   */\n      swap1\n      pop\n        /* \"#utility.yul\":741:812   */\n      tag_203\n        /* \"#utility.yul\":809:810   */\n      0x00\n        /* \"#utility.yul\":798:807   */\n      dup4\n        /* \"#utility.yul\":794:811   */\n      add\n        /* \"#utility.yul\":785:791   */\n      dup5\n        /* \"#utility.yul\":741:812   */\n      tag_152\n      jump\t// in\n    tag_203:\n        /* \"#utility.yul\":597:819   */\n      swap3\n      swap2\n      pop\n      pop\n      jump\t// out\n        /* \"#utility.yul\":906:1023   */\n    tag_154:\n        /* \"#utility.yul\":1015:1016   */\n      0x00\n        /* \"#utility.yul\":1012:1013   */\n      dup1\n        /* \"#utility.yul\":1005:1017   */\n      revert\n        /* \"#utility.yul\":1152:1278   */\n    tag_156:\n        /* \"#utility.yul\":1189:1196   */\n      0x00\n        /* \"#utility.yul\":1229:1271   */\n      0xffffffffffffffffffffffffffffffffffffffff\n        /* \"#utility.yul\":1222:1227   */\n      dup3\n        /* \"#utility.yul\":1218:1272   */\n      and\n        /* \"#utility.yul\":1207:1272   */\n      swap1\n      pop\n        /* \"#utility.yul\":1152:1278   */\n      swap2\n      swap1\n      pop\n      jump\t// out\n        /* \"#utility.yul\":1284:1380   */\n    tag_157:\n        /* \"#utility.yul\":1321:1328   */\n      0x00\n        /* \"#utility.yul\":1350:1374   */\n      tag_209\n        /* \"#utility.yul\":1368:1373   */\n      dup3\n        /* \"#utility.yul\":1350:1374   */\n      tag_156\n      jump\t// in\n    tag_209:\n        /* \"#utility.yul\":1339:1374   */\n      swap1\n      pop\n        /* \"#utility.yul\":1284:1380   */\n      swap2\n      swap1\n      pop\n      jump\t// out\n        /* \"#utility.yul\":1386:1508   */\n    tag_158:\n        /* \"#utility.yul\":1459:1483   */\n      tag_211\n        /* \"#utility.yul\":1477:1482   */\n      dup2\n        /* \"#utility.yul\":1459:1483   */\n      tag_157\n      jump\t// in\n    tag_211:\n        /* \"#utility.yul\":1452:1457   */\n      dup2\n        /* \"#utility.yul\":1449:1484   */\n      eq\n        /* \"#utility.yul\":1439:1502   */\n      tag_212\n      jumpi\n        /* \"#utility.yul\":1498:1499   */\n      0x00\n        /* \"#utility.yul\":1495:1496   */\n      dup1\n        /* \"#utility.yul\":1488:1500   */\n      revert\n        /* \"#utility.yul\":1439:1502   */\n    tag_212:\n        /* \"#utility.yul\":1386:1508   */\n      pop\n      jump\t// out\n        /* \"#utility.yul\":1514:1653   */\n    tag_159:\n        /* \"#utility.yul\":1560:1565   */\n      0x00\n        /* \"#utility.yul\":1598:1604   */\n      dup2\n        /* \"#utility.yul\":1585:1605   */\n      calldataload\n        /* \"#utility.yul\":1576:1605   */\n      swap1\n      pop\n        /* \"#utility.yul\":1614:1647   */\n      tag_214\n        /* \"#utility.yul\":1641:1646   */\n      dup2\n        /* \"#utility.yul\":1614:1647   */\n      tag_158\n      jump\t// in\n    tag_214:\n        /* \"#utility.yul\":1514:1653   */\n      swap3\n      swap2\n      pop\n      pop\n      jump\t// out\n        /* \"#utility.yul\":1659:1988   */\n    tag_24:\n        /* \"#utility.yul\":1718:1724   */\n      0x00\n        /* \"#utility.yul\":1767:1769   */\n      0x20\n        /* \"#utility.yul\":1755:1764   */\n      dup3\n        /* \"#utility.yul\":1746:1753   */\n      dup5\n        /* \"#utility.yul\":1742:1765   */\n      sub\n        /* \"#utility.yul\":1738:1770   */\n      slt\n        /* \"#utility.yul\":1735:1854   */\n      iszero\n      tag_216\n      jumpi\n        /* \"#utility.yul\":1773:1852   */\n      tag_217\n      tag_154\n      jump\t// in\n    tag_217:\n        /* \"#utility.yul\":1735:1854   */\n    tag_216:\n        /* \"#utility.yul\":1893:1894   */\n      0x00\n        /* \"#utility.yul\":1918:1971   */\n      tag_218\n        /* \"#utility.yul\":1963:1970   */\n      dup5\n        /* \"#utility.yul\":1954:1960   */\n      dup3\n        /* \"#utility.yul\":1943:1952   */\n      dup6\n        /* \"#utility.yul\":1939:1961   */\n      add\n        /* \"#utility.yul\":1918:1971   */\n      tag_159\n      jump\t// in\n    tag_218:\n        /* \"#utility.yul\":1908:1971   */\n      swap2\n      pop\n        /* \"#utility.yul\":1864:1981   */\n      pop\n        /* \"#utility.yul\":1659:1988   */\n      swap3\n      swap2\n      pop\n      pop\n      jump\t// out\n        /* \"#utility.yul\":1994:2116   */\n    tag_160:\n        /* \"#utility.yul\":2067:2091   */\n      tag_220\n        /* \"#utility.yul\":2085:2090   */\n      dup2\n        /* \"#utility.yul\":2067:2091   */\n      tag_150\n      jump\t// in\n    tag_220:\n        /* \"#utility.yul\":2060:2065   */\n      dup2\n        /* \"#utility.yul\":2057:2092   */\n      eq\n        /* \"#utility.yul\":2047:2110   */\n      tag_221\n      jumpi\n        /* \"#utility.yul\":2106:2107   */\n      0x00\n        /* \"#utility.yul\":2103:2104   */\n      dup1\n        /* \"#utility.yul\":2096:2108   */\n      revert\n        /* \"#utility.yul\":2047:2110   */\n    tag_221:\n        /* \"#utility.yul\":1994:2116   */\n      pop\n      jump\t// out\n        /* \"#utility.yul\":2122:2261   */\n    tag_161:\n        /* \"#utility.yul\":2168:2173   */\n      0x00\n        /* \"#utility.yul\":2206:2212   */\n      dup2\n        /* \"#utility.yul\":2193:2213   */\n      calldataload\n        /* \"#utility.yul\":2184:2213   */\n      swap1\n      pop\n        /* \"#utility.yul\":2222:2255   */\n      tag_223\n        /* \"#utility.yul\":2249:2254   */\n      dup2\n        /* \"#utility.yul\":2222:2255   */\n      tag_160\n      jump\t// in\n    tag_223:\n        /* \"#utility.yul\":2122:2261   */\n      swap3\n      swap2\n      pop\n      pop\n      jump\t// out\n        /* \"#utility.yul\":2267:2596   */\n    tag_34:\n        /* \"#utility.yul\":2326:2332   */\n      0x00\n        /* \"#utility.yul\":2375:2377   */\n      0x20\n        /* \"#utility.yul\":2363:2372   */\n      dup3\n        /* \"#utility.yul\":2354:2361   */\n      dup5\n        /* \"#utility.yul\":2350:2373   */\n      sub\n        /* \"#utility.yul\":2346:2378   */\n      slt\n        /* \"#utility.yul\":2343:2462   */\n      iszero\n      tag_225\n      jumpi\n        /* \"#utility.yul\":2381:2460   */\n      tag_226\n      tag_154\n      jump\t// in\n    tag_226:\n        /* \"#utility.yul\":2343:2462   */\n    tag_225:\n        /* \"#utility.yul\":2501:2502   */\n      0x00\n        /* \"#utility.yul\":2526:2579   */\n      tag_227\n        /* \"#utility.yul\":2571:2578   */\n      dup5\n        /* \"#utility.yul\":2562:2568   */\n      dup3\n        /* \"#utility.yul\":2551:2560   */\n      dup6\n        /* \"#utility.yul\":2547:2569   */\n      add\n        /* \"#utility.yul\":2526:2579   */\n      tag_161\n      jump\t// in\n    tag_227:\n        /* \"#utility.yul\":2516:2579   */\n      swap2\n      pop\n        /* \"#utility.yul\":2472:2589   */\n      pop\n        /* \"#utility.yul\":2267:2596   */\n      swap3\n      swap2\n      pop\n      pop\n      jump\t// out\n        /* \"#utility.yul\":2602:2662   */\n    tag_162:\n        /* \"#utility.yul\":2630:2633   */\n      0x00\n        /* \"#utility.yul\":2651:2656   */\n      dup2\n        /* \"#utility.yul\":2644:2656   */\n      swap1\n      pop\n        /* \"#utility.yul\":2602:2662   */\n      swap2\n      swap1\n      pop\n      jump\t// out\n        /* \"#utility.yul\":2668:2810   */\n    tag_163:\n        /* \"#utility.yul\":2718:2727   */\n      0x00\n        /* \"#utility.yul\":2751:2804   */\n      tag_230\n        /* \"#utility.yul\":2769:2803   */\n      tag_231\n        /* \"#utility.yul\":2778:2802   */\n      tag_232\n        /* \"#utility.yul\":2796:2801   */\n      dup5\n        /* \"#utility.yul\":2778:2802   */\n      tag_156\n      jump\t// in\n    tag_232:\n        /* \"#utility.yul\":2769:2803   */\n      tag_162\n      jump\t// in\n    tag_231:\n        /* \"#utility.yul\":2751:2804   */\n      tag_156\n      jump\t// in\n    tag_230:\n        /* \"#utility.yul\":2738:2804   */\n      swap1\n      pop\n        /* \"#utility.yul\":2668:2810   */\n      swap2\n      swap1\n      pop\n      jump\t// out\n        /* \"#utility.yul\":2816:2942   */\n    tag_164:\n        /* \"#utility.yul\":2866:2875   */\n      0x00\n        /* \"#utility.yul\":2899:2936   */\n      tag_234\n        /* \"#utility.yul\":2930:2935   */\n      dup3\n        /* \"#utility.yul\":2899:2936   */\n      tag_163\n      jump\t// in\n    tag_234:\n        /* \"#utility.yul\":2886:2936   */\n      swap1\n      pop\n        /* \"#utility.yul\":2816:2942   */\n      swap2\n      swap1\n      pop\n      jump\t// out\n        /* \"#utility.yul\":2948:3088   */\n    tag_165:\n        /* \"#utility.yul\":3012:3021   */\n      0x00\n        /* \"#utility.yul\":3045:3082   */\n      tag_236\n        /* \"#utility.yul\":3076:3081   */\n      dup3\n        /* \"#utility.yul\":3045:3082   */\n      tag_164\n      jump\t// in\n    tag_236:\n        /* \"#utility.yul\":3032:3082   */\n      swap1\n      pop\n        /* \"#utility.yul\":2948:3088   */\n      swap2\n      swap1\n      pop\n      jump\t// out\n        /* \"#utility.yul\":3094:3253   */\n    tag_166:\n        /* \"#utility.yul\":3195:3246   */\n      tag_238\n        /* \"#utility.yul\":3240:3245   */\n      dup2\n        /* \"#utility.yul\":3195:3246   */\n      tag_165\n      jump\t// in\n    tag_238:\n        /* \"#utility.yul\":3190:3193   */\n      dup3\n        /* \"#utility.yul\":3183:3247   */\n      mstore\n        /* \"#utility.yul\":3094:3253   */\n      pop\n      pop\n      jump\t// out\n        /* \"#utility.yul\":3259:3509   */\n    tag_48:\n        /* \"#utility.yul\":3366:3370   */\n      0x00\n        /* \"#utility.yul\":3404:3406   */\n      0x20\n        /* \"#utility.yul\":3393:3402   */\n      dup3\n        /* \"#utility.yul\":3389:3407   */\n      add\n        /* \"#utility.yul\":3381:3407   */\n      swap1\n      pop\n        /* \"#utility.yul\":3417:3502   */\n      tag_240\n        /* \"#utility.yul\":3499:3500   */\n      0x00\n        /* \"#utility.yul\":3488:3497   */\n      dup4\n        /* \"#utility.yul\":3484:3501   */\n      add\n        /* \"#utility.yul\":3475:3481   */\n      dup5\n        /* \"#utility.yul\":3417:3502   */\n      tag_166\n      jump\t// in\n    tag_240:\n        /* \"#utility.yul\":3259:3509   */\n      swap3\n      swap2\n      pop\n      pop\n      jump\t// out\n        /* \"#utility.yul\":3515:3633   */\n    tag_167:\n        /* \"#utility.yul\":3602:3626   */\n      tag_242\n        /* \"#utility.yul\":3620:3625   */\n      dup2\n        /* \"#utility.yul\":3602:3626   */\n      tag_157\n      jump\t// in\n    tag_242:\n        /* \"#utility.yul\":3597:3600   */\n      dup3\n        /* \"#utility.yul\":3590:3627   */\n      mstore\n        /* \"#utility.yul\":3515:3633   */\n      pop\n      pop\n      jump\t// out\n        /* \"#utility.yul\":3639:3861   */\n    tag_53:\n        /* \"#utility.yul\":3732:3736   */\n      0x00\n        /* \"#utility.yul\":3770:3772   */\n      0x20\n        /* \"#utility.yul\":3759:3768   */\n      dup3\n        /* \"#utility.yul\":3755:3773   */\n      add\n        /* \"#utility.yul\":3747:3773   */\n      swap1\n      pop\n        /* \"#utility.yul\":3783:3854   */\n      tag_244\n        /* \"#utility.yul\":3851:3852   */\n      0x00\n        /* \"#utility.yul\":3840:3849   */\n      dup4\n        /* \"#utility.yul\":3836:3853   */\n      add\n        /* \"#utility.yul\":3827:3833   */\n      dup5\n        /* \"#utility.yul\":3783:3854   */\n      tag_167\n      jump\t// in\n    tag_244:\n        /* \"#utility.yul\":3639:3861   */\n      swap3\n      swap2\n      pop\n      pop\n      jump\t// out\n        /* \"#utility.yul\":3867:4036   */\n    tag_168:\n        /* \"#utility.yul\":3951:3962   */\n      0x00\n        /* \"#utility.yul\":3985:3991   */\n      dup3\n        /* \"#utility.yul\":3980:3983   */\n      dup3\n        /* \"#utility.yul\":3973:3992   */\n      mstore\n        /* \"#utility.yul\":4025:4029   */\n      0x20\n        /* \"#utility.yul\":4020:4023   */\n      dup3\n        /* \"#utility.yul\":4016:4030   */\n      add\n        /* \"#utility.yul\":4001:4030   */\n      swap1\n      pop\n        /* \"#utility.yul\":3867:4036   */\n      swap3\n      swap2\n      pop\n      pop\n      jump\t// out\n        /* \"#utility.yul\":4042:4206   */\n    tag_169:\n        /* \"#utility.yul\":4182:4198   */\n      0x4e6f7420617574686f72697a6564000000000000000000000000000000000000\n        /* \"#utility.yul\":4178:4179   */\n      0x00\n        /* \"#utility.yul\":4170:4176   */\n      dup3\n        /* \"#utility.yul\":4166:4180   */\n      add\n        /* \"#utility.yul\":4159:4199   */\n      mstore\n        /* \"#utility.yul\":4042:4206   */\n      pop\n      jump\t// out\n        /* \"#utility.yul\":4212:4578   */\n    tag_170:\n        /* \"#utility.yul\":4354:4357   */\n      0x00\n        /* \"#utility.yul\":4375:4442   */\n      tag_248\n        /* \"#utility.yul\":4439:4441   */\n      0x0e\n        /* \"#utility.yul\":4434:4437   */\n      dup4\n        /* \"#utility.yul\":4375:4442   */\n      tag_168\n      jump\t// in\n    tag_248:\n        /* \"#utility.yul\":4368:4442   */\n      swap2\n      pop\n        /* \"#utility.yul\":4451:4544   */\n      tag_249\n        /* \"#utility.yul\":4540:4543   */\n      dup3\n        /* \"#utility.yul\":4451:4544   */\n      tag_169\n      jump\t// in\n    tag_249:\n        /* \"#utility.yul\":4569:4571   */\n      0x20\n        /* \"#utility.yul\":4564:4567   */\n      dup3\n        /* \"#utility.yul\":4560:4572   */\n      add\n        /* \"#utility.yul\":4553:4572   */\n      swap1\n      pop\n        /* \"#utility.yul\":4212:4578   */\n      swap2\n      swap1\n      pop\n      jump\t// out\n        /* \"#utility.yul\":4584:5003   */\n    tag_72:\n        /* \"#utility.yul\":4750:4754   */\n      0x00\n        /* \"#utility.yul\":4788:4790   */\n      0x20\n        /* \"#utility.yul\":4777:4786   */\n      dup3\n        /* \"#utility.yul\":4773:4791   */\n      add\n        /* \"#utility.yul\":4765:4791   */\n      swap1\n      pop\n        /* \"#utility.yul\":4837:4846   */\n      dup2\n        /* \"#utility.yul\":4831:4835   */\n      dup2\n        /* \"#utility.yul\":4827:4847   */\n      sub\n        /* \"#utility.yul\":4823:4824   */\n      0x00\n        /* \"#utility.yul\":4812:4821   */\n      dup4\n        /* \"#utility.yul\":4808:4825   */\n      add\n        /* \"#utility.yul\":4801:4848   */\n      mstore\n        /* \"#utility.yul\":4865:4996   */\n      tag_251\n        /* \"#utility.yul\":4991:4995   */\n      dup2\n        /* \"#utility.yul\":4865:4996   */\n      tag_170\n      jump\t// in\n    tag_251:\n        /* \"#utility.yul\":4857:4996   */\n      swap1\n      pop\n        /* \"#utility.yul\":4584:5003   */\n      swap2\n      swap1\n      pop\n      jump\t// out\n        /* \"#utility.yul\":5009:5177   */\n    tag_171:\n        /* \"#utility.yul\":5149:5169   */\n      0x496e73756666696369656e742066756e64730000000000000000000000000000\n        /* \"#utility.yul\":5145:5146   */\n      0x00\n        /* \"#utility.yul\":5137:5143   */\n      dup3\n        /* \"#utility.yul\":5133:5147   */\n      add\n        /* \"#utility.yul\":5126:5170   */\n      mstore\n        /* \"#utility.yul\":5009:5177   */\n      pop\n      jump\t// out\n        /* \"#utility.yul\":5183:5549   */\n    tag_172:\n        /* \"#utility.yul\":5325:5328   */\n      0x00\n        /* \"#utility.yul\":5346:5413   */\n      tag_254\n        /* \"#utility.yul\":5410:5412   */\n      0x12\n        /* \"#utility.yul\":5405:5408   */\n      dup4\n        /* \"#utility.yul\":5346:5413   */\n      tag_168\n      jump\t// in\n    tag_254:\n        /* \"#utility.yul\":5339:5413   */\n      swap2\n      pop\n        /* \"#utility.yul\":5422:5515   */\n      tag_255\n        /* \"#utility.yul\":5511:5514   */\n      dup3\n        /* \"#utility.yul\":5422:5515   */\n      tag_171\n      jump\t// in\n    tag_255:\n        /* \"#utility.yul\":5540:5542   */\n      0x20\n        /* \"#utility.yul\":5535:5538   */\n      dup3\n        /* \"#utility.yul\":5531:5543   */\n      add\n        /* \"#utility.yul\":5524:5543   */\n      swap1\n      pop\n        /* \"#utility.yul\":5183:5549   */\n      swap2\n      swap1\n      pop\n      jump\t// out\n        /* \"#utility.yul\":5555:5974   */\n    tag_80:\n        /* \"#utility.yul\":5721:5725   */\n      0x00\n        /* \"#utility.yul\":5759:5761   */\n      0x20\n        /* \"#utility.yul\":5748:5757   */\n      dup3\n        /* \"#utility.yul\":5744:5762   */\n      add\n        /* \"#utility.yul\":5736:5762   */\n      swap1\n      pop\n        /* \"#utility.yul\":5808:5817   */\n      dup2\n        /* \"#utility.yul\":5802:5806   */\n      dup2\n        /* \"#utility.yul\":5798:5818   */\n      sub\n        /* \"#utility.yul\":5794:5795   */\n      0x00\n        /* \"#utility.yul\":5783:5792   */\n      dup4\n        /* \"#utility.yul\":5779:5796   */\n      add\n        /* \"#utility.yul\":5772:5819   */\n      mstore\n        /* \"#utility.yul\":5836:5967   */\n      tag_257\n        /* \"#utility.yul\":5962:5966   */\n      dup2\n        /* \"#utility.yul\":5836:5967   */\n      tag_172\n      jump\t// in\n    tag_257:\n        /* \"#utility.yul\":5828:5967   */\n      swap1\n      pop\n        /* \"#utility.yul\":5555:5974   */\n      swap2\n      swap1\n      pop\n      jump\t// out\n        /* \"#utility.yul\":5980:6174   */\n    tag_82:\n        /* \"#utility.yul\":6020:6024   */\n      0x00\n        /* \"#utility.yul\":6040:6060   */\n      tag_259\n        /* \"#utility.yul\":6058:6059   */\n      dup3\n        /* \"#utility.yul\":6040:6060   */\n      tag_150\n      jump\t// in\n    tag_259:\n        /* \"#utility.yul\":6035:6060   */\n      swap2\n      pop\n        /* \"#utility.yul\":6074:6094   */\n      tag_260\n        /* \"#utility.yul\":6092:6093   */\n      dup4\n        /* \"#utility.yul\":6074:6094   */\n      tag_150\n      jump\t// in\n    tag_260:\n        /* \"#utility.yul\":6069:6094   */\n      swap3\n      pop\n        /* \"#utility.yul\":6118:6119   */\n      dup3\n        /* \"#utility.yul\":6115:6116   */\n      dup3\n        /* \"#utility.yul\":6111:6120   */\n      sub\n        /* \"#utility.yul\":6103:6120   */\n      swap1\n      pop\n        /* \"#utility.yul\":6142:6143   */\n      dup2\n        /* \"#utility.yul\":6136:6140   */\n      dup2\n        /* \"#utility.yul\":6133:6144   */\n      gt\n        /* \"#utility.yul\":6130:6167   */\n      iszero\n      tag_261\n      jumpi\n        /* \"#utility.yul\":6147:6165   */\n      tag_262\n      tag_151\n      jump\t// in\n    tag_262:\n        /* \"#utility.yul\":6130:6167   */\n    tag_261:\n        /* \"#utility.yul\":5980:6174   */\n      swap3\n      swap2\n      pop\n      pop\n      jump\t// out\n        /* \"#utility.yul\":6180:6327   */\n    tag_173:\n        /* \"#utility.yul\":6281:6292   */\n      0x00\n        /* \"#utility.yul\":6318:6321   */\n      dup2\n        /* \"#utility.yul\":6303:6321   */\n      swap1\n      pop\n        /* \"#utility.yul\":6180:6327   */\n      swap3\n      swap2\n      pop\n      pop\n      jump\t// out\n        /* \"#utility.yul\":6333:6447   */\n    tag_174:\n      pop\n      jump\t// out\n        /* \"#utility.yul\":6453:6851   */\n    tag_175:\n        /* \"#utility.yul\":6612:6615   */\n      0x00\n        /* \"#utility.yul\":6633:6716   */\n      tag_266\n        /* \"#utility.yul\":6714:6715   */\n      0x00\n        /* \"#utility.yul\":6709:6712   */\n      dup4\n        /* \"#utility.yul\":6633:6716   */\n      tag_173\n      jump\t// in\n    tag_266:\n        /* \"#utility.yul\":6626:6716   */\n      swap2\n      pop\n        /* \"#utility.yul\":6725:6818   */\n      tag_267\n        /* \"#utility.yul\":6814:6817   */\n      dup3\n        /* \"#utility.yul\":6725:6818   */\n      tag_174\n      jump\t// in\n    tag_267:\n        /* \"#utility.yul\":6843:6844   */\n      0x00\n        /* \"#utility.yul\":6838:6841   */\n      dup3\n        /* \"#utility.yul\":6834:6845   */\n      add\n        /* \"#utility.yul\":6827:6845   */\n      swap1\n      pop\n        /* \"#utility.yul\":6453:6851   */\n      swap2\n      swap1\n      pop\n      jump\t// out\n        /* \"#utility.yul\":6857:7236   */\n    tag_85:\n        /* \"#utility.yul\":7041:7044   */\n      0x00\n        /* \"#utility.yul\":7063:7210   */\n      tag_269\n        /* \"#utility.yul\":7206:7209   */\n      dup3\n        /* \"#utility.yul\":7063:7210   */\n      tag_175\n      jump\t// in\n    tag_269:\n        /* \"#utility.yul\":7056:7210   */\n      swap2\n      pop\n        /* \"#utility.yul\":7227:7230   */\n      dup2\n        /* \"#utility.yul\":7220:7230   */\n      swap1\n      pop\n        /* \"#utility.yul\":6857:7236   */\n      swap2\n      swap1\n      pop\n      jump\t// out\n        /* \"#utility.yul\":7242:7411   */\n    tag_176:\n        /* \"#utility.yul\":7382:7403   */\n      0x455448207472616e73666572206661696c656400000000000000000000000000\n        /* \"#utility.yul\":7378:7379   */\n      0x00\n        /* \"#utility.yul\":7370:7376   */\n      dup3\n        /* \"#utility.yul\":7366:7380   */\n      add\n        /* \"#utility.yul\":7359:7404   */\n      mstore\n        /* \"#utility.yul\":7242:7411   */\n      pop\n      jump\t// out\n        /* \"#utility.yul\":7417:7783   */\n    tag_177:\n        /* \"#utility.yul\":7559:7562   */\n      0x00\n        /* \"#utility.yul\":7580:7647   */\n      tag_272\n        /* \"#utility.yul\":7644:7646   */\n      0x13\n        /* \"#utility.yul\":7639:7642   */\n      dup4\n        /* \"#utility.yul\":7580:7647   */\n      tag_168\n      jump\t// in\n    tag_272:\n        /* \"#utility.yul\":7573:7647   */\n      swap2\n      pop\n        /* \"#utility.yul\":7656:7749   */\n      tag_273\n        /* \"#utility.yul\":7745:7748   */\n      dup3\n        /* \"#utility.yul\":7656:7749   */\n      tag_176\n      jump\t// in\n    tag_273:\n        /* \"#utility.yul\":7774:7776   */\n      0x20\n        /* \"#utility.yul\":7769:7772   */\n      dup3\n        /* \"#utility.yul\":7765:7777   */\n      add\n        /* \"#utility.yul\":7758:7777   */\n      swap1\n      pop\n        /* \"#utility.yul\":7417:7783   */\n      swap2\n      swap1\n      pop\n      jump\t// out\n        /* \"#utility.yul\":7789:8208   */\n    tag_91:\n        /* \"#utility.yul\":7955:7959   */\n      0x00\n        /* \"#utility.yul\":7993:7995   */\n      0x20\n        /* \"#utility.yul\":7982:7991   */\n      dup3\n        /* \"#utility.yul\":7978:7996   */\n      add\n        /* \"#utility.yul\":7970:7996   */\n      swap1\n      pop\n        /* \"#utility.yul\":8042:8051   */\n      dup2\n        /* \"#utility.yul\":8036:8040   */\n      dup2\n        /* \"#utility.yul\":8032:8052   */\n      sub\n        /* \"#utility.yul\":8028:8029   */\n      0x00\n        /* \"#utility.yul\":8017:8026   */\n      dup4\n        /* \"#utility.yul\":8013:8030   */\n      add\n        /* \"#utility.yul\":8006:8053   */\n      mstore\n        /* \"#utility.yul\":8070:8201   */\n      tag_275\n        /* \"#utility.yul\":8196:8200   */\n      dup2\n        /* \"#utility.yul\":8070:8201   */\n      tag_177\n      jump\t// in\n    tag_275:\n        /* \"#utility.yul\":8062:8201   */\n      swap1\n      pop\n        /* \"#utility.yul\":7789:8208   */\n      swap2\n      swap1\n      pop\n      jump\t// out\n        /* \"#utility.yul\":8214:8546   */\n    tag_94:\n        /* \"#utility.yul\":8335:8339   */\n      0x00\n        /* \"#utility.yul\":8373:8375   */\n      0x40\n        /* \"#utility.yul\":8362:8371   */\n      dup3\n        /* \"#utility.yul\":8358:8376   */\n      add\n        /* \"#utility.yul\":8350:8376   */\n      swap1\n      pop\n        /* \"#utility.yul\":8386:8457   */\n      tag_277\n        /* \"#utility.yul\":8454:8455   */\n      0x00\n        /* \"#utility.yul\":8443:8452   */\n      dup4\n        /* \"#utility.yul\":8439:8456   */\n      add\n        /* \"#utility.yul\":8430:8436   */\n      dup6\n        /* \"#utility.yul\":8386:8457   */\n      tag_167\n      jump\t// in\n    tag_277:\n        /* \"#utility.yul\":8467:8539   */\n      tag_278\n        /* \"#utility.yul\":8535:8537   */\n      0x20\n        /* \"#utility.yul\":8524:8533   */\n      dup4\n        /* \"#utility.yul\":8520:8538   */\n      add\n        /* \"#utility.yul\":8511:8517   */\n      dup5\n        /* \"#utility.yul\":8467:8539   */\n      tag_152\n      jump\t// in\n    tag_278:\n        /* \"#utility.yul\":8214:8546   */\n      swap4\n      swap3\n      pop\n      pop\n      pop\n      jump\t// out\n        /* \"#utility.yul\":8552:8642   */\n    tag_178:\n        /* \"#utility.yul\":8586:8593   */\n      0x00\n        /* \"#utility.yul\":8629:8634   */\n      dup2\n        /* \"#utility.yul\":8622:8635   */\n      iszero\n        /* \"#utility.yul\":8615:8636   */\n      iszero\n        /* \"#utility.yul\":8604:8636   */\n      swap1\n      pop\n        /* \"#utility.yul\":8552:8642   */\n      swap2\n      swap1\n      pop\n      jump\t// out\n        /* \"#utility.yul\":8648:8764   */\n    tag_179:\n        /* \"#utility.yul\":8718:8739   */\n      tag_281\n        /* \"#utility.yul\":8733:8738   */\n      dup2\n        /* \"#utility.yul\":8718:8739   */\n      tag_178\n      jump\t// in\n    tag_281:\n        /* \"#utility.yul\":8711:8716   */\n      dup2\n        /* \"#utility.yul\":8708:8740   */\n      eq\n        /* \"#utility.yul\":8698:8758   */\n      tag_282\n      jumpi\n        /* \"#utility.yul\":8754:8755   */\n      0x00\n        /* \"#utility.yul\":8751:8752   */\n      dup1\n        /* \"#utility.yul\":8744:8756   */\n      revert\n        /* \"#utility.yul\":8698:8758   */\n    tag_282:\n        /* \"#utility.yul\":8648:8764   */\n      pop\n      jump\t// out\n        /* \"#utility.yul\":8770:8907   */\n    tag_180:\n        /* \"#utility.yul\":8824:8829   */\n      0x00\n        /* \"#utility.yul\":8855:8861   */\n      dup2\n        /* \"#utility.yul\":8849:8862   */\n      mload\n        /* \"#utility.yul\":8840:8862   */\n      swap1\n      pop\n        /* \"#utility.yul\":8871:8901   */\n      tag_284\n        /* \"#utility.yul\":8895:8900   */\n      dup2\n        /* \"#utility.yul\":8871:8901   */\n      tag_179\n      jump\t// in\n    tag_284:\n        /* \"#utility.yul\":8770:8907   */\n      swap3\n      swap2\n      pop\n      pop\n      jump\t// out\n        /* \"#utility.yul\":8913:9258   */\n    tag_98:\n        /* \"#utility.yul\":8980:8986   */\n      0x00\n        /* \"#utility.yul\":9029:9031   */\n      0x20\n        /* \"#utility.yul\":9017:9026   */\n      dup3\n        /* \"#utility.yul\":9008:9015   */\n      dup5\n        /* \"#utility.yul\":9004:9027   */\n      sub\n        /* \"#utility.yul\":9000:9032   */\n      slt\n        /* \"#utility.yul\":8997:9116   */\n      iszero\n      tag_286\n      jumpi\n        /* \"#utility.yul\":9035:9114   */\n      tag_287\n      tag_154\n      jump\t// in\n    tag_287:\n        /* \"#utility.yul\":8997:9116   */\n    tag_286:\n        /* \"#utility.yul\":9155:9156   */\n      0x00\n        /* \"#utility.yul\":9180:9241   */\n      tag_288\n        /* \"#utility.yul\":9233:9240   */\n      dup5\n        /* \"#utility.yul\":9224:9230   */\n      dup3\n        /* \"#utility.yul\":9213:9222   */\n      dup6\n        /* \"#utility.yul\":9209:9231   */\n      add\n        /* \"#utility.yul\":9180:9241   */\n      tag_180\n      jump\t// in\n    tag_288:\n        /* \"#utility.yul\":9170:9241   */\n      swap2\n      pop\n        /* \"#utility.yul\":9126:9251   */\n      pop\n        /* \"#utility.yul\":8913:9258   */\n      swap3\n      swap2\n      pop\n      pop\n      jump\t// out\n        /* \"#utility.yul\":9264:9433   */\n    tag_181:\n        /* \"#utility.yul\":9404:9425   */\n      0x45786365656473206461696c79206c696d697400000000000000000000000000\n        /* \"#utility.yul\":9400:9401   */\n      0x00\n        /* \"#utility.yul\":9392:9398   */\n      dup3\n        /* \"#utility.yul\":9388:9402   */\n      add\n        /* \"#utility.yul\":9381:9426   */\n      mstore\n        /* \"#utility.yul\":9264:9433   */\n      pop\n      jump\t// out\n        /* \"#utility.yul\":9439:9805   */\n    tag_182:\n        /* \"#utility.yul\":9581:9584   */\n      0x00\n        /* \"#utility.yul\":9602:9669   */\n      tag_291\n        /* \"#utility.yul\":9666:9668   */\n      0x13\n        /* \"#utility.yul\":9661:9664   */\n      dup4\n        /* \"#utility.yul\":9602:9669   */\n      tag_168\n      jump\t// in\n    tag_291:\n        /* \"#utility.yul\":9595:9669   */\n      swap2\n      pop\n        /* \"#utility.yul\":9678:9771   */\n      tag_292\n        /* \"#utility.yul\":9767:9770   */\n      dup3\n        /* \"#utility.yul\":9678:9771   */\n      tag_181\n      jump\t// in\n    tag_292:\n        /* \"#utility.yul\":9796:9798   */\n      0x20\n        /* \"#utility.yul\":9791:9794   */\n      dup3\n        /* \"#utility.yul\":9787:9799   */\n      add\n        /* \"#utility.yul\":9780:9799   */\n      swap1\n      pop\n        /* \"#utility.yul\":9439:9805   */\n      swap2\n      swap1\n      pop\n      jump\t// out\n        /* \"#utility.yul\":9811:10230   */\n    tag_102:\n        /* \"#utility.yul\":9977:9981   */\n      0x00\n        /* \"#utility.yul\":10015:10017   */\n      0x20\n        /* \"#utility.yul\":10004:10013   */\n      dup3\n        /* \"#utility.yul\":10000:10018   */\n      add\n        /* \"#utility.yul\":9992:10018   */\n      swap1\n      pop\n        /* \"#utility.yul\":10064:10073   */\n      dup2\n        /* \"#utility.yul\":10058:10062   */\n      dup2\n        /* \"#utility.yul\":10054:10074   */\n      sub\n        /* \"#utility.yul\":10050:10051   */\n      0x00\n        /* \"#utility.yul\":10039:10048   */\n      dup4\n        /* \"#utility.yul\":10035:10052   */\n      add\n        /* \"#utility.yul\":10028:10075   */\n      mstore\n        /* \"#utility.yul\":10092:10223   */\n      tag_294\n        /* \"#utility.yul\":10218:10222   */\n      dup2\n        /* \"#utility.yul\":10092:10223   */\n      tag_182\n      jump\t// in\n    tag_294:\n        /* \"#utility.yul\":10084:10223   */\n      swap1\n      pop\n        /* \"#utility.yul\":9811:10230   */\n      swap2\n      swap1\n      pop\n      jump\t// out\n        /* \"#utility.yul\":10236:10411   */\n    tag_183:\n        /* \"#utility.yul\":10376:10403   */\n      0x4461696c7920636c61696d206c696d6974207265616368656400000000000000\n        /* \"#utility.yul\":10372:10373   */\n      0x00\n        /* \"#utility.yul\":10364:10370   */\n      dup3\n        /* \"#utility.yul\":10360:10374   */\n      add\n        /* \"#utility.yul\":10353:10404   */\n      mstore\n        /* \"#utility.yul\":10236:10411   */\n      pop\n      jump\t// out\n        /* \"#utility.yul\":10417:10783   */\n    tag_184:\n        /* \"#utility.yul\":10559:10562   */\n      0x00\n        /* \"#utility.yul\":10580:10647   */\n      tag_297\n        /* \"#utility.yul\":10644:10646   */\n      0x19\n        /* \"#utility.yul\":10639:10642   */\n      dup4\n        /* \"#utility.yul\":10580:10647   */\n      tag_168\n      jump\t// in\n    tag_297:\n        /* \"#utility.yul\":10573:10647   */\n      swap2\n      pop\n        /* \"#utility.yul\":10656:10749   */\n      tag_298\n        /* \"#utility.yul\":10745:10748   */\n      dup3\n        /* \"#utility.yul\":10656:10749   */\n      tag_183\n      jump\t// in\n    tag_298:\n        /* \"#utility.yul\":10774:10776   */\n      0x20\n        /* \"#utility.yul\":10769:10772   */\n      dup3\n        /* \"#utility.yul\":10765:10777   */\n      add\n        /* \"#utility.yul\":10758:10777   */\n      swap1\n      pop\n        /* \"#utility.yul\":10417:10783   */\n      swap2\n      swap1\n      pop\n      jump\t// out\n        /* \"#utility.yul\":10789:11208   */\n    tag_106:\n        /* \"#utility.yul\":10955:10959   */\n      0x00\n        /* \"#utility.yul\":10993:10995   */\n      0x20\n        /* \"#utility.yul\":10982:10991   */\n      dup3\n        /* \"#utility.yul\":10978:10996   */\n      add\n        /* \"#utility.yul\":10970:10996   */\n      swap1\n      pop\n        /* \"#utility.yul\":11042:11051   */\n      dup2\n        /* \"#utility.yul\":11036:11040   */\n      dup2\n        /* \"#utility.yul\":11032:11052   */\n      sub\n        /* \"#utility.yul\":11028:11029   */\n      0x00\n        /* \"#utility.yul\":11017:11026   */\n      dup4\n        /* \"#utility.yul\":11013:11030   */\n      add\n        /* \"#utility.yul\":11006:11053   */\n      mstore\n        /* \"#utility.yul\":11070:11201   */\n      tag_300\n        /* \"#utility.yul\":11196:11200   */\n      dup2\n        /* \"#utility.yul\":11070:11201   */\n      tag_184\n      jump\t// in\n    tag_300:\n        /* \"#utility.yul\":11062:11201   */\n      swap1\n      pop\n        /* \"#utility.yul\":10789:11208   */\n      swap2\n      swap1\n      pop\n      jump\t// out\n        /* \"#utility.yul\":11214:11357   */\n    tag_185:\n        /* \"#utility.yul\":11271:11276   */\n      0x00\n        /* \"#utility.yul\":11302:11308   */\n      dup2\n        /* \"#utility.yul\":11296:11309   */\n      mload\n        /* \"#utility.yul\":11287:11309   */\n      swap1\n      pop\n        /* \"#utility.yul\":11318:11351   */\n      tag_302\n        /* \"#utility.yul\":11345:11350   */\n      dup2\n        /* \"#utility.yul\":11318:11351   */\n      tag_160\n      jump\t// in\n    tag_302:\n        /* \"#utility.yul\":11214:11357   */\n      swap3\n      swap2\n      pop\n      pop\n      jump\t// out\n        /* \"#utility.yul\":11363:11714   */\n    tag_111:\n        /* \"#utility.yul\":11433:11439   */\n      0x00\n        /* \"#utility.yul\":11482:11484   */\n      0x20\n        /* \"#utility.yul\":11470:11479   */\n      dup3\n        /* \"#utility.yul\":11461:11468   */\n      dup5\n        /* \"#utility.yul\":11457:11480   */\n      sub\n        /* \"#utility.yul\":11453:11485   */\n      slt\n        /* \"#utility.yul\":11450:11569   */\n      iszero\n      tag_304\n      jumpi\n        /* \"#utility.yul\":11488:11567   */\n      tag_305\n      tag_154\n      jump\t// in\n    tag_305:\n        /* \"#utility.yul\":11450:11569   */\n    tag_304:\n        /* \"#utility.yul\":11608:11609   */\n      0x00\n        /* \"#utility.yul\":11633:11697   */\n      tag_306\n        /* \"#utility.yul\":11689:11696   */\n      dup5\n        /* \"#utility.yul\":11680:11686   */\n      dup3\n        /* \"#utility.yul\":11669:11678   */\n      dup6\n        /* \"#utility.yul\":11665:11687   */\n      add\n        /* \"#utility.yul\":11633:11697   */\n      tag_185\n      jump\t// in\n    tag_306:\n        /* \"#utility.yul\":11623:11697   */\n      swap2\n      pop\n        /* \"#utility.yul\":11579:11707   */\n      pop\n        /* \"#utility.yul\":11363:11714   */\n      swap3\n      swap2\n      pop\n      pop\n      jump\t// out\n        /* \"#utility.yul\":11720:11882   */\n    tag_186:\n        /* \"#utility.yul\":11860:11874   */\n      0x4e6f7420656c696769626c650000000000000000000000000000000000000000\n        /* \"#utility.yul\":11856:11857   */\n      0x00\n        /* \"#utility.yul\":11848:11854   */\n      dup3\n        /* \"#utility.yul\":11844:11858   */\n      add\n        /* \"#utility.yul\":11837:11875   */\n      mstore\n        /* \"#utility.yul\":11720:11882   */\n      pop\n      jump\t// out\n        /* \"#utility.yul\":11888:12254   */\n    tag_187:\n        /* \"#utility.yul\":12030:12033   */\n      0x00\n        /* \"#utility.yul\":12051:12118   */\n      tag_309\n        /* \"#utility.yul\":12115:12117   */\n      0x0c\n        /* \"#utility.yul\":12110:12113   */\n      dup4\n        /* \"#utility.yul\":12051:12118   */\n      tag_168\n      jump\t// in\n    tag_309:\n        /* \"#utility.yul\":12044:12118   */\n      swap2\n      pop\n        /* \"#utility.yul\":12127:12220   */\n      tag_310\n        /* \"#utility.yul\":12216:12219   */\n      dup3\n        /* \"#utility.yul\":12127:12220   */\n      tag_186\n      jump\t// in\n    tag_310:\n        /* \"#utility.yul\":12245:12247   */\n      0x20\n        /* \"#utility.yul\":12240:12243   */\n      dup3\n        /* \"#utility.yul\":12236:12248   */\n      add\n        /* \"#utility.yul\":12229:12248   */\n      swap1\n      pop\n        /* \"#utility.yul\":11888:12254   */\n      swap2\n      swap1\n      pop\n      jump\t// out\n        /* \"#utility.yul\":12260:12679   */\n    tag_114:\n        /* \"#utility.yul\":12426:12430   */\n      0x00\n        /* \"#utility.yul\":12464:12466   */\n      0x20\n        /* \"#utility.yul\":12453:12462   */\n      dup3\n        /* \"#utility.yul\":12449:12467   */\n      add\n        /* \"#utility.yul\":12441:12467   */\n      swap1\n      pop\n        /* \"#utility.yul\":12513:12522   */\n      dup2\n        /* \"#utility.yul\":12507:12511   */\n      dup2\n        /* \"#utility.yul\":12503:12523   */\n      sub\n        /* \"#utility.yul\":12499:12500   */\n      0x00\n        /* \"#utility.yul\":12488:12497   */\n      dup4\n        /* \"#utility.yul\":12484:12501   */\n      add\n        /* \"#utility.yul\":12477:12524   */\n      mstore\n        /* \"#utility.yul\":12541:12672   */\n      tag_312\n        /* \"#utility.yul\":12667:12671   */\n      dup2\n        /* \"#utility.yul\":12541:12672   */\n      tag_187\n      jump\t// in\n    tag_312:\n        /* \"#utility.yul\":12533:12672   */\n      swap1\n      pop\n        /* \"#utility.yul\":12260:12679   */\n      swap2\n      swap1\n      pop\n      jump\t// out\n        /* \"#utility.yul\":12685:12860   */\n    tag_188:\n        /* \"#utility.yul\":12825:12852   */\n      0x496e73756666696369656e742066756e647320696e206a617200000000000000\n        /* \"#utility.yul\":12821:12822   */\n      0x00\n        /* \"#utility.yul\":12813:12819   */\n      dup3\n        /* \"#utility.yul\":12809:12823   */\n      add\n        /* \"#utility.yul\":12802:12853   */\n      mstore\n        /* \"#utility.yul\":12685:12860   */\n      pop\n      jump\t// out\n        /* \"#utility.yul\":12866:13232   */\n    tag_189:\n        /* \"#utility.yul\":13008:13011   */\n      0x00\n        /* \"#utility.yul\":13029:13096   */\n      tag_315\n        /* \"#utility.yul\":13093:13095   */\n      0x19\n        /* \"#utility.yul\":13088:13091   */\n      dup4\n        /* \"#utility.yul\":13029:13096   */\n      tag_168\n      jump\t// in\n    tag_315:\n        /* \"#utility.yul\":13022:13096   */\n      swap2\n      pop\n        /* \"#utility.yul\":13105:13198   */\n      tag_316\n        /* \"#utility.yul\":13194:13197   */\n      dup3\n        /* \"#utility.yul\":13105:13198   */\n      tag_188\n      jump\t// in\n    tag_316:\n        /* \"#utility.yul\":13223:13225   */\n      0x20\n        /* \"#utility.yul\":13218:13221   */\n      dup3\n        /* \"#utility.yul\":13214:13226   */\n      add\n        /* \"#utility.yul\":13207:13226   */\n      swap1\n      pop\n        /* \"#utility.yul\":12866:13232   */\n      swap2\n      swap1\n      pop\n      jump\t// out\n        /* \"#utility.yul\":13238:13657   */\n    tag_117:\n        /* \"#utility.yul\":13404:13408   */\n      0x00\n        /* \"#utility.yul\":13442:13444   */\n      0x20\n        /* \"#utility.yul\":13431:13440   */\n      dup3\n        /* \"#utility.yul\":13427:13445   */\n      add\n        /* \"#utility.yul\":13419:13445   */\n      swap1\n      pop\n        /* \"#utility.yul\":13491:13500   */\n      dup2\n        /* \"#utility.yul\":13485:13489   */\n      dup2\n        /* \"#utility.yul\":13481:13501   */\n      sub\n        /* \"#utility.yul\":13477:13478   */\n      0x00\n        /* \"#utility.yul\":13466:13475   */\n      dup4\n        /* \"#utility.yul\":13462:13479   */\n      add\n        /* \"#utility.yul\":13455:13502   */\n      mstore\n        /* \"#utility.yul\":13519:13650   */\n      tag_318\n        /* \"#utility.yul\":13645:13649   */\n      dup2\n        /* \"#utility.yul\":13519:13650   */\n      tag_189\n      jump\t// in\n    tag_318:\n        /* \"#utility.yul\":13511:13650   */\n      swap1\n      pop\n        /* \"#utility.yul\":13238:13657   */\n      swap2\n      swap1\n      pop\n      jump\t// out\n        /* \"#utility.yul\":13663:13833   */\n    tag_190:\n        /* \"#utility.yul\":13803:13825   */\n      0x496e636f72726563742045544820616d6f756e74000000000000000000000000\n        /* \"#utility.yul\":13799:13800   */\n      0x00\n        /* \"#utility.yul\":13791:13797   */\n      dup3\n        /* \"#utility.yul\":13787:13801   */\n      add\n        /* \"#utility.yul\":13780:13826   */\n      mstore\n        /* \"#utility.yul\":13663:13833   */\n      pop\n      jump\t// out\n        /* \"#utility.yul\":13839:14205   */\n    tag_191:\n        /* \"#utility.yul\":13981:13984   */\n      0x00\n        /* \"#utility.yul\":14002:14069   */\n      tag_321\n        /* \"#utility.yul\":14066:14068   */\n      0x14\n        /* \"#utility.yul\":14061:14064   */\n      dup4\n        /* \"#utility.yul\":14002:14069   */\n      tag_168\n      jump\t// in\n    tag_321:\n        /* \"#utility.yul\":13995:14069   */\n      swap2\n      pop\n        /* \"#utility.yul\":14078:14171   */\n      tag_322\n        /* \"#utility.yul\":14167:14170   */\n      dup3\n        /* \"#utility.yul\":14078:14171   */\n      tag_190\n      jump\t// in\n    tag_322:\n        /* \"#utility.yul\":14196:14198   */\n      0x20\n        /* \"#utility.yul\":14191:14194   */\n      dup3\n        /* \"#utility.yul\":14187:14199   */\n      add\n        /* \"#utility.yul\":14180:14199   */\n      swap1\n      pop\n        /* \"#utility.yul\":13839:14205   */\n      swap2\n      swap1\n      pop\n      jump\t// out\n        /* \"#utility.yul\":14211:14630   */\n    tag_136:\n        /* \"#utility.yul\":14377:14381   */\n      0x00\n        /* \"#utility.yul\":14415:14417   */\n      0x20\n        /* \"#utility.yul\":14404:14413   */\n      dup3\n        /* \"#utility.yul\":14400:14418   */\n      add\n        /* \"#utility.yul\":14392:14418   */\n      swap1\n      pop\n        /* \"#utility.yul\":14464:14473   */\n      dup2\n        /* \"#utility.yul\":14458:14462   */\n      dup2\n        /* \"#utility.yul\":14454:14474   */\n      sub\n        /* \"#utility.yul\":14450:14451   */\n      0x00\n        /* \"#utility.yul\":14439:14448   */\n      dup4\n        /* \"#utility.yul\":14435:14452   */\n      add\n        /* \"#utility.yul\":14428:14475   */\n      mstore\n        /* \"#utility.yul\":14492:14623   */\n      tag_324\n        /* \"#utility.yul\":14618:14622   */\n      dup2\n        /* \"#utility.yul\":14492:14623   */\n      tag_191\n      jump\t// in\n    tag_324:\n        /* \"#utility.yul\":14484:14623   */\n      swap1\n      pop\n        /* \"#utility.yul\":14211:14630   */\n      swap2\n      swap1\n      pop\n      jump\t// out\n        /* \"#utility.yul\":14636:15078   */\n    tag_139:\n        /* \"#utility.yul\":14785:14789   */\n      0x00\n        /* \"#utility.yul\":14823:14825   */\n      0x60\n        /* \"#utility.yul\":14812:14821   */\n      dup3\n        /* \"#utility.yul\":14808:14826   */\n      add\n        /* \"#utility.yul\":14800:14826   */\n      swap1\n      pop\n        /* \"#utility.yul\":14836:14907   */\n      tag_326\n        /* \"#utility.yul\":14904:14905   */\n      0x00\n        /* \"#utility.yul\":14893:14902   */\n      dup4\n        /* \"#utility.yul\":14889:14906   */\n      add\n        /* \"#utility.yul\":14880:14886   */\n      dup7\n        /* \"#utility.yul\":14836:14907   */\n      tag_167\n      jump\t// in\n    tag_326:\n        /* \"#utility.yul\":14917:14989   */\n      tag_327\n        /* \"#utility.yul\":14985:14987   */\n      0x20\n        /* \"#utility.yul\":14974:14983   */\n      dup4\n        /* \"#utility.yul\":14970:14988   */\n      add\n        /* \"#utility.yul\":14961:14967   */\n      dup6\n        /* \"#utility.yul\":14917:14989   */\n      tag_167\n      jump\t// in\n    tag_327:\n        /* \"#utility.yul\":14999:15071   */\n      tag_328\n        /* \"#utility.yul\":15067:15069   */\n      0x40\n        /* \"#utility.yul\":15056:15065   */\n      dup4\n        /* \"#utility.yul\":15052:15070   */\n      add\n        /* \"#utility.yul\":15043:15049   */\n      dup5\n        /* \"#utility.yul\":14999:15071   */\n      tag_152\n      jump\t// in\n    tag_328:\n        /* \"#utility.yul\":14636:15078   */\n      swap5\n      swap4\n      pop\n      pop\n      pop\n      pop\n      jump\t// out\n\n    auxdata: 0xa26469706673582212204cbdfc0c71a3eec5a105c969f46edd35bc737986e5bb01f2a6ee7f6a04e52ddf64736f6c634300081a0033\n}\n",
				"bytecode": {
					"linkReferences": {},
					"object": "608060405234801561000f575f80fd5b506040516116a03803806116a083398181016040528101906100319190610190565b335f806101000a81548173ffffffffffffffffffffffffffffffffffffffff021916908373ffffffffffffffffffffffffffffffffffffffff1602179055508260015f6101000a81548173ffffffffffffffffffffffffffffffffffffffff021916908373ffffffffffffffffffffffffffffffffffffffff1602179055508160025f6101000a81548173ffffffffffffffffffffffffffffffffffffffff021916908373ffffffffffffffffffffffffffffffffffffffff160217905550806003819055505050506101e0565b5f80fd5b5f73ffffffffffffffffffffffffffffffffffffffff82169050919050565b5f61012c82610103565b9050919050565b61013c81610122565b8114610146575f80fd5b50565b5f8151905061015781610133565b92915050565b5f819050919050565b61016f8161015d565b8114610179575f80fd5b50565b5f8151905061018a81610166565b92915050565b5f805f606084860312156101a7576101a66100ff565b5b5f6101b486828701610149565b93505060206101c586828701610149565b92505060406101d68682870161017c565b9150509250925092565b6114b3806101ed5f395ff3fe60806040526004361061009f575f3560e01c806385c758f71161006357806385c758f7146101ee5780638da5cb5b14610218578063ad7a672f14610242578063b6b55f251461026c578063f8175d7814610288578063fc0c546a146102b05761010c565b8063013eba921461011057806303191ffc1461014c5780632e1a7d4d14610174578063379607f51461019c57806367eeba0c146101c45761010c565b3661010c573460045f8282546100b59190610de9565b925050819055503373ffffffffffffffffffffffffffffffffffffffff167fe1fffcc4923d04b559f4d29a8bfc6cda04eb5b0d3c460751c2402c5c5cc9109c346040516101029190610e2b565b60405180910390a2005b5f80fd5b34801561011b575f80fd5b5061013660048036038101906101319190610ea2565b6102da565b6040516101439190610e2b565b60405180910390f35b348015610157575f80fd5b50610172600480360381019061016d9190610ea2565b6102ef565b005b34801561017f575f80fd5b5061019a60048036038101906101959190610ef7565b6103bf565b005b3480156101a7575f80fd5b506101c260048036038101906101bd9190610ef7565b61068b565b005b3480156101cf575f80fd5b506101d8610ac8565b6040516101e59190610e2b565b60405180910390f35b3480156101f9575f80fd5b50610202610ace565b60405161020f9190610f7d565b60405180910390f35b348015610223575f80fd5b5061022c610af3565b6040516102399190610fa5565b60405180910390f35b34801561024d575f80fd5b50610256610b16565b6040516102639190610e2b565b60405180910390f35b61028660048036038101906102819190610ef7565b610b1c565b005b348015610293575f80fd5b506102ae60048036038101906102a99190610ef7565b610cc0565b005b3480156102bb575f80fd5b506102c4610d8e565b6040516102d19190610fa5565b60405180910390f35b6005602052805f5260405f205f915090505481565b5f8054906101000a900473ffffffffffffffffffffffffffffffffffffffff1673ffffffffffffffffffffffffffffffffffffffff163373ffffffffffffffffffffffffffffffffffffffff161461037c576040517f08c379a000000000000000000000000000000000000000000000000000000000815260040161037390611018565b60405180910390fd5b8060025f6101000a81548173ffffffffffffffffffffffffffffffffffffffff021916908373ffffffffffffffffffffffffffffffffffffffff16021790555050565b5f8054906101000a900473ffffffffffffffffffffffffffffffffffffffff1673ffffffffffffffffffffffffffffffffffffffff163373ffffffffffffffffffffffffffffffffffffffff161461044c576040517f08c379a000000000000000000000000000000000000000000000000000000000815260040161044390611018565b60405180910390fd5b600454811115610491576040517f08c379a000000000000000000000000000000000000000000000000000000000815260040161048890611080565b60405180910390fd5b8060045f8282546104a2919061109e565b925050819055505f73ffffffffffffffffffffffffffffffffffffffff1660015f9054906101000a900473ffffffffffffffffffffffffffffffffffffffff1673ffffffffffffffffffffffffffffffffffffffff16036105cb575f805f9054906101000a900473ffffffffffffffffffffffffffffffffffffffff1673ffffffffffffffffffffffffffffffffffffffff1682604051610542906110fe565b5f6040518083038185875af1925050503d805f811461057c576040519150601f19603f3d011682016040523d82523d5f602084013e610581565b606091505b50509050806105c5576040517f08c379a00000000000000000000000000000000000000000000000000000000081526004016105bc9061115c565b60405180910390fd5b50610688565b60015f9054906101000a900473ffffffffffffffffffffffffffffffffffffffff1673ffffffffffffffffffffffffffffffffffffffff1663a9059cbb5f8054906101000a900473ffffffffffffffffffffffffffffffffffffffff16836040518363ffffffff1660e01b815260040161064692919061117a565b6020604051808303815f875af1158015610662573d5f803e3d5ffd5b505050506040513d601f19601f8201168201806040525081019061068691906111d6565b505b50565b6003548111156106d0576040517f08c379a00000000000000000000000000000000000000000000000000000000081526004016106c79061124b565b60405180910390fd5b6201518060055f3373ffffffffffffffffffffffffffffffffffffffff1673ffffffffffffffffffffffffffffffffffffffff1681526020019081526020015f20544261071d919061109e565b101561075e576040517f08c379a0000000000000000000000000000000000000000000000000000000008152600401610755906112b3565b60405180910390fd5b5f60025f9054906101000a900473ffffffffffffffffffffffffffffffffffffffff1673ffffffffffffffffffffffffffffffffffffffff1663776f3843336040518263ffffffff1660e01b81526004016107b99190610fa5565b602060405180830381865afa1580156107d4573d5f803e3d5ffd5b505050506040513d601f19601f820116820180604052508101906107f891906112e5565b11610838576040517f08c379a000000000000000000000000000000000000000000000000000000000815260040161082f9061135a565b60405180910390fd5b60045481111561087d576040517f08c379a0000000000000000000000000000000000000000000000000000000008152600401610874906113c2565b60405180910390fd5b4260055f3373ffffffffffffffffffffffffffffffffffffffff1673ffffffffffffffffffffffffffffffffffffffff1681526020019081526020015f20819055508060045f8282546108d0919061109e565b925050819055505f73ffffffffffffffffffffffffffffffffffffffff1660015f9054906101000a900473ffffffffffffffffffffffffffffffffffffffff1673ffffffffffffffffffffffffffffffffffffffff16036109d9575f3373ffffffffffffffffffffffffffffffffffffffff1682604051610950906110fe565b5f6040518083038185875af1925050503d805f811461098a576040519150601f19603f3d011682016040523d82523d5f602084013e61098f565b606091505b50509050806109d3576040517f08c379a00000000000000000000000000000000000000000000000000000000081526004016109ca9061115c565b60405180910390fd5b50610a77565b60015f9054906101000a900473ffffffffffffffffffffffffffffffffffffffff1673ffffffffffffffffffffffffffffffffffffffff1663a9059cbb33836040518363ffffffff1660e01b8152600401610a3592919061117a565b6020604051808303815f875af1158015610a51573d5f803e3d5ffd5b505050506040513d601f19601f82011682018060405250810190610a7591906111d6565b505b3373ffffffffffffffffffffffffffffffffffffffff167fd8138f8a3f377c5259ca548e70e4c2de94f129f5a11036a15b69513cba2b426a82604051610abd9190610e2b565b60405180910390a250565b60035481565b60025f9054906101000a900473ffffffffffffffffffffffffffffffffffffffff1681565b5f8054906101000a900473ffffffffffffffffffffffffffffffffffffffff1681565b60045481565b5f73ffffffffffffffffffffffffffffffffffffffff1660015f9054906101000a900473ffffffffffffffffffffffffffffffffffffffff1673ffffffffffffffffffffffffffffffffffffffff1603610bb757803414610bb2576040517f08c379a0000000000000000000000000000000000000000000000000000000008152600401610ba99061142a565b60405180910390fd5b610c57565b60015f9054906101000a900473ffffffffffffffffffffffffffffffffffffffff1673ffffffffffffffffffffffffffffffffffffffff166323b872dd3330846040518463ffffffff1660e01b8152600401610c1593929190611448565b6020604051808303815f875af1158015610c31573d5f803e3d5ffd5b505050506040513d601f19601f82011682018060405250810190610c5591906111d6565b505b8060045f828254610c689190610de9565b925050819055503373ffffffffffffffffffffffffffffffffffffffff167fe1fffcc4923d04b559f4d29a8bfc6cda04eb5b0d3c460751c2402c5c5cc9109c82604051610cb59190610e2b565b60405180910390a250565b5f8054906101000a900473ffffffffffffffffffffffffffffffffffffffff1673ffffffffffffffffffffffffffffffffffffffff163373ffffffffffffffffffffffffffffffffffffffff1614610d4d576040517f08c379a0000000000000000000000000000000000000000000000000000000008152600401610d4490611018565b60405180910390fd5b806003819055507f69e4f4585a710debc30f07c33dcded264dd61e9dd02a9dfad6584a9189f185e481604051610d839190610e2b565b60405180910390a150565b60015f9054906101000a900473ffffffffffffffffffffffffffffffffffffffff1681565b5f819050919050565b7f4e487b71000000000000000000000000000000000000000000000000000000005f52601160045260245ffd5b5f610df382610db3565b9150610dfe83610db3565b9250828201905080821115610e1657610e15610dbc565b5b92915050565b610e2581610db3565b82525050565b5f602082019050610e3e5f830184610e1c565b92915050565b5f80fd5b5f73ffffffffffffffffffffffffffffffffffffffff82169050919050565b5f610e7182610e48565b9050919050565b610e8181610e67565b8114610e8b575f80fd5b50565b5f81359050610e9c81610e78565b92915050565b5f60208284031215610eb757610eb6610e44565b5b5f610ec484828501610e8e565b91505092915050565b610ed681610db3565b8114610ee0575f80fd5b50565b5f81359050610ef181610ecd565b92915050565b5f60208284031215610f0c57610f0b610e44565b5b5f610f1984828501610ee3565b91505092915050565b5f819050919050565b5f610f45610f40610f3b84610e48565b610f22565b610e48565b9050919050565b5f610f5682610f2b565b9050919050565b5f610f6782610f4c565b9050919050565b610f7781610f5d565b82525050565b5f602082019050610f905f830184610f6e565b92915050565b610f9f81610e67565b82525050565b5f602082019050610fb85f830184610f96565b92915050565b5f82825260208201905092915050565b7f4e6f7420617574686f72697a65640000000000000000000000000000000000005f82015250565b5f611002600e83610fbe565b915061100d82610fce565b602082019050919050565b5f6020820190508181035f83015261102f81610ff6565b9050919050565b7f496e73756666696369656e742066756e647300000000000000000000000000005f82015250565b5f61106a601283610fbe565b915061107582611036565b602082019050919050565b5f6020820190508181035f8301526110978161105e565b9050919050565b5f6110a882610db3565b91506110b383610db3565b92508282039050818111156110cb576110ca610dbc565b5b92915050565b5f81905092915050565b50565b5f6110e95f836110d1565b91506110f4826110db565b5f82019050919050565b5f611108826110de565b9150819050919050565b7f455448207472616e73666572206661696c6564000000000000000000000000005f82015250565b5f611146601383610fbe565b915061115182611112565b602082019050919050565b5f6020820190508181035f8301526111738161113a565b9050919050565b5f60408201905061118d5f830185610f96565b61119a6020830184610e1c565b9392505050565b5f8115159050919050565b6111b5816111a1565b81146111bf575f80fd5b50565b5f815190506111d0816111ac565b92915050565b5f602082840312156111eb576111ea610e44565b5b5f6111f8848285016111c2565b91505092915050565b7f45786365656473206461696c79206c696d6974000000000000000000000000005f82015250565b5f611235601383610fbe565b915061124082611201565b602082019050919050565b5f6020820190508181035f83015261126281611229565b9050919050565b7f4461696c7920636c61696d206c696d69742072656163686564000000000000005f82015250565b5f61129d601983610fbe565b91506112a882611269565b602082019050919050565b5f6020820190508181035f8301526112ca81611291565b9050919050565b5f815190506112df81610ecd565b92915050565b5f602082840312156112fa576112f9610e44565b5b5f611307848285016112d1565b91505092915050565b7f4e6f7420656c696769626c6500000000000000000000000000000000000000005f82015250565b5f611344600c83610fbe565b915061134f82611310565b602082019050919050565b5f6020820190508181035f83015261137181611338565b9050919050565b7f496e73756666696369656e742066756e647320696e206a6172000000000000005f82015250565b5f6113ac601983610fbe565b91506113b782611378565b602082019050919050565b5f6020820190508181035f8301526113d9816113a0565b9050919050565b7f496e636f72726563742045544820616d6f756e740000000000000000000000005f82015250565b5f611414601483610fbe565b915061141f826113e0565b602082019050919050565b5f6020820190508181035f83015261144181611408565b9050919050565b5f60608201905061145b5f830186610f96565b6114686020830185610f96565b6114756040830184610e1c565b94935050505056fea26469706673582212204cbdfc0c71a3eec5a105c969f46edd35bc737986e5bb01f2a6ee7f6a04e52ddf64736f6c634300081a0033",
					"opcodes": "PUSH1 0x80 PUSH1 0x40 MSTORE CALLVALUE DUP1 ISZERO PUSH2 0xF JUMPI PUSH0 DUP1 REVERT JUMPDEST POP PUSH1 0x40 MLOAD PUSH2 0x16A0 CODESIZE SUB DUP1 PUSH2 0x16A0 DUP4 CODECOPY DUP2 DUP2 ADD PUSH1 0x40 MSTORE DUP2 ADD SWAP1 PUSH2 0x31 SWAP2 SWAP1 PUSH2 0x190 JUMP JUMPDEST CALLER PUSH0 DUP1 PUSH2 0x100 EXP DUP2 SLOAD DUP2 PUSH20 0xFFFFFFFFFFFFFFFFFFFFFFFFFFFFFFFFFFFFFFFF MUL NOT AND SWAP1 DUP4 PUSH20 0xFFFFFFFFFFFFFFFFFFFFFFFFFFFFFFFFFFFFFFFF AND MUL OR SWAP1 SSTORE POP DUP3 PUSH1 0x1 PUSH0 PUSH2 0x100 EXP DUP2 SLOAD DUP2 PUSH20 0xFFFFFFFFFFFFFFFFFFFFFFFFFFFFFFFFFFFFFFFF MUL NOT AND SWAP1 DUP4 PUSH20 0xFFFFFFFFFFFFFFFFFFFFFFFFFFFFFFFFFFFFFFFF AND MUL OR SWAP1 SSTORE POP DUP2 PUSH1 0x2 PUSH0 PUSH2 0x100 EXP DUP2 SLOAD DUP2 PUSH20 0xFFFFFFFFFFFFFFFFFFFFFFFFFFFFFFFFFFFFFFFF MUL NOT AND SWAP1 DUP4 PUSH20 0xFFFFFFFFFFFFFFFFFFFFFFFFFFFFFFFFFFFFFFFF AND MUL OR SWAP1 SSTORE POP DUP1 PUSH1 0x3 DUP2 SWAP1 SSTORE POP POP POP POP PUSH2 0x1E0 JUMP JUMPDEST PUSH0 DUP1 REVERT JUMPDEST PUSH0 PUSH20 0xFFFFFFFFFFFFFFFFFFFFFFFFFFFFFFFFFFFFFFFF DUP3 AND SWAP1 POP SWAP2 SWAP1 POP JUMP JUMPDEST PUSH0 PUSH2 0x12C DUP3 PUSH2 0x103 JUMP JUMPDEST SWAP1 POP SWAP2 SWAP1 POP JUMP JUMPDEST PUSH2 0x13C DUP2 PUSH2 0x122 JUMP JUMPDEST DUP2 EQ PUSH2 0x146 JUMPI PUSH0 DUP1 REVERT JUMPDEST POP JUMP JUMPDEST PUSH0 DUP2 MLOAD SWAP1 POP PUSH2 0x157 DUP2 PUSH2 0x133 JUMP JUMPDEST SWAP3 SWAP2 POP POP JUMP JUMPDEST PUSH0 DUP2 SWAP1 POP SWAP2 SWAP1 POP JUMP JUMPDEST PUSH2 0x16F DUP2 PUSH2 0x15D JUMP JUMPDEST DUP2 EQ PUSH2 0x179 JUMPI PUSH0 DUP1 REVERT JUMPDEST POP JUMP JUMPDEST PUSH0 DUP2 MLOAD SWAP1 POP PUSH2 0x18A DUP2 PUSH2 0x166 JUMP JUMPDEST SWAP3 SWAP2 POP POP JUMP JUMPDEST PUSH0 DUP1 PUSH0 PUSH1 0x60 DUP5 DUP7 SUB SLT ISZERO PUSH2 0x1A7 JUMPI PUSH2 0x1A6 PUSH2 0xFF JUMP JUMPDEST JUMPDEST PUSH0 PUSH2 0x1B4 DUP7 DUP3 DUP8 ADD PUSH2 0x149 JUMP JUMPDEST SWAP4 POP POP PUSH1 0x20 PUSH2 0x1C5 DUP7 DUP3 DUP8 ADD PUSH2 0x149 JUMP JUMPDEST SWAP3 POP POP PUSH1 0x40 PUSH2 0x1D6 DUP7 DUP3 DUP8 ADD PUSH2 0x17C JUMP JUMPDEST SWAP2 POP POP SWAP3 POP SWAP3 POP SWAP3 JUMP JUMPDEST PUSH2 0x14B3 DUP1 PUSH2 0x1ED PUSH0 CODECOPY PUSH0 RETURN INVALID PUSH1 0x80 PUSH1 0x40 MSTORE PUSH1 0x4 CALLDATASIZE LT PUSH2 0x9F JUMPI PUSH0 CALLDATALOAD PUSH1 0xE0 SHR DUP1 PUSH4 0x85C758F7 GT PUSH2 0x63 JUMPI DUP1 PUSH4 0x85C758F7 EQ PUSH2 0x1EE JUMPI DUP1 PUSH4 0x8DA5CB5B EQ PUSH2 0x218 JUMPI DUP1 PUSH4 0xAD7A672F EQ PUSH2 0x242 JUMPI DUP1 PUSH4 0xB6B55F25 EQ PUSH2 0x26C JUMPI DUP1 PUSH4 0xF8175D78 EQ PUSH2 0x288 JUMPI DUP1 PUSH4 0xFC0C546A EQ PUSH2 0x2B0 JUMPI PUSH2 0x10C JUMP JUMPDEST DUP1 PUSH4 0x13EBA92 EQ PUSH2 0x110 JUMPI DUP1 PUSH4 0x3191FFC EQ PUSH2 0x14C JUMPI DUP1 PUSH4 0x2E1A7D4D EQ PUSH2 0x174 JUMPI DUP1 PUSH4 0x379607F5 EQ PUSH2 0x19C JUMPI DUP1 PUSH4 0x67EEBA0C EQ PUSH2 0x1C4 JUMPI PUSH2 0x10C JUMP JUMPDEST CALLDATASIZE PUSH2 0x10C JUMPI CALLVALUE PUSH1 0x4 PUSH0 DUP3 DUP3 SLOAD PUSH2 0xB5 SWAP2 SWAP1 PUSH2 0xDE9 JUMP JUMPDEST SWAP3 POP POP DUP2 SWAP1 SSTORE POP CALLER PUSH20 0xFFFFFFFFFFFFFFFFFFFFFFFFFFFFFFFFFFFFFFFF AND PUSH32 0xE1FFFCC4923D04B559F4D29A8BFC6CDA04EB5B0D3C460751C2402C5C5CC9109C CALLVALUE PUSH1 0x40 MLOAD PUSH2 0x102 SWAP2 SWAP1 PUSH2 0xE2B JUMP JUMPDEST PUSH1 0x40 MLOAD DUP1 SWAP2 SUB SWAP1 LOG2 STOP JUMPDEST PUSH0 DUP1 REVERT JUMPDEST CALLVALUE DUP1 ISZERO PUSH2 0x11B JUMPI PUSH0 DUP1 REVERT JUMPDEST POP PUSH2 0x136 PUSH1 0x4 DUP1 CALLDATASIZE SUB DUP2 ADD SWAP1 PUSH2 0x131 SWAP2 SWAP1 PUSH2 0xEA2 JUMP JUMPDEST PUSH2 0x2DA JUMP JUMPDEST PUSH1 0x40 MLOAD PUSH2 0x143 SWAP2 SWAP1 PUSH2 0xE2B JUMP JUMPDEST PUSH1 0x40 MLOAD DUP1 SWAP2 SUB SWAP1 RETURN JUMPDEST CALLVALUE DUP1 ISZERO PUSH2 0x157 JUMPI PUSH0 DUP1 REVERT JUMPDEST POP PUSH2 0x172 PUSH1 0x4 DUP1 CALLDATASIZE SUB DUP2 ADD SWAP1 PUSH2 0x16D SWAP2 SWAP1 PUSH2 0xEA2 JUMP JUMPDEST PUSH2 0x2EF JUMP JUMPDEST STOP JUMPDEST CALLVALUE DUP1 ISZERO PUSH2 0x17F JUMPI PUSH0 DUP1 REVERT JUMPDEST POP PUSH2 0x19A PUSH1 0x4 DUP1 CALLDATASIZE SUB DUP2 ADD SWAP1 PUSH2 0x195 SWAP2 SWAP1 PUSH2 0xEF7 JUMP JUMPDEST PUSH2 0x3BF JUMP JUMPDEST STOP JUMPDEST CALLVALUE DUP1 ISZERO PUSH2 0x1A7 JUMPI PUSH0 DUP1 REVERT JUMPDEST POP PUSH2 0x1C2 PUSH1 0x4 DUP1 CALLDATASIZE SUB DUP2 ADD SWAP1 PUSH2 0x1BD SWAP2 SWAP1 PUSH2 0xEF7 JUMP JUMPDEST PUSH2 0x68B JUMP JUMPDEST STOP JUMPDEST CALLVALUE DUP1 ISZERO PUSH2 0x1CF JUMPI PUSH0 DUP1 REVERT JUMPDEST POP PUSH2 0x1D8 PUSH2 0xAC8 JUMP JUMPDEST PUSH1 0x40 MLOAD PUSH2 0x1E5 SWAP2 SWAP1 PUSH2 0xE2B JUMP JUMPDEST PUSH1 0x40 MLOAD DUP1 SWAP2 SUB SWAP1 RETURN JUMPDEST CALLVALUE DUP1 ISZERO PUSH2 0x1F9 JUMPI PUSH0 DUP1 REVERT JUMPDEST POP PUSH2 0x202 PUSH2 0xACE JUMP JUMPDEST PUSH1 0x40 MLOAD PUSH2 0x20F SWAP2 SWAP1 PUSH2 0xF7D JUMP JUMPDEST PUSH1 0x40 MLOAD DUP1 SWAP2 SUB SWAP1 RETURN JUMPDEST CALLVALUE DUP1 ISZERO PUSH2 0x223 JUMPI PUSH0 DUP1 REVERT JUMPDEST POP PUSH2 0x22C PUSH2 0xAF3 JUMP JUMPDEST PUSH1 0x40 MLOAD PUSH2 0x239 SWAP2 SWAP1 PUSH2 0xFA5 JUMP JUMPDEST PUSH1 0x40 MLOAD DUP1 SWAP2 SUB SWAP1 RETURN JUMPDEST CALLVALUE DUP1 ISZERO PUSH2 0x24D JUMPI PUSH0 DUP1 REVERT JUMPDEST POP PUSH2 0x256 PUSH2 0xB16 JUMP JUMPDEST PUSH1 0x40 MLOAD PUSH2 0x263 SWAP2 SWAP1 PUSH2 0xE2B JUMP JUMPDEST PUSH1 0x40 MLOAD DUP1 SWAP2 SUB SWAP1 RETURN JUMPDEST PUSH2 0x286 PUSH1 0x4 DUP1 CALLDATASIZE SUB DUP2 ADD SWAP1 PUSH2 0x281 SWAP2 SWAP1 PUSH2 0xEF7 JUMP JUMPDEST PUSH2 0xB1C JUMP JUMPDEST STOP JUMPDEST CALLVALUE DUP1 ISZERO PUSH2 0x293 JUMPI PUSH0 DUP1 REVERT JUMPDEST POP PUSH2 0x2AE PUSH1 0x4 DUP1 CALLDATASIZE SUB DUP2 ADD SWAP1 PUSH2 0x2A9 SWAP2 SWAP1 PUSH2 0xEF7 JUMP JUMPDEST PUSH2 0xCC0 JUMP JUMPDEST STOP JUMPDEST CALLVALUE DUP1 ISZERO PUSH2 0x2BB JUMPI PUSH0 DUP1 REVERT JUMPDEST POP PUSH2 0x2C4 PUSH2 0xD8E JUMP JUMPDEST PUSH1 0x40 MLOAD PUSH2 0x2D1 SWAP2 SWAP1 PUSH2 0xFA5 JUMP JUMPDEST PUSH1 0x40 MLOAD DUP1 SWAP2 SUB SWAP1 RETURN JUMPDEST PUSH1 0x5 PUSH1 0x20 MSTORE DUP1 PUSH0 MSTORE PUSH1 0x40 PUSH0 KECCAK256 PUSH0 SWAP2 POP SWAP1 POP SLOAD DUP2 JUMP JUMPDEST PUSH0 DUP1 SLOAD SWAP1 PUSH2 0x100 EXP SWAP1 DIV PUSH20 0xFFFFFFFFFFFFFFFFFFFFFFFFFFFFFFFFFFFFFFFF AND PUSH20 0xFFFFFFFFFFFFFFFFFFFFFFFFFFFFFFFFFFFFFFFF AND CALLER PUSH20 0xFFFFFFFFFFFFFFFFFFFFFFFFFFFFFFFFFFFFFFFF AND EQ PUSH2 0x37C JUMPI PUSH1 0x40 MLOAD PUSH32 0x8C379A000000000000000000000000000000000000000000000000000000000 DUP2 MSTORE PUSH1 0x4 ADD PUSH2 0x373 SWAP1 PUSH2 0x1018 JUMP JUMPDEST PUSH1 0x40 MLOAD DUP1 SWAP2 SUB SWAP1 REVERT JUMPDEST DUP1 PUSH1 0x2 PUSH0 PUSH2 0x100 EXP DUP2 SLOAD DUP2 PUSH20 0xFFFFFFFFFFFFFFFFFFFFFFFFFFFFFFFFFFFFFFFF MUL NOT AND SWAP1 DUP4 PUSH20 0xFFFFFFFFFFFFFFFFFFFFFFFFFFFFFFFFFFFFFFFF AND MUL OR SWAP1 SSTORE POP POP JUMP JUMPDEST PUSH0 DUP1 SLOAD SWAP1 PUSH2 0x100 EXP SWAP1 DIV PUSH20 0xFFFFFFFFFFFFFFFFFFFFFFFFFFFFFFFFFFFFFFFF AND PUSH20 0xFFFFFFFFFFFFFFFFFFFFFFFFFFFFFFFFFFFFFFFF AND CALLER PUSH20 0xFFFFFFFFFFFFFFFFFFFFFFFFFFFFFFFFFFFFFFFF AND EQ PUSH2 0x44C JUMPI PUSH1 0x40 MLOAD PUSH32 0x8C379A000000000000000000000000000000000000000000000000000000000 DUP2 MSTORE PUSH1 0x4 ADD PUSH2 0x443 SWAP1 PUSH2 0x1018 JUMP JUMPDEST PUSH1 0x40 MLOAD DUP1 SWAP2 SUB SWAP1 REVERT JUMPDEST PUSH1 0x4 SLOAD DUP2 GT ISZERO PUSH2 0x491 JUMPI PUSH1 0x40 MLOAD PUSH32 0x8C379A000000000000000000000000000000000000000000000000000000000 DUP2 MSTORE PUSH1 0x4 ADD PUSH2 0x488 SWAP1 PUSH2 0x1080 JUMP JUMPDEST PUSH1 0x40 MLOAD DUP1 SWAP2 SUB SWAP1 REVERT JUMPDEST DUP1 PUSH1 0x4 PUSH0 DUP3 DUP3 SLOAD PUSH2 0x4A2 SWAP2 SWAP1 PUSH2 0x109E JUMP JUMPDEST SWAP3 POP POP DUP2 SWAP1 SSTORE POP PUSH0 PUSH20 0xFFFFFFFFFFFFFFFFFFFFFFFFFFFFFFFFFFFFFFFF AND PUSH1 0x1 PUSH0 SWAP1 SLOAD SWAP1 PUSH2 0x100 EXP SWAP1 DIV PUSH20 0xFFFFFFFFFFFFFFFFFFFFFFFFFFFFFFFFFFFFFFFF AND PUSH20 0xFFFFFFFFFFFFFFFFFFFFFFFFFFFFFFFFFFFFFFFF AND SUB PUSH2 0x5CB JUMPI PUSH0 DUP1 PUSH0 SWAP1 SLOAD SWAP1 PUSH2 0x100 EXP SWAP1 DIV PUSH20 0xFFFFFFFFFFFFFFFFFFFFFFFFFFFFFFFFFFFFFFFF AND PUSH20 0xFFFFFFFFFFFFFFFFFFFFFFFFFFFFFFFFFFFFFFFF AND DUP3 PUSH1 0x40 MLOAD PUSH2 0x542 SWAP1 PUSH2 0x10FE JUMP JUMPDEST PUSH0 PUSH1 0x40 MLOAD DUP1 DUP4 SUB DUP2 DUP6 DUP8 GAS CALL SWAP3 POP POP POP RETURNDATASIZE DUP1 PUSH0 DUP2 EQ PUSH2 0x57C JUMPI PUSH1 0x40 MLOAD SWAP2 POP PUSH1 0x1F NOT PUSH1 0x3F RETURNDATASIZE ADD AND DUP3 ADD PUSH1 0x40 MSTORE RETURNDATASIZE DUP3 MSTORE RETURNDATASIZE PUSH0 PUSH1 0x20 DUP5 ADD RETURNDATACOPY PUSH2 0x581 JUMP JUMPDEST PUSH1 0x60 SWAP2 POP JUMPDEST POP POP SWAP1 POP DUP1 PUSH2 0x5C5 JUMPI PUSH1 0x40 MLOAD PUSH32 0x8C379A000000000000000000000000000000000000000000000000000000000 DUP2 MSTORE PUSH1 0x4 ADD PUSH2 0x5BC SWAP1 PUSH2 0x115C JUMP JUMPDEST PUSH1 0x40 MLOAD DUP1 SWAP2 SUB SWAP1 REVERT JUMPDEST POP PUSH2 0x688 JUMP JUMPDEST PUSH1 0x1 PUSH0 SWAP1 SLOAD SWAP1 PUSH2 0x100 EXP SWAP1 DIV PUSH20 0xFFFFFFFFFFFFFFFFFFFFFFFFFFFFFFFFFFFFFFFF AND PUSH20 0xFFFFFFFFFFFFFFFFFFFFFFFFFFFFFFFFFFFFFFFF AND PUSH4 0xA9059CBB PUSH0 DUP1 SLOAD SWAP1 PUSH2 0x100 EXP SWAP1 DIV PUSH20 0xFFFFFFFFFFFFFFFFFFFFFFFFFFFFFFFFFFFFFFFF AND DUP4 PUSH1 0x40 MLOAD DUP4 PUSH4 0xFFFFFFFF AND PUSH1 0xE0 SHL DUP2 MSTORE PUSH1 0x4 ADD PUSH2 0x646 SWAP3 SWAP2 SWAP1 PUSH2 0x117A JUMP JUMPDEST PUSH1 0x20 PUSH1 0x40 MLOAD DUP1 DUP4 SUB DUP2 PUSH0 DUP8 GAS CALL ISZERO DUP1 ISZERO PUSH2 0x662 JUMPI RETURNDATASIZE PUSH0 DUP1 RETURNDATACOPY RETURNDATASIZE PUSH0 REVERT JUMPDEST POP POP POP POP PUSH1 0x40 MLOAD RETURNDATASIZE PUSH1 0x1F NOT PUSH1 0x1F DUP3 ADD AND DUP3 ADD DUP1 PUSH1 0x40 MSTORE POP DUP2 ADD SWAP1 PUSH2 0x686 SWAP2 SWAP1 PUSH2 0x11D6 JUMP JUMPDEST POP JUMPDEST POP JUMP JUMPDEST PUSH1 0x3 SLOAD DUP2 GT ISZERO PUSH2 0x6D0 JUMPI PUSH1 0x40 MLOAD PUSH32 0x8C379A000000000000000000000000000000000000000000000000000000000 DUP2 MSTORE PUSH1 0x4 ADD PUSH2 0x6C7 SWAP1 PUSH2 0x124B JUMP JUMPDEST PUSH1 0x40 MLOAD DUP1 SWAP2 SUB SWAP1 REVERT JUMPDEST PUSH3 0x15180 PUSH1 0x5 PUSH0 CALLER PUSH20 0xFFFFFFFFFFFFFFFFFFFFFFFFFFFFFFFFFFFFFFFF AND PUSH20 0xFFFFFFFFFFFFFFFFFFFFFFFFFFFFFFFFFFFFFFFF AND DUP2 MSTORE PUSH1 0x20 ADD SWAP1 DUP2 MSTORE PUSH1 0x20 ADD PUSH0 KECCAK256 SLOAD TIMESTAMP PUSH2 0x71D SWAP2 SWAP1 PUSH2 0x109E JUMP JUMPDEST LT ISZERO PUSH2 0x75E JUMPI PUSH1 0x40 MLOAD PUSH32 0x8C379A000000000000000000000000000000000000000000000000000000000 DUP2 MSTORE PUSH1 0x4 ADD PUSH2 0x755 SWAP1 PUSH2 0x12B3 JUMP JUMPDEST PUSH1 0x40 MLOAD DUP1 SWAP2 SUB SWAP1 REVERT JUMPDEST PUSH0 PUSH1 0x2 PUSH0 SWAP1 SLOAD SWAP1 PUSH2 0x100 EXP SWAP1 DIV PUSH20 0xFFFFFFFFFFFFFFFFFFFFFFFFFFFFFFFFFFFFFFFF AND PUSH20 0xFFFFFFFFFFFFFFFFFFFFFFFFFFFFFFFFFFFFFFFF AND PUSH4 0x776F3843 CALLER PUSH1 0x40 MLOAD DUP3 PUSH4 0xFFFFFFFF AND PUSH1 0xE0 SHL DUP2 MSTORE PUSH1 0x4 ADD PUSH2 0x7B9 SWAP2 SWAP1 PUSH2 0xFA5 JUMP JUMPDEST PUSH1 0x20 PUSH1 0x40 MLOAD DUP1 DUP4 SUB DUP2 DUP7 GAS STATICCALL ISZERO DUP1 ISZERO PUSH2 0x7D4 JUMPI RETURNDATASIZE PUSH0 DUP1 RETURNDATACOPY RETURNDATASIZE PUSH0 REVERT JUMPDEST POP POP POP POP PUSH1 0x40 MLOAD RETURNDATASIZE PUSH1 0x1F NOT PUSH1 0x1F DUP3 ADD AND DUP3 ADD DUP1 PUSH1 0x40 MSTORE POP DUP2 ADD SWAP1 PUSH2 0x7F8 SWAP2 SWAP1 PUSH2 0x12E5 JUMP JUMPDEST GT PUSH2 0x838 JUMPI PUSH1 0x40 MLOAD PUSH32 0x8C379A000000000000000000000000000000000000000000000000000000000 DUP2 MSTORE PUSH1 0x4 ADD PUSH2 0x82F SWAP1 PUSH2 0x135A JUMP JUMPDEST PUSH1 0x40 MLOAD DUP1 SWAP2 SUB SWAP1 REVERT JUMPDEST PUSH1 0x4 SLOAD DUP2 GT ISZERO PUSH2 0x87D JUMPI PUSH1 0x40 MLOAD PUSH32 0x8C379A000000000000000000000000000000000000000000000000000000000 DUP2 MSTORE PUSH1 0x4 ADD PUSH2 0x874 SWAP1 PUSH2 0x13C2 JUMP JUMPDEST PUSH1 0x40 MLOAD DUP1 SWAP2 SUB SWAP1 REVERT JUMPDEST TIMESTAMP PUSH1 0x5 PUSH0 CALLER PUSH20 0xFFFFFFFFFFFFFFFFFFFFFFFFFFFFFFFFFFFFFFFF AND PUSH20 0xFFFFFFFFFFFFFFFFFFFFFFFFFFFFFFFFFFFFFFFF AND DUP2 MSTORE PUSH1 0x20 ADD SWAP1 DUP2 MSTORE PUSH1 0x20 ADD PUSH0 KECCAK256 DUP2 SWAP1 SSTORE POP DUP1 PUSH1 0x4 PUSH0 DUP3 DUP3 SLOAD PUSH2 0x8D0 SWAP2 SWAP1 PUSH2 0x109E JUMP JUMPDEST SWAP3 POP POP DUP2 SWAP1 SSTORE POP PUSH0 PUSH20 0xFFFFFFFFFFFFFFFFFFFFFFFFFFFFFFFFFFFFFFFF AND PUSH1 0x1 PUSH0 SWAP1 SLOAD SWAP1 PUSH2 0x100 EXP SWAP1 DIV PUSH20 0xFFFFFFFFFFFFFFFFFFFFFFFFFFFFFFFFFFFFFFFF AND PUSH20 0xFFFFFFFFFFFFFFFFFFFFFFFFFFFFFFFFFFFFFFFF AND SUB PUSH2 0x9D9 JUMPI PUSH0 CALLER PUSH20 0xFFFFFFFFFFFFFFFFFFFFFFFFFFFFFFFFFFFFFFFF AND DUP3 PUSH1 0x40 MLOAD PUSH2 0x950 SWAP1 PUSH2 0x10FE JUMP JUMPDEST PUSH0 PUSH1 0x40 MLOAD DUP1 DUP4 SUB DUP2 DUP6 DUP8 GAS CALL SWAP3 POP POP POP RETURNDATASIZE DUP1 PUSH0 DUP2 EQ PUSH2 0x98A JUMPI PUSH1 0x40 MLOAD SWAP2 POP PUSH1 0x1F NOT PUSH1 0x3F RETURNDATASIZE ADD AND DUP3 ADD PUSH1 0x40 MSTORE RETURNDATASIZE DUP3 MSTORE RETURNDATASIZE PUSH0 PUSH1 0x20 DUP5 ADD RETURNDATACOPY PUSH2 0x98F JUMP JUMPDEST PUSH1 0x60 SWAP2 POP JUMPDEST POP POP SWAP1 POP DUP1 PUSH2 0x9D3 JUMPI PUSH1 0x40 MLOAD PUSH32 0x8C379A000000000000000000000000000000000000000000000000000000000 DUP2 MSTORE PUSH1 0x4 ADD PUSH2 0x9CA SWAP1 PUSH2 0x115C JUMP JUMPDEST PUSH1 0x40 MLOAD DUP1 SWAP2 SUB SWAP1 REVERT JUMPDEST POP PUSH2 0xA77 JUMP JUMPDEST PUSH1 0x1 PUSH0 SWAP1 SLOAD SWAP1 PUSH2 0x100 EXP SWAP1 DIV PUSH20 0xFFFFFFFFFFFFFFFFFFFFFFFFFFFFFFFFFFFFFFFF AND PUSH20 0xFFFFFFFFFFFFFFFFFFFFFFFFFFFFFFFFFFFFFFFF AND PUSH4 0xA9059CBB CALLER DUP4 PUSH1 0x40 MLOAD DUP4 PUSH4 0xFFFFFFFF AND PUSH1 0xE0 SHL DUP2 MSTORE PUSH1 0x4 ADD PUSH2 0xA35 SWAP3 SWAP2 SWAP1 PUSH2 0x117A JUMP JUMPDEST PUSH1 0x20 PUSH1 0x40 MLOAD DUP1 DUP4 SUB DUP2 PUSH0 DUP8 GAS CALL ISZERO DUP1 ISZERO PUSH2 0xA51 JUMPI RETURNDATASIZE PUSH0 DUP1 RETURNDATACOPY RETURNDATASIZE PUSH0 REVERT JUMPDEST POP POP POP POP PUSH1 0x40 MLOAD RETURNDATASIZE PUSH1 0x1F NOT PUSH1 0x1F DUP3 ADD AND DUP3 ADD DUP1 PUSH1 0x40 MSTORE POP DUP2 ADD SWAP1 PUSH2 0xA75 SWAP2 SWAP1 PUSH2 0x11D6 JUMP JUMPDEST POP JUMPDEST CALLER PUSH20 0xFFFFFFFFFFFFFFFFFFFFFFFFFFFFFFFFFFFFFFFF AND PUSH32 0xD8138F8A3F377C5259CA548E70E4C2DE94F129F5A11036A15B69513CBA2B426A DUP3 PUSH1 0x40 MLOAD PUSH2 0xABD SWAP2 SWAP1 PUSH2 0xE2B JUMP JUMPDEST PUSH1 0x40 MLOAD DUP1 SWAP2 SUB SWAP1 LOG2 POP JUMP JUMPDEST PUSH1 0x3 SLOAD DUP2 JUMP JUMPDEST PUSH1 0x2 PUSH0 SWAP1 SLOAD SWAP1 PUSH2 0x100 EXP SWAP1 DIV PUSH20 0xFFFFFFFFFFFFFFFFFFFFFFFFFFFFFFFFFFFFFFFF AND DUP2 JUMP JUMPDEST PUSH0 DUP1 SLOAD SWAP1 PUSH2 0x100 EXP SWAP1 DIV PUSH20 0xFFFFFFFFFFFFFFFFFFFFFFFFFFFFFFFFFFFFFFFF AND DUP2 JUMP JUMPDEST PUSH1 0x4 SLOAD DUP2 JUMP JUMPDEST PUSH0 PUSH20 0xFFFFFFFFFFFFFFFFFFFFFFFFFFFFFFFFFFFFFFFF AND PUSH1 0x1 PUSH0 SWAP1 SLOAD SWAP1 PUSH2 0x100 EXP SWAP1 DIV PUSH20 0xFFFFFFFFFFFFFFFFFFFFFFFFFFFFFFFFFFFFFFFF AND PUSH20 0xFFFFFFFFFFFFFFFFFFFFFFFFFFFFFFFFFFFFFFFF AND SUB PUSH2 0xBB7 JUMPI DUP1 CALLVALUE EQ PUSH2 0xBB2 JUMPI PUSH1 0x40 MLOAD PUSH32 0x8C379A000000000000000000000000000000000000000000000000000000000 DUP2 MSTORE PUSH1 0x4 ADD PUSH2 0xBA9 SWAP1 PUSH2 0x142A JUMP JUMPDEST PUSH1 0x40 MLOAD DUP1 SWAP2 SUB SWAP1 REVERT JUMPDEST PUSH2 0xC57 JUMP JUMPDEST PUSH1 0x1 PUSH0 SWAP1 SLOAD SWAP1 PUSH2 0x100 EXP SWAP1 DIV PUSH20 0xFFFFFFFFFFFFFFFFFFFFFFFFFFFFFFFFFFFFFFFF AND PUSH20 0xFFFFFFFFFFFFFFFFFFFFFFFFFFFFFFFFFFFFFFFF AND PUSH4 0x23B872DD CALLER ADDRESS DUP5 PUSH1 0x40 MLOAD DUP5 PUSH4 0xFFFFFFFF AND PUSH1 0xE0 SHL DUP2 MSTORE PUSH1 0x4 ADD PUSH2 0xC15 SWAP4 SWAP3 SWAP2 SWAP1 PUSH2 0x1448 JUMP JUMPDEST PUSH1 0x20 PUSH1 0x40 MLOAD DUP1 DUP4 SUB DUP2 PUSH0 DUP8 GAS CALL ISZERO DUP1 ISZERO PUSH2 0xC31 JUMPI RETURNDATASIZE PUSH0 DUP1 RETURNDATACOPY RETURNDATASIZE PUSH0 REVERT JUMPDEST POP POP POP POP PUSH1 0x40 MLOAD RETURNDATASIZE PUSH1 0x1F NOT PUSH1 0x1F DUP3 ADD AND DUP3 ADD DUP1 PUSH1 0x40 MSTORE POP DUP2 ADD SWAP1 PUSH2 0xC55 SWAP2 SWAP1 PUSH2 0x11D6 JUMP JUMPDEST POP JUMPDEST DUP1 PUSH1 0x4 PUSH0 DUP3 DUP3 SLOAD PUSH2 0xC68 SWAP2 SWAP1 PUSH2 0xDE9 JUMP JUMPDEST SWAP3 POP POP DUP2 SWAP1 SSTORE POP CALLER PUSH20 0xFFFFFFFFFFFFFFFFFFFFFFFFFFFFFFFFFFFFFFFF AND PUSH32 0xE1FFFCC4923D04B559F4D29A8BFC6CDA04EB5B0D3C460751C2402C5C5CC9109C DUP3 PUSH1 0x40 MLOAD PUSH2 0xCB5 SWAP2 SWAP1 PUSH2 0xE2B JUMP JUMPDEST PUSH1 0x40 MLOAD DUP1 SWAP2 SUB SWAP1 LOG2 POP JUMP JUMPDEST PUSH0 DUP1 SLOAD SWAP1 PUSH2 0x100 EXP SWAP1 DIV PUSH20 0xFFFFFFFFFFFFFFFFFFFFFFFFFFFFFFFFFFFFFFFF AND PUSH20 0xFFFFFFFFFFFFFFFFFFFFFFFFFFFFFFFFFFFFFFFF AND CALLER PUSH20 0xFFFFFFFFFFFFFFFFFFFFFFFFFFFFFFFFFFFFFFFF AND EQ PUSH2 0xD4D JUMPI PUSH1 0x40 MLOAD PUSH32 0x8C379A000000000000000000000000000000000000000000000000000000000 DUP2 MSTORE PUSH1 0x4 ADD PUSH2 0xD44 SWAP1 PUSH2 0x1018 JUMP JUMPDEST PUSH1 0x40 MLOAD DUP1 SWAP2 SUB SWAP1 REVERT JUMPDEST DUP1 PUSH1 0x3 DUP2 SWAP1 SSTORE POP PUSH32 0x69E4F4585A710DEBC30F07C33DCDED264DD61E9DD02A9DFAD6584A9189F185E4 DUP2 PUSH1 0x40 MLOAD PUSH2 0xD83 SWAP2 SWAP1 PUSH2 0xE2B JUMP JUMPDEST PUSH1 0x40 MLOAD DUP1 SWAP2 SUB SWAP1 LOG1 POP JUMP JUMPDEST PUSH1 0x1 PUSH0 SWAP1 SLOAD SWAP1 PUSH2 0x100 EXP SWAP1 DIV PUSH20 0xFFFFFFFFFFFFFFFFFFFFFFFFFFFFFFFFFFFFFFFF AND DUP2 JUMP JUMPDEST PUSH0 DUP2 SWAP1 POP SWAP2 SWAP1 POP JUMP JUMPDEST PUSH32 0x4E487B7100000000000000000000000000000000000000000000000000000000 PUSH0 MSTORE PUSH1 0x11 PUSH1 0x4 MSTORE PUSH1 0x24 PUSH0 REVERT JUMPDEST PUSH0 PUSH2 0xDF3 DUP3 PUSH2 0xDB3 JUMP JUMPDEST SWAP2 POP PUSH2 0xDFE DUP4 PUSH2 0xDB3 JUMP JUMPDEST SWAP3 POP DUP3 DUP3 ADD SWAP1 POP DUP1 DUP3 GT ISZERO PUSH2 0xE16 JUMPI PUSH2 0xE15 PUSH2 0xDBC JUMP JUMPDEST JUMPDEST SWAP3 SWAP2 POP POP JUMP JUMPDEST PUSH2 0xE25 DUP2 PUSH2 0xDB3 JUMP JUMPDEST DUP3 MSTORE POP POP JUMP JUMPDEST PUSH0 PUSH1 0x20 DUP3 ADD SWAP1 POP PUSH2 0xE3E PUSH0 DUP4 ADD DUP5 PUSH2 0xE1C JUMP JUMPDEST SWAP3 SWAP2 POP POP JUMP JUMPDEST PUSH0 DUP1 REVERT JUMPDEST PUSH0 PUSH20 0xFFFFFFFFFFFFFFFFFFFFFFFFFFFFFFFFFFFFFFFF DUP3 AND SWAP1 POP SWAP2 SWAP1 POP JUMP JUMPDEST PUSH0 PUSH2 0xE71 DUP3 PUSH2 0xE48 JUMP JUMPDEST SWAP1 POP SWAP2 SWAP1 POP JUMP JUMPDEST PUSH2 0xE81 DUP2 PUSH2 0xE67 JUMP JUMPDEST DUP2 EQ PUSH2 0xE8B JUMPI PUSH0 DUP1 REVERT JUMPDEST POP JUMP JUMPDEST PUSH0 DUP2 CALLDATALOAD SWAP1 POP PUSH2 0xE9C DUP2 PUSH2 0xE78 JUMP JUMPDEST SWAP3 SWAP2 POP POP JUMP JUMPDEST PUSH0 PUSH1 0x20 DUP3 DUP5 SUB SLT ISZERO PUSH2 0xEB7 JUMPI PUSH2 0xEB6 PUSH2 0xE44 JUMP JUMPDEST JUMPDEST PUSH0 PUSH2 0xEC4 DUP5 DUP3 DUP6 ADD PUSH2 0xE8E JUMP JUMPDEST SWAP2 POP POP SWAP3 SWAP2 POP POP JUMP JUMPDEST PUSH2 0xED6 DUP2 PUSH2 0xDB3 JUMP JUMPDEST DUP2 EQ PUSH2 0xEE0 JUMPI PUSH0 DUP1 REVERT JUMPDEST POP JUMP JUMPDEST PUSH0 DUP2 CALLDATALOAD SWAP1 POP PUSH2 0xEF1 DUP2 PUSH2 0xECD JUMP JUMPDEST SWAP3 SWAP2 POP POP JUMP JUMPDEST PUSH0 PUSH1 0x20 DUP3 DUP5 SUB SLT ISZERO PUSH2 0xF0C JUMPI PUSH2 0xF0B PUSH2 0xE44 JUMP JUMPDEST JUMPDEST PUSH0 PUSH2 0xF19 DUP5 DUP3 DUP6 ADD PUSH2 0xEE3 JUMP JUMPDEST SWAP2 POP POP SWAP3 SWAP2 POP POP JUMP JUMPDEST PUSH0 DUP2 SWAP1 POP SWAP2 SWAP1 POP JUMP JUMPDEST PUSH0 PUSH2 0xF45 PUSH2 0xF40 PUSH2 0xF3B DUP5 PUSH2 0xE48 JUMP JUMPDEST PUSH2 0xF22 JUMP JUMPDEST PUSH2 0xE48 JUMP JUMPDEST SWAP1 POP SWAP2 SWAP1 POP JUMP JUMPDEST PUSH0 PUSH2 0xF56 DUP3 PUSH2 0xF2B JUMP JUMPDEST SWAP1 POP SWAP2 SWAP1 POP JUMP JUMPDEST PUSH0 PUSH2 0xF67 DUP3 PUSH2 0xF4C JUMP JUMPDEST SWAP1 POP SWAP2 SWAP1 POP JUMP JUMPDEST PUSH2 0xF77 DUP2 PUSH2 0xF5D JUMP JUMPDEST DUP3 MSTORE POP POP JUMP JUMPDEST PUSH0 PUSH1 0x20 DUP3 ADD SWAP1 POP PUSH2 0xF90 PUSH0 DUP4 ADD DUP5 PUSH2 0xF6E JUMP JUMPDEST SWAP3 SWAP2 POP POP JUMP JUMPDEST PUSH2 0xF9F DUP2 PUSH2 0xE67 JUMP JUMPDEST DUP3 MSTORE POP POP JUMP JUMPDEST PUSH0 PUSH1 0x20 DUP3 ADD SWAP1 POP PUSH2 0xFB8 PUSH0 DUP4 ADD DUP5 PUSH2 0xF96 JUMP JUMPDEST SWAP3 SWAP2 POP POP JUMP JUMPDEST PUSH0 DUP3 DUP3 MSTORE PUSH1 0x20 DUP3 ADD SWAP1 POP SWAP3 SWAP2 POP POP JUMP JUMPDEST PUSH32 0x4E6F7420617574686F72697A6564000000000000000000000000000000000000 PUSH0 DUP3 ADD MSTORE POP JUMP JUMPDEST PUSH0 PUSH2 0x1002 PUSH1 0xE DUP4 PUSH2 0xFBE JUMP JUMPDEST SWAP2 POP PUSH2 0x100D DUP3 PUSH2 0xFCE JUMP JUMPDEST PUSH1 0x20 DUP3 ADD SWAP1 POP SWAP2 SWAP1 POP JUMP JUMPDEST PUSH0 PUSH1 0x20 DUP3 ADD SWAP1 POP DUP2 DUP2 SUB PUSH0 DUP4 ADD MSTORE PUSH2 0x102F DUP2 PUSH2 0xFF6 JUMP JUMPDEST SWAP1 POP SWAP2 SWAP1 POP JUMP JUMPDEST PUSH32 0x496E73756666696369656E742066756E64730000000000000000000000000000 PUSH0 DUP3 ADD MSTORE POP JUMP JUMPDEST PUSH0 PUSH2 0x106A PUSH1 0x12 DUP4 PUSH2 0xFBE JUMP JUMPDEST SWAP2 POP PUSH2 0x1075 DUP3 PUSH2 0x1036 JUMP JUMPDEST PUSH1 0x20 DUP3 ADD SWAP1 POP SWAP2 SWAP1 POP JUMP JUMPDEST PUSH0 PUSH1 0x20 DUP3 ADD SWAP1 POP DUP2 DUP2 SUB PUSH0 DUP4 ADD MSTORE PUSH2 0x1097 DUP2 PUSH2 0x105E JUMP JUMPDEST SWAP1 POP SWAP2 SWAP1 POP JUMP JUMPDEST PUSH0 PUSH2 0x10A8 DUP3 PUSH2 0xDB3 JUMP JUMPDEST SWAP2 POP PUSH2 0x10B3 DUP4 PUSH2 0xDB3 JUMP JUMPDEST SWAP3 POP DUP3 DUP3 SUB SWAP1 POP DUP2 DUP2 GT ISZERO PUSH2 0x10CB JUMPI PUSH2 0x10CA PUSH2 0xDBC JUMP JUMPDEST JUMPDEST SWAP3 SWAP2 POP POP JUMP JUMPDEST PUSH0 DUP2 SWAP1 POP SWAP3 SWAP2 POP POP JUMP JUMPDEST POP JUMP JUMPDEST PUSH0 PUSH2 0x10E9 PUSH0 DUP4 PUSH2 0x10D1 JUMP JUMPDEST SWAP2 POP PUSH2 0x10F4 DUP3 PUSH2 0x10DB JUMP JUMPDEST PUSH0 DUP3 ADD SWAP1 POP SWAP2 SWAP1 POP JUMP JUMPDEST PUSH0 PUSH2 0x1108 DUP3 PUSH2 0x10DE JUMP JUMPDEST SWAP2 POP DUP2 SWAP1 POP SWAP2 SWAP1 POP JUMP JUMPDEST PUSH32 0x455448207472616E73666572206661696C656400000000000000000000000000 PUSH0 DUP3 ADD MSTORE POP JUMP JUMPDEST PUSH0 PUSH2 0x1146 PUSH1 0x13 DUP4 PUSH2 0xFBE JUMP JUMPDEST SWAP2 POP PUSH2 0x1151 DUP3 PUSH2 0x1112 JUMP JUMPDEST PUSH1 0x20 DUP3 ADD SWAP1 POP SWAP2 SWAP1 POP JUMP JUMPDEST PUSH0 PUSH1 0x20 DUP3 ADD SWAP1 POP DUP2 DUP2 SUB PUSH0 DUP4 ADD MSTORE PUSH2 0x1173 DUP2 PUSH2 0x113A JUMP JUMPDEST SWAP1 POP SWAP2 SWAP1 POP JUMP JUMPDEST PUSH0 PUSH1 0x40 DUP3 ADD SWAP1 POP PUSH2 0x118D PUSH0 DUP4 ADD DUP6 PUSH2 0xF96 JUMP JUMPDEST PUSH2 0x119A PUSH1 0x20 DUP4 ADD DUP5 PUSH2 0xE1C JUMP JUMPDEST SWAP4 SWAP3 POP POP POP JUMP JUMPDEST PUSH0 DUP2 ISZERO ISZERO SWAP1 POP SWAP2 SWAP1 POP JUMP JUMPDEST PUSH2 0x11B5 DUP2 PUSH2 0x11A1 JUMP JUMPDEST DUP2 EQ PUSH2 0x11BF JUMPI PUSH0 DUP1 REVERT JUMPDEST POP JUMP JUMPDEST PUSH0 DUP2 MLOAD SWAP1 POP PUSH2 0x11D0 DUP2 PUSH2 0x11AC JUMP JUMPDEST SWAP3 SWAP2 POP POP JUMP JUMPDEST PUSH0 PUSH1 0x20 DUP3 DUP5 SUB SLT ISZERO PUSH2 0x11EB JUMPI PUSH2 0x11EA PUSH2 0xE44 JUMP JUMPDEST JUMPDEST PUSH0 PUSH2 0x11F8 DUP5 DUP3 DUP6 ADD PUSH2 0x11C2 JUMP JUMPDEST SWAP2 POP POP SWAP3 SWAP2 POP POP JUMP JUMPDEST PUSH32 0x45786365656473206461696C79206C696D697400000000000000000000000000 PUSH0 DUP3 ADD MSTORE POP JUMP JUMPDEST PUSH0 PUSH2 0x1235 PUSH1 0x13 DUP4 PUSH2 0xFBE JUMP JUMPDEST SWAP2 POP PUSH2 0x1240 DUP3 PUSH2 0x1201 JUMP JUMPDEST PUSH1 0x20 DUP3 ADD SWAP1 POP SWAP2 SWAP1 POP JUMP JUMPDEST PUSH0 PUSH1 0x20 DUP3 ADD SWAP1 POP DUP2 DUP2 SUB PUSH0 DUP4 ADD MSTORE PUSH2 0x1262 DUP2 PUSH2 0x1229 JUMP JUMPDEST SWAP1 POP SWAP2 SWAP1 POP JUMP JUMPDEST PUSH32 0x4461696C7920636C61696D206C696D6974207265616368656400000000000000 PUSH0 DUP3 ADD MSTORE POP JUMP JUMPDEST PUSH0 PUSH2 0x129D PUSH1 0x19 DUP4 PUSH2 0xFBE JUMP JUMPDEST SWAP2 POP PUSH2 0x12A8 DUP3 PUSH2 0x1269 JUMP JUMPDEST PUSH1 0x20 DUP3 ADD SWAP1 POP SWAP2 SWAP1 POP JUMP JUMPDEST PUSH0 PUSH1 0x20 DUP3 ADD SWAP1 POP DUP2 DUP2 SUB PUSH0 DUP4 ADD MSTORE PUSH2 0x12CA DUP2 PUSH2 0x1291 JUMP JUMPDEST SWAP1 POP SWAP2 SWAP1 POP JUMP JUMPDEST PUSH0 DUP2 MLOAD SWAP1 POP PUSH2 0x12DF DUP2 PUSH2 0xECD JUMP JUMPDEST SWAP3 SWAP2 POP POP JUMP JUMPDEST PUSH0 PUSH1 0x20 DUP3 DUP5 SUB SLT ISZERO PUSH2 0x12FA JUMPI PUSH2 0x12F9 PUSH2 0xE44 JUMP JUMPDEST JUMPDEST PUSH0 PUSH2 0x1307 DUP5 DUP3 DUP6 ADD PUSH2 0x12D1 JUMP JUMPDEST SWAP2 POP POP SWAP3 SWAP2 POP POP JUMP JUMPDEST PUSH32 0x4E6F7420656C696769626C650000000000000000000000000000000000000000 PUSH0 DUP3 ADD MSTORE POP JUMP JUMPDEST PUSH0 PUSH2 0x1344 PUSH1 0xC DUP4 PUSH2 0xFBE JUMP JUMPDEST SWAP2 POP PUSH2 0x134F DUP3 PUSH2 0x1310 JUMP JUMPDEST PUSH1 0x20 DUP3 ADD SWAP1 POP SWAP2 SWAP1 POP JUMP JUMPDEST PUSH0 PUSH1 0x20 DUP3 ADD SWAP1 POP DUP2 DUP2 SUB PUSH0 DUP4 ADD MSTORE PUSH2 0x1371 DUP2 PUSH2 0x1338 JUMP JUMPDEST SWAP1 POP SWAP2 SWAP1 POP JUMP JUMPDEST PUSH32 0x496E73756666696369656E742066756E647320696E206A617200000000000000 PUSH0 DUP3 ADD MSTORE POP JUMP JUMPDEST PUSH0 PUSH2 0x13AC PUSH1 0x19 DUP4 PUSH2 0xFBE JUMP JUMPDEST SWAP2 POP PUSH2 0x13B7 DUP3 PUSH2 0x1378 JUMP JUMPDEST PUSH1 0x20 DUP3 ADD SWAP1 POP SWAP2 SWAP1 POP JUMP JUMPDEST PUSH0 PUSH1 0x20 DUP3 ADD SWAP1 POP DUP2 DUP2 SUB PUSH0 DUP4 ADD MSTORE PUSH2 0x13D9 DUP2 PUSH2 0x13A0 JUMP JUMPDEST SWAP1 POP SWAP2 SWAP1 POP JUMP JUMPDEST PUSH32 0x496E636F72726563742045544820616D6F756E74000000000000000000000000 PUSH0 DUP3 ADD MSTORE POP JUMP JUMPDEST PUSH0 PUSH2 0x1414 PUSH1 0x14 DUP4 PUSH2 0xFBE JUMP JUMPDEST SWAP2 POP PUSH2 0x141F DUP3 PUSH2 0x13E0 JUMP JUMPDEST PUSH1 0x20 DUP3 ADD SWAP1 POP SWAP2 SWAP1 POP JUMP JUMPDEST PUSH0 PUSH1 0x20 DUP3 ADD SWAP1 POP DUP2 DUP2 SUB PUSH0 DUP4 ADD MSTORE PUSH2 0x1441 DUP2 PUSH2 0x1408 JUMP JUMPDEST SWAP1 POP SWAP2 SWAP1 POP JUMP JUMPDEST PUSH0 PUSH1 0x60 DUP3 ADD SWAP1 POP PUSH2 0x145B PUSH0 DUP4 ADD DUP7 PUSH2 0xF96 JUMP JUMPDEST PUSH2 0x1468 PUSH1 0x20 DUP4 ADD DUP6 PUSH2 0xF96 JUMP JUMPDEST PUSH2 0x1475 PUSH1 0x40 DUP4 ADD DUP5 PUSH2 0xE1C JUMP JUMPDEST SWAP5 SWAP4 POP POP POP POP JUMP INVALID LOG2 PUSH5 0x6970667358 0x22 SLT KECCAK256 0x4C 0xBD 0xFC 0xC PUSH18 0xA3EEC5A105C969F46EDD35BC737986E5BB01 CALLCODE 0xA6 0xEE PUSH32 0x6A04E52DDF64736F6C634300081A003300000000000000000000000000000000 "
				},
				"gasEstimates": {
					"creation": {
						"codeDepositCost": "1059800",
						"executionCost": "infinite",
						"totalCost": "infinite"
					},
					"external": {
						"claim(uint256)": "infinite",
						"dailyLimit()": "2514",
						"deposit(uint256)": "infinite",
						"lastClaimed(address)": "2803",
						"owner()": "2527",
						"scorer()": "infinite",
						"setScorer(address)": "26904",
						"token()": "2618",
						"totalBalance()": "2469",
						"updateDailyLimit(uint256)": "infinite",
						"withdraw(uint256)": "infinite"
					}
				},
				"methodIdentifiers": {
					"claim(uint256)": "379607f5",
					"dailyLimit()": "67eeba0c",
					"deposit(uint256)": "b6b55f25",
					"lastClaimed(address)": "013eba92",
					"owner()": "8da5cb5b",
					"scorer()": "85c758f7",
					"setScorer(address)": "03191ffc",
					"token()": "fc0c546a",
					"totalBalance()": "ad7a672f",
					"updateDailyLimit(uint256)": "f8175d78",
					"withdraw(uint256)": "2e1a7d4d"
				}
			},
			"storageLayout": {
				"storage": [
					{
						"astId": 41,
						"contract": "contracts/cookie-jar.sol:nCookieJar",
						"label": "owner",
						"offset": 0,
						"slot": "0",
						"type": "t_address"
					},
					{
						"astId": 43,
						"contract": "contracts/cookie-jar.sol:nCookieJar",
						"label": "token",
						"offset": 0,
						"slot": "1",
						"type": "t_address"
					},
					{
						"astId": 46,
						"contract": "contracts/cookie-jar.sol:nCookieJar",
						"label": "scorer",
						"offset": 0,
						"slot": "2",
						"type": "t_contract(IScorer)39"
					},
					{
						"astId": 48,
						"contract": "contracts/cookie-jar.sol:nCookieJar",
						"label": "dailyLimit",
						"offset": 0,
						"slot": "3",
						"type": "t_uint256"
					},
					{
						"astId": 50,
						"contract": "contracts/cookie-jar.sol:nCookieJar",
						"label": "totalBalance",
						"offset": 0,
						"slot": "4",
						"type": "t_uint256"
					},
					{
						"astId": 54,
						"contract": "contracts/cookie-jar.sol:nCookieJar",
						"label": "lastClaimed",
						"offset": 0,
						"slot": "5",
						"type": "t_mapping(t_address,t_uint256)"
					}
				],
				"types": {
					"t_address": {
						"encoding": "inplace",
						"label": "address",
						"numberOfBytes": "20"
					},
					"t_contract(IScorer)39": {
						"encoding": "inplace",
						"label": "contract IScorer",
						"numberOfBytes": "20"
					},
					"t_mapping(t_address,t_uint256)": {
						"encoding": "mapping",
						"key": "t_address",
						"label": "mapping(address => uint256)",
						"numberOfBytes": "32",
						"value": "t_uint256"
					},
					"t_uint256": {
						"encoding": "inplace",
						"label": "uint256",
						"numberOfBytes": "32"
					}
				}
			},
			"userdoc": {
				"kind": "user",
				"methods": {},
				"version": 1
			}
		}
	}
}