{
	"contracts/cookie-jar.sol": {
		"nCookieJar": {
			"abi": [
				{
					"inputs": [],
					"name": "InvalidInitialization",
					"type": "error"
				},
				{
					"inputs": [],
					"name": "NotInitializing",
					"type": "error"
				},
				{
					"inputs": [
						{
							"internalType": "address",
							"name": "owner",
							"type": "address"
						}
					],
					"name": "OwnableInvalidOwner",
					"type": "error"
				},
				{
					"inputs": [
						{
							"internalType": "address",
							"name": "account",
							"type": "address"
						}
					],
					"name": "OwnableUnauthorizedAccount",
					"type": "error"
				},
				{
					"anonymous": false,
					"inputs": [
						{
							"indexed": true,
							"internalType": "address",
							"name": "claimant",
							"type": "address"
						},
						{
							"indexed": false,
							"internalType": "uint256",
							"name": "amount",
							"type": "uint256"
						}
					],
					"name": "Claimed",
					"type": "event"
				},
				{
					"anonymous": false,
					"inputs": [
						{
							"indexed": true,
							"internalType": "address",
							"name": "depositor",
							"type": "address"
						},
						{
							"indexed": false,
							"internalType": "uint256",
							"name": "amount",
							"type": "uint256"
						}
					],
					"name": "Deposit",
					"type": "event"
				},
				{
					"anonymous": false,
					"inputs": [
						{
							"indexed": false,
							"internalType": "uint64",
							"name": "version",
							"type": "uint64"
						}
					],
					"name": "Initialized",
					"type": "event"
				},
				{
					"anonymous": false,
					"inputs": [
						{
							"indexed": true,
							"internalType": "address",
							"name": "previousOwner",
							"type": "address"
						},
						{
							"indexed": true,
							"internalType": "address",
							"name": "newOwner",
							"type": "address"
						}
					],
					"name": "OwnershipTransferred",
					"type": "event"
				},
				{
					"anonymous": false,
					"inputs": [
						{
							"indexed": false,
							"internalType": "uint256",
							"name": "newLimit",
							"type": "uint256"
						}
					],
					"name": "UpdatedDailyLimit",
					"type": "event"
				},
				{
					"anonymous": false,
					"inputs": [
						{
							"indexed": false,
							"internalType": "uint256",
							"name": "newScoreRequired",
							"type": "uint256"
						}
					],
					"name": "UpdatedScoreRequired",
					"type": "event"
				},
				{
					"inputs": [
						{
							"internalType": "uint256",
							"name": "amount",
							"type": "uint256"
						}
					],
					"name": "claim",
					"outputs": [],
					"stateMutability": "nonpayable",
					"type": "function"
				},
				{
					"inputs": [],
					"name": "dailyLimit",
					"outputs": [
						{
							"internalType": "uint256",
							"name": "",
							"type": "uint256"
						}
					],
					"stateMutability": "view",
					"type": "function"
				},
				{
					"inputs": [
						{
							"internalType": "uint256",
							"name": "amount",
							"type": "uint256"
						}
					],
					"name": "deposit",
					"outputs": [],
					"stateMutability": "payable",
					"type": "function"
				},
				{
					"inputs": [
						{
							"internalType": "address",
							"name": "_token",
							"type": "address"
						},
						{
							"internalType": "address",
							"name": "_scorer",
							"type": "address"
						},
						{
							"internalType": "uint256",
							"name": "_dailyLimit",
							"type": "uint256"
						},
						{
							"internalType": "address",
							"name": "owner",
							"type": "address"
						},
						{
							"internalType": "uint256",
							"name": "_scoreRequired",
							"type": "uint256"
						}
					],
					"name": "initialize",
					"outputs": [],
					"stateMutability": "nonpayable",
					"type": "function"
				},
				{
					"inputs": [
						{
							"internalType": "address",
							"name": "",
							"type": "address"
						}
					],
					"name": "lastClaimed",
					"outputs": [
						{
							"internalType": "uint256",
							"name": "",
							"type": "uint256"
						}
					],
					"stateMutability": "view",
					"type": "function"
				},
				{
					"inputs": [],
					"name": "owner",
					"outputs": [
						{
							"internalType": "address",
							"name": "",
							"type": "address"
						}
					],
					"stateMutability": "view",
					"type": "function"
				},
				{
					"inputs": [],
					"name": "renounceOwnership",
					"outputs": [],
					"stateMutability": "nonpayable",
					"type": "function"
				},
				{
					"inputs": [],
					"name": "scoreRequired",
					"outputs": [
						{
							"internalType": "uint256",
							"name": "",
							"type": "uint256"
						}
					],
					"stateMutability": "view",
					"type": "function"
				},
				{
					"inputs": [],
					"name": "scorer",
					"outputs": [
						{
							"internalType": "contract IScorer",
							"name": "",
							"type": "address"
						}
					],
					"stateMutability": "view",
					"type": "function"
				},
				{
					"inputs": [
						{
							"internalType": "uint256",
							"name": "newScoreRequired",
							"type": "uint256"
						}
					],
					"name": "setScoreRequired",
					"outputs": [],
					"stateMutability": "nonpayable",
					"type": "function"
				},
				{
					"inputs": [
						{
							"internalType": "address",
							"name": "_scorer",
							"type": "address"
						}
					],
					"name": "setScorer",
					"outputs": [],
					"stateMutability": "nonpayable",
					"type": "function"
				},
				{
					"inputs": [],
					"name": "token",
					"outputs": [
						{
							"internalType": "address",
							"name": "",
							"type": "address"
						}
					],
					"stateMutability": "view",
					"type": "function"
				},
				{
					"inputs": [],
					"name": "totalBalance",
					"outputs": [
						{
							"internalType": "uint256",
							"name": "",
							"type": "uint256"
						}
					],
					"stateMutability": "view",
					"type": "function"
				},
				{
					"inputs": [
						{
							"internalType": "address",
							"name": "newOwner",
							"type": "address"
						}
					],
					"name": "transferOwnership",
					"outputs": [],
					"stateMutability": "nonpayable",
					"type": "function"
				},
				{
					"inputs": [
						{
							"internalType": "uint256",
							"name": "newLimit",
							"type": "uint256"
						}
					],
					"name": "updateDailyLimit",
					"outputs": [],
					"stateMutability": "nonpayable",
					"type": "function"
				},
				{
					"inputs": [
						{
							"internalType": "uint256",
							"name": "amount",
							"type": "uint256"
						}
					],
					"name": "withdraw",
					"outputs": [],
					"stateMutability": "nonpayable",
					"type": "function"
				},
				{
					"stateMutability": "payable",
					"type": "receive"
				}
			],
			"devdoc": {
				"errors": {
					"InvalidInitialization()": [
						{
							"details": "The contract is already initialized."
						}
					],
					"NotInitializing()": [
						{
							"details": "The contract is not initializing."
						}
					],
					"OwnableInvalidOwner(address)": [
						{
							"details": "The owner is not a valid owner account. (eg. `address(0)`)"
						}
					],
					"OwnableUnauthorizedAccount(address)": [
						{
							"details": "The caller account is not authorized to perform an operation."
						}
					]
				},
				"events": {
					"Initialized(uint64)": {
						"details": "Triggered when the contract has been initialized or reinitialized."
					}
				},
				"kind": "dev",
				"methods": {
					"claim(uint256)": {
						"details": "Allows users to claim a specified amount of funds from the contract.      The claim is subject to the following conditions:      - The amount claimed cannot exceed the daily limit (`dailyLimit`).      - The user can only claim once every 24 hours, enforced by `lastClaimed`.      - The user must have a score that meets or exceeds the required score (`scoreRequired`).      - The contract must have enough funds to fulfill the claim.",
						"params": {
							"amount": "The amount of funds the user wishes to claim."
						}
					},
					"deposit(uint256)": {
						"details": "This can be either ETH or a specific token, depending on what's set in token.",
						"params": {
							"amount": "The value to add (in wei for ETH)."
						}
					},
					"initialize(address,address,uint256,address,uint256)": {
						"details": "This is a special initialization phase where external calls are not allowed, and it can be called only once at instance creation time."
					},
					"owner()": {
						"details": "Returns the address of the current owner."
					},
					"renounceOwnership()": {
						"details": "Leaves the contract without owner. It will not be possible to call `onlyOwner` functions. Can only be called by the current owner. NOTE: Renouncing ownership will leave the contract without an owner, thereby disabling any functionality that is only available to the owner."
					},
					"transferOwnership(address)": {
						"details": "Transfers ownership of the contract to a new account (`newOwner`). Can only be called by the current owner."
					}
				},
				"version": 1
			},
			"evm": {
				"assembly": "    /* \"contracts/cookie-jar.sol\":367:4983  contract nCookieJar is OwnableUpgradeable {... */\n  mstore(0x40, 0x80)\n  callvalue\n  dup1\n  iszero\n  tag_1\n  jumpi\n  0x00\n  dup1\n  revert\ntag_1:\n  pop\n  dataSize(sub_0)\n  dup1\n  dataOffset(sub_0)\n  0x00\n  codecopy\n  0x00\n  return\nstop\n\nsub_0: assembly {\n        /* \"contracts/cookie-jar.sol\":367:4983  contract nCookieJar is OwnableUpgradeable {... */\n      mstore(0x40, 0x80)\n      jumpi(tag_1, lt(calldatasize, 0x04))\n      shr(0xe0, calldataload(0x00))\n      dup1\n      0xabbeb55b\n      gt\n      tag_19\n      jumpi\n      dup1\n      0xf2fde38b\n      gt\n      tag_20\n      jumpi\n      dup1\n      0xf2fde38b\n      eq\n      tag_15\n      jumpi\n      dup1\n      0xf7c00e63\n      eq\n      tag_16\n      jumpi\n      dup1\n      0xf8175d78\n      eq\n      tag_17\n      jumpi\n      dup1\n      0xfc0c546a\n      eq\n      tag_18\n      jumpi\n      jump(tag_2)\n    tag_20:\n      dup1\n      0xabbeb55b\n      eq\n      tag_11\n      jumpi\n      dup1\n      0xad7a672f\n      eq\n      tag_12\n      jumpi\n      dup1\n      0xb6b55f25\n      eq\n      tag_13\n      jumpi\n      dup1\n      0xde9d2a77\n      eq\n      tag_14\n      jumpi\n      jump(tag_2)\n    tag_19:\n      dup1\n      0x67eeba0c\n      gt\n      tag_21\n      jumpi\n      dup1\n      0x67eeba0c\n      eq\n      tag_7\n      jumpi\n      dup1\n      0x715018a6\n      eq\n      tag_8\n      jumpi\n      dup1\n      0x85c758f7\n      eq\n      tag_9\n      jumpi\n      dup1\n      0x8da5cb5b\n      eq\n      tag_10\n      jumpi\n      jump(tag_2)\n    tag_21:\n      dup1\n      0x013eba92\n      eq\n      tag_3\n      jumpi\n      dup1\n      0x03191ffc\n      eq\n      tag_4\n      jumpi\n      dup1\n      0x2e1a7d4d\n      eq\n      tag_5\n      jumpi\n      dup1\n      0x379607f5\n      eq\n      tag_6\n      jumpi\n      jump(tag_2)\n    tag_1:\n      jumpi(tag_2, calldatasize)\n        /* \"contracts/cookie-jar.sol\":4917:4926  msg.value */\n      callvalue\n        /* \"contracts/cookie-jar.sol\":4901:4913  totalBalance */\n      0x03\n      0x00\n        /* \"contracts/cookie-jar.sol\":4901:4926  totalBalance += msg.value */\n      dup3\n      dup3\n      sload\n      tag_24\n      swap2\n      swap1\n      tag_25\n      jump\t// in\n    tag_24:\n      swap3\n      pop\n      pop\n      dup2\n      swap1\n      sstore\n      pop\n        /* \"contracts/cookie-jar.sol\":4950:4960  msg.sender */\n      caller\n        /* \"contracts/cookie-jar.sol\":4942:4972  Deposit(msg.sender, msg.value) */\n      0xffffffffffffffffffffffffffffffffffffffff\n      and\n      0xe1fffcc4923d04b559f4d29a8bfc6cda04eb5b0d3c460751c2402c5c5cc9109c\n        /* \"contracts/cookie-jar.sol\":4962:4971  msg.value */\n      callvalue\n        /* \"contracts/cookie-jar.sol\":4942:4972  Deposit(msg.sender, msg.value) */\n      mload(0x40)\n      tag_26\n      swap2\n      swap1\n      tag_27\n      jump\t// in\n    tag_26:\n      mload(0x40)\n      dup1\n      swap2\n      sub\n      swap1\n      log2\n        /* \"contracts/cookie-jar.sol\":367:4983  contract nCookieJar is OwnableUpgradeable {... */\n      stop\n    tag_2:\n      0x00\n      dup1\n      revert\n        /* \"contracts/cookie-jar.sol\":773:819  mapping(address => uint256) public lastClaimed */\n    tag_3:\n      callvalue\n      dup1\n      iszero\n      tag_28\n      jumpi\n      0x00\n      dup1\n      revert\n    tag_28:\n      pop\n      tag_29\n      0x04\n      dup1\n      calldatasize\n      sub\n      dup2\n      add\n      swap1\n      tag_30\n      swap2\n      swap1\n      tag_31\n      jump\t// in\n    tag_30:\n      tag_32\n      jump\t// in\n    tag_29:\n      mload(0x40)\n      tag_33\n      swap2\n      swap1\n      tag_27\n      jump\t// in\n    tag_33:\n      mload(0x40)\n      dup1\n      swap2\n      sub\n      swap1\n      return\n        /* \"contracts/cookie-jar.sol\":4756:4855  function setScorer(address _scorer) external onlyOwner {... */\n    tag_4:\n      callvalue\n      dup1\n      iszero\n      tag_34\n      jumpi\n      0x00\n      dup1\n      revert\n    tag_34:\n      pop\n      tag_35\n      0x04\n      dup1\n      calldatasize\n      sub\n      dup2\n      add\n      swap1\n      tag_36\n      swap2\n      swap1\n      tag_31\n      jump\t// in\n    tag_36:\n      tag_37\n      jump\t// in\n    tag_35:\n      stop\n        /* \"contracts/cookie-jar.sol\":4290:4748  function withdraw(uint256 amount) external onlyOwner {... */\n    tag_5:\n      callvalue\n      dup1\n      iszero\n      tag_38\n      jumpi\n      0x00\n      dup1\n      revert\n    tag_38:\n      pop\n      tag_39\n      0x04\n      dup1\n      calldatasize\n      sub\n      dup2\n      add\n      swap1\n      tag_40\n      swap2\n      swap1\n      tag_41\n      jump\t// in\n    tag_40:\n      tag_42\n      jump\t// in\n    tag_39:\n      stop\n        /* \"contracts/cookie-jar.sol\":3154:3944  function claim(uint256 amount) external {... */\n    tag_6:\n      callvalue\n      dup1\n      iszero\n      tag_43\n      jumpi\n      0x00\n      dup1\n      revert\n    tag_43:\n      pop\n      tag_44\n      0x04\n      dup1\n      calldatasize\n      sub\n      dup2\n      add\n      swap1\n      tag_45\n      swap2\n      swap1\n      tag_41\n      jump\t// in\n    tag_45:\n      tag_46\n      jump\t// in\n    tag_44:\n      stop\n        /* \"contracts/cookie-jar.sol\":583:608  uint256 public dailyLimit */\n    tag_7:\n      callvalue\n      dup1\n      iszero\n      tag_47\n      jumpi\n      0x00\n      dup1\n      revert\n    tag_47:\n      pop\n      tag_48\n      tag_49\n      jump\t// in\n    tag_48:\n      mload(0x40)\n      tag_50\n      swap2\n      swap1\n      tag_27\n      jump\t// in\n    tag_50:\n      mload(0x40)\n      dup1\n      swap2\n      sub\n      swap1\n      return\n        /* \"@openzeppelin/contracts-upgradeable/access/OwnableUpgradeable.sol\":3155:3256  function renounceOwnership() public virtual onlyOwner {... */\n    tag_8:\n      callvalue\n      dup1\n      iszero\n      tag_51\n      jumpi\n      0x00\n      dup1\n      revert\n    tag_51:\n      pop\n      tag_52\n      tag_53\n      jump\t// in\n    tag_52:\n      stop\n        /* \"contracts/cookie-jar.sol\":519:540  IScorer public scorer */\n    tag_9:\n      callvalue\n      dup1\n      iszero\n      tag_54\n      jumpi\n      0x00\n      dup1\n      revert\n    tag_54:\n      pop\n      tag_55\n      tag_56\n      jump\t// in\n    tag_55:\n      mload(0x40)\n      tag_57\n      swap2\n      swap1\n      tag_58\n      jump\t// in\n    tag_57:\n      mload(0x40)\n      dup1\n      swap2\n      sub\n      swap1\n      return\n        /* \"@openzeppelin/contracts-upgradeable/access/OwnableUpgradeable.sol\":2441:2585  function owner() public view virtual returns (address) {... */\n    tag_10:\n      callvalue\n      dup1\n      iszero\n      tag_59\n      jumpi\n      0x00\n      dup1\n      revert\n    tag_59:\n      pop\n      tag_60\n      tag_61\n      jump\t// in\n    tag_60:\n      mload(0x40)\n      tag_62\n      swap2\n      swap1\n      tag_63\n      jump\t// in\n    tag_62:\n      mload(0x40)\n      dup1\n      swap2\n      sub\n      swap1\n      return\n        /* \"contracts/cookie-jar.sol\":4106:4282  function setScoreRequired(uint256 newScoreRequired) external onlyOwner {... */\n    tag_11:\n      callvalue\n      dup1\n      iszero\n      tag_64\n      jumpi\n      0x00\n      dup1\n      revert\n    tag_64:\n      pop\n      tag_65\n      0x04\n      dup1\n      calldatasize\n      sub\n      dup2\n      add\n      swap1\n      tag_66\n      swap2\n      swap1\n      tag_41\n      jump\t// in\n    tag_66:\n      tag_67\n      jump\t// in\n    tag_65:\n      stop\n        /* \"contracts/cookie-jar.sol\":641:668  uint256 public totalBalance */\n    tag_12:\n      callvalue\n      dup1\n      iszero\n      tag_68\n      jumpi\n      0x00\n      dup1\n      revert\n    tag_68:\n      pop\n      tag_69\n      tag_70\n      jump\t// in\n    tag_69:\n      mload(0x40)\n      tag_71\n      swap2\n      swap1\n      tag_27\n      jump\t// in\n    tag_71:\n      mload(0x40)\n      dup1\n      swap2\n      sub\n      swap1\n      return\n        /* \"contracts/cookie-jar.sol\":1953:2353  function deposit(uint256 amount) external payable {... */\n    tag_13:\n      tag_72\n      0x04\n      dup1\n      calldatasize\n      sub\n      dup2\n      add\n      swap1\n      tag_73\n      swap2\n      swap1\n      tag_41\n      jump\t// in\n    tag_73:\n      tag_74\n      jump\t// in\n    tag_72:\n      stop\n        /* \"contracts/cookie-jar.sol\":703:731  uint256 public scoreRequired */\n    tag_14:\n      callvalue\n      dup1\n      iszero\n      tag_75\n      jumpi\n      0x00\n      dup1\n      revert\n    tag_75:\n      pop\n      tag_76\n      tag_77\n      jump\t// in\n    tag_76:\n      mload(0x40)\n      tag_78\n      swap2\n      swap1\n      tag_27\n      jump\t// in\n    tag_78:\n      mload(0x40)\n      dup1\n      swap2\n      sub\n      swap1\n      return\n        /* \"@openzeppelin/contracts-upgradeable/access/OwnableUpgradeable.sol\":3405:3620  function transferOwnership(address newOwner) public virtual onlyOwner {... */\n    tag_15:\n      callvalue\n      dup1\n      iszero\n      tag_79\n      jumpi\n      0x00\n      dup1\n      revert\n    tag_79:\n      pop\n      tag_80\n      0x04\n      dup1\n      calldatasize\n      sub\n      dup2\n      add\n      swap1\n      tag_81\n      swap2\n      swap1\n      tag_31\n      jump\t// in\n    tag_81:\n      tag_82\n      jump\t// in\n    tag_80:\n      stop\n        /* \"contracts/cookie-jar.sol\":1332:1730  function initialize(... */\n    tag_16:\n      callvalue\n      dup1\n      iszero\n      tag_83\n      jumpi\n      0x00\n      dup1\n      revert\n    tag_83:\n      pop\n      tag_84\n      0x04\n      dup1\n      calldatasize\n      sub\n      dup2\n      add\n      swap1\n      tag_85\n      swap2\n      swap1\n      tag_86\n      jump\t// in\n    tag_85:\n      tag_87\n      jump\t// in\n    tag_84:\n      stop\n        /* \"contracts/cookie-jar.sol\":3952:4098  function updateDailyLimit(uint256 newLimit) external onlyOwner {... */\n    tag_17:\n      callvalue\n      dup1\n      iszero\n      tag_88\n      jumpi\n      0x00\n      dup1\n      revert\n    tag_88:\n      pop\n      tag_89\n      0x04\n      dup1\n      calldatasize\n      sub\n      dup2\n      add\n      swap1\n      tag_90\n      swap2\n      swap1\n      tag_41\n      jump\t// in\n    tag_90:\n      tag_91\n      jump\t// in\n    tag_89:\n      stop\n        /* \"contracts/cookie-jar.sol\":449:469  address public token */\n    tag_18:\n      callvalue\n      dup1\n      iszero\n      tag_92\n      jumpi\n      0x00\n      dup1\n      revert\n    tag_92:\n      pop\n      tag_93\n      tag_94\n      jump\t// in\n    tag_93:\n      mload(0x40)\n      tag_95\n      swap2\n      swap1\n      tag_63\n      jump\t// in\n    tag_95:\n      mload(0x40)\n      dup1\n      swap2\n      sub\n      swap1\n      return\n        /* \"contracts/cookie-jar.sol\":773:819  mapping(address => uint256) public lastClaimed */\n    tag_32:\n      mstore(0x20, 0x05)\n      dup1\n      0x00\n      mstore\n      keccak256(0x00, 0x40)\n      0x00\n      swap2\n      pop\n      swap1\n      pop\n      sload\n      dup2\n      jump\t// out\n        /* \"contracts/cookie-jar.sol\":4756:4855  function setScorer(address _scorer) external onlyOwner {... */\n    tag_37:\n        /* \"@openzeppelin/contracts-upgradeable/access/OwnableUpgradeable.sol\":2334:2347  _checkOwner() */\n      tag_97\n        /* \"@openzeppelin/contracts-upgradeable/access/OwnableUpgradeable.sol\":2334:2345  _checkOwner */\n      tag_98\n        /* \"@openzeppelin/contracts-upgradeable/access/OwnableUpgradeable.sol\":2334:2347  _checkOwner() */\n      jump\t// in\n    tag_97:\n        /* \"contracts/cookie-jar.sol\":4839:4846  _scorer */\n      dup1\n        /* \"contracts/cookie-jar.sol\":4822:4828  scorer */\n      0x01\n      0x00\n        /* \"contracts/cookie-jar.sol\":4822:4847  scorer = IScorer(_scorer) */\n      0x0100\n      exp\n      dup2\n      sload\n      dup2\n      0xffffffffffffffffffffffffffffffffffffffff\n      mul\n      not\n      and\n      swap1\n      dup4\n      0xffffffffffffffffffffffffffffffffffffffff\n      and\n      mul\n      or\n      swap1\n      sstore\n      pop\n        /* \"contracts/cookie-jar.sol\":4756:4855  function setScorer(address _scorer) external onlyOwner {... */\n      pop\n      jump\t// out\n        /* \"contracts/cookie-jar.sol\":4290:4748  function withdraw(uint256 amount) external onlyOwner {... */\n    tag_42:\n        /* \"@openzeppelin/contracts-upgradeable/access/OwnableUpgradeable.sol\":2334:2347  _checkOwner() */\n      tag_101\n        /* \"@openzeppelin/contracts-upgradeable/access/OwnableUpgradeable.sol\":2334:2345  _checkOwner */\n      tag_98\n        /* \"@openzeppelin/contracts-upgradeable/access/OwnableUpgradeable.sol\":2334:2347  _checkOwner() */\n      jump\t// in\n    tag_101:\n        /* \"contracts/cookie-jar.sol\":4372:4384  totalBalance */\n      sload(0x03)\n        /* \"contracts/cookie-jar.sol\":4362:4368  amount */\n      dup2\n        /* \"contracts/cookie-jar.sol\":4362:4384  amount <= totalBalance */\n      gt\n      iszero\n        /* \"contracts/cookie-jar.sol\":4354:4407  require(amount <= totalBalance, \"Insufficient funds\") */\n      tag_103\n      jumpi\n      mload(0x40)\n      0x08c379a000000000000000000000000000000000000000000000000000000000\n      dup2\n      mstore\n      0x04\n      add\n      tag_104\n      swap1\n      tag_105\n      jump\t// in\n    tag_104:\n      mload(0x40)\n      dup1\n      swap2\n      sub\n      swap1\n      revert\n    tag_103:\n        /* \"contracts/cookie-jar.sol\":4436:4442  amount */\n      dup1\n        /* \"contracts/cookie-jar.sol\":4420:4432  totalBalance */\n      0x03\n      0x00\n        /* \"contracts/cookie-jar.sol\":4420:4442  totalBalance -= amount */\n      dup3\n      dup3\n      sload\n      tag_106\n      swap2\n      swap1\n      tag_107\n      jump\t// in\n    tag_106:\n      swap3\n      pop\n      pop\n      dup2\n      swap1\n      sstore\n      pop\n        /* \"contracts/cookie-jar.sol\":4474:4475  0 */\n      0x00\n        /* \"contracts/cookie-jar.sol\":4457:4476  token == address(0) */\n      0xffffffffffffffffffffffffffffffffffffffff\n      and\n        /* \"contracts/cookie-jar.sol\":4457:4462  token */\n      0x00\n      dup1\n      sload\n      swap1\n      0x0100\n      exp\n      swap1\n      div\n      0xffffffffffffffffffffffffffffffffffffffff\n      and\n        /* \"contracts/cookie-jar.sol\":4457:4476  token == address(0) */\n      0xffffffffffffffffffffffffffffffffffffffff\n      and\n      sub\n        /* \"contracts/cookie-jar.sol\":4453:4741  if (token == address(0)) {... */\n      tag_108\n      jumpi\n        /* \"contracts/cookie-jar.sol\":4523:4535  bool success */\n      0x00\n        /* \"contracts/cookie-jar.sol\":4541:4548  owner() */\n      tag_109\n        /* \"contracts/cookie-jar.sol\":4541:4546  owner */\n      tag_61\n        /* \"contracts/cookie-jar.sol\":4541:4548  owner() */\n      jump\t// in\n    tag_109:\n        /* \"contracts/cookie-jar.sol\":4541:4553  owner().call */\n      0xffffffffffffffffffffffffffffffffffffffff\n      and\n        /* \"contracts/cookie-jar.sol\":4561:4567  amount */\n      dup3\n        /* \"contracts/cookie-jar.sol\":4541:4572  owner().call{value: amount}(\"\") */\n      mload(0x40)\n      tag_110\n      swap1\n      tag_111\n      jump\t// in\n    tag_110:\n      0x00\n      mload(0x40)\n      dup1\n      dup4\n      sub\n      dup2\n      dup6\n      dup8\n      gas\n      call\n      swap3\n      pop\n      pop\n      pop\n      returndatasize\n      dup1\n      0x00\n      dup2\n      eq\n      tag_114\n      jumpi\n      mload(0x40)\n      swap2\n      pop\n      and(add(returndatasize, 0x3f), not(0x1f))\n      dup3\n      add\n      0x40\n      mstore\n      returndatasize\n      dup3\n      mstore\n      returndatasize\n      0x00\n      0x20\n      dup5\n      add\n      returndatacopy\n      jump(tag_113)\n    tag_114:\n      0x60\n      swap2\n      pop\n    tag_113:\n      pop\n        /* \"contracts/cookie-jar.sol\":4522:4572  (bool success, ) = owner().call{value: amount}(\"\") */\n      pop\n      swap1\n      pop\n        /* \"contracts/cookie-jar.sol\":4595:4602  success */\n      dup1\n        /* \"contracts/cookie-jar.sol\":4587:4626  require(success, \"ETH transfer failed\") */\n      tag_115\n      jumpi\n      mload(0x40)\n      0x08c379a000000000000000000000000000000000000000000000000000000000\n      dup2\n      mstore\n      0x04\n      add\n      tag_116\n      swap1\n      tag_117\n      jump\t// in\n    tag_116:\n      mload(0x40)\n      dup1\n      swap2\n      sub\n      swap1\n      revert\n    tag_115:\n        /* \"contracts/cookie-jar.sol\":4478:4638  {... */\n      pop\n        /* \"contracts/cookie-jar.sol\":4453:4741  if (token == address(0)) {... */\n      jump(tag_118)\n    tag_108:\n        /* \"contracts/cookie-jar.sol\":4697:4702  token */\n      0x00\n      dup1\n      sload\n      swap1\n      0x0100\n      exp\n      swap1\n      div\n      0xffffffffffffffffffffffffffffffffffffffff\n      and\n        /* \"contracts/cookie-jar.sol\":4690:4712  IERC20(token).transfer */\n      0xffffffffffffffffffffffffffffffffffffffff\n      and\n      0xa9059cbb\n        /* \"contracts/cookie-jar.sol\":4713:4720  owner() */\n      tag_119\n        /* \"contracts/cookie-jar.sol\":4713:4718  owner */\n      tag_61\n        /* \"contracts/cookie-jar.sol\":4713:4720  owner() */\n      jump\t// in\n    tag_119:\n        /* \"contracts/cookie-jar.sol\":4722:4728  amount */\n      dup4\n        /* \"contracts/cookie-jar.sol\":4690:4729  IERC20(token).transfer(owner(), amount) */\n      mload(0x40)\n      dup4\n      0xffffffff\n      and\n      0xe0\n      shl\n      dup2\n      mstore\n      0x04\n      add\n      tag_120\n      swap3\n      swap2\n      swap1\n      tag_121\n      jump\t// in\n    tag_120:\n      0x20\n      mload(0x40)\n      dup1\n      dup4\n      sub\n      dup2\n      0x00\n      dup8\n      gas\n      call\n      iszero\n      dup1\n      iszero\n      tag_123\n      jumpi\n      returndatasize\n      0x00\n      dup1\n      returndatacopy\n      revert(0x00, returndatasize)\n    tag_123:\n      pop\n      pop\n      pop\n      pop\n      mload(0x40)\n      returndatasize\n      not(0x1f)\n      0x1f\n      dup3\n      add\n      and\n      dup3\n      add\n      dup1\n      0x40\n      mstore\n      pop\n      dup2\n      add\n      swap1\n      tag_124\n      swap2\n      swap1\n      tag_125\n      jump\t// in\n    tag_124:\n      pop\n        /* \"contracts/cookie-jar.sol\":4453:4741  if (token == address(0)) {... */\n    tag_118:\n        /* \"contracts/cookie-jar.sol\":4290:4748  function withdraw(uint256 amount) external onlyOwner {... */\n      pop\n      jump\t// out\n        /* \"contracts/cookie-jar.sol\":3154:3944  function claim(uint256 amount) external {... */\n    tag_46:\n        /* \"contracts/cookie-jar.sol\":3223:3233  dailyLimit */\n      sload(0x02)\n        /* \"contracts/cookie-jar.sol\":3213:3219  amount */\n      dup2\n        /* \"contracts/cookie-jar.sol\":3213:3233  amount <= dailyLimit */\n      gt\n      iszero\n        /* \"contracts/cookie-jar.sol\":3205:3257  require(amount <= dailyLimit, \"Exceeds daily limit\") */\n      tag_127\n      jumpi\n      mload(0x40)\n      0x08c379a000000000000000000000000000000000000000000000000000000000\n      dup2\n      mstore\n      0x04\n      add\n      tag_128\n      swap1\n      tag_129\n      jump\t// in\n    tag_128:\n      mload(0x40)\n      dup1\n      swap2\n      sub\n      swap1\n      revert\n    tag_127:\n        /* \"contracts/cookie-jar.sol\":3321:3327  1 days */\n      0x015180\n        /* \"contracts/cookie-jar.sol\":3294:3305  lastClaimed */\n      0x05\n        /* \"contracts/cookie-jar.sol\":3294:3317  lastClaimed[msg.sender] */\n      0x00\n        /* \"contracts/cookie-jar.sol\":3306:3316  msg.sender */\n      caller\n        /* \"contracts/cookie-jar.sol\":3294:3317  lastClaimed[msg.sender] */\n      0xffffffffffffffffffffffffffffffffffffffff\n      and\n      0xffffffffffffffffffffffffffffffffffffffff\n      and\n      dup2\n      mstore\n      0x20\n      add\n      swap1\n      dup2\n      mstore\n      0x20\n      add\n      0x00\n      keccak256\n      sload\n        /* \"contracts/cookie-jar.sol\":3276:3291  block.timestamp */\n      timestamp\n        /* \"contracts/cookie-jar.sol\":3276:3317  block.timestamp - lastClaimed[msg.sender] */\n      tag_130\n      swap2\n      swap1\n      tag_107\n      jump\t// in\n    tag_130:\n        /* \"contracts/cookie-jar.sol\":3276:3327  block.timestamp - lastClaimed[msg.sender] >= 1 days */\n      lt\n      iszero\n        /* \"contracts/cookie-jar.sol\":3268:3357  require(block.timestamp - lastClaimed[msg.sender] >= 1 days, \"Daily claim limit reached\") */\n      tag_131\n      jumpi\n      mload(0x40)\n      0x08c379a000000000000000000000000000000000000000000000000000000000\n      dup2\n      mstore\n      0x04\n      add\n      tag_132\n      swap1\n      tag_133\n      jump\t// in\n    tag_132:\n      mload(0x40)\n      dup1\n      swap2\n      sub\n      swap1\n      revert\n    tag_131:\n        /* \"contracts/cookie-jar.sol\":3404:3417  scoreRequired */\n      sload(0x04)\n        /* \"contracts/cookie-jar.sol\":3376:3382  scorer */\n      0x01\n      0x00\n      swap1\n      sload\n      swap1\n      0x0100\n      exp\n      swap1\n      div\n      0xffffffffffffffffffffffffffffffffffffffff\n      and\n        /* \"contracts/cookie-jar.sol\":3376:3388  scorer.score */\n      0xffffffffffffffffffffffffffffffffffffffff\n      and\n      0x776f3843\n        /* \"contracts/cookie-jar.sol\":3389:3399  msg.sender */\n      caller\n        /* \"contracts/cookie-jar.sol\":3376:3400  scorer.score(msg.sender) */\n      mload(0x40)\n      dup3\n      0xffffffff\n      and\n      0xe0\n      shl\n      dup2\n      mstore\n      0x04\n      add\n      tag_134\n      swap2\n      swap1\n      tag_63\n      jump\t// in\n    tag_134:\n      0x20\n      mload(0x40)\n      dup1\n      dup4\n      sub\n      dup2\n      dup7\n      gas\n      staticcall\n      iszero\n      dup1\n      iszero\n      tag_136\n      jumpi\n      returndatasize\n      0x00\n      dup1\n      returndatacopy\n      revert(0x00, returndatasize)\n    tag_136:\n      pop\n      pop\n      pop\n      pop\n      mload(0x40)\n      returndatasize\n      not(0x1f)\n      0x1f\n      dup3\n      add\n      and\n      dup3\n      add\n      dup1\n      0x40\n      mstore\n      pop\n      dup2\n      add\n      swap1\n      tag_137\n      swap2\n      swap1\n      tag_138\n      jump\t// in\n    tag_137:\n        /* \"contracts/cookie-jar.sol\":3376:3417  scorer.score(msg.sender) >= scoreRequired */\n      lt\n      iszero\n        /* \"contracts/cookie-jar.sol\":3368:3435  require(scorer.score(msg.sender) >= scoreRequired, \"Score too low\") */\n      tag_139\n      jumpi\n      mload(0x40)\n      0x08c379a000000000000000000000000000000000000000000000000000000000\n      dup2\n      mstore\n      0x04\n      add\n      tag_140\n      swap1\n      tag_141\n      jump\t// in\n    tag_140:\n      mload(0x40)\n      dup1\n      swap2\n      sub\n      swap1\n      revert\n    tag_139:\n        /* \"contracts/cookie-jar.sol\":3464:3476  totalBalance */\n      sload(0x03)\n        /* \"contracts/cookie-jar.sol\":3454:3460  amount */\n      dup2\n        /* \"contracts/cookie-jar.sol\":3454:3476  amount <= totalBalance */\n      gt\n      iszero\n        /* \"contracts/cookie-jar.sol\":3446:3506  require(amount <= totalBalance, \"Insufficient funds in jar\") */\n      tag_142\n      jumpi\n      mload(0x40)\n      0x08c379a000000000000000000000000000000000000000000000000000000000\n      dup2\n      mstore\n      0x04\n      add\n      tag_143\n      swap1\n      tag_144\n      jump\t// in\n    tag_143:\n      mload(0x40)\n      dup1\n      swap2\n      sub\n      swap1\n      revert\n    tag_142:\n        /* \"contracts/cookie-jar.sol\":3545:3560  block.timestamp */\n      timestamp\n        /* \"contracts/cookie-jar.sol\":3519:3530  lastClaimed */\n      0x05\n        /* \"contracts/cookie-jar.sol\":3519:3542  lastClaimed[msg.sender] */\n      0x00\n        /* \"contracts/cookie-jar.sol\":3531:3541  msg.sender */\n      caller\n        /* \"contracts/cookie-jar.sol\":3519:3542  lastClaimed[msg.sender] */\n      0xffffffffffffffffffffffffffffffffffffffff\n      and\n      0xffffffffffffffffffffffffffffffffffffffff\n      and\n      dup2\n      mstore\n      0x20\n      add\n      swap1\n      dup2\n      mstore\n      0x20\n      add\n      0x00\n      keccak256\n        /* \"contracts/cookie-jar.sol\":3519:3560  lastClaimed[msg.sender] = block.timestamp */\n      dup2\n      swap1\n      sstore\n      pop\n        /* \"contracts/cookie-jar.sol\":3587:3593  amount */\n      dup1\n        /* \"contracts/cookie-jar.sol\":3571:3583  totalBalance */\n      0x03\n      0x00\n        /* \"contracts/cookie-jar.sol\":3571:3593  totalBalance -= amount */\n      dup3\n      dup3\n      sload\n      tag_145\n      swap2\n      swap1\n      tag_107\n      jump\t// in\n    tag_145:\n      swap3\n      pop\n      pop\n      dup2\n      swap1\n      sstore\n      pop\n        /* \"contracts/cookie-jar.sol\":3627:3628  0 */\n      0x00\n        /* \"contracts/cookie-jar.sol\":3610:3629  token == address(0) */\n      0xffffffffffffffffffffffffffffffffffffffff\n      and\n        /* \"contracts/cookie-jar.sol\":3610:3615  token */\n      0x00\n      dup1\n      sload\n      swap1\n      0x0100\n      exp\n      swap1\n      div\n      0xffffffffffffffffffffffffffffffffffffffff\n      and\n        /* \"contracts/cookie-jar.sol\":3610:3629  token == address(0) */\n      0xffffffffffffffffffffffffffffffffffffffff\n      and\n      sub\n        /* \"contracts/cookie-jar.sol\":3606:3892  if (token == address(0)) {... */\n      tag_146\n      jumpi\n        /* \"contracts/cookie-jar.sol\":3672:3684  bool success */\n      0x00\n        /* \"contracts/cookie-jar.sol\":3690:3700  msg.sender */\n      caller\n        /* \"contracts/cookie-jar.sol\":3690:3705  msg.sender.call */\n      0xffffffffffffffffffffffffffffffffffffffff\n      and\n        /* \"contracts/cookie-jar.sol\":3713:3719  amount */\n      dup3\n        /* \"contracts/cookie-jar.sol\":3690:3724  msg.sender.call{value: amount}(\"\") */\n      mload(0x40)\n      tag_147\n      swap1\n      tag_111\n      jump\t// in\n    tag_147:\n      0x00\n      mload(0x40)\n      dup1\n      dup4\n      sub\n      dup2\n      dup6\n      dup8\n      gas\n      call\n      swap3\n      pop\n      pop\n      pop\n      returndatasize\n      dup1\n      0x00\n      dup2\n      eq\n      tag_150\n      jumpi\n      mload(0x40)\n      swap2\n      pop\n      and(add(returndatasize, 0x3f), not(0x1f))\n      dup3\n      add\n      0x40\n      mstore\n      returndatasize\n      dup3\n      mstore\n      returndatasize\n      0x00\n      0x20\n      dup5\n      add\n      returndatacopy\n      jump(tag_149)\n    tag_150:\n      0x60\n      swap2\n      pop\n    tag_149:\n      pop\n        /* \"contracts/cookie-jar.sol\":3671:3724  (bool success, ) = msg.sender.call{value: amount}(\"\") */\n      pop\n      swap1\n      pop\n        /* \"contracts/cookie-jar.sol\":3747:3754  success */\n      dup1\n        /* \"contracts/cookie-jar.sol\":3739:3778  require(success, \"ETH transfer failed\") */\n      tag_151\n      jumpi\n      mload(0x40)\n      0x08c379a000000000000000000000000000000000000000000000000000000000\n      dup2\n      mstore\n      0x04\n      add\n      tag_152\n      swap1\n      tag_117\n      jump\t// in\n    tag_152:\n      mload(0x40)\n      dup1\n      swap2\n      sub\n      swap1\n      revert\n    tag_151:\n        /* \"contracts/cookie-jar.sol\":3631:3790  {... */\n      pop\n        /* \"contracts/cookie-jar.sol\":3606:3892  if (token == address(0)) {... */\n      jump(tag_153)\n    tag_146:\n        /* \"contracts/cookie-jar.sol\":3845:3850  token */\n      0x00\n      dup1\n      sload\n      swap1\n      0x0100\n      exp\n      swap1\n      div\n      0xffffffffffffffffffffffffffffffffffffffff\n      and\n        /* \"contracts/cookie-jar.sol\":3838:3860  IERC20(token).transfer */\n      0xffffffffffffffffffffffffffffffffffffffff\n      and\n      0xa9059cbb\n        /* \"contracts/cookie-jar.sol\":3861:3871  msg.sender */\n      caller\n        /* \"contracts/cookie-jar.sol\":3873:3879  amount */\n      dup4\n        /* \"contracts/cookie-jar.sol\":3838:3880  IERC20(token).transfer(msg.sender, amount) */\n      mload(0x40)\n      dup4\n      0xffffffff\n      and\n      0xe0\n      shl\n      dup2\n      mstore\n      0x04\n      add\n      tag_154\n      swap3\n      swap2\n      swap1\n      tag_121\n      jump\t// in\n    tag_154:\n      0x20\n      mload(0x40)\n      dup1\n      dup4\n      sub\n      dup2\n      0x00\n      dup8\n      gas\n      call\n      iszero\n      dup1\n      iszero\n      tag_156\n      jumpi\n      returndatasize\n      0x00\n      dup1\n      returndatacopy\n      revert(0x00, returndatasize)\n    tag_156:\n      pop\n      pop\n      pop\n      pop\n      mload(0x40)\n      returndatasize\n      not(0x1f)\n      0x1f\n      dup3\n      add\n      and\n      dup3\n      add\n      dup1\n      0x40\n      mstore\n      pop\n      dup2\n      add\n      swap1\n      tag_157\n      swap2\n      swap1\n      tag_125\n      jump\t// in\n    tag_157:\n      pop\n        /* \"contracts/cookie-jar.sol\":3606:3892  if (token == address(0)) {... */\n    tag_153:\n        /* \"contracts/cookie-jar.sol\":3917:3927  msg.sender */\n      caller\n        /* \"contracts/cookie-jar.sol\":3909:3936  Claimed(msg.sender, amount) */\n      0xffffffffffffffffffffffffffffffffffffffff\n      and\n      0xd8138f8a3f377c5259ca548e70e4c2de94f129f5a11036a15b69513cba2b426a\n        /* \"contracts/cookie-jar.sol\":3929:3935  amount */\n      dup3\n        /* \"contracts/cookie-jar.sol\":3909:3936  Claimed(msg.sender, amount) */\n      mload(0x40)\n      tag_158\n      swap2\n      swap1\n      tag_27\n      jump\t// in\n    tag_158:\n      mload(0x40)\n      dup1\n      swap2\n      sub\n      swap1\n      log2\n        /* \"contracts/cookie-jar.sol\":3154:3944  function claim(uint256 amount) external {... */\n      pop\n      jump\t// out\n        /* \"contracts/cookie-jar.sol\":583:608  uint256 public dailyLimit */\n    tag_49:\n      sload(0x02)\n      dup2\n      jump\t// out\n        /* \"@openzeppelin/contracts-upgradeable/access/OwnableUpgradeable.sol\":3155:3256  function renounceOwnership() public virtual onlyOwner {... */\n    tag_53:\n        /* \"@openzeppelin/contracts-upgradeable/access/OwnableUpgradeable.sol\":2334:2347  _checkOwner() */\n      tag_160\n        /* \"@openzeppelin/contracts-upgradeable/access/OwnableUpgradeable.sol\":2334:2345  _checkOwner */\n      tag_98\n        /* \"@openzeppelin/contracts-upgradeable/access/OwnableUpgradeable.sol\":2334:2347  _checkOwner() */\n      jump\t// in\n    tag_160:\n        /* \"@openzeppelin/contracts-upgradeable/access/OwnableUpgradeable.sol\":3219:3249  _transferOwnership(address(0)) */\n      tag_162\n        /* \"@openzeppelin/contracts-upgradeable/access/OwnableUpgradeable.sol\":3246:3247  0 */\n      0x00\n        /* \"@openzeppelin/contracts-upgradeable/access/OwnableUpgradeable.sol\":3219:3237  _transferOwnership */\n      tag_163\n        /* \"@openzeppelin/contracts-upgradeable/access/OwnableUpgradeable.sol\":3219:3249  _transferOwnership(address(0)) */\n      jump\t// in\n    tag_162:\n        /* \"@openzeppelin/contracts-upgradeable/access/OwnableUpgradeable.sol\":3155:3256  function renounceOwnership() public virtual onlyOwner {... */\n      jump\t// out\n        /* \"contracts/cookie-jar.sol\":519:540  IScorer public scorer */\n    tag_56:\n      0x01\n      0x00\n      swap1\n      sload\n      swap1\n      0x0100\n      exp\n      swap1\n      div\n      0xffffffffffffffffffffffffffffffffffffffff\n      and\n      dup2\n      jump\t// out\n        /* \"@openzeppelin/contracts-upgradeable/access/OwnableUpgradeable.sol\":2441:2585  function owner() public view virtual returns (address) {... */\n    tag_61:\n        /* \"@openzeppelin/contracts-upgradeable/access/OwnableUpgradeable.sol\":2487:2494  address */\n      0x00\n        /* \"@openzeppelin/contracts-upgradeable/access/OwnableUpgradeable.sol\":2506:2530  OwnableStorage storage $ */\n      dup1\n        /* \"@openzeppelin/contracts-upgradeable/access/OwnableUpgradeable.sol\":2533:2553  _getOwnableStorage() */\n      tag_165\n        /* \"@openzeppelin/contracts-upgradeable/access/OwnableUpgradeable.sol\":2533:2551  _getOwnableStorage */\n      tag_166\n        /* \"@openzeppelin/contracts-upgradeable/access/OwnableUpgradeable.sol\":2533:2553  _getOwnableStorage() */\n      jump\t// in\n    tag_165:\n        /* \"@openzeppelin/contracts-upgradeable/access/OwnableUpgradeable.sol\":2506:2553  OwnableStorage storage $ = _getOwnableStorage() */\n      swap1\n      pop\n        /* \"@openzeppelin/contracts-upgradeable/access/OwnableUpgradeable.sol\":2570:2571  $ */\n      dup1\n        /* \"@openzeppelin/contracts-upgradeable/access/OwnableUpgradeable.sol\":2570:2578  $._owner */\n      0x00\n      add\n      0x00\n      swap1\n      sload\n      swap1\n      0x0100\n      exp\n      swap1\n      div\n      0xffffffffffffffffffffffffffffffffffffffff\n      and\n        /* \"@openzeppelin/contracts-upgradeable/access/OwnableUpgradeable.sol\":2563:2578  return $._owner */\n      swap2\n      pop\n      pop\n        /* \"@openzeppelin/contracts-upgradeable/access/OwnableUpgradeable.sol\":2441:2585  function owner() public view virtual returns (address) {... */\n      swap1\n      jump\t// out\n        /* \"contracts/cookie-jar.sol\":4106:4282  function setScoreRequired(uint256 newScoreRequired) external onlyOwner {... */\n    tag_67:\n        /* \"@openzeppelin/contracts-upgradeable/access/OwnableUpgradeable.sol\":2334:2347  _checkOwner() */\n      tag_168\n        /* \"@openzeppelin/contracts-upgradeable/access/OwnableUpgradeable.sol\":2334:2345  _checkOwner */\n      tag_98\n        /* \"@openzeppelin/contracts-upgradeable/access/OwnableUpgradeable.sol\":2334:2347  _checkOwner() */\n      jump\t// in\n    tag_168:\n        /* \"contracts/cookie-jar.sol\":4204:4220  newScoreRequired */\n      dup1\n        /* \"contracts/cookie-jar.sol\":4188:4201  scoreRequired */\n      0x04\n        /* \"contracts/cookie-jar.sol\":4188:4220  scoreRequired = newScoreRequired */\n      dup2\n      swap1\n      sstore\n      pop\n        /* \"contracts/cookie-jar.sol\":4236:4274  UpdatedScoreRequired(newScoreRequired) */\n      0xd98c5078430f16c83b85da9a630c27aac195dd3e768e25b102dfffa99f64b4d2\n        /* \"contracts/cookie-jar.sol\":4257:4273  newScoreRequired */\n      dup2\n        /* \"contracts/cookie-jar.sol\":4236:4274  UpdatedScoreRequired(newScoreRequired) */\n      mload(0x40)\n      tag_170\n      swap2\n      swap1\n      tag_27\n      jump\t// in\n    tag_170:\n      mload(0x40)\n      dup1\n      swap2\n      sub\n      swap1\n      log1\n        /* \"contracts/cookie-jar.sol\":4106:4282  function setScoreRequired(uint256 newScoreRequired) external onlyOwner {... */\n      pop\n      jump\t// out\n        /* \"contracts/cookie-jar.sol\":641:668  uint256 public totalBalance */\n    tag_70:\n      sload(0x03)\n      dup2\n      jump\t// out\n        /* \"contracts/cookie-jar.sol\":1953:2353  function deposit(uint256 amount) external payable {... */\n    tag_74:\n        /* \"contracts/cookie-jar.sol\":2035:2036  0 */\n      0x00\n        /* \"contracts/cookie-jar.sol\":2018:2037  token == address(0) */\n      0xffffffffffffffffffffffffffffffffffffffff\n      and\n        /* \"contracts/cookie-jar.sol\":2018:2023  token */\n      0x00\n      dup1\n      sload\n      swap1\n      0x0100\n      exp\n      swap1\n      div\n      0xffffffffffffffffffffffffffffffffffffffff\n      and\n        /* \"contracts/cookie-jar.sol\":2018:2037  token == address(0) */\n      0xffffffffffffffffffffffffffffffffffffffff\n      and\n      sub\n        /* \"contracts/cookie-jar.sol\":2014:2270  if (token == address(0)) {... */\n      tag_172\n      jumpi\n        /* \"contracts/cookie-jar.sol\":2103:2109  amount */\n      dup1\n        /* \"contracts/cookie-jar.sol\":2090:2099  msg.value */\n      callvalue\n        /* \"contracts/cookie-jar.sol\":2090:2109  msg.value == amount */\n      eq\n        /* \"contracts/cookie-jar.sol\":2082:2134  require(msg.value == amount, \"Incorrect ETH amount\") */\n      tag_173\n      jumpi\n      mload(0x40)\n      0x08c379a000000000000000000000000000000000000000000000000000000000\n      dup2\n      mstore\n      0x04\n      add\n      tag_174\n      swap1\n      tag_175\n      jump\t// in\n    tag_174:\n      mload(0x40)\n      dup1\n      swap2\n      sub\n      swap1\n      revert\n    tag_173:\n        /* \"contracts/cookie-jar.sol\":2014:2270  if (token == address(0)) {... */\n      jump(tag_176)\n    tag_172:\n        /* \"contracts/cookie-jar.sol\":2204:2209  token */\n      0x00\n      dup1\n      sload\n      swap1\n      0x0100\n      exp\n      swap1\n      div\n      0xffffffffffffffffffffffffffffffffffffffff\n      and\n        /* \"contracts/cookie-jar.sol\":2197:2223  IERC20(token).transferFrom */\n      0xffffffffffffffffffffffffffffffffffffffff\n      and\n      0x23b872dd\n        /* \"contracts/cookie-jar.sol\":2224:2234  msg.sender */\n      caller\n        /* \"contracts/cookie-jar.sol\":2244:2248  this */\n      address\n        /* \"contracts/cookie-jar.sol\":2251:2257  amount */\n      dup5\n        /* \"contracts/cookie-jar.sol\":2197:2258  IERC20(token).transferFrom(msg.sender, address(this), amount) */\n      mload(0x40)\n      dup5\n      0xffffffff\n      and\n      0xe0\n      shl\n      dup2\n      mstore\n      0x04\n      add\n      tag_177\n      swap4\n      swap3\n      swap2\n      swap1\n      tag_178\n      jump\t// in\n    tag_177:\n      0x20\n      mload(0x40)\n      dup1\n      dup4\n      sub\n      dup2\n      0x00\n      dup8\n      gas\n      call\n      iszero\n      dup1\n      iszero\n      tag_180\n      jumpi\n      returndatasize\n      0x00\n      dup1\n      returndatacopy\n      revert(0x00, returndatasize)\n    tag_180:\n      pop\n      pop\n      pop\n      pop\n      mload(0x40)\n      returndatasize\n      not(0x1f)\n      0x1f\n      dup3\n      add\n      and\n      dup3\n      add\n      dup1\n      0x40\n      mstore\n      pop\n      dup2\n      add\n      swap1\n      tag_181\n      swap2\n      swap1\n      tag_125\n      jump\t// in\n    tag_181:\n      pop\n        /* \"contracts/cookie-jar.sol\":2014:2270  if (token == address(0)) {... */\n    tag_176:\n        /* \"contracts/cookie-jar.sol\":2296:2302  amount */\n      dup1\n        /* \"contracts/cookie-jar.sol\":2280:2292  totalBalance */\n      0x03\n      0x00\n        /* \"contracts/cookie-jar.sol\":2280:2302  totalBalance += amount */\n      dup3\n      dup3\n      sload\n      tag_182\n      swap2\n      swap1\n      tag_25\n      jump\t// in\n    tag_182:\n      swap3\n      pop\n      pop\n      dup2\n      swap1\n      sstore\n      pop\n        /* \"contracts/cookie-jar.sol\":2326:2336  msg.sender */\n      caller\n        /* \"contracts/cookie-jar.sol\":2318:2345  Deposit(msg.sender, amount) */\n      0xffffffffffffffffffffffffffffffffffffffff\n      and\n      0xe1fffcc4923d04b559f4d29a8bfc6cda04eb5b0d3c460751c2402c5c5cc9109c\n        /* \"contracts/cookie-jar.sol\":2338:2344  amount */\n      dup3\n        /* \"contracts/cookie-jar.sol\":2318:2345  Deposit(msg.sender, amount) */\n      mload(0x40)\n      tag_183\n      swap2\n      swap1\n      tag_27\n      jump\t// in\n    tag_183:\n      mload(0x40)\n      dup1\n      swap2\n      sub\n      swap1\n      log2\n        /* \"contracts/cookie-jar.sol\":1953:2353  function deposit(uint256 amount) external payable {... */\n      pop\n      jump\t// out\n        /* \"contracts/cookie-jar.sol\":703:731  uint256 public scoreRequired */\n    tag_77:\n      sload(0x04)\n      dup2\n      jump\t// out\n        /* \"@openzeppelin/contracts-upgradeable/access/OwnableUpgradeable.sol\":3405:3620  function transferOwnership(address newOwner) public virtual onlyOwner {... */\n    tag_82:\n        /* \"@openzeppelin/contracts-upgradeable/access/OwnableUpgradeable.sol\":2334:2347  _checkOwner() */\n      tag_185\n        /* \"@openzeppelin/contracts-upgradeable/access/OwnableUpgradeable.sol\":2334:2345  _checkOwner */\n      tag_98\n        /* \"@openzeppelin/contracts-upgradeable/access/OwnableUpgradeable.sol\":2334:2347  _checkOwner() */\n      jump\t// in\n    tag_185:\n        /* \"@openzeppelin/contracts-upgradeable/access/OwnableUpgradeable.sol\":3509:3510  0 */\n      0x00\n        /* \"@openzeppelin/contracts-upgradeable/access/OwnableUpgradeable.sol\":3489:3511  newOwner == address(0) */\n      0xffffffffffffffffffffffffffffffffffffffff\n      and\n        /* \"@openzeppelin/contracts-upgradeable/access/OwnableUpgradeable.sol\":3489:3497  newOwner */\n      dup2\n        /* \"@openzeppelin/contracts-upgradeable/access/OwnableUpgradeable.sol\":3489:3511  newOwner == address(0) */\n      0xffffffffffffffffffffffffffffffffffffffff\n      and\n      sub\n        /* \"@openzeppelin/contracts-upgradeable/access/OwnableUpgradeable.sol\":3485:3576  if (newOwner == address(0)) {... */\n      tag_187\n      jumpi\n        /* \"@openzeppelin/contracts-upgradeable/access/OwnableUpgradeable.sol\":3562:3563  0 */\n      0x00\n        /* \"@openzeppelin/contracts-upgradeable/access/OwnableUpgradeable.sol\":3534:3565  OwnableInvalidOwner(address(0)) */\n      mload(0x40)\n      0x1e4fbdf700000000000000000000000000000000000000000000000000000000\n      dup2\n      mstore\n      0x04\n      add\n      tag_188\n      swap2\n      swap1\n      tag_63\n      jump\t// in\n    tag_188:\n      mload(0x40)\n      dup1\n      swap2\n      sub\n      swap1\n      revert\n        /* \"@openzeppelin/contracts-upgradeable/access/OwnableUpgradeable.sol\":3485:3576  if (newOwner == address(0)) {... */\n    tag_187:\n        /* \"@openzeppelin/contracts-upgradeable/access/OwnableUpgradeable.sol\":3585:3613  _transferOwnership(newOwner) */\n      tag_189\n        /* \"@openzeppelin/contracts-upgradeable/access/OwnableUpgradeable.sol\":3604:3612  newOwner */\n      dup2\n        /* \"@openzeppelin/contracts-upgradeable/access/OwnableUpgradeable.sol\":3585:3603  _transferOwnership */\n      tag_163\n        /* \"@openzeppelin/contracts-upgradeable/access/OwnableUpgradeable.sol\":3585:3613  _transferOwnership(newOwner) */\n      jump\t// in\n    tag_189:\n        /* \"@openzeppelin/contracts-upgradeable/access/OwnableUpgradeable.sol\":3405:3620  function transferOwnership(address newOwner) public virtual onlyOwner {... */\n      pop\n      jump\t// out\n        /* \"contracts/cookie-jar.sol\":1332:1730  function initialize(... */\n    tag_87:\n        /* \"@openzeppelin/contracts-upgradeable/proxy/utils/Initializable.sol\":4158:4188  InitializableStorage storage $ */\n      0x00\n        /* \"@openzeppelin/contracts-upgradeable/proxy/utils/Initializable.sol\":4191:4217  _getInitializableStorage() */\n      tag_191\n        /* \"@openzeppelin/contracts-upgradeable/proxy/utils/Initializable.sol\":4191:4215  _getInitializableStorage */\n      tag_192\n        /* \"@openzeppelin/contracts-upgradeable/proxy/utils/Initializable.sol\":4191:4217  _getInitializableStorage() */\n      jump\t// in\n    tag_191:\n        /* \"@openzeppelin/contracts-upgradeable/proxy/utils/Initializable.sol\":4158:4217  InitializableStorage storage $ = _getInitializableStorage() */\n      swap1\n      pop\n        /* \"@openzeppelin/contracts-upgradeable/proxy/utils/Initializable.sol\":4279:4298  bool isTopLevelCall */\n      0x00\n        /* \"@openzeppelin/contracts-upgradeable/proxy/utils/Initializable.sol\":4302:4303  $ */\n      dup2\n        /* \"@openzeppelin/contracts-upgradeable/proxy/utils/Initializable.sol\":4302:4317  $._initializing */\n      0x00\n      add\n      0x08\n      swap1\n      sload\n      swap1\n      0x0100\n      exp\n      swap1\n      div\n      0xff\n      and\n        /* \"@openzeppelin/contracts-upgradeable/proxy/utils/Initializable.sol\":4301:4317  !$._initializing */\n      iszero\n        /* \"@openzeppelin/contracts-upgradeable/proxy/utils/Initializable.sol\":4279:4317  bool isTopLevelCall = !$._initializing */\n      swap1\n      pop\n        /* \"@openzeppelin/contracts-upgradeable/proxy/utils/Initializable.sol\":4327:4345  uint64 initialized */\n      0x00\n        /* \"@openzeppelin/contracts-upgradeable/proxy/utils/Initializable.sol\":4348:4349  $ */\n      dup3\n        /* \"@openzeppelin/contracts-upgradeable/proxy/utils/Initializable.sol\":4348:4362  $._initialized */\n      0x00\n      add\n      0x00\n      swap1\n      sload\n      swap1\n      0x0100\n      exp\n      swap1\n      div\n      0xffffffffffffffff\n      and\n        /* \"@openzeppelin/contracts-upgradeable/proxy/utils/Initializable.sol\":4327:4362  uint64 initialized = $._initialized */\n      swap1\n      pop\n        /* \"@openzeppelin/contracts-upgradeable/proxy/utils/Initializable.sol\":4706:4723  bool initialSetup */\n      0x00\n        /* \"@openzeppelin/contracts-upgradeable/proxy/utils/Initializable.sol\":4741:4742  0 */\n      dup1\n        /* \"@openzeppelin/contracts-upgradeable/proxy/utils/Initializable.sol\":4726:4737  initialized */\n      dup3\n        /* \"@openzeppelin/contracts-upgradeable/proxy/utils/Initializable.sol\":4726:4742  initialized == 0 */\n      0xffffffffffffffff\n      and\n      eq\n        /* \"@openzeppelin/contracts-upgradeable/proxy/utils/Initializable.sol\":4726:4760  initialized == 0 && isTopLevelCall */\n      dup1\n      iszero\n      tag_193\n      jumpi\n      pop\n        /* \"@openzeppelin/contracts-upgradeable/proxy/utils/Initializable.sol\":4746:4760  isTopLevelCall */\n      dup3\n        /* \"@openzeppelin/contracts-upgradeable/proxy/utils/Initializable.sol\":4726:4760  initialized == 0 && isTopLevelCall */\n    tag_193:\n        /* \"@openzeppelin/contracts-upgradeable/proxy/utils/Initializable.sol\":4706:4760  bool initialSetup = initialized == 0 && isTopLevelCall */\n      swap1\n      pop\n        /* \"@openzeppelin/contracts-upgradeable/proxy/utils/Initializable.sol\":4770:4787  bool construction */\n      0x00\n        /* \"@openzeppelin/contracts-upgradeable/proxy/utils/Initializable.sol\":4805:4806  1 */\n      0x01\n        /* \"@openzeppelin/contracts-upgradeable/proxy/utils/Initializable.sol\":4790:4801  initialized */\n      dup4\n        /* \"@openzeppelin/contracts-upgradeable/proxy/utils/Initializable.sol\":4790:4806  initialized == 1 */\n      0xffffffffffffffff\n      and\n      eq\n        /* \"@openzeppelin/contracts-upgradeable/proxy/utils/Initializable.sol\":4790:4840  initialized == 1 && address(this).code.length == 0 */\n      dup1\n      iszero\n      tag_194\n      jumpi\n      pop\n        /* \"@openzeppelin/contracts-upgradeable/proxy/utils/Initializable.sol\":4839:4840  0 */\n      0x00\n        /* \"@openzeppelin/contracts-upgradeable/proxy/utils/Initializable.sol\":4818:4822  this */\n      address\n        /* \"@openzeppelin/contracts-upgradeable/proxy/utils/Initializable.sol\":4810:4835  address(this).code.length */\n      0xffffffffffffffffffffffffffffffffffffffff\n      and\n      extcodesize\n        /* \"@openzeppelin/contracts-upgradeable/proxy/utils/Initializable.sol\":4810:4840  address(this).code.length == 0 */\n      eq\n        /* \"@openzeppelin/contracts-upgradeable/proxy/utils/Initializable.sol\":4790:4840  initialized == 1 && address(this).code.length == 0 */\n    tag_194:\n        /* \"@openzeppelin/contracts-upgradeable/proxy/utils/Initializable.sol\":4770:4840  bool construction = initialized == 1 && address(this).code.length == 0 */\n      swap1\n      pop\n        /* \"@openzeppelin/contracts-upgradeable/proxy/utils/Initializable.sol\":4856:4868  initialSetup */\n      dup2\n        /* \"@openzeppelin/contracts-upgradeable/proxy/utils/Initializable.sol\":4855:4868  !initialSetup */\n      iszero\n        /* \"@openzeppelin/contracts-upgradeable/proxy/utils/Initializable.sol\":4855:4885  !initialSetup && !construction */\n      dup1\n      iszero\n      tag_195\n      jumpi\n      pop\n        /* \"@openzeppelin/contracts-upgradeable/proxy/utils/Initializable.sol\":4873:4885  construction */\n      dup1\n        /* \"@openzeppelin/contracts-upgradeable/proxy/utils/Initializable.sol\":4872:4885  !construction */\n      iszero\n        /* \"@openzeppelin/contracts-upgradeable/proxy/utils/Initializable.sol\":4855:4885  !initialSetup && !construction */\n    tag_195:\n        /* \"@openzeppelin/contracts-upgradeable/proxy/utils/Initializable.sol\":4851:4942  if (!initialSetup && !construction) {... */\n      iszero\n      tag_196\n      jumpi\n        /* \"@openzeppelin/contracts-upgradeable/proxy/utils/Initializable.sol\":4908:4931  InvalidInitialization() */\n      mload(0x40)\n      0xf92ee8a900000000000000000000000000000000000000000000000000000000\n      dup2\n      mstore\n      0x04\n      add\n      mload(0x40)\n      dup1\n      swap2\n      sub\n      swap1\n      revert\n        /* \"@openzeppelin/contracts-upgradeable/proxy/utils/Initializable.sol\":4851:4942  if (!initialSetup && !construction) {... */\n    tag_196:\n        /* \"@openzeppelin/contracts-upgradeable/proxy/utils/Initializable.sol\":4968:4969  1 */\n      0x01\n        /* \"@openzeppelin/contracts-upgradeable/proxy/utils/Initializable.sol\":4951:4952  $ */\n      dup6\n        /* \"@openzeppelin/contracts-upgradeable/proxy/utils/Initializable.sol\":4951:4965  $._initialized */\n      0x00\n      add\n      0x00\n        /* \"@openzeppelin/contracts-upgradeable/proxy/utils/Initializable.sol\":4951:4969  $._initialized = 1 */\n      0x0100\n      exp\n      dup2\n      sload\n      dup2\n      0xffffffffffffffff\n      mul\n      not\n      and\n      swap1\n      dup4\n      0xffffffffffffffff\n      and\n      mul\n      or\n      swap1\n      sstore\n      pop\n        /* \"@openzeppelin/contracts-upgradeable/proxy/utils/Initializable.sol\":4983:4997  isTopLevelCall */\n      dup4\n        /* \"@openzeppelin/contracts-upgradeable/proxy/utils/Initializable.sol\":4979:5046  if (isTopLevelCall) {... */\n      iszero\n      tag_197\n      jumpi\n        /* \"@openzeppelin/contracts-upgradeable/proxy/utils/Initializable.sol\":5031:5035  true */\n      0x01\n        /* \"@openzeppelin/contracts-upgradeable/proxy/utils/Initializable.sol\":5013:5014  $ */\n      dup6\n        /* \"@openzeppelin/contracts-upgradeable/proxy/utils/Initializable.sol\":5013:5028  $._initializing */\n      0x00\n      add\n      0x08\n        /* \"@openzeppelin/contracts-upgradeable/proxy/utils/Initializable.sol\":5013:5035  $._initializing = true */\n      0x0100\n      exp\n      dup2\n      sload\n      dup2\n      0xff\n      mul\n      not\n      and\n      swap1\n      dup4\n      iszero\n      iszero\n      mul\n      or\n      swap1\n      sstore\n      pop\n        /* \"@openzeppelin/contracts-upgradeable/proxy/utils/Initializable.sol\":4979:5046  if (isTopLevelCall) {... */\n    tag_197:\n        /* \"contracts/cookie-jar.sol\":1529:1550  __Ownable_init(owner) */\n      tag_199\n        /* \"contracts/cookie-jar.sol\":1544:1549  owner */\n      dup8\n        /* \"contracts/cookie-jar.sol\":1529:1543  __Ownable_init */\n      tag_200\n        /* \"contracts/cookie-jar.sol\":1529:1550  __Ownable_init(owner) */\n      jump\t// in\n    tag_199:\n        /* \"contracts/cookie-jar.sol\":1604:1610  _token */\n      dup10\n        /* \"contracts/cookie-jar.sol\":1596:1601  token */\n      0x00\n      dup1\n        /* \"contracts/cookie-jar.sol\":1596:1610  token = _token */\n      0x0100\n      exp\n      dup2\n      sload\n      dup2\n      0xffffffffffffffffffffffffffffffffffffffff\n      mul\n      not\n      and\n      swap1\n      dup4\n      0xffffffffffffffffffffffffffffffffffffffff\n      and\n      mul\n      or\n      swap1\n      sstore\n      pop\n        /* \"contracts/cookie-jar.sol\":1638:1645  _scorer */\n      dup9\n        /* \"contracts/cookie-jar.sol\":1621:1627  scorer */\n      0x01\n      0x00\n        /* \"contracts/cookie-jar.sol\":1621:1646  scorer = IScorer(_scorer) */\n      0x0100\n      exp\n      dup2\n      sload\n      dup2\n      0xffffffffffffffffffffffffffffffffffffffff\n      mul\n      not\n      and\n      swap1\n      dup4\n      0xffffffffffffffffffffffffffffffffffffffff\n      and\n      mul\n      or\n      swap1\n      sstore\n      pop\n        /* \"contracts/cookie-jar.sol\":1670:1681  _dailyLimit */\n      dup8\n        /* \"contracts/cookie-jar.sol\":1657:1667  dailyLimit */\n      0x02\n        /* \"contracts/cookie-jar.sol\":1657:1681  dailyLimit = _dailyLimit */\n      dup2\n      swap1\n      sstore\n      pop\n        /* \"contracts/cookie-jar.sol\":1708:1722  _scoreRequired */\n      dup6\n        /* \"contracts/cookie-jar.sol\":1692:1705  scoreRequired */\n      0x04\n        /* \"contracts/cookie-jar.sol\":1692:1722  scoreRequired = _scoreRequired */\n      dup2\n      swap1\n      sstore\n      pop\n        /* \"@openzeppelin/contracts-upgradeable/proxy/utils/Initializable.sol\":5070:5084  isTopLevelCall */\n      dup4\n        /* \"@openzeppelin/contracts-upgradeable/proxy/utils/Initializable.sol\":5066:5167  if (isTopLevelCall) {... */\n      iszero\n      tag_201\n      jumpi\n        /* \"@openzeppelin/contracts-upgradeable/proxy/utils/Initializable.sol\":5118:5123  false */\n      0x00\n        /* \"@openzeppelin/contracts-upgradeable/proxy/utils/Initializable.sol\":5100:5101  $ */\n      dup6\n        /* \"@openzeppelin/contracts-upgradeable/proxy/utils/Initializable.sol\":5100:5115  $._initializing */\n      0x00\n      add\n      0x08\n        /* \"@openzeppelin/contracts-upgradeable/proxy/utils/Initializable.sol\":5100:5123  $._initializing = false */\n      0x0100\n      exp\n      dup2\n      sload\n      dup2\n      0xff\n      mul\n      not\n      and\n      swap1\n      dup4\n      iszero\n      iszero\n      mul\n      or\n      swap1\n      sstore\n      pop\n        /* \"@openzeppelin/contracts-upgradeable/proxy/utils/Initializable.sol\":5142:5156  Initialized(1) */\n      0xc7f505b2f371ae2175ee4913f4499e1f2633a7b5936321eed1cdaeb6115181d2\n        /* \"@openzeppelin/contracts-upgradeable/proxy/utils/Initializable.sol\":5154:5155  1 */\n      0x01\n        /* \"@openzeppelin/contracts-upgradeable/proxy/utils/Initializable.sol\":5142:5156  Initialized(1) */\n      mload(0x40)\n      tag_202\n      swap2\n      swap1\n      tag_203\n      jump\t// in\n    tag_202:\n      mload(0x40)\n      dup1\n      swap2\n      sub\n      swap1\n      log1\n        /* \"@openzeppelin/contracts-upgradeable/proxy/utils/Initializable.sol\":5066:5167  if (isTopLevelCall) {... */\n    tag_201:\n        /* \"@openzeppelin/contracts-upgradeable/proxy/utils/Initializable.sol\":4092:5173  {... */\n      pop\n      pop\n      pop\n      pop\n      pop\n        /* \"contracts/cookie-jar.sol\":1332:1730  function initialize(... */\n      pop\n      pop\n      pop\n      pop\n      pop\n      jump\t// out\n        /* \"contracts/cookie-jar.sol\":3952:4098  function updateDailyLimit(uint256 newLimit) external onlyOwner {... */\n    tag_91:\n        /* \"@openzeppelin/contracts-upgradeable/access/OwnableUpgradeable.sol\":2334:2347  _checkOwner() */\n      tag_205\n        /* \"@openzeppelin/contracts-upgradeable/access/OwnableUpgradeable.sol\":2334:2345  _checkOwner */\n      tag_98\n        /* \"@openzeppelin/contracts-upgradeable/access/OwnableUpgradeable.sol\":2334:2347  _checkOwner() */\n      jump\t// in\n    tag_205:\n        /* \"contracts/cookie-jar.sol\":4039:4047  newLimit */\n      dup1\n        /* \"contracts/cookie-jar.sol\":4026:4036  dailyLimit */\n      0x02\n        /* \"contracts/cookie-jar.sol\":4026:4047  dailyLimit = newLimit */\n      dup2\n      swap1\n      sstore\n      pop\n        /* \"contracts/cookie-jar.sol\":4063:4090  UpdatedDailyLimit(newLimit) */\n      0x69e4f4585a710debc30f07c33dcded264dd61e9dd02a9dfad6584a9189f185e4\n        /* \"contracts/cookie-jar.sol\":4081:4089  newLimit */\n      dup2\n        /* \"contracts/cookie-jar.sol\":4063:4090  UpdatedDailyLimit(newLimit) */\n      mload(0x40)\n      tag_207\n      swap2\n      swap1\n      tag_27\n      jump\t// in\n    tag_207:\n      mload(0x40)\n      dup1\n      swap2\n      sub\n      swap1\n      log1\n        /* \"contracts/cookie-jar.sol\":3952:4098  function updateDailyLimit(uint256 newLimit) external onlyOwner {... */\n      pop\n      jump\t// out\n        /* \"contracts/cookie-jar.sol\":449:469  address public token */\n    tag_94:\n      0x00\n      dup1\n      sload\n      swap1\n      0x0100\n      exp\n      swap1\n      div\n      0xffffffffffffffffffffffffffffffffffffffff\n      and\n      dup2\n      jump\t// out\n        /* \"@openzeppelin/contracts-upgradeable/access/OwnableUpgradeable.sol\":2658:2820  function _checkOwner() internal view virtual {... */\n    tag_98:\n        /* \"@openzeppelin/contracts-upgradeable/access/OwnableUpgradeable.sol\":2728:2740  _msgSender() */\n      tag_209\n        /* \"@openzeppelin/contracts-upgradeable/access/OwnableUpgradeable.sol\":2728:2738  _msgSender */\n      tag_210\n        /* \"@openzeppelin/contracts-upgradeable/access/OwnableUpgradeable.sol\":2728:2740  _msgSender() */\n      jump\t// in\n    tag_209:\n        /* \"@openzeppelin/contracts-upgradeable/access/OwnableUpgradeable.sol\":2717:2740  owner() != _msgSender() */\n      0xffffffffffffffffffffffffffffffffffffffff\n      and\n        /* \"@openzeppelin/contracts-upgradeable/access/OwnableUpgradeable.sol\":2717:2724  owner() */\n      tag_211\n        /* \"@openzeppelin/contracts-upgradeable/access/OwnableUpgradeable.sol\":2717:2722  owner */\n      tag_61\n        /* \"@openzeppelin/contracts-upgradeable/access/OwnableUpgradeable.sol\":2717:2724  owner() */\n      jump\t// in\n    tag_211:\n        /* \"@openzeppelin/contracts-upgradeable/access/OwnableUpgradeable.sol\":2717:2740  owner() != _msgSender() */\n      0xffffffffffffffffffffffffffffffffffffffff\n      and\n      eq\n        /* \"@openzeppelin/contracts-upgradeable/access/OwnableUpgradeable.sol\":2713:2814  if (owner() != _msgSender()) {... */\n      tag_212\n      jumpi\n        /* \"@openzeppelin/contracts-upgradeable/access/OwnableUpgradeable.sol\":2790:2802  _msgSender() */\n      tag_213\n        /* \"@openzeppelin/contracts-upgradeable/access/OwnableUpgradeable.sol\":2790:2800  _msgSender */\n      tag_210\n        /* \"@openzeppelin/contracts-upgradeable/access/OwnableUpgradeable.sol\":2790:2802  _msgSender() */\n      jump\t// in\n    tag_213:\n        /* \"@openzeppelin/contracts-upgradeable/access/OwnableUpgradeable.sol\":2763:2803  OwnableUnauthorizedAccount(_msgSender()) */\n      mload(0x40)\n      0x118cdaa700000000000000000000000000000000000000000000000000000000\n      dup2\n      mstore\n      0x04\n      add\n      tag_214\n      swap2\n      swap1\n      tag_63\n      jump\t// in\n    tag_214:\n      mload(0x40)\n      dup1\n      swap2\n      sub\n      swap1\n      revert\n        /* \"@openzeppelin/contracts-upgradeable/access/OwnableUpgradeable.sol\":2713:2814  if (owner() != _msgSender()) {... */\n    tag_212:\n        /* \"@openzeppelin/contracts-upgradeable/access/OwnableUpgradeable.sol\":2658:2820  function _checkOwner() internal view virtual {... */\n      jump\t// out\n        /* \"@openzeppelin/contracts-upgradeable/access/OwnableUpgradeable.sol\":3774:4022  function _transferOwnership(address newOwner) internal virtual {... */\n    tag_163:\n        /* \"@openzeppelin/contracts-upgradeable/access/OwnableUpgradeable.sol\":3847:3871  OwnableStorage storage $ */\n      0x00\n        /* \"@openzeppelin/contracts-upgradeable/access/OwnableUpgradeable.sol\":3874:3894  _getOwnableStorage() */\n      tag_216\n        /* \"@openzeppelin/contracts-upgradeable/access/OwnableUpgradeable.sol\":3874:3892  _getOwnableStorage */\n      tag_166\n        /* \"@openzeppelin/contracts-upgradeable/access/OwnableUpgradeable.sol\":3874:3894  _getOwnableStorage() */\n      jump\t// in\n    tag_216:\n        /* \"@openzeppelin/contracts-upgradeable/access/OwnableUpgradeable.sol\":3847:3894  OwnableStorage storage $ = _getOwnableStorage() */\n      swap1\n      pop\n        /* \"@openzeppelin/contracts-upgradeable/access/OwnableUpgradeable.sol\":3904:3920  address oldOwner */\n      0x00\n        /* \"@openzeppelin/contracts-upgradeable/access/OwnableUpgradeable.sol\":3923:3924  $ */\n      dup2\n        /* \"@openzeppelin/contracts-upgradeable/access/OwnableUpgradeable.sol\":3923:3931  $._owner */\n      0x00\n      add\n      0x00\n      swap1\n      sload\n      swap1\n      0x0100\n      exp\n      swap1\n      div\n      0xffffffffffffffffffffffffffffffffffffffff\n      and\n        /* \"@openzeppelin/contracts-upgradeable/access/OwnableUpgradeable.sol\":3904:3931  address oldOwner = $._owner */\n      swap1\n      pop\n        /* \"@openzeppelin/contracts-upgradeable/access/OwnableUpgradeable.sol\":3952:3960  newOwner */\n      dup3\n        /* \"@openzeppelin/contracts-upgradeable/access/OwnableUpgradeable.sol\":3941:3942  $ */\n      dup3\n        /* \"@openzeppelin/contracts-upgradeable/access/OwnableUpgradeable.sol\":3941:3949  $._owner */\n      0x00\n      add\n      0x00\n        /* \"@openzeppelin/contracts-upgradeable/access/OwnableUpgradeable.sol\":3941:3960  $._owner = newOwner */\n      0x0100\n      exp\n      dup2\n      sload\n      dup2\n      0xffffffffffffffffffffffffffffffffffffffff\n      mul\n      not\n      and\n      swap1\n      dup4\n      0xffffffffffffffffffffffffffffffffffffffff\n      and\n      mul\n      or\n      swap1\n      sstore\n      pop\n        /* \"@openzeppelin/contracts-upgradeable/access/OwnableUpgradeable.sol\":4006:4014  newOwner */\n      dup3\n        /* \"@openzeppelin/contracts-upgradeable/access/OwnableUpgradeable.sol\":3975:4015  OwnershipTransferred(oldOwner, newOwner) */\n      0xffffffffffffffffffffffffffffffffffffffff\n      and\n        /* \"@openzeppelin/contracts-upgradeable/access/OwnableUpgradeable.sol\":3996:4004  oldOwner */\n      dup2\n        /* \"@openzeppelin/contracts-upgradeable/access/OwnableUpgradeable.sol\":3975:4015  OwnershipTransferred(oldOwner, newOwner) */\n      0xffffffffffffffffffffffffffffffffffffffff\n      and\n      0x8be0079c531659141344cd1fd0a4f28419497f9722a3daafe3b4186f6b6457e0\n      mload(0x40)\n      mload(0x40)\n      dup1\n      swap2\n      sub\n      swap1\n      log3\n        /* \"@openzeppelin/contracts-upgradeable/access/OwnableUpgradeable.sol\":3837:4022  {... */\n      pop\n      pop\n        /* \"@openzeppelin/contracts-upgradeable/access/OwnableUpgradeable.sol\":3774:4022  function _transferOwnership(address newOwner) internal virtual {... */\n      pop\n      jump\t// out\n        /* \"@openzeppelin/contracts-upgradeable/access/OwnableUpgradeable.sol\":1192:1351  function _getOwnableStorage() private pure returns (OwnableStorage storage $) {... */\n    tag_166:\n        /* \"@openzeppelin/contracts-upgradeable/access/OwnableUpgradeable.sol\":1244:1268  OwnableStorage storage $ */\n      0x00\n        /* \"@openzeppelin/contracts-upgradeable/access/OwnableUpgradeable.sol\":1313:1335  OwnableStorageLocation */\n      0x9016d09d72d40fdae2fd8ceac6b6234c7706214fd39c1cd1e609a0528c199300\n        /* \"@openzeppelin/contracts-upgradeable/access/OwnableUpgradeable.sol\":1303:1335  $.slot := OwnableStorageLocation */\n      swap1\n      pop\n        /* \"@openzeppelin/contracts-upgradeable/access/OwnableUpgradeable.sol\":1192:1351  function _getOwnableStorage() private pure returns (OwnableStorage storage $) {... */\n      swap1\n      jump\t// out\n        /* \"@openzeppelin/contracts-upgradeable/proxy/utils/Initializable.sol\":8737:8907  function _getInitializableStorage() private pure returns (InitializableStorage storage $) {... */\n    tag_192:\n        /* \"@openzeppelin/contracts-upgradeable/proxy/utils/Initializable.sol\":8795:8825  InitializableStorage storage $ */\n      0x00\n        /* \"@openzeppelin/contracts-upgradeable/proxy/utils/Initializable.sol\":8870:8891  INITIALIZABLE_STORAGE */\n      0xf0c57e16840df040f15088dc2f81fe391c3923bec73e23a9662efc9c229c6a00\n        /* \"@openzeppelin/contracts-upgradeable/proxy/utils/Initializable.sol\":8860:8891  $.slot := INITIALIZABLE_STORAGE */\n      swap1\n      pop\n        /* \"@openzeppelin/contracts-upgradeable/proxy/utils/Initializable.sol\":8737:8907  function _getInitializableStorage() private pure returns (InitializableStorage storage $) {... */\n      swap1\n      jump\t// out\n        /* \"@openzeppelin/contracts-upgradeable/access/OwnableUpgradeable.sol\":1847:1974  function __Ownable_init(address initialOwner) internal onlyInitializing {... */\n    tag_200:\n        /* \"@openzeppelin/contracts-upgradeable/proxy/utils/Initializable.sol\":6931:6951  _checkInitializing() */\n      tag_220\n        /* \"@openzeppelin/contracts-upgradeable/proxy/utils/Initializable.sol\":6931:6949  _checkInitializing */\n      tag_221\n        /* \"@openzeppelin/contracts-upgradeable/proxy/utils/Initializable.sol\":6931:6951  _checkInitializing() */\n      jump\t// in\n    tag_220:\n        /* \"@openzeppelin/contracts-upgradeable/access/OwnableUpgradeable.sol\":1929:1967  __Ownable_init_unchained(initialOwner) */\n      tag_223\n        /* \"@openzeppelin/contracts-upgradeable/access/OwnableUpgradeable.sol\":1954:1966  initialOwner */\n      dup2\n        /* \"@openzeppelin/contracts-upgradeable/access/OwnableUpgradeable.sol\":1929:1953  __Ownable_init_unchained */\n      tag_224\n        /* \"@openzeppelin/contracts-upgradeable/access/OwnableUpgradeable.sol\":1929:1967  __Ownable_init_unchained(initialOwner) */\n      jump\t// in\n    tag_223:\n        /* \"@openzeppelin/contracts-upgradeable/access/OwnableUpgradeable.sol\":1847:1974  function __Ownable_init(address initialOwner) internal onlyInitializing {... */\n      pop\n      jump\t// out\n        /* \"@openzeppelin/contracts-upgradeable/utils/ContextUpgradeable.sol\":887:983  function _msgSender() internal view virtual returns (address) {... */\n    tag_210:\n        /* \"@openzeppelin/contracts-upgradeable/utils/ContextUpgradeable.sol\":940:947  address */\n      0x00\n        /* \"@openzeppelin/contracts-upgradeable/utils/ContextUpgradeable.sol\":966:976  msg.sender */\n      caller\n        /* \"@openzeppelin/contracts-upgradeable/utils/ContextUpgradeable.sol\":959:976  return msg.sender */\n      swap1\n      pop\n        /* \"@openzeppelin/contracts-upgradeable/utils/ContextUpgradeable.sol\":887:983  function _msgSender() internal view virtual returns (address) {... */\n      swap1\n      jump\t// out\n        /* \"@openzeppelin/contracts-upgradeable/proxy/utils/Initializable.sol\":7084:7225  function _checkInitializing() internal view virtual {... */\n    tag_221:\n        /* \"@openzeppelin/contracts-upgradeable/proxy/utils/Initializable.sol\":7151:7168  _isInitializing() */\n      tag_227\n        /* \"@openzeppelin/contracts-upgradeable/proxy/utils/Initializable.sol\":7151:7166  _isInitializing */\n      tag_228\n        /* \"@openzeppelin/contracts-upgradeable/proxy/utils/Initializable.sol\":7151:7168  _isInitializing() */\n      jump\t// in\n    tag_227:\n        /* \"@openzeppelin/contracts-upgradeable/proxy/utils/Initializable.sol\":7146:7219  if (!_isInitializing()) {... */\n      tag_229\n      jumpi\n        /* \"@openzeppelin/contracts-upgradeable/proxy/utils/Initializable.sol\":7191:7208  NotInitializing() */\n      mload(0x40)\n      0xd7e6bcf800000000000000000000000000000000000000000000000000000000\n      dup2\n      mstore\n      0x04\n      add\n      mload(0x40)\n      dup1\n      swap2\n      sub\n      swap1\n      revert\n        /* \"@openzeppelin/contracts-upgradeable/proxy/utils/Initializable.sol\":7146:7219  if (!_isInitializing()) {... */\n    tag_229:\n        /* \"@openzeppelin/contracts-upgradeable/proxy/utils/Initializable.sol\":7084:7225  function _checkInitializing() internal view virtual {... */\n      jump\t// out\n        /* \"@openzeppelin/contracts-upgradeable/access/OwnableUpgradeable.sol\":1980:2215  function __Ownable_init_unchained(address initialOwner) internal onlyInitializing {... */\n    tag_224:\n        /* \"@openzeppelin/contracts-upgradeable/proxy/utils/Initializable.sol\":6931:6951  _checkInitializing() */\n      tag_231\n        /* \"@openzeppelin/contracts-upgradeable/proxy/utils/Initializable.sol\":6931:6949  _checkInitializing */\n      tag_221\n        /* \"@openzeppelin/contracts-upgradeable/proxy/utils/Initializable.sol\":6931:6951  _checkInitializing() */\n      jump\t// in\n    tag_231:\n        /* \"@openzeppelin/contracts-upgradeable/access/OwnableUpgradeable.sol\":2100:2101  0 */\n      0x00\n        /* \"@openzeppelin/contracts-upgradeable/access/OwnableUpgradeable.sol\":2076:2102  initialOwner == address(0) */\n      0xffffffffffffffffffffffffffffffffffffffff\n      and\n        /* \"@openzeppelin/contracts-upgradeable/access/OwnableUpgradeable.sol\":2076:2088  initialOwner */\n      dup2\n        /* \"@openzeppelin/contracts-upgradeable/access/OwnableUpgradeable.sol\":2076:2102  initialOwner == address(0) */\n      0xffffffffffffffffffffffffffffffffffffffff\n      and\n      sub\n        /* \"@openzeppelin/contracts-upgradeable/access/OwnableUpgradeable.sol\":2072:2167  if (initialOwner == address(0)) {... */\n      tag_233\n      jumpi\n        /* \"@openzeppelin/contracts-upgradeable/access/OwnableUpgradeable.sol\":2153:2154  0 */\n      0x00\n        /* \"@openzeppelin/contracts-upgradeable/access/OwnableUpgradeable.sol\":2125:2156  OwnableInvalidOwner(address(0)) */\n      mload(0x40)\n      0x1e4fbdf700000000000000000000000000000000000000000000000000000000\n      dup2\n      mstore\n      0x04\n      add\n      tag_234\n      swap2\n      swap1\n      tag_63\n      jump\t// in\n    tag_234:\n      mload(0x40)\n      dup1\n      swap2\n      sub\n      swap1\n      revert\n        /* \"@openzeppelin/contracts-upgradeable/access/OwnableUpgradeable.sol\":2072:2167  if (initialOwner == address(0)) {... */\n    tag_233:\n        /* \"@openzeppelin/contracts-upgradeable/access/OwnableUpgradeable.sol\":2176:2208  _transferOwnership(initialOwner) */\n      tag_235\n        /* \"@openzeppelin/contracts-upgradeable/access/OwnableUpgradeable.sol\":2195:2207  initialOwner */\n      dup2\n        /* \"@openzeppelin/contracts-upgradeable/access/OwnableUpgradeable.sol\":2176:2194  _transferOwnership */\n      tag_163\n        /* \"@openzeppelin/contracts-upgradeable/access/OwnableUpgradeable.sol\":2176:2208  _transferOwnership(initialOwner) */\n      jump\t// in\n    tag_235:\n        /* \"@openzeppelin/contracts-upgradeable/access/OwnableUpgradeable.sol\":1980:2215  function __Ownable_init_unchained(address initialOwner) internal onlyInitializing {... */\n      pop\n      jump\t// out\n        /* \"@openzeppelin/contracts-upgradeable/proxy/utils/Initializable.sol\":8487:8607  function _isInitializing() internal view returns (bool) {... */\n    tag_228:\n        /* \"@openzeppelin/contracts-upgradeable/proxy/utils/Initializable.sol\":8537:8541  bool */\n      0x00\n        /* \"@openzeppelin/contracts-upgradeable/proxy/utils/Initializable.sol\":8560:8586  _getInitializableStorage() */\n      tag_237\n        /* \"@openzeppelin/contracts-upgradeable/proxy/utils/Initializable.sol\":8560:8584  _getInitializableStorage */\n      tag_192\n        /* \"@openzeppelin/contracts-upgradeable/proxy/utils/Initializable.sol\":8560:8586  _getInitializableStorage() */\n      jump\t// in\n    tag_237:\n        /* \"@openzeppelin/contracts-upgradeable/proxy/utils/Initializable.sol\":8560:8600  _getInitializableStorage()._initializing */\n      0x00\n      add\n      0x08\n      swap1\n      sload\n      swap1\n      0x0100\n      exp\n      swap1\n      div\n      0xff\n      and\n        /* \"@openzeppelin/contracts-upgradeable/proxy/utils/Initializable.sol\":8553:8600  return _getInitializableStorage()._initializing */\n      swap1\n      pop\n        /* \"@openzeppelin/contracts-upgradeable/proxy/utils/Initializable.sol\":8487:8607  function _isInitializing() internal view returns (bool) {... */\n      swap1\n      jump\t// out\n        /* \"#utility.yul\":7:84   */\n    tag_238:\n        /* \"#utility.yul\":44:51   */\n      0x00\n        /* \"#utility.yul\":73:78   */\n      dup2\n        /* \"#utility.yul\":62:78   */\n      swap1\n      pop\n        /* \"#utility.yul\":7:84   */\n      swap2\n      swap1\n      pop\n      jump\t// out\n        /* \"#utility.yul\":90:270   */\n    tag_239:\n        /* \"#utility.yul\":138:215   */\n      0x4e487b7100000000000000000000000000000000000000000000000000000000\n        /* \"#utility.yul\":135:136   */\n      0x00\n        /* \"#utility.yul\":128:216   */\n      mstore\n        /* \"#utility.yul\":235:239   */\n      0x11\n        /* \"#utility.yul\":232:233   */\n      0x04\n        /* \"#utility.yul\":225:240   */\n      mstore\n        /* \"#utility.yul\":259:263   */\n      0x24\n        /* \"#utility.yul\":256:257   */\n      0x00\n        /* \"#utility.yul\":249:264   */\n      revert\n        /* \"#utility.yul\":276:467   */\n    tag_25:\n        /* \"#utility.yul\":316:319   */\n      0x00\n        /* \"#utility.yul\":335:355   */\n      tag_286\n        /* \"#utility.yul\":353:354   */\n      dup3\n        /* \"#utility.yul\":335:355   */\n      tag_238\n      jump\t// in\n    tag_286:\n        /* \"#utility.yul\":330:355   */\n      swap2\n      pop\n        /* \"#utility.yul\":369:389   */\n      tag_287\n        /* \"#utility.yul\":387:388   */\n      dup4\n        /* \"#utility.yul\":369:389   */\n      tag_238\n      jump\t// in\n    tag_287:\n        /* \"#utility.yul\":364:389   */\n      swap3\n      pop\n        /* \"#utility.yul\":412:413   */\n      dup3\n        /* \"#utility.yul\":409:410   */\n      dup3\n        /* \"#utility.yul\":405:414   */\n      add\n        /* \"#utility.yul\":398:414   */\n      swap1\n      pop\n        /* \"#utility.yul\":433:436   */\n      dup1\n        /* \"#utility.yul\":430:431   */\n      dup3\n        /* \"#utility.yul\":427:437   */\n      gt\n        /* \"#utility.yul\":424:460   */\n      iszero\n      tag_288\n      jumpi\n        /* \"#utility.yul\":440:458   */\n      tag_289\n      tag_239\n      jump\t// in\n    tag_289:\n        /* \"#utility.yul\":424:460   */\n    tag_288:\n        /* \"#utility.yul\":276:467   */\n      swap3\n      swap2\n      pop\n      pop\n      jump\t// out\n        /* \"#utility.yul\":473:591   */\n    tag_240:\n        /* \"#utility.yul\":560:584   */\n      tag_291\n        /* \"#utility.yul\":578:583   */\n      dup2\n        /* \"#utility.yul\":560:584   */\n      tag_238\n      jump\t// in\n    tag_291:\n        /* \"#utility.yul\":555:558   */\n      dup3\n        /* \"#utility.yul\":548:585   */\n      mstore\n        /* \"#utility.yul\":473:591   */\n      pop\n      pop\n      jump\t// out\n        /* \"#utility.yul\":597:819   */\n    tag_27:\n        /* \"#utility.yul\":690:694   */\n      0x00\n        /* \"#utility.yul\":728:730   */\n      0x20\n        /* \"#utility.yul\":717:726   */\n      dup3\n        /* \"#utility.yul\":713:731   */\n      add\n        /* \"#utility.yul\":705:731   */\n      swap1\n      pop\n        /* \"#utility.yul\":741:812   */\n      tag_293\n        /* \"#utility.yul\":809:810   */\n      0x00\n        /* \"#utility.yul\":798:807   */\n      dup4\n        /* \"#utility.yul\":794:811   */\n      add\n        /* \"#utility.yul\":785:791   */\n      dup5\n        /* \"#utility.yul\":741:812   */\n      tag_240\n      jump\t// in\n    tag_293:\n        /* \"#utility.yul\":597:819   */\n      swap3\n      swap2\n      pop\n      pop\n      jump\t// out\n        /* \"#utility.yul\":906:1023   */\n    tag_242:\n        /* \"#utility.yul\":1015:1016   */\n      0x00\n        /* \"#utility.yul\":1012:1013   */\n      dup1\n        /* \"#utility.yul\":1005:1017   */\n      revert\n        /* \"#utility.yul\":1152:1278   */\n    tag_244:\n        /* \"#utility.yul\":1189:1196   */\n      0x00\n        /* \"#utility.yul\":1229:1271   */\n      0xffffffffffffffffffffffffffffffffffffffff\n        /* \"#utility.yul\":1222:1227   */\n      dup3\n        /* \"#utility.yul\":1218:1272   */\n      and\n        /* \"#utility.yul\":1207:1272   */\n      swap1\n      pop\n        /* \"#utility.yul\":1152:1278   */\n      swap2\n      swap1\n      pop\n      jump\t// out\n        /* \"#utility.yul\":1284:1380   */\n    tag_245:\n        /* \"#utility.yul\":1321:1328   */\n      0x00\n        /* \"#utility.yul\":1350:1374   */\n      tag_299\n        /* \"#utility.yul\":1368:1373   */\n      dup3\n        /* \"#utility.yul\":1350:1374   */\n      tag_244\n      jump\t// in\n    tag_299:\n        /* \"#utility.yul\":1339:1374   */\n      swap1\n      pop\n        /* \"#utility.yul\":1284:1380   */\n      swap2\n      swap1\n      pop\n      jump\t// out\n        /* \"#utility.yul\":1386:1508   */\n    tag_246:\n        /* \"#utility.yul\":1459:1483   */\n      tag_301\n        /* \"#utility.yul\":1477:1482   */\n      dup2\n        /* \"#utility.yul\":1459:1483   */\n      tag_245\n      jump\t// in\n    tag_301:\n        /* \"#utility.yul\":1452:1457   */\n      dup2\n        /* \"#utility.yul\":1449:1484   */\n      eq\n        /* \"#utility.yul\":1439:1502   */\n      tag_302\n      jumpi\n        /* \"#utility.yul\":1498:1499   */\n      0x00\n        /* \"#utility.yul\":1495:1496   */\n      dup1\n        /* \"#utility.yul\":1488:1500   */\n      revert\n        /* \"#utility.yul\":1439:1502   */\n    tag_302:\n        /* \"#utility.yul\":1386:1508   */\n      pop\n      jump\t// out\n        /* \"#utility.yul\":1514:1653   */\n    tag_247:\n        /* \"#utility.yul\":1560:1565   */\n      0x00\n        /* \"#utility.yul\":1598:1604   */\n      dup2\n        /* \"#utility.yul\":1585:1605   */\n      calldataload\n        /* \"#utility.yul\":1576:1605   */\n      swap1\n      pop\n        /* \"#utility.yul\":1614:1647   */\n      tag_304\n        /* \"#utility.yul\":1641:1646   */\n      dup2\n        /* \"#utility.yul\":1614:1647   */\n      tag_246\n      jump\t// in\n    tag_304:\n        /* \"#utility.yul\":1514:1653   */\n      swap3\n      swap2\n      pop\n      pop\n      jump\t// out\n        /* \"#utility.yul\":1659:1988   */\n    tag_31:\n        /* \"#utility.yul\":1718:1724   */\n      0x00\n        /* \"#utility.yul\":1767:1769   */\n      0x20\n        /* \"#utility.yul\":1755:1764   */\n      dup3\n        /* \"#utility.yul\":1746:1753   */\n      dup5\n        /* \"#utility.yul\":1742:1765   */\n      sub\n        /* \"#utility.yul\":1738:1770   */\n      slt\n        /* \"#utility.yul\":1735:1854   */\n      iszero\n      tag_306\n      jumpi\n        /* \"#utility.yul\":1773:1852   */\n      tag_307\n      tag_242\n      jump\t// in\n    tag_307:\n        /* \"#utility.yul\":1735:1854   */\n    tag_306:\n        /* \"#utility.yul\":1893:1894   */\n      0x00\n        /* \"#utility.yul\":1918:1971   */\n      tag_308\n        /* \"#utility.yul\":1963:1970   */\n      dup5\n        /* \"#utility.yul\":1954:1960   */\n      dup3\n        /* \"#utility.yul\":1943:1952   */\n      dup6\n        /* \"#utility.yul\":1939:1961   */\n      add\n        /* \"#utility.yul\":1918:1971   */\n      tag_247\n      jump\t// in\n    tag_308:\n        /* \"#utility.yul\":1908:1971   */\n      swap2\n      pop\n        /* \"#utility.yul\":1864:1981   */\n      pop\n        /* \"#utility.yul\":1659:1988   */\n      swap3\n      swap2\n      pop\n      pop\n      jump\t// out\n        /* \"#utility.yul\":1994:2116   */\n    tag_248:\n        /* \"#utility.yul\":2067:2091   */\n      tag_310\n        /* \"#utility.yul\":2085:2090   */\n      dup2\n        /* \"#utility.yul\":2067:2091   */\n      tag_238\n      jump\t// in\n    tag_310:\n        /* \"#utility.yul\":2060:2065   */\n      dup2\n        /* \"#utility.yul\":2057:2092   */\n      eq\n        /* \"#utility.yul\":2047:2110   */\n      tag_311\n      jumpi\n        /* \"#utility.yul\":2106:2107   */\n      0x00\n        /* \"#utility.yul\":2103:2104   */\n      dup1\n        /* \"#utility.yul\":2096:2108   */\n      revert\n        /* \"#utility.yul\":2047:2110   */\n    tag_311:\n        /* \"#utility.yul\":1994:2116   */\n      pop\n      jump\t// out\n        /* \"#utility.yul\":2122:2261   */\n    tag_249:\n        /* \"#utility.yul\":2168:2173   */\n      0x00\n        /* \"#utility.yul\":2206:2212   */\n      dup2\n        /* \"#utility.yul\":2193:2213   */\n      calldataload\n        /* \"#utility.yul\":2184:2213   */\n      swap1\n      pop\n        /* \"#utility.yul\":2222:2255   */\n      tag_313\n        /* \"#utility.yul\":2249:2254   */\n      dup2\n        /* \"#utility.yul\":2222:2255   */\n      tag_248\n      jump\t// in\n    tag_313:\n        /* \"#utility.yul\":2122:2261   */\n      swap3\n      swap2\n      pop\n      pop\n      jump\t// out\n        /* \"#utility.yul\":2267:2596   */\n    tag_41:\n        /* \"#utility.yul\":2326:2332   */\n      0x00\n        /* \"#utility.yul\":2375:2377   */\n      0x20\n        /* \"#utility.yul\":2363:2372   */\n      dup3\n        /* \"#utility.yul\":2354:2361   */\n      dup5\n        /* \"#utility.yul\":2350:2373   */\n      sub\n        /* \"#utility.yul\":2346:2378   */\n      slt\n        /* \"#utility.yul\":2343:2462   */\n      iszero\n      tag_315\n      jumpi\n        /* \"#utility.yul\":2381:2460   */\n      tag_316\n      tag_242\n      jump\t// in\n    tag_316:\n        /* \"#utility.yul\":2343:2462   */\n    tag_315:\n        /* \"#utility.yul\":2501:2502   */\n      0x00\n        /* \"#utility.yul\":2526:2579   */\n      tag_317\n        /* \"#utility.yul\":2571:2578   */\n      dup5\n        /* \"#utility.yul\":2562:2568   */\n      dup3\n        /* \"#utility.yul\":2551:2560   */\n      dup6\n        /* \"#utility.yul\":2547:2569   */\n      add\n        /* \"#utility.yul\":2526:2579   */\n      tag_249\n      jump\t// in\n    tag_317:\n        /* \"#utility.yul\":2516:2579   */\n      swap2\n      pop\n        /* \"#utility.yul\":2472:2589   */\n      pop\n        /* \"#utility.yul\":2267:2596   */\n      swap3\n      swap2\n      pop\n      pop\n      jump\t// out\n        /* \"#utility.yul\":2602:2662   */\n    tag_250:\n        /* \"#utility.yul\":2630:2633   */\n      0x00\n        /* \"#utility.yul\":2651:2656   */\n      dup2\n        /* \"#utility.yul\":2644:2656   */\n      swap1\n      pop\n        /* \"#utility.yul\":2602:2662   */\n      swap2\n      swap1\n      pop\n      jump\t// out\n        /* \"#utility.yul\":2668:2810   */\n    tag_251:\n        /* \"#utility.yul\":2718:2727   */\n      0x00\n        /* \"#utility.yul\":2751:2804   */\n      tag_320\n        /* \"#utility.yul\":2769:2803   */\n      tag_321\n        /* \"#utility.yul\":2778:2802   */\n      tag_322\n        /* \"#utility.yul\":2796:2801   */\n      dup5\n        /* \"#utility.yul\":2778:2802   */\n      tag_244\n      jump\t// in\n    tag_322:\n        /* \"#utility.yul\":2769:2803   */\n      tag_250\n      jump\t// in\n    tag_321:\n        /* \"#utility.yul\":2751:2804   */\n      tag_244\n      jump\t// in\n    tag_320:\n        /* \"#utility.yul\":2738:2804   */\n      swap1\n      pop\n        /* \"#utility.yul\":2668:2810   */\n      swap2\n      swap1\n      pop\n      jump\t// out\n        /* \"#utility.yul\":2816:2942   */\n    tag_252:\n        /* \"#utility.yul\":2866:2875   */\n      0x00\n        /* \"#utility.yul\":2899:2936   */\n      tag_324\n        /* \"#utility.yul\":2930:2935   */\n      dup3\n        /* \"#utility.yul\":2899:2936   */\n      tag_251\n      jump\t// in\n    tag_324:\n        /* \"#utility.yul\":2886:2936   */\n      swap1\n      pop\n        /* \"#utility.yul\":2816:2942   */\n      swap2\n      swap1\n      pop\n      jump\t// out\n        /* \"#utility.yul\":2948:3090   */\n    tag_253:\n        /* \"#utility.yul\":3014:3023   */\n      0x00\n        /* \"#utility.yul\":3047:3084   */\n      tag_326\n        /* \"#utility.yul\":3078:3083   */\n      dup3\n        /* \"#utility.yul\":3047:3084   */\n      tag_252\n      jump\t// in\n    tag_326:\n        /* \"#utility.yul\":3034:3084   */\n      swap1\n      pop\n        /* \"#utility.yul\":2948:3090   */\n      swap2\n      swap1\n      pop\n      jump\t// out\n        /* \"#utility.yul\":3096:3259   */\n    tag_254:\n        /* \"#utility.yul\":3199:3252   */\n      tag_328\n        /* \"#utility.yul\":3246:3251   */\n      dup2\n        /* \"#utility.yul\":3199:3252   */\n      tag_253\n      jump\t// in\n    tag_328:\n        /* \"#utility.yul\":3194:3197   */\n      dup3\n        /* \"#utility.yul\":3187:3253   */\n      mstore\n        /* \"#utility.yul\":3096:3259   */\n      pop\n      pop\n      jump\t// out\n        /* \"#utility.yul\":3265:3519   */\n    tag_58:\n        /* \"#utility.yul\":3374:3378   */\n      0x00\n        /* \"#utility.yul\":3412:3414   */\n      0x20\n        /* \"#utility.yul\":3401:3410   */\n      dup3\n        /* \"#utility.yul\":3397:3415   */\n      add\n        /* \"#utility.yul\":3389:3415   */\n      swap1\n      pop\n        /* \"#utility.yul\":3425:3512   */\n      tag_330\n        /* \"#utility.yul\":3509:3510   */\n      0x00\n        /* \"#utility.yul\":3498:3507   */\n      dup4\n        /* \"#utility.yul\":3494:3511   */\n      add\n        /* \"#utility.yul\":3485:3491   */\n      dup5\n        /* \"#utility.yul\":3425:3512   */\n      tag_254\n      jump\t// in\n    tag_330:\n        /* \"#utility.yul\":3265:3519   */\n      swap3\n      swap2\n      pop\n      pop\n      jump\t// out\n        /* \"#utility.yul\":3525:3643   */\n    tag_255:\n        /* \"#utility.yul\":3612:3636   */\n      tag_332\n        /* \"#utility.yul\":3630:3635   */\n      dup2\n        /* \"#utility.yul\":3612:3636   */\n      tag_245\n      jump\t// in\n    tag_332:\n        /* \"#utility.yul\":3607:3610   */\n      dup3\n        /* \"#utility.yul\":3600:3637   */\n      mstore\n        /* \"#utility.yul\":3525:3643   */\n      pop\n      pop\n      jump\t// out\n        /* \"#utility.yul\":3649:3871   */\n    tag_63:\n        /* \"#utility.yul\":3742:3746   */\n      0x00\n        /* \"#utility.yul\":3780:3782   */\n      0x20\n        /* \"#utility.yul\":3769:3778   */\n      dup3\n        /* \"#utility.yul\":3765:3783   */\n      add\n        /* \"#utility.yul\":3757:3783   */\n      swap1\n      pop\n        /* \"#utility.yul\":3793:3864   */\n      tag_334\n        /* \"#utility.yul\":3861:3862   */\n      0x00\n        /* \"#utility.yul\":3850:3859   */\n      dup4\n        /* \"#utility.yul\":3846:3863   */\n      add\n        /* \"#utility.yul\":3837:3843   */\n      dup5\n        /* \"#utility.yul\":3793:3864   */\n      tag_255\n      jump\t// in\n    tag_334:\n        /* \"#utility.yul\":3649:3871   */\n      swap3\n      swap2\n      pop\n      pop\n      jump\t// out\n        /* \"#utility.yul\":3877:4788   */\n    tag_86:\n        /* \"#utility.yul\":3972:3978   */\n      0x00\n        /* \"#utility.yul\":3980:3986   */\n      dup1\n        /* \"#utility.yul\":3988:3994   */\n      0x00\n        /* \"#utility.yul\":3996:4002   */\n      dup1\n        /* \"#utility.yul\":4004:4010   */\n      0x00\n        /* \"#utility.yul\":4053:4056   */\n      0xa0\n        /* \"#utility.yul\":4041:4050   */\n      dup7\n        /* \"#utility.yul\":4032:4039   */\n      dup9\n        /* \"#utility.yul\":4028:4051   */\n      sub\n        /* \"#utility.yul\":4024:4057   */\n      slt\n        /* \"#utility.yul\":4021:4141   */\n      iszero\n      tag_336\n      jumpi\n        /* \"#utility.yul\":4060:4139   */\n      tag_337\n      tag_242\n      jump\t// in\n    tag_337:\n        /* \"#utility.yul\":4021:4141   */\n    tag_336:\n        /* \"#utility.yul\":4180:4181   */\n      0x00\n        /* \"#utility.yul\":4205:4258   */\n      tag_338\n        /* \"#utility.yul\":4250:4257   */\n      dup9\n        /* \"#utility.yul\":4241:4247   */\n      dup3\n        /* \"#utility.yul\":4230:4239   */\n      dup10\n        /* \"#utility.yul\":4226:4248   */\n      add\n        /* \"#utility.yul\":4205:4258   */\n      tag_247\n      jump\t// in\n    tag_338:\n        /* \"#utility.yul\":4195:4258   */\n      swap6\n      pop\n        /* \"#utility.yul\":4151:4268   */\n      pop\n        /* \"#utility.yul\":4307:4309   */\n      0x20\n        /* \"#utility.yul\":4333:4386   */\n      tag_339\n        /* \"#utility.yul\":4378:4385   */\n      dup9\n        /* \"#utility.yul\":4369:4375   */\n      dup3\n        /* \"#utility.yul\":4358:4367   */\n      dup10\n        /* \"#utility.yul\":4354:4376   */\n      add\n        /* \"#utility.yul\":4333:4386   */\n      tag_247\n      jump\t// in\n    tag_339:\n        /* \"#utility.yul\":4323:4386   */\n      swap5\n      pop\n        /* \"#utility.yul\":4278:4396   */\n      pop\n        /* \"#utility.yul\":4435:4437   */\n      0x40\n        /* \"#utility.yul\":4461:4514   */\n      tag_340\n        /* \"#utility.yul\":4506:4513   */\n      dup9\n        /* \"#utility.yul\":4497:4503   */\n      dup3\n        /* \"#utility.yul\":4486:4495   */\n      dup10\n        /* \"#utility.yul\":4482:4504   */\n      add\n        /* \"#utility.yul\":4461:4514   */\n      tag_249\n      jump\t// in\n    tag_340:\n        /* \"#utility.yul\":4451:4514   */\n      swap4\n      pop\n        /* \"#utility.yul\":4406:4524   */\n      pop\n        /* \"#utility.yul\":4563:4565   */\n      0x60\n        /* \"#utility.yul\":4589:4642   */\n      tag_341\n        /* \"#utility.yul\":4634:4641   */\n      dup9\n        /* \"#utility.yul\":4625:4631   */\n      dup3\n        /* \"#utility.yul\":4614:4623   */\n      dup10\n        /* \"#utility.yul\":4610:4632   */\n      add\n        /* \"#utility.yul\":4589:4642   */\n      tag_247\n      jump\t// in\n    tag_341:\n        /* \"#utility.yul\":4579:4642   */\n      swap3\n      pop\n        /* \"#utility.yul\":4534:4652   */\n      pop\n        /* \"#utility.yul\":4691:4694   */\n      0x80\n        /* \"#utility.yul\":4718:4771   */\n      tag_342\n        /* \"#utility.yul\":4763:4770   */\n      dup9\n        /* \"#utility.yul\":4754:4760   */\n      dup3\n        /* \"#utility.yul\":4743:4752   */\n      dup10\n        /* \"#utility.yul\":4739:4761   */\n      add\n        /* \"#utility.yul\":4718:4771   */\n      tag_249\n      jump\t// in\n    tag_342:\n        /* \"#utility.yul\":4708:4771   */\n      swap2\n      pop\n        /* \"#utility.yul\":4662:4781   */\n      pop\n        /* \"#utility.yul\":3877:4788   */\n      swap3\n      swap6\n      pop\n      swap3\n      swap6\n      swap1\n      swap4\n      pop\n      jump\t// out\n        /* \"#utility.yul\":4794:4963   */\n    tag_256:\n        /* \"#utility.yul\":4878:4889   */\n      0x00\n        /* \"#utility.yul\":4912:4918   */\n      dup3\n        /* \"#utility.yul\":4907:4910   */\n      dup3\n        /* \"#utility.yul\":4900:4919   */\n      mstore\n        /* \"#utility.yul\":4952:4956   */\n      0x20\n        /* \"#utility.yul\":4947:4950   */\n      dup3\n        /* \"#utility.yul\":4943:4957   */\n      add\n        /* \"#utility.yul\":4928:4957   */\n      swap1\n      pop\n        /* \"#utility.yul\":4794:4963   */\n      swap3\n      swap2\n      pop\n      pop\n      jump\t// out\n        /* \"#utility.yul\":4969:5137   */\n    tag_257:\n        /* \"#utility.yul\":5109:5129   */\n      0x496e73756666696369656e742066756e64730000000000000000000000000000\n        /* \"#utility.yul\":5105:5106   */\n      0x00\n        /* \"#utility.yul\":5097:5103   */\n      dup3\n        /* \"#utility.yul\":5093:5107   */\n      add\n        /* \"#utility.yul\":5086:5130   */\n      mstore\n        /* \"#utility.yul\":4969:5137   */\n      pop\n      jump\t// out\n        /* \"#utility.yul\":5143:5509   */\n    tag_258:\n        /* \"#utility.yul\":5285:5288   */\n      0x00\n        /* \"#utility.yul\":5306:5373   */\n      tag_346\n        /* \"#utility.yul\":5370:5372   */\n      0x12\n        /* \"#utility.yul\":5365:5368   */\n      dup4\n        /* \"#utility.yul\":5306:5373   */\n      tag_256\n      jump\t// in\n    tag_346:\n        /* \"#utility.yul\":5299:5373   */\n      swap2\n      pop\n        /* \"#utility.yul\":5382:5475   */\n      tag_347\n        /* \"#utility.yul\":5471:5474   */\n      dup3\n        /* \"#utility.yul\":5382:5475   */\n      tag_257\n      jump\t// in\n    tag_347:\n        /* \"#utility.yul\":5500:5502   */\n      0x20\n        /* \"#utility.yul\":5495:5498   */\n      dup3\n        /* \"#utility.yul\":5491:5503   */\n      add\n        /* \"#utility.yul\":5484:5503   */\n      swap1\n      pop\n        /* \"#utility.yul\":5143:5509   */\n      swap2\n      swap1\n      pop\n      jump\t// out\n        /* \"#utility.yul\":5515:5934   */\n    tag_105:\n        /* \"#utility.yul\":5681:5685   */\n      0x00\n        /* \"#utility.yul\":5719:5721   */\n      0x20\n        /* \"#utility.yul\":5708:5717   */\n      dup3\n        /* \"#utility.yul\":5704:5722   */\n      add\n        /* \"#utility.yul\":5696:5722   */\n      swap1\n      pop\n        /* \"#utility.yul\":5768:5777   */\n      dup2\n        /* \"#utility.yul\":5762:5766   */\n      dup2\n        /* \"#utility.yul\":5758:5778   */\n      sub\n        /* \"#utility.yul\":5754:5755   */\n      0x00\n        /* \"#utility.yul\":5743:5752   */\n      dup4\n        /* \"#utility.yul\":5739:5756   */\n      add\n        /* \"#utility.yul\":5732:5779   */\n      mstore\n        /* \"#utility.yul\":5796:5927   */\n      tag_349\n        /* \"#utility.yul\":5922:5926   */\n      dup2\n        /* \"#utility.yul\":5796:5927   */\n      tag_258\n      jump\t// in\n    tag_349:\n        /* \"#utility.yul\":5788:5927   */\n      swap1\n      pop\n        /* \"#utility.yul\":5515:5934   */\n      swap2\n      swap1\n      pop\n      jump\t// out\n        /* \"#utility.yul\":5940:6134   */\n    tag_107:\n        /* \"#utility.yul\":5980:5984   */\n      0x00\n        /* \"#utility.yul\":6000:6020   */\n      tag_351\n        /* \"#utility.yul\":6018:6019   */\n      dup3\n        /* \"#utility.yul\":6000:6020   */\n      tag_238\n      jump\t// in\n    tag_351:\n        /* \"#utility.yul\":5995:6020   */\n      swap2\n      pop\n        /* \"#utility.yul\":6034:6054   */\n      tag_352\n        /* \"#utility.yul\":6052:6053   */\n      dup4\n        /* \"#utility.yul\":6034:6054   */\n      tag_238\n      jump\t// in\n    tag_352:\n        /* \"#utility.yul\":6029:6054   */\n      swap3\n      pop\n        /* \"#utility.yul\":6078:6079   */\n      dup3\n        /* \"#utility.yul\":6075:6076   */\n      dup3\n        /* \"#utility.yul\":6071:6080   */\n      sub\n        /* \"#utility.yul\":6063:6080   */\n      swap1\n      pop\n        /* \"#utility.yul\":6102:6103   */\n      dup2\n        /* \"#utility.yul\":6096:6100   */\n      dup2\n        /* \"#utility.yul\":6093:6104   */\n      gt\n        /* \"#utility.yul\":6090:6127   */\n      iszero\n      tag_353\n      jumpi\n        /* \"#utility.yul\":6107:6125   */\n      tag_354\n      tag_239\n      jump\t// in\n    tag_354:\n        /* \"#utility.yul\":6090:6127   */\n    tag_353:\n        /* \"#utility.yul\":5940:6134   */\n      swap3\n      swap2\n      pop\n      pop\n      jump\t// out\n        /* \"#utility.yul\":6140:6287   */\n    tag_259:\n        /* \"#utility.yul\":6241:6252   */\n      0x00\n        /* \"#utility.yul\":6278:6281   */\n      dup2\n        /* \"#utility.yul\":6263:6281   */\n      swap1\n      pop\n        /* \"#utility.yul\":6140:6287   */\n      swap3\n      swap2\n      pop\n      pop\n      jump\t// out\n        /* \"#utility.yul\":6293:6407   */\n    tag_260:\n      pop\n      jump\t// out\n        /* \"#utility.yul\":6413:6811   */\n    tag_261:\n        /* \"#utility.yul\":6572:6575   */\n      0x00\n        /* \"#utility.yul\":6593:6676   */\n      tag_358\n        /* \"#utility.yul\":6674:6675   */\n      0x00\n        /* \"#utility.yul\":6669:6672   */\n      dup4\n        /* \"#utility.yul\":6593:6676   */\n      tag_259\n      jump\t// in\n    tag_358:\n        /* \"#utility.yul\":6586:6676   */\n      swap2\n      pop\n        /* \"#utility.yul\":6685:6778   */\n      tag_359\n        /* \"#utility.yul\":6774:6777   */\n      dup3\n        /* \"#utility.yul\":6685:6778   */\n      tag_260\n      jump\t// in\n    tag_359:\n        /* \"#utility.yul\":6803:6804   */\n      0x00\n        /* \"#utility.yul\":6798:6801   */\n      dup3\n        /* \"#utility.yul\":6794:6805   */\n      add\n        /* \"#utility.yul\":6787:6805   */\n      swap1\n      pop\n        /* \"#utility.yul\":6413:6811   */\n      swap2\n      swap1\n      pop\n      jump\t// out\n        /* \"#utility.yul\":6817:7196   */\n    tag_111:\n        /* \"#utility.yul\":7001:7004   */\n      0x00\n        /* \"#utility.yul\":7023:7170   */\n      tag_361\n        /* \"#utility.yul\":7166:7169   */\n      dup3\n        /* \"#utility.yul\":7023:7170   */\n      tag_261\n      jump\t// in\n    tag_361:\n        /* \"#utility.yul\":7016:7170   */\n      swap2\n      pop\n        /* \"#utility.yul\":7187:7190   */\n      dup2\n        /* \"#utility.yul\":7180:7190   */\n      swap1\n      pop\n        /* \"#utility.yul\":6817:7196   */\n      swap2\n      swap1\n      pop\n      jump\t// out\n        /* \"#utility.yul\":7202:7371   */\n    tag_262:\n        /* \"#utility.yul\":7342:7363   */\n      0x455448207472616e73666572206661696c656400000000000000000000000000\n        /* \"#utility.yul\":7338:7339   */\n      0x00\n        /* \"#utility.yul\":7330:7336   */\n      dup3\n        /* \"#utility.yul\":7326:7340   */\n      add\n        /* \"#utility.yul\":7319:7364   */\n      mstore\n        /* \"#utility.yul\":7202:7371   */\n      pop\n      jump\t// out\n        /* \"#utility.yul\":7377:7743   */\n    tag_263:\n        /* \"#utility.yul\":7519:7522   */\n      0x00\n        /* \"#utility.yul\":7540:7607   */\n      tag_364\n        /* \"#utility.yul\":7604:7606   */\n      0x13\n        /* \"#utility.yul\":7599:7602   */\n      dup4\n        /* \"#utility.yul\":7540:7607   */\n      tag_256\n      jump\t// in\n    tag_364:\n        /* \"#utility.yul\":7533:7607   */\n      swap2\n      pop\n        /* \"#utility.yul\":7616:7709   */\n      tag_365\n        /* \"#utility.yul\":7705:7708   */\n      dup3\n        /* \"#utility.yul\":7616:7709   */\n      tag_262\n      jump\t// in\n    tag_365:\n        /* \"#utility.yul\":7734:7736   */\n      0x20\n        /* \"#utility.yul\":7729:7732   */\n      dup3\n        /* \"#utility.yul\":7725:7737   */\n      add\n        /* \"#utility.yul\":7718:7737   */\n      swap1\n      pop\n        /* \"#utility.yul\":7377:7743   */\n      swap2\n      swap1\n      pop\n      jump\t// out\n        /* \"#utility.yul\":7749:8168   */\n    tag_117:\n        /* \"#utility.yul\":7915:7919   */\n      0x00\n        /* \"#utility.yul\":7953:7955   */\n      0x20\n        /* \"#utility.yul\":7942:7951   */\n      dup3\n        /* \"#utility.yul\":7938:7956   */\n      add\n        /* \"#utility.yul\":7930:7956   */\n      swap1\n      pop\n        /* \"#utility.yul\":8002:8011   */\n      dup2\n        /* \"#utility.yul\":7996:8000   */\n      dup2\n        /* \"#utility.yul\":7992:8012   */\n      sub\n        /* \"#utility.yul\":7988:7989   */\n      0x00\n        /* \"#utility.yul\":7977:7986   */\n      dup4\n        /* \"#utility.yul\":7973:7990   */\n      add\n        /* \"#utility.yul\":7966:8013   */\n      mstore\n        /* \"#utility.yul\":8030:8161   */\n      tag_367\n        /* \"#utility.yul\":8156:8160   */\n      dup2\n        /* \"#utility.yul\":8030:8161   */\n      tag_263\n      jump\t// in\n    tag_367:\n        /* \"#utility.yul\":8022:8161   */\n      swap1\n      pop\n        /* \"#utility.yul\":7749:8168   */\n      swap2\n      swap1\n      pop\n      jump\t// out\n        /* \"#utility.yul\":8174:8506   */\n    tag_121:\n        /* \"#utility.yul\":8295:8299   */\n      0x00\n        /* \"#utility.yul\":8333:8335   */\n      0x40\n        /* \"#utility.yul\":8322:8331   */\n      dup3\n        /* \"#utility.yul\":8318:8336   */\n      add\n        /* \"#utility.yul\":8310:8336   */\n      swap1\n      pop\n        /* \"#utility.yul\":8346:8417   */\n      tag_369\n        /* \"#utility.yul\":8414:8415   */\n      0x00\n        /* \"#utility.yul\":8403:8412   */\n      dup4\n        /* \"#utility.yul\":8399:8416   */\n      add\n        /* \"#utility.yul\":8390:8396   */\n      dup6\n        /* \"#utility.yul\":8346:8417   */\n      tag_255\n      jump\t// in\n    tag_369:\n        /* \"#utility.yul\":8427:8499   */\n      tag_370\n        /* \"#utility.yul\":8495:8497   */\n      0x20\n        /* \"#utility.yul\":8484:8493   */\n      dup4\n        /* \"#utility.yul\":8480:8498   */\n      add\n        /* \"#utility.yul\":8471:8477   */\n      dup5\n        /* \"#utility.yul\":8427:8499   */\n      tag_240\n      jump\t// in\n    tag_370:\n        /* \"#utility.yul\":8174:8506   */\n      swap4\n      swap3\n      pop\n      pop\n      pop\n      jump\t// out\n        /* \"#utility.yul\":8512:8602   */\n    tag_264:\n        /* \"#utility.yul\":8546:8553   */\n      0x00\n        /* \"#utility.yul\":8589:8594   */\n      dup2\n        /* \"#utility.yul\":8582:8595   */\n      iszero\n        /* \"#utility.yul\":8575:8596   */\n      iszero\n        /* \"#utility.yul\":8564:8596   */\n      swap1\n      pop\n        /* \"#utility.yul\":8512:8602   */\n      swap2\n      swap1\n      pop\n      jump\t// out\n        /* \"#utility.yul\":8608:8724   */\n    tag_265:\n        /* \"#utility.yul\":8678:8699   */\n      tag_373\n        /* \"#utility.yul\":8693:8698   */\n      dup2\n        /* \"#utility.yul\":8678:8699   */\n      tag_264\n      jump\t// in\n    tag_373:\n        /* \"#utility.yul\":8671:8676   */\n      dup2\n        /* \"#utility.yul\":8668:8700   */\n      eq\n        /* \"#utility.yul\":8658:8718   */\n      tag_374\n      jumpi\n        /* \"#utility.yul\":8714:8715   */\n      0x00\n        /* \"#utility.yul\":8711:8712   */\n      dup1\n        /* \"#utility.yul\":8704:8716   */\n      revert\n        /* \"#utility.yul\":8658:8718   */\n    tag_374:\n        /* \"#utility.yul\":8608:8724   */\n      pop\n      jump\t// out\n        /* \"#utility.yul\":8730:8867   */\n    tag_266:\n        /* \"#utility.yul\":8784:8789   */\n      0x00\n        /* \"#utility.yul\":8815:8821   */\n      dup2\n        /* \"#utility.yul\":8809:8822   */\n      mload\n        /* \"#utility.yul\":8800:8822   */\n      swap1\n      pop\n        /* \"#utility.yul\":8831:8861   */\n      tag_376\n        /* \"#utility.yul\":8855:8860   */\n      dup2\n        /* \"#utility.yul\":8831:8861   */\n      tag_265\n      jump\t// in\n    tag_376:\n        /* \"#utility.yul\":8730:8867   */\n      swap3\n      swap2\n      pop\n      pop\n      jump\t// out\n        /* \"#utility.yul\":8873:9218   */\n    tag_125:\n        /* \"#utility.yul\":8940:8946   */\n      0x00\n        /* \"#utility.yul\":8989:8991   */\n      0x20\n        /* \"#utility.yul\":8977:8986   */\n      dup3\n        /* \"#utility.yul\":8968:8975   */\n      dup5\n        /* \"#utility.yul\":8964:8987   */\n      sub\n        /* \"#utility.yul\":8960:8992   */\n      slt\n        /* \"#utility.yul\":8957:9076   */\n      iszero\n      tag_378\n      jumpi\n        /* \"#utility.yul\":8995:9074   */\n      tag_379\n      tag_242\n      jump\t// in\n    tag_379:\n        /* \"#utility.yul\":8957:9076   */\n    tag_378:\n        /* \"#utility.yul\":9115:9116   */\n      0x00\n        /* \"#utility.yul\":9140:9201   */\n      tag_380\n        /* \"#utility.yul\":9193:9200   */\n      dup5\n        /* \"#utility.yul\":9184:9190   */\n      dup3\n        /* \"#utility.yul\":9173:9182   */\n      dup6\n        /* \"#utility.yul\":9169:9191   */\n      add\n        /* \"#utility.yul\":9140:9201   */\n      tag_266\n      jump\t// in\n    tag_380:\n        /* \"#utility.yul\":9130:9201   */\n      swap2\n      pop\n        /* \"#utility.yul\":9086:9211   */\n      pop\n        /* \"#utility.yul\":8873:9218   */\n      swap3\n      swap2\n      pop\n      pop\n      jump\t// out\n        /* \"#utility.yul\":9224:9393   */\n    tag_267:\n        /* \"#utility.yul\":9364:9385   */\n      0x45786365656473206461696c79206c696d697400000000000000000000000000\n        /* \"#utility.yul\":9360:9361   */\n      0x00\n        /* \"#utility.yul\":9352:9358   */\n      dup3\n        /* \"#utility.yul\":9348:9362   */\n      add\n        /* \"#utility.yul\":9341:9386   */\n      mstore\n        /* \"#utility.yul\":9224:9393   */\n      pop\n      jump\t// out\n        /* \"#utility.yul\":9399:9765   */\n    tag_268:\n        /* \"#utility.yul\":9541:9544   */\n      0x00\n        /* \"#utility.yul\":9562:9629   */\n      tag_383\n        /* \"#utility.yul\":9626:9628   */\n      0x13\n        /* \"#utility.yul\":9621:9624   */\n      dup4\n        /* \"#utility.yul\":9562:9629   */\n      tag_256\n      jump\t// in\n    tag_383:\n        /* \"#utility.yul\":9555:9629   */\n      swap2\n      pop\n        /* \"#utility.yul\":9638:9731   */\n      tag_384\n        /* \"#utility.yul\":9727:9730   */\n      dup3\n        /* \"#utility.yul\":9638:9731   */\n      tag_267\n      jump\t// in\n    tag_384:\n        /* \"#utility.yul\":9756:9758   */\n      0x20\n        /* \"#utility.yul\":9751:9754   */\n      dup3\n        /* \"#utility.yul\":9747:9759   */\n      add\n        /* \"#utility.yul\":9740:9759   */\n      swap1\n      pop\n        /* \"#utility.yul\":9399:9765   */\n      swap2\n      swap1\n      pop\n      jump\t// out\n        /* \"#utility.yul\":9771:10190   */\n    tag_129:\n        /* \"#utility.yul\":9937:9941   */\n      0x00\n        /* \"#utility.yul\":9975:9977   */\n      0x20\n        /* \"#utility.yul\":9964:9973   */\n      dup3\n        /* \"#utility.yul\":9960:9978   */\n      add\n        /* \"#utility.yul\":9952:9978   */\n      swap1\n      pop\n        /* \"#utility.yul\":10024:10033   */\n      dup2\n        /* \"#utility.yul\":10018:10022   */\n      dup2\n        /* \"#utility.yul\":10014:10034   */\n      sub\n        /* \"#utility.yul\":10010:10011   */\n      0x00\n        /* \"#utility.yul\":9999:10008   */\n      dup4\n        /* \"#utility.yul\":9995:10012   */\n      add\n        /* \"#utility.yul\":9988:10035   */\n      mstore\n        /* \"#utility.yul\":10052:10183   */\n      tag_386\n        /* \"#utility.yul\":10178:10182   */\n      dup2\n        /* \"#utility.yul\":10052:10183   */\n      tag_268\n      jump\t// in\n    tag_386:\n        /* \"#utility.yul\":10044:10183   */\n      swap1\n      pop\n        /* \"#utility.yul\":9771:10190   */\n      swap2\n      swap1\n      pop\n      jump\t// out\n        /* \"#utility.yul\":10196:10371   */\n    tag_269:\n        /* \"#utility.yul\":10336:10363   */\n      0x4461696c7920636c61696d206c696d6974207265616368656400000000000000\n        /* \"#utility.yul\":10332:10333   */\n      0x00\n        /* \"#utility.yul\":10324:10330   */\n      dup3\n        /* \"#utility.yul\":10320:10334   */\n      add\n        /* \"#utility.yul\":10313:10364   */\n      mstore\n        /* \"#utility.yul\":10196:10371   */\n      pop\n      jump\t// out\n        /* \"#utility.yul\":10377:10743   */\n    tag_270:\n        /* \"#utility.yul\":10519:10522   */\n      0x00\n        /* \"#utility.yul\":10540:10607   */\n      tag_389\n        /* \"#utility.yul\":10604:10606   */\n      0x19\n        /* \"#utility.yul\":10599:10602   */\n      dup4\n        /* \"#utility.yul\":10540:10607   */\n      tag_256\n      jump\t// in\n    tag_389:\n        /* \"#utility.yul\":10533:10607   */\n      swap2\n      pop\n        /* \"#utility.yul\":10616:10709   */\n      tag_390\n        /* \"#utility.yul\":10705:10708   */\n      dup3\n        /* \"#utility.yul\":10616:10709   */\n      tag_269\n      jump\t// in\n    tag_390:\n        /* \"#utility.yul\":10734:10736   */\n      0x20\n        /* \"#utility.yul\":10729:10732   */\n      dup3\n        /* \"#utility.yul\":10725:10737   */\n      add\n        /* \"#utility.yul\":10718:10737   */\n      swap1\n      pop\n        /* \"#utility.yul\":10377:10743   */\n      swap2\n      swap1\n      pop\n      jump\t// out\n        /* \"#utility.yul\":10749:11168   */\n    tag_133:\n        /* \"#utility.yul\":10915:10919   */\n      0x00\n        /* \"#utility.yul\":10953:10955   */\n      0x20\n        /* \"#utility.yul\":10942:10951   */\n      dup3\n        /* \"#utility.yul\":10938:10956   */\n      add\n        /* \"#utility.yul\":10930:10956   */\n      swap1\n      pop\n        /* \"#utility.yul\":11002:11011   */\n      dup2\n        /* \"#utility.yul\":10996:11000   */\n      dup2\n        /* \"#utility.yul\":10992:11012   */\n      sub\n        /* \"#utility.yul\":10988:10989   */\n      0x00\n        /* \"#utility.yul\":10977:10986   */\n      dup4\n        /* \"#utility.yul\":10973:10990   */\n      add\n        /* \"#utility.yul\":10966:11013   */\n      mstore\n        /* \"#utility.yul\":11030:11161   */\n      tag_392\n        /* \"#utility.yul\":11156:11160   */\n      dup2\n        /* \"#utility.yul\":11030:11161   */\n      tag_270\n      jump\t// in\n    tag_392:\n        /* \"#utility.yul\":11022:11161   */\n      swap1\n      pop\n        /* \"#utility.yul\":10749:11168   */\n      swap2\n      swap1\n      pop\n      jump\t// out\n        /* \"#utility.yul\":11174:11317   */\n    tag_271:\n        /* \"#utility.yul\":11231:11236   */\n      0x00\n        /* \"#utility.yul\":11262:11268   */\n      dup2\n        /* \"#utility.yul\":11256:11269   */\n      mload\n        /* \"#utility.yul\":11247:11269   */\n      swap1\n      pop\n        /* \"#utility.yul\":11278:11311   */\n      tag_394\n        /* \"#utility.yul\":11305:11310   */\n      dup2\n        /* \"#utility.yul\":11278:11311   */\n      tag_248\n      jump\t// in\n    tag_394:\n        /* \"#utility.yul\":11174:11317   */\n      swap3\n      swap2\n      pop\n      pop\n      jump\t// out\n        /* \"#utility.yul\":11323:11674   */\n    tag_138:\n        /* \"#utility.yul\":11393:11399   */\n      0x00\n        /* \"#utility.yul\":11442:11444   */\n      0x20\n        /* \"#utility.yul\":11430:11439   */\n      dup3\n        /* \"#utility.yul\":11421:11428   */\n      dup5\n        /* \"#utility.yul\":11417:11440   */\n      sub\n        /* \"#utility.yul\":11413:11445   */\n      slt\n        /* \"#utility.yul\":11410:11529   */\n      iszero\n      tag_396\n      jumpi\n        /* \"#utility.yul\":11448:11527   */\n      tag_397\n      tag_242\n      jump\t// in\n    tag_397:\n        /* \"#utility.yul\":11410:11529   */\n    tag_396:\n        /* \"#utility.yul\":11568:11569   */\n      0x00\n        /* \"#utility.yul\":11593:11657   */\n      tag_398\n        /* \"#utility.yul\":11649:11656   */\n      dup5\n        /* \"#utility.yul\":11640:11646   */\n      dup3\n        /* \"#utility.yul\":11629:11638   */\n      dup6\n        /* \"#utility.yul\":11625:11647   */\n      add\n        /* \"#utility.yul\":11593:11657   */\n      tag_271\n      jump\t// in\n    tag_398:\n        /* \"#utility.yul\":11583:11657   */\n      swap2\n      pop\n        /* \"#utility.yul\":11539:11667   */\n      pop\n        /* \"#utility.yul\":11323:11674   */\n      swap3\n      swap2\n      pop\n      pop\n      jump\t// out\n        /* \"#utility.yul\":11680:11843   */\n    tag_272:\n        /* \"#utility.yul\":11820:11835   */\n      0x53636f726520746f6f206c6f7700000000000000000000000000000000000000\n        /* \"#utility.yul\":11816:11817   */\n      0x00\n        /* \"#utility.yul\":11808:11814   */\n      dup3\n        /* \"#utility.yul\":11804:11818   */\n      add\n        /* \"#utility.yul\":11797:11836   */\n      mstore\n        /* \"#utility.yul\":11680:11843   */\n      pop\n      jump\t// out\n        /* \"#utility.yul\":11849:12215   */\n    tag_273:\n        /* \"#utility.yul\":11991:11994   */\n      0x00\n        /* \"#utility.yul\":12012:12079   */\n      tag_401\n        /* \"#utility.yul\":12076:12078   */\n      0x0d\n        /* \"#utility.yul\":12071:12074   */\n      dup4\n        /* \"#utility.yul\":12012:12079   */\n      tag_256\n      jump\t// in\n    tag_401:\n        /* \"#utility.yul\":12005:12079   */\n      swap2\n      pop\n        /* \"#utility.yul\":12088:12181   */\n      tag_402\n        /* \"#utility.yul\":12177:12180   */\n      dup3\n        /* \"#utility.yul\":12088:12181   */\n      tag_272\n      jump\t// in\n    tag_402:\n        /* \"#utility.yul\":12206:12208   */\n      0x20\n        /* \"#utility.yul\":12201:12204   */\n      dup3\n        /* \"#utility.yul\":12197:12209   */\n      add\n        /* \"#utility.yul\":12190:12209   */\n      swap1\n      pop\n        /* \"#utility.yul\":11849:12215   */\n      swap2\n      swap1\n      pop\n      jump\t// out\n        /* \"#utility.yul\":12221:12640   */\n    tag_141:\n        /* \"#utility.yul\":12387:12391   */\n      0x00\n        /* \"#utility.yul\":12425:12427   */\n      0x20\n        /* \"#utility.yul\":12414:12423   */\n      dup3\n        /* \"#utility.yul\":12410:12428   */\n      add\n        /* \"#utility.yul\":12402:12428   */\n      swap1\n      pop\n        /* \"#utility.yul\":12474:12483   */\n      dup2\n        /* \"#utility.yul\":12468:12472   */\n      dup2\n        /* \"#utility.yul\":12464:12484   */\n      sub\n        /* \"#utility.yul\":12460:12461   */\n      0x00\n        /* \"#utility.yul\":12449:12458   */\n      dup4\n        /* \"#utility.yul\":12445:12462   */\n      add\n        /* \"#utility.yul\":12438:12485   */\n      mstore\n        /* \"#utility.yul\":12502:12633   */\n      tag_404\n        /* \"#utility.yul\":12628:12632   */\n      dup2\n        /* \"#utility.yul\":12502:12633   */\n      tag_273\n      jump\t// in\n    tag_404:\n        /* \"#utility.yul\":12494:12633   */\n      swap1\n      pop\n        /* \"#utility.yul\":12221:12640   */\n      swap2\n      swap1\n      pop\n      jump\t// out\n        /* \"#utility.yul\":12646:12821   */\n    tag_274:\n        /* \"#utility.yul\":12786:12813   */\n      0x496e73756666696369656e742066756e647320696e206a617200000000000000\n        /* \"#utility.yul\":12782:12783   */\n      0x00\n        /* \"#utility.yul\":12774:12780   */\n      dup3\n        /* \"#utility.yul\":12770:12784   */\n      add\n        /* \"#utility.yul\":12763:12814   */\n      mstore\n        /* \"#utility.yul\":12646:12821   */\n      pop\n      jump\t// out\n        /* \"#utility.yul\":12827:13193   */\n    tag_275:\n        /* \"#utility.yul\":12969:12972   */\n      0x00\n        /* \"#utility.yul\":12990:13057   */\n      tag_407\n        /* \"#utility.yul\":13054:13056   */\n      0x19\n        /* \"#utility.yul\":13049:13052   */\n      dup4\n        /* \"#utility.yul\":12990:13057   */\n      tag_256\n      jump\t// in\n    tag_407:\n        /* \"#utility.yul\":12983:13057   */\n      swap2\n      pop\n        /* \"#utility.yul\":13066:13159   */\n      tag_408\n        /* \"#utility.yul\":13155:13158   */\n      dup3\n        /* \"#utility.yul\":13066:13159   */\n      tag_274\n      jump\t// in\n    tag_408:\n        /* \"#utility.yul\":13184:13186   */\n      0x20\n        /* \"#utility.yul\":13179:13182   */\n      dup3\n        /* \"#utility.yul\":13175:13187   */\n      add\n        /* \"#utility.yul\":13168:13187   */\n      swap1\n      pop\n        /* \"#utility.yul\":12827:13193   */\n      swap2\n      swap1\n      pop\n      jump\t// out\n        /* \"#utility.yul\":13199:13618   */\n    tag_144:\n        /* \"#utility.yul\":13365:13369   */\n      0x00\n        /* \"#utility.yul\":13403:13405   */\n      0x20\n        /* \"#utility.yul\":13392:13401   */\n      dup3\n        /* \"#utility.yul\":13388:13406   */\n      add\n        /* \"#utility.yul\":13380:13406   */\n      swap1\n      pop\n        /* \"#utility.yul\":13452:13461   */\n      dup2\n        /* \"#utility.yul\":13446:13450   */\n      dup2\n        /* \"#utility.yul\":13442:13462   */\n      sub\n        /* \"#utility.yul\":13438:13439   */\n      0x00\n        /* \"#utility.yul\":13427:13436   */\n      dup4\n        /* \"#utility.yul\":13423:13440   */\n      add\n        /* \"#utility.yul\":13416:13463   */\n      mstore\n        /* \"#utility.yul\":13480:13611   */\n      tag_410\n        /* \"#utility.yul\":13606:13610   */\n      dup2\n        /* \"#utility.yul\":13480:13611   */\n      tag_275\n      jump\t// in\n    tag_410:\n        /* \"#utility.yul\":13472:13611   */\n      swap1\n      pop\n        /* \"#utility.yul\":13199:13618   */\n      swap2\n      swap1\n      pop\n      jump\t// out\n        /* \"#utility.yul\":13624:13794   */\n    tag_276:\n        /* \"#utility.yul\":13764:13786   */\n      0x496e636f72726563742045544820616d6f756e74000000000000000000000000\n        /* \"#utility.yul\":13760:13761   */\n      0x00\n        /* \"#utility.yul\":13752:13758   */\n      dup3\n        /* \"#utility.yul\":13748:13762   */\n      add\n        /* \"#utility.yul\":13741:13787   */\n      mstore\n        /* \"#utility.yul\":13624:13794   */\n      pop\n      jump\t// out\n        /* \"#utility.yul\":13800:14166   */\n    tag_277:\n        /* \"#utility.yul\":13942:13945   */\n      0x00\n        /* \"#utility.yul\":13963:14030   */\n      tag_413\n        /* \"#utility.yul\":14027:14029   */\n      0x14\n        /* \"#utility.yul\":14022:14025   */\n      dup4\n        /* \"#utility.yul\":13963:14030   */\n      tag_256\n      jump\t// in\n    tag_413:\n        /* \"#utility.yul\":13956:14030   */\n      swap2\n      pop\n        /* \"#utility.yul\":14039:14132   */\n      tag_414\n        /* \"#utility.yul\":14128:14131   */\n      dup3\n        /* \"#utility.yul\":14039:14132   */\n      tag_276\n      jump\t// in\n    tag_414:\n        /* \"#utility.yul\":14157:14159   */\n      0x20\n        /* \"#utility.yul\":14152:14155   */\n      dup3\n        /* \"#utility.yul\":14148:14160   */\n      add\n        /* \"#utility.yul\":14141:14160   */\n      swap1\n      pop\n        /* \"#utility.yul\":13800:14166   */\n      swap2\n      swap1\n      pop\n      jump\t// out\n        /* \"#utility.yul\":14172:14591   */\n    tag_175:\n        /* \"#utility.yul\":14338:14342   */\n      0x00\n        /* \"#utility.yul\":14376:14378   */\n      0x20\n        /* \"#utility.yul\":14365:14374   */\n      dup3\n        /* \"#utility.yul\":14361:14379   */\n      add\n        /* \"#utility.yul\":14353:14379   */\n      swap1\n      pop\n        /* \"#utility.yul\":14425:14434   */\n      dup2\n        /* \"#utility.yul\":14419:14423   */\n      dup2\n        /* \"#utility.yul\":14415:14435   */\n      sub\n        /* \"#utility.yul\":14411:14412   */\n      0x00\n        /* \"#utility.yul\":14400:14409   */\n      dup4\n        /* \"#utility.yul\":14396:14413   */\n      add\n        /* \"#utility.yul\":14389:14436   */\n      mstore\n        /* \"#utility.yul\":14453:14584   */\n      tag_416\n        /* \"#utility.yul\":14579:14583   */\n      dup2\n        /* \"#utility.yul\":14453:14584   */\n      tag_277\n      jump\t// in\n    tag_416:\n        /* \"#utility.yul\":14445:14584   */\n      swap1\n      pop\n        /* \"#utility.yul\":14172:14591   */\n      swap2\n      swap1\n      pop\n      jump\t// out\n        /* \"#utility.yul\":14597:15039   */\n    tag_178:\n        /* \"#utility.yul\":14746:14750   */\n      0x00\n        /* \"#utility.yul\":14784:14786   */\n      0x60\n        /* \"#utility.yul\":14773:14782   */\n      dup3\n        /* \"#utility.yul\":14769:14787   */\n      add\n        /* \"#utility.yul\":14761:14787   */\n      swap1\n      pop\n        /* \"#utility.yul\":14797:14868   */\n      tag_418\n        /* \"#utility.yul\":14865:14866   */\n      0x00\n        /* \"#utility.yul\":14854:14863   */\n      dup4\n        /* \"#utility.yul\":14850:14867   */\n      add\n        /* \"#utility.yul\":14841:14847   */\n      dup7\n        /* \"#utility.yul\":14797:14868   */\n      tag_255\n      jump\t// in\n    tag_418:\n        /* \"#utility.yul\":14878:14950   */\n      tag_419\n        /* \"#utility.yul\":14946:14948   */\n      0x20\n        /* \"#utility.yul\":14935:14944   */\n      dup4\n        /* \"#utility.yul\":14931:14949   */\n      add\n        /* \"#utility.yul\":14922:14928   */\n      dup6\n        /* \"#utility.yul\":14878:14950   */\n      tag_255\n      jump\t// in\n    tag_419:\n        /* \"#utility.yul\":14960:15032   */\n      tag_420\n        /* \"#utility.yul\":15028:15030   */\n      0x40\n        /* \"#utility.yul\":15017:15026   */\n      dup4\n        /* \"#utility.yul\":15013:15031   */\n      add\n        /* \"#utility.yul\":15004:15010   */\n      dup5\n        /* \"#utility.yul\":14960:15032   */\n      tag_240\n      jump\t// in\n    tag_420:\n        /* \"#utility.yul\":14597:15039   */\n      swap5\n      swap4\n      pop\n      pop\n      pop\n      pop\n      jump\t// out\n        /* \"#utility.yul\":15045:15130   */\n    tag_278:\n        /* \"#utility.yul\":15090:15097   */\n      0x00\n        /* \"#utility.yul\":15119:15124   */\n      dup2\n        /* \"#utility.yul\":15108:15124   */\n      swap1\n      pop\n        /* \"#utility.yul\":15045:15130   */\n      swap2\n      swap1\n      pop\n      jump\t// out\n        /* \"#utility.yul\":15136:15237   */\n    tag_279:\n        /* \"#utility.yul\":15172:15179   */\n      0x00\n        /* \"#utility.yul\":15212:15230   */\n      0xffffffffffffffff\n        /* \"#utility.yul\":15205:15210   */\n      dup3\n        /* \"#utility.yul\":15201:15231   */\n      and\n        /* \"#utility.yul\":15190:15231   */\n      swap1\n      pop\n        /* \"#utility.yul\":15136:15237   */\n      swap2\n      swap1\n      pop\n      jump\t// out\n        /* \"#utility.yul\":15243:15399   */\n    tag_280:\n        /* \"#utility.yul\":15300:15309   */\n      0x00\n        /* \"#utility.yul\":15333:15393   */\n      tag_424\n        /* \"#utility.yul\":15350:15392   */\n      tag_425\n        /* \"#utility.yul\":15359:15391   */\n      tag_426\n        /* \"#utility.yul\":15385:15390   */\n      dup5\n        /* \"#utility.yul\":15359:15391   */\n      tag_278\n      jump\t// in\n    tag_426:\n        /* \"#utility.yul\":15350:15392   */\n      tag_250\n      jump\t// in\n    tag_425:\n        /* \"#utility.yul\":15333:15393   */\n      tag_279\n      jump\t// in\n    tag_424:\n        /* \"#utility.yul\":15320:15393   */\n      swap1\n      pop\n        /* \"#utility.yul\":15243:15399   */\n      swap2\n      swap1\n      pop\n      jump\t// out\n        /* \"#utility.yul\":15405:15550   */\n    tag_281:\n        /* \"#utility.yul\":15499:15543   */\n      tag_428\n        /* \"#utility.yul\":15537:15542   */\n      dup2\n        /* \"#utility.yul\":15499:15543   */\n      tag_280\n      jump\t// in\n    tag_428:\n        /* \"#utility.yul\":15494:15497   */\n      dup3\n        /* \"#utility.yul\":15487:15544   */\n      mstore\n        /* \"#utility.yul\":15405:15550   */\n      pop\n      pop\n      jump\t// out\n        /* \"#utility.yul\":15556:15792   */\n    tag_203:\n        /* \"#utility.yul\":15656:15660   */\n      0x00\n        /* \"#utility.yul\":15694:15696   */\n      0x20\n        /* \"#utility.yul\":15683:15692   */\n      dup3\n        /* \"#utility.yul\":15679:15697   */\n      add\n        /* \"#utility.yul\":15671:15697   */\n      swap1\n      pop\n        /* \"#utility.yul\":15707:15785   */\n      tag_430\n        /* \"#utility.yul\":15782:15783   */\n      0x00\n        /* \"#utility.yul\":15771:15780   */\n      dup4\n        /* \"#utility.yul\":15767:15784   */\n      add\n        /* \"#utility.yul\":15758:15764   */\n      dup5\n        /* \"#utility.yul\":15707:15785   */\n      tag_281\n      jump\t// in\n    tag_430:\n        /* \"#utility.yul\":15556:15792   */\n      swap3\n      swap2\n      pop\n      pop\n      jump\t// out\n\n    auxdata: 0xa264697066735822122040f2d7f931d5c3a5bd9a9d700e4e195e6d7fbcafa3736924637b6df356220df364736f6c634300081a0033\n}\n",
				"bytecode": {
					"linkReferences": {},
					"object": "6080604052348015600e575f80fd5b50611a188061001c5f395ff3fe6080604052600436106100f6575f3560e01c8063abbeb55b11610089578063f2fde38b11610058578063f2fde38b14610347578063f7c00e631461036f578063f8175d7814610397578063fc0c546a146103bf57610163565b8063abbeb55b146102af578063ad7a672f146102d7578063b6b55f2514610301578063de9d2a771461031d57610163565b806367eeba0c116100c557806367eeba0c1461021b578063715018a61461024557806385c758f71461025b5780638da5cb5b1461028557610163565b8063013eba921461016757806303191ffc146101a35780632e1a7d4d146101cb578063379607f5146101f357610163565b36610163573460035f82825461010c91906112da565b925050819055503373ffffffffffffffffffffffffffffffffffffffff167fe1fffcc4923d04b559f4d29a8bfc6cda04eb5b0d3c460751c2402c5c5cc9109c34604051610159919061131c565b60405180910390a2005b5f80fd5b348015610172575f80fd5b5061018d60048036038101906101889190611393565b6103e9565b60405161019a919061131c565b60405180910390f35b3480156101ae575f80fd5b506101c960048036038101906101c49190611393565b6103fe565b005b3480156101d6575f80fd5b506101f160048036038101906101ec91906113e8565b610449565b005b3480156101fe575f80fd5b50610219600480360381019061021491906113e8565b61065b565b005b348015610226575f80fd5b5061022f610a97565b60405161023c919061131c565b60405180910390f35b348015610250575f80fd5b50610259610a9d565b005b348015610266575f80fd5b5061026f610ab0565b60405161027c919061146e565b60405180910390f35b348015610290575f80fd5b50610299610ad5565b6040516102a69190611496565b60405180910390f35b3480156102ba575f80fd5b506102d560048036038101906102d091906113e8565b610b0a565b005b3480156102e2575f80fd5b506102eb610b53565b6040516102f8919061131c565b60405180910390f35b61031b600480360381019061031691906113e8565b610b59565b005b348015610328575f80fd5b50610331610cf9565b60405161033e919061131c565b60405180910390f35b348015610352575f80fd5b5061036d60048036038101906103689190611393565b610cff565b005b34801561037a575f80fd5b50610395600480360381019061039091906114af565b610d83565b005b3480156103a2575f80fd5b506103bd60048036038101906103b891906113e8565b610f95565b005b3480156103ca575f80fd5b506103d3610fde565b6040516103e09190611496565b60405180910390f35b6005602052805f5260405f205f915090505481565b610406611001565b8060015f6101000a81548173ffffffffffffffffffffffffffffffffffffffff021916908373ffffffffffffffffffffffffffffffffffffffff16021790555050565b610451611001565b600354811115610496576040517f08c379a000000000000000000000000000000000000000000000000000000000815260040161048d90611580565b60405180910390fd5b8060035f8282546104a7919061159e565b925050819055505f73ffffffffffffffffffffffffffffffffffffffff165f8054906101000a900473ffffffffffffffffffffffffffffffffffffffff1673ffffffffffffffffffffffffffffffffffffffff16036105b5575f610509610ad5565b73ffffffffffffffffffffffffffffffffffffffff168260405161052c906115fe565b5f6040518083038185875af1925050503d805f8114610566576040519150601f19603f3d011682016040523d82523d5f602084013e61056b565b606091505b50509050806105af576040517f08c379a00000000000000000000000000000000000000000000000000000000081526004016105a69061165c565b60405180910390fd5b50610658565b5f8054906101000a900473ffffffffffffffffffffffffffffffffffffffff1673ffffffffffffffffffffffffffffffffffffffff1663a9059cbb6105f8610ad5565b836040518363ffffffff1660e01b815260040161061692919061167a565b6020604051808303815f875af1158015610632573d5f803e3d5ffd5b505050506040513d601f19601f8201168201806040525081019061065691906116d6565b505b50565b6002548111156106a0576040517f08c379a00000000000000000000000000000000000000000000000000000000081526004016106979061174b565b60405180910390fd5b6201518060055f3373ffffffffffffffffffffffffffffffffffffffff1673ffffffffffffffffffffffffffffffffffffffff1681526020019081526020015f2054426106ed919061159e565b101561072e576040517f08c379a0000000000000000000000000000000000000000000000000000000008152600401610725906117b3565b60405180910390fd5b60045460015f9054906101000a900473ffffffffffffffffffffffffffffffffffffffff1673ffffffffffffffffffffffffffffffffffffffff1663776f3843336040518263ffffffff1660e01b815260040161078b9190611496565b602060405180830381865afa1580156107a6573d5f803e3d5ffd5b505050506040513d601f19601f820116820180604052508101906107ca91906117e5565b101561080b576040517f08c379a00000000000000000000000000000000000000000000000000000000081526004016108029061185a565b60405180910390fd5b600354811115610850576040517f08c379a0000000000000000000000000000000000000000000000000000000008152600401610847906118c2565b60405180910390fd5b4260055f3373ffffffffffffffffffffffffffffffffffffffff1673ffffffffffffffffffffffffffffffffffffffff1681526020019081526020015f20819055508060035f8282546108a3919061159e565b925050819055505f73ffffffffffffffffffffffffffffffffffffffff165f8054906101000a900473ffffffffffffffffffffffffffffffffffffffff1673ffffffffffffffffffffffffffffffffffffffff16036109aa575f3373ffffffffffffffffffffffffffffffffffffffff1682604051610921906115fe565b5f6040518083038185875af1925050503d805f811461095b576040519150601f19603f3d011682016040523d82523d5f602084013e610960565b606091505b50509050806109a4576040517f08c379a000000000000000000000000000000000000000000000000000000000815260040161099b9061165c565b60405180910390fd5b50610a46565b5f8054906101000a900473ffffffffffffffffffffffffffffffffffffffff1673ffffffffffffffffffffffffffffffffffffffff1663a9059cbb33836040518363ffffffff1660e01b8152600401610a0492919061167a565b6020604051808303815f875af1158015610a20573d5f803e3d5ffd5b505050506040513d601f19601f82011682018060405250810190610a4491906116d6565b505b3373ffffffffffffffffffffffffffffffffffffffff167fd8138f8a3f377c5259ca548e70e4c2de94f129f5a11036a15b69513cba2b426a82604051610a8c919061131c565b60405180910390a250565b60025481565b610aa5611001565b610aae5f611088565b565b60015f9054906101000a900473ffffffffffffffffffffffffffffffffffffffff1681565b5f80610adf611159565b9050805f015f9054906101000a900473ffffffffffffffffffffffffffffffffffffffff1691505090565b610b12611001565b806004819055507fd98c5078430f16c83b85da9a630c27aac195dd3e768e25b102dfffa99f64b4d281604051610b48919061131c565b60405180910390a150565b60035481565b5f73ffffffffffffffffffffffffffffffffffffffff165f8054906101000a900473ffffffffffffffffffffffffffffffffffffffff1673ffffffffffffffffffffffffffffffffffffffff1603610bf257803414610bed576040517f08c379a0000000000000000000000000000000000000000000000000000000008152600401610be49061192a565b60405180910390fd5b610c90565b5f8054906101000a900473ffffffffffffffffffffffffffffffffffffffff1673ffffffffffffffffffffffffffffffffffffffff166323b872dd3330846040518463ffffffff1660e01b8152600401610c4e93929190611948565b6020604051808303815f875af1158015610c6a573d5f803e3d5ffd5b505050506040513d601f19601f82011682018060405250810190610c8e91906116d6565b505b8060035f828254610ca191906112da565b925050819055503373ffffffffffffffffffffffffffffffffffffffff167fe1fffcc4923d04b559f4d29a8bfc6cda04eb5b0d3c460751c2402c5c5cc9109c82604051610cee919061131c565b60405180910390a250565b60045481565b610d07611001565b5f73ffffffffffffffffffffffffffffffffffffffff168173ffffffffffffffffffffffffffffffffffffffff1603610d77575f6040517f1e4fbdf7000000000000000000000000000000000000000000000000000000008152600401610d6e9190611496565b60405180910390fd5b610d8081611088565b50565b5f610d8c611180565b90505f815f0160089054906101000a900460ff161590505f825f015f9054906101000a900467ffffffffffffffff1690505f808267ffffffffffffffff16148015610dd45750825b90505f60018367ffffffffffffffff16148015610e0757505f3073ffffffffffffffffffffffffffffffffffffffff163b145b905081158015610e15575080155b15610e4c576040517ff92ee8a900000000000000000000000000000000000000000000000000000000815260040160405180910390fd5b6001855f015f6101000a81548167ffffffffffffffff021916908367ffffffffffffffff1602179055508315610e99576001855f0160086101000a81548160ff0219169083151502179055505b610ea2876111a7565b895f806101000a81548173ffffffffffffffffffffffffffffffffffffffff021916908373ffffffffffffffffffffffffffffffffffffffff1602179055508860015f6101000a81548173ffffffffffffffffffffffffffffffffffffffff021916908373ffffffffffffffffffffffffffffffffffffffff16021790555087600281905550856004819055508315610f89575f855f0160086101000a81548160ff0219169083151502179055507fc7f505b2f371ae2175ee4913f4499e1f2633a7b5936321eed1cdaeb6115181d26001604051610f8091906119c9565b60405180910390a15b50505050505050505050565b610f9d611001565b806002819055507f69e4f4585a710debc30f07c33dcded264dd61e9dd02a9dfad6584a9189f185e481604051610fd3919061131c565b60405180910390a150565b5f8054906101000a900473ffffffffffffffffffffffffffffffffffffffff1681565b6110096111bb565b73ffffffffffffffffffffffffffffffffffffffff16611027610ad5565b73ffffffffffffffffffffffffffffffffffffffff16146110865761104a6111bb565b6040517f118cdaa700000000000000000000000000000000000000000000000000000000815260040161107d9190611496565b60405180910390fd5b565b5f611091611159565b90505f815f015f9054906101000a900473ffffffffffffffffffffffffffffffffffffffff16905082825f015f6101000a81548173ffffffffffffffffffffffffffffffffffffffff021916908373ffffffffffffffffffffffffffffffffffffffff1602179055508273ffffffffffffffffffffffffffffffffffffffff168173ffffffffffffffffffffffffffffffffffffffff167f8be0079c531659141344cd1fd0a4f28419497f9722a3daafe3b4186f6b6457e060405160405180910390a3505050565b5f7f9016d09d72d40fdae2fd8ceac6b6234c7706214fd39c1cd1e609a0528c199300905090565b5f7ff0c57e16840df040f15088dc2f81fe391c3923bec73e23a9662efc9c229c6a00905090565b6111af6111c2565b6111b881611202565b50565b5f33905090565b6111ca611286565b611200576040517fd7e6bcf800000000000000000000000000000000000000000000000000000000815260040160405180910390fd5b565b61120a6111c2565b5f73ffffffffffffffffffffffffffffffffffffffff168173ffffffffffffffffffffffffffffffffffffffff160361127a575f6040517f1e4fbdf70000000000000000000000000000000000000000000000000000000081526004016112719190611496565b60405180910390fd5b61128381611088565b50565b5f61128f611180565b5f0160089054906101000a900460ff16905090565b5f819050919050565b7f4e487b71000000000000000000000000000000000000000000000000000000005f52601160045260245ffd5b5f6112e4826112a4565b91506112ef836112a4565b9250828201905080821115611307576113066112ad565b5b92915050565b611316816112a4565b82525050565b5f60208201905061132f5f83018461130d565b92915050565b5f80fd5b5f73ffffffffffffffffffffffffffffffffffffffff82169050919050565b5f61136282611339565b9050919050565b61137281611358565b811461137c575f80fd5b50565b5f8135905061138d81611369565b92915050565b5f602082840312156113a8576113a7611335565b5b5f6113b58482850161137f565b91505092915050565b6113c7816112a4565b81146113d1575f80fd5b50565b5f813590506113e2816113be565b92915050565b5f602082840312156113fd576113fc611335565b5b5f61140a848285016113d4565b91505092915050565b5f819050919050565b5f61143661143161142c84611339565b611413565b611339565b9050919050565b5f6114478261141c565b9050919050565b5f6114588261143d565b9050919050565b6114688161144e565b82525050565b5f6020820190506114815f83018461145f565b92915050565b61149081611358565b82525050565b5f6020820190506114a95f830184611487565b92915050565b5f805f805f60a086880312156114c8576114c7611335565b5b5f6114d58882890161137f565b95505060206114e68882890161137f565b94505060406114f7888289016113d4565b93505060606115088882890161137f565b9250506080611519888289016113d4565b9150509295509295909350565b5f82825260208201905092915050565b7f496e73756666696369656e742066756e647300000000000000000000000000005f82015250565b5f61156a601283611526565b915061157582611536565b602082019050919050565b5f6020820190508181035f8301526115978161155e565b9050919050565b5f6115a8826112a4565b91506115b3836112a4565b92508282039050818111156115cb576115ca6112ad565b5b92915050565b5f81905092915050565b50565b5f6115e95f836115d1565b91506115f4826115db565b5f82019050919050565b5f611608826115de565b9150819050919050565b7f455448207472616e73666572206661696c6564000000000000000000000000005f82015250565b5f611646601383611526565b915061165182611612565b602082019050919050565b5f6020820190508181035f8301526116738161163a565b9050919050565b5f60408201905061168d5f830185611487565b61169a602083018461130d565b9392505050565b5f8115159050919050565b6116b5816116a1565b81146116bf575f80fd5b50565b5f815190506116d0816116ac565b92915050565b5f602082840312156116eb576116ea611335565b5b5f6116f8848285016116c2565b91505092915050565b7f45786365656473206461696c79206c696d6974000000000000000000000000005f82015250565b5f611735601383611526565b915061174082611701565b602082019050919050565b5f6020820190508181035f83015261176281611729565b9050919050565b7f4461696c7920636c61696d206c696d69742072656163686564000000000000005f82015250565b5f61179d601983611526565b91506117a882611769565b602082019050919050565b5f6020820190508181035f8301526117ca81611791565b9050919050565b5f815190506117df816113be565b92915050565b5f602082840312156117fa576117f9611335565b5b5f611807848285016117d1565b91505092915050565b7f53636f726520746f6f206c6f77000000000000000000000000000000000000005f82015250565b5f611844600d83611526565b915061184f82611810565b602082019050919050565b5f6020820190508181035f83015261187181611838565b9050919050565b7f496e73756666696369656e742066756e647320696e206a6172000000000000005f82015250565b5f6118ac601983611526565b91506118b782611878565b602082019050919050565b5f6020820190508181035f8301526118d9816118a0565b9050919050565b7f496e636f72726563742045544820616d6f756e740000000000000000000000005f82015250565b5f611914601483611526565b915061191f826118e0565b602082019050919050565b5f6020820190508181035f83015261194181611908565b9050919050565b5f60608201905061195b5f830186611487565b6119686020830185611487565b611975604083018461130d565b949350505050565b5f819050919050565b5f67ffffffffffffffff82169050919050565b5f6119b36119ae6119a98461197d565b611413565b611986565b9050919050565b6119c381611999565b82525050565b5f6020820190506119dc5f8301846119ba565b9291505056fea264697066735822122040f2d7f931d5c3a5bd9a9d700e4e195e6d7fbcafa3736924637b6df356220df364736f6c634300081a0033",
					"opcodes": "PUSH1 0x80 PUSH1 0x40 MSTORE CALLVALUE DUP1 ISZERO PUSH1 0xE JUMPI PUSH0 DUP1 REVERT JUMPDEST POP PUSH2 0x1A18 DUP1 PUSH2 0x1C PUSH0 CODECOPY PUSH0 RETURN INVALID PUSH1 0x80 PUSH1 0x40 MSTORE PUSH1 0x4 CALLDATASIZE LT PUSH2 0xF6 JUMPI PUSH0 CALLDATALOAD PUSH1 0xE0 SHR DUP1 PUSH4 0xABBEB55B GT PUSH2 0x89 JUMPI DUP1 PUSH4 0xF2FDE38B GT PUSH2 0x58 JUMPI DUP1 PUSH4 0xF2FDE38B EQ PUSH2 0x347 JUMPI DUP1 PUSH4 0xF7C00E63 EQ PUSH2 0x36F JUMPI DUP1 PUSH4 0xF8175D78 EQ PUSH2 0x397 JUMPI DUP1 PUSH4 0xFC0C546A EQ PUSH2 0x3BF JUMPI PUSH2 0x163 JUMP JUMPDEST DUP1 PUSH4 0xABBEB55B EQ PUSH2 0x2AF JUMPI DUP1 PUSH4 0xAD7A672F EQ PUSH2 0x2D7 JUMPI DUP1 PUSH4 0xB6B55F25 EQ PUSH2 0x301 JUMPI DUP1 PUSH4 0xDE9D2A77 EQ PUSH2 0x31D JUMPI PUSH2 0x163 JUMP JUMPDEST DUP1 PUSH4 0x67EEBA0C GT PUSH2 0xC5 JUMPI DUP1 PUSH4 0x67EEBA0C EQ PUSH2 0x21B JUMPI DUP1 PUSH4 0x715018A6 EQ PUSH2 0x245 JUMPI DUP1 PUSH4 0x85C758F7 EQ PUSH2 0x25B JUMPI DUP1 PUSH4 0x8DA5CB5B EQ PUSH2 0x285 JUMPI PUSH2 0x163 JUMP JUMPDEST DUP1 PUSH4 0x13EBA92 EQ PUSH2 0x167 JUMPI DUP1 PUSH4 0x3191FFC EQ PUSH2 0x1A3 JUMPI DUP1 PUSH4 0x2E1A7D4D EQ PUSH2 0x1CB JUMPI DUP1 PUSH4 0x379607F5 EQ PUSH2 0x1F3 JUMPI PUSH2 0x163 JUMP JUMPDEST CALLDATASIZE PUSH2 0x163 JUMPI CALLVALUE PUSH1 0x3 PUSH0 DUP3 DUP3 SLOAD PUSH2 0x10C SWAP2 SWAP1 PUSH2 0x12DA JUMP JUMPDEST SWAP3 POP POP DUP2 SWAP1 SSTORE POP CALLER PUSH20 0xFFFFFFFFFFFFFFFFFFFFFFFFFFFFFFFFFFFFFFFF AND PUSH32 0xE1FFFCC4923D04B559F4D29A8BFC6CDA04EB5B0D3C460751C2402C5C5CC9109C CALLVALUE PUSH1 0x40 MLOAD PUSH2 0x159 SWAP2 SWAP1 PUSH2 0x131C JUMP JUMPDEST PUSH1 0x40 MLOAD DUP1 SWAP2 SUB SWAP1 LOG2 STOP JUMPDEST PUSH0 DUP1 REVERT JUMPDEST CALLVALUE DUP1 ISZERO PUSH2 0x172 JUMPI PUSH0 DUP1 REVERT JUMPDEST POP PUSH2 0x18D PUSH1 0x4 DUP1 CALLDATASIZE SUB DUP2 ADD SWAP1 PUSH2 0x188 SWAP2 SWAP1 PUSH2 0x1393 JUMP JUMPDEST PUSH2 0x3E9 JUMP JUMPDEST PUSH1 0x40 MLOAD PUSH2 0x19A SWAP2 SWAP1 PUSH2 0x131C JUMP JUMPDEST PUSH1 0x40 MLOAD DUP1 SWAP2 SUB SWAP1 RETURN JUMPDEST CALLVALUE DUP1 ISZERO PUSH2 0x1AE JUMPI PUSH0 DUP1 REVERT JUMPDEST POP PUSH2 0x1C9 PUSH1 0x4 DUP1 CALLDATASIZE SUB DUP2 ADD SWAP1 PUSH2 0x1C4 SWAP2 SWAP1 PUSH2 0x1393 JUMP JUMPDEST PUSH2 0x3FE JUMP JUMPDEST STOP JUMPDEST CALLVALUE DUP1 ISZERO PUSH2 0x1D6 JUMPI PUSH0 DUP1 REVERT JUMPDEST POP PUSH2 0x1F1 PUSH1 0x4 DUP1 CALLDATASIZE SUB DUP2 ADD SWAP1 PUSH2 0x1EC SWAP2 SWAP1 PUSH2 0x13E8 JUMP JUMPDEST PUSH2 0x449 JUMP JUMPDEST STOP JUMPDEST CALLVALUE DUP1 ISZERO PUSH2 0x1FE JUMPI PUSH0 DUP1 REVERT JUMPDEST POP PUSH2 0x219 PUSH1 0x4 DUP1 CALLDATASIZE SUB DUP2 ADD SWAP1 PUSH2 0x214 SWAP2 SWAP1 PUSH2 0x13E8 JUMP JUMPDEST PUSH2 0x65B JUMP JUMPDEST STOP JUMPDEST CALLVALUE DUP1 ISZERO PUSH2 0x226 JUMPI PUSH0 DUP1 REVERT JUMPDEST POP PUSH2 0x22F PUSH2 0xA97 JUMP JUMPDEST PUSH1 0x40 MLOAD PUSH2 0x23C SWAP2 SWAP1 PUSH2 0x131C JUMP JUMPDEST PUSH1 0x40 MLOAD DUP1 SWAP2 SUB SWAP1 RETURN JUMPDEST CALLVALUE DUP1 ISZERO PUSH2 0x250 JUMPI PUSH0 DUP1 REVERT JUMPDEST POP PUSH2 0x259 PUSH2 0xA9D JUMP JUMPDEST STOP JUMPDEST CALLVALUE DUP1 ISZERO PUSH2 0x266 JUMPI PUSH0 DUP1 REVERT JUMPDEST POP PUSH2 0x26F PUSH2 0xAB0 JUMP JUMPDEST PUSH1 0x40 MLOAD PUSH2 0x27C SWAP2 SWAP1 PUSH2 0x146E JUMP JUMPDEST PUSH1 0x40 MLOAD DUP1 SWAP2 SUB SWAP1 RETURN JUMPDEST CALLVALUE DUP1 ISZERO PUSH2 0x290 JUMPI PUSH0 DUP1 REVERT JUMPDEST POP PUSH2 0x299 PUSH2 0xAD5 JUMP JUMPDEST PUSH1 0x40 MLOAD PUSH2 0x2A6 SWAP2 SWAP1 PUSH2 0x1496 JUMP JUMPDEST PUSH1 0x40 MLOAD DUP1 SWAP2 SUB SWAP1 RETURN JUMPDEST CALLVALUE DUP1 ISZERO PUSH2 0x2BA JUMPI PUSH0 DUP1 REVERT JUMPDEST POP PUSH2 0x2D5 PUSH1 0x4 DUP1 CALLDATASIZE SUB DUP2 ADD SWAP1 PUSH2 0x2D0 SWAP2 SWAP1 PUSH2 0x13E8 JUMP JUMPDEST PUSH2 0xB0A JUMP JUMPDEST STOP JUMPDEST CALLVALUE DUP1 ISZERO PUSH2 0x2E2 JUMPI PUSH0 DUP1 REVERT JUMPDEST POP PUSH2 0x2EB PUSH2 0xB53 JUMP JUMPDEST PUSH1 0x40 MLOAD PUSH2 0x2F8 SWAP2 SWAP1 PUSH2 0x131C JUMP JUMPDEST PUSH1 0x40 MLOAD DUP1 SWAP2 SUB SWAP1 RETURN JUMPDEST PUSH2 0x31B PUSH1 0x4 DUP1 CALLDATASIZE SUB DUP2 ADD SWAP1 PUSH2 0x316 SWAP2 SWAP1 PUSH2 0x13E8 JUMP JUMPDEST PUSH2 0xB59 JUMP JUMPDEST STOP JUMPDEST CALLVALUE DUP1 ISZERO PUSH2 0x328 JUMPI PUSH0 DUP1 REVERT JUMPDEST POP PUSH2 0x331 PUSH2 0xCF9 JUMP JUMPDEST PUSH1 0x40 MLOAD PUSH2 0x33E SWAP2 SWAP1 PUSH2 0x131C JUMP JUMPDEST PUSH1 0x40 MLOAD DUP1 SWAP2 SUB SWAP1 RETURN JUMPDEST CALLVALUE DUP1 ISZERO PUSH2 0x352 JUMPI PUSH0 DUP1 REVERT JUMPDEST POP PUSH2 0x36D PUSH1 0x4 DUP1 CALLDATASIZE SUB DUP2 ADD SWAP1 PUSH2 0x368 SWAP2 SWAP1 PUSH2 0x1393 JUMP JUMPDEST PUSH2 0xCFF JUMP JUMPDEST STOP JUMPDEST CALLVALUE DUP1 ISZERO PUSH2 0x37A JUMPI PUSH0 DUP1 REVERT JUMPDEST POP PUSH2 0x395 PUSH1 0x4 DUP1 CALLDATASIZE SUB DUP2 ADD SWAP1 PUSH2 0x390 SWAP2 SWAP1 PUSH2 0x14AF JUMP JUMPDEST PUSH2 0xD83 JUMP JUMPDEST STOP JUMPDEST CALLVALUE DUP1 ISZERO PUSH2 0x3A2 JUMPI PUSH0 DUP1 REVERT JUMPDEST POP PUSH2 0x3BD PUSH1 0x4 DUP1 CALLDATASIZE SUB DUP2 ADD SWAP1 PUSH2 0x3B8 SWAP2 SWAP1 PUSH2 0x13E8 JUMP JUMPDEST PUSH2 0xF95 JUMP JUMPDEST STOP JUMPDEST CALLVALUE DUP1 ISZERO PUSH2 0x3CA JUMPI PUSH0 DUP1 REVERT JUMPDEST POP PUSH2 0x3D3 PUSH2 0xFDE JUMP JUMPDEST PUSH1 0x40 MLOAD PUSH2 0x3E0 SWAP2 SWAP1 PUSH2 0x1496 JUMP JUMPDEST PUSH1 0x40 MLOAD DUP1 SWAP2 SUB SWAP1 RETURN JUMPDEST PUSH1 0x5 PUSH1 0x20 MSTORE DUP1 PUSH0 MSTORE PUSH1 0x40 PUSH0 KECCAK256 PUSH0 SWAP2 POP SWAP1 POP SLOAD DUP2 JUMP JUMPDEST PUSH2 0x406 PUSH2 0x1001 JUMP JUMPDEST DUP1 PUSH1 0x1 PUSH0 PUSH2 0x100 EXP DUP2 SLOAD DUP2 PUSH20 0xFFFFFFFFFFFFFFFFFFFFFFFFFFFFFFFFFFFFFFFF MUL NOT AND SWAP1 DUP4 PUSH20 0xFFFFFFFFFFFFFFFFFFFFFFFFFFFFFFFFFFFFFFFF AND MUL OR SWAP1 SSTORE POP POP JUMP JUMPDEST PUSH2 0x451 PUSH2 0x1001 JUMP JUMPDEST PUSH1 0x3 SLOAD DUP2 GT ISZERO PUSH2 0x496 JUMPI PUSH1 0x40 MLOAD PUSH32 0x8C379A000000000000000000000000000000000000000000000000000000000 DUP2 MSTORE PUSH1 0x4 ADD PUSH2 0x48D SWAP1 PUSH2 0x1580 JUMP JUMPDEST PUSH1 0x40 MLOAD DUP1 SWAP2 SUB SWAP1 REVERT JUMPDEST DUP1 PUSH1 0x3 PUSH0 DUP3 DUP3 SLOAD PUSH2 0x4A7 SWAP2 SWAP1 PUSH2 0x159E JUMP JUMPDEST SWAP3 POP POP DUP2 SWAP1 SSTORE POP PUSH0 PUSH20 0xFFFFFFFFFFFFFFFFFFFFFFFFFFFFFFFFFFFFFFFF AND PUSH0 DUP1 SLOAD SWAP1 PUSH2 0x100 EXP SWAP1 DIV PUSH20 0xFFFFFFFFFFFFFFFFFFFFFFFFFFFFFFFFFFFFFFFF AND PUSH20 0xFFFFFFFFFFFFFFFFFFFFFFFFFFFFFFFFFFFFFFFF AND SUB PUSH2 0x5B5 JUMPI PUSH0 PUSH2 0x509 PUSH2 0xAD5 JUMP JUMPDEST PUSH20 0xFFFFFFFFFFFFFFFFFFFFFFFFFFFFFFFFFFFFFFFF AND DUP3 PUSH1 0x40 MLOAD PUSH2 0x52C SWAP1 PUSH2 0x15FE JUMP JUMPDEST PUSH0 PUSH1 0x40 MLOAD DUP1 DUP4 SUB DUP2 DUP6 DUP8 GAS CALL SWAP3 POP POP POP RETURNDATASIZE DUP1 PUSH0 DUP2 EQ PUSH2 0x566 JUMPI PUSH1 0x40 MLOAD SWAP2 POP PUSH1 0x1F NOT PUSH1 0x3F RETURNDATASIZE ADD AND DUP3 ADD PUSH1 0x40 MSTORE RETURNDATASIZE DUP3 MSTORE RETURNDATASIZE PUSH0 PUSH1 0x20 DUP5 ADD RETURNDATACOPY PUSH2 0x56B JUMP JUMPDEST PUSH1 0x60 SWAP2 POP JUMPDEST POP POP SWAP1 POP DUP1 PUSH2 0x5AF JUMPI PUSH1 0x40 MLOAD PUSH32 0x8C379A000000000000000000000000000000000000000000000000000000000 DUP2 MSTORE PUSH1 0x4 ADD PUSH2 0x5A6 SWAP1 PUSH2 0x165C JUMP JUMPDEST PUSH1 0x40 MLOAD DUP1 SWAP2 SUB SWAP1 REVERT JUMPDEST POP PUSH2 0x658 JUMP JUMPDEST PUSH0 DUP1 SLOAD SWAP1 PUSH2 0x100 EXP SWAP1 DIV PUSH20 0xFFFFFFFFFFFFFFFFFFFFFFFFFFFFFFFFFFFFFFFF AND PUSH20 0xFFFFFFFFFFFFFFFFFFFFFFFFFFFFFFFFFFFFFFFF AND PUSH4 0xA9059CBB PUSH2 0x5F8 PUSH2 0xAD5 JUMP JUMPDEST DUP4 PUSH1 0x40 MLOAD DUP4 PUSH4 0xFFFFFFFF AND PUSH1 0xE0 SHL DUP2 MSTORE PUSH1 0x4 ADD PUSH2 0x616 SWAP3 SWAP2 SWAP1 PUSH2 0x167A JUMP JUMPDEST PUSH1 0x20 PUSH1 0x40 MLOAD DUP1 DUP4 SUB DUP2 PUSH0 DUP8 GAS CALL ISZERO DUP1 ISZERO PUSH2 0x632 JUMPI RETURNDATASIZE PUSH0 DUP1 RETURNDATACOPY RETURNDATASIZE PUSH0 REVERT JUMPDEST POP POP POP POP PUSH1 0x40 MLOAD RETURNDATASIZE PUSH1 0x1F NOT PUSH1 0x1F DUP3 ADD AND DUP3 ADD DUP1 PUSH1 0x40 MSTORE POP DUP2 ADD SWAP1 PUSH2 0x656 SWAP2 SWAP1 PUSH2 0x16D6 JUMP JUMPDEST POP JUMPDEST POP JUMP JUMPDEST PUSH1 0x2 SLOAD DUP2 GT ISZERO PUSH2 0x6A0 JUMPI PUSH1 0x40 MLOAD PUSH32 0x8C379A000000000000000000000000000000000000000000000000000000000 DUP2 MSTORE PUSH1 0x4 ADD PUSH2 0x697 SWAP1 PUSH2 0x174B JUMP JUMPDEST PUSH1 0x40 MLOAD DUP1 SWAP2 SUB SWAP1 REVERT JUMPDEST PUSH3 0x15180 PUSH1 0x5 PUSH0 CALLER PUSH20 0xFFFFFFFFFFFFFFFFFFFFFFFFFFFFFFFFFFFFFFFF AND PUSH20 0xFFFFFFFFFFFFFFFFFFFFFFFFFFFFFFFFFFFFFFFF AND DUP2 MSTORE PUSH1 0x20 ADD SWAP1 DUP2 MSTORE PUSH1 0x20 ADD PUSH0 KECCAK256 SLOAD TIMESTAMP PUSH2 0x6ED SWAP2 SWAP1 PUSH2 0x159E JUMP JUMPDEST LT ISZERO PUSH2 0x72E JUMPI PUSH1 0x40 MLOAD PUSH32 0x8C379A000000000000000000000000000000000000000000000000000000000 DUP2 MSTORE PUSH1 0x4 ADD PUSH2 0x725 SWAP1 PUSH2 0x17B3 JUMP JUMPDEST PUSH1 0x40 MLOAD DUP1 SWAP2 SUB SWAP1 REVERT JUMPDEST PUSH1 0x4 SLOAD PUSH1 0x1 PUSH0 SWAP1 SLOAD SWAP1 PUSH2 0x100 EXP SWAP1 DIV PUSH20 0xFFFFFFFFFFFFFFFFFFFFFFFFFFFFFFFFFFFFFFFF AND PUSH20 0xFFFFFFFFFFFFFFFFFFFFFFFFFFFFFFFFFFFFFFFF AND PUSH4 0x776F3843 CALLER PUSH1 0x40 MLOAD DUP3 PUSH4 0xFFFFFFFF AND PUSH1 0xE0 SHL DUP2 MSTORE PUSH1 0x4 ADD PUSH2 0x78B SWAP2 SWAP1 PUSH2 0x1496 JUMP JUMPDEST PUSH1 0x20 PUSH1 0x40 MLOAD DUP1 DUP4 SUB DUP2 DUP7 GAS STATICCALL ISZERO DUP1 ISZERO PUSH2 0x7A6 JUMPI RETURNDATASIZE PUSH0 DUP1 RETURNDATACOPY RETURNDATASIZE PUSH0 REVERT JUMPDEST POP POP POP POP PUSH1 0x40 MLOAD RETURNDATASIZE PUSH1 0x1F NOT PUSH1 0x1F DUP3 ADD AND DUP3 ADD DUP1 PUSH1 0x40 MSTORE POP DUP2 ADD SWAP1 PUSH2 0x7CA SWAP2 SWAP1 PUSH2 0x17E5 JUMP JUMPDEST LT ISZERO PUSH2 0x80B JUMPI PUSH1 0x40 MLOAD PUSH32 0x8C379A000000000000000000000000000000000000000000000000000000000 DUP2 MSTORE PUSH1 0x4 ADD PUSH2 0x802 SWAP1 PUSH2 0x185A JUMP JUMPDEST PUSH1 0x40 MLOAD DUP1 SWAP2 SUB SWAP1 REVERT JUMPDEST PUSH1 0x3 SLOAD DUP2 GT ISZERO PUSH2 0x850 JUMPI PUSH1 0x40 MLOAD PUSH32 0x8C379A000000000000000000000000000000000000000000000000000000000 DUP2 MSTORE PUSH1 0x4 ADD PUSH2 0x847 SWAP1 PUSH2 0x18C2 JUMP JUMPDEST PUSH1 0x40 MLOAD DUP1 SWAP2 SUB SWAP1 REVERT JUMPDEST TIMESTAMP PUSH1 0x5 PUSH0 CALLER PUSH20 0xFFFFFFFFFFFFFFFFFFFFFFFFFFFFFFFFFFFFFFFF AND PUSH20 0xFFFFFFFFFFFFFFFFFFFFFFFFFFFFFFFFFFFFFFFF AND DUP2 MSTORE PUSH1 0x20 ADD SWAP1 DUP2 MSTORE PUSH1 0x20 ADD PUSH0 KECCAK256 DUP2 SWAP1 SSTORE POP DUP1 PUSH1 0x3 PUSH0 DUP3 DUP3 SLOAD PUSH2 0x8A3 SWAP2 SWAP1 PUSH2 0x159E JUMP JUMPDEST SWAP3 POP POP DUP2 SWAP1 SSTORE POP PUSH0 PUSH20 0xFFFFFFFFFFFFFFFFFFFFFFFFFFFFFFFFFFFFFFFF AND PUSH0 DUP1 SLOAD SWAP1 PUSH2 0x100 EXP SWAP1 DIV PUSH20 0xFFFFFFFFFFFFFFFFFFFFFFFFFFFFFFFFFFFFFFFF AND PUSH20 0xFFFFFFFFFFFFFFFFFFFFFFFFFFFFFFFFFFFFFFFF AND SUB PUSH2 0x9AA JUMPI PUSH0 CALLER PUSH20 0xFFFFFFFFFFFFFFFFFFFFFFFFFFFFFFFFFFFFFFFF AND DUP3 PUSH1 0x40 MLOAD PUSH2 0x921 SWAP1 PUSH2 0x15FE JUMP JUMPDEST PUSH0 PUSH1 0x40 MLOAD DUP1 DUP4 SUB DUP2 DUP6 DUP8 GAS CALL SWAP3 POP POP POP RETURNDATASIZE DUP1 PUSH0 DUP2 EQ PUSH2 0x95B JUMPI PUSH1 0x40 MLOAD SWAP2 POP PUSH1 0x1F NOT PUSH1 0x3F RETURNDATASIZE ADD AND DUP3 ADD PUSH1 0x40 MSTORE RETURNDATASIZE DUP3 MSTORE RETURNDATASIZE PUSH0 PUSH1 0x20 DUP5 ADD RETURNDATACOPY PUSH2 0x960 JUMP JUMPDEST PUSH1 0x60 SWAP2 POP JUMPDEST POP POP SWAP1 POP DUP1 PUSH2 0x9A4 JUMPI PUSH1 0x40 MLOAD PUSH32 0x8C379A000000000000000000000000000000000000000000000000000000000 DUP2 MSTORE PUSH1 0x4 ADD PUSH2 0x99B SWAP1 PUSH2 0x165C JUMP JUMPDEST PUSH1 0x40 MLOAD DUP1 SWAP2 SUB SWAP1 REVERT JUMPDEST POP PUSH2 0xA46 JUMP JUMPDEST PUSH0 DUP1 SLOAD SWAP1 PUSH2 0x100 EXP SWAP1 DIV PUSH20 0xFFFFFFFFFFFFFFFFFFFFFFFFFFFFFFFFFFFFFFFF AND PUSH20 0xFFFFFFFFFFFFFFFFFFFFFFFFFFFFFFFFFFFFFFFF AND PUSH4 0xA9059CBB CALLER DUP4 PUSH1 0x40 MLOAD DUP4 PUSH4 0xFFFFFFFF AND PUSH1 0xE0 SHL DUP2 MSTORE PUSH1 0x4 ADD PUSH2 0xA04 SWAP3 SWAP2 SWAP1 PUSH2 0x167A JUMP JUMPDEST PUSH1 0x20 PUSH1 0x40 MLOAD DUP1 DUP4 SUB DUP2 PUSH0 DUP8 GAS CALL ISZERO DUP1 ISZERO PUSH2 0xA20 JUMPI RETURNDATASIZE PUSH0 DUP1 RETURNDATACOPY RETURNDATASIZE PUSH0 REVERT JUMPDEST POP POP POP POP PUSH1 0x40 MLOAD RETURNDATASIZE PUSH1 0x1F NOT PUSH1 0x1F DUP3 ADD AND DUP3 ADD DUP1 PUSH1 0x40 MSTORE POP DUP2 ADD SWAP1 PUSH2 0xA44 SWAP2 SWAP1 PUSH2 0x16D6 JUMP JUMPDEST POP JUMPDEST CALLER PUSH20 0xFFFFFFFFFFFFFFFFFFFFFFFFFFFFFFFFFFFFFFFF AND PUSH32 0xD8138F8A3F377C5259CA548E70E4C2DE94F129F5A11036A15B69513CBA2B426A DUP3 PUSH1 0x40 MLOAD PUSH2 0xA8C SWAP2 SWAP1 PUSH2 0x131C JUMP JUMPDEST PUSH1 0x40 MLOAD DUP1 SWAP2 SUB SWAP1 LOG2 POP JUMP JUMPDEST PUSH1 0x2 SLOAD DUP2 JUMP JUMPDEST PUSH2 0xAA5 PUSH2 0x1001 JUMP JUMPDEST PUSH2 0xAAE PUSH0 PUSH2 0x1088 JUMP JUMPDEST JUMP JUMPDEST PUSH1 0x1 PUSH0 SWAP1 SLOAD SWAP1 PUSH2 0x100 EXP SWAP1 DIV PUSH20 0xFFFFFFFFFFFFFFFFFFFFFFFFFFFFFFFFFFFFFFFF AND DUP2 JUMP JUMPDEST PUSH0 DUP1 PUSH2 0xADF PUSH2 0x1159 JUMP JUMPDEST SWAP1 POP DUP1 PUSH0 ADD PUSH0 SWAP1 SLOAD SWAP1 PUSH2 0x100 EXP SWAP1 DIV PUSH20 0xFFFFFFFFFFFFFFFFFFFFFFFFFFFFFFFFFFFFFFFF AND SWAP2 POP POP SWAP1 JUMP JUMPDEST PUSH2 0xB12 PUSH2 0x1001 JUMP JUMPDEST DUP1 PUSH1 0x4 DUP2 SWAP1 SSTORE POP PUSH32 0xD98C5078430F16C83B85DA9A630C27AAC195DD3E768E25B102DFFFA99F64B4D2 DUP2 PUSH1 0x40 MLOAD PUSH2 0xB48 SWAP2 SWAP1 PUSH2 0x131C JUMP JUMPDEST PUSH1 0x40 MLOAD DUP1 SWAP2 SUB SWAP1 LOG1 POP JUMP JUMPDEST PUSH1 0x3 SLOAD DUP2 JUMP JUMPDEST PUSH0 PUSH20 0xFFFFFFFFFFFFFFFFFFFFFFFFFFFFFFFFFFFFFFFF AND PUSH0 DUP1 SLOAD SWAP1 PUSH2 0x100 EXP SWAP1 DIV PUSH20 0xFFFFFFFFFFFFFFFFFFFFFFFFFFFFFFFFFFFFFFFF AND PUSH20 0xFFFFFFFFFFFFFFFFFFFFFFFFFFFFFFFFFFFFFFFF AND SUB PUSH2 0xBF2 JUMPI DUP1 CALLVALUE EQ PUSH2 0xBED JUMPI PUSH1 0x40 MLOAD PUSH32 0x8C379A000000000000000000000000000000000000000000000000000000000 DUP2 MSTORE PUSH1 0x4 ADD PUSH2 0xBE4 SWAP1 PUSH2 0x192A JUMP JUMPDEST PUSH1 0x40 MLOAD DUP1 SWAP2 SUB SWAP1 REVERT JUMPDEST PUSH2 0xC90 JUMP JUMPDEST PUSH0 DUP1 SLOAD SWAP1 PUSH2 0x100 EXP SWAP1 DIV PUSH20 0xFFFFFFFFFFFFFFFFFFFFFFFFFFFFFFFFFFFFFFFF AND PUSH20 0xFFFFFFFFFFFFFFFFFFFFFFFFFFFFFFFFFFFFFFFF AND PUSH4 0x23B872DD CALLER ADDRESS DUP5 PUSH1 0x40 MLOAD DUP5 PUSH4 0xFFFFFFFF AND PUSH1 0xE0 SHL DUP2 MSTORE PUSH1 0x4 ADD PUSH2 0xC4E SWAP4 SWAP3 SWAP2 SWAP1 PUSH2 0x1948 JUMP JUMPDEST PUSH1 0x20 PUSH1 0x40 MLOAD DUP1 DUP4 SUB DUP2 PUSH0 DUP8 GAS CALL ISZERO DUP1 ISZERO PUSH2 0xC6A JUMPI RETURNDATASIZE PUSH0 DUP1 RETURNDATACOPY RETURNDATASIZE PUSH0 REVERT JUMPDEST POP POP POP POP PUSH1 0x40 MLOAD RETURNDATASIZE PUSH1 0x1F NOT PUSH1 0x1F DUP3 ADD AND DUP3 ADD DUP1 PUSH1 0x40 MSTORE POP DUP2 ADD SWAP1 PUSH2 0xC8E SWAP2 SWAP1 PUSH2 0x16D6 JUMP JUMPDEST POP JUMPDEST DUP1 PUSH1 0x3 PUSH0 DUP3 DUP3 SLOAD PUSH2 0xCA1 SWAP2 SWAP1 PUSH2 0x12DA JUMP JUMPDEST SWAP3 POP POP DUP2 SWAP1 SSTORE POP CALLER PUSH20 0xFFFFFFFFFFFFFFFFFFFFFFFFFFFFFFFFFFFFFFFF AND PUSH32 0xE1FFFCC4923D04B559F4D29A8BFC6CDA04EB5B0D3C460751C2402C5C5CC9109C DUP3 PUSH1 0x40 MLOAD PUSH2 0xCEE SWAP2 SWAP1 PUSH2 0x131C JUMP JUMPDEST PUSH1 0x40 MLOAD DUP1 SWAP2 SUB SWAP1 LOG2 POP JUMP JUMPDEST PUSH1 0x4 SLOAD DUP2 JUMP JUMPDEST PUSH2 0xD07 PUSH2 0x1001 JUMP JUMPDEST PUSH0 PUSH20 0xFFFFFFFFFFFFFFFFFFFFFFFFFFFFFFFFFFFFFFFF AND DUP2 PUSH20 0xFFFFFFFFFFFFFFFFFFFFFFFFFFFFFFFFFFFFFFFF AND SUB PUSH2 0xD77 JUMPI PUSH0 PUSH1 0x40 MLOAD PUSH32 0x1E4FBDF700000000000000000000000000000000000000000000000000000000 DUP2 MSTORE PUSH1 0x4 ADD PUSH2 0xD6E SWAP2 SWAP1 PUSH2 0x1496 JUMP JUMPDEST PUSH1 0x40 MLOAD DUP1 SWAP2 SUB SWAP1 REVERT JUMPDEST PUSH2 0xD80 DUP2 PUSH2 0x1088 JUMP JUMPDEST POP JUMP JUMPDEST PUSH0 PUSH2 0xD8C PUSH2 0x1180 JUMP JUMPDEST SWAP1 POP PUSH0 DUP2 PUSH0 ADD PUSH1 0x8 SWAP1 SLOAD SWAP1 PUSH2 0x100 EXP SWAP1 DIV PUSH1 0xFF AND ISZERO SWAP1 POP PUSH0 DUP3 PUSH0 ADD PUSH0 SWAP1 SLOAD SWAP1 PUSH2 0x100 EXP SWAP1 DIV PUSH8 0xFFFFFFFFFFFFFFFF AND SWAP1 POP PUSH0 DUP1 DUP3 PUSH8 0xFFFFFFFFFFFFFFFF AND EQ DUP1 ISZERO PUSH2 0xDD4 JUMPI POP DUP3 JUMPDEST SWAP1 POP PUSH0 PUSH1 0x1 DUP4 PUSH8 0xFFFFFFFFFFFFFFFF AND EQ DUP1 ISZERO PUSH2 0xE07 JUMPI POP PUSH0 ADDRESS PUSH20 0xFFFFFFFFFFFFFFFFFFFFFFFFFFFFFFFFFFFFFFFF AND EXTCODESIZE EQ JUMPDEST SWAP1 POP DUP2 ISZERO DUP1 ISZERO PUSH2 0xE15 JUMPI POP DUP1 ISZERO JUMPDEST ISZERO PUSH2 0xE4C JUMPI PUSH1 0x40 MLOAD PUSH32 0xF92EE8A900000000000000000000000000000000000000000000000000000000 DUP2 MSTORE PUSH1 0x4 ADD PUSH1 0x40 MLOAD DUP1 SWAP2 SUB SWAP1 REVERT JUMPDEST PUSH1 0x1 DUP6 PUSH0 ADD PUSH0 PUSH2 0x100 EXP DUP2 SLOAD DUP2 PUSH8 0xFFFFFFFFFFFFFFFF MUL NOT AND SWAP1 DUP4 PUSH8 0xFFFFFFFFFFFFFFFF AND MUL OR SWAP1 SSTORE POP DUP4 ISZERO PUSH2 0xE99 JUMPI PUSH1 0x1 DUP6 PUSH0 ADD PUSH1 0x8 PUSH2 0x100 EXP DUP2 SLOAD DUP2 PUSH1 0xFF MUL NOT AND SWAP1 DUP4 ISZERO ISZERO MUL OR SWAP1 SSTORE POP JUMPDEST PUSH2 0xEA2 DUP8 PUSH2 0x11A7 JUMP JUMPDEST DUP10 PUSH0 DUP1 PUSH2 0x100 EXP DUP2 SLOAD DUP2 PUSH20 0xFFFFFFFFFFFFFFFFFFFFFFFFFFFFFFFFFFFFFFFF MUL NOT AND SWAP1 DUP4 PUSH20 0xFFFFFFFFFFFFFFFFFFFFFFFFFFFFFFFFFFFFFFFF AND MUL OR SWAP1 SSTORE POP DUP9 PUSH1 0x1 PUSH0 PUSH2 0x100 EXP DUP2 SLOAD DUP2 PUSH20 0xFFFFFFFFFFFFFFFFFFFFFFFFFFFFFFFFFFFFFFFF MUL NOT AND SWAP1 DUP4 PUSH20 0xFFFFFFFFFFFFFFFFFFFFFFFFFFFFFFFFFFFFFFFF AND MUL OR SWAP1 SSTORE POP DUP8 PUSH1 0x2 DUP2 SWAP1 SSTORE POP DUP6 PUSH1 0x4 DUP2 SWAP1 SSTORE POP DUP4 ISZERO PUSH2 0xF89 JUMPI PUSH0 DUP6 PUSH0 ADD PUSH1 0x8 PUSH2 0x100 EXP DUP2 SLOAD DUP2 PUSH1 0xFF MUL NOT AND SWAP1 DUP4 ISZERO ISZERO MUL OR SWAP1 SSTORE POP PUSH32 0xC7F505B2F371AE2175EE4913F4499E1F2633A7B5936321EED1CDAEB6115181D2 PUSH1 0x1 PUSH1 0x40 MLOAD PUSH2 0xF80 SWAP2 SWAP1 PUSH2 0x19C9 JUMP JUMPDEST PUSH1 0x40 MLOAD DUP1 SWAP2 SUB SWAP1 LOG1 JUMPDEST POP POP POP POP POP POP POP POP POP POP JUMP JUMPDEST PUSH2 0xF9D PUSH2 0x1001 JUMP JUMPDEST DUP1 PUSH1 0x2 DUP2 SWAP1 SSTORE POP PUSH32 0x69E4F4585A710DEBC30F07C33DCDED264DD61E9DD02A9DFAD6584A9189F185E4 DUP2 PUSH1 0x40 MLOAD PUSH2 0xFD3 SWAP2 SWAP1 PUSH2 0x131C JUMP JUMPDEST PUSH1 0x40 MLOAD DUP1 SWAP2 SUB SWAP1 LOG1 POP JUMP JUMPDEST PUSH0 DUP1 SLOAD SWAP1 PUSH2 0x100 EXP SWAP1 DIV PUSH20 0xFFFFFFFFFFFFFFFFFFFFFFFFFFFFFFFFFFFFFFFF AND DUP2 JUMP JUMPDEST PUSH2 0x1009 PUSH2 0x11BB JUMP JUMPDEST PUSH20 0xFFFFFFFFFFFFFFFFFFFFFFFFFFFFFFFFFFFFFFFF AND PUSH2 0x1027 PUSH2 0xAD5 JUMP JUMPDEST PUSH20 0xFFFFFFFFFFFFFFFFFFFFFFFFFFFFFFFFFFFFFFFF AND EQ PUSH2 0x1086 JUMPI PUSH2 0x104A PUSH2 0x11BB JUMP JUMPDEST PUSH1 0x40 MLOAD PUSH32 0x118CDAA700000000000000000000000000000000000000000000000000000000 DUP2 MSTORE PUSH1 0x4 ADD PUSH2 0x107D SWAP2 SWAP1 PUSH2 0x1496 JUMP JUMPDEST PUSH1 0x40 MLOAD DUP1 SWAP2 SUB SWAP1 REVERT JUMPDEST JUMP JUMPDEST PUSH0 PUSH2 0x1091 PUSH2 0x1159 JUMP JUMPDEST SWAP1 POP PUSH0 DUP2 PUSH0 ADD PUSH0 SWAP1 SLOAD SWAP1 PUSH2 0x100 EXP SWAP1 DIV PUSH20 0xFFFFFFFFFFFFFFFFFFFFFFFFFFFFFFFFFFFFFFFF AND SWAP1 POP DUP3 DUP3 PUSH0 ADD PUSH0 PUSH2 0x100 EXP DUP2 SLOAD DUP2 PUSH20 0xFFFFFFFFFFFFFFFFFFFFFFFFFFFFFFFFFFFFFFFF MUL NOT AND SWAP1 DUP4 PUSH20 0xFFFFFFFFFFFFFFFFFFFFFFFFFFFFFFFFFFFFFFFF AND MUL OR SWAP1 SSTORE POP DUP3 PUSH20 0xFFFFFFFFFFFFFFFFFFFFFFFFFFFFFFFFFFFFFFFF AND DUP2 PUSH20 0xFFFFFFFFFFFFFFFFFFFFFFFFFFFFFFFFFFFFFFFF AND PUSH32 0x8BE0079C531659141344CD1FD0A4F28419497F9722A3DAAFE3B4186F6B6457E0 PUSH1 0x40 MLOAD PUSH1 0x40 MLOAD DUP1 SWAP2 SUB SWAP1 LOG3 POP POP POP JUMP JUMPDEST PUSH0 PUSH32 0x9016D09D72D40FDAE2FD8CEAC6B6234C7706214FD39C1CD1E609A0528C199300 SWAP1 POP SWAP1 JUMP JUMPDEST PUSH0 PUSH32 0xF0C57E16840DF040F15088DC2F81FE391C3923BEC73E23A9662EFC9C229C6A00 SWAP1 POP SWAP1 JUMP JUMPDEST PUSH2 0x11AF PUSH2 0x11C2 JUMP JUMPDEST PUSH2 0x11B8 DUP2 PUSH2 0x1202 JUMP JUMPDEST POP JUMP JUMPDEST PUSH0 CALLER SWAP1 POP SWAP1 JUMP JUMPDEST PUSH2 0x11CA PUSH2 0x1286 JUMP JUMPDEST PUSH2 0x1200 JUMPI PUSH1 0x40 MLOAD PUSH32 0xD7E6BCF800000000000000000000000000000000000000000000000000000000 DUP2 MSTORE PUSH1 0x4 ADD PUSH1 0x40 MLOAD DUP1 SWAP2 SUB SWAP1 REVERT JUMPDEST JUMP JUMPDEST PUSH2 0x120A PUSH2 0x11C2 JUMP JUMPDEST PUSH0 PUSH20 0xFFFFFFFFFFFFFFFFFFFFFFFFFFFFFFFFFFFFFFFF AND DUP2 PUSH20 0xFFFFFFFFFFFFFFFFFFFFFFFFFFFFFFFFFFFFFFFF AND SUB PUSH2 0x127A JUMPI PUSH0 PUSH1 0x40 MLOAD PUSH32 0x1E4FBDF700000000000000000000000000000000000000000000000000000000 DUP2 MSTORE PUSH1 0x4 ADD PUSH2 0x1271 SWAP2 SWAP1 PUSH2 0x1496 JUMP JUMPDEST PUSH1 0x40 MLOAD DUP1 SWAP2 SUB SWAP1 REVERT JUMPDEST PUSH2 0x1283 DUP2 PUSH2 0x1088 JUMP JUMPDEST POP JUMP JUMPDEST PUSH0 PUSH2 0x128F PUSH2 0x1180 JUMP JUMPDEST PUSH0 ADD PUSH1 0x8 SWAP1 SLOAD SWAP1 PUSH2 0x100 EXP SWAP1 DIV PUSH1 0xFF AND SWAP1 POP SWAP1 JUMP JUMPDEST PUSH0 DUP2 SWAP1 POP SWAP2 SWAP1 POP JUMP JUMPDEST PUSH32 0x4E487B7100000000000000000000000000000000000000000000000000000000 PUSH0 MSTORE PUSH1 0x11 PUSH1 0x4 MSTORE PUSH1 0x24 PUSH0 REVERT JUMPDEST PUSH0 PUSH2 0x12E4 DUP3 PUSH2 0x12A4 JUMP JUMPDEST SWAP2 POP PUSH2 0x12EF DUP4 PUSH2 0x12A4 JUMP JUMPDEST SWAP3 POP DUP3 DUP3 ADD SWAP1 POP DUP1 DUP3 GT ISZERO PUSH2 0x1307 JUMPI PUSH2 0x1306 PUSH2 0x12AD JUMP JUMPDEST JUMPDEST SWAP3 SWAP2 POP POP JUMP JUMPDEST PUSH2 0x1316 DUP2 PUSH2 0x12A4 JUMP JUMPDEST DUP3 MSTORE POP POP JUMP JUMPDEST PUSH0 PUSH1 0x20 DUP3 ADD SWAP1 POP PUSH2 0x132F PUSH0 DUP4 ADD DUP5 PUSH2 0x130D JUMP JUMPDEST SWAP3 SWAP2 POP POP JUMP JUMPDEST PUSH0 DUP1 REVERT JUMPDEST PUSH0 PUSH20 0xFFFFFFFFFFFFFFFFFFFFFFFFFFFFFFFFFFFFFFFF DUP3 AND SWAP1 POP SWAP2 SWAP1 POP JUMP JUMPDEST PUSH0 PUSH2 0x1362 DUP3 PUSH2 0x1339 JUMP JUMPDEST SWAP1 POP SWAP2 SWAP1 POP JUMP JUMPDEST PUSH2 0x1372 DUP2 PUSH2 0x1358 JUMP JUMPDEST DUP2 EQ PUSH2 0x137C JUMPI PUSH0 DUP1 REVERT JUMPDEST POP JUMP JUMPDEST PUSH0 DUP2 CALLDATALOAD SWAP1 POP PUSH2 0x138D DUP2 PUSH2 0x1369 JUMP JUMPDEST SWAP3 SWAP2 POP POP JUMP JUMPDEST PUSH0 PUSH1 0x20 DUP3 DUP5 SUB SLT ISZERO PUSH2 0x13A8 JUMPI PUSH2 0x13A7 PUSH2 0x1335 JUMP JUMPDEST JUMPDEST PUSH0 PUSH2 0x13B5 DUP5 DUP3 DUP6 ADD PUSH2 0x137F JUMP JUMPDEST SWAP2 POP POP SWAP3 SWAP2 POP POP JUMP JUMPDEST PUSH2 0x13C7 DUP2 PUSH2 0x12A4 JUMP JUMPDEST DUP2 EQ PUSH2 0x13D1 JUMPI PUSH0 DUP1 REVERT JUMPDEST POP JUMP JUMPDEST PUSH0 DUP2 CALLDATALOAD SWAP1 POP PUSH2 0x13E2 DUP2 PUSH2 0x13BE JUMP JUMPDEST SWAP3 SWAP2 POP POP JUMP JUMPDEST PUSH0 PUSH1 0x20 DUP3 DUP5 SUB SLT ISZERO PUSH2 0x13FD JUMPI PUSH2 0x13FC PUSH2 0x1335 JUMP JUMPDEST JUMPDEST PUSH0 PUSH2 0x140A DUP5 DUP3 DUP6 ADD PUSH2 0x13D4 JUMP JUMPDEST SWAP2 POP POP SWAP3 SWAP2 POP POP JUMP JUMPDEST PUSH0 DUP2 SWAP1 POP SWAP2 SWAP1 POP JUMP JUMPDEST PUSH0 PUSH2 0x1436 PUSH2 0x1431 PUSH2 0x142C DUP5 PUSH2 0x1339 JUMP JUMPDEST PUSH2 0x1413 JUMP JUMPDEST PUSH2 0x1339 JUMP JUMPDEST SWAP1 POP SWAP2 SWAP1 POP JUMP JUMPDEST PUSH0 PUSH2 0x1447 DUP3 PUSH2 0x141C JUMP JUMPDEST SWAP1 POP SWAP2 SWAP1 POP JUMP JUMPDEST PUSH0 PUSH2 0x1458 DUP3 PUSH2 0x143D JUMP JUMPDEST SWAP1 POP SWAP2 SWAP1 POP JUMP JUMPDEST PUSH2 0x1468 DUP2 PUSH2 0x144E JUMP JUMPDEST DUP3 MSTORE POP POP JUMP JUMPDEST PUSH0 PUSH1 0x20 DUP3 ADD SWAP1 POP PUSH2 0x1481 PUSH0 DUP4 ADD DUP5 PUSH2 0x145F JUMP JUMPDEST SWAP3 SWAP2 POP POP JUMP JUMPDEST PUSH2 0x1490 DUP2 PUSH2 0x1358 JUMP JUMPDEST DUP3 MSTORE POP POP JUMP JUMPDEST PUSH0 PUSH1 0x20 DUP3 ADD SWAP1 POP PUSH2 0x14A9 PUSH0 DUP4 ADD DUP5 PUSH2 0x1487 JUMP JUMPDEST SWAP3 SWAP2 POP POP JUMP JUMPDEST PUSH0 DUP1 PUSH0 DUP1 PUSH0 PUSH1 0xA0 DUP7 DUP9 SUB SLT ISZERO PUSH2 0x14C8 JUMPI PUSH2 0x14C7 PUSH2 0x1335 JUMP JUMPDEST JUMPDEST PUSH0 PUSH2 0x14D5 DUP9 DUP3 DUP10 ADD PUSH2 0x137F JUMP JUMPDEST SWAP6 POP POP PUSH1 0x20 PUSH2 0x14E6 DUP9 DUP3 DUP10 ADD PUSH2 0x137F JUMP JUMPDEST SWAP5 POP POP PUSH1 0x40 PUSH2 0x14F7 DUP9 DUP3 DUP10 ADD PUSH2 0x13D4 JUMP JUMPDEST SWAP4 POP POP PUSH1 0x60 PUSH2 0x1508 DUP9 DUP3 DUP10 ADD PUSH2 0x137F JUMP JUMPDEST SWAP3 POP POP PUSH1 0x80 PUSH2 0x1519 DUP9 DUP3 DUP10 ADD PUSH2 0x13D4 JUMP JUMPDEST SWAP2 POP POP SWAP3 SWAP6 POP SWAP3 SWAP6 SWAP1 SWAP4 POP JUMP JUMPDEST PUSH0 DUP3 DUP3 MSTORE PUSH1 0x20 DUP3 ADD SWAP1 POP SWAP3 SWAP2 POP POP JUMP JUMPDEST PUSH32 0x496E73756666696369656E742066756E64730000000000000000000000000000 PUSH0 DUP3 ADD MSTORE POP JUMP JUMPDEST PUSH0 PUSH2 0x156A PUSH1 0x12 DUP4 PUSH2 0x1526 JUMP JUMPDEST SWAP2 POP PUSH2 0x1575 DUP3 PUSH2 0x1536 JUMP JUMPDEST PUSH1 0x20 DUP3 ADD SWAP1 POP SWAP2 SWAP1 POP JUMP JUMPDEST PUSH0 PUSH1 0x20 DUP3 ADD SWAP1 POP DUP2 DUP2 SUB PUSH0 DUP4 ADD MSTORE PUSH2 0x1597 DUP2 PUSH2 0x155E JUMP JUMPDEST SWAP1 POP SWAP2 SWAP1 POP JUMP JUMPDEST PUSH0 PUSH2 0x15A8 DUP3 PUSH2 0x12A4 JUMP JUMPDEST SWAP2 POP PUSH2 0x15B3 DUP4 PUSH2 0x12A4 JUMP JUMPDEST SWAP3 POP DUP3 DUP3 SUB SWAP1 POP DUP2 DUP2 GT ISZERO PUSH2 0x15CB JUMPI PUSH2 0x15CA PUSH2 0x12AD JUMP JUMPDEST JUMPDEST SWAP3 SWAP2 POP POP JUMP JUMPDEST PUSH0 DUP2 SWAP1 POP SWAP3 SWAP2 POP POP JUMP JUMPDEST POP JUMP JUMPDEST PUSH0 PUSH2 0x15E9 PUSH0 DUP4 PUSH2 0x15D1 JUMP JUMPDEST SWAP2 POP PUSH2 0x15F4 DUP3 PUSH2 0x15DB JUMP JUMPDEST PUSH0 DUP3 ADD SWAP1 POP SWAP2 SWAP1 POP JUMP JUMPDEST PUSH0 PUSH2 0x1608 DUP3 PUSH2 0x15DE JUMP JUMPDEST SWAP2 POP DUP2 SWAP1 POP SWAP2 SWAP1 POP JUMP JUMPDEST PUSH32 0x455448207472616E73666572206661696C656400000000000000000000000000 PUSH0 DUP3 ADD MSTORE POP JUMP JUMPDEST PUSH0 PUSH2 0x1646 PUSH1 0x13 DUP4 PUSH2 0x1526 JUMP JUMPDEST SWAP2 POP PUSH2 0x1651 DUP3 PUSH2 0x1612 JUMP JUMPDEST PUSH1 0x20 DUP3 ADD SWAP1 POP SWAP2 SWAP1 POP JUMP JUMPDEST PUSH0 PUSH1 0x20 DUP3 ADD SWAP1 POP DUP2 DUP2 SUB PUSH0 DUP4 ADD MSTORE PUSH2 0x1673 DUP2 PUSH2 0x163A JUMP JUMPDEST SWAP1 POP SWAP2 SWAP1 POP JUMP JUMPDEST PUSH0 PUSH1 0x40 DUP3 ADD SWAP1 POP PUSH2 0x168D PUSH0 DUP4 ADD DUP6 PUSH2 0x1487 JUMP JUMPDEST PUSH2 0x169A PUSH1 0x20 DUP4 ADD DUP5 PUSH2 0x130D JUMP JUMPDEST SWAP4 SWAP3 POP POP POP JUMP JUMPDEST PUSH0 DUP2 ISZERO ISZERO SWAP1 POP SWAP2 SWAP1 POP JUMP JUMPDEST PUSH2 0x16B5 DUP2 PUSH2 0x16A1 JUMP JUMPDEST DUP2 EQ PUSH2 0x16BF JUMPI PUSH0 DUP1 REVERT JUMPDEST POP JUMP JUMPDEST PUSH0 DUP2 MLOAD SWAP1 POP PUSH2 0x16D0 DUP2 PUSH2 0x16AC JUMP JUMPDEST SWAP3 SWAP2 POP POP JUMP JUMPDEST PUSH0 PUSH1 0x20 DUP3 DUP5 SUB SLT ISZERO PUSH2 0x16EB JUMPI PUSH2 0x16EA PUSH2 0x1335 JUMP JUMPDEST JUMPDEST PUSH0 PUSH2 0x16F8 DUP5 DUP3 DUP6 ADD PUSH2 0x16C2 JUMP JUMPDEST SWAP2 POP POP SWAP3 SWAP2 POP POP JUMP JUMPDEST PUSH32 0x45786365656473206461696C79206C696D697400000000000000000000000000 PUSH0 DUP3 ADD MSTORE POP JUMP JUMPDEST PUSH0 PUSH2 0x1735 PUSH1 0x13 DUP4 PUSH2 0x1526 JUMP JUMPDEST SWAP2 POP PUSH2 0x1740 DUP3 PUSH2 0x1701 JUMP JUMPDEST PUSH1 0x20 DUP3 ADD SWAP1 POP SWAP2 SWAP1 POP JUMP JUMPDEST PUSH0 PUSH1 0x20 DUP3 ADD SWAP1 POP DUP2 DUP2 SUB PUSH0 DUP4 ADD MSTORE PUSH2 0x1762 DUP2 PUSH2 0x1729 JUMP JUMPDEST SWAP1 POP SWAP2 SWAP1 POP JUMP JUMPDEST PUSH32 0x4461696C7920636C61696D206C696D6974207265616368656400000000000000 PUSH0 DUP3 ADD MSTORE POP JUMP JUMPDEST PUSH0 PUSH2 0x179D PUSH1 0x19 DUP4 PUSH2 0x1526 JUMP JUMPDEST SWAP2 POP PUSH2 0x17A8 DUP3 PUSH2 0x1769 JUMP JUMPDEST PUSH1 0x20 DUP3 ADD SWAP1 POP SWAP2 SWAP1 POP JUMP JUMPDEST PUSH0 PUSH1 0x20 DUP3 ADD SWAP1 POP DUP2 DUP2 SUB PUSH0 DUP4 ADD MSTORE PUSH2 0x17CA DUP2 PUSH2 0x1791 JUMP JUMPDEST SWAP1 POP SWAP2 SWAP1 POP JUMP JUMPDEST PUSH0 DUP2 MLOAD SWAP1 POP PUSH2 0x17DF DUP2 PUSH2 0x13BE JUMP JUMPDEST SWAP3 SWAP2 POP POP JUMP JUMPDEST PUSH0 PUSH1 0x20 DUP3 DUP5 SUB SLT ISZERO PUSH2 0x17FA JUMPI PUSH2 0x17F9 PUSH2 0x1335 JUMP JUMPDEST JUMPDEST PUSH0 PUSH2 0x1807 DUP5 DUP3 DUP6 ADD PUSH2 0x17D1 JUMP JUMPDEST SWAP2 POP POP SWAP3 SWAP2 POP POP JUMP JUMPDEST PUSH32 0x53636F726520746F6F206C6F7700000000000000000000000000000000000000 PUSH0 DUP3 ADD MSTORE POP JUMP JUMPDEST PUSH0 PUSH2 0x1844 PUSH1 0xD DUP4 PUSH2 0x1526 JUMP JUMPDEST SWAP2 POP PUSH2 0x184F DUP3 PUSH2 0x1810 JUMP JUMPDEST PUSH1 0x20 DUP3 ADD SWAP1 POP SWAP2 SWAP1 POP JUMP JUMPDEST PUSH0 PUSH1 0x20 DUP3 ADD SWAP1 POP DUP2 DUP2 SUB PUSH0 DUP4 ADD MSTORE PUSH2 0x1871 DUP2 PUSH2 0x1838 JUMP JUMPDEST SWAP1 POP SWAP2 SWAP1 POP JUMP JUMPDEST PUSH32 0x496E73756666696369656E742066756E647320696E206A617200000000000000 PUSH0 DUP3 ADD MSTORE POP JUMP JUMPDEST PUSH0 PUSH2 0x18AC PUSH1 0x19 DUP4 PUSH2 0x1526 JUMP JUMPDEST SWAP2 POP PUSH2 0x18B7 DUP3 PUSH2 0x1878 JUMP JUMPDEST PUSH1 0x20 DUP3 ADD SWAP1 POP SWAP2 SWAP1 POP JUMP JUMPDEST PUSH0 PUSH1 0x20 DUP3 ADD SWAP1 POP DUP2 DUP2 SUB PUSH0 DUP4 ADD MSTORE PUSH2 0x18D9 DUP2 PUSH2 0x18A0 JUMP JUMPDEST SWAP1 POP SWAP2 SWAP1 POP JUMP JUMPDEST PUSH32 0x496E636F72726563742045544820616D6F756E74000000000000000000000000 PUSH0 DUP3 ADD MSTORE POP JUMP JUMPDEST PUSH0 PUSH2 0x1914 PUSH1 0x14 DUP4 PUSH2 0x1526 JUMP JUMPDEST SWAP2 POP PUSH2 0x191F DUP3 PUSH2 0x18E0 JUMP JUMPDEST PUSH1 0x20 DUP3 ADD SWAP1 POP SWAP2 SWAP1 POP JUMP JUMPDEST PUSH0 PUSH1 0x20 DUP3 ADD SWAP1 POP DUP2 DUP2 SUB PUSH0 DUP4 ADD MSTORE PUSH2 0x1941 DUP2 PUSH2 0x1908 JUMP JUMPDEST SWAP1 POP SWAP2 SWAP1 POP JUMP JUMPDEST PUSH0 PUSH1 0x60 DUP3 ADD SWAP1 POP PUSH2 0x195B PUSH0 DUP4 ADD DUP7 PUSH2 0x1487 JUMP JUMPDEST PUSH2 0x1968 PUSH1 0x20 DUP4 ADD DUP6 PUSH2 0x1487 JUMP JUMPDEST PUSH2 0x1975 PUSH1 0x40 DUP4 ADD DUP5 PUSH2 0x130D JUMP JUMPDEST SWAP5 SWAP4 POP POP POP POP JUMP JUMPDEST PUSH0 DUP2 SWAP1 POP SWAP2 SWAP1 POP JUMP JUMPDEST PUSH0 PUSH8 0xFFFFFFFFFFFFFFFF DUP3 AND SWAP1 POP SWAP2 SWAP1 POP JUMP JUMPDEST PUSH0 PUSH2 0x19B3 PUSH2 0x19AE PUSH2 0x19A9 DUP5 PUSH2 0x197D JUMP JUMPDEST PUSH2 0x1413 JUMP JUMPDEST PUSH2 0x1986 JUMP JUMPDEST SWAP1 POP SWAP2 SWAP1 POP JUMP JUMPDEST PUSH2 0x19C3 DUP2 PUSH2 0x1999 JUMP JUMPDEST DUP3 MSTORE POP POP JUMP JUMPDEST PUSH0 PUSH1 0x20 DUP3 ADD SWAP1 POP PUSH2 0x19DC PUSH0 DUP4 ADD DUP5 PUSH2 0x19BA JUMP JUMPDEST SWAP3 SWAP2 POP POP JUMP INVALID LOG2 PUSH5 0x6970667358 0x22 SLT KECCAK256 BLOCKHASH CALLCODE 0xD7 0xF9 BALANCE 0xD5 0xC3 0xA5 0xBD SWAP11 SWAP14 PUSH17 0xE4E195E6D7FBCAFA3736924637B6DF356 0x22 0xD RETURN PUSH5 0x736F6C6343 STOP ADDMOD BYTE STOP CALLER "
				},
				"gasEstimates": {
					"creation": {
						"codeDepositCost": "1336000",
						"executionCost": "1388",
						"totalCost": "1337388"
					},
					"external": {
						"claim(uint256)": "infinite",
						"dailyLimit()": "2448",
						"deposit(uint256)": "infinite",
						"initialize(address,address,uint256,address,uint256)": "infinite",
						"lastClaimed(address)": "2826",
						"owner()": "2656",
						"renounceOwnership()": "infinite",
						"scoreRequired()": "2514",
						"scorer()": "infinite",
						"setScoreRequired(uint256)": "infinite",
						"setScorer(address)": "infinite",
						"token()": "2593",
						"totalBalance()": "2470",
						"transferOwnership(address)": "infinite",
						"updateDailyLimit(uint256)": "infinite",
						"withdraw(uint256)": "infinite"
					}
				},
				"methodIdentifiers": {
					"claim(uint256)": "379607f5",
					"dailyLimit()": "67eeba0c",
					"deposit(uint256)": "b6b55f25",
					"initialize(address,address,uint256,address,uint256)": "f7c00e63",
					"lastClaimed(address)": "013eba92",
					"owner()": "8da5cb5b",
					"renounceOwnership()": "715018a6",
					"scoreRequired()": "de9d2a77",
					"scorer()": "85c758f7",
					"setScoreRequired(uint256)": "abbeb55b",
					"setScorer(address)": "03191ffc",
					"token()": "fc0c546a",
					"totalBalance()": "ad7a672f",
					"transferOwnership(address)": "f2fde38b",
					"updateDailyLimit(uint256)": "f8175d78",
					"withdraw(uint256)": "2e1a7d4d"
				}
			},
			"storageLayout": {
				"storage": [
					{
						"astId": 1382,
						"contract": "contracts/cookie-jar.sol:nCookieJar",
						"label": "token",
						"offset": 0,
						"slot": "0",
						"type": "t_address"
					},
					{
						"astId": 1385,
						"contract": "contracts/cookie-jar.sol:nCookieJar",
						"label": "scorer",
						"offset": 0,
						"slot": "1",
						"type": "t_contract(IScorer)1723"
					},
					{
						"astId": 1387,
						"contract": "contracts/cookie-jar.sol:nCookieJar",
						"label": "dailyLimit",
						"offset": 0,
						"slot": "2",
						"type": "t_uint256"
					},
					{
						"astId": 1389,
						"contract": "contracts/cookie-jar.sol:nCookieJar",
						"label": "totalBalance",
						"offset": 0,
						"slot": "3",
						"type": "t_uint256"
					},
					{
						"astId": 1391,
						"contract": "contracts/cookie-jar.sol:nCookieJar",
						"label": "scoreRequired",
						"offset": 0,
						"slot": "4",
						"type": "t_uint256"
					},
					{
						"astId": 1395,
						"contract": "contracts/cookie-jar.sol:nCookieJar",
						"label": "lastClaimed",
						"offset": 0,
						"slot": "5",
						"type": "t_mapping(t_address,t_uint256)"
					}
				],
				"types": {
					"t_address": {
						"encoding": "inplace",
						"label": "address",
						"numberOfBytes": "20"
					},
					"t_contract(IScorer)1723": {
						"encoding": "inplace",
						"label": "contract IScorer",
						"numberOfBytes": "20"
					},
					"t_mapping(t_address,t_uint256)": {
						"encoding": "mapping",
						"key": "t_address",
						"label": "mapping(address => uint256)",
						"numberOfBytes": "32",
						"value": "t_uint256"
					},
					"t_uint256": {
						"encoding": "inplace",
						"label": "uint256",
						"numberOfBytes": "32"
					}
				}
			},
			"userdoc": {
				"kind": "user",
				"methods": {
					"claim(uint256)": {
						"notice": "Emits a `Claimed` event when the claim is successful.The function supports both ETH and ERC20 token claims. The behavior is based on whether `token` is set to `address(0)` (ETH)."
					},
					"deposit(uint256)": {
						"notice": "Deposits funds into this jar."
					},
					"initialize(address,address,uint256,address,uint256)": {
						"notice": "Initializes this contract with its initial state."
					}
				},
				"version": 1
			}
		}
	}
}