{
	"contracts/sweetspot.sol": {
		"nCookieJar": {
			"abi": [
				{
					"inputs": [],
					"name": "InvalidInitialization",
					"type": "error"
				},
				{
					"inputs": [],
					"name": "NotInitializing",
					"type": "error"
				},
				{
					"inputs": [
						{
							"internalType": "address",
							"name": "owner",
							"type": "address"
						}
					],
					"name": "OwnableInvalidOwner",
					"type": "error"
				},
				{
					"inputs": [
						{
							"internalType": "address",
							"name": "account",
							"type": "address"
						}
					],
					"name": "OwnableUnauthorizedAccount",
					"type": "error"
				},
				{
					"inputs": [
						{
							"internalType": "address",
							"name": "token",
							"type": "address"
						}
					],
					"name": "SafeERC20FailedOperation",
					"type": "error"
				},
				{
					"anonymous": false,
					"inputs": [
						{
							"indexed": true,
							"internalType": "address",
							"name": "user",
							"type": "address"
						},
						{
							"indexed": true,
							"internalType": "address",
							"name": "token",
							"type": "address"
						},
						{
							"indexed": false,
							"internalType": "uint256",
							"name": "newAmount",
							"type": "uint256"
						}
					],
					"name": "AllowedAmountUpdated",
					"type": "event"
				},
				{
					"anonymous": false,
					"inputs": [
						{
							"indexed": true,
							"internalType": "address",
							"name": "claimant",
							"type": "address"
						},
						{
							"indexed": true,
							"internalType": "address",
							"name": "token",
							"type": "address"
						},
						{
							"indexed": false,
							"internalType": "uint256",
							"name": "amount",
							"type": "uint256"
						}
					],
					"name": "Claimed",
					"type": "event"
				},
				{
					"anonymous": false,
					"inputs": [
						{
							"indexed": true,
							"internalType": "address",
							"name": "depositor",
							"type": "address"
						},
						{
							"indexed": true,
							"internalType": "address",
							"name": "token",
							"type": "address"
						},
						{
							"indexed": false,
							"internalType": "uint256",
							"name": "amount",
							"type": "uint256"
						}
					],
					"name": "Deposit",
					"type": "event"
				},
				{
					"anonymous": false,
					"inputs": [
						{
							"indexed": false,
							"internalType": "uint64",
							"name": "version",
							"type": "uint64"
						}
					],
					"name": "Initialized",
					"type": "event"
				},
				{
					"anonymous": false,
					"inputs": [
						{
							"indexed": true,
							"internalType": "address",
							"name": "previousOwner",
							"type": "address"
						},
						{
							"indexed": true,
							"internalType": "address",
							"name": "newOwner",
							"type": "address"
						}
					],
					"name": "OwnershipTransferred",
					"type": "event"
				},
				{
					"anonymous": false,
					"inputs": [
						{
							"indexed": false,
							"internalType": "uint256",
							"name": "start",
							"type": "uint256"
						},
						{
							"indexed": false,
							"internalType": "uint256",
							"name": "end",
							"type": "uint256"
						},
						{
							"indexed": false,
							"internalType": "string",
							"name": "metadataURI",
							"type": "string"
						}
					],
					"name": "RoundUpdated",
					"type": "event"
				},
				{
					"anonymous": false,
					"inputs": [
						{
							"indexed": true,
							"internalType": "address",
							"name": "withdrawer",
							"type": "address"
						},
						{
							"indexed": true,
							"internalType": "address",
							"name": "token",
							"type": "address"
						},
						{
							"indexed": false,
							"internalType": "uint256",
							"name": "amount",
							"type": "uint256"
						}
					],
					"name": "Withdraw",
					"type": "event"
				},
				{
					"inputs": [],
					"name": "ETHER",
					"outputs": [
						{
							"internalType": "address",
							"name": "",
							"type": "address"
						}
					],
					"stateMutability": "view",
					"type": "function"
				},
				{
					"inputs": [
						{
							"internalType": "address",
							"name": "",
							"type": "address"
						},
						{
							"internalType": "address",
							"name": "",
							"type": "address"
						}
					],
					"name": "allowedAmounts",
					"outputs": [
						{
							"internalType": "uint256",
							"name": "",
							"type": "uint256"
						}
					],
					"stateMutability": "view",
					"type": "function"
				},
				{
					"inputs": [
						{
							"internalType": "address",
							"name": "token",
							"type": "address"
						}
					],
					"name": "claim",
					"outputs": [],
					"stateMutability": "nonpayable",
					"type": "function"
				},
				{
					"inputs": [],
					"name": "currentRound",
					"outputs": [
						{
							"internalType": "uint256",
							"name": "start",
							"type": "uint256"
						},
						{
							"internalType": "uint256",
							"name": "end",
							"type": "uint256"
						},
						{
							"internalType": "string",
							"name": "metadataURI",
							"type": "string"
						}
					],
					"stateMutability": "view",
					"type": "function"
				},
				{
					"inputs": [
						{
							"internalType": "address",
							"name": "token",
							"type": "address"
						},
						{
							"internalType": "uint256",
							"name": "amount",
							"type": "uint256"
						}
					],
					"name": "deposit",
					"outputs": [],
					"stateMutability": "payable",
					"type": "function"
				},
				{
					"inputs": [
						{
							"internalType": "address",
							"name": "_scorer",
							"type": "address"
						},
						{
							"internalType": "address",
							"name": "owner",
							"type": "address"
						}
					],
					"name": "initialize",
					"outputs": [],
					"stateMutability": "nonpayable",
					"type": "function"
				},
				{
					"inputs": [],
					"name": "owner",
					"outputs": [
						{
							"internalType": "address",
							"name": "",
							"type": "address"
						}
					],
					"stateMutability": "view",
					"type": "function"
				},
				{
					"inputs": [],
					"name": "renounceOwnership",
					"outputs": [],
					"stateMutability": "nonpayable",
					"type": "function"
				},
				{
					"inputs": [],
					"name": "scorer",
					"outputs": [
						{
							"internalType": "contract IScorer",
							"name": "",
							"type": "address"
						}
					],
					"stateMutability": "view",
					"type": "function"
				},
				{
					"inputs": [
						{
							"internalType": "address",
							"name": "user",
							"type": "address"
						},
						{
							"internalType": "address",
							"name": "token",
							"type": "address"
						},
						{
							"internalType": "uint256",
							"name": "amount",
							"type": "uint256"
						}
					],
					"name": "setAllowedAmount",
					"outputs": [],
					"stateMutability": "nonpayable",
					"type": "function"
				},
				{
					"inputs": [
						{
							"internalType": "uint256",
							"name": "start",
							"type": "uint256"
						},
						{
							"internalType": "uint256",
							"name": "end",
							"type": "uint256"
						},
						{
							"internalType": "string",
							"name": "metadataURI",
							"type": "string"
						}
					],
					"name": "setRound",
					"outputs": [],
					"stateMutability": "nonpayable",
					"type": "function"
				},
				{
					"inputs": [
						{
							"internalType": "address",
							"name": "",
							"type": "address"
						}
					],
					"name": "totalBalances",
					"outputs": [
						{
							"internalType": "uint256",
							"name": "",
							"type": "uint256"
						}
					],
					"stateMutability": "view",
					"type": "function"
				},
				{
					"inputs": [
						{
							"internalType": "address",
							"name": "newOwner",
							"type": "address"
						}
					],
					"name": "transferOwnership",
					"outputs": [],
					"stateMutability": "nonpayable",
					"type": "function"
				},
				{
					"inputs": [
						{
							"internalType": "address",
							"name": "token",
							"type": "address"
						},
						{
							"internalType": "uint256",
							"name": "amount",
							"type": "uint256"
						}
					],
					"name": "withdraw",
					"outputs": [],
					"stateMutability": "nonpayable",
					"type": "function"
				},
				{
					"stateMutability": "payable",
					"type": "receive"
				}
			],
			"devdoc": {
				"errors": {
					"InvalidInitialization()": [
						{
							"details": "The contract is already initialized."
						}
					],
					"NotInitializing()": [
						{
							"details": "The contract is not initializing."
						}
					],
					"OwnableInvalidOwner(address)": [
						{
							"details": "The owner is not a valid owner account. (eg. `address(0)`)"
						}
					],
					"OwnableUnauthorizedAccount(address)": [
						{
							"details": "The caller account is not authorized to perform an operation."
						}
					],
					"SafeERC20FailedOperation(address)": [
						{
							"details": "An operation with an ERC-20 token failed."
						}
					]
				},
				"events": {
					"Initialized(uint64)": {
						"details": "Triggered when the contract has been initialized or reinitialized."
					}
				},
				"kind": "dev",
				"methods": {
					"deposit(address,uint256)": {
						"params": {
							"amount": "The value to add (in wei for Ether).",
							"token": "The token address (address(0) for Ether)."
						}
					},
					"initialize(address,address)": {
						"params": {
							"_scorer": "The scoring contract address.",
							"owner": "The owner address."
						}
					},
					"owner()": {
						"details": "Returns the address of the current owner."
					},
					"renounceOwnership()": {
						"details": "Leaves the contract without owner. It will not be possible to call `onlyOwner` functions. Can only be called by the current owner. NOTE: Renouncing ownership will leave the contract without an owner, thereby disabling any functionality that is only available to the owner."
					},
					"setAllowedAmount(address,address,uint256)": {
						"params": {
							"amount": "The allowed amount for the user.",
							"token": "The token address.",
							"user": "The address of the user."
						}
					},
					"setRound(uint256,uint256,string)": {
						"params": {
							"end": "The end timestamp of the round.",
							"metadataURI": "The IPFS URI for the round metadata.",
							"start": "The start timestamp of the round."
						}
					},
					"transferOwnership(address)": {
						"details": "Transfers ownership of the contract to a new account (`newOwner`). Can only be called by the current owner."
					},
					"withdraw(address,uint256)": {
						"params": {
							"amount": "The amount to withdraw.",
							"token": "The token address (address(0) for Ether)."
						}
					}
				},
				"version": 1
			},
			"evm": {
				"assembly": "    /* \"contracts/sweetspot.sol\":367:5697  contract nCookieJar is OwnableUpgradeable {... */\n  mstore(0x40, 0x80)\n  callvalue\n  dup1\n  iszero\n  tag_1\n  jumpi\n  0x00\n  dup1\n  revert\ntag_1:\n  pop\n  dataSize(sub_0)\n  dup1\n  dataOffset(sub_0)\n  0x00\n  codecopy\n  0x00\n  return\nstop\n\nsub_0: assembly {\n        /* \"contracts/sweetspot.sol\":367:5697  contract nCookieJar is OwnableUpgradeable {... */\n      mstore(0x40, 0x80)\n      jumpi(tag_1, lt(calldatasize, 0x04))\n      shr(0xe0, calldataload(0x00))\n      dup1\n      0x8da5cb5b\n      gt\n      tag_17\n      jumpi\n      dup1\n      0xb807a3c4\n      gt\n      tag_18\n      jumpi\n      dup1\n      0xb807a3c4\n      eq\n      tag_13\n      jumpi\n      dup1\n      0xbe9a7687\n      eq\n      tag_14\n      jumpi\n      dup1\n      0xf2fde38b\n      eq\n      tag_15\n      jumpi\n      dup1\n      0xf3fef3a3\n      eq\n      tag_16\n      jumpi\n      jump(tag_2)\n    tag_18:\n      dup1\n      0x8da5cb5b\n      eq\n      tag_10\n      jumpi\n      dup1\n      0xa9590e8a\n      eq\n      tag_11\n      jumpi\n      dup1\n      0xaee9c872\n      eq\n      tag_12\n      jumpi\n      jump(tag_2)\n    tag_17:\n      dup1\n      0x485cc955\n      gt\n      tag_19\n      jumpi\n      dup1\n      0x485cc955\n      eq\n      tag_6\n      jumpi\n      dup1\n      0x715018a6\n      eq\n      tag_7\n      jumpi\n      dup1\n      0x85c758f7\n      eq\n      tag_8\n      jumpi\n      dup1\n      0x8a19c8bc\n      eq\n      tag_9\n      jumpi\n      jump(tag_2)\n    tag_19:\n      dup1\n      0x1e83409a\n      eq\n      tag_3\n      jumpi\n      dup1\n      0x42cb1fbc\n      eq\n      tag_4\n      jumpi\n      dup1\n      0x47e7ef24\n      eq\n      tag_5\n      jumpi\n      jump(tag_2)\n    tag_1:\n      jumpi(tag_2, calldatasize)\n        /* \"contracts/sweetspot.sol\":5624:5633  msg.value */\n      callvalue\n        /* \"contracts/sweetspot.sol\":5600:5613  totalBalances */\n      0x04\n        /* \"contracts/sweetspot.sol\":5600:5620  totalBalances[ETHER] */\n      0x00\n        /* \"contracts/sweetspot.sol\":574:616  0xF194afDf50B03e69Bd7D057c1Aa9e10c9954E4C9 */\n      0xf194afdf50b03e69bd7d057c1aa9e10c9954e4c9\n        /* \"contracts/sweetspot.sol\":5600:5620  totalBalances[ETHER] */\n      0xffffffffffffffffffffffffffffffffffffffff\n      and\n      0xffffffffffffffffffffffffffffffffffffffff\n      and\n      dup2\n      mstore\n      0x20\n      add\n      swap1\n      dup2\n      mstore\n      0x20\n      add\n      0x00\n      keccak256\n      0x00\n        /* \"contracts/sweetspot.sol\":5600:5633  totalBalances[ETHER] += msg.value */\n      dup3\n      dup3\n      sload\n      tag_22\n      swap2\n      swap1\n      tag_23\n      jump\t// in\n    tag_22:\n      swap3\n      pop\n      pop\n      dup2\n      swap1\n      sstore\n      pop\n        /* \"contracts/sweetspot.sol\":574:616  0xF194afDf50B03e69Bd7D057c1Aa9e10c9954E4C9 */\n      0xf194afdf50b03e69bd7d057c1aa9e10c9954e4c9\n        /* \"contracts/sweetspot.sol\":5649:5686  Deposit(msg.sender, ETHER, msg.value) */\n      0xffffffffffffffffffffffffffffffffffffffff\n      and\n        /* \"contracts/sweetspot.sol\":5657:5667  msg.sender */\n      caller\n        /* \"contracts/sweetspot.sol\":5649:5686  Deposit(msg.sender, ETHER, msg.value) */\n      0xffffffffffffffffffffffffffffffffffffffff\n      and\n      0x5548c837ab068cf56a2c2479df0882a4922fd203edb7517321831d95078c5f62\n        /* \"contracts/sweetspot.sol\":5676:5685  msg.value */\n      callvalue\n        /* \"contracts/sweetspot.sol\":5649:5686  Deposit(msg.sender, ETHER, msg.value) */\n      mload(0x40)\n      tag_24\n      swap2\n      swap1\n      tag_25\n      jump\t// in\n    tag_24:\n      mload(0x40)\n      dup1\n      swap2\n      sub\n      swap1\n      log3\n        /* \"contracts/sweetspot.sol\":367:5697  contract nCookieJar is OwnableUpgradeable {... */\n      stop\n    tag_2:\n      0x00\n      dup1\n      revert\n        /* \"contracts/sweetspot.sol\":2841:3760  function claim(address token) external {... */\n    tag_3:\n      callvalue\n      dup1\n      iszero\n      tag_26\n      jumpi\n      0x00\n      dup1\n      revert\n    tag_26:\n      pop\n      tag_27\n      0x04\n      dup1\n      calldatasize\n      sub\n      dup2\n      add\n      swap1\n      tag_28\n      swap2\n      swap1\n      tag_29\n      jump\t// in\n    tag_28:\n      tag_30\n      jump\t// in\n    tag_27:\n      stop\n        /* \"contracts/sweetspot.sol\":542:616  address public constant ETHER = 0xF194afDf50B03e69Bd7D057c1Aa9e10c9954E4C9 */\n    tag_4:\n      callvalue\n      dup1\n      iszero\n      tag_31\n      jumpi\n      0x00\n      dup1\n      revert\n    tag_31:\n      pop\n      tag_32\n      tag_33\n      jump\t// in\n    tag_32:\n      mload(0x40)\n      tag_34\n      swap2\n      swap1\n      tag_35\n      jump\t// in\n    tag_34:\n      mload(0x40)\n      dup1\n      swap2\n      sub\n      swap1\n      return\n        /* \"contracts/sweetspot.sol\":2303:2756  function deposit(address token, uint256 amount) external payable {... */\n    tag_5:\n      tag_36\n      0x04\n      dup1\n      calldatasize\n      sub\n      dup2\n      add\n      swap1\n      tag_37\n      swap2\n      swap1\n      tag_38\n      jump\t// in\n    tag_37:\n      tag_39\n      jump\t// in\n    tag_36:\n      stop\n        /* \"contracts/sweetspot.sol\":1903:2085  function initialize(address _scorer, address owner) external initializer {... */\n    tag_6:\n      callvalue\n      dup1\n      iszero\n      tag_40\n      jumpi\n      0x00\n      dup1\n      revert\n    tag_40:\n      pop\n      tag_41\n      0x04\n      dup1\n      calldatasize\n      sub\n      dup2\n      add\n      swap1\n      tag_42\n      swap2\n      swap1\n      tag_43\n      jump\t// in\n    tag_42:\n      tag_44\n      jump\t// in\n    tag_41:\n      stop\n        /* \"@openzeppelin/contracts-upgradeable/access/OwnableUpgradeable.sol\":3155:3256  function renounceOwnership() public virtual onlyOwner {... */\n    tag_7:\n      callvalue\n      dup1\n      iszero\n      tag_45\n      jumpi\n      0x00\n      dup1\n      revert\n    tag_45:\n      pop\n      tag_46\n      tag_47\n      jump\t// in\n    tag_46:\n      stop\n        /* \"contracts/sweetspot.sol\":623:644  IScorer public scorer */\n    tag_8:\n      callvalue\n      dup1\n      iszero\n      tag_48\n      jumpi\n      0x00\n      dup1\n      revert\n    tag_48:\n      pop\n      tag_49\n      tag_50\n      jump\t// in\n    tag_49:\n      mload(0x40)\n      tag_51\n      swap2\n      swap1\n      tag_52\n      jump\t// in\n    tag_51:\n      mload(0x40)\n      dup1\n      swap2\n      sub\n      swap1\n      return\n        /* \"contracts/sweetspot.sol\":886:911  Round public currentRound */\n    tag_9:\n      callvalue\n      dup1\n      iszero\n      tag_53\n      jumpi\n      0x00\n      dup1\n      revert\n    tag_53:\n      pop\n      tag_54\n      tag_55\n      jump\t// in\n    tag_54:\n      mload(0x40)\n      tag_56\n      swap4\n      swap3\n      swap2\n      swap1\n      tag_57\n      jump\t// in\n    tag_56:\n      mload(0x40)\n      dup1\n      swap2\n      sub\n      swap1\n      return\n        /* \"@openzeppelin/contracts-upgradeable/access/OwnableUpgradeable.sol\":2441:2585  function owner() public view virtual returns (address) {... */\n    tag_10:\n      callvalue\n      dup1\n      iszero\n      tag_58\n      jumpi\n      0x00\n      dup1\n      revert\n    tag_58:\n      pop\n      tag_59\n      tag_60\n      jump\t// in\n    tag_59:\n      mload(0x40)\n      tag_61\n      swap2\n      swap1\n      tag_35\n      jump\t// in\n    tag_61:\n      mload(0x40)\n      dup1\n      swap2\n      sub\n      swap1\n      return\n        /* \"contracts/sweetspot.sol\":1100:1169  mapping(address => mapping(address => uint256)) public allowedAmounts */\n    tag_11:\n      callvalue\n      dup1\n      iszero\n      tag_62\n      jumpi\n      0x00\n      dup1\n      revert\n    tag_62:\n      pop\n      tag_63\n      0x04\n      dup1\n      calldatasize\n      sub\n      dup2\n      add\n      swap1\n      tag_64\n      swap2\n      swap1\n      tag_43\n      jump\t// in\n    tag_64:\n      tag_65\n      jump\t// in\n    tag_63:\n      mload(0x40)\n      tag_66\n      swap2\n      swap1\n      tag_25\n      jump\t// in\n    tag_66:\n      mload(0x40)\n      dup1\n      swap2\n      sub\n      swap1\n      return\n        /* \"contracts/sweetspot.sol\":1002:1050  mapping(address => uint256) public totalBalances */\n    tag_12:\n      callvalue\n      dup1\n      iszero\n      tag_67\n      jumpi\n      0x00\n      dup1\n      revert\n    tag_67:\n      pop\n      tag_68\n      0x04\n      dup1\n      calldatasize\n      sub\n      dup2\n      add\n      swap1\n      tag_69\n      swap2\n      swap1\n      tag_29\n      jump\t// in\n    tag_69:\n      tag_70\n      jump\t// in\n    tag_68:\n      mload(0x40)\n      tag_71\n      swap2\n      swap1\n      tag_25\n      jump\t// in\n    tag_71:\n      mload(0x40)\n      dup1\n      swap2\n      sub\n      swap1\n      return\n        /* \"contracts/sweetspot.sol\":3992:4194  function setAllowedAmount(address user, address token, uint256 amount) external onlyAdmin {... */\n    tag_13:\n      callvalue\n      dup1\n      iszero\n      tag_72\n      jumpi\n      0x00\n      dup1\n      revert\n    tag_72:\n      pop\n      tag_73\n      0x04\n      dup1\n      calldatasize\n      sub\n      dup2\n      add\n      swap1\n      tag_74\n      swap2\n      swap1\n      tag_75\n      jump\t// in\n    tag_74:\n      tag_76\n      jump\t// in\n    tag_73:\n      stop\n        /* \"contracts/sweetspot.sol\":4443:4721  function setRound(uint256 start, uint256 end, string memory metadataURI) external onlyAdmin {... */\n    tag_14:\n      callvalue\n      dup1\n      iszero\n      tag_77\n      jumpi\n      0x00\n      dup1\n      revert\n    tag_77:\n      pop\n      tag_78\n      0x04\n      dup1\n      calldatasize\n      sub\n      dup2\n      add\n      swap1\n      tag_79\n      swap2\n      swap1\n      tag_80\n      jump\t// in\n    tag_79:\n      tag_81\n      jump\t// in\n    tag_78:\n      stop\n        /* \"@openzeppelin/contracts-upgradeable/access/OwnableUpgradeable.sol\":3405:3620  function transferOwnership(address newOwner) public virtual onlyOwner {... */\n    tag_15:\n      callvalue\n      dup1\n      iszero\n      tag_82\n      jumpi\n      0x00\n      dup1\n      revert\n    tag_82:\n      pop\n      tag_83\n      0x04\n      dup1\n      calldatasize\n      sub\n      dup2\n      add\n      swap1\n      tag_84\n      swap2\n      swap1\n      tag_29\n      jump\t// in\n    tag_84:\n      tag_85\n      jump\t// in\n    tag_83:\n      stop\n        /* \"contracts/sweetspot.sol\":4926:5483  function withdraw(address token, uint256 amount) external onlyOwner {... */\n    tag_16:\n      callvalue\n      dup1\n      iszero\n      tag_86\n      jumpi\n      0x00\n      dup1\n      revert\n    tag_86:\n      pop\n      tag_87\n      0x04\n      dup1\n      calldatasize\n      sub\n      dup2\n      add\n      swap1\n      tag_88\n      swap2\n      swap1\n      tag_38\n      jump\t// in\n    tag_88:\n      tag_89\n      jump\t// in\n    tag_87:\n      stop\n        /* \"contracts/sweetspot.sol\":2841:3760  function claim(address token) external {... */\n    tag_30:\n        /* \"contracts/sweetspot.sol\":2918:2930  currentRound */\n      0x01\n        /* \"contracts/sweetspot.sol\":2918:2936  currentRound.start */\n      0x00\n      add\n      sload\n        /* \"contracts/sweetspot.sol\":2899:2914  block.timestamp */\n      timestamp\n        /* \"contracts/sweetspot.sol\":2899:2936  block.timestamp >= currentRound.start */\n      lt\n      iszero\n        /* \"contracts/sweetspot.sol\":2899:2975  block.timestamp >= currentRound.start && block.timestamp <= currentRound.end */\n      dup1\n      iszero\n      tag_91\n      jumpi\n      pop\n        /* \"contracts/sweetspot.sol\":2959:2971  currentRound */\n      0x01\n        /* \"contracts/sweetspot.sol\":2959:2975  currentRound.end */\n      dup1\n      add\n      sload\n        /* \"contracts/sweetspot.sol\":2940:2955  block.timestamp */\n      timestamp\n        /* \"contracts/sweetspot.sol\":2940:2975  block.timestamp <= currentRound.end */\n      gt\n      iszero\n        /* \"contracts/sweetspot.sol\":2899:2975  block.timestamp >= currentRound.start && block.timestamp <= currentRound.end */\n    tag_91:\n        /* \"contracts/sweetspot.sol\":2891:3005  require(block.timestamp >= currentRound.start && block.timestamp <= currentRound.end, \"Not within round duration\") */\n      tag_92\n      jumpi\n      mload(0x40)\n      0x08c379a000000000000000000000000000000000000000000000000000000000\n      dup2\n      mstore\n      0x04\n      add\n      tag_93\n      swap1\n      tag_94\n      jump\t// in\n    tag_93:\n      mload(0x40)\n      dup1\n      swap2\n      sub\n      swap1\n      revert\n    tag_92:\n        /* \"contracts/sweetspot.sol\":3018:3043  uint256 userAllowedAmount */\n      0x00\n        /* \"contracts/sweetspot.sol\":3046:3060  allowedAmounts */\n      0x05\n        /* \"contracts/sweetspot.sol\":3046:3072  allowedAmounts[msg.sender] */\n      0x00\n        /* \"contracts/sweetspot.sol\":3061:3071  msg.sender */\n      caller\n        /* \"contracts/sweetspot.sol\":3046:3072  allowedAmounts[msg.sender] */\n      0xffffffffffffffffffffffffffffffffffffffff\n      and\n      0xffffffffffffffffffffffffffffffffffffffff\n      and\n      dup2\n      mstore\n      0x20\n      add\n      swap1\n      dup2\n      mstore\n      0x20\n      add\n      0x00\n      keccak256\n        /* \"contracts/sweetspot.sol\":3046:3079  allowedAmounts[msg.sender][token] */\n      0x00\n        /* \"contracts/sweetspot.sol\":3073:3078  token */\n      dup4\n        /* \"contracts/sweetspot.sol\":3046:3079  allowedAmounts[msg.sender][token] */\n      0xffffffffffffffffffffffffffffffffffffffff\n      and\n      0xffffffffffffffffffffffffffffffffffffffff\n      and\n      dup2\n      mstore\n      0x20\n      add\n      swap1\n      dup2\n      mstore\n      0x20\n      add\n      0x00\n      keccak256\n      sload\n        /* \"contracts/sweetspot.sol\":3018:3079  uint256 userAllowedAmount = allowedAmounts[msg.sender][token] */\n      swap1\n      pop\n        /* \"contracts/sweetspot.sol\":3118:3119  0 */\n      0x00\n        /* \"contracts/sweetspot.sol\":3098:3115  userAllowedAmount */\n      dup2\n        /* \"contracts/sweetspot.sol\":3098:3119  userAllowedAmount > 0 */\n      gt\n        /* \"contracts/sweetspot.sol\":3090:3143  require(userAllowedAmount > 0, \"No claimable amount\") */\n      tag_95\n      jumpi\n      mload(0x40)\n      0x08c379a000000000000000000000000000000000000000000000000000000000\n      dup2\n      mstore\n      0x04\n      add\n      tag_96\n      swap1\n      tag_97\n      jump\t// in\n    tag_96:\n      mload(0x40)\n      dup1\n      swap2\n      sub\n      swap1\n      revert\n    tag_95:\n        /* \"contracts/sweetspot.sol\":3186:3203  userAllowedAmount */\n      dup1\n        /* \"contracts/sweetspot.sol\":3162:3175  totalBalances */\n      0x04\n        /* \"contracts/sweetspot.sol\":3162:3182  totalBalances[token] */\n      0x00\n        /* \"contracts/sweetspot.sol\":3176:3181  token */\n      dup5\n        /* \"contracts/sweetspot.sol\":3162:3182  totalBalances[token] */\n      0xffffffffffffffffffffffffffffffffffffffff\n      and\n      0xffffffffffffffffffffffffffffffffffffffff\n      and\n      dup2\n      mstore\n      0x20\n      add\n      swap1\n      dup2\n      mstore\n      0x20\n      add\n      0x00\n      keccak256\n      sload\n        /* \"contracts/sweetspot.sol\":3162:3203  totalBalances[token] >= userAllowedAmount */\n      lt\n      iszero\n        /* \"contracts/sweetspot.sol\":3154:3233  require(totalBalances[token] >= userAllowedAmount, \"Insufficient funds in jar\") */\n      tag_98\n      jumpi\n      mload(0x40)\n      0x08c379a000000000000000000000000000000000000000000000000000000000\n      dup2\n      mstore\n      0x04\n      add\n      tag_99\n      swap1\n      tag_100\n      jump\t// in\n    tag_99:\n      mload(0x40)\n      dup1\n      swap2\n      sub\n      swap1\n      revert\n    tag_98:\n        /* \"contracts/sweetspot.sol\":3288:3289  0 */\n      0x00\n        /* \"contracts/sweetspot.sol\":3252:3258  scorer */\n      dup1\n      0x00\n      swap1\n      sload\n      swap1\n      0x0100\n      exp\n      swap1\n      div\n      0xffffffffffffffffffffffffffffffffffffffff\n      and\n        /* \"contracts/sweetspot.sol\":3252:3264  scorer.score */\n      0xffffffffffffffffffffffffffffffffffffffff\n      and\n      0xdb4f1024\n        /* \"contracts/sweetspot.sol\":3265:3275  msg.sender */\n      caller\n        /* \"contracts/sweetspot.sol\":3252:3285  scorer.score(msg.sender, \"Trust\") */\n      mload(0x40)\n      dup3\n      0xffffffff\n      and\n      0xe0\n      shl\n      dup2\n      mstore\n      0x04\n      add\n      tag_101\n      swap2\n      swap1\n      tag_102\n      jump\t// in\n    tag_101:\n      0x20\n      mload(0x40)\n      dup1\n      dup4\n      sub\n      dup2\n      dup7\n      gas\n      staticcall\n      iszero\n      dup1\n      iszero\n      tag_104\n      jumpi\n      returndatasize\n      0x00\n      dup1\n      returndatacopy\n      revert(0x00, returndatasize)\n    tag_104:\n      pop\n      pop\n      pop\n      pop\n      mload(0x40)\n      returndatasize\n      not(0x1f)\n      0x1f\n      dup3\n      add\n      and\n      dup3\n      add\n      dup1\n      0x40\n      mstore\n      pop\n      dup2\n      add\n      swap1\n      tag_105\n      swap2\n      swap1\n      tag_106\n      jump\t// in\n    tag_105:\n        /* \"contracts/sweetspot.sol\":3252:3289  scorer.score(msg.sender, \"Trust\") > 0 */\n      gt\n        /* \"contracts/sweetspot.sol\":3244:3318  require(scorer.score(msg.sender, \"Trust\") > 0, \"Insufficient Trust score\") */\n      tag_107\n      jumpi\n      mload(0x40)\n      0x08c379a000000000000000000000000000000000000000000000000000000000\n      dup2\n      mstore\n      0x04\n      add\n      tag_108\n      swap1\n      tag_109\n      jump\t// in\n    tag_108:\n      mload(0x40)\n      dup1\n      swap2\n      sub\n      swap1\n      revert\n    tag_107:\n        /* \"contracts/sweetspot.sol\":3367:3368  0 */\n      0x00\n        /* \"contracts/sweetspot.sol\":3331:3345  allowedAmounts */\n      0x05\n        /* \"contracts/sweetspot.sol\":3331:3357  allowedAmounts[msg.sender] */\n      0x00\n        /* \"contracts/sweetspot.sol\":3346:3356  msg.sender */\n      caller\n        /* \"contracts/sweetspot.sol\":3331:3357  allowedAmounts[msg.sender] */\n      0xffffffffffffffffffffffffffffffffffffffff\n      and\n      0xffffffffffffffffffffffffffffffffffffffff\n      and\n      dup2\n      mstore\n      0x20\n      add\n      swap1\n      dup2\n      mstore\n      0x20\n      add\n      0x00\n      keccak256\n        /* \"contracts/sweetspot.sol\":3331:3364  allowedAmounts[msg.sender][token] */\n      0x00\n        /* \"contracts/sweetspot.sol\":3358:3363  token */\n      dup5\n        /* \"contracts/sweetspot.sol\":3331:3364  allowedAmounts[msg.sender][token] */\n      0xffffffffffffffffffffffffffffffffffffffff\n      and\n      0xffffffffffffffffffffffffffffffffffffffff\n      and\n      dup2\n      mstore\n      0x20\n      add\n      swap1\n      dup2\n      mstore\n      0x20\n      add\n      0x00\n      keccak256\n        /* \"contracts/sweetspot.sol\":3331:3368  allowedAmounts[msg.sender][token] = 0 */\n      dup2\n      swap1\n      sstore\n      pop\n        /* \"contracts/sweetspot.sol\":3403:3420  userAllowedAmount */\n      dup1\n        /* \"contracts/sweetspot.sol\":3379:3392  totalBalances */\n      0x04\n        /* \"contracts/sweetspot.sol\":3379:3399  totalBalances[token] */\n      0x00\n        /* \"contracts/sweetspot.sol\":3393:3398  token */\n      dup5\n        /* \"contracts/sweetspot.sol\":3379:3399  totalBalances[token] */\n      0xffffffffffffffffffffffffffffffffffffffff\n      and\n      0xffffffffffffffffffffffffffffffffffffffff\n      and\n      dup2\n      mstore\n      0x20\n      add\n      swap1\n      dup2\n      mstore\n      0x20\n      add\n      0x00\n      keccak256\n      0x00\n        /* \"contracts/sweetspot.sol\":3379:3420  totalBalances[token] -= userAllowedAmount */\n      dup3\n      dup3\n      sload\n      tag_110\n      swap2\n      swap1\n      tag_111\n      jump\t// in\n    tag_110:\n      swap3\n      pop\n      pop\n      dup2\n      swap1\n      sstore\n      pop\n        /* \"contracts/sweetspot.sol\":574:616  0xF194afDf50B03e69Bd7D057c1Aa9e10c9954E4C9 */\n      0xf194afdf50b03e69bd7d057c1aa9e10c9954e4c9\n        /* \"contracts/sweetspot.sol\":3437:3451  token == ETHER */\n      0xffffffffffffffffffffffffffffffffffffffff\n      and\n        /* \"contracts/sweetspot.sol\":3437:3442  token */\n      dup3\n        /* \"contracts/sweetspot.sol\":3437:3451  token == ETHER */\n      0xffffffffffffffffffffffffffffffffffffffff\n      and\n      sub\n        /* \"contracts/sweetspot.sol\":3433:3690  if (token == ETHER) {... */\n      tag_112\n      jumpi\n        /* \"contracts/sweetspot.sol\":3469:3481  bool success */\n      0x00\n        /* \"contracts/sweetspot.sol\":3487:3497  msg.sender */\n      caller\n        /* \"contracts/sweetspot.sol\":3487:3502  msg.sender.call */\n      0xffffffffffffffffffffffffffffffffffffffff\n      and\n        /* \"contracts/sweetspot.sol\":3510:3527  userAllowedAmount */\n      dup3\n        /* \"contracts/sweetspot.sol\":3487:3532  msg.sender.call{value: userAllowedAmount}(\"\") */\n      mload(0x40)\n      tag_113\n      swap1\n      tag_114\n      jump\t// in\n    tag_113:\n      0x00\n      mload(0x40)\n      dup1\n      dup4\n      sub\n      dup2\n      dup6\n      dup8\n      gas\n      call\n      swap3\n      pop\n      pop\n      pop\n      returndatasize\n      dup1\n      0x00\n      dup2\n      eq\n      tag_117\n      jumpi\n      mload(0x40)\n      swap2\n      pop\n      and(add(returndatasize, 0x3f), not(0x1f))\n      dup3\n      add\n      0x40\n      mstore\n      returndatasize\n      dup3\n      mstore\n      returndatasize\n      0x00\n      0x20\n      dup5\n      add\n      returndatacopy\n      jump(tag_116)\n    tag_117:\n      0x60\n      swap2\n      pop\n    tag_116:\n      pop\n        /* \"contracts/sweetspot.sol\":3468:3532  (bool success, ) = msg.sender.call{value: userAllowedAmount}(\"\") */\n      pop\n      swap1\n      pop\n        /* \"contracts/sweetspot.sol\":3555:3562  success */\n      dup1\n        /* \"contracts/sweetspot.sol\":3547:3588  require(success, \"Ether transfer failed\") */\n      tag_118\n      jumpi\n      mload(0x40)\n      0x08c379a000000000000000000000000000000000000000000000000000000000\n      dup2\n      mstore\n      0x04\n      add\n      tag_119\n      swap1\n      tag_120\n      jump\t// in\n    tag_119:\n      mload(0x40)\n      dup1\n      swap2\n      sub\n      swap1\n      revert\n    tag_118:\n        /* \"contracts/sweetspot.sol\":3453:3600  {... */\n      pop\n        /* \"contracts/sweetspot.sol\":3433:3690  if (token == ETHER) {... */\n      jump(tag_121)\n    tag_112:\n        /* \"contracts/sweetspot.sol\":3621:3678  IERC20(token).safeTransfer(msg.sender, userAllowedAmount) */\n      tag_122\n        /* \"contracts/sweetspot.sol\":3648:3658  msg.sender */\n      caller\n        /* \"contracts/sweetspot.sol\":3660:3677  userAllowedAmount */\n      dup3\n        /* \"contracts/sweetspot.sol\":3628:3633  token */\n      dup5\n        /* \"contracts/sweetspot.sol\":3621:3647  IERC20(token).safeTransfer */\n      0xffffffffffffffffffffffffffffffffffffffff\n      and\n      tag_123\n      swap1\n        /* \"contracts/sweetspot.sol\":3621:3678  IERC20(token).safeTransfer(msg.sender, userAllowedAmount) */\n      swap3\n      swap2\n      swap1\n      0xffffffff\n      and\n      jump\t// in\n    tag_122:\n        /* \"contracts/sweetspot.sol\":3433:3690  if (token == ETHER) {... */\n    tag_121:\n        /* \"contracts/sweetspot.sol\":3727:3732  token */\n      dup2\n        /* \"contracts/sweetspot.sol\":3707:3752  Claimed(msg.sender, token, userAllowedAmount) */\n      0xffffffffffffffffffffffffffffffffffffffff\n      and\n        /* \"contracts/sweetspot.sol\":3715:3725  msg.sender */\n      caller\n        /* \"contracts/sweetspot.sol\":3707:3752  Claimed(msg.sender, token, userAllowedAmount) */\n      0xffffffffffffffffffffffffffffffffffffffff\n      and\n      0xf7a40077ff7a04c7e61f6f26fb13774259ddf1b6bce9ecf26a8276cdd3992683\n        /* \"contracts/sweetspot.sol\":3734:3751  userAllowedAmount */\n      dup4\n        /* \"contracts/sweetspot.sol\":3707:3752  Claimed(msg.sender, token, userAllowedAmount) */\n      mload(0x40)\n      tag_124\n      swap2\n      swap1\n      tag_25\n      jump\t// in\n    tag_124:\n      mload(0x40)\n      dup1\n      swap2\n      sub\n      swap1\n      log3\n        /* \"contracts/sweetspot.sol\":2880:3760  {... */\n      pop\n        /* \"contracts/sweetspot.sol\":2841:3760  function claim(address token) external {... */\n      pop\n      jump\t// out\n        /* \"contracts/sweetspot.sol\":542:616  address public constant ETHER = 0xF194afDf50B03e69Bd7D057c1Aa9e10c9954E4C9 */\n    tag_33:\n        /* \"contracts/sweetspot.sol\":574:616  0xF194afDf50B03e69Bd7D057c1Aa9e10c9954E4C9 */\n      0xf194afdf50b03e69bd7d057c1aa9e10c9954e4c9\n        /* \"contracts/sweetspot.sol\":542:616  address public constant ETHER = 0xF194afDf50B03e69Bd7D057c1Aa9e10c9954E4C9 */\n      dup2\n      jump\t// out\n        /* \"contracts/sweetspot.sol\":2303:2756  function deposit(address token, uint256 amount) external payable {... */\n    tag_39:\n        /* \"contracts/sweetspot.sol\":574:616  0xF194afDf50B03e69Bd7D057c1Aa9e10c9954E4C9 */\n      0xf194afdf50b03e69bd7d057c1aa9e10c9954e4c9\n        /* \"contracts/sweetspot.sol\":2383:2397  token == ETHER */\n      0xffffffffffffffffffffffffffffffffffffffff\n      and\n        /* \"contracts/sweetspot.sol\":2383:2388  token */\n      dup3\n        /* \"contracts/sweetspot.sol\":2383:2397  token == ETHER */\n      0xffffffffffffffffffffffffffffffffffffffff\n      and\n      sub\n        /* \"contracts/sweetspot.sol\":2379:2656  if (token == ETHER) {... */\n      tag_126\n      jumpi\n        /* \"contracts/sweetspot.sol\":2435:2441  amount */\n      dup1\n        /* \"contracts/sweetspot.sol\":2422:2431  msg.value */\n      callvalue\n        /* \"contracts/sweetspot.sol\":2422:2441  msg.value == amount */\n      eq\n        /* \"contracts/sweetspot.sol\":2414:2468  require(msg.value == amount, \"Incorrect Ether amount\") */\n      tag_127\n      jumpi\n      mload(0x40)\n      0x08c379a000000000000000000000000000000000000000000000000000000000\n      dup2\n      mstore\n      0x04\n      add\n      tag_128\n      swap1\n      tag_129\n      jump\t// in\n    tag_128:\n      mload(0x40)\n      dup1\n      swap2\n      sub\n      swap1\n      revert\n    tag_127:\n        /* \"contracts/sweetspot.sol\":2379:2656  if (token == ETHER) {... */\n      jump(tag_130)\n    tag_126:\n        /* \"contracts/sweetspot.sol\":2518:2519  0 */\n      0x00\n        /* \"contracts/sweetspot.sol\":2509:2515  amount */\n      dup2\n        /* \"contracts/sweetspot.sol\":2509:2519  amount > 0 */\n      gt\n        /* \"contracts/sweetspot.sol\":2501:2564  require(amount > 0, \"Deposit amount must be greater than zero\") */\n      tag_131\n      jumpi\n      mload(0x40)\n      0x08c379a000000000000000000000000000000000000000000000000000000000\n      dup2\n      mstore\n      0x04\n      add\n      tag_132\n      swap1\n      tag_133\n      jump\t// in\n    tag_132:\n      mload(0x40)\n      dup1\n      swap2\n      sub\n      swap1\n      revert\n    tag_131:\n        /* \"contracts/sweetspot.sol\":2579:2644  IERC20(token).safeTransferFrom(msg.sender, address(this), amount) */\n      tag_134\n        /* \"contracts/sweetspot.sol\":2610:2620  msg.sender */\n      caller\n        /* \"contracts/sweetspot.sol\":2630:2634  this */\n      address\n        /* \"contracts/sweetspot.sol\":2637:2643  amount */\n      dup4\n        /* \"contracts/sweetspot.sol\":2586:2591  token */\n      dup6\n        /* \"contracts/sweetspot.sol\":2579:2609  IERC20(token).safeTransferFrom */\n      0xffffffffffffffffffffffffffffffffffffffff\n      and\n      tag_135\n      swap1\n        /* \"contracts/sweetspot.sol\":2579:2644  IERC20(token).safeTransferFrom(msg.sender, address(this), amount) */\n      swap4\n      swap3\n      swap2\n      swap1\n      0xffffffff\n      and\n      jump\t// in\n    tag_134:\n        /* \"contracts/sweetspot.sol\":2379:2656  if (token == ETHER) {... */\n    tag_130:\n        /* \"contracts/sweetspot.sol\":2692:2698  amount */\n      dup1\n        /* \"contracts/sweetspot.sol\":2668:2681  totalBalances */\n      0x04\n        /* \"contracts/sweetspot.sol\":2668:2688  totalBalances[token] */\n      0x00\n        /* \"contracts/sweetspot.sol\":2682:2687  token */\n      dup5\n        /* \"contracts/sweetspot.sol\":2668:2688  totalBalances[token] */\n      0xffffffffffffffffffffffffffffffffffffffff\n      and\n      0xffffffffffffffffffffffffffffffffffffffff\n      and\n      dup2\n      mstore\n      0x20\n      add\n      swap1\n      dup2\n      mstore\n      0x20\n      add\n      0x00\n      keccak256\n      0x00\n        /* \"contracts/sweetspot.sol\":2668:2698  totalBalances[token] += amount */\n      dup3\n      dup3\n      sload\n      tag_136\n      swap2\n      swap1\n      tag_23\n      jump\t// in\n    tag_136:\n      swap3\n      pop\n      pop\n      dup2\n      swap1\n      sstore\n      pop\n        /* \"contracts/sweetspot.sol\":2734:2739  token */\n      dup2\n        /* \"contracts/sweetspot.sol\":2714:2748  Deposit(msg.sender, token, amount) */\n      0xffffffffffffffffffffffffffffffffffffffff\n      and\n        /* \"contracts/sweetspot.sol\":2722:2732  msg.sender */\n      caller\n        /* \"contracts/sweetspot.sol\":2714:2748  Deposit(msg.sender, token, amount) */\n      0xffffffffffffffffffffffffffffffffffffffff\n      and\n      0x5548c837ab068cf56a2c2479df0882a4922fd203edb7517321831d95078c5f62\n        /* \"contracts/sweetspot.sol\":2741:2747  amount */\n      dup4\n        /* \"contracts/sweetspot.sol\":2714:2748  Deposit(msg.sender, token, amount) */\n      mload(0x40)\n      tag_137\n      swap2\n      swap1\n      tag_25\n      jump\t// in\n    tag_137:\n      mload(0x40)\n      dup1\n      swap2\n      sub\n      swap1\n      log3\n        /* \"contracts/sweetspot.sol\":2303:2756  function deposit(address token, uint256 amount) external payable {... */\n      pop\n      pop\n      jump\t// out\n        /* \"contracts/sweetspot.sol\":1903:2085  function initialize(address _scorer, address owner) external initializer {... */\n    tag_44:\n        /* \"@openzeppelin/contracts-upgradeable/proxy/utils/Initializable.sol\":4158:4188  InitializableStorage storage $ */\n      0x00\n        /* \"@openzeppelin/contracts-upgradeable/proxy/utils/Initializable.sol\":4191:4217  _getInitializableStorage() */\n      tag_139\n        /* \"@openzeppelin/contracts-upgradeable/proxy/utils/Initializable.sol\":4191:4215  _getInitializableStorage */\n      tag_140\n        /* \"@openzeppelin/contracts-upgradeable/proxy/utils/Initializable.sol\":4191:4217  _getInitializableStorage() */\n      jump\t// in\n    tag_139:\n        /* \"@openzeppelin/contracts-upgradeable/proxy/utils/Initializable.sol\":4158:4217  InitializableStorage storage $ = _getInitializableStorage() */\n      swap1\n      pop\n        /* \"@openzeppelin/contracts-upgradeable/proxy/utils/Initializable.sol\":4279:4298  bool isTopLevelCall */\n      0x00\n        /* \"@openzeppelin/contracts-upgradeable/proxy/utils/Initializable.sol\":4302:4303  $ */\n      dup2\n        /* \"@openzeppelin/contracts-upgradeable/proxy/utils/Initializable.sol\":4302:4317  $._initializing */\n      0x00\n      add\n      0x08\n      swap1\n      sload\n      swap1\n      0x0100\n      exp\n      swap1\n      div\n      0xff\n      and\n        /* \"@openzeppelin/contracts-upgradeable/proxy/utils/Initializable.sol\":4301:4317  !$._initializing */\n      iszero\n        /* \"@openzeppelin/contracts-upgradeable/proxy/utils/Initializable.sol\":4279:4317  bool isTopLevelCall = !$._initializing */\n      swap1\n      pop\n        /* \"@openzeppelin/contracts-upgradeable/proxy/utils/Initializable.sol\":4327:4345  uint64 initialized */\n      0x00\n        /* \"@openzeppelin/contracts-upgradeable/proxy/utils/Initializable.sol\":4348:4349  $ */\n      dup3\n        /* \"@openzeppelin/contracts-upgradeable/proxy/utils/Initializable.sol\":4348:4362  $._initialized */\n      0x00\n      add\n      0x00\n      swap1\n      sload\n      swap1\n      0x0100\n      exp\n      swap1\n      div\n      0xffffffffffffffff\n      and\n        /* \"@openzeppelin/contracts-upgradeable/proxy/utils/Initializable.sol\":4327:4362  uint64 initialized = $._initialized */\n      swap1\n      pop\n        /* \"@openzeppelin/contracts-upgradeable/proxy/utils/Initializable.sol\":4706:4723  bool initialSetup */\n      0x00\n        /* \"@openzeppelin/contracts-upgradeable/proxy/utils/Initializable.sol\":4741:4742  0 */\n      dup1\n        /* \"@openzeppelin/contracts-upgradeable/proxy/utils/Initializable.sol\":4726:4737  initialized */\n      dup3\n        /* \"@openzeppelin/contracts-upgradeable/proxy/utils/Initializable.sol\":4726:4742  initialized == 0 */\n      0xffffffffffffffff\n      and\n      eq\n        /* \"@openzeppelin/contracts-upgradeable/proxy/utils/Initializable.sol\":4726:4760  initialized == 0 && isTopLevelCall */\n      dup1\n      iszero\n      tag_141\n      jumpi\n      pop\n        /* \"@openzeppelin/contracts-upgradeable/proxy/utils/Initializable.sol\":4746:4760  isTopLevelCall */\n      dup3\n        /* \"@openzeppelin/contracts-upgradeable/proxy/utils/Initializable.sol\":4726:4760  initialized == 0 && isTopLevelCall */\n    tag_141:\n        /* \"@openzeppelin/contracts-upgradeable/proxy/utils/Initializable.sol\":4706:4760  bool initialSetup = initialized == 0 && isTopLevelCall */\n      swap1\n      pop\n        /* \"@openzeppelin/contracts-upgradeable/proxy/utils/Initializable.sol\":4770:4787  bool construction */\n      0x00\n        /* \"@openzeppelin/contracts-upgradeable/proxy/utils/Initializable.sol\":4805:4806  1 */\n      0x01\n        /* \"@openzeppelin/contracts-upgradeable/proxy/utils/Initializable.sol\":4790:4801  initialized */\n      dup4\n        /* \"@openzeppelin/contracts-upgradeable/proxy/utils/Initializable.sol\":4790:4806  initialized == 1 */\n      0xffffffffffffffff\n      and\n      eq\n        /* \"@openzeppelin/contracts-upgradeable/proxy/utils/Initializable.sol\":4790:4840  initialized == 1 && address(this).code.length == 0 */\n      dup1\n      iszero\n      tag_142\n      jumpi\n      pop\n        /* \"@openzeppelin/contracts-upgradeable/proxy/utils/Initializable.sol\":4839:4840  0 */\n      0x00\n        /* \"@openzeppelin/contracts-upgradeable/proxy/utils/Initializable.sol\":4818:4822  this */\n      address\n        /* \"@openzeppelin/contracts-upgradeable/proxy/utils/Initializable.sol\":4810:4835  address(this).code.length */\n      0xffffffffffffffffffffffffffffffffffffffff\n      and\n      extcodesize\n        /* \"@openzeppelin/contracts-upgradeable/proxy/utils/Initializable.sol\":4810:4840  address(this).code.length == 0 */\n      eq\n        /* \"@openzeppelin/contracts-upgradeable/proxy/utils/Initializable.sol\":4790:4840  initialized == 1 && address(this).code.length == 0 */\n    tag_142:\n        /* \"@openzeppelin/contracts-upgradeable/proxy/utils/Initializable.sol\":4770:4840  bool construction = initialized == 1 && address(this).code.length == 0 */\n      swap1\n      pop\n        /* \"@openzeppelin/contracts-upgradeable/proxy/utils/Initializable.sol\":4856:4868  initialSetup */\n      dup2\n        /* \"@openzeppelin/contracts-upgradeable/proxy/utils/Initializable.sol\":4855:4868  !initialSetup */\n      iszero\n        /* \"@openzeppelin/contracts-upgradeable/proxy/utils/Initializable.sol\":4855:4885  !initialSetup && !construction */\n      dup1\n      iszero\n      tag_143\n      jumpi\n      pop\n        /* \"@openzeppelin/contracts-upgradeable/proxy/utils/Initializable.sol\":4873:4885  construction */\n      dup1\n        /* \"@openzeppelin/contracts-upgradeable/proxy/utils/Initializable.sol\":4872:4885  !construction */\n      iszero\n        /* \"@openzeppelin/contracts-upgradeable/proxy/utils/Initializable.sol\":4855:4885  !initialSetup && !construction */\n    tag_143:\n        /* \"@openzeppelin/contracts-upgradeable/proxy/utils/Initializable.sol\":4851:4942  if (!initialSetup && !construction) {... */\n      iszero\n      tag_144\n      jumpi\n        /* \"@openzeppelin/contracts-upgradeable/proxy/utils/Initializable.sol\":4908:4931  InvalidInitialization() */\n      mload(0x40)\n      0xf92ee8a900000000000000000000000000000000000000000000000000000000\n      dup2\n      mstore\n      0x04\n      add\n      mload(0x40)\n      dup1\n      swap2\n      sub\n      swap1\n      revert\n        /* \"@openzeppelin/contracts-upgradeable/proxy/utils/Initializable.sol\":4851:4942  if (!initialSetup && !construction) {... */\n    tag_144:\n        /* \"@openzeppelin/contracts-upgradeable/proxy/utils/Initializable.sol\":4968:4969  1 */\n      0x01\n        /* \"@openzeppelin/contracts-upgradeable/proxy/utils/Initializable.sol\":4951:4952  $ */\n      dup6\n        /* \"@openzeppelin/contracts-upgradeable/proxy/utils/Initializable.sol\":4951:4965  $._initialized */\n      0x00\n      add\n      0x00\n        /* \"@openzeppelin/contracts-upgradeable/proxy/utils/Initializable.sol\":4951:4969  $._initialized = 1 */\n      0x0100\n      exp\n      dup2\n      sload\n      dup2\n      0xffffffffffffffff\n      mul\n      not\n      and\n      swap1\n      dup4\n      0xffffffffffffffff\n      and\n      mul\n      or\n      swap1\n      sstore\n      pop\n        /* \"@openzeppelin/contracts-upgradeable/proxy/utils/Initializable.sol\":4983:4997  isTopLevelCall */\n      dup4\n        /* \"@openzeppelin/contracts-upgradeable/proxy/utils/Initializable.sol\":4979:5046  if (isTopLevelCall) {... */\n      iszero\n      tag_145\n      jumpi\n        /* \"@openzeppelin/contracts-upgradeable/proxy/utils/Initializable.sol\":5031:5035  true */\n      0x01\n        /* \"@openzeppelin/contracts-upgradeable/proxy/utils/Initializable.sol\":5013:5014  $ */\n      dup6\n        /* \"@openzeppelin/contracts-upgradeable/proxy/utils/Initializable.sol\":5013:5028  $._initializing */\n      0x00\n      add\n      0x08\n        /* \"@openzeppelin/contracts-upgradeable/proxy/utils/Initializable.sol\":5013:5035  $._initializing = true */\n      0x0100\n      exp\n      dup2\n      sload\n      dup2\n      0xff\n      mul\n      not\n      and\n      swap1\n      dup4\n      iszero\n      iszero\n      mul\n      or\n      swap1\n      sstore\n      pop\n        /* \"@openzeppelin/contracts-upgradeable/proxy/utils/Initializable.sol\":4979:5046  if (isTopLevelCall) {... */\n    tag_145:\n        /* \"contracts/sweetspot.sol\":1987:2008  __Ownable_init(owner) */\n      tag_147\n        /* \"contracts/sweetspot.sol\":2002:2007  owner */\n      dup7\n        /* \"contracts/sweetspot.sol\":1987:2001  __Ownable_init */\n      tag_148\n        /* \"contracts/sweetspot.sol\":1987:2008  __Ownable_init(owner) */\n      jump\t// in\n    tag_147:\n        /* \"contracts/sweetspot.sol\":2069:2076  _scorer */\n      dup7\n        /* \"contracts/sweetspot.sol\":2052:2058  scorer */\n      0x00\n      dup1\n        /* \"contracts/sweetspot.sol\":2052:2077  scorer = IScorer(_scorer) */\n      0x0100\n      exp\n      dup2\n      sload\n      dup2\n      0xffffffffffffffffffffffffffffffffffffffff\n      mul\n      not\n      and\n      swap1\n      dup4\n      0xffffffffffffffffffffffffffffffffffffffff\n      and\n      mul\n      or\n      swap1\n      sstore\n      pop\n        /* \"@openzeppelin/contracts-upgradeable/proxy/utils/Initializable.sol\":5070:5084  isTopLevelCall */\n      dup4\n        /* \"@openzeppelin/contracts-upgradeable/proxy/utils/Initializable.sol\":5066:5167  if (isTopLevelCall) {... */\n      iszero\n      tag_149\n      jumpi\n        /* \"@openzeppelin/contracts-upgradeable/proxy/utils/Initializable.sol\":5118:5123  false */\n      0x00\n        /* \"@openzeppelin/contracts-upgradeable/proxy/utils/Initializable.sol\":5100:5101  $ */\n      dup6\n        /* \"@openzeppelin/contracts-upgradeable/proxy/utils/Initializable.sol\":5100:5115  $._initializing */\n      0x00\n      add\n      0x08\n        /* \"@openzeppelin/contracts-upgradeable/proxy/utils/Initializable.sol\":5100:5123  $._initializing = false */\n      0x0100\n      exp\n      dup2\n      sload\n      dup2\n      0xff\n      mul\n      not\n      and\n      swap1\n      dup4\n      iszero\n      iszero\n      mul\n      or\n      swap1\n      sstore\n      pop\n        /* \"@openzeppelin/contracts-upgradeable/proxy/utils/Initializable.sol\":5142:5156  Initialized(1) */\n      0xc7f505b2f371ae2175ee4913f4499e1f2633a7b5936321eed1cdaeb6115181d2\n        /* \"@openzeppelin/contracts-upgradeable/proxy/utils/Initializable.sol\":5154:5155  1 */\n      0x01\n        /* \"@openzeppelin/contracts-upgradeable/proxy/utils/Initializable.sol\":5142:5156  Initialized(1) */\n      mload(0x40)\n      tag_150\n      swap2\n      swap1\n      tag_151\n      jump\t// in\n    tag_150:\n      mload(0x40)\n      dup1\n      swap2\n      sub\n      swap1\n      log1\n        /* \"@openzeppelin/contracts-upgradeable/proxy/utils/Initializable.sol\":5066:5167  if (isTopLevelCall) {... */\n    tag_149:\n        /* \"@openzeppelin/contracts-upgradeable/proxy/utils/Initializable.sol\":4092:5173  {... */\n      pop\n      pop\n      pop\n      pop\n      pop\n        /* \"contracts/sweetspot.sol\":1903:2085  function initialize(address _scorer, address owner) external initializer {... */\n      pop\n      pop\n      jump\t// out\n        /* \"@openzeppelin/contracts-upgradeable/access/OwnableUpgradeable.sol\":3155:3256  function renounceOwnership() public virtual onlyOwner {... */\n    tag_47:\n        /* \"@openzeppelin/contracts-upgradeable/access/OwnableUpgradeable.sol\":2334:2347  _checkOwner() */\n      tag_153\n        /* \"@openzeppelin/contracts-upgradeable/access/OwnableUpgradeable.sol\":2334:2345  _checkOwner */\n      tag_154\n        /* \"@openzeppelin/contracts-upgradeable/access/OwnableUpgradeable.sol\":2334:2347  _checkOwner() */\n      jump\t// in\n    tag_153:\n        /* \"@openzeppelin/contracts-upgradeable/access/OwnableUpgradeable.sol\":3219:3249  _transferOwnership(address(0)) */\n      tag_156\n        /* \"@openzeppelin/contracts-upgradeable/access/OwnableUpgradeable.sol\":3246:3247  0 */\n      0x00\n        /* \"@openzeppelin/contracts-upgradeable/access/OwnableUpgradeable.sol\":3219:3237  _transferOwnership */\n      tag_157\n        /* \"@openzeppelin/contracts-upgradeable/access/OwnableUpgradeable.sol\":3219:3249  _transferOwnership(address(0)) */\n      jump\t// in\n    tag_156:\n        /* \"@openzeppelin/contracts-upgradeable/access/OwnableUpgradeable.sol\":3155:3256  function renounceOwnership() public virtual onlyOwner {... */\n      jump\t// out\n        /* \"contracts/sweetspot.sol\":623:644  IScorer public scorer */\n    tag_50:\n      0x00\n      dup1\n      sload\n      swap1\n      0x0100\n      exp\n      swap1\n      div\n      0xffffffffffffffffffffffffffffffffffffffff\n      and\n      dup2\n      jump\t// out\n        /* \"contracts/sweetspot.sol\":886:911  Round public currentRound */\n    tag_55:\n      0x01\n      dup1\n      0x00\n      add\n      sload\n      swap1\n      dup1\n      0x01\n      add\n      sload\n      swap1\n      dup1\n      0x02\n      add\n      dup1\n      sload\n      tag_158\n      swap1\n      tag_159\n      jump\t// in\n    tag_158:\n      dup1\n      0x1f\n      add\n      0x20\n      dup1\n      swap2\n      div\n      mul\n      0x20\n      add\n      mload(0x40)\n      swap1\n      dup2\n      add\n      0x40\n      mstore\n      dup1\n      swap3\n      swap2\n      swap1\n      dup2\n      dup2\n      mstore\n      0x20\n      add\n      dup3\n      dup1\n      sload\n      tag_160\n      swap1\n      tag_159\n      jump\t// in\n    tag_160:\n      dup1\n      iszero\n      tag_161\n      jumpi\n      dup1\n      0x1f\n      lt\n      tag_162\n      jumpi\n      0x0100\n      dup1\n      dup4\n      sload\n      div\n      mul\n      dup4\n      mstore\n      swap2\n      0x20\n      add\n      swap2\n      jump(tag_161)\n    tag_162:\n      dup3\n      add\n      swap2\n      swap1\n      0x00\n      mstore\n      keccak256(0x00, 0x20)\n      swap1\n    tag_163:\n      dup2\n      sload\n      dup2\n      mstore\n      swap1\n      0x01\n      add\n      swap1\n      0x20\n      add\n      dup1\n      dup4\n      gt\n      tag_163\n      jumpi\n      dup3\n      swap1\n      sub\n      0x1f\n      and\n      dup3\n      add\n      swap2\n    tag_161:\n      pop\n      pop\n      pop\n      pop\n      pop\n      swap1\n      pop\n      dup4\n      jump\t// out\n        /* \"@openzeppelin/contracts-upgradeable/access/OwnableUpgradeable.sol\":2441:2585  function owner() public view virtual returns (address) {... */\n    tag_60:\n        /* \"@openzeppelin/contracts-upgradeable/access/OwnableUpgradeable.sol\":2487:2494  address */\n      0x00\n        /* \"@openzeppelin/contracts-upgradeable/access/OwnableUpgradeable.sol\":2506:2530  OwnableStorage storage $ */\n      dup1\n        /* \"@openzeppelin/contracts-upgradeable/access/OwnableUpgradeable.sol\":2533:2553  _getOwnableStorage() */\n      tag_165\n        /* \"@openzeppelin/contracts-upgradeable/access/OwnableUpgradeable.sol\":2533:2551  _getOwnableStorage */\n      tag_166\n        /* \"@openzeppelin/contracts-upgradeable/access/OwnableUpgradeable.sol\":2533:2553  _getOwnableStorage() */\n      jump\t// in\n    tag_165:\n        /* \"@openzeppelin/contracts-upgradeable/access/OwnableUpgradeable.sol\":2506:2553  OwnableStorage storage $ = _getOwnableStorage() */\n      swap1\n      pop\n        /* \"@openzeppelin/contracts-upgradeable/access/OwnableUpgradeable.sol\":2570:2571  $ */\n      dup1\n        /* \"@openzeppelin/contracts-upgradeable/access/OwnableUpgradeable.sol\":2570:2578  $._owner */\n      0x00\n      add\n      0x00\n      swap1\n      sload\n      swap1\n      0x0100\n      exp\n      swap1\n      div\n      0xffffffffffffffffffffffffffffffffffffffff\n      and\n        /* \"@openzeppelin/contracts-upgradeable/access/OwnableUpgradeable.sol\":2563:2578  return $._owner */\n      swap2\n      pop\n      pop\n        /* \"@openzeppelin/contracts-upgradeable/access/OwnableUpgradeable.sol\":2441:2585  function owner() public view virtual returns (address) {... */\n      swap1\n      jump\t// out\n        /* \"contracts/sweetspot.sol\":1100:1169  mapping(address => mapping(address => uint256)) public allowedAmounts */\n    tag_65:\n      mstore(0x20, 0x05)\n      dup2\n      0x00\n      mstore\n      mstore(0x20, keccak256(0x00, 0x40))\n      dup1\n      0x00\n      mstore\n      keccak256(0x00, 0x40)\n      0x00\n      swap2\n      pop\n      swap2\n      pop\n      pop\n      sload\n      dup2\n      jump\t// out\n        /* \"contracts/sweetspot.sol\":1002:1050  mapping(address => uint256) public totalBalances */\n    tag_70:\n      mstore(0x20, 0x04)\n      dup1\n      0x00\n      mstore\n      keccak256(0x00, 0x40)\n      0x00\n      swap2\n      pop\n      swap1\n      pop\n      sload\n      dup2\n      jump\t// out\n        /* \"contracts/sweetspot.sol\":3992:4194  function setAllowedAmount(address user, address token, uint256 amount) external onlyAdmin {... */\n    tag_76:\n        /* \"contracts/sweetspot.sol\":1651:1657  scorer */\n      0x00\n      dup1\n      sload\n      swap1\n      0x0100\n      exp\n      swap1\n      div\n      0xffffffffffffffffffffffffffffffffffffffff\n      and\n        /* \"contracts/sweetspot.sol\":1651:1665  scorer.isAdmin */\n      0xffffffffffffffffffffffffffffffffffffffff\n      and\n      0x24d7806c\n        /* \"contracts/sweetspot.sol\":1666:1676  msg.sender */\n      caller\n        /* \"contracts/sweetspot.sol\":1651:1677  scorer.isAdmin(msg.sender) */\n      mload(0x40)\n      dup3\n      0xffffffff\n      and\n      0xe0\n      shl\n      dup2\n      mstore\n      0x04\n      add\n      tag_168\n      swap2\n      swap1\n      tag_35\n      jump\t// in\n    tag_168:\n      0x20\n      mload(0x40)\n      dup1\n      dup4\n      sub\n      dup2\n      dup7\n      gas\n      staticcall\n      iszero\n      dup1\n      iszero\n      tag_170\n      jumpi\n      returndatasize\n      0x00\n      dup1\n      returndatacopy\n      revert(0x00, returndatasize)\n    tag_170:\n      pop\n      pop\n      pop\n      pop\n      mload(0x40)\n      returndatasize\n      not(0x1f)\n      0x1f\n      dup3\n      add\n      and\n      dup3\n      add\n      dup1\n      0x40\n      mstore\n      pop\n      dup2\n      add\n      swap1\n      tag_171\n      swap2\n      swap1\n      tag_172\n      jump\t// in\n    tag_171:\n        /* \"contracts/sweetspot.sol\":1643:1704  require(scorer.isAdmin(msg.sender), \"Caller is not an admin\") */\n      tag_173\n      jumpi\n      mload(0x40)\n      0x08c379a000000000000000000000000000000000000000000000000000000000\n      dup2\n      mstore\n      0x04\n      add\n      tag_174\n      swap1\n      tag_175\n      jump\t// in\n    tag_174:\n      mload(0x40)\n      dup1\n      swap2\n      sub\n      swap1\n      revert\n    tag_173:\n        /* \"contracts/sweetspot.sol\":4123:4129  amount */\n      dup1\n        /* \"contracts/sweetspot.sol\":4093:4107  allowedAmounts */\n      0x05\n        /* \"contracts/sweetspot.sol\":4093:4113  allowedAmounts[user] */\n      0x00\n        /* \"contracts/sweetspot.sol\":4108:4112  user */\n      dup6\n        /* \"contracts/sweetspot.sol\":4093:4113  allowedAmounts[user] */\n      0xffffffffffffffffffffffffffffffffffffffff\n      and\n      0xffffffffffffffffffffffffffffffffffffffff\n      and\n      dup2\n      mstore\n      0x20\n      add\n      swap1\n      dup2\n      mstore\n      0x20\n      add\n      0x00\n      keccak256\n        /* \"contracts/sweetspot.sol\":4093:4120  allowedAmounts[user][token] */\n      0x00\n        /* \"contracts/sweetspot.sol\":4114:4119  token */\n      dup5\n        /* \"contracts/sweetspot.sol\":4093:4120  allowedAmounts[user][token] */\n      0xffffffffffffffffffffffffffffffffffffffff\n      and\n      0xffffffffffffffffffffffffffffffffffffffff\n      and\n      dup2\n      mstore\n      0x20\n      add\n      swap1\n      dup2\n      mstore\n      0x20\n      add\n      0x00\n      keccak256\n        /* \"contracts/sweetspot.sol\":4093:4129  allowedAmounts[user][token] = amount */\n      dup2\n      swap1\n      sstore\n      pop\n        /* \"contracts/sweetspot.sol\":4172:4177  token */\n      dup2\n        /* \"contracts/sweetspot.sol\":4145:4186  AllowedAmountUpdated(user, token, amount) */\n      0xffffffffffffffffffffffffffffffffffffffff\n      and\n        /* \"contracts/sweetspot.sol\":4166:4170  user */\n      dup4\n        /* \"contracts/sweetspot.sol\":4145:4186  AllowedAmountUpdated(user, token, amount) */\n      0xffffffffffffffffffffffffffffffffffffffff\n      and\n      0x3d0601f3b0e52fd772f1fa71d91651b34b6a11144bea30d74e0f820019a04dc2\n        /* \"contracts/sweetspot.sol\":4179:4185  amount */\n      dup4\n        /* \"contracts/sweetspot.sol\":4145:4186  AllowedAmountUpdated(user, token, amount) */\n      mload(0x40)\n      tag_177\n      swap2\n      swap1\n      tag_25\n      jump\t// in\n    tag_177:\n      mload(0x40)\n      dup1\n      swap2\n      sub\n      swap1\n      log3\n        /* \"contracts/sweetspot.sol\":3992:4194  function setAllowedAmount(address user, address token, uint256 amount) external onlyAdmin {... */\n      pop\n      pop\n      pop\n      jump\t// out\n        /* \"contracts/sweetspot.sol\":4443:4721  function setRound(uint256 start, uint256 end, string memory metadataURI) external onlyAdmin {... */\n    tag_81:\n        /* \"contracts/sweetspot.sol\":1651:1657  scorer */\n      0x00\n      dup1\n      sload\n      swap1\n      0x0100\n      exp\n      swap1\n      div\n      0xffffffffffffffffffffffffffffffffffffffff\n      and\n        /* \"contracts/sweetspot.sol\":1651:1665  scorer.isAdmin */\n      0xffffffffffffffffffffffffffffffffffffffff\n      and\n      0x24d7806c\n        /* \"contracts/sweetspot.sol\":1666:1676  msg.sender */\n      caller\n        /* \"contracts/sweetspot.sol\":1651:1677  scorer.isAdmin(msg.sender) */\n      mload(0x40)\n      dup3\n      0xffffffff\n      and\n      0xe0\n      shl\n      dup2\n      mstore\n      0x04\n      add\n      tag_179\n      swap2\n      swap1\n      tag_35\n      jump\t// in\n    tag_179:\n      0x20\n      mload(0x40)\n      dup1\n      dup4\n      sub\n      dup2\n      dup7\n      gas\n      staticcall\n      iszero\n      dup1\n      iszero\n      tag_181\n      jumpi\n      returndatasize\n      0x00\n      dup1\n      returndatacopy\n      revert(0x00, returndatasize)\n    tag_181:\n      pop\n      pop\n      pop\n      pop\n      mload(0x40)\n      returndatasize\n      not(0x1f)\n      0x1f\n      dup3\n      add\n      and\n      dup3\n      add\n      dup1\n      0x40\n      mstore\n      pop\n      dup2\n      add\n      swap1\n      tag_182\n      swap2\n      swap1\n      tag_172\n      jump\t// in\n    tag_182:\n        /* \"contracts/sweetspot.sol\":1643:1704  require(scorer.isAdmin(msg.sender), \"Caller is not an admin\") */\n      tag_183\n      jumpi\n      mload(0x40)\n      0x08c379a000000000000000000000000000000000000000000000000000000000\n      dup2\n      mstore\n      0x04\n      add\n      tag_184\n      swap1\n      tag_175\n      jump\t// in\n    tag_184:\n      mload(0x40)\n      dup1\n      swap2\n      sub\n      swap1\n      revert\n    tag_183:\n        /* \"contracts/sweetspot.sol\":4562:4565  end */\n      dup2\n        /* \"contracts/sweetspot.sol\":4554:4559  start */\n      dup4\n        /* \"contracts/sweetspot.sol\":4554:4565  start < end */\n      lt\n        /* \"contracts/sweetspot.sol\":4546:4604  require(start < end, \"Start time must be before end time\") */\n      tag_186\n      jumpi\n      mload(0x40)\n      0x08c379a000000000000000000000000000000000000000000000000000000000\n      dup2\n      mstore\n      0x04\n      add\n      tag_187\n      swap1\n      tag_188\n      jump\t// in\n    tag_187:\n      mload(0x40)\n      dup1\n      swap2\n      sub\n      swap1\n      revert\n    tag_186:\n        /* \"contracts/sweetspot.sol\":4630:4660  Round(start, end, metadataURI) */\n      mload(0x40)\n      dup1\n      0x60\n      add\n      0x40\n      mstore\n      dup1\n        /* \"contracts/sweetspot.sol\":4636:4641  start */\n      dup5\n        /* \"contracts/sweetspot.sol\":4630:4660  Round(start, end, metadataURI) */\n      dup2\n      mstore\n      0x20\n      add\n        /* \"contracts/sweetspot.sol\":4643:4646  end */\n      dup4\n        /* \"contracts/sweetspot.sol\":4630:4660  Round(start, end, metadataURI) */\n      dup2\n      mstore\n      0x20\n      add\n        /* \"contracts/sweetspot.sol\":4648:4659  metadataURI */\n      dup3\n        /* \"contracts/sweetspot.sol\":4630:4660  Round(start, end, metadataURI) */\n      dup2\n      mstore\n      pop\n        /* \"contracts/sweetspot.sol\":4615:4627  currentRound */\n      0x01\n        /* \"contracts/sweetspot.sol\":4615:4660  currentRound = Round(start, end, metadataURI) */\n      0x00\n      dup3\n      add\n      mload\n      dup2\n      0x00\n      add\n      sstore\n      0x20\n      dup3\n      add\n      mload\n      dup2\n      0x01\n      add\n      sstore\n      0x40\n      dup3\n      add\n      mload\n      dup2\n      0x02\n      add\n      swap1\n      dup2\n      tag_189\n      swap2\n      swap1\n      tag_190\n      jump\t// in\n    tag_189:\n      pop\n      swap1\n      pop\n      pop\n        /* \"contracts/sweetspot.sol\":4676:4713  RoundUpdated(start, end, metadataURI) */\n      0x09e6db48f22357e6dce2bbff89db8ff25f0012a08186d6ea72e2343fdc112e13\n        /* \"contracts/sweetspot.sol\":4689:4694  start */\n      dup4\n        /* \"contracts/sweetspot.sol\":4696:4699  end */\n      dup4\n        /* \"contracts/sweetspot.sol\":4701:4712  metadataURI */\n      dup4\n        /* \"contracts/sweetspot.sol\":4676:4713  RoundUpdated(start, end, metadataURI) */\n      mload(0x40)\n      tag_191\n      swap4\n      swap3\n      swap2\n      swap1\n      tag_57\n      jump\t// in\n    tag_191:\n      mload(0x40)\n      dup1\n      swap2\n      sub\n      swap1\n      log1\n        /* \"contracts/sweetspot.sol\":4443:4721  function setRound(uint256 start, uint256 end, string memory metadataURI) external onlyAdmin {... */\n      pop\n      pop\n      pop\n      jump\t// out\n        /* \"@openzeppelin/contracts-upgradeable/access/OwnableUpgradeable.sol\":3405:3620  function transferOwnership(address newOwner) public virtual onlyOwner {... */\n    tag_85:\n        /* \"@openzeppelin/contracts-upgradeable/access/OwnableUpgradeable.sol\":2334:2347  _checkOwner() */\n      tag_193\n        /* \"@openzeppelin/contracts-upgradeable/access/OwnableUpgradeable.sol\":2334:2345  _checkOwner */\n      tag_154\n        /* \"@openzeppelin/contracts-upgradeable/access/OwnableUpgradeable.sol\":2334:2347  _checkOwner() */\n      jump\t// in\n    tag_193:\n        /* \"@openzeppelin/contracts-upgradeable/access/OwnableUpgradeable.sol\":3509:3510  0 */\n      0x00\n        /* \"@openzeppelin/contracts-upgradeable/access/OwnableUpgradeable.sol\":3489:3511  newOwner == address(0) */\n      0xffffffffffffffffffffffffffffffffffffffff\n      and\n        /* \"@openzeppelin/contracts-upgradeable/access/OwnableUpgradeable.sol\":3489:3497  newOwner */\n      dup2\n        /* \"@openzeppelin/contracts-upgradeable/access/OwnableUpgradeable.sol\":3489:3511  newOwner == address(0) */\n      0xffffffffffffffffffffffffffffffffffffffff\n      and\n      sub\n        /* \"@openzeppelin/contracts-upgradeable/access/OwnableUpgradeable.sol\":3485:3576  if (newOwner == address(0)) {... */\n      tag_195\n      jumpi\n        /* \"@openzeppelin/contracts-upgradeable/access/OwnableUpgradeable.sol\":3562:3563  0 */\n      0x00\n        /* \"@openzeppelin/contracts-upgradeable/access/OwnableUpgradeable.sol\":3534:3565  OwnableInvalidOwner(address(0)) */\n      mload(0x40)\n      0x1e4fbdf700000000000000000000000000000000000000000000000000000000\n      dup2\n      mstore\n      0x04\n      add\n      tag_196\n      swap2\n      swap1\n      tag_35\n      jump\t// in\n    tag_196:\n      mload(0x40)\n      dup1\n      swap2\n      sub\n      swap1\n      revert\n        /* \"@openzeppelin/contracts-upgradeable/access/OwnableUpgradeable.sol\":3485:3576  if (newOwner == address(0)) {... */\n    tag_195:\n        /* \"@openzeppelin/contracts-upgradeable/access/OwnableUpgradeable.sol\":3585:3613  _transferOwnership(newOwner) */\n      tag_197\n        /* \"@openzeppelin/contracts-upgradeable/access/OwnableUpgradeable.sol\":3604:3612  newOwner */\n      dup2\n        /* \"@openzeppelin/contracts-upgradeable/access/OwnableUpgradeable.sol\":3585:3603  _transferOwnership */\n      tag_157\n        /* \"@openzeppelin/contracts-upgradeable/access/OwnableUpgradeable.sol\":3585:3613  _transferOwnership(newOwner) */\n      jump\t// in\n    tag_197:\n        /* \"@openzeppelin/contracts-upgradeable/access/OwnableUpgradeable.sol\":3405:3620  function transferOwnership(address newOwner) public virtual onlyOwner {... */\n      pop\n      jump\t// out\n        /* \"contracts/sweetspot.sol\":4926:5483  function withdraw(address token, uint256 amount) external onlyOwner {... */\n    tag_89:\n        /* \"@openzeppelin/contracts-upgradeable/access/OwnableUpgradeable.sol\":2334:2347  _checkOwner() */\n      tag_199\n        /* \"@openzeppelin/contracts-upgradeable/access/OwnableUpgradeable.sol\":2334:2345  _checkOwner */\n      tag_154\n        /* \"@openzeppelin/contracts-upgradeable/access/OwnableUpgradeable.sol\":2334:2347  _checkOwner() */\n      jump\t// in\n    tag_199:\n        /* \"contracts/sweetspot.sol\":5022:5023  0 */\n      0x00\n        /* \"contracts/sweetspot.sol\":5013:5019  amount */\n      dup2\n        /* \"contracts/sweetspot.sol\":5013:5023  amount > 0 */\n      gt\n        /* \"contracts/sweetspot.sol\":5005:5071  require(amount > 0, \"Withdrawal amount must be greater than zero\") */\n      tag_201\n      jumpi\n      mload(0x40)\n      0x08c379a000000000000000000000000000000000000000000000000000000000\n      dup2\n      mstore\n      0x04\n      add\n      tag_202\n      swap1\n      tag_203\n      jump\t// in\n    tag_202:\n      mload(0x40)\n      dup1\n      swap2\n      sub\n      swap1\n      revert\n    tag_201:\n        /* \"contracts/sweetspot.sol\":5114:5120  amount */\n      dup1\n        /* \"contracts/sweetspot.sol\":5090:5103  totalBalances */\n      0x04\n        /* \"contracts/sweetspot.sol\":5090:5110  totalBalances[token] */\n      0x00\n        /* \"contracts/sweetspot.sol\":5104:5109  token */\n      dup5\n        /* \"contracts/sweetspot.sol\":5090:5110  totalBalances[token] */\n      0xffffffffffffffffffffffffffffffffffffffff\n      and\n      0xffffffffffffffffffffffffffffffffffffffff\n      and\n      dup2\n      mstore\n      0x20\n      add\n      swap1\n      dup2\n      mstore\n      0x20\n      add\n      0x00\n      keccak256\n      sload\n        /* \"contracts/sweetspot.sol\":5090:5120  totalBalances[token] >= amount */\n      lt\n      iszero\n        /* \"contracts/sweetspot.sol\":5082:5143  require(totalBalances[token] >= amount, \"Insufficient funds\") */\n      tag_204\n      jumpi\n      mload(0x40)\n      0x08c379a000000000000000000000000000000000000000000000000000000000\n      dup2\n      mstore\n      0x04\n      add\n      tag_205\n      swap1\n      tag_206\n      jump\t// in\n    tag_205:\n      mload(0x40)\n      dup1\n      swap2\n      sub\n      swap1\n      revert\n    tag_204:\n        /* \"contracts/sweetspot.sol\":5180:5186  amount */\n      dup1\n        /* \"contracts/sweetspot.sol\":5156:5169  totalBalances */\n      0x04\n        /* \"contracts/sweetspot.sol\":5156:5176  totalBalances[token] */\n      0x00\n        /* \"contracts/sweetspot.sol\":5170:5175  token */\n      dup5\n        /* \"contracts/sweetspot.sol\":5156:5176  totalBalances[token] */\n      0xffffffffffffffffffffffffffffffffffffffff\n      and\n      0xffffffffffffffffffffffffffffffffffffffff\n      and\n      dup2\n      mstore\n      0x20\n      add\n      swap1\n      dup2\n      mstore\n      0x20\n      add\n      0x00\n      keccak256\n      0x00\n        /* \"contracts/sweetspot.sol\":5156:5186  totalBalances[token] -= amount */\n      dup3\n      dup3\n      sload\n      tag_207\n      swap2\n      swap1\n      tag_111\n      jump\t// in\n    tag_207:\n      swap3\n      pop\n      pop\n      dup2\n      swap1\n      sstore\n      pop\n        /* \"contracts/sweetspot.sol\":574:616  0xF194afDf50B03e69Bd7D057c1Aa9e10c9954E4C9 */\n      0xf194afdf50b03e69bd7d057c1aa9e10c9954e4c9\n        /* \"contracts/sweetspot.sol\":5203:5217  token == ETHER */\n      0xffffffffffffffffffffffffffffffffffffffff\n      and\n        /* \"contracts/sweetspot.sol\":5203:5208  token */\n      dup3\n        /* \"contracts/sweetspot.sol\":5203:5217  token == ETHER */\n      0xffffffffffffffffffffffffffffffffffffffff\n      and\n      sub\n        /* \"contracts/sweetspot.sol\":5199:5428  if (token == ETHER) {... */\n      tag_208\n      jumpi\n        /* \"contracts/sweetspot.sol\":5235:5247  bool success */\n      0x00\n        /* \"contracts/sweetspot.sol\":5253:5260  owner() */\n      tag_209\n        /* \"contracts/sweetspot.sol\":5253:5258  owner */\n      tag_60\n        /* \"contracts/sweetspot.sol\":5253:5260  owner() */\n      jump\t// in\n    tag_209:\n        /* \"contracts/sweetspot.sol\":5253:5265  owner().call */\n      0xffffffffffffffffffffffffffffffffffffffff\n      and\n        /* \"contracts/sweetspot.sol\":5273:5279  amount */\n      dup3\n        /* \"contracts/sweetspot.sol\":5253:5284  owner().call{value: amount}(\"\") */\n      mload(0x40)\n      tag_210\n      swap1\n      tag_114\n      jump\t// in\n    tag_210:\n      0x00\n      mload(0x40)\n      dup1\n      dup4\n      sub\n      dup2\n      dup6\n      dup8\n      gas\n      call\n      swap3\n      pop\n      pop\n      pop\n      returndatasize\n      dup1\n      0x00\n      dup2\n      eq\n      tag_213\n      jumpi\n      mload(0x40)\n      swap2\n      pop\n      and(add(returndatasize, 0x3f), not(0x1f))\n      dup3\n      add\n      0x40\n      mstore\n      returndatasize\n      dup3\n      mstore\n      returndatasize\n      0x00\n      0x20\n      dup5\n      add\n      returndatacopy\n      jump(tag_212)\n    tag_213:\n      0x60\n      swap2\n      pop\n    tag_212:\n      pop\n        /* \"contracts/sweetspot.sol\":5234:5284  (bool success, ) = owner().call{value: amount}(\"\") */\n      pop\n      swap1\n      pop\n        /* \"contracts/sweetspot.sol\":5307:5314  success */\n      dup1\n        /* \"contracts/sweetspot.sol\":5299:5340  require(success, \"Ether transfer failed\") */\n      tag_214\n      jumpi\n      mload(0x40)\n      0x08c379a000000000000000000000000000000000000000000000000000000000\n      dup2\n      mstore\n      0x04\n      add\n      tag_215\n      swap1\n      tag_120\n      jump\t// in\n    tag_215:\n      mload(0x40)\n      dup1\n      swap2\n      sub\n      swap1\n      revert\n    tag_214:\n        /* \"contracts/sweetspot.sol\":5219:5352  {... */\n      pop\n        /* \"contracts/sweetspot.sol\":5199:5428  if (token == ETHER) {... */\n      jump(tag_216)\n    tag_208:\n        /* \"contracts/sweetspot.sol\":5373:5416  IERC20(token).safeTransfer(owner(), amount) */\n      tag_217\n        /* \"contracts/sweetspot.sol\":5400:5407  owner() */\n      tag_218\n        /* \"contracts/sweetspot.sol\":5400:5405  owner */\n      tag_60\n        /* \"contracts/sweetspot.sol\":5400:5407  owner() */\n      jump\t// in\n    tag_218:\n        /* \"contracts/sweetspot.sol\":5409:5415  amount */\n      dup3\n        /* \"contracts/sweetspot.sol\":5380:5385  token */\n      dup5\n        /* \"contracts/sweetspot.sol\":5373:5399  IERC20(token).safeTransfer */\n      0xffffffffffffffffffffffffffffffffffffffff\n      and\n      tag_123\n      swap1\n        /* \"contracts/sweetspot.sol\":5373:5416  IERC20(token).safeTransfer(owner(), amount) */\n      swap3\n      swap2\n      swap1\n      0xffffffff\n      and\n      jump\t// in\n    tag_217:\n        /* \"contracts/sweetspot.sol\":5199:5428  if (token == ETHER) {... */\n    tag_216:\n        /* \"contracts/sweetspot.sol\":5461:5466  token */\n      dup2\n        /* \"contracts/sweetspot.sol\":5443:5475  Withdraw(owner(), token, amount) */\n      0xffffffffffffffffffffffffffffffffffffffff\n      and\n        /* \"contracts/sweetspot.sol\":5452:5459  owner() */\n      tag_219\n        /* \"contracts/sweetspot.sol\":5452:5457  owner */\n      tag_60\n        /* \"contracts/sweetspot.sol\":5452:5459  owner() */\n      jump\t// in\n    tag_219:\n        /* \"contracts/sweetspot.sol\":5443:5475  Withdraw(owner(), token, amount) */\n      0xffffffffffffffffffffffffffffffffffffffff\n      and\n      0x9b1bfa7fa9ee420a16e124f794c35ac9f90472acc99140eb2f6447c714cad8eb\n        /* \"contracts/sweetspot.sol\":5468:5474  amount */\n      dup4\n        /* \"contracts/sweetspot.sol\":5443:5475  Withdraw(owner(), token, amount) */\n      mload(0x40)\n      tag_220\n      swap2\n      swap1\n      tag_25\n      jump\t// in\n    tag_220:\n      mload(0x40)\n      dup1\n      swap2\n      sub\n      swap1\n      log3\n        /* \"contracts/sweetspot.sol\":4926:5483  function withdraw(address token, uint256 amount) external onlyOwner {... */\n      pop\n      pop\n      jump\t// out\n        /* \"@openzeppelin/contracts/token/ERC20/utils/SafeERC20.sol\":1271:1431  function safeTransfer(IERC20 token, address to, uint256 value) internal {... */\n    tag_123:\n        /* \"@openzeppelin/contracts/token/ERC20/utils/SafeERC20.sol\":1353:1424  _callOptionalReturn(token, abi.encodeCall(token.transfer, (to, value))) */\n      tag_222\n        /* \"@openzeppelin/contracts/token/ERC20/utils/SafeERC20.sol\":1373:1378  token */\n      dup4\n        /* \"@openzeppelin/contracts/token/ERC20/utils/SafeERC20.sol\":1395:1400  token */\n      dup5\n        /* \"@openzeppelin/contracts/token/ERC20/utils/SafeERC20.sol\":1395:1409  token.transfer */\n      0xffffffffffffffffffffffffffffffffffffffff\n      and\n      0xa9059cbb\n        /* \"@openzeppelin/contracts/token/ERC20/utils/SafeERC20.sol\":1412:1414  to */\n      dup6\n        /* \"@openzeppelin/contracts/token/ERC20/utils/SafeERC20.sol\":1416:1421  value */\n      dup6\n        /* \"@openzeppelin/contracts/token/ERC20/utils/SafeERC20.sol\":1380:1423  abi.encodeCall(token.transfer, (to, value)) */\n      add(0x24, mload(0x40))\n      tag_223\n      swap3\n      swap2\n      swap1\n      tag_224\n      jump\t// in\n    tag_223:\n      mload(0x40)\n      0x20\n      dup2\n      dup4\n      sub\n      sub\n      dup2\n      mstore\n      swap1\n      0x40\n      mstore\n      swap2\n      pop\n      0xe0\n      shl\n      0x20\n      dup3\n      add\n      dup1\n      mload\n      0xffffffffffffffffffffffffffffffffffffffffffffffffffffffff\n      dup4\n      dup2\n      dup4\n      and\n      or\n      dup4\n      mstore\n      pop\n      pop\n      pop\n      pop\n        /* \"@openzeppelin/contracts/token/ERC20/utils/SafeERC20.sol\":1353:1372  _callOptionalReturn */\n      tag_225\n        /* \"@openzeppelin/contracts/token/ERC20/utils/SafeERC20.sol\":1353:1424  _callOptionalReturn(token, abi.encodeCall(token.transfer, (to, value))) */\n      jump\t// in\n    tag_222:\n        /* \"@openzeppelin/contracts/token/ERC20/utils/SafeERC20.sol\":1271:1431  function safeTransfer(IERC20 token, address to, uint256 value) internal {... */\n      pop\n      pop\n      pop\n      jump\t// out\n        /* \"@openzeppelin/contracts/token/ERC20/utils/SafeERC20.sol\":1670:1858  function safeTransferFrom(IERC20 token, address from, address to, uint256 value) internal {... */\n    tag_135:\n        /* \"@openzeppelin/contracts/token/ERC20/utils/SafeERC20.sol\":1770:1851  _callOptionalReturn(token, abi.encodeCall(token.transferFrom, (from, to, value))) */\n      tag_227\n        /* \"@openzeppelin/contracts/token/ERC20/utils/SafeERC20.sol\":1790:1795  token */\n      dup5\n        /* \"@openzeppelin/contracts/token/ERC20/utils/SafeERC20.sol\":1812:1817  token */\n      dup6\n        /* \"@openzeppelin/contracts/token/ERC20/utils/SafeERC20.sol\":1812:1830  token.transferFrom */\n      0xffffffffffffffffffffffffffffffffffffffff\n      and\n      0x23b872dd\n        /* \"@openzeppelin/contracts/token/ERC20/utils/SafeERC20.sol\":1833:1837  from */\n      dup7\n        /* \"@openzeppelin/contracts/token/ERC20/utils/SafeERC20.sol\":1839:1841  to */\n      dup7\n        /* \"@openzeppelin/contracts/token/ERC20/utils/SafeERC20.sol\":1843:1848  value */\n      dup7\n        /* \"@openzeppelin/contracts/token/ERC20/utils/SafeERC20.sol\":1797:1850  abi.encodeCall(token.transferFrom, (from, to, value)) */\n      add(0x24, mload(0x40))\n      tag_228\n      swap4\n      swap3\n      swap2\n      swap1\n      tag_229\n      jump\t// in\n    tag_228:\n      mload(0x40)\n      0x20\n      dup2\n      dup4\n      sub\n      sub\n      dup2\n      mstore\n      swap1\n      0x40\n      mstore\n      swap2\n      pop\n      0xe0\n      shl\n      0x20\n      dup3\n      add\n      dup1\n      mload\n      0xffffffffffffffffffffffffffffffffffffffffffffffffffffffff\n      dup4\n      dup2\n      dup4\n      and\n      or\n      dup4\n      mstore\n      pop\n      pop\n      pop\n      pop\n        /* \"@openzeppelin/contracts/token/ERC20/utils/SafeERC20.sol\":1770:1789  _callOptionalReturn */\n      tag_225\n        /* \"@openzeppelin/contracts/token/ERC20/utils/SafeERC20.sol\":1770:1851  _callOptionalReturn(token, abi.encodeCall(token.transferFrom, (from, to, value))) */\n      jump\t// in\n    tag_227:\n        /* \"@openzeppelin/contracts/token/ERC20/utils/SafeERC20.sol\":1670:1858  function safeTransferFrom(IERC20 token, address from, address to, uint256 value) internal {... */\n      pop\n      pop\n      pop\n      pop\n      jump\t// out\n        /* \"@openzeppelin/contracts-upgradeable/proxy/utils/Initializable.sol\":8737:8907  function _getInitializableStorage() private pure returns (InitializableStorage storage $) {... */\n    tag_140:\n        /* \"@openzeppelin/contracts-upgradeable/proxy/utils/Initializable.sol\":8795:8825  InitializableStorage storage $ */\n      0x00\n        /* \"@openzeppelin/contracts-upgradeable/proxy/utils/Initializable.sol\":8870:8891  INITIALIZABLE_STORAGE */\n      0xf0c57e16840df040f15088dc2f81fe391c3923bec73e23a9662efc9c229c6a00\n        /* \"@openzeppelin/contracts-upgradeable/proxy/utils/Initializable.sol\":8860:8891  $.slot := INITIALIZABLE_STORAGE */\n      swap1\n      pop\n        /* \"@openzeppelin/contracts-upgradeable/proxy/utils/Initializable.sol\":8737:8907  function _getInitializableStorage() private pure returns (InitializableStorage storage $) {... */\n      swap1\n      jump\t// out\n        /* \"@openzeppelin/contracts-upgradeable/access/OwnableUpgradeable.sol\":1847:1974  function __Ownable_init(address initialOwner) internal onlyInitializing {... */\n    tag_148:\n        /* \"@openzeppelin/contracts-upgradeable/proxy/utils/Initializable.sol\":6931:6951  _checkInitializing() */\n      tag_232\n        /* \"@openzeppelin/contracts-upgradeable/proxy/utils/Initializable.sol\":6931:6949  _checkInitializing */\n      tag_233\n        /* \"@openzeppelin/contracts-upgradeable/proxy/utils/Initializable.sol\":6931:6951  _checkInitializing() */\n      jump\t// in\n    tag_232:\n        /* \"@openzeppelin/contracts-upgradeable/access/OwnableUpgradeable.sol\":1929:1967  __Ownable_init_unchained(initialOwner) */\n      tag_235\n        /* \"@openzeppelin/contracts-upgradeable/access/OwnableUpgradeable.sol\":1954:1966  initialOwner */\n      dup2\n        /* \"@openzeppelin/contracts-upgradeable/access/OwnableUpgradeable.sol\":1929:1953  __Ownable_init_unchained */\n      tag_236\n        /* \"@openzeppelin/contracts-upgradeable/access/OwnableUpgradeable.sol\":1929:1967  __Ownable_init_unchained(initialOwner) */\n      jump\t// in\n    tag_235:\n        /* \"@openzeppelin/contracts-upgradeable/access/OwnableUpgradeable.sol\":1847:1974  function __Ownable_init(address initialOwner) internal onlyInitializing {... */\n      pop\n      jump\t// out\n        /* \"@openzeppelin/contracts-upgradeable/access/OwnableUpgradeable.sol\":2658:2820  function _checkOwner() internal view virtual {... */\n    tag_154:\n        /* \"@openzeppelin/contracts-upgradeable/access/OwnableUpgradeable.sol\":2728:2740  _msgSender() */\n      tag_238\n        /* \"@openzeppelin/contracts-upgradeable/access/OwnableUpgradeable.sol\":2728:2738  _msgSender */\n      tag_239\n        /* \"@openzeppelin/contracts-upgradeable/access/OwnableUpgradeable.sol\":2728:2740  _msgSender() */\n      jump\t// in\n    tag_238:\n        /* \"@openzeppelin/contracts-upgradeable/access/OwnableUpgradeable.sol\":2717:2740  owner() != _msgSender() */\n      0xffffffffffffffffffffffffffffffffffffffff\n      and\n        /* \"@openzeppelin/contracts-upgradeable/access/OwnableUpgradeable.sol\":2717:2724  owner() */\n      tag_240\n        /* \"@openzeppelin/contracts-upgradeable/access/OwnableUpgradeable.sol\":2717:2722  owner */\n      tag_60\n        /* \"@openzeppelin/contracts-upgradeable/access/OwnableUpgradeable.sol\":2717:2724  owner() */\n      jump\t// in\n    tag_240:\n        /* \"@openzeppelin/contracts-upgradeable/access/OwnableUpgradeable.sol\":2717:2740  owner() != _msgSender() */\n      0xffffffffffffffffffffffffffffffffffffffff\n      and\n      eq\n        /* \"@openzeppelin/contracts-upgradeable/access/OwnableUpgradeable.sol\":2713:2814  if (owner() != _msgSender()) {... */\n      tag_241\n      jumpi\n        /* \"@openzeppelin/contracts-upgradeable/access/OwnableUpgradeable.sol\":2790:2802  _msgSender() */\n      tag_242\n        /* \"@openzeppelin/contracts-upgradeable/access/OwnableUpgradeable.sol\":2790:2800  _msgSender */\n      tag_239\n        /* \"@openzeppelin/contracts-upgradeable/access/OwnableUpgradeable.sol\":2790:2802  _msgSender() */\n      jump\t// in\n    tag_242:\n        /* \"@openzeppelin/contracts-upgradeable/access/OwnableUpgradeable.sol\":2763:2803  OwnableUnauthorizedAccount(_msgSender()) */\n      mload(0x40)\n      0x118cdaa700000000000000000000000000000000000000000000000000000000\n      dup2\n      mstore\n      0x04\n      add\n      tag_243\n      swap2\n      swap1\n      tag_35\n      jump\t// in\n    tag_243:\n      mload(0x40)\n      dup1\n      swap2\n      sub\n      swap1\n      revert\n        /* \"@openzeppelin/contracts-upgradeable/access/OwnableUpgradeable.sol\":2713:2814  if (owner() != _msgSender()) {... */\n    tag_241:\n        /* \"@openzeppelin/contracts-upgradeable/access/OwnableUpgradeable.sol\":2658:2820  function _checkOwner() internal view virtual {... */\n      jump\t// out\n        /* \"@openzeppelin/contracts-upgradeable/access/OwnableUpgradeable.sol\":3774:4022  function _transferOwnership(address newOwner) internal virtual {... */\n    tag_157:\n        /* \"@openzeppelin/contracts-upgradeable/access/OwnableUpgradeable.sol\":3847:3871  OwnableStorage storage $ */\n      0x00\n        /* \"@openzeppelin/contracts-upgradeable/access/OwnableUpgradeable.sol\":3874:3894  _getOwnableStorage() */\n      tag_245\n        /* \"@openzeppelin/contracts-upgradeable/access/OwnableUpgradeable.sol\":3874:3892  _getOwnableStorage */\n      tag_166\n        /* \"@openzeppelin/contracts-upgradeable/access/OwnableUpgradeable.sol\":3874:3894  _getOwnableStorage() */\n      jump\t// in\n    tag_245:\n        /* \"@openzeppelin/contracts-upgradeable/access/OwnableUpgradeable.sol\":3847:3894  OwnableStorage storage $ = _getOwnableStorage() */\n      swap1\n      pop\n        /* \"@openzeppelin/contracts-upgradeable/access/OwnableUpgradeable.sol\":3904:3920  address oldOwner */\n      0x00\n        /* \"@openzeppelin/contracts-upgradeable/access/OwnableUpgradeable.sol\":3923:3924  $ */\n      dup2\n        /* \"@openzeppelin/contracts-upgradeable/access/OwnableUpgradeable.sol\":3923:3931  $._owner */\n      0x00\n      add\n      0x00\n      swap1\n      sload\n      swap1\n      0x0100\n      exp\n      swap1\n      div\n      0xffffffffffffffffffffffffffffffffffffffff\n      and\n        /* \"@openzeppelin/contracts-upgradeable/access/OwnableUpgradeable.sol\":3904:3931  address oldOwner = $._owner */\n      swap1\n      pop\n        /* \"@openzeppelin/contracts-upgradeable/access/OwnableUpgradeable.sol\":3952:3960  newOwner */\n      dup3\n        /* \"@openzeppelin/contracts-upgradeable/access/OwnableUpgradeable.sol\":3941:3942  $ */\n      dup3\n        /* \"@openzeppelin/contracts-upgradeable/access/OwnableUpgradeable.sol\":3941:3949  $._owner */\n      0x00\n      add\n      0x00\n        /* \"@openzeppelin/contracts-upgradeable/access/OwnableUpgradeable.sol\":3941:3960  $._owner = newOwner */\n      0x0100\n      exp\n      dup2\n      sload\n      dup2\n      0xffffffffffffffffffffffffffffffffffffffff\n      mul\n      not\n      and\n      swap1\n      dup4\n      0xffffffffffffffffffffffffffffffffffffffff\n      and\n      mul\n      or\n      swap1\n      sstore\n      pop\n        /* \"@openzeppelin/contracts-upgradeable/access/OwnableUpgradeable.sol\":4006:4014  newOwner */\n      dup3\n        /* \"@openzeppelin/contracts-upgradeable/access/OwnableUpgradeable.sol\":3975:4015  OwnershipTransferred(oldOwner, newOwner) */\n      0xffffffffffffffffffffffffffffffffffffffff\n      and\n        /* \"@openzeppelin/contracts-upgradeable/access/OwnableUpgradeable.sol\":3996:4004  oldOwner */\n      dup2\n        /* \"@openzeppelin/contracts-upgradeable/access/OwnableUpgradeable.sol\":3975:4015  OwnershipTransferred(oldOwner, newOwner) */\n      0xffffffffffffffffffffffffffffffffffffffff\n      and\n      0x8be0079c531659141344cd1fd0a4f28419497f9722a3daafe3b4186f6b6457e0\n      mload(0x40)\n      mload(0x40)\n      dup1\n      swap2\n      sub\n      swap1\n      log3\n        /* \"@openzeppelin/contracts-upgradeable/access/OwnableUpgradeable.sol\":3837:4022  {... */\n      pop\n      pop\n        /* \"@openzeppelin/contracts-upgradeable/access/OwnableUpgradeable.sol\":3774:4022  function _transferOwnership(address newOwner) internal virtual {... */\n      pop\n      jump\t// out\n        /* \"@openzeppelin/contracts-upgradeable/access/OwnableUpgradeable.sol\":1192:1351  function _getOwnableStorage() private pure returns (OwnableStorage storage $) {... */\n    tag_166:\n        /* \"@openzeppelin/contracts-upgradeable/access/OwnableUpgradeable.sol\":1244:1268  OwnableStorage storage $ */\n      0x00\n        /* \"@openzeppelin/contracts-upgradeable/access/OwnableUpgradeable.sol\":1313:1335  OwnableStorageLocation */\n      0x9016d09d72d40fdae2fd8ceac6b6234c7706214fd39c1cd1e609a0528c199300\n        /* \"@openzeppelin/contracts-upgradeable/access/OwnableUpgradeable.sol\":1303:1335  $.slot := OwnableStorageLocation */\n      swap1\n      pop\n        /* \"@openzeppelin/contracts-upgradeable/access/OwnableUpgradeable.sol\":1192:1351  function _getOwnableStorage() private pure returns (OwnableStorage storage $) {... */\n      swap1\n      jump\t// out\n        /* \"@openzeppelin/contracts/token/ERC20/utils/SafeERC20.sol\":7738:8458  function _callOptionalReturn(IERC20 token, bytes memory data) private {... */\n    tag_225:\n        /* \"@openzeppelin/contracts/token/ERC20/utils/SafeERC20.sol\":7818:7836  uint256 returnSize */\n      0x00\n        /* \"@openzeppelin/contracts/token/ERC20/utils/SafeERC20.sol\":7846:7865  uint256 returnValue */\n      dup1\n        /* \"@openzeppelin/contracts/token/ERC20/utils/SafeERC20.sol\":7984:7988  0x20 */\n      0x20\n        /* \"@openzeppelin/contracts/token/ERC20/utils/SafeERC20.sol\":7981:7982  0 */\n      0x00\n        /* \"@openzeppelin/contracts/token/ERC20/utils/SafeERC20.sol\":7974:7978  data */\n      dup5\n        /* \"@openzeppelin/contracts/token/ERC20/utils/SafeERC20.sol\":7968:7979  mload(data) */\n      mload\n        /* \"@openzeppelin/contracts/token/ERC20/utils/SafeERC20.sol\":7961:7965  0x20 */\n      0x20\n        /* \"@openzeppelin/contracts/token/ERC20/utils/SafeERC20.sol\":7955:7959  data */\n      dup7\n        /* \"@openzeppelin/contracts/token/ERC20/utils/SafeERC20.sol\":7951:7966  add(data, 0x20) */\n      add\n        /* \"@openzeppelin/contracts/token/ERC20/utils/SafeERC20.sol\":7948:7949  0 */\n      0x00\n        /* \"@openzeppelin/contracts/token/ERC20/utils/SafeERC20.sol\":7941:7946  token */\n      dup9\n        /* \"@openzeppelin/contracts/token/ERC20/utils/SafeERC20.sol\":7934:7939  gas() */\n      gas\n        /* \"@openzeppelin/contracts/token/ERC20/utils/SafeERC20.sol\":7929:7989  call(gas(), token, 0, add(data, 0x20), mload(data), 0, 0x20) */\n      call\n        /* \"@openzeppelin/contracts/token/ERC20/utils/SafeERC20.sol\":8041:8048  success */\n      dup1\n        /* \"@openzeppelin/contracts/token/ERC20/utils/SafeERC20.sol\":8031:8207  if iszero(success) {... */\n      tag_248\n      jumpi\n        /* \"@openzeppelin/contracts/token/ERC20/utils/SafeERC20.sol\":8085:8089  0x40 */\n      0x40\n        /* \"@openzeppelin/contracts/token/ERC20/utils/SafeERC20.sol\":8079:8090  mload(0x40) */\n      mload\n        /* \"@openzeppelin/contracts/token/ERC20/utils/SafeERC20.sol\":8130:8146  returndatasize() */\n      returndatasize\n        /* \"@openzeppelin/contracts/token/ERC20/utils/SafeERC20.sol\":8127:8128  0 */\n      0x00\n        /* \"@openzeppelin/contracts/token/ERC20/utils/SafeERC20.sol\":8122:8125  ptr */\n      dup3\n        /* \"@openzeppelin/contracts/token/ERC20/utils/SafeERC20.sol\":8107:8147  returndatacopy(ptr, 0, returndatasize()) */\n      returndatacopy\n        /* \"@openzeppelin/contracts/token/ERC20/utils/SafeERC20.sol\":8176:8192  returndatasize() */\n      returndatasize\n        /* \"@openzeppelin/contracts/token/ERC20/utils/SafeERC20.sol\":8171:8174  ptr */\n      dup2\n        /* \"@openzeppelin/contracts/token/ERC20/utils/SafeERC20.sol\":8164:8193  revert(ptr, returndatasize()) */\n      revert\n        /* \"@openzeppelin/contracts/token/ERC20/utils/SafeERC20.sol\":8031:8207  if iszero(success) {... */\n    tag_248:\n        /* \"@openzeppelin/contracts/token/ERC20/utils/SafeERC20.sol\":8234:8250  returndatasize() */\n      returndatasize\n        /* \"@openzeppelin/contracts/token/ERC20/utils/SafeERC20.sol\":8220:8250  returnSize := returndatasize() */\n      swap3\n      pop\n        /* \"@openzeppelin/contracts/token/ERC20/utils/SafeERC20.sol\":8284:8285  0 */\n      0x00\n        /* \"@openzeppelin/contracts/token/ERC20/utils/SafeERC20.sol\":8278:8286  mload(0) */\n      mload\n        /* \"@openzeppelin/contracts/token/ERC20/utils/SafeERC20.sol\":8263:8286  returnValue := mload(0) */\n      swap2\n      pop\n        /* \"@openzeppelin/contracts/token/ERC20/utils/SafeERC20.sol\":7900:8296  {... */\n      pop\n        /* \"@openzeppelin/contracts/token/ERC20/utils/SafeERC20.sol\":8324:8325  0 */\n      0x00\n        /* \"@openzeppelin/contracts/token/ERC20/utils/SafeERC20.sol\":8310:8320  returnSize */\n      dup3\n        /* \"@openzeppelin/contracts/token/ERC20/utils/SafeERC20.sol\":8310:8325  returnSize == 0 */\n      eq\n        /* \"@openzeppelin/contracts/token/ERC20/utils/SafeERC20.sol\":8310:8378  returnSize == 0 ? address(token).code.length == 0 : returnValue != 1 */\n      tag_249\n      jumpi\n        /* \"@openzeppelin/contracts/token/ERC20/utils/SafeERC20.sol\":8377:8378  1 */\n      0x01\n        /* \"@openzeppelin/contracts/token/ERC20/utils/SafeERC20.sol\":8362:8373  returnValue */\n      dup2\n        /* \"@openzeppelin/contracts/token/ERC20/utils/SafeERC20.sol\":8362:8378  returnValue != 1 */\n      eq\n      iszero\n        /* \"@openzeppelin/contracts/token/ERC20/utils/SafeERC20.sol\":8310:8378  returnSize == 0 ? address(token).code.length == 0 : returnValue != 1 */\n      jump(tag_250)\n    tag_249:\n        /* \"@openzeppelin/contracts/token/ERC20/utils/SafeERC20.sol\":8358:8359  0 */\n      0x00\n        /* \"@openzeppelin/contracts/token/ERC20/utils/SafeERC20.sol\":8336:8341  token */\n      dup5\n        /* \"@openzeppelin/contracts/token/ERC20/utils/SafeERC20.sol\":8328:8354  address(token).code.length */\n      0xffffffffffffffffffffffffffffffffffffffff\n      and\n      extcodesize\n        /* \"@openzeppelin/contracts/token/ERC20/utils/SafeERC20.sol\":8328:8359  address(token).code.length == 0 */\n      eq\n        /* \"@openzeppelin/contracts/token/ERC20/utils/SafeERC20.sol\":8310:8378  returnSize == 0 ? address(token).code.length == 0 : returnValue != 1 */\n    tag_250:\n        /* \"@openzeppelin/contracts/token/ERC20/utils/SafeERC20.sol\":8306:8452  if (returnSize == 0 ? address(token).code.length == 0 : returnValue != 1) {... */\n      iszero\n      tag_251\n      jumpi\n        /* \"@openzeppelin/contracts/token/ERC20/utils/SafeERC20.sol\":8434:8439  token */\n      dup4\n        /* \"@openzeppelin/contracts/token/ERC20/utils/SafeERC20.sol\":8401:8441  SafeERC20FailedOperation(address(token)) */\n      mload(0x40)\n      0x5274afe700000000000000000000000000000000000000000000000000000000\n      dup2\n      mstore\n      0x04\n      add\n      tag_252\n      swap2\n      swap1\n      tag_35\n      jump\t// in\n    tag_252:\n      mload(0x40)\n      dup1\n      swap2\n      sub\n      swap1\n      revert\n        /* \"@openzeppelin/contracts/token/ERC20/utils/SafeERC20.sol\":8306:8452  if (returnSize == 0 ? address(token).code.length == 0 : returnValue != 1) {... */\n    tag_251:\n        /* \"@openzeppelin/contracts/token/ERC20/utils/SafeERC20.sol\":7808:8458  {... */\n      pop\n      pop\n        /* \"@openzeppelin/contracts/token/ERC20/utils/SafeERC20.sol\":7738:8458  function _callOptionalReturn(IERC20 token, bytes memory data) private {... */\n      pop\n      pop\n      jump\t// out\n        /* \"@openzeppelin/contracts-upgradeable/proxy/utils/Initializable.sol\":7084:7225  function _checkInitializing() internal view virtual {... */\n    tag_233:\n        /* \"@openzeppelin/contracts-upgradeable/proxy/utils/Initializable.sol\":7151:7168  _isInitializing() */\n      tag_254\n        /* \"@openzeppelin/contracts-upgradeable/proxy/utils/Initializable.sol\":7151:7166  _isInitializing */\n      tag_255\n        /* \"@openzeppelin/contracts-upgradeable/proxy/utils/Initializable.sol\":7151:7168  _isInitializing() */\n      jump\t// in\n    tag_254:\n        /* \"@openzeppelin/contracts-upgradeable/proxy/utils/Initializable.sol\":7146:7219  if (!_isInitializing()) {... */\n      tag_256\n      jumpi\n        /* \"@openzeppelin/contracts-upgradeable/proxy/utils/Initializable.sol\":7191:7208  NotInitializing() */\n      mload(0x40)\n      0xd7e6bcf800000000000000000000000000000000000000000000000000000000\n      dup2\n      mstore\n      0x04\n      add\n      mload(0x40)\n      dup1\n      swap2\n      sub\n      swap1\n      revert\n        /* \"@openzeppelin/contracts-upgradeable/proxy/utils/Initializable.sol\":7146:7219  if (!_isInitializing()) {... */\n    tag_256:\n        /* \"@openzeppelin/contracts-upgradeable/proxy/utils/Initializable.sol\":7084:7225  function _checkInitializing() internal view virtual {... */\n      jump\t// out\n        /* \"@openzeppelin/contracts-upgradeable/access/OwnableUpgradeable.sol\":1980:2215  function __Ownable_init_unchained(address initialOwner) internal onlyInitializing {... */\n    tag_236:\n        /* \"@openzeppelin/contracts-upgradeable/proxy/utils/Initializable.sol\":6931:6951  _checkInitializing() */\n      tag_258\n        /* \"@openzeppelin/contracts-upgradeable/proxy/utils/Initializable.sol\":6931:6949  _checkInitializing */\n      tag_233\n        /* \"@openzeppelin/contracts-upgradeable/proxy/utils/Initializable.sol\":6931:6951  _checkInitializing() */\n      jump\t// in\n    tag_258:\n        /* \"@openzeppelin/contracts-upgradeable/access/OwnableUpgradeable.sol\":2100:2101  0 */\n      0x00\n        /* \"@openzeppelin/contracts-upgradeable/access/OwnableUpgradeable.sol\":2076:2102  initialOwner == address(0) */\n      0xffffffffffffffffffffffffffffffffffffffff\n      and\n        /* \"@openzeppelin/contracts-upgradeable/access/OwnableUpgradeable.sol\":2076:2088  initialOwner */\n      dup2\n        /* \"@openzeppelin/contracts-upgradeable/access/OwnableUpgradeable.sol\":2076:2102  initialOwner == address(0) */\n      0xffffffffffffffffffffffffffffffffffffffff\n      and\n      sub\n        /* \"@openzeppelin/contracts-upgradeable/access/OwnableUpgradeable.sol\":2072:2167  if (initialOwner == address(0)) {... */\n      tag_260\n      jumpi\n        /* \"@openzeppelin/contracts-upgradeable/access/OwnableUpgradeable.sol\":2153:2154  0 */\n      0x00\n        /* \"@openzeppelin/contracts-upgradeable/access/OwnableUpgradeable.sol\":2125:2156  OwnableInvalidOwner(address(0)) */\n      mload(0x40)\n      0x1e4fbdf700000000000000000000000000000000000000000000000000000000\n      dup2\n      mstore\n      0x04\n      add\n      tag_261\n      swap2\n      swap1\n      tag_35\n      jump\t// in\n    tag_261:\n      mload(0x40)\n      dup1\n      swap2\n      sub\n      swap1\n      revert\n        /* \"@openzeppelin/contracts-upgradeable/access/OwnableUpgradeable.sol\":2072:2167  if (initialOwner == address(0)) {... */\n    tag_260:\n        /* \"@openzeppelin/contracts-upgradeable/access/OwnableUpgradeable.sol\":2176:2208  _transferOwnership(initialOwner) */\n      tag_262\n        /* \"@openzeppelin/contracts-upgradeable/access/OwnableUpgradeable.sol\":2195:2207  initialOwner */\n      dup2\n        /* \"@openzeppelin/contracts-upgradeable/access/OwnableUpgradeable.sol\":2176:2194  _transferOwnership */\n      tag_157\n        /* \"@openzeppelin/contracts-upgradeable/access/OwnableUpgradeable.sol\":2176:2208  _transferOwnership(initialOwner) */\n      jump\t// in\n    tag_262:\n        /* \"@openzeppelin/contracts-upgradeable/access/OwnableUpgradeable.sol\":1980:2215  function __Ownable_init_unchained(address initialOwner) internal onlyInitializing {... */\n      pop\n      jump\t// out\n        /* \"@openzeppelin/contracts-upgradeable/utils/ContextUpgradeable.sol\":887:983  function _msgSender() internal view virtual returns (address) {... */\n    tag_239:\n        /* \"@openzeppelin/contracts-upgradeable/utils/ContextUpgradeable.sol\":940:947  address */\n      0x00\n        /* \"@openzeppelin/contracts-upgradeable/utils/ContextUpgradeable.sol\":966:976  msg.sender */\n      caller\n        /* \"@openzeppelin/contracts-upgradeable/utils/ContextUpgradeable.sol\":959:976  return msg.sender */\n      swap1\n      pop\n        /* \"@openzeppelin/contracts-upgradeable/utils/ContextUpgradeable.sol\":887:983  function _msgSender() internal view virtual returns (address) {... */\n      swap1\n      jump\t// out\n        /* \"@openzeppelin/contracts-upgradeable/proxy/utils/Initializable.sol\":8487:8607  function _isInitializing() internal view returns (bool) {... */\n    tag_255:\n        /* \"@openzeppelin/contracts-upgradeable/proxy/utils/Initializable.sol\":8537:8541  bool */\n      0x00\n        /* \"@openzeppelin/contracts-upgradeable/proxy/utils/Initializable.sol\":8560:8586  _getInitializableStorage() */\n      tag_265\n        /* \"@openzeppelin/contracts-upgradeable/proxy/utils/Initializable.sol\":8560:8584  _getInitializableStorage */\n      tag_140\n        /* \"@openzeppelin/contracts-upgradeable/proxy/utils/Initializable.sol\":8560:8586  _getInitializableStorage() */\n      jump\t// in\n    tag_265:\n        /* \"@openzeppelin/contracts-upgradeable/proxy/utils/Initializable.sol\":8560:8600  _getInitializableStorage()._initializing */\n      0x00\n      add\n      0x08\n      swap1\n      sload\n      swap1\n      0x0100\n      exp\n      swap1\n      div\n      0xff\n      and\n        /* \"@openzeppelin/contracts-upgradeable/proxy/utils/Initializable.sol\":8553:8600  return _getInitializableStorage()._initializing */\n      swap1\n      pop\n        /* \"@openzeppelin/contracts-upgradeable/proxy/utils/Initializable.sol\":8487:8607  function _isInitializing() internal view returns (bool) {... */\n      swap1\n      jump\t// out\n        /* \"#utility.yul\":7:84   */\n    tag_266:\n        /* \"#utility.yul\":44:51   */\n      0x00\n        /* \"#utility.yul\":73:78   */\n      dup2\n        /* \"#utility.yul\":62:78   */\n      swap1\n      pop\n        /* \"#utility.yul\":7:84   */\n      swap2\n      swap1\n      pop\n      jump\t// out\n        /* \"#utility.yul\":90:270   */\n    tag_267:\n        /* \"#utility.yul\":138:215   */\n      0x4e487b7100000000000000000000000000000000000000000000000000000000\n        /* \"#utility.yul\":135:136   */\n      0x00\n        /* \"#utility.yul\":128:216   */\n      mstore\n        /* \"#utility.yul\":235:239   */\n      0x11\n        /* \"#utility.yul\":232:233   */\n      0x04\n        /* \"#utility.yul\":225:240   */\n      mstore\n        /* \"#utility.yul\":259:263   */\n      0x24\n        /* \"#utility.yul\":256:257   */\n      0x00\n        /* \"#utility.yul\":249:264   */\n      revert\n        /* \"#utility.yul\":276:467   */\n    tag_23:\n        /* \"#utility.yul\":316:319   */\n      0x00\n        /* \"#utility.yul\":335:355   */\n      tag_352\n        /* \"#utility.yul\":353:354   */\n      dup3\n        /* \"#utility.yul\":335:355   */\n      tag_266\n      jump\t// in\n    tag_352:\n        /* \"#utility.yul\":330:355   */\n      swap2\n      pop\n        /* \"#utility.yul\":369:389   */\n      tag_353\n        /* \"#utility.yul\":387:388   */\n      dup4\n        /* \"#utility.yul\":369:389   */\n      tag_266\n      jump\t// in\n    tag_353:\n        /* \"#utility.yul\":364:389   */\n      swap3\n      pop\n        /* \"#utility.yul\":412:413   */\n      dup3\n        /* \"#utility.yul\":409:410   */\n      dup3\n        /* \"#utility.yul\":405:414   */\n      add\n        /* \"#utility.yul\":398:414   */\n      swap1\n      pop\n        /* \"#utility.yul\":433:436   */\n      dup1\n        /* \"#utility.yul\":430:431   */\n      dup3\n        /* \"#utility.yul\":427:437   */\n      gt\n        /* \"#utility.yul\":424:460   */\n      iszero\n      tag_354\n      jumpi\n        /* \"#utility.yul\":440:458   */\n      tag_355\n      tag_267\n      jump\t// in\n    tag_355:\n        /* \"#utility.yul\":424:460   */\n    tag_354:\n        /* \"#utility.yul\":276:467   */\n      swap3\n      swap2\n      pop\n      pop\n      jump\t// out\n        /* \"#utility.yul\":473:591   */\n    tag_268:\n        /* \"#utility.yul\":560:584   */\n      tag_357\n        /* \"#utility.yul\":578:583   */\n      dup2\n        /* \"#utility.yul\":560:584   */\n      tag_266\n      jump\t// in\n    tag_357:\n        /* \"#utility.yul\":555:558   */\n      dup3\n        /* \"#utility.yul\":548:585   */\n      mstore\n        /* \"#utility.yul\":473:591   */\n      pop\n      pop\n      jump\t// out\n        /* \"#utility.yul\":597:819   */\n    tag_25:\n        /* \"#utility.yul\":690:694   */\n      0x00\n        /* \"#utility.yul\":728:730   */\n      0x20\n        /* \"#utility.yul\":717:726   */\n      dup3\n        /* \"#utility.yul\":713:731   */\n      add\n        /* \"#utility.yul\":705:731   */\n      swap1\n      pop\n        /* \"#utility.yul\":741:812   */\n      tag_359\n        /* \"#utility.yul\":809:810   */\n      0x00\n        /* \"#utility.yul\":798:807   */\n      dup4\n        /* \"#utility.yul\":794:811   */\n      add\n        /* \"#utility.yul\":785:791   */\n      dup5\n        /* \"#utility.yul\":741:812   */\n      tag_268\n      jump\t// in\n    tag_359:\n        /* \"#utility.yul\":597:819   */\n      swap3\n      swap2\n      pop\n      pop\n      jump\t// out\n        /* \"#utility.yul\":825:900   */\n    tag_269:\n        /* \"#utility.yul\":858:864   */\n      0x00\n        /* \"#utility.yul\":891:893   */\n      0x40\n        /* \"#utility.yul\":885:894   */\n      mload\n        /* \"#utility.yul\":875:894   */\n      swap1\n      pop\n        /* \"#utility.yul\":825:900   */\n      swap1\n      jump\t// out\n        /* \"#utility.yul\":906:1023   */\n    tag_270:\n        /* \"#utility.yul\":1015:1016   */\n      0x00\n        /* \"#utility.yul\":1012:1013   */\n      dup1\n        /* \"#utility.yul\":1005:1017   */\n      revert\n        /* \"#utility.yul\":1029:1146   */\n    tag_271:\n        /* \"#utility.yul\":1138:1139   */\n      0x00\n        /* \"#utility.yul\":1135:1136   */\n      dup1\n        /* \"#utility.yul\":1128:1140   */\n      revert\n        /* \"#utility.yul\":1152:1278   */\n    tag_272:\n        /* \"#utility.yul\":1189:1196   */\n      0x00\n        /* \"#utility.yul\":1229:1271   */\n      0xffffffffffffffffffffffffffffffffffffffff\n        /* \"#utility.yul\":1222:1227   */\n      dup3\n        /* \"#utility.yul\":1218:1272   */\n      and\n        /* \"#utility.yul\":1207:1272   */\n      swap1\n      pop\n        /* \"#utility.yul\":1152:1278   */\n      swap2\n      swap1\n      pop\n      jump\t// out\n        /* \"#utility.yul\":1284:1380   */\n    tag_273:\n        /* \"#utility.yul\":1321:1328   */\n      0x00\n        /* \"#utility.yul\":1350:1374   */\n      tag_365\n        /* \"#utility.yul\":1368:1373   */\n      dup3\n        /* \"#utility.yul\":1350:1374   */\n      tag_272\n      jump\t// in\n    tag_365:\n        /* \"#utility.yul\":1339:1374   */\n      swap1\n      pop\n        /* \"#utility.yul\":1284:1380   */\n      swap2\n      swap1\n      pop\n      jump\t// out\n        /* \"#utility.yul\":1386:1508   */\n    tag_274:\n        /* \"#utility.yul\":1459:1483   */\n      tag_367\n        /* \"#utility.yul\":1477:1482   */\n      dup2\n        /* \"#utility.yul\":1459:1483   */\n      tag_273\n      jump\t// in\n    tag_367:\n        /* \"#utility.yul\":1452:1457   */\n      dup2\n        /* \"#utility.yul\":1449:1484   */\n      eq\n        /* \"#utility.yul\":1439:1502   */\n      tag_368\n      jumpi\n        /* \"#utility.yul\":1498:1499   */\n      0x00\n        /* \"#utility.yul\":1495:1496   */\n      dup1\n        /* \"#utility.yul\":1488:1500   */\n      revert\n        /* \"#utility.yul\":1439:1502   */\n    tag_368:\n        /* \"#utility.yul\":1386:1508   */\n      pop\n      jump\t// out\n        /* \"#utility.yul\":1514:1653   */\n    tag_275:\n        /* \"#utility.yul\":1560:1565   */\n      0x00\n        /* \"#utility.yul\":1598:1604   */\n      dup2\n        /* \"#utility.yul\":1585:1605   */\n      calldataload\n        /* \"#utility.yul\":1576:1605   */\n      swap1\n      pop\n        /* \"#utility.yul\":1614:1647   */\n      tag_370\n        /* \"#utility.yul\":1641:1646   */\n      dup2\n        /* \"#utility.yul\":1614:1647   */\n      tag_274\n      jump\t// in\n    tag_370:\n        /* \"#utility.yul\":1514:1653   */\n      swap3\n      swap2\n      pop\n      pop\n      jump\t// out\n        /* \"#utility.yul\":1659:1988   */\n    tag_29:\n        /* \"#utility.yul\":1718:1724   */\n      0x00\n        /* \"#utility.yul\":1767:1769   */\n      0x20\n        /* \"#utility.yul\":1755:1764   */\n      dup3\n        /* \"#utility.yul\":1746:1753   */\n      dup5\n        /* \"#utility.yul\":1742:1765   */\n      sub\n        /* \"#utility.yul\":1738:1770   */\n      slt\n        /* \"#utility.yul\":1735:1854   */\n      iszero\n      tag_372\n      jumpi\n        /* \"#utility.yul\":1773:1852   */\n      tag_373\n      tag_270\n      jump\t// in\n    tag_373:\n        /* \"#utility.yul\":1735:1854   */\n    tag_372:\n        /* \"#utility.yul\":1893:1894   */\n      0x00\n        /* \"#utility.yul\":1918:1971   */\n      tag_374\n        /* \"#utility.yul\":1963:1970   */\n      dup5\n        /* \"#utility.yul\":1954:1960   */\n      dup3\n        /* \"#utility.yul\":1943:1952   */\n      dup6\n        /* \"#utility.yul\":1939:1961   */\n      add\n        /* \"#utility.yul\":1918:1971   */\n      tag_275\n      jump\t// in\n    tag_374:\n        /* \"#utility.yul\":1908:1971   */\n      swap2\n      pop\n        /* \"#utility.yul\":1864:1981   */\n      pop\n        /* \"#utility.yul\":1659:1988   */\n      swap3\n      swap2\n      pop\n      pop\n      jump\t// out\n        /* \"#utility.yul\":1994:2112   */\n    tag_276:\n        /* \"#utility.yul\":2081:2105   */\n      tag_376\n        /* \"#utility.yul\":2099:2104   */\n      dup2\n        /* \"#utility.yul\":2081:2105   */\n      tag_273\n      jump\t// in\n    tag_376:\n        /* \"#utility.yul\":2076:2079   */\n      dup3\n        /* \"#utility.yul\":2069:2106   */\n      mstore\n        /* \"#utility.yul\":1994:2112   */\n      pop\n      pop\n      jump\t// out\n        /* \"#utility.yul\":2118:2340   */\n    tag_35:\n        /* \"#utility.yul\":2211:2215   */\n      0x00\n        /* \"#utility.yul\":2249:2251   */\n      0x20\n        /* \"#utility.yul\":2238:2247   */\n      dup3\n        /* \"#utility.yul\":2234:2252   */\n      add\n        /* \"#utility.yul\":2226:2252   */\n      swap1\n      pop\n        /* \"#utility.yul\":2262:2333   */\n      tag_378\n        /* \"#utility.yul\":2330:2331   */\n      0x00\n        /* \"#utility.yul\":2319:2328   */\n      dup4\n        /* \"#utility.yul\":2315:2332   */\n      add\n        /* \"#utility.yul\":2306:2312   */\n      dup5\n        /* \"#utility.yul\":2262:2333   */\n      tag_276\n      jump\t// in\n    tag_378:\n        /* \"#utility.yul\":2118:2340   */\n      swap3\n      swap2\n      pop\n      pop\n      jump\t// out\n        /* \"#utility.yul\":2346:2468   */\n    tag_277:\n        /* \"#utility.yul\":2419:2443   */\n      tag_380\n        /* \"#utility.yul\":2437:2442   */\n      dup2\n        /* \"#utility.yul\":2419:2443   */\n      tag_266\n      jump\t// in\n    tag_380:\n        /* \"#utility.yul\":2412:2417   */\n      dup2\n        /* \"#utility.yul\":2409:2444   */\n      eq\n        /* \"#utility.yul\":2399:2462   */\n      tag_381\n      jumpi\n        /* \"#utility.yul\":2458:2459   */\n      0x00\n        /* \"#utility.yul\":2455:2456   */\n      dup1\n        /* \"#utility.yul\":2448:2460   */\n      revert\n        /* \"#utility.yul\":2399:2462   */\n    tag_381:\n        /* \"#utility.yul\":2346:2468   */\n      pop\n      jump\t// out\n        /* \"#utility.yul\":2474:2613   */\n    tag_278:\n        /* \"#utility.yul\":2520:2525   */\n      0x00\n        /* \"#utility.yul\":2558:2564   */\n      dup2\n        /* \"#utility.yul\":2545:2565   */\n      calldataload\n        /* \"#utility.yul\":2536:2565   */\n      swap1\n      pop\n        /* \"#utility.yul\":2574:2607   */\n      tag_383\n        /* \"#utility.yul\":2601:2606   */\n      dup2\n        /* \"#utility.yul\":2574:2607   */\n      tag_277\n      jump\t// in\n    tag_383:\n        /* \"#utility.yul\":2474:2613   */\n      swap3\n      swap2\n      pop\n      pop\n      jump\t// out\n        /* \"#utility.yul\":2619:3093   */\n    tag_38:\n        /* \"#utility.yul\":2687:2693   */\n      0x00\n        /* \"#utility.yul\":2695:2701   */\n      dup1\n        /* \"#utility.yul\":2744:2746   */\n      0x40\n        /* \"#utility.yul\":2732:2741   */\n      dup4\n        /* \"#utility.yul\":2723:2730   */\n      dup6\n        /* \"#utility.yul\":2719:2742   */\n      sub\n        /* \"#utility.yul\":2715:2747   */\n      slt\n        /* \"#utility.yul\":2712:2831   */\n      iszero\n      tag_385\n      jumpi\n        /* \"#utility.yul\":2750:2829   */\n      tag_386\n      tag_270\n      jump\t// in\n    tag_386:\n        /* \"#utility.yul\":2712:2831   */\n    tag_385:\n        /* \"#utility.yul\":2870:2871   */\n      0x00\n        /* \"#utility.yul\":2895:2948   */\n      tag_387\n        /* \"#utility.yul\":2940:2947   */\n      dup6\n        /* \"#utility.yul\":2931:2937   */\n      dup3\n        /* \"#utility.yul\":2920:2929   */\n      dup7\n        /* \"#utility.yul\":2916:2938   */\n      add\n        /* \"#utility.yul\":2895:2948   */\n      tag_275\n      jump\t// in\n    tag_387:\n        /* \"#utility.yul\":2885:2948   */\n      swap3\n      pop\n        /* \"#utility.yul\":2841:2958   */\n      pop\n        /* \"#utility.yul\":2997:2999   */\n      0x20\n        /* \"#utility.yul\":3023:3076   */\n      tag_388\n        /* \"#utility.yul\":3068:3075   */\n      dup6\n        /* \"#utility.yul\":3059:3065   */\n      dup3\n        /* \"#utility.yul\":3048:3057   */\n      dup7\n        /* \"#utility.yul\":3044:3066   */\n      add\n        /* \"#utility.yul\":3023:3076   */\n      tag_278\n      jump\t// in\n    tag_388:\n        /* \"#utility.yul\":3013:3076   */\n      swap2\n      pop\n        /* \"#utility.yul\":2968:3086   */\n      pop\n        /* \"#utility.yul\":2619:3093   */\n      swap3\n      pop\n      swap3\n      swap1\n      pop\n      jump\t// out\n        /* \"#utility.yul\":3099:3573   */\n    tag_43:\n        /* \"#utility.yul\":3167:3173   */\n      0x00\n        /* \"#utility.yul\":3175:3181   */\n      dup1\n        /* \"#utility.yul\":3224:3226   */\n      0x40\n        /* \"#utility.yul\":3212:3221   */\n      dup4\n        /* \"#utility.yul\":3203:3210   */\n      dup6\n        /* \"#utility.yul\":3199:3222   */\n      sub\n        /* \"#utility.yul\":3195:3227   */\n      slt\n        /* \"#utility.yul\":3192:3311   */\n      iszero\n      tag_390\n      jumpi\n        /* \"#utility.yul\":3230:3309   */\n      tag_391\n      tag_270\n      jump\t// in\n    tag_391:\n        /* \"#utility.yul\":3192:3311   */\n    tag_390:\n        /* \"#utility.yul\":3350:3351   */\n      0x00\n        /* \"#utility.yul\":3375:3428   */\n      tag_392\n        /* \"#utility.yul\":3420:3427   */\n      dup6\n        /* \"#utility.yul\":3411:3417   */\n      dup3\n        /* \"#utility.yul\":3400:3409   */\n      dup7\n        /* \"#utility.yul\":3396:3418   */\n      add\n        /* \"#utility.yul\":3375:3428   */\n      tag_275\n      jump\t// in\n    tag_392:\n        /* \"#utility.yul\":3365:3428   */\n      swap3\n      pop\n        /* \"#utility.yul\":3321:3438   */\n      pop\n        /* \"#utility.yul\":3477:3479   */\n      0x20\n        /* \"#utility.yul\":3503:3556   */\n      tag_393\n        /* \"#utility.yul\":3548:3555   */\n      dup6\n        /* \"#utility.yul\":3539:3545   */\n      dup3\n        /* \"#utility.yul\":3528:3537   */\n      dup7\n        /* \"#utility.yul\":3524:3546   */\n      add\n        /* \"#utility.yul\":3503:3556   */\n      tag_275\n      jump\t// in\n    tag_393:\n        /* \"#utility.yul\":3493:3556   */\n      swap2\n      pop\n        /* \"#utility.yul\":3448:3566   */\n      pop\n        /* \"#utility.yul\":3099:3573   */\n      swap3\n      pop\n      swap3\n      swap1\n      pop\n      jump\t// out\n        /* \"#utility.yul\":3579:3639   */\n    tag_279:\n        /* \"#utility.yul\":3607:3610   */\n      0x00\n        /* \"#utility.yul\":3628:3633   */\n      dup2\n        /* \"#utility.yul\":3621:3633   */\n      swap1\n      pop\n        /* \"#utility.yul\":3579:3639   */\n      swap2\n      swap1\n      pop\n      jump\t// out\n        /* \"#utility.yul\":3645:3787   */\n    tag_280:\n        /* \"#utility.yul\":3695:3704   */\n      0x00\n        /* \"#utility.yul\":3728:3781   */\n      tag_396\n        /* \"#utility.yul\":3746:3780   */\n      tag_397\n        /* \"#utility.yul\":3755:3779   */\n      tag_398\n        /* \"#utility.yul\":3773:3778   */\n      dup5\n        /* \"#utility.yul\":3755:3779   */\n      tag_272\n      jump\t// in\n    tag_398:\n        /* \"#utility.yul\":3746:3780   */\n      tag_279\n      jump\t// in\n    tag_397:\n        /* \"#utility.yul\":3728:3781   */\n      tag_272\n      jump\t// in\n    tag_396:\n        /* \"#utility.yul\":3715:3781   */\n      swap1\n      pop\n        /* \"#utility.yul\":3645:3787   */\n      swap2\n      swap1\n      pop\n      jump\t// out\n        /* \"#utility.yul\":3793:3919   */\n    tag_281:\n        /* \"#utility.yul\":3843:3852   */\n      0x00\n        /* \"#utility.yul\":3876:3913   */\n      tag_400\n        /* \"#utility.yul\":3907:3912   */\n      dup3\n        /* \"#utility.yul\":3876:3913   */\n      tag_280\n      jump\t// in\n    tag_400:\n        /* \"#utility.yul\":3863:3913   */\n      swap1\n      pop\n        /* \"#utility.yul\":3793:3919   */\n      swap2\n      swap1\n      pop\n      jump\t// out\n        /* \"#utility.yul\":3925:4067   */\n    tag_282:\n        /* \"#utility.yul\":3991:4000   */\n      0x00\n        /* \"#utility.yul\":4024:4061   */\n      tag_402\n        /* \"#utility.yul\":4055:4060   */\n      dup3\n        /* \"#utility.yul\":4024:4061   */\n      tag_281\n      jump\t// in\n    tag_402:\n        /* \"#utility.yul\":4011:4061   */\n      swap1\n      pop\n        /* \"#utility.yul\":3925:4067   */\n      swap2\n      swap1\n      pop\n      jump\t// out\n        /* \"#utility.yul\":4073:4236   */\n    tag_283:\n        /* \"#utility.yul\":4176:4229   */\n      tag_404\n        /* \"#utility.yul\":4223:4228   */\n      dup2\n        /* \"#utility.yul\":4176:4229   */\n      tag_282\n      jump\t// in\n    tag_404:\n        /* \"#utility.yul\":4171:4174   */\n      dup3\n        /* \"#utility.yul\":4164:4230   */\n      mstore\n        /* \"#utility.yul\":4073:4236   */\n      pop\n      pop\n      jump\t// out\n        /* \"#utility.yul\":4242:4496   */\n    tag_52:\n        /* \"#utility.yul\":4351:4355   */\n      0x00\n        /* \"#utility.yul\":4389:4391   */\n      0x20\n        /* \"#utility.yul\":4378:4387   */\n      dup3\n        /* \"#utility.yul\":4374:4392   */\n      add\n        /* \"#utility.yul\":4366:4392   */\n      swap1\n      pop\n        /* \"#utility.yul\":4402:4489   */\n      tag_406\n        /* \"#utility.yul\":4486:4487   */\n      0x00\n        /* \"#utility.yul\":4475:4484   */\n      dup4\n        /* \"#utility.yul\":4471:4488   */\n      add\n        /* \"#utility.yul\":4462:4468   */\n      dup5\n        /* \"#utility.yul\":4402:4489   */\n      tag_283\n      jump\t// in\n    tag_406:\n        /* \"#utility.yul\":4242:4496   */\n      swap3\n      swap2\n      pop\n      pop\n      jump\t// out\n        /* \"#utility.yul\":4502:4601   */\n    tag_284:\n        /* \"#utility.yul\":4554:4560   */\n      0x00\n        /* \"#utility.yul\":4588:4593   */\n      dup2\n        /* \"#utility.yul\":4582:4594   */\n      mload\n        /* \"#utility.yul\":4572:4594   */\n      swap1\n      pop\n        /* \"#utility.yul\":4502:4601   */\n      swap2\n      swap1\n      pop\n      jump\t// out\n        /* \"#utility.yul\":4607:4776   */\n    tag_285:\n        /* \"#utility.yul\":4691:4702   */\n      0x00\n        /* \"#utility.yul\":4725:4731   */\n      dup3\n        /* \"#utility.yul\":4720:4723   */\n      dup3\n        /* \"#utility.yul\":4713:4732   */\n      mstore\n        /* \"#utility.yul\":4765:4769   */\n      0x20\n        /* \"#utility.yul\":4760:4763   */\n      dup3\n        /* \"#utility.yul\":4756:4770   */\n      add\n        /* \"#utility.yul\":4741:4770   */\n      swap1\n      pop\n        /* \"#utility.yul\":4607:4776   */\n      swap3\n      swap2\n      pop\n      pop\n      jump\t// out\n        /* \"#utility.yul\":4782:4921   */\n    tag_286:\n        /* \"#utility.yul\":4871:4877   */\n      dup3\n        /* \"#utility.yul\":4866:4869   */\n      dup2\n        /* \"#utility.yul\":4861:4864   */\n      dup4\n        /* \"#utility.yul\":4855:4878   */\n      mcopy\n        /* \"#utility.yul\":4912:4913   */\n      0x00\n        /* \"#utility.yul\":4903:4909   */\n      dup4\n        /* \"#utility.yul\":4898:4901   */\n      dup4\n        /* \"#utility.yul\":4894:4910   */\n      add\n        /* \"#utility.yul\":4887:4914   */\n      mstore\n        /* \"#utility.yul\":4782:4921   */\n      pop\n      pop\n      pop\n      jump\t// out\n        /* \"#utility.yul\":4927:5029   */\n    tag_287:\n        /* \"#utility.yul\":4968:4974   */\n      0x00\n        /* \"#utility.yul\":5019:5021   */\n      0x1f\n        /* \"#utility.yul\":5015:5022   */\n      not\n        /* \"#utility.yul\":5010:5012   */\n      0x1f\n        /* \"#utility.yul\":5003:5008   */\n      dup4\n        /* \"#utility.yul\":4999:5013   */\n      add\n        /* \"#utility.yul\":4995:5023   */\n      and\n        /* \"#utility.yul\":4985:5023   */\n      swap1\n      pop\n        /* \"#utility.yul\":4927:5029   */\n      swap2\n      swap1\n      pop\n      jump\t// out\n        /* \"#utility.yul\":5035:5412   */\n    tag_288:\n        /* \"#utility.yul\":5123:5126   */\n      0x00\n        /* \"#utility.yul\":5151:5190   */\n      tag_412\n        /* \"#utility.yul\":5184:5189   */\n      dup3\n        /* \"#utility.yul\":5151:5190   */\n      tag_284\n      jump\t// in\n    tag_412:\n        /* \"#utility.yul\":5206:5277   */\n      tag_413\n        /* \"#utility.yul\":5270:5276   */\n      dup2\n        /* \"#utility.yul\":5265:5268   */\n      dup6\n        /* \"#utility.yul\":5206:5277   */\n      tag_285\n      jump\t// in\n    tag_413:\n        /* \"#utility.yul\":5199:5277   */\n      swap4\n      pop\n        /* \"#utility.yul\":5286:5351   */\n      tag_414\n        /* \"#utility.yul\":5344:5350   */\n      dup2\n        /* \"#utility.yul\":5339:5342   */\n      dup6\n        /* \"#utility.yul\":5332:5336   */\n      0x20\n        /* \"#utility.yul\":5325:5330   */\n      dup7\n        /* \"#utility.yul\":5321:5337   */\n      add\n        /* \"#utility.yul\":5286:5351   */\n      tag_286\n      jump\t// in\n    tag_414:\n        /* \"#utility.yul\":5376:5405   */\n      tag_415\n        /* \"#utility.yul\":5398:5404   */\n      dup2\n        /* \"#utility.yul\":5376:5405   */\n      tag_287\n      jump\t// in\n    tag_415:\n        /* \"#utility.yul\":5371:5374   */\n      dup5\n        /* \"#utility.yul\":5367:5406   */\n      add\n        /* \"#utility.yul\":5360:5406   */\n      swap2\n      pop\n        /* \"#utility.yul\":5127:5412   */\n      pop\n        /* \"#utility.yul\":5035:5412   */\n      swap3\n      swap2\n      pop\n      pop\n      jump\t// out\n        /* \"#utility.yul\":5418:5951   */\n    tag_57:\n        /* \"#utility.yul\":5587:5591   */\n      0x00\n        /* \"#utility.yul\":5625:5627   */\n      0x60\n        /* \"#utility.yul\":5614:5623   */\n      dup3\n        /* \"#utility.yul\":5610:5628   */\n      add\n        /* \"#utility.yul\":5602:5628   */\n      swap1\n      pop\n        /* \"#utility.yul\":5638:5709   */\n      tag_417\n        /* \"#utility.yul\":5706:5707   */\n      0x00\n        /* \"#utility.yul\":5695:5704   */\n      dup4\n        /* \"#utility.yul\":5691:5708   */\n      add\n        /* \"#utility.yul\":5682:5688   */\n      dup7\n        /* \"#utility.yul\":5638:5709   */\n      tag_268\n      jump\t// in\n    tag_417:\n        /* \"#utility.yul\":5719:5791   */\n      tag_418\n        /* \"#utility.yul\":5787:5789   */\n      0x20\n        /* \"#utility.yul\":5776:5785   */\n      dup4\n        /* \"#utility.yul\":5772:5790   */\n      add\n        /* \"#utility.yul\":5763:5769   */\n      dup6\n        /* \"#utility.yul\":5719:5791   */\n      tag_268\n      jump\t// in\n    tag_418:\n        /* \"#utility.yul\":5838:5847   */\n      dup2\n        /* \"#utility.yul\":5832:5836   */\n      dup2\n        /* \"#utility.yul\":5828:5848   */\n      sub\n        /* \"#utility.yul\":5823:5825   */\n      0x40\n        /* \"#utility.yul\":5812:5821   */\n      dup4\n        /* \"#utility.yul\":5808:5826   */\n      add\n        /* \"#utility.yul\":5801:5849   */\n      mstore\n        /* \"#utility.yul\":5866:5944   */\n      tag_419\n        /* \"#utility.yul\":5939:5943   */\n      dup2\n        /* \"#utility.yul\":5930:5936   */\n      dup5\n        /* \"#utility.yul\":5866:5944   */\n      tag_288\n      jump\t// in\n    tag_419:\n        /* \"#utility.yul\":5858:5944   */\n      swap1\n      pop\n        /* \"#utility.yul\":5418:5951   */\n      swap5\n      swap4\n      pop\n      pop\n      pop\n      pop\n      jump\t// out\n        /* \"#utility.yul\":5957:6576   */\n    tag_75:\n        /* \"#utility.yul\":6034:6040   */\n      0x00\n        /* \"#utility.yul\":6042:6048   */\n      dup1\n        /* \"#utility.yul\":6050:6056   */\n      0x00\n        /* \"#utility.yul\":6099:6101   */\n      0x60\n        /* \"#utility.yul\":6087:6096   */\n      dup5\n        /* \"#utility.yul\":6078:6085   */\n      dup7\n        /* \"#utility.yul\":6074:6097   */\n      sub\n        /* \"#utility.yul\":6070:6102   */\n      slt\n        /* \"#utility.yul\":6067:6186   */\n      iszero\n      tag_421\n      jumpi\n        /* \"#utility.yul\":6105:6184   */\n      tag_422\n      tag_270\n      jump\t// in\n    tag_422:\n        /* \"#utility.yul\":6067:6186   */\n    tag_421:\n        /* \"#utility.yul\":6225:6226   */\n      0x00\n        /* \"#utility.yul\":6250:6303   */\n      tag_423\n        /* \"#utility.yul\":6295:6302   */\n      dup7\n        /* \"#utility.yul\":6286:6292   */\n      dup3\n        /* \"#utility.yul\":6275:6284   */\n      dup8\n        /* \"#utility.yul\":6271:6293   */\n      add\n        /* \"#utility.yul\":6250:6303   */\n      tag_275\n      jump\t// in\n    tag_423:\n        /* \"#utility.yul\":6240:6303   */\n      swap4\n      pop\n        /* \"#utility.yul\":6196:6313   */\n      pop\n        /* \"#utility.yul\":6352:6354   */\n      0x20\n        /* \"#utility.yul\":6378:6431   */\n      tag_424\n        /* \"#utility.yul\":6423:6430   */\n      dup7\n        /* \"#utility.yul\":6414:6420   */\n      dup3\n        /* \"#utility.yul\":6403:6412   */\n      dup8\n        /* \"#utility.yul\":6399:6421   */\n      add\n        /* \"#utility.yul\":6378:6431   */\n      tag_275\n      jump\t// in\n    tag_424:\n        /* \"#utility.yul\":6368:6431   */\n      swap3\n      pop\n        /* \"#utility.yul\":6323:6441   */\n      pop\n        /* \"#utility.yul\":6480:6482   */\n      0x40\n        /* \"#utility.yul\":6506:6559   */\n      tag_425\n        /* \"#utility.yul\":6551:6558   */\n      dup7\n        /* \"#utility.yul\":6542:6548   */\n      dup3\n        /* \"#utility.yul\":6531:6540   */\n      dup8\n        /* \"#utility.yul\":6527:6549   */\n      add\n        /* \"#utility.yul\":6506:6559   */\n      tag_278\n      jump\t// in\n    tag_425:\n        /* \"#utility.yul\":6496:6559   */\n      swap2\n      pop\n        /* \"#utility.yul\":6451:6569   */\n      pop\n        /* \"#utility.yul\":5957:6576   */\n      swap3\n      pop\n      swap3\n      pop\n      swap3\n      jump\t// out\n        /* \"#utility.yul\":6582:6699   */\n    tag_289:\n        /* \"#utility.yul\":6691:6692   */\n      0x00\n        /* \"#utility.yul\":6688:6689   */\n      dup1\n        /* \"#utility.yul\":6681:6693   */\n      revert\n        /* \"#utility.yul\":6705:6822   */\n    tag_290:\n        /* \"#utility.yul\":6814:6815   */\n      0x00\n        /* \"#utility.yul\":6811:6812   */\n      dup1\n        /* \"#utility.yul\":6804:6816   */\n      revert\n        /* \"#utility.yul\":6828:7008   */\n    tag_291:\n        /* \"#utility.yul\":6876:6953   */\n      0x4e487b7100000000000000000000000000000000000000000000000000000000\n        /* \"#utility.yul\":6873:6874   */\n      0x00\n        /* \"#utility.yul\":6866:6954   */\n      mstore\n        /* \"#utility.yul\":6973:6977   */\n      0x41\n        /* \"#utility.yul\":6970:6971   */\n      0x04\n        /* \"#utility.yul\":6963:6978   */\n      mstore\n        /* \"#utility.yul\":6997:7001   */\n      0x24\n        /* \"#utility.yul\":6994:6995   */\n      0x00\n        /* \"#utility.yul\":6987:7002   */\n      revert\n        /* \"#utility.yul\":7014:7295   */\n    tag_292:\n        /* \"#utility.yul\":7097:7124   */\n      tag_430\n        /* \"#utility.yul\":7119:7123   */\n      dup3\n        /* \"#utility.yul\":7097:7124   */\n      tag_287\n      jump\t// in\n    tag_430:\n        /* \"#utility.yul\":7089:7095   */\n      dup2\n        /* \"#utility.yul\":7085:7125   */\n      add\n        /* \"#utility.yul\":7227:7233   */\n      dup2\n        /* \"#utility.yul\":7215:7225   */\n      dup2\n        /* \"#utility.yul\":7212:7234   */\n      lt\n        /* \"#utility.yul\":7191:7209   */\n      0xffffffffffffffff\n        /* \"#utility.yul\":7179:7189   */\n      dup3\n        /* \"#utility.yul\":7176:7210   */\n      gt\n        /* \"#utility.yul\":7173:7235   */\n      or\n        /* \"#utility.yul\":7170:7258   */\n      iszero\n      tag_431\n      jumpi\n        /* \"#utility.yul\":7238:7256   */\n      tag_432\n      tag_291\n      jump\t// in\n    tag_432:\n        /* \"#utility.yul\":7170:7258   */\n    tag_431:\n        /* \"#utility.yul\":7278:7288   */\n      dup1\n        /* \"#utility.yul\":7274:7276   */\n      0x40\n        /* \"#utility.yul\":7267:7289   */\n      mstore\n        /* \"#utility.yul\":7057:7295   */\n      pop\n        /* \"#utility.yul\":7014:7295   */\n      pop\n      pop\n      jump\t// out\n        /* \"#utility.yul\":7301:7430   */\n    tag_293:\n        /* \"#utility.yul\":7335:7341   */\n      0x00\n        /* \"#utility.yul\":7362:7382   */\n      tag_434\n      tag_269\n      jump\t// in\n    tag_434:\n        /* \"#utility.yul\":7352:7382   */\n      swap1\n      pop\n        /* \"#utility.yul\":7391:7424   */\n      tag_435\n        /* \"#utility.yul\":7419:7423   */\n      dup3\n        /* \"#utility.yul\":7411:7417   */\n      dup3\n        /* \"#utility.yul\":7391:7424   */\n      tag_292\n      jump\t// in\n    tag_435:\n        /* \"#utility.yul\":7301:7430   */\n      swap2\n      swap1\n      pop\n      jump\t// out\n        /* \"#utility.yul\":7436:7744   */\n    tag_294:\n        /* \"#utility.yul\":7498:7502   */\n      0x00\n        /* \"#utility.yul\":7588:7606   */\n      0xffffffffffffffff\n        /* \"#utility.yul\":7580:7586   */\n      dup3\n        /* \"#utility.yul\":7577:7607   */\n      gt\n        /* \"#utility.yul\":7574:7630   */\n      iszero\n      tag_437\n      jumpi\n        /* \"#utility.yul\":7610:7628   */\n      tag_438\n      tag_291\n      jump\t// in\n    tag_438:\n        /* \"#utility.yul\":7574:7630   */\n    tag_437:\n        /* \"#utility.yul\":7648:7677   */\n      tag_439\n        /* \"#utility.yul\":7670:7676   */\n      dup3\n        /* \"#utility.yul\":7648:7677   */\n      tag_287\n      jump\t// in\n    tag_439:\n        /* \"#utility.yul\":7640:7677   */\n      swap1\n      pop\n        /* \"#utility.yul\":7732:7736   */\n      0x20\n        /* \"#utility.yul\":7726:7730   */\n      dup2\n        /* \"#utility.yul\":7722:7737   */\n      add\n        /* \"#utility.yul\":7714:7737   */\n      swap1\n      pop\n        /* \"#utility.yul\":7436:7744   */\n      swap2\n      swap1\n      pop\n      jump\t// out\n        /* \"#utility.yul\":7750:7898   */\n    tag_295:\n        /* \"#utility.yul\":7848:7854   */\n      dup3\n        /* \"#utility.yul\":7843:7846   */\n      dup2\n        /* \"#utility.yul\":7838:7841   */\n      dup4\n        /* \"#utility.yul\":7825:7855   */\n      calldatacopy\n        /* \"#utility.yul\":7889:7890   */\n      0x00\n        /* \"#utility.yul\":7880:7886   */\n      dup4\n        /* \"#utility.yul\":7875:7878   */\n      dup4\n        /* \"#utility.yul\":7871:7887   */\n      add\n        /* \"#utility.yul\":7864:7891   */\n      mstore\n        /* \"#utility.yul\":7750:7898   */\n      pop\n      pop\n      pop\n      jump\t// out\n        /* \"#utility.yul\":7904:8329   */\n    tag_296:\n        /* \"#utility.yul\":7982:7987   */\n      0x00\n        /* \"#utility.yul\":8007:8073   */\n      tag_442\n        /* \"#utility.yul\":8023:8072   */\n      tag_443\n        /* \"#utility.yul\":8065:8071   */\n      dup5\n        /* \"#utility.yul\":8023:8072   */\n      tag_294\n      jump\t// in\n    tag_443:\n        /* \"#utility.yul\":8007:8073   */\n      tag_293\n      jump\t// in\n    tag_442:\n        /* \"#utility.yul\":7998:8073   */\n      swap1\n      pop\n        /* \"#utility.yul\":8096:8102   */\n      dup3\n        /* \"#utility.yul\":8089:8094   */\n      dup2\n        /* \"#utility.yul\":8082:8103   */\n      mstore\n        /* \"#utility.yul\":8134:8138   */\n      0x20\n        /* \"#utility.yul\":8127:8132   */\n      dup2\n        /* \"#utility.yul\":8123:8139   */\n      add\n        /* \"#utility.yul\":8172:8175   */\n      dup5\n        /* \"#utility.yul\":8163:8169   */\n      dup5\n        /* \"#utility.yul\":8158:8161   */\n      dup5\n        /* \"#utility.yul\":8154:8170   */\n      add\n        /* \"#utility.yul\":8151:8176   */\n      gt\n        /* \"#utility.yul\":8148:8260   */\n      iszero\n      tag_444\n      jumpi\n        /* \"#utility.yul\":8179:8258   */\n      tag_445\n      tag_290\n      jump\t// in\n    tag_445:\n        /* \"#utility.yul\":8148:8260   */\n    tag_444:\n        /* \"#utility.yul\":8269:8323   */\n      tag_446\n        /* \"#utility.yul\":8316:8322   */\n      dup5\n        /* \"#utility.yul\":8311:8314   */\n      dup3\n        /* \"#utility.yul\":8306:8309   */\n      dup6\n        /* \"#utility.yul\":8269:8323   */\n      tag_295\n      jump\t// in\n    tag_446:\n        /* \"#utility.yul\":7988:8329   */\n      pop\n        /* \"#utility.yul\":7904:8329   */\n      swap4\n      swap3\n      pop\n      pop\n      pop\n      jump\t// out\n        /* \"#utility.yul\":8349:8689   */\n    tag_297:\n        /* \"#utility.yul\":8405:8410   */\n      0x00\n        /* \"#utility.yul\":8454:8457   */\n      dup3\n        /* \"#utility.yul\":8447:8451   */\n      0x1f\n        /* \"#utility.yul\":8439:8445   */\n      dup4\n        /* \"#utility.yul\":8435:8452   */\n      add\n        /* \"#utility.yul\":8431:8458   */\n      slt\n        /* \"#utility.yul\":8421:8543   */\n      tag_448\n      jumpi\n        /* \"#utility.yul\":8462:8541   */\n      tag_449\n      tag_289\n      jump\t// in\n    tag_449:\n        /* \"#utility.yul\":8421:8543   */\n    tag_448:\n        /* \"#utility.yul\":8579:8585   */\n      dup2\n        /* \"#utility.yul\":8566:8586   */\n      calldataload\n        /* \"#utility.yul\":8604:8683   */\n      tag_450\n        /* \"#utility.yul\":8679:8682   */\n      dup5\n        /* \"#utility.yul\":8671:8677   */\n      dup3\n        /* \"#utility.yul\":8664:8668   */\n      0x20\n        /* \"#utility.yul\":8656:8662   */\n      dup7\n        /* \"#utility.yul\":8652:8669   */\n      add\n        /* \"#utility.yul\":8604:8683   */\n      tag_296\n      jump\t// in\n    tag_450:\n        /* \"#utility.yul\":8595:8683   */\n      swap2\n      pop\n        /* \"#utility.yul\":8411:8689   */\n      pop\n        /* \"#utility.yul\":8349:8689   */\n      swap3\n      swap2\n      pop\n      pop\n      jump\t// out\n        /* \"#utility.yul\":8695:9494   */\n    tag_80:\n        /* \"#utility.yul\":8782:8788   */\n      0x00\n        /* \"#utility.yul\":8790:8796   */\n      dup1\n        /* \"#utility.yul\":8798:8804   */\n      0x00\n        /* \"#utility.yul\":8847:8849   */\n      0x60\n        /* \"#utility.yul\":8835:8844   */\n      dup5\n        /* \"#utility.yul\":8826:8833   */\n      dup7\n        /* \"#utility.yul\":8822:8845   */\n      sub\n        /* \"#utility.yul\":8818:8850   */\n      slt\n        /* \"#utility.yul\":8815:8934   */\n      iszero\n      tag_452\n      jumpi\n        /* \"#utility.yul\":8853:8932   */\n      tag_453\n      tag_270\n      jump\t// in\n    tag_453:\n        /* \"#utility.yul\":8815:8934   */\n    tag_452:\n        /* \"#utility.yul\":8973:8974   */\n      0x00\n        /* \"#utility.yul\":8998:9051   */\n      tag_454\n        /* \"#utility.yul\":9043:9050   */\n      dup7\n        /* \"#utility.yul\":9034:9040   */\n      dup3\n        /* \"#utility.yul\":9023:9032   */\n      dup8\n        /* \"#utility.yul\":9019:9041   */\n      add\n        /* \"#utility.yul\":8998:9051   */\n      tag_278\n      jump\t// in\n    tag_454:\n        /* \"#utility.yul\":8988:9051   */\n      swap4\n      pop\n        /* \"#utility.yul\":8944:9061   */\n      pop\n        /* \"#utility.yul\":9100:9102   */\n      0x20\n        /* \"#utility.yul\":9126:9179   */\n      tag_455\n        /* \"#utility.yul\":9171:9178   */\n      dup7\n        /* \"#utility.yul\":9162:9168   */\n      dup3\n        /* \"#utility.yul\":9151:9160   */\n      dup8\n        /* \"#utility.yul\":9147:9169   */\n      add\n        /* \"#utility.yul\":9126:9179   */\n      tag_278\n      jump\t// in\n    tag_455:\n        /* \"#utility.yul\":9116:9179   */\n      swap3\n      pop\n        /* \"#utility.yul\":9071:9189   */\n      pop\n        /* \"#utility.yul\":9256:9258   */\n      0x40\n        /* \"#utility.yul\":9245:9254   */\n      dup5\n        /* \"#utility.yul\":9241:9259   */\n      add\n        /* \"#utility.yul\":9228:9260   */\n      calldataload\n        /* \"#utility.yul\":9287:9305   */\n      0xffffffffffffffff\n        /* \"#utility.yul\":9279:9285   */\n      dup2\n        /* \"#utility.yul\":9276:9306   */\n      gt\n        /* \"#utility.yul\":9273:9390   */\n      iszero\n      tag_456\n      jumpi\n        /* \"#utility.yul\":9309:9388   */\n      tag_457\n      tag_271\n      jump\t// in\n    tag_457:\n        /* \"#utility.yul\":9273:9390   */\n    tag_456:\n        /* \"#utility.yul\":9414:9477   */\n      tag_458\n        /* \"#utility.yul\":9469:9476   */\n      dup7\n        /* \"#utility.yul\":9460:9466   */\n      dup3\n        /* \"#utility.yul\":9449:9458   */\n      dup8\n        /* \"#utility.yul\":9445:9467   */\n      add\n        /* \"#utility.yul\":9414:9477   */\n      tag_297\n      jump\t// in\n    tag_458:\n        /* \"#utility.yul\":9404:9477   */\n      swap2\n      pop\n        /* \"#utility.yul\":9199:9487   */\n      pop\n        /* \"#utility.yul\":8695:9494   */\n      swap3\n      pop\n      swap3\n      pop\n      swap3\n      jump\t// out\n        /* \"#utility.yul\":9500:9675   */\n    tag_298:\n        /* \"#utility.yul\":9640:9667   */\n      0x4e6f742077697468696e20726f756e64206475726174696f6e00000000000000\n        /* \"#utility.yul\":9636:9637   */\n      0x00\n        /* \"#utility.yul\":9628:9634   */\n      dup3\n        /* \"#utility.yul\":9624:9638   */\n      add\n        /* \"#utility.yul\":9617:9668   */\n      mstore\n        /* \"#utility.yul\":9500:9675   */\n      pop\n      jump\t// out\n        /* \"#utility.yul\":9681:10047   */\n    tag_299:\n        /* \"#utility.yul\":9823:9826   */\n      0x00\n        /* \"#utility.yul\":9844:9911   */\n      tag_461\n        /* \"#utility.yul\":9908:9910   */\n      0x19\n        /* \"#utility.yul\":9903:9906   */\n      dup4\n        /* \"#utility.yul\":9844:9911   */\n      tag_285\n      jump\t// in\n    tag_461:\n        /* \"#utility.yul\":9837:9911   */\n      swap2\n      pop\n        /* \"#utility.yul\":9920:10013   */\n      tag_462\n        /* \"#utility.yul\":10009:10012   */\n      dup3\n        /* \"#utility.yul\":9920:10013   */\n      tag_298\n      jump\t// in\n    tag_462:\n        /* \"#utility.yul\":10038:10040   */\n      0x20\n        /* \"#utility.yul\":10033:10036   */\n      dup3\n        /* \"#utility.yul\":10029:10041   */\n      add\n        /* \"#utility.yul\":10022:10041   */\n      swap1\n      pop\n        /* \"#utility.yul\":9681:10047   */\n      swap2\n      swap1\n      pop\n      jump\t// out\n        /* \"#utility.yul\":10053:10472   */\n    tag_94:\n        /* \"#utility.yul\":10219:10223   */\n      0x00\n        /* \"#utility.yul\":10257:10259   */\n      0x20\n        /* \"#utility.yul\":10246:10255   */\n      dup3\n        /* \"#utility.yul\":10242:10260   */\n      add\n        /* \"#utility.yul\":10234:10260   */\n      swap1\n      pop\n        /* \"#utility.yul\":10306:10315   */\n      dup2\n        /* \"#utility.yul\":10300:10304   */\n      dup2\n        /* \"#utility.yul\":10296:10316   */\n      sub\n        /* \"#utility.yul\":10292:10293   */\n      0x00\n        /* \"#utility.yul\":10281:10290   */\n      dup4\n        /* \"#utility.yul\":10277:10294   */\n      add\n        /* \"#utility.yul\":10270:10317   */\n      mstore\n        /* \"#utility.yul\":10334:10465   */\n      tag_464\n        /* \"#utility.yul\":10460:10464   */\n      dup2\n        /* \"#utility.yul\":10334:10465   */\n      tag_299\n      jump\t// in\n    tag_464:\n        /* \"#utility.yul\":10326:10465   */\n      swap1\n      pop\n        /* \"#utility.yul\":10053:10472   */\n      swap2\n      swap1\n      pop\n      jump\t// out\n        /* \"#utility.yul\":10478:10647   */\n    tag_300:\n        /* \"#utility.yul\":10618:10639   */\n      0x4e6f20636c61696d61626c6520616d6f756e7400000000000000000000000000\n        /* \"#utility.yul\":10614:10615   */\n      0x00\n        /* \"#utility.yul\":10606:10612   */\n      dup3\n        /* \"#utility.yul\":10602:10616   */\n      add\n        /* \"#utility.yul\":10595:10640   */\n      mstore\n        /* \"#utility.yul\":10478:10647   */\n      pop\n      jump\t// out\n        /* \"#utility.yul\":10653:11019   */\n    tag_301:\n        /* \"#utility.yul\":10795:10798   */\n      0x00\n        /* \"#utility.yul\":10816:10883   */\n      tag_467\n        /* \"#utility.yul\":10880:10882   */\n      0x13\n        /* \"#utility.yul\":10875:10878   */\n      dup4\n        /* \"#utility.yul\":10816:10883   */\n      tag_285\n      jump\t// in\n    tag_467:\n        /* \"#utility.yul\":10809:10883   */\n      swap2\n      pop\n        /* \"#utility.yul\":10892:10985   */\n      tag_468\n        /* \"#utility.yul\":10981:10984   */\n      dup3\n        /* \"#utility.yul\":10892:10985   */\n      tag_300\n      jump\t// in\n    tag_468:\n        /* \"#utility.yul\":11010:11012   */\n      0x20\n        /* \"#utility.yul\":11005:11008   */\n      dup3\n        /* \"#utility.yul\":11001:11013   */\n      add\n        /* \"#utility.yul\":10994:11013   */\n      swap1\n      pop\n        /* \"#utility.yul\":10653:11019   */\n      swap2\n      swap1\n      pop\n      jump\t// out\n        /* \"#utility.yul\":11025:11444   */\n    tag_97:\n        /* \"#utility.yul\":11191:11195   */\n      0x00\n        /* \"#utility.yul\":11229:11231   */\n      0x20\n        /* \"#utility.yul\":11218:11227   */\n      dup3\n        /* \"#utility.yul\":11214:11232   */\n      add\n        /* \"#utility.yul\":11206:11232   */\n      swap1\n      pop\n        /* \"#utility.yul\":11278:11287   */\n      dup2\n        /* \"#utility.yul\":11272:11276   */\n      dup2\n        /* \"#utility.yul\":11268:11288   */\n      sub\n        /* \"#utility.yul\":11264:11265   */\n      0x00\n        /* \"#utility.yul\":11253:11262   */\n      dup4\n        /* \"#utility.yul\":11249:11266   */\n      add\n        /* \"#utility.yul\":11242:11289   */\n      mstore\n        /* \"#utility.yul\":11306:11437   */\n      tag_470\n        /* \"#utility.yul\":11432:11436   */\n      dup2\n        /* \"#utility.yul\":11306:11437   */\n      tag_301\n      jump\t// in\n    tag_470:\n        /* \"#utility.yul\":11298:11437   */\n      swap1\n      pop\n        /* \"#utility.yul\":11025:11444   */\n      swap2\n      swap1\n      pop\n      jump\t// out\n        /* \"#utility.yul\":11450:11625   */\n    tag_302:\n        /* \"#utility.yul\":11590:11617   */\n      0x496e73756666696369656e742066756e647320696e206a617200000000000000\n        /* \"#utility.yul\":11586:11587   */\n      0x00\n        /* \"#utility.yul\":11578:11584   */\n      dup3\n        /* \"#utility.yul\":11574:11588   */\n      add\n        /* \"#utility.yul\":11567:11618   */\n      mstore\n        /* \"#utility.yul\":11450:11625   */\n      pop\n      jump\t// out\n        /* \"#utility.yul\":11631:11997   */\n    tag_303:\n        /* \"#utility.yul\":11773:11776   */\n      0x00\n        /* \"#utility.yul\":11794:11861   */\n      tag_473\n        /* \"#utility.yul\":11858:11860   */\n      0x19\n        /* \"#utility.yul\":11853:11856   */\n      dup4\n        /* \"#utility.yul\":11794:11861   */\n      tag_285\n      jump\t// in\n    tag_473:\n        /* \"#utility.yul\":11787:11861   */\n      swap2\n      pop\n        /* \"#utility.yul\":11870:11963   */\n      tag_474\n        /* \"#utility.yul\":11959:11962   */\n      dup3\n        /* \"#utility.yul\":11870:11963   */\n      tag_302\n      jump\t// in\n    tag_474:\n        /* \"#utility.yul\":11988:11990   */\n      0x20\n        /* \"#utility.yul\":11983:11986   */\n      dup3\n        /* \"#utility.yul\":11979:11991   */\n      add\n        /* \"#utility.yul\":11972:11991   */\n      swap1\n      pop\n        /* \"#utility.yul\":11631:11997   */\n      swap2\n      swap1\n      pop\n      jump\t// out\n        /* \"#utility.yul\":12003:12422   */\n    tag_100:\n        /* \"#utility.yul\":12169:12173   */\n      0x00\n        /* \"#utility.yul\":12207:12209   */\n      0x20\n        /* \"#utility.yul\":12196:12205   */\n      dup3\n        /* \"#utility.yul\":12192:12210   */\n      add\n        /* \"#utility.yul\":12184:12210   */\n      swap1\n      pop\n        /* \"#utility.yul\":12256:12265   */\n      dup2\n        /* \"#utility.yul\":12250:12254   */\n      dup2\n        /* \"#utility.yul\":12246:12266   */\n      sub\n        /* \"#utility.yul\":12242:12243   */\n      0x00\n        /* \"#utility.yul\":12231:12240   */\n      dup4\n        /* \"#utility.yul\":12227:12244   */\n      add\n        /* \"#utility.yul\":12220:12267   */\n      mstore\n        /* \"#utility.yul\":12284:12415   */\n      tag_476\n        /* \"#utility.yul\":12410:12414   */\n      dup2\n        /* \"#utility.yul\":12284:12415   */\n      tag_303\n      jump\t// in\n    tag_476:\n        /* \"#utility.yul\":12276:12415   */\n      swap1\n      pop\n        /* \"#utility.yul\":12003:12422   */\n      swap2\n      swap1\n      pop\n      jump\t// out\n        /* \"#utility.yul\":12428:12583   */\n    tag_304:\n        /* \"#utility.yul\":12568:12575   */\n      0x5472757374000000000000000000000000000000000000000000000000000000\n        /* \"#utility.yul\":12564:12565   */\n      0x00\n        /* \"#utility.yul\":12556:12562   */\n      dup3\n        /* \"#utility.yul\":12552:12566   */\n      add\n        /* \"#utility.yul\":12545:12576   */\n      mstore\n        /* \"#utility.yul\":12428:12583   */\n      pop\n      jump\t// out\n        /* \"#utility.yul\":12589:12954   */\n    tag_305:\n        /* \"#utility.yul\":12731:12734   */\n      0x00\n        /* \"#utility.yul\":12752:12818   */\n      tag_479\n        /* \"#utility.yul\":12816:12817   */\n      0x05\n        /* \"#utility.yul\":12811:12814   */\n      dup4\n        /* \"#utility.yul\":12752:12818   */\n      tag_285\n      jump\t// in\n    tag_479:\n        /* \"#utility.yul\":12745:12818   */\n      swap2\n      pop\n        /* \"#utility.yul\":12827:12920   */\n      tag_480\n        /* \"#utility.yul\":12916:12919   */\n      dup3\n        /* \"#utility.yul\":12827:12920   */\n      tag_304\n      jump\t// in\n    tag_480:\n        /* \"#utility.yul\":12945:12947   */\n      0x20\n        /* \"#utility.yul\":12940:12943   */\n      dup3\n        /* \"#utility.yul\":12936:12948   */\n      add\n        /* \"#utility.yul\":12929:12948   */\n      swap1\n      pop\n        /* \"#utility.yul\":12589:12954   */\n      swap2\n      swap1\n      pop\n      jump\t// out\n        /* \"#utility.yul\":12960:13489   */\n    tag_102:\n        /* \"#utility.yul\":13154:13158   */\n      0x00\n        /* \"#utility.yul\":13192:13194   */\n      0x40\n        /* \"#utility.yul\":13181:13190   */\n      dup3\n        /* \"#utility.yul\":13177:13195   */\n      add\n        /* \"#utility.yul\":13169:13195   */\n      swap1\n      pop\n        /* \"#utility.yul\":13205:13276   */\n      tag_482\n        /* \"#utility.yul\":13273:13274   */\n      0x00\n        /* \"#utility.yul\":13262:13271   */\n      dup4\n        /* \"#utility.yul\":13258:13275   */\n      add\n        /* \"#utility.yul\":13249:13255   */\n      dup5\n        /* \"#utility.yul\":13205:13276   */\n      tag_276\n      jump\t// in\n    tag_482:\n        /* \"#utility.yul\":13323:13332   */\n      dup2\n        /* \"#utility.yul\":13317:13321   */\n      dup2\n        /* \"#utility.yul\":13313:13333   */\n      sub\n        /* \"#utility.yul\":13308:13310   */\n      0x20\n        /* \"#utility.yul\":13297:13306   */\n      dup4\n        /* \"#utility.yul\":13293:13311   */\n      add\n        /* \"#utility.yul\":13286:13334   */\n      mstore\n        /* \"#utility.yul\":13351:13482   */\n      tag_483\n        /* \"#utility.yul\":13477:13481   */\n      dup2\n        /* \"#utility.yul\":13351:13482   */\n      tag_305\n      jump\t// in\n    tag_483:\n        /* \"#utility.yul\":13343:13482   */\n      swap1\n      pop\n        /* \"#utility.yul\":12960:13489   */\n      swap3\n      swap2\n      pop\n      pop\n      jump\t// out\n        /* \"#utility.yul\":13495:13638   */\n    tag_306:\n        /* \"#utility.yul\":13552:13557   */\n      0x00\n        /* \"#utility.yul\":13583:13589   */\n      dup2\n        /* \"#utility.yul\":13577:13590   */\n      mload\n        /* \"#utility.yul\":13568:13590   */\n      swap1\n      pop\n        /* \"#utility.yul\":13599:13632   */\n      tag_485\n        /* \"#utility.yul\":13626:13631   */\n      dup2\n        /* \"#utility.yul\":13599:13632   */\n      tag_277\n      jump\t// in\n    tag_485:\n        /* \"#utility.yul\":13495:13638   */\n      swap3\n      swap2\n      pop\n      pop\n      jump\t// out\n        /* \"#utility.yul\":13644:13995   */\n    tag_106:\n        /* \"#utility.yul\":13714:13720   */\n      0x00\n        /* \"#utility.yul\":13763:13765   */\n      0x20\n        /* \"#utility.yul\":13751:13760   */\n      dup3\n        /* \"#utility.yul\":13742:13749   */\n      dup5\n        /* \"#utility.yul\":13738:13761   */\n      sub\n        /* \"#utility.yul\":13734:13766   */\n      slt\n        /* \"#utility.yul\":13731:13850   */\n      iszero\n      tag_487\n      jumpi\n        /* \"#utility.yul\":13769:13848   */\n      tag_488\n      tag_270\n      jump\t// in\n    tag_488:\n        /* \"#utility.yul\":13731:13850   */\n    tag_487:\n        /* \"#utility.yul\":13889:13890   */\n      0x00\n        /* \"#utility.yul\":13914:13978   */\n      tag_489\n        /* \"#utility.yul\":13970:13977   */\n      dup5\n        /* \"#utility.yul\":13961:13967   */\n      dup3\n        /* \"#utility.yul\":13950:13959   */\n      dup6\n        /* \"#utility.yul\":13946:13968   */\n      add\n        /* \"#utility.yul\":13914:13978   */\n      tag_306\n      jump\t// in\n    tag_489:\n        /* \"#utility.yul\":13904:13978   */\n      swap2\n      pop\n        /* \"#utility.yul\":13860:13988   */\n      pop\n        /* \"#utility.yul\":13644:13995   */\n      swap3\n      swap2\n      pop\n      pop\n      jump\t// out\n        /* \"#utility.yul\":14001:14175   */\n    tag_307:\n        /* \"#utility.yul\":14141:14167   */\n      0x496e73756666696369656e742054727573742073636f72650000000000000000\n        /* \"#utility.yul\":14137:14138   */\n      0x00\n        /* \"#utility.yul\":14129:14135   */\n      dup3\n        /* \"#utility.yul\":14125:14139   */\n      add\n        /* \"#utility.yul\":14118:14168   */\n      mstore\n        /* \"#utility.yul\":14001:14175   */\n      pop\n      jump\t// out\n        /* \"#utility.yul\":14181:14547   */\n    tag_308:\n        /* \"#utility.yul\":14323:14326   */\n      0x00\n        /* \"#utility.yul\":14344:14411   */\n      tag_492\n        /* \"#utility.yul\":14408:14410   */\n      0x18\n        /* \"#utility.yul\":14403:14406   */\n      dup4\n        /* \"#utility.yul\":14344:14411   */\n      tag_285\n      jump\t// in\n    tag_492:\n        /* \"#utility.yul\":14337:14411   */\n      swap2\n      pop\n        /* \"#utility.yul\":14420:14513   */\n      tag_493\n        /* \"#utility.yul\":14509:14512   */\n      dup3\n        /* \"#utility.yul\":14420:14513   */\n      tag_307\n      jump\t// in\n    tag_493:\n        /* \"#utility.yul\":14538:14540   */\n      0x20\n        /* \"#utility.yul\":14533:14536   */\n      dup3\n        /* \"#utility.yul\":14529:14541   */\n      add\n        /* \"#utility.yul\":14522:14541   */\n      swap1\n      pop\n        /* \"#utility.yul\":14181:14547   */\n      swap2\n      swap1\n      pop\n      jump\t// out\n        /* \"#utility.yul\":14553:14972   */\n    tag_109:\n        /* \"#utility.yul\":14719:14723   */\n      0x00\n        /* \"#utility.yul\":14757:14759   */\n      0x20\n        /* \"#utility.yul\":14746:14755   */\n      dup3\n        /* \"#utility.yul\":14742:14760   */\n      add\n        /* \"#utility.yul\":14734:14760   */\n      swap1\n      pop\n        /* \"#utility.yul\":14806:14815   */\n      dup2\n        /* \"#utility.yul\":14800:14804   */\n      dup2\n        /* \"#utility.yul\":14796:14816   */\n      sub\n        /* \"#utility.yul\":14792:14793   */\n      0x00\n        /* \"#utility.yul\":14781:14790   */\n      dup4\n        /* \"#utility.yul\":14777:14794   */\n      add\n        /* \"#utility.yul\":14770:14817   */\n      mstore\n        /* \"#utility.yul\":14834:14965   */\n      tag_495\n        /* \"#utility.yul\":14960:14964   */\n      dup2\n        /* \"#utility.yul\":14834:14965   */\n      tag_308\n      jump\t// in\n    tag_495:\n        /* \"#utility.yul\":14826:14965   */\n      swap1\n      pop\n        /* \"#utility.yul\":14553:14972   */\n      swap2\n      swap1\n      pop\n      jump\t// out\n        /* \"#utility.yul\":14978:15172   */\n    tag_111:\n        /* \"#utility.yul\":15018:15022   */\n      0x00\n        /* \"#utility.yul\":15038:15058   */\n      tag_497\n        /* \"#utility.yul\":15056:15057   */\n      dup3\n        /* \"#utility.yul\":15038:15058   */\n      tag_266\n      jump\t// in\n    tag_497:\n        /* \"#utility.yul\":15033:15058   */\n      swap2\n      pop\n        /* \"#utility.yul\":15072:15092   */\n      tag_498\n        /* \"#utility.yul\":15090:15091   */\n      dup4\n        /* \"#utility.yul\":15072:15092   */\n      tag_266\n      jump\t// in\n    tag_498:\n        /* \"#utility.yul\":15067:15092   */\n      swap3\n      pop\n        /* \"#utility.yul\":15116:15117   */\n      dup3\n        /* \"#utility.yul\":15113:15114   */\n      dup3\n        /* \"#utility.yul\":15109:15118   */\n      sub\n        /* \"#utility.yul\":15101:15118   */\n      swap1\n      pop\n        /* \"#utility.yul\":15140:15141   */\n      dup2\n        /* \"#utility.yul\":15134:15138   */\n      dup2\n        /* \"#utility.yul\":15131:15142   */\n      gt\n        /* \"#utility.yul\":15128:15165   */\n      iszero\n      tag_499\n      jumpi\n        /* \"#utility.yul\":15145:15163   */\n      tag_500\n      tag_267\n      jump\t// in\n    tag_500:\n        /* \"#utility.yul\":15128:15165   */\n    tag_499:\n        /* \"#utility.yul\":14978:15172   */\n      swap3\n      swap2\n      pop\n      pop\n      jump\t// out\n        /* \"#utility.yul\":15178:15325   */\n    tag_309:\n        /* \"#utility.yul\":15279:15290   */\n      0x00\n        /* \"#utility.yul\":15316:15319   */\n      dup2\n        /* \"#utility.yul\":15301:15319   */\n      swap1\n      pop\n        /* \"#utility.yul\":15178:15325   */\n      swap3\n      swap2\n      pop\n      pop\n      jump\t// out\n        /* \"#utility.yul\":15331:15445   */\n    tag_310:\n      pop\n      jump\t// out\n        /* \"#utility.yul\":15451:15849   */\n    tag_311:\n        /* \"#utility.yul\":15610:15613   */\n      0x00\n        /* \"#utility.yul\":15631:15714   */\n      tag_504\n        /* \"#utility.yul\":15712:15713   */\n      0x00\n        /* \"#utility.yul\":15707:15710   */\n      dup4\n        /* \"#utility.yul\":15631:15714   */\n      tag_309\n      jump\t// in\n    tag_504:\n        /* \"#utility.yul\":15624:15714   */\n      swap2\n      pop\n        /* \"#utility.yul\":15723:15816   */\n      tag_505\n        /* \"#utility.yul\":15812:15815   */\n      dup3\n        /* \"#utility.yul\":15723:15816   */\n      tag_310\n      jump\t// in\n    tag_505:\n        /* \"#utility.yul\":15841:15842   */\n      0x00\n        /* \"#utility.yul\":15836:15839   */\n      dup3\n        /* \"#utility.yul\":15832:15843   */\n      add\n        /* \"#utility.yul\":15825:15843   */\n      swap1\n      pop\n        /* \"#utility.yul\":15451:15849   */\n      swap2\n      swap1\n      pop\n      jump\t// out\n        /* \"#utility.yul\":15855:16234   */\n    tag_114:\n        /* \"#utility.yul\":16039:16042   */\n      0x00\n        /* \"#utility.yul\":16061:16208   */\n      tag_507\n        /* \"#utility.yul\":16204:16207   */\n      dup3\n        /* \"#utility.yul\":16061:16208   */\n      tag_311\n      jump\t// in\n    tag_507:\n        /* \"#utility.yul\":16054:16208   */\n      swap2\n      pop\n        /* \"#utility.yul\":16225:16228   */\n      dup2\n        /* \"#utility.yul\":16218:16228   */\n      swap1\n      pop\n        /* \"#utility.yul\":15855:16234   */\n      swap2\n      swap1\n      pop\n      jump\t// out\n        /* \"#utility.yul\":16240:16411   */\n    tag_312:\n        /* \"#utility.yul\":16380:16403   */\n      0x4574686572207472616e73666572206661696c65640000000000000000000000\n        /* \"#utility.yul\":16376:16377   */\n      0x00\n        /* \"#utility.yul\":16368:16374   */\n      dup3\n        /* \"#utility.yul\":16364:16378   */\n      add\n        /* \"#utility.yul\":16357:16404   */\n      mstore\n        /* \"#utility.yul\":16240:16411   */\n      pop\n      jump\t// out\n        /* \"#utility.yul\":16417:16783   */\n    tag_313:\n        /* \"#utility.yul\":16559:16562   */\n      0x00\n        /* \"#utility.yul\":16580:16647   */\n      tag_510\n        /* \"#utility.yul\":16644:16646   */\n      0x15\n        /* \"#utility.yul\":16639:16642   */\n      dup4\n        /* \"#utility.yul\":16580:16647   */\n      tag_285\n      jump\t// in\n    tag_510:\n        /* \"#utility.yul\":16573:16647   */\n      swap2\n      pop\n        /* \"#utility.yul\":16656:16749   */\n      tag_511\n        /* \"#utility.yul\":16745:16748   */\n      dup3\n        /* \"#utility.yul\":16656:16749   */\n      tag_312\n      jump\t// in\n    tag_511:\n        /* \"#utility.yul\":16774:16776   */\n      0x20\n        /* \"#utility.yul\":16769:16772   */\n      dup3\n        /* \"#utility.yul\":16765:16777   */\n      add\n        /* \"#utility.yul\":16758:16777   */\n      swap1\n      pop\n        /* \"#utility.yul\":16417:16783   */\n      swap2\n      swap1\n      pop\n      jump\t// out\n        /* \"#utility.yul\":16789:17208   */\n    tag_120:\n        /* \"#utility.yul\":16955:16959   */\n      0x00\n        /* \"#utility.yul\":16993:16995   */\n      0x20\n        /* \"#utility.yul\":16982:16991   */\n      dup3\n        /* \"#utility.yul\":16978:16996   */\n      add\n        /* \"#utility.yul\":16970:16996   */\n      swap1\n      pop\n        /* \"#utility.yul\":17042:17051   */\n      dup2\n        /* \"#utility.yul\":17036:17040   */\n      dup2\n        /* \"#utility.yul\":17032:17052   */\n      sub\n        /* \"#utility.yul\":17028:17029   */\n      0x00\n        /* \"#utility.yul\":17017:17026   */\n      dup4\n        /* \"#utility.yul\":17013:17030   */\n      add\n        /* \"#utility.yul\":17006:17053   */\n      mstore\n        /* \"#utility.yul\":17070:17201   */\n      tag_513\n        /* \"#utility.yul\":17196:17200   */\n      dup2\n        /* \"#utility.yul\":17070:17201   */\n      tag_313\n      jump\t// in\n    tag_513:\n        /* \"#utility.yul\":17062:17201   */\n      swap1\n      pop\n        /* \"#utility.yul\":16789:17208   */\n      swap2\n      swap1\n      pop\n      jump\t// out\n        /* \"#utility.yul\":17214:17386   */\n    tag_314:\n        /* \"#utility.yul\":17354:17378   */\n      0x496e636f727265637420457468657220616d6f756e7400000000000000000000\n        /* \"#utility.yul\":17350:17351   */\n      0x00\n        /* \"#utility.yul\":17342:17348   */\n      dup3\n        /* \"#utility.yul\":17338:17352   */\n      add\n        /* \"#utility.yul\":17331:17379   */\n      mstore\n        /* \"#utility.yul\":17214:17386   */\n      pop\n      jump\t// out\n        /* \"#utility.yul\":17392:17758   */\n    tag_315:\n        /* \"#utility.yul\":17534:17537   */\n      0x00\n        /* \"#utility.yul\":17555:17622   */\n      tag_516\n        /* \"#utility.yul\":17619:17621   */\n      0x16\n        /* \"#utility.yul\":17614:17617   */\n      dup4\n        /* \"#utility.yul\":17555:17622   */\n      tag_285\n      jump\t// in\n    tag_516:\n        /* \"#utility.yul\":17548:17622   */\n      swap2\n      pop\n        /* \"#utility.yul\":17631:17724   */\n      tag_517\n        /* \"#utility.yul\":17720:17723   */\n      dup3\n        /* \"#utility.yul\":17631:17724   */\n      tag_314\n      jump\t// in\n    tag_517:\n        /* \"#utility.yul\":17749:17751   */\n      0x20\n        /* \"#utility.yul\":17744:17747   */\n      dup3\n        /* \"#utility.yul\":17740:17752   */\n      add\n        /* \"#utility.yul\":17733:17752   */\n      swap1\n      pop\n        /* \"#utility.yul\":17392:17758   */\n      swap2\n      swap1\n      pop\n      jump\t// out\n        /* \"#utility.yul\":17764:18183   */\n    tag_129:\n        /* \"#utility.yul\":17930:17934   */\n      0x00\n        /* \"#utility.yul\":17968:17970   */\n      0x20\n        /* \"#utility.yul\":17957:17966   */\n      dup3\n        /* \"#utility.yul\":17953:17971   */\n      add\n        /* \"#utility.yul\":17945:17971   */\n      swap1\n      pop\n        /* \"#utility.yul\":18017:18026   */\n      dup2\n        /* \"#utility.yul\":18011:18015   */\n      dup2\n        /* \"#utility.yul\":18007:18027   */\n      sub\n        /* \"#utility.yul\":18003:18004   */\n      0x00\n        /* \"#utility.yul\":17992:18001   */\n      dup4\n        /* \"#utility.yul\":17988:18005   */\n      add\n        /* \"#utility.yul\":17981:18028   */\n      mstore\n        /* \"#utility.yul\":18045:18176   */\n      tag_519\n        /* \"#utility.yul\":18171:18175   */\n      dup2\n        /* \"#utility.yul\":18045:18176   */\n      tag_315\n      jump\t// in\n    tag_519:\n        /* \"#utility.yul\":18037:18176   */\n      swap1\n      pop\n        /* \"#utility.yul\":17764:18183   */\n      swap2\n      swap1\n      pop\n      jump\t// out\n        /* \"#utility.yul\":18189:18416   */\n    tag_316:\n        /* \"#utility.yul\":18329:18363   */\n      0x4465706f73697420616d6f756e74206d75737420626520677265617465722074\n        /* \"#utility.yul\":18325:18326   */\n      0x00\n        /* \"#utility.yul\":18317:18323   */\n      dup3\n        /* \"#utility.yul\":18313:18327   */\n      add\n        /* \"#utility.yul\":18306:18364   */\n      mstore\n        /* \"#utility.yul\":18398:18408   */\n      0x68616e207a65726f000000000000000000000000000000000000000000000000\n        /* \"#utility.yul\":18393:18395   */\n      0x20\n        /* \"#utility.yul\":18385:18391   */\n      dup3\n        /* \"#utility.yul\":18381:18396   */\n      add\n        /* \"#utility.yul\":18374:18409   */\n      mstore\n        /* \"#utility.yul\":18189:18416   */\n      pop\n      jump\t// out\n        /* \"#utility.yul\":18422:18788   */\n    tag_317:\n        /* \"#utility.yul\":18564:18567   */\n      0x00\n        /* \"#utility.yul\":18585:18652   */\n      tag_522\n        /* \"#utility.yul\":18649:18651   */\n      0x28\n        /* \"#utility.yul\":18644:18647   */\n      dup4\n        /* \"#utility.yul\":18585:18652   */\n      tag_285\n      jump\t// in\n    tag_522:\n        /* \"#utility.yul\":18578:18652   */\n      swap2\n      pop\n        /* \"#utility.yul\":18661:18754   */\n      tag_523\n        /* \"#utility.yul\":18750:18753   */\n      dup3\n        /* \"#utility.yul\":18661:18754   */\n      tag_316\n      jump\t// in\n    tag_523:\n        /* \"#utility.yul\":18779:18781   */\n      0x40\n        /* \"#utility.yul\":18774:18777   */\n      dup3\n        /* \"#utility.yul\":18770:18782   */\n      add\n        /* \"#utility.yul\":18763:18782   */\n      swap1\n      pop\n        /* \"#utility.yul\":18422:18788   */\n      swap2\n      swap1\n      pop\n      jump\t// out\n        /* \"#utility.yul\":18794:19213   */\n    tag_133:\n        /* \"#utility.yul\":18960:18964   */\n      0x00\n        /* \"#utility.yul\":18998:19000   */\n      0x20\n        /* \"#utility.yul\":18987:18996   */\n      dup3\n        /* \"#utility.yul\":18983:19001   */\n      add\n        /* \"#utility.yul\":18975:19001   */\n      swap1\n      pop\n        /* \"#utility.yul\":19047:19056   */\n      dup2\n        /* \"#utility.yul\":19041:19045   */\n      dup2\n        /* \"#utility.yul\":19037:19057   */\n      sub\n        /* \"#utility.yul\":19033:19034   */\n      0x00\n        /* \"#utility.yul\":19022:19031   */\n      dup4\n        /* \"#utility.yul\":19018:19035   */\n      add\n        /* \"#utility.yul\":19011:19058   */\n      mstore\n        /* \"#utility.yul\":19075:19206   */\n      tag_525\n        /* \"#utility.yul\":19201:19205   */\n      dup2\n        /* \"#utility.yul\":19075:19206   */\n      tag_317\n      jump\t// in\n    tag_525:\n        /* \"#utility.yul\":19067:19206   */\n      swap1\n      pop\n        /* \"#utility.yul\":18794:19213   */\n      swap2\n      swap1\n      pop\n      jump\t// out\n        /* \"#utility.yul\":19219:19304   */\n    tag_318:\n        /* \"#utility.yul\":19264:19271   */\n      0x00\n        /* \"#utility.yul\":19293:19298   */\n      dup2\n        /* \"#utility.yul\":19282:19298   */\n      swap1\n      pop\n        /* \"#utility.yul\":19219:19304   */\n      swap2\n      swap1\n      pop\n      jump\t// out\n        /* \"#utility.yul\":19310:19411   */\n    tag_319:\n        /* \"#utility.yul\":19346:19353   */\n      0x00\n        /* \"#utility.yul\":19386:19404   */\n      0xffffffffffffffff\n        /* \"#utility.yul\":19379:19384   */\n      dup3\n        /* \"#utility.yul\":19375:19405   */\n      and\n        /* \"#utility.yul\":19364:19405   */\n      swap1\n      pop\n        /* \"#utility.yul\":19310:19411   */\n      swap2\n      swap1\n      pop\n      jump\t// out\n        /* \"#utility.yul\":19417:19573   */\n    tag_320:\n        /* \"#utility.yul\":19474:19483   */\n      0x00\n        /* \"#utility.yul\":19507:19567   */\n      tag_529\n        /* \"#utility.yul\":19524:19566   */\n      tag_530\n        /* \"#utility.yul\":19533:19565   */\n      tag_531\n        /* \"#utility.yul\":19559:19564   */\n      dup5\n        /* \"#utility.yul\":19533:19565   */\n      tag_318\n      jump\t// in\n    tag_531:\n        /* \"#utility.yul\":19524:19566   */\n      tag_279\n      jump\t// in\n    tag_530:\n        /* \"#utility.yul\":19507:19567   */\n      tag_319\n      jump\t// in\n    tag_529:\n        /* \"#utility.yul\":19494:19567   */\n      swap1\n      pop\n        /* \"#utility.yul\":19417:19573   */\n      swap2\n      swap1\n      pop\n      jump\t// out\n        /* \"#utility.yul\":19579:19724   */\n    tag_321:\n        /* \"#utility.yul\":19673:19717   */\n      tag_533\n        /* \"#utility.yul\":19711:19716   */\n      dup2\n        /* \"#utility.yul\":19673:19717   */\n      tag_320\n      jump\t// in\n    tag_533:\n        /* \"#utility.yul\":19668:19671   */\n      dup3\n        /* \"#utility.yul\":19661:19718   */\n      mstore\n        /* \"#utility.yul\":19579:19724   */\n      pop\n      pop\n      jump\t// out\n        /* \"#utility.yul\":19730:19966   */\n    tag_151:\n        /* \"#utility.yul\":19830:19834   */\n      0x00\n        /* \"#utility.yul\":19868:19870   */\n      0x20\n        /* \"#utility.yul\":19857:19866   */\n      dup3\n        /* \"#utility.yul\":19853:19871   */\n      add\n        /* \"#utility.yul\":19845:19871   */\n      swap1\n      pop\n        /* \"#utility.yul\":19881:19959   */\n      tag_535\n        /* \"#utility.yul\":19956:19957   */\n      0x00\n        /* \"#utility.yul\":19945:19954   */\n      dup4\n        /* \"#utility.yul\":19941:19958   */\n      add\n        /* \"#utility.yul\":19932:19938   */\n      dup5\n        /* \"#utility.yul\":19881:19959   */\n      tag_321\n      jump\t// in\n    tag_535:\n        /* \"#utility.yul\":19730:19966   */\n      swap3\n      swap2\n      pop\n      pop\n      jump\t// out\n        /* \"#utility.yul\":19972:20152   */\n    tag_322:\n        /* \"#utility.yul\":20020:20097   */\n      0x4e487b7100000000000000000000000000000000000000000000000000000000\n        /* \"#utility.yul\":20017:20018   */\n      0x00\n        /* \"#utility.yul\":20010:20098   */\n      mstore\n        /* \"#utility.yul\":20117:20121   */\n      0x22\n        /* \"#utility.yul\":20114:20115   */\n      0x04\n        /* \"#utility.yul\":20107:20122   */\n      mstore\n        /* \"#utility.yul\":20141:20145   */\n      0x24\n        /* \"#utility.yul\":20138:20139   */\n      0x00\n        /* \"#utility.yul\":20131:20146   */\n      revert\n        /* \"#utility.yul\":20158:20478   */\n    tag_159:\n        /* \"#utility.yul\":20202:20208   */\n      0x00\n        /* \"#utility.yul\":20239:20240   */\n      0x02\n        /* \"#utility.yul\":20233:20237   */\n      dup3\n        /* \"#utility.yul\":20229:20241   */\n      div\n        /* \"#utility.yul\":20219:20241   */\n      swap1\n      pop\n        /* \"#utility.yul\":20286:20287   */\n      0x01\n        /* \"#utility.yul\":20280:20284   */\n      dup3\n        /* \"#utility.yul\":20276:20288   */\n      and\n        /* \"#utility.yul\":20307:20325   */\n      dup1\n        /* \"#utility.yul\":20297:20378   */\n      tag_538\n      jumpi\n        /* \"#utility.yul\":20363:20367   */\n      0x7f\n        /* \"#utility.yul\":20355:20361   */\n      dup3\n        /* \"#utility.yul\":20351:20368   */\n      and\n        /* \"#utility.yul\":20341:20368   */\n      swap2\n      pop\n        /* \"#utility.yul\":20297:20378   */\n    tag_538:\n        /* \"#utility.yul\":20425:20427   */\n      0x20\n        /* \"#utility.yul\":20417:20423   */\n      dup3\n        /* \"#utility.yul\":20414:20428   */\n      lt\n        /* \"#utility.yul\":20394:20412   */\n      dup2\n        /* \"#utility.yul\":20391:20429   */\n      sub\n        /* \"#utility.yul\":20388:20472   */\n      tag_539\n      jumpi\n        /* \"#utility.yul\":20444:20462   */\n      tag_540\n      tag_322\n      jump\t// in\n    tag_540:\n        /* \"#utility.yul\":20388:20472   */\n    tag_539:\n        /* \"#utility.yul\":20209:20478   */\n      pop\n        /* \"#utility.yul\":20158:20478   */\n      swap2\n      swap1\n      pop\n      jump\t// out\n        /* \"#utility.yul\":20484:20574   */\n    tag_323:\n        /* \"#utility.yul\":20518:20525   */\n      0x00\n        /* \"#utility.yul\":20561:20566   */\n      dup2\n        /* \"#utility.yul\":20554:20567   */\n      iszero\n        /* \"#utility.yul\":20547:20568   */\n      iszero\n        /* \"#utility.yul\":20536:20568   */\n      swap1\n      pop\n        /* \"#utility.yul\":20484:20574   */\n      swap2\n      swap1\n      pop\n      jump\t// out\n        /* \"#utility.yul\":20580:20696   */\n    tag_324:\n        /* \"#utility.yul\":20650:20671   */\n      tag_543\n        /* \"#utility.yul\":20665:20670   */\n      dup2\n        /* \"#utility.yul\":20650:20671   */\n      tag_323\n      jump\t// in\n    tag_543:\n        /* \"#utility.yul\":20643:20648   */\n      dup2\n        /* \"#utility.yul\":20640:20672   */\n      eq\n        /* \"#utility.yul\":20630:20690   */\n      tag_544\n      jumpi\n        /* \"#utility.yul\":20686:20687   */\n      0x00\n        /* \"#utility.yul\":20683:20684   */\n      dup1\n        /* \"#utility.yul\":20676:20688   */\n      revert\n        /* \"#utility.yul\":20630:20690   */\n    tag_544:\n        /* \"#utility.yul\":20580:20696   */\n      pop\n      jump\t// out\n        /* \"#utility.yul\":20702:20839   */\n    tag_325:\n        /* \"#utility.yul\":20756:20761   */\n      0x00\n        /* \"#utility.yul\":20787:20793   */\n      dup2\n        /* \"#utility.yul\":20781:20794   */\n      mload\n        /* \"#utility.yul\":20772:20794   */\n      swap1\n      pop\n        /* \"#utility.yul\":20803:20833   */\n      tag_546\n        /* \"#utility.yul\":20827:20832   */\n      dup2\n        /* \"#utility.yul\":20803:20833   */\n      tag_324\n      jump\t// in\n    tag_546:\n        /* \"#utility.yul\":20702:20839   */\n      swap3\n      swap2\n      pop\n      pop\n      jump\t// out\n        /* \"#utility.yul\":20845:21190   */\n    tag_172:\n        /* \"#utility.yul\":20912:20918   */\n      0x00\n        /* \"#utility.yul\":20961:20963   */\n      0x20\n        /* \"#utility.yul\":20949:20958   */\n      dup3\n        /* \"#utility.yul\":20940:20947   */\n      dup5\n        /* \"#utility.yul\":20936:20959   */\n      sub\n        /* \"#utility.yul\":20932:20964   */\n      slt\n        /* \"#utility.yul\":20929:21048   */\n      iszero\n      tag_548\n      jumpi\n        /* \"#utility.yul\":20967:21046   */\n      tag_549\n      tag_270\n      jump\t// in\n    tag_549:\n        /* \"#utility.yul\":20929:21048   */\n    tag_548:\n        /* \"#utility.yul\":21087:21088   */\n      0x00\n        /* \"#utility.yul\":21112:21173   */\n      tag_550\n        /* \"#utility.yul\":21165:21172   */\n      dup5\n        /* \"#utility.yul\":21156:21162   */\n      dup3\n        /* \"#utility.yul\":21145:21154   */\n      dup6\n        /* \"#utility.yul\":21141:21163   */\n      add\n        /* \"#utility.yul\":21112:21173   */\n      tag_325\n      jump\t// in\n    tag_550:\n        /* \"#utility.yul\":21102:21173   */\n      swap2\n      pop\n        /* \"#utility.yul\":21058:21183   */\n      pop\n        /* \"#utility.yul\":20845:21190   */\n      swap3\n      swap2\n      pop\n      pop\n      jump\t// out\n        /* \"#utility.yul\":21196:21368   */\n    tag_326:\n        /* \"#utility.yul\":21336:21360   */\n      0x43616c6c6572206973206e6f7420616e2061646d696e00000000000000000000\n        /* \"#utility.yul\":21332:21333   */\n      0x00\n        /* \"#utility.yul\":21324:21330   */\n      dup3\n        /* \"#utility.yul\":21320:21334   */\n      add\n        /* \"#utility.yul\":21313:21361   */\n      mstore\n        /* \"#utility.yul\":21196:21368   */\n      pop\n      jump\t// out\n        /* \"#utility.yul\":21374:21740   */\n    tag_327:\n        /* \"#utility.yul\":21516:21519   */\n      0x00\n        /* \"#utility.yul\":21537:21604   */\n      tag_553\n        /* \"#utility.yul\":21601:21603   */\n      0x16\n        /* \"#utility.yul\":21596:21599   */\n      dup4\n        /* \"#utility.yul\":21537:21604   */\n      tag_285\n      jump\t// in\n    tag_553:\n        /* \"#utility.yul\":21530:21604   */\n      swap2\n      pop\n        /* \"#utility.yul\":21613:21706   */\n      tag_554\n        /* \"#utility.yul\":21702:21705   */\n      dup3\n        /* \"#utility.yul\":21613:21706   */\n      tag_326\n      jump\t// in\n    tag_554:\n        /* \"#utility.yul\":21731:21733   */\n      0x20\n        /* \"#utility.yul\":21726:21729   */\n      dup3\n        /* \"#utility.yul\":21722:21734   */\n      add\n        /* \"#utility.yul\":21715:21734   */\n      swap1\n      pop\n        /* \"#utility.yul\":21374:21740   */\n      swap2\n      swap1\n      pop\n      jump\t// out\n        /* \"#utility.yul\":21746:22165   */\n    tag_175:\n        /* \"#utility.yul\":21912:21916   */\n      0x00\n        /* \"#utility.yul\":21950:21952   */\n      0x20\n        /* \"#utility.yul\":21939:21948   */\n      dup3\n        /* \"#utility.yul\":21935:21953   */\n      add\n        /* \"#utility.yul\":21927:21953   */\n      swap1\n      pop\n        /* \"#utility.yul\":21999:22008   */\n      dup2\n        /* \"#utility.yul\":21993:21997   */\n      dup2\n        /* \"#utility.yul\":21989:22009   */\n      sub\n        /* \"#utility.yul\":21985:21986   */\n      0x00\n        /* \"#utility.yul\":21974:21983   */\n      dup4\n        /* \"#utility.yul\":21970:21987   */\n      add\n        /* \"#utility.yul\":21963:22010   */\n      mstore\n        /* \"#utility.yul\":22027:22158   */\n      tag_556\n        /* \"#utility.yul\":22153:22157   */\n      dup2\n        /* \"#utility.yul\":22027:22158   */\n      tag_327\n      jump\t// in\n    tag_556:\n        /* \"#utility.yul\":22019:22158   */\n      swap1\n      pop\n        /* \"#utility.yul\":21746:22165   */\n      swap2\n      swap1\n      pop\n      jump\t// out\n        /* \"#utility.yul\":22171:22392   */\n    tag_328:\n        /* \"#utility.yul\":22311:22345   */\n      0x53746172742074696d65206d757374206265206265666f726520656e64207469\n        /* \"#utility.yul\":22307:22308   */\n      0x00\n        /* \"#utility.yul\":22299:22305   */\n      dup3\n        /* \"#utility.yul\":22295:22309   */\n      add\n        /* \"#utility.yul\":22288:22346   */\n      mstore\n        /* \"#utility.yul\":22380:22384   */\n      0x6d65000000000000000000000000000000000000000000000000000000000000\n        /* \"#utility.yul\":22375:22377   */\n      0x20\n        /* \"#utility.yul\":22367:22373   */\n      dup3\n        /* \"#utility.yul\":22363:22378   */\n      add\n        /* \"#utility.yul\":22356:22385   */\n      mstore\n        /* \"#utility.yul\":22171:22392   */\n      pop\n      jump\t// out\n        /* \"#utility.yul\":22398:22764   */\n    tag_329:\n        /* \"#utility.yul\":22540:22543   */\n      0x00\n        /* \"#utility.yul\":22561:22628   */\n      tag_559\n        /* \"#utility.yul\":22625:22627   */\n      0x22\n        /* \"#utility.yul\":22620:22623   */\n      dup4\n        /* \"#utility.yul\":22561:22628   */\n      tag_285\n      jump\t// in\n    tag_559:\n        /* \"#utility.yul\":22554:22628   */\n      swap2\n      pop\n        /* \"#utility.yul\":22637:22730   */\n      tag_560\n        /* \"#utility.yul\":22726:22729   */\n      dup3\n        /* \"#utility.yul\":22637:22730   */\n      tag_328\n      jump\t// in\n    tag_560:\n        /* \"#utility.yul\":22755:22757   */\n      0x40\n        /* \"#utility.yul\":22750:22753   */\n      dup3\n        /* \"#utility.yul\":22746:22758   */\n      add\n        /* \"#utility.yul\":22739:22758   */\n      swap1\n      pop\n        /* \"#utility.yul\":22398:22764   */\n      swap2\n      swap1\n      pop\n      jump\t// out\n        /* \"#utility.yul\":22770:23189   */\n    tag_188:\n        /* \"#utility.yul\":22936:22940   */\n      0x00\n        /* \"#utility.yul\":22974:22976   */\n      0x20\n        /* \"#utility.yul\":22963:22972   */\n      dup3\n        /* \"#utility.yul\":22959:22977   */\n      add\n        /* \"#utility.yul\":22951:22977   */\n      swap1\n      pop\n        /* \"#utility.yul\":23023:23032   */\n      dup2\n        /* \"#utility.yul\":23017:23021   */\n      dup2\n        /* \"#utility.yul\":23013:23033   */\n      sub\n        /* \"#utility.yul\":23009:23010   */\n      0x00\n        /* \"#utility.yul\":22998:23007   */\n      dup4\n        /* \"#utility.yul\":22994:23011   */\n      add\n        /* \"#utility.yul\":22987:23034   */\n      mstore\n        /* \"#utility.yul\":23051:23182   */\n      tag_562\n        /* \"#utility.yul\":23177:23181   */\n      dup2\n        /* \"#utility.yul\":23051:23182   */\n      tag_329\n      jump\t// in\n    tag_562:\n        /* \"#utility.yul\":23043:23182   */\n      swap1\n      pop\n        /* \"#utility.yul\":22770:23189   */\n      swap2\n      swap1\n      pop\n      jump\t// out\n        /* \"#utility.yul\":23195:23336   */\n    tag_330:\n        /* \"#utility.yul\":23244:23248   */\n      0x00\n        /* \"#utility.yul\":23267:23270   */\n      dup2\n        /* \"#utility.yul\":23259:23270   */\n      swap1\n      pop\n        /* \"#utility.yul\":23290:23293   */\n      dup2\n        /* \"#utility.yul\":23287:23288   */\n      0x00\n        /* \"#utility.yul\":23280:23294   */\n      mstore\n        /* \"#utility.yul\":23324:23328   */\n      0x20\n        /* \"#utility.yul\":23321:23322   */\n      0x00\n        /* \"#utility.yul\":23311:23329   */\n      keccak256\n        /* \"#utility.yul\":23303:23329   */\n      swap1\n      pop\n        /* \"#utility.yul\":23195:23336   */\n      swap2\n      swap1\n      pop\n      jump\t// out\n        /* \"#utility.yul\":23342:23435   */\n    tag_331:\n        /* \"#utility.yul\":23379:23385   */\n      0x00\n        /* \"#utility.yul\":23426:23428   */\n      0x20\n        /* \"#utility.yul\":23421:23423   */\n      0x1f\n        /* \"#utility.yul\":23414:23419   */\n      dup4\n        /* \"#utility.yul\":23410:23424   */\n      add\n        /* \"#utility.yul\":23406:23429   */\n      div\n        /* \"#utility.yul\":23396:23429   */\n      swap1\n      pop\n        /* \"#utility.yul\":23342:23435   */\n      swap2\n      swap1\n      pop\n      jump\t// out\n        /* \"#utility.yul\":23441:23548   */\n    tag_332:\n        /* \"#utility.yul\":23485:23493   */\n      0x00\n        /* \"#utility.yul\":23535:23540   */\n      dup3\n        /* \"#utility.yul\":23529:23533   */\n      dup3\n        /* \"#utility.yul\":23525:23541   */\n      shl\n        /* \"#utility.yul\":23504:23541   */\n      swap1\n      pop\n        /* \"#utility.yul\":23441:23548   */\n      swap3\n      swap2\n      pop\n      pop\n      jump\t// out\n        /* \"#utility.yul\":23554:23947   */\n    tag_333:\n        /* \"#utility.yul\":23623:23629   */\n      0x00\n        /* \"#utility.yul\":23673:23674   */\n      0x08\n        /* \"#utility.yul\":23661:23671   */\n      dup4\n        /* \"#utility.yul\":23657:23675   */\n      mul\n        /* \"#utility.yul\":23696:23793   */\n      tag_567\n        /* \"#utility.yul\":23726:23792   */\n      0xffffffffffffffffffffffffffffffffffffffffffffffffffffffffffffffff\n        /* \"#utility.yul\":23715:23724   */\n      dup3\n        /* \"#utility.yul\":23696:23793   */\n      tag_332\n      jump\t// in\n    tag_567:\n        /* \"#utility.yul\":23814:23853   */\n      tag_568\n        /* \"#utility.yul\":23844:23852   */\n      dup7\n        /* \"#utility.yul\":23833:23842   */\n      dup4\n        /* \"#utility.yul\":23814:23853   */\n      tag_332\n      jump\t// in\n    tag_568:\n        /* \"#utility.yul\":23802:23853   */\n      swap6\n      pop\n        /* \"#utility.yul\":23886:23890   */\n      dup1\n        /* \"#utility.yul\":23882:23891   */\n      not\n        /* \"#utility.yul\":23875:23880   */\n      dup5\n        /* \"#utility.yul\":23871:23892   */\n      and\n        /* \"#utility.yul\":23862:23892   */\n      swap4\n      pop\n        /* \"#utility.yul\":23935:23939   */\n      dup1\n        /* \"#utility.yul\":23925:23933   */\n      dup7\n        /* \"#utility.yul\":23921:23940   */\n      and\n        /* \"#utility.yul\":23914:23919   */\n      dup5\n        /* \"#utility.yul\":23911:23941   */\n      or\n        /* \"#utility.yul\":23901:23941   */\n      swap3\n      pop\n        /* \"#utility.yul\":23630:23947   */\n      pop\n      pop\n        /* \"#utility.yul\":23554:23947   */\n      swap4\n      swap3\n      pop\n      pop\n      pop\n      jump\t// out\n        /* \"#utility.yul\":23953:24095   */\n    tag_334:\n        /* \"#utility.yul\":24003:24012   */\n      0x00\n        /* \"#utility.yul\":24036:24089   */\n      tag_570\n        /* \"#utility.yul\":24054:24088   */\n      tag_571\n        /* \"#utility.yul\":24063:24087   */\n      tag_572\n        /* \"#utility.yul\":24081:24086   */\n      dup5\n        /* \"#utility.yul\":24063:24087   */\n      tag_266\n      jump\t// in\n    tag_572:\n        /* \"#utility.yul\":24054:24088   */\n      tag_279\n      jump\t// in\n    tag_571:\n        /* \"#utility.yul\":24036:24089   */\n      tag_266\n      jump\t// in\n    tag_570:\n        /* \"#utility.yul\":24023:24089   */\n      swap1\n      pop\n        /* \"#utility.yul\":23953:24095   */\n      swap2\n      swap1\n      pop\n      jump\t// out\n        /* \"#utility.yul\":24101:24176   */\n    tag_335:\n        /* \"#utility.yul\":24144:24147   */\n      0x00\n        /* \"#utility.yul\":24165:24170   */\n      dup2\n        /* \"#utility.yul\":24158:24170   */\n      swap1\n      pop\n        /* \"#utility.yul\":24101:24176   */\n      swap2\n      swap1\n      pop\n      jump\t// out\n        /* \"#utility.yul\":24182:24451   */\n    tag_336:\n        /* \"#utility.yul\":24292:24331   */\n      tag_575\n        /* \"#utility.yul\":24323:24330   */\n      dup4\n        /* \"#utility.yul\":24292:24331   */\n      tag_334\n      jump\t// in\n    tag_575:\n        /* \"#utility.yul\":24353:24444   */\n      tag_576\n        /* \"#utility.yul\":24402:24443   */\n      tag_577\n        /* \"#utility.yul\":24426:24442   */\n      dup3\n        /* \"#utility.yul\":24402:24443   */\n      tag_335\n      jump\t// in\n    tag_577:\n        /* \"#utility.yul\":24394:24400   */\n      dup5\n        /* \"#utility.yul\":24387:24391   */\n      dup5\n        /* \"#utility.yul\":24381:24392   */\n      sload\n        /* \"#utility.yul\":24353:24444   */\n      tag_333\n      jump\t// in\n    tag_576:\n        /* \"#utility.yul\":24347:24351   */\n      dup3\n        /* \"#utility.yul\":24340:24445   */\n      sstore\n        /* \"#utility.yul\":24258:24451   */\n      pop\n        /* \"#utility.yul\":24182:24451   */\n      pop\n      pop\n      pop\n      jump\t// out\n        /* \"#utility.yul\":24457:24530   */\n    tag_337:\n        /* \"#utility.yul\":24502:24505   */\n      0x00\n        /* \"#utility.yul\":24457:24530   */\n      swap1\n      jump\t// out\n        /* \"#utility.yul\":24536:24725   */\n    tag_338:\n        /* \"#utility.yul\":24613:24645   */\n      tag_580\n      tag_337\n      jump\t// in\n    tag_580:\n        /* \"#utility.yul\":24654:24719   */\n      tag_581\n        /* \"#utility.yul\":24712:24718   */\n      dup2\n        /* \"#utility.yul\":24704:24710   */\n      dup5\n        /* \"#utility.yul\":24698:24702   */\n      dup5\n        /* \"#utility.yul\":24654:24719   */\n      tag_336\n      jump\t// in\n    tag_581:\n        /* \"#utility.yul\":24589:24725   */\n      pop\n        /* \"#utility.yul\":24536:24725   */\n      pop\n      pop\n      jump\t// out\n        /* \"#utility.yul\":24731:24917   */\n    tag_339:\n        /* \"#utility.yul\":24791:24911   */\n    tag_583:\n        /* \"#utility.yul\":24808:24811   */\n      dup2\n        /* \"#utility.yul\":24801:24806   */\n      dup2\n        /* \"#utility.yul\":24798:24812   */\n      lt\n        /* \"#utility.yul\":24791:24911   */\n      iszero\n      tag_585\n      jumpi\n        /* \"#utility.yul\":24862:24901   */\n      tag_586\n        /* \"#utility.yul\":24899:24900   */\n      0x00\n        /* \"#utility.yul\":24892:24897   */\n      dup3\n        /* \"#utility.yul\":24862:24901   */\n      tag_338\n      jump\t// in\n    tag_586:\n        /* \"#utility.yul\":24835:24836   */\n      0x01\n        /* \"#utility.yul\":24828:24833   */\n      dup2\n        /* \"#utility.yul\":24824:24837   */\n      add\n        /* \"#utility.yul\":24815:24837   */\n      swap1\n      pop\n        /* \"#utility.yul\":24791:24911   */\n      jump(tag_583)\n    tag_585:\n        /* \"#utility.yul\":24731:24917   */\n      pop\n      pop\n      jump\t// out\n        /* \"#utility.yul\":24923:25466   */\n    tag_340:\n        /* \"#utility.yul\":25024:25026   */\n      0x1f\n        /* \"#utility.yul\":25019:25022   */\n      dup3\n        /* \"#utility.yul\":25016:25027   */\n      gt\n        /* \"#utility.yul\":25013:25459   */\n      iszero\n      tag_588\n      jumpi\n        /* \"#utility.yul\":25058:25096   */\n      tag_589\n        /* \"#utility.yul\":25090:25095   */\n      dup2\n        /* \"#utility.yul\":25058:25096   */\n      tag_330\n      jump\t// in\n    tag_589:\n        /* \"#utility.yul\":25142:25171   */\n      tag_590\n        /* \"#utility.yul\":25160:25170   */\n      dup5\n        /* \"#utility.yul\":25142:25171   */\n      tag_331\n      jump\t// in\n    tag_590:\n        /* \"#utility.yul\":25132:25140   */\n      dup2\n        /* \"#utility.yul\":25128:25172   */\n      add\n        /* \"#utility.yul\":25325:25327   */\n      0x20\n        /* \"#utility.yul\":25313:25323   */\n      dup6\n        /* \"#utility.yul\":25310:25328   */\n      lt\n        /* \"#utility.yul\":25307:25356   */\n      iszero\n      tag_591\n      jumpi\n        /* \"#utility.yul\":25346:25354   */\n      dup2\n        /* \"#utility.yul\":25331:25354   */\n      swap1\n      pop\n        /* \"#utility.yul\":25307:25356   */\n    tag_591:\n        /* \"#utility.yul\":25369:25449   */\n      tag_592\n        /* \"#utility.yul\":25425:25447   */\n      tag_593\n        /* \"#utility.yul\":25443:25446   */\n      dup6\n        /* \"#utility.yul\":25425:25447   */\n      tag_331\n      jump\t// in\n    tag_593:\n        /* \"#utility.yul\":25415:25423   */\n      dup4\n        /* \"#utility.yul\":25411:25448   */\n      add\n        /* \"#utility.yul\":25398:25409   */\n      dup3\n        /* \"#utility.yul\":25369:25449   */\n      tag_339\n      jump\t// in\n    tag_592:\n        /* \"#utility.yul\":25028:25459   */\n      pop\n      pop\n        /* \"#utility.yul\":25013:25459   */\n    tag_588:\n        /* \"#utility.yul\":24923:25466   */\n      pop\n      pop\n      pop\n      jump\t// out\n        /* \"#utility.yul\":25472:25589   */\n    tag_341:\n        /* \"#utility.yul\":25526:25534   */\n      0x00\n        /* \"#utility.yul\":25576:25581   */\n      dup3\n        /* \"#utility.yul\":25570:25574   */\n      dup3\n        /* \"#utility.yul\":25566:25582   */\n      shr\n        /* \"#utility.yul\":25545:25582   */\n      swap1\n      pop\n        /* \"#utility.yul\":25472:25589   */\n      swap3\n      swap2\n      pop\n      pop\n      jump\t// out\n        /* \"#utility.yul\":25595:25764   */\n    tag_342:\n        /* \"#utility.yul\":25639:25645   */\n      0x00\n        /* \"#utility.yul\":25672:25723   */\n      tag_596\n        /* \"#utility.yul\":25720:25721   */\n      0x00\n        /* \"#utility.yul\":25716:25722   */\n      not\n        /* \"#utility.yul\":25708:25713   */\n      dup5\n        /* \"#utility.yul\":25705:25706   */\n      0x08\n        /* \"#utility.yul\":25701:25714   */\n      mul\n        /* \"#utility.yul\":25672:25723   */\n      tag_341\n      jump\t// in\n    tag_596:\n        /* \"#utility.yul\":25668:25724   */\n      not\n        /* \"#utility.yul\":25753:25757   */\n      dup1\n        /* \"#utility.yul\":25747:25751   */\n      dup4\n        /* \"#utility.yul\":25743:25758   */\n      and\n        /* \"#utility.yul\":25733:25758   */\n      swap2\n      pop\n        /* \"#utility.yul\":25646:25764   */\n      pop\n        /* \"#utility.yul\":25595:25764   */\n      swap3\n      swap2\n      pop\n      pop\n      jump\t// out\n        /* \"#utility.yul\":25769:26064   */\n    tag_343:\n        /* \"#utility.yul\":25845:25849   */\n      0x00\n        /* \"#utility.yul\":25991:26020   */\n      tag_598\n        /* \"#utility.yul\":26016:26019   */\n      dup4\n        /* \"#utility.yul\":26010:26014   */\n      dup4\n        /* \"#utility.yul\":25991:26020   */\n      tag_342\n      jump\t// in\n    tag_598:\n        /* \"#utility.yul\":25983:26020   */\n      swap2\n      pop\n        /* \"#utility.yul\":26053:26056   */\n      dup3\n        /* \"#utility.yul\":26050:26051   */\n      0x02\n        /* \"#utility.yul\":26046:26057   */\n      mul\n        /* \"#utility.yul\":26040:26044   */\n      dup3\n        /* \"#utility.yul\":26037:26058   */\n      or\n        /* \"#utility.yul\":26029:26058   */\n      swap1\n      pop\n        /* \"#utility.yul\":25769:26064   */\n      swap3\n      swap2\n      pop\n      pop\n      jump\t// out\n        /* \"#utility.yul\":26069:27464   */\n    tag_190:\n        /* \"#utility.yul\":26186:26223   */\n      tag_600\n        /* \"#utility.yul\":26219:26222   */\n      dup3\n        /* \"#utility.yul\":26186:26223   */\n      tag_284\n      jump\t// in\n    tag_600:\n        /* \"#utility.yul\":26288:26306   */\n      0xffffffffffffffff\n        /* \"#utility.yul\":26280:26286   */\n      dup2\n        /* \"#utility.yul\":26277:26307   */\n      gt\n        /* \"#utility.yul\":26274:26330   */\n      iszero\n      tag_601\n      jumpi\n        /* \"#utility.yul\":26310:26328   */\n      tag_602\n      tag_291\n      jump\t// in\n    tag_602:\n        /* \"#utility.yul\":26274:26330   */\n    tag_601:\n        /* \"#utility.yul\":26354:26392   */\n      tag_603\n        /* \"#utility.yul\":26386:26390   */\n      dup3\n        /* \"#utility.yul\":26380:26391   */\n      sload\n        /* \"#utility.yul\":26354:26392   */\n      tag_159\n      jump\t// in\n    tag_603:\n        /* \"#utility.yul\":26439:26506   */\n      tag_604\n        /* \"#utility.yul\":26499:26505   */\n      dup3\n        /* \"#utility.yul\":26491:26497   */\n      dup3\n        /* \"#utility.yul\":26485:26489   */\n      dup6\n        /* \"#utility.yul\":26439:26506   */\n      tag_340\n      jump\t// in\n    tag_604:\n        /* \"#utility.yul\":26533:26534   */\n      0x00\n        /* \"#utility.yul\":26557:26561   */\n      0x20\n        /* \"#utility.yul\":26544:26561   */\n      swap1\n      pop\n        /* \"#utility.yul\":26589:26591   */\n      0x1f\n        /* \"#utility.yul\":26581:26587   */\n      dup4\n        /* \"#utility.yul\":26578:26592   */\n      gt\n        /* \"#utility.yul\":26606:26607   */\n      0x01\n        /* \"#utility.yul\":26601:27219   */\n      dup2\n      eq\n      tag_606\n      jumpi\n        /* \"#utility.yul\":27263:27264   */\n      0x00\n        /* \"#utility.yul\":27280:27286   */\n      dup5\n        /* \"#utility.yul\":27277:27354   */\n      iszero\n      tag_607\n      jumpi\n        /* \"#utility.yul\":27329:27338   */\n      dup3\n        /* \"#utility.yul\":27324:27327   */\n      dup8\n        /* \"#utility.yul\":27320:27339   */\n      add\n        /* \"#utility.yul\":27314:27340   */\n      mload\n        /* \"#utility.yul\":27305:27340   */\n      swap1\n      pop\n        /* \"#utility.yul\":27277:27354   */\n    tag_607:\n        /* \"#utility.yul\":27380:27447   */\n      tag_608\n        /* \"#utility.yul\":27440:27446   */\n      dup6\n        /* \"#utility.yul\":27433:27438   */\n      dup3\n        /* \"#utility.yul\":27380:27447   */\n      tag_343\n      jump\t// in\n    tag_608:\n        /* \"#utility.yul\":27374:27378   */\n      dup7\n        /* \"#utility.yul\":27367:27448   */\n      sstore\n        /* \"#utility.yul\":27236:27458   */\n      pop\n        /* \"#utility.yul\":26571:27458   */\n      jump(tag_605)\n        /* \"#utility.yul\":26601:27219   */\n    tag_606:\n        /* \"#utility.yul\":26653:26657   */\n      0x1f\n        /* \"#utility.yul\":26649:26658   */\n      not\n        /* \"#utility.yul\":26641:26647   */\n      dup5\n        /* \"#utility.yul\":26637:26659   */\n      and\n        /* \"#utility.yul\":26687:26724   */\n      tag_609\n        /* \"#utility.yul\":26719:26723   */\n      dup7\n        /* \"#utility.yul\":26687:26724   */\n      tag_330\n      jump\t// in\n    tag_609:\n        /* \"#utility.yul\":26746:26747   */\n      0x00\n        /* \"#utility.yul\":26760:26968   */\n    tag_610:\n        /* \"#utility.yul\":26774:26781   */\n      dup3\n        /* \"#utility.yul\":26771:26772   */\n      dup2\n        /* \"#utility.yul\":26768:26782   */\n      lt\n        /* \"#utility.yul\":26760:26968   */\n      iszero\n      tag_612\n      jumpi\n        /* \"#utility.yul\":26853:26862   */\n      dup5\n        /* \"#utility.yul\":26848:26851   */\n      dup10\n        /* \"#utility.yul\":26844:26863   */\n      add\n        /* \"#utility.yul\":26838:26864   */\n      mload\n        /* \"#utility.yul\":26830:26836   */\n      dup3\n        /* \"#utility.yul\":26823:26865   */\n      sstore\n        /* \"#utility.yul\":26904:26905   */\n      0x01\n        /* \"#utility.yul\":26896:26902   */\n      dup3\n        /* \"#utility.yul\":26892:26906   */\n      add\n        /* \"#utility.yul\":26882:26906   */\n      swap2\n      pop\n        /* \"#utility.yul\":26951:26953   */\n      0x20\n        /* \"#utility.yul\":26940:26949   */\n      dup6\n        /* \"#utility.yul\":26936:26954   */\n      add\n        /* \"#utility.yul\":26923:26954   */\n      swap5\n      pop\n        /* \"#utility.yul\":26797:26801   */\n      0x20\n        /* \"#utility.yul\":26794:26795   */\n      dup2\n        /* \"#utility.yul\":26790:26802   */\n      add\n        /* \"#utility.yul\":26785:26802   */\n      swap1\n      pop\n        /* \"#utility.yul\":26760:26968   */\n      jump(tag_610)\n    tag_612:\n        /* \"#utility.yul\":26996:27002   */\n      dup7\n        /* \"#utility.yul\":26987:26994   */\n      dup4\n        /* \"#utility.yul\":26984:27003   */\n      lt\n        /* \"#utility.yul\":26981:27160   */\n      iszero\n      tag_613\n      jumpi\n        /* \"#utility.yul\":27054:27063   */\n      dup5\n        /* \"#utility.yul\":27049:27052   */\n      dup10\n        /* \"#utility.yul\":27045:27064   */\n      add\n        /* \"#utility.yul\":27039:27065   */\n      mload\n        /* \"#utility.yul\":27097:27145   */\n      tag_614\n        /* \"#utility.yul\":27139:27143   */\n      0x1f\n        /* \"#utility.yul\":27131:27137   */\n      dup10\n        /* \"#utility.yul\":27127:27144   */\n      and\n        /* \"#utility.yul\":27116:27125   */\n      dup3\n        /* \"#utility.yul\":27097:27145   */\n      tag_342\n      jump\t// in\n    tag_614:\n        /* \"#utility.yul\":27089:27095   */\n      dup4\n        /* \"#utility.yul\":27082:27146   */\n      sstore\n        /* \"#utility.yul\":27004:27160   */\n      pop\n        /* \"#utility.yul\":26981:27160   */\n    tag_613:\n        /* \"#utility.yul\":27206:27207   */\n      0x01\n        /* \"#utility.yul\":27202:27203   */\n      0x02\n        /* \"#utility.yul\":27194:27200   */\n      dup9\n        /* \"#utility.yul\":27190:27204   */\n      mul\n        /* \"#utility.yul\":27186:27208   */\n      add\n        /* \"#utility.yul\":27180:27184   */\n      dup9\n        /* \"#utility.yul\":27173:27209   */\n      sstore\n        /* \"#utility.yul\":26608:27219   */\n      pop\n      pop\n      pop\n        /* \"#utility.yul\":26571:27458   */\n    tag_605:\n      pop\n        /* \"#utility.yul\":26161:27464   */\n      pop\n      pop\n      pop\n        /* \"#utility.yul\":26069:27464   */\n      pop\n      pop\n      jump\t// out\n        /* \"#utility.yul\":27470:27700   */\n    tag_344:\n        /* \"#utility.yul\":27610:27644   */\n      0x5769746864726177616c20616d6f756e74206d75737420626520677265617465\n        /* \"#utility.yul\":27606:27607   */\n      0x00\n        /* \"#utility.yul\":27598:27604   */\n      dup3\n        /* \"#utility.yul\":27594:27608   */\n      add\n        /* \"#utility.yul\":27587:27645   */\n      mstore\n        /* \"#utility.yul\":27679:27692   */\n      0x72207468616e207a65726f000000000000000000000000000000000000000000\n        /* \"#utility.yul\":27674:27676   */\n      0x20\n        /* \"#utility.yul\":27666:27672   */\n      dup3\n        /* \"#utility.yul\":27662:27677   */\n      add\n        /* \"#utility.yul\":27655:27693   */\n      mstore\n        /* \"#utility.yul\":27470:27700   */\n      pop\n      jump\t// out\n        /* \"#utility.yul\":27706:28072   */\n    tag_345:\n        /* \"#utility.yul\":27848:27851   */\n      0x00\n        /* \"#utility.yul\":27869:27936   */\n      tag_617\n        /* \"#utility.yul\":27933:27935   */\n      0x2b\n        /* \"#utility.yul\":27928:27931   */\n      dup4\n        /* \"#utility.yul\":27869:27936   */\n      tag_285\n      jump\t// in\n    tag_617:\n        /* \"#utility.yul\":27862:27936   */\n      swap2\n      pop\n        /* \"#utility.yul\":27945:28038   */\n      tag_618\n        /* \"#utility.yul\":28034:28037   */\n      dup3\n        /* \"#utility.yul\":27945:28038   */\n      tag_344\n      jump\t// in\n    tag_618:\n        /* \"#utility.yul\":28063:28065   */\n      0x40\n        /* \"#utility.yul\":28058:28061   */\n      dup3\n        /* \"#utility.yul\":28054:28066   */\n      add\n        /* \"#utility.yul\":28047:28066   */\n      swap1\n      pop\n        /* \"#utility.yul\":27706:28072   */\n      swap2\n      swap1\n      pop\n      jump\t// out\n        /* \"#utility.yul\":28078:28497   */\n    tag_203:\n        /* \"#utility.yul\":28244:28248   */\n      0x00\n        /* \"#utility.yul\":28282:28284   */\n      0x20\n        /* \"#utility.yul\":28271:28280   */\n      dup3\n        /* \"#utility.yul\":28267:28285   */\n      add\n        /* \"#utility.yul\":28259:28285   */\n      swap1\n      pop\n        /* \"#utility.yul\":28331:28340   */\n      dup2\n        /* \"#utility.yul\":28325:28329   */\n      dup2\n        /* \"#utility.yul\":28321:28341   */\n      sub\n        /* \"#utility.yul\":28317:28318   */\n      0x00\n        /* \"#utility.yul\":28306:28315   */\n      dup4\n        /* \"#utility.yul\":28302:28319   */\n      add\n        /* \"#utility.yul\":28295:28342   */\n      mstore\n        /* \"#utility.yul\":28359:28490   */\n      tag_620\n        /* \"#utility.yul\":28485:28489   */\n      dup2\n        /* \"#utility.yul\":28359:28490   */\n      tag_345\n      jump\t// in\n    tag_620:\n        /* \"#utility.yul\":28351:28490   */\n      swap1\n      pop\n        /* \"#utility.yul\":28078:28497   */\n      swap2\n      swap1\n      pop\n      jump\t// out\n        /* \"#utility.yul\":28503:28671   */\n    tag_346:\n        /* \"#utility.yul\":28643:28663   */\n      0x496e73756666696369656e742066756e64730000000000000000000000000000\n        /* \"#utility.yul\":28639:28640   */\n      0x00\n        /* \"#utility.yul\":28631:28637   */\n      dup3\n        /* \"#utility.yul\":28627:28641   */\n      add\n        /* \"#utility.yul\":28620:28664   */\n      mstore\n        /* \"#utility.yul\":28503:28671   */\n      pop\n      jump\t// out\n        /* \"#utility.yul\":28677:29043   */\n    tag_347:\n        /* \"#utility.yul\":28819:28822   */\n      0x00\n        /* \"#utility.yul\":28840:28907   */\n      tag_623\n        /* \"#utility.yul\":28904:28906   */\n      0x12\n        /* \"#utility.yul\":28899:28902   */\n      dup4\n        /* \"#utility.yul\":28840:28907   */\n      tag_285\n      jump\t// in\n    tag_623:\n        /* \"#utility.yul\":28833:28907   */\n      swap2\n      pop\n        /* \"#utility.yul\":28916:29009   */\n      tag_624\n        /* \"#utility.yul\":29005:29008   */\n      dup3\n        /* \"#utility.yul\":28916:29009   */\n      tag_346\n      jump\t// in\n    tag_624:\n        /* \"#utility.yul\":29034:29036   */\n      0x20\n        /* \"#utility.yul\":29029:29032   */\n      dup3\n        /* \"#utility.yul\":29025:29037   */\n      add\n        /* \"#utility.yul\":29018:29037   */\n      swap1\n      pop\n        /* \"#utility.yul\":28677:29043   */\n      swap2\n      swap1\n      pop\n      jump\t// out\n        /* \"#utility.yul\":29049:29468   */\n    tag_206:\n        /* \"#utility.yul\":29215:29219   */\n      0x00\n        /* \"#utility.yul\":29253:29255   */\n      0x20\n        /* \"#utility.yul\":29242:29251   */\n      dup3\n        /* \"#utility.yul\":29238:29256   */\n      add\n        /* \"#utility.yul\":29230:29256   */\n      swap1\n      pop\n        /* \"#utility.yul\":29302:29311   */\n      dup2\n        /* \"#utility.yul\":29296:29300   */\n      dup2\n        /* \"#utility.yul\":29292:29312   */\n      sub\n        /* \"#utility.yul\":29288:29289   */\n      0x00\n        /* \"#utility.yul\":29277:29286   */\n      dup4\n        /* \"#utility.yul\":29273:29290   */\n      add\n        /* \"#utility.yul\":29266:29313   */\n      mstore\n        /* \"#utility.yul\":29330:29461   */\n      tag_626\n        /* \"#utility.yul\":29456:29460   */\n      dup2\n        /* \"#utility.yul\":29330:29461   */\n      tag_347\n      jump\t// in\n    tag_626:\n        /* \"#utility.yul\":29322:29461   */\n      swap1\n      pop\n        /* \"#utility.yul\":29049:29468   */\n      swap2\n      swap1\n      pop\n      jump\t// out\n        /* \"#utility.yul\":29474:29806   */\n    tag_224:\n        /* \"#utility.yul\":29595:29599   */\n      0x00\n        /* \"#utility.yul\":29633:29635   */\n      0x40\n        /* \"#utility.yul\":29622:29631   */\n      dup3\n        /* \"#utility.yul\":29618:29636   */\n      add\n        /* \"#utility.yul\":29610:29636   */\n      swap1\n      pop\n        /* \"#utility.yul\":29646:29717   */\n      tag_628\n        /* \"#utility.yul\":29714:29715   */\n      0x00\n        /* \"#utility.yul\":29703:29712   */\n      dup4\n        /* \"#utility.yul\":29699:29716   */\n      add\n        /* \"#utility.yul\":29690:29696   */\n      dup6\n        /* \"#utility.yul\":29646:29717   */\n      tag_276\n      jump\t// in\n    tag_628:\n        /* \"#utility.yul\":29727:29799   */\n      tag_629\n        /* \"#utility.yul\":29795:29797   */\n      0x20\n        /* \"#utility.yul\":29784:29793   */\n      dup4\n        /* \"#utility.yul\":29780:29798   */\n      add\n        /* \"#utility.yul\":29771:29777   */\n      dup5\n        /* \"#utility.yul\":29727:29799   */\n      tag_268\n      jump\t// in\n    tag_629:\n        /* \"#utility.yul\":29474:29806   */\n      swap4\n      swap3\n      pop\n      pop\n      pop\n      jump\t// out\n        /* \"#utility.yul\":29812:30254   */\n    tag_229:\n        /* \"#utility.yul\":29961:29965   */\n      0x00\n        /* \"#utility.yul\":29999:30001   */\n      0x60\n        /* \"#utility.yul\":29988:29997   */\n      dup3\n        /* \"#utility.yul\":29984:30002   */\n      add\n        /* \"#utility.yul\":29976:30002   */\n      swap1\n      pop\n        /* \"#utility.yul\":30012:30083   */\n      tag_631\n        /* \"#utility.yul\":30080:30081   */\n      0x00\n        /* \"#utility.yul\":30069:30078   */\n      dup4\n        /* \"#utility.yul\":30065:30082   */\n      add\n        /* \"#utility.yul\":30056:30062   */\n      dup7\n        /* \"#utility.yul\":30012:30083   */\n      tag_276\n      jump\t// in\n    tag_631:\n        /* \"#utility.yul\":30093:30165   */\n      tag_632\n        /* \"#utility.yul\":30161:30163   */\n      0x20\n        /* \"#utility.yul\":30150:30159   */\n      dup4\n        /* \"#utility.yul\":30146:30164   */\n      add\n        /* \"#utility.yul\":30137:30143   */\n      dup6\n        /* \"#utility.yul\":30093:30165   */\n      tag_276\n      jump\t// in\n    tag_632:\n        /* \"#utility.yul\":30175:30247   */\n      tag_633\n        /* \"#utility.yul\":30243:30245   */\n      0x40\n        /* \"#utility.yul\":30232:30241   */\n      dup4\n        /* \"#utility.yul\":30228:30246   */\n      add\n        /* \"#utility.yul\":30219:30225   */\n      dup5\n        /* \"#utility.yul\":30175:30247   */\n      tag_268\n      jump\t// in\n    tag_633:\n        /* \"#utility.yul\":29812:30254   */\n      swap5\n      swap4\n      pop\n      pop\n      pop\n      pop\n      jump\t// out\n\n    auxdata: 0xa264697066735822122043e1481c8167809fa7db7c783cf02c683613220197cc4a5a2e91ae0454e3473d64736f6c634300081a0033\n}\n",
				"bytecode": {
					"linkReferences": {},
					"object": "6080604052348015600e575f80fd5b506127aa8061001c5f395ff3fe6080604052600436106100e0575f3560e01c80638da5cb5b1161007e578063b807a3c411610058578063b807a3c41461036f578063be9a768714610397578063f2fde38b146103bf578063f3fef3a3146103e7576101c7565b80638da5cb5b146102cd578063a9590e8a146102f7578063aee9c87214610333576101c7565b8063485cc955116100ba578063485cc95514610239578063715018a61461026157806385c758f7146102775780638a19c8bc146102a1576101c7565b80631e83409a146101cb57806342cb1fbc146101f357806347e7ef241461021d576101c7565b366101c7573460045f73f194afdf50b03e69bd7d057c1aa9e10c9954e4c973ffffffffffffffffffffffffffffffffffffffff1673ffffffffffffffffffffffffffffffffffffffff1681526020019081526020015f205f82825461014591906118b9565b9250508190555073f194afdf50b03e69bd7d057c1aa9e10c9954e4c973ffffffffffffffffffffffffffffffffffffffff163373ffffffffffffffffffffffffffffffffffffffff167f5548c837ab068cf56a2c2479df0882a4922fd203edb7517321831d95078c5f62346040516101bd91906118fb565b60405180910390a3005b5f80fd5b3480156101d6575f80fd5b506101f160048036038101906101ec919061197f565b61040f565b005b3480156101fe575f80fd5b506102076108d7565b60405161021491906119b9565b60405180910390f35b610237600480360381019061023291906119fc565b6108ef565b005b348015610244575f80fd5b5061025f600480360381019061025a9190611a3a565b610aa9565b005b34801561026c575f80fd5b50610275610c6a565b005b348015610282575f80fd5b5061028b610c7d565b6040516102989190611ad3565b60405180910390f35b3480156102ac575f80fd5b506102b5610ca0565b6040516102c493929190611b5c565b60405180910390f35b3480156102d8575f80fd5b506102e1610d3d565b6040516102ee91906119b9565b60405180910390f35b348015610302575f80fd5b5061031d60048036038101906103189190611a3a565b610d72565b60405161032a91906118fb565b60405180910390f35b34801561033e575f80fd5b506103596004803603810190610354919061197f565b610d92565b60405161036691906118fb565b60405180910390f35b34801561037a575f80fd5b5061039560048036038101906103909190611b98565b610da7565b005b3480156103a2575f80fd5b506103bd60048036038101906103b89190611d14565b610f64565b005b3480156103ca575f80fd5b506103e560048036038101906103e0919061197f565b611104565b005b3480156103f2575f80fd5b5061040d600480360381019061040891906119fc565b611188565b005b60015f01544210158015610427575060018001544211155b610466576040517f08c379a000000000000000000000000000000000000000000000000000000000815260040161045d90611dca565b60405180910390fd5b5f60055f3373ffffffffffffffffffffffffffffffffffffffff1673ffffffffffffffffffffffffffffffffffffffff1681526020019081526020015f205f8373ffffffffffffffffffffffffffffffffffffffff1673ffffffffffffffffffffffffffffffffffffffff1681526020019081526020015f205490505f8111610524576040517f08c379a000000000000000000000000000000000000000000000000000000000815260040161051b90611e32565b60405180910390fd5b8060045f8473ffffffffffffffffffffffffffffffffffffffff1673ffffffffffffffffffffffffffffffffffffffff1681526020019081526020015f205410156105a4576040517f08c379a000000000000000000000000000000000000000000000000000000000815260040161059b90611e9a565b60405180910390fd5b5f805f9054906101000a900473ffffffffffffffffffffffffffffffffffffffff1673ffffffffffffffffffffffffffffffffffffffff1663db4f1024336040518263ffffffff1660e01b81526004016105fe9190611f02565b602060405180830381865afa158015610619573d5f803e3d5ffd5b505050506040513d601f19601f8201168201806040525081019061063d9190611f42565b1161067d576040517f08c379a000000000000000000000000000000000000000000000000000000000815260040161067490611fb7565b60405180910390fd5b5f60055f3373ffffffffffffffffffffffffffffffffffffffff1673ffffffffffffffffffffffffffffffffffffffff1681526020019081526020015f205f8473ffffffffffffffffffffffffffffffffffffffff1673ffffffffffffffffffffffffffffffffffffffff1681526020019081526020015f20819055508060045f8473ffffffffffffffffffffffffffffffffffffffff1673ffffffffffffffffffffffffffffffffffffffff1681526020019081526020015f205f8282546107469190611fd5565b9250508190555073f194afdf50b03e69bd7d057c1aa9e10c9954e4c973ffffffffffffffffffffffffffffffffffffffff168273ffffffffffffffffffffffffffffffffffffffff1603610842575f3373ffffffffffffffffffffffffffffffffffffffff16826040516107b990612035565b5f6040518083038185875af1925050503d805f81146107f3576040519150601f19603f3d011682016040523d82523d5f602084013e6107f8565b606091505b505090508061083c576040517f08c379a000000000000000000000000000000000000000000000000000000000815260040161083390612093565b60405180910390fd5b5061086e565b61086d33828473ffffffffffffffffffffffffffffffffffffffff166114449092919063ffffffff16565b5b8173ffffffffffffffffffffffffffffffffffffffff163373ffffffffffffffffffffffffffffffffffffffff167ff7a40077ff7a04c7e61f6f26fb13774259ddf1b6bce9ecf26a8276cdd3992683836040516108cb91906118fb565b60405180910390a35050565b73f194afdf50b03e69bd7d057c1aa9e10c9954e4c981565b73f194afdf50b03e69bd7d057c1aa9e10c9954e4c973ffffffffffffffffffffffffffffffffffffffff168273ffffffffffffffffffffffffffffffffffffffff160361097d57803414610978576040517f08c379a000000000000000000000000000000000000000000000000000000000815260040161096f906120fb565b60405180910390fd5b6109ed565b5f81116109bf576040517f08c379a00000000000000000000000000000000000000000000000000000000081526004016109b690612189565b60405180910390fd5b6109ec3330838573ffffffffffffffffffffffffffffffffffffffff166114c3909392919063ffffffff16565b5b8060045f8473ffffffffffffffffffffffffffffffffffffffff1673ffffffffffffffffffffffffffffffffffffffff1681526020019081526020015f205f828254610a3991906118b9565b925050819055508173ffffffffffffffffffffffffffffffffffffffff163373ffffffffffffffffffffffffffffffffffffffff167f5548c837ab068cf56a2c2479df0882a4922fd203edb7517321831d95078c5f6283604051610a9d91906118fb565b60405180910390a35050565b5f610ab2611545565b90505f815f0160089054906101000a900460ff161590505f825f015f9054906101000a900467ffffffffffffffff1690505f808267ffffffffffffffff16148015610afa5750825b90505f60018367ffffffffffffffff16148015610b2d57505f3073ffffffffffffffffffffffffffffffffffffffff163b145b905081158015610b3b575080155b15610b72576040517ff92ee8a900000000000000000000000000000000000000000000000000000000815260040160405180910390fd5b6001855f015f6101000a81548167ffffffffffffffff021916908367ffffffffffffffff1602179055508315610bbf576001855f0160086101000a81548160ff0219169083151502179055505b610bc88661156c565b865f806101000a81548173ffffffffffffffffffffffffffffffffffffffff021916908373ffffffffffffffffffffffffffffffffffffffff1602179055508315610c61575f855f0160086101000a81548160ff0219169083151502179055507fc7f505b2f371ae2175ee4913f4499e1f2633a7b5936321eed1cdaeb6115181d26001604051610c5891906121f3565b60405180910390a15b50505050505050565b610c72611580565b610c7b5f611607565b565b5f8054906101000a900473ffffffffffffffffffffffffffffffffffffffff1681565b6001805f015490806001015490806002018054610cbc90612239565b80601f0160208091040260200160405190810160405280929190818152602001828054610ce890612239565b8015610d335780601f10610d0a57610100808354040283529160200191610d33565b820191905f5260205f20905b815481529060010190602001808311610d1657829003601f168201915b5050505050905083565b5f80610d476116d8565b9050805f015f9054906101000a900473ffffffffffffffffffffffffffffffffffffffff1691505090565b6005602052815f5260405f20602052805f5260405f205f91509150505481565b6004602052805f5260405f205f915090505481565b5f8054906101000a900473ffffffffffffffffffffffffffffffffffffffff1673ffffffffffffffffffffffffffffffffffffffff166324d7806c336040518263ffffffff1660e01b8152600401610dff91906119b9565b602060405180830381865afa158015610e1a573d5f803e3d5ffd5b505050506040513d601f19601f82011682018060405250810190610e3e919061229e565b610e7d576040517f08c379a0000000000000000000000000000000000000000000000000000000008152600401610e7490612313565b60405180910390fd5b8060055f8573ffffffffffffffffffffffffffffffffffffffff1673ffffffffffffffffffffffffffffffffffffffff1681526020019081526020015f205f8473ffffffffffffffffffffffffffffffffffffffff1673ffffffffffffffffffffffffffffffffffffffff1681526020019081526020015f20819055508173ffffffffffffffffffffffffffffffffffffffff168373ffffffffffffffffffffffffffffffffffffffff167f3d0601f3b0e52fd772f1fa71d91651b34b6a11144bea30d74e0f820019a04dc283604051610f5791906118fb565b60405180910390a3505050565b5f8054906101000a900473ffffffffffffffffffffffffffffffffffffffff1673ffffffffffffffffffffffffffffffffffffffff166324d7806c336040518263ffffffff1660e01b8152600401610fbc91906119b9565b602060405180830381865afa158015610fd7573d5f803e3d5ffd5b505050506040513d601f19601f82011682018060405250810190610ffb919061229e565b61103a576040517f08c379a000000000000000000000000000000000000000000000000000000000815260040161103190612313565b60405180910390fd5b81831061107c576040517f08c379a0000000000000000000000000000000000000000000000000000000008152600401611073906123a1565b60405180910390fd5b60405180606001604052808481526020018381526020018281525060015f820151815f01556020820151816001015560408201518160020190816110c09190612553565b509050507f09e6db48f22357e6dce2bbff89db8ff25f0012a08186d6ea72e2343fdc112e138383836040516110f793929190611b5c565b60405180910390a1505050565b61110c611580565b5f73ffffffffffffffffffffffffffffffffffffffff168173ffffffffffffffffffffffffffffffffffffffff160361117c575f6040517f1e4fbdf700000000000000000000000000000000000000000000000000000000815260040161117391906119b9565b60405180910390fd5b61118581611607565b50565b611190611580565b5f81116111d2576040517f08c379a00000000000000000000000000000000000000000000000000000000081526004016111c990612692565b60405180910390fd5b8060045f8473ffffffffffffffffffffffffffffffffffffffff1673ffffffffffffffffffffffffffffffffffffffff1681526020019081526020015f20541015611252576040517f08c379a0000000000000000000000000000000000000000000000000000000008152600401611249906126fa565b60405180910390fd5b8060045f8473ffffffffffffffffffffffffffffffffffffffff1673ffffffffffffffffffffffffffffffffffffffff1681526020019081526020015f205f82825461129e9190611fd5565b9250508190555073f194afdf50b03e69bd7d057c1aa9e10c9954e4c973ffffffffffffffffffffffffffffffffffffffff168273ffffffffffffffffffffffffffffffffffffffff16036113a1575f6112f5610d3d565b73ffffffffffffffffffffffffffffffffffffffff168260405161131890612035565b5f6040518083038185875af1925050503d805f8114611352576040519150601f19603f3d011682016040523d82523d5f602084013e611357565b606091505b505090508061139b576040517f08c379a000000000000000000000000000000000000000000000000000000000815260040161139290612093565b60405180910390fd5b506113d4565b6113d36113ac610d3d565b828473ffffffffffffffffffffffffffffffffffffffff166114449092919063ffffffff16565b5b8173ffffffffffffffffffffffffffffffffffffffff166113f3610d3d565b73ffffffffffffffffffffffffffffffffffffffff167f9b1bfa7fa9ee420a16e124f794c35ac9f90472acc99140eb2f6447c714cad8eb8360405161143891906118fb565b60405180910390a35050565b6114be838473ffffffffffffffffffffffffffffffffffffffff1663a9059cbb8585604051602401611477929190612718565b604051602081830303815290604052915060e01b6020820180517bffffffffffffffffffffffffffffffffffffffffffffffffffffffff83818316178352505050506116ff565b505050565b61153f848573ffffffffffffffffffffffffffffffffffffffff166323b872dd8686866040516024016114f89392919061273f565b604051602081830303815290604052915060e01b6020820180517bffffffffffffffffffffffffffffffffffffffffffffffffffffffff83818316178352505050506116ff565b50505050565b5f7ff0c57e16840df040f15088dc2f81fe391c3923bec73e23a9662efc9c229c6a00905090565b61157461179a565b61157d816117da565b50565b61158861185e565b73ffffffffffffffffffffffffffffffffffffffff166115a6610d3d565b73ffffffffffffffffffffffffffffffffffffffff1614611605576115c961185e565b6040517f118cdaa70000000000000000000000000000000000000000000000000000000081526004016115fc91906119b9565b60405180910390fd5b565b5f6116106116d8565b90505f815f015f9054906101000a900473ffffffffffffffffffffffffffffffffffffffff16905082825f015f6101000a81548173ffffffffffffffffffffffffffffffffffffffff021916908373ffffffffffffffffffffffffffffffffffffffff1602179055508273ffffffffffffffffffffffffffffffffffffffff168173ffffffffffffffffffffffffffffffffffffffff167f8be0079c531659141344cd1fd0a4f28419497f9722a3daafe3b4186f6b6457e060405160405180910390a3505050565b5f7f9016d09d72d40fdae2fd8ceac6b6234c7706214fd39c1cd1e609a0528c199300905090565b5f8060205f8451602086015f885af18061171e576040513d5f823e3d81fd5b3d92505f519150505f8214611737576001811415611752565b5f8473ffffffffffffffffffffffffffffffffffffffff163b145b1561179457836040517f5274afe700000000000000000000000000000000000000000000000000000000815260040161178b91906119b9565b60405180910390fd5b50505050565b6117a2611865565b6117d8576040517fd7e6bcf800000000000000000000000000000000000000000000000000000000815260040160405180910390fd5b565b6117e261179a565b5f73ffffffffffffffffffffffffffffffffffffffff168173ffffffffffffffffffffffffffffffffffffffff1603611852575f6040517f1e4fbdf700000000000000000000000000000000000000000000000000000000815260040161184991906119b9565b60405180910390fd5b61185b81611607565b50565b5f33905090565b5f61186e611545565b5f0160089054906101000a900460ff16905090565b5f819050919050565b7f4e487b71000000000000000000000000000000000000000000000000000000005f52601160045260245ffd5b5f6118c382611883565b91506118ce83611883565b92508282019050808211156118e6576118e561188c565b5b92915050565b6118f581611883565b82525050565b5f60208201905061190e5f8301846118ec565b92915050565b5f604051905090565b5f80fd5b5f80fd5b5f73ffffffffffffffffffffffffffffffffffffffff82169050919050565b5f61194e82611925565b9050919050565b61195e81611944565b8114611968575f80fd5b50565b5f8135905061197981611955565b92915050565b5f602082840312156119945761199361191d565b5b5f6119a18482850161196b565b91505092915050565b6119b381611944565b82525050565b5f6020820190506119cc5f8301846119aa565b92915050565b6119db81611883565b81146119e5575f80fd5b50565b5f813590506119f6816119d2565b92915050565b5f8060408385031215611a1257611a1161191d565b5b5f611a1f8582860161196b565b9250506020611a30858286016119e8565b9150509250929050565b5f8060408385031215611a5057611a4f61191d565b5b5f611a5d8582860161196b565b9250506020611a6e8582860161196b565b9150509250929050565b5f819050919050565b5f611a9b611a96611a9184611925565b611a78565b611925565b9050919050565b5f611aac82611a81565b9050919050565b5f611abd82611aa2565b9050919050565b611acd81611ab3565b82525050565b5f602082019050611ae65f830184611ac4565b92915050565b5f81519050919050565b5f82825260208201905092915050565b8281835e5f83830152505050565b5f601f19601f8301169050919050565b5f611b2e82611aec565b611b388185611af6565b9350611b48818560208601611b06565b611b5181611b14565b840191505092915050565b5f606082019050611b6f5f8301866118ec565b611b7c60208301856118ec565b8181036040830152611b8e8184611b24565b9050949350505050565b5f805f60608486031215611baf57611bae61191d565b5b5f611bbc8682870161196b565b9350506020611bcd8682870161196b565b9250506040611bde868287016119e8565b9150509250925092565b5f80fd5b5f80fd5b7f4e487b71000000000000000000000000000000000000000000000000000000005f52604160045260245ffd5b611c2682611b14565b810181811067ffffffffffffffff82111715611c4557611c44611bf0565b5b80604052505050565b5f611c57611914565b9050611c638282611c1d565b919050565b5f67ffffffffffffffff821115611c8257611c81611bf0565b5b611c8b82611b14565b9050602081019050919050565b828183375f83830152505050565b5f611cb8611cb384611c68565b611c4e565b905082815260208101848484011115611cd457611cd3611bec565b5b611cdf848285611c98565b509392505050565b5f82601f830112611cfb57611cfa611be8565b5b8135611d0b848260208601611ca6565b91505092915050565b5f805f60608486031215611d2b57611d2a61191d565b5b5f611d38868287016119e8565b9350506020611d49868287016119e8565b925050604084013567ffffffffffffffff811115611d6a57611d69611921565b5b611d7686828701611ce7565b9150509250925092565b7f4e6f742077697468696e20726f756e64206475726174696f6e000000000000005f82015250565b5f611db4601983611af6565b9150611dbf82611d80565b602082019050919050565b5f6020820190508181035f830152611de181611da8565b9050919050565b7f4e6f20636c61696d61626c6520616d6f756e74000000000000000000000000005f82015250565b5f611e1c601383611af6565b9150611e2782611de8565b602082019050919050565b5f6020820190508181035f830152611e4981611e10565b9050919050565b7f496e73756666696369656e742066756e647320696e206a6172000000000000005f82015250565b5f611e84601983611af6565b9150611e8f82611e50565b602082019050919050565b5f6020820190508181035f830152611eb181611e78565b9050919050565b7f54727573740000000000000000000000000000000000000000000000000000005f82015250565b5f611eec600583611af6565b9150611ef782611eb8565b602082019050919050565b5f604082019050611f155f8301846119aa565b8181036020830152611f2681611ee0565b905092915050565b5f81519050611f3c816119d2565b92915050565b5f60208284031215611f5757611f5661191d565b5b5f611f6484828501611f2e565b91505092915050565b7f496e73756666696369656e742054727573742073636f726500000000000000005f82015250565b5f611fa1601883611af6565b9150611fac82611f6d565b602082019050919050565b5f6020820190508181035f830152611fce81611f95565b9050919050565b5f611fdf82611883565b9150611fea83611883565b92508282039050818111156120025761200161188c565b5b92915050565b5f81905092915050565b50565b5f6120205f83612008565b915061202b82612012565b5f82019050919050565b5f61203f82612015565b9150819050919050565b7f4574686572207472616e73666572206661696c656400000000000000000000005f82015250565b5f61207d601583611af6565b915061208882612049565b602082019050919050565b5f6020820190508181035f8301526120aa81612071565b9050919050565b7f496e636f727265637420457468657220616d6f756e74000000000000000000005f82015250565b5f6120e5601683611af6565b91506120f0826120b1565b602082019050919050565b5f6020820190508181035f830152612112816120d9565b9050919050565b7f4465706f73697420616d6f756e74206d757374206265206772656174657220745f8201527f68616e207a65726f000000000000000000000000000000000000000000000000602082015250565b5f612173602883611af6565b915061217e82612119565b604082019050919050565b5f6020820190508181035f8301526121a081612167565b9050919050565b5f819050919050565b5f67ffffffffffffffff82169050919050565b5f6121dd6121d86121d3846121a7565b611a78565b6121b0565b9050919050565b6121ed816121c3565b82525050565b5f6020820190506122065f8301846121e4565b92915050565b7f4e487b71000000000000000000000000000000000000000000000000000000005f52602260045260245ffd5b5f600282049050600182168061225057607f821691505b6020821081036122635761226261220c565b5b50919050565b5f8115159050919050565b61227d81612269565b8114612287575f80fd5b50565b5f8151905061229881612274565b92915050565b5f602082840312156122b3576122b261191d565b5b5f6122c08482850161228a565b91505092915050565b7f43616c6c6572206973206e6f7420616e2061646d696e000000000000000000005f82015250565b5f6122fd601683611af6565b9150612308826122c9565b602082019050919050565b5f6020820190508181035f83015261232a816122f1565b9050919050565b7f53746172742074696d65206d757374206265206265666f726520656e642074695f8201527f6d65000000000000000000000000000000000000000000000000000000000000602082015250565b5f61238b602283611af6565b915061239682612331565b604082019050919050565b5f6020820190508181035f8301526123b88161237f565b9050919050565b5f819050815f5260205f209050919050565b5f6020601f8301049050919050565b5f82821b905092915050565b5f6008830261241b7fffffffffffffffffffffffffffffffffffffffffffffffffffffffffffffffff826123e0565b61242586836123e0565b95508019841693508086168417925050509392505050565b5f61245761245261244d84611883565b611a78565b611883565b9050919050565b5f819050919050565b6124708361243d565b61248461247c8261245e565b8484546123ec565b825550505050565b5f90565b61249861248c565b6124a3818484612467565b505050565b5b818110156124c6576124bb5f82612490565b6001810190506124a9565b5050565b601f82111561250b576124dc816123bf565b6124e5846123d1565b810160208510156124f4578190505b612508612500856123d1565b8301826124a8565b50505b505050565b5f82821c905092915050565b5f61252b5f1984600802612510565b1980831691505092915050565b5f612543838361251c565b9150826002028217905092915050565b61255c82611aec565b67ffffffffffffffff81111561257557612574611bf0565b5b61257f8254612239565b61258a8282856124ca565b5f60209050601f8311600181146125bb575f84156125a9578287015190505b6125b38582612538565b86555061261a565b601f1984166125c9866123bf565b5f5b828110156125f0578489015182556001820191506020850194506020810190506125cb565b8683101561260d5784890151612609601f89168261251c565b8355505b6001600288020188555050505b505050505050565b7f5769746864726177616c20616d6f756e74206d757374206265206772656174655f8201527f72207468616e207a65726f000000000000000000000000000000000000000000602082015250565b5f61267c602b83611af6565b915061268782612622565b604082019050919050565b5f6020820190508181035f8301526126a981612670565b9050919050565b7f496e73756666696369656e742066756e647300000000000000000000000000005f82015250565b5f6126e4601283611af6565b91506126ef826126b0565b602082019050919050565b5f6020820190508181035f830152612711816126d8565b9050919050565b5f60408201905061272b5f8301856119aa565b61273860208301846118ec565b9392505050565b5f6060820190506127525f8301866119aa565b61275f60208301856119aa565b61276c60408301846118ec565b94935050505056fea264697066735822122043e1481c8167809fa7db7c783cf02c683613220197cc4a5a2e91ae0454e3473d64736f6c634300081a0033",
					"opcodes": "PUSH1 0x80 PUSH1 0x40 MSTORE CALLVALUE DUP1 ISZERO PUSH1 0xE JUMPI PUSH0 DUP1 REVERT JUMPDEST POP PUSH2 0x27AA DUP1 PUSH2 0x1C PUSH0 CODECOPY PUSH0 RETURN INVALID PUSH1 0x80 PUSH1 0x40 MSTORE PUSH1 0x4 CALLDATASIZE LT PUSH2 0xE0 JUMPI PUSH0 CALLDATALOAD PUSH1 0xE0 SHR DUP1 PUSH4 0x8DA5CB5B GT PUSH2 0x7E JUMPI DUP1 PUSH4 0xB807A3C4 GT PUSH2 0x58 JUMPI DUP1 PUSH4 0xB807A3C4 EQ PUSH2 0x36F JUMPI DUP1 PUSH4 0xBE9A7687 EQ PUSH2 0x397 JUMPI DUP1 PUSH4 0xF2FDE38B EQ PUSH2 0x3BF JUMPI DUP1 PUSH4 0xF3FEF3A3 EQ PUSH2 0x3E7 JUMPI PUSH2 0x1C7 JUMP JUMPDEST DUP1 PUSH4 0x8DA5CB5B EQ PUSH2 0x2CD JUMPI DUP1 PUSH4 0xA9590E8A EQ PUSH2 0x2F7 JUMPI DUP1 PUSH4 0xAEE9C872 EQ PUSH2 0x333 JUMPI PUSH2 0x1C7 JUMP JUMPDEST DUP1 PUSH4 0x485CC955 GT PUSH2 0xBA JUMPI DUP1 PUSH4 0x485CC955 EQ PUSH2 0x239 JUMPI DUP1 PUSH4 0x715018A6 EQ PUSH2 0x261 JUMPI DUP1 PUSH4 0x85C758F7 EQ PUSH2 0x277 JUMPI DUP1 PUSH4 0x8A19C8BC EQ PUSH2 0x2A1 JUMPI PUSH2 0x1C7 JUMP JUMPDEST DUP1 PUSH4 0x1E83409A EQ PUSH2 0x1CB JUMPI DUP1 PUSH4 0x42CB1FBC EQ PUSH2 0x1F3 JUMPI DUP1 PUSH4 0x47E7EF24 EQ PUSH2 0x21D JUMPI PUSH2 0x1C7 JUMP JUMPDEST CALLDATASIZE PUSH2 0x1C7 JUMPI CALLVALUE PUSH1 0x4 PUSH0 PUSH20 0xF194AFDF50B03E69BD7D057C1AA9E10C9954E4C9 PUSH20 0xFFFFFFFFFFFFFFFFFFFFFFFFFFFFFFFFFFFFFFFF AND PUSH20 0xFFFFFFFFFFFFFFFFFFFFFFFFFFFFFFFFFFFFFFFF AND DUP2 MSTORE PUSH1 0x20 ADD SWAP1 DUP2 MSTORE PUSH1 0x20 ADD PUSH0 KECCAK256 PUSH0 DUP3 DUP3 SLOAD PUSH2 0x145 SWAP2 SWAP1 PUSH2 0x18B9 JUMP JUMPDEST SWAP3 POP POP DUP2 SWAP1 SSTORE POP PUSH20 0xF194AFDF50B03E69BD7D057C1AA9E10C9954E4C9 PUSH20 0xFFFFFFFFFFFFFFFFFFFFFFFFFFFFFFFFFFFFFFFF AND CALLER PUSH20 0xFFFFFFFFFFFFFFFFFFFFFFFFFFFFFFFFFFFFFFFF AND PUSH32 0x5548C837AB068CF56A2C2479DF0882A4922FD203EDB7517321831D95078C5F62 CALLVALUE PUSH1 0x40 MLOAD PUSH2 0x1BD SWAP2 SWAP1 PUSH2 0x18FB JUMP JUMPDEST PUSH1 0x40 MLOAD DUP1 SWAP2 SUB SWAP1 LOG3 STOP JUMPDEST PUSH0 DUP1 REVERT JUMPDEST CALLVALUE DUP1 ISZERO PUSH2 0x1D6 JUMPI PUSH0 DUP1 REVERT JUMPDEST POP PUSH2 0x1F1 PUSH1 0x4 DUP1 CALLDATASIZE SUB DUP2 ADD SWAP1 PUSH2 0x1EC SWAP2 SWAP1 PUSH2 0x197F JUMP JUMPDEST PUSH2 0x40F JUMP JUMPDEST STOP JUMPDEST CALLVALUE DUP1 ISZERO PUSH2 0x1FE JUMPI PUSH0 DUP1 REVERT JUMPDEST POP PUSH2 0x207 PUSH2 0x8D7 JUMP JUMPDEST PUSH1 0x40 MLOAD PUSH2 0x214 SWAP2 SWAP1 PUSH2 0x19B9 JUMP JUMPDEST PUSH1 0x40 MLOAD DUP1 SWAP2 SUB SWAP1 RETURN JUMPDEST PUSH2 0x237 PUSH1 0x4 DUP1 CALLDATASIZE SUB DUP2 ADD SWAP1 PUSH2 0x232 SWAP2 SWAP1 PUSH2 0x19FC JUMP JUMPDEST PUSH2 0x8EF JUMP JUMPDEST STOP JUMPDEST CALLVALUE DUP1 ISZERO PUSH2 0x244 JUMPI PUSH0 DUP1 REVERT JUMPDEST POP PUSH2 0x25F PUSH1 0x4 DUP1 CALLDATASIZE SUB DUP2 ADD SWAP1 PUSH2 0x25A SWAP2 SWAP1 PUSH2 0x1A3A JUMP JUMPDEST PUSH2 0xAA9 JUMP JUMPDEST STOP JUMPDEST CALLVALUE DUP1 ISZERO PUSH2 0x26C JUMPI PUSH0 DUP1 REVERT JUMPDEST POP PUSH2 0x275 PUSH2 0xC6A JUMP JUMPDEST STOP JUMPDEST CALLVALUE DUP1 ISZERO PUSH2 0x282 JUMPI PUSH0 DUP1 REVERT JUMPDEST POP PUSH2 0x28B PUSH2 0xC7D JUMP JUMPDEST PUSH1 0x40 MLOAD PUSH2 0x298 SWAP2 SWAP1 PUSH2 0x1AD3 JUMP JUMPDEST PUSH1 0x40 MLOAD DUP1 SWAP2 SUB SWAP1 RETURN JUMPDEST CALLVALUE DUP1 ISZERO PUSH2 0x2AC JUMPI PUSH0 DUP1 REVERT JUMPDEST POP PUSH2 0x2B5 PUSH2 0xCA0 JUMP JUMPDEST PUSH1 0x40 MLOAD PUSH2 0x2C4 SWAP4 SWAP3 SWAP2 SWAP1 PUSH2 0x1B5C JUMP JUMPDEST PUSH1 0x40 MLOAD DUP1 SWAP2 SUB SWAP1 RETURN JUMPDEST CALLVALUE DUP1 ISZERO PUSH2 0x2D8 JUMPI PUSH0 DUP1 REVERT JUMPDEST POP PUSH2 0x2E1 PUSH2 0xD3D JUMP JUMPDEST PUSH1 0x40 MLOAD PUSH2 0x2EE SWAP2 SWAP1 PUSH2 0x19B9 JUMP JUMPDEST PUSH1 0x40 MLOAD DUP1 SWAP2 SUB SWAP1 RETURN JUMPDEST CALLVALUE DUP1 ISZERO PUSH2 0x302 JUMPI PUSH0 DUP1 REVERT JUMPDEST POP PUSH2 0x31D PUSH1 0x4 DUP1 CALLDATASIZE SUB DUP2 ADD SWAP1 PUSH2 0x318 SWAP2 SWAP1 PUSH2 0x1A3A JUMP JUMPDEST PUSH2 0xD72 JUMP JUMPDEST PUSH1 0x40 MLOAD PUSH2 0x32A SWAP2 SWAP1 PUSH2 0x18FB JUMP JUMPDEST PUSH1 0x40 MLOAD DUP1 SWAP2 SUB SWAP1 RETURN JUMPDEST CALLVALUE DUP1 ISZERO PUSH2 0x33E JUMPI PUSH0 DUP1 REVERT JUMPDEST POP PUSH2 0x359 PUSH1 0x4 DUP1 CALLDATASIZE SUB DUP2 ADD SWAP1 PUSH2 0x354 SWAP2 SWAP1 PUSH2 0x197F JUMP JUMPDEST PUSH2 0xD92 JUMP JUMPDEST PUSH1 0x40 MLOAD PUSH2 0x366 SWAP2 SWAP1 PUSH2 0x18FB JUMP JUMPDEST PUSH1 0x40 MLOAD DUP1 SWAP2 SUB SWAP1 RETURN JUMPDEST CALLVALUE DUP1 ISZERO PUSH2 0x37A JUMPI PUSH0 DUP1 REVERT JUMPDEST POP PUSH2 0x395 PUSH1 0x4 DUP1 CALLDATASIZE SUB DUP2 ADD SWAP1 PUSH2 0x390 SWAP2 SWAP1 PUSH2 0x1B98 JUMP JUMPDEST PUSH2 0xDA7 JUMP JUMPDEST STOP JUMPDEST CALLVALUE DUP1 ISZERO PUSH2 0x3A2 JUMPI PUSH0 DUP1 REVERT JUMPDEST POP PUSH2 0x3BD PUSH1 0x4 DUP1 CALLDATASIZE SUB DUP2 ADD SWAP1 PUSH2 0x3B8 SWAP2 SWAP1 PUSH2 0x1D14 JUMP JUMPDEST PUSH2 0xF64 JUMP JUMPDEST STOP JUMPDEST CALLVALUE DUP1 ISZERO PUSH2 0x3CA JUMPI PUSH0 DUP1 REVERT JUMPDEST POP PUSH2 0x3E5 PUSH1 0x4 DUP1 CALLDATASIZE SUB DUP2 ADD SWAP1 PUSH2 0x3E0 SWAP2 SWAP1 PUSH2 0x197F JUMP JUMPDEST PUSH2 0x1104 JUMP JUMPDEST STOP JUMPDEST CALLVALUE DUP1 ISZERO PUSH2 0x3F2 JUMPI PUSH0 DUP1 REVERT JUMPDEST POP PUSH2 0x40D PUSH1 0x4 DUP1 CALLDATASIZE SUB DUP2 ADD SWAP1 PUSH2 0x408 SWAP2 SWAP1 PUSH2 0x19FC JUMP JUMPDEST PUSH2 0x1188 JUMP JUMPDEST STOP JUMPDEST PUSH1 0x1 PUSH0 ADD SLOAD TIMESTAMP LT ISZERO DUP1 ISZERO PUSH2 0x427 JUMPI POP PUSH1 0x1 DUP1 ADD SLOAD TIMESTAMP GT ISZERO JUMPDEST PUSH2 0x466 JUMPI PUSH1 0x40 MLOAD PUSH32 0x8C379A000000000000000000000000000000000000000000000000000000000 DUP2 MSTORE PUSH1 0x4 ADD PUSH2 0x45D SWAP1 PUSH2 0x1DCA JUMP JUMPDEST PUSH1 0x40 MLOAD DUP1 SWAP2 SUB SWAP1 REVERT JUMPDEST PUSH0 PUSH1 0x5 PUSH0 CALLER PUSH20 0xFFFFFFFFFFFFFFFFFFFFFFFFFFFFFFFFFFFFFFFF AND PUSH20 0xFFFFFFFFFFFFFFFFFFFFFFFFFFFFFFFFFFFFFFFF AND DUP2 MSTORE PUSH1 0x20 ADD SWAP1 DUP2 MSTORE PUSH1 0x20 ADD PUSH0 KECCAK256 PUSH0 DUP4 PUSH20 0xFFFFFFFFFFFFFFFFFFFFFFFFFFFFFFFFFFFFFFFF AND PUSH20 0xFFFFFFFFFFFFFFFFFFFFFFFFFFFFFFFFFFFFFFFF AND DUP2 MSTORE PUSH1 0x20 ADD SWAP1 DUP2 MSTORE PUSH1 0x20 ADD PUSH0 KECCAK256 SLOAD SWAP1 POP PUSH0 DUP2 GT PUSH2 0x524 JUMPI PUSH1 0x40 MLOAD PUSH32 0x8C379A000000000000000000000000000000000000000000000000000000000 DUP2 MSTORE PUSH1 0x4 ADD PUSH2 0x51B SWAP1 PUSH2 0x1E32 JUMP JUMPDEST PUSH1 0x40 MLOAD DUP1 SWAP2 SUB SWAP1 REVERT JUMPDEST DUP1 PUSH1 0x4 PUSH0 DUP5 PUSH20 0xFFFFFFFFFFFFFFFFFFFFFFFFFFFFFFFFFFFFFFFF AND PUSH20 0xFFFFFFFFFFFFFFFFFFFFFFFFFFFFFFFFFFFFFFFF AND DUP2 MSTORE PUSH1 0x20 ADD SWAP1 DUP2 MSTORE PUSH1 0x20 ADD PUSH0 KECCAK256 SLOAD LT ISZERO PUSH2 0x5A4 JUMPI PUSH1 0x40 MLOAD PUSH32 0x8C379A000000000000000000000000000000000000000000000000000000000 DUP2 MSTORE PUSH1 0x4 ADD PUSH2 0x59B SWAP1 PUSH2 0x1E9A JUMP JUMPDEST PUSH1 0x40 MLOAD DUP1 SWAP2 SUB SWAP1 REVERT JUMPDEST PUSH0 DUP1 PUSH0 SWAP1 SLOAD SWAP1 PUSH2 0x100 EXP SWAP1 DIV PUSH20 0xFFFFFFFFFFFFFFFFFFFFFFFFFFFFFFFFFFFFFFFF AND PUSH20 0xFFFFFFFFFFFFFFFFFFFFFFFFFFFFFFFFFFFFFFFF AND PUSH4 0xDB4F1024 CALLER PUSH1 0x40 MLOAD DUP3 PUSH4 0xFFFFFFFF AND PUSH1 0xE0 SHL DUP2 MSTORE PUSH1 0x4 ADD PUSH2 0x5FE SWAP2 SWAP1 PUSH2 0x1F02 JUMP JUMPDEST PUSH1 0x20 PUSH1 0x40 MLOAD DUP1 DUP4 SUB DUP2 DUP7 GAS STATICCALL ISZERO DUP1 ISZERO PUSH2 0x619 JUMPI RETURNDATASIZE PUSH0 DUP1 RETURNDATACOPY RETURNDATASIZE PUSH0 REVERT JUMPDEST POP POP POP POP PUSH1 0x40 MLOAD RETURNDATASIZE PUSH1 0x1F NOT PUSH1 0x1F DUP3 ADD AND DUP3 ADD DUP1 PUSH1 0x40 MSTORE POP DUP2 ADD SWAP1 PUSH2 0x63D SWAP2 SWAP1 PUSH2 0x1F42 JUMP JUMPDEST GT PUSH2 0x67D JUMPI PUSH1 0x40 MLOAD PUSH32 0x8C379A000000000000000000000000000000000000000000000000000000000 DUP2 MSTORE PUSH1 0x4 ADD PUSH2 0x674 SWAP1 PUSH2 0x1FB7 JUMP JUMPDEST PUSH1 0x40 MLOAD DUP1 SWAP2 SUB SWAP1 REVERT JUMPDEST PUSH0 PUSH1 0x5 PUSH0 CALLER PUSH20 0xFFFFFFFFFFFFFFFFFFFFFFFFFFFFFFFFFFFFFFFF AND PUSH20 0xFFFFFFFFFFFFFFFFFFFFFFFFFFFFFFFFFFFFFFFF AND DUP2 MSTORE PUSH1 0x20 ADD SWAP1 DUP2 MSTORE PUSH1 0x20 ADD PUSH0 KECCAK256 PUSH0 DUP5 PUSH20 0xFFFFFFFFFFFFFFFFFFFFFFFFFFFFFFFFFFFFFFFF AND PUSH20 0xFFFFFFFFFFFFFFFFFFFFFFFFFFFFFFFFFFFFFFFF AND DUP2 MSTORE PUSH1 0x20 ADD SWAP1 DUP2 MSTORE PUSH1 0x20 ADD PUSH0 KECCAK256 DUP2 SWAP1 SSTORE POP DUP1 PUSH1 0x4 PUSH0 DUP5 PUSH20 0xFFFFFFFFFFFFFFFFFFFFFFFFFFFFFFFFFFFFFFFF AND PUSH20 0xFFFFFFFFFFFFFFFFFFFFFFFFFFFFFFFFFFFFFFFF AND DUP2 MSTORE PUSH1 0x20 ADD SWAP1 DUP2 MSTORE PUSH1 0x20 ADD PUSH0 KECCAK256 PUSH0 DUP3 DUP3 SLOAD PUSH2 0x746 SWAP2 SWAP1 PUSH2 0x1FD5 JUMP JUMPDEST SWAP3 POP POP DUP2 SWAP1 SSTORE POP PUSH20 0xF194AFDF50B03E69BD7D057C1AA9E10C9954E4C9 PUSH20 0xFFFFFFFFFFFFFFFFFFFFFFFFFFFFFFFFFFFFFFFF AND DUP3 PUSH20 0xFFFFFFFFFFFFFFFFFFFFFFFFFFFFFFFFFFFFFFFF AND SUB PUSH2 0x842 JUMPI PUSH0 CALLER PUSH20 0xFFFFFFFFFFFFFFFFFFFFFFFFFFFFFFFFFFFFFFFF AND DUP3 PUSH1 0x40 MLOAD PUSH2 0x7B9 SWAP1 PUSH2 0x2035 JUMP JUMPDEST PUSH0 PUSH1 0x40 MLOAD DUP1 DUP4 SUB DUP2 DUP6 DUP8 GAS CALL SWAP3 POP POP POP RETURNDATASIZE DUP1 PUSH0 DUP2 EQ PUSH2 0x7F3 JUMPI PUSH1 0x40 MLOAD SWAP2 POP PUSH1 0x1F NOT PUSH1 0x3F RETURNDATASIZE ADD AND DUP3 ADD PUSH1 0x40 MSTORE RETURNDATASIZE DUP3 MSTORE RETURNDATASIZE PUSH0 PUSH1 0x20 DUP5 ADD RETURNDATACOPY PUSH2 0x7F8 JUMP JUMPDEST PUSH1 0x60 SWAP2 POP JUMPDEST POP POP SWAP1 POP DUP1 PUSH2 0x83C JUMPI PUSH1 0x40 MLOAD PUSH32 0x8C379A000000000000000000000000000000000000000000000000000000000 DUP2 MSTORE PUSH1 0x4 ADD PUSH2 0x833 SWAP1 PUSH2 0x2093 JUMP JUMPDEST PUSH1 0x40 MLOAD DUP1 SWAP2 SUB SWAP1 REVERT JUMPDEST POP PUSH2 0x86E JUMP JUMPDEST PUSH2 0x86D CALLER DUP3 DUP5 PUSH20 0xFFFFFFFFFFFFFFFFFFFFFFFFFFFFFFFFFFFFFFFF AND PUSH2 0x1444 SWAP1 SWAP3 SWAP2 SWAP1 PUSH4 0xFFFFFFFF AND JUMP JUMPDEST JUMPDEST DUP2 PUSH20 0xFFFFFFFFFFFFFFFFFFFFFFFFFFFFFFFFFFFFFFFF AND CALLER PUSH20 0xFFFFFFFFFFFFFFFFFFFFFFFFFFFFFFFFFFFFFFFF AND PUSH32 0xF7A40077FF7A04C7E61F6F26FB13774259DDF1B6BCE9ECF26A8276CDD3992683 DUP4 PUSH1 0x40 MLOAD PUSH2 0x8CB SWAP2 SWAP1 PUSH2 0x18FB JUMP JUMPDEST PUSH1 0x40 MLOAD DUP1 SWAP2 SUB SWAP1 LOG3 POP POP JUMP JUMPDEST PUSH20 0xF194AFDF50B03E69BD7D057C1AA9E10C9954E4C9 DUP2 JUMP JUMPDEST PUSH20 0xF194AFDF50B03E69BD7D057C1AA9E10C9954E4C9 PUSH20 0xFFFFFFFFFFFFFFFFFFFFFFFFFFFFFFFFFFFFFFFF AND DUP3 PUSH20 0xFFFFFFFFFFFFFFFFFFFFFFFFFFFFFFFFFFFFFFFF AND SUB PUSH2 0x97D JUMPI DUP1 CALLVALUE EQ PUSH2 0x978 JUMPI PUSH1 0x40 MLOAD PUSH32 0x8C379A000000000000000000000000000000000000000000000000000000000 DUP2 MSTORE PUSH1 0x4 ADD PUSH2 0x96F SWAP1 PUSH2 0x20FB JUMP JUMPDEST PUSH1 0x40 MLOAD DUP1 SWAP2 SUB SWAP1 REVERT JUMPDEST PUSH2 0x9ED JUMP JUMPDEST PUSH0 DUP2 GT PUSH2 0x9BF JUMPI PUSH1 0x40 MLOAD PUSH32 0x8C379A000000000000000000000000000000000000000000000000000000000 DUP2 MSTORE PUSH1 0x4 ADD PUSH2 0x9B6 SWAP1 PUSH2 0x2189 JUMP JUMPDEST PUSH1 0x40 MLOAD DUP1 SWAP2 SUB SWAP1 REVERT JUMPDEST PUSH2 0x9EC CALLER ADDRESS DUP4 DUP6 PUSH20 0xFFFFFFFFFFFFFFFFFFFFFFFFFFFFFFFFFFFFFFFF AND PUSH2 0x14C3 SWAP1 SWAP4 SWAP3 SWAP2 SWAP1 PUSH4 0xFFFFFFFF AND JUMP JUMPDEST JUMPDEST DUP1 PUSH1 0x4 PUSH0 DUP5 PUSH20 0xFFFFFFFFFFFFFFFFFFFFFFFFFFFFFFFFFFFFFFFF AND PUSH20 0xFFFFFFFFFFFFFFFFFFFFFFFFFFFFFFFFFFFFFFFF AND DUP2 MSTORE PUSH1 0x20 ADD SWAP1 DUP2 MSTORE PUSH1 0x20 ADD PUSH0 KECCAK256 PUSH0 DUP3 DUP3 SLOAD PUSH2 0xA39 SWAP2 SWAP1 PUSH2 0x18B9 JUMP JUMPDEST SWAP3 POP POP DUP2 SWAP1 SSTORE POP DUP2 PUSH20 0xFFFFFFFFFFFFFFFFFFFFFFFFFFFFFFFFFFFFFFFF AND CALLER PUSH20 0xFFFFFFFFFFFFFFFFFFFFFFFFFFFFFFFFFFFFFFFF AND PUSH32 0x5548C837AB068CF56A2C2479DF0882A4922FD203EDB7517321831D95078C5F62 DUP4 PUSH1 0x40 MLOAD PUSH2 0xA9D SWAP2 SWAP1 PUSH2 0x18FB JUMP JUMPDEST PUSH1 0x40 MLOAD DUP1 SWAP2 SUB SWAP1 LOG3 POP POP JUMP JUMPDEST PUSH0 PUSH2 0xAB2 PUSH2 0x1545 JUMP JUMPDEST SWAP1 POP PUSH0 DUP2 PUSH0 ADD PUSH1 0x8 SWAP1 SLOAD SWAP1 PUSH2 0x100 EXP SWAP1 DIV PUSH1 0xFF AND ISZERO SWAP1 POP PUSH0 DUP3 PUSH0 ADD PUSH0 SWAP1 SLOAD SWAP1 PUSH2 0x100 EXP SWAP1 DIV PUSH8 0xFFFFFFFFFFFFFFFF AND SWAP1 POP PUSH0 DUP1 DUP3 PUSH8 0xFFFFFFFFFFFFFFFF AND EQ DUP1 ISZERO PUSH2 0xAFA JUMPI POP DUP3 JUMPDEST SWAP1 POP PUSH0 PUSH1 0x1 DUP4 PUSH8 0xFFFFFFFFFFFFFFFF AND EQ DUP1 ISZERO PUSH2 0xB2D JUMPI POP PUSH0 ADDRESS PUSH20 0xFFFFFFFFFFFFFFFFFFFFFFFFFFFFFFFFFFFFFFFF AND EXTCODESIZE EQ JUMPDEST SWAP1 POP DUP2 ISZERO DUP1 ISZERO PUSH2 0xB3B JUMPI POP DUP1 ISZERO JUMPDEST ISZERO PUSH2 0xB72 JUMPI PUSH1 0x40 MLOAD PUSH32 0xF92EE8A900000000000000000000000000000000000000000000000000000000 DUP2 MSTORE PUSH1 0x4 ADD PUSH1 0x40 MLOAD DUP1 SWAP2 SUB SWAP1 REVERT JUMPDEST PUSH1 0x1 DUP6 PUSH0 ADD PUSH0 PUSH2 0x100 EXP DUP2 SLOAD DUP2 PUSH8 0xFFFFFFFFFFFFFFFF MUL NOT AND SWAP1 DUP4 PUSH8 0xFFFFFFFFFFFFFFFF AND MUL OR SWAP1 SSTORE POP DUP4 ISZERO PUSH2 0xBBF JUMPI PUSH1 0x1 DUP6 PUSH0 ADD PUSH1 0x8 PUSH2 0x100 EXP DUP2 SLOAD DUP2 PUSH1 0xFF MUL NOT AND SWAP1 DUP4 ISZERO ISZERO MUL OR SWAP1 SSTORE POP JUMPDEST PUSH2 0xBC8 DUP7 PUSH2 0x156C JUMP JUMPDEST DUP7 PUSH0 DUP1 PUSH2 0x100 EXP DUP2 SLOAD DUP2 PUSH20 0xFFFFFFFFFFFFFFFFFFFFFFFFFFFFFFFFFFFFFFFF MUL NOT AND SWAP1 DUP4 PUSH20 0xFFFFFFFFFFFFFFFFFFFFFFFFFFFFFFFFFFFFFFFF AND MUL OR SWAP1 SSTORE POP DUP4 ISZERO PUSH2 0xC61 JUMPI PUSH0 DUP6 PUSH0 ADD PUSH1 0x8 PUSH2 0x100 EXP DUP2 SLOAD DUP2 PUSH1 0xFF MUL NOT AND SWAP1 DUP4 ISZERO ISZERO MUL OR SWAP1 SSTORE POP PUSH32 0xC7F505B2F371AE2175EE4913F4499E1F2633A7B5936321EED1CDAEB6115181D2 PUSH1 0x1 PUSH1 0x40 MLOAD PUSH2 0xC58 SWAP2 SWAP1 PUSH2 0x21F3 JUMP JUMPDEST PUSH1 0x40 MLOAD DUP1 SWAP2 SUB SWAP1 LOG1 JUMPDEST POP POP POP POP POP POP POP JUMP JUMPDEST PUSH2 0xC72 PUSH2 0x1580 JUMP JUMPDEST PUSH2 0xC7B PUSH0 PUSH2 0x1607 JUMP JUMPDEST JUMP JUMPDEST PUSH0 DUP1 SLOAD SWAP1 PUSH2 0x100 EXP SWAP1 DIV PUSH20 0xFFFFFFFFFFFFFFFFFFFFFFFFFFFFFFFFFFFFFFFF AND DUP2 JUMP JUMPDEST PUSH1 0x1 DUP1 PUSH0 ADD SLOAD SWAP1 DUP1 PUSH1 0x1 ADD SLOAD SWAP1 DUP1 PUSH1 0x2 ADD DUP1 SLOAD PUSH2 0xCBC SWAP1 PUSH2 0x2239 JUMP JUMPDEST DUP1 PUSH1 0x1F ADD PUSH1 0x20 DUP1 SWAP2 DIV MUL PUSH1 0x20 ADD PUSH1 0x40 MLOAD SWAP1 DUP2 ADD PUSH1 0x40 MSTORE DUP1 SWAP3 SWAP2 SWAP1 DUP2 DUP2 MSTORE PUSH1 0x20 ADD DUP3 DUP1 SLOAD PUSH2 0xCE8 SWAP1 PUSH2 0x2239 JUMP JUMPDEST DUP1 ISZERO PUSH2 0xD33 JUMPI DUP1 PUSH1 0x1F LT PUSH2 0xD0A JUMPI PUSH2 0x100 DUP1 DUP4 SLOAD DIV MUL DUP4 MSTORE SWAP2 PUSH1 0x20 ADD SWAP2 PUSH2 0xD33 JUMP JUMPDEST DUP3 ADD SWAP2 SWAP1 PUSH0 MSTORE PUSH1 0x20 PUSH0 KECCAK256 SWAP1 JUMPDEST DUP2 SLOAD DUP2 MSTORE SWAP1 PUSH1 0x1 ADD SWAP1 PUSH1 0x20 ADD DUP1 DUP4 GT PUSH2 0xD16 JUMPI DUP3 SWAP1 SUB PUSH1 0x1F AND DUP3 ADD SWAP2 JUMPDEST POP POP POP POP POP SWAP1 POP DUP4 JUMP JUMPDEST PUSH0 DUP1 PUSH2 0xD47 PUSH2 0x16D8 JUMP JUMPDEST SWAP1 POP DUP1 PUSH0 ADD PUSH0 SWAP1 SLOAD SWAP1 PUSH2 0x100 EXP SWAP1 DIV PUSH20 0xFFFFFFFFFFFFFFFFFFFFFFFFFFFFFFFFFFFFFFFF AND SWAP2 POP POP SWAP1 JUMP JUMPDEST PUSH1 0x5 PUSH1 0x20 MSTORE DUP2 PUSH0 MSTORE PUSH1 0x40 PUSH0 KECCAK256 PUSH1 0x20 MSTORE DUP1 PUSH0 MSTORE PUSH1 0x40 PUSH0 KECCAK256 PUSH0 SWAP2 POP SWAP2 POP POP SLOAD DUP2 JUMP JUMPDEST PUSH1 0x4 PUSH1 0x20 MSTORE DUP1 PUSH0 MSTORE PUSH1 0x40 PUSH0 KECCAK256 PUSH0 SWAP2 POP SWAP1 POP SLOAD DUP2 JUMP JUMPDEST PUSH0 DUP1 SLOAD SWAP1 PUSH2 0x100 EXP SWAP1 DIV PUSH20 0xFFFFFFFFFFFFFFFFFFFFFFFFFFFFFFFFFFFFFFFF AND PUSH20 0xFFFFFFFFFFFFFFFFFFFFFFFFFFFFFFFFFFFFFFFF AND PUSH4 0x24D7806C CALLER PUSH1 0x40 MLOAD DUP3 PUSH4 0xFFFFFFFF AND PUSH1 0xE0 SHL DUP2 MSTORE PUSH1 0x4 ADD PUSH2 0xDFF SWAP2 SWAP1 PUSH2 0x19B9 JUMP JUMPDEST PUSH1 0x20 PUSH1 0x40 MLOAD DUP1 DUP4 SUB DUP2 DUP7 GAS STATICCALL ISZERO DUP1 ISZERO PUSH2 0xE1A JUMPI RETURNDATASIZE PUSH0 DUP1 RETURNDATACOPY RETURNDATASIZE PUSH0 REVERT JUMPDEST POP POP POP POP PUSH1 0x40 MLOAD RETURNDATASIZE PUSH1 0x1F NOT PUSH1 0x1F DUP3 ADD AND DUP3 ADD DUP1 PUSH1 0x40 MSTORE POP DUP2 ADD SWAP1 PUSH2 0xE3E SWAP2 SWAP1 PUSH2 0x229E JUMP JUMPDEST PUSH2 0xE7D JUMPI PUSH1 0x40 MLOAD PUSH32 0x8C379A000000000000000000000000000000000000000000000000000000000 DUP2 MSTORE PUSH1 0x4 ADD PUSH2 0xE74 SWAP1 PUSH2 0x2313 JUMP JUMPDEST PUSH1 0x40 MLOAD DUP1 SWAP2 SUB SWAP1 REVERT JUMPDEST DUP1 PUSH1 0x5 PUSH0 DUP6 PUSH20 0xFFFFFFFFFFFFFFFFFFFFFFFFFFFFFFFFFFFFFFFF AND PUSH20 0xFFFFFFFFFFFFFFFFFFFFFFFFFFFFFFFFFFFFFFFF AND DUP2 MSTORE PUSH1 0x20 ADD SWAP1 DUP2 MSTORE PUSH1 0x20 ADD PUSH0 KECCAK256 PUSH0 DUP5 PUSH20 0xFFFFFFFFFFFFFFFFFFFFFFFFFFFFFFFFFFFFFFFF AND PUSH20 0xFFFFFFFFFFFFFFFFFFFFFFFFFFFFFFFFFFFFFFFF AND DUP2 MSTORE PUSH1 0x20 ADD SWAP1 DUP2 MSTORE PUSH1 0x20 ADD PUSH0 KECCAK256 DUP2 SWAP1 SSTORE POP DUP2 PUSH20 0xFFFFFFFFFFFFFFFFFFFFFFFFFFFFFFFFFFFFFFFF AND DUP4 PUSH20 0xFFFFFFFFFFFFFFFFFFFFFFFFFFFFFFFFFFFFFFFF AND PUSH32 0x3D0601F3B0E52FD772F1FA71D91651B34B6A11144BEA30D74E0F820019A04DC2 DUP4 PUSH1 0x40 MLOAD PUSH2 0xF57 SWAP2 SWAP1 PUSH2 0x18FB JUMP JUMPDEST PUSH1 0x40 MLOAD DUP1 SWAP2 SUB SWAP1 LOG3 POP POP POP JUMP JUMPDEST PUSH0 DUP1 SLOAD SWAP1 PUSH2 0x100 EXP SWAP1 DIV PUSH20 0xFFFFFFFFFFFFFFFFFFFFFFFFFFFFFFFFFFFFFFFF AND PUSH20 0xFFFFFFFFFFFFFFFFFFFFFFFFFFFFFFFFFFFFFFFF AND PUSH4 0x24D7806C CALLER PUSH1 0x40 MLOAD DUP3 PUSH4 0xFFFFFFFF AND PUSH1 0xE0 SHL DUP2 MSTORE PUSH1 0x4 ADD PUSH2 0xFBC SWAP2 SWAP1 PUSH2 0x19B9 JUMP JUMPDEST PUSH1 0x20 PUSH1 0x40 MLOAD DUP1 DUP4 SUB DUP2 DUP7 GAS STATICCALL ISZERO DUP1 ISZERO PUSH2 0xFD7 JUMPI RETURNDATASIZE PUSH0 DUP1 RETURNDATACOPY RETURNDATASIZE PUSH0 REVERT JUMPDEST POP POP POP POP PUSH1 0x40 MLOAD RETURNDATASIZE PUSH1 0x1F NOT PUSH1 0x1F DUP3 ADD AND DUP3 ADD DUP1 PUSH1 0x40 MSTORE POP DUP2 ADD SWAP1 PUSH2 0xFFB SWAP2 SWAP1 PUSH2 0x229E JUMP JUMPDEST PUSH2 0x103A JUMPI PUSH1 0x40 MLOAD PUSH32 0x8C379A000000000000000000000000000000000000000000000000000000000 DUP2 MSTORE PUSH1 0x4 ADD PUSH2 0x1031 SWAP1 PUSH2 0x2313 JUMP JUMPDEST PUSH1 0x40 MLOAD DUP1 SWAP2 SUB SWAP1 REVERT JUMPDEST DUP2 DUP4 LT PUSH2 0x107C JUMPI PUSH1 0x40 MLOAD PUSH32 0x8C379A000000000000000000000000000000000000000000000000000000000 DUP2 MSTORE PUSH1 0x4 ADD PUSH2 0x1073 SWAP1 PUSH2 0x23A1 JUMP JUMPDEST PUSH1 0x40 MLOAD DUP1 SWAP2 SUB SWAP1 REVERT JUMPDEST PUSH1 0x40 MLOAD DUP1 PUSH1 0x60 ADD PUSH1 0x40 MSTORE DUP1 DUP5 DUP2 MSTORE PUSH1 0x20 ADD DUP4 DUP2 MSTORE PUSH1 0x20 ADD DUP3 DUP2 MSTORE POP PUSH1 0x1 PUSH0 DUP3 ADD MLOAD DUP2 PUSH0 ADD SSTORE PUSH1 0x20 DUP3 ADD MLOAD DUP2 PUSH1 0x1 ADD SSTORE PUSH1 0x40 DUP3 ADD MLOAD DUP2 PUSH1 0x2 ADD SWAP1 DUP2 PUSH2 0x10C0 SWAP2 SWAP1 PUSH2 0x2553 JUMP JUMPDEST POP SWAP1 POP POP PUSH32 0x9E6DB48F22357E6DCE2BBFF89DB8FF25F0012A08186D6EA72E2343FDC112E13 DUP4 DUP4 DUP4 PUSH1 0x40 MLOAD PUSH2 0x10F7 SWAP4 SWAP3 SWAP2 SWAP1 PUSH2 0x1B5C JUMP JUMPDEST PUSH1 0x40 MLOAD DUP1 SWAP2 SUB SWAP1 LOG1 POP POP POP JUMP JUMPDEST PUSH2 0x110C PUSH2 0x1580 JUMP JUMPDEST PUSH0 PUSH20 0xFFFFFFFFFFFFFFFFFFFFFFFFFFFFFFFFFFFFFFFF AND DUP2 PUSH20 0xFFFFFFFFFFFFFFFFFFFFFFFFFFFFFFFFFFFFFFFF AND SUB PUSH2 0x117C JUMPI PUSH0 PUSH1 0x40 MLOAD PUSH32 0x1E4FBDF700000000000000000000000000000000000000000000000000000000 DUP2 MSTORE PUSH1 0x4 ADD PUSH2 0x1173 SWAP2 SWAP1 PUSH2 0x19B9 JUMP JUMPDEST PUSH1 0x40 MLOAD DUP1 SWAP2 SUB SWAP1 REVERT JUMPDEST PUSH2 0x1185 DUP2 PUSH2 0x1607 JUMP JUMPDEST POP JUMP JUMPDEST PUSH2 0x1190 PUSH2 0x1580 JUMP JUMPDEST PUSH0 DUP2 GT PUSH2 0x11D2 JUMPI PUSH1 0x40 MLOAD PUSH32 0x8C379A000000000000000000000000000000000000000000000000000000000 DUP2 MSTORE PUSH1 0x4 ADD PUSH2 0x11C9 SWAP1 PUSH2 0x2692 JUMP JUMPDEST PUSH1 0x40 MLOAD DUP1 SWAP2 SUB SWAP1 REVERT JUMPDEST DUP1 PUSH1 0x4 PUSH0 DUP5 PUSH20 0xFFFFFFFFFFFFFFFFFFFFFFFFFFFFFFFFFFFFFFFF AND PUSH20 0xFFFFFFFFFFFFFFFFFFFFFFFFFFFFFFFFFFFFFFFF AND DUP2 MSTORE PUSH1 0x20 ADD SWAP1 DUP2 MSTORE PUSH1 0x20 ADD PUSH0 KECCAK256 SLOAD LT ISZERO PUSH2 0x1252 JUMPI PUSH1 0x40 MLOAD PUSH32 0x8C379A000000000000000000000000000000000000000000000000000000000 DUP2 MSTORE PUSH1 0x4 ADD PUSH2 0x1249 SWAP1 PUSH2 0x26FA JUMP JUMPDEST PUSH1 0x40 MLOAD DUP1 SWAP2 SUB SWAP1 REVERT JUMPDEST DUP1 PUSH1 0x4 PUSH0 DUP5 PUSH20 0xFFFFFFFFFFFFFFFFFFFFFFFFFFFFFFFFFFFFFFFF AND PUSH20 0xFFFFFFFFFFFFFFFFFFFFFFFFFFFFFFFFFFFFFFFF AND DUP2 MSTORE PUSH1 0x20 ADD SWAP1 DUP2 MSTORE PUSH1 0x20 ADD PUSH0 KECCAK256 PUSH0 DUP3 DUP3 SLOAD PUSH2 0x129E SWAP2 SWAP1 PUSH2 0x1FD5 JUMP JUMPDEST SWAP3 POP POP DUP2 SWAP1 SSTORE POP PUSH20 0xF194AFDF50B03E69BD7D057C1AA9E10C9954E4C9 PUSH20 0xFFFFFFFFFFFFFFFFFFFFFFFFFFFFFFFFFFFFFFFF AND DUP3 PUSH20 0xFFFFFFFFFFFFFFFFFFFFFFFFFFFFFFFFFFFFFFFF AND SUB PUSH2 0x13A1 JUMPI PUSH0 PUSH2 0x12F5 PUSH2 0xD3D JUMP JUMPDEST PUSH20 0xFFFFFFFFFFFFFFFFFFFFFFFFFFFFFFFFFFFFFFFF AND DUP3 PUSH1 0x40 MLOAD PUSH2 0x1318 SWAP1 PUSH2 0x2035 JUMP JUMPDEST PUSH0 PUSH1 0x40 MLOAD DUP1 DUP4 SUB DUP2 DUP6 DUP8 GAS CALL SWAP3 POP POP POP RETURNDATASIZE DUP1 PUSH0 DUP2 EQ PUSH2 0x1352 JUMPI PUSH1 0x40 MLOAD SWAP2 POP PUSH1 0x1F NOT PUSH1 0x3F RETURNDATASIZE ADD AND DUP3 ADD PUSH1 0x40 MSTORE RETURNDATASIZE DUP3 MSTORE RETURNDATASIZE PUSH0 PUSH1 0x20 DUP5 ADD RETURNDATACOPY PUSH2 0x1357 JUMP JUMPDEST PUSH1 0x60 SWAP2 POP JUMPDEST POP POP SWAP1 POP DUP1 PUSH2 0x139B JUMPI PUSH1 0x40 MLOAD PUSH32 0x8C379A000000000000000000000000000000000000000000000000000000000 DUP2 MSTORE PUSH1 0x4 ADD PUSH2 0x1392 SWAP1 PUSH2 0x2093 JUMP JUMPDEST PUSH1 0x40 MLOAD DUP1 SWAP2 SUB SWAP1 REVERT JUMPDEST POP PUSH2 0x13D4 JUMP JUMPDEST PUSH2 0x13D3 PUSH2 0x13AC PUSH2 0xD3D JUMP JUMPDEST DUP3 DUP5 PUSH20 0xFFFFFFFFFFFFFFFFFFFFFFFFFFFFFFFFFFFFFFFF AND PUSH2 0x1444 SWAP1 SWAP3 SWAP2 SWAP1 PUSH4 0xFFFFFFFF AND JUMP JUMPDEST JUMPDEST DUP2 PUSH20 0xFFFFFFFFFFFFFFFFFFFFFFFFFFFFFFFFFFFFFFFF AND PUSH2 0x13F3 PUSH2 0xD3D JUMP JUMPDEST PUSH20 0xFFFFFFFFFFFFFFFFFFFFFFFFFFFFFFFFFFFFFFFF AND PUSH32 0x9B1BFA7FA9EE420A16E124F794C35AC9F90472ACC99140EB2F6447C714CAD8EB DUP4 PUSH1 0x40 MLOAD PUSH2 0x1438 SWAP2 SWAP1 PUSH2 0x18FB JUMP JUMPDEST PUSH1 0x40 MLOAD DUP1 SWAP2 SUB SWAP1 LOG3 POP POP JUMP JUMPDEST PUSH2 0x14BE DUP4 DUP5 PUSH20 0xFFFFFFFFFFFFFFFFFFFFFFFFFFFFFFFFFFFFFFFF AND PUSH4 0xA9059CBB DUP6 DUP6 PUSH1 0x40 MLOAD PUSH1 0x24 ADD PUSH2 0x1477 SWAP3 SWAP2 SWAP1 PUSH2 0x2718 JUMP JUMPDEST PUSH1 0x40 MLOAD PUSH1 0x20 DUP2 DUP4 SUB SUB DUP2 MSTORE SWAP1 PUSH1 0x40 MSTORE SWAP2 POP PUSH1 0xE0 SHL PUSH1 0x20 DUP3 ADD DUP1 MLOAD PUSH28 0xFFFFFFFFFFFFFFFFFFFFFFFFFFFFFFFFFFFFFFFFFFFFFFFFFFFFFFFF DUP4 DUP2 DUP4 AND OR DUP4 MSTORE POP POP POP POP PUSH2 0x16FF JUMP JUMPDEST POP POP POP JUMP JUMPDEST PUSH2 0x153F DUP5 DUP6 PUSH20 0xFFFFFFFFFFFFFFFFFFFFFFFFFFFFFFFFFFFFFFFF AND PUSH4 0x23B872DD DUP7 DUP7 DUP7 PUSH1 0x40 MLOAD PUSH1 0x24 ADD PUSH2 0x14F8 SWAP4 SWAP3 SWAP2 SWAP1 PUSH2 0x273F JUMP JUMPDEST PUSH1 0x40 MLOAD PUSH1 0x20 DUP2 DUP4 SUB SUB DUP2 MSTORE SWAP1 PUSH1 0x40 MSTORE SWAP2 POP PUSH1 0xE0 SHL PUSH1 0x20 DUP3 ADD DUP1 MLOAD PUSH28 0xFFFFFFFFFFFFFFFFFFFFFFFFFFFFFFFFFFFFFFFFFFFFFFFFFFFFFFFF DUP4 DUP2 DUP4 AND OR DUP4 MSTORE POP POP POP POP PUSH2 0x16FF JUMP JUMPDEST POP POP POP POP JUMP JUMPDEST PUSH0 PUSH32 0xF0C57E16840DF040F15088DC2F81FE391C3923BEC73E23A9662EFC9C229C6A00 SWAP1 POP SWAP1 JUMP JUMPDEST PUSH2 0x1574 PUSH2 0x179A JUMP JUMPDEST PUSH2 0x157D DUP2 PUSH2 0x17DA JUMP JUMPDEST POP JUMP JUMPDEST PUSH2 0x1588 PUSH2 0x185E JUMP JUMPDEST PUSH20 0xFFFFFFFFFFFFFFFFFFFFFFFFFFFFFFFFFFFFFFFF AND PUSH2 0x15A6 PUSH2 0xD3D JUMP JUMPDEST PUSH20 0xFFFFFFFFFFFFFFFFFFFFFFFFFFFFFFFFFFFFFFFF AND EQ PUSH2 0x1605 JUMPI PUSH2 0x15C9 PUSH2 0x185E JUMP JUMPDEST PUSH1 0x40 MLOAD PUSH32 0x118CDAA700000000000000000000000000000000000000000000000000000000 DUP2 MSTORE PUSH1 0x4 ADD PUSH2 0x15FC SWAP2 SWAP1 PUSH2 0x19B9 JUMP JUMPDEST PUSH1 0x40 MLOAD DUP1 SWAP2 SUB SWAP1 REVERT JUMPDEST JUMP JUMPDEST PUSH0 PUSH2 0x1610 PUSH2 0x16D8 JUMP JUMPDEST SWAP1 POP PUSH0 DUP2 PUSH0 ADD PUSH0 SWAP1 SLOAD SWAP1 PUSH2 0x100 EXP SWAP1 DIV PUSH20 0xFFFFFFFFFFFFFFFFFFFFFFFFFFFFFFFFFFFFFFFF AND SWAP1 POP DUP3 DUP3 PUSH0 ADD PUSH0 PUSH2 0x100 EXP DUP2 SLOAD DUP2 PUSH20 0xFFFFFFFFFFFFFFFFFFFFFFFFFFFFFFFFFFFFFFFF MUL NOT AND SWAP1 DUP4 PUSH20 0xFFFFFFFFFFFFFFFFFFFFFFFFFFFFFFFFFFFFFFFF AND MUL OR SWAP1 SSTORE POP DUP3 PUSH20 0xFFFFFFFFFFFFFFFFFFFFFFFFFFFFFFFFFFFFFFFF AND DUP2 PUSH20 0xFFFFFFFFFFFFFFFFFFFFFFFFFFFFFFFFFFFFFFFF AND PUSH32 0x8BE0079C531659141344CD1FD0A4F28419497F9722A3DAAFE3B4186F6B6457E0 PUSH1 0x40 MLOAD PUSH1 0x40 MLOAD DUP1 SWAP2 SUB SWAP1 LOG3 POP POP POP JUMP JUMPDEST PUSH0 PUSH32 0x9016D09D72D40FDAE2FD8CEAC6B6234C7706214FD39C1CD1E609A0528C199300 SWAP1 POP SWAP1 JUMP JUMPDEST PUSH0 DUP1 PUSH1 0x20 PUSH0 DUP5 MLOAD PUSH1 0x20 DUP7 ADD PUSH0 DUP9 GAS CALL DUP1 PUSH2 0x171E JUMPI PUSH1 0x40 MLOAD RETURNDATASIZE PUSH0 DUP3 RETURNDATACOPY RETURNDATASIZE DUP2 REVERT JUMPDEST RETURNDATASIZE SWAP3 POP PUSH0 MLOAD SWAP2 POP POP PUSH0 DUP3 EQ PUSH2 0x1737 JUMPI PUSH1 0x1 DUP2 EQ ISZERO PUSH2 0x1752 JUMP JUMPDEST PUSH0 DUP5 PUSH20 0xFFFFFFFFFFFFFFFFFFFFFFFFFFFFFFFFFFFFFFFF AND EXTCODESIZE EQ JUMPDEST ISZERO PUSH2 0x1794 JUMPI DUP4 PUSH1 0x40 MLOAD PUSH32 0x5274AFE700000000000000000000000000000000000000000000000000000000 DUP2 MSTORE PUSH1 0x4 ADD PUSH2 0x178B SWAP2 SWAP1 PUSH2 0x19B9 JUMP JUMPDEST PUSH1 0x40 MLOAD DUP1 SWAP2 SUB SWAP1 REVERT JUMPDEST POP POP POP POP JUMP JUMPDEST PUSH2 0x17A2 PUSH2 0x1865 JUMP JUMPDEST PUSH2 0x17D8 JUMPI PUSH1 0x40 MLOAD PUSH32 0xD7E6BCF800000000000000000000000000000000000000000000000000000000 DUP2 MSTORE PUSH1 0x4 ADD PUSH1 0x40 MLOAD DUP1 SWAP2 SUB SWAP1 REVERT JUMPDEST JUMP JUMPDEST PUSH2 0x17E2 PUSH2 0x179A JUMP JUMPDEST PUSH0 PUSH20 0xFFFFFFFFFFFFFFFFFFFFFFFFFFFFFFFFFFFFFFFF AND DUP2 PUSH20 0xFFFFFFFFFFFFFFFFFFFFFFFFFFFFFFFFFFFFFFFF AND SUB PUSH2 0x1852 JUMPI PUSH0 PUSH1 0x40 MLOAD PUSH32 0x1E4FBDF700000000000000000000000000000000000000000000000000000000 DUP2 MSTORE PUSH1 0x4 ADD PUSH2 0x1849 SWAP2 SWAP1 PUSH2 0x19B9 JUMP JUMPDEST PUSH1 0x40 MLOAD DUP1 SWAP2 SUB SWAP1 REVERT JUMPDEST PUSH2 0x185B DUP2 PUSH2 0x1607 JUMP JUMPDEST POP JUMP JUMPDEST PUSH0 CALLER SWAP1 POP SWAP1 JUMP JUMPDEST PUSH0 PUSH2 0x186E PUSH2 0x1545 JUMP JUMPDEST PUSH0 ADD PUSH1 0x8 SWAP1 SLOAD SWAP1 PUSH2 0x100 EXP SWAP1 DIV PUSH1 0xFF AND SWAP1 POP SWAP1 JUMP JUMPDEST PUSH0 DUP2 SWAP1 POP SWAP2 SWAP1 POP JUMP JUMPDEST PUSH32 0x4E487B7100000000000000000000000000000000000000000000000000000000 PUSH0 MSTORE PUSH1 0x11 PUSH1 0x4 MSTORE PUSH1 0x24 PUSH0 REVERT JUMPDEST PUSH0 PUSH2 0x18C3 DUP3 PUSH2 0x1883 JUMP JUMPDEST SWAP2 POP PUSH2 0x18CE DUP4 PUSH2 0x1883 JUMP JUMPDEST SWAP3 POP DUP3 DUP3 ADD SWAP1 POP DUP1 DUP3 GT ISZERO PUSH2 0x18E6 JUMPI PUSH2 0x18E5 PUSH2 0x188C JUMP JUMPDEST JUMPDEST SWAP3 SWAP2 POP POP JUMP JUMPDEST PUSH2 0x18F5 DUP2 PUSH2 0x1883 JUMP JUMPDEST DUP3 MSTORE POP POP JUMP JUMPDEST PUSH0 PUSH1 0x20 DUP3 ADD SWAP1 POP PUSH2 0x190E PUSH0 DUP4 ADD DUP5 PUSH2 0x18EC JUMP JUMPDEST SWAP3 SWAP2 POP POP JUMP JUMPDEST PUSH0 PUSH1 0x40 MLOAD SWAP1 POP SWAP1 JUMP JUMPDEST PUSH0 DUP1 REVERT JUMPDEST PUSH0 DUP1 REVERT JUMPDEST PUSH0 PUSH20 0xFFFFFFFFFFFFFFFFFFFFFFFFFFFFFFFFFFFFFFFF DUP3 AND SWAP1 POP SWAP2 SWAP1 POP JUMP JUMPDEST PUSH0 PUSH2 0x194E DUP3 PUSH2 0x1925 JUMP JUMPDEST SWAP1 POP SWAP2 SWAP1 POP JUMP JUMPDEST PUSH2 0x195E DUP2 PUSH2 0x1944 JUMP JUMPDEST DUP2 EQ PUSH2 0x1968 JUMPI PUSH0 DUP1 REVERT JUMPDEST POP JUMP JUMPDEST PUSH0 DUP2 CALLDATALOAD SWAP1 POP PUSH2 0x1979 DUP2 PUSH2 0x1955 JUMP JUMPDEST SWAP3 SWAP2 POP POP JUMP JUMPDEST PUSH0 PUSH1 0x20 DUP3 DUP5 SUB SLT ISZERO PUSH2 0x1994 JUMPI PUSH2 0x1993 PUSH2 0x191D JUMP JUMPDEST JUMPDEST PUSH0 PUSH2 0x19A1 DUP5 DUP3 DUP6 ADD PUSH2 0x196B JUMP JUMPDEST SWAP2 POP POP SWAP3 SWAP2 POP POP JUMP JUMPDEST PUSH2 0x19B3 DUP2 PUSH2 0x1944 JUMP JUMPDEST DUP3 MSTORE POP POP JUMP JUMPDEST PUSH0 PUSH1 0x20 DUP3 ADD SWAP1 POP PUSH2 0x19CC PUSH0 DUP4 ADD DUP5 PUSH2 0x19AA JUMP JUMPDEST SWAP3 SWAP2 POP POP JUMP JUMPDEST PUSH2 0x19DB DUP2 PUSH2 0x1883 JUMP JUMPDEST DUP2 EQ PUSH2 0x19E5 JUMPI PUSH0 DUP1 REVERT JUMPDEST POP JUMP JUMPDEST PUSH0 DUP2 CALLDATALOAD SWAP1 POP PUSH2 0x19F6 DUP2 PUSH2 0x19D2 JUMP JUMPDEST SWAP3 SWAP2 POP POP JUMP JUMPDEST PUSH0 DUP1 PUSH1 0x40 DUP4 DUP6 SUB SLT ISZERO PUSH2 0x1A12 JUMPI PUSH2 0x1A11 PUSH2 0x191D JUMP JUMPDEST JUMPDEST PUSH0 PUSH2 0x1A1F DUP6 DUP3 DUP7 ADD PUSH2 0x196B JUMP JUMPDEST SWAP3 POP POP PUSH1 0x20 PUSH2 0x1A30 DUP6 DUP3 DUP7 ADD PUSH2 0x19E8 JUMP JUMPDEST SWAP2 POP POP SWAP3 POP SWAP3 SWAP1 POP JUMP JUMPDEST PUSH0 DUP1 PUSH1 0x40 DUP4 DUP6 SUB SLT ISZERO PUSH2 0x1A50 JUMPI PUSH2 0x1A4F PUSH2 0x191D JUMP JUMPDEST JUMPDEST PUSH0 PUSH2 0x1A5D DUP6 DUP3 DUP7 ADD PUSH2 0x196B JUMP JUMPDEST SWAP3 POP POP PUSH1 0x20 PUSH2 0x1A6E DUP6 DUP3 DUP7 ADD PUSH2 0x196B JUMP JUMPDEST SWAP2 POP POP SWAP3 POP SWAP3 SWAP1 POP JUMP JUMPDEST PUSH0 DUP2 SWAP1 POP SWAP2 SWAP1 POP JUMP JUMPDEST PUSH0 PUSH2 0x1A9B PUSH2 0x1A96 PUSH2 0x1A91 DUP5 PUSH2 0x1925 JUMP JUMPDEST PUSH2 0x1A78 JUMP JUMPDEST PUSH2 0x1925 JUMP JUMPDEST SWAP1 POP SWAP2 SWAP1 POP JUMP JUMPDEST PUSH0 PUSH2 0x1AAC DUP3 PUSH2 0x1A81 JUMP JUMPDEST SWAP1 POP SWAP2 SWAP1 POP JUMP JUMPDEST PUSH0 PUSH2 0x1ABD DUP3 PUSH2 0x1AA2 JUMP JUMPDEST SWAP1 POP SWAP2 SWAP1 POP JUMP JUMPDEST PUSH2 0x1ACD DUP2 PUSH2 0x1AB3 JUMP JUMPDEST DUP3 MSTORE POP POP JUMP JUMPDEST PUSH0 PUSH1 0x20 DUP3 ADD SWAP1 POP PUSH2 0x1AE6 PUSH0 DUP4 ADD DUP5 PUSH2 0x1AC4 JUMP JUMPDEST SWAP3 SWAP2 POP POP JUMP JUMPDEST PUSH0 DUP2 MLOAD SWAP1 POP SWAP2 SWAP1 POP JUMP JUMPDEST PUSH0 DUP3 DUP3 MSTORE PUSH1 0x20 DUP3 ADD SWAP1 POP SWAP3 SWAP2 POP POP JUMP JUMPDEST DUP3 DUP2 DUP4 MCOPY PUSH0 DUP4 DUP4 ADD MSTORE POP POP POP JUMP JUMPDEST PUSH0 PUSH1 0x1F NOT PUSH1 0x1F DUP4 ADD AND SWAP1 POP SWAP2 SWAP1 POP JUMP JUMPDEST PUSH0 PUSH2 0x1B2E DUP3 PUSH2 0x1AEC JUMP JUMPDEST PUSH2 0x1B38 DUP2 DUP6 PUSH2 0x1AF6 JUMP JUMPDEST SWAP4 POP PUSH2 0x1B48 DUP2 DUP6 PUSH1 0x20 DUP7 ADD PUSH2 0x1B06 JUMP JUMPDEST PUSH2 0x1B51 DUP2 PUSH2 0x1B14 JUMP JUMPDEST DUP5 ADD SWAP2 POP POP SWAP3 SWAP2 POP POP JUMP JUMPDEST PUSH0 PUSH1 0x60 DUP3 ADD SWAP1 POP PUSH2 0x1B6F PUSH0 DUP4 ADD DUP7 PUSH2 0x18EC JUMP JUMPDEST PUSH2 0x1B7C PUSH1 0x20 DUP4 ADD DUP6 PUSH2 0x18EC JUMP JUMPDEST DUP2 DUP2 SUB PUSH1 0x40 DUP4 ADD MSTORE PUSH2 0x1B8E DUP2 DUP5 PUSH2 0x1B24 JUMP JUMPDEST SWAP1 POP SWAP5 SWAP4 POP POP POP POP JUMP JUMPDEST PUSH0 DUP1 PUSH0 PUSH1 0x60 DUP5 DUP7 SUB SLT ISZERO PUSH2 0x1BAF JUMPI PUSH2 0x1BAE PUSH2 0x191D JUMP JUMPDEST JUMPDEST PUSH0 PUSH2 0x1BBC DUP7 DUP3 DUP8 ADD PUSH2 0x196B JUMP JUMPDEST SWAP4 POP POP PUSH1 0x20 PUSH2 0x1BCD DUP7 DUP3 DUP8 ADD PUSH2 0x196B JUMP JUMPDEST SWAP3 POP POP PUSH1 0x40 PUSH2 0x1BDE DUP7 DUP3 DUP8 ADD PUSH2 0x19E8 JUMP JUMPDEST SWAP2 POP POP SWAP3 POP SWAP3 POP SWAP3 JUMP JUMPDEST PUSH0 DUP1 REVERT JUMPDEST PUSH0 DUP1 REVERT JUMPDEST PUSH32 0x4E487B7100000000000000000000000000000000000000000000000000000000 PUSH0 MSTORE PUSH1 0x41 PUSH1 0x4 MSTORE PUSH1 0x24 PUSH0 REVERT JUMPDEST PUSH2 0x1C26 DUP3 PUSH2 0x1B14 JUMP JUMPDEST DUP2 ADD DUP2 DUP2 LT PUSH8 0xFFFFFFFFFFFFFFFF DUP3 GT OR ISZERO PUSH2 0x1C45 JUMPI PUSH2 0x1C44 PUSH2 0x1BF0 JUMP JUMPDEST JUMPDEST DUP1 PUSH1 0x40 MSTORE POP POP POP JUMP JUMPDEST PUSH0 PUSH2 0x1C57 PUSH2 0x1914 JUMP JUMPDEST SWAP1 POP PUSH2 0x1C63 DUP3 DUP3 PUSH2 0x1C1D JUMP JUMPDEST SWAP2 SWAP1 POP JUMP JUMPDEST PUSH0 PUSH8 0xFFFFFFFFFFFFFFFF DUP3 GT ISZERO PUSH2 0x1C82 JUMPI PUSH2 0x1C81 PUSH2 0x1BF0 JUMP JUMPDEST JUMPDEST PUSH2 0x1C8B DUP3 PUSH2 0x1B14 JUMP JUMPDEST SWAP1 POP PUSH1 0x20 DUP2 ADD SWAP1 POP SWAP2 SWAP1 POP JUMP JUMPDEST DUP3 DUP2 DUP4 CALLDATACOPY PUSH0 DUP4 DUP4 ADD MSTORE POP POP POP JUMP JUMPDEST PUSH0 PUSH2 0x1CB8 PUSH2 0x1CB3 DUP5 PUSH2 0x1C68 JUMP JUMPDEST PUSH2 0x1C4E JUMP JUMPDEST SWAP1 POP DUP3 DUP2 MSTORE PUSH1 0x20 DUP2 ADD DUP5 DUP5 DUP5 ADD GT ISZERO PUSH2 0x1CD4 JUMPI PUSH2 0x1CD3 PUSH2 0x1BEC JUMP JUMPDEST JUMPDEST PUSH2 0x1CDF DUP5 DUP3 DUP6 PUSH2 0x1C98 JUMP JUMPDEST POP SWAP4 SWAP3 POP POP POP JUMP JUMPDEST PUSH0 DUP3 PUSH1 0x1F DUP4 ADD SLT PUSH2 0x1CFB JUMPI PUSH2 0x1CFA PUSH2 0x1BE8 JUMP JUMPDEST JUMPDEST DUP2 CALLDATALOAD PUSH2 0x1D0B DUP5 DUP3 PUSH1 0x20 DUP7 ADD PUSH2 0x1CA6 JUMP JUMPDEST SWAP2 POP POP SWAP3 SWAP2 POP POP JUMP JUMPDEST PUSH0 DUP1 PUSH0 PUSH1 0x60 DUP5 DUP7 SUB SLT ISZERO PUSH2 0x1D2B JUMPI PUSH2 0x1D2A PUSH2 0x191D JUMP JUMPDEST JUMPDEST PUSH0 PUSH2 0x1D38 DUP7 DUP3 DUP8 ADD PUSH2 0x19E8 JUMP JUMPDEST SWAP4 POP POP PUSH1 0x20 PUSH2 0x1D49 DUP7 DUP3 DUP8 ADD PUSH2 0x19E8 JUMP JUMPDEST SWAP3 POP POP PUSH1 0x40 DUP5 ADD CALLDATALOAD PUSH8 0xFFFFFFFFFFFFFFFF DUP2 GT ISZERO PUSH2 0x1D6A JUMPI PUSH2 0x1D69 PUSH2 0x1921 JUMP JUMPDEST JUMPDEST PUSH2 0x1D76 DUP7 DUP3 DUP8 ADD PUSH2 0x1CE7 JUMP JUMPDEST SWAP2 POP POP SWAP3 POP SWAP3 POP SWAP3 JUMP JUMPDEST PUSH32 0x4E6F742077697468696E20726F756E64206475726174696F6E00000000000000 PUSH0 DUP3 ADD MSTORE POP JUMP JUMPDEST PUSH0 PUSH2 0x1DB4 PUSH1 0x19 DUP4 PUSH2 0x1AF6 JUMP JUMPDEST SWAP2 POP PUSH2 0x1DBF DUP3 PUSH2 0x1D80 JUMP JUMPDEST PUSH1 0x20 DUP3 ADD SWAP1 POP SWAP2 SWAP1 POP JUMP JUMPDEST PUSH0 PUSH1 0x20 DUP3 ADD SWAP1 POP DUP2 DUP2 SUB PUSH0 DUP4 ADD MSTORE PUSH2 0x1DE1 DUP2 PUSH2 0x1DA8 JUMP JUMPDEST SWAP1 POP SWAP2 SWAP1 POP JUMP JUMPDEST PUSH32 0x4E6F20636C61696D61626C6520616D6F756E7400000000000000000000000000 PUSH0 DUP3 ADD MSTORE POP JUMP JUMPDEST PUSH0 PUSH2 0x1E1C PUSH1 0x13 DUP4 PUSH2 0x1AF6 JUMP JUMPDEST SWAP2 POP PUSH2 0x1E27 DUP3 PUSH2 0x1DE8 JUMP JUMPDEST PUSH1 0x20 DUP3 ADD SWAP1 POP SWAP2 SWAP1 POP JUMP JUMPDEST PUSH0 PUSH1 0x20 DUP3 ADD SWAP1 POP DUP2 DUP2 SUB PUSH0 DUP4 ADD MSTORE PUSH2 0x1E49 DUP2 PUSH2 0x1E10 JUMP JUMPDEST SWAP1 POP SWAP2 SWAP1 POP JUMP JUMPDEST PUSH32 0x496E73756666696369656E742066756E647320696E206A617200000000000000 PUSH0 DUP3 ADD MSTORE POP JUMP JUMPDEST PUSH0 PUSH2 0x1E84 PUSH1 0x19 DUP4 PUSH2 0x1AF6 JUMP JUMPDEST SWAP2 POP PUSH2 0x1E8F DUP3 PUSH2 0x1E50 JUMP JUMPDEST PUSH1 0x20 DUP3 ADD SWAP1 POP SWAP2 SWAP1 POP JUMP JUMPDEST PUSH0 PUSH1 0x20 DUP3 ADD SWAP1 POP DUP2 DUP2 SUB PUSH0 DUP4 ADD MSTORE PUSH2 0x1EB1 DUP2 PUSH2 0x1E78 JUMP JUMPDEST SWAP1 POP SWAP2 SWAP1 POP JUMP JUMPDEST PUSH32 0x5472757374000000000000000000000000000000000000000000000000000000 PUSH0 DUP3 ADD MSTORE POP JUMP JUMPDEST PUSH0 PUSH2 0x1EEC PUSH1 0x5 DUP4 PUSH2 0x1AF6 JUMP JUMPDEST SWAP2 POP PUSH2 0x1EF7 DUP3 PUSH2 0x1EB8 JUMP JUMPDEST PUSH1 0x20 DUP3 ADD SWAP1 POP SWAP2 SWAP1 POP JUMP JUMPDEST PUSH0 PUSH1 0x40 DUP3 ADD SWAP1 POP PUSH2 0x1F15 PUSH0 DUP4 ADD DUP5 PUSH2 0x19AA JUMP JUMPDEST DUP2 DUP2 SUB PUSH1 0x20 DUP4 ADD MSTORE PUSH2 0x1F26 DUP2 PUSH2 0x1EE0 JUMP JUMPDEST SWAP1 POP SWAP3 SWAP2 POP POP JUMP JUMPDEST PUSH0 DUP2 MLOAD SWAP1 POP PUSH2 0x1F3C DUP2 PUSH2 0x19D2 JUMP JUMPDEST SWAP3 SWAP2 POP POP JUMP JUMPDEST PUSH0 PUSH1 0x20 DUP3 DUP5 SUB SLT ISZERO PUSH2 0x1F57 JUMPI PUSH2 0x1F56 PUSH2 0x191D JUMP JUMPDEST JUMPDEST PUSH0 PUSH2 0x1F64 DUP5 DUP3 DUP6 ADD PUSH2 0x1F2E JUMP JUMPDEST SWAP2 POP POP SWAP3 SWAP2 POP POP JUMP JUMPDEST PUSH32 0x496E73756666696369656E742054727573742073636F72650000000000000000 PUSH0 DUP3 ADD MSTORE POP JUMP JUMPDEST PUSH0 PUSH2 0x1FA1 PUSH1 0x18 DUP4 PUSH2 0x1AF6 JUMP JUMPDEST SWAP2 POP PUSH2 0x1FAC DUP3 PUSH2 0x1F6D JUMP JUMPDEST PUSH1 0x20 DUP3 ADD SWAP1 POP SWAP2 SWAP1 POP JUMP JUMPDEST PUSH0 PUSH1 0x20 DUP3 ADD SWAP1 POP DUP2 DUP2 SUB PUSH0 DUP4 ADD MSTORE PUSH2 0x1FCE DUP2 PUSH2 0x1F95 JUMP JUMPDEST SWAP1 POP SWAP2 SWAP1 POP JUMP JUMPDEST PUSH0 PUSH2 0x1FDF DUP3 PUSH2 0x1883 JUMP JUMPDEST SWAP2 POP PUSH2 0x1FEA DUP4 PUSH2 0x1883 JUMP JUMPDEST SWAP3 POP DUP3 DUP3 SUB SWAP1 POP DUP2 DUP2 GT ISZERO PUSH2 0x2002 JUMPI PUSH2 0x2001 PUSH2 0x188C JUMP JUMPDEST JUMPDEST SWAP3 SWAP2 POP POP JUMP JUMPDEST PUSH0 DUP2 SWAP1 POP SWAP3 SWAP2 POP POP JUMP JUMPDEST POP JUMP JUMPDEST PUSH0 PUSH2 0x2020 PUSH0 DUP4 PUSH2 0x2008 JUMP JUMPDEST SWAP2 POP PUSH2 0x202B DUP3 PUSH2 0x2012 JUMP JUMPDEST PUSH0 DUP3 ADD SWAP1 POP SWAP2 SWAP1 POP JUMP JUMPDEST PUSH0 PUSH2 0x203F DUP3 PUSH2 0x2015 JUMP JUMPDEST SWAP2 POP DUP2 SWAP1 POP SWAP2 SWAP1 POP JUMP JUMPDEST PUSH32 0x4574686572207472616E73666572206661696C65640000000000000000000000 PUSH0 DUP3 ADD MSTORE POP JUMP JUMPDEST PUSH0 PUSH2 0x207D PUSH1 0x15 DUP4 PUSH2 0x1AF6 JUMP JUMPDEST SWAP2 POP PUSH2 0x2088 DUP3 PUSH2 0x2049 JUMP JUMPDEST PUSH1 0x20 DUP3 ADD SWAP1 POP SWAP2 SWAP1 POP JUMP JUMPDEST PUSH0 PUSH1 0x20 DUP3 ADD SWAP1 POP DUP2 DUP2 SUB PUSH0 DUP4 ADD MSTORE PUSH2 0x20AA DUP2 PUSH2 0x2071 JUMP JUMPDEST SWAP1 POP SWAP2 SWAP1 POP JUMP JUMPDEST PUSH32 0x496E636F727265637420457468657220616D6F756E7400000000000000000000 PUSH0 DUP3 ADD MSTORE POP JUMP JUMPDEST PUSH0 PUSH2 0x20E5 PUSH1 0x16 DUP4 PUSH2 0x1AF6 JUMP JUMPDEST SWAP2 POP PUSH2 0x20F0 DUP3 PUSH2 0x20B1 JUMP JUMPDEST PUSH1 0x20 DUP3 ADD SWAP1 POP SWAP2 SWAP1 POP JUMP JUMPDEST PUSH0 PUSH1 0x20 DUP3 ADD SWAP1 POP DUP2 DUP2 SUB PUSH0 DUP4 ADD MSTORE PUSH2 0x2112 DUP2 PUSH2 0x20D9 JUMP JUMPDEST SWAP1 POP SWAP2 SWAP1 POP JUMP JUMPDEST PUSH32 0x4465706F73697420616D6F756E74206D75737420626520677265617465722074 PUSH0 DUP3 ADD MSTORE PUSH32 0x68616E207A65726F000000000000000000000000000000000000000000000000 PUSH1 0x20 DUP3 ADD MSTORE POP JUMP JUMPDEST PUSH0 PUSH2 0x2173 PUSH1 0x28 DUP4 PUSH2 0x1AF6 JUMP JUMPDEST SWAP2 POP PUSH2 0x217E DUP3 PUSH2 0x2119 JUMP JUMPDEST PUSH1 0x40 DUP3 ADD SWAP1 POP SWAP2 SWAP1 POP JUMP JUMPDEST PUSH0 PUSH1 0x20 DUP3 ADD SWAP1 POP DUP2 DUP2 SUB PUSH0 DUP4 ADD MSTORE PUSH2 0x21A0 DUP2 PUSH2 0x2167 JUMP JUMPDEST SWAP1 POP SWAP2 SWAP1 POP JUMP JUMPDEST PUSH0 DUP2 SWAP1 POP SWAP2 SWAP1 POP JUMP JUMPDEST PUSH0 PUSH8 0xFFFFFFFFFFFFFFFF DUP3 AND SWAP1 POP SWAP2 SWAP1 POP JUMP JUMPDEST PUSH0 PUSH2 0x21DD PUSH2 0x21D8 PUSH2 0x21D3 DUP5 PUSH2 0x21A7 JUMP JUMPDEST PUSH2 0x1A78 JUMP JUMPDEST PUSH2 0x21B0 JUMP JUMPDEST SWAP1 POP SWAP2 SWAP1 POP JUMP JUMPDEST PUSH2 0x21ED DUP2 PUSH2 0x21C3 JUMP JUMPDEST DUP3 MSTORE POP POP JUMP JUMPDEST PUSH0 PUSH1 0x20 DUP3 ADD SWAP1 POP PUSH2 0x2206 PUSH0 DUP4 ADD DUP5 PUSH2 0x21E4 JUMP JUMPDEST SWAP3 SWAP2 POP POP JUMP JUMPDEST PUSH32 0x4E487B7100000000000000000000000000000000000000000000000000000000 PUSH0 MSTORE PUSH1 0x22 PUSH1 0x4 MSTORE PUSH1 0x24 PUSH0 REVERT JUMPDEST PUSH0 PUSH1 0x2 DUP3 DIV SWAP1 POP PUSH1 0x1 DUP3 AND DUP1 PUSH2 0x2250 JUMPI PUSH1 0x7F DUP3 AND SWAP2 POP JUMPDEST PUSH1 0x20 DUP3 LT DUP2 SUB PUSH2 0x2263 JUMPI PUSH2 0x2262 PUSH2 0x220C JUMP JUMPDEST JUMPDEST POP SWAP2 SWAP1 POP JUMP JUMPDEST PUSH0 DUP2 ISZERO ISZERO SWAP1 POP SWAP2 SWAP1 POP JUMP JUMPDEST PUSH2 0x227D DUP2 PUSH2 0x2269 JUMP JUMPDEST DUP2 EQ PUSH2 0x2287 JUMPI PUSH0 DUP1 REVERT JUMPDEST POP JUMP JUMPDEST PUSH0 DUP2 MLOAD SWAP1 POP PUSH2 0x2298 DUP2 PUSH2 0x2274 JUMP JUMPDEST SWAP3 SWAP2 POP POP JUMP JUMPDEST PUSH0 PUSH1 0x20 DUP3 DUP5 SUB SLT ISZERO PUSH2 0x22B3 JUMPI PUSH2 0x22B2 PUSH2 0x191D JUMP JUMPDEST JUMPDEST PUSH0 PUSH2 0x22C0 DUP5 DUP3 DUP6 ADD PUSH2 0x228A JUMP JUMPDEST SWAP2 POP POP SWAP3 SWAP2 POP POP JUMP JUMPDEST PUSH32 0x43616C6C6572206973206E6F7420616E2061646D696E00000000000000000000 PUSH0 DUP3 ADD MSTORE POP JUMP JUMPDEST PUSH0 PUSH2 0x22FD PUSH1 0x16 DUP4 PUSH2 0x1AF6 JUMP JUMPDEST SWAP2 POP PUSH2 0x2308 DUP3 PUSH2 0x22C9 JUMP JUMPDEST PUSH1 0x20 DUP3 ADD SWAP1 POP SWAP2 SWAP1 POP JUMP JUMPDEST PUSH0 PUSH1 0x20 DUP3 ADD SWAP1 POP DUP2 DUP2 SUB PUSH0 DUP4 ADD MSTORE PUSH2 0x232A DUP2 PUSH2 0x22F1 JUMP JUMPDEST SWAP1 POP SWAP2 SWAP1 POP JUMP JUMPDEST PUSH32 0x53746172742074696D65206D757374206265206265666F726520656E64207469 PUSH0 DUP3 ADD MSTORE PUSH32 0x6D65000000000000000000000000000000000000000000000000000000000000 PUSH1 0x20 DUP3 ADD MSTORE POP JUMP JUMPDEST PUSH0 PUSH2 0x238B PUSH1 0x22 DUP4 PUSH2 0x1AF6 JUMP JUMPDEST SWAP2 POP PUSH2 0x2396 DUP3 PUSH2 0x2331 JUMP JUMPDEST PUSH1 0x40 DUP3 ADD SWAP1 POP SWAP2 SWAP1 POP JUMP JUMPDEST PUSH0 PUSH1 0x20 DUP3 ADD SWAP1 POP DUP2 DUP2 SUB PUSH0 DUP4 ADD MSTORE PUSH2 0x23B8 DUP2 PUSH2 0x237F JUMP JUMPDEST SWAP1 POP SWAP2 SWAP1 POP JUMP JUMPDEST PUSH0 DUP2 SWAP1 POP DUP2 PUSH0 MSTORE PUSH1 0x20 PUSH0 KECCAK256 SWAP1 POP SWAP2 SWAP1 POP JUMP JUMPDEST PUSH0 PUSH1 0x20 PUSH1 0x1F DUP4 ADD DIV SWAP1 POP SWAP2 SWAP1 POP JUMP JUMPDEST PUSH0 DUP3 DUP3 SHL SWAP1 POP SWAP3 SWAP2 POP POP JUMP JUMPDEST PUSH0 PUSH1 0x8 DUP4 MUL PUSH2 0x241B PUSH32 0xFFFFFFFFFFFFFFFFFFFFFFFFFFFFFFFFFFFFFFFFFFFFFFFFFFFFFFFFFFFFFFFF DUP3 PUSH2 0x23E0 JUMP JUMPDEST PUSH2 0x2425 DUP7 DUP4 PUSH2 0x23E0 JUMP JUMPDEST SWAP6 POP DUP1 NOT DUP5 AND SWAP4 POP DUP1 DUP7 AND DUP5 OR SWAP3 POP POP POP SWAP4 SWAP3 POP POP POP JUMP JUMPDEST PUSH0 PUSH2 0x2457 PUSH2 0x2452 PUSH2 0x244D DUP5 PUSH2 0x1883 JUMP JUMPDEST PUSH2 0x1A78 JUMP JUMPDEST PUSH2 0x1883 JUMP JUMPDEST SWAP1 POP SWAP2 SWAP1 POP JUMP JUMPDEST PUSH0 DUP2 SWAP1 POP SWAP2 SWAP1 POP JUMP JUMPDEST PUSH2 0x2470 DUP4 PUSH2 0x243D JUMP JUMPDEST PUSH2 0x2484 PUSH2 0x247C DUP3 PUSH2 0x245E JUMP JUMPDEST DUP5 DUP5 SLOAD PUSH2 0x23EC JUMP JUMPDEST DUP3 SSTORE POP POP POP POP JUMP JUMPDEST PUSH0 SWAP1 JUMP JUMPDEST PUSH2 0x2498 PUSH2 0x248C JUMP JUMPDEST PUSH2 0x24A3 DUP2 DUP5 DUP5 PUSH2 0x2467 JUMP JUMPDEST POP POP POP JUMP JUMPDEST JUMPDEST DUP2 DUP2 LT ISZERO PUSH2 0x24C6 JUMPI PUSH2 0x24BB PUSH0 DUP3 PUSH2 0x2490 JUMP JUMPDEST PUSH1 0x1 DUP2 ADD SWAP1 POP PUSH2 0x24A9 JUMP JUMPDEST POP POP JUMP JUMPDEST PUSH1 0x1F DUP3 GT ISZERO PUSH2 0x250B JUMPI PUSH2 0x24DC DUP2 PUSH2 0x23BF JUMP JUMPDEST PUSH2 0x24E5 DUP5 PUSH2 0x23D1 JUMP JUMPDEST DUP2 ADD PUSH1 0x20 DUP6 LT ISZERO PUSH2 0x24F4 JUMPI DUP2 SWAP1 POP JUMPDEST PUSH2 0x2508 PUSH2 0x2500 DUP6 PUSH2 0x23D1 JUMP JUMPDEST DUP4 ADD DUP3 PUSH2 0x24A8 JUMP JUMPDEST POP POP JUMPDEST POP POP POP JUMP JUMPDEST PUSH0 DUP3 DUP3 SHR SWAP1 POP SWAP3 SWAP2 POP POP JUMP JUMPDEST PUSH0 PUSH2 0x252B PUSH0 NOT DUP5 PUSH1 0x8 MUL PUSH2 0x2510 JUMP JUMPDEST NOT DUP1 DUP4 AND SWAP2 POP POP SWAP3 SWAP2 POP POP JUMP JUMPDEST PUSH0 PUSH2 0x2543 DUP4 DUP4 PUSH2 0x251C JUMP JUMPDEST SWAP2 POP DUP3 PUSH1 0x2 MUL DUP3 OR SWAP1 POP SWAP3 SWAP2 POP POP JUMP JUMPDEST PUSH2 0x255C DUP3 PUSH2 0x1AEC JUMP JUMPDEST PUSH8 0xFFFFFFFFFFFFFFFF DUP2 GT ISZERO PUSH2 0x2575 JUMPI PUSH2 0x2574 PUSH2 0x1BF0 JUMP JUMPDEST JUMPDEST PUSH2 0x257F DUP3 SLOAD PUSH2 0x2239 JUMP JUMPDEST PUSH2 0x258A DUP3 DUP3 DUP6 PUSH2 0x24CA JUMP JUMPDEST PUSH0 PUSH1 0x20 SWAP1 POP PUSH1 0x1F DUP4 GT PUSH1 0x1 DUP2 EQ PUSH2 0x25BB JUMPI PUSH0 DUP5 ISZERO PUSH2 0x25A9 JUMPI DUP3 DUP8 ADD MLOAD SWAP1 POP JUMPDEST PUSH2 0x25B3 DUP6 DUP3 PUSH2 0x2538 JUMP JUMPDEST DUP7 SSTORE POP PUSH2 0x261A JUMP JUMPDEST PUSH1 0x1F NOT DUP5 AND PUSH2 0x25C9 DUP7 PUSH2 0x23BF JUMP JUMPDEST PUSH0 JUMPDEST DUP3 DUP2 LT ISZERO PUSH2 0x25F0 JUMPI DUP5 DUP10 ADD MLOAD DUP3 SSTORE PUSH1 0x1 DUP3 ADD SWAP2 POP PUSH1 0x20 DUP6 ADD SWAP5 POP PUSH1 0x20 DUP2 ADD SWAP1 POP PUSH2 0x25CB JUMP JUMPDEST DUP7 DUP4 LT ISZERO PUSH2 0x260D JUMPI DUP5 DUP10 ADD MLOAD PUSH2 0x2609 PUSH1 0x1F DUP10 AND DUP3 PUSH2 0x251C JUMP JUMPDEST DUP4 SSTORE POP JUMPDEST PUSH1 0x1 PUSH1 0x2 DUP9 MUL ADD DUP9 SSTORE POP POP POP JUMPDEST POP POP POP POP POP POP JUMP JUMPDEST PUSH32 0x5769746864726177616C20616D6F756E74206D75737420626520677265617465 PUSH0 DUP3 ADD MSTORE PUSH32 0x72207468616E207A65726F000000000000000000000000000000000000000000 PUSH1 0x20 DUP3 ADD MSTORE POP JUMP JUMPDEST PUSH0 PUSH2 0x267C PUSH1 0x2B DUP4 PUSH2 0x1AF6 JUMP JUMPDEST SWAP2 POP PUSH2 0x2687 DUP3 PUSH2 0x2622 JUMP JUMPDEST PUSH1 0x40 DUP3 ADD SWAP1 POP SWAP2 SWAP1 POP JUMP JUMPDEST PUSH0 PUSH1 0x20 DUP3 ADD SWAP1 POP DUP2 DUP2 SUB PUSH0 DUP4 ADD MSTORE PUSH2 0x26A9 DUP2 PUSH2 0x2670 JUMP JUMPDEST SWAP1 POP SWAP2 SWAP1 POP JUMP JUMPDEST PUSH32 0x496E73756666696369656E742066756E64730000000000000000000000000000 PUSH0 DUP3 ADD MSTORE POP JUMP JUMPDEST PUSH0 PUSH2 0x26E4 PUSH1 0x12 DUP4 PUSH2 0x1AF6 JUMP JUMPDEST SWAP2 POP PUSH2 0x26EF DUP3 PUSH2 0x26B0 JUMP JUMPDEST PUSH1 0x20 DUP3 ADD SWAP1 POP SWAP2 SWAP1 POP JUMP JUMPDEST PUSH0 PUSH1 0x20 DUP3 ADD SWAP1 POP DUP2 DUP2 SUB PUSH0 DUP4 ADD MSTORE PUSH2 0x2711 DUP2 PUSH2 0x26D8 JUMP JUMPDEST SWAP1 POP SWAP2 SWAP1 POP JUMP JUMPDEST PUSH0 PUSH1 0x40 DUP3 ADD SWAP1 POP PUSH2 0x272B PUSH0 DUP4 ADD DUP6 PUSH2 0x19AA JUMP JUMPDEST PUSH2 0x2738 PUSH1 0x20 DUP4 ADD DUP5 PUSH2 0x18EC JUMP JUMPDEST SWAP4 SWAP3 POP POP POP JUMP JUMPDEST PUSH0 PUSH1 0x60 DUP3 ADD SWAP1 POP PUSH2 0x2752 PUSH0 DUP4 ADD DUP7 PUSH2 0x19AA JUMP JUMPDEST PUSH2 0x275F PUSH1 0x20 DUP4 ADD DUP6 PUSH2 0x19AA JUMP JUMPDEST PUSH2 0x276C PUSH1 0x40 DUP4 ADD DUP5 PUSH2 0x18EC JUMP JUMPDEST SWAP5 SWAP4 POP POP POP POP JUMP INVALID LOG2 PUSH5 0x6970667358 0x22 SLT KECCAK256 NUMBER 0xE1 BASEFEE SHR DUP2 PUSH8 0x809FA7DB7C783CF0 0x2C PUSH9 0x3613220197CC4A5A2E SWAP2 0xAE DIV SLOAD 0xE3 SELFBALANCE RETURNDATASIZE PUSH5 0x736F6C6343 STOP ADDMOD BYTE STOP CALLER "
				},
				"gasEstimates": {
					"creation": {
						"codeDepositCost": "2030800",
						"executionCost": "2154",
						"totalCost": "2032954"
					},
					"external": {
						"ETHER()": "419",
						"allowedAmounts(address,address)": "infinite",
						"claim(address)": "infinite",
						"currentRound()": "infinite",
						"deposit(address,uint256)": "infinite",
						"initialize(address,address)": "infinite",
						"owner()": "2590",
						"renounceOwnership()": "infinite",
						"scorer()": "infinite",
						"setAllowedAmount(address,address,uint256)": "infinite",
						"setRound(uint256,uint256,string)": "infinite",
						"totalBalances(address)": "2869",
						"transferOwnership(address)": "infinite",
						"withdraw(address,uint256)": "infinite"
					}
				},
				"methodIdentifiers": {
					"ETHER()": "42cb1fbc",
					"allowedAmounts(address,address)": "a9590e8a",
					"claim(address)": "1e83409a",
					"currentRound()": "8a19c8bc",
					"deposit(address,uint256)": "47e7ef24",
					"initialize(address,address)": "485cc955",
					"owner()": "8da5cb5b",
					"renounceOwnership()": "715018a6",
					"scorer()": "85c758f7",
					"setAllowedAmount(address,address,uint256)": "b807a3c4",
					"setRound(uint256,uint256,string)": "be9a7687",
					"totalBalances(address)": "aee9c872",
					"transferOwnership(address)": "f2fde38b",
					"withdraw(address,uint256)": "f3fef3a3"
				}
			},
			"storageLayout": {
				"storage": [
					{
						"astId": 1407,
						"contract": "contracts/sweetspot.sol:nCookieJar",
						"label": "scorer",
						"offset": 0,
						"slot": "0",
						"type": "t_contract(IScorer)1387"
					},
					{
						"astId": 1417,
						"contract": "contracts/sweetspot.sol:nCookieJar",
						"label": "currentRound",
						"offset": 0,
						"slot": "1",
						"type": "t_struct(Round)1414_storage"
					},
					{
						"astId": 1421,
						"contract": "contracts/sweetspot.sol:nCookieJar",
						"label": "totalBalances",
						"offset": 0,
						"slot": "4",
						"type": "t_mapping(t_address,t_uint256)"
					},
					{
						"astId": 1427,
						"contract": "contracts/sweetspot.sol:nCookieJar",
						"label": "allowedAmounts",
						"offset": 0,
						"slot": "5",
						"type": "t_mapping(t_address,t_mapping(t_address,t_uint256))"
					}
				],
				"types": {
					"t_address": {
						"encoding": "inplace",
						"label": "address",
						"numberOfBytes": "20"
					},
					"t_contract(IScorer)1387": {
						"encoding": "inplace",
						"label": "contract IScorer",
						"numberOfBytes": "20"
					},
					"t_mapping(t_address,t_mapping(t_address,t_uint256))": {
						"encoding": "mapping",
						"key": "t_address",
						"label": "mapping(address => mapping(address => uint256))",
						"numberOfBytes": "32",
						"value": "t_mapping(t_address,t_uint256)"
					},
					"t_mapping(t_address,t_uint256)": {
						"encoding": "mapping",
						"key": "t_address",
						"label": "mapping(address => uint256)",
						"numberOfBytes": "32",
						"value": "t_uint256"
					},
					"t_string_storage": {
						"encoding": "bytes",
						"label": "string",
						"numberOfBytes": "32"
					},
					"t_struct(Round)1414_storage": {
						"encoding": "inplace",
						"label": "struct nCookieJar.Round",
						"members": [
							{
								"astId": 1409,
								"contract": "contracts/sweetspot.sol:nCookieJar",
								"label": "start",
								"offset": 0,
								"slot": "0",
								"type": "t_uint256"
							},
							{
								"astId": 1411,
								"contract": "contracts/sweetspot.sol:nCookieJar",
								"label": "end",
								"offset": 0,
								"slot": "1",
								"type": "t_uint256"
							},
							{
								"astId": 1413,
								"contract": "contracts/sweetspot.sol:nCookieJar",
								"label": "metadataURI",
								"offset": 0,
								"slot": "2",
								"type": "t_string_storage"
							}
						],
						"numberOfBytes": "96"
					},
					"t_uint256": {
						"encoding": "inplace",
						"label": "uint256",
						"numberOfBytes": "32"
					}
				}
			},
			"userdoc": {
				"kind": "user",
				"methods": {
					"claim(address)": {
						"notice": "Claims the full allowed amount for a user during the round."
					},
					"deposit(address,uint256)": {
						"notice": "Deposits funds into this jar for a specific token or Ether."
					},
					"initialize(address,address)": {
						"notice": "Initializes this contract with its initial state."
					},
					"setAllowedAmount(address,address,uint256)": {
						"notice": "Sets the allowed amount for a specific user and token."
					},
					"setRound(uint256,uint256,string)": {
						"notice": "Sets the round duration and metadata URI."
					},
					"withdraw(address,uint256)": {
						"notice": "Withdraws funds from the jar for a specific token or Ether."
					}
				},
				"version": 1
			}
		}
	}
}