{
	"contracts/sweetspot.sol": {
		"sweetspot": {
			"abi": [
				{
					"inputs": [],
					"name": "InvalidInitialization",
					"type": "error"
				},
				{
					"inputs": [],
					"name": "NotInitializing",
					"type": "error"
				},
				{
					"inputs": [
						{
							"internalType": "uint256",
							"name": "currentTime",
							"type": "uint256"
						},
						{
							"internalType": "uint256",
							"name": "start",
							"type": "uint256"
						},
						{
							"internalType": "uint256",
							"name": "end",
							"type": "uint256"
						}
					],
					"name": "NotWithinRound",
					"type": "error"
				},
				{
					"inputs": [
						{
							"internalType": "address",
							"name": "owner",
							"type": "address"
						}
					],
					"name": "OwnableInvalidOwner",
					"type": "error"
				},
				{
					"inputs": [
						{
							"internalType": "address",
							"name": "account",
							"type": "address"
						}
					],
					"name": "OwnableUnauthorizedAccount",
					"type": "error"
				},
				{
					"inputs": [
						{
							"internalType": "address",
							"name": "token",
							"type": "address"
						}
					],
					"name": "SafeERC20FailedOperation",
					"type": "error"
				},
				{
					"anonymous": false,
					"inputs": [
						{
							"indexed": true,
							"internalType": "address",
							"name": "user",
							"type": "address"
						},
						{
							"indexed": true,
							"internalType": "address",
							"name": "token",
							"type": "address"
						},
						{
							"indexed": false,
							"internalType": "uint256",
							"name": "newAmount",
							"type": "uint256"
						}
					],
					"name": "AllowedAmountUpdated",
					"type": "event"
				},
				{
					"anonymous": false,
					"inputs": [
						{
							"indexed": true,
							"internalType": "address",
							"name": "claimant",
							"type": "address"
						},
						{
							"indexed": true,
							"internalType": "address",
							"name": "token",
							"type": "address"
						},
						{
							"indexed": false,
							"internalType": "uint256",
							"name": "amount",
							"type": "uint256"
						}
					],
					"name": "Claimed",
					"type": "event"
				},
				{
					"anonymous": false,
					"inputs": [
						{
							"indexed": true,
							"internalType": "address",
							"name": "depositor",
							"type": "address"
						},
						{
							"indexed": true,
							"internalType": "address",
							"name": "token",
							"type": "address"
						},
						{
							"indexed": false,
							"internalType": "uint256",
							"name": "amount",
							"type": "uint256"
						}
					],
					"name": "Deposit",
					"type": "event"
				},
				{
					"anonymous": false,
					"inputs": [
						{
							"indexed": false,
							"internalType": "uint64",
							"name": "version",
							"type": "uint64"
						}
					],
					"name": "Initialized",
					"type": "event"
				},
				{
					"anonymous": false,
					"inputs": [
						{
							"indexed": true,
							"internalType": "address",
							"name": "previousOwner",
							"type": "address"
						},
						{
							"indexed": true,
							"internalType": "address",
							"name": "newOwner",
							"type": "address"
						}
					],
					"name": "OwnershipTransferred",
					"type": "event"
				},
				{
					"anonymous": false,
					"inputs": [
						{
							"indexed": false,
							"internalType": "uint256",
							"name": "start",
							"type": "uint256"
						},
						{
							"indexed": false,
							"internalType": "uint256",
							"name": "end",
							"type": "uint256"
						},
						{
							"indexed": false,
							"internalType": "string",
							"name": "metadataURI",
							"type": "string"
						}
					],
					"name": "RoundUpdated",
					"type": "event"
				},
				{
					"anonymous": false,
					"inputs": [
						{
							"indexed": true,
							"internalType": "address",
							"name": "withdrawer",
							"type": "address"
						},
						{
							"indexed": true,
							"internalType": "address",
							"name": "token",
							"type": "address"
						},
						{
							"indexed": false,
							"internalType": "uint256",
							"name": "amount",
							"type": "uint256"
						}
					],
					"name": "Withdraw",
					"type": "event"
				},
				{
					"stateMutability": "payable",
					"type": "fallback"
				},
				{
					"inputs": [],
					"name": "NATIVE_TOKEN",
					"outputs": [
						{
							"internalType": "address",
							"name": "",
							"type": "address"
						}
					],
					"stateMutability": "view",
					"type": "function"
				},
				{
					"inputs": [
						{
							"internalType": "address",
							"name": "",
							"type": "address"
						},
						{
							"internalType": "address",
							"name": "",
							"type": "address"
						}
					],
					"name": "allowedAmounts",
					"outputs": [
						{
							"internalType": "uint256",
							"name": "",
							"type": "uint256"
						}
					],
					"stateMutability": "view",
					"type": "function"
				},
				{
					"inputs": [
						{
							"internalType": "address",
							"name": "token",
							"type": "address"
						}
					],
					"name": "claim",
					"outputs": [],
					"stateMutability": "nonpayable",
					"type": "function"
				},
				{
					"inputs": [],
					"name": "currentRound",
					"outputs": [
						{
							"internalType": "uint64",
							"name": "start",
							"type": "uint64"
						},
						{
							"internalType": "uint64",
							"name": "end",
							"type": "uint64"
						},
						{
							"internalType": "string",
							"name": "metadataURI",
							"type": "string"
						}
					],
					"stateMutability": "view",
					"type": "function"
				},
				{
					"inputs": [
						{
							"internalType": "address",
							"name": "token",
							"type": "address"
						},
						{
							"internalType": "uint256",
							"name": "amount",
							"type": "uint256"
						}
					],
					"name": "deposit",
					"outputs": [],
					"stateMutability": "payable",
					"type": "function"
				},
				{
					"inputs": [
						{
							"internalType": "address",
							"name": "_scorer",
							"type": "address"
						},
						{
							"internalType": "address",
							"name": "owner",
							"type": "address"
						}
					],
					"name": "initialize",
					"outputs": [],
					"stateMutability": "nonpayable",
					"type": "function"
				},
				{
					"inputs": [],
					"name": "owner",
					"outputs": [
						{
							"internalType": "address",
							"name": "",
							"type": "address"
						}
					],
					"stateMutability": "view",
					"type": "function"
				},
				{
					"inputs": [],
					"name": "renounceOwnership",
					"outputs": [],
					"stateMutability": "nonpayable",
					"type": "function"
				},
				{
					"inputs": [],
					"name": "scorer",
					"outputs": [
						{
							"internalType": "contract IScorer",
							"name": "",
							"type": "address"
						}
					],
					"stateMutability": "view",
					"type": "function"
				},
				{
					"inputs": [
						{
							"internalType": "address",
							"name": "user",
							"type": "address"
						},
						{
							"internalType": "address",
							"name": "token",
							"type": "address"
						},
						{
							"internalType": "uint256",
							"name": "amount",
							"type": "uint256"
						}
					],
					"name": "setAllowedAmount",
					"outputs": [],
					"stateMutability": "nonpayable",
					"type": "function"
				},
				{
					"inputs": [
						{
							"internalType": "uint64",
							"name": "start",
							"type": "uint64"
						},
						{
							"internalType": "uint64",
							"name": "end",
							"type": "uint64"
						},
						{
							"internalType": "string",
							"name": "metadataURI",
							"type": "string"
						}
					],
					"name": "setRound",
					"outputs": [],
					"stateMutability": "nonpayable",
					"type": "function"
				},
				{
					"inputs": [
						{
							"internalType": "address",
							"name": "",
							"type": "address"
						}
					],
					"name": "totalBalances",
					"outputs": [
						{
							"internalType": "uint256",
							"name": "",
							"type": "uint256"
						}
					],
					"stateMutability": "view",
					"type": "function"
				},
				{
					"inputs": [
						{
							"internalType": "address",
							"name": "newOwner",
							"type": "address"
						}
					],
					"name": "transferOwnership",
					"outputs": [],
					"stateMutability": "nonpayable",
					"type": "function"
				},
				{
					"inputs": [
						{
							"internalType": "address",
							"name": "token",
							"type": "address"
						},
						{
							"internalType": "uint256",
							"name": "amount",
							"type": "uint256"
						}
					],
					"name": "withdraw",
					"outputs": [],
					"stateMutability": "nonpayable",
					"type": "function"
				},
				{
					"stateMutability": "payable",
					"type": "receive"
				}
			],
			"devdoc": {
				"errors": {
					"InvalidInitialization()": [
						{
							"details": "The contract is already initialized."
						}
					],
					"NotInitializing()": [
						{
							"details": "The contract is not initializing."
						}
					],
					"OwnableInvalidOwner(address)": [
						{
							"details": "The owner is not a valid owner account. (eg. `address(0)`)"
						}
					],
					"OwnableUnauthorizedAccount(address)": [
						{
							"details": "The caller account is not authorized to perform an operation."
						}
					],
					"SafeERC20FailedOperation(address)": [
						{
							"details": "An operation with an ERC-20 token failed."
						}
					]
				},
				"events": {
					"Initialized(uint64)": {
						"details": "Triggered when the contract has been initialized or reinitialized."
					}
				},
				"kind": "dev",
				"methods": {
					"deposit(address,uint256)": {
						"params": {
							"amount": "The value to add (in wei for Ether).",
							"token": "The token address (address(0) for Ether)."
						}
					},
					"initialize(address,address)": {
						"params": {
							"_scorer": "The scoring contract address.",
							"owner": "The owner address."
						}
					},
					"owner()": {
						"details": "Returns the address of the current owner."
					},
					"renounceOwnership()": {
						"details": "Leaves the contract without owner. It will not be possible to call `onlyOwner` functions. Can only be called by the current owner. NOTE: Renouncing ownership will leave the contract without an owner, thereby disabling any functionality that is only available to the owner."
					},
					"setAllowedAmount(address,address,uint256)": {
						"params": {
							"amount": "The allowed amount for the user.",
							"token": "The token address.",
							"user": "The address of the user."
						}
					},
					"setRound(uint64,uint64,string)": {
						"params": {
							"end": "The end timestamp of the round.",
							"metadataURI": "The IPFS URI for the round metadata.",
							"start": "The start timestamp of the round."
						}
					},
					"transferOwnership(address)": {
						"details": "Transfers ownership of the contract to a new account (`newOwner`). Can only be called by the current owner."
					},
					"withdraw(address,uint256)": {
						"params": {
							"amount": "The amount to withdraw.",
							"token": "The token address (address(0) for Ether)."
						}
					}
				},
				"version": 1
			},
			"evm": {
				"assembly": "    /* \"contracts/sweetspot.sol\":454:6176  contract sweetspot is OwnableUpgradeable, ReentrancyGuardUpgradeable  {... */\n  mstore(0x40, 0x80)\n  callvalue\n  dup1\n  iszero\n  tag_1\n  jumpi\n  0x00\n  dup1\n  revert\ntag_1:\n  pop\n  dataSize(sub_0)\n  dup1\n  dataOffset(sub_0)\n  0x00\n  codecopy\n  0x00\n  return\nstop\n\nsub_0: assembly {\n        /* \"contracts/sweetspot.sol\":454:6176  contract sweetspot is OwnableUpgradeable, ReentrancyGuardUpgradeable  {... */\n      mstore(0x40, 0x80)\n      jumpi(tag_1, lt(calldatasize, 0x04))\n      shr(0xe0, calldataload(0x00))\n      dup1\n      0x8da5cb5b\n      gt\n      tag_17\n      jumpi\n      dup1\n      0xaee9c872\n      gt\n      tag_18\n      jumpi\n      dup1\n      0xaee9c872\n      eq\n      tag_13\n      jumpi\n      dup1\n      0xb807a3c4\n      eq\n      tag_14\n      jumpi\n      dup1\n      0xf2fde38b\n      eq\n      tag_15\n      jumpi\n      dup1\n      0xf3fef3a3\n      eq\n      tag_16\n      jumpi\n      jump(tag_2)\n    tag_18:\n      dup1\n      0x8da5cb5b\n      eq\n      tag_10\n      jumpi\n      dup1\n      0xa9012c89\n      eq\n      tag_11\n      jumpi\n      dup1\n      0xa9590e8a\n      eq\n      tag_12\n      jumpi\n      jump(tag_2)\n    tag_17:\n      dup1\n      0x485cc955\n      gt\n      tag_19\n      jumpi\n      dup1\n      0x485cc955\n      eq\n      tag_6\n      jumpi\n      dup1\n      0x715018a6\n      eq\n      tag_7\n      jumpi\n      dup1\n      0x85c758f7\n      eq\n      tag_8\n      jumpi\n      dup1\n      0x8a19c8bc\n      eq\n      tag_9\n      jumpi\n      jump(tag_2)\n    tag_19:\n      dup1\n      0x1e83409a\n      eq\n      tag_3\n      jumpi\n      dup1\n      0x31f7d964\n      eq\n      tag_4\n      jumpi\n      dup1\n      0x47e7ef24\n      eq\n      tag_5\n      jumpi\n      jump(tag_2)\n    tag_1:\n      jumpi(tag_2, calldatasize)\n        /* \"contracts/sweetspot.sol\":5941:5950  msg.value */\n      callvalue\n        /* \"contracts/sweetspot.sol\":5910:5923  totalBalances */\n      0x35\n        /* \"contracts/sweetspot.sol\":5910:5937  totalBalances[NATIVE_TOKEN] */\n      0x00\n        /* \"contracts/sweetspot.sol\":613:614  0 */\n      dup1\n        /* \"contracts/sweetspot.sol\":5910:5937  totalBalances[NATIVE_TOKEN] */\n      0xffffffffffffffffffffffffffffffffffffffff\n      and\n      0xffffffffffffffffffffffffffffffffffffffff\n      and\n      dup2\n      mstore\n      0x20\n      add\n      swap1\n      dup2\n      mstore\n      0x20\n      add\n      0x00\n      keccak256\n      0x00\n        /* \"contracts/sweetspot.sol\":5910:5950  totalBalances[NATIVE_TOKEN] += msg.value */\n      dup3\n      dup3\n      sload\n      tag_22\n      swap2\n      swap1\n      tag_23\n      jump\t// in\n    tag_22:\n      swap3\n      pop\n      pop\n      dup2\n      swap1\n      sstore\n      pop\n        /* \"contracts/sweetspot.sol\":613:614  0 */\n      0x00\n        /* \"contracts/sweetspot.sol\":5966:6010  Deposit(msg.sender, NATIVE_TOKEN, msg.value) */\n      0xffffffffffffffffffffffffffffffffffffffff\n      and\n        /* \"contracts/sweetspot.sol\":5974:5984  msg.sender */\n      caller\n        /* \"contracts/sweetspot.sol\":5966:6010  Deposit(msg.sender, NATIVE_TOKEN, msg.value) */\n      0xffffffffffffffffffffffffffffffffffffffff\n      and\n      0x5548c837ab068cf56a2c2479df0882a4922fd203edb7517321831d95078c5f62\n        /* \"contracts/sweetspot.sol\":6000:6009  msg.value */\n      callvalue\n        /* \"contracts/sweetspot.sol\":5966:6010  Deposit(msg.sender, NATIVE_TOKEN, msg.value) */\n      mload(0x40)\n      tag_24\n      swap2\n      swap1\n      tag_25\n      jump\t// in\n    tag_24:\n      mload(0x40)\n      dup1\n      swap2\n      sub\n      swap1\n      log3\n        /* \"contracts/sweetspot.sol\":454:6176  contract sweetspot is OwnableUpgradeable, ReentrancyGuardUpgradeable  {... */\n      stop\n    tag_2:\n        /* \"contracts/sweetspot.sol\":6130:6165  revert(\"nCookieJar: use deposit()\") */\n      mload(0x40)\n      0x08c379a000000000000000000000000000000000000000000000000000000000\n      dup2\n      mstore\n      0x04\n      add\n      tag_28\n      swap1\n      tag_29\n      jump\t// in\n    tag_28:\n      mload(0x40)\n      dup1\n      swap2\n      sub\n      swap1\n      revert\n        /* \"contracts/sweetspot.sol\":2973:3990  function claim(address token) external nonReentrant {... */\n    tag_3:\n      callvalue\n      dup1\n      iszero\n      tag_30\n      jumpi\n      0x00\n      dup1\n      revert\n    tag_30:\n      pop\n      tag_31\n      0x04\n      dup1\n      calldatasize\n      sub\n      dup2\n      add\n      swap1\n      tag_32\n      swap2\n      swap1\n      tag_33\n      jump\t// in\n    tag_32:\n      tag_34\n      jump\t// in\n    tag_31:\n      stop\n        /* \"contracts/sweetspot.sol\":566:615  address public constant NATIVE_TOKEN = address(0) */\n    tag_4:\n      callvalue\n      dup1\n      iszero\n      tag_35\n      jumpi\n      0x00\n      dup1\n      revert\n    tag_35:\n      pop\n      tag_36\n      tag_37\n      jump\t// in\n    tag_36:\n      mload(0x40)\n      tag_38\n      swap2\n      swap1\n      tag_39\n      jump\t// in\n    tag_38:\n      mload(0x40)\n      dup1\n      swap2\n      sub\n      swap1\n      return\n        /* \"contracts/sweetspot.sol\":2414:2888  function deposit(address token, uint256 amount) external payable nonReentrant  {... */\n    tag_5:\n      tag_40\n      0x04\n      dup1\n      calldatasize\n      sub\n      dup2\n      add\n      swap1\n      tag_41\n      swap2\n      swap1\n      tag_42\n      jump\t// in\n    tag_41:\n      tag_43\n      jump\t// in\n    tag_40:\n      stop\n        /* \"contracts/sweetspot.sol\":1978:2196  function initialize(address _scorer, address owner) external initializer {... */\n    tag_6:\n      callvalue\n      dup1\n      iszero\n      tag_44\n      jumpi\n      0x00\n      dup1\n      revert\n    tag_44:\n      pop\n      tag_45\n      0x04\n      dup1\n      calldatasize\n      sub\n      dup2\n      add\n      swap1\n      tag_46\n      swap2\n      swap1\n      tag_47\n      jump\t// in\n    tag_46:\n      tag_48\n      jump\t// in\n    tag_45:\n      stop\n        /* \"@openzeppelin/contracts-upgradeable/access/OwnableUpgradeable.sol\":3155:3256  function renounceOwnership() public virtual onlyOwner {... */\n    tag_7:\n      callvalue\n      dup1\n      iszero\n      tag_49\n      jumpi\n      0x00\n      dup1\n      revert\n    tag_49:\n      pop\n      tag_50\n      tag_51\n      jump\t// in\n    tag_50:\n      stop\n        /* \"contracts/sweetspot.sol\":622:643  IScorer public scorer */\n    tag_8:\n      callvalue\n      dup1\n      iszero\n      tag_52\n      jumpi\n      0x00\n      dup1\n      revert\n    tag_52:\n      pop\n      tag_53\n      tag_54\n      jump\t// in\n    tag_53:\n      mload(0x40)\n      tag_55\n      swap2\n      swap1\n      tag_56\n      jump\t// in\n    tag_55:\n      mload(0x40)\n      dup1\n      swap2\n      sub\n      swap1\n      return\n        /* \"contracts/sweetspot.sol\":883:908  Round public currentRound */\n    tag_9:\n      callvalue\n      dup1\n      iszero\n      tag_57\n      jumpi\n      0x00\n      dup1\n      revert\n    tag_57:\n      pop\n      tag_58\n      tag_59\n      jump\t// in\n    tag_58:\n      mload(0x40)\n      tag_60\n      swap4\n      swap3\n      swap2\n      swap1\n      tag_61\n      jump\t// in\n    tag_60:\n      mload(0x40)\n      dup1\n      swap2\n      sub\n      swap1\n      return\n        /* \"@openzeppelin/contracts-upgradeable/access/OwnableUpgradeable.sol\":2441:2585  function owner() public view virtual returns (address) {... */\n    tag_10:\n      callvalue\n      dup1\n      iszero\n      tag_62\n      jumpi\n      0x00\n      dup1\n      revert\n    tag_62:\n      pop\n      tag_63\n      tag_64\n      jump\t// in\n    tag_63:\n      mload(0x40)\n      tag_65\n      swap2\n      swap1\n      tag_39\n      jump\t// in\n    tag_65:\n      mload(0x40)\n      dup1\n      swap2\n      sub\n      swap1\n      return\n        /* \"contracts/sweetspot.sol\":4732:5010  function setRound(uint64  start, uint64  end, string memory metadataURI) external onlyAdmin {... */\n    tag_11:\n      callvalue\n      dup1\n      iszero\n      tag_66\n      jumpi\n      0x00\n      dup1\n      revert\n    tag_66:\n      pop\n      tag_67\n      0x04\n      dup1\n      calldatasize\n      sub\n      dup2\n      add\n      swap1\n      tag_68\n      swap2\n      swap1\n      tag_69\n      jump\t// in\n    tag_68:\n      tag_70\n      jump\t// in\n    tag_67:\n      stop\n        /* \"contracts/sweetspot.sol\":1097:1166  mapping(address => mapping(address => uint256)) public allowedAmounts */\n    tag_12:\n      callvalue\n      dup1\n      iszero\n      tag_71\n      jumpi\n      0x00\n      dup1\n      revert\n    tag_71:\n      pop\n      tag_72\n      0x04\n      dup1\n      calldatasize\n      sub\n      dup2\n      add\n      swap1\n      tag_73\n      swap2\n      swap1\n      tag_47\n      jump\t// in\n    tag_73:\n      tag_74\n      jump\t// in\n    tag_72:\n      mload(0x40)\n      tag_75\n      swap2\n      swap1\n      tag_25\n      jump\t// in\n    tag_75:\n      mload(0x40)\n      dup1\n      swap2\n      sub\n      swap1\n      return\n        /* \"contracts/sweetspot.sol\":999:1047  mapping(address => uint256) public totalBalances */\n    tag_13:\n      callvalue\n      dup1\n      iszero\n      tag_76\n      jumpi\n      0x00\n      dup1\n      revert\n    tag_76:\n      pop\n      tag_77\n      0x04\n      dup1\n      calldatasize\n      sub\n      dup2\n      add\n      swap1\n      tag_78\n      swap2\n      swap1\n      tag_33\n      jump\t// in\n    tag_78:\n      tag_79\n      jump\t// in\n    tag_77:\n      mload(0x40)\n      tag_80\n      swap2\n      swap1\n      tag_25\n      jump\t// in\n    tag_80:\n      mload(0x40)\n      dup1\n      swap2\n      sub\n      swap1\n      return\n        /* \"contracts/sweetspot.sol\":4222:4483  function setAllowedAmount(address user, address token, uint256 amount) external onlyAdmin {... */\n    tag_14:\n      callvalue\n      dup1\n      iszero\n      tag_81\n      jumpi\n      0x00\n      dup1\n      revert\n    tag_81:\n      pop\n      tag_82\n      0x04\n      dup1\n      calldatasize\n      sub\n      dup2\n      add\n      swap1\n      tag_83\n      swap2\n      swap1\n      tag_84\n      jump\t// in\n    tag_83:\n      tag_85\n      jump\t// in\n    tag_82:\n      stop\n        /* \"@openzeppelin/contracts-upgradeable/access/OwnableUpgradeable.sol\":3405:3620  function transferOwnership(address newOwner) public virtual onlyOwner {... */\n    tag_15:\n      callvalue\n      dup1\n      iszero\n      tag_86\n      jumpi\n      0x00\n      dup1\n      revert\n    tag_86:\n      pop\n      tag_87\n      0x04\n      dup1\n      calldatasize\n      sub\n      dup2\n      add\n      swap1\n      tag_88\n      swap2\n      swap1\n      tag_33\n      jump\t// in\n    tag_88:\n      tag_89\n      jump\t// in\n    tag_87:\n      stop\n        /* \"contracts/sweetspot.sol\":5215:5793  function withdraw(address token, uint256 amount) external onlyOwner nonReentrant  {... */\n    tag_16:\n      callvalue\n      dup1\n      iszero\n      tag_90\n      jumpi\n      0x00\n      dup1\n      revert\n    tag_90:\n      pop\n      tag_91\n      0x04\n      dup1\n      calldatasize\n      sub\n      dup2\n      add\n      swap1\n      tag_92\n      swap2\n      swap1\n      tag_42\n      jump\t// in\n    tag_92:\n      tag_93\n      jump\t// in\n    tag_91:\n      stop\n        /* \"contracts/sweetspot.sol\":2973:3990  function claim(address token) external nonReentrant {... */\n    tag_34:\n        /* \"@openzeppelin/contracts-upgradeable/security/ReentrancyGuardUpgradeable.sol\":2526:2547  _nonReentrantBefore() */\n      tag_95\n        /* \"@openzeppelin/contracts-upgradeable/security/ReentrancyGuardUpgradeable.sol\":2526:2545  _nonReentrantBefore */\n      tag_96\n        /* \"@openzeppelin/contracts-upgradeable/security/ReentrancyGuardUpgradeable.sol\":2526:2547  _nonReentrantBefore() */\n      jump\t// in\n    tag_95:\n        /* \"contracts/sweetspot.sol\":3068:3080  currentRound */\n      0x33\n        /* \"contracts/sweetspot.sol\":3068:3086  currentRound.start */\n      0x00\n      add\n      0x00\n      swap1\n      sload\n      swap1\n      0x0100\n      exp\n      swap1\n      div\n      0xffffffffffffffff\n      and\n        /* \"contracts/sweetspot.sol\":3050:3086  block.timestamp < currentRound.start */\n      0xffffffffffffffff\n      and\n        /* \"contracts/sweetspot.sol\":3050:3065  block.timestamp */\n      timestamp\n        /* \"contracts/sweetspot.sol\":3050:3086  block.timestamp < currentRound.start */\n      lt\n        /* \"contracts/sweetspot.sol\":3050:3124  block.timestamp < currentRound.start || block.timestamp > currentRound.end */\n      dup1\n      tag_98\n      jumpi\n      pop\n        /* \"contracts/sweetspot.sol\":3108:3120  currentRound */\n      0x33\n        /* \"contracts/sweetspot.sol\":3108:3124  currentRound.end */\n      0x00\n      add\n      0x08\n      swap1\n      sload\n      swap1\n      0x0100\n      exp\n      swap1\n      div\n      0xffffffffffffffff\n      and\n        /* \"contracts/sweetspot.sol\":3090:3124  block.timestamp > currentRound.end */\n      0xffffffffffffffff\n      and\n        /* \"contracts/sweetspot.sol\":3090:3105  block.timestamp */\n      timestamp\n        /* \"contracts/sweetspot.sol\":3090:3124  block.timestamp > currentRound.end */\n      gt\n        /* \"contracts/sweetspot.sol\":3050:3124  block.timestamp < currentRound.start || block.timestamp > currentRound.end */\n    tag_98:\n        /* \"contracts/sweetspot.sol\":3046:3229  if (block.timestamp < currentRound.start || block.timestamp > currentRound.end) {... */\n      iszero\n      tag_99\n      jumpi\n        /* \"contracts/sweetspot.sol\":3163:3178  block.timestamp */\n      timestamp\n        /* \"contracts/sweetspot.sol\":3180:3192  currentRound */\n      0x33\n        /* \"contracts/sweetspot.sol\":3180:3198  currentRound.start */\n      0x00\n      add\n      0x00\n      swap1\n      sload\n      swap1\n      0x0100\n      exp\n      swap1\n      div\n      0xffffffffffffffff\n      and\n        /* \"contracts/sweetspot.sol\":3200:3212  currentRound */\n      0x33\n        /* \"contracts/sweetspot.sol\":3200:3216  currentRound.end */\n      0x00\n      add\n      0x08\n      swap1\n      sload\n      swap1\n      0x0100\n      exp\n      swap1\n      div\n      0xffffffffffffffff\n      and\n        /* \"contracts/sweetspot.sol\":3148:3217  NotWithinRound(block.timestamp, currentRound.start, currentRound.end) */\n      mload(0x40)\n      0xfa7410d400000000000000000000000000000000000000000000000000000000\n      dup2\n      mstore\n      0x04\n      add\n      tag_100\n      swap4\n      swap3\n      swap2\n      swap1\n      tag_101\n      jump\t// in\n    tag_100:\n      mload(0x40)\n      dup1\n      swap2\n      sub\n      swap1\n      revert\n        /* \"contracts/sweetspot.sol\":3046:3229  if (block.timestamp < currentRound.start || block.timestamp > currentRound.end) {... */\n    tag_99:\n        /* \"contracts/sweetspot.sol\":3241:3266  uint256 userAllowedAmount */\n      0x00\n        /* \"contracts/sweetspot.sol\":3269:3283  allowedAmounts */\n      0x36\n        /* \"contracts/sweetspot.sol\":3269:3295  allowedAmounts[msg.sender] */\n      0x00\n        /* \"contracts/sweetspot.sol\":3284:3294  msg.sender */\n      caller\n        /* \"contracts/sweetspot.sol\":3269:3295  allowedAmounts[msg.sender] */\n      0xffffffffffffffffffffffffffffffffffffffff\n      and\n      0xffffffffffffffffffffffffffffffffffffffff\n      and\n      dup2\n      mstore\n      0x20\n      add\n      swap1\n      dup2\n      mstore\n      0x20\n      add\n      0x00\n      keccak256\n        /* \"contracts/sweetspot.sol\":3269:3302  allowedAmounts[msg.sender][token] */\n      0x00\n        /* \"contracts/sweetspot.sol\":3296:3301  token */\n      dup4\n        /* \"contracts/sweetspot.sol\":3269:3302  allowedAmounts[msg.sender][token] */\n      0xffffffffffffffffffffffffffffffffffffffff\n      and\n      0xffffffffffffffffffffffffffffffffffffffff\n      and\n      dup2\n      mstore\n      0x20\n      add\n      swap1\n      dup2\n      mstore\n      0x20\n      add\n      0x00\n      keccak256\n      sload\n        /* \"contracts/sweetspot.sol\":3241:3302  uint256 userAllowedAmount = allowedAmounts[msg.sender][token] */\n      swap1\n      pop\n        /* \"contracts/sweetspot.sol\":3341:3342  0 */\n      0x00\n        /* \"contracts/sweetspot.sol\":3321:3338  userAllowedAmount */\n      dup2\n        /* \"contracts/sweetspot.sol\":3321:3342  userAllowedAmount > 0 */\n      gt\n        /* \"contracts/sweetspot.sol\":3313:3366  require(userAllowedAmount > 0, \"No claimable amount\") */\n      tag_102\n      jumpi\n      mload(0x40)\n      0x08c379a000000000000000000000000000000000000000000000000000000000\n      dup2\n      mstore\n      0x04\n      add\n      tag_103\n      swap1\n      tag_104\n      jump\t// in\n    tag_103:\n      mload(0x40)\n      dup1\n      swap2\n      sub\n      swap1\n      revert\n    tag_102:\n        /* \"contracts/sweetspot.sol\":3409:3426  userAllowedAmount */\n      dup1\n        /* \"contracts/sweetspot.sol\":3385:3398  totalBalances */\n      0x35\n        /* \"contracts/sweetspot.sol\":3385:3405  totalBalances[token] */\n      0x00\n        /* \"contracts/sweetspot.sol\":3399:3404  token */\n      dup5\n        /* \"contracts/sweetspot.sol\":3385:3405  totalBalances[token] */\n      0xffffffffffffffffffffffffffffffffffffffff\n      and\n      0xffffffffffffffffffffffffffffffffffffffff\n      and\n      dup2\n      mstore\n      0x20\n      add\n      swap1\n      dup2\n      mstore\n      0x20\n      add\n      0x00\n      keccak256\n      sload\n        /* \"contracts/sweetspot.sol\":3385:3426  totalBalances[token] >= userAllowedAmount */\n      lt\n      iszero\n        /* \"contracts/sweetspot.sol\":3377:3456  require(totalBalances[token] >= userAllowedAmount, \"Insufficient funds in jar\") */\n      tag_105\n      jumpi\n      mload(0x40)\n      0x08c379a000000000000000000000000000000000000000000000000000000000\n      dup2\n      mstore\n      0x04\n      add\n      tag_106\n      swap1\n      tag_107\n      jump\t// in\n    tag_106:\n      mload(0x40)\n      dup1\n      swap2\n      sub\n      swap1\n      revert\n    tag_105:\n        /* \"contracts/sweetspot.sol\":3511:3512  0 */\n      0x00\n        /* \"contracts/sweetspot.sol\":3475:3481  scorer */\n      0x32\n      0x00\n      swap1\n      sload\n      swap1\n      0x0100\n      exp\n      swap1\n      div\n      0xffffffffffffffffffffffffffffffffffffffff\n      and\n        /* \"contracts/sweetspot.sol\":3475:3487  scorer.score */\n      0xffffffffffffffffffffffffffffffffffffffff\n      and\n      0xdb4f1024\n        /* \"contracts/sweetspot.sol\":3488:3498  msg.sender */\n      caller\n        /* \"contracts/sweetspot.sol\":3475:3508  scorer.score(msg.sender, \"Trust\") */\n      mload(0x40)\n      dup3\n      0xffffffff\n      and\n      0xe0\n      shl\n      dup2\n      mstore\n      0x04\n      add\n      tag_108\n      swap2\n      swap1\n      tag_109\n      jump\t// in\n    tag_108:\n      0x20\n      mload(0x40)\n      dup1\n      dup4\n      sub\n      dup2\n      dup7\n      gas\n      staticcall\n      iszero\n      dup1\n      iszero\n      tag_111\n      jumpi\n      returndatasize\n      0x00\n      dup1\n      returndatacopy\n      revert(0x00, returndatasize)\n    tag_111:\n      pop\n      pop\n      pop\n      pop\n      mload(0x40)\n      returndatasize\n      not(0x1f)\n      0x1f\n      dup3\n      add\n      and\n      dup3\n      add\n      dup1\n      0x40\n      mstore\n      pop\n      dup2\n      add\n      swap1\n      tag_112\n      swap2\n      swap1\n      tag_113\n      jump\t// in\n    tag_112:\n        /* \"contracts/sweetspot.sol\":3475:3512  scorer.score(msg.sender, \"Trust\") > 0 */\n      gt\n        /* \"contracts/sweetspot.sol\":3467:3541  require(scorer.score(msg.sender, \"Trust\") > 0, \"Insufficient Trust score\") */\n      tag_114\n      jumpi\n      mload(0x40)\n      0x08c379a000000000000000000000000000000000000000000000000000000000\n      dup2\n      mstore\n      0x04\n      add\n      tag_115\n      swap1\n      tag_116\n      jump\t// in\n    tag_115:\n      mload(0x40)\n      dup1\n      swap2\n      sub\n      swap1\n      revert\n    tag_114:\n        /* \"contracts/sweetspot.sol\":3590:3591  0 */\n      0x00\n        /* \"contracts/sweetspot.sol\":3554:3568  allowedAmounts */\n      0x36\n        /* \"contracts/sweetspot.sol\":3554:3580  allowedAmounts[msg.sender] */\n      0x00\n        /* \"contracts/sweetspot.sol\":3569:3579  msg.sender */\n      caller\n        /* \"contracts/sweetspot.sol\":3554:3580  allowedAmounts[msg.sender] */\n      0xffffffffffffffffffffffffffffffffffffffff\n      and\n      0xffffffffffffffffffffffffffffffffffffffff\n      and\n      dup2\n      mstore\n      0x20\n      add\n      swap1\n      dup2\n      mstore\n      0x20\n      add\n      0x00\n      keccak256\n        /* \"contracts/sweetspot.sol\":3554:3587  allowedAmounts[msg.sender][token] */\n      0x00\n        /* \"contracts/sweetspot.sol\":3581:3586  token */\n      dup5\n        /* \"contracts/sweetspot.sol\":3554:3587  allowedAmounts[msg.sender][token] */\n      0xffffffffffffffffffffffffffffffffffffffff\n      and\n      0xffffffffffffffffffffffffffffffffffffffff\n      and\n      dup2\n      mstore\n      0x20\n      add\n      swap1\n      dup2\n      mstore\n      0x20\n      add\n      0x00\n      keccak256\n        /* \"contracts/sweetspot.sol\":3554:3591  allowedAmounts[msg.sender][token] = 0 */\n      dup2\n      swap1\n      sstore\n      pop\n        /* \"contracts/sweetspot.sol\":3626:3643  userAllowedAmount */\n      dup1\n        /* \"contracts/sweetspot.sol\":3602:3615  totalBalances */\n      0x35\n        /* \"contracts/sweetspot.sol\":3602:3622  totalBalances[token] */\n      0x00\n        /* \"contracts/sweetspot.sol\":3616:3621  token */\n      dup5\n        /* \"contracts/sweetspot.sol\":3602:3622  totalBalances[token] */\n      0xffffffffffffffffffffffffffffffffffffffff\n      and\n      0xffffffffffffffffffffffffffffffffffffffff\n      and\n      dup2\n      mstore\n      0x20\n      add\n      swap1\n      dup2\n      mstore\n      0x20\n      add\n      0x00\n      keccak256\n      0x00\n        /* \"contracts/sweetspot.sol\":3602:3643  totalBalances[token] -= userAllowedAmount */\n      dup3\n      dup3\n      sload\n      tag_117\n      swap2\n      swap1\n      tag_118\n      jump\t// in\n    tag_117:\n      swap3\n      pop\n      pop\n      dup2\n      swap1\n      sstore\n      pop\n        /* \"contracts/sweetspot.sol\":613:614  0 */\n      0x00\n        /* \"contracts/sweetspot.sol\":3660:3681  token == NATIVE_TOKEN */\n      0xffffffffffffffffffffffffffffffffffffffff\n      and\n        /* \"contracts/sweetspot.sol\":3660:3665  token */\n      dup3\n        /* \"contracts/sweetspot.sol\":3660:3681  token == NATIVE_TOKEN */\n      0xffffffffffffffffffffffffffffffffffffffff\n      and\n      sub\n        /* \"contracts/sweetspot.sol\":3656:3920  if (token == NATIVE_TOKEN) {... */\n      tag_119\n      jumpi\n        /* \"contracts/sweetspot.sol\":3699:3711  bool success */\n      0x00\n        /* \"contracts/sweetspot.sol\":3717:3727  msg.sender */\n      caller\n        /* \"contracts/sweetspot.sol\":3717:3732  msg.sender.call */\n      0xffffffffffffffffffffffffffffffffffffffff\n      and\n        /* \"contracts/sweetspot.sol\":3740:3757  userAllowedAmount */\n      dup3\n        /* \"contracts/sweetspot.sol\":3717:3762  msg.sender.call{value: userAllowedAmount}(\"\") */\n      mload(0x40)\n      tag_120\n      swap1\n      tag_121\n      jump\t// in\n    tag_120:\n      0x00\n      mload(0x40)\n      dup1\n      dup4\n      sub\n      dup2\n      dup6\n      dup8\n      gas\n      call\n      swap3\n      pop\n      pop\n      pop\n      returndatasize\n      dup1\n      0x00\n      dup2\n      eq\n      tag_124\n      jumpi\n      mload(0x40)\n      swap2\n      pop\n      and(add(returndatasize, 0x3f), not(0x1f))\n      dup3\n      add\n      0x40\n      mstore\n      returndatasize\n      dup3\n      mstore\n      returndatasize\n      0x00\n      0x20\n      dup5\n      add\n      returndatacopy\n      jump(tag_123)\n    tag_124:\n      0x60\n      swap2\n      pop\n    tag_123:\n      pop\n        /* \"contracts/sweetspot.sol\":3698:3762  (bool success, ) = msg.sender.call{value: userAllowedAmount}(\"\") */\n      pop\n      swap1\n      pop\n        /* \"contracts/sweetspot.sol\":3785:3792  success */\n      dup1\n        /* \"contracts/sweetspot.sol\":3777:3818  require(success, \"Ether transfer failed\") */\n      tag_125\n      jumpi\n      mload(0x40)\n      0x08c379a000000000000000000000000000000000000000000000000000000000\n      dup2\n      mstore\n      0x04\n      add\n      tag_126\n      swap1\n      tag_127\n      jump\t// in\n    tag_126:\n      mload(0x40)\n      dup1\n      swap2\n      sub\n      swap1\n      revert\n    tag_125:\n        /* \"contracts/sweetspot.sol\":3683:3830  {... */\n      pop\n        /* \"contracts/sweetspot.sol\":3656:3920  if (token == NATIVE_TOKEN) {... */\n      jump(tag_128)\n    tag_119:\n        /* \"contracts/sweetspot.sol\":3851:3908  IERC20(token).safeTransfer(msg.sender, userAllowedAmount) */\n      tag_129\n        /* \"contracts/sweetspot.sol\":3878:3888  msg.sender */\n      caller\n        /* \"contracts/sweetspot.sol\":3890:3907  userAllowedAmount */\n      dup3\n        /* \"contracts/sweetspot.sol\":3858:3863  token */\n      dup5\n        /* \"contracts/sweetspot.sol\":3851:3877  IERC20(token).safeTransfer */\n      0xffffffffffffffffffffffffffffffffffffffff\n      and\n      tag_130\n      swap1\n        /* \"contracts/sweetspot.sol\":3851:3908  IERC20(token).safeTransfer(msg.sender, userAllowedAmount) */\n      swap3\n      swap2\n      swap1\n      0xffffffff\n      and\n      jump\t// in\n    tag_129:\n        /* \"contracts/sweetspot.sol\":3656:3920  if (token == NATIVE_TOKEN) {... */\n    tag_128:\n        /* \"contracts/sweetspot.sol\":3957:3962  token */\n      dup2\n        /* \"contracts/sweetspot.sol\":3937:3982  Claimed(msg.sender, token, userAllowedAmount) */\n      0xffffffffffffffffffffffffffffffffffffffff\n      and\n        /* \"contracts/sweetspot.sol\":3945:3955  msg.sender */\n      caller\n        /* \"contracts/sweetspot.sol\":3937:3982  Claimed(msg.sender, token, userAllowedAmount) */\n      0xffffffffffffffffffffffffffffffffffffffff\n      and\n      0xf7a40077ff7a04c7e61f6f26fb13774259ddf1b6bce9ecf26a8276cdd3992683\n        /* \"contracts/sweetspot.sol\":3964:3981  userAllowedAmount */\n      dup4\n        /* \"contracts/sweetspot.sol\":3937:3982  Claimed(msg.sender, token, userAllowedAmount) */\n      mload(0x40)\n      tag_131\n      swap2\n      swap1\n      tag_25\n      jump\t// in\n    tag_131:\n      mload(0x40)\n      dup1\n      swap2\n      sub\n      swap1\n      log3\n        /* \"contracts/sweetspot.sol\":3025:3990  {... */\n      pop\n        /* \"@openzeppelin/contracts-upgradeable/security/ReentrancyGuardUpgradeable.sol\":2568:2588  _nonReentrantAfter() */\n      tag_132\n        /* \"@openzeppelin/contracts-upgradeable/security/ReentrancyGuardUpgradeable.sol\":2568:2586  _nonReentrantAfter */\n      tag_133\n        /* \"@openzeppelin/contracts-upgradeable/security/ReentrancyGuardUpgradeable.sol\":2568:2588  _nonReentrantAfter() */\n      jump\t// in\n    tag_132:\n        /* \"contracts/sweetspot.sol\":2973:3990  function claim(address token) external nonReentrant {... */\n      pop\n      jump\t// out\n        /* \"contracts/sweetspot.sol\":566:615  address public constant NATIVE_TOKEN = address(0) */\n    tag_37:\n        /* \"contracts/sweetspot.sol\":613:614  0 */\n      0x00\n        /* \"contracts/sweetspot.sol\":566:615  address public constant NATIVE_TOKEN = address(0) */\n      dup2\n      jump\t// out\n        /* \"contracts/sweetspot.sol\":2414:2888  function deposit(address token, uint256 amount) external payable nonReentrant  {... */\n    tag_43:\n        /* \"@openzeppelin/contracts-upgradeable/security/ReentrancyGuardUpgradeable.sol\":2526:2547  _nonReentrantBefore() */\n      tag_135\n        /* \"@openzeppelin/contracts-upgradeable/security/ReentrancyGuardUpgradeable.sol\":2526:2545  _nonReentrantBefore */\n      tag_96\n        /* \"@openzeppelin/contracts-upgradeable/security/ReentrancyGuardUpgradeable.sol\":2526:2547  _nonReentrantBefore() */\n      jump\t// in\n    tag_135:\n        /* \"contracts/sweetspot.sol\":613:614  0 */\n      0x00\n        /* \"contracts/sweetspot.sol\":2508:2529  token == NATIVE_TOKEN */\n      0xffffffffffffffffffffffffffffffffffffffff\n      and\n        /* \"contracts/sweetspot.sol\":2508:2513  token */\n      dup3\n        /* \"contracts/sweetspot.sol\":2508:2529  token == NATIVE_TOKEN */\n      0xffffffffffffffffffffffffffffffffffffffff\n      and\n      sub\n        /* \"contracts/sweetspot.sol\":2504:2788  if (token == NATIVE_TOKEN) {... */\n      tag_137\n      jumpi\n        /* \"contracts/sweetspot.sol\":2567:2573  amount */\n      dup1\n        /* \"contracts/sweetspot.sol\":2554:2563  msg.value */\n      callvalue\n        /* \"contracts/sweetspot.sol\":2554:2573  msg.value == amount */\n      eq\n        /* \"contracts/sweetspot.sol\":2546:2600  require(msg.value == amount, \"Incorrect Ether amount\") */\n      tag_138\n      jumpi\n      mload(0x40)\n      0x08c379a000000000000000000000000000000000000000000000000000000000\n      dup2\n      mstore\n      0x04\n      add\n      tag_139\n      swap1\n      tag_140\n      jump\t// in\n    tag_139:\n      mload(0x40)\n      dup1\n      swap2\n      sub\n      swap1\n      revert\n    tag_138:\n        /* \"contracts/sweetspot.sol\":2504:2788  if (token == NATIVE_TOKEN) {... */\n      jump(tag_141)\n    tag_137:\n        /* \"contracts/sweetspot.sol\":2650:2651  0 */\n      0x00\n        /* \"contracts/sweetspot.sol\":2641:2647  amount */\n      dup2\n        /* \"contracts/sweetspot.sol\":2641:2651  amount > 0 */\n      gt\n        /* \"contracts/sweetspot.sol\":2633:2696  require(amount > 0, \"Deposit amount must be greater than zero\") */\n      tag_142\n      jumpi\n      mload(0x40)\n      0x08c379a000000000000000000000000000000000000000000000000000000000\n      dup2\n      mstore\n      0x04\n      add\n      tag_143\n      swap1\n      tag_144\n      jump\t// in\n    tag_143:\n      mload(0x40)\n      dup1\n      swap2\n      sub\n      swap1\n      revert\n    tag_142:\n        /* \"contracts/sweetspot.sol\":2711:2776  IERC20(token).safeTransferFrom(msg.sender, address(this), amount) */\n      tag_145\n        /* \"contracts/sweetspot.sol\":2742:2752  msg.sender */\n      caller\n        /* \"contracts/sweetspot.sol\":2762:2766  this */\n      address\n        /* \"contracts/sweetspot.sol\":2769:2775  amount */\n      dup4\n        /* \"contracts/sweetspot.sol\":2718:2723  token */\n      dup6\n        /* \"contracts/sweetspot.sol\":2711:2741  IERC20(token).safeTransferFrom */\n      0xffffffffffffffffffffffffffffffffffffffff\n      and\n      tag_146\n      swap1\n        /* \"contracts/sweetspot.sol\":2711:2776  IERC20(token).safeTransferFrom(msg.sender, address(this), amount) */\n      swap4\n      swap3\n      swap2\n      swap1\n      0xffffffff\n      and\n      jump\t// in\n    tag_145:\n        /* \"contracts/sweetspot.sol\":2504:2788  if (token == NATIVE_TOKEN) {... */\n    tag_141:\n        /* \"contracts/sweetspot.sol\":2824:2830  amount */\n      dup1\n        /* \"contracts/sweetspot.sol\":2800:2813  totalBalances */\n      0x35\n        /* \"contracts/sweetspot.sol\":2800:2820  totalBalances[token] */\n      0x00\n        /* \"contracts/sweetspot.sol\":2814:2819  token */\n      dup5\n        /* \"contracts/sweetspot.sol\":2800:2820  totalBalances[token] */\n      0xffffffffffffffffffffffffffffffffffffffff\n      and\n      0xffffffffffffffffffffffffffffffffffffffff\n      and\n      dup2\n      mstore\n      0x20\n      add\n      swap1\n      dup2\n      mstore\n      0x20\n      add\n      0x00\n      keccak256\n      0x00\n        /* \"contracts/sweetspot.sol\":2800:2830  totalBalances[token] += amount */\n      dup3\n      dup3\n      sload\n      tag_147\n      swap2\n      swap1\n      tag_23\n      jump\t// in\n    tag_147:\n      swap3\n      pop\n      pop\n      dup2\n      swap1\n      sstore\n      pop\n        /* \"contracts/sweetspot.sol\":2866:2871  token */\n      dup2\n        /* \"contracts/sweetspot.sol\":2846:2880  Deposit(msg.sender, token, amount) */\n      0xffffffffffffffffffffffffffffffffffffffff\n      and\n        /* \"contracts/sweetspot.sol\":2854:2864  msg.sender */\n      caller\n        /* \"contracts/sweetspot.sol\":2846:2880  Deposit(msg.sender, token, amount) */\n      0xffffffffffffffffffffffffffffffffffffffff\n      and\n      0x5548c837ab068cf56a2c2479df0882a4922fd203edb7517321831d95078c5f62\n        /* \"contracts/sweetspot.sol\":2873:2879  amount */\n      dup4\n        /* \"contracts/sweetspot.sol\":2846:2880  Deposit(msg.sender, token, amount) */\n      mload(0x40)\n      tag_148\n      swap2\n      swap1\n      tag_25\n      jump\t// in\n    tag_148:\n      mload(0x40)\n      dup1\n      swap2\n      sub\n      swap1\n      log3\n        /* \"@openzeppelin/contracts-upgradeable/security/ReentrancyGuardUpgradeable.sol\":2568:2588  _nonReentrantAfter() */\n      tag_149\n        /* \"@openzeppelin/contracts-upgradeable/security/ReentrancyGuardUpgradeable.sol\":2568:2586  _nonReentrantAfter */\n      tag_133\n        /* \"@openzeppelin/contracts-upgradeable/security/ReentrancyGuardUpgradeable.sol\":2568:2588  _nonReentrantAfter() */\n      jump\t// in\n    tag_149:\n        /* \"contracts/sweetspot.sol\":2414:2888  function deposit(address token, uint256 amount) external payable nonReentrant  {... */\n      pop\n      pop\n      jump\t// out\n        /* \"contracts/sweetspot.sol\":1978:2196  function initialize(address _scorer, address owner) external initializer {... */\n    tag_48:\n        /* \"@openzeppelin/contracts-upgradeable/proxy/utils/Initializable.sol\":4158:4188  InitializableStorage storage $ */\n      0x00\n        /* \"@openzeppelin/contracts-upgradeable/proxy/utils/Initializable.sol\":4191:4217  _getInitializableStorage() */\n      tag_151\n        /* \"@openzeppelin/contracts-upgradeable/proxy/utils/Initializable.sol\":4191:4215  _getInitializableStorage */\n      tag_152\n        /* \"@openzeppelin/contracts-upgradeable/proxy/utils/Initializable.sol\":4191:4217  _getInitializableStorage() */\n      jump\t// in\n    tag_151:\n        /* \"@openzeppelin/contracts-upgradeable/proxy/utils/Initializable.sol\":4158:4217  InitializableStorage storage $ = _getInitializableStorage() */\n      swap1\n      pop\n        /* \"@openzeppelin/contracts-upgradeable/proxy/utils/Initializable.sol\":4279:4298  bool isTopLevelCall */\n      0x00\n        /* \"@openzeppelin/contracts-upgradeable/proxy/utils/Initializable.sol\":4302:4303  $ */\n      dup2\n        /* \"@openzeppelin/contracts-upgradeable/proxy/utils/Initializable.sol\":4302:4317  $._initializing */\n      0x00\n      add\n      0x08\n      swap1\n      sload\n      swap1\n      0x0100\n      exp\n      swap1\n      div\n      0xff\n      and\n        /* \"@openzeppelin/contracts-upgradeable/proxy/utils/Initializable.sol\":4301:4317  !$._initializing */\n      iszero\n        /* \"@openzeppelin/contracts-upgradeable/proxy/utils/Initializable.sol\":4279:4317  bool isTopLevelCall = !$._initializing */\n      swap1\n      pop\n        /* \"@openzeppelin/contracts-upgradeable/proxy/utils/Initializable.sol\":4327:4345  uint64 initialized */\n      0x00\n        /* \"@openzeppelin/contracts-upgradeable/proxy/utils/Initializable.sol\":4348:4349  $ */\n      dup3\n        /* \"@openzeppelin/contracts-upgradeable/proxy/utils/Initializable.sol\":4348:4362  $._initialized */\n      0x00\n      add\n      0x00\n      swap1\n      sload\n      swap1\n      0x0100\n      exp\n      swap1\n      div\n      0xffffffffffffffff\n      and\n        /* \"@openzeppelin/contracts-upgradeable/proxy/utils/Initializable.sol\":4327:4362  uint64 initialized = $._initialized */\n      swap1\n      pop\n        /* \"@openzeppelin/contracts-upgradeable/proxy/utils/Initializable.sol\":4706:4723  bool initialSetup */\n      0x00\n        /* \"@openzeppelin/contracts-upgradeable/proxy/utils/Initializable.sol\":4741:4742  0 */\n      dup1\n        /* \"@openzeppelin/contracts-upgradeable/proxy/utils/Initializable.sol\":4726:4737  initialized */\n      dup3\n        /* \"@openzeppelin/contracts-upgradeable/proxy/utils/Initializable.sol\":4726:4742  initialized == 0 */\n      0xffffffffffffffff\n      and\n      eq\n        /* \"@openzeppelin/contracts-upgradeable/proxy/utils/Initializable.sol\":4726:4760  initialized == 0 && isTopLevelCall */\n      dup1\n      iszero\n      tag_153\n      jumpi\n      pop\n        /* \"@openzeppelin/contracts-upgradeable/proxy/utils/Initializable.sol\":4746:4760  isTopLevelCall */\n      dup3\n        /* \"@openzeppelin/contracts-upgradeable/proxy/utils/Initializable.sol\":4726:4760  initialized == 0 && isTopLevelCall */\n    tag_153:\n        /* \"@openzeppelin/contracts-upgradeable/proxy/utils/Initializable.sol\":4706:4760  bool initialSetup = initialized == 0 && isTopLevelCall */\n      swap1\n      pop\n        /* \"@openzeppelin/contracts-upgradeable/proxy/utils/Initializable.sol\":4770:4787  bool construction */\n      0x00\n        /* \"@openzeppelin/contracts-upgradeable/proxy/utils/Initializable.sol\":4805:4806  1 */\n      0x01\n        /* \"@openzeppelin/contracts-upgradeable/proxy/utils/Initializable.sol\":4790:4801  initialized */\n      dup4\n        /* \"@openzeppelin/contracts-upgradeable/proxy/utils/Initializable.sol\":4790:4806  initialized == 1 */\n      0xffffffffffffffff\n      and\n      eq\n        /* \"@openzeppelin/contracts-upgradeable/proxy/utils/Initializable.sol\":4790:4840  initialized == 1 && address(this).code.length == 0 */\n      dup1\n      iszero\n      tag_154\n      jumpi\n      pop\n        /* \"@openzeppelin/contracts-upgradeable/proxy/utils/Initializable.sol\":4839:4840  0 */\n      0x00\n        /* \"@openzeppelin/contracts-upgradeable/proxy/utils/Initializable.sol\":4818:4822  this */\n      address\n        /* \"@openzeppelin/contracts-upgradeable/proxy/utils/Initializable.sol\":4810:4835  address(this).code.length */\n      0xffffffffffffffffffffffffffffffffffffffff\n      and\n      extcodesize\n        /* \"@openzeppelin/contracts-upgradeable/proxy/utils/Initializable.sol\":4810:4840  address(this).code.length == 0 */\n      eq\n        /* \"@openzeppelin/contracts-upgradeable/proxy/utils/Initializable.sol\":4790:4840  initialized == 1 && address(this).code.length == 0 */\n    tag_154:\n        /* \"@openzeppelin/contracts-upgradeable/proxy/utils/Initializable.sol\":4770:4840  bool construction = initialized == 1 && address(this).code.length == 0 */\n      swap1\n      pop\n        /* \"@openzeppelin/contracts-upgradeable/proxy/utils/Initializable.sol\":4856:4868  initialSetup */\n      dup2\n        /* \"@openzeppelin/contracts-upgradeable/proxy/utils/Initializable.sol\":4855:4868  !initialSetup */\n      iszero\n        /* \"@openzeppelin/contracts-upgradeable/proxy/utils/Initializable.sol\":4855:4885  !initialSetup && !construction */\n      dup1\n      iszero\n      tag_155\n      jumpi\n      pop\n        /* \"@openzeppelin/contracts-upgradeable/proxy/utils/Initializable.sol\":4873:4885  construction */\n      dup1\n        /* \"@openzeppelin/contracts-upgradeable/proxy/utils/Initializable.sol\":4872:4885  !construction */\n      iszero\n        /* \"@openzeppelin/contracts-upgradeable/proxy/utils/Initializable.sol\":4855:4885  !initialSetup && !construction */\n    tag_155:\n        /* \"@openzeppelin/contracts-upgradeable/proxy/utils/Initializable.sol\":4851:4942  if (!initialSetup && !construction) {... */\n      iszero\n      tag_156\n      jumpi\n        /* \"@openzeppelin/contracts-upgradeable/proxy/utils/Initializable.sol\":4908:4931  InvalidInitialization() */\n      mload(0x40)\n      0xf92ee8a900000000000000000000000000000000000000000000000000000000\n      dup2\n      mstore\n      0x04\n      add\n      mload(0x40)\n      dup1\n      swap2\n      sub\n      swap1\n      revert\n        /* \"@openzeppelin/contracts-upgradeable/proxy/utils/Initializable.sol\":4851:4942  if (!initialSetup && !construction) {... */\n    tag_156:\n        /* \"@openzeppelin/contracts-upgradeable/proxy/utils/Initializable.sol\":4968:4969  1 */\n      0x01\n        /* \"@openzeppelin/contracts-upgradeable/proxy/utils/Initializable.sol\":4951:4952  $ */\n      dup6\n        /* \"@openzeppelin/contracts-upgradeable/proxy/utils/Initializable.sol\":4951:4965  $._initialized */\n      0x00\n      add\n      0x00\n        /* \"@openzeppelin/contracts-upgradeable/proxy/utils/Initializable.sol\":4951:4969  $._initialized = 1 */\n      0x0100\n      exp\n      dup2\n      sload\n      dup2\n      0xffffffffffffffff\n      mul\n      not\n      and\n      swap1\n      dup4\n      0xffffffffffffffff\n      and\n      mul\n      or\n      swap1\n      sstore\n      pop\n        /* \"@openzeppelin/contracts-upgradeable/proxy/utils/Initializable.sol\":4983:4997  isTopLevelCall */\n      dup4\n        /* \"@openzeppelin/contracts-upgradeable/proxy/utils/Initializable.sol\":4979:5046  if (isTopLevelCall) {... */\n      iszero\n      tag_157\n      jumpi\n        /* \"@openzeppelin/contracts-upgradeable/proxy/utils/Initializable.sol\":5031:5035  true */\n      0x01\n        /* \"@openzeppelin/contracts-upgradeable/proxy/utils/Initializable.sol\":5013:5014  $ */\n      dup6\n        /* \"@openzeppelin/contracts-upgradeable/proxy/utils/Initializable.sol\":5013:5028  $._initializing */\n      0x00\n      add\n      0x08\n        /* \"@openzeppelin/contracts-upgradeable/proxy/utils/Initializable.sol\":5013:5035  $._initializing = true */\n      0x0100\n      exp\n      dup2\n      sload\n      dup2\n      0xff\n      mul\n      not\n      and\n      swap1\n      dup4\n      iszero\n      iszero\n      mul\n      or\n      swap1\n      sstore\n      pop\n        /* \"@openzeppelin/contracts-upgradeable/proxy/utils/Initializable.sol\":4979:5046  if (isTopLevelCall) {... */\n    tag_157:\n        /* \"contracts/sweetspot.sol\":2062:2083  __Ownable_init(owner) */\n      tag_159\n        /* \"contracts/sweetspot.sol\":2077:2082  owner */\n      dup7\n        /* \"contracts/sweetspot.sol\":2062:2076  __Ownable_init */\n      tag_160\n        /* \"contracts/sweetspot.sol\":2062:2083  __Ownable_init(owner) */\n      jump\t// in\n    tag_159:\n        /* \"contracts/sweetspot.sol\":2128:2152  __ReentrancyGuard_init() */\n      tag_161\n        /* \"contracts/sweetspot.sol\":2128:2150  __ReentrancyGuard_init */\n      tag_162\n        /* \"contracts/sweetspot.sol\":2128:2152  __ReentrancyGuard_init() */\n      jump\t// in\n    tag_161:\n        /* \"contracts/sweetspot.sol\":2180:2187  _scorer */\n      dup7\n        /* \"contracts/sweetspot.sol\":2163:2169  scorer */\n      0x32\n      0x00\n        /* \"contracts/sweetspot.sol\":2163:2188  scorer = IScorer(_scorer) */\n      0x0100\n      exp\n      dup2\n      sload\n      dup2\n      0xffffffffffffffffffffffffffffffffffffffff\n      mul\n      not\n      and\n      swap1\n      dup4\n      0xffffffffffffffffffffffffffffffffffffffff\n      and\n      mul\n      or\n      swap1\n      sstore\n      pop\n        /* \"@openzeppelin/contracts-upgradeable/proxy/utils/Initializable.sol\":5070:5084  isTopLevelCall */\n      dup4\n        /* \"@openzeppelin/contracts-upgradeable/proxy/utils/Initializable.sol\":5066:5167  if (isTopLevelCall) {... */\n      iszero\n      tag_163\n      jumpi\n        /* \"@openzeppelin/contracts-upgradeable/proxy/utils/Initializable.sol\":5118:5123  false */\n      0x00\n        /* \"@openzeppelin/contracts-upgradeable/proxy/utils/Initializable.sol\":5100:5101  $ */\n      dup6\n        /* \"@openzeppelin/contracts-upgradeable/proxy/utils/Initializable.sol\":5100:5115  $._initializing */\n      0x00\n      add\n      0x08\n        /* \"@openzeppelin/contracts-upgradeable/proxy/utils/Initializable.sol\":5100:5123  $._initializing = false */\n      0x0100\n      exp\n      dup2\n      sload\n      dup2\n      0xff\n      mul\n      not\n      and\n      swap1\n      dup4\n      iszero\n      iszero\n      mul\n      or\n      swap1\n      sstore\n      pop\n        /* \"@openzeppelin/contracts-upgradeable/proxy/utils/Initializable.sol\":5142:5156  Initialized(1) */\n      0xc7f505b2f371ae2175ee4913f4499e1f2633a7b5936321eed1cdaeb6115181d2\n        /* \"@openzeppelin/contracts-upgradeable/proxy/utils/Initializable.sol\":5154:5155  1 */\n      0x01\n        /* \"@openzeppelin/contracts-upgradeable/proxy/utils/Initializable.sol\":5142:5156  Initialized(1) */\n      mload(0x40)\n      tag_164\n      swap2\n      swap1\n      tag_165\n      jump\t// in\n    tag_164:\n      mload(0x40)\n      dup1\n      swap2\n      sub\n      swap1\n      log1\n        /* \"@openzeppelin/contracts-upgradeable/proxy/utils/Initializable.sol\":5066:5167  if (isTopLevelCall) {... */\n    tag_163:\n        /* \"@openzeppelin/contracts-upgradeable/proxy/utils/Initializable.sol\":4092:5173  {... */\n      pop\n      pop\n      pop\n      pop\n      pop\n        /* \"contracts/sweetspot.sol\":1978:2196  function initialize(address _scorer, address owner) external initializer {... */\n      pop\n      pop\n      jump\t// out\n        /* \"@openzeppelin/contracts-upgradeable/access/OwnableUpgradeable.sol\":3155:3256  function renounceOwnership() public virtual onlyOwner {... */\n    tag_51:\n        /* \"@openzeppelin/contracts-upgradeable/access/OwnableUpgradeable.sol\":2334:2347  _checkOwner() */\n      tag_167\n        /* \"@openzeppelin/contracts-upgradeable/access/OwnableUpgradeable.sol\":2334:2345  _checkOwner */\n      tag_168\n        /* \"@openzeppelin/contracts-upgradeable/access/OwnableUpgradeable.sol\":2334:2347  _checkOwner() */\n      jump\t// in\n    tag_167:\n        /* \"@openzeppelin/contracts-upgradeable/access/OwnableUpgradeable.sol\":3219:3249  _transferOwnership(address(0)) */\n      tag_170\n        /* \"@openzeppelin/contracts-upgradeable/access/OwnableUpgradeable.sol\":3246:3247  0 */\n      0x00\n        /* \"@openzeppelin/contracts-upgradeable/access/OwnableUpgradeable.sol\":3219:3237  _transferOwnership */\n      tag_171\n        /* \"@openzeppelin/contracts-upgradeable/access/OwnableUpgradeable.sol\":3219:3249  _transferOwnership(address(0)) */\n      jump\t// in\n    tag_170:\n        /* \"@openzeppelin/contracts-upgradeable/access/OwnableUpgradeable.sol\":3155:3256  function renounceOwnership() public virtual onlyOwner {... */\n      jump\t// out\n        /* \"contracts/sweetspot.sol\":622:643  IScorer public scorer */\n    tag_54:\n      0x32\n      0x00\n      swap1\n      sload\n      swap1\n      0x0100\n      exp\n      swap1\n      div\n      0xffffffffffffffffffffffffffffffffffffffff\n      and\n      dup2\n      jump\t// out\n        /* \"contracts/sweetspot.sol\":883:908  Round public currentRound */\n    tag_59:\n      0x33\n      dup1\n      0x00\n      add\n      0x00\n      swap1\n      sload\n      swap1\n      0x0100\n      exp\n      swap1\n      div\n      0xffffffffffffffff\n      and\n      swap1\n      dup1\n      0x00\n      add\n      0x08\n      swap1\n      sload\n      swap1\n      0x0100\n      exp\n      swap1\n      div\n      0xffffffffffffffff\n      and\n      swap1\n      dup1\n      0x01\n      add\n      dup1\n      sload\n      tag_172\n      swap1\n      tag_173\n      jump\t// in\n    tag_172:\n      dup1\n      0x1f\n      add\n      0x20\n      dup1\n      swap2\n      div\n      mul\n      0x20\n      add\n      mload(0x40)\n      swap1\n      dup2\n      add\n      0x40\n      mstore\n      dup1\n      swap3\n      swap2\n      swap1\n      dup2\n      dup2\n      mstore\n      0x20\n      add\n      dup3\n      dup1\n      sload\n      tag_174\n      swap1\n      tag_173\n      jump\t// in\n    tag_174:\n      dup1\n      iszero\n      tag_175\n      jumpi\n      dup1\n      0x1f\n      lt\n      tag_176\n      jumpi\n      0x0100\n      dup1\n      dup4\n      sload\n      div\n      mul\n      dup4\n      mstore\n      swap2\n      0x20\n      add\n      swap2\n      jump(tag_175)\n    tag_176:\n      dup3\n      add\n      swap2\n      swap1\n      0x00\n      mstore\n      keccak256(0x00, 0x20)\n      swap1\n    tag_177:\n      dup2\n      sload\n      dup2\n      mstore\n      swap1\n      0x01\n      add\n      swap1\n      0x20\n      add\n      dup1\n      dup4\n      gt\n      tag_177\n      jumpi\n      dup3\n      swap1\n      sub\n      0x1f\n      and\n      dup3\n      add\n      swap2\n    tag_175:\n      pop\n      pop\n      pop\n      pop\n      pop\n      swap1\n      pop\n      dup4\n      jump\t// out\n        /* \"@openzeppelin/contracts-upgradeable/access/OwnableUpgradeable.sol\":2441:2585  function owner() public view virtual returns (address) {... */\n    tag_64:\n        /* \"@openzeppelin/contracts-upgradeable/access/OwnableUpgradeable.sol\":2487:2494  address */\n      0x00\n        /* \"@openzeppelin/contracts-upgradeable/access/OwnableUpgradeable.sol\":2506:2530  OwnableStorage storage $ */\n      dup1\n        /* \"@openzeppelin/contracts-upgradeable/access/OwnableUpgradeable.sol\":2533:2553  _getOwnableStorage() */\n      tag_179\n        /* \"@openzeppelin/contracts-upgradeable/access/OwnableUpgradeable.sol\":2533:2551  _getOwnableStorage */\n      tag_180\n        /* \"@openzeppelin/contracts-upgradeable/access/OwnableUpgradeable.sol\":2533:2553  _getOwnableStorage() */\n      jump\t// in\n    tag_179:\n        /* \"@openzeppelin/contracts-upgradeable/access/OwnableUpgradeable.sol\":2506:2553  OwnableStorage storage $ = _getOwnableStorage() */\n      swap1\n      pop\n        /* \"@openzeppelin/contracts-upgradeable/access/OwnableUpgradeable.sol\":2570:2571  $ */\n      dup1\n        /* \"@openzeppelin/contracts-upgradeable/access/OwnableUpgradeable.sol\":2570:2578  $._owner */\n      0x00\n      add\n      0x00\n      swap1\n      sload\n      swap1\n      0x0100\n      exp\n      swap1\n      div\n      0xffffffffffffffffffffffffffffffffffffffff\n      and\n        /* \"@openzeppelin/contracts-upgradeable/access/OwnableUpgradeable.sol\":2563:2578  return $._owner */\n      swap2\n      pop\n      pop\n        /* \"@openzeppelin/contracts-upgradeable/access/OwnableUpgradeable.sol\":2441:2585  function owner() public view virtual returns (address) {... */\n      swap1\n      jump\t// out\n        /* \"contracts/sweetspot.sol\":4732:5010  function setRound(uint64  start, uint64  end, string memory metadataURI) external onlyAdmin {... */\n    tag_70:\n        /* \"contracts/sweetspot.sol\":1726:1732  scorer */\n      0x32\n      0x00\n      swap1\n      sload\n      swap1\n      0x0100\n      exp\n      swap1\n      div\n      0xffffffffffffffffffffffffffffffffffffffff\n      and\n        /* \"contracts/sweetspot.sol\":1726:1740  scorer.isAdmin */\n      0xffffffffffffffffffffffffffffffffffffffff\n      and\n      0x24d7806c\n        /* \"contracts/sweetspot.sol\":1741:1751  msg.sender */\n      caller\n        /* \"contracts/sweetspot.sol\":1726:1752  scorer.isAdmin(msg.sender) */\n      mload(0x40)\n      dup3\n      0xffffffff\n      and\n      0xe0\n      shl\n      dup2\n      mstore\n      0x04\n      add\n      tag_182\n      swap2\n      swap1\n      tag_39\n      jump\t// in\n    tag_182:\n      0x20\n      mload(0x40)\n      dup1\n      dup4\n      sub\n      dup2\n      dup7\n      gas\n      staticcall\n      iszero\n      dup1\n      iszero\n      tag_184\n      jumpi\n      returndatasize\n      0x00\n      dup1\n      returndatacopy\n      revert(0x00, returndatasize)\n    tag_184:\n      pop\n      pop\n      pop\n      pop\n      mload(0x40)\n      returndatasize\n      not(0x1f)\n      0x1f\n      dup3\n      add\n      and\n      dup3\n      add\n      dup1\n      0x40\n      mstore\n      pop\n      dup2\n      add\n      swap1\n      tag_185\n      swap2\n      swap1\n      tag_186\n      jump\t// in\n    tag_185:\n        /* \"contracts/sweetspot.sol\":1718:1779  require(scorer.isAdmin(msg.sender), \"Caller is not an admin\") */\n      tag_187\n      jumpi\n      mload(0x40)\n      0x08c379a000000000000000000000000000000000000000000000000000000000\n      dup2\n      mstore\n      0x04\n      add\n      tag_188\n      swap1\n      tag_189\n      jump\t// in\n    tag_188:\n      mload(0x40)\n      dup1\n      swap2\n      sub\n      swap1\n      revert\n    tag_187:\n        /* \"contracts/sweetspot.sol\":4851:4854  end */\n      dup2\n        /* \"contracts/sweetspot.sol\":4843:4854  start < end */\n      0xffffffffffffffff\n      and\n        /* \"contracts/sweetspot.sol\":4843:4848  start */\n      dup4\n        /* \"contracts/sweetspot.sol\":4843:4854  start < end */\n      0xffffffffffffffff\n      and\n      lt\n        /* \"contracts/sweetspot.sol\":4835:4893  require(start < end, \"Start time must be before end time\") */\n      tag_191\n      jumpi\n      mload(0x40)\n      0x08c379a000000000000000000000000000000000000000000000000000000000\n      dup2\n      mstore\n      0x04\n      add\n      tag_192\n      swap1\n      tag_193\n      jump\t// in\n    tag_192:\n      mload(0x40)\n      dup1\n      swap2\n      sub\n      swap1\n      revert\n    tag_191:\n        /* \"contracts/sweetspot.sol\":4919:4949  Round(start, end, metadataURI) */\n      mload(0x40)\n      dup1\n      0x60\n      add\n      0x40\n      mstore\n      dup1\n        /* \"contracts/sweetspot.sol\":4925:4930  start */\n      dup5\n        /* \"contracts/sweetspot.sol\":4919:4949  Round(start, end, metadataURI) */\n      0xffffffffffffffff\n      and\n      dup2\n      mstore\n      0x20\n      add\n        /* \"contracts/sweetspot.sol\":4932:4935  end */\n      dup4\n        /* \"contracts/sweetspot.sol\":4919:4949  Round(start, end, metadataURI) */\n      0xffffffffffffffff\n      and\n      dup2\n      mstore\n      0x20\n      add\n        /* \"contracts/sweetspot.sol\":4937:4948  metadataURI */\n      dup3\n        /* \"contracts/sweetspot.sol\":4919:4949  Round(start, end, metadataURI) */\n      dup2\n      mstore\n      pop\n        /* \"contracts/sweetspot.sol\":4904:4916  currentRound */\n      0x33\n        /* \"contracts/sweetspot.sol\":4904:4949  currentRound = Round(start, end, metadataURI) */\n      0x00\n      dup3\n      add\n      mload\n      dup2\n      0x00\n      add\n      exp(0x0100, 0x00)\n      dup2\n      sload\n      dup2\n      0xffffffffffffffff\n      mul\n      not\n      and\n      swap1\n      dup4\n      0xffffffffffffffff\n      and\n      mul\n      or\n      swap1\n      sstore\n      pop\n      0x20\n      dup3\n      add\n      mload\n      dup2\n      0x00\n      add\n      exp(0x0100, 0x08)\n      dup2\n      sload\n      dup2\n      0xffffffffffffffff\n      mul\n      not\n      and\n      swap1\n      dup4\n      0xffffffffffffffff\n      and\n      mul\n      or\n      swap1\n      sstore\n      pop\n      0x40\n      dup3\n      add\n      mload\n      dup2\n      0x01\n      add\n      swap1\n      dup2\n      tag_194\n      swap2\n      swap1\n      tag_195\n      jump\t// in\n    tag_194:\n      pop\n      swap1\n      pop\n      pop\n        /* \"contracts/sweetspot.sol\":4965:5002  RoundUpdated(start, end, metadataURI) */\n      0x09e6db48f22357e6dce2bbff89db8ff25f0012a08186d6ea72e2343fdc112e13\n        /* \"contracts/sweetspot.sol\":4978:4983  start */\n      dup4\n        /* \"contracts/sweetspot.sol\":4985:4988  end */\n      dup4\n        /* \"contracts/sweetspot.sol\":4990:5001  metadataURI */\n      dup4\n        /* \"contracts/sweetspot.sol\":4965:5002  RoundUpdated(start, end, metadataURI) */\n      mload(0x40)\n      tag_196\n      swap4\n      swap3\n      swap2\n      swap1\n      tag_197\n      jump\t// in\n    tag_196:\n      mload(0x40)\n      dup1\n      swap2\n      sub\n      swap1\n      log1\n        /* \"contracts/sweetspot.sol\":4732:5010  function setRound(uint64  start, uint64  end, string memory metadataURI) external onlyAdmin {... */\n      pop\n      pop\n      pop\n      jump\t// out\n        /* \"contracts/sweetspot.sol\":1097:1166  mapping(address => mapping(address => uint256)) public allowedAmounts */\n    tag_74:\n      mstore(0x20, 0x36)\n      dup2\n      0x00\n      mstore\n      mstore(0x20, keccak256(0x00, 0x40))\n      dup1\n      0x00\n      mstore\n      keccak256(0x00, 0x40)\n      0x00\n      swap2\n      pop\n      swap2\n      pop\n      pop\n      sload\n      dup2\n      jump\t// out\n        /* \"contracts/sweetspot.sol\":999:1047  mapping(address => uint256) public totalBalances */\n    tag_79:\n      mstore(0x20, 0x35)\n      dup1\n      0x00\n      mstore\n      keccak256(0x00, 0x40)\n      0x00\n      swap2\n      pop\n      swap1\n      pop\n      sload\n      dup2\n      jump\t// out\n        /* \"contracts/sweetspot.sol\":4222:4483  function setAllowedAmount(address user, address token, uint256 amount) external onlyAdmin {... */\n    tag_85:\n        /* \"contracts/sweetspot.sol\":1726:1732  scorer */\n      0x32\n      0x00\n      swap1\n      sload\n      swap1\n      0x0100\n      exp\n      swap1\n      div\n      0xffffffffffffffffffffffffffffffffffffffff\n      and\n        /* \"contracts/sweetspot.sol\":1726:1740  scorer.isAdmin */\n      0xffffffffffffffffffffffffffffffffffffffff\n      and\n      0x24d7806c\n        /* \"contracts/sweetspot.sol\":1741:1751  msg.sender */\n      caller\n        /* \"contracts/sweetspot.sol\":1726:1752  scorer.isAdmin(msg.sender) */\n      mload(0x40)\n      dup3\n      0xffffffff\n      and\n      0xe0\n      shl\n      dup2\n      mstore\n      0x04\n      add\n      tag_199\n      swap2\n      swap1\n      tag_39\n      jump\t// in\n    tag_199:\n      0x20\n      mload(0x40)\n      dup1\n      dup4\n      sub\n      dup2\n      dup7\n      gas\n      staticcall\n      iszero\n      dup1\n      iszero\n      tag_201\n      jumpi\n      returndatasize\n      0x00\n      dup1\n      returndatacopy\n      revert(0x00, returndatasize)\n    tag_201:\n      pop\n      pop\n      pop\n      pop\n      mload(0x40)\n      returndatasize\n      not(0x1f)\n      0x1f\n      dup3\n      add\n      and\n      dup3\n      add\n      dup1\n      0x40\n      mstore\n      pop\n      dup2\n      add\n      swap1\n      tag_202\n      swap2\n      swap1\n      tag_186\n      jump\t// in\n    tag_202:\n        /* \"contracts/sweetspot.sol\":1718:1779  require(scorer.isAdmin(msg.sender), \"Caller is not an admin\") */\n      tag_203\n      jumpi\n      mload(0x40)\n      0x08c379a000000000000000000000000000000000000000000000000000000000\n      dup2\n      mstore\n      0x04\n      add\n      tag_204\n      swap1\n      tag_189\n      jump\t// in\n    tag_204:\n      mload(0x40)\n      dup1\n      swap2\n      sub\n      swap1\n      revert\n    tag_203:\n        /* \"contracts/sweetspot.sol\":4347:4348  0 */\n      0x00\n        /* \"contracts/sweetspot.sol\":4331:4349  user != address(0) */\n      0xffffffffffffffffffffffffffffffffffffffff\n      and\n        /* \"contracts/sweetspot.sol\":4331:4335  user */\n      dup4\n        /* \"contracts/sweetspot.sol\":4331:4349  user != address(0) */\n      0xffffffffffffffffffffffffffffffffffffffff\n      and\n      sub\n        /* \"contracts/sweetspot.sol\":4323:4371  require(user != address(0), \"Zero address user\") */\n      tag_206\n      jumpi\n      mload(0x40)\n      0x08c379a000000000000000000000000000000000000000000000000000000000\n      dup2\n      mstore\n      0x04\n      add\n      tag_207\n      swap1\n      tag_208\n      jump\t// in\n    tag_207:\n      mload(0x40)\n      dup1\n      swap2\n      sub\n      swap1\n      revert\n    tag_206:\n        /* \"contracts/sweetspot.sol\":4412:4418  amount */\n      dup1\n        /* \"contracts/sweetspot.sol\":4382:4396  allowedAmounts */\n      0x36\n        /* \"contracts/sweetspot.sol\":4382:4402  allowedAmounts[user] */\n      0x00\n        /* \"contracts/sweetspot.sol\":4397:4401  user */\n      dup6\n        /* \"contracts/sweetspot.sol\":4382:4402  allowedAmounts[user] */\n      0xffffffffffffffffffffffffffffffffffffffff\n      and\n      0xffffffffffffffffffffffffffffffffffffffff\n      and\n      dup2\n      mstore\n      0x20\n      add\n      swap1\n      dup2\n      mstore\n      0x20\n      add\n      0x00\n      keccak256\n        /* \"contracts/sweetspot.sol\":4382:4409  allowedAmounts[user][token] */\n      0x00\n        /* \"contracts/sweetspot.sol\":4403:4408  token */\n      dup5\n        /* \"contracts/sweetspot.sol\":4382:4409  allowedAmounts[user][token] */\n      0xffffffffffffffffffffffffffffffffffffffff\n      and\n      0xffffffffffffffffffffffffffffffffffffffff\n      and\n      dup2\n      mstore\n      0x20\n      add\n      swap1\n      dup2\n      mstore\n      0x20\n      add\n      0x00\n      keccak256\n        /* \"contracts/sweetspot.sol\":4382:4418  allowedAmounts[user][token] = amount */\n      dup2\n      swap1\n      sstore\n      pop\n        /* \"contracts/sweetspot.sol\":4461:4466  token */\n      dup2\n        /* \"contracts/sweetspot.sol\":4434:4475  AllowedAmountUpdated(user, token, amount) */\n      0xffffffffffffffffffffffffffffffffffffffff\n      and\n        /* \"contracts/sweetspot.sol\":4455:4459  user */\n      dup4\n        /* \"contracts/sweetspot.sol\":4434:4475  AllowedAmountUpdated(user, token, amount) */\n      0xffffffffffffffffffffffffffffffffffffffff\n      and\n      0x3d0601f3b0e52fd772f1fa71d91651b34b6a11144bea30d74e0f820019a04dc2\n        /* \"contracts/sweetspot.sol\":4468:4474  amount */\n      dup4\n        /* \"contracts/sweetspot.sol\":4434:4475  AllowedAmountUpdated(user, token, amount) */\n      mload(0x40)\n      tag_209\n      swap2\n      swap1\n      tag_25\n      jump\t// in\n    tag_209:\n      mload(0x40)\n      dup1\n      swap2\n      sub\n      swap1\n      log3\n        /* \"contracts/sweetspot.sol\":4222:4483  function setAllowedAmount(address user, address token, uint256 amount) external onlyAdmin {... */\n      pop\n      pop\n      pop\n      jump\t// out\n        /* \"@openzeppelin/contracts-upgradeable/access/OwnableUpgradeable.sol\":3405:3620  function transferOwnership(address newOwner) public virtual onlyOwner {... */\n    tag_89:\n        /* \"@openzeppelin/contracts-upgradeable/access/OwnableUpgradeable.sol\":2334:2347  _checkOwner() */\n      tag_211\n        /* \"@openzeppelin/contracts-upgradeable/access/OwnableUpgradeable.sol\":2334:2345  _checkOwner */\n      tag_168\n        /* \"@openzeppelin/contracts-upgradeable/access/OwnableUpgradeable.sol\":2334:2347  _checkOwner() */\n      jump\t// in\n    tag_211:\n        /* \"@openzeppelin/contracts-upgradeable/access/OwnableUpgradeable.sol\":3509:3510  0 */\n      0x00\n        /* \"@openzeppelin/contracts-upgradeable/access/OwnableUpgradeable.sol\":3489:3511  newOwner == address(0) */\n      0xffffffffffffffffffffffffffffffffffffffff\n      and\n        /* \"@openzeppelin/contracts-upgradeable/access/OwnableUpgradeable.sol\":3489:3497  newOwner */\n      dup2\n        /* \"@openzeppelin/contracts-upgradeable/access/OwnableUpgradeable.sol\":3489:3511  newOwner == address(0) */\n      0xffffffffffffffffffffffffffffffffffffffff\n      and\n      sub\n        /* \"@openzeppelin/contracts-upgradeable/access/OwnableUpgradeable.sol\":3485:3576  if (newOwner == address(0)) {... */\n      tag_213\n      jumpi\n        /* \"@openzeppelin/contracts-upgradeable/access/OwnableUpgradeable.sol\":3562:3563  0 */\n      0x00\n        /* \"@openzeppelin/contracts-upgradeable/access/OwnableUpgradeable.sol\":3534:3565  OwnableInvalidOwner(address(0)) */\n      mload(0x40)\n      0x1e4fbdf700000000000000000000000000000000000000000000000000000000\n      dup2\n      mstore\n      0x04\n      add\n      tag_214\n      swap2\n      swap1\n      tag_39\n      jump\t// in\n    tag_214:\n      mload(0x40)\n      dup1\n      swap2\n      sub\n      swap1\n      revert\n        /* \"@openzeppelin/contracts-upgradeable/access/OwnableUpgradeable.sol\":3485:3576  if (newOwner == address(0)) {... */\n    tag_213:\n        /* \"@openzeppelin/contracts-upgradeable/access/OwnableUpgradeable.sol\":3585:3613  _transferOwnership(newOwner) */\n      tag_215\n        /* \"@openzeppelin/contracts-upgradeable/access/OwnableUpgradeable.sol\":3604:3612  newOwner */\n      dup2\n        /* \"@openzeppelin/contracts-upgradeable/access/OwnableUpgradeable.sol\":3585:3603  _transferOwnership */\n      tag_171\n        /* \"@openzeppelin/contracts-upgradeable/access/OwnableUpgradeable.sol\":3585:3613  _transferOwnership(newOwner) */\n      jump\t// in\n    tag_215:\n        /* \"@openzeppelin/contracts-upgradeable/access/OwnableUpgradeable.sol\":3405:3620  function transferOwnership(address newOwner) public virtual onlyOwner {... */\n      pop\n      jump\t// out\n        /* \"contracts/sweetspot.sol\":5215:5793  function withdraw(address token, uint256 amount) external onlyOwner nonReentrant  {... */\n    tag_93:\n        /* \"@openzeppelin/contracts-upgradeable/access/OwnableUpgradeable.sol\":2334:2347  _checkOwner() */\n      tag_217\n        /* \"@openzeppelin/contracts-upgradeable/access/OwnableUpgradeable.sol\":2334:2345  _checkOwner */\n      tag_168\n        /* \"@openzeppelin/contracts-upgradeable/access/OwnableUpgradeable.sol\":2334:2347  _checkOwner() */\n      jump\t// in\n    tag_217:\n        /* \"@openzeppelin/contracts-upgradeable/security/ReentrancyGuardUpgradeable.sol\":2526:2547  _nonReentrantBefore() */\n      tag_219\n        /* \"@openzeppelin/contracts-upgradeable/security/ReentrancyGuardUpgradeable.sol\":2526:2545  _nonReentrantBefore */\n      tag_96\n        /* \"@openzeppelin/contracts-upgradeable/security/ReentrancyGuardUpgradeable.sol\":2526:2547  _nonReentrantBefore() */\n      jump\t// in\n    tag_219:\n        /* \"contracts/sweetspot.sol\":5325:5326  0 */\n      0x00\n        /* \"contracts/sweetspot.sol\":5316:5322  amount */\n      dup2\n        /* \"contracts/sweetspot.sol\":5316:5326  amount > 0 */\n      gt\n        /* \"contracts/sweetspot.sol\":5308:5374  require(amount > 0, \"Withdrawal amount must be greater than zero\") */\n      tag_221\n      jumpi\n      mload(0x40)\n      0x08c379a000000000000000000000000000000000000000000000000000000000\n      dup2\n      mstore\n      0x04\n      add\n      tag_222\n      swap1\n      tag_223\n      jump\t// in\n    tag_222:\n      mload(0x40)\n      dup1\n      swap2\n      sub\n      swap1\n      revert\n    tag_221:\n        /* \"contracts/sweetspot.sol\":5417:5423  amount */\n      dup1\n        /* \"contracts/sweetspot.sol\":5393:5406  totalBalances */\n      0x35\n        /* \"contracts/sweetspot.sol\":5393:5413  totalBalances[token] */\n      0x00\n        /* \"contracts/sweetspot.sol\":5407:5412  token */\n      dup5\n        /* \"contracts/sweetspot.sol\":5393:5413  totalBalances[token] */\n      0xffffffffffffffffffffffffffffffffffffffff\n      and\n      0xffffffffffffffffffffffffffffffffffffffff\n      and\n      dup2\n      mstore\n      0x20\n      add\n      swap1\n      dup2\n      mstore\n      0x20\n      add\n      0x00\n      keccak256\n      sload\n        /* \"contracts/sweetspot.sol\":5393:5423  totalBalances[token] >= amount */\n      lt\n      iszero\n        /* \"contracts/sweetspot.sol\":5385:5446  require(totalBalances[token] >= amount, \"Insufficient funds\") */\n      tag_224\n      jumpi\n      mload(0x40)\n      0x08c379a000000000000000000000000000000000000000000000000000000000\n      dup2\n      mstore\n      0x04\n      add\n      tag_225\n      swap1\n      tag_226\n      jump\t// in\n    tag_225:\n      mload(0x40)\n      dup1\n      swap2\n      sub\n      swap1\n      revert\n    tag_224:\n        /* \"contracts/sweetspot.sol\":5483:5489  amount */\n      dup1\n        /* \"contracts/sweetspot.sol\":5459:5472  totalBalances */\n      0x35\n        /* \"contracts/sweetspot.sol\":5459:5479  totalBalances[token] */\n      0x00\n        /* \"contracts/sweetspot.sol\":5473:5478  token */\n      dup5\n        /* \"contracts/sweetspot.sol\":5459:5479  totalBalances[token] */\n      0xffffffffffffffffffffffffffffffffffffffff\n      and\n      0xffffffffffffffffffffffffffffffffffffffff\n      and\n      dup2\n      mstore\n      0x20\n      add\n      swap1\n      dup2\n      mstore\n      0x20\n      add\n      0x00\n      keccak256\n      0x00\n        /* \"contracts/sweetspot.sol\":5459:5489  totalBalances[token] -= amount */\n      dup3\n      dup3\n      sload\n      tag_227\n      swap2\n      swap1\n      tag_118\n      jump\t// in\n    tag_227:\n      swap3\n      pop\n      pop\n      dup2\n      swap1\n      sstore\n      pop\n        /* \"contracts/sweetspot.sol\":613:614  0 */\n      0x00\n        /* \"contracts/sweetspot.sol\":5506:5527  token == NATIVE_TOKEN */\n      0xffffffffffffffffffffffffffffffffffffffff\n      and\n        /* \"contracts/sweetspot.sol\":5506:5511  token */\n      dup3\n        /* \"contracts/sweetspot.sol\":5506:5527  token == NATIVE_TOKEN */\n      0xffffffffffffffffffffffffffffffffffffffff\n      and\n      sub\n        /* \"contracts/sweetspot.sol\":5502:5738  if (token == NATIVE_TOKEN) {... */\n      tag_228\n      jumpi\n        /* \"contracts/sweetspot.sol\":5545:5557  bool success */\n      0x00\n        /* \"contracts/sweetspot.sol\":5563:5570  owner() */\n      tag_229\n        /* \"contracts/sweetspot.sol\":5563:5568  owner */\n      tag_64\n        /* \"contracts/sweetspot.sol\":5563:5570  owner() */\n      jump\t// in\n    tag_229:\n        /* \"contracts/sweetspot.sol\":5563:5575  owner().call */\n      0xffffffffffffffffffffffffffffffffffffffff\n      and\n        /* \"contracts/sweetspot.sol\":5583:5589  amount */\n      dup3\n        /* \"contracts/sweetspot.sol\":5563:5594  owner().call{value: amount}(\"\") */\n      mload(0x40)\n      tag_230\n      swap1\n      tag_121\n      jump\t// in\n    tag_230:\n      0x00\n      mload(0x40)\n      dup1\n      dup4\n      sub\n      dup2\n      dup6\n      dup8\n      gas\n      call\n      swap3\n      pop\n      pop\n      pop\n      returndatasize\n      dup1\n      0x00\n      dup2\n      eq\n      tag_233\n      jumpi\n      mload(0x40)\n      swap2\n      pop\n      and(add(returndatasize, 0x3f), not(0x1f))\n      dup3\n      add\n      0x40\n      mstore\n      returndatasize\n      dup3\n      mstore\n      returndatasize\n      0x00\n      0x20\n      dup5\n      add\n      returndatacopy\n      jump(tag_232)\n    tag_233:\n      0x60\n      swap2\n      pop\n    tag_232:\n      pop\n        /* \"contracts/sweetspot.sol\":5544:5594  (bool success, ) = owner().call{value: amount}(\"\") */\n      pop\n      swap1\n      pop\n        /* \"contracts/sweetspot.sol\":5617:5624  success */\n      dup1\n        /* \"contracts/sweetspot.sol\":5609:5650  require(success, \"Ether transfer failed\") */\n      tag_234\n      jumpi\n      mload(0x40)\n      0x08c379a000000000000000000000000000000000000000000000000000000000\n      dup2\n      mstore\n      0x04\n      add\n      tag_235\n      swap1\n      tag_127\n      jump\t// in\n    tag_235:\n      mload(0x40)\n      dup1\n      swap2\n      sub\n      swap1\n      revert\n    tag_234:\n        /* \"contracts/sweetspot.sol\":5529:5662  {... */\n      pop\n        /* \"contracts/sweetspot.sol\":5502:5738  if (token == NATIVE_TOKEN) {... */\n      jump(tag_236)\n    tag_228:\n        /* \"contracts/sweetspot.sol\":5683:5726  IERC20(token).safeTransfer(owner(), amount) */\n      tag_237\n        /* \"contracts/sweetspot.sol\":5710:5717  owner() */\n      tag_238\n        /* \"contracts/sweetspot.sol\":5710:5715  owner */\n      tag_64\n        /* \"contracts/sweetspot.sol\":5710:5717  owner() */\n      jump\t// in\n    tag_238:\n        /* \"contracts/sweetspot.sol\":5719:5725  amount */\n      dup3\n        /* \"contracts/sweetspot.sol\":5690:5695  token */\n      dup5\n        /* \"contracts/sweetspot.sol\":5683:5709  IERC20(token).safeTransfer */\n      0xffffffffffffffffffffffffffffffffffffffff\n      and\n      tag_130\n      swap1\n        /* \"contracts/sweetspot.sol\":5683:5726  IERC20(token).safeTransfer(owner(), amount) */\n      swap3\n      swap2\n      swap1\n      0xffffffff\n      and\n      jump\t// in\n    tag_237:\n        /* \"contracts/sweetspot.sol\":5502:5738  if (token == NATIVE_TOKEN) {... */\n    tag_236:\n        /* \"contracts/sweetspot.sol\":5771:5776  token */\n      dup2\n        /* \"contracts/sweetspot.sol\":5753:5785  Withdraw(owner(), token, amount) */\n      0xffffffffffffffffffffffffffffffffffffffff\n      and\n        /* \"contracts/sweetspot.sol\":5762:5769  owner() */\n      tag_239\n        /* \"contracts/sweetspot.sol\":5762:5767  owner */\n      tag_64\n        /* \"contracts/sweetspot.sol\":5762:5769  owner() */\n      jump\t// in\n    tag_239:\n        /* \"contracts/sweetspot.sol\":5753:5785  Withdraw(owner(), token, amount) */\n      0xffffffffffffffffffffffffffffffffffffffff\n      and\n      0x9b1bfa7fa9ee420a16e124f794c35ac9f90472acc99140eb2f6447c714cad8eb\n        /* \"contracts/sweetspot.sol\":5778:5784  amount */\n      dup4\n        /* \"contracts/sweetspot.sol\":5753:5785  Withdraw(owner(), token, amount) */\n      mload(0x40)\n      tag_240\n      swap2\n      swap1\n      tag_25\n      jump\t// in\n    tag_240:\n      mload(0x40)\n      dup1\n      swap2\n      sub\n      swap1\n      log3\n        /* \"@openzeppelin/contracts-upgradeable/security/ReentrancyGuardUpgradeable.sol\":2568:2588  _nonReentrantAfter() */\n      tag_241\n        /* \"@openzeppelin/contracts-upgradeable/security/ReentrancyGuardUpgradeable.sol\":2568:2586  _nonReentrantAfter */\n      tag_133\n        /* \"@openzeppelin/contracts-upgradeable/security/ReentrancyGuardUpgradeable.sol\":2568:2588  _nonReentrantAfter() */\n      jump\t// in\n    tag_241:\n        /* \"contracts/sweetspot.sol\":5215:5793  function withdraw(address token, uint256 amount) external onlyOwner nonReentrant  {... */\n      pop\n      pop\n      jump\t// out\n        /* \"@openzeppelin/contracts-upgradeable/security/ReentrancyGuardUpgradeable.sol\":2601:2888  function _nonReentrantBefore() private {... */\n    tag_96:\n        /* \"@openzeppelin/contracts-upgradeable/security/ReentrancyGuardUpgradeable.sol\":1851:1852  2 */\n      0x02\n        /* \"@openzeppelin/contracts-upgradeable/security/ReentrancyGuardUpgradeable.sol\":2733:2740  _status */\n      sload(0x00)\n        /* \"@openzeppelin/contracts-upgradeable/security/ReentrancyGuardUpgradeable.sol\":2733:2752  _status != _ENTERED */\n      sub\n        /* \"@openzeppelin/contracts-upgradeable/security/ReentrancyGuardUpgradeable.sol\":2725:2788  require(_status != _ENTERED, \"ReentrancyGuard: reentrant call\") */\n      tag_243\n      jumpi\n      mload(0x40)\n      0x08c379a000000000000000000000000000000000000000000000000000000000\n      dup2\n      mstore\n      0x04\n      add\n      tag_244\n      swap1\n      tag_245\n      jump\t// in\n    tag_244:\n      mload(0x40)\n      dup1\n      swap2\n      sub\n      swap1\n      revert\n    tag_243:\n        /* \"@openzeppelin/contracts-upgradeable/security/ReentrancyGuardUpgradeable.sol\":1851:1852  2 */\n      0x02\n        /* \"@openzeppelin/contracts-upgradeable/security/ReentrancyGuardUpgradeable.sol\":2863:2870  _status */\n      0x00\n        /* \"@openzeppelin/contracts-upgradeable/security/ReentrancyGuardUpgradeable.sol\":2863:2881  _status = _ENTERED */\n      dup2\n      swap1\n      sstore\n      pop\n        /* \"@openzeppelin/contracts-upgradeable/security/ReentrancyGuardUpgradeable.sol\":2601:2888  function _nonReentrantBefore() private {... */\n      jump\t// out\n        /* \"@openzeppelin/contracts/token/ERC20/utils/SafeERC20.sol\":1271:1431  function safeTransfer(IERC20 token, address to, uint256 value) internal {... */\n    tag_130:\n        /* \"@openzeppelin/contracts/token/ERC20/utils/SafeERC20.sol\":1353:1424  _callOptionalReturn(token, abi.encodeCall(token.transfer, (to, value))) */\n      tag_247\n        /* \"@openzeppelin/contracts/token/ERC20/utils/SafeERC20.sol\":1373:1378  token */\n      dup4\n        /* \"@openzeppelin/contracts/token/ERC20/utils/SafeERC20.sol\":1395:1400  token */\n      dup5\n        /* \"@openzeppelin/contracts/token/ERC20/utils/SafeERC20.sol\":1395:1409  token.transfer */\n      0xffffffffffffffffffffffffffffffffffffffff\n      and\n      0xa9059cbb\n        /* \"@openzeppelin/contracts/token/ERC20/utils/SafeERC20.sol\":1412:1414  to */\n      dup6\n        /* \"@openzeppelin/contracts/token/ERC20/utils/SafeERC20.sol\":1416:1421  value */\n      dup6\n        /* \"@openzeppelin/contracts/token/ERC20/utils/SafeERC20.sol\":1380:1423  abi.encodeCall(token.transfer, (to, value)) */\n      add(0x24, mload(0x40))\n      tag_248\n      swap3\n      swap2\n      swap1\n      tag_249\n      jump\t// in\n    tag_248:\n      mload(0x40)\n      0x20\n      dup2\n      dup4\n      sub\n      sub\n      dup2\n      mstore\n      swap1\n      0x40\n      mstore\n      swap2\n      pop\n      0xe0\n      shl\n      0x20\n      dup3\n      add\n      dup1\n      mload\n      0xffffffffffffffffffffffffffffffffffffffffffffffffffffffff\n      dup4\n      dup2\n      dup4\n      and\n      or\n      dup4\n      mstore\n      pop\n      pop\n      pop\n      pop\n        /* \"@openzeppelin/contracts/token/ERC20/utils/SafeERC20.sol\":1353:1372  _callOptionalReturn */\n      tag_250\n        /* \"@openzeppelin/contracts/token/ERC20/utils/SafeERC20.sol\":1353:1424  _callOptionalReturn(token, abi.encodeCall(token.transfer, (to, value))) */\n      jump\t// in\n    tag_247:\n        /* \"@openzeppelin/contracts/token/ERC20/utils/SafeERC20.sol\":1271:1431  function safeTransfer(IERC20 token, address to, uint256 value) internal {... */\n      pop\n      pop\n      pop\n      jump\t// out\n        /* \"@openzeppelin/contracts-upgradeable/security/ReentrancyGuardUpgradeable.sol\":2894:3103  function _nonReentrantAfter() private {... */\n    tag_133:\n        /* \"@openzeppelin/contracts-upgradeable/security/ReentrancyGuardUpgradeable.sol\":1808:1809  1 */\n      0x01\n        /* \"@openzeppelin/contracts-upgradeable/security/ReentrancyGuardUpgradeable.sol\":3074:3081  _status */\n      0x00\n        /* \"@openzeppelin/contracts-upgradeable/security/ReentrancyGuardUpgradeable.sol\":3074:3096  _status = _NOT_ENTERED */\n      dup2\n      swap1\n      sstore\n      pop\n        /* \"@openzeppelin/contracts-upgradeable/security/ReentrancyGuardUpgradeable.sol\":2894:3103  function _nonReentrantAfter() private {... */\n      jump\t// out\n        /* \"@openzeppelin/contracts/token/ERC20/utils/SafeERC20.sol\":1670:1858  function safeTransferFrom(IERC20 token, address from, address to, uint256 value) internal {... */\n    tag_146:\n        /* \"@openzeppelin/contracts/token/ERC20/utils/SafeERC20.sol\":1770:1851  _callOptionalReturn(token, abi.encodeCall(token.transferFrom, (from, to, value))) */\n      tag_253\n        /* \"@openzeppelin/contracts/token/ERC20/utils/SafeERC20.sol\":1790:1795  token */\n      dup5\n        /* \"@openzeppelin/contracts/token/ERC20/utils/SafeERC20.sol\":1812:1817  token */\n      dup6\n        /* \"@openzeppelin/contracts/token/ERC20/utils/SafeERC20.sol\":1812:1830  token.transferFrom */\n      0xffffffffffffffffffffffffffffffffffffffff\n      and\n      0x23b872dd\n        /* \"@openzeppelin/contracts/token/ERC20/utils/SafeERC20.sol\":1833:1837  from */\n      dup7\n        /* \"@openzeppelin/contracts/token/ERC20/utils/SafeERC20.sol\":1839:1841  to */\n      dup7\n        /* \"@openzeppelin/contracts/token/ERC20/utils/SafeERC20.sol\":1843:1848  value */\n      dup7\n        /* \"@openzeppelin/contracts/token/ERC20/utils/SafeERC20.sol\":1797:1850  abi.encodeCall(token.transferFrom, (from, to, value)) */\n      add(0x24, mload(0x40))\n      tag_254\n      swap4\n      swap3\n      swap2\n      swap1\n      tag_255\n      jump\t// in\n    tag_254:\n      mload(0x40)\n      0x20\n      dup2\n      dup4\n      sub\n      sub\n      dup2\n      mstore\n      swap1\n      0x40\n      mstore\n      swap2\n      pop\n      0xe0\n      shl\n      0x20\n      dup3\n      add\n      dup1\n      mload\n      0xffffffffffffffffffffffffffffffffffffffffffffffffffffffff\n      dup4\n      dup2\n      dup4\n      and\n      or\n      dup4\n      mstore\n      pop\n      pop\n      pop\n      pop\n        /* \"@openzeppelin/contracts/token/ERC20/utils/SafeERC20.sol\":1770:1789  _callOptionalReturn */\n      tag_250\n        /* \"@openzeppelin/contracts/token/ERC20/utils/SafeERC20.sol\":1770:1851  _callOptionalReturn(token, abi.encodeCall(token.transferFrom, (from, to, value))) */\n      jump\t// in\n    tag_253:\n        /* \"@openzeppelin/contracts/token/ERC20/utils/SafeERC20.sol\":1670:1858  function safeTransferFrom(IERC20 token, address from, address to, uint256 value) internal {... */\n      pop\n      pop\n      pop\n      pop\n      jump\t// out\n        /* \"@openzeppelin/contracts-upgradeable/proxy/utils/Initializable.sol\":8737:8907  function _getInitializableStorage() private pure returns (InitializableStorage storage $) {... */\n    tag_152:\n        /* \"@openzeppelin/contracts-upgradeable/proxy/utils/Initializable.sol\":8795:8825  InitializableStorage storage $ */\n      0x00\n        /* \"@openzeppelin/contracts-upgradeable/proxy/utils/Initializable.sol\":8870:8891  INITIALIZABLE_STORAGE */\n      0xf0c57e16840df040f15088dc2f81fe391c3923bec73e23a9662efc9c229c6a00\n        /* \"@openzeppelin/contracts-upgradeable/proxy/utils/Initializable.sol\":8860:8891  $.slot := INITIALIZABLE_STORAGE */\n      swap1\n      pop\n        /* \"@openzeppelin/contracts-upgradeable/proxy/utils/Initializable.sol\":8737:8907  function _getInitializableStorage() private pure returns (InitializableStorage storage $) {... */\n      swap1\n      jump\t// out\n        /* \"@openzeppelin/contracts-upgradeable/access/OwnableUpgradeable.sol\":1847:1974  function __Ownable_init(address initialOwner) internal onlyInitializing {... */\n    tag_160:\n        /* \"@openzeppelin/contracts-upgradeable/proxy/utils/Initializable.sol\":6931:6951  _checkInitializing() */\n      tag_258\n        /* \"@openzeppelin/contracts-upgradeable/proxy/utils/Initializable.sol\":6931:6949  _checkInitializing */\n      tag_259\n        /* \"@openzeppelin/contracts-upgradeable/proxy/utils/Initializable.sol\":6931:6951  _checkInitializing() */\n      jump\t// in\n    tag_258:\n        /* \"@openzeppelin/contracts-upgradeable/access/OwnableUpgradeable.sol\":1929:1967  __Ownable_init_unchained(initialOwner) */\n      tag_261\n        /* \"@openzeppelin/contracts-upgradeable/access/OwnableUpgradeable.sol\":1954:1966  initialOwner */\n      dup2\n        /* \"@openzeppelin/contracts-upgradeable/access/OwnableUpgradeable.sol\":1929:1953  __Ownable_init_unchained */\n      tag_262\n        /* \"@openzeppelin/contracts-upgradeable/access/OwnableUpgradeable.sol\":1929:1967  __Ownable_init_unchained(initialOwner) */\n      jump\t// in\n    tag_261:\n        /* \"@openzeppelin/contracts-upgradeable/access/OwnableUpgradeable.sol\":1847:1974  function __Ownable_init(address initialOwner) internal onlyInitializing {... */\n      pop\n      jump\t// out\n        /* \"@openzeppelin/contracts-upgradeable/security/ReentrancyGuardUpgradeable.sol\":1889:2000  function __ReentrancyGuard_init() internal onlyInitializing {... */\n    tag_162:\n        /* \"@openzeppelin/contracts-upgradeable/proxy/utils/Initializable.sol\":6931:6951  _checkInitializing() */\n      tag_264\n        /* \"@openzeppelin/contracts-upgradeable/proxy/utils/Initializable.sol\":6931:6949  _checkInitializing */\n      tag_259\n        /* \"@openzeppelin/contracts-upgradeable/proxy/utils/Initializable.sol\":6931:6951  _checkInitializing() */\n      jump\t// in\n    tag_264:\n        /* \"@openzeppelin/contracts-upgradeable/security/ReentrancyGuardUpgradeable.sol\":1959:1993  __ReentrancyGuard_init_unchained() */\n      tag_266\n        /* \"@openzeppelin/contracts-upgradeable/security/ReentrancyGuardUpgradeable.sol\":1959:1991  __ReentrancyGuard_init_unchained */\n      tag_267\n        /* \"@openzeppelin/contracts-upgradeable/security/ReentrancyGuardUpgradeable.sol\":1959:1993  __ReentrancyGuard_init_unchained() */\n      jump\t// in\n    tag_266:\n        /* \"@openzeppelin/contracts-upgradeable/security/ReentrancyGuardUpgradeable.sol\":1889:2000  function __ReentrancyGuard_init() internal onlyInitializing {... */\n      jump\t// out\n        /* \"@openzeppelin/contracts-upgradeable/access/OwnableUpgradeable.sol\":2658:2820  function _checkOwner() internal view virtual {... */\n    tag_168:\n        /* \"@openzeppelin/contracts-upgradeable/access/OwnableUpgradeable.sol\":2728:2740  _msgSender() */\n      tag_269\n        /* \"@openzeppelin/contracts-upgradeable/access/OwnableUpgradeable.sol\":2728:2738  _msgSender */\n      tag_270\n        /* \"@openzeppelin/contracts-upgradeable/access/OwnableUpgradeable.sol\":2728:2740  _msgSender() */\n      jump\t// in\n    tag_269:\n        /* \"@openzeppelin/contracts-upgradeable/access/OwnableUpgradeable.sol\":2717:2740  owner() != _msgSender() */\n      0xffffffffffffffffffffffffffffffffffffffff\n      and\n        /* \"@openzeppelin/contracts-upgradeable/access/OwnableUpgradeable.sol\":2717:2724  owner() */\n      tag_271\n        /* \"@openzeppelin/contracts-upgradeable/access/OwnableUpgradeable.sol\":2717:2722  owner */\n      tag_64\n        /* \"@openzeppelin/contracts-upgradeable/access/OwnableUpgradeable.sol\":2717:2724  owner() */\n      jump\t// in\n    tag_271:\n        /* \"@openzeppelin/contracts-upgradeable/access/OwnableUpgradeable.sol\":2717:2740  owner() != _msgSender() */\n      0xffffffffffffffffffffffffffffffffffffffff\n      and\n      eq\n        /* \"@openzeppelin/contracts-upgradeable/access/OwnableUpgradeable.sol\":2713:2814  if (owner() != _msgSender()) {... */\n      tag_272\n      jumpi\n        /* \"@openzeppelin/contracts-upgradeable/access/OwnableUpgradeable.sol\":2790:2802  _msgSender() */\n      tag_273\n        /* \"@openzeppelin/contracts-upgradeable/access/OwnableUpgradeable.sol\":2790:2800  _msgSender */\n      tag_270\n        /* \"@openzeppelin/contracts-upgradeable/access/OwnableUpgradeable.sol\":2790:2802  _msgSender() */\n      jump\t// in\n    tag_273:\n        /* \"@openzeppelin/contracts-upgradeable/access/OwnableUpgradeable.sol\":2763:2803  OwnableUnauthorizedAccount(_msgSender()) */\n      mload(0x40)\n      0x118cdaa700000000000000000000000000000000000000000000000000000000\n      dup2\n      mstore\n      0x04\n      add\n      tag_274\n      swap2\n      swap1\n      tag_39\n      jump\t// in\n    tag_274:\n      mload(0x40)\n      dup1\n      swap2\n      sub\n      swap1\n      revert\n        /* \"@openzeppelin/contracts-upgradeable/access/OwnableUpgradeable.sol\":2713:2814  if (owner() != _msgSender()) {... */\n    tag_272:\n        /* \"@openzeppelin/contracts-upgradeable/access/OwnableUpgradeable.sol\":2658:2820  function _checkOwner() internal view virtual {... */\n      jump\t// out\n        /* \"@openzeppelin/contracts-upgradeable/access/OwnableUpgradeable.sol\":3774:4022  function _transferOwnership(address newOwner) internal virtual {... */\n    tag_171:\n        /* \"@openzeppelin/contracts-upgradeable/access/OwnableUpgradeable.sol\":3847:3871  OwnableStorage storage $ */\n      0x00\n        /* \"@openzeppelin/contracts-upgradeable/access/OwnableUpgradeable.sol\":3874:3894  _getOwnableStorage() */\n      tag_276\n        /* \"@openzeppelin/contracts-upgradeable/access/OwnableUpgradeable.sol\":3874:3892  _getOwnableStorage */\n      tag_180\n        /* \"@openzeppelin/contracts-upgradeable/access/OwnableUpgradeable.sol\":3874:3894  _getOwnableStorage() */\n      jump\t// in\n    tag_276:\n        /* \"@openzeppelin/contracts-upgradeable/access/OwnableUpgradeable.sol\":3847:3894  OwnableStorage storage $ = _getOwnableStorage() */\n      swap1\n      pop\n        /* \"@openzeppelin/contracts-upgradeable/access/OwnableUpgradeable.sol\":3904:3920  address oldOwner */\n      0x00\n        /* \"@openzeppelin/contracts-upgradeable/access/OwnableUpgradeable.sol\":3923:3924  $ */\n      dup2\n        /* \"@openzeppelin/contracts-upgradeable/access/OwnableUpgradeable.sol\":3923:3931  $._owner */\n      0x00\n      add\n      0x00\n      swap1\n      sload\n      swap1\n      0x0100\n      exp\n      swap1\n      div\n      0xffffffffffffffffffffffffffffffffffffffff\n      and\n        /* \"@openzeppelin/contracts-upgradeable/access/OwnableUpgradeable.sol\":3904:3931  address oldOwner = $._owner */\n      swap1\n      pop\n        /* \"@openzeppelin/contracts-upgradeable/access/OwnableUpgradeable.sol\":3952:3960  newOwner */\n      dup3\n        /* \"@openzeppelin/contracts-upgradeable/access/OwnableUpgradeable.sol\":3941:3942  $ */\n      dup3\n        /* \"@openzeppelin/contracts-upgradeable/access/OwnableUpgradeable.sol\":3941:3949  $._owner */\n      0x00\n      add\n      0x00\n        /* \"@openzeppelin/contracts-upgradeable/access/OwnableUpgradeable.sol\":3941:3960  $._owner = newOwner */\n      0x0100\n      exp\n      dup2\n      sload\n      dup2\n      0xffffffffffffffffffffffffffffffffffffffff\n      mul\n      not\n      and\n      swap1\n      dup4\n      0xffffffffffffffffffffffffffffffffffffffff\n      and\n      mul\n      or\n      swap1\n      sstore\n      pop\n        /* \"@openzeppelin/contracts-upgradeable/access/OwnableUpgradeable.sol\":4006:4014  newOwner */\n      dup3\n        /* \"@openzeppelin/contracts-upgradeable/access/OwnableUpgradeable.sol\":3975:4015  OwnershipTransferred(oldOwner, newOwner) */\n      0xffffffffffffffffffffffffffffffffffffffff\n      and\n        /* \"@openzeppelin/contracts-upgradeable/access/OwnableUpgradeable.sol\":3996:4004  oldOwner */\n      dup2\n        /* \"@openzeppelin/contracts-upgradeable/access/OwnableUpgradeable.sol\":3975:4015  OwnershipTransferred(oldOwner, newOwner) */\n      0xffffffffffffffffffffffffffffffffffffffff\n      and\n      0x8be0079c531659141344cd1fd0a4f28419497f9722a3daafe3b4186f6b6457e0\n      mload(0x40)\n      mload(0x40)\n      dup1\n      swap2\n      sub\n      swap1\n      log3\n        /* \"@openzeppelin/contracts-upgradeable/access/OwnableUpgradeable.sol\":3837:4022  {... */\n      pop\n      pop\n        /* \"@openzeppelin/contracts-upgradeable/access/OwnableUpgradeable.sol\":3774:4022  function _transferOwnership(address newOwner) internal virtual {... */\n      pop\n      jump\t// out\n        /* \"@openzeppelin/contracts-upgradeable/access/OwnableUpgradeable.sol\":1192:1351  function _getOwnableStorage() private pure returns (OwnableStorage storage $) {... */\n    tag_180:\n        /* \"@openzeppelin/contracts-upgradeable/access/OwnableUpgradeable.sol\":1244:1268  OwnableStorage storage $ */\n      0x00\n        /* \"@openzeppelin/contracts-upgradeable/access/OwnableUpgradeable.sol\":1313:1335  OwnableStorageLocation */\n      0x9016d09d72d40fdae2fd8ceac6b6234c7706214fd39c1cd1e609a0528c199300\n        /* \"@openzeppelin/contracts-upgradeable/access/OwnableUpgradeable.sol\":1303:1335  $.slot := OwnableStorageLocation */\n      swap1\n      pop\n        /* \"@openzeppelin/contracts-upgradeable/access/OwnableUpgradeable.sol\":1192:1351  function _getOwnableStorage() private pure returns (OwnableStorage storage $) {... */\n      swap1\n      jump\t// out\n        /* \"@openzeppelin/contracts/token/ERC20/utils/SafeERC20.sol\":7738:8458  function _callOptionalReturn(IERC20 token, bytes memory data) private {... */\n    tag_250:\n        /* \"@openzeppelin/contracts/token/ERC20/utils/SafeERC20.sol\":7818:7836  uint256 returnSize */\n      0x00\n        /* \"@openzeppelin/contracts/token/ERC20/utils/SafeERC20.sol\":7846:7865  uint256 returnValue */\n      dup1\n        /* \"@openzeppelin/contracts/token/ERC20/utils/SafeERC20.sol\":7984:7988  0x20 */\n      0x20\n        /* \"@openzeppelin/contracts/token/ERC20/utils/SafeERC20.sol\":7981:7982  0 */\n      0x00\n        /* \"@openzeppelin/contracts/token/ERC20/utils/SafeERC20.sol\":7974:7978  data */\n      dup5\n        /* \"@openzeppelin/contracts/token/ERC20/utils/SafeERC20.sol\":7968:7979  mload(data) */\n      mload\n        /* \"@openzeppelin/contracts/token/ERC20/utils/SafeERC20.sol\":7961:7965  0x20 */\n      0x20\n        /* \"@openzeppelin/contracts/token/ERC20/utils/SafeERC20.sol\":7955:7959  data */\n      dup7\n        /* \"@openzeppelin/contracts/token/ERC20/utils/SafeERC20.sol\":7951:7966  add(data, 0x20) */\n      add\n        /* \"@openzeppelin/contracts/token/ERC20/utils/SafeERC20.sol\":7948:7949  0 */\n      0x00\n        /* \"@openzeppelin/contracts/token/ERC20/utils/SafeERC20.sol\":7941:7946  token */\n      dup9\n        /* \"@openzeppelin/contracts/token/ERC20/utils/SafeERC20.sol\":7934:7939  gas() */\n      gas\n        /* \"@openzeppelin/contracts/token/ERC20/utils/SafeERC20.sol\":7929:7989  call(gas(), token, 0, add(data, 0x20), mload(data), 0, 0x20) */\n      call\n        /* \"@openzeppelin/contracts/token/ERC20/utils/SafeERC20.sol\":8041:8048  success */\n      dup1\n        /* \"@openzeppelin/contracts/token/ERC20/utils/SafeERC20.sol\":8031:8207  if iszero(success) {... */\n      tag_279\n      jumpi\n        /* \"@openzeppelin/contracts/token/ERC20/utils/SafeERC20.sol\":8085:8089  0x40 */\n      0x40\n        /* \"@openzeppelin/contracts/token/ERC20/utils/SafeERC20.sol\":8079:8090  mload(0x40) */\n      mload\n        /* \"@openzeppelin/contracts/token/ERC20/utils/SafeERC20.sol\":8130:8146  returndatasize() */\n      returndatasize\n        /* \"@openzeppelin/contracts/token/ERC20/utils/SafeERC20.sol\":8127:8128  0 */\n      0x00\n        /* \"@openzeppelin/contracts/token/ERC20/utils/SafeERC20.sol\":8122:8125  ptr */\n      dup3\n        /* \"@openzeppelin/contracts/token/ERC20/utils/SafeERC20.sol\":8107:8147  returndatacopy(ptr, 0, returndatasize()) */\n      returndatacopy\n        /* \"@openzeppelin/contracts/token/ERC20/utils/SafeERC20.sol\":8176:8192  returndatasize() */\n      returndatasize\n        /* \"@openzeppelin/contracts/token/ERC20/utils/SafeERC20.sol\":8171:8174  ptr */\n      dup2\n        /* \"@openzeppelin/contracts/token/ERC20/utils/SafeERC20.sol\":8164:8193  revert(ptr, returndatasize()) */\n      revert\n        /* \"@openzeppelin/contracts/token/ERC20/utils/SafeERC20.sol\":8031:8207  if iszero(success) {... */\n    tag_279:\n        /* \"@openzeppelin/contracts/token/ERC20/utils/SafeERC20.sol\":8234:8250  returndatasize() */\n      returndatasize\n        /* \"@openzeppelin/contracts/token/ERC20/utils/SafeERC20.sol\":8220:8250  returnSize := returndatasize() */\n      swap3\n      pop\n        /* \"@openzeppelin/contracts/token/ERC20/utils/SafeERC20.sol\":8284:8285  0 */\n      0x00\n        /* \"@openzeppelin/contracts/token/ERC20/utils/SafeERC20.sol\":8278:8286  mload(0) */\n      mload\n        /* \"@openzeppelin/contracts/token/ERC20/utils/SafeERC20.sol\":8263:8286  returnValue := mload(0) */\n      swap2\n      pop\n        /* \"@openzeppelin/contracts/token/ERC20/utils/SafeERC20.sol\":7900:8296  {... */\n      pop\n        /* \"@openzeppelin/contracts/token/ERC20/utils/SafeERC20.sol\":8324:8325  0 */\n      0x00\n        /* \"@openzeppelin/contracts/token/ERC20/utils/SafeERC20.sol\":8310:8320  returnSize */\n      dup3\n        /* \"@openzeppelin/contracts/token/ERC20/utils/SafeERC20.sol\":8310:8325  returnSize == 0 */\n      eq\n        /* \"@openzeppelin/contracts/token/ERC20/utils/SafeERC20.sol\":8310:8378  returnSize == 0 ? address(token).code.length == 0 : returnValue != 1 */\n      tag_280\n      jumpi\n        /* \"@openzeppelin/contracts/token/ERC20/utils/SafeERC20.sol\":8377:8378  1 */\n      0x01\n        /* \"@openzeppelin/contracts/token/ERC20/utils/SafeERC20.sol\":8362:8373  returnValue */\n      dup2\n        /* \"@openzeppelin/contracts/token/ERC20/utils/SafeERC20.sol\":8362:8378  returnValue != 1 */\n      eq\n      iszero\n        /* \"@openzeppelin/contracts/token/ERC20/utils/SafeERC20.sol\":8310:8378  returnSize == 0 ? address(token).code.length == 0 : returnValue != 1 */\n      jump(tag_281)\n    tag_280:\n        /* \"@openzeppelin/contracts/token/ERC20/utils/SafeERC20.sol\":8358:8359  0 */\n      0x00\n        /* \"@openzeppelin/contracts/token/ERC20/utils/SafeERC20.sol\":8336:8341  token */\n      dup5\n        /* \"@openzeppelin/contracts/token/ERC20/utils/SafeERC20.sol\":8328:8354  address(token).code.length */\n      0xffffffffffffffffffffffffffffffffffffffff\n      and\n      extcodesize\n        /* \"@openzeppelin/contracts/token/ERC20/utils/SafeERC20.sol\":8328:8359  address(token).code.length == 0 */\n      eq\n        /* \"@openzeppelin/contracts/token/ERC20/utils/SafeERC20.sol\":8310:8378  returnSize == 0 ? address(token).code.length == 0 : returnValue != 1 */\n    tag_281:\n        /* \"@openzeppelin/contracts/token/ERC20/utils/SafeERC20.sol\":8306:8452  if (returnSize == 0 ? address(token).code.length == 0 : returnValue != 1) {... */\n      iszero\n      tag_282\n      jumpi\n        /* \"@openzeppelin/contracts/token/ERC20/utils/SafeERC20.sol\":8434:8439  token */\n      dup4\n        /* \"@openzeppelin/contracts/token/ERC20/utils/SafeERC20.sol\":8401:8441  SafeERC20FailedOperation(address(token)) */\n      mload(0x40)\n      0x5274afe700000000000000000000000000000000000000000000000000000000\n      dup2\n      mstore\n      0x04\n      add\n      tag_283\n      swap2\n      swap1\n      tag_39\n      jump\t// in\n    tag_283:\n      mload(0x40)\n      dup1\n      swap2\n      sub\n      swap1\n      revert\n        /* \"@openzeppelin/contracts/token/ERC20/utils/SafeERC20.sol\":8306:8452  if (returnSize == 0 ? address(token).code.length == 0 : returnValue != 1) {... */\n    tag_282:\n        /* \"@openzeppelin/contracts/token/ERC20/utils/SafeERC20.sol\":7808:8458  {... */\n      pop\n      pop\n        /* \"@openzeppelin/contracts/token/ERC20/utils/SafeERC20.sol\":7738:8458  function _callOptionalReturn(IERC20 token, bytes memory data) private {... */\n      pop\n      pop\n      jump\t// out\n        /* \"@openzeppelin/contracts-upgradeable/proxy/utils/Initializable.sol\":7084:7225  function _checkInitializing() internal view virtual {... */\n    tag_259:\n        /* \"@openzeppelin/contracts-upgradeable/proxy/utils/Initializable.sol\":7151:7168  _isInitializing() */\n      tag_285\n        /* \"@openzeppelin/contracts-upgradeable/proxy/utils/Initializable.sol\":7151:7166  _isInitializing */\n      tag_286\n        /* \"@openzeppelin/contracts-upgradeable/proxy/utils/Initializable.sol\":7151:7168  _isInitializing() */\n      jump\t// in\n    tag_285:\n        /* \"@openzeppelin/contracts-upgradeable/proxy/utils/Initializable.sol\":7146:7219  if (!_isInitializing()) {... */\n      tag_287\n      jumpi\n        /* \"@openzeppelin/contracts-upgradeable/proxy/utils/Initializable.sol\":7191:7208  NotInitializing() */\n      mload(0x40)\n      0xd7e6bcf800000000000000000000000000000000000000000000000000000000\n      dup2\n      mstore\n      0x04\n      add\n      mload(0x40)\n      dup1\n      swap2\n      sub\n      swap1\n      revert\n        /* \"@openzeppelin/contracts-upgradeable/proxy/utils/Initializable.sol\":7146:7219  if (!_isInitializing()) {... */\n    tag_287:\n        /* \"@openzeppelin/contracts-upgradeable/proxy/utils/Initializable.sol\":7084:7225  function _checkInitializing() internal view virtual {... */\n      jump\t// out\n        /* \"@openzeppelin/contracts-upgradeable/access/OwnableUpgradeable.sol\":1980:2215  function __Ownable_init_unchained(address initialOwner) internal onlyInitializing {... */\n    tag_262:\n        /* \"@openzeppelin/contracts-upgradeable/proxy/utils/Initializable.sol\":6931:6951  _checkInitializing() */\n      tag_289\n        /* \"@openzeppelin/contracts-upgradeable/proxy/utils/Initializable.sol\":6931:6949  _checkInitializing */\n      tag_259\n        /* \"@openzeppelin/contracts-upgradeable/proxy/utils/Initializable.sol\":6931:6951  _checkInitializing() */\n      jump\t// in\n    tag_289:\n        /* \"@openzeppelin/contracts-upgradeable/access/OwnableUpgradeable.sol\":2100:2101  0 */\n      0x00\n        /* \"@openzeppelin/contracts-upgradeable/access/OwnableUpgradeable.sol\":2076:2102  initialOwner == address(0) */\n      0xffffffffffffffffffffffffffffffffffffffff\n      and\n        /* \"@openzeppelin/contracts-upgradeable/access/OwnableUpgradeable.sol\":2076:2088  initialOwner */\n      dup2\n        /* \"@openzeppelin/contracts-upgradeable/access/OwnableUpgradeable.sol\":2076:2102  initialOwner == address(0) */\n      0xffffffffffffffffffffffffffffffffffffffff\n      and\n      sub\n        /* \"@openzeppelin/contracts-upgradeable/access/OwnableUpgradeable.sol\":2072:2167  if (initialOwner == address(0)) {... */\n      tag_291\n      jumpi\n        /* \"@openzeppelin/contracts-upgradeable/access/OwnableUpgradeable.sol\":2153:2154  0 */\n      0x00\n        /* \"@openzeppelin/contracts-upgradeable/access/OwnableUpgradeable.sol\":2125:2156  OwnableInvalidOwner(address(0)) */\n      mload(0x40)\n      0x1e4fbdf700000000000000000000000000000000000000000000000000000000\n      dup2\n      mstore\n      0x04\n      add\n      tag_292\n      swap2\n      swap1\n      tag_39\n      jump\t// in\n    tag_292:\n      mload(0x40)\n      dup1\n      swap2\n      sub\n      swap1\n      revert\n        /* \"@openzeppelin/contracts-upgradeable/access/OwnableUpgradeable.sol\":2072:2167  if (initialOwner == address(0)) {... */\n    tag_291:\n        /* \"@openzeppelin/contracts-upgradeable/access/OwnableUpgradeable.sol\":2176:2208  _transferOwnership(initialOwner) */\n      tag_293\n        /* \"@openzeppelin/contracts-upgradeable/access/OwnableUpgradeable.sol\":2195:2207  initialOwner */\n      dup2\n        /* \"@openzeppelin/contracts-upgradeable/access/OwnableUpgradeable.sol\":2176:2194  _transferOwnership */\n      tag_171\n        /* \"@openzeppelin/contracts-upgradeable/access/OwnableUpgradeable.sol\":2176:2208  _transferOwnership(initialOwner) */\n      jump\t// in\n    tag_293:\n        /* \"@openzeppelin/contracts-upgradeable/access/OwnableUpgradeable.sol\":1980:2215  function __Ownable_init_unchained(address initialOwner) internal onlyInitializing {... */\n      pop\n      jump\t// out\n        /* \"@openzeppelin/contracts-upgradeable/security/ReentrancyGuardUpgradeable.sol\":2006:2115  function __ReentrancyGuard_init_unchained() internal onlyInitializing {... */\n    tag_267:\n        /* \"@openzeppelin/contracts-upgradeable/proxy/utils/Initializable.sol\":6931:6951  _checkInitializing() */\n      tag_295\n        /* \"@openzeppelin/contracts-upgradeable/proxy/utils/Initializable.sol\":6931:6949  _checkInitializing */\n      tag_259\n        /* \"@openzeppelin/contracts-upgradeable/proxy/utils/Initializable.sol\":6931:6951  _checkInitializing() */\n      jump\t// in\n    tag_295:\n        /* \"@openzeppelin/contracts-upgradeable/security/ReentrancyGuardUpgradeable.sol\":1808:1809  1 */\n      0x01\n        /* \"@openzeppelin/contracts-upgradeable/security/ReentrancyGuardUpgradeable.sol\":2086:2093  _status */\n      0x00\n        /* \"@openzeppelin/contracts-upgradeable/security/ReentrancyGuardUpgradeable.sol\":2086:2108  _status = _NOT_ENTERED */\n      dup2\n      swap1\n      sstore\n      pop\n        /* \"@openzeppelin/contracts-upgradeable/security/ReentrancyGuardUpgradeable.sol\":2006:2115  function __ReentrancyGuard_init_unchained() internal onlyInitializing {... */\n      jump\t// out\n        /* \"@openzeppelin/contracts-upgradeable/utils/ContextUpgradeable.sol\":887:983  function _msgSender() internal view virtual returns (address) {... */\n    tag_270:\n        /* \"@openzeppelin/contracts-upgradeable/utils/ContextUpgradeable.sol\":940:947  address */\n      0x00\n        /* \"@openzeppelin/contracts-upgradeable/utils/ContextUpgradeable.sol\":966:976  msg.sender */\n      caller\n        /* \"@openzeppelin/contracts-upgradeable/utils/ContextUpgradeable.sol\":959:976  return msg.sender */\n      swap1\n      pop\n        /* \"@openzeppelin/contracts-upgradeable/utils/ContextUpgradeable.sol\":887:983  function _msgSender() internal view virtual returns (address) {... */\n      swap1\n      jump\t// out\n        /* \"@openzeppelin/contracts-upgradeable/proxy/utils/Initializable.sol\":8487:8607  function _isInitializing() internal view returns (bool) {... */\n    tag_286:\n        /* \"@openzeppelin/contracts-upgradeable/proxy/utils/Initializable.sol\":8537:8541  bool */\n      0x00\n        /* \"@openzeppelin/contracts-upgradeable/proxy/utils/Initializable.sol\":8560:8586  _getInitializableStorage() */\n      tag_299\n        /* \"@openzeppelin/contracts-upgradeable/proxy/utils/Initializable.sol\":8560:8584  _getInitializableStorage */\n      tag_152\n        /* \"@openzeppelin/contracts-upgradeable/proxy/utils/Initializable.sol\":8560:8586  _getInitializableStorage() */\n      jump\t// in\n    tag_299:\n        /* \"@openzeppelin/contracts-upgradeable/proxy/utils/Initializable.sol\":8560:8600  _getInitializableStorage()._initializing */\n      0x00\n      add\n      0x08\n      swap1\n      sload\n      swap1\n      0x0100\n      exp\n      swap1\n      div\n      0xff\n      and\n        /* \"@openzeppelin/contracts-upgradeable/proxy/utils/Initializable.sol\":8553:8600  return _getInitializableStorage()._initializing */\n      swap1\n      pop\n        /* \"@openzeppelin/contracts-upgradeable/proxy/utils/Initializable.sol\":8487:8607  function _isInitializing() internal view returns (bool) {... */\n      swap1\n      jump\t// out\n        /* \"#utility.yul\":7:84   */\n    tag_300:\n        /* \"#utility.yul\":44:51   */\n      0x00\n        /* \"#utility.yul\":73:78   */\n      dup2\n        /* \"#utility.yul\":62:78   */\n      swap1\n      pop\n        /* \"#utility.yul\":7:84   */\n      swap2\n      swap1\n      pop\n      jump\t// out\n        /* \"#utility.yul\":90:270   */\n    tag_301:\n        /* \"#utility.yul\":138:215   */\n      0x4e487b7100000000000000000000000000000000000000000000000000000000\n        /* \"#utility.yul\":135:136   */\n      0x00\n        /* \"#utility.yul\":128:216   */\n      mstore\n        /* \"#utility.yul\":235:239   */\n      0x11\n        /* \"#utility.yul\":232:233   */\n      0x04\n        /* \"#utility.yul\":225:240   */\n      mstore\n        /* \"#utility.yul\":259:263   */\n      0x24\n        /* \"#utility.yul\":256:257   */\n      0x00\n        /* \"#utility.yul\":249:264   */\n      revert\n        /* \"#utility.yul\":276:467   */\n    tag_23:\n        /* \"#utility.yul\":316:319   */\n      0x00\n        /* \"#utility.yul\":335:355   */\n      tag_395\n        /* \"#utility.yul\":353:354   */\n      dup3\n        /* \"#utility.yul\":335:355   */\n      tag_300\n      jump\t// in\n    tag_395:\n        /* \"#utility.yul\":330:355   */\n      swap2\n      pop\n        /* \"#utility.yul\":369:389   */\n      tag_396\n        /* \"#utility.yul\":387:388   */\n      dup4\n        /* \"#utility.yul\":369:389   */\n      tag_300\n      jump\t// in\n    tag_396:\n        /* \"#utility.yul\":364:389   */\n      swap3\n      pop\n        /* \"#utility.yul\":412:413   */\n      dup3\n        /* \"#utility.yul\":409:410   */\n      dup3\n        /* \"#utility.yul\":405:414   */\n      add\n        /* \"#utility.yul\":398:414   */\n      swap1\n      pop\n        /* \"#utility.yul\":433:436   */\n      dup1\n        /* \"#utility.yul\":430:431   */\n      dup3\n        /* \"#utility.yul\":427:437   */\n      gt\n        /* \"#utility.yul\":424:460   */\n      iszero\n      tag_397\n      jumpi\n        /* \"#utility.yul\":440:458   */\n      tag_398\n      tag_301\n      jump\t// in\n    tag_398:\n        /* \"#utility.yul\":424:460   */\n    tag_397:\n        /* \"#utility.yul\":276:467   */\n      swap3\n      swap2\n      pop\n      pop\n      jump\t// out\n        /* \"#utility.yul\":473:591   */\n    tag_302:\n        /* \"#utility.yul\":560:584   */\n      tag_400\n        /* \"#utility.yul\":578:583   */\n      dup2\n        /* \"#utility.yul\":560:584   */\n      tag_300\n      jump\t// in\n    tag_400:\n        /* \"#utility.yul\":555:558   */\n      dup3\n        /* \"#utility.yul\":548:585   */\n      mstore\n        /* \"#utility.yul\":473:591   */\n      pop\n      pop\n      jump\t// out\n        /* \"#utility.yul\":597:819   */\n    tag_25:\n        /* \"#utility.yul\":690:694   */\n      0x00\n        /* \"#utility.yul\":728:730   */\n      0x20\n        /* \"#utility.yul\":717:726   */\n      dup3\n        /* \"#utility.yul\":713:731   */\n      add\n        /* \"#utility.yul\":705:731   */\n      swap1\n      pop\n        /* \"#utility.yul\":741:812   */\n      tag_402\n        /* \"#utility.yul\":809:810   */\n      0x00\n        /* \"#utility.yul\":798:807   */\n      dup4\n        /* \"#utility.yul\":794:811   */\n      add\n        /* \"#utility.yul\":785:791   */\n      dup5\n        /* \"#utility.yul\":741:812   */\n      tag_302\n      jump\t// in\n    tag_402:\n        /* \"#utility.yul\":597:819   */\n      swap3\n      swap2\n      pop\n      pop\n      jump\t// out\n        /* \"#utility.yul\":825:994   */\n    tag_303:\n        /* \"#utility.yul\":909:920   */\n      0x00\n        /* \"#utility.yul\":943:949   */\n      dup3\n        /* \"#utility.yul\":938:941   */\n      dup3\n        /* \"#utility.yul\":931:950   */\n      mstore\n        /* \"#utility.yul\":983:987   */\n      0x20\n        /* \"#utility.yul\":978:981   */\n      dup3\n        /* \"#utility.yul\":974:988   */\n      add\n        /* \"#utility.yul\":959:988   */\n      swap1\n      pop\n        /* \"#utility.yul\":825:994   */\n      swap3\n      swap2\n      pop\n      pop\n      jump\t// out\n        /* \"#utility.yul\":1000:1175   */\n    tag_304:\n        /* \"#utility.yul\":1140:1167   */\n      0x6e436f6f6b69654a61723a20757365206465706f736974282900000000000000\n        /* \"#utility.yul\":1136:1137   */\n      0x00\n        /* \"#utility.yul\":1128:1134   */\n      dup3\n        /* \"#utility.yul\":1124:1138   */\n      add\n        /* \"#utility.yul\":1117:1168   */\n      mstore\n        /* \"#utility.yul\":1000:1175   */\n      pop\n      jump\t// out\n        /* \"#utility.yul\":1181:1547   */\n    tag_305:\n        /* \"#utility.yul\":1323:1326   */\n      0x00\n        /* \"#utility.yul\":1344:1411   */\n      tag_406\n        /* \"#utility.yul\":1408:1410   */\n      0x19\n        /* \"#utility.yul\":1403:1406   */\n      dup4\n        /* \"#utility.yul\":1344:1411   */\n      tag_303\n      jump\t// in\n    tag_406:\n        /* \"#utility.yul\":1337:1411   */\n      swap2\n      pop\n        /* \"#utility.yul\":1420:1513   */\n      tag_407\n        /* \"#utility.yul\":1509:1512   */\n      dup3\n        /* \"#utility.yul\":1420:1513   */\n      tag_304\n      jump\t// in\n    tag_407:\n        /* \"#utility.yul\":1538:1540   */\n      0x20\n        /* \"#utility.yul\":1533:1536   */\n      dup3\n        /* \"#utility.yul\":1529:1541   */\n      add\n        /* \"#utility.yul\":1522:1541   */\n      swap1\n      pop\n        /* \"#utility.yul\":1181:1547   */\n      swap2\n      swap1\n      pop\n      jump\t// out\n        /* \"#utility.yul\":1553:1972   */\n    tag_29:\n        /* \"#utility.yul\":1719:1723   */\n      0x00\n        /* \"#utility.yul\":1757:1759   */\n      0x20\n        /* \"#utility.yul\":1746:1755   */\n      dup3\n        /* \"#utility.yul\":1742:1760   */\n      add\n        /* \"#utility.yul\":1734:1760   */\n      swap1\n      pop\n        /* \"#utility.yul\":1806:1815   */\n      dup2\n        /* \"#utility.yul\":1800:1804   */\n      dup2\n        /* \"#utility.yul\":1796:1816   */\n      sub\n        /* \"#utility.yul\":1792:1793   */\n      0x00\n        /* \"#utility.yul\":1781:1790   */\n      dup4\n        /* \"#utility.yul\":1777:1794   */\n      add\n        /* \"#utility.yul\":1770:1817   */\n      mstore\n        /* \"#utility.yul\":1834:1965   */\n      tag_409\n        /* \"#utility.yul\":1960:1964   */\n      dup2\n        /* \"#utility.yul\":1834:1965   */\n      tag_305\n      jump\t// in\n    tag_409:\n        /* \"#utility.yul\":1826:1965   */\n      swap1\n      pop\n        /* \"#utility.yul\":1553:1972   */\n      swap2\n      swap1\n      pop\n      jump\t// out\n        /* \"#utility.yul\":1978:2053   */\n    tag_306:\n        /* \"#utility.yul\":2011:2017   */\n      0x00\n        /* \"#utility.yul\":2044:2046   */\n      0x40\n        /* \"#utility.yul\":2038:2047   */\n      mload\n        /* \"#utility.yul\":2028:2047   */\n      swap1\n      pop\n        /* \"#utility.yul\":1978:2053   */\n      swap1\n      jump\t// out\n        /* \"#utility.yul\":2059:2176   */\n    tag_307:\n        /* \"#utility.yul\":2168:2169   */\n      0x00\n        /* \"#utility.yul\":2165:2166   */\n      dup1\n        /* \"#utility.yul\":2158:2170   */\n      revert\n        /* \"#utility.yul\":2182:2299   */\n    tag_308:\n        /* \"#utility.yul\":2291:2292   */\n      0x00\n        /* \"#utility.yul\":2288:2289   */\n      dup1\n        /* \"#utility.yul\":2281:2293   */\n      revert\n        /* \"#utility.yul\":2305:2431   */\n    tag_309:\n        /* \"#utility.yul\":2342:2349   */\n      0x00\n        /* \"#utility.yul\":2382:2424   */\n      0xffffffffffffffffffffffffffffffffffffffff\n        /* \"#utility.yul\":2375:2380   */\n      dup3\n        /* \"#utility.yul\":2371:2425   */\n      and\n        /* \"#utility.yul\":2360:2425   */\n      swap1\n      pop\n        /* \"#utility.yul\":2305:2431   */\n      swap2\n      swap1\n      pop\n      jump\t// out\n        /* \"#utility.yul\":2437:2533   */\n    tag_310:\n        /* \"#utility.yul\":2474:2481   */\n      0x00\n        /* \"#utility.yul\":2503:2527   */\n      tag_415\n        /* \"#utility.yul\":2521:2526   */\n      dup3\n        /* \"#utility.yul\":2503:2527   */\n      tag_309\n      jump\t// in\n    tag_415:\n        /* \"#utility.yul\":2492:2527   */\n      swap1\n      pop\n        /* \"#utility.yul\":2437:2533   */\n      swap2\n      swap1\n      pop\n      jump\t// out\n        /* \"#utility.yul\":2539:2661   */\n    tag_311:\n        /* \"#utility.yul\":2612:2636   */\n      tag_417\n        /* \"#utility.yul\":2630:2635   */\n      dup2\n        /* \"#utility.yul\":2612:2636   */\n      tag_310\n      jump\t// in\n    tag_417:\n        /* \"#utility.yul\":2605:2610   */\n      dup2\n        /* \"#utility.yul\":2602:2637   */\n      eq\n        /* \"#utility.yul\":2592:2655   */\n      tag_418\n      jumpi\n        /* \"#utility.yul\":2651:2652   */\n      0x00\n        /* \"#utility.yul\":2648:2649   */\n      dup1\n        /* \"#utility.yul\":2641:2653   */\n      revert\n        /* \"#utility.yul\":2592:2655   */\n    tag_418:\n        /* \"#utility.yul\":2539:2661   */\n      pop\n      jump\t// out\n        /* \"#utility.yul\":2667:2806   */\n    tag_312:\n        /* \"#utility.yul\":2713:2718   */\n      0x00\n        /* \"#utility.yul\":2751:2757   */\n      dup2\n        /* \"#utility.yul\":2738:2758   */\n      calldataload\n        /* \"#utility.yul\":2729:2758   */\n      swap1\n      pop\n        /* \"#utility.yul\":2767:2800   */\n      tag_420\n        /* \"#utility.yul\":2794:2799   */\n      dup2\n        /* \"#utility.yul\":2767:2800   */\n      tag_311\n      jump\t// in\n    tag_420:\n        /* \"#utility.yul\":2667:2806   */\n      swap3\n      swap2\n      pop\n      pop\n      jump\t// out\n        /* \"#utility.yul\":2812:3141   */\n    tag_33:\n        /* \"#utility.yul\":2871:2877   */\n      0x00\n        /* \"#utility.yul\":2920:2922   */\n      0x20\n        /* \"#utility.yul\":2908:2917   */\n      dup3\n        /* \"#utility.yul\":2899:2906   */\n      dup5\n        /* \"#utility.yul\":2895:2918   */\n      sub\n        /* \"#utility.yul\":2891:2923   */\n      slt\n        /* \"#utility.yul\":2888:3007   */\n      iszero\n      tag_422\n      jumpi\n        /* \"#utility.yul\":2926:3005   */\n      tag_423\n      tag_307\n      jump\t// in\n    tag_423:\n        /* \"#utility.yul\":2888:3007   */\n    tag_422:\n        /* \"#utility.yul\":3046:3047   */\n      0x00\n        /* \"#utility.yul\":3071:3124   */\n      tag_424\n        /* \"#utility.yul\":3116:3123   */\n      dup5\n        /* \"#utility.yul\":3107:3113   */\n      dup3\n        /* \"#utility.yul\":3096:3105   */\n      dup6\n        /* \"#utility.yul\":3092:3114   */\n      add\n        /* \"#utility.yul\":3071:3124   */\n      tag_312\n      jump\t// in\n    tag_424:\n        /* \"#utility.yul\":3061:3124   */\n      swap2\n      pop\n        /* \"#utility.yul\":3017:3134   */\n      pop\n        /* \"#utility.yul\":2812:3141   */\n      swap3\n      swap2\n      pop\n      pop\n      jump\t// out\n        /* \"#utility.yul\":3147:3265   */\n    tag_313:\n        /* \"#utility.yul\":3234:3258   */\n      tag_426\n        /* \"#utility.yul\":3252:3257   */\n      dup2\n        /* \"#utility.yul\":3234:3258   */\n      tag_310\n      jump\t// in\n    tag_426:\n        /* \"#utility.yul\":3229:3232   */\n      dup3\n        /* \"#utility.yul\":3222:3259   */\n      mstore\n        /* \"#utility.yul\":3147:3265   */\n      pop\n      pop\n      jump\t// out\n        /* \"#utility.yul\":3271:3493   */\n    tag_39:\n        /* \"#utility.yul\":3364:3368   */\n      0x00\n        /* \"#utility.yul\":3402:3404   */\n      0x20\n        /* \"#utility.yul\":3391:3400   */\n      dup3\n        /* \"#utility.yul\":3387:3405   */\n      add\n        /* \"#utility.yul\":3379:3405   */\n      swap1\n      pop\n        /* \"#utility.yul\":3415:3486   */\n      tag_428\n        /* \"#utility.yul\":3483:3484   */\n      0x00\n        /* \"#utility.yul\":3472:3481   */\n      dup4\n        /* \"#utility.yul\":3468:3485   */\n      add\n        /* \"#utility.yul\":3459:3465   */\n      dup5\n        /* \"#utility.yul\":3415:3486   */\n      tag_313\n      jump\t// in\n    tag_428:\n        /* \"#utility.yul\":3271:3493   */\n      swap3\n      swap2\n      pop\n      pop\n      jump\t// out\n        /* \"#utility.yul\":3499:3621   */\n    tag_314:\n        /* \"#utility.yul\":3572:3596   */\n      tag_430\n        /* \"#utility.yul\":3590:3595   */\n      dup2\n        /* \"#utility.yul\":3572:3596   */\n      tag_300\n      jump\t// in\n    tag_430:\n        /* \"#utility.yul\":3565:3570   */\n      dup2\n        /* \"#utility.yul\":3562:3597   */\n      eq\n        /* \"#utility.yul\":3552:3615   */\n      tag_431\n      jumpi\n        /* \"#utility.yul\":3611:3612   */\n      0x00\n        /* \"#utility.yul\":3608:3609   */\n      dup1\n        /* \"#utility.yul\":3601:3613   */\n      revert\n        /* \"#utility.yul\":3552:3615   */\n    tag_431:\n        /* \"#utility.yul\":3499:3621   */\n      pop\n      jump\t// out\n        /* \"#utility.yul\":3627:3766   */\n    tag_315:\n        /* \"#utility.yul\":3673:3678   */\n      0x00\n        /* \"#utility.yul\":3711:3717   */\n      dup2\n        /* \"#utility.yul\":3698:3718   */\n      calldataload\n        /* \"#utility.yul\":3689:3718   */\n      swap1\n      pop\n        /* \"#utility.yul\":3727:3760   */\n      tag_433\n        /* \"#utility.yul\":3754:3759   */\n      dup2\n        /* \"#utility.yul\":3727:3760   */\n      tag_314\n      jump\t// in\n    tag_433:\n        /* \"#utility.yul\":3627:3766   */\n      swap3\n      swap2\n      pop\n      pop\n      jump\t// out\n        /* \"#utility.yul\":3772:4246   */\n    tag_42:\n        /* \"#utility.yul\":3840:3846   */\n      0x00\n        /* \"#utility.yul\":3848:3854   */\n      dup1\n        /* \"#utility.yul\":3897:3899   */\n      0x40\n        /* \"#utility.yul\":3885:3894   */\n      dup4\n        /* \"#utility.yul\":3876:3883   */\n      dup6\n        /* \"#utility.yul\":3872:3895   */\n      sub\n        /* \"#utility.yul\":3868:3900   */\n      slt\n        /* \"#utility.yul\":3865:3984   */\n      iszero\n      tag_435\n      jumpi\n        /* \"#utility.yul\":3903:3982   */\n      tag_436\n      tag_307\n      jump\t// in\n    tag_436:\n        /* \"#utility.yul\":3865:3984   */\n    tag_435:\n        /* \"#utility.yul\":4023:4024   */\n      0x00\n        /* \"#utility.yul\":4048:4101   */\n      tag_437\n        /* \"#utility.yul\":4093:4100   */\n      dup6\n        /* \"#utility.yul\":4084:4090   */\n      dup3\n        /* \"#utility.yul\":4073:4082   */\n      dup7\n        /* \"#utility.yul\":4069:4091   */\n      add\n        /* \"#utility.yul\":4048:4101   */\n      tag_312\n      jump\t// in\n    tag_437:\n        /* \"#utility.yul\":4038:4101   */\n      swap3\n      pop\n        /* \"#utility.yul\":3994:4111   */\n      pop\n        /* \"#utility.yul\":4150:4152   */\n      0x20\n        /* \"#utility.yul\":4176:4229   */\n      tag_438\n        /* \"#utility.yul\":4221:4228   */\n      dup6\n        /* \"#utility.yul\":4212:4218   */\n      dup3\n        /* \"#utility.yul\":4201:4210   */\n      dup7\n        /* \"#utility.yul\":4197:4219   */\n      add\n        /* \"#utility.yul\":4176:4229   */\n      tag_315\n      jump\t// in\n    tag_438:\n        /* \"#utility.yul\":4166:4229   */\n      swap2\n      pop\n        /* \"#utility.yul\":4121:4239   */\n      pop\n        /* \"#utility.yul\":3772:4246   */\n      swap3\n      pop\n      swap3\n      swap1\n      pop\n      jump\t// out\n        /* \"#utility.yul\":4252:4726   */\n    tag_47:\n        /* \"#utility.yul\":4320:4326   */\n      0x00\n        /* \"#utility.yul\":4328:4334   */\n      dup1\n        /* \"#utility.yul\":4377:4379   */\n      0x40\n        /* \"#utility.yul\":4365:4374   */\n      dup4\n        /* \"#utility.yul\":4356:4363   */\n      dup6\n        /* \"#utility.yul\":4352:4375   */\n      sub\n        /* \"#utility.yul\":4348:4380   */\n      slt\n        /* \"#utility.yul\":4345:4464   */\n      iszero\n      tag_440\n      jumpi\n        /* \"#utility.yul\":4383:4462   */\n      tag_441\n      tag_307\n      jump\t// in\n    tag_441:\n        /* \"#utility.yul\":4345:4464   */\n    tag_440:\n        /* \"#utility.yul\":4503:4504   */\n      0x00\n        /* \"#utility.yul\":4528:4581   */\n      tag_442\n        /* \"#utility.yul\":4573:4580   */\n      dup6\n        /* \"#utility.yul\":4564:4570   */\n      dup3\n        /* \"#utility.yul\":4553:4562   */\n      dup7\n        /* \"#utility.yul\":4549:4571   */\n      add\n        /* \"#utility.yul\":4528:4581   */\n      tag_312\n      jump\t// in\n    tag_442:\n        /* \"#utility.yul\":4518:4581   */\n      swap3\n      pop\n        /* \"#utility.yul\":4474:4591   */\n      pop\n        /* \"#utility.yul\":4630:4632   */\n      0x20\n        /* \"#utility.yul\":4656:4709   */\n      tag_443\n        /* \"#utility.yul\":4701:4708   */\n      dup6\n        /* \"#utility.yul\":4692:4698   */\n      dup3\n        /* \"#utility.yul\":4681:4690   */\n      dup7\n        /* \"#utility.yul\":4677:4699   */\n      add\n        /* \"#utility.yul\":4656:4709   */\n      tag_312\n      jump\t// in\n    tag_443:\n        /* \"#utility.yul\":4646:4709   */\n      swap2\n      pop\n        /* \"#utility.yul\":4601:4719   */\n      pop\n        /* \"#utility.yul\":4252:4726   */\n      swap3\n      pop\n      swap3\n      swap1\n      pop\n      jump\t// out\n        /* \"#utility.yul\":4732:4792   */\n    tag_316:\n        /* \"#utility.yul\":4760:4763   */\n      0x00\n        /* \"#utility.yul\":4781:4786   */\n      dup2\n        /* \"#utility.yul\":4774:4786   */\n      swap1\n      pop\n        /* \"#utility.yul\":4732:4792   */\n      swap2\n      swap1\n      pop\n      jump\t// out\n        /* \"#utility.yul\":4798:4940   */\n    tag_317:\n        /* \"#utility.yul\":4848:4857   */\n      0x00\n        /* \"#utility.yul\":4881:4934   */\n      tag_446\n        /* \"#utility.yul\":4899:4933   */\n      tag_447\n        /* \"#utility.yul\":4908:4932   */\n      tag_448\n        /* \"#utility.yul\":4926:4931   */\n      dup5\n        /* \"#utility.yul\":4908:4932   */\n      tag_309\n      jump\t// in\n    tag_448:\n        /* \"#utility.yul\":4899:4933   */\n      tag_316\n      jump\t// in\n    tag_447:\n        /* \"#utility.yul\":4881:4934   */\n      tag_309\n      jump\t// in\n    tag_446:\n        /* \"#utility.yul\":4868:4934   */\n      swap1\n      pop\n        /* \"#utility.yul\":4798:4940   */\n      swap2\n      swap1\n      pop\n      jump\t// out\n        /* \"#utility.yul\":4946:5072   */\n    tag_318:\n        /* \"#utility.yul\":4996:5005   */\n      0x00\n        /* \"#utility.yul\":5029:5066   */\n      tag_450\n        /* \"#utility.yul\":5060:5065   */\n      dup3\n        /* \"#utility.yul\":5029:5066   */\n      tag_317\n      jump\t// in\n    tag_450:\n        /* \"#utility.yul\":5016:5066   */\n      swap1\n      pop\n        /* \"#utility.yul\":4946:5072   */\n      swap2\n      swap1\n      pop\n      jump\t// out\n        /* \"#utility.yul\":5078:5220   */\n    tag_319:\n        /* \"#utility.yul\":5144:5153   */\n      0x00\n        /* \"#utility.yul\":5177:5214   */\n      tag_452\n        /* \"#utility.yul\":5208:5213   */\n      dup3\n        /* \"#utility.yul\":5177:5214   */\n      tag_318\n      jump\t// in\n    tag_452:\n        /* \"#utility.yul\":5164:5214   */\n      swap1\n      pop\n        /* \"#utility.yul\":5078:5220   */\n      swap2\n      swap1\n      pop\n      jump\t// out\n        /* \"#utility.yul\":5226:5389   */\n    tag_320:\n        /* \"#utility.yul\":5329:5382   */\n      tag_454\n        /* \"#utility.yul\":5376:5381   */\n      dup2\n        /* \"#utility.yul\":5329:5382   */\n      tag_319\n      jump\t// in\n    tag_454:\n        /* \"#utility.yul\":5324:5327   */\n      dup3\n        /* \"#utility.yul\":5317:5383   */\n      mstore\n        /* \"#utility.yul\":5226:5389   */\n      pop\n      pop\n      jump\t// out\n        /* \"#utility.yul\":5395:5649   */\n    tag_56:\n        /* \"#utility.yul\":5504:5508   */\n      0x00\n        /* \"#utility.yul\":5542:5544   */\n      0x20\n        /* \"#utility.yul\":5531:5540   */\n      dup3\n        /* \"#utility.yul\":5527:5545   */\n      add\n        /* \"#utility.yul\":5519:5545   */\n      swap1\n      pop\n        /* \"#utility.yul\":5555:5642   */\n      tag_456\n        /* \"#utility.yul\":5639:5640   */\n      0x00\n        /* \"#utility.yul\":5628:5637   */\n      dup4\n        /* \"#utility.yul\":5624:5641   */\n      add\n        /* \"#utility.yul\":5615:5621   */\n      dup5\n        /* \"#utility.yul\":5555:5642   */\n      tag_320\n      jump\t// in\n    tag_456:\n        /* \"#utility.yul\":5395:5649   */\n      swap3\n      swap2\n      pop\n      pop\n      jump\t// out\n        /* \"#utility.yul\":5655:5756   */\n    tag_321:\n        /* \"#utility.yul\":5691:5698   */\n      0x00\n        /* \"#utility.yul\":5731:5749   */\n      0xffffffffffffffff\n        /* \"#utility.yul\":5724:5729   */\n      dup3\n        /* \"#utility.yul\":5720:5750   */\n      and\n        /* \"#utility.yul\":5709:5750   */\n      swap1\n      pop\n        /* \"#utility.yul\":5655:5756   */\n      swap2\n      swap1\n      pop\n      jump\t// out\n        /* \"#utility.yul\":5762:5877   */\n    tag_322:\n        /* \"#utility.yul\":5847:5870   */\n      tag_459\n        /* \"#utility.yul\":5864:5869   */\n      dup2\n        /* \"#utility.yul\":5847:5870   */\n      tag_321\n      jump\t// in\n    tag_459:\n        /* \"#utility.yul\":5842:5845   */\n      dup3\n        /* \"#utility.yul\":5835:5871   */\n      mstore\n        /* \"#utility.yul\":5762:5877   */\n      pop\n      pop\n      jump\t// out\n        /* \"#utility.yul\":5883:5982   */\n    tag_323:\n        /* \"#utility.yul\":5935:5941   */\n      0x00\n        /* \"#utility.yul\":5969:5974   */\n      dup2\n        /* \"#utility.yul\":5963:5975   */\n      mload\n        /* \"#utility.yul\":5953:5975   */\n      swap1\n      pop\n        /* \"#utility.yul\":5883:5982   */\n      swap2\n      swap1\n      pop\n      jump\t// out\n        /* \"#utility.yul\":5988:6127   */\n    tag_324:\n        /* \"#utility.yul\":6077:6083   */\n      dup3\n        /* \"#utility.yul\":6072:6075   */\n      dup2\n        /* \"#utility.yul\":6067:6070   */\n      dup4\n        /* \"#utility.yul\":6061:6084   */\n      mcopy\n        /* \"#utility.yul\":6118:6119   */\n      0x00\n        /* \"#utility.yul\":6109:6115   */\n      dup4\n        /* \"#utility.yul\":6104:6107   */\n      dup4\n        /* \"#utility.yul\":6100:6116   */\n      add\n        /* \"#utility.yul\":6093:6120   */\n      mstore\n        /* \"#utility.yul\":5988:6127   */\n      pop\n      pop\n      pop\n      jump\t// out\n        /* \"#utility.yul\":6133:6235   */\n    tag_325:\n        /* \"#utility.yul\":6174:6180   */\n      0x00\n        /* \"#utility.yul\":6225:6227   */\n      0x1f\n        /* \"#utility.yul\":6221:6228   */\n      not\n        /* \"#utility.yul\":6216:6218   */\n      0x1f\n        /* \"#utility.yul\":6209:6214   */\n      dup4\n        /* \"#utility.yul\":6205:6219   */\n      add\n        /* \"#utility.yul\":6201:6229   */\n      and\n        /* \"#utility.yul\":6191:6229   */\n      swap1\n      pop\n        /* \"#utility.yul\":6133:6235   */\n      swap2\n      swap1\n      pop\n      jump\t// out\n        /* \"#utility.yul\":6241:6618   */\n    tag_326:\n        /* \"#utility.yul\":6329:6332   */\n      0x00\n        /* \"#utility.yul\":6357:6396   */\n      tag_464\n        /* \"#utility.yul\":6390:6395   */\n      dup3\n        /* \"#utility.yul\":6357:6396   */\n      tag_323\n      jump\t// in\n    tag_464:\n        /* \"#utility.yul\":6412:6483   */\n      tag_465\n        /* \"#utility.yul\":6476:6482   */\n      dup2\n        /* \"#utility.yul\":6471:6474   */\n      dup6\n        /* \"#utility.yul\":6412:6483   */\n      tag_303\n      jump\t// in\n    tag_465:\n        /* \"#utility.yul\":6405:6483   */\n      swap4\n      pop\n        /* \"#utility.yul\":6492:6557   */\n      tag_466\n        /* \"#utility.yul\":6550:6556   */\n      dup2\n        /* \"#utility.yul\":6545:6548   */\n      dup6\n        /* \"#utility.yul\":6538:6542   */\n      0x20\n        /* \"#utility.yul\":6531:6536   */\n      dup7\n        /* \"#utility.yul\":6527:6543   */\n      add\n        /* \"#utility.yul\":6492:6557   */\n      tag_324\n      jump\t// in\n    tag_466:\n        /* \"#utility.yul\":6582:6611   */\n      tag_467\n        /* \"#utility.yul\":6604:6610   */\n      dup2\n        /* \"#utility.yul\":6582:6611   */\n      tag_325\n      jump\t// in\n    tag_467:\n        /* \"#utility.yul\":6577:6580   */\n      dup5\n        /* \"#utility.yul\":6573:6612   */\n      add\n        /* \"#utility.yul\":6566:6612   */\n      swap2\n      pop\n        /* \"#utility.yul\":6333:6618   */\n      pop\n        /* \"#utility.yul\":6241:6618   */\n      swap3\n      swap2\n      pop\n      pop\n      jump\t// out\n        /* \"#utility.yul\":6624:7149   */\n    tag_61:\n        /* \"#utility.yul\":6789:6793   */\n      0x00\n        /* \"#utility.yul\":6827:6829   */\n      0x60\n        /* \"#utility.yul\":6816:6825   */\n      dup3\n        /* \"#utility.yul\":6812:6830   */\n      add\n        /* \"#utility.yul\":6804:6830   */\n      swap1\n      pop\n        /* \"#utility.yul\":6840:6909   */\n      tag_469\n        /* \"#utility.yul\":6906:6907   */\n      0x00\n        /* \"#utility.yul\":6895:6904   */\n      dup4\n        /* \"#utility.yul\":6891:6908   */\n      add\n        /* \"#utility.yul\":6882:6888   */\n      dup7\n        /* \"#utility.yul\":6840:6909   */\n      tag_322\n      jump\t// in\n    tag_469:\n        /* \"#utility.yul\":6919:6989   */\n      tag_470\n        /* \"#utility.yul\":6985:6987   */\n      0x20\n        /* \"#utility.yul\":6974:6983   */\n      dup4\n        /* \"#utility.yul\":6970:6988   */\n      add\n        /* \"#utility.yul\":6961:6967   */\n      dup6\n        /* \"#utility.yul\":6919:6989   */\n      tag_322\n      jump\t// in\n    tag_470:\n        /* \"#utility.yul\":7036:7045   */\n      dup2\n        /* \"#utility.yul\":7030:7034   */\n      dup2\n        /* \"#utility.yul\":7026:7046   */\n      sub\n        /* \"#utility.yul\":7021:7023   */\n      0x40\n        /* \"#utility.yul\":7010:7019   */\n      dup4\n        /* \"#utility.yul\":7006:7024   */\n      add\n        /* \"#utility.yul\":6999:7047   */\n      mstore\n        /* \"#utility.yul\":7064:7142   */\n      tag_471\n        /* \"#utility.yul\":7137:7141   */\n      dup2\n        /* \"#utility.yul\":7128:7134   */\n      dup5\n        /* \"#utility.yul\":7064:7142   */\n      tag_326\n      jump\t// in\n    tag_471:\n        /* \"#utility.yul\":7056:7142   */\n      swap1\n      pop\n        /* \"#utility.yul\":6624:7149   */\n      swap5\n      swap4\n      pop\n      pop\n      pop\n      pop\n      jump\t// out\n        /* \"#utility.yul\":7155:7275   */\n    tag_327:\n        /* \"#utility.yul\":7227:7250   */\n      tag_473\n        /* \"#utility.yul\":7244:7249   */\n      dup2\n        /* \"#utility.yul\":7227:7250   */\n      tag_321\n      jump\t// in\n    tag_473:\n        /* \"#utility.yul\":7220:7225   */\n      dup2\n        /* \"#utility.yul\":7217:7251   */\n      eq\n        /* \"#utility.yul\":7207:7269   */\n      tag_474\n      jumpi\n        /* \"#utility.yul\":7265:7266   */\n      0x00\n        /* \"#utility.yul\":7262:7263   */\n      dup1\n        /* \"#utility.yul\":7255:7267   */\n      revert\n        /* \"#utility.yul\":7207:7269   */\n    tag_474:\n        /* \"#utility.yul\":7155:7275   */\n      pop\n      jump\t// out\n        /* \"#utility.yul\":7281:7418   */\n    tag_328:\n        /* \"#utility.yul\":7326:7331   */\n      0x00\n        /* \"#utility.yul\":7364:7370   */\n      dup2\n        /* \"#utility.yul\":7351:7371   */\n      calldataload\n        /* \"#utility.yul\":7342:7371   */\n      swap1\n      pop\n        /* \"#utility.yul\":7380:7412   */\n      tag_476\n        /* \"#utility.yul\":7406:7411   */\n      dup2\n        /* \"#utility.yul\":7380:7412   */\n      tag_327\n      jump\t// in\n    tag_476:\n        /* \"#utility.yul\":7281:7418   */\n      swap3\n      swap2\n      pop\n      pop\n      jump\t// out\n        /* \"#utility.yul\":7424:7541   */\n    tag_329:\n        /* \"#utility.yul\":7533:7534   */\n      0x00\n        /* \"#utility.yul\":7530:7531   */\n      dup1\n        /* \"#utility.yul\":7523:7535   */\n      revert\n        /* \"#utility.yul\":7547:7664   */\n    tag_330:\n        /* \"#utility.yul\":7656:7657   */\n      0x00\n        /* \"#utility.yul\":7653:7654   */\n      dup1\n        /* \"#utility.yul\":7646:7658   */\n      revert\n        /* \"#utility.yul\":7670:7850   */\n    tag_331:\n        /* \"#utility.yul\":7718:7795   */\n      0x4e487b7100000000000000000000000000000000000000000000000000000000\n        /* \"#utility.yul\":7715:7716   */\n      0x00\n        /* \"#utility.yul\":7708:7796   */\n      mstore\n        /* \"#utility.yul\":7815:7819   */\n      0x41\n        /* \"#utility.yul\":7812:7813   */\n      0x04\n        /* \"#utility.yul\":7805:7820   */\n      mstore\n        /* \"#utility.yul\":7839:7843   */\n      0x24\n        /* \"#utility.yul\":7836:7837   */\n      0x00\n        /* \"#utility.yul\":7829:7844   */\n      revert\n        /* \"#utility.yul\":7856:8137   */\n    tag_332:\n        /* \"#utility.yul\":7939:7966   */\n      tag_481\n        /* \"#utility.yul\":7961:7965   */\n      dup3\n        /* \"#utility.yul\":7939:7966   */\n      tag_325\n      jump\t// in\n    tag_481:\n        /* \"#utility.yul\":7931:7937   */\n      dup2\n        /* \"#utility.yul\":7927:7967   */\n      add\n        /* \"#utility.yul\":8069:8075   */\n      dup2\n        /* \"#utility.yul\":8057:8067   */\n      dup2\n        /* \"#utility.yul\":8054:8076   */\n      lt\n        /* \"#utility.yul\":8033:8051   */\n      0xffffffffffffffff\n        /* \"#utility.yul\":8021:8031   */\n      dup3\n        /* \"#utility.yul\":8018:8052   */\n      gt\n        /* \"#utility.yul\":8015:8077   */\n      or\n        /* \"#utility.yul\":8012:8100   */\n      iszero\n      tag_482\n      jumpi\n        /* \"#utility.yul\":8080:8098   */\n      tag_483\n      tag_331\n      jump\t// in\n    tag_483:\n        /* \"#utility.yul\":8012:8100   */\n    tag_482:\n        /* \"#utility.yul\":8120:8130   */\n      dup1\n        /* \"#utility.yul\":8116:8118   */\n      0x40\n        /* \"#utility.yul\":8109:8131   */\n      mstore\n        /* \"#utility.yul\":7899:8137   */\n      pop\n        /* \"#utility.yul\":7856:8137   */\n      pop\n      pop\n      jump\t// out\n        /* \"#utility.yul\":8143:8272   */\n    tag_333:\n        /* \"#utility.yul\":8177:8183   */\n      0x00\n        /* \"#utility.yul\":8204:8224   */\n      tag_485\n      tag_306\n      jump\t// in\n    tag_485:\n        /* \"#utility.yul\":8194:8224   */\n      swap1\n      pop\n        /* \"#utility.yul\":8233:8266   */\n      tag_486\n        /* \"#utility.yul\":8261:8265   */\n      dup3\n        /* \"#utility.yul\":8253:8259   */\n      dup3\n        /* \"#utility.yul\":8233:8266   */\n      tag_332\n      jump\t// in\n    tag_486:\n        /* \"#utility.yul\":8143:8272   */\n      swap2\n      swap1\n      pop\n      jump\t// out\n        /* \"#utility.yul\":8278:8586   */\n    tag_334:\n        /* \"#utility.yul\":8340:8344   */\n      0x00\n        /* \"#utility.yul\":8430:8448   */\n      0xffffffffffffffff\n        /* \"#utility.yul\":8422:8428   */\n      dup3\n        /* \"#utility.yul\":8419:8449   */\n      gt\n        /* \"#utility.yul\":8416:8472   */\n      iszero\n      tag_488\n      jumpi\n        /* \"#utility.yul\":8452:8470   */\n      tag_489\n      tag_331\n      jump\t// in\n    tag_489:\n        /* \"#utility.yul\":8416:8472   */\n    tag_488:\n        /* \"#utility.yul\":8490:8519   */\n      tag_490\n        /* \"#utility.yul\":8512:8518   */\n      dup3\n        /* \"#utility.yul\":8490:8519   */\n      tag_325\n      jump\t// in\n    tag_490:\n        /* \"#utility.yul\":8482:8519   */\n      swap1\n      pop\n        /* \"#utility.yul\":8574:8578   */\n      0x20\n        /* \"#utility.yul\":8568:8572   */\n      dup2\n        /* \"#utility.yul\":8564:8579   */\n      add\n        /* \"#utility.yul\":8556:8579   */\n      swap1\n      pop\n        /* \"#utility.yul\":8278:8586   */\n      swap2\n      swap1\n      pop\n      jump\t// out\n        /* \"#utility.yul\":8592:8740   */\n    tag_335:\n        /* \"#utility.yul\":8690:8696   */\n      dup3\n        /* \"#utility.yul\":8685:8688   */\n      dup2\n        /* \"#utility.yul\":8680:8683   */\n      dup4\n        /* \"#utility.yul\":8667:8697   */\n      calldatacopy\n        /* \"#utility.yul\":8731:8732   */\n      0x00\n        /* \"#utility.yul\":8722:8728   */\n      dup4\n        /* \"#utility.yul\":8717:8720   */\n      dup4\n        /* \"#utility.yul\":8713:8729   */\n      add\n        /* \"#utility.yul\":8706:8733   */\n      mstore\n        /* \"#utility.yul\":8592:8740   */\n      pop\n      pop\n      pop\n      jump\t// out\n        /* \"#utility.yul\":8746:9171   */\n    tag_336:\n        /* \"#utility.yul\":8824:8829   */\n      0x00\n        /* \"#utility.yul\":8849:8915   */\n      tag_493\n        /* \"#utility.yul\":8865:8914   */\n      tag_494\n        /* \"#utility.yul\":8907:8913   */\n      dup5\n        /* \"#utility.yul\":8865:8914   */\n      tag_334\n      jump\t// in\n    tag_494:\n        /* \"#utility.yul\":8849:8915   */\n      tag_333\n      jump\t// in\n    tag_493:\n        /* \"#utility.yul\":8840:8915   */\n      swap1\n      pop\n        /* \"#utility.yul\":8938:8944   */\n      dup3\n        /* \"#utility.yul\":8931:8936   */\n      dup2\n        /* \"#utility.yul\":8924:8945   */\n      mstore\n        /* \"#utility.yul\":8976:8980   */\n      0x20\n        /* \"#utility.yul\":8969:8974   */\n      dup2\n        /* \"#utility.yul\":8965:8981   */\n      add\n        /* \"#utility.yul\":9014:9017   */\n      dup5\n        /* \"#utility.yul\":9005:9011   */\n      dup5\n        /* \"#utility.yul\":9000:9003   */\n      dup5\n        /* \"#utility.yul\":8996:9012   */\n      add\n        /* \"#utility.yul\":8993:9018   */\n      gt\n        /* \"#utility.yul\":8990:9102   */\n      iszero\n      tag_495\n      jumpi\n        /* \"#utility.yul\":9021:9100   */\n      tag_496\n      tag_330\n      jump\t// in\n    tag_496:\n        /* \"#utility.yul\":8990:9102   */\n    tag_495:\n        /* \"#utility.yul\":9111:9165   */\n      tag_497\n        /* \"#utility.yul\":9158:9164   */\n      dup5\n        /* \"#utility.yul\":9153:9156   */\n      dup3\n        /* \"#utility.yul\":9148:9151   */\n      dup6\n        /* \"#utility.yul\":9111:9165   */\n      tag_335\n      jump\t// in\n    tag_497:\n        /* \"#utility.yul\":8830:9171   */\n      pop\n        /* \"#utility.yul\":8746:9171   */\n      swap4\n      swap3\n      pop\n      pop\n      pop\n      jump\t// out\n        /* \"#utility.yul\":9191:9531   */\n    tag_337:\n        /* \"#utility.yul\":9247:9252   */\n      0x00\n        /* \"#utility.yul\":9296:9299   */\n      dup3\n        /* \"#utility.yul\":9289:9293   */\n      0x1f\n        /* \"#utility.yul\":9281:9287   */\n      dup4\n        /* \"#utility.yul\":9277:9294   */\n      add\n        /* \"#utility.yul\":9273:9300   */\n      slt\n        /* \"#utility.yul\":9263:9385   */\n      tag_499\n      jumpi\n        /* \"#utility.yul\":9304:9383   */\n      tag_500\n      tag_329\n      jump\t// in\n    tag_500:\n        /* \"#utility.yul\":9263:9385   */\n    tag_499:\n        /* \"#utility.yul\":9421:9427   */\n      dup2\n        /* \"#utility.yul\":9408:9428   */\n      calldataload\n        /* \"#utility.yul\":9446:9525   */\n      tag_501\n        /* \"#utility.yul\":9521:9524   */\n      dup5\n        /* \"#utility.yul\":9513:9519   */\n      dup3\n        /* \"#utility.yul\":9506:9510   */\n      0x20\n        /* \"#utility.yul\":9498:9504   */\n      dup7\n        /* \"#utility.yul\":9494:9511   */\n      add\n        /* \"#utility.yul\":9446:9525   */\n      tag_336\n      jump\t// in\n    tag_501:\n        /* \"#utility.yul\":9437:9525   */\n      swap2\n      pop\n        /* \"#utility.yul\":9253:9531   */\n      pop\n        /* \"#utility.yul\":9191:9531   */\n      swap3\n      swap2\n      pop\n      pop\n      jump\t// out\n        /* \"#utility.yul\":9537:10332   */\n    tag_69:\n        /* \"#utility.yul\":9622:9628   */\n      0x00\n        /* \"#utility.yul\":9630:9636   */\n      dup1\n        /* \"#utility.yul\":9638:9644   */\n      0x00\n        /* \"#utility.yul\":9687:9689   */\n      0x60\n        /* \"#utility.yul\":9675:9684   */\n      dup5\n        /* \"#utility.yul\":9666:9673   */\n      dup7\n        /* \"#utility.yul\":9662:9685   */\n      sub\n        /* \"#utility.yul\":9658:9690   */\n      slt\n        /* \"#utility.yul\":9655:9774   */\n      iszero\n      tag_503\n      jumpi\n        /* \"#utility.yul\":9693:9772   */\n      tag_504\n      tag_307\n      jump\t// in\n    tag_504:\n        /* \"#utility.yul\":9655:9774   */\n    tag_503:\n        /* \"#utility.yul\":9813:9814   */\n      0x00\n        /* \"#utility.yul\":9838:9890   */\n      tag_505\n        /* \"#utility.yul\":9882:9889   */\n      dup7\n        /* \"#utility.yul\":9873:9879   */\n      dup3\n        /* \"#utility.yul\":9862:9871   */\n      dup8\n        /* \"#utility.yul\":9858:9880   */\n      add\n        /* \"#utility.yul\":9838:9890   */\n      tag_328\n      jump\t// in\n    tag_505:\n        /* \"#utility.yul\":9828:9890   */\n      swap4\n      pop\n        /* \"#utility.yul\":9784:9900   */\n      pop\n        /* \"#utility.yul\":9939:9941   */\n      0x20\n        /* \"#utility.yul\":9965:10017   */\n      tag_506\n        /* \"#utility.yul\":10009:10016   */\n      dup7\n        /* \"#utility.yul\":10000:10006   */\n      dup3\n        /* \"#utility.yul\":9989:9998   */\n      dup8\n        /* \"#utility.yul\":9985:10007   */\n      add\n        /* \"#utility.yul\":9965:10017   */\n      tag_328\n      jump\t// in\n    tag_506:\n        /* \"#utility.yul\":9955:10017   */\n      swap3\n      pop\n        /* \"#utility.yul\":9910:10027   */\n      pop\n        /* \"#utility.yul\":10094:10096   */\n      0x40\n        /* \"#utility.yul\":10083:10092   */\n      dup5\n        /* \"#utility.yul\":10079:10097   */\n      add\n        /* \"#utility.yul\":10066:10098   */\n      calldataload\n        /* \"#utility.yul\":10125:10143   */\n      0xffffffffffffffff\n        /* \"#utility.yul\":10117:10123   */\n      dup2\n        /* \"#utility.yul\":10114:10144   */\n      gt\n        /* \"#utility.yul\":10111:10228   */\n      iszero\n      tag_507\n      jumpi\n        /* \"#utility.yul\":10147:10226   */\n      tag_508\n      tag_308\n      jump\t// in\n    tag_508:\n        /* \"#utility.yul\":10111:10228   */\n    tag_507:\n        /* \"#utility.yul\":10252:10315   */\n      tag_509\n        /* \"#utility.yul\":10307:10314   */\n      dup7\n        /* \"#utility.yul\":10298:10304   */\n      dup3\n        /* \"#utility.yul\":10287:10296   */\n      dup8\n        /* \"#utility.yul\":10283:10305   */\n      add\n        /* \"#utility.yul\":10252:10315   */\n      tag_337\n      jump\t// in\n    tag_509:\n        /* \"#utility.yul\":10242:10315   */\n      swap2\n      pop\n        /* \"#utility.yul\":10037:10325   */\n      pop\n        /* \"#utility.yul\":9537:10332   */\n      swap3\n      pop\n      swap3\n      pop\n      swap3\n      jump\t// out\n        /* \"#utility.yul\":10338:10957   */\n    tag_84:\n        /* \"#utility.yul\":10415:10421   */\n      0x00\n        /* \"#utility.yul\":10423:10429   */\n      dup1\n        /* \"#utility.yul\":10431:10437   */\n      0x00\n        /* \"#utility.yul\":10480:10482   */\n      0x60\n        /* \"#utility.yul\":10468:10477   */\n      dup5\n        /* \"#utility.yul\":10459:10466   */\n      dup7\n        /* \"#utility.yul\":10455:10478   */\n      sub\n        /* \"#utility.yul\":10451:10483   */\n      slt\n        /* \"#utility.yul\":10448:10567   */\n      iszero\n      tag_511\n      jumpi\n        /* \"#utility.yul\":10486:10565   */\n      tag_512\n      tag_307\n      jump\t// in\n    tag_512:\n        /* \"#utility.yul\":10448:10567   */\n    tag_511:\n        /* \"#utility.yul\":10606:10607   */\n      0x00\n        /* \"#utility.yul\":10631:10684   */\n      tag_513\n        /* \"#utility.yul\":10676:10683   */\n      dup7\n        /* \"#utility.yul\":10667:10673   */\n      dup3\n        /* \"#utility.yul\":10656:10665   */\n      dup8\n        /* \"#utility.yul\":10652:10674   */\n      add\n        /* \"#utility.yul\":10631:10684   */\n      tag_312\n      jump\t// in\n    tag_513:\n        /* \"#utility.yul\":10621:10684   */\n      swap4\n      pop\n        /* \"#utility.yul\":10577:10694   */\n      pop\n        /* \"#utility.yul\":10733:10735   */\n      0x20\n        /* \"#utility.yul\":10759:10812   */\n      tag_514\n        /* \"#utility.yul\":10804:10811   */\n      dup7\n        /* \"#utility.yul\":10795:10801   */\n      dup3\n        /* \"#utility.yul\":10784:10793   */\n      dup8\n        /* \"#utility.yul\":10780:10802   */\n      add\n        /* \"#utility.yul\":10759:10812   */\n      tag_312\n      jump\t// in\n    tag_514:\n        /* \"#utility.yul\":10749:10812   */\n      swap3\n      pop\n        /* \"#utility.yul\":10704:10822   */\n      pop\n        /* \"#utility.yul\":10861:10863   */\n      0x40\n        /* \"#utility.yul\":10887:10940   */\n      tag_515\n        /* \"#utility.yul\":10932:10939   */\n      dup7\n        /* \"#utility.yul\":10923:10929   */\n      dup3\n        /* \"#utility.yul\":10912:10921   */\n      dup8\n        /* \"#utility.yul\":10908:10930   */\n      add\n        /* \"#utility.yul\":10887:10940   */\n      tag_315\n      jump\t// in\n    tag_515:\n        /* \"#utility.yul\":10877:10940   */\n      swap2\n      pop\n        /* \"#utility.yul\":10832:10950   */\n      pop\n        /* \"#utility.yul\":10338:10957   */\n      swap3\n      pop\n      swap3\n      pop\n      swap3\n      jump\t// out\n        /* \"#utility.yul\":10963:11103   */\n    tag_338:\n        /* \"#utility.yul\":11012:11021   */\n      0x00\n        /* \"#utility.yul\":11045:11097   */\n      tag_517\n        /* \"#utility.yul\":11063:11096   */\n      tag_518\n        /* \"#utility.yul\":11072:11095   */\n      tag_519\n        /* \"#utility.yul\":11089:11094   */\n      dup5\n        /* \"#utility.yul\":11072:11095   */\n      tag_321\n      jump\t// in\n    tag_519:\n        /* \"#utility.yul\":11063:11096   */\n      tag_316\n      jump\t// in\n    tag_518:\n        /* \"#utility.yul\":11045:11097   */\n      tag_300\n      jump\t// in\n    tag_517:\n        /* \"#utility.yul\":11032:11097   */\n      swap1\n      pop\n        /* \"#utility.yul\":10963:11103   */\n      swap2\n      swap1\n      pop\n      jump\t// out\n        /* \"#utility.yul\":11109:11238   */\n    tag_339:\n        /* \"#utility.yul\":11195:11231   */\n      tag_521\n        /* \"#utility.yul\":11225:11230   */\n      dup2\n        /* \"#utility.yul\":11195:11231   */\n      tag_338\n      jump\t// in\n    tag_521:\n        /* \"#utility.yul\":11190:11193   */\n      dup3\n        /* \"#utility.yul\":11183:11232   */\n      mstore\n        /* \"#utility.yul\":11109:11238   */\n      pop\n      pop\n      jump\t// out\n        /* \"#utility.yul\":11244:11682   */\n    tag_101:\n        /* \"#utility.yul\":11391:11395   */\n      0x00\n        /* \"#utility.yul\":11429:11431   */\n      0x60\n        /* \"#utility.yul\":11418:11427   */\n      dup3\n        /* \"#utility.yul\":11414:11432   */\n      add\n        /* \"#utility.yul\":11406:11432   */\n      swap1\n      pop\n        /* \"#utility.yul\":11442:11513   */\n      tag_523\n        /* \"#utility.yul\":11510:11511   */\n      0x00\n        /* \"#utility.yul\":11499:11508   */\n      dup4\n        /* \"#utility.yul\":11495:11512   */\n      add\n        /* \"#utility.yul\":11486:11492   */\n      dup7\n        /* \"#utility.yul\":11442:11513   */\n      tag_302\n      jump\t// in\n    tag_523:\n        /* \"#utility.yul\":11523:11594   */\n      tag_524\n        /* \"#utility.yul\":11590:11592   */\n      0x20\n        /* \"#utility.yul\":11579:11588   */\n      dup4\n        /* \"#utility.yul\":11575:11593   */\n      add\n        /* \"#utility.yul\":11566:11572   */\n      dup6\n        /* \"#utility.yul\":11523:11594   */\n      tag_339\n      jump\t// in\n    tag_524:\n        /* \"#utility.yul\":11604:11675   */\n      tag_525\n        /* \"#utility.yul\":11671:11673   */\n      0x40\n        /* \"#utility.yul\":11660:11669   */\n      dup4\n        /* \"#utility.yul\":11656:11674   */\n      add\n        /* \"#utility.yul\":11647:11653   */\n      dup5\n        /* \"#utility.yul\":11604:11675   */\n      tag_339\n      jump\t// in\n    tag_525:\n        /* \"#utility.yul\":11244:11682   */\n      swap5\n      swap4\n      pop\n      pop\n      pop\n      pop\n      jump\t// out\n        /* \"#utility.yul\":11688:11857   */\n    tag_340:\n        /* \"#utility.yul\":11828:11849   */\n      0x4e6f20636c61696d61626c6520616d6f756e7400000000000000000000000000\n        /* \"#utility.yul\":11824:11825   */\n      0x00\n        /* \"#utility.yul\":11816:11822   */\n      dup3\n        /* \"#utility.yul\":11812:11826   */\n      add\n        /* \"#utility.yul\":11805:11850   */\n      mstore\n        /* \"#utility.yul\":11688:11857   */\n      pop\n      jump\t// out\n        /* \"#utility.yul\":11863:12229   */\n    tag_341:\n        /* \"#utility.yul\":12005:12008   */\n      0x00\n        /* \"#utility.yul\":12026:12093   */\n      tag_528\n        /* \"#utility.yul\":12090:12092   */\n      0x13\n        /* \"#utility.yul\":12085:12088   */\n      dup4\n        /* \"#utility.yul\":12026:12093   */\n      tag_303\n      jump\t// in\n    tag_528:\n        /* \"#utility.yul\":12019:12093   */\n      swap2\n      pop\n        /* \"#utility.yul\":12102:12195   */\n      tag_529\n        /* \"#utility.yul\":12191:12194   */\n      dup3\n        /* \"#utility.yul\":12102:12195   */\n      tag_340\n      jump\t// in\n    tag_529:\n        /* \"#utility.yul\":12220:12222   */\n      0x20\n        /* \"#utility.yul\":12215:12218   */\n      dup3\n        /* \"#utility.yul\":12211:12223   */\n      add\n        /* \"#utility.yul\":12204:12223   */\n      swap1\n      pop\n        /* \"#utility.yul\":11863:12229   */\n      swap2\n      swap1\n      pop\n      jump\t// out\n        /* \"#utility.yul\":12235:12654   */\n    tag_104:\n        /* \"#utility.yul\":12401:12405   */\n      0x00\n        /* \"#utility.yul\":12439:12441   */\n      0x20\n        /* \"#utility.yul\":12428:12437   */\n      dup3\n        /* \"#utility.yul\":12424:12442   */\n      add\n        /* \"#utility.yul\":12416:12442   */\n      swap1\n      pop\n        /* \"#utility.yul\":12488:12497   */\n      dup2\n        /* \"#utility.yul\":12482:12486   */\n      dup2\n        /* \"#utility.yul\":12478:12498   */\n      sub\n        /* \"#utility.yul\":12474:12475   */\n      0x00\n        /* \"#utility.yul\":12463:12472   */\n      dup4\n        /* \"#utility.yul\":12459:12476   */\n      add\n        /* \"#utility.yul\":12452:12499   */\n      mstore\n        /* \"#utility.yul\":12516:12647   */\n      tag_531\n        /* \"#utility.yul\":12642:12646   */\n      dup2\n        /* \"#utility.yul\":12516:12647   */\n      tag_341\n      jump\t// in\n    tag_531:\n        /* \"#utility.yul\":12508:12647   */\n      swap1\n      pop\n        /* \"#utility.yul\":12235:12654   */\n      swap2\n      swap1\n      pop\n      jump\t// out\n        /* \"#utility.yul\":12660:12835   */\n    tag_342:\n        /* \"#utility.yul\":12800:12827   */\n      0x496e73756666696369656e742066756e647320696e206a617200000000000000\n        /* \"#utility.yul\":12796:12797   */\n      0x00\n        /* \"#utility.yul\":12788:12794   */\n      dup3\n        /* \"#utility.yul\":12784:12798   */\n      add\n        /* \"#utility.yul\":12777:12828   */\n      mstore\n        /* \"#utility.yul\":12660:12835   */\n      pop\n      jump\t// out\n        /* \"#utility.yul\":12841:13207   */\n    tag_343:\n        /* \"#utility.yul\":12983:12986   */\n      0x00\n        /* \"#utility.yul\":13004:13071   */\n      tag_534\n        /* \"#utility.yul\":13068:13070   */\n      0x19\n        /* \"#utility.yul\":13063:13066   */\n      dup4\n        /* \"#utility.yul\":13004:13071   */\n      tag_303\n      jump\t// in\n    tag_534:\n        /* \"#utility.yul\":12997:13071   */\n      swap2\n      pop\n        /* \"#utility.yul\":13080:13173   */\n      tag_535\n        /* \"#utility.yul\":13169:13172   */\n      dup3\n        /* \"#utility.yul\":13080:13173   */\n      tag_342\n      jump\t// in\n    tag_535:\n        /* \"#utility.yul\":13198:13200   */\n      0x20\n        /* \"#utility.yul\":13193:13196   */\n      dup3\n        /* \"#utility.yul\":13189:13201   */\n      add\n        /* \"#utility.yul\":13182:13201   */\n      swap1\n      pop\n        /* \"#utility.yul\":12841:13207   */\n      swap2\n      swap1\n      pop\n      jump\t// out\n        /* \"#utility.yul\":13213:13632   */\n    tag_107:\n        /* \"#utility.yul\":13379:13383   */\n      0x00\n        /* \"#utility.yul\":13417:13419   */\n      0x20\n        /* \"#utility.yul\":13406:13415   */\n      dup3\n        /* \"#utility.yul\":13402:13420   */\n      add\n        /* \"#utility.yul\":13394:13420   */\n      swap1\n      pop\n        /* \"#utility.yul\":13466:13475   */\n      dup2\n        /* \"#utility.yul\":13460:13464   */\n      dup2\n        /* \"#utility.yul\":13456:13476   */\n      sub\n        /* \"#utility.yul\":13452:13453   */\n      0x00\n        /* \"#utility.yul\":13441:13450   */\n      dup4\n        /* \"#utility.yul\":13437:13454   */\n      add\n        /* \"#utility.yul\":13430:13477   */\n      mstore\n        /* \"#utility.yul\":13494:13625   */\n      tag_537\n        /* \"#utility.yul\":13620:13624   */\n      dup2\n        /* \"#utility.yul\":13494:13625   */\n      tag_343\n      jump\t// in\n    tag_537:\n        /* \"#utility.yul\":13486:13625   */\n      swap1\n      pop\n        /* \"#utility.yul\":13213:13632   */\n      swap2\n      swap1\n      pop\n      jump\t// out\n        /* \"#utility.yul\":13638:13793   */\n    tag_344:\n        /* \"#utility.yul\":13778:13785   */\n      0x5472757374000000000000000000000000000000000000000000000000000000\n        /* \"#utility.yul\":13774:13775   */\n      0x00\n        /* \"#utility.yul\":13766:13772   */\n      dup3\n        /* \"#utility.yul\":13762:13776   */\n      add\n        /* \"#utility.yul\":13755:13786   */\n      mstore\n        /* \"#utility.yul\":13638:13793   */\n      pop\n      jump\t// out\n        /* \"#utility.yul\":13799:14164   */\n    tag_345:\n        /* \"#utility.yul\":13941:13944   */\n      0x00\n        /* \"#utility.yul\":13962:14028   */\n      tag_540\n        /* \"#utility.yul\":14026:14027   */\n      0x05\n        /* \"#utility.yul\":14021:14024   */\n      dup4\n        /* \"#utility.yul\":13962:14028   */\n      tag_303\n      jump\t// in\n    tag_540:\n        /* \"#utility.yul\":13955:14028   */\n      swap2\n      pop\n        /* \"#utility.yul\":14037:14130   */\n      tag_541\n        /* \"#utility.yul\":14126:14129   */\n      dup3\n        /* \"#utility.yul\":14037:14130   */\n      tag_344\n      jump\t// in\n    tag_541:\n        /* \"#utility.yul\":14155:14157   */\n      0x20\n        /* \"#utility.yul\":14150:14153   */\n      dup3\n        /* \"#utility.yul\":14146:14158   */\n      add\n        /* \"#utility.yul\":14139:14158   */\n      swap1\n      pop\n        /* \"#utility.yul\":13799:14164   */\n      swap2\n      swap1\n      pop\n      jump\t// out\n        /* \"#utility.yul\":14170:14699   */\n    tag_109:\n        /* \"#utility.yul\":14364:14368   */\n      0x00\n        /* \"#utility.yul\":14402:14404   */\n      0x40\n        /* \"#utility.yul\":14391:14400   */\n      dup3\n        /* \"#utility.yul\":14387:14405   */\n      add\n        /* \"#utility.yul\":14379:14405   */\n      swap1\n      pop\n        /* \"#utility.yul\":14415:14486   */\n      tag_543\n        /* \"#utility.yul\":14483:14484   */\n      0x00\n        /* \"#utility.yul\":14472:14481   */\n      dup4\n        /* \"#utility.yul\":14468:14485   */\n      add\n        /* \"#utility.yul\":14459:14465   */\n      dup5\n        /* \"#utility.yul\":14415:14486   */\n      tag_313\n      jump\t// in\n    tag_543:\n        /* \"#utility.yul\":14533:14542   */\n      dup2\n        /* \"#utility.yul\":14527:14531   */\n      dup2\n        /* \"#utility.yul\":14523:14543   */\n      sub\n        /* \"#utility.yul\":14518:14520   */\n      0x20\n        /* \"#utility.yul\":14507:14516   */\n      dup4\n        /* \"#utility.yul\":14503:14521   */\n      add\n        /* \"#utility.yul\":14496:14544   */\n      mstore\n        /* \"#utility.yul\":14561:14692   */\n      tag_544\n        /* \"#utility.yul\":14687:14691   */\n      dup2\n        /* \"#utility.yul\":14561:14692   */\n      tag_345\n      jump\t// in\n    tag_544:\n        /* \"#utility.yul\":14553:14692   */\n      swap1\n      pop\n        /* \"#utility.yul\":14170:14699   */\n      swap3\n      swap2\n      pop\n      pop\n      jump\t// out\n        /* \"#utility.yul\":14705:14848   */\n    tag_346:\n        /* \"#utility.yul\":14762:14767   */\n      0x00\n        /* \"#utility.yul\":14793:14799   */\n      dup2\n        /* \"#utility.yul\":14787:14800   */\n      mload\n        /* \"#utility.yul\":14778:14800   */\n      swap1\n      pop\n        /* \"#utility.yul\":14809:14842   */\n      tag_546\n        /* \"#utility.yul\":14836:14841   */\n      dup2\n        /* \"#utility.yul\":14809:14842   */\n      tag_314\n      jump\t// in\n    tag_546:\n        /* \"#utility.yul\":14705:14848   */\n      swap3\n      swap2\n      pop\n      pop\n      jump\t// out\n        /* \"#utility.yul\":14854:15205   */\n    tag_113:\n        /* \"#utility.yul\":14924:14930   */\n      0x00\n        /* \"#utility.yul\":14973:14975   */\n      0x20\n        /* \"#utility.yul\":14961:14970   */\n      dup3\n        /* \"#utility.yul\":14952:14959   */\n      dup5\n        /* \"#utility.yul\":14948:14971   */\n      sub\n        /* \"#utility.yul\":14944:14976   */\n      slt\n        /* \"#utility.yul\":14941:15060   */\n      iszero\n      tag_548\n      jumpi\n        /* \"#utility.yul\":14979:15058   */\n      tag_549\n      tag_307\n      jump\t// in\n    tag_549:\n        /* \"#utility.yul\":14941:15060   */\n    tag_548:\n        /* \"#utility.yul\":15099:15100   */\n      0x00\n        /* \"#utility.yul\":15124:15188   */\n      tag_550\n        /* \"#utility.yul\":15180:15187   */\n      dup5\n        /* \"#utility.yul\":15171:15177   */\n      dup3\n        /* \"#utility.yul\":15160:15169   */\n      dup6\n        /* \"#utility.yul\":15156:15178   */\n      add\n        /* \"#utility.yul\":15124:15188   */\n      tag_346\n      jump\t// in\n    tag_550:\n        /* \"#utility.yul\":15114:15188   */\n      swap2\n      pop\n        /* \"#utility.yul\":15070:15198   */\n      pop\n        /* \"#utility.yul\":14854:15205   */\n      swap3\n      swap2\n      pop\n      pop\n      jump\t// out\n        /* \"#utility.yul\":15211:15385   */\n    tag_347:\n        /* \"#utility.yul\":15351:15377   */\n      0x496e73756666696369656e742054727573742073636f72650000000000000000\n        /* \"#utility.yul\":15347:15348   */\n      0x00\n        /* \"#utility.yul\":15339:15345   */\n      dup3\n        /* \"#utility.yul\":15335:15349   */\n      add\n        /* \"#utility.yul\":15328:15378   */\n      mstore\n        /* \"#utility.yul\":15211:15385   */\n      pop\n      jump\t// out\n        /* \"#utility.yul\":15391:15757   */\n    tag_348:\n        /* \"#utility.yul\":15533:15536   */\n      0x00\n        /* \"#utility.yul\":15554:15621   */\n      tag_553\n        /* \"#utility.yul\":15618:15620   */\n      0x18\n        /* \"#utility.yul\":15613:15616   */\n      dup4\n        /* \"#utility.yul\":15554:15621   */\n      tag_303\n      jump\t// in\n    tag_553:\n        /* \"#utility.yul\":15547:15621   */\n      swap2\n      pop\n        /* \"#utility.yul\":15630:15723   */\n      tag_554\n        /* \"#utility.yul\":15719:15722   */\n      dup3\n        /* \"#utility.yul\":15630:15723   */\n      tag_347\n      jump\t// in\n    tag_554:\n        /* \"#utility.yul\":15748:15750   */\n      0x20\n        /* \"#utility.yul\":15743:15746   */\n      dup3\n        /* \"#utility.yul\":15739:15751   */\n      add\n        /* \"#utility.yul\":15732:15751   */\n      swap1\n      pop\n        /* \"#utility.yul\":15391:15757   */\n      swap2\n      swap1\n      pop\n      jump\t// out\n        /* \"#utility.yul\":15763:16182   */\n    tag_116:\n        /* \"#utility.yul\":15929:15933   */\n      0x00\n        /* \"#utility.yul\":15967:15969   */\n      0x20\n        /* \"#utility.yul\":15956:15965   */\n      dup3\n        /* \"#utility.yul\":15952:15970   */\n      add\n        /* \"#utility.yul\":15944:15970   */\n      swap1\n      pop\n        /* \"#utility.yul\":16016:16025   */\n      dup2\n        /* \"#utility.yul\":16010:16014   */\n      dup2\n        /* \"#utility.yul\":16006:16026   */\n      sub\n        /* \"#utility.yul\":16002:16003   */\n      0x00\n        /* \"#utility.yul\":15991:16000   */\n      dup4\n        /* \"#utility.yul\":15987:16004   */\n      add\n        /* \"#utility.yul\":15980:16027   */\n      mstore\n        /* \"#utility.yul\":16044:16175   */\n      tag_556\n        /* \"#utility.yul\":16170:16174   */\n      dup2\n        /* \"#utility.yul\":16044:16175   */\n      tag_348\n      jump\t// in\n    tag_556:\n        /* \"#utility.yul\":16036:16175   */\n      swap1\n      pop\n        /* \"#utility.yul\":15763:16182   */\n      swap2\n      swap1\n      pop\n      jump\t// out\n        /* \"#utility.yul\":16188:16382   */\n    tag_118:\n        /* \"#utility.yul\":16228:16232   */\n      0x00\n        /* \"#utility.yul\":16248:16268   */\n      tag_558\n        /* \"#utility.yul\":16266:16267   */\n      dup3\n        /* \"#utility.yul\":16248:16268   */\n      tag_300\n      jump\t// in\n    tag_558:\n        /* \"#utility.yul\":16243:16268   */\n      swap2\n      pop\n        /* \"#utility.yul\":16282:16302   */\n      tag_559\n        /* \"#utility.yul\":16300:16301   */\n      dup4\n        /* \"#utility.yul\":16282:16302   */\n      tag_300\n      jump\t// in\n    tag_559:\n        /* \"#utility.yul\":16277:16302   */\n      swap3\n      pop\n        /* \"#utility.yul\":16326:16327   */\n      dup3\n        /* \"#utility.yul\":16323:16324   */\n      dup3\n        /* \"#utility.yul\":16319:16328   */\n      sub\n        /* \"#utility.yul\":16311:16328   */\n      swap1\n      pop\n        /* \"#utility.yul\":16350:16351   */\n      dup2\n        /* \"#utility.yul\":16344:16348   */\n      dup2\n        /* \"#utility.yul\":16341:16352   */\n      gt\n        /* \"#utility.yul\":16338:16375   */\n      iszero\n      tag_560\n      jumpi\n        /* \"#utility.yul\":16355:16373   */\n      tag_561\n      tag_301\n      jump\t// in\n    tag_561:\n        /* \"#utility.yul\":16338:16375   */\n    tag_560:\n        /* \"#utility.yul\":16188:16382   */\n      swap3\n      swap2\n      pop\n      pop\n      jump\t// out\n        /* \"#utility.yul\":16388:16535   */\n    tag_349:\n        /* \"#utility.yul\":16489:16500   */\n      0x00\n        /* \"#utility.yul\":16526:16529   */\n      dup2\n        /* \"#utility.yul\":16511:16529   */\n      swap1\n      pop\n        /* \"#utility.yul\":16388:16535   */\n      swap3\n      swap2\n      pop\n      pop\n      jump\t// out\n        /* \"#utility.yul\":16541:16655   */\n    tag_350:\n      pop\n      jump\t// out\n        /* \"#utility.yul\":16661:17059   */\n    tag_351:\n        /* \"#utility.yul\":16820:16823   */\n      0x00\n        /* \"#utility.yul\":16841:16924   */\n      tag_565\n        /* \"#utility.yul\":16922:16923   */\n      0x00\n        /* \"#utility.yul\":16917:16920   */\n      dup4\n        /* \"#utility.yul\":16841:16924   */\n      tag_349\n      jump\t// in\n    tag_565:\n        /* \"#utility.yul\":16834:16924   */\n      swap2\n      pop\n        /* \"#utility.yul\":16933:17026   */\n      tag_566\n        /* \"#utility.yul\":17022:17025   */\n      dup3\n        /* \"#utility.yul\":16933:17026   */\n      tag_350\n      jump\t// in\n    tag_566:\n        /* \"#utility.yul\":17051:17052   */\n      0x00\n        /* \"#utility.yul\":17046:17049   */\n      dup3\n        /* \"#utility.yul\":17042:17053   */\n      add\n        /* \"#utility.yul\":17035:17053   */\n      swap1\n      pop\n        /* \"#utility.yul\":16661:17059   */\n      swap2\n      swap1\n      pop\n      jump\t// out\n        /* \"#utility.yul\":17065:17444   */\n    tag_121:\n        /* \"#utility.yul\":17249:17252   */\n      0x00\n        /* \"#utility.yul\":17271:17418   */\n      tag_568\n        /* \"#utility.yul\":17414:17417   */\n      dup3\n        /* \"#utility.yul\":17271:17418   */\n      tag_351\n      jump\t// in\n    tag_568:\n        /* \"#utility.yul\":17264:17418   */\n      swap2\n      pop\n        /* \"#utility.yul\":17435:17438   */\n      dup2\n        /* \"#utility.yul\":17428:17438   */\n      swap1\n      pop\n        /* \"#utility.yul\":17065:17444   */\n      swap2\n      swap1\n      pop\n      jump\t// out\n        /* \"#utility.yul\":17450:17621   */\n    tag_352:\n        /* \"#utility.yul\":17590:17613   */\n      0x4574686572207472616e73666572206661696c65640000000000000000000000\n        /* \"#utility.yul\":17586:17587   */\n      0x00\n        /* \"#utility.yul\":17578:17584   */\n      dup3\n        /* \"#utility.yul\":17574:17588   */\n      add\n        /* \"#utility.yul\":17567:17614   */\n      mstore\n        /* \"#utility.yul\":17450:17621   */\n      pop\n      jump\t// out\n        /* \"#utility.yul\":17627:17993   */\n    tag_353:\n        /* \"#utility.yul\":17769:17772   */\n      0x00\n        /* \"#utility.yul\":17790:17857   */\n      tag_571\n        /* \"#utility.yul\":17854:17856   */\n      0x15\n        /* \"#utility.yul\":17849:17852   */\n      dup4\n        /* \"#utility.yul\":17790:17857   */\n      tag_303\n      jump\t// in\n    tag_571:\n        /* \"#utility.yul\":17783:17857   */\n      swap2\n      pop\n        /* \"#utility.yul\":17866:17959   */\n      tag_572\n        /* \"#utility.yul\":17955:17958   */\n      dup3\n        /* \"#utility.yul\":17866:17959   */\n      tag_352\n      jump\t// in\n    tag_572:\n        /* \"#utility.yul\":17984:17986   */\n      0x20\n        /* \"#utility.yul\":17979:17982   */\n      dup3\n        /* \"#utility.yul\":17975:17987   */\n      add\n        /* \"#utility.yul\":17968:17987   */\n      swap1\n      pop\n        /* \"#utility.yul\":17627:17993   */\n      swap2\n      swap1\n      pop\n      jump\t// out\n        /* \"#utility.yul\":17999:18418   */\n    tag_127:\n        /* \"#utility.yul\":18165:18169   */\n      0x00\n        /* \"#utility.yul\":18203:18205   */\n      0x20\n        /* \"#utility.yul\":18192:18201   */\n      dup3\n        /* \"#utility.yul\":18188:18206   */\n      add\n        /* \"#utility.yul\":18180:18206   */\n      swap1\n      pop\n        /* \"#utility.yul\":18252:18261   */\n      dup2\n        /* \"#utility.yul\":18246:18250   */\n      dup2\n        /* \"#utility.yul\":18242:18262   */\n      sub\n        /* \"#utility.yul\":18238:18239   */\n      0x00\n        /* \"#utility.yul\":18227:18236   */\n      dup4\n        /* \"#utility.yul\":18223:18240   */\n      add\n        /* \"#utility.yul\":18216:18263   */\n      mstore\n        /* \"#utility.yul\":18280:18411   */\n      tag_574\n        /* \"#utility.yul\":18406:18410   */\n      dup2\n        /* \"#utility.yul\":18280:18411   */\n      tag_353\n      jump\t// in\n    tag_574:\n        /* \"#utility.yul\":18272:18411   */\n      swap1\n      pop\n        /* \"#utility.yul\":17999:18418   */\n      swap2\n      swap1\n      pop\n      jump\t// out\n        /* \"#utility.yul\":18424:18596   */\n    tag_354:\n        /* \"#utility.yul\":18564:18588   */\n      0x496e636f727265637420457468657220616d6f756e7400000000000000000000\n        /* \"#utility.yul\":18560:18561   */\n      0x00\n        /* \"#utility.yul\":18552:18558   */\n      dup3\n        /* \"#utility.yul\":18548:18562   */\n      add\n        /* \"#utility.yul\":18541:18589   */\n      mstore\n        /* \"#utility.yul\":18424:18596   */\n      pop\n      jump\t// out\n        /* \"#utility.yul\":18602:18968   */\n    tag_355:\n        /* \"#utility.yul\":18744:18747   */\n      0x00\n        /* \"#utility.yul\":18765:18832   */\n      tag_577\n        /* \"#utility.yul\":18829:18831   */\n      0x16\n        /* \"#utility.yul\":18824:18827   */\n      dup4\n        /* \"#utility.yul\":18765:18832   */\n      tag_303\n      jump\t// in\n    tag_577:\n        /* \"#utility.yul\":18758:18832   */\n      swap2\n      pop\n        /* \"#utility.yul\":18841:18934   */\n      tag_578\n        /* \"#utility.yul\":18930:18933   */\n      dup3\n        /* \"#utility.yul\":18841:18934   */\n      tag_354\n      jump\t// in\n    tag_578:\n        /* \"#utility.yul\":18959:18961   */\n      0x20\n        /* \"#utility.yul\":18954:18957   */\n      dup3\n        /* \"#utility.yul\":18950:18962   */\n      add\n        /* \"#utility.yul\":18943:18962   */\n      swap1\n      pop\n        /* \"#utility.yul\":18602:18968   */\n      swap2\n      swap1\n      pop\n      jump\t// out\n        /* \"#utility.yul\":18974:19393   */\n    tag_140:\n        /* \"#utility.yul\":19140:19144   */\n      0x00\n        /* \"#utility.yul\":19178:19180   */\n      0x20\n        /* \"#utility.yul\":19167:19176   */\n      dup3\n        /* \"#utility.yul\":19163:19181   */\n      add\n        /* \"#utility.yul\":19155:19181   */\n      swap1\n      pop\n        /* \"#utility.yul\":19227:19236   */\n      dup2\n        /* \"#utility.yul\":19221:19225   */\n      dup2\n        /* \"#utility.yul\":19217:19237   */\n      sub\n        /* \"#utility.yul\":19213:19214   */\n      0x00\n        /* \"#utility.yul\":19202:19211   */\n      dup4\n        /* \"#utility.yul\":19198:19215   */\n      add\n        /* \"#utility.yul\":19191:19238   */\n      mstore\n        /* \"#utility.yul\":19255:19386   */\n      tag_580\n        /* \"#utility.yul\":19381:19385   */\n      dup2\n        /* \"#utility.yul\":19255:19386   */\n      tag_355\n      jump\t// in\n    tag_580:\n        /* \"#utility.yul\":19247:19386   */\n      swap1\n      pop\n        /* \"#utility.yul\":18974:19393   */\n      swap2\n      swap1\n      pop\n      jump\t// out\n        /* \"#utility.yul\":19399:19626   */\n    tag_356:\n        /* \"#utility.yul\":19539:19573   */\n      0x4465706f73697420616d6f756e74206d75737420626520677265617465722074\n        /* \"#utility.yul\":19535:19536   */\n      0x00\n        /* \"#utility.yul\":19527:19533   */\n      dup3\n        /* \"#utility.yul\":19523:19537   */\n      add\n        /* \"#utility.yul\":19516:19574   */\n      mstore\n        /* \"#utility.yul\":19608:19618   */\n      0x68616e207a65726f000000000000000000000000000000000000000000000000\n        /* \"#utility.yul\":19603:19605   */\n      0x20\n        /* \"#utility.yul\":19595:19601   */\n      dup3\n        /* \"#utility.yul\":19591:19606   */\n      add\n        /* \"#utility.yul\":19584:19619   */\n      mstore\n        /* \"#utility.yul\":19399:19626   */\n      pop\n      jump\t// out\n        /* \"#utility.yul\":19632:19998   */\n    tag_357:\n        /* \"#utility.yul\":19774:19777   */\n      0x00\n        /* \"#utility.yul\":19795:19862   */\n      tag_583\n        /* \"#utility.yul\":19859:19861   */\n      0x28\n        /* \"#utility.yul\":19854:19857   */\n      dup4\n        /* \"#utility.yul\":19795:19862   */\n      tag_303\n      jump\t// in\n    tag_583:\n        /* \"#utility.yul\":19788:19862   */\n      swap2\n      pop\n        /* \"#utility.yul\":19871:19964   */\n      tag_584\n        /* \"#utility.yul\":19960:19963   */\n      dup3\n        /* \"#utility.yul\":19871:19964   */\n      tag_356\n      jump\t// in\n    tag_584:\n        /* \"#utility.yul\":19989:19991   */\n      0x40\n        /* \"#utility.yul\":19984:19987   */\n      dup3\n        /* \"#utility.yul\":19980:19992   */\n      add\n        /* \"#utility.yul\":19973:19992   */\n      swap1\n      pop\n        /* \"#utility.yul\":19632:19998   */\n      swap2\n      swap1\n      pop\n      jump\t// out\n        /* \"#utility.yul\":20004:20423   */\n    tag_144:\n        /* \"#utility.yul\":20170:20174   */\n      0x00\n        /* \"#utility.yul\":20208:20210   */\n      0x20\n        /* \"#utility.yul\":20197:20206   */\n      dup3\n        /* \"#utility.yul\":20193:20211   */\n      add\n        /* \"#utility.yul\":20185:20211   */\n      swap1\n      pop\n        /* \"#utility.yul\":20257:20266   */\n      dup2\n        /* \"#utility.yul\":20251:20255   */\n      dup2\n        /* \"#utility.yul\":20247:20267   */\n      sub\n        /* \"#utility.yul\":20243:20244   */\n      0x00\n        /* \"#utility.yul\":20232:20241   */\n      dup4\n        /* \"#utility.yul\":20228:20245   */\n      add\n        /* \"#utility.yul\":20221:20268   */\n      mstore\n        /* \"#utility.yul\":20285:20416   */\n      tag_586\n        /* \"#utility.yul\":20411:20415   */\n      dup2\n        /* \"#utility.yul\":20285:20416   */\n      tag_357\n      jump\t// in\n    tag_586:\n        /* \"#utility.yul\":20277:20416   */\n      swap1\n      pop\n        /* \"#utility.yul\":20004:20423   */\n      swap2\n      swap1\n      pop\n      jump\t// out\n        /* \"#utility.yul\":20429:20514   */\n    tag_358:\n        /* \"#utility.yul\":20474:20481   */\n      0x00\n        /* \"#utility.yul\":20503:20508   */\n      dup2\n        /* \"#utility.yul\":20492:20508   */\n      swap1\n      pop\n        /* \"#utility.yul\":20429:20514   */\n      swap2\n      swap1\n      pop\n      jump\t// out\n        /* \"#utility.yul\":20520:20676   */\n    tag_359:\n        /* \"#utility.yul\":20577:20586   */\n      0x00\n        /* \"#utility.yul\":20610:20670   */\n      tag_589\n        /* \"#utility.yul\":20627:20669   */\n      tag_590\n        /* \"#utility.yul\":20636:20668   */\n      tag_591\n        /* \"#utility.yul\":20662:20667   */\n      dup5\n        /* \"#utility.yul\":20636:20668   */\n      tag_358\n      jump\t// in\n    tag_591:\n        /* \"#utility.yul\":20627:20669   */\n      tag_316\n      jump\t// in\n    tag_590:\n        /* \"#utility.yul\":20610:20670   */\n      tag_321\n      jump\t// in\n    tag_589:\n        /* \"#utility.yul\":20597:20670   */\n      swap1\n      pop\n        /* \"#utility.yul\":20520:20676   */\n      swap2\n      swap1\n      pop\n      jump\t// out\n        /* \"#utility.yul\":20682:20827   */\n    tag_360:\n        /* \"#utility.yul\":20776:20820   */\n      tag_593\n        /* \"#utility.yul\":20814:20819   */\n      dup2\n        /* \"#utility.yul\":20776:20820   */\n      tag_359\n      jump\t// in\n    tag_593:\n        /* \"#utility.yul\":20771:20774   */\n      dup3\n        /* \"#utility.yul\":20764:20821   */\n      mstore\n        /* \"#utility.yul\":20682:20827   */\n      pop\n      pop\n      jump\t// out\n        /* \"#utility.yul\":20833:21069   */\n    tag_165:\n        /* \"#utility.yul\":20933:20937   */\n      0x00\n        /* \"#utility.yul\":20971:20973   */\n      0x20\n        /* \"#utility.yul\":20960:20969   */\n      dup3\n        /* \"#utility.yul\":20956:20974   */\n      add\n        /* \"#utility.yul\":20948:20974   */\n      swap1\n      pop\n        /* \"#utility.yul\":20984:21062   */\n      tag_595\n        /* \"#utility.yul\":21059:21060   */\n      0x00\n        /* \"#utility.yul\":21048:21057   */\n      dup4\n        /* \"#utility.yul\":21044:21061   */\n      add\n        /* \"#utility.yul\":21035:21041   */\n      dup5\n        /* \"#utility.yul\":20984:21062   */\n      tag_360\n      jump\t// in\n    tag_595:\n        /* \"#utility.yul\":20833:21069   */\n      swap3\n      swap2\n      pop\n      pop\n      jump\t// out\n        /* \"#utility.yul\":21075:21255   */\n    tag_361:\n        /* \"#utility.yul\":21123:21200   */\n      0x4e487b7100000000000000000000000000000000000000000000000000000000\n        /* \"#utility.yul\":21120:21121   */\n      0x00\n        /* \"#utility.yul\":21113:21201   */\n      mstore\n        /* \"#utility.yul\":21220:21224   */\n      0x22\n        /* \"#utility.yul\":21217:21218   */\n      0x04\n        /* \"#utility.yul\":21210:21225   */\n      mstore\n        /* \"#utility.yul\":21244:21248   */\n      0x24\n        /* \"#utility.yul\":21241:21242   */\n      0x00\n        /* \"#utility.yul\":21234:21249   */\n      revert\n        /* \"#utility.yul\":21261:21581   */\n    tag_173:\n        /* \"#utility.yul\":21305:21311   */\n      0x00\n        /* \"#utility.yul\":21342:21343   */\n      0x02\n        /* \"#utility.yul\":21336:21340   */\n      dup3\n        /* \"#utility.yul\":21332:21344   */\n      div\n        /* \"#utility.yul\":21322:21344   */\n      swap1\n      pop\n        /* \"#utility.yul\":21389:21390   */\n      0x01\n        /* \"#utility.yul\":21383:21387   */\n      dup3\n        /* \"#utility.yul\":21379:21391   */\n      and\n        /* \"#utility.yul\":21410:21428   */\n      dup1\n        /* \"#utility.yul\":21400:21481   */\n      tag_598\n      jumpi\n        /* \"#utility.yul\":21466:21470   */\n      0x7f\n        /* \"#utility.yul\":21458:21464   */\n      dup3\n        /* \"#utility.yul\":21454:21471   */\n      and\n        /* \"#utility.yul\":21444:21471   */\n      swap2\n      pop\n        /* \"#utility.yul\":21400:21481   */\n    tag_598:\n        /* \"#utility.yul\":21528:21530   */\n      0x20\n        /* \"#utility.yul\":21520:21526   */\n      dup3\n        /* \"#utility.yul\":21517:21531   */\n      lt\n        /* \"#utility.yul\":21497:21515   */\n      dup2\n        /* \"#utility.yul\":21494:21532   */\n      sub\n        /* \"#utility.yul\":21491:21575   */\n      tag_599\n      jumpi\n        /* \"#utility.yul\":21547:21565   */\n      tag_600\n      tag_361\n      jump\t// in\n    tag_600:\n        /* \"#utility.yul\":21491:21575   */\n    tag_599:\n        /* \"#utility.yul\":21312:21581   */\n      pop\n        /* \"#utility.yul\":21261:21581   */\n      swap2\n      swap1\n      pop\n      jump\t// out\n        /* \"#utility.yul\":21587:21677   */\n    tag_362:\n        /* \"#utility.yul\":21621:21628   */\n      0x00\n        /* \"#utility.yul\":21664:21669   */\n      dup2\n        /* \"#utility.yul\":21657:21670   */\n      iszero\n        /* \"#utility.yul\":21650:21671   */\n      iszero\n        /* \"#utility.yul\":21639:21671   */\n      swap1\n      pop\n        /* \"#utility.yul\":21587:21677   */\n      swap2\n      swap1\n      pop\n      jump\t// out\n        /* \"#utility.yul\":21683:21799   */\n    tag_363:\n        /* \"#utility.yul\":21753:21774   */\n      tag_603\n        /* \"#utility.yul\":21768:21773   */\n      dup2\n        /* \"#utility.yul\":21753:21774   */\n      tag_362\n      jump\t// in\n    tag_603:\n        /* \"#utility.yul\":21746:21751   */\n      dup2\n        /* \"#utility.yul\":21743:21775   */\n      eq\n        /* \"#utility.yul\":21733:21793   */\n      tag_604\n      jumpi\n        /* \"#utility.yul\":21789:21790   */\n      0x00\n        /* \"#utility.yul\":21786:21787   */\n      dup1\n        /* \"#utility.yul\":21779:21791   */\n      revert\n        /* \"#utility.yul\":21733:21793   */\n    tag_604:\n        /* \"#utility.yul\":21683:21799   */\n      pop\n      jump\t// out\n        /* \"#utility.yul\":21805:21942   */\n    tag_364:\n        /* \"#utility.yul\":21859:21864   */\n      0x00\n        /* \"#utility.yul\":21890:21896   */\n      dup2\n        /* \"#utility.yul\":21884:21897   */\n      mload\n        /* \"#utility.yul\":21875:21897   */\n      swap1\n      pop\n        /* \"#utility.yul\":21906:21936   */\n      tag_606\n        /* \"#utility.yul\":21930:21935   */\n      dup2\n        /* \"#utility.yul\":21906:21936   */\n      tag_363\n      jump\t// in\n    tag_606:\n        /* \"#utility.yul\":21805:21942   */\n      swap3\n      swap2\n      pop\n      pop\n      jump\t// out\n        /* \"#utility.yul\":21948:22293   */\n    tag_186:\n        /* \"#utility.yul\":22015:22021   */\n      0x00\n        /* \"#utility.yul\":22064:22066   */\n      0x20\n        /* \"#utility.yul\":22052:22061   */\n      dup3\n        /* \"#utility.yul\":22043:22050   */\n      dup5\n        /* \"#utility.yul\":22039:22062   */\n      sub\n        /* \"#utility.yul\":22035:22067   */\n      slt\n        /* \"#utility.yul\":22032:22151   */\n      iszero\n      tag_608\n      jumpi\n        /* \"#utility.yul\":22070:22149   */\n      tag_609\n      tag_307\n      jump\t// in\n    tag_609:\n        /* \"#utility.yul\":22032:22151   */\n    tag_608:\n        /* \"#utility.yul\":22190:22191   */\n      0x00\n        /* \"#utility.yul\":22215:22276   */\n      tag_610\n        /* \"#utility.yul\":22268:22275   */\n      dup5\n        /* \"#utility.yul\":22259:22265   */\n      dup3\n        /* \"#utility.yul\":22248:22257   */\n      dup6\n        /* \"#utility.yul\":22244:22266   */\n      add\n        /* \"#utility.yul\":22215:22276   */\n      tag_364\n      jump\t// in\n    tag_610:\n        /* \"#utility.yul\":22205:22276   */\n      swap2\n      pop\n        /* \"#utility.yul\":22161:22286   */\n      pop\n        /* \"#utility.yul\":21948:22293   */\n      swap3\n      swap2\n      pop\n      pop\n      jump\t// out\n        /* \"#utility.yul\":22299:22471   */\n    tag_365:\n        /* \"#utility.yul\":22439:22463   */\n      0x43616c6c6572206973206e6f7420616e2061646d696e00000000000000000000\n        /* \"#utility.yul\":22435:22436   */\n      0x00\n        /* \"#utility.yul\":22427:22433   */\n      dup3\n        /* \"#utility.yul\":22423:22437   */\n      add\n        /* \"#utility.yul\":22416:22464   */\n      mstore\n        /* \"#utility.yul\":22299:22471   */\n      pop\n      jump\t// out\n        /* \"#utility.yul\":22477:22843   */\n    tag_366:\n        /* \"#utility.yul\":22619:22622   */\n      0x00\n        /* \"#utility.yul\":22640:22707   */\n      tag_613\n        /* \"#utility.yul\":22704:22706   */\n      0x16\n        /* \"#utility.yul\":22699:22702   */\n      dup4\n        /* \"#utility.yul\":22640:22707   */\n      tag_303\n      jump\t// in\n    tag_613:\n        /* \"#utility.yul\":22633:22707   */\n      swap2\n      pop\n        /* \"#utility.yul\":22716:22809   */\n      tag_614\n        /* \"#utility.yul\":22805:22808   */\n      dup3\n        /* \"#utility.yul\":22716:22809   */\n      tag_365\n      jump\t// in\n    tag_614:\n        /* \"#utility.yul\":22834:22836   */\n      0x20\n        /* \"#utility.yul\":22829:22832   */\n      dup3\n        /* \"#utility.yul\":22825:22837   */\n      add\n        /* \"#utility.yul\":22818:22837   */\n      swap1\n      pop\n        /* \"#utility.yul\":22477:22843   */\n      swap2\n      swap1\n      pop\n      jump\t// out\n        /* \"#utility.yul\":22849:23268   */\n    tag_189:\n        /* \"#utility.yul\":23015:23019   */\n      0x00\n        /* \"#utility.yul\":23053:23055   */\n      0x20\n        /* \"#utility.yul\":23042:23051   */\n      dup3\n        /* \"#utility.yul\":23038:23056   */\n      add\n        /* \"#utility.yul\":23030:23056   */\n      swap1\n      pop\n        /* \"#utility.yul\":23102:23111   */\n      dup2\n        /* \"#utility.yul\":23096:23100   */\n      dup2\n        /* \"#utility.yul\":23092:23112   */\n      sub\n        /* \"#utility.yul\":23088:23089   */\n      0x00\n        /* \"#utility.yul\":23077:23086   */\n      dup4\n        /* \"#utility.yul\":23073:23090   */\n      add\n        /* \"#utility.yul\":23066:23113   */\n      mstore\n        /* \"#utility.yul\":23130:23261   */\n      tag_616\n        /* \"#utility.yul\":23256:23260   */\n      dup2\n        /* \"#utility.yul\":23130:23261   */\n      tag_366\n      jump\t// in\n    tag_616:\n        /* \"#utility.yul\":23122:23261   */\n      swap1\n      pop\n        /* \"#utility.yul\":22849:23268   */\n      swap2\n      swap1\n      pop\n      jump\t// out\n        /* \"#utility.yul\":23274:23495   */\n    tag_367:\n        /* \"#utility.yul\":23414:23448   */\n      0x53746172742074696d65206d757374206265206265666f726520656e64207469\n        /* \"#utility.yul\":23410:23411   */\n      0x00\n        /* \"#utility.yul\":23402:23408   */\n      dup3\n        /* \"#utility.yul\":23398:23412   */\n      add\n        /* \"#utility.yul\":23391:23449   */\n      mstore\n        /* \"#utility.yul\":23483:23487   */\n      0x6d65000000000000000000000000000000000000000000000000000000000000\n        /* \"#utility.yul\":23478:23480   */\n      0x20\n        /* \"#utility.yul\":23470:23476   */\n      dup3\n        /* \"#utility.yul\":23466:23481   */\n      add\n        /* \"#utility.yul\":23459:23488   */\n      mstore\n        /* \"#utility.yul\":23274:23495   */\n      pop\n      jump\t// out\n        /* \"#utility.yul\":23501:23867   */\n    tag_368:\n        /* \"#utility.yul\":23643:23646   */\n      0x00\n        /* \"#utility.yul\":23664:23731   */\n      tag_619\n        /* \"#utility.yul\":23728:23730   */\n      0x22\n        /* \"#utility.yul\":23723:23726   */\n      dup4\n        /* \"#utility.yul\":23664:23731   */\n      tag_303\n      jump\t// in\n    tag_619:\n        /* \"#utility.yul\":23657:23731   */\n      swap2\n      pop\n        /* \"#utility.yul\":23740:23833   */\n      tag_620\n        /* \"#utility.yul\":23829:23832   */\n      dup3\n        /* \"#utility.yul\":23740:23833   */\n      tag_367\n      jump\t// in\n    tag_620:\n        /* \"#utility.yul\":23858:23860   */\n      0x40\n        /* \"#utility.yul\":23853:23856   */\n      dup3\n        /* \"#utility.yul\":23849:23861   */\n      add\n        /* \"#utility.yul\":23842:23861   */\n      swap1\n      pop\n        /* \"#utility.yul\":23501:23867   */\n      swap2\n      swap1\n      pop\n      jump\t// out\n        /* \"#utility.yul\":23873:24292   */\n    tag_193:\n        /* \"#utility.yul\":24039:24043   */\n      0x00\n        /* \"#utility.yul\":24077:24079   */\n      0x20\n        /* \"#utility.yul\":24066:24075   */\n      dup3\n        /* \"#utility.yul\":24062:24080   */\n      add\n        /* \"#utility.yul\":24054:24080   */\n      swap1\n      pop\n        /* \"#utility.yul\":24126:24135   */\n      dup2\n        /* \"#utility.yul\":24120:24124   */\n      dup2\n        /* \"#utility.yul\":24116:24136   */\n      sub\n        /* \"#utility.yul\":24112:24113   */\n      0x00\n        /* \"#utility.yul\":24101:24110   */\n      dup4\n        /* \"#utility.yul\":24097:24114   */\n      add\n        /* \"#utility.yul\":24090:24137   */\n      mstore\n        /* \"#utility.yul\":24154:24285   */\n      tag_622\n        /* \"#utility.yul\":24280:24284   */\n      dup2\n        /* \"#utility.yul\":24154:24285   */\n      tag_368\n      jump\t// in\n    tag_622:\n        /* \"#utility.yul\":24146:24285   */\n      swap1\n      pop\n        /* \"#utility.yul\":23873:24292   */\n      swap2\n      swap1\n      pop\n      jump\t// out\n        /* \"#utility.yul\":24298:24439   */\n    tag_369:\n        /* \"#utility.yul\":24347:24351   */\n      0x00\n        /* \"#utility.yul\":24370:24373   */\n      dup2\n        /* \"#utility.yul\":24362:24373   */\n      swap1\n      pop\n        /* \"#utility.yul\":24393:24396   */\n      dup2\n        /* \"#utility.yul\":24390:24391   */\n      0x00\n        /* \"#utility.yul\":24383:24397   */\n      mstore\n        /* \"#utility.yul\":24427:24431   */\n      0x20\n        /* \"#utility.yul\":24424:24425   */\n      0x00\n        /* \"#utility.yul\":24414:24432   */\n      keccak256\n        /* \"#utility.yul\":24406:24432   */\n      swap1\n      pop\n        /* \"#utility.yul\":24298:24439   */\n      swap2\n      swap1\n      pop\n      jump\t// out\n        /* \"#utility.yul\":24445:24538   */\n    tag_370:\n        /* \"#utility.yul\":24482:24488   */\n      0x00\n        /* \"#utility.yul\":24529:24531   */\n      0x20\n        /* \"#utility.yul\":24524:24526   */\n      0x1f\n        /* \"#utility.yul\":24517:24522   */\n      dup4\n        /* \"#utility.yul\":24513:24527   */\n      add\n        /* \"#utility.yul\":24509:24532   */\n      div\n        /* \"#utility.yul\":24499:24532   */\n      swap1\n      pop\n        /* \"#utility.yul\":24445:24538   */\n      swap2\n      swap1\n      pop\n      jump\t// out\n        /* \"#utility.yul\":24544:24651   */\n    tag_371:\n        /* \"#utility.yul\":24588:24596   */\n      0x00\n        /* \"#utility.yul\":24638:24643   */\n      dup3\n        /* \"#utility.yul\":24632:24636   */\n      dup3\n        /* \"#utility.yul\":24628:24644   */\n      shl\n        /* \"#utility.yul\":24607:24644   */\n      swap1\n      pop\n        /* \"#utility.yul\":24544:24651   */\n      swap3\n      swap2\n      pop\n      pop\n      jump\t// out\n        /* \"#utility.yul\":24657:25050   */\n    tag_372:\n        /* \"#utility.yul\":24726:24732   */\n      0x00\n        /* \"#utility.yul\":24776:24777   */\n      0x08\n        /* \"#utility.yul\":24764:24774   */\n      dup4\n        /* \"#utility.yul\":24760:24778   */\n      mul\n        /* \"#utility.yul\":24799:24896   */\n      tag_627\n        /* \"#utility.yul\":24829:24895   */\n      0xffffffffffffffffffffffffffffffffffffffffffffffffffffffffffffffff\n        /* \"#utility.yul\":24818:24827   */\n      dup3\n        /* \"#utility.yul\":24799:24896   */\n      tag_371\n      jump\t// in\n    tag_627:\n        /* \"#utility.yul\":24917:24956   */\n      tag_628\n        /* \"#utility.yul\":24947:24955   */\n      dup7\n        /* \"#utility.yul\":24936:24945   */\n      dup4\n        /* \"#utility.yul\":24917:24956   */\n      tag_371\n      jump\t// in\n    tag_628:\n        /* \"#utility.yul\":24905:24956   */\n      swap6\n      pop\n        /* \"#utility.yul\":24989:24993   */\n      dup1\n        /* \"#utility.yul\":24985:24994   */\n      not\n        /* \"#utility.yul\":24978:24983   */\n      dup5\n        /* \"#utility.yul\":24974:24995   */\n      and\n        /* \"#utility.yul\":24965:24995   */\n      swap4\n      pop\n        /* \"#utility.yul\":25038:25042   */\n      dup1\n        /* \"#utility.yul\":25028:25036   */\n      dup7\n        /* \"#utility.yul\":25024:25043   */\n      and\n        /* \"#utility.yul\":25017:25022   */\n      dup5\n        /* \"#utility.yul\":25014:25044   */\n      or\n        /* \"#utility.yul\":25004:25044   */\n      swap3\n      pop\n        /* \"#utility.yul\":24733:25050   */\n      pop\n      pop\n        /* \"#utility.yul\":24657:25050   */\n      swap4\n      swap3\n      pop\n      pop\n      pop\n      jump\t// out\n        /* \"#utility.yul\":25056:25198   */\n    tag_373:\n        /* \"#utility.yul\":25106:25115   */\n      0x00\n        /* \"#utility.yul\":25139:25192   */\n      tag_630\n        /* \"#utility.yul\":25157:25191   */\n      tag_631\n        /* \"#utility.yul\":25166:25190   */\n      tag_632\n        /* \"#utility.yul\":25184:25189   */\n      dup5\n        /* \"#utility.yul\":25166:25190   */\n      tag_300\n      jump\t// in\n    tag_632:\n        /* \"#utility.yul\":25157:25191   */\n      tag_316\n      jump\t// in\n    tag_631:\n        /* \"#utility.yul\":25139:25192   */\n      tag_300\n      jump\t// in\n    tag_630:\n        /* \"#utility.yul\":25126:25192   */\n      swap1\n      pop\n        /* \"#utility.yul\":25056:25198   */\n      swap2\n      swap1\n      pop\n      jump\t// out\n        /* \"#utility.yul\":25204:25279   */\n    tag_374:\n        /* \"#utility.yul\":25247:25250   */\n      0x00\n        /* \"#utility.yul\":25268:25273   */\n      dup2\n        /* \"#utility.yul\":25261:25273   */\n      swap1\n      pop\n        /* \"#utility.yul\":25204:25279   */\n      swap2\n      swap1\n      pop\n      jump\t// out\n        /* \"#utility.yul\":25285:25554   */\n    tag_375:\n        /* \"#utility.yul\":25395:25434   */\n      tag_635\n        /* \"#utility.yul\":25426:25433   */\n      dup4\n        /* \"#utility.yul\":25395:25434   */\n      tag_373\n      jump\t// in\n    tag_635:\n        /* \"#utility.yul\":25456:25547   */\n      tag_636\n        /* \"#utility.yul\":25505:25546   */\n      tag_637\n        /* \"#utility.yul\":25529:25545   */\n      dup3\n        /* \"#utility.yul\":25505:25546   */\n      tag_374\n      jump\t// in\n    tag_637:\n        /* \"#utility.yul\":25497:25503   */\n      dup5\n        /* \"#utility.yul\":25490:25494   */\n      dup5\n        /* \"#utility.yul\":25484:25495   */\n      sload\n        /* \"#utility.yul\":25456:25547   */\n      tag_372\n      jump\t// in\n    tag_636:\n        /* \"#utility.yul\":25450:25454   */\n      dup3\n        /* \"#utility.yul\":25443:25548   */\n      sstore\n        /* \"#utility.yul\":25361:25554   */\n      pop\n        /* \"#utility.yul\":25285:25554   */\n      pop\n      pop\n      pop\n      jump\t// out\n        /* \"#utility.yul\":25560:25633   */\n    tag_376:\n        /* \"#utility.yul\":25605:25608   */\n      0x00\n        /* \"#utility.yul\":25560:25633   */\n      swap1\n      jump\t// out\n        /* \"#utility.yul\":25639:25828   */\n    tag_377:\n        /* \"#utility.yul\":25716:25748   */\n      tag_640\n      tag_376\n      jump\t// in\n    tag_640:\n        /* \"#utility.yul\":25757:25822   */\n      tag_641\n        /* \"#utility.yul\":25815:25821   */\n      dup2\n        /* \"#utility.yul\":25807:25813   */\n      dup5\n        /* \"#utility.yul\":25801:25805   */\n      dup5\n        /* \"#utility.yul\":25757:25822   */\n      tag_375\n      jump\t// in\n    tag_641:\n        /* \"#utility.yul\":25692:25828   */\n      pop\n        /* \"#utility.yul\":25639:25828   */\n      pop\n      pop\n      jump\t// out\n        /* \"#utility.yul\":25834:26020   */\n    tag_378:\n        /* \"#utility.yul\":25894:26014   */\n    tag_643:\n        /* \"#utility.yul\":25911:25914   */\n      dup2\n        /* \"#utility.yul\":25904:25909   */\n      dup2\n        /* \"#utility.yul\":25901:25915   */\n      lt\n        /* \"#utility.yul\":25894:26014   */\n      iszero\n      tag_645\n      jumpi\n        /* \"#utility.yul\":25965:26004   */\n      tag_646\n        /* \"#utility.yul\":26002:26003   */\n      0x00\n        /* \"#utility.yul\":25995:26000   */\n      dup3\n        /* \"#utility.yul\":25965:26004   */\n      tag_377\n      jump\t// in\n    tag_646:\n        /* \"#utility.yul\":25938:25939   */\n      0x01\n        /* \"#utility.yul\":25931:25936   */\n      dup2\n        /* \"#utility.yul\":25927:25940   */\n      add\n        /* \"#utility.yul\":25918:25940   */\n      swap1\n      pop\n        /* \"#utility.yul\":25894:26014   */\n      jump(tag_643)\n    tag_645:\n        /* \"#utility.yul\":25834:26020   */\n      pop\n      pop\n      jump\t// out\n        /* \"#utility.yul\":26026:26569   */\n    tag_379:\n        /* \"#utility.yul\":26127:26129   */\n      0x1f\n        /* \"#utility.yul\":26122:26125   */\n      dup3\n        /* \"#utility.yul\":26119:26130   */\n      gt\n        /* \"#utility.yul\":26116:26562   */\n      iszero\n      tag_648\n      jumpi\n        /* \"#utility.yul\":26161:26199   */\n      tag_649\n        /* \"#utility.yul\":26193:26198   */\n      dup2\n        /* \"#utility.yul\":26161:26199   */\n      tag_369\n      jump\t// in\n    tag_649:\n        /* \"#utility.yul\":26245:26274   */\n      tag_650\n        /* \"#utility.yul\":26263:26273   */\n      dup5\n        /* \"#utility.yul\":26245:26274   */\n      tag_370\n      jump\t// in\n    tag_650:\n        /* \"#utility.yul\":26235:26243   */\n      dup2\n        /* \"#utility.yul\":26231:26275   */\n      add\n        /* \"#utility.yul\":26428:26430   */\n      0x20\n        /* \"#utility.yul\":26416:26426   */\n      dup6\n        /* \"#utility.yul\":26413:26431   */\n      lt\n        /* \"#utility.yul\":26410:26459   */\n      iszero\n      tag_651\n      jumpi\n        /* \"#utility.yul\":26449:26457   */\n      dup2\n        /* \"#utility.yul\":26434:26457   */\n      swap1\n      pop\n        /* \"#utility.yul\":26410:26459   */\n    tag_651:\n        /* \"#utility.yul\":26472:26552   */\n      tag_652\n        /* \"#utility.yul\":26528:26550   */\n      tag_653\n        /* \"#utility.yul\":26546:26549   */\n      dup6\n        /* \"#utility.yul\":26528:26550   */\n      tag_370\n      jump\t// in\n    tag_653:\n        /* \"#utility.yul\":26518:26526   */\n      dup4\n        /* \"#utility.yul\":26514:26551   */\n      add\n        /* \"#utility.yul\":26501:26512   */\n      dup3\n        /* \"#utility.yul\":26472:26552   */\n      tag_378\n      jump\t// in\n    tag_652:\n        /* \"#utility.yul\":26131:26562   */\n      pop\n      pop\n        /* \"#utility.yul\":26116:26562   */\n    tag_648:\n        /* \"#utility.yul\":26026:26569   */\n      pop\n      pop\n      pop\n      jump\t// out\n        /* \"#utility.yul\":26575:26692   */\n    tag_380:\n        /* \"#utility.yul\":26629:26637   */\n      0x00\n        /* \"#utility.yul\":26679:26684   */\n      dup3\n        /* \"#utility.yul\":26673:26677   */\n      dup3\n        /* \"#utility.yul\":26669:26685   */\n      shr\n        /* \"#utility.yul\":26648:26685   */\n      swap1\n      pop\n        /* \"#utility.yul\":26575:26692   */\n      swap3\n      swap2\n      pop\n      pop\n      jump\t// out\n        /* \"#utility.yul\":26698:26867   */\n    tag_381:\n        /* \"#utility.yul\":26742:26748   */\n      0x00\n        /* \"#utility.yul\":26775:26826   */\n      tag_656\n        /* \"#utility.yul\":26823:26824   */\n      0x00\n        /* \"#utility.yul\":26819:26825   */\n      not\n        /* \"#utility.yul\":26811:26816   */\n      dup5\n        /* \"#utility.yul\":26808:26809   */\n      0x08\n        /* \"#utility.yul\":26804:26817   */\n      mul\n        /* \"#utility.yul\":26775:26826   */\n      tag_380\n      jump\t// in\n    tag_656:\n        /* \"#utility.yul\":26771:26827   */\n      not\n        /* \"#utility.yul\":26856:26860   */\n      dup1\n        /* \"#utility.yul\":26850:26854   */\n      dup4\n        /* \"#utility.yul\":26846:26861   */\n      and\n        /* \"#utility.yul\":26836:26861   */\n      swap2\n      pop\n        /* \"#utility.yul\":26749:26867   */\n      pop\n        /* \"#utility.yul\":26698:26867   */\n      swap3\n      swap2\n      pop\n      pop\n      jump\t// out\n        /* \"#utility.yul\":26872:27167   */\n    tag_382:\n        /* \"#utility.yul\":26948:26952   */\n      0x00\n        /* \"#utility.yul\":27094:27123   */\n      tag_658\n        /* \"#utility.yul\":27119:27122   */\n      dup4\n        /* \"#utility.yul\":27113:27117   */\n      dup4\n        /* \"#utility.yul\":27094:27123   */\n      tag_381\n      jump\t// in\n    tag_658:\n        /* \"#utility.yul\":27086:27123   */\n      swap2\n      pop\n        /* \"#utility.yul\":27156:27159   */\n      dup3\n        /* \"#utility.yul\":27153:27154   */\n      0x02\n        /* \"#utility.yul\":27149:27160   */\n      mul\n        /* \"#utility.yul\":27143:27147   */\n      dup3\n        /* \"#utility.yul\":27140:27161   */\n      or\n        /* \"#utility.yul\":27132:27161   */\n      swap1\n      pop\n        /* \"#utility.yul\":26872:27167   */\n      swap3\n      swap2\n      pop\n      pop\n      jump\t// out\n        /* \"#utility.yul\":27172:28567   */\n    tag_195:\n        /* \"#utility.yul\":27289:27326   */\n      tag_660\n        /* \"#utility.yul\":27322:27325   */\n      dup3\n        /* \"#utility.yul\":27289:27326   */\n      tag_323\n      jump\t// in\n    tag_660:\n        /* \"#utility.yul\":27391:27409   */\n      0xffffffffffffffff\n        /* \"#utility.yul\":27383:27389   */\n      dup2\n        /* \"#utility.yul\":27380:27410   */\n      gt\n        /* \"#utility.yul\":27377:27433   */\n      iszero\n      tag_661\n      jumpi\n        /* \"#utility.yul\":27413:27431   */\n      tag_662\n      tag_331\n      jump\t// in\n    tag_662:\n        /* \"#utility.yul\":27377:27433   */\n    tag_661:\n        /* \"#utility.yul\":27457:27495   */\n      tag_663\n        /* \"#utility.yul\":27489:27493   */\n      dup3\n        /* \"#utility.yul\":27483:27494   */\n      sload\n        /* \"#utility.yul\":27457:27495   */\n      tag_173\n      jump\t// in\n    tag_663:\n        /* \"#utility.yul\":27542:27609   */\n      tag_664\n        /* \"#utility.yul\":27602:27608   */\n      dup3\n        /* \"#utility.yul\":27594:27600   */\n      dup3\n        /* \"#utility.yul\":27588:27592   */\n      dup6\n        /* \"#utility.yul\":27542:27609   */\n      tag_379\n      jump\t// in\n    tag_664:\n        /* \"#utility.yul\":27636:27637   */\n      0x00\n        /* \"#utility.yul\":27660:27664   */\n      0x20\n        /* \"#utility.yul\":27647:27664   */\n      swap1\n      pop\n        /* \"#utility.yul\":27692:27694   */\n      0x1f\n        /* \"#utility.yul\":27684:27690   */\n      dup4\n        /* \"#utility.yul\":27681:27695   */\n      gt\n        /* \"#utility.yul\":27709:27710   */\n      0x01\n        /* \"#utility.yul\":27704:28322   */\n      dup2\n      eq\n      tag_666\n      jumpi\n        /* \"#utility.yul\":28366:28367   */\n      0x00\n        /* \"#utility.yul\":28383:28389   */\n      dup5\n        /* \"#utility.yul\":28380:28457   */\n      iszero\n      tag_667\n      jumpi\n        /* \"#utility.yul\":28432:28441   */\n      dup3\n        /* \"#utility.yul\":28427:28430   */\n      dup8\n        /* \"#utility.yul\":28423:28442   */\n      add\n        /* \"#utility.yul\":28417:28443   */\n      mload\n        /* \"#utility.yul\":28408:28443   */\n      swap1\n      pop\n        /* \"#utility.yul\":28380:28457   */\n    tag_667:\n        /* \"#utility.yul\":28483:28550   */\n      tag_668\n        /* \"#utility.yul\":28543:28549   */\n      dup6\n        /* \"#utility.yul\":28536:28541   */\n      dup3\n        /* \"#utility.yul\":28483:28550   */\n      tag_382\n      jump\t// in\n    tag_668:\n        /* \"#utility.yul\":28477:28481   */\n      dup7\n        /* \"#utility.yul\":28470:28551   */\n      sstore\n        /* \"#utility.yul\":28339:28561   */\n      pop\n        /* \"#utility.yul\":27674:28561   */\n      jump(tag_665)\n        /* \"#utility.yul\":27704:28322   */\n    tag_666:\n        /* \"#utility.yul\":27756:27760   */\n      0x1f\n        /* \"#utility.yul\":27752:27761   */\n      not\n        /* \"#utility.yul\":27744:27750   */\n      dup5\n        /* \"#utility.yul\":27740:27762   */\n      and\n        /* \"#utility.yul\":27790:27827   */\n      tag_669\n        /* \"#utility.yul\":27822:27826   */\n      dup7\n        /* \"#utility.yul\":27790:27827   */\n      tag_369\n      jump\t// in\n    tag_669:\n        /* \"#utility.yul\":27849:27850   */\n      0x00\n        /* \"#utility.yul\":27863:28071   */\n    tag_670:\n        /* \"#utility.yul\":27877:27884   */\n      dup3\n        /* \"#utility.yul\":27874:27875   */\n      dup2\n        /* \"#utility.yul\":27871:27885   */\n      lt\n        /* \"#utility.yul\":27863:28071   */\n      iszero\n      tag_672\n      jumpi\n        /* \"#utility.yul\":27956:27965   */\n      dup5\n        /* \"#utility.yul\":27951:27954   */\n      dup10\n        /* \"#utility.yul\":27947:27966   */\n      add\n        /* \"#utility.yul\":27941:27967   */\n      mload\n        /* \"#utility.yul\":27933:27939   */\n      dup3\n        /* \"#utility.yul\":27926:27968   */\n      sstore\n        /* \"#utility.yul\":28007:28008   */\n      0x01\n        /* \"#utility.yul\":27999:28005   */\n      dup3\n        /* \"#utility.yul\":27995:28009   */\n      add\n        /* \"#utility.yul\":27985:28009   */\n      swap2\n      pop\n        /* \"#utility.yul\":28054:28056   */\n      0x20\n        /* \"#utility.yul\":28043:28052   */\n      dup6\n        /* \"#utility.yul\":28039:28057   */\n      add\n        /* \"#utility.yul\":28026:28057   */\n      swap5\n      pop\n        /* \"#utility.yul\":27900:27904   */\n      0x20\n        /* \"#utility.yul\":27897:27898   */\n      dup2\n        /* \"#utility.yul\":27893:27905   */\n      add\n        /* \"#utility.yul\":27888:27905   */\n      swap1\n      pop\n        /* \"#utility.yul\":27863:28071   */\n      jump(tag_670)\n    tag_672:\n        /* \"#utility.yul\":28099:28105   */\n      dup7\n        /* \"#utility.yul\":28090:28097   */\n      dup4\n        /* \"#utility.yul\":28087:28106   */\n      lt\n        /* \"#utility.yul\":28084:28263   */\n      iszero\n      tag_673\n      jumpi\n        /* \"#utility.yul\":28157:28166   */\n      dup5\n        /* \"#utility.yul\":28152:28155   */\n      dup10\n        /* \"#utility.yul\":28148:28167   */\n      add\n        /* \"#utility.yul\":28142:28168   */\n      mload\n        /* \"#utility.yul\":28200:28248   */\n      tag_674\n        /* \"#utility.yul\":28242:28246   */\n      0x1f\n        /* \"#utility.yul\":28234:28240   */\n      dup10\n        /* \"#utility.yul\":28230:28247   */\n      and\n        /* \"#utility.yul\":28219:28228   */\n      dup3\n        /* \"#utility.yul\":28200:28248   */\n      tag_381\n      jump\t// in\n    tag_674:\n        /* \"#utility.yul\":28192:28198   */\n      dup4\n        /* \"#utility.yul\":28185:28249   */\n      sstore\n        /* \"#utility.yul\":28107:28263   */\n      pop\n        /* \"#utility.yul\":28084:28263   */\n    tag_673:\n        /* \"#utility.yul\":28309:28310   */\n      0x01\n        /* \"#utility.yul\":28305:28306   */\n      0x02\n        /* \"#utility.yul\":28297:28303   */\n      dup9\n        /* \"#utility.yul\":28293:28307   */\n      mul\n        /* \"#utility.yul\":28289:28311   */\n      add\n        /* \"#utility.yul\":28283:28287   */\n      dup9\n        /* \"#utility.yul\":28276:28312   */\n      sstore\n        /* \"#utility.yul\":27711:28322   */\n      pop\n      pop\n      pop\n        /* \"#utility.yul\":27674:28561   */\n    tag_665:\n      pop\n        /* \"#utility.yul\":27264:28567   */\n      pop\n      pop\n      pop\n        /* \"#utility.yul\":27172:28567   */\n      pop\n      pop\n      jump\t// out\n        /* \"#utility.yul\":28573:29102   */\n    tag_197:\n        /* \"#utility.yul\":28740:28744   */\n      0x00\n        /* \"#utility.yul\":28778:28780   */\n      0x60\n        /* \"#utility.yul\":28767:28776   */\n      dup3\n        /* \"#utility.yul\":28763:28781   */\n      add\n        /* \"#utility.yul\":28755:28781   */\n      swap1\n      pop\n        /* \"#utility.yul\":28791:28861   */\n      tag_676\n        /* \"#utility.yul\":28858:28859   */\n      0x00\n        /* \"#utility.yul\":28847:28856   */\n      dup4\n        /* \"#utility.yul\":28843:28860   */\n      add\n        /* \"#utility.yul\":28834:28840   */\n      dup7\n        /* \"#utility.yul\":28791:28861   */\n      tag_339\n      jump\t// in\n    tag_676:\n        /* \"#utility.yul\":28871:28942   */\n      tag_677\n        /* \"#utility.yul\":28938:28940   */\n      0x20\n        /* \"#utility.yul\":28927:28936   */\n      dup4\n        /* \"#utility.yul\":28923:28941   */\n      add\n        /* \"#utility.yul\":28914:28920   */\n      dup6\n        /* \"#utility.yul\":28871:28942   */\n      tag_339\n      jump\t// in\n    tag_677:\n        /* \"#utility.yul\":28989:28998   */\n      dup2\n        /* \"#utility.yul\":28983:28987   */\n      dup2\n        /* \"#utility.yul\":28979:28999   */\n      sub\n        /* \"#utility.yul\":28974:28976   */\n      0x40\n        /* \"#utility.yul\":28963:28972   */\n      dup4\n        /* \"#utility.yul\":28959:28977   */\n      add\n        /* \"#utility.yul\":28952:29000   */\n      mstore\n        /* \"#utility.yul\":29017:29095   */\n      tag_678\n        /* \"#utility.yul\":29090:29094   */\n      dup2\n        /* \"#utility.yul\":29081:29087   */\n      dup5\n        /* \"#utility.yul\":29017:29095   */\n      tag_326\n      jump\t// in\n    tag_678:\n        /* \"#utility.yul\":29009:29095   */\n      swap1\n      pop\n        /* \"#utility.yul\":28573:29102   */\n      swap5\n      swap4\n      pop\n      pop\n      pop\n      pop\n      jump\t// out\n        /* \"#utility.yul\":29108:29275   */\n    tag_383:\n        /* \"#utility.yul\":29248:29267   */\n      0x5a65726f20616464726573732075736572000000000000000000000000000000\n        /* \"#utility.yul\":29244:29245   */\n      0x00\n        /* \"#utility.yul\":29236:29242   */\n      dup3\n        /* \"#utility.yul\":29232:29246   */\n      add\n        /* \"#utility.yul\":29225:29268   */\n      mstore\n        /* \"#utility.yul\":29108:29275   */\n      pop\n      jump\t// out\n        /* \"#utility.yul\":29281:29647   */\n    tag_384:\n        /* \"#utility.yul\":29423:29426   */\n      0x00\n        /* \"#utility.yul\":29444:29511   */\n      tag_681\n        /* \"#utility.yul\":29508:29510   */\n      0x11\n        /* \"#utility.yul\":29503:29506   */\n      dup4\n        /* \"#utility.yul\":29444:29511   */\n      tag_303\n      jump\t// in\n    tag_681:\n        /* \"#utility.yul\":29437:29511   */\n      swap2\n      pop\n        /* \"#utility.yul\":29520:29613   */\n      tag_682\n        /* \"#utility.yul\":29609:29612   */\n      dup3\n        /* \"#utility.yul\":29520:29613   */\n      tag_383\n      jump\t// in\n    tag_682:\n        /* \"#utility.yul\":29638:29640   */\n      0x20\n        /* \"#utility.yul\":29633:29636   */\n      dup3\n        /* \"#utility.yul\":29629:29641   */\n      add\n        /* \"#utility.yul\":29622:29641   */\n      swap1\n      pop\n        /* \"#utility.yul\":29281:29647   */\n      swap2\n      swap1\n      pop\n      jump\t// out\n        /* \"#utility.yul\":29653:30072   */\n    tag_208:\n        /* \"#utility.yul\":29819:29823   */\n      0x00\n        /* \"#utility.yul\":29857:29859   */\n      0x20\n        /* \"#utility.yul\":29846:29855   */\n      dup3\n        /* \"#utility.yul\":29842:29860   */\n      add\n        /* \"#utility.yul\":29834:29860   */\n      swap1\n      pop\n        /* \"#utility.yul\":29906:29915   */\n      dup2\n        /* \"#utility.yul\":29900:29904   */\n      dup2\n        /* \"#utility.yul\":29896:29916   */\n      sub\n        /* \"#utility.yul\":29892:29893   */\n      0x00\n        /* \"#utility.yul\":29881:29890   */\n      dup4\n        /* \"#utility.yul\":29877:29894   */\n      add\n        /* \"#utility.yul\":29870:29917   */\n      mstore\n        /* \"#utility.yul\":29934:30065   */\n      tag_684\n        /* \"#utility.yul\":30060:30064   */\n      dup2\n        /* \"#utility.yul\":29934:30065   */\n      tag_384\n      jump\t// in\n    tag_684:\n        /* \"#utility.yul\":29926:30065   */\n      swap1\n      pop\n        /* \"#utility.yul\":29653:30072   */\n      swap2\n      swap1\n      pop\n      jump\t// out\n        /* \"#utility.yul\":30078:30308   */\n    tag_385:\n        /* \"#utility.yul\":30218:30252   */\n      0x5769746864726177616c20616d6f756e74206d75737420626520677265617465\n        /* \"#utility.yul\":30214:30215   */\n      0x00\n        /* \"#utility.yul\":30206:30212   */\n      dup3\n        /* \"#utility.yul\":30202:30216   */\n      add\n        /* \"#utility.yul\":30195:30253   */\n      mstore\n        /* \"#utility.yul\":30287:30300   */\n      0x72207468616e207a65726f000000000000000000000000000000000000000000\n        /* \"#utility.yul\":30282:30284   */\n      0x20\n        /* \"#utility.yul\":30274:30280   */\n      dup3\n        /* \"#utility.yul\":30270:30285   */\n      add\n        /* \"#utility.yul\":30263:30301   */\n      mstore\n        /* \"#utility.yul\":30078:30308   */\n      pop\n      jump\t// out\n        /* \"#utility.yul\":30314:30680   */\n    tag_386:\n        /* \"#utility.yul\":30456:30459   */\n      0x00\n        /* \"#utility.yul\":30477:30544   */\n      tag_687\n        /* \"#utility.yul\":30541:30543   */\n      0x2b\n        /* \"#utility.yul\":30536:30539   */\n      dup4\n        /* \"#utility.yul\":30477:30544   */\n      tag_303\n      jump\t// in\n    tag_687:\n        /* \"#utility.yul\":30470:30544   */\n      swap2\n      pop\n        /* \"#utility.yul\":30553:30646   */\n      tag_688\n        /* \"#utility.yul\":30642:30645   */\n      dup3\n        /* \"#utility.yul\":30553:30646   */\n      tag_385\n      jump\t// in\n    tag_688:\n        /* \"#utility.yul\":30671:30673   */\n      0x40\n        /* \"#utility.yul\":30666:30669   */\n      dup3\n        /* \"#utility.yul\":30662:30674   */\n      add\n        /* \"#utility.yul\":30655:30674   */\n      swap1\n      pop\n        /* \"#utility.yul\":30314:30680   */\n      swap2\n      swap1\n      pop\n      jump\t// out\n        /* \"#utility.yul\":30686:31105   */\n    tag_223:\n        /* \"#utility.yul\":30852:30856   */\n      0x00\n        /* \"#utility.yul\":30890:30892   */\n      0x20\n        /* \"#utility.yul\":30879:30888   */\n      dup3\n        /* \"#utility.yul\":30875:30893   */\n      add\n        /* \"#utility.yul\":30867:30893   */\n      swap1\n      pop\n        /* \"#utility.yul\":30939:30948   */\n      dup2\n        /* \"#utility.yul\":30933:30937   */\n      dup2\n        /* \"#utility.yul\":30929:30949   */\n      sub\n        /* \"#utility.yul\":30925:30926   */\n      0x00\n        /* \"#utility.yul\":30914:30923   */\n      dup4\n        /* \"#utility.yul\":30910:30927   */\n      add\n        /* \"#utility.yul\":30903:30950   */\n      mstore\n        /* \"#utility.yul\":30967:31098   */\n      tag_690\n        /* \"#utility.yul\":31093:31097   */\n      dup2\n        /* \"#utility.yul\":30967:31098   */\n      tag_386\n      jump\t// in\n    tag_690:\n        /* \"#utility.yul\":30959:31098   */\n      swap1\n      pop\n        /* \"#utility.yul\":30686:31105   */\n      swap2\n      swap1\n      pop\n      jump\t// out\n        /* \"#utility.yul\":31111:31279   */\n    tag_387:\n        /* \"#utility.yul\":31251:31271   */\n      0x496e73756666696369656e742066756e64730000000000000000000000000000\n        /* \"#utility.yul\":31247:31248   */\n      0x00\n        /* \"#utility.yul\":31239:31245   */\n      dup3\n        /* \"#utility.yul\":31235:31249   */\n      add\n        /* \"#utility.yul\":31228:31272   */\n      mstore\n        /* \"#utility.yul\":31111:31279   */\n      pop\n      jump\t// out\n        /* \"#utility.yul\":31285:31651   */\n    tag_388:\n        /* \"#utility.yul\":31427:31430   */\n      0x00\n        /* \"#utility.yul\":31448:31515   */\n      tag_693\n        /* \"#utility.yul\":31512:31514   */\n      0x12\n        /* \"#utility.yul\":31507:31510   */\n      dup4\n        /* \"#utility.yul\":31448:31515   */\n      tag_303\n      jump\t// in\n    tag_693:\n        /* \"#utility.yul\":31441:31515   */\n      swap2\n      pop\n        /* \"#utility.yul\":31524:31617   */\n      tag_694\n        /* \"#utility.yul\":31613:31616   */\n      dup3\n        /* \"#utility.yul\":31524:31617   */\n      tag_387\n      jump\t// in\n    tag_694:\n        /* \"#utility.yul\":31642:31644   */\n      0x20\n        /* \"#utility.yul\":31637:31640   */\n      dup3\n        /* \"#utility.yul\":31633:31645   */\n      add\n        /* \"#utility.yul\":31626:31645   */\n      swap1\n      pop\n        /* \"#utility.yul\":31285:31651   */\n      swap2\n      swap1\n      pop\n      jump\t// out\n        /* \"#utility.yul\":31657:32076   */\n    tag_226:\n        /* \"#utility.yul\":31823:31827   */\n      0x00\n        /* \"#utility.yul\":31861:31863   */\n      0x20\n        /* \"#utility.yul\":31850:31859   */\n      dup3\n        /* \"#utility.yul\":31846:31864   */\n      add\n        /* \"#utility.yul\":31838:31864   */\n      swap1\n      pop\n        /* \"#utility.yul\":31910:31919   */\n      dup2\n        /* \"#utility.yul\":31904:31908   */\n      dup2\n        /* \"#utility.yul\":31900:31920   */\n      sub\n        /* \"#utility.yul\":31896:31897   */\n      0x00\n        /* \"#utility.yul\":31885:31894   */\n      dup4\n        /* \"#utility.yul\":31881:31898   */\n      add\n        /* \"#utility.yul\":31874:31921   */\n      mstore\n        /* \"#utility.yul\":31938:32069   */\n      tag_696\n        /* \"#utility.yul\":32064:32068   */\n      dup2\n        /* \"#utility.yul\":31938:32069   */\n      tag_388\n      jump\t// in\n    tag_696:\n        /* \"#utility.yul\":31930:32069   */\n      swap1\n      pop\n        /* \"#utility.yul\":31657:32076   */\n      swap2\n      swap1\n      pop\n      jump\t// out\n        /* \"#utility.yul\":32082:32263   */\n    tag_389:\n        /* \"#utility.yul\":32222:32255   */\n      0x5265656e7472616e637947756172643a207265656e7472616e742063616c6c00\n        /* \"#utility.yul\":32218:32219   */\n      0x00\n        /* \"#utility.yul\":32210:32216   */\n      dup3\n        /* \"#utility.yul\":32206:32220   */\n      add\n        /* \"#utility.yul\":32199:32256   */\n      mstore\n        /* \"#utility.yul\":32082:32263   */\n      pop\n      jump\t// out\n        /* \"#utility.yul\":32269:32635   */\n    tag_390:\n        /* \"#utility.yul\":32411:32414   */\n      0x00\n        /* \"#utility.yul\":32432:32499   */\n      tag_699\n        /* \"#utility.yul\":32496:32498   */\n      0x1f\n        /* \"#utility.yul\":32491:32494   */\n      dup4\n        /* \"#utility.yul\":32432:32499   */\n      tag_303\n      jump\t// in\n    tag_699:\n        /* \"#utility.yul\":32425:32499   */\n      swap2\n      pop\n        /* \"#utility.yul\":32508:32601   */\n      tag_700\n        /* \"#utility.yul\":32597:32600   */\n      dup3\n        /* \"#utility.yul\":32508:32601   */\n      tag_389\n      jump\t// in\n    tag_700:\n        /* \"#utility.yul\":32626:32628   */\n      0x20\n        /* \"#utility.yul\":32621:32624   */\n      dup3\n        /* \"#utility.yul\":32617:32629   */\n      add\n        /* \"#utility.yul\":32610:32629   */\n      swap1\n      pop\n        /* \"#utility.yul\":32269:32635   */\n      swap2\n      swap1\n      pop\n      jump\t// out\n        /* \"#utility.yul\":32641:33060   */\n    tag_245:\n        /* \"#utility.yul\":32807:32811   */\n      0x00\n        /* \"#utility.yul\":32845:32847   */\n      0x20\n        /* \"#utility.yul\":32834:32843   */\n      dup3\n        /* \"#utility.yul\":32830:32848   */\n      add\n        /* \"#utility.yul\":32822:32848   */\n      swap1\n      pop\n        /* \"#utility.yul\":32894:32903   */\n      dup2\n        /* \"#utility.yul\":32888:32892   */\n      dup2\n        /* \"#utility.yul\":32884:32904   */\n      sub\n        /* \"#utility.yul\":32880:32881   */\n      0x00\n        /* \"#utility.yul\":32869:32878   */\n      dup4\n        /* \"#utility.yul\":32865:32882   */\n      add\n        /* \"#utility.yul\":32858:32905   */\n      mstore\n        /* \"#utility.yul\":32922:33053   */\n      tag_702\n        /* \"#utility.yul\":33048:33052   */\n      dup2\n        /* \"#utility.yul\":32922:33053   */\n      tag_390\n      jump\t// in\n    tag_702:\n        /* \"#utility.yul\":32914:33053   */\n      swap1\n      pop\n        /* \"#utility.yul\":32641:33060   */\n      swap2\n      swap1\n      pop\n      jump\t// out\n        /* \"#utility.yul\":33066:33398   */\n    tag_249:\n        /* \"#utility.yul\":33187:33191   */\n      0x00\n        /* \"#utility.yul\":33225:33227   */\n      0x40\n        /* \"#utility.yul\":33214:33223   */\n      dup3\n        /* \"#utility.yul\":33210:33228   */\n      add\n        /* \"#utility.yul\":33202:33228   */\n      swap1\n      pop\n        /* \"#utility.yul\":33238:33309   */\n      tag_704\n        /* \"#utility.yul\":33306:33307   */\n      0x00\n        /* \"#utility.yul\":33295:33304   */\n      dup4\n        /* \"#utility.yul\":33291:33308   */\n      add\n        /* \"#utility.yul\":33282:33288   */\n      dup6\n        /* \"#utility.yul\":33238:33309   */\n      tag_313\n      jump\t// in\n    tag_704:\n        /* \"#utility.yul\":33319:33391   */\n      tag_705\n        /* \"#utility.yul\":33387:33389   */\n      0x20\n        /* \"#utility.yul\":33376:33385   */\n      dup4\n        /* \"#utility.yul\":33372:33390   */\n      add\n        /* \"#utility.yul\":33363:33369   */\n      dup5\n        /* \"#utility.yul\":33319:33391   */\n      tag_302\n      jump\t// in\n    tag_705:\n        /* \"#utility.yul\":33066:33398   */\n      swap4\n      swap3\n      pop\n      pop\n      pop\n      jump\t// out\n        /* \"#utility.yul\":33404:33846   */\n    tag_255:\n        /* \"#utility.yul\":33553:33557   */\n      0x00\n        /* \"#utility.yul\":33591:33593   */\n      0x60\n        /* \"#utility.yul\":33580:33589   */\n      dup3\n        /* \"#utility.yul\":33576:33594   */\n      add\n        /* \"#utility.yul\":33568:33594   */\n      swap1\n      pop\n        /* \"#utility.yul\":33604:33675   */\n      tag_707\n        /* \"#utility.yul\":33672:33673   */\n      0x00\n        /* \"#utility.yul\":33661:33670   */\n      dup4\n        /* \"#utility.yul\":33657:33674   */\n      add\n        /* \"#utility.yul\":33648:33654   */\n      dup7\n        /* \"#utility.yul\":33604:33675   */\n      tag_313\n      jump\t// in\n    tag_707:\n        /* \"#utility.yul\":33685:33757   */\n      tag_708\n        /* \"#utility.yul\":33753:33755   */\n      0x20\n        /* \"#utility.yul\":33742:33751   */\n      dup4\n        /* \"#utility.yul\":33738:33756   */\n      add\n        /* \"#utility.yul\":33729:33735   */\n      dup6\n        /* \"#utility.yul\":33685:33757   */\n      tag_313\n      jump\t// in\n    tag_708:\n        /* \"#utility.yul\":33767:33839   */\n      tag_709\n        /* \"#utility.yul\":33835:33837   */\n      0x40\n        /* \"#utility.yul\":33824:33833   */\n      dup4\n        /* \"#utility.yul\":33820:33838   */\n      add\n        /* \"#utility.yul\":33811:33817   */\n      dup5\n        /* \"#utility.yul\":33767:33839   */\n      tag_302\n      jump\t// in\n    tag_709:\n        /* \"#utility.yul\":33404:33846   */\n      swap5\n      swap4\n      pop\n      pop\n      pop\n      pop\n      jump\t// out\n\n    auxdata: 0xa26469706673582212205d9af27273360c69383a4b916da5f67842ac34296b3a823290499473bdb2881f64736f6c634300081a0033\n}\n",
				"bytecode": {
					"linkReferences": {},
					"object": "6080604052348015600e575f80fd5b50612b3e8061001c5f395ff3fe6080604052600436106100e0575f3560e01c80638da5cb5b1161007e578063aee9c87211610058578063aee9c8721461036a578063b807a3c4146103a6578063f2fde38b146103ce578063f3fef3a3146103f65761019f565b80638da5cb5b146102dc578063a9012c8914610306578063a9590e8a1461032e5761019f565b8063485cc955116100ba578063485cc95514610248578063715018a61461027057806385c758f7146102865780638a19c8bc146102b05761019f565b80631e83409a146101da57806331f7d9641461020257806347e7ef241461022c5761019f565b3661019f573460355f8073ffffffffffffffffffffffffffffffffffffffff1673ffffffffffffffffffffffffffffffffffffffff1681526020019081526020015f205f8282546101319190611aa3565b925050819055505f73ffffffffffffffffffffffffffffffffffffffff163373ffffffffffffffffffffffffffffffffffffffff167f5548c837ab068cf56a2c2479df0882a4922fd203edb7517321831d95078c5f62346040516101959190611ae5565b60405180910390a3005b6040517f08c379a00000000000000000000000000000000000000000000000000000000081526004016101d190611b58565b60405180910390fd5b3480156101e5575f80fd5b5061020060048036038101906101fb9190611be1565b61041e565b005b34801561020d575f80fd5b50610216610951565b6040516102239190611c1b565b60405180910390f35b61024660048036038101906102419190611c5e565b610955565b005b348015610253575f80fd5b5061026e60048036038101906102699190611c9c565b610b0b565b005b34801561027b575f80fd5b50610284610cd5565b005b348015610291575f80fd5b5061029a610ce8565b6040516102a79190611d35565b60405180910390f35b3480156102bb575f80fd5b506102c4610d0d565b6040516102d393929190611dd0565b60405180910390f35b3480156102e7575f80fd5b506102f0610dd0565b6040516102fd9190611c1b565b60405180910390f35b348015610311575f80fd5b5061032c60048036038101906103279190611f62565b610e05565b005b348015610339575f80fd5b50610354600480360381019061034f9190611c9c565b611017565b6040516103619190611ae5565b60405180910390f35b348015610375575f80fd5b50610390600480360381019061038b9190611be1565b611037565b60405161039d9190611ae5565b60405180910390f35b3480156103b1575f80fd5b506103cc60048036038101906103c79190611fce565b61104c565b005b3480156103d9575f80fd5b506103f460048036038101906103ef9190611be1565b611279565b005b348015610401575f80fd5b5061041c60048036038101906104179190611c5e565b6112fd565b005b6104266115b5565b60335f015f9054906101000a900467ffffffffffffffff1667ffffffffffffffff16421080610476575060335f0160089054906101000a900467ffffffffffffffff1667ffffffffffffffff1642115b156104eb574260335f015f9054906101000a900467ffffffffffffffff1660335f0160089054906101000a900467ffffffffffffffff166040517ffa7410d40000000000000000000000000000000000000000000000000000000081526004016104e29392919061204e565b60405180910390fd5b5f60365f3373ffffffffffffffffffffffffffffffffffffffff1673ffffffffffffffffffffffffffffffffffffffff1681526020019081526020015f205f8373ffffffffffffffffffffffffffffffffffffffff1673ffffffffffffffffffffffffffffffffffffffff1681526020019081526020015f205490505f81116105a9576040517f08c379a00000000000000000000000000000000000000000000000000000000081526004016105a0906120cd565b60405180910390fd5b8060355f8473ffffffffffffffffffffffffffffffffffffffff1673ffffffffffffffffffffffffffffffffffffffff1681526020019081526020015f20541015610629576040517f08c379a000000000000000000000000000000000000000000000000000000000815260040161062090612135565b60405180910390fd5b5f60325f9054906101000a900473ffffffffffffffffffffffffffffffffffffffff1673ffffffffffffffffffffffffffffffffffffffff1663db4f1024336040518263ffffffff1660e01b8152600401610684919061219d565b602060405180830381865afa15801561069f573d5f803e3d5ffd5b505050506040513d601f19601f820116820180604052508101906106c391906121dd565b11610703576040517f08c379a00000000000000000000000000000000000000000000000000000000081526004016106fa90612252565b60405180910390fd5b5f60365f3373ffffffffffffffffffffffffffffffffffffffff1673ffffffffffffffffffffffffffffffffffffffff1681526020019081526020015f205f8473ffffffffffffffffffffffffffffffffffffffff1673ffffffffffffffffffffffffffffffffffffffff1681526020019081526020015f20819055508060355f8473ffffffffffffffffffffffffffffffffffffffff1673ffffffffffffffffffffffffffffffffffffffff1681526020019081526020015f205f8282546107cc9190612270565b925050819055505f73ffffffffffffffffffffffffffffffffffffffff168273ffffffffffffffffffffffffffffffffffffffff16036108b4575f3373ffffffffffffffffffffffffffffffffffffffff168260405161082b906122d0565b5f6040518083038185875af1925050503d805f8114610865576040519150601f19603f3d011682016040523d82523d5f602084013e61086a565b606091505b50509050806108ae576040517f08c379a00000000000000000000000000000000000000000000000000000000081526004016108a59061232e565b60405180910390fd5b506108e0565b6108df33828473ffffffffffffffffffffffffffffffffffffffff166116029092919063ffffffff16565b5b8173ffffffffffffffffffffffffffffffffffffffff163373ffffffffffffffffffffffffffffffffffffffff167ff7a40077ff7a04c7e61f6f26fb13774259ddf1b6bce9ecf26a8276cdd39926838360405161093d9190611ae5565b60405180910390a35061094e611681565b50565b5f81565b61095d6115b5565b5f73ffffffffffffffffffffffffffffffffffffffff168273ffffffffffffffffffffffffffffffffffffffff16036109d7578034146109d2576040517f08c379a00000000000000000000000000000000000000000000000000000000081526004016109c990612396565b60405180910390fd5b610a47565b5f8111610a19576040517f08c379a0000000000000000000000000000000000000000000000000000000008152600401610a1090612424565b60405180910390fd5b610a463330838573ffffffffffffffffffffffffffffffffffffffff1661168a909392919063ffffffff16565b5b8060355f8473ffffffffffffffffffffffffffffffffffffffff1673ffffffffffffffffffffffffffffffffffffffff1681526020019081526020015f205f828254610a939190611aa3565b925050819055508173ffffffffffffffffffffffffffffffffffffffff163373ffffffffffffffffffffffffffffffffffffffff167f5548c837ab068cf56a2c2479df0882a4922fd203edb7517321831d95078c5f6283604051610af79190611ae5565b60405180910390a3610b07611681565b5050565b5f610b1461170c565b90505f815f0160089054906101000a900460ff161590505f825f015f9054906101000a900467ffffffffffffffff1690505f808267ffffffffffffffff16148015610b5c5750825b90505f60018367ffffffffffffffff16148015610b8f57505f3073ffffffffffffffffffffffffffffffffffffffff163b145b905081158015610b9d575080155b15610bd4576040517ff92ee8a900000000000000000000000000000000000000000000000000000000815260040160405180910390fd5b6001855f015f6101000a81548167ffffffffffffffff021916908367ffffffffffffffff1602179055508315610c21576001855f0160086101000a81548160ff0219169083151502179055505b610c2a86611733565b610c32611747565b8660325f6101000a81548173ffffffffffffffffffffffffffffffffffffffff021916908373ffffffffffffffffffffffffffffffffffffffff1602179055508315610ccc575f855f0160086101000a81548160ff0219169083151502179055507fc7f505b2f371ae2175ee4913f4499e1f2633a7b5936321eed1cdaeb6115181d26001604051610cc3919061247b565b60405180910390a15b50505050505050565b610cdd611759565b610ce65f6117e0565b565b60325f9054906101000a900473ffffffffffffffffffffffffffffffffffffffff1681565b6033805f015f9054906101000a900467ffffffffffffffff1690805f0160089054906101000a900467ffffffffffffffff1690806001018054610d4f906124c1565b80601f0160208091040260200160405190810160405280929190818152602001828054610d7b906124c1565b8015610dc65780601f10610d9d57610100808354040283529160200191610dc6565b820191905f5260205f20905b815481529060010190602001808311610da957829003601f168201915b5050505050905083565b5f80610dda6118b1565b9050805f015f9054906101000a900473ffffffffffffffffffffffffffffffffffffffff1691505090565b60325f9054906101000a900473ffffffffffffffffffffffffffffffffffffffff1673ffffffffffffffffffffffffffffffffffffffff166324d7806c336040518263ffffffff1660e01b8152600401610e5f9190611c1b565b602060405180830381865afa158015610e7a573d5f803e3d5ffd5b505050506040513d601f19601f82011682018060405250810190610e9e9190612526565b610edd576040517f08c379a0000000000000000000000000000000000000000000000000000000008152600401610ed49061259b565b60405180910390fd5b8167ffffffffffffffff168367ffffffffffffffff1610610f33576040517f08c379a0000000000000000000000000000000000000000000000000000000008152600401610f2a90612629565b60405180910390fd5b60405180606001604052808467ffffffffffffffff1681526020018367ffffffffffffffff1681526020018281525060335f820151815f015f6101000a81548167ffffffffffffffff021916908367ffffffffffffffff1602179055506020820151815f0160086101000a81548167ffffffffffffffff021916908367ffffffffffffffff1602179055506040820151816001019081610fd391906127db565b509050507f09e6db48f22357e6dce2bbff89db8ff25f0012a08186d6ea72e2343fdc112e1383838360405161100a939291906128aa565b60405180910390a1505050565b6036602052815f5260405f20602052805f5260405f205f91509150505481565b6035602052805f5260405f205f915090505481565b60325f9054906101000a900473ffffffffffffffffffffffffffffffffffffffff1673ffffffffffffffffffffffffffffffffffffffff166324d7806c336040518263ffffffff1660e01b81526004016110a69190611c1b565b602060405180830381865afa1580156110c1573d5f803e3d5ffd5b505050506040513d601f19601f820116820180604052508101906110e59190612526565b611124576040517f08c379a000000000000000000000000000000000000000000000000000000000815260040161111b9061259b565b60405180910390fd5b5f73ffffffffffffffffffffffffffffffffffffffff168373ffffffffffffffffffffffffffffffffffffffff1603611192576040517f08c379a000000000000000000000000000000000000000000000000000000000815260040161118990612930565b60405180910390fd5b8060365f8573ffffffffffffffffffffffffffffffffffffffff1673ffffffffffffffffffffffffffffffffffffffff1681526020019081526020015f205f8473ffffffffffffffffffffffffffffffffffffffff1673ffffffffffffffffffffffffffffffffffffffff1681526020019081526020015f20819055508173ffffffffffffffffffffffffffffffffffffffff168373ffffffffffffffffffffffffffffffffffffffff167f3d0601f3b0e52fd772f1fa71d91651b34b6a11144bea30d74e0f820019a04dc28360405161126c9190611ae5565b60405180910390a3505050565b611281611759565b5f73ffffffffffffffffffffffffffffffffffffffff168173ffffffffffffffffffffffffffffffffffffffff16036112f1575f6040517f1e4fbdf70000000000000000000000000000000000000000000000000000000081526004016112e89190611c1b565b60405180910390fd5b6112fa816117e0565b50565b611305611759565b61130d6115b5565b5f811161134f576040517f08c379a0000000000000000000000000000000000000000000000000000000008152600401611346906129be565b60405180910390fd5b8060355f8473ffffffffffffffffffffffffffffffffffffffff1673ffffffffffffffffffffffffffffffffffffffff1681526020019081526020015f205410156113cf576040517f08c379a00000000000000000000000000000000000000000000000000000000081526004016113c690612a26565b60405180910390fd5b8060355f8473ffffffffffffffffffffffffffffffffffffffff1673ffffffffffffffffffffffffffffffffffffffff1681526020019081526020015f205f82825461141b9190612270565b925050819055505f73ffffffffffffffffffffffffffffffffffffffff168273ffffffffffffffffffffffffffffffffffffffff160361150a575f61145e610dd0565b73ffffffffffffffffffffffffffffffffffffffff1682604051611481906122d0565b5f6040518083038185875af1925050503d805f81146114bb576040519150601f19603f3d011682016040523d82523d5f602084013e6114c0565b606091505b5050905080611504576040517f08c379a00000000000000000000000000000000000000000000000000000000081526004016114fb9061232e565b60405180910390fd5b5061153d565b61153c611515610dd0565b828473ffffffffffffffffffffffffffffffffffffffff166116029092919063ffffffff16565b5b8173ffffffffffffffffffffffffffffffffffffffff1661155c610dd0565b73ffffffffffffffffffffffffffffffffffffffff167f9b1bfa7fa9ee420a16e124f794c35ac9f90472acc99140eb2f6447c714cad8eb836040516115a19190611ae5565b60405180910390a36115b1611681565b5050565b60025f54036115f9576040517f08c379a00000000000000000000000000000000000000000000000000000000081526004016115f090612a8e565b60405180910390fd5b60025f81905550565b61167c838473ffffffffffffffffffffffffffffffffffffffff1663a9059cbb8585604051602401611635929190612aac565b604051602081830303815290604052915060e01b6020820180517bffffffffffffffffffffffffffffffffffffffffffffffffffffffff83818316178352505050506118d8565b505050565b60015f81905550565b611706848573ffffffffffffffffffffffffffffffffffffffff166323b872dd8686866040516024016116bf93929190612ad3565b604051602081830303815290604052915060e01b6020820180517bffffffffffffffffffffffffffffffffffffffffffffffffffffffff83818316178352505050506118d8565b50505050565b5f7ff0c57e16840df040f15088dc2f81fe391c3923bec73e23a9662efc9c229c6a00905090565b61173b611973565b611744816119b3565b50565b61174f611973565b611757611a37565b565b611761611a48565b73ffffffffffffffffffffffffffffffffffffffff1661177f610dd0565b73ffffffffffffffffffffffffffffffffffffffff16146117de576117a2611a48565b6040517f118cdaa70000000000000000000000000000000000000000000000000000000081526004016117d59190611c1b565b60405180910390fd5b565b5f6117e96118b1565b90505f815f015f9054906101000a900473ffffffffffffffffffffffffffffffffffffffff16905082825f015f6101000a81548173ffffffffffffffffffffffffffffffffffffffff021916908373ffffffffffffffffffffffffffffffffffffffff1602179055508273ffffffffffffffffffffffffffffffffffffffff168173ffffffffffffffffffffffffffffffffffffffff167f8be0079c531659141344cd1fd0a4f28419497f9722a3daafe3b4186f6b6457e060405160405180910390a3505050565b5f7f9016d09d72d40fdae2fd8ceac6b6234c7706214fd39c1cd1e609a0528c199300905090565b5f8060205f8451602086015f885af1806118f7576040513d5f823e3d81fd5b3d92505f519150505f821461191057600181141561192b565b5f8473ffffffffffffffffffffffffffffffffffffffff163b145b1561196d57836040517f5274afe70000000000000000000000000000000000000000000000000000000081526004016119649190611c1b565b60405180910390fd5b50505050565b61197b611a4f565b6119b1576040517fd7e6bcf800000000000000000000000000000000000000000000000000000000815260040160405180910390fd5b565b6119bb611973565b5f73ffffffffffffffffffffffffffffffffffffffff168173ffffffffffffffffffffffffffffffffffffffff1603611a2b575f6040517f1e4fbdf7000000000000000000000000000000000000000000000000000000008152600401611a229190611c1b565b60405180910390fd5b611a34816117e0565b50565b611a3f611973565b60015f81905550565b5f33905090565b5f611a5861170c565b5f0160089054906101000a900460ff16905090565b5f819050919050565b7f4e487b71000000000000000000000000000000000000000000000000000000005f52601160045260245ffd5b5f611aad82611a6d565b9150611ab883611a6d565b9250828201905080821115611ad057611acf611a76565b5b92915050565b611adf81611a6d565b82525050565b5f602082019050611af85f830184611ad6565b92915050565b5f82825260208201905092915050565b7f6e436f6f6b69654a61723a20757365206465706f7369742829000000000000005f82015250565b5f611b42601983611afe565b9150611b4d82611b0e565b602082019050919050565b5f6020820190508181035f830152611b6f81611b36565b9050919050565b5f604051905090565b5f80fd5b5f80fd5b5f73ffffffffffffffffffffffffffffffffffffffff82169050919050565b5f611bb082611b87565b9050919050565b611bc081611ba6565b8114611bca575f80fd5b50565b5f81359050611bdb81611bb7565b92915050565b5f60208284031215611bf657611bf5611b7f565b5b5f611c0384828501611bcd565b91505092915050565b611c1581611ba6565b82525050565b5f602082019050611c2e5f830184611c0c565b92915050565b611c3d81611a6d565b8114611c47575f80fd5b50565b5f81359050611c5881611c34565b92915050565b5f8060408385031215611c7457611c73611b7f565b5b5f611c8185828601611bcd565b9250506020611c9285828601611c4a565b9150509250929050565b5f8060408385031215611cb257611cb1611b7f565b5b5f611cbf85828601611bcd565b9250506020611cd085828601611bcd565b9150509250929050565b5f819050919050565b5f611cfd611cf8611cf384611b87565b611cda565b611b87565b9050919050565b5f611d0e82611ce3565b9050919050565b5f611d1f82611d04565b9050919050565b611d2f81611d15565b82525050565b5f602082019050611d485f830184611d26565b92915050565b5f67ffffffffffffffff82169050919050565b611d6a81611d4e565b82525050565b5f81519050919050565b8281835e5f83830152505050565b5f601f19601f8301169050919050565b5f611da282611d70565b611dac8185611afe565b9350611dbc818560208601611d7a565b611dc581611d88565b840191505092915050565b5f606082019050611de35f830186611d61565b611df06020830185611d61565b8181036040830152611e028184611d98565b9050949350505050565b611e1581611d4e565b8114611e1f575f80fd5b50565b5f81359050611e3081611e0c565b92915050565b5f80fd5b5f80fd5b7f4e487b71000000000000000000000000000000000000000000000000000000005f52604160045260245ffd5b611e7482611d88565b810181811067ffffffffffffffff82111715611e9357611e92611e3e565b5b80604052505050565b5f611ea5611b76565b9050611eb18282611e6b565b919050565b5f67ffffffffffffffff821115611ed057611ecf611e3e565b5b611ed982611d88565b9050602081019050919050565b828183375f83830152505050565b5f611f06611f0184611eb6565b611e9c565b905082815260208101848484011115611f2257611f21611e3a565b5b611f2d848285611ee6565b509392505050565b5f82601f830112611f4957611f48611e36565b5b8135611f59848260208601611ef4565b91505092915050565b5f805f60608486031215611f7957611f78611b7f565b5b5f611f8686828701611e22565b9350506020611f9786828701611e22565b925050604084013567ffffffffffffffff811115611fb857611fb7611b83565b5b611fc486828701611f35565b9150509250925092565b5f805f60608486031215611fe557611fe4611b7f565b5b5f611ff286828701611bcd565b935050602061200386828701611bcd565b925050604061201486828701611c4a565b9150509250925092565b5f61203861203361202e84611d4e565b611cda565b611a6d565b9050919050565b6120488161201e565b82525050565b5f6060820190506120615f830186611ad6565b61206e602083018561203f565b61207b604083018461203f565b949350505050565b7f4e6f20636c61696d61626c6520616d6f756e74000000000000000000000000005f82015250565b5f6120b7601383611afe565b91506120c282612083565b602082019050919050565b5f6020820190508181035f8301526120e4816120ab565b9050919050565b7f496e73756666696369656e742066756e647320696e206a6172000000000000005f82015250565b5f61211f601983611afe565b915061212a826120eb565b602082019050919050565b5f6020820190508181035f83015261214c81612113565b9050919050565b7f54727573740000000000000000000000000000000000000000000000000000005f82015250565b5f612187600583611afe565b915061219282612153565b602082019050919050565b5f6040820190506121b05f830184611c0c565b81810360208301526121c18161217b565b905092915050565b5f815190506121d781611c34565b92915050565b5f602082840312156121f2576121f1611b7f565b5b5f6121ff848285016121c9565b91505092915050565b7f496e73756666696369656e742054727573742073636f726500000000000000005f82015250565b5f61223c601883611afe565b915061224782612208565b602082019050919050565b5f6020820190508181035f83015261226981612230565b9050919050565b5f61227a82611a6d565b915061228583611a6d565b925082820390508181111561229d5761229c611a76565b5b92915050565b5f81905092915050565b50565b5f6122bb5f836122a3565b91506122c6826122ad565b5f82019050919050565b5f6122da826122b0565b9150819050919050565b7f4574686572207472616e73666572206661696c656400000000000000000000005f82015250565b5f612318601583611afe565b9150612323826122e4565b602082019050919050565b5f6020820190508181035f8301526123458161230c565b9050919050565b7f496e636f727265637420457468657220616d6f756e74000000000000000000005f82015250565b5f612380601683611afe565b915061238b8261234c565b602082019050919050565b5f6020820190508181035f8301526123ad81612374565b9050919050565b7f4465706f73697420616d6f756e74206d757374206265206772656174657220745f8201527f68616e207a65726f000000000000000000000000000000000000000000000000602082015250565b5f61240e602883611afe565b9150612419826123b4565b604082019050919050565b5f6020820190508181035f83015261243b81612402565b9050919050565b5f819050919050565b5f61246561246061245b84612442565b611cda565b611d4e565b9050919050565b6124758161244b565b82525050565b5f60208201905061248e5f83018461246c565b92915050565b7f4e487b71000000000000000000000000000000000000000000000000000000005f52602260045260245ffd5b5f60028204905060018216806124d857607f821691505b6020821081036124eb576124ea612494565b5b50919050565b5f8115159050919050565b612505816124f1565b811461250f575f80fd5b50565b5f81519050612520816124fc565b92915050565b5f6020828403121561253b5761253a611b7f565b5b5f61254884828501612512565b91505092915050565b7f43616c6c6572206973206e6f7420616e2061646d696e000000000000000000005f82015250565b5f612585601683611afe565b915061259082612551565b602082019050919050565b5f6020820190508181035f8301526125b281612579565b9050919050565b7f53746172742074696d65206d757374206265206265666f726520656e642074695f8201527f6d65000000000000000000000000000000000000000000000000000000000000602082015250565b5f612613602283611afe565b915061261e826125b9565b604082019050919050565b5f6020820190508181035f83015261264081612607565b9050919050565b5f819050815f5260205f209050919050565b5f6020601f8301049050919050565b5f82821b905092915050565b5f600883026126a37fffffffffffffffffffffffffffffffffffffffffffffffffffffffffffffffff82612668565b6126ad8683612668565b95508019841693508086168417925050509392505050565b5f6126df6126da6126d584611a6d565b611cda565b611a6d565b9050919050565b5f819050919050565b6126f8836126c5565b61270c612704826126e6565b848454612674565b825550505050565b5f90565b612720612714565b61272b8184846126ef565b505050565b5b8181101561274e576127435f82612718565b600181019050612731565b5050565b601f8211156127935761276481612647565b61276d84612659565b8101602085101561277c578190505b61279061278885612659565b830182612730565b50505b505050565b5f82821c905092915050565b5f6127b35f1984600802612798565b1980831691505092915050565b5f6127cb83836127a4565b9150826002028217905092915050565b6127e482611d70565b67ffffffffffffffff8111156127fd576127fc611e3e565b5b61280782546124c1565b612812828285612752565b5f60209050601f831160018114612843575f8415612831578287015190505b61283b85826127c0565b8655506128a2565b601f19841661285186612647565b5f5b8281101561287857848901518255600182019150602085019450602081019050612853565b868310156128955784890151612891601f8916826127a4565b8355505b6001600288020188555050505b505050505050565b5f6060820190506128bd5f83018661203f565b6128ca602083018561203f565b81810360408301526128dc8184611d98565b9050949350505050565b7f5a65726f206164647265737320757365720000000000000000000000000000005f82015250565b5f61291a601183611afe565b9150612925826128e6565b602082019050919050565b5f6020820190508181035f8301526129478161290e565b9050919050565b7f5769746864726177616c20616d6f756e74206d757374206265206772656174655f8201527f72207468616e207a65726f000000000000000000000000000000000000000000602082015250565b5f6129a8602b83611afe565b91506129b38261294e565b604082019050919050565b5f6020820190508181035f8301526129d58161299c565b9050919050565b7f496e73756666696369656e742066756e647300000000000000000000000000005f82015250565b5f612a10601283611afe565b9150612a1b826129dc565b602082019050919050565b5f6020820190508181035f830152612a3d81612a04565b9050919050565b7f5265656e7472616e637947756172643a207265656e7472616e742063616c6c005f82015250565b5f612a78601f83611afe565b9150612a8382612a44565b602082019050919050565b5f6020820190508181035f830152612aa581612a6c565b9050919050565b5f604082019050612abf5f830185611c0c565b612acc6020830184611ad6565b9392505050565b5f606082019050612ae65f830186611c0c565b612af36020830185611c0c565b612b006040830184611ad6565b94935050505056fea26469706673582212205d9af27273360c69383a4b916da5f67842ac34296b3a823290499473bdb2881f64736f6c634300081a0033",
					"opcodes": "PUSH1 0x80 PUSH1 0x40 MSTORE CALLVALUE DUP1 ISZERO PUSH1 0xE JUMPI PUSH0 DUP1 REVERT JUMPDEST POP PUSH2 0x2B3E DUP1 PUSH2 0x1C PUSH0 CODECOPY PUSH0 RETURN INVALID PUSH1 0x80 PUSH1 0x40 MSTORE PUSH1 0x4 CALLDATASIZE LT PUSH2 0xE0 JUMPI PUSH0 CALLDATALOAD PUSH1 0xE0 SHR DUP1 PUSH4 0x8DA5CB5B GT PUSH2 0x7E JUMPI DUP1 PUSH4 0xAEE9C872 GT PUSH2 0x58 JUMPI DUP1 PUSH4 0xAEE9C872 EQ PUSH2 0x36A JUMPI DUP1 PUSH4 0xB807A3C4 EQ PUSH2 0x3A6 JUMPI DUP1 PUSH4 0xF2FDE38B EQ PUSH2 0x3CE JUMPI DUP1 PUSH4 0xF3FEF3A3 EQ PUSH2 0x3F6 JUMPI PUSH2 0x19F JUMP JUMPDEST DUP1 PUSH4 0x8DA5CB5B EQ PUSH2 0x2DC JUMPI DUP1 PUSH4 0xA9012C89 EQ PUSH2 0x306 JUMPI DUP1 PUSH4 0xA9590E8A EQ PUSH2 0x32E JUMPI PUSH2 0x19F JUMP JUMPDEST DUP1 PUSH4 0x485CC955 GT PUSH2 0xBA JUMPI DUP1 PUSH4 0x485CC955 EQ PUSH2 0x248 JUMPI DUP1 PUSH4 0x715018A6 EQ PUSH2 0x270 JUMPI DUP1 PUSH4 0x85C758F7 EQ PUSH2 0x286 JUMPI DUP1 PUSH4 0x8A19C8BC EQ PUSH2 0x2B0 JUMPI PUSH2 0x19F JUMP JUMPDEST DUP1 PUSH4 0x1E83409A EQ PUSH2 0x1DA JUMPI DUP1 PUSH4 0x31F7D964 EQ PUSH2 0x202 JUMPI DUP1 PUSH4 0x47E7EF24 EQ PUSH2 0x22C JUMPI PUSH2 0x19F JUMP JUMPDEST CALLDATASIZE PUSH2 0x19F JUMPI CALLVALUE PUSH1 0x35 PUSH0 DUP1 PUSH20 0xFFFFFFFFFFFFFFFFFFFFFFFFFFFFFFFFFFFFFFFF AND PUSH20 0xFFFFFFFFFFFFFFFFFFFFFFFFFFFFFFFFFFFFFFFF AND DUP2 MSTORE PUSH1 0x20 ADD SWAP1 DUP2 MSTORE PUSH1 0x20 ADD PUSH0 KECCAK256 PUSH0 DUP3 DUP3 SLOAD PUSH2 0x131 SWAP2 SWAP1 PUSH2 0x1AA3 JUMP JUMPDEST SWAP3 POP POP DUP2 SWAP1 SSTORE POP PUSH0 PUSH20 0xFFFFFFFFFFFFFFFFFFFFFFFFFFFFFFFFFFFFFFFF AND CALLER PUSH20 0xFFFFFFFFFFFFFFFFFFFFFFFFFFFFFFFFFFFFFFFF AND PUSH32 0x5548C837AB068CF56A2C2479DF0882A4922FD203EDB7517321831D95078C5F62 CALLVALUE PUSH1 0x40 MLOAD PUSH2 0x195 SWAP2 SWAP1 PUSH2 0x1AE5 JUMP JUMPDEST PUSH1 0x40 MLOAD DUP1 SWAP2 SUB SWAP1 LOG3 STOP JUMPDEST PUSH1 0x40 MLOAD PUSH32 0x8C379A000000000000000000000000000000000000000000000000000000000 DUP2 MSTORE PUSH1 0x4 ADD PUSH2 0x1D1 SWAP1 PUSH2 0x1B58 JUMP JUMPDEST PUSH1 0x40 MLOAD DUP1 SWAP2 SUB SWAP1 REVERT JUMPDEST CALLVALUE DUP1 ISZERO PUSH2 0x1E5 JUMPI PUSH0 DUP1 REVERT JUMPDEST POP PUSH2 0x200 PUSH1 0x4 DUP1 CALLDATASIZE SUB DUP2 ADD SWAP1 PUSH2 0x1FB SWAP2 SWAP1 PUSH2 0x1BE1 JUMP JUMPDEST PUSH2 0x41E JUMP JUMPDEST STOP JUMPDEST CALLVALUE DUP1 ISZERO PUSH2 0x20D JUMPI PUSH0 DUP1 REVERT JUMPDEST POP PUSH2 0x216 PUSH2 0x951 JUMP JUMPDEST PUSH1 0x40 MLOAD PUSH2 0x223 SWAP2 SWAP1 PUSH2 0x1C1B JUMP JUMPDEST PUSH1 0x40 MLOAD DUP1 SWAP2 SUB SWAP1 RETURN JUMPDEST PUSH2 0x246 PUSH1 0x4 DUP1 CALLDATASIZE SUB DUP2 ADD SWAP1 PUSH2 0x241 SWAP2 SWAP1 PUSH2 0x1C5E JUMP JUMPDEST PUSH2 0x955 JUMP JUMPDEST STOP JUMPDEST CALLVALUE DUP1 ISZERO PUSH2 0x253 JUMPI PUSH0 DUP1 REVERT JUMPDEST POP PUSH2 0x26E PUSH1 0x4 DUP1 CALLDATASIZE SUB DUP2 ADD SWAP1 PUSH2 0x269 SWAP2 SWAP1 PUSH2 0x1C9C JUMP JUMPDEST PUSH2 0xB0B JUMP JUMPDEST STOP JUMPDEST CALLVALUE DUP1 ISZERO PUSH2 0x27B JUMPI PUSH0 DUP1 REVERT JUMPDEST POP PUSH2 0x284 PUSH2 0xCD5 JUMP JUMPDEST STOP JUMPDEST CALLVALUE DUP1 ISZERO PUSH2 0x291 JUMPI PUSH0 DUP1 REVERT JUMPDEST POP PUSH2 0x29A PUSH2 0xCE8 JUMP JUMPDEST PUSH1 0x40 MLOAD PUSH2 0x2A7 SWAP2 SWAP1 PUSH2 0x1D35 JUMP JUMPDEST PUSH1 0x40 MLOAD DUP1 SWAP2 SUB SWAP1 RETURN JUMPDEST CALLVALUE DUP1 ISZERO PUSH2 0x2BB JUMPI PUSH0 DUP1 REVERT JUMPDEST POP PUSH2 0x2C4 PUSH2 0xD0D JUMP JUMPDEST PUSH1 0x40 MLOAD PUSH2 0x2D3 SWAP4 SWAP3 SWAP2 SWAP1 PUSH2 0x1DD0 JUMP JUMPDEST PUSH1 0x40 MLOAD DUP1 SWAP2 SUB SWAP1 RETURN JUMPDEST CALLVALUE DUP1 ISZERO PUSH2 0x2E7 JUMPI PUSH0 DUP1 REVERT JUMPDEST POP PUSH2 0x2F0 PUSH2 0xDD0 JUMP JUMPDEST PUSH1 0x40 MLOAD PUSH2 0x2FD SWAP2 SWAP1 PUSH2 0x1C1B JUMP JUMPDEST PUSH1 0x40 MLOAD DUP1 SWAP2 SUB SWAP1 RETURN JUMPDEST CALLVALUE DUP1 ISZERO PUSH2 0x311 JUMPI PUSH0 DUP1 REVERT JUMPDEST POP PUSH2 0x32C PUSH1 0x4 DUP1 CALLDATASIZE SUB DUP2 ADD SWAP1 PUSH2 0x327 SWAP2 SWAP1 PUSH2 0x1F62 JUMP JUMPDEST PUSH2 0xE05 JUMP JUMPDEST STOP JUMPDEST CALLVALUE DUP1 ISZERO PUSH2 0x339 JUMPI PUSH0 DUP1 REVERT JUMPDEST POP PUSH2 0x354 PUSH1 0x4 DUP1 CALLDATASIZE SUB DUP2 ADD SWAP1 PUSH2 0x34F SWAP2 SWAP1 PUSH2 0x1C9C JUMP JUMPDEST PUSH2 0x1017 JUMP JUMPDEST PUSH1 0x40 MLOAD PUSH2 0x361 SWAP2 SWAP1 PUSH2 0x1AE5 JUMP JUMPDEST PUSH1 0x40 MLOAD DUP1 SWAP2 SUB SWAP1 RETURN JUMPDEST CALLVALUE DUP1 ISZERO PUSH2 0x375 JUMPI PUSH0 DUP1 REVERT JUMPDEST POP PUSH2 0x390 PUSH1 0x4 DUP1 CALLDATASIZE SUB DUP2 ADD SWAP1 PUSH2 0x38B SWAP2 SWAP1 PUSH2 0x1BE1 JUMP JUMPDEST PUSH2 0x1037 JUMP JUMPDEST PUSH1 0x40 MLOAD PUSH2 0x39D SWAP2 SWAP1 PUSH2 0x1AE5 JUMP JUMPDEST PUSH1 0x40 MLOAD DUP1 SWAP2 SUB SWAP1 RETURN JUMPDEST CALLVALUE DUP1 ISZERO PUSH2 0x3B1 JUMPI PUSH0 DUP1 REVERT JUMPDEST POP PUSH2 0x3CC PUSH1 0x4 DUP1 CALLDATASIZE SUB DUP2 ADD SWAP1 PUSH2 0x3C7 SWAP2 SWAP1 PUSH2 0x1FCE JUMP JUMPDEST PUSH2 0x104C JUMP JUMPDEST STOP JUMPDEST CALLVALUE DUP1 ISZERO PUSH2 0x3D9 JUMPI PUSH0 DUP1 REVERT JUMPDEST POP PUSH2 0x3F4 PUSH1 0x4 DUP1 CALLDATASIZE SUB DUP2 ADD SWAP1 PUSH2 0x3EF SWAP2 SWAP1 PUSH2 0x1BE1 JUMP JUMPDEST PUSH2 0x1279 JUMP JUMPDEST STOP JUMPDEST CALLVALUE DUP1 ISZERO PUSH2 0x401 JUMPI PUSH0 DUP1 REVERT JUMPDEST POP PUSH2 0x41C PUSH1 0x4 DUP1 CALLDATASIZE SUB DUP2 ADD SWAP1 PUSH2 0x417 SWAP2 SWAP1 PUSH2 0x1C5E JUMP JUMPDEST PUSH2 0x12FD JUMP JUMPDEST STOP JUMPDEST PUSH2 0x426 PUSH2 0x15B5 JUMP JUMPDEST PUSH1 0x33 PUSH0 ADD PUSH0 SWAP1 SLOAD SWAP1 PUSH2 0x100 EXP SWAP1 DIV PUSH8 0xFFFFFFFFFFFFFFFF AND PUSH8 0xFFFFFFFFFFFFFFFF AND TIMESTAMP LT DUP1 PUSH2 0x476 JUMPI POP PUSH1 0x33 PUSH0 ADD PUSH1 0x8 SWAP1 SLOAD SWAP1 PUSH2 0x100 EXP SWAP1 DIV PUSH8 0xFFFFFFFFFFFFFFFF AND PUSH8 0xFFFFFFFFFFFFFFFF AND TIMESTAMP GT JUMPDEST ISZERO PUSH2 0x4EB JUMPI TIMESTAMP PUSH1 0x33 PUSH0 ADD PUSH0 SWAP1 SLOAD SWAP1 PUSH2 0x100 EXP SWAP1 DIV PUSH8 0xFFFFFFFFFFFFFFFF AND PUSH1 0x33 PUSH0 ADD PUSH1 0x8 SWAP1 SLOAD SWAP1 PUSH2 0x100 EXP SWAP1 DIV PUSH8 0xFFFFFFFFFFFFFFFF AND PUSH1 0x40 MLOAD PUSH32 0xFA7410D400000000000000000000000000000000000000000000000000000000 DUP2 MSTORE PUSH1 0x4 ADD PUSH2 0x4E2 SWAP4 SWAP3 SWAP2 SWAP1 PUSH2 0x204E JUMP JUMPDEST PUSH1 0x40 MLOAD DUP1 SWAP2 SUB SWAP1 REVERT JUMPDEST PUSH0 PUSH1 0x36 PUSH0 CALLER PUSH20 0xFFFFFFFFFFFFFFFFFFFFFFFFFFFFFFFFFFFFFFFF AND PUSH20 0xFFFFFFFFFFFFFFFFFFFFFFFFFFFFFFFFFFFFFFFF AND DUP2 MSTORE PUSH1 0x20 ADD SWAP1 DUP2 MSTORE PUSH1 0x20 ADD PUSH0 KECCAK256 PUSH0 DUP4 PUSH20 0xFFFFFFFFFFFFFFFFFFFFFFFFFFFFFFFFFFFFFFFF AND PUSH20 0xFFFFFFFFFFFFFFFFFFFFFFFFFFFFFFFFFFFFFFFF AND DUP2 MSTORE PUSH1 0x20 ADD SWAP1 DUP2 MSTORE PUSH1 0x20 ADD PUSH0 KECCAK256 SLOAD SWAP1 POP PUSH0 DUP2 GT PUSH2 0x5A9 JUMPI PUSH1 0x40 MLOAD PUSH32 0x8C379A000000000000000000000000000000000000000000000000000000000 DUP2 MSTORE PUSH1 0x4 ADD PUSH2 0x5A0 SWAP1 PUSH2 0x20CD JUMP JUMPDEST PUSH1 0x40 MLOAD DUP1 SWAP2 SUB SWAP1 REVERT JUMPDEST DUP1 PUSH1 0x35 PUSH0 DUP5 PUSH20 0xFFFFFFFFFFFFFFFFFFFFFFFFFFFFFFFFFFFFFFFF AND PUSH20 0xFFFFFFFFFFFFFFFFFFFFFFFFFFFFFFFFFFFFFFFF AND DUP2 MSTORE PUSH1 0x20 ADD SWAP1 DUP2 MSTORE PUSH1 0x20 ADD PUSH0 KECCAK256 SLOAD LT ISZERO PUSH2 0x629 JUMPI PUSH1 0x40 MLOAD PUSH32 0x8C379A000000000000000000000000000000000000000000000000000000000 DUP2 MSTORE PUSH1 0x4 ADD PUSH2 0x620 SWAP1 PUSH2 0x2135 JUMP JUMPDEST PUSH1 0x40 MLOAD DUP1 SWAP2 SUB SWAP1 REVERT JUMPDEST PUSH0 PUSH1 0x32 PUSH0 SWAP1 SLOAD SWAP1 PUSH2 0x100 EXP SWAP1 DIV PUSH20 0xFFFFFFFFFFFFFFFFFFFFFFFFFFFFFFFFFFFFFFFF AND PUSH20 0xFFFFFFFFFFFFFFFFFFFFFFFFFFFFFFFFFFFFFFFF AND PUSH4 0xDB4F1024 CALLER PUSH1 0x40 MLOAD DUP3 PUSH4 0xFFFFFFFF AND PUSH1 0xE0 SHL DUP2 MSTORE PUSH1 0x4 ADD PUSH2 0x684 SWAP2 SWAP1 PUSH2 0x219D JUMP JUMPDEST PUSH1 0x20 PUSH1 0x40 MLOAD DUP1 DUP4 SUB DUP2 DUP7 GAS STATICCALL ISZERO DUP1 ISZERO PUSH2 0x69F JUMPI RETURNDATASIZE PUSH0 DUP1 RETURNDATACOPY RETURNDATASIZE PUSH0 REVERT JUMPDEST POP POP POP POP PUSH1 0x40 MLOAD RETURNDATASIZE PUSH1 0x1F NOT PUSH1 0x1F DUP3 ADD AND DUP3 ADD DUP1 PUSH1 0x40 MSTORE POP DUP2 ADD SWAP1 PUSH2 0x6C3 SWAP2 SWAP1 PUSH2 0x21DD JUMP JUMPDEST GT PUSH2 0x703 JUMPI PUSH1 0x40 MLOAD PUSH32 0x8C379A000000000000000000000000000000000000000000000000000000000 DUP2 MSTORE PUSH1 0x4 ADD PUSH2 0x6FA SWAP1 PUSH2 0x2252 JUMP JUMPDEST PUSH1 0x40 MLOAD DUP1 SWAP2 SUB SWAP1 REVERT JUMPDEST PUSH0 PUSH1 0x36 PUSH0 CALLER PUSH20 0xFFFFFFFFFFFFFFFFFFFFFFFFFFFFFFFFFFFFFFFF AND PUSH20 0xFFFFFFFFFFFFFFFFFFFFFFFFFFFFFFFFFFFFFFFF AND DUP2 MSTORE PUSH1 0x20 ADD SWAP1 DUP2 MSTORE PUSH1 0x20 ADD PUSH0 KECCAK256 PUSH0 DUP5 PUSH20 0xFFFFFFFFFFFFFFFFFFFFFFFFFFFFFFFFFFFFFFFF AND PUSH20 0xFFFFFFFFFFFFFFFFFFFFFFFFFFFFFFFFFFFFFFFF AND DUP2 MSTORE PUSH1 0x20 ADD SWAP1 DUP2 MSTORE PUSH1 0x20 ADD PUSH0 KECCAK256 DUP2 SWAP1 SSTORE POP DUP1 PUSH1 0x35 PUSH0 DUP5 PUSH20 0xFFFFFFFFFFFFFFFFFFFFFFFFFFFFFFFFFFFFFFFF AND PUSH20 0xFFFFFFFFFFFFFFFFFFFFFFFFFFFFFFFFFFFFFFFF AND DUP2 MSTORE PUSH1 0x20 ADD SWAP1 DUP2 MSTORE PUSH1 0x20 ADD PUSH0 KECCAK256 PUSH0 DUP3 DUP3 SLOAD PUSH2 0x7CC SWAP2 SWAP1 PUSH2 0x2270 JUMP JUMPDEST SWAP3 POP POP DUP2 SWAP1 SSTORE POP PUSH0 PUSH20 0xFFFFFFFFFFFFFFFFFFFFFFFFFFFFFFFFFFFFFFFF AND DUP3 PUSH20 0xFFFFFFFFFFFFFFFFFFFFFFFFFFFFFFFFFFFFFFFF AND SUB PUSH2 0x8B4 JUMPI PUSH0 CALLER PUSH20 0xFFFFFFFFFFFFFFFFFFFFFFFFFFFFFFFFFFFFFFFF AND DUP3 PUSH1 0x40 MLOAD PUSH2 0x82B SWAP1 PUSH2 0x22D0 JUMP JUMPDEST PUSH0 PUSH1 0x40 MLOAD DUP1 DUP4 SUB DUP2 DUP6 DUP8 GAS CALL SWAP3 POP POP POP RETURNDATASIZE DUP1 PUSH0 DUP2 EQ PUSH2 0x865 JUMPI PUSH1 0x40 MLOAD SWAP2 POP PUSH1 0x1F NOT PUSH1 0x3F RETURNDATASIZE ADD AND DUP3 ADD PUSH1 0x40 MSTORE RETURNDATASIZE DUP3 MSTORE RETURNDATASIZE PUSH0 PUSH1 0x20 DUP5 ADD RETURNDATACOPY PUSH2 0x86A JUMP JUMPDEST PUSH1 0x60 SWAP2 POP JUMPDEST POP POP SWAP1 POP DUP1 PUSH2 0x8AE JUMPI PUSH1 0x40 MLOAD PUSH32 0x8C379A000000000000000000000000000000000000000000000000000000000 DUP2 MSTORE PUSH1 0x4 ADD PUSH2 0x8A5 SWAP1 PUSH2 0x232E JUMP JUMPDEST PUSH1 0x40 MLOAD DUP1 SWAP2 SUB SWAP1 REVERT JUMPDEST POP PUSH2 0x8E0 JUMP JUMPDEST PUSH2 0x8DF CALLER DUP3 DUP5 PUSH20 0xFFFFFFFFFFFFFFFFFFFFFFFFFFFFFFFFFFFFFFFF AND PUSH2 0x1602 SWAP1 SWAP3 SWAP2 SWAP1 PUSH4 0xFFFFFFFF AND JUMP JUMPDEST JUMPDEST DUP2 PUSH20 0xFFFFFFFFFFFFFFFFFFFFFFFFFFFFFFFFFFFFFFFF AND CALLER PUSH20 0xFFFFFFFFFFFFFFFFFFFFFFFFFFFFFFFFFFFFFFFF AND PUSH32 0xF7A40077FF7A04C7E61F6F26FB13774259DDF1B6BCE9ECF26A8276CDD3992683 DUP4 PUSH1 0x40 MLOAD PUSH2 0x93D SWAP2 SWAP1 PUSH2 0x1AE5 JUMP JUMPDEST PUSH1 0x40 MLOAD DUP1 SWAP2 SUB SWAP1 LOG3 POP PUSH2 0x94E PUSH2 0x1681 JUMP JUMPDEST POP JUMP JUMPDEST PUSH0 DUP2 JUMP JUMPDEST PUSH2 0x95D PUSH2 0x15B5 JUMP JUMPDEST PUSH0 PUSH20 0xFFFFFFFFFFFFFFFFFFFFFFFFFFFFFFFFFFFFFFFF AND DUP3 PUSH20 0xFFFFFFFFFFFFFFFFFFFFFFFFFFFFFFFFFFFFFFFF AND SUB PUSH2 0x9D7 JUMPI DUP1 CALLVALUE EQ PUSH2 0x9D2 JUMPI PUSH1 0x40 MLOAD PUSH32 0x8C379A000000000000000000000000000000000000000000000000000000000 DUP2 MSTORE PUSH1 0x4 ADD PUSH2 0x9C9 SWAP1 PUSH2 0x2396 JUMP JUMPDEST PUSH1 0x40 MLOAD DUP1 SWAP2 SUB SWAP1 REVERT JUMPDEST PUSH2 0xA47 JUMP JUMPDEST PUSH0 DUP2 GT PUSH2 0xA19 JUMPI PUSH1 0x40 MLOAD PUSH32 0x8C379A000000000000000000000000000000000000000000000000000000000 DUP2 MSTORE PUSH1 0x4 ADD PUSH2 0xA10 SWAP1 PUSH2 0x2424 JUMP JUMPDEST PUSH1 0x40 MLOAD DUP1 SWAP2 SUB SWAP1 REVERT JUMPDEST PUSH2 0xA46 CALLER ADDRESS DUP4 DUP6 PUSH20 0xFFFFFFFFFFFFFFFFFFFFFFFFFFFFFFFFFFFFFFFF AND PUSH2 0x168A SWAP1 SWAP4 SWAP3 SWAP2 SWAP1 PUSH4 0xFFFFFFFF AND JUMP JUMPDEST JUMPDEST DUP1 PUSH1 0x35 PUSH0 DUP5 PUSH20 0xFFFFFFFFFFFFFFFFFFFFFFFFFFFFFFFFFFFFFFFF AND PUSH20 0xFFFFFFFFFFFFFFFFFFFFFFFFFFFFFFFFFFFFFFFF AND DUP2 MSTORE PUSH1 0x20 ADD SWAP1 DUP2 MSTORE PUSH1 0x20 ADD PUSH0 KECCAK256 PUSH0 DUP3 DUP3 SLOAD PUSH2 0xA93 SWAP2 SWAP1 PUSH2 0x1AA3 JUMP JUMPDEST SWAP3 POP POP DUP2 SWAP1 SSTORE POP DUP2 PUSH20 0xFFFFFFFFFFFFFFFFFFFFFFFFFFFFFFFFFFFFFFFF AND CALLER PUSH20 0xFFFFFFFFFFFFFFFFFFFFFFFFFFFFFFFFFFFFFFFF AND PUSH32 0x5548C837AB068CF56A2C2479DF0882A4922FD203EDB7517321831D95078C5F62 DUP4 PUSH1 0x40 MLOAD PUSH2 0xAF7 SWAP2 SWAP1 PUSH2 0x1AE5 JUMP JUMPDEST PUSH1 0x40 MLOAD DUP1 SWAP2 SUB SWAP1 LOG3 PUSH2 0xB07 PUSH2 0x1681 JUMP JUMPDEST POP POP JUMP JUMPDEST PUSH0 PUSH2 0xB14 PUSH2 0x170C JUMP JUMPDEST SWAP1 POP PUSH0 DUP2 PUSH0 ADD PUSH1 0x8 SWAP1 SLOAD SWAP1 PUSH2 0x100 EXP SWAP1 DIV PUSH1 0xFF AND ISZERO SWAP1 POP PUSH0 DUP3 PUSH0 ADD PUSH0 SWAP1 SLOAD SWAP1 PUSH2 0x100 EXP SWAP1 DIV PUSH8 0xFFFFFFFFFFFFFFFF AND SWAP1 POP PUSH0 DUP1 DUP3 PUSH8 0xFFFFFFFFFFFFFFFF AND EQ DUP1 ISZERO PUSH2 0xB5C JUMPI POP DUP3 JUMPDEST SWAP1 POP PUSH0 PUSH1 0x1 DUP4 PUSH8 0xFFFFFFFFFFFFFFFF AND EQ DUP1 ISZERO PUSH2 0xB8F JUMPI POP PUSH0 ADDRESS PUSH20 0xFFFFFFFFFFFFFFFFFFFFFFFFFFFFFFFFFFFFFFFF AND EXTCODESIZE EQ JUMPDEST SWAP1 POP DUP2 ISZERO DUP1 ISZERO PUSH2 0xB9D JUMPI POP DUP1 ISZERO JUMPDEST ISZERO PUSH2 0xBD4 JUMPI PUSH1 0x40 MLOAD PUSH32 0xF92EE8A900000000000000000000000000000000000000000000000000000000 DUP2 MSTORE PUSH1 0x4 ADD PUSH1 0x40 MLOAD DUP1 SWAP2 SUB SWAP1 REVERT JUMPDEST PUSH1 0x1 DUP6 PUSH0 ADD PUSH0 PUSH2 0x100 EXP DUP2 SLOAD DUP2 PUSH8 0xFFFFFFFFFFFFFFFF MUL NOT AND SWAP1 DUP4 PUSH8 0xFFFFFFFFFFFFFFFF AND MUL OR SWAP1 SSTORE POP DUP4 ISZERO PUSH2 0xC21 JUMPI PUSH1 0x1 DUP6 PUSH0 ADD PUSH1 0x8 PUSH2 0x100 EXP DUP2 SLOAD DUP2 PUSH1 0xFF MUL NOT AND SWAP1 DUP4 ISZERO ISZERO MUL OR SWAP1 SSTORE POP JUMPDEST PUSH2 0xC2A DUP7 PUSH2 0x1733 JUMP JUMPDEST PUSH2 0xC32 PUSH2 0x1747 JUMP JUMPDEST DUP7 PUSH1 0x32 PUSH0 PUSH2 0x100 EXP DUP2 SLOAD DUP2 PUSH20 0xFFFFFFFFFFFFFFFFFFFFFFFFFFFFFFFFFFFFFFFF MUL NOT AND SWAP1 DUP4 PUSH20 0xFFFFFFFFFFFFFFFFFFFFFFFFFFFFFFFFFFFFFFFF AND MUL OR SWAP1 SSTORE POP DUP4 ISZERO PUSH2 0xCCC JUMPI PUSH0 DUP6 PUSH0 ADD PUSH1 0x8 PUSH2 0x100 EXP DUP2 SLOAD DUP2 PUSH1 0xFF MUL NOT AND SWAP1 DUP4 ISZERO ISZERO MUL OR SWAP1 SSTORE POP PUSH32 0xC7F505B2F371AE2175EE4913F4499E1F2633A7B5936321EED1CDAEB6115181D2 PUSH1 0x1 PUSH1 0x40 MLOAD PUSH2 0xCC3 SWAP2 SWAP1 PUSH2 0x247B JUMP JUMPDEST PUSH1 0x40 MLOAD DUP1 SWAP2 SUB SWAP1 LOG1 JUMPDEST POP POP POP POP POP POP POP JUMP JUMPDEST PUSH2 0xCDD PUSH2 0x1759 JUMP JUMPDEST PUSH2 0xCE6 PUSH0 PUSH2 0x17E0 JUMP JUMPDEST JUMP JUMPDEST PUSH1 0x32 PUSH0 SWAP1 SLOAD SWAP1 PUSH2 0x100 EXP SWAP1 DIV PUSH20 0xFFFFFFFFFFFFFFFFFFFFFFFFFFFFFFFFFFFFFFFF AND DUP2 JUMP JUMPDEST PUSH1 0x33 DUP1 PUSH0 ADD PUSH0 SWAP1 SLOAD SWAP1 PUSH2 0x100 EXP SWAP1 DIV PUSH8 0xFFFFFFFFFFFFFFFF AND SWAP1 DUP1 PUSH0 ADD PUSH1 0x8 SWAP1 SLOAD SWAP1 PUSH2 0x100 EXP SWAP1 DIV PUSH8 0xFFFFFFFFFFFFFFFF AND SWAP1 DUP1 PUSH1 0x1 ADD DUP1 SLOAD PUSH2 0xD4F SWAP1 PUSH2 0x24C1 JUMP JUMPDEST DUP1 PUSH1 0x1F ADD PUSH1 0x20 DUP1 SWAP2 DIV MUL PUSH1 0x20 ADD PUSH1 0x40 MLOAD SWAP1 DUP2 ADD PUSH1 0x40 MSTORE DUP1 SWAP3 SWAP2 SWAP1 DUP2 DUP2 MSTORE PUSH1 0x20 ADD DUP3 DUP1 SLOAD PUSH2 0xD7B SWAP1 PUSH2 0x24C1 JUMP JUMPDEST DUP1 ISZERO PUSH2 0xDC6 JUMPI DUP1 PUSH1 0x1F LT PUSH2 0xD9D JUMPI PUSH2 0x100 DUP1 DUP4 SLOAD DIV MUL DUP4 MSTORE SWAP2 PUSH1 0x20 ADD SWAP2 PUSH2 0xDC6 JUMP JUMPDEST DUP3 ADD SWAP2 SWAP1 PUSH0 MSTORE PUSH1 0x20 PUSH0 KECCAK256 SWAP1 JUMPDEST DUP2 SLOAD DUP2 MSTORE SWAP1 PUSH1 0x1 ADD SWAP1 PUSH1 0x20 ADD DUP1 DUP4 GT PUSH2 0xDA9 JUMPI DUP3 SWAP1 SUB PUSH1 0x1F AND DUP3 ADD SWAP2 JUMPDEST POP POP POP POP POP SWAP1 POP DUP4 JUMP JUMPDEST PUSH0 DUP1 PUSH2 0xDDA PUSH2 0x18B1 JUMP JUMPDEST SWAP1 POP DUP1 PUSH0 ADD PUSH0 SWAP1 SLOAD SWAP1 PUSH2 0x100 EXP SWAP1 DIV PUSH20 0xFFFFFFFFFFFFFFFFFFFFFFFFFFFFFFFFFFFFFFFF AND SWAP2 POP POP SWAP1 JUMP JUMPDEST PUSH1 0x32 PUSH0 SWAP1 SLOAD SWAP1 PUSH2 0x100 EXP SWAP1 DIV PUSH20 0xFFFFFFFFFFFFFFFFFFFFFFFFFFFFFFFFFFFFFFFF AND PUSH20 0xFFFFFFFFFFFFFFFFFFFFFFFFFFFFFFFFFFFFFFFF AND PUSH4 0x24D7806C CALLER PUSH1 0x40 MLOAD DUP3 PUSH4 0xFFFFFFFF AND PUSH1 0xE0 SHL DUP2 MSTORE PUSH1 0x4 ADD PUSH2 0xE5F SWAP2 SWAP1 PUSH2 0x1C1B JUMP JUMPDEST PUSH1 0x20 PUSH1 0x40 MLOAD DUP1 DUP4 SUB DUP2 DUP7 GAS STATICCALL ISZERO DUP1 ISZERO PUSH2 0xE7A JUMPI RETURNDATASIZE PUSH0 DUP1 RETURNDATACOPY RETURNDATASIZE PUSH0 REVERT JUMPDEST POP POP POP POP PUSH1 0x40 MLOAD RETURNDATASIZE PUSH1 0x1F NOT PUSH1 0x1F DUP3 ADD AND DUP3 ADD DUP1 PUSH1 0x40 MSTORE POP DUP2 ADD SWAP1 PUSH2 0xE9E SWAP2 SWAP1 PUSH2 0x2526 JUMP JUMPDEST PUSH2 0xEDD JUMPI PUSH1 0x40 MLOAD PUSH32 0x8C379A000000000000000000000000000000000000000000000000000000000 DUP2 MSTORE PUSH1 0x4 ADD PUSH2 0xED4 SWAP1 PUSH2 0x259B JUMP JUMPDEST PUSH1 0x40 MLOAD DUP1 SWAP2 SUB SWAP1 REVERT JUMPDEST DUP2 PUSH8 0xFFFFFFFFFFFFFFFF AND DUP4 PUSH8 0xFFFFFFFFFFFFFFFF AND LT PUSH2 0xF33 JUMPI PUSH1 0x40 MLOAD PUSH32 0x8C379A000000000000000000000000000000000000000000000000000000000 DUP2 MSTORE PUSH1 0x4 ADD PUSH2 0xF2A SWAP1 PUSH2 0x2629 JUMP JUMPDEST PUSH1 0x40 MLOAD DUP1 SWAP2 SUB SWAP1 REVERT JUMPDEST PUSH1 0x40 MLOAD DUP1 PUSH1 0x60 ADD PUSH1 0x40 MSTORE DUP1 DUP5 PUSH8 0xFFFFFFFFFFFFFFFF AND DUP2 MSTORE PUSH1 0x20 ADD DUP4 PUSH8 0xFFFFFFFFFFFFFFFF AND DUP2 MSTORE PUSH1 0x20 ADD DUP3 DUP2 MSTORE POP PUSH1 0x33 PUSH0 DUP3 ADD MLOAD DUP2 PUSH0 ADD PUSH0 PUSH2 0x100 EXP DUP2 SLOAD DUP2 PUSH8 0xFFFFFFFFFFFFFFFF MUL NOT AND SWAP1 DUP4 PUSH8 0xFFFFFFFFFFFFFFFF AND MUL OR SWAP1 SSTORE POP PUSH1 0x20 DUP3 ADD MLOAD DUP2 PUSH0 ADD PUSH1 0x8 PUSH2 0x100 EXP DUP2 SLOAD DUP2 PUSH8 0xFFFFFFFFFFFFFFFF MUL NOT AND SWAP1 DUP4 PUSH8 0xFFFFFFFFFFFFFFFF AND MUL OR SWAP1 SSTORE POP PUSH1 0x40 DUP3 ADD MLOAD DUP2 PUSH1 0x1 ADD SWAP1 DUP2 PUSH2 0xFD3 SWAP2 SWAP1 PUSH2 0x27DB JUMP JUMPDEST POP SWAP1 POP POP PUSH32 0x9E6DB48F22357E6DCE2BBFF89DB8FF25F0012A08186D6EA72E2343FDC112E13 DUP4 DUP4 DUP4 PUSH1 0x40 MLOAD PUSH2 0x100A SWAP4 SWAP3 SWAP2 SWAP1 PUSH2 0x28AA JUMP JUMPDEST PUSH1 0x40 MLOAD DUP1 SWAP2 SUB SWAP1 LOG1 POP POP POP JUMP JUMPDEST PUSH1 0x36 PUSH1 0x20 MSTORE DUP2 PUSH0 MSTORE PUSH1 0x40 PUSH0 KECCAK256 PUSH1 0x20 MSTORE DUP1 PUSH0 MSTORE PUSH1 0x40 PUSH0 KECCAK256 PUSH0 SWAP2 POP SWAP2 POP POP SLOAD DUP2 JUMP JUMPDEST PUSH1 0x35 PUSH1 0x20 MSTORE DUP1 PUSH0 MSTORE PUSH1 0x40 PUSH0 KECCAK256 PUSH0 SWAP2 POP SWAP1 POP SLOAD DUP2 JUMP JUMPDEST PUSH1 0x32 PUSH0 SWAP1 SLOAD SWAP1 PUSH2 0x100 EXP SWAP1 DIV PUSH20 0xFFFFFFFFFFFFFFFFFFFFFFFFFFFFFFFFFFFFFFFF AND PUSH20 0xFFFFFFFFFFFFFFFFFFFFFFFFFFFFFFFFFFFFFFFF AND PUSH4 0x24D7806C CALLER PUSH1 0x40 MLOAD DUP3 PUSH4 0xFFFFFFFF AND PUSH1 0xE0 SHL DUP2 MSTORE PUSH1 0x4 ADD PUSH2 0x10A6 SWAP2 SWAP1 PUSH2 0x1C1B JUMP JUMPDEST PUSH1 0x20 PUSH1 0x40 MLOAD DUP1 DUP4 SUB DUP2 DUP7 GAS STATICCALL ISZERO DUP1 ISZERO PUSH2 0x10C1 JUMPI RETURNDATASIZE PUSH0 DUP1 RETURNDATACOPY RETURNDATASIZE PUSH0 REVERT JUMPDEST POP POP POP POP PUSH1 0x40 MLOAD RETURNDATASIZE PUSH1 0x1F NOT PUSH1 0x1F DUP3 ADD AND DUP3 ADD DUP1 PUSH1 0x40 MSTORE POP DUP2 ADD SWAP1 PUSH2 0x10E5 SWAP2 SWAP1 PUSH2 0x2526 JUMP JUMPDEST PUSH2 0x1124 JUMPI PUSH1 0x40 MLOAD PUSH32 0x8C379A000000000000000000000000000000000000000000000000000000000 DUP2 MSTORE PUSH1 0x4 ADD PUSH2 0x111B SWAP1 PUSH2 0x259B JUMP JUMPDEST PUSH1 0x40 MLOAD DUP1 SWAP2 SUB SWAP1 REVERT JUMPDEST PUSH0 PUSH20 0xFFFFFFFFFFFFFFFFFFFFFFFFFFFFFFFFFFFFFFFF AND DUP4 PUSH20 0xFFFFFFFFFFFFFFFFFFFFFFFFFFFFFFFFFFFFFFFF AND SUB PUSH2 0x1192 JUMPI PUSH1 0x40 MLOAD PUSH32 0x8C379A000000000000000000000000000000000000000000000000000000000 DUP2 MSTORE PUSH1 0x4 ADD PUSH2 0x1189 SWAP1 PUSH2 0x2930 JUMP JUMPDEST PUSH1 0x40 MLOAD DUP1 SWAP2 SUB SWAP1 REVERT JUMPDEST DUP1 PUSH1 0x36 PUSH0 DUP6 PUSH20 0xFFFFFFFFFFFFFFFFFFFFFFFFFFFFFFFFFFFFFFFF AND PUSH20 0xFFFFFFFFFFFFFFFFFFFFFFFFFFFFFFFFFFFFFFFF AND DUP2 MSTORE PUSH1 0x20 ADD SWAP1 DUP2 MSTORE PUSH1 0x20 ADD PUSH0 KECCAK256 PUSH0 DUP5 PUSH20 0xFFFFFFFFFFFFFFFFFFFFFFFFFFFFFFFFFFFFFFFF AND PUSH20 0xFFFFFFFFFFFFFFFFFFFFFFFFFFFFFFFFFFFFFFFF AND DUP2 MSTORE PUSH1 0x20 ADD SWAP1 DUP2 MSTORE PUSH1 0x20 ADD PUSH0 KECCAK256 DUP2 SWAP1 SSTORE POP DUP2 PUSH20 0xFFFFFFFFFFFFFFFFFFFFFFFFFFFFFFFFFFFFFFFF AND DUP4 PUSH20 0xFFFFFFFFFFFFFFFFFFFFFFFFFFFFFFFFFFFFFFFF AND PUSH32 0x3D0601F3B0E52FD772F1FA71D91651B34B6A11144BEA30D74E0F820019A04DC2 DUP4 PUSH1 0x40 MLOAD PUSH2 0x126C SWAP2 SWAP1 PUSH2 0x1AE5 JUMP JUMPDEST PUSH1 0x40 MLOAD DUP1 SWAP2 SUB SWAP1 LOG3 POP POP POP JUMP JUMPDEST PUSH2 0x1281 PUSH2 0x1759 JUMP JUMPDEST PUSH0 PUSH20 0xFFFFFFFFFFFFFFFFFFFFFFFFFFFFFFFFFFFFFFFF AND DUP2 PUSH20 0xFFFFFFFFFFFFFFFFFFFFFFFFFFFFFFFFFFFFFFFF AND SUB PUSH2 0x12F1 JUMPI PUSH0 PUSH1 0x40 MLOAD PUSH32 0x1E4FBDF700000000000000000000000000000000000000000000000000000000 DUP2 MSTORE PUSH1 0x4 ADD PUSH2 0x12E8 SWAP2 SWAP1 PUSH2 0x1C1B JUMP JUMPDEST PUSH1 0x40 MLOAD DUP1 SWAP2 SUB SWAP1 REVERT JUMPDEST PUSH2 0x12FA DUP2 PUSH2 0x17E0 JUMP JUMPDEST POP JUMP JUMPDEST PUSH2 0x1305 PUSH2 0x1759 JUMP JUMPDEST PUSH2 0x130D PUSH2 0x15B5 JUMP JUMPDEST PUSH0 DUP2 GT PUSH2 0x134F JUMPI PUSH1 0x40 MLOAD PUSH32 0x8C379A000000000000000000000000000000000000000000000000000000000 DUP2 MSTORE PUSH1 0x4 ADD PUSH2 0x1346 SWAP1 PUSH2 0x29BE JUMP JUMPDEST PUSH1 0x40 MLOAD DUP1 SWAP2 SUB SWAP1 REVERT JUMPDEST DUP1 PUSH1 0x35 PUSH0 DUP5 PUSH20 0xFFFFFFFFFFFFFFFFFFFFFFFFFFFFFFFFFFFFFFFF AND PUSH20 0xFFFFFFFFFFFFFFFFFFFFFFFFFFFFFFFFFFFFFFFF AND DUP2 MSTORE PUSH1 0x20 ADD SWAP1 DUP2 MSTORE PUSH1 0x20 ADD PUSH0 KECCAK256 SLOAD LT ISZERO PUSH2 0x13CF JUMPI PUSH1 0x40 MLOAD PUSH32 0x8C379A000000000000000000000000000000000000000000000000000000000 DUP2 MSTORE PUSH1 0x4 ADD PUSH2 0x13C6 SWAP1 PUSH2 0x2A26 JUMP JUMPDEST PUSH1 0x40 MLOAD DUP1 SWAP2 SUB SWAP1 REVERT JUMPDEST DUP1 PUSH1 0x35 PUSH0 DUP5 PUSH20 0xFFFFFFFFFFFFFFFFFFFFFFFFFFFFFFFFFFFFFFFF AND PUSH20 0xFFFFFFFFFFFFFFFFFFFFFFFFFFFFFFFFFFFFFFFF AND DUP2 MSTORE PUSH1 0x20 ADD SWAP1 DUP2 MSTORE PUSH1 0x20 ADD PUSH0 KECCAK256 PUSH0 DUP3 DUP3 SLOAD PUSH2 0x141B SWAP2 SWAP1 PUSH2 0x2270 JUMP JUMPDEST SWAP3 POP POP DUP2 SWAP1 SSTORE POP PUSH0 PUSH20 0xFFFFFFFFFFFFFFFFFFFFFFFFFFFFFFFFFFFFFFFF AND DUP3 PUSH20 0xFFFFFFFFFFFFFFFFFFFFFFFFFFFFFFFFFFFFFFFF AND SUB PUSH2 0x150A JUMPI PUSH0 PUSH2 0x145E PUSH2 0xDD0 JUMP JUMPDEST PUSH20 0xFFFFFFFFFFFFFFFFFFFFFFFFFFFFFFFFFFFFFFFF AND DUP3 PUSH1 0x40 MLOAD PUSH2 0x1481 SWAP1 PUSH2 0x22D0 JUMP JUMPDEST PUSH0 PUSH1 0x40 MLOAD DUP1 DUP4 SUB DUP2 DUP6 DUP8 GAS CALL SWAP3 POP POP POP RETURNDATASIZE DUP1 PUSH0 DUP2 EQ PUSH2 0x14BB JUMPI PUSH1 0x40 MLOAD SWAP2 POP PUSH1 0x1F NOT PUSH1 0x3F RETURNDATASIZE ADD AND DUP3 ADD PUSH1 0x40 MSTORE RETURNDATASIZE DUP3 MSTORE RETURNDATASIZE PUSH0 PUSH1 0x20 DUP5 ADD RETURNDATACOPY PUSH2 0x14C0 JUMP JUMPDEST PUSH1 0x60 SWAP2 POP JUMPDEST POP POP SWAP1 POP DUP1 PUSH2 0x1504 JUMPI PUSH1 0x40 MLOAD PUSH32 0x8C379A000000000000000000000000000000000000000000000000000000000 DUP2 MSTORE PUSH1 0x4 ADD PUSH2 0x14FB SWAP1 PUSH2 0x232E JUMP JUMPDEST PUSH1 0x40 MLOAD DUP1 SWAP2 SUB SWAP1 REVERT JUMPDEST POP PUSH2 0x153D JUMP JUMPDEST PUSH2 0x153C PUSH2 0x1515 PUSH2 0xDD0 JUMP JUMPDEST DUP3 DUP5 PUSH20 0xFFFFFFFFFFFFFFFFFFFFFFFFFFFFFFFFFFFFFFFF AND PUSH2 0x1602 SWAP1 SWAP3 SWAP2 SWAP1 PUSH4 0xFFFFFFFF AND JUMP JUMPDEST JUMPDEST DUP2 PUSH20 0xFFFFFFFFFFFFFFFFFFFFFFFFFFFFFFFFFFFFFFFF AND PUSH2 0x155C PUSH2 0xDD0 JUMP JUMPDEST PUSH20 0xFFFFFFFFFFFFFFFFFFFFFFFFFFFFFFFFFFFFFFFF AND PUSH32 0x9B1BFA7FA9EE420A16E124F794C35AC9F90472ACC99140EB2F6447C714CAD8EB DUP4 PUSH1 0x40 MLOAD PUSH2 0x15A1 SWAP2 SWAP1 PUSH2 0x1AE5 JUMP JUMPDEST PUSH1 0x40 MLOAD DUP1 SWAP2 SUB SWAP1 LOG3 PUSH2 0x15B1 PUSH2 0x1681 JUMP JUMPDEST POP POP JUMP JUMPDEST PUSH1 0x2 PUSH0 SLOAD SUB PUSH2 0x15F9 JUMPI PUSH1 0x40 MLOAD PUSH32 0x8C379A000000000000000000000000000000000000000000000000000000000 DUP2 MSTORE PUSH1 0x4 ADD PUSH2 0x15F0 SWAP1 PUSH2 0x2A8E JUMP JUMPDEST PUSH1 0x40 MLOAD DUP1 SWAP2 SUB SWAP1 REVERT JUMPDEST PUSH1 0x2 PUSH0 DUP2 SWAP1 SSTORE POP JUMP JUMPDEST PUSH2 0x167C DUP4 DUP5 PUSH20 0xFFFFFFFFFFFFFFFFFFFFFFFFFFFFFFFFFFFFFFFF AND PUSH4 0xA9059CBB DUP6 DUP6 PUSH1 0x40 MLOAD PUSH1 0x24 ADD PUSH2 0x1635 SWAP3 SWAP2 SWAP1 PUSH2 0x2AAC JUMP JUMPDEST PUSH1 0x40 MLOAD PUSH1 0x20 DUP2 DUP4 SUB SUB DUP2 MSTORE SWAP1 PUSH1 0x40 MSTORE SWAP2 POP PUSH1 0xE0 SHL PUSH1 0x20 DUP3 ADD DUP1 MLOAD PUSH28 0xFFFFFFFFFFFFFFFFFFFFFFFFFFFFFFFFFFFFFFFFFFFFFFFFFFFFFFFF DUP4 DUP2 DUP4 AND OR DUP4 MSTORE POP POP POP POP PUSH2 0x18D8 JUMP JUMPDEST POP POP POP JUMP JUMPDEST PUSH1 0x1 PUSH0 DUP2 SWAP1 SSTORE POP JUMP JUMPDEST PUSH2 0x1706 DUP5 DUP6 PUSH20 0xFFFFFFFFFFFFFFFFFFFFFFFFFFFFFFFFFFFFFFFF AND PUSH4 0x23B872DD DUP7 DUP7 DUP7 PUSH1 0x40 MLOAD PUSH1 0x24 ADD PUSH2 0x16BF SWAP4 SWAP3 SWAP2 SWAP1 PUSH2 0x2AD3 JUMP JUMPDEST PUSH1 0x40 MLOAD PUSH1 0x20 DUP2 DUP4 SUB SUB DUP2 MSTORE SWAP1 PUSH1 0x40 MSTORE SWAP2 POP PUSH1 0xE0 SHL PUSH1 0x20 DUP3 ADD DUP1 MLOAD PUSH28 0xFFFFFFFFFFFFFFFFFFFFFFFFFFFFFFFFFFFFFFFFFFFFFFFFFFFFFFFF DUP4 DUP2 DUP4 AND OR DUP4 MSTORE POP POP POP POP PUSH2 0x18D8 JUMP JUMPDEST POP POP POP POP JUMP JUMPDEST PUSH0 PUSH32 0xF0C57E16840DF040F15088DC2F81FE391C3923BEC73E23A9662EFC9C229C6A00 SWAP1 POP SWAP1 JUMP JUMPDEST PUSH2 0x173B PUSH2 0x1973 JUMP JUMPDEST PUSH2 0x1744 DUP2 PUSH2 0x19B3 JUMP JUMPDEST POP JUMP JUMPDEST PUSH2 0x174F PUSH2 0x1973 JUMP JUMPDEST PUSH2 0x1757 PUSH2 0x1A37 JUMP JUMPDEST JUMP JUMPDEST PUSH2 0x1761 PUSH2 0x1A48 JUMP JUMPDEST PUSH20 0xFFFFFFFFFFFFFFFFFFFFFFFFFFFFFFFFFFFFFFFF AND PUSH2 0x177F PUSH2 0xDD0 JUMP JUMPDEST PUSH20 0xFFFFFFFFFFFFFFFFFFFFFFFFFFFFFFFFFFFFFFFF AND EQ PUSH2 0x17DE JUMPI PUSH2 0x17A2 PUSH2 0x1A48 JUMP JUMPDEST PUSH1 0x40 MLOAD PUSH32 0x118CDAA700000000000000000000000000000000000000000000000000000000 DUP2 MSTORE PUSH1 0x4 ADD PUSH2 0x17D5 SWAP2 SWAP1 PUSH2 0x1C1B JUMP JUMPDEST PUSH1 0x40 MLOAD DUP1 SWAP2 SUB SWAP1 REVERT JUMPDEST JUMP JUMPDEST PUSH0 PUSH2 0x17E9 PUSH2 0x18B1 JUMP JUMPDEST SWAP1 POP PUSH0 DUP2 PUSH0 ADD PUSH0 SWAP1 SLOAD SWAP1 PUSH2 0x100 EXP SWAP1 DIV PUSH20 0xFFFFFFFFFFFFFFFFFFFFFFFFFFFFFFFFFFFFFFFF AND SWAP1 POP DUP3 DUP3 PUSH0 ADD PUSH0 PUSH2 0x100 EXP DUP2 SLOAD DUP2 PUSH20 0xFFFFFFFFFFFFFFFFFFFFFFFFFFFFFFFFFFFFFFFF MUL NOT AND SWAP1 DUP4 PUSH20 0xFFFFFFFFFFFFFFFFFFFFFFFFFFFFFFFFFFFFFFFF AND MUL OR SWAP1 SSTORE POP DUP3 PUSH20 0xFFFFFFFFFFFFFFFFFFFFFFFFFFFFFFFFFFFFFFFF AND DUP2 PUSH20 0xFFFFFFFFFFFFFFFFFFFFFFFFFFFFFFFFFFFFFFFF AND PUSH32 0x8BE0079C531659141344CD1FD0A4F28419497F9722A3DAAFE3B4186F6B6457E0 PUSH1 0x40 MLOAD PUSH1 0x40 MLOAD DUP1 SWAP2 SUB SWAP1 LOG3 POP POP POP JUMP JUMPDEST PUSH0 PUSH32 0x9016D09D72D40FDAE2FD8CEAC6B6234C7706214FD39C1CD1E609A0528C199300 SWAP1 POP SWAP1 JUMP JUMPDEST PUSH0 DUP1 PUSH1 0x20 PUSH0 DUP5 MLOAD PUSH1 0x20 DUP7 ADD PUSH0 DUP9 GAS CALL DUP1 PUSH2 0x18F7 JUMPI PUSH1 0x40 MLOAD RETURNDATASIZE PUSH0 DUP3 RETURNDATACOPY RETURNDATASIZE DUP2 REVERT JUMPDEST RETURNDATASIZE SWAP3 POP PUSH0 MLOAD SWAP2 POP POP PUSH0 DUP3 EQ PUSH2 0x1910 JUMPI PUSH1 0x1 DUP2 EQ ISZERO PUSH2 0x192B JUMP JUMPDEST PUSH0 DUP5 PUSH20 0xFFFFFFFFFFFFFFFFFFFFFFFFFFFFFFFFFFFFFFFF AND EXTCODESIZE EQ JUMPDEST ISZERO PUSH2 0x196D JUMPI DUP4 PUSH1 0x40 MLOAD PUSH32 0x5274AFE700000000000000000000000000000000000000000000000000000000 DUP2 MSTORE PUSH1 0x4 ADD PUSH2 0x1964 SWAP2 SWAP1 PUSH2 0x1C1B JUMP JUMPDEST PUSH1 0x40 MLOAD DUP1 SWAP2 SUB SWAP1 REVERT JUMPDEST POP POP POP POP JUMP JUMPDEST PUSH2 0x197B PUSH2 0x1A4F JUMP JUMPDEST PUSH2 0x19B1 JUMPI PUSH1 0x40 MLOAD PUSH32 0xD7E6BCF800000000000000000000000000000000000000000000000000000000 DUP2 MSTORE PUSH1 0x4 ADD PUSH1 0x40 MLOAD DUP1 SWAP2 SUB SWAP1 REVERT JUMPDEST JUMP JUMPDEST PUSH2 0x19BB PUSH2 0x1973 JUMP JUMPDEST PUSH0 PUSH20 0xFFFFFFFFFFFFFFFFFFFFFFFFFFFFFFFFFFFFFFFF AND DUP2 PUSH20 0xFFFFFFFFFFFFFFFFFFFFFFFFFFFFFFFFFFFFFFFF AND SUB PUSH2 0x1A2B JUMPI PUSH0 PUSH1 0x40 MLOAD PUSH32 0x1E4FBDF700000000000000000000000000000000000000000000000000000000 DUP2 MSTORE PUSH1 0x4 ADD PUSH2 0x1A22 SWAP2 SWAP1 PUSH2 0x1C1B JUMP JUMPDEST PUSH1 0x40 MLOAD DUP1 SWAP2 SUB SWAP1 REVERT JUMPDEST PUSH2 0x1A34 DUP2 PUSH2 0x17E0 JUMP JUMPDEST POP JUMP JUMPDEST PUSH2 0x1A3F PUSH2 0x1973 JUMP JUMPDEST PUSH1 0x1 PUSH0 DUP2 SWAP1 SSTORE POP JUMP JUMPDEST PUSH0 CALLER SWAP1 POP SWAP1 JUMP JUMPDEST PUSH0 PUSH2 0x1A58 PUSH2 0x170C JUMP JUMPDEST PUSH0 ADD PUSH1 0x8 SWAP1 SLOAD SWAP1 PUSH2 0x100 EXP SWAP1 DIV PUSH1 0xFF AND SWAP1 POP SWAP1 JUMP JUMPDEST PUSH0 DUP2 SWAP1 POP SWAP2 SWAP1 POP JUMP JUMPDEST PUSH32 0x4E487B7100000000000000000000000000000000000000000000000000000000 PUSH0 MSTORE PUSH1 0x11 PUSH1 0x4 MSTORE PUSH1 0x24 PUSH0 REVERT JUMPDEST PUSH0 PUSH2 0x1AAD DUP3 PUSH2 0x1A6D JUMP JUMPDEST SWAP2 POP PUSH2 0x1AB8 DUP4 PUSH2 0x1A6D JUMP JUMPDEST SWAP3 POP DUP3 DUP3 ADD SWAP1 POP DUP1 DUP3 GT ISZERO PUSH2 0x1AD0 JUMPI PUSH2 0x1ACF PUSH2 0x1A76 JUMP JUMPDEST JUMPDEST SWAP3 SWAP2 POP POP JUMP JUMPDEST PUSH2 0x1ADF DUP2 PUSH2 0x1A6D JUMP JUMPDEST DUP3 MSTORE POP POP JUMP JUMPDEST PUSH0 PUSH1 0x20 DUP3 ADD SWAP1 POP PUSH2 0x1AF8 PUSH0 DUP4 ADD DUP5 PUSH2 0x1AD6 JUMP JUMPDEST SWAP3 SWAP2 POP POP JUMP JUMPDEST PUSH0 DUP3 DUP3 MSTORE PUSH1 0x20 DUP3 ADD SWAP1 POP SWAP3 SWAP2 POP POP JUMP JUMPDEST PUSH32 0x6E436F6F6B69654A61723A20757365206465706F736974282900000000000000 PUSH0 DUP3 ADD MSTORE POP JUMP JUMPDEST PUSH0 PUSH2 0x1B42 PUSH1 0x19 DUP4 PUSH2 0x1AFE JUMP JUMPDEST SWAP2 POP PUSH2 0x1B4D DUP3 PUSH2 0x1B0E JUMP JUMPDEST PUSH1 0x20 DUP3 ADD SWAP1 POP SWAP2 SWAP1 POP JUMP JUMPDEST PUSH0 PUSH1 0x20 DUP3 ADD SWAP1 POP DUP2 DUP2 SUB PUSH0 DUP4 ADD MSTORE PUSH2 0x1B6F DUP2 PUSH2 0x1B36 JUMP JUMPDEST SWAP1 POP SWAP2 SWAP1 POP JUMP JUMPDEST PUSH0 PUSH1 0x40 MLOAD SWAP1 POP SWAP1 JUMP JUMPDEST PUSH0 DUP1 REVERT JUMPDEST PUSH0 DUP1 REVERT JUMPDEST PUSH0 PUSH20 0xFFFFFFFFFFFFFFFFFFFFFFFFFFFFFFFFFFFFFFFF DUP3 AND SWAP1 POP SWAP2 SWAP1 POP JUMP JUMPDEST PUSH0 PUSH2 0x1BB0 DUP3 PUSH2 0x1B87 JUMP JUMPDEST SWAP1 POP SWAP2 SWAP1 POP JUMP JUMPDEST PUSH2 0x1BC0 DUP2 PUSH2 0x1BA6 JUMP JUMPDEST DUP2 EQ PUSH2 0x1BCA JUMPI PUSH0 DUP1 REVERT JUMPDEST POP JUMP JUMPDEST PUSH0 DUP2 CALLDATALOAD SWAP1 POP PUSH2 0x1BDB DUP2 PUSH2 0x1BB7 JUMP JUMPDEST SWAP3 SWAP2 POP POP JUMP JUMPDEST PUSH0 PUSH1 0x20 DUP3 DUP5 SUB SLT ISZERO PUSH2 0x1BF6 JUMPI PUSH2 0x1BF5 PUSH2 0x1B7F JUMP JUMPDEST JUMPDEST PUSH0 PUSH2 0x1C03 DUP5 DUP3 DUP6 ADD PUSH2 0x1BCD JUMP JUMPDEST SWAP2 POP POP SWAP3 SWAP2 POP POP JUMP JUMPDEST PUSH2 0x1C15 DUP2 PUSH2 0x1BA6 JUMP JUMPDEST DUP3 MSTORE POP POP JUMP JUMPDEST PUSH0 PUSH1 0x20 DUP3 ADD SWAP1 POP PUSH2 0x1C2E PUSH0 DUP4 ADD DUP5 PUSH2 0x1C0C JUMP JUMPDEST SWAP3 SWAP2 POP POP JUMP JUMPDEST PUSH2 0x1C3D DUP2 PUSH2 0x1A6D JUMP JUMPDEST DUP2 EQ PUSH2 0x1C47 JUMPI PUSH0 DUP1 REVERT JUMPDEST POP JUMP JUMPDEST PUSH0 DUP2 CALLDATALOAD SWAP1 POP PUSH2 0x1C58 DUP2 PUSH2 0x1C34 JUMP JUMPDEST SWAP3 SWAP2 POP POP JUMP JUMPDEST PUSH0 DUP1 PUSH1 0x40 DUP4 DUP6 SUB SLT ISZERO PUSH2 0x1C74 JUMPI PUSH2 0x1C73 PUSH2 0x1B7F JUMP JUMPDEST JUMPDEST PUSH0 PUSH2 0x1C81 DUP6 DUP3 DUP7 ADD PUSH2 0x1BCD JUMP JUMPDEST SWAP3 POP POP PUSH1 0x20 PUSH2 0x1C92 DUP6 DUP3 DUP7 ADD PUSH2 0x1C4A JUMP JUMPDEST SWAP2 POP POP SWAP3 POP SWAP3 SWAP1 POP JUMP JUMPDEST PUSH0 DUP1 PUSH1 0x40 DUP4 DUP6 SUB SLT ISZERO PUSH2 0x1CB2 JUMPI PUSH2 0x1CB1 PUSH2 0x1B7F JUMP JUMPDEST JUMPDEST PUSH0 PUSH2 0x1CBF DUP6 DUP3 DUP7 ADD PUSH2 0x1BCD JUMP JUMPDEST SWAP3 POP POP PUSH1 0x20 PUSH2 0x1CD0 DUP6 DUP3 DUP7 ADD PUSH2 0x1BCD JUMP JUMPDEST SWAP2 POP POP SWAP3 POP SWAP3 SWAP1 POP JUMP JUMPDEST PUSH0 DUP2 SWAP1 POP SWAP2 SWAP1 POP JUMP JUMPDEST PUSH0 PUSH2 0x1CFD PUSH2 0x1CF8 PUSH2 0x1CF3 DUP5 PUSH2 0x1B87 JUMP JUMPDEST PUSH2 0x1CDA JUMP JUMPDEST PUSH2 0x1B87 JUMP JUMPDEST SWAP1 POP SWAP2 SWAP1 POP JUMP JUMPDEST PUSH0 PUSH2 0x1D0E DUP3 PUSH2 0x1CE3 JUMP JUMPDEST SWAP1 POP SWAP2 SWAP1 POP JUMP JUMPDEST PUSH0 PUSH2 0x1D1F DUP3 PUSH2 0x1D04 JUMP JUMPDEST SWAP1 POP SWAP2 SWAP1 POP JUMP JUMPDEST PUSH2 0x1D2F DUP2 PUSH2 0x1D15 JUMP JUMPDEST DUP3 MSTORE POP POP JUMP JUMPDEST PUSH0 PUSH1 0x20 DUP3 ADD SWAP1 POP PUSH2 0x1D48 PUSH0 DUP4 ADD DUP5 PUSH2 0x1D26 JUMP JUMPDEST SWAP3 SWAP2 POP POP JUMP JUMPDEST PUSH0 PUSH8 0xFFFFFFFFFFFFFFFF DUP3 AND SWAP1 POP SWAP2 SWAP1 POP JUMP JUMPDEST PUSH2 0x1D6A DUP2 PUSH2 0x1D4E JUMP JUMPDEST DUP3 MSTORE POP POP JUMP JUMPDEST PUSH0 DUP2 MLOAD SWAP1 POP SWAP2 SWAP1 POP JUMP JUMPDEST DUP3 DUP2 DUP4 MCOPY PUSH0 DUP4 DUP4 ADD MSTORE POP POP POP JUMP JUMPDEST PUSH0 PUSH1 0x1F NOT PUSH1 0x1F DUP4 ADD AND SWAP1 POP SWAP2 SWAP1 POP JUMP JUMPDEST PUSH0 PUSH2 0x1DA2 DUP3 PUSH2 0x1D70 JUMP JUMPDEST PUSH2 0x1DAC DUP2 DUP6 PUSH2 0x1AFE JUMP JUMPDEST SWAP4 POP PUSH2 0x1DBC DUP2 DUP6 PUSH1 0x20 DUP7 ADD PUSH2 0x1D7A JUMP JUMPDEST PUSH2 0x1DC5 DUP2 PUSH2 0x1D88 JUMP JUMPDEST DUP5 ADD SWAP2 POP POP SWAP3 SWAP2 POP POP JUMP JUMPDEST PUSH0 PUSH1 0x60 DUP3 ADD SWAP1 POP PUSH2 0x1DE3 PUSH0 DUP4 ADD DUP7 PUSH2 0x1D61 JUMP JUMPDEST PUSH2 0x1DF0 PUSH1 0x20 DUP4 ADD DUP6 PUSH2 0x1D61 JUMP JUMPDEST DUP2 DUP2 SUB PUSH1 0x40 DUP4 ADD MSTORE PUSH2 0x1E02 DUP2 DUP5 PUSH2 0x1D98 JUMP JUMPDEST SWAP1 POP SWAP5 SWAP4 POP POP POP POP JUMP JUMPDEST PUSH2 0x1E15 DUP2 PUSH2 0x1D4E JUMP JUMPDEST DUP2 EQ PUSH2 0x1E1F JUMPI PUSH0 DUP1 REVERT JUMPDEST POP JUMP JUMPDEST PUSH0 DUP2 CALLDATALOAD SWAP1 POP PUSH2 0x1E30 DUP2 PUSH2 0x1E0C JUMP JUMPDEST SWAP3 SWAP2 POP POP JUMP JUMPDEST PUSH0 DUP1 REVERT JUMPDEST PUSH0 DUP1 REVERT JUMPDEST PUSH32 0x4E487B7100000000000000000000000000000000000000000000000000000000 PUSH0 MSTORE PUSH1 0x41 PUSH1 0x4 MSTORE PUSH1 0x24 PUSH0 REVERT JUMPDEST PUSH2 0x1E74 DUP3 PUSH2 0x1D88 JUMP JUMPDEST DUP2 ADD DUP2 DUP2 LT PUSH8 0xFFFFFFFFFFFFFFFF DUP3 GT OR ISZERO PUSH2 0x1E93 JUMPI PUSH2 0x1E92 PUSH2 0x1E3E JUMP JUMPDEST JUMPDEST DUP1 PUSH1 0x40 MSTORE POP POP POP JUMP JUMPDEST PUSH0 PUSH2 0x1EA5 PUSH2 0x1B76 JUMP JUMPDEST SWAP1 POP PUSH2 0x1EB1 DUP3 DUP3 PUSH2 0x1E6B JUMP JUMPDEST SWAP2 SWAP1 POP JUMP JUMPDEST PUSH0 PUSH8 0xFFFFFFFFFFFFFFFF DUP3 GT ISZERO PUSH2 0x1ED0 JUMPI PUSH2 0x1ECF PUSH2 0x1E3E JUMP JUMPDEST JUMPDEST PUSH2 0x1ED9 DUP3 PUSH2 0x1D88 JUMP JUMPDEST SWAP1 POP PUSH1 0x20 DUP2 ADD SWAP1 POP SWAP2 SWAP1 POP JUMP JUMPDEST DUP3 DUP2 DUP4 CALLDATACOPY PUSH0 DUP4 DUP4 ADD MSTORE POP POP POP JUMP JUMPDEST PUSH0 PUSH2 0x1F06 PUSH2 0x1F01 DUP5 PUSH2 0x1EB6 JUMP JUMPDEST PUSH2 0x1E9C JUMP JUMPDEST SWAP1 POP DUP3 DUP2 MSTORE PUSH1 0x20 DUP2 ADD DUP5 DUP5 DUP5 ADD GT ISZERO PUSH2 0x1F22 JUMPI PUSH2 0x1F21 PUSH2 0x1E3A JUMP JUMPDEST JUMPDEST PUSH2 0x1F2D DUP5 DUP3 DUP6 PUSH2 0x1EE6 JUMP JUMPDEST POP SWAP4 SWAP3 POP POP POP JUMP JUMPDEST PUSH0 DUP3 PUSH1 0x1F DUP4 ADD SLT PUSH2 0x1F49 JUMPI PUSH2 0x1F48 PUSH2 0x1E36 JUMP JUMPDEST JUMPDEST DUP2 CALLDATALOAD PUSH2 0x1F59 DUP5 DUP3 PUSH1 0x20 DUP7 ADD PUSH2 0x1EF4 JUMP JUMPDEST SWAP2 POP POP SWAP3 SWAP2 POP POP JUMP JUMPDEST PUSH0 DUP1 PUSH0 PUSH1 0x60 DUP5 DUP7 SUB SLT ISZERO PUSH2 0x1F79 JUMPI PUSH2 0x1F78 PUSH2 0x1B7F JUMP JUMPDEST JUMPDEST PUSH0 PUSH2 0x1F86 DUP7 DUP3 DUP8 ADD PUSH2 0x1E22 JUMP JUMPDEST SWAP4 POP POP PUSH1 0x20 PUSH2 0x1F97 DUP7 DUP3 DUP8 ADD PUSH2 0x1E22 JUMP JUMPDEST SWAP3 POP POP PUSH1 0x40 DUP5 ADD CALLDATALOAD PUSH8 0xFFFFFFFFFFFFFFFF DUP2 GT ISZERO PUSH2 0x1FB8 JUMPI PUSH2 0x1FB7 PUSH2 0x1B83 JUMP JUMPDEST JUMPDEST PUSH2 0x1FC4 DUP7 DUP3 DUP8 ADD PUSH2 0x1F35 JUMP JUMPDEST SWAP2 POP POP SWAP3 POP SWAP3 POP SWAP3 JUMP JUMPDEST PUSH0 DUP1 PUSH0 PUSH1 0x60 DUP5 DUP7 SUB SLT ISZERO PUSH2 0x1FE5 JUMPI PUSH2 0x1FE4 PUSH2 0x1B7F JUMP JUMPDEST JUMPDEST PUSH0 PUSH2 0x1FF2 DUP7 DUP3 DUP8 ADD PUSH2 0x1BCD JUMP JUMPDEST SWAP4 POP POP PUSH1 0x20 PUSH2 0x2003 DUP7 DUP3 DUP8 ADD PUSH2 0x1BCD JUMP JUMPDEST SWAP3 POP POP PUSH1 0x40 PUSH2 0x2014 DUP7 DUP3 DUP8 ADD PUSH2 0x1C4A JUMP JUMPDEST SWAP2 POP POP SWAP3 POP SWAP3 POP SWAP3 JUMP JUMPDEST PUSH0 PUSH2 0x2038 PUSH2 0x2033 PUSH2 0x202E DUP5 PUSH2 0x1D4E JUMP JUMPDEST PUSH2 0x1CDA JUMP JUMPDEST PUSH2 0x1A6D JUMP JUMPDEST SWAP1 POP SWAP2 SWAP1 POP JUMP JUMPDEST PUSH2 0x2048 DUP2 PUSH2 0x201E JUMP JUMPDEST DUP3 MSTORE POP POP JUMP JUMPDEST PUSH0 PUSH1 0x60 DUP3 ADD SWAP1 POP PUSH2 0x2061 PUSH0 DUP4 ADD DUP7 PUSH2 0x1AD6 JUMP JUMPDEST PUSH2 0x206E PUSH1 0x20 DUP4 ADD DUP6 PUSH2 0x203F JUMP JUMPDEST PUSH2 0x207B PUSH1 0x40 DUP4 ADD DUP5 PUSH2 0x203F JUMP JUMPDEST SWAP5 SWAP4 POP POP POP POP JUMP JUMPDEST PUSH32 0x4E6F20636C61696D61626C6520616D6F756E7400000000000000000000000000 PUSH0 DUP3 ADD MSTORE POP JUMP JUMPDEST PUSH0 PUSH2 0x20B7 PUSH1 0x13 DUP4 PUSH2 0x1AFE JUMP JUMPDEST SWAP2 POP PUSH2 0x20C2 DUP3 PUSH2 0x2083 JUMP JUMPDEST PUSH1 0x20 DUP3 ADD SWAP1 POP SWAP2 SWAP1 POP JUMP JUMPDEST PUSH0 PUSH1 0x20 DUP3 ADD SWAP1 POP DUP2 DUP2 SUB PUSH0 DUP4 ADD MSTORE PUSH2 0x20E4 DUP2 PUSH2 0x20AB JUMP JUMPDEST SWAP1 POP SWAP2 SWAP1 POP JUMP JUMPDEST PUSH32 0x496E73756666696369656E742066756E647320696E206A617200000000000000 PUSH0 DUP3 ADD MSTORE POP JUMP JUMPDEST PUSH0 PUSH2 0x211F PUSH1 0x19 DUP4 PUSH2 0x1AFE JUMP JUMPDEST SWAP2 POP PUSH2 0x212A DUP3 PUSH2 0x20EB JUMP JUMPDEST PUSH1 0x20 DUP3 ADD SWAP1 POP SWAP2 SWAP1 POP JUMP JUMPDEST PUSH0 PUSH1 0x20 DUP3 ADD SWAP1 POP DUP2 DUP2 SUB PUSH0 DUP4 ADD MSTORE PUSH2 0x214C DUP2 PUSH2 0x2113 JUMP JUMPDEST SWAP1 POP SWAP2 SWAP1 POP JUMP JUMPDEST PUSH32 0x5472757374000000000000000000000000000000000000000000000000000000 PUSH0 DUP3 ADD MSTORE POP JUMP JUMPDEST PUSH0 PUSH2 0x2187 PUSH1 0x5 DUP4 PUSH2 0x1AFE JUMP JUMPDEST SWAP2 POP PUSH2 0x2192 DUP3 PUSH2 0x2153 JUMP JUMPDEST PUSH1 0x20 DUP3 ADD SWAP1 POP SWAP2 SWAP1 POP JUMP JUMPDEST PUSH0 PUSH1 0x40 DUP3 ADD SWAP1 POP PUSH2 0x21B0 PUSH0 DUP4 ADD DUP5 PUSH2 0x1C0C JUMP JUMPDEST DUP2 DUP2 SUB PUSH1 0x20 DUP4 ADD MSTORE PUSH2 0x21C1 DUP2 PUSH2 0x217B JUMP JUMPDEST SWAP1 POP SWAP3 SWAP2 POP POP JUMP JUMPDEST PUSH0 DUP2 MLOAD SWAP1 POP PUSH2 0x21D7 DUP2 PUSH2 0x1C34 JUMP JUMPDEST SWAP3 SWAP2 POP POP JUMP JUMPDEST PUSH0 PUSH1 0x20 DUP3 DUP5 SUB SLT ISZERO PUSH2 0x21F2 JUMPI PUSH2 0x21F1 PUSH2 0x1B7F JUMP JUMPDEST JUMPDEST PUSH0 PUSH2 0x21FF DUP5 DUP3 DUP6 ADD PUSH2 0x21C9 JUMP JUMPDEST SWAP2 POP POP SWAP3 SWAP2 POP POP JUMP JUMPDEST PUSH32 0x496E73756666696369656E742054727573742073636F72650000000000000000 PUSH0 DUP3 ADD MSTORE POP JUMP JUMPDEST PUSH0 PUSH2 0x223C PUSH1 0x18 DUP4 PUSH2 0x1AFE JUMP JUMPDEST SWAP2 POP PUSH2 0x2247 DUP3 PUSH2 0x2208 JUMP JUMPDEST PUSH1 0x20 DUP3 ADD SWAP1 POP SWAP2 SWAP1 POP JUMP JUMPDEST PUSH0 PUSH1 0x20 DUP3 ADD SWAP1 POP DUP2 DUP2 SUB PUSH0 DUP4 ADD MSTORE PUSH2 0x2269 DUP2 PUSH2 0x2230 JUMP JUMPDEST SWAP1 POP SWAP2 SWAP1 POP JUMP JUMPDEST PUSH0 PUSH2 0x227A DUP3 PUSH2 0x1A6D JUMP JUMPDEST SWAP2 POP PUSH2 0x2285 DUP4 PUSH2 0x1A6D JUMP JUMPDEST SWAP3 POP DUP3 DUP3 SUB SWAP1 POP DUP2 DUP2 GT ISZERO PUSH2 0x229D JUMPI PUSH2 0x229C PUSH2 0x1A76 JUMP JUMPDEST JUMPDEST SWAP3 SWAP2 POP POP JUMP JUMPDEST PUSH0 DUP2 SWAP1 POP SWAP3 SWAP2 POP POP JUMP JUMPDEST POP JUMP JUMPDEST PUSH0 PUSH2 0x22BB PUSH0 DUP4 PUSH2 0x22A3 JUMP JUMPDEST SWAP2 POP PUSH2 0x22C6 DUP3 PUSH2 0x22AD JUMP JUMPDEST PUSH0 DUP3 ADD SWAP1 POP SWAP2 SWAP1 POP JUMP JUMPDEST PUSH0 PUSH2 0x22DA DUP3 PUSH2 0x22B0 JUMP JUMPDEST SWAP2 POP DUP2 SWAP1 POP SWAP2 SWAP1 POP JUMP JUMPDEST PUSH32 0x4574686572207472616E73666572206661696C65640000000000000000000000 PUSH0 DUP3 ADD MSTORE POP JUMP JUMPDEST PUSH0 PUSH2 0x2318 PUSH1 0x15 DUP4 PUSH2 0x1AFE JUMP JUMPDEST SWAP2 POP PUSH2 0x2323 DUP3 PUSH2 0x22E4 JUMP JUMPDEST PUSH1 0x20 DUP3 ADD SWAP1 POP SWAP2 SWAP1 POP JUMP JUMPDEST PUSH0 PUSH1 0x20 DUP3 ADD SWAP1 POP DUP2 DUP2 SUB PUSH0 DUP4 ADD MSTORE PUSH2 0x2345 DUP2 PUSH2 0x230C JUMP JUMPDEST SWAP1 POP SWAP2 SWAP1 POP JUMP JUMPDEST PUSH32 0x496E636F727265637420457468657220616D6F756E7400000000000000000000 PUSH0 DUP3 ADD MSTORE POP JUMP JUMPDEST PUSH0 PUSH2 0x2380 PUSH1 0x16 DUP4 PUSH2 0x1AFE JUMP JUMPDEST SWAP2 POP PUSH2 0x238B DUP3 PUSH2 0x234C JUMP JUMPDEST PUSH1 0x20 DUP3 ADD SWAP1 POP SWAP2 SWAP1 POP JUMP JUMPDEST PUSH0 PUSH1 0x20 DUP3 ADD SWAP1 POP DUP2 DUP2 SUB PUSH0 DUP4 ADD MSTORE PUSH2 0x23AD DUP2 PUSH2 0x2374 JUMP JUMPDEST SWAP1 POP SWAP2 SWAP1 POP JUMP JUMPDEST PUSH32 0x4465706F73697420616D6F756E74206D75737420626520677265617465722074 PUSH0 DUP3 ADD MSTORE PUSH32 0x68616E207A65726F000000000000000000000000000000000000000000000000 PUSH1 0x20 DUP3 ADD MSTORE POP JUMP JUMPDEST PUSH0 PUSH2 0x240E PUSH1 0x28 DUP4 PUSH2 0x1AFE JUMP JUMPDEST SWAP2 POP PUSH2 0x2419 DUP3 PUSH2 0x23B4 JUMP JUMPDEST PUSH1 0x40 DUP3 ADD SWAP1 POP SWAP2 SWAP1 POP JUMP JUMPDEST PUSH0 PUSH1 0x20 DUP3 ADD SWAP1 POP DUP2 DUP2 SUB PUSH0 DUP4 ADD MSTORE PUSH2 0x243B DUP2 PUSH2 0x2402 JUMP JUMPDEST SWAP1 POP SWAP2 SWAP1 POP JUMP JUMPDEST PUSH0 DUP2 SWAP1 POP SWAP2 SWAP1 POP JUMP JUMPDEST PUSH0 PUSH2 0x2465 PUSH2 0x2460 PUSH2 0x245B DUP5 PUSH2 0x2442 JUMP JUMPDEST PUSH2 0x1CDA JUMP JUMPDEST PUSH2 0x1D4E JUMP JUMPDEST SWAP1 POP SWAP2 SWAP1 POP JUMP JUMPDEST PUSH2 0x2475 DUP2 PUSH2 0x244B JUMP JUMPDEST DUP3 MSTORE POP POP JUMP JUMPDEST PUSH0 PUSH1 0x20 DUP3 ADD SWAP1 POP PUSH2 0x248E PUSH0 DUP4 ADD DUP5 PUSH2 0x246C JUMP JUMPDEST SWAP3 SWAP2 POP POP JUMP JUMPDEST PUSH32 0x4E487B7100000000000000000000000000000000000000000000000000000000 PUSH0 MSTORE PUSH1 0x22 PUSH1 0x4 MSTORE PUSH1 0x24 PUSH0 REVERT JUMPDEST PUSH0 PUSH1 0x2 DUP3 DIV SWAP1 POP PUSH1 0x1 DUP3 AND DUP1 PUSH2 0x24D8 JUMPI PUSH1 0x7F DUP3 AND SWAP2 POP JUMPDEST PUSH1 0x20 DUP3 LT DUP2 SUB PUSH2 0x24EB JUMPI PUSH2 0x24EA PUSH2 0x2494 JUMP JUMPDEST JUMPDEST POP SWAP2 SWAP1 POP JUMP JUMPDEST PUSH0 DUP2 ISZERO ISZERO SWAP1 POP SWAP2 SWAP1 POP JUMP JUMPDEST PUSH2 0x2505 DUP2 PUSH2 0x24F1 JUMP JUMPDEST DUP2 EQ PUSH2 0x250F JUMPI PUSH0 DUP1 REVERT JUMPDEST POP JUMP JUMPDEST PUSH0 DUP2 MLOAD SWAP1 POP PUSH2 0x2520 DUP2 PUSH2 0x24FC JUMP JUMPDEST SWAP3 SWAP2 POP POP JUMP JUMPDEST PUSH0 PUSH1 0x20 DUP3 DUP5 SUB SLT ISZERO PUSH2 0x253B JUMPI PUSH2 0x253A PUSH2 0x1B7F JUMP JUMPDEST JUMPDEST PUSH0 PUSH2 0x2548 DUP5 DUP3 DUP6 ADD PUSH2 0x2512 JUMP JUMPDEST SWAP2 POP POP SWAP3 SWAP2 POP POP JUMP JUMPDEST PUSH32 0x43616C6C6572206973206E6F7420616E2061646D696E00000000000000000000 PUSH0 DUP3 ADD MSTORE POP JUMP JUMPDEST PUSH0 PUSH2 0x2585 PUSH1 0x16 DUP4 PUSH2 0x1AFE JUMP JUMPDEST SWAP2 POP PUSH2 0x2590 DUP3 PUSH2 0x2551 JUMP JUMPDEST PUSH1 0x20 DUP3 ADD SWAP1 POP SWAP2 SWAP1 POP JUMP JUMPDEST PUSH0 PUSH1 0x20 DUP3 ADD SWAP1 POP DUP2 DUP2 SUB PUSH0 DUP4 ADD MSTORE PUSH2 0x25B2 DUP2 PUSH2 0x2579 JUMP JUMPDEST SWAP1 POP SWAP2 SWAP1 POP JUMP JUMPDEST PUSH32 0x53746172742074696D65206D757374206265206265666F726520656E64207469 PUSH0 DUP3 ADD MSTORE PUSH32 0x6D65000000000000000000000000000000000000000000000000000000000000 PUSH1 0x20 DUP3 ADD MSTORE POP JUMP JUMPDEST PUSH0 PUSH2 0x2613 PUSH1 0x22 DUP4 PUSH2 0x1AFE JUMP JUMPDEST SWAP2 POP PUSH2 0x261E DUP3 PUSH2 0x25B9 JUMP JUMPDEST PUSH1 0x40 DUP3 ADD SWAP1 POP SWAP2 SWAP1 POP JUMP JUMPDEST PUSH0 PUSH1 0x20 DUP3 ADD SWAP1 POP DUP2 DUP2 SUB PUSH0 DUP4 ADD MSTORE PUSH2 0x2640 DUP2 PUSH2 0x2607 JUMP JUMPDEST SWAP1 POP SWAP2 SWAP1 POP JUMP JUMPDEST PUSH0 DUP2 SWAP1 POP DUP2 PUSH0 MSTORE PUSH1 0x20 PUSH0 KECCAK256 SWAP1 POP SWAP2 SWAP1 POP JUMP JUMPDEST PUSH0 PUSH1 0x20 PUSH1 0x1F DUP4 ADD DIV SWAP1 POP SWAP2 SWAP1 POP JUMP JUMPDEST PUSH0 DUP3 DUP3 SHL SWAP1 POP SWAP3 SWAP2 POP POP JUMP JUMPDEST PUSH0 PUSH1 0x8 DUP4 MUL PUSH2 0x26A3 PUSH32 0xFFFFFFFFFFFFFFFFFFFFFFFFFFFFFFFFFFFFFFFFFFFFFFFFFFFFFFFFFFFFFFFF DUP3 PUSH2 0x2668 JUMP JUMPDEST PUSH2 0x26AD DUP7 DUP4 PUSH2 0x2668 JUMP JUMPDEST SWAP6 POP DUP1 NOT DUP5 AND SWAP4 POP DUP1 DUP7 AND DUP5 OR SWAP3 POP POP POP SWAP4 SWAP3 POP POP POP JUMP JUMPDEST PUSH0 PUSH2 0x26DF PUSH2 0x26DA PUSH2 0x26D5 DUP5 PUSH2 0x1A6D JUMP JUMPDEST PUSH2 0x1CDA JUMP JUMPDEST PUSH2 0x1A6D JUMP JUMPDEST SWAP1 POP SWAP2 SWAP1 POP JUMP JUMPDEST PUSH0 DUP2 SWAP1 POP SWAP2 SWAP1 POP JUMP JUMPDEST PUSH2 0x26F8 DUP4 PUSH2 0x26C5 JUMP JUMPDEST PUSH2 0x270C PUSH2 0x2704 DUP3 PUSH2 0x26E6 JUMP JUMPDEST DUP5 DUP5 SLOAD PUSH2 0x2674 JUMP JUMPDEST DUP3 SSTORE POP POP POP POP JUMP JUMPDEST PUSH0 SWAP1 JUMP JUMPDEST PUSH2 0x2720 PUSH2 0x2714 JUMP JUMPDEST PUSH2 0x272B DUP2 DUP5 DUP5 PUSH2 0x26EF JUMP JUMPDEST POP POP POP JUMP JUMPDEST JUMPDEST DUP2 DUP2 LT ISZERO PUSH2 0x274E JUMPI PUSH2 0x2743 PUSH0 DUP3 PUSH2 0x2718 JUMP JUMPDEST PUSH1 0x1 DUP2 ADD SWAP1 POP PUSH2 0x2731 JUMP JUMPDEST POP POP JUMP JUMPDEST PUSH1 0x1F DUP3 GT ISZERO PUSH2 0x2793 JUMPI PUSH2 0x2764 DUP2 PUSH2 0x2647 JUMP JUMPDEST PUSH2 0x276D DUP5 PUSH2 0x2659 JUMP JUMPDEST DUP2 ADD PUSH1 0x20 DUP6 LT ISZERO PUSH2 0x277C JUMPI DUP2 SWAP1 POP JUMPDEST PUSH2 0x2790 PUSH2 0x2788 DUP6 PUSH2 0x2659 JUMP JUMPDEST DUP4 ADD DUP3 PUSH2 0x2730 JUMP JUMPDEST POP POP JUMPDEST POP POP POP JUMP JUMPDEST PUSH0 DUP3 DUP3 SHR SWAP1 POP SWAP3 SWAP2 POP POP JUMP JUMPDEST PUSH0 PUSH2 0x27B3 PUSH0 NOT DUP5 PUSH1 0x8 MUL PUSH2 0x2798 JUMP JUMPDEST NOT DUP1 DUP4 AND SWAP2 POP POP SWAP3 SWAP2 POP POP JUMP JUMPDEST PUSH0 PUSH2 0x27CB DUP4 DUP4 PUSH2 0x27A4 JUMP JUMPDEST SWAP2 POP DUP3 PUSH1 0x2 MUL DUP3 OR SWAP1 POP SWAP3 SWAP2 POP POP JUMP JUMPDEST PUSH2 0x27E4 DUP3 PUSH2 0x1D70 JUMP JUMPDEST PUSH8 0xFFFFFFFFFFFFFFFF DUP2 GT ISZERO PUSH2 0x27FD JUMPI PUSH2 0x27FC PUSH2 0x1E3E JUMP JUMPDEST JUMPDEST PUSH2 0x2807 DUP3 SLOAD PUSH2 0x24C1 JUMP JUMPDEST PUSH2 0x2812 DUP3 DUP3 DUP6 PUSH2 0x2752 JUMP JUMPDEST PUSH0 PUSH1 0x20 SWAP1 POP PUSH1 0x1F DUP4 GT PUSH1 0x1 DUP2 EQ PUSH2 0x2843 JUMPI PUSH0 DUP5 ISZERO PUSH2 0x2831 JUMPI DUP3 DUP8 ADD MLOAD SWAP1 POP JUMPDEST PUSH2 0x283B DUP6 DUP3 PUSH2 0x27C0 JUMP JUMPDEST DUP7 SSTORE POP PUSH2 0x28A2 JUMP JUMPDEST PUSH1 0x1F NOT DUP5 AND PUSH2 0x2851 DUP7 PUSH2 0x2647 JUMP JUMPDEST PUSH0 JUMPDEST DUP3 DUP2 LT ISZERO PUSH2 0x2878 JUMPI DUP5 DUP10 ADD MLOAD DUP3 SSTORE PUSH1 0x1 DUP3 ADD SWAP2 POP PUSH1 0x20 DUP6 ADD SWAP5 POP PUSH1 0x20 DUP2 ADD SWAP1 POP PUSH2 0x2853 JUMP JUMPDEST DUP7 DUP4 LT ISZERO PUSH2 0x2895 JUMPI DUP5 DUP10 ADD MLOAD PUSH2 0x2891 PUSH1 0x1F DUP10 AND DUP3 PUSH2 0x27A4 JUMP JUMPDEST DUP4 SSTORE POP JUMPDEST PUSH1 0x1 PUSH1 0x2 DUP9 MUL ADD DUP9 SSTORE POP POP POP JUMPDEST POP POP POP POP POP POP JUMP JUMPDEST PUSH0 PUSH1 0x60 DUP3 ADD SWAP1 POP PUSH2 0x28BD PUSH0 DUP4 ADD DUP7 PUSH2 0x203F JUMP JUMPDEST PUSH2 0x28CA PUSH1 0x20 DUP4 ADD DUP6 PUSH2 0x203F JUMP JUMPDEST DUP2 DUP2 SUB PUSH1 0x40 DUP4 ADD MSTORE PUSH2 0x28DC DUP2 DUP5 PUSH2 0x1D98 JUMP JUMPDEST SWAP1 POP SWAP5 SWAP4 POP POP POP POP JUMP JUMPDEST PUSH32 0x5A65726F20616464726573732075736572000000000000000000000000000000 PUSH0 DUP3 ADD MSTORE POP JUMP JUMPDEST PUSH0 PUSH2 0x291A PUSH1 0x11 DUP4 PUSH2 0x1AFE JUMP JUMPDEST SWAP2 POP PUSH2 0x2925 DUP3 PUSH2 0x28E6 JUMP JUMPDEST PUSH1 0x20 DUP3 ADD SWAP1 POP SWAP2 SWAP1 POP JUMP JUMPDEST PUSH0 PUSH1 0x20 DUP3 ADD SWAP1 POP DUP2 DUP2 SUB PUSH0 DUP4 ADD MSTORE PUSH2 0x2947 DUP2 PUSH2 0x290E JUMP JUMPDEST SWAP1 POP SWAP2 SWAP1 POP JUMP JUMPDEST PUSH32 0x5769746864726177616C20616D6F756E74206D75737420626520677265617465 PUSH0 DUP3 ADD MSTORE PUSH32 0x72207468616E207A65726F000000000000000000000000000000000000000000 PUSH1 0x20 DUP3 ADD MSTORE POP JUMP JUMPDEST PUSH0 PUSH2 0x29A8 PUSH1 0x2B DUP4 PUSH2 0x1AFE JUMP JUMPDEST SWAP2 POP PUSH2 0x29B3 DUP3 PUSH2 0x294E JUMP JUMPDEST PUSH1 0x40 DUP3 ADD SWAP1 POP SWAP2 SWAP1 POP JUMP JUMPDEST PUSH0 PUSH1 0x20 DUP3 ADD SWAP1 POP DUP2 DUP2 SUB PUSH0 DUP4 ADD MSTORE PUSH2 0x29D5 DUP2 PUSH2 0x299C JUMP JUMPDEST SWAP1 POP SWAP2 SWAP1 POP JUMP JUMPDEST PUSH32 0x496E73756666696369656E742066756E64730000000000000000000000000000 PUSH0 DUP3 ADD MSTORE POP JUMP JUMPDEST PUSH0 PUSH2 0x2A10 PUSH1 0x12 DUP4 PUSH2 0x1AFE JUMP JUMPDEST SWAP2 POP PUSH2 0x2A1B DUP3 PUSH2 0x29DC JUMP JUMPDEST PUSH1 0x20 DUP3 ADD SWAP1 POP SWAP2 SWAP1 POP JUMP JUMPDEST PUSH0 PUSH1 0x20 DUP3 ADD SWAP1 POP DUP2 DUP2 SUB PUSH0 DUP4 ADD MSTORE PUSH2 0x2A3D DUP2 PUSH2 0x2A04 JUMP JUMPDEST SWAP1 POP SWAP2 SWAP1 POP JUMP JUMPDEST PUSH32 0x5265656E7472616E637947756172643A207265656E7472616E742063616C6C00 PUSH0 DUP3 ADD MSTORE POP JUMP JUMPDEST PUSH0 PUSH2 0x2A78 PUSH1 0x1F DUP4 PUSH2 0x1AFE JUMP JUMPDEST SWAP2 POP PUSH2 0x2A83 DUP3 PUSH2 0x2A44 JUMP JUMPDEST PUSH1 0x20 DUP3 ADD SWAP1 POP SWAP2 SWAP1 POP JUMP JUMPDEST PUSH0 PUSH1 0x20 DUP3 ADD SWAP1 POP DUP2 DUP2 SUB PUSH0 DUP4 ADD MSTORE PUSH2 0x2AA5 DUP2 PUSH2 0x2A6C JUMP JUMPDEST SWAP1 POP SWAP2 SWAP1 POP JUMP JUMPDEST PUSH0 PUSH1 0x40 DUP3 ADD SWAP1 POP PUSH2 0x2ABF PUSH0 DUP4 ADD DUP6 PUSH2 0x1C0C JUMP JUMPDEST PUSH2 0x2ACC PUSH1 0x20 DUP4 ADD DUP5 PUSH2 0x1AD6 JUMP JUMPDEST SWAP4 SWAP3 POP POP POP JUMP JUMPDEST PUSH0 PUSH1 0x60 DUP3 ADD SWAP1 POP PUSH2 0x2AE6 PUSH0 DUP4 ADD DUP7 PUSH2 0x1C0C JUMP JUMPDEST PUSH2 0x2AF3 PUSH1 0x20 DUP4 ADD DUP6 PUSH2 0x1C0C JUMP JUMPDEST PUSH2 0x2B00 PUSH1 0x40 DUP4 ADD DUP5 PUSH2 0x1AD6 JUMP JUMPDEST SWAP5 SWAP4 POP POP POP POP JUMP INVALID LOG2 PUSH5 0x6970667358 0x22 SLT KECCAK256 TSTORE SWAP11 CALLCODE PUSH19 0x73360C69383A4B916DA5F67842AC34296B3A82 ORIGIN SWAP1 BLOBHASH SWAP5 PUSH20 0xBDB2881F64736F6C634300081A00330000000000 "
				},
				"gasEstimates": {
					"creation": {
						"codeDepositCost": "2214000",
						"executionCost": "2358",
						"totalCost": "2216358"
					},
					"external": {
						"": "468",
						"NATIVE_TOKEN()": "418",
						"allowedAmounts(address,address)": "infinite",
						"claim(address)": "infinite",
						"currentRound()": "infinite",
						"deposit(address,uint256)": "infinite",
						"initialize(address,address)": "infinite",
						"owner()": "2590",
						"renounceOwnership()": "infinite",
						"scorer()": "infinite",
						"setAllowedAmount(address,address,uint256)": "infinite",
						"setRound(uint64,uint64,string)": "infinite",
						"totalBalances(address)": "2824",
						"transferOwnership(address)": "infinite",
						"withdraw(address,uint256)": "infinite"
					}
				},
				"methodIdentifiers": {
					"NATIVE_TOKEN()": "31f7d964",
					"allowedAmounts(address,address)": "a9590e8a",
					"claim(address)": "1e83409a",
					"currentRound()": "8a19c8bc",
					"deposit(address,uint256)": "47e7ef24",
					"initialize(address,address)": "485cc955",
					"owner()": "8da5cb5b",
					"renounceOwnership()": "715018a6",
					"scorer()": "85c758f7",
					"setAllowedAmount(address,address,uint256)": "b807a3c4",
					"setRound(uint64,uint64,string)": "a9012c89",
					"totalBalances(address)": "aee9c872",
					"transferOwnership(address)": "f2fde38b",
					"withdraw(address,uint256)": "f3fef3a3"
				}
			},
			"storageLayout": {
				"storage": [
					{
						"astId": 463,
						"contract": "contracts/sweetspot.sol:sweetspot",
						"label": "_status",
						"offset": 0,
						"slot": "0",
						"type": "t_uint256"
					},
					{
						"astId": 532,
						"contract": "contracts/sweetspot.sol:sweetspot",
						"label": "__gap",
						"offset": 0,
						"slot": "1",
						"type": "t_array(t_uint256)49_storage"
					},
					{
						"astId": 1498,
						"contract": "contracts/sweetspot.sol:sweetspot",
						"label": "scorer",
						"offset": 0,
						"slot": "50",
						"type": "t_contract(IScorer)1472"
					},
					{
						"astId": 1508,
						"contract": "contracts/sweetspot.sol:sweetspot",
						"label": "currentRound",
						"offset": 0,
						"slot": "51",
						"type": "t_struct(Round)1505_storage"
					},
					{
						"astId": 1512,
						"contract": "contracts/sweetspot.sol:sweetspot",
						"label": "totalBalances",
						"offset": 0,
						"slot": "53",
						"type": "t_mapping(t_address,t_uint256)"
					},
					{
						"astId": 1518,
						"contract": "contracts/sweetspot.sol:sweetspot",
						"label": "allowedAmounts",
						"offset": 0,
						"slot": "54",
						"type": "t_mapping(t_address,t_mapping(t_address,t_uint256))"
					}
				],
				"types": {
					"t_address": {
						"encoding": "inplace",
						"label": "address",
						"numberOfBytes": "20"
					},
					"t_array(t_uint256)49_storage": {
						"base": "t_uint256",
						"encoding": "inplace",
						"label": "uint256[49]",
						"numberOfBytes": "1568"
					},
					"t_contract(IScorer)1472": {
						"encoding": "inplace",
						"label": "contract IScorer",
						"numberOfBytes": "20"
					},
					"t_mapping(t_address,t_mapping(t_address,t_uint256))": {
						"encoding": "mapping",
						"key": "t_address",
						"label": "mapping(address => mapping(address => uint256))",
						"numberOfBytes": "32",
						"value": "t_mapping(t_address,t_uint256)"
					},
					"t_mapping(t_address,t_uint256)": {
						"encoding": "mapping",
						"key": "t_address",
						"label": "mapping(address => uint256)",
						"numberOfBytes": "32",
						"value": "t_uint256"
					},
					"t_string_storage": {
						"encoding": "bytes",
						"label": "string",
						"numberOfBytes": "32"
					},
					"t_struct(Round)1505_storage": {
						"encoding": "inplace",
						"label": "struct sweetspot.Round",
						"members": [
							{
								"astId": 1500,
								"contract": "contracts/sweetspot.sol:sweetspot",
								"label": "start",
								"offset": 0,
								"slot": "0",
								"type": "t_uint64"
							},
							{
								"astId": 1502,
								"contract": "contracts/sweetspot.sol:sweetspot",
								"label": "end",
								"offset": 8,
								"slot": "0",
								"type": "t_uint64"
							},
							{
								"astId": 1504,
								"contract": "contracts/sweetspot.sol:sweetspot",
								"label": "metadataURI",
								"offset": 0,
								"slot": "1",
								"type": "t_string_storage"
							}
						],
						"numberOfBytes": "64"
					},
					"t_uint256": {
						"encoding": "inplace",
						"label": "uint256",
						"numberOfBytes": "32"
					},
					"t_uint64": {
						"encoding": "inplace",
						"label": "uint64",
						"numberOfBytes": "8"
					}
				}
			},
			"userdoc": {
				"kind": "user",
				"methods": {
					"claim(address)": {
						"notice": "Claims the full allowed amount for a user during the round."
					},
					"deposit(address,uint256)": {
						"notice": "Deposits funds into this jar for a specific token or Ether."
					},
					"initialize(address,address)": {
						"notice": "Initializes this contract with its initial state."
					},
					"setAllowedAmount(address,address,uint256)": {
						"notice": "Sets the allowed amount for a specific user and token."
					},
					"setRound(uint64,uint64,string)": {
						"notice": "Sets the round duration and metadata URI."
					},
					"withdraw(address,uint256)": {
						"notice": "Withdraws funds from the jar for a specific token or Ether."
					}
				},
				"version": 1
			}
		}
	}
}