{
	"contracts/sweetspot.sol": {
		"sweetspot": {
			"abi": [
				{
					"inputs": [],
					"name": "InvalidInitialization",
					"type": "error"
				},
				{
					"inputs": [],
					"name": "NotInitializing",
					"type": "error"
				},
				{
					"inputs": [
						{
							"internalType": "uint256",
							"name": "currentTime",
							"type": "uint256"
						},
						{
							"internalType": "uint256",
							"name": "start",
							"type": "uint256"
						},
						{
							"internalType": "uint256",
							"name": "end",
							"type": "uint256"
						}
					],
					"name": "NotWithinRound",
					"type": "error"
				},
				{
					"inputs": [
						{
							"internalType": "address",
							"name": "owner",
							"type": "address"
						}
					],
					"name": "OwnableInvalidOwner",
					"type": "error"
				},
				{
					"inputs": [
						{
							"internalType": "address",
							"name": "account",
							"type": "address"
						}
					],
					"name": "OwnableUnauthorizedAccount",
					"type": "error"
				},
				{
					"inputs": [
						{
							"internalType": "address",
							"name": "token",
							"type": "address"
						}
					],
					"name": "SafeERC20FailedOperation",
					"type": "error"
				},
				{
					"anonymous": false,
					"inputs": [
						{
							"indexed": true,
							"internalType": "address",
							"name": "user",
							"type": "address"
						},
						{
							"indexed": true,
							"internalType": "address",
							"name": "token",
							"type": "address"
						},
						{
							"indexed": false,
							"internalType": "uint256",
							"name": "newAmount",
							"type": "uint256"
						}
					],
					"name": "AllowedAmountUpdated",
					"type": "event"
				},
				{
					"anonymous": false,
					"inputs": [
						{
							"indexed": true,
							"internalType": "address",
							"name": "claimant",
							"type": "address"
						},
						{
							"indexed": true,
							"internalType": "address",
							"name": "token",
							"type": "address"
						},
						{
							"indexed": false,
							"internalType": "uint256",
							"name": "amount",
							"type": "uint256"
						}
					],
					"name": "Claimed",
					"type": "event"
				},
				{
					"anonymous": false,
					"inputs": [
						{
							"indexed": true,
							"internalType": "address",
							"name": "depositor",
							"type": "address"
						},
						{
							"indexed": true,
							"internalType": "address",
							"name": "token",
							"type": "address"
						},
						{
							"indexed": false,
							"internalType": "uint256",
							"name": "amount",
							"type": "uint256"
						}
					],
					"name": "Deposit",
					"type": "event"
				},
				{
					"anonymous": false,
					"inputs": [
						{
							"indexed": false,
							"internalType": "uint64",
							"name": "version",
							"type": "uint64"
						}
					],
					"name": "Initialized",
					"type": "event"
				},
				{
					"anonymous": false,
					"inputs": [
						{
							"indexed": true,
							"internalType": "address",
							"name": "previousOwner",
							"type": "address"
						},
						{
							"indexed": true,
							"internalType": "address",
							"name": "newOwner",
							"type": "address"
						}
					],
					"name": "OwnershipTransferred",
					"type": "event"
				},
				{
					"anonymous": false,
					"inputs": [
						{
							"indexed": false,
							"internalType": "uint256",
							"name": "start",
							"type": "uint256"
						},
						{
							"indexed": false,
							"internalType": "uint256",
							"name": "end",
							"type": "uint256"
						},
						{
							"indexed": false,
							"internalType": "string",
							"name": "metadataURI",
							"type": "string"
						}
					],
					"name": "RoundUpdated",
					"type": "event"
				},
				{
					"anonymous": false,
					"inputs": [
						{
							"indexed": true,
							"internalType": "address",
							"name": "withdrawer",
							"type": "address"
						},
						{
							"indexed": true,
							"internalType": "address",
							"name": "token",
							"type": "address"
						},
						{
							"indexed": false,
							"internalType": "uint256",
							"name": "amount",
							"type": "uint256"
						}
					],
					"name": "Withdraw",
					"type": "event"
				},
				{
					"stateMutability": "payable",
					"type": "fallback"
				},
				{
					"inputs": [],
					"name": "NATIVE_TOKEN",
					"outputs": [
						{
							"internalType": "address",
							"name": "",
							"type": "address"
						}
					],
					"stateMutability": "view",
					"type": "function"
				},
				{
					"inputs": [
						{
							"internalType": "address",
							"name": "",
							"type": "address"
						},
						{
							"internalType": "address",
							"name": "",
							"type": "address"
						}
					],
					"name": "allowedAmounts",
					"outputs": [
						{
							"internalType": "uint256",
							"name": "",
							"type": "uint256"
						}
					],
					"stateMutability": "view",
					"type": "function"
				},
				{
					"inputs": [
						{
							"internalType": "address[]",
							"name": "tokens",
							"type": "address[]"
						},
						{
							"internalType": "address[]",
							"name": "users",
							"type": "address[]"
						},
						{
							"internalType": "uint256[]",
							"name": "amounts",
							"type": "uint256[]"
						}
					],
					"name": "bulkSetAllowedAmount",
					"outputs": [],
					"stateMutability": "nonpayable",
					"type": "function"
				},
				{
					"inputs": [
						{
							"internalType": "address",
							"name": "token",
							"type": "address"
						}
					],
					"name": "claim",
					"outputs": [],
					"stateMutability": "nonpayable",
					"type": "function"
				},
				{
					"inputs": [],
					"name": "currentRound",
					"outputs": [
						{
							"internalType": "uint64",
							"name": "start",
							"type": "uint64"
						},
						{
							"internalType": "uint64",
							"name": "end",
							"type": "uint64"
						},
						{
							"internalType": "string",
							"name": "metadataURI",
							"type": "string"
						}
					],
					"stateMutability": "view",
					"type": "function"
				},
				{
					"inputs": [
						{
							"internalType": "address",
							"name": "token",
							"type": "address"
						},
						{
							"internalType": "uint256",
							"name": "amount",
							"type": "uint256"
						}
					],
					"name": "deposit",
					"outputs": [],
					"stateMutability": "payable",
					"type": "function"
				},
				{
					"inputs": [
						{
							"internalType": "address",
							"name": "_scorer",
							"type": "address"
						},
						{
							"internalType": "address",
							"name": "owner",
							"type": "address"
						}
					],
					"name": "initialize",
					"outputs": [],
					"stateMutability": "nonpayable",
					"type": "function"
				},
				{
					"inputs": [],
					"name": "owner",
					"outputs": [
						{
							"internalType": "address",
							"name": "",
							"type": "address"
						}
					],
					"stateMutability": "view",
					"type": "function"
				},
				{
					"inputs": [],
					"name": "renounceOwnership",
					"outputs": [],
					"stateMutability": "nonpayable",
					"type": "function"
				},
				{
					"inputs": [],
					"name": "scorer",
					"outputs": [
						{
							"internalType": "contract IScorer",
							"name": "",
							"type": "address"
						}
					],
					"stateMutability": "view",
					"type": "function"
				},
				{
					"inputs": [
						{
							"internalType": "address",
							"name": "user",
							"type": "address"
						},
						{
							"internalType": "address",
							"name": "token",
							"type": "address"
						},
						{
							"internalType": "uint256",
							"name": "amount",
							"type": "uint256"
						}
					],
					"name": "setAllowedAmount",
					"outputs": [],
					"stateMutability": "nonpayable",
					"type": "function"
				},
				{
					"inputs": [
						{
							"internalType": "uint64",
							"name": "start",
							"type": "uint64"
						},
						{
							"internalType": "uint64",
							"name": "end",
							"type": "uint64"
						},
						{
							"internalType": "string",
							"name": "metadataURI",
							"type": "string"
						}
					],
					"name": "setRound",
					"outputs": [],
					"stateMutability": "nonpayable",
					"type": "function"
				},
				{
					"inputs": [
						{
							"internalType": "address",
							"name": "",
							"type": "address"
						}
					],
					"name": "totalBalances",
					"outputs": [
						{
							"internalType": "uint256",
							"name": "",
							"type": "uint256"
						}
					],
					"stateMutability": "view",
					"type": "function"
				},
				{
					"inputs": [
						{
							"internalType": "address",
							"name": "newOwner",
							"type": "address"
						}
					],
					"name": "transferOwnership",
					"outputs": [],
					"stateMutability": "nonpayable",
					"type": "function"
				},
				{
					"inputs": [
						{
							"internalType": "address",
							"name": "token",
							"type": "address"
						},
						{
							"internalType": "uint256",
							"name": "amount",
							"type": "uint256"
						}
					],
					"name": "withdraw",
					"outputs": [],
					"stateMutability": "nonpayable",
					"type": "function"
				},
				{
					"stateMutability": "payable",
					"type": "receive"
				}
			],
			"devdoc": {
				"errors": {
					"InvalidInitialization()": [
						{
							"details": "The contract is already initialized."
						}
					],
					"NotInitializing()": [
						{
							"details": "The contract is not initializing."
						}
					],
					"OwnableInvalidOwner(address)": [
						{
							"details": "The owner is not a valid owner account. (eg. `address(0)`)"
						}
					],
					"OwnableUnauthorizedAccount(address)": [
						{
							"details": "The caller account is not authorized to perform an operation."
						}
					],
					"SafeERC20FailedOperation(address)": [
						{
							"details": "An operation with an ERC-20 token failed."
						}
					]
				},
				"events": {
					"Initialized(uint64)": {
						"details": "Triggered when the contract has been initialized or reinitialized."
					}
				},
				"kind": "dev",
				"methods": {
					"deposit(address,uint256)": {
						"params": {
							"amount": "The value to add (in wei for Ether).",
							"token": "The token address (address(0) for Ether)."
						}
					},
					"initialize(address,address)": {
						"params": {
							"_scorer": "The scoring contract address.",
							"owner": "The owner address."
						}
					},
					"owner()": {
						"details": "Returns the address of the current owner."
					},
					"renounceOwnership()": {
						"details": "Leaves the contract without owner. It will not be possible to call `onlyOwner` functions. Can only be called by the current owner. NOTE: Renouncing ownership will leave the contract without an owner, thereby disabling any functionality that is only available to the owner."
					},
					"setAllowedAmount(address,address,uint256)": {
						"params": {
							"amount": "The allowed amount for the user.",
							"token": "The token address.",
							"user": "The address of the user."
						}
					},
					"setRound(uint64,uint64,string)": {
						"params": {
							"end": "The end timestamp of the round.",
							"metadataURI": "The IPFS URI for the round metadata.",
							"start": "The start timestamp of the round."
						}
					},
					"transferOwnership(address)": {
						"details": "Transfers ownership of the contract to a new account (`newOwner`). Can only be called by the current owner."
					},
					"withdraw(address,uint256)": {
						"params": {
							"amount": "The amount to withdraw.",
							"token": "The token address (address(0) for Ether)."
						}
					}
				},
				"version": 1
			},
			"evm": {
				"assembly": "    /* \"contracts/sweetspot.sol\":454:6803  contract sweetspot is OwnableUpgradeable, ReentrancyGuardUpgradeable  {... */\n  mstore(0x40, 0x80)\n  callvalue\n  dup1\n  iszero\n  tag_1\n  jumpi\n  0x00\n  dup1\n  revert\ntag_1:\n  pop\n  dataSize(sub_0)\n  dup1\n  dataOffset(sub_0)\n  0x00\n  codecopy\n  0x00\n  return\nstop\n\nsub_0: assembly {\n        /* \"contracts/sweetspot.sol\":454:6803  contract sweetspot is OwnableUpgradeable, ReentrancyGuardUpgradeable  {... */\n      mstore(0x40, 0x80)\n      jumpi(tag_1, lt(calldatasize, 0x04))\n      shr(0xe0, calldataload(0x00))\n      dup1\n      0x8da5cb5b\n      gt\n      tag_18\n      jumpi\n      dup1\n      0xb807a3c4\n      gt\n      tag_19\n      jumpi\n      dup1\n      0xb807a3c4\n      eq\n      tag_14\n      jumpi\n      dup1\n      0xc5d60b51\n      eq\n      tag_15\n      jumpi\n      dup1\n      0xf2fde38b\n      eq\n      tag_16\n      jumpi\n      dup1\n      0xf3fef3a3\n      eq\n      tag_17\n      jumpi\n      jump(tag_2)\n    tag_19:\n      dup1\n      0x8da5cb5b\n      eq\n      tag_10\n      jumpi\n      dup1\n      0xa9012c89\n      eq\n      tag_11\n      jumpi\n      dup1\n      0xa9590e8a\n      eq\n      tag_12\n      jumpi\n      dup1\n      0xaee9c872\n      eq\n      tag_13\n      jumpi\n      jump(tag_2)\n    tag_18:\n      dup1\n      0x485cc955\n      gt\n      tag_20\n      jumpi\n      dup1\n      0x485cc955\n      eq\n      tag_6\n      jumpi\n      dup1\n      0x715018a6\n      eq\n      tag_7\n      jumpi\n      dup1\n      0x85c758f7\n      eq\n      tag_8\n      jumpi\n      dup1\n      0x8a19c8bc\n      eq\n      tag_9\n      jumpi\n      jump(tag_2)\n    tag_20:\n      dup1\n      0x1e83409a\n      eq\n      tag_3\n      jumpi\n      dup1\n      0x31f7d964\n      eq\n      tag_4\n      jumpi\n      dup1\n      0x47e7ef24\n      eq\n      tag_5\n      jumpi\n      jump(tag_2)\n    tag_1:\n      jumpi(tag_2, calldatasize)\n        /* \"contracts/sweetspot.sol\":6569:6578  msg.value */\n      callvalue\n        /* \"contracts/sweetspot.sol\":6538:6551  totalBalances */\n      0x35\n        /* \"contracts/sweetspot.sol\":6538:6565  totalBalances[NATIVE_TOKEN] */\n      0x00\n        /* \"contracts/sweetspot.sol\":613:614  0 */\n      dup1\n        /* \"contracts/sweetspot.sol\":6538:6565  totalBalances[NATIVE_TOKEN] */\n      0xffffffffffffffffffffffffffffffffffffffff\n      and\n      0xffffffffffffffffffffffffffffffffffffffff\n      and\n      dup2\n      mstore\n      0x20\n      add\n      swap1\n      dup2\n      mstore\n      0x20\n      add\n      0x00\n      keccak256\n      0x00\n        /* \"contracts/sweetspot.sol\":6538:6578  totalBalances[NATIVE_TOKEN] += msg.value */\n      dup3\n      dup3\n      sload\n      tag_23\n      swap2\n      swap1\n      tag_24\n      jump\t// in\n    tag_23:\n      swap3\n      pop\n      pop\n      dup2\n      swap1\n      sstore\n      pop\n        /* \"contracts/sweetspot.sol\":613:614  0 */\n      0x00\n        /* \"contracts/sweetspot.sol\":6594:6638  Deposit(msg.sender, NATIVE_TOKEN, msg.value) */\n      0xffffffffffffffffffffffffffffffffffffffff\n      and\n        /* \"contracts/sweetspot.sol\":6602:6612  msg.sender */\n      caller\n        /* \"contracts/sweetspot.sol\":6594:6638  Deposit(msg.sender, NATIVE_TOKEN, msg.value) */\n      0xffffffffffffffffffffffffffffffffffffffff\n      and\n      0x5548c837ab068cf56a2c2479df0882a4922fd203edb7517321831d95078c5f62\n        /* \"contracts/sweetspot.sol\":6628:6637  msg.value */\n      callvalue\n        /* \"contracts/sweetspot.sol\":6594:6638  Deposit(msg.sender, NATIVE_TOKEN, msg.value) */\n      mload(0x40)\n      tag_25\n      swap2\n      swap1\n      tag_26\n      jump\t// in\n    tag_25:\n      mload(0x40)\n      dup1\n      swap2\n      sub\n      swap1\n      log3\n        /* \"contracts/sweetspot.sol\":454:6803  contract sweetspot is OwnableUpgradeable, ReentrancyGuardUpgradeable  {... */\n      stop\n    tag_2:\n        /* \"contracts/sweetspot.sol\":6758:6792  revert(\"Sweetspot: use deposit()\") */\n      mload(0x40)\n      0x08c379a000000000000000000000000000000000000000000000000000000000\n      dup2\n      mstore\n      0x04\n      add\n      tag_29\n      swap1\n      tag_30\n      jump\t// in\n    tag_29:\n      mload(0x40)\n      dup1\n      swap2\n      sub\n      swap1\n      revert\n        /* \"contracts/sweetspot.sol\":2971:3903  function claim(address token) external nonReentrant {... */\n    tag_3:\n      callvalue\n      dup1\n      iszero\n      tag_31\n      jumpi\n      0x00\n      dup1\n      revert\n    tag_31:\n      pop\n      tag_32\n      0x04\n      dup1\n      calldatasize\n      sub\n      dup2\n      add\n      swap1\n      tag_33\n      swap2\n      swap1\n      tag_34\n      jump\t// in\n    tag_33:\n      tag_35\n      jump\t// in\n    tag_32:\n      stop\n        /* \"contracts/sweetspot.sol\":566:615  address public constant NATIVE_TOKEN = address(0) */\n    tag_4:\n      callvalue\n      dup1\n      iszero\n      tag_36\n      jumpi\n      0x00\n      dup1\n      revert\n    tag_36:\n      pop\n      tag_37\n      tag_38\n      jump\t// in\n    tag_37:\n      mload(0x40)\n      tag_39\n      swap2\n      swap1\n      tag_40\n      jump\t// in\n    tag_39:\n      mload(0x40)\n      dup1\n      swap2\n      sub\n      swap1\n      return\n        /* \"contracts/sweetspot.sol\":2412:2886  function deposit(address token, uint256 amount) external payable nonReentrant  {... */\n    tag_5:\n      tag_41\n      0x04\n      dup1\n      calldatasize\n      sub\n      dup2\n      add\n      swap1\n      tag_42\n      swap2\n      swap1\n      tag_43\n      jump\t// in\n    tag_42:\n      tag_44\n      jump\t// in\n    tag_41:\n      stop\n        /* \"contracts/sweetspot.sol\":1977:2194  function initialize(address _scorer, address owner) external initializer {... */\n    tag_6:\n      callvalue\n      dup1\n      iszero\n      tag_45\n      jumpi\n      0x00\n      dup1\n      revert\n    tag_45:\n      pop\n      tag_46\n      0x04\n      dup1\n      calldatasize\n      sub\n      dup2\n      add\n      swap1\n      tag_47\n      swap2\n      swap1\n      tag_48\n      jump\t// in\n    tag_47:\n      tag_49\n      jump\t// in\n    tag_46:\n      stop\n        /* \"@openzeppelin/contracts-upgradeable/access/OwnableUpgradeable.sol\":3155:3256  function renounceOwnership() public virtual onlyOwner {... */\n    tag_7:\n      callvalue\n      dup1\n      iszero\n      tag_50\n      jumpi\n      0x00\n      dup1\n      revert\n    tag_50:\n      pop\n      tag_51\n      tag_52\n      jump\t// in\n    tag_51:\n      stop\n        /* \"contracts/sweetspot.sol\":622:643  IScorer public scorer */\n    tag_8:\n      callvalue\n      dup1\n      iszero\n      tag_53\n      jumpi\n      0x00\n      dup1\n      revert\n    tag_53:\n      pop\n      tag_54\n      tag_55\n      jump\t// in\n    tag_54:\n      mload(0x40)\n      tag_56\n      swap2\n      swap1\n      tag_57\n      jump\t// in\n    tag_56:\n      mload(0x40)\n      dup1\n      swap2\n      sub\n      swap1\n      return\n        /* \"contracts/sweetspot.sol\":883:908  Round public currentRound */\n    tag_9:\n      callvalue\n      dup1\n      iszero\n      tag_58\n      jumpi\n      0x00\n      dup1\n      revert\n    tag_58:\n      pop\n      tag_59\n      tag_60\n      jump\t// in\n    tag_59:\n      mload(0x40)\n      tag_61\n      swap4\n      swap3\n      swap2\n      swap1\n      tag_62\n      jump\t// in\n    tag_61:\n      mload(0x40)\n      dup1\n      swap2\n      sub\n      swap1\n      return\n        /* \"@openzeppelin/contracts-upgradeable/access/OwnableUpgradeable.sol\":2441:2585  function owner() public view virtual returns (address) {... */\n    tag_10:\n      callvalue\n      dup1\n      iszero\n      tag_63\n      jumpi\n      0x00\n      dup1\n      revert\n    tag_63:\n      pop\n      tag_64\n      tag_65\n      jump\t// in\n    tag_64:\n      mload(0x40)\n      tag_66\n      swap2\n      swap1\n      tag_40\n      jump\t// in\n    tag_66:\n      mload(0x40)\n      dup1\n      swap2\n      sub\n      swap1\n      return\n        /* \"contracts/sweetspot.sol\":5360:5638  function setRound(uint64  start, uint64  end, string memory metadataURI) external onlyAdmin {... */\n    tag_11:\n      callvalue\n      dup1\n      iszero\n      tag_67\n      jumpi\n      0x00\n      dup1\n      revert\n    tag_67:\n      pop\n      tag_68\n      0x04\n      dup1\n      calldatasize\n      sub\n      dup2\n      add\n      swap1\n      tag_69\n      swap2\n      swap1\n      tag_70\n      jump\t// in\n    tag_69:\n      tag_71\n      jump\t// in\n    tag_68:\n      stop\n        /* \"contracts/sweetspot.sol\":1097:1166  mapping(address => mapping(address => uint256)) public allowedAmounts */\n    tag_12:\n      callvalue\n      dup1\n      iszero\n      tag_72\n      jumpi\n      0x00\n      dup1\n      revert\n    tag_72:\n      pop\n      tag_73\n      0x04\n      dup1\n      calldatasize\n      sub\n      dup2\n      add\n      swap1\n      tag_74\n      swap2\n      swap1\n      tag_48\n      jump\t// in\n    tag_74:\n      tag_75\n      jump\t// in\n    tag_73:\n      mload(0x40)\n      tag_76\n      swap2\n      swap1\n      tag_26\n      jump\t// in\n    tag_76:\n      mload(0x40)\n      dup1\n      swap2\n      sub\n      swap1\n      return\n        /* \"contracts/sweetspot.sol\":999:1047  mapping(address => uint256) public totalBalances */\n    tag_13:\n      callvalue\n      dup1\n      iszero\n      tag_77\n      jumpi\n      0x00\n      dup1\n      revert\n    tag_77:\n      pop\n      tag_78\n      0x04\n      dup1\n      calldatasize\n      sub\n      dup2\n      add\n      swap1\n      tag_79\n      swap2\n      swap1\n      tag_34\n      jump\t// in\n    tag_79:\n      tag_80\n      jump\t// in\n    tag_78:\n      mload(0x40)\n      tag_81\n      swap2\n      swap1\n      tag_26\n      jump\t// in\n    tag_81:\n      mload(0x40)\n      dup1\n      swap2\n      sub\n      swap1\n      return\n        /* \"contracts/sweetspot.sol\":4135:4396  function setAllowedAmount(address user, address token, uint256 amount) external onlyAdmin {... */\n    tag_14:\n      callvalue\n      dup1\n      iszero\n      tag_82\n      jumpi\n      0x00\n      dup1\n      revert\n    tag_82:\n      pop\n      tag_83\n      0x04\n      dup1\n      calldatasize\n      sub\n      dup2\n      add\n      swap1\n      tag_84\n      swap2\n      swap1\n      tag_85\n      jump\t// in\n    tag_84:\n      tag_86\n      jump\t// in\n    tag_83:\n      stop\n        /* \"contracts/sweetspot.sol\":4495:5111  function bulkSetAllowedAmount(... */\n    tag_15:\n      callvalue\n      dup1\n      iszero\n      tag_87\n      jumpi\n      0x00\n      dup1\n      revert\n    tag_87:\n      pop\n      tag_88\n      0x04\n      dup1\n      calldatasize\n      sub\n      dup2\n      add\n      swap1\n      tag_89\n      swap2\n      swap1\n      tag_90\n      jump\t// in\n    tag_89:\n      tag_91\n      jump\t// in\n    tag_88:\n      stop\n        /* \"@openzeppelin/contracts-upgradeable/access/OwnableUpgradeable.sol\":3405:3620  function transferOwnership(address newOwner) public virtual onlyOwner {... */\n    tag_16:\n      callvalue\n      dup1\n      iszero\n      tag_92\n      jumpi\n      0x00\n      dup1\n      revert\n    tag_92:\n      pop\n      tag_93\n      0x04\n      dup1\n      calldatasize\n      sub\n      dup2\n      add\n      swap1\n      tag_94\n      swap2\n      swap1\n      tag_34\n      jump\t// in\n    tag_94:\n      tag_95\n      jump\t// in\n    tag_93:\n      stop\n        /* \"contracts/sweetspot.sol\":5843:6421  function withdraw(address token, uint256 amount) external onlyOwner nonReentrant  {... */\n    tag_17:\n      callvalue\n      dup1\n      iszero\n      tag_96\n      jumpi\n      0x00\n      dup1\n      revert\n    tag_96:\n      pop\n      tag_97\n      0x04\n      dup1\n      calldatasize\n      sub\n      dup2\n      add\n      swap1\n      tag_98\n      swap2\n      swap1\n      tag_43\n      jump\t// in\n    tag_98:\n      tag_99\n      jump\t// in\n    tag_97:\n      stop\n        /* \"contracts/sweetspot.sol\":2971:3903  function claim(address token) external nonReentrant {... */\n    tag_35:\n        /* \"@openzeppelin/contracts-upgradeable/security/ReentrancyGuardUpgradeable.sol\":2526:2547  _nonReentrantBefore() */\n      tag_101\n        /* \"@openzeppelin/contracts-upgradeable/security/ReentrancyGuardUpgradeable.sol\":2526:2545  _nonReentrantBefore */\n      tag_102\n        /* \"@openzeppelin/contracts-upgradeable/security/ReentrancyGuardUpgradeable.sol\":2526:2547  _nonReentrantBefore() */\n      jump\t// in\n    tag_101:\n        /* \"contracts/sweetspot.sol\":3066:3078  currentRound */\n      0x33\n        /* \"contracts/sweetspot.sol\":3066:3084  currentRound.start */\n      0x00\n      add\n      0x00\n      swap1\n      sload\n      swap1\n      0x0100\n      exp\n      swap1\n      div\n      0xffffffffffffffff\n      and\n        /* \"contracts/sweetspot.sol\":3048:3084  block.timestamp < currentRound.start */\n      0xffffffffffffffff\n      and\n        /* \"contracts/sweetspot.sol\":3048:3063  block.timestamp */\n      timestamp\n        /* \"contracts/sweetspot.sol\":3048:3084  block.timestamp < currentRound.start */\n      lt\n        /* \"contracts/sweetspot.sol\":3048:3122  block.timestamp < currentRound.start || block.timestamp > currentRound.end */\n      dup1\n      tag_104\n      jumpi\n      pop\n        /* \"contracts/sweetspot.sol\":3106:3118  currentRound */\n      0x33\n        /* \"contracts/sweetspot.sol\":3106:3122  currentRound.end */\n      0x00\n      add\n      0x08\n      swap1\n      sload\n      swap1\n      0x0100\n      exp\n      swap1\n      div\n      0xffffffffffffffff\n      and\n        /* \"contracts/sweetspot.sol\":3088:3122  block.timestamp > currentRound.end */\n      0xffffffffffffffff\n      and\n        /* \"contracts/sweetspot.sol\":3088:3103  block.timestamp */\n      timestamp\n        /* \"contracts/sweetspot.sol\":3088:3122  block.timestamp > currentRound.end */\n      gt\n        /* \"contracts/sweetspot.sol\":3048:3122  block.timestamp < currentRound.start || block.timestamp > currentRound.end */\n    tag_104:\n        /* \"contracts/sweetspot.sol\":3044:3227  if (block.timestamp < currentRound.start || block.timestamp > currentRound.end) {... */\n      iszero\n      tag_105\n      jumpi\n        /* \"contracts/sweetspot.sol\":3161:3176  block.timestamp */\n      timestamp\n        /* \"contracts/sweetspot.sol\":3178:3190  currentRound */\n      0x33\n        /* \"contracts/sweetspot.sol\":3178:3196  currentRound.start */\n      0x00\n      add\n      0x00\n      swap1\n      sload\n      swap1\n      0x0100\n      exp\n      swap1\n      div\n      0xffffffffffffffff\n      and\n        /* \"contracts/sweetspot.sol\":3198:3210  currentRound */\n      0x33\n        /* \"contracts/sweetspot.sol\":3198:3214  currentRound.end */\n      0x00\n      add\n      0x08\n      swap1\n      sload\n      swap1\n      0x0100\n      exp\n      swap1\n      div\n      0xffffffffffffffff\n      and\n        /* \"contracts/sweetspot.sol\":3146:3215  NotWithinRound(block.timestamp, currentRound.start, currentRound.end) */\n      mload(0x40)\n      0xfa7410d400000000000000000000000000000000000000000000000000000000\n      dup2\n      mstore\n      0x04\n      add\n      tag_106\n      swap4\n      swap3\n      swap2\n      swap1\n      tag_107\n      jump\t// in\n    tag_106:\n      mload(0x40)\n      dup1\n      swap2\n      sub\n      swap1\n      revert\n        /* \"contracts/sweetspot.sol\":3044:3227  if (block.timestamp < currentRound.start || block.timestamp > currentRound.end) {... */\n    tag_105:\n        /* \"contracts/sweetspot.sol\":3239:3264  uint256 userAllowedAmount */\n      0x00\n        /* \"contracts/sweetspot.sol\":3267:3281  allowedAmounts */\n      0x36\n        /* \"contracts/sweetspot.sol\":3267:3293  allowedAmounts[msg.sender] */\n      0x00\n        /* \"contracts/sweetspot.sol\":3282:3292  msg.sender */\n      caller\n        /* \"contracts/sweetspot.sol\":3267:3293  allowedAmounts[msg.sender] */\n      0xffffffffffffffffffffffffffffffffffffffff\n      and\n      0xffffffffffffffffffffffffffffffffffffffff\n      and\n      dup2\n      mstore\n      0x20\n      add\n      swap1\n      dup2\n      mstore\n      0x20\n      add\n      0x00\n      keccak256\n        /* \"contracts/sweetspot.sol\":3267:3300  allowedAmounts[msg.sender][token] */\n      0x00\n        /* \"contracts/sweetspot.sol\":3294:3299  token */\n      dup4\n        /* \"contracts/sweetspot.sol\":3267:3300  allowedAmounts[msg.sender][token] */\n      0xffffffffffffffffffffffffffffffffffffffff\n      and\n      0xffffffffffffffffffffffffffffffffffffffff\n      and\n      dup2\n      mstore\n      0x20\n      add\n      swap1\n      dup2\n      mstore\n      0x20\n      add\n      0x00\n      keccak256\n      sload\n        /* \"contracts/sweetspot.sol\":3239:3300  uint256 userAllowedAmount = allowedAmounts[msg.sender][token] */\n      swap1\n      pop\n        /* \"contracts/sweetspot.sol\":3339:3340  0 */\n      0x00\n        /* \"contracts/sweetspot.sol\":3319:3336  userAllowedAmount */\n      dup2\n        /* \"contracts/sweetspot.sol\":3319:3340  userAllowedAmount > 0 */\n      gt\n        /* \"contracts/sweetspot.sol\":3311:3364  require(userAllowedAmount > 0, \"No claimable amount\") */\n      tag_108\n      jumpi\n      mload(0x40)\n      0x08c379a000000000000000000000000000000000000000000000000000000000\n      dup2\n      mstore\n      0x04\n      add\n      tag_109\n      swap1\n      tag_110\n      jump\t// in\n    tag_109:\n      mload(0x40)\n      dup1\n      swap2\n      sub\n      swap1\n      revert\n    tag_108:\n        /* \"contracts/sweetspot.sol\":3407:3424  userAllowedAmount */\n      dup1\n        /* \"contracts/sweetspot.sol\":3383:3396  totalBalances */\n      0x35\n        /* \"contracts/sweetspot.sol\":3383:3403  totalBalances[token] */\n      0x00\n        /* \"contracts/sweetspot.sol\":3397:3402  token */\n      dup5\n        /* \"contracts/sweetspot.sol\":3383:3403  totalBalances[token] */\n      0xffffffffffffffffffffffffffffffffffffffff\n      and\n      0xffffffffffffffffffffffffffffffffffffffff\n      and\n      dup2\n      mstore\n      0x20\n      add\n      swap1\n      dup2\n      mstore\n      0x20\n      add\n      0x00\n      keccak256\n      sload\n        /* \"contracts/sweetspot.sol\":3383:3424  totalBalances[token] >= userAllowedAmount */\n      lt\n      iszero\n        /* \"contracts/sweetspot.sol\":3375:3454  require(totalBalances[token] >= userAllowedAmount, \"Insufficient funds in jar\") */\n      tag_111\n      jumpi\n      mload(0x40)\n      0x08c379a000000000000000000000000000000000000000000000000000000000\n      dup2\n      mstore\n      0x04\n      add\n      tag_112\n      swap1\n      tag_113\n      jump\t// in\n    tag_112:\n      mload(0x40)\n      dup1\n      swap2\n      sub\n      swap1\n      revert\n    tag_111:\n        /* \"contracts/sweetspot.sol\":3503:3504  0 */\n      0x00\n        /* \"contracts/sweetspot.sol\":3467:3481  allowedAmounts */\n      0x36\n        /* \"contracts/sweetspot.sol\":3467:3493  allowedAmounts[msg.sender] */\n      0x00\n        /* \"contracts/sweetspot.sol\":3482:3492  msg.sender */\n      caller\n        /* \"contracts/sweetspot.sol\":3467:3493  allowedAmounts[msg.sender] */\n      0xffffffffffffffffffffffffffffffffffffffff\n      and\n      0xffffffffffffffffffffffffffffffffffffffff\n      and\n      dup2\n      mstore\n      0x20\n      add\n      swap1\n      dup2\n      mstore\n      0x20\n      add\n      0x00\n      keccak256\n        /* \"contracts/sweetspot.sol\":3467:3500  allowedAmounts[msg.sender][token] */\n      0x00\n        /* \"contracts/sweetspot.sol\":3494:3499  token */\n      dup5\n        /* \"contracts/sweetspot.sol\":3467:3500  allowedAmounts[msg.sender][token] */\n      0xffffffffffffffffffffffffffffffffffffffff\n      and\n      0xffffffffffffffffffffffffffffffffffffffff\n      and\n      dup2\n      mstore\n      0x20\n      add\n      swap1\n      dup2\n      mstore\n      0x20\n      add\n      0x00\n      keccak256\n        /* \"contracts/sweetspot.sol\":3467:3504  allowedAmounts[msg.sender][token] = 0 */\n      dup2\n      swap1\n      sstore\n      pop\n        /* \"contracts/sweetspot.sol\":3539:3556  userAllowedAmount */\n      dup1\n        /* \"contracts/sweetspot.sol\":3515:3528  totalBalances */\n      0x35\n        /* \"contracts/sweetspot.sol\":3515:3535  totalBalances[token] */\n      0x00\n        /* \"contracts/sweetspot.sol\":3529:3534  token */\n      dup5\n        /* \"contracts/sweetspot.sol\":3515:3535  totalBalances[token] */\n      0xffffffffffffffffffffffffffffffffffffffff\n      and\n      0xffffffffffffffffffffffffffffffffffffffff\n      and\n      dup2\n      mstore\n      0x20\n      add\n      swap1\n      dup2\n      mstore\n      0x20\n      add\n      0x00\n      keccak256\n      0x00\n        /* \"contracts/sweetspot.sol\":3515:3556  totalBalances[token] -= userAllowedAmount */\n      dup3\n      dup3\n      sload\n      tag_114\n      swap2\n      swap1\n      tag_115\n      jump\t// in\n    tag_114:\n      swap3\n      pop\n      pop\n      dup2\n      swap1\n      sstore\n      pop\n        /* \"contracts/sweetspot.sol\":613:614  0 */\n      0x00\n        /* \"contracts/sweetspot.sol\":3573:3594  token == NATIVE_TOKEN */\n      0xffffffffffffffffffffffffffffffffffffffff\n      and\n        /* \"contracts/sweetspot.sol\":3573:3578  token */\n      dup3\n        /* \"contracts/sweetspot.sol\":3573:3594  token == NATIVE_TOKEN */\n      0xffffffffffffffffffffffffffffffffffffffff\n      and\n      sub\n        /* \"contracts/sweetspot.sol\":3569:3833  if (token == NATIVE_TOKEN) {... */\n      tag_116\n      jumpi\n        /* \"contracts/sweetspot.sol\":3612:3624  bool success */\n      0x00\n        /* \"contracts/sweetspot.sol\":3630:3640  msg.sender */\n      caller\n        /* \"contracts/sweetspot.sol\":3630:3645  msg.sender.call */\n      0xffffffffffffffffffffffffffffffffffffffff\n      and\n        /* \"contracts/sweetspot.sol\":3653:3670  userAllowedAmount */\n      dup3\n        /* \"contracts/sweetspot.sol\":3630:3675  msg.sender.call{value: userAllowedAmount}(\"\") */\n      mload(0x40)\n      tag_117\n      swap1\n      tag_118\n      jump\t// in\n    tag_117:\n      0x00\n      mload(0x40)\n      dup1\n      dup4\n      sub\n      dup2\n      dup6\n      dup8\n      gas\n      call\n      swap3\n      pop\n      pop\n      pop\n      returndatasize\n      dup1\n      0x00\n      dup2\n      eq\n      tag_121\n      jumpi\n      mload(0x40)\n      swap2\n      pop\n      and(add(returndatasize, 0x3f), not(0x1f))\n      dup3\n      add\n      0x40\n      mstore\n      returndatasize\n      dup3\n      mstore\n      returndatasize\n      0x00\n      0x20\n      dup5\n      add\n      returndatacopy\n      jump(tag_120)\n    tag_121:\n      0x60\n      swap2\n      pop\n    tag_120:\n      pop\n        /* \"contracts/sweetspot.sol\":3611:3675  (bool success, ) = msg.sender.call{value: userAllowedAmount}(\"\") */\n      pop\n      swap1\n      pop\n        /* \"contracts/sweetspot.sol\":3698:3705  success */\n      dup1\n        /* \"contracts/sweetspot.sol\":3690:3731  require(success, \"Ether transfer failed\") */\n      tag_122\n      jumpi\n      mload(0x40)\n      0x08c379a000000000000000000000000000000000000000000000000000000000\n      dup2\n      mstore\n      0x04\n      add\n      tag_123\n      swap1\n      tag_124\n      jump\t// in\n    tag_123:\n      mload(0x40)\n      dup1\n      swap2\n      sub\n      swap1\n      revert\n    tag_122:\n        /* \"contracts/sweetspot.sol\":3596:3743  {... */\n      pop\n        /* \"contracts/sweetspot.sol\":3569:3833  if (token == NATIVE_TOKEN) {... */\n      jump(tag_125)\n    tag_116:\n        /* \"contracts/sweetspot.sol\":3764:3821  IERC20(token).safeTransfer(msg.sender, userAllowedAmount) */\n      tag_126\n        /* \"contracts/sweetspot.sol\":3791:3801  msg.sender */\n      caller\n        /* \"contracts/sweetspot.sol\":3803:3820  userAllowedAmount */\n      dup3\n        /* \"contracts/sweetspot.sol\":3771:3776  token */\n      dup5\n        /* \"contracts/sweetspot.sol\":3764:3790  IERC20(token).safeTransfer */\n      0xffffffffffffffffffffffffffffffffffffffff\n      and\n      tag_127\n      swap1\n        /* \"contracts/sweetspot.sol\":3764:3821  IERC20(token).safeTransfer(msg.sender, userAllowedAmount) */\n      swap3\n      swap2\n      swap1\n      0xffffffff\n      and\n      jump\t// in\n    tag_126:\n        /* \"contracts/sweetspot.sol\":3569:3833  if (token == NATIVE_TOKEN) {... */\n    tag_125:\n        /* \"contracts/sweetspot.sol\":3870:3875  token */\n      dup2\n        /* \"contracts/sweetspot.sol\":3850:3895  Claimed(msg.sender, token, userAllowedAmount) */\n      0xffffffffffffffffffffffffffffffffffffffff\n      and\n        /* \"contracts/sweetspot.sol\":3858:3868  msg.sender */\n      caller\n        /* \"contracts/sweetspot.sol\":3850:3895  Claimed(msg.sender, token, userAllowedAmount) */\n      0xffffffffffffffffffffffffffffffffffffffff\n      and\n      0xf7a40077ff7a04c7e61f6f26fb13774259ddf1b6bce9ecf26a8276cdd3992683\n        /* \"contracts/sweetspot.sol\":3877:3894  userAllowedAmount */\n      dup4\n        /* \"contracts/sweetspot.sol\":3850:3895  Claimed(msg.sender, token, userAllowedAmount) */\n      mload(0x40)\n      tag_128\n      swap2\n      swap1\n      tag_26\n      jump\t// in\n    tag_128:\n      mload(0x40)\n      dup1\n      swap2\n      sub\n      swap1\n      log3\n        /* \"contracts/sweetspot.sol\":3023:3903  {... */\n      pop\n        /* \"@openzeppelin/contracts-upgradeable/security/ReentrancyGuardUpgradeable.sol\":2568:2588  _nonReentrantAfter() */\n      tag_129\n        /* \"@openzeppelin/contracts-upgradeable/security/ReentrancyGuardUpgradeable.sol\":2568:2586  _nonReentrantAfter */\n      tag_130\n        /* \"@openzeppelin/contracts-upgradeable/security/ReentrancyGuardUpgradeable.sol\":2568:2588  _nonReentrantAfter() */\n      jump\t// in\n    tag_129:\n        /* \"contracts/sweetspot.sol\":2971:3903  function claim(address token) external nonReentrant {... */\n      pop\n      jump\t// out\n        /* \"contracts/sweetspot.sol\":566:615  address public constant NATIVE_TOKEN = address(0) */\n    tag_38:\n        /* \"contracts/sweetspot.sol\":613:614  0 */\n      0x00\n        /* \"contracts/sweetspot.sol\":566:615  address public constant NATIVE_TOKEN = address(0) */\n      dup2\n      jump\t// out\n        /* \"contracts/sweetspot.sol\":2412:2886  function deposit(address token, uint256 amount) external payable nonReentrant  {... */\n    tag_44:\n        /* \"@openzeppelin/contracts-upgradeable/security/ReentrancyGuardUpgradeable.sol\":2526:2547  _nonReentrantBefore() */\n      tag_132\n        /* \"@openzeppelin/contracts-upgradeable/security/ReentrancyGuardUpgradeable.sol\":2526:2545  _nonReentrantBefore */\n      tag_102\n        /* \"@openzeppelin/contracts-upgradeable/security/ReentrancyGuardUpgradeable.sol\":2526:2547  _nonReentrantBefore() */\n      jump\t// in\n    tag_132:\n        /* \"contracts/sweetspot.sol\":613:614  0 */\n      0x00\n        /* \"contracts/sweetspot.sol\":2506:2527  token == NATIVE_TOKEN */\n      0xffffffffffffffffffffffffffffffffffffffff\n      and\n        /* \"contracts/sweetspot.sol\":2506:2511  token */\n      dup3\n        /* \"contracts/sweetspot.sol\":2506:2527  token == NATIVE_TOKEN */\n      0xffffffffffffffffffffffffffffffffffffffff\n      and\n      sub\n        /* \"contracts/sweetspot.sol\":2502:2786  if (token == NATIVE_TOKEN) {... */\n      tag_134\n      jumpi\n        /* \"contracts/sweetspot.sol\":2565:2571  amount */\n      dup1\n        /* \"contracts/sweetspot.sol\":2552:2561  msg.value */\n      callvalue\n        /* \"contracts/sweetspot.sol\":2552:2571  msg.value == amount */\n      eq\n        /* \"contracts/sweetspot.sol\":2544:2598  require(msg.value == amount, \"Incorrect Ether amount\") */\n      tag_135\n      jumpi\n      mload(0x40)\n      0x08c379a000000000000000000000000000000000000000000000000000000000\n      dup2\n      mstore\n      0x04\n      add\n      tag_136\n      swap1\n      tag_137\n      jump\t// in\n    tag_136:\n      mload(0x40)\n      dup1\n      swap2\n      sub\n      swap1\n      revert\n    tag_135:\n        /* \"contracts/sweetspot.sol\":2502:2786  if (token == NATIVE_TOKEN) {... */\n      jump(tag_138)\n    tag_134:\n        /* \"contracts/sweetspot.sol\":2648:2649  0 */\n      0x00\n        /* \"contracts/sweetspot.sol\":2639:2645  amount */\n      dup2\n        /* \"contracts/sweetspot.sol\":2639:2649  amount > 0 */\n      gt\n        /* \"contracts/sweetspot.sol\":2631:2694  require(amount > 0, \"Deposit amount must be greater than zero\") */\n      tag_139\n      jumpi\n      mload(0x40)\n      0x08c379a000000000000000000000000000000000000000000000000000000000\n      dup2\n      mstore\n      0x04\n      add\n      tag_140\n      swap1\n      tag_141\n      jump\t// in\n    tag_140:\n      mload(0x40)\n      dup1\n      swap2\n      sub\n      swap1\n      revert\n    tag_139:\n        /* \"contracts/sweetspot.sol\":2709:2774  IERC20(token).safeTransferFrom(msg.sender, address(this), amount) */\n      tag_142\n        /* \"contracts/sweetspot.sol\":2740:2750  msg.sender */\n      caller\n        /* \"contracts/sweetspot.sol\":2760:2764  this */\n      address\n        /* \"contracts/sweetspot.sol\":2767:2773  amount */\n      dup4\n        /* \"contracts/sweetspot.sol\":2716:2721  token */\n      dup6\n        /* \"contracts/sweetspot.sol\":2709:2739  IERC20(token).safeTransferFrom */\n      0xffffffffffffffffffffffffffffffffffffffff\n      and\n      tag_143\n      swap1\n        /* \"contracts/sweetspot.sol\":2709:2774  IERC20(token).safeTransferFrom(msg.sender, address(this), amount) */\n      swap4\n      swap3\n      swap2\n      swap1\n      0xffffffff\n      and\n      jump\t// in\n    tag_142:\n        /* \"contracts/sweetspot.sol\":2502:2786  if (token == NATIVE_TOKEN) {... */\n    tag_138:\n        /* \"contracts/sweetspot.sol\":2822:2828  amount */\n      dup1\n        /* \"contracts/sweetspot.sol\":2798:2811  totalBalances */\n      0x35\n        /* \"contracts/sweetspot.sol\":2798:2818  totalBalances[token] */\n      0x00\n        /* \"contracts/sweetspot.sol\":2812:2817  token */\n      dup5\n        /* \"contracts/sweetspot.sol\":2798:2818  totalBalances[token] */\n      0xffffffffffffffffffffffffffffffffffffffff\n      and\n      0xffffffffffffffffffffffffffffffffffffffff\n      and\n      dup2\n      mstore\n      0x20\n      add\n      swap1\n      dup2\n      mstore\n      0x20\n      add\n      0x00\n      keccak256\n      0x00\n        /* \"contracts/sweetspot.sol\":2798:2828  totalBalances[token] += amount */\n      dup3\n      dup3\n      sload\n      tag_144\n      swap2\n      swap1\n      tag_24\n      jump\t// in\n    tag_144:\n      swap3\n      pop\n      pop\n      dup2\n      swap1\n      sstore\n      pop\n        /* \"contracts/sweetspot.sol\":2864:2869  token */\n      dup2\n        /* \"contracts/sweetspot.sol\":2844:2878  Deposit(msg.sender, token, amount) */\n      0xffffffffffffffffffffffffffffffffffffffff\n      and\n        /* \"contracts/sweetspot.sol\":2852:2862  msg.sender */\n      caller\n        /* \"contracts/sweetspot.sol\":2844:2878  Deposit(msg.sender, token, amount) */\n      0xffffffffffffffffffffffffffffffffffffffff\n      and\n      0x5548c837ab068cf56a2c2479df0882a4922fd203edb7517321831d95078c5f62\n        /* \"contracts/sweetspot.sol\":2871:2877  amount */\n      dup4\n        /* \"contracts/sweetspot.sol\":2844:2878  Deposit(msg.sender, token, amount) */\n      mload(0x40)\n      tag_145\n      swap2\n      swap1\n      tag_26\n      jump\t// in\n    tag_145:\n      mload(0x40)\n      dup1\n      swap2\n      sub\n      swap1\n      log3\n        /* \"@openzeppelin/contracts-upgradeable/security/ReentrancyGuardUpgradeable.sol\":2568:2588  _nonReentrantAfter() */\n      tag_146\n        /* \"@openzeppelin/contracts-upgradeable/security/ReentrancyGuardUpgradeable.sol\":2568:2586  _nonReentrantAfter */\n      tag_130\n        /* \"@openzeppelin/contracts-upgradeable/security/ReentrancyGuardUpgradeable.sol\":2568:2588  _nonReentrantAfter() */\n      jump\t// in\n    tag_146:\n        /* \"contracts/sweetspot.sol\":2412:2886  function deposit(address token, uint256 amount) external payable nonReentrant  {... */\n      pop\n      pop\n      jump\t// out\n        /* \"contracts/sweetspot.sol\":1977:2194  function initialize(address _scorer, address owner) external initializer {... */\n    tag_49:\n        /* \"@openzeppelin/contracts-upgradeable/proxy/utils/Initializable.sol\":4158:4188  InitializableStorage storage $ */\n      0x00\n        /* \"@openzeppelin/contracts-upgradeable/proxy/utils/Initializable.sol\":4191:4217  _getInitializableStorage() */\n      tag_148\n        /* \"@openzeppelin/contracts-upgradeable/proxy/utils/Initializable.sol\":4191:4215  _getInitializableStorage */\n      tag_149\n        /* \"@openzeppelin/contracts-upgradeable/proxy/utils/Initializable.sol\":4191:4217  _getInitializableStorage() */\n      jump\t// in\n    tag_148:\n        /* \"@openzeppelin/contracts-upgradeable/proxy/utils/Initializable.sol\":4158:4217  InitializableStorage storage $ = _getInitializableStorage() */\n      swap1\n      pop\n        /* \"@openzeppelin/contracts-upgradeable/proxy/utils/Initializable.sol\":4279:4298  bool isTopLevelCall */\n      0x00\n        /* \"@openzeppelin/contracts-upgradeable/proxy/utils/Initializable.sol\":4302:4303  $ */\n      dup2\n        /* \"@openzeppelin/contracts-upgradeable/proxy/utils/Initializable.sol\":4302:4317  $._initializing */\n      0x00\n      add\n      0x08\n      swap1\n      sload\n      swap1\n      0x0100\n      exp\n      swap1\n      div\n      0xff\n      and\n        /* \"@openzeppelin/contracts-upgradeable/proxy/utils/Initializable.sol\":4301:4317  !$._initializing */\n      iszero\n        /* \"@openzeppelin/contracts-upgradeable/proxy/utils/Initializable.sol\":4279:4317  bool isTopLevelCall = !$._initializing */\n      swap1\n      pop\n        /* \"@openzeppelin/contracts-upgradeable/proxy/utils/Initializable.sol\":4327:4345  uint64 initialized */\n      0x00\n        /* \"@openzeppelin/contracts-upgradeable/proxy/utils/Initializable.sol\":4348:4349  $ */\n      dup3\n        /* \"@openzeppelin/contracts-upgradeable/proxy/utils/Initializable.sol\":4348:4362  $._initialized */\n      0x00\n      add\n      0x00\n      swap1\n      sload\n      swap1\n      0x0100\n      exp\n      swap1\n      div\n      0xffffffffffffffff\n      and\n        /* \"@openzeppelin/contracts-upgradeable/proxy/utils/Initializable.sol\":4327:4362  uint64 initialized = $._initialized */\n      swap1\n      pop\n        /* \"@openzeppelin/contracts-upgradeable/proxy/utils/Initializable.sol\":4706:4723  bool initialSetup */\n      0x00\n        /* \"@openzeppelin/contracts-upgradeable/proxy/utils/Initializable.sol\":4741:4742  0 */\n      dup1\n        /* \"@openzeppelin/contracts-upgradeable/proxy/utils/Initializable.sol\":4726:4737  initialized */\n      dup3\n        /* \"@openzeppelin/contracts-upgradeable/proxy/utils/Initializable.sol\":4726:4742  initialized == 0 */\n      0xffffffffffffffff\n      and\n      eq\n        /* \"@openzeppelin/contracts-upgradeable/proxy/utils/Initializable.sol\":4726:4760  initialized == 0 && isTopLevelCall */\n      dup1\n      iszero\n      tag_150\n      jumpi\n      pop\n        /* \"@openzeppelin/contracts-upgradeable/proxy/utils/Initializable.sol\":4746:4760  isTopLevelCall */\n      dup3\n        /* \"@openzeppelin/contracts-upgradeable/proxy/utils/Initializable.sol\":4726:4760  initialized == 0 && isTopLevelCall */\n    tag_150:\n        /* \"@openzeppelin/contracts-upgradeable/proxy/utils/Initializable.sol\":4706:4760  bool initialSetup = initialized == 0 && isTopLevelCall */\n      swap1\n      pop\n        /* \"@openzeppelin/contracts-upgradeable/proxy/utils/Initializable.sol\":4770:4787  bool construction */\n      0x00\n        /* \"@openzeppelin/contracts-upgradeable/proxy/utils/Initializable.sol\":4805:4806  1 */\n      0x01\n        /* \"@openzeppelin/contracts-upgradeable/proxy/utils/Initializable.sol\":4790:4801  initialized */\n      dup4\n        /* \"@openzeppelin/contracts-upgradeable/proxy/utils/Initializable.sol\":4790:4806  initialized == 1 */\n      0xffffffffffffffff\n      and\n      eq\n        /* \"@openzeppelin/contracts-upgradeable/proxy/utils/Initializable.sol\":4790:4840  initialized == 1 && address(this).code.length == 0 */\n      dup1\n      iszero\n      tag_151\n      jumpi\n      pop\n        /* \"@openzeppelin/contracts-upgradeable/proxy/utils/Initializable.sol\":4839:4840  0 */\n      0x00\n        /* \"@openzeppelin/contracts-upgradeable/proxy/utils/Initializable.sol\":4818:4822  this */\n      address\n        /* \"@openzeppelin/contracts-upgradeable/proxy/utils/Initializable.sol\":4810:4835  address(this).code.length */\n      0xffffffffffffffffffffffffffffffffffffffff\n      and\n      extcodesize\n        /* \"@openzeppelin/contracts-upgradeable/proxy/utils/Initializable.sol\":4810:4840  address(this).code.length == 0 */\n      eq\n        /* \"@openzeppelin/contracts-upgradeable/proxy/utils/Initializable.sol\":4790:4840  initialized == 1 && address(this).code.length == 0 */\n    tag_151:\n        /* \"@openzeppelin/contracts-upgradeable/proxy/utils/Initializable.sol\":4770:4840  bool construction = initialized == 1 && address(this).code.length == 0 */\n      swap1\n      pop\n        /* \"@openzeppelin/contracts-upgradeable/proxy/utils/Initializable.sol\":4856:4868  initialSetup */\n      dup2\n        /* \"@openzeppelin/contracts-upgradeable/proxy/utils/Initializable.sol\":4855:4868  !initialSetup */\n      iszero\n        /* \"@openzeppelin/contracts-upgradeable/proxy/utils/Initializable.sol\":4855:4885  !initialSetup && !construction */\n      dup1\n      iszero\n      tag_152\n      jumpi\n      pop\n        /* \"@openzeppelin/contracts-upgradeable/proxy/utils/Initializable.sol\":4873:4885  construction */\n      dup1\n        /* \"@openzeppelin/contracts-upgradeable/proxy/utils/Initializable.sol\":4872:4885  !construction */\n      iszero\n        /* \"@openzeppelin/contracts-upgradeable/proxy/utils/Initializable.sol\":4855:4885  !initialSetup && !construction */\n    tag_152:\n        /* \"@openzeppelin/contracts-upgradeable/proxy/utils/Initializable.sol\":4851:4942  if (!initialSetup && !construction) {... */\n      iszero\n      tag_153\n      jumpi\n        /* \"@openzeppelin/contracts-upgradeable/proxy/utils/Initializable.sol\":4908:4931  InvalidInitialization() */\n      mload(0x40)\n      0xf92ee8a900000000000000000000000000000000000000000000000000000000\n      dup2\n      mstore\n      0x04\n      add\n      mload(0x40)\n      dup1\n      swap2\n      sub\n      swap1\n      revert\n        /* \"@openzeppelin/contracts-upgradeable/proxy/utils/Initializable.sol\":4851:4942  if (!initialSetup && !construction) {... */\n    tag_153:\n        /* \"@openzeppelin/contracts-upgradeable/proxy/utils/Initializable.sol\":4968:4969  1 */\n      0x01\n        /* \"@openzeppelin/contracts-upgradeable/proxy/utils/Initializable.sol\":4951:4952  $ */\n      dup6\n        /* \"@openzeppelin/contracts-upgradeable/proxy/utils/Initializable.sol\":4951:4965  $._initialized */\n      0x00\n      add\n      0x00\n        /* \"@openzeppelin/contracts-upgradeable/proxy/utils/Initializable.sol\":4951:4969  $._initialized = 1 */\n      0x0100\n      exp\n      dup2\n      sload\n      dup2\n      0xffffffffffffffff\n      mul\n      not\n      and\n      swap1\n      dup4\n      0xffffffffffffffff\n      and\n      mul\n      or\n      swap1\n      sstore\n      pop\n        /* \"@openzeppelin/contracts-upgradeable/proxy/utils/Initializable.sol\":4983:4997  isTopLevelCall */\n      dup4\n        /* \"@openzeppelin/contracts-upgradeable/proxy/utils/Initializable.sol\":4979:5046  if (isTopLevelCall) {... */\n      iszero\n      tag_154\n      jumpi\n        /* \"@openzeppelin/contracts-upgradeable/proxy/utils/Initializable.sol\":5031:5035  true */\n      0x01\n        /* \"@openzeppelin/contracts-upgradeable/proxy/utils/Initializable.sol\":5013:5014  $ */\n      dup6\n        /* \"@openzeppelin/contracts-upgradeable/proxy/utils/Initializable.sol\":5013:5028  $._initializing */\n      0x00\n      add\n      0x08\n        /* \"@openzeppelin/contracts-upgradeable/proxy/utils/Initializable.sol\":5013:5035  $._initializing = true */\n      0x0100\n      exp\n      dup2\n      sload\n      dup2\n      0xff\n      mul\n      not\n      and\n      swap1\n      dup4\n      iszero\n      iszero\n      mul\n      or\n      swap1\n      sstore\n      pop\n        /* \"@openzeppelin/contracts-upgradeable/proxy/utils/Initializable.sol\":4979:5046  if (isTopLevelCall) {... */\n    tag_154:\n        /* \"contracts/sweetspot.sol\":2061:2082  __Ownable_init(owner) */\n      tag_156\n        /* \"contracts/sweetspot.sol\":2076:2081  owner */\n      dup7\n        /* \"contracts/sweetspot.sol\":2061:2075  __Ownable_init */\n      tag_157\n        /* \"contracts/sweetspot.sol\":2061:2082  __Ownable_init(owner) */\n      jump\t// in\n    tag_156:\n        /* \"contracts/sweetspot.sol\":2126:2150  __ReentrancyGuard_init() */\n      tag_158\n        /* \"contracts/sweetspot.sol\":2126:2148  __ReentrancyGuard_init */\n      tag_159\n        /* \"contracts/sweetspot.sol\":2126:2150  __ReentrancyGuard_init() */\n      jump\t// in\n    tag_158:\n        /* \"contracts/sweetspot.sol\":2178:2185  _scorer */\n      dup7\n        /* \"contracts/sweetspot.sol\":2161:2167  scorer */\n      0x32\n      0x00\n        /* \"contracts/sweetspot.sol\":2161:2186  scorer = IScorer(_scorer) */\n      0x0100\n      exp\n      dup2\n      sload\n      dup2\n      0xffffffffffffffffffffffffffffffffffffffff\n      mul\n      not\n      and\n      swap1\n      dup4\n      0xffffffffffffffffffffffffffffffffffffffff\n      and\n      mul\n      or\n      swap1\n      sstore\n      pop\n        /* \"@openzeppelin/contracts-upgradeable/proxy/utils/Initializable.sol\":5070:5084  isTopLevelCall */\n      dup4\n        /* \"@openzeppelin/contracts-upgradeable/proxy/utils/Initializable.sol\":5066:5167  if (isTopLevelCall) {... */\n      iszero\n      tag_160\n      jumpi\n        /* \"@openzeppelin/contracts-upgradeable/proxy/utils/Initializable.sol\":5118:5123  false */\n      0x00\n        /* \"@openzeppelin/contracts-upgradeable/proxy/utils/Initializable.sol\":5100:5101  $ */\n      dup6\n        /* \"@openzeppelin/contracts-upgradeable/proxy/utils/Initializable.sol\":5100:5115  $._initializing */\n      0x00\n      add\n      0x08\n        /* \"@openzeppelin/contracts-upgradeable/proxy/utils/Initializable.sol\":5100:5123  $._initializing = false */\n      0x0100\n      exp\n      dup2\n      sload\n      dup2\n      0xff\n      mul\n      not\n      and\n      swap1\n      dup4\n      iszero\n      iszero\n      mul\n      or\n      swap1\n      sstore\n      pop\n        /* \"@openzeppelin/contracts-upgradeable/proxy/utils/Initializable.sol\":5142:5156  Initialized(1) */\n      0xc7f505b2f371ae2175ee4913f4499e1f2633a7b5936321eed1cdaeb6115181d2\n        /* \"@openzeppelin/contracts-upgradeable/proxy/utils/Initializable.sol\":5154:5155  1 */\n      0x01\n        /* \"@openzeppelin/contracts-upgradeable/proxy/utils/Initializable.sol\":5142:5156  Initialized(1) */\n      mload(0x40)\n      tag_161\n      swap2\n      swap1\n      tag_162\n      jump\t// in\n    tag_161:\n      mload(0x40)\n      dup1\n      swap2\n      sub\n      swap1\n      log1\n        /* \"@openzeppelin/contracts-upgradeable/proxy/utils/Initializable.sol\":5066:5167  if (isTopLevelCall) {... */\n    tag_160:\n        /* \"@openzeppelin/contracts-upgradeable/proxy/utils/Initializable.sol\":4092:5173  {... */\n      pop\n      pop\n      pop\n      pop\n      pop\n        /* \"contracts/sweetspot.sol\":1977:2194  function initialize(address _scorer, address owner) external initializer {... */\n      pop\n      pop\n      jump\t// out\n        /* \"@openzeppelin/contracts-upgradeable/access/OwnableUpgradeable.sol\":3155:3256  function renounceOwnership() public virtual onlyOwner {... */\n    tag_52:\n        /* \"@openzeppelin/contracts-upgradeable/access/OwnableUpgradeable.sol\":2334:2347  _checkOwner() */\n      tag_164\n        /* \"@openzeppelin/contracts-upgradeable/access/OwnableUpgradeable.sol\":2334:2345  _checkOwner */\n      tag_165\n        /* \"@openzeppelin/contracts-upgradeable/access/OwnableUpgradeable.sol\":2334:2347  _checkOwner() */\n      jump\t// in\n    tag_164:\n        /* \"@openzeppelin/contracts-upgradeable/access/OwnableUpgradeable.sol\":3219:3249  _transferOwnership(address(0)) */\n      tag_167\n        /* \"@openzeppelin/contracts-upgradeable/access/OwnableUpgradeable.sol\":3246:3247  0 */\n      0x00\n        /* \"@openzeppelin/contracts-upgradeable/access/OwnableUpgradeable.sol\":3219:3237  _transferOwnership */\n      tag_168\n        /* \"@openzeppelin/contracts-upgradeable/access/OwnableUpgradeable.sol\":3219:3249  _transferOwnership(address(0)) */\n      jump\t// in\n    tag_167:\n        /* \"@openzeppelin/contracts-upgradeable/access/OwnableUpgradeable.sol\":3155:3256  function renounceOwnership() public virtual onlyOwner {... */\n      jump\t// out\n        /* \"contracts/sweetspot.sol\":622:643  IScorer public scorer */\n    tag_55:\n      0x32\n      0x00\n      swap1\n      sload\n      swap1\n      0x0100\n      exp\n      swap1\n      div\n      0xffffffffffffffffffffffffffffffffffffffff\n      and\n      dup2\n      jump\t// out\n        /* \"contracts/sweetspot.sol\":883:908  Round public currentRound */\n    tag_60:\n      0x33\n      dup1\n      0x00\n      add\n      0x00\n      swap1\n      sload\n      swap1\n      0x0100\n      exp\n      swap1\n      div\n      0xffffffffffffffff\n      and\n      swap1\n      dup1\n      0x00\n      add\n      0x08\n      swap1\n      sload\n      swap1\n      0x0100\n      exp\n      swap1\n      div\n      0xffffffffffffffff\n      and\n      swap1\n      dup1\n      0x01\n      add\n      dup1\n      sload\n      tag_169\n      swap1\n      tag_170\n      jump\t// in\n    tag_169:\n      dup1\n      0x1f\n      add\n      0x20\n      dup1\n      swap2\n      div\n      mul\n      0x20\n      add\n      mload(0x40)\n      swap1\n      dup2\n      add\n      0x40\n      mstore\n      dup1\n      swap3\n      swap2\n      swap1\n      dup2\n      dup2\n      mstore\n      0x20\n      add\n      dup3\n      dup1\n      sload\n      tag_171\n      swap1\n      tag_170\n      jump\t// in\n    tag_171:\n      dup1\n      iszero\n      tag_172\n      jumpi\n      dup1\n      0x1f\n      lt\n      tag_173\n      jumpi\n      0x0100\n      dup1\n      dup4\n      sload\n      div\n      mul\n      dup4\n      mstore\n      swap2\n      0x20\n      add\n      swap2\n      jump(tag_172)\n    tag_173:\n      dup3\n      add\n      swap2\n      swap1\n      0x00\n      mstore\n      keccak256(0x00, 0x20)\n      swap1\n    tag_174:\n      dup2\n      sload\n      dup2\n      mstore\n      swap1\n      0x01\n      add\n      swap1\n      0x20\n      add\n      dup1\n      dup4\n      gt\n      tag_174\n      jumpi\n      dup3\n      swap1\n      sub\n      0x1f\n      and\n      dup3\n      add\n      swap2\n    tag_172:\n      pop\n      pop\n      pop\n      pop\n      pop\n      swap1\n      pop\n      dup4\n      jump\t// out\n        /* \"@openzeppelin/contracts-upgradeable/access/OwnableUpgradeable.sol\":2441:2585  function owner() public view virtual returns (address) {... */\n    tag_65:\n        /* \"@openzeppelin/contracts-upgradeable/access/OwnableUpgradeable.sol\":2487:2494  address */\n      0x00\n        /* \"@openzeppelin/contracts-upgradeable/access/OwnableUpgradeable.sol\":2506:2530  OwnableStorage storage $ */\n      dup1\n        /* \"@openzeppelin/contracts-upgradeable/access/OwnableUpgradeable.sol\":2533:2553  _getOwnableStorage() */\n      tag_176\n        /* \"@openzeppelin/contracts-upgradeable/access/OwnableUpgradeable.sol\":2533:2551  _getOwnableStorage */\n      tag_177\n        /* \"@openzeppelin/contracts-upgradeable/access/OwnableUpgradeable.sol\":2533:2553  _getOwnableStorage() */\n      jump\t// in\n    tag_176:\n        /* \"@openzeppelin/contracts-upgradeable/access/OwnableUpgradeable.sol\":2506:2553  OwnableStorage storage $ = _getOwnableStorage() */\n      swap1\n      pop\n        /* \"@openzeppelin/contracts-upgradeable/access/OwnableUpgradeable.sol\":2570:2571  $ */\n      dup1\n        /* \"@openzeppelin/contracts-upgradeable/access/OwnableUpgradeable.sol\":2570:2578  $._owner */\n      0x00\n      add\n      0x00\n      swap1\n      sload\n      swap1\n      0x0100\n      exp\n      swap1\n      div\n      0xffffffffffffffffffffffffffffffffffffffff\n      and\n        /* \"@openzeppelin/contracts-upgradeable/access/OwnableUpgradeable.sol\":2563:2578  return $._owner */\n      swap2\n      pop\n      pop\n        /* \"@openzeppelin/contracts-upgradeable/access/OwnableUpgradeable.sol\":2441:2585  function owner() public view virtual returns (address) {... */\n      swap1\n      jump\t// out\n        /* \"contracts/sweetspot.sol\":5360:5638  function setRound(uint64  start, uint64  end, string memory metadataURI) external onlyAdmin {... */\n    tag_71:\n        /* \"contracts/sweetspot.sol\":1725:1731  scorer */\n      0x32\n      0x00\n      swap1\n      sload\n      swap1\n      0x0100\n      exp\n      swap1\n      div\n      0xffffffffffffffffffffffffffffffffffffffff\n      and\n        /* \"contracts/sweetspot.sol\":1725:1739  scorer.isAdmin */\n      0xffffffffffffffffffffffffffffffffffffffff\n      and\n      0x24d7806c\n        /* \"contracts/sweetspot.sol\":1740:1750  msg.sender */\n      caller\n        /* \"contracts/sweetspot.sol\":1725:1751  scorer.isAdmin(msg.sender) */\n      mload(0x40)\n      dup3\n      0xffffffff\n      and\n      0xe0\n      shl\n      dup2\n      mstore\n      0x04\n      add\n      tag_179\n      swap2\n      swap1\n      tag_40\n      jump\t// in\n    tag_179:\n      0x20\n      mload(0x40)\n      dup1\n      dup4\n      sub\n      dup2\n      dup7\n      gas\n      staticcall\n      iszero\n      dup1\n      iszero\n      tag_181\n      jumpi\n      returndatasize\n      0x00\n      dup1\n      returndatacopy\n      revert(0x00, returndatasize)\n    tag_181:\n      pop\n      pop\n      pop\n      pop\n      mload(0x40)\n      returndatasize\n      not(0x1f)\n      0x1f\n      dup3\n      add\n      and\n      dup3\n      add\n      dup1\n      0x40\n      mstore\n      pop\n      dup2\n      add\n      swap1\n      tag_182\n      swap2\n      swap1\n      tag_183\n      jump\t// in\n    tag_182:\n        /* \"contracts/sweetspot.sol\":1717:1778  require(scorer.isAdmin(msg.sender), \"Caller is not an admin\") */\n      tag_184\n      jumpi\n      mload(0x40)\n      0x08c379a000000000000000000000000000000000000000000000000000000000\n      dup2\n      mstore\n      0x04\n      add\n      tag_185\n      swap1\n      tag_186\n      jump\t// in\n    tag_185:\n      mload(0x40)\n      dup1\n      swap2\n      sub\n      swap1\n      revert\n    tag_184:\n        /* \"contracts/sweetspot.sol\":5479:5482  end */\n      dup2\n        /* \"contracts/sweetspot.sol\":5471:5482  start < end */\n      0xffffffffffffffff\n      and\n        /* \"contracts/sweetspot.sol\":5471:5476  start */\n      dup4\n        /* \"contracts/sweetspot.sol\":5471:5482  start < end */\n      0xffffffffffffffff\n      and\n      lt\n        /* \"contracts/sweetspot.sol\":5463:5521  require(start < end, \"Start time must be before end time\") */\n      tag_188\n      jumpi\n      mload(0x40)\n      0x08c379a000000000000000000000000000000000000000000000000000000000\n      dup2\n      mstore\n      0x04\n      add\n      tag_189\n      swap1\n      tag_190\n      jump\t// in\n    tag_189:\n      mload(0x40)\n      dup1\n      swap2\n      sub\n      swap1\n      revert\n    tag_188:\n        /* \"contracts/sweetspot.sol\":5547:5577  Round(start, end, metadataURI) */\n      mload(0x40)\n      dup1\n      0x60\n      add\n      0x40\n      mstore\n      dup1\n        /* \"contracts/sweetspot.sol\":5553:5558  start */\n      dup5\n        /* \"contracts/sweetspot.sol\":5547:5577  Round(start, end, metadataURI) */\n      0xffffffffffffffff\n      and\n      dup2\n      mstore\n      0x20\n      add\n        /* \"contracts/sweetspot.sol\":5560:5563  end */\n      dup4\n        /* \"contracts/sweetspot.sol\":5547:5577  Round(start, end, metadataURI) */\n      0xffffffffffffffff\n      and\n      dup2\n      mstore\n      0x20\n      add\n        /* \"contracts/sweetspot.sol\":5565:5576  metadataURI */\n      dup3\n        /* \"contracts/sweetspot.sol\":5547:5577  Round(start, end, metadataURI) */\n      dup2\n      mstore\n      pop\n        /* \"contracts/sweetspot.sol\":5532:5544  currentRound */\n      0x33\n        /* \"contracts/sweetspot.sol\":5532:5577  currentRound = Round(start, end, metadataURI) */\n      0x00\n      dup3\n      add\n      mload\n      dup2\n      0x00\n      add\n      exp(0x0100, 0x00)\n      dup2\n      sload\n      dup2\n      0xffffffffffffffff\n      mul\n      not\n      and\n      swap1\n      dup4\n      0xffffffffffffffff\n      and\n      mul\n      or\n      swap1\n      sstore\n      pop\n      0x20\n      dup3\n      add\n      mload\n      dup2\n      0x00\n      add\n      exp(0x0100, 0x08)\n      dup2\n      sload\n      dup2\n      0xffffffffffffffff\n      mul\n      not\n      and\n      swap1\n      dup4\n      0xffffffffffffffff\n      and\n      mul\n      or\n      swap1\n      sstore\n      pop\n      0x40\n      dup3\n      add\n      mload\n      dup2\n      0x01\n      add\n      swap1\n      dup2\n      tag_191\n      swap2\n      swap1\n      tag_192\n      jump\t// in\n    tag_191:\n      pop\n      swap1\n      pop\n      pop\n        /* \"contracts/sweetspot.sol\":5593:5630  RoundUpdated(start, end, metadataURI) */\n      0x09e6db48f22357e6dce2bbff89db8ff25f0012a08186d6ea72e2343fdc112e13\n        /* \"contracts/sweetspot.sol\":5606:5611  start */\n      dup4\n        /* \"contracts/sweetspot.sol\":5613:5616  end */\n      dup4\n        /* \"contracts/sweetspot.sol\":5618:5629  metadataURI */\n      dup4\n        /* \"contracts/sweetspot.sol\":5593:5630  RoundUpdated(start, end, metadataURI) */\n      mload(0x40)\n      tag_193\n      swap4\n      swap3\n      swap2\n      swap1\n      tag_194\n      jump\t// in\n    tag_193:\n      mload(0x40)\n      dup1\n      swap2\n      sub\n      swap1\n      log1\n        /* \"contracts/sweetspot.sol\":5360:5638  function setRound(uint64  start, uint64  end, string memory metadataURI) external onlyAdmin {... */\n      pop\n      pop\n      pop\n      jump\t// out\n        /* \"contracts/sweetspot.sol\":1097:1166  mapping(address => mapping(address => uint256)) public allowedAmounts */\n    tag_75:\n      mstore(0x20, 0x36)\n      dup2\n      0x00\n      mstore\n      mstore(0x20, keccak256(0x00, 0x40))\n      dup1\n      0x00\n      mstore\n      keccak256(0x00, 0x40)\n      0x00\n      swap2\n      pop\n      swap2\n      pop\n      pop\n      sload\n      dup2\n      jump\t// out\n        /* \"contracts/sweetspot.sol\":999:1047  mapping(address => uint256) public totalBalances */\n    tag_80:\n      mstore(0x20, 0x35)\n      dup1\n      0x00\n      mstore\n      keccak256(0x00, 0x40)\n      0x00\n      swap2\n      pop\n      swap1\n      pop\n      sload\n      dup2\n      jump\t// out\n        /* \"contracts/sweetspot.sol\":4135:4396  function setAllowedAmount(address user, address token, uint256 amount) external onlyAdmin {... */\n    tag_86:\n        /* \"contracts/sweetspot.sol\":1725:1731  scorer */\n      0x32\n      0x00\n      swap1\n      sload\n      swap1\n      0x0100\n      exp\n      swap1\n      div\n      0xffffffffffffffffffffffffffffffffffffffff\n      and\n        /* \"contracts/sweetspot.sol\":1725:1739  scorer.isAdmin */\n      0xffffffffffffffffffffffffffffffffffffffff\n      and\n      0x24d7806c\n        /* \"contracts/sweetspot.sol\":1740:1750  msg.sender */\n      caller\n        /* \"contracts/sweetspot.sol\":1725:1751  scorer.isAdmin(msg.sender) */\n      mload(0x40)\n      dup3\n      0xffffffff\n      and\n      0xe0\n      shl\n      dup2\n      mstore\n      0x04\n      add\n      tag_196\n      swap2\n      swap1\n      tag_40\n      jump\t// in\n    tag_196:\n      0x20\n      mload(0x40)\n      dup1\n      dup4\n      sub\n      dup2\n      dup7\n      gas\n      staticcall\n      iszero\n      dup1\n      iszero\n      tag_198\n      jumpi\n      returndatasize\n      0x00\n      dup1\n      returndatacopy\n      revert(0x00, returndatasize)\n    tag_198:\n      pop\n      pop\n      pop\n      pop\n      mload(0x40)\n      returndatasize\n      not(0x1f)\n      0x1f\n      dup3\n      add\n      and\n      dup3\n      add\n      dup1\n      0x40\n      mstore\n      pop\n      dup2\n      add\n      swap1\n      tag_199\n      swap2\n      swap1\n      tag_183\n      jump\t// in\n    tag_199:\n        /* \"contracts/sweetspot.sol\":1717:1778  require(scorer.isAdmin(msg.sender), \"Caller is not an admin\") */\n      tag_200\n      jumpi\n      mload(0x40)\n      0x08c379a000000000000000000000000000000000000000000000000000000000\n      dup2\n      mstore\n      0x04\n      add\n      tag_201\n      swap1\n      tag_186\n      jump\t// in\n    tag_201:\n      mload(0x40)\n      dup1\n      swap2\n      sub\n      swap1\n      revert\n    tag_200:\n        /* \"contracts/sweetspot.sol\":4260:4261  0 */\n      0x00\n        /* \"contracts/sweetspot.sol\":4244:4262  user != address(0) */\n      0xffffffffffffffffffffffffffffffffffffffff\n      and\n        /* \"contracts/sweetspot.sol\":4244:4248  user */\n      dup4\n        /* \"contracts/sweetspot.sol\":4244:4262  user != address(0) */\n      0xffffffffffffffffffffffffffffffffffffffff\n      and\n      sub\n        /* \"contracts/sweetspot.sol\":4236:4284  require(user != address(0), \"Zero address user\") */\n      tag_203\n      jumpi\n      mload(0x40)\n      0x08c379a000000000000000000000000000000000000000000000000000000000\n      dup2\n      mstore\n      0x04\n      add\n      tag_204\n      swap1\n      tag_205\n      jump\t// in\n    tag_204:\n      mload(0x40)\n      dup1\n      swap2\n      sub\n      swap1\n      revert\n    tag_203:\n        /* \"contracts/sweetspot.sol\":4325:4331  amount */\n      dup1\n        /* \"contracts/sweetspot.sol\":4295:4309  allowedAmounts */\n      0x36\n        /* \"contracts/sweetspot.sol\":4295:4315  allowedAmounts[user] */\n      0x00\n        /* \"contracts/sweetspot.sol\":4310:4314  user */\n      dup6\n        /* \"contracts/sweetspot.sol\":4295:4315  allowedAmounts[user] */\n      0xffffffffffffffffffffffffffffffffffffffff\n      and\n      0xffffffffffffffffffffffffffffffffffffffff\n      and\n      dup2\n      mstore\n      0x20\n      add\n      swap1\n      dup2\n      mstore\n      0x20\n      add\n      0x00\n      keccak256\n        /* \"contracts/sweetspot.sol\":4295:4322  allowedAmounts[user][token] */\n      0x00\n        /* \"contracts/sweetspot.sol\":4316:4321  token */\n      dup5\n        /* \"contracts/sweetspot.sol\":4295:4322  allowedAmounts[user][token] */\n      0xffffffffffffffffffffffffffffffffffffffff\n      and\n      0xffffffffffffffffffffffffffffffffffffffff\n      and\n      dup2\n      mstore\n      0x20\n      add\n      swap1\n      dup2\n      mstore\n      0x20\n      add\n      0x00\n      keccak256\n        /* \"contracts/sweetspot.sol\":4295:4331  allowedAmounts[user][token] = amount */\n      dup2\n      swap1\n      sstore\n      pop\n        /* \"contracts/sweetspot.sol\":4374:4379  token */\n      dup2\n        /* \"contracts/sweetspot.sol\":4347:4388  AllowedAmountUpdated(user, token, amount) */\n      0xffffffffffffffffffffffffffffffffffffffff\n      and\n        /* \"contracts/sweetspot.sol\":4368:4372  user */\n      dup4\n        /* \"contracts/sweetspot.sol\":4347:4388  AllowedAmountUpdated(user, token, amount) */\n      0xffffffffffffffffffffffffffffffffffffffff\n      and\n      0x3d0601f3b0e52fd772f1fa71d91651b34b6a11144bea30d74e0f820019a04dc2\n        /* \"contracts/sweetspot.sol\":4381:4387  amount */\n      dup4\n        /* \"contracts/sweetspot.sol\":4347:4388  AllowedAmountUpdated(user, token, amount) */\n      mload(0x40)\n      tag_206\n      swap2\n      swap1\n      tag_26\n      jump\t// in\n    tag_206:\n      mload(0x40)\n      dup1\n      swap2\n      sub\n      swap1\n      log3\n        /* \"contracts/sweetspot.sol\":4135:4396  function setAllowedAmount(address user, address token, uint256 amount) external onlyAdmin {... */\n      pop\n      pop\n      pop\n      jump\t// out\n        /* \"contracts/sweetspot.sol\":4495:5111  function bulkSetAllowedAmount(... */\n    tag_91:\n        /* \"contracts/sweetspot.sol\":1725:1731  scorer */\n      0x32\n      0x00\n      swap1\n      sload\n      swap1\n      0x0100\n      exp\n      swap1\n      div\n      0xffffffffffffffffffffffffffffffffffffffff\n      and\n        /* \"contracts/sweetspot.sol\":1725:1739  scorer.isAdmin */\n      0xffffffffffffffffffffffffffffffffffffffff\n      and\n      0x24d7806c\n        /* \"contracts/sweetspot.sol\":1740:1750  msg.sender */\n      caller\n        /* \"contracts/sweetspot.sol\":1725:1751  scorer.isAdmin(msg.sender) */\n      mload(0x40)\n      dup3\n      0xffffffff\n      and\n      0xe0\n      shl\n      dup2\n      mstore\n      0x04\n      add\n      tag_208\n      swap2\n      swap1\n      tag_40\n      jump\t// in\n    tag_208:\n      0x20\n      mload(0x40)\n      dup1\n      dup4\n      sub\n      dup2\n      dup7\n      gas\n      staticcall\n      iszero\n      dup1\n      iszero\n      tag_210\n      jumpi\n      returndatasize\n      0x00\n      dup1\n      returndatacopy\n      revert(0x00, returndatasize)\n    tag_210:\n      pop\n      pop\n      pop\n      pop\n      mload(0x40)\n      returndatasize\n      not(0x1f)\n      0x1f\n      dup3\n      add\n      and\n      dup3\n      add\n      dup1\n      0x40\n      mstore\n      pop\n      dup2\n      add\n      swap1\n      tag_211\n      swap2\n      swap1\n      tag_183\n      jump\t// in\n    tag_211:\n        /* \"contracts/sweetspot.sol\":1717:1778  require(scorer.isAdmin(msg.sender), \"Caller is not an admin\") */\n      tag_212\n      jumpi\n      mload(0x40)\n      0x08c379a000000000000000000000000000000000000000000000000000000000\n      dup2\n      mstore\n      0x04\n      add\n      tag_213\n      swap1\n      tag_186\n      jump\t// in\n    tag_213:\n      mload(0x40)\n      dup1\n      swap2\n      sub\n      swap1\n      revert\n    tag_212:\n        /* \"contracts/sweetspot.sol\":4694:4701  amounts */\n      dup2\n      dup2\n        /* \"contracts/sweetspot.sol\":4694:4708  amounts.length */\n      swap1\n      pop\n        /* \"contracts/sweetspot.sol\":4678:4683  users */\n      dup5\n      dup5\n        /* \"contracts/sweetspot.sol\":4678:4690  users.length */\n      swap1\n      pop\n        /* \"contracts/sweetspot.sol\":4678:4708  users.length == amounts.length */\n      eq\n        /* \"contracts/sweetspot.sol\":4670:4737  require(users.length == amounts.length, \"Mismatched array lengths\") */\n      tag_215\n      jumpi\n      mload(0x40)\n      0x08c379a000000000000000000000000000000000000000000000000000000000\n      dup2\n      mstore\n      0x04\n      add\n      tag_216\n      swap1\n      tag_217\n      jump\t// in\n    tag_216:\n      mload(0x40)\n      dup1\n      swap2\n      sub\n      swap1\n      revert\n    tag_215:\n        /* \"contracts/sweetspot.sol\":4773:4780  amounts */\n      dup2\n      dup2\n        /* \"contracts/sweetspot.sol\":4773:4787  amounts.length */\n      swap1\n      pop\n        /* \"contracts/sweetspot.sol\":4756:4762  tokens */\n      dup7\n      dup7\n        /* \"contracts/sweetspot.sol\":4756:4769  tokens.length */\n      swap1\n      pop\n        /* \"contracts/sweetspot.sol\":4756:4787  tokens.length == amounts.length */\n      eq\n        /* \"contracts/sweetspot.sol\":4748:4816  require(tokens.length == amounts.length, \"Mismatched array lengths\") */\n      tag_218\n      jumpi\n      mload(0x40)\n      0x08c379a000000000000000000000000000000000000000000000000000000000\n      dup2\n      mstore\n      0x04\n      add\n      tag_219\n      swap1\n      tag_217\n      jump\t// in\n    tag_219:\n      mload(0x40)\n      dup1\n      swap2\n      sub\n      swap1\n      revert\n    tag_218:\n        /* \"contracts/sweetspot.sol\":4832:4841  uint256 i */\n      0x00\n        /* \"contracts/sweetspot.sol\":4827:5104  for (uint256 i = 0; i < users.length; i++) {... */\n    tag_220:\n        /* \"contracts/sweetspot.sol\":4851:4856  users */\n      dup5\n      dup5\n        /* \"contracts/sweetspot.sol\":4851:4863  users.length */\n      swap1\n      pop\n        /* \"contracts/sweetspot.sol\":4847:4848  i */\n      dup2\n        /* \"contracts/sweetspot.sol\":4847:4863  i < users.length */\n      lt\n        /* \"contracts/sweetspot.sol\":4827:5104  for (uint256 i = 0; i < users.length; i++) {... */\n      iszero\n      tag_221\n      jumpi\n        /* \"contracts/sweetspot.sol\":5009:5016  amounts */\n      dup3\n      dup3\n        /* \"contracts/sweetspot.sol\":5017:5018  i */\n      dup3\n        /* \"contracts/sweetspot.sol\":5009:5019  amounts[i] */\n      dup2\n      dup2\n      lt\n      tag_223\n      jumpi\n      tag_224\n      tag_225\n      jump\t// in\n    tag_224:\n    tag_223:\n      swap1\n      pop\n      0x20\n      mul\n      add\n      calldataload\n        /* \"contracts/sweetspot.sol\":4971:4985  allowedAmounts */\n      0x36\n        /* \"contracts/sweetspot.sol\":4971:4995  allowedAmounts[users[i]] */\n      0x00\n        /* \"contracts/sweetspot.sol\":4986:4991  users */\n      dup8\n      dup8\n        /* \"contracts/sweetspot.sol\":4992:4993  i */\n      dup6\n        /* \"contracts/sweetspot.sol\":4986:4994  users[i] */\n      dup2\n      dup2\n      lt\n      tag_226\n      jumpi\n      tag_227\n      tag_225\n      jump\t// in\n    tag_227:\n    tag_226:\n      swap1\n      pop\n      0x20\n      mul\n      add\n      0x20\n      dup2\n      add\n      swap1\n      tag_228\n      swap2\n      swap1\n      tag_34\n      jump\t// in\n    tag_228:\n        /* \"contracts/sweetspot.sol\":4971:4995  allowedAmounts[users[i]] */\n      0xffffffffffffffffffffffffffffffffffffffff\n      and\n      0xffffffffffffffffffffffffffffffffffffffff\n      and\n      dup2\n      mstore\n      0x20\n      add\n      swap1\n      dup2\n      mstore\n      0x20\n      add\n      0x00\n      keccak256\n        /* \"contracts/sweetspot.sol\":4971:5006  allowedAmounts[users[i]][tokens[i]] */\n      0x00\n        /* \"contracts/sweetspot.sol\":4996:5002  tokens */\n      dup10\n      dup10\n        /* \"contracts/sweetspot.sol\":5003:5004  i */\n      dup6\n        /* \"contracts/sweetspot.sol\":4996:5005  tokens[i] */\n      dup2\n      dup2\n      lt\n      tag_229\n      jumpi\n      tag_230\n      tag_225\n      jump\t// in\n    tag_230:\n    tag_229:\n      swap1\n      pop\n      0x20\n      mul\n      add\n      0x20\n      dup2\n      add\n      swap1\n      tag_231\n      swap2\n      swap1\n      tag_34\n      jump\t// in\n    tag_231:\n        /* \"contracts/sweetspot.sol\":4971:5006  allowedAmounts[users[i]][tokens[i]] */\n      0xffffffffffffffffffffffffffffffffffffffff\n      and\n      0xffffffffffffffffffffffffffffffffffffffff\n      and\n      dup2\n      mstore\n      0x20\n      add\n      swap1\n      dup2\n      mstore\n      0x20\n      add\n      0x00\n      keccak256\n        /* \"contracts/sweetspot.sol\":4971:5019  allowedAmounts[users[i]][tokens[i]] = amounts[i] */\n      dup2\n      swap1\n      sstore\n      pop\n        /* \"contracts/sweetspot.sol\":5070:5076  tokens */\n      dup7\n      dup7\n        /* \"contracts/sweetspot.sol\":5077:5078  i */\n      dup3\n        /* \"contracts/sweetspot.sol\":5070:5079  tokens[i] */\n      dup2\n      dup2\n      lt\n      tag_232\n      jumpi\n      tag_233\n      tag_225\n      jump\t// in\n    tag_233:\n    tag_232:\n      swap1\n      pop\n      0x20\n      mul\n      add\n      0x20\n      dup2\n      add\n      swap1\n      tag_234\n      swap2\n      swap1\n      tag_34\n      jump\t// in\n    tag_234:\n        /* \"contracts/sweetspot.sol\":5039:5092  AllowedAmountUpdated(users[i], tokens[i], amounts[i]) */\n      0xffffffffffffffffffffffffffffffffffffffff\n      and\n        /* \"contracts/sweetspot.sol\":5060:5065  users */\n      dup6\n      dup6\n        /* \"contracts/sweetspot.sol\":5066:5067  i */\n      dup4\n        /* \"contracts/sweetspot.sol\":5060:5068  users[i] */\n      dup2\n      dup2\n      lt\n      tag_235\n      jumpi\n      tag_236\n      tag_225\n      jump\t// in\n    tag_236:\n    tag_235:\n      swap1\n      pop\n      0x20\n      mul\n      add\n      0x20\n      dup2\n      add\n      swap1\n      tag_237\n      swap2\n      swap1\n      tag_34\n      jump\t// in\n    tag_237:\n        /* \"contracts/sweetspot.sol\":5039:5092  AllowedAmountUpdated(users[i], tokens[i], amounts[i]) */\n      0xffffffffffffffffffffffffffffffffffffffff\n      and\n      0x3d0601f3b0e52fd772f1fa71d91651b34b6a11144bea30d74e0f820019a04dc2\n        /* \"contracts/sweetspot.sol\":5081:5088  amounts */\n      dup6\n      dup6\n        /* \"contracts/sweetspot.sol\":5089:5090  i */\n      dup6\n        /* \"contracts/sweetspot.sol\":5081:5091  amounts[i] */\n      dup2\n      dup2\n      lt\n      tag_238\n      jumpi\n      tag_239\n      tag_225\n      jump\t// in\n    tag_239:\n    tag_238:\n      swap1\n      pop\n      0x20\n      mul\n      add\n      calldataload\n        /* \"contracts/sweetspot.sol\":5039:5092  AllowedAmountUpdated(users[i], tokens[i], amounts[i]) */\n      mload(0x40)\n      tag_240\n      swap2\n      swap1\n      tag_26\n      jump\t// in\n    tag_240:\n      mload(0x40)\n      dup1\n      swap2\n      sub\n      swap1\n      log3\n        /* \"contracts/sweetspot.sol\":4865:4868  i++ */\n      dup1\n      dup1\n      0x01\n      add\n      swap2\n      pop\n      pop\n        /* \"contracts/sweetspot.sol\":4827:5104  for (uint256 i = 0; i < users.length; i++) {... */\n      jump(tag_220)\n    tag_221:\n      pop\n        /* \"contracts/sweetspot.sol\":4495:5111  function bulkSetAllowedAmount(... */\n      pop\n      pop\n      pop\n      pop\n      pop\n      pop\n      jump\t// out\n        /* \"@openzeppelin/contracts-upgradeable/access/OwnableUpgradeable.sol\":3405:3620  function transferOwnership(address newOwner) public virtual onlyOwner {... */\n    tag_95:\n        /* \"@openzeppelin/contracts-upgradeable/access/OwnableUpgradeable.sol\":2334:2347  _checkOwner() */\n      tag_242\n        /* \"@openzeppelin/contracts-upgradeable/access/OwnableUpgradeable.sol\":2334:2345  _checkOwner */\n      tag_165\n        /* \"@openzeppelin/contracts-upgradeable/access/OwnableUpgradeable.sol\":2334:2347  _checkOwner() */\n      jump\t// in\n    tag_242:\n        /* \"@openzeppelin/contracts-upgradeable/access/OwnableUpgradeable.sol\":3509:3510  0 */\n      0x00\n        /* \"@openzeppelin/contracts-upgradeable/access/OwnableUpgradeable.sol\":3489:3511  newOwner == address(0) */\n      0xffffffffffffffffffffffffffffffffffffffff\n      and\n        /* \"@openzeppelin/contracts-upgradeable/access/OwnableUpgradeable.sol\":3489:3497  newOwner */\n      dup2\n        /* \"@openzeppelin/contracts-upgradeable/access/OwnableUpgradeable.sol\":3489:3511  newOwner == address(0) */\n      0xffffffffffffffffffffffffffffffffffffffff\n      and\n      sub\n        /* \"@openzeppelin/contracts-upgradeable/access/OwnableUpgradeable.sol\":3485:3576  if (newOwner == address(0)) {... */\n      tag_244\n      jumpi\n        /* \"@openzeppelin/contracts-upgradeable/access/OwnableUpgradeable.sol\":3562:3563  0 */\n      0x00\n        /* \"@openzeppelin/contracts-upgradeable/access/OwnableUpgradeable.sol\":3534:3565  OwnableInvalidOwner(address(0)) */\n      mload(0x40)\n      0x1e4fbdf700000000000000000000000000000000000000000000000000000000\n      dup2\n      mstore\n      0x04\n      add\n      tag_245\n      swap2\n      swap1\n      tag_40\n      jump\t// in\n    tag_245:\n      mload(0x40)\n      dup1\n      swap2\n      sub\n      swap1\n      revert\n        /* \"@openzeppelin/contracts-upgradeable/access/OwnableUpgradeable.sol\":3485:3576  if (newOwner == address(0)) {... */\n    tag_244:\n        /* \"@openzeppelin/contracts-upgradeable/access/OwnableUpgradeable.sol\":3585:3613  _transferOwnership(newOwner) */\n      tag_246\n        /* \"@openzeppelin/contracts-upgradeable/access/OwnableUpgradeable.sol\":3604:3612  newOwner */\n      dup2\n        /* \"@openzeppelin/contracts-upgradeable/access/OwnableUpgradeable.sol\":3585:3603  _transferOwnership */\n      tag_168\n        /* \"@openzeppelin/contracts-upgradeable/access/OwnableUpgradeable.sol\":3585:3613  _transferOwnership(newOwner) */\n      jump\t// in\n    tag_246:\n        /* \"@openzeppelin/contracts-upgradeable/access/OwnableUpgradeable.sol\":3405:3620  function transferOwnership(address newOwner) public virtual onlyOwner {... */\n      pop\n      jump\t// out\n        /* \"contracts/sweetspot.sol\":5843:6421  function withdraw(address token, uint256 amount) external onlyOwner nonReentrant  {... */\n    tag_99:\n        /* \"@openzeppelin/contracts-upgradeable/access/OwnableUpgradeable.sol\":2334:2347  _checkOwner() */\n      tag_248\n        /* \"@openzeppelin/contracts-upgradeable/access/OwnableUpgradeable.sol\":2334:2345  _checkOwner */\n      tag_165\n        /* \"@openzeppelin/contracts-upgradeable/access/OwnableUpgradeable.sol\":2334:2347  _checkOwner() */\n      jump\t// in\n    tag_248:\n        /* \"@openzeppelin/contracts-upgradeable/security/ReentrancyGuardUpgradeable.sol\":2526:2547  _nonReentrantBefore() */\n      tag_250\n        /* \"@openzeppelin/contracts-upgradeable/security/ReentrancyGuardUpgradeable.sol\":2526:2545  _nonReentrantBefore */\n      tag_102\n        /* \"@openzeppelin/contracts-upgradeable/security/ReentrancyGuardUpgradeable.sol\":2526:2547  _nonReentrantBefore() */\n      jump\t// in\n    tag_250:\n        /* \"contracts/sweetspot.sol\":5953:5954  0 */\n      0x00\n        /* \"contracts/sweetspot.sol\":5944:5950  amount */\n      dup2\n        /* \"contracts/sweetspot.sol\":5944:5954  amount > 0 */\n      gt\n        /* \"contracts/sweetspot.sol\":5936:6002  require(amount > 0, \"Withdrawal amount must be greater than zero\") */\n      tag_252\n      jumpi\n      mload(0x40)\n      0x08c379a000000000000000000000000000000000000000000000000000000000\n      dup2\n      mstore\n      0x04\n      add\n      tag_253\n      swap1\n      tag_254\n      jump\t// in\n    tag_253:\n      mload(0x40)\n      dup1\n      swap2\n      sub\n      swap1\n      revert\n    tag_252:\n        /* \"contracts/sweetspot.sol\":6045:6051  amount */\n      dup1\n        /* \"contracts/sweetspot.sol\":6021:6034  totalBalances */\n      0x35\n        /* \"contracts/sweetspot.sol\":6021:6041  totalBalances[token] */\n      0x00\n        /* \"contracts/sweetspot.sol\":6035:6040  token */\n      dup5\n        /* \"contracts/sweetspot.sol\":6021:6041  totalBalances[token] */\n      0xffffffffffffffffffffffffffffffffffffffff\n      and\n      0xffffffffffffffffffffffffffffffffffffffff\n      and\n      dup2\n      mstore\n      0x20\n      add\n      swap1\n      dup2\n      mstore\n      0x20\n      add\n      0x00\n      keccak256\n      sload\n        /* \"contracts/sweetspot.sol\":6021:6051  totalBalances[token] >= amount */\n      lt\n      iszero\n        /* \"contracts/sweetspot.sol\":6013:6074  require(totalBalances[token] >= amount, \"Insufficient funds\") */\n      tag_255\n      jumpi\n      mload(0x40)\n      0x08c379a000000000000000000000000000000000000000000000000000000000\n      dup2\n      mstore\n      0x04\n      add\n      tag_256\n      swap1\n      tag_257\n      jump\t// in\n    tag_256:\n      mload(0x40)\n      dup1\n      swap2\n      sub\n      swap1\n      revert\n    tag_255:\n        /* \"contracts/sweetspot.sol\":6111:6117  amount */\n      dup1\n        /* \"contracts/sweetspot.sol\":6087:6100  totalBalances */\n      0x35\n        /* \"contracts/sweetspot.sol\":6087:6107  totalBalances[token] */\n      0x00\n        /* \"contracts/sweetspot.sol\":6101:6106  token */\n      dup5\n        /* \"contracts/sweetspot.sol\":6087:6107  totalBalances[token] */\n      0xffffffffffffffffffffffffffffffffffffffff\n      and\n      0xffffffffffffffffffffffffffffffffffffffff\n      and\n      dup2\n      mstore\n      0x20\n      add\n      swap1\n      dup2\n      mstore\n      0x20\n      add\n      0x00\n      keccak256\n      0x00\n        /* \"contracts/sweetspot.sol\":6087:6117  totalBalances[token] -= amount */\n      dup3\n      dup3\n      sload\n      tag_258\n      swap2\n      swap1\n      tag_115\n      jump\t// in\n    tag_258:\n      swap3\n      pop\n      pop\n      dup2\n      swap1\n      sstore\n      pop\n        /* \"contracts/sweetspot.sol\":613:614  0 */\n      0x00\n        /* \"contracts/sweetspot.sol\":6134:6155  token == NATIVE_TOKEN */\n      0xffffffffffffffffffffffffffffffffffffffff\n      and\n        /* \"contracts/sweetspot.sol\":6134:6139  token */\n      dup3\n        /* \"contracts/sweetspot.sol\":6134:6155  token == NATIVE_TOKEN */\n      0xffffffffffffffffffffffffffffffffffffffff\n      and\n      sub\n        /* \"contracts/sweetspot.sol\":6130:6366  if (token == NATIVE_TOKEN) {... */\n      tag_259\n      jumpi\n        /* \"contracts/sweetspot.sol\":6173:6185  bool success */\n      0x00\n        /* \"contracts/sweetspot.sol\":6191:6198  owner() */\n      tag_260\n        /* \"contracts/sweetspot.sol\":6191:6196  owner */\n      tag_65\n        /* \"contracts/sweetspot.sol\":6191:6198  owner() */\n      jump\t// in\n    tag_260:\n        /* \"contracts/sweetspot.sol\":6191:6203  owner().call */\n      0xffffffffffffffffffffffffffffffffffffffff\n      and\n        /* \"contracts/sweetspot.sol\":6211:6217  amount */\n      dup3\n        /* \"contracts/sweetspot.sol\":6191:6222  owner().call{value: amount}(\"\") */\n      mload(0x40)\n      tag_261\n      swap1\n      tag_118\n      jump\t// in\n    tag_261:\n      0x00\n      mload(0x40)\n      dup1\n      dup4\n      sub\n      dup2\n      dup6\n      dup8\n      gas\n      call\n      swap3\n      pop\n      pop\n      pop\n      returndatasize\n      dup1\n      0x00\n      dup2\n      eq\n      tag_264\n      jumpi\n      mload(0x40)\n      swap2\n      pop\n      and(add(returndatasize, 0x3f), not(0x1f))\n      dup3\n      add\n      0x40\n      mstore\n      returndatasize\n      dup3\n      mstore\n      returndatasize\n      0x00\n      0x20\n      dup5\n      add\n      returndatacopy\n      jump(tag_263)\n    tag_264:\n      0x60\n      swap2\n      pop\n    tag_263:\n      pop\n        /* \"contracts/sweetspot.sol\":6172:6222  (bool success, ) = owner().call{value: amount}(\"\") */\n      pop\n      swap1\n      pop\n        /* \"contracts/sweetspot.sol\":6245:6252  success */\n      dup1\n        /* \"contracts/sweetspot.sol\":6237:6278  require(success, \"Ether transfer failed\") */\n      tag_265\n      jumpi\n      mload(0x40)\n      0x08c379a000000000000000000000000000000000000000000000000000000000\n      dup2\n      mstore\n      0x04\n      add\n      tag_266\n      swap1\n      tag_124\n      jump\t// in\n    tag_266:\n      mload(0x40)\n      dup1\n      swap2\n      sub\n      swap1\n      revert\n    tag_265:\n        /* \"contracts/sweetspot.sol\":6157:6290  {... */\n      pop\n        /* \"contracts/sweetspot.sol\":6130:6366  if (token == NATIVE_TOKEN) {... */\n      jump(tag_267)\n    tag_259:\n        /* \"contracts/sweetspot.sol\":6311:6354  IERC20(token).safeTransfer(owner(), amount) */\n      tag_268\n        /* \"contracts/sweetspot.sol\":6338:6345  owner() */\n      tag_269\n        /* \"contracts/sweetspot.sol\":6338:6343  owner */\n      tag_65\n        /* \"contracts/sweetspot.sol\":6338:6345  owner() */\n      jump\t// in\n    tag_269:\n        /* \"contracts/sweetspot.sol\":6347:6353  amount */\n      dup3\n        /* \"contracts/sweetspot.sol\":6318:6323  token */\n      dup5\n        /* \"contracts/sweetspot.sol\":6311:6337  IERC20(token).safeTransfer */\n      0xffffffffffffffffffffffffffffffffffffffff\n      and\n      tag_127\n      swap1\n        /* \"contracts/sweetspot.sol\":6311:6354  IERC20(token).safeTransfer(owner(), amount) */\n      swap3\n      swap2\n      swap1\n      0xffffffff\n      and\n      jump\t// in\n    tag_268:\n        /* \"contracts/sweetspot.sol\":6130:6366  if (token == NATIVE_TOKEN) {... */\n    tag_267:\n        /* \"contracts/sweetspot.sol\":6399:6404  token */\n      dup2\n        /* \"contracts/sweetspot.sol\":6381:6413  Withdraw(owner(), token, amount) */\n      0xffffffffffffffffffffffffffffffffffffffff\n      and\n        /* \"contracts/sweetspot.sol\":6390:6397  owner() */\n      tag_270\n        /* \"contracts/sweetspot.sol\":6390:6395  owner */\n      tag_65\n        /* \"contracts/sweetspot.sol\":6390:6397  owner() */\n      jump\t// in\n    tag_270:\n        /* \"contracts/sweetspot.sol\":6381:6413  Withdraw(owner(), token, amount) */\n      0xffffffffffffffffffffffffffffffffffffffff\n      and\n      0x9b1bfa7fa9ee420a16e124f794c35ac9f90472acc99140eb2f6447c714cad8eb\n        /* \"contracts/sweetspot.sol\":6406:6412  amount */\n      dup4\n        /* \"contracts/sweetspot.sol\":6381:6413  Withdraw(owner(), token, amount) */\n      mload(0x40)\n      tag_271\n      swap2\n      swap1\n      tag_26\n      jump\t// in\n    tag_271:\n      mload(0x40)\n      dup1\n      swap2\n      sub\n      swap1\n      log3\n        /* \"@openzeppelin/contracts-upgradeable/security/ReentrancyGuardUpgradeable.sol\":2568:2588  _nonReentrantAfter() */\n      tag_272\n        /* \"@openzeppelin/contracts-upgradeable/security/ReentrancyGuardUpgradeable.sol\":2568:2586  _nonReentrantAfter */\n      tag_130\n        /* \"@openzeppelin/contracts-upgradeable/security/ReentrancyGuardUpgradeable.sol\":2568:2588  _nonReentrantAfter() */\n      jump\t// in\n    tag_272:\n        /* \"contracts/sweetspot.sol\":5843:6421  function withdraw(address token, uint256 amount) external onlyOwner nonReentrant  {... */\n      pop\n      pop\n      jump\t// out\n        /* \"@openzeppelin/contracts-upgradeable/security/ReentrancyGuardUpgradeable.sol\":2601:2888  function _nonReentrantBefore() private {... */\n    tag_102:\n        /* \"@openzeppelin/contracts-upgradeable/security/ReentrancyGuardUpgradeable.sol\":1851:1852  2 */\n      0x02\n        /* \"@openzeppelin/contracts-upgradeable/security/ReentrancyGuardUpgradeable.sol\":2733:2740  _status */\n      sload(0x00)\n        /* \"@openzeppelin/contracts-upgradeable/security/ReentrancyGuardUpgradeable.sol\":2733:2752  _status != _ENTERED */\n      sub\n        /* \"@openzeppelin/contracts-upgradeable/security/ReentrancyGuardUpgradeable.sol\":2725:2788  require(_status != _ENTERED, \"ReentrancyGuard: reentrant call\") */\n      tag_274\n      jumpi\n      mload(0x40)\n      0x08c379a000000000000000000000000000000000000000000000000000000000\n      dup2\n      mstore\n      0x04\n      add\n      tag_275\n      swap1\n      tag_276\n      jump\t// in\n    tag_275:\n      mload(0x40)\n      dup1\n      swap2\n      sub\n      swap1\n      revert\n    tag_274:\n        /* \"@openzeppelin/contracts-upgradeable/security/ReentrancyGuardUpgradeable.sol\":1851:1852  2 */\n      0x02\n        /* \"@openzeppelin/contracts-upgradeable/security/ReentrancyGuardUpgradeable.sol\":2863:2870  _status */\n      0x00\n        /* \"@openzeppelin/contracts-upgradeable/security/ReentrancyGuardUpgradeable.sol\":2863:2881  _status = _ENTERED */\n      dup2\n      swap1\n      sstore\n      pop\n        /* \"@openzeppelin/contracts-upgradeable/security/ReentrancyGuardUpgradeable.sol\":2601:2888  function _nonReentrantBefore() private {... */\n      jump\t// out\n        /* \"@openzeppelin/contracts/token/ERC20/utils/SafeERC20.sol\":1271:1431  function safeTransfer(IERC20 token, address to, uint256 value) internal {... */\n    tag_127:\n        /* \"@openzeppelin/contracts/token/ERC20/utils/SafeERC20.sol\":1353:1424  _callOptionalReturn(token, abi.encodeCall(token.transfer, (to, value))) */\n      tag_278\n        /* \"@openzeppelin/contracts/token/ERC20/utils/SafeERC20.sol\":1373:1378  token */\n      dup4\n        /* \"@openzeppelin/contracts/token/ERC20/utils/SafeERC20.sol\":1395:1400  token */\n      dup5\n        /* \"@openzeppelin/contracts/token/ERC20/utils/SafeERC20.sol\":1395:1409  token.transfer */\n      0xffffffffffffffffffffffffffffffffffffffff\n      and\n      0xa9059cbb\n        /* \"@openzeppelin/contracts/token/ERC20/utils/SafeERC20.sol\":1412:1414  to */\n      dup6\n        /* \"@openzeppelin/contracts/token/ERC20/utils/SafeERC20.sol\":1416:1421  value */\n      dup6\n        /* \"@openzeppelin/contracts/token/ERC20/utils/SafeERC20.sol\":1380:1423  abi.encodeCall(token.transfer, (to, value)) */\n      add(0x24, mload(0x40))\n      tag_279\n      swap3\n      swap2\n      swap1\n      tag_280\n      jump\t// in\n    tag_279:\n      mload(0x40)\n      0x20\n      dup2\n      dup4\n      sub\n      sub\n      dup2\n      mstore\n      swap1\n      0x40\n      mstore\n      swap2\n      pop\n      0xe0\n      shl\n      0x20\n      dup3\n      add\n      dup1\n      mload\n      0xffffffffffffffffffffffffffffffffffffffffffffffffffffffff\n      dup4\n      dup2\n      dup4\n      and\n      or\n      dup4\n      mstore\n      pop\n      pop\n      pop\n      pop\n        /* \"@openzeppelin/contracts/token/ERC20/utils/SafeERC20.sol\":1353:1372  _callOptionalReturn */\n      tag_281\n        /* \"@openzeppelin/contracts/token/ERC20/utils/SafeERC20.sol\":1353:1424  _callOptionalReturn(token, abi.encodeCall(token.transfer, (to, value))) */\n      jump\t// in\n    tag_278:\n        /* \"@openzeppelin/contracts/token/ERC20/utils/SafeERC20.sol\":1271:1431  function safeTransfer(IERC20 token, address to, uint256 value) internal {... */\n      pop\n      pop\n      pop\n      jump\t// out\n        /* \"@openzeppelin/contracts-upgradeable/security/ReentrancyGuardUpgradeable.sol\":2894:3103  function _nonReentrantAfter() private {... */\n    tag_130:\n        /* \"@openzeppelin/contracts-upgradeable/security/ReentrancyGuardUpgradeable.sol\":1808:1809  1 */\n      0x01\n        /* \"@openzeppelin/contracts-upgradeable/security/ReentrancyGuardUpgradeable.sol\":3074:3081  _status */\n      0x00\n        /* \"@openzeppelin/contracts-upgradeable/security/ReentrancyGuardUpgradeable.sol\":3074:3096  _status = _NOT_ENTERED */\n      dup2\n      swap1\n      sstore\n      pop\n        /* \"@openzeppelin/contracts-upgradeable/security/ReentrancyGuardUpgradeable.sol\":2894:3103  function _nonReentrantAfter() private {... */\n      jump\t// out\n        /* \"@openzeppelin/contracts/token/ERC20/utils/SafeERC20.sol\":1670:1858  function safeTransferFrom(IERC20 token, address from, address to, uint256 value) internal {... */\n    tag_143:\n        /* \"@openzeppelin/contracts/token/ERC20/utils/SafeERC20.sol\":1770:1851  _callOptionalReturn(token, abi.encodeCall(token.transferFrom, (from, to, value))) */\n      tag_284\n        /* \"@openzeppelin/contracts/token/ERC20/utils/SafeERC20.sol\":1790:1795  token */\n      dup5\n        /* \"@openzeppelin/contracts/token/ERC20/utils/SafeERC20.sol\":1812:1817  token */\n      dup6\n        /* \"@openzeppelin/contracts/token/ERC20/utils/SafeERC20.sol\":1812:1830  token.transferFrom */\n      0xffffffffffffffffffffffffffffffffffffffff\n      and\n      0x23b872dd\n        /* \"@openzeppelin/contracts/token/ERC20/utils/SafeERC20.sol\":1833:1837  from */\n      dup7\n        /* \"@openzeppelin/contracts/token/ERC20/utils/SafeERC20.sol\":1839:1841  to */\n      dup7\n        /* \"@openzeppelin/contracts/token/ERC20/utils/SafeERC20.sol\":1843:1848  value */\n      dup7\n        /* \"@openzeppelin/contracts/token/ERC20/utils/SafeERC20.sol\":1797:1850  abi.encodeCall(token.transferFrom, (from, to, value)) */\n      add(0x24, mload(0x40))\n      tag_285\n      swap4\n      swap3\n      swap2\n      swap1\n      tag_286\n      jump\t// in\n    tag_285:\n      mload(0x40)\n      0x20\n      dup2\n      dup4\n      sub\n      sub\n      dup2\n      mstore\n      swap1\n      0x40\n      mstore\n      swap2\n      pop\n      0xe0\n      shl\n      0x20\n      dup3\n      add\n      dup1\n      mload\n      0xffffffffffffffffffffffffffffffffffffffffffffffffffffffff\n      dup4\n      dup2\n      dup4\n      and\n      or\n      dup4\n      mstore\n      pop\n      pop\n      pop\n      pop\n        /* \"@openzeppelin/contracts/token/ERC20/utils/SafeERC20.sol\":1770:1789  _callOptionalReturn */\n      tag_281\n        /* \"@openzeppelin/contracts/token/ERC20/utils/SafeERC20.sol\":1770:1851  _callOptionalReturn(token, abi.encodeCall(token.transferFrom, (from, to, value))) */\n      jump\t// in\n    tag_284:\n        /* \"@openzeppelin/contracts/token/ERC20/utils/SafeERC20.sol\":1670:1858  function safeTransferFrom(IERC20 token, address from, address to, uint256 value) internal {... */\n      pop\n      pop\n      pop\n      pop\n      jump\t// out\n        /* \"@openzeppelin/contracts-upgradeable/proxy/utils/Initializable.sol\":8737:8907  function _getInitializableStorage() private pure returns (InitializableStorage storage $) {... */\n    tag_149:\n        /* \"@openzeppelin/contracts-upgradeable/proxy/utils/Initializable.sol\":8795:8825  InitializableStorage storage $ */\n      0x00\n        /* \"@openzeppelin/contracts-upgradeable/proxy/utils/Initializable.sol\":8870:8891  INITIALIZABLE_STORAGE */\n      0xf0c57e16840df040f15088dc2f81fe391c3923bec73e23a9662efc9c229c6a00\n        /* \"@openzeppelin/contracts-upgradeable/proxy/utils/Initializable.sol\":8860:8891  $.slot := INITIALIZABLE_STORAGE */\n      swap1\n      pop\n        /* \"@openzeppelin/contracts-upgradeable/proxy/utils/Initializable.sol\":8737:8907  function _getInitializableStorage() private pure returns (InitializableStorage storage $) {... */\n      swap1\n      jump\t// out\n        /* \"@openzeppelin/contracts-upgradeable/access/OwnableUpgradeable.sol\":1847:1974  function __Ownable_init(address initialOwner) internal onlyInitializing {... */\n    tag_157:\n        /* \"@openzeppelin/contracts-upgradeable/proxy/utils/Initializable.sol\":6931:6951  _checkInitializing() */\n      tag_289\n        /* \"@openzeppelin/contracts-upgradeable/proxy/utils/Initializable.sol\":6931:6949  _checkInitializing */\n      tag_290\n        /* \"@openzeppelin/contracts-upgradeable/proxy/utils/Initializable.sol\":6931:6951  _checkInitializing() */\n      jump\t// in\n    tag_289:\n        /* \"@openzeppelin/contracts-upgradeable/access/OwnableUpgradeable.sol\":1929:1967  __Ownable_init_unchained(initialOwner) */\n      tag_292\n        /* \"@openzeppelin/contracts-upgradeable/access/OwnableUpgradeable.sol\":1954:1966  initialOwner */\n      dup2\n        /* \"@openzeppelin/contracts-upgradeable/access/OwnableUpgradeable.sol\":1929:1953  __Ownable_init_unchained */\n      tag_293\n        /* \"@openzeppelin/contracts-upgradeable/access/OwnableUpgradeable.sol\":1929:1967  __Ownable_init_unchained(initialOwner) */\n      jump\t// in\n    tag_292:\n        /* \"@openzeppelin/contracts-upgradeable/access/OwnableUpgradeable.sol\":1847:1974  function __Ownable_init(address initialOwner) internal onlyInitializing {... */\n      pop\n      jump\t// out\n        /* \"@openzeppelin/contracts-upgradeable/security/ReentrancyGuardUpgradeable.sol\":1889:2000  function __ReentrancyGuard_init() internal onlyInitializing {... */\n    tag_159:\n        /* \"@openzeppelin/contracts-upgradeable/proxy/utils/Initializable.sol\":6931:6951  _checkInitializing() */\n      tag_295\n        /* \"@openzeppelin/contracts-upgradeable/proxy/utils/Initializable.sol\":6931:6949  _checkInitializing */\n      tag_290\n        /* \"@openzeppelin/contracts-upgradeable/proxy/utils/Initializable.sol\":6931:6951  _checkInitializing() */\n      jump\t// in\n    tag_295:\n        /* \"@openzeppelin/contracts-upgradeable/security/ReentrancyGuardUpgradeable.sol\":1959:1993  __ReentrancyGuard_init_unchained() */\n      tag_297\n        /* \"@openzeppelin/contracts-upgradeable/security/ReentrancyGuardUpgradeable.sol\":1959:1991  __ReentrancyGuard_init_unchained */\n      tag_298\n        /* \"@openzeppelin/contracts-upgradeable/security/ReentrancyGuardUpgradeable.sol\":1959:1993  __ReentrancyGuard_init_unchained() */\n      jump\t// in\n    tag_297:\n        /* \"@openzeppelin/contracts-upgradeable/security/ReentrancyGuardUpgradeable.sol\":1889:2000  function __ReentrancyGuard_init() internal onlyInitializing {... */\n      jump\t// out\n        /* \"@openzeppelin/contracts-upgradeable/access/OwnableUpgradeable.sol\":2658:2820  function _checkOwner() internal view virtual {... */\n    tag_165:\n        /* \"@openzeppelin/contracts-upgradeable/access/OwnableUpgradeable.sol\":2728:2740  _msgSender() */\n      tag_300\n        /* \"@openzeppelin/contracts-upgradeable/access/OwnableUpgradeable.sol\":2728:2738  _msgSender */\n      tag_301\n        /* \"@openzeppelin/contracts-upgradeable/access/OwnableUpgradeable.sol\":2728:2740  _msgSender() */\n      jump\t// in\n    tag_300:\n        /* \"@openzeppelin/contracts-upgradeable/access/OwnableUpgradeable.sol\":2717:2740  owner() != _msgSender() */\n      0xffffffffffffffffffffffffffffffffffffffff\n      and\n        /* \"@openzeppelin/contracts-upgradeable/access/OwnableUpgradeable.sol\":2717:2724  owner() */\n      tag_302\n        /* \"@openzeppelin/contracts-upgradeable/access/OwnableUpgradeable.sol\":2717:2722  owner */\n      tag_65\n        /* \"@openzeppelin/contracts-upgradeable/access/OwnableUpgradeable.sol\":2717:2724  owner() */\n      jump\t// in\n    tag_302:\n        /* \"@openzeppelin/contracts-upgradeable/access/OwnableUpgradeable.sol\":2717:2740  owner() != _msgSender() */\n      0xffffffffffffffffffffffffffffffffffffffff\n      and\n      eq\n        /* \"@openzeppelin/contracts-upgradeable/access/OwnableUpgradeable.sol\":2713:2814  if (owner() != _msgSender()) {... */\n      tag_303\n      jumpi\n        /* \"@openzeppelin/contracts-upgradeable/access/OwnableUpgradeable.sol\":2790:2802  _msgSender() */\n      tag_304\n        /* \"@openzeppelin/contracts-upgradeable/access/OwnableUpgradeable.sol\":2790:2800  _msgSender */\n      tag_301\n        /* \"@openzeppelin/contracts-upgradeable/access/OwnableUpgradeable.sol\":2790:2802  _msgSender() */\n      jump\t// in\n    tag_304:\n        /* \"@openzeppelin/contracts-upgradeable/access/OwnableUpgradeable.sol\":2763:2803  OwnableUnauthorizedAccount(_msgSender()) */\n      mload(0x40)\n      0x118cdaa700000000000000000000000000000000000000000000000000000000\n      dup2\n      mstore\n      0x04\n      add\n      tag_305\n      swap2\n      swap1\n      tag_40\n      jump\t// in\n    tag_305:\n      mload(0x40)\n      dup1\n      swap2\n      sub\n      swap1\n      revert\n        /* \"@openzeppelin/contracts-upgradeable/access/OwnableUpgradeable.sol\":2713:2814  if (owner() != _msgSender()) {... */\n    tag_303:\n        /* \"@openzeppelin/contracts-upgradeable/access/OwnableUpgradeable.sol\":2658:2820  function _checkOwner() internal view virtual {... */\n      jump\t// out\n        /* \"@openzeppelin/contracts-upgradeable/access/OwnableUpgradeable.sol\":3774:4022  function _transferOwnership(address newOwner) internal virtual {... */\n    tag_168:\n        /* \"@openzeppelin/contracts-upgradeable/access/OwnableUpgradeable.sol\":3847:3871  OwnableStorage storage $ */\n      0x00\n        /* \"@openzeppelin/contracts-upgradeable/access/OwnableUpgradeable.sol\":3874:3894  _getOwnableStorage() */\n      tag_307\n        /* \"@openzeppelin/contracts-upgradeable/access/OwnableUpgradeable.sol\":3874:3892  _getOwnableStorage */\n      tag_177\n        /* \"@openzeppelin/contracts-upgradeable/access/OwnableUpgradeable.sol\":3874:3894  _getOwnableStorage() */\n      jump\t// in\n    tag_307:\n        /* \"@openzeppelin/contracts-upgradeable/access/OwnableUpgradeable.sol\":3847:3894  OwnableStorage storage $ = _getOwnableStorage() */\n      swap1\n      pop\n        /* \"@openzeppelin/contracts-upgradeable/access/OwnableUpgradeable.sol\":3904:3920  address oldOwner */\n      0x00\n        /* \"@openzeppelin/contracts-upgradeable/access/OwnableUpgradeable.sol\":3923:3924  $ */\n      dup2\n        /* \"@openzeppelin/contracts-upgradeable/access/OwnableUpgradeable.sol\":3923:3931  $._owner */\n      0x00\n      add\n      0x00\n      swap1\n      sload\n      swap1\n      0x0100\n      exp\n      swap1\n      div\n      0xffffffffffffffffffffffffffffffffffffffff\n      and\n        /* \"@openzeppelin/contracts-upgradeable/access/OwnableUpgradeable.sol\":3904:3931  address oldOwner = $._owner */\n      swap1\n      pop\n        /* \"@openzeppelin/contracts-upgradeable/access/OwnableUpgradeable.sol\":3952:3960  newOwner */\n      dup3\n        /* \"@openzeppelin/contracts-upgradeable/access/OwnableUpgradeable.sol\":3941:3942  $ */\n      dup3\n        /* \"@openzeppelin/contracts-upgradeable/access/OwnableUpgradeable.sol\":3941:3949  $._owner */\n      0x00\n      add\n      0x00\n        /* \"@openzeppelin/contracts-upgradeable/access/OwnableUpgradeable.sol\":3941:3960  $._owner = newOwner */\n      0x0100\n      exp\n      dup2\n      sload\n      dup2\n      0xffffffffffffffffffffffffffffffffffffffff\n      mul\n      not\n      and\n      swap1\n      dup4\n      0xffffffffffffffffffffffffffffffffffffffff\n      and\n      mul\n      or\n      swap1\n      sstore\n      pop\n        /* \"@openzeppelin/contracts-upgradeable/access/OwnableUpgradeable.sol\":4006:4014  newOwner */\n      dup3\n        /* \"@openzeppelin/contracts-upgradeable/access/OwnableUpgradeable.sol\":3975:4015  OwnershipTransferred(oldOwner, newOwner) */\n      0xffffffffffffffffffffffffffffffffffffffff\n      and\n        /* \"@openzeppelin/contracts-upgradeable/access/OwnableUpgradeable.sol\":3996:4004  oldOwner */\n      dup2\n        /* \"@openzeppelin/contracts-upgradeable/access/OwnableUpgradeable.sol\":3975:4015  OwnershipTransferred(oldOwner, newOwner) */\n      0xffffffffffffffffffffffffffffffffffffffff\n      and\n      0x8be0079c531659141344cd1fd0a4f28419497f9722a3daafe3b4186f6b6457e0\n      mload(0x40)\n      mload(0x40)\n      dup1\n      swap2\n      sub\n      swap1\n      log3\n        /* \"@openzeppelin/contracts-upgradeable/access/OwnableUpgradeable.sol\":3837:4022  {... */\n      pop\n      pop\n        /* \"@openzeppelin/contracts-upgradeable/access/OwnableUpgradeable.sol\":3774:4022  function _transferOwnership(address newOwner) internal virtual {... */\n      pop\n      jump\t// out\n        /* \"@openzeppelin/contracts-upgradeable/access/OwnableUpgradeable.sol\":1192:1351  function _getOwnableStorage() private pure returns (OwnableStorage storage $) {... */\n    tag_177:\n        /* \"@openzeppelin/contracts-upgradeable/access/OwnableUpgradeable.sol\":1244:1268  OwnableStorage storage $ */\n      0x00\n        /* \"@openzeppelin/contracts-upgradeable/access/OwnableUpgradeable.sol\":1313:1335  OwnableStorageLocation */\n      0x9016d09d72d40fdae2fd8ceac6b6234c7706214fd39c1cd1e609a0528c199300\n        /* \"@openzeppelin/contracts-upgradeable/access/OwnableUpgradeable.sol\":1303:1335  $.slot := OwnableStorageLocation */\n      swap1\n      pop\n        /* \"@openzeppelin/contracts-upgradeable/access/OwnableUpgradeable.sol\":1192:1351  function _getOwnableStorage() private pure returns (OwnableStorage storage $) {... */\n      swap1\n      jump\t// out\n        /* \"@openzeppelin/contracts/token/ERC20/utils/SafeERC20.sol\":7738:8458  function _callOptionalReturn(IERC20 token, bytes memory data) private {... */\n    tag_281:\n        /* \"@openzeppelin/contracts/token/ERC20/utils/SafeERC20.sol\":7818:7836  uint256 returnSize */\n      0x00\n        /* \"@openzeppelin/contracts/token/ERC20/utils/SafeERC20.sol\":7846:7865  uint256 returnValue */\n      dup1\n        /* \"@openzeppelin/contracts/token/ERC20/utils/SafeERC20.sol\":7984:7988  0x20 */\n      0x20\n        /* \"@openzeppelin/contracts/token/ERC20/utils/SafeERC20.sol\":7981:7982  0 */\n      0x00\n        /* \"@openzeppelin/contracts/token/ERC20/utils/SafeERC20.sol\":7974:7978  data */\n      dup5\n        /* \"@openzeppelin/contracts/token/ERC20/utils/SafeERC20.sol\":7968:7979  mload(data) */\n      mload\n        /* \"@openzeppelin/contracts/token/ERC20/utils/SafeERC20.sol\":7961:7965  0x20 */\n      0x20\n        /* \"@openzeppelin/contracts/token/ERC20/utils/SafeERC20.sol\":7955:7959  data */\n      dup7\n        /* \"@openzeppelin/contracts/token/ERC20/utils/SafeERC20.sol\":7951:7966  add(data, 0x20) */\n      add\n        /* \"@openzeppelin/contracts/token/ERC20/utils/SafeERC20.sol\":7948:7949  0 */\n      0x00\n        /* \"@openzeppelin/contracts/token/ERC20/utils/SafeERC20.sol\":7941:7946  token */\n      dup9\n        /* \"@openzeppelin/contracts/token/ERC20/utils/SafeERC20.sol\":7934:7939  gas() */\n      gas\n        /* \"@openzeppelin/contracts/token/ERC20/utils/SafeERC20.sol\":7929:7989  call(gas(), token, 0, add(data, 0x20), mload(data), 0, 0x20) */\n      call\n        /* \"@openzeppelin/contracts/token/ERC20/utils/SafeERC20.sol\":8041:8048  success */\n      dup1\n        /* \"@openzeppelin/contracts/token/ERC20/utils/SafeERC20.sol\":8031:8207  if iszero(success) {... */\n      tag_310\n      jumpi\n        /* \"@openzeppelin/contracts/token/ERC20/utils/SafeERC20.sol\":8085:8089  0x40 */\n      0x40\n        /* \"@openzeppelin/contracts/token/ERC20/utils/SafeERC20.sol\":8079:8090  mload(0x40) */\n      mload\n        /* \"@openzeppelin/contracts/token/ERC20/utils/SafeERC20.sol\":8130:8146  returndatasize() */\n      returndatasize\n        /* \"@openzeppelin/contracts/token/ERC20/utils/SafeERC20.sol\":8127:8128  0 */\n      0x00\n        /* \"@openzeppelin/contracts/token/ERC20/utils/SafeERC20.sol\":8122:8125  ptr */\n      dup3\n        /* \"@openzeppelin/contracts/token/ERC20/utils/SafeERC20.sol\":8107:8147  returndatacopy(ptr, 0, returndatasize()) */\n      returndatacopy\n        /* \"@openzeppelin/contracts/token/ERC20/utils/SafeERC20.sol\":8176:8192  returndatasize() */\n      returndatasize\n        /* \"@openzeppelin/contracts/token/ERC20/utils/SafeERC20.sol\":8171:8174  ptr */\n      dup2\n        /* \"@openzeppelin/contracts/token/ERC20/utils/SafeERC20.sol\":8164:8193  revert(ptr, returndatasize()) */\n      revert\n        /* \"@openzeppelin/contracts/token/ERC20/utils/SafeERC20.sol\":8031:8207  if iszero(success) {... */\n    tag_310:\n        /* \"@openzeppelin/contracts/token/ERC20/utils/SafeERC20.sol\":8234:8250  returndatasize() */\n      returndatasize\n        /* \"@openzeppelin/contracts/token/ERC20/utils/SafeERC20.sol\":8220:8250  returnSize := returndatasize() */\n      swap3\n      pop\n        /* \"@openzeppelin/contracts/token/ERC20/utils/SafeERC20.sol\":8284:8285  0 */\n      0x00\n        /* \"@openzeppelin/contracts/token/ERC20/utils/SafeERC20.sol\":8278:8286  mload(0) */\n      mload\n        /* \"@openzeppelin/contracts/token/ERC20/utils/SafeERC20.sol\":8263:8286  returnValue := mload(0) */\n      swap2\n      pop\n        /* \"@openzeppelin/contracts/token/ERC20/utils/SafeERC20.sol\":7900:8296  {... */\n      pop\n        /* \"@openzeppelin/contracts/token/ERC20/utils/SafeERC20.sol\":8324:8325  0 */\n      0x00\n        /* \"@openzeppelin/contracts/token/ERC20/utils/SafeERC20.sol\":8310:8320  returnSize */\n      dup3\n        /* \"@openzeppelin/contracts/token/ERC20/utils/SafeERC20.sol\":8310:8325  returnSize == 0 */\n      eq\n        /* \"@openzeppelin/contracts/token/ERC20/utils/SafeERC20.sol\":8310:8378  returnSize == 0 ? address(token).code.length == 0 : returnValue != 1 */\n      tag_311\n      jumpi\n        /* \"@openzeppelin/contracts/token/ERC20/utils/SafeERC20.sol\":8377:8378  1 */\n      0x01\n        /* \"@openzeppelin/contracts/token/ERC20/utils/SafeERC20.sol\":8362:8373  returnValue */\n      dup2\n        /* \"@openzeppelin/contracts/token/ERC20/utils/SafeERC20.sol\":8362:8378  returnValue != 1 */\n      eq\n      iszero\n        /* \"@openzeppelin/contracts/token/ERC20/utils/SafeERC20.sol\":8310:8378  returnSize == 0 ? address(token).code.length == 0 : returnValue != 1 */\n      jump(tag_312)\n    tag_311:\n        /* \"@openzeppelin/contracts/token/ERC20/utils/SafeERC20.sol\":8358:8359  0 */\n      0x00\n        /* \"@openzeppelin/contracts/token/ERC20/utils/SafeERC20.sol\":8336:8341  token */\n      dup5\n        /* \"@openzeppelin/contracts/token/ERC20/utils/SafeERC20.sol\":8328:8354  address(token).code.length */\n      0xffffffffffffffffffffffffffffffffffffffff\n      and\n      extcodesize\n        /* \"@openzeppelin/contracts/token/ERC20/utils/SafeERC20.sol\":8328:8359  address(token).code.length == 0 */\n      eq\n        /* \"@openzeppelin/contracts/token/ERC20/utils/SafeERC20.sol\":8310:8378  returnSize == 0 ? address(token).code.length == 0 : returnValue != 1 */\n    tag_312:\n        /* \"@openzeppelin/contracts/token/ERC20/utils/SafeERC20.sol\":8306:8452  if (returnSize == 0 ? address(token).code.length == 0 : returnValue != 1) {... */\n      iszero\n      tag_313\n      jumpi\n        /* \"@openzeppelin/contracts/token/ERC20/utils/SafeERC20.sol\":8434:8439  token */\n      dup4\n        /* \"@openzeppelin/contracts/token/ERC20/utils/SafeERC20.sol\":8401:8441  SafeERC20FailedOperation(address(token)) */\n      mload(0x40)\n      0x5274afe700000000000000000000000000000000000000000000000000000000\n      dup2\n      mstore\n      0x04\n      add\n      tag_314\n      swap2\n      swap1\n      tag_40\n      jump\t// in\n    tag_314:\n      mload(0x40)\n      dup1\n      swap2\n      sub\n      swap1\n      revert\n        /* \"@openzeppelin/contracts/token/ERC20/utils/SafeERC20.sol\":8306:8452  if (returnSize == 0 ? address(token).code.length == 0 : returnValue != 1) {... */\n    tag_313:\n        /* \"@openzeppelin/contracts/token/ERC20/utils/SafeERC20.sol\":7808:8458  {... */\n      pop\n      pop\n        /* \"@openzeppelin/contracts/token/ERC20/utils/SafeERC20.sol\":7738:8458  function _callOptionalReturn(IERC20 token, bytes memory data) private {... */\n      pop\n      pop\n      jump\t// out\n        /* \"@openzeppelin/contracts-upgradeable/proxy/utils/Initializable.sol\":7084:7225  function _checkInitializing() internal view virtual {... */\n    tag_290:\n        /* \"@openzeppelin/contracts-upgradeable/proxy/utils/Initializable.sol\":7151:7168  _isInitializing() */\n      tag_316\n        /* \"@openzeppelin/contracts-upgradeable/proxy/utils/Initializable.sol\":7151:7166  _isInitializing */\n      tag_317\n        /* \"@openzeppelin/contracts-upgradeable/proxy/utils/Initializable.sol\":7151:7168  _isInitializing() */\n      jump\t// in\n    tag_316:\n        /* \"@openzeppelin/contracts-upgradeable/proxy/utils/Initializable.sol\":7146:7219  if (!_isInitializing()) {... */\n      tag_318\n      jumpi\n        /* \"@openzeppelin/contracts-upgradeable/proxy/utils/Initializable.sol\":7191:7208  NotInitializing() */\n      mload(0x40)\n      0xd7e6bcf800000000000000000000000000000000000000000000000000000000\n      dup2\n      mstore\n      0x04\n      add\n      mload(0x40)\n      dup1\n      swap2\n      sub\n      swap1\n      revert\n        /* \"@openzeppelin/contracts-upgradeable/proxy/utils/Initializable.sol\":7146:7219  if (!_isInitializing()) {... */\n    tag_318:\n        /* \"@openzeppelin/contracts-upgradeable/proxy/utils/Initializable.sol\":7084:7225  function _checkInitializing() internal view virtual {... */\n      jump\t// out\n        /* \"@openzeppelin/contracts-upgradeable/access/OwnableUpgradeable.sol\":1980:2215  function __Ownable_init_unchained(address initialOwner) internal onlyInitializing {... */\n    tag_293:\n        /* \"@openzeppelin/contracts-upgradeable/proxy/utils/Initializable.sol\":6931:6951  _checkInitializing() */\n      tag_320\n        /* \"@openzeppelin/contracts-upgradeable/proxy/utils/Initializable.sol\":6931:6949  _checkInitializing */\n      tag_290\n        /* \"@openzeppelin/contracts-upgradeable/proxy/utils/Initializable.sol\":6931:6951  _checkInitializing() */\n      jump\t// in\n    tag_320:\n        /* \"@openzeppelin/contracts-upgradeable/access/OwnableUpgradeable.sol\":2100:2101  0 */\n      0x00\n        /* \"@openzeppelin/contracts-upgradeable/access/OwnableUpgradeable.sol\":2076:2102  initialOwner == address(0) */\n      0xffffffffffffffffffffffffffffffffffffffff\n      and\n        /* \"@openzeppelin/contracts-upgradeable/access/OwnableUpgradeable.sol\":2076:2088  initialOwner */\n      dup2\n        /* \"@openzeppelin/contracts-upgradeable/access/OwnableUpgradeable.sol\":2076:2102  initialOwner == address(0) */\n      0xffffffffffffffffffffffffffffffffffffffff\n      and\n      sub\n        /* \"@openzeppelin/contracts-upgradeable/access/OwnableUpgradeable.sol\":2072:2167  if (initialOwner == address(0)) {... */\n      tag_322\n      jumpi\n        /* \"@openzeppelin/contracts-upgradeable/access/OwnableUpgradeable.sol\":2153:2154  0 */\n      0x00\n        /* \"@openzeppelin/contracts-upgradeable/access/OwnableUpgradeable.sol\":2125:2156  OwnableInvalidOwner(address(0)) */\n      mload(0x40)\n      0x1e4fbdf700000000000000000000000000000000000000000000000000000000\n      dup2\n      mstore\n      0x04\n      add\n      tag_323\n      swap2\n      swap1\n      tag_40\n      jump\t// in\n    tag_323:\n      mload(0x40)\n      dup1\n      swap2\n      sub\n      swap1\n      revert\n        /* \"@openzeppelin/contracts-upgradeable/access/OwnableUpgradeable.sol\":2072:2167  if (initialOwner == address(0)) {... */\n    tag_322:\n        /* \"@openzeppelin/contracts-upgradeable/access/OwnableUpgradeable.sol\":2176:2208  _transferOwnership(initialOwner) */\n      tag_324\n        /* \"@openzeppelin/contracts-upgradeable/access/OwnableUpgradeable.sol\":2195:2207  initialOwner */\n      dup2\n        /* \"@openzeppelin/contracts-upgradeable/access/OwnableUpgradeable.sol\":2176:2194  _transferOwnership */\n      tag_168\n        /* \"@openzeppelin/contracts-upgradeable/access/OwnableUpgradeable.sol\":2176:2208  _transferOwnership(initialOwner) */\n      jump\t// in\n    tag_324:\n        /* \"@openzeppelin/contracts-upgradeable/access/OwnableUpgradeable.sol\":1980:2215  function __Ownable_init_unchained(address initialOwner) internal onlyInitializing {... */\n      pop\n      jump\t// out\n        /* \"@openzeppelin/contracts-upgradeable/security/ReentrancyGuardUpgradeable.sol\":2006:2115  function __ReentrancyGuard_init_unchained() internal onlyInitializing {... */\n    tag_298:\n        /* \"@openzeppelin/contracts-upgradeable/proxy/utils/Initializable.sol\":6931:6951  _checkInitializing() */\n      tag_326\n        /* \"@openzeppelin/contracts-upgradeable/proxy/utils/Initializable.sol\":6931:6949  _checkInitializing */\n      tag_290\n        /* \"@openzeppelin/contracts-upgradeable/proxy/utils/Initializable.sol\":6931:6951  _checkInitializing() */\n      jump\t// in\n    tag_326:\n        /* \"@openzeppelin/contracts-upgradeable/security/ReentrancyGuardUpgradeable.sol\":1808:1809  1 */\n      0x01\n        /* \"@openzeppelin/contracts-upgradeable/security/ReentrancyGuardUpgradeable.sol\":2086:2093  _status */\n      0x00\n        /* \"@openzeppelin/contracts-upgradeable/security/ReentrancyGuardUpgradeable.sol\":2086:2108  _status = _NOT_ENTERED */\n      dup2\n      swap1\n      sstore\n      pop\n        /* \"@openzeppelin/contracts-upgradeable/security/ReentrancyGuardUpgradeable.sol\":2006:2115  function __ReentrancyGuard_init_unchained() internal onlyInitializing {... */\n      jump\t// out\n        /* \"@openzeppelin/contracts-upgradeable/utils/ContextUpgradeable.sol\":887:983  function _msgSender() internal view virtual returns (address) {... */\n    tag_301:\n        /* \"@openzeppelin/contracts-upgradeable/utils/ContextUpgradeable.sol\":940:947  address */\n      0x00\n        /* \"@openzeppelin/contracts-upgradeable/utils/ContextUpgradeable.sol\":966:976  msg.sender */\n      caller\n        /* \"@openzeppelin/contracts-upgradeable/utils/ContextUpgradeable.sol\":959:976  return msg.sender */\n      swap1\n      pop\n        /* \"@openzeppelin/contracts-upgradeable/utils/ContextUpgradeable.sol\":887:983  function _msgSender() internal view virtual returns (address) {... */\n      swap1\n      jump\t// out\n        /* \"@openzeppelin/contracts-upgradeable/proxy/utils/Initializable.sol\":8487:8607  function _isInitializing() internal view returns (bool) {... */\n    tag_317:\n        /* \"@openzeppelin/contracts-upgradeable/proxy/utils/Initializable.sol\":8537:8541  bool */\n      0x00\n        /* \"@openzeppelin/contracts-upgradeable/proxy/utils/Initializable.sol\":8560:8586  _getInitializableStorage() */\n      tag_330\n        /* \"@openzeppelin/contracts-upgradeable/proxy/utils/Initializable.sol\":8560:8584  _getInitializableStorage */\n      tag_149\n        /* \"@openzeppelin/contracts-upgradeable/proxy/utils/Initializable.sol\":8560:8586  _getInitializableStorage() */\n      jump\t// in\n    tag_330:\n        /* \"@openzeppelin/contracts-upgradeable/proxy/utils/Initializable.sol\":8560:8600  _getInitializableStorage()._initializing */\n      0x00\n      add\n      0x08\n      swap1\n      sload\n      swap1\n      0x0100\n      exp\n      swap1\n      div\n      0xff\n      and\n        /* \"@openzeppelin/contracts-upgradeable/proxy/utils/Initializable.sol\":8553:8600  return _getInitializableStorage()._initializing */\n      swap1\n      pop\n        /* \"@openzeppelin/contracts-upgradeable/proxy/utils/Initializable.sol\":8487:8607  function _isInitializing() internal view returns (bool) {... */\n      swap1\n      jump\t// out\n        /* \"#utility.yul\":7:84   */\n    tag_331:\n        /* \"#utility.yul\":44:51   */\n      0x00\n        /* \"#utility.yul\":73:78   */\n      dup2\n        /* \"#utility.yul\":62:78   */\n      swap1\n      pop\n        /* \"#utility.yul\":7:84   */\n      swap2\n      swap1\n      pop\n      jump\t// out\n        /* \"#utility.yul\":90:270   */\n    tag_332:\n        /* \"#utility.yul\":138:215   */\n      0x4e487b7100000000000000000000000000000000000000000000000000000000\n        /* \"#utility.yul\":135:136   */\n      0x00\n        /* \"#utility.yul\":128:216   */\n      mstore\n        /* \"#utility.yul\":235:239   */\n      0x11\n        /* \"#utility.yul\":232:233   */\n      0x04\n        /* \"#utility.yul\":225:240   */\n      mstore\n        /* \"#utility.yul\":259:263   */\n      0x24\n        /* \"#utility.yul\":256:257   */\n      0x00\n        /* \"#utility.yul\":249:264   */\n      revert\n        /* \"#utility.yul\":276:467   */\n    tag_24:\n        /* \"#utility.yul\":316:319   */\n      0x00\n        /* \"#utility.yul\":335:355   */\n      tag_427\n        /* \"#utility.yul\":353:354   */\n      dup3\n        /* \"#utility.yul\":335:355   */\n      tag_331\n      jump\t// in\n    tag_427:\n        /* \"#utility.yul\":330:355   */\n      swap2\n      pop\n        /* \"#utility.yul\":369:389   */\n      tag_428\n        /* \"#utility.yul\":387:388   */\n      dup4\n        /* \"#utility.yul\":369:389   */\n      tag_331\n      jump\t// in\n    tag_428:\n        /* \"#utility.yul\":364:389   */\n      swap3\n      pop\n        /* \"#utility.yul\":412:413   */\n      dup3\n        /* \"#utility.yul\":409:410   */\n      dup3\n        /* \"#utility.yul\":405:414   */\n      add\n        /* \"#utility.yul\":398:414   */\n      swap1\n      pop\n        /* \"#utility.yul\":433:436   */\n      dup1\n        /* \"#utility.yul\":430:431   */\n      dup3\n        /* \"#utility.yul\":427:437   */\n      gt\n        /* \"#utility.yul\":424:460   */\n      iszero\n      tag_429\n      jumpi\n        /* \"#utility.yul\":440:458   */\n      tag_430\n      tag_332\n      jump\t// in\n    tag_430:\n        /* \"#utility.yul\":424:460   */\n    tag_429:\n        /* \"#utility.yul\":276:467   */\n      swap3\n      swap2\n      pop\n      pop\n      jump\t// out\n        /* \"#utility.yul\":473:591   */\n    tag_333:\n        /* \"#utility.yul\":560:584   */\n      tag_432\n        /* \"#utility.yul\":578:583   */\n      dup2\n        /* \"#utility.yul\":560:584   */\n      tag_331\n      jump\t// in\n    tag_432:\n        /* \"#utility.yul\":555:558   */\n      dup3\n        /* \"#utility.yul\":548:585   */\n      mstore\n        /* \"#utility.yul\":473:591   */\n      pop\n      pop\n      jump\t// out\n        /* \"#utility.yul\":597:819   */\n    tag_26:\n        /* \"#utility.yul\":690:694   */\n      0x00\n        /* \"#utility.yul\":728:730   */\n      0x20\n        /* \"#utility.yul\":717:726   */\n      dup3\n        /* \"#utility.yul\":713:731   */\n      add\n        /* \"#utility.yul\":705:731   */\n      swap1\n      pop\n        /* \"#utility.yul\":741:812   */\n      tag_434\n        /* \"#utility.yul\":809:810   */\n      0x00\n        /* \"#utility.yul\":798:807   */\n      dup4\n        /* \"#utility.yul\":794:811   */\n      add\n        /* \"#utility.yul\":785:791   */\n      dup5\n        /* \"#utility.yul\":741:812   */\n      tag_333\n      jump\t// in\n    tag_434:\n        /* \"#utility.yul\":597:819   */\n      swap3\n      swap2\n      pop\n      pop\n      jump\t// out\n        /* \"#utility.yul\":825:994   */\n    tag_334:\n        /* \"#utility.yul\":909:920   */\n      0x00\n        /* \"#utility.yul\":943:949   */\n      dup3\n        /* \"#utility.yul\":938:941   */\n      dup3\n        /* \"#utility.yul\":931:950   */\n      mstore\n        /* \"#utility.yul\":983:987   */\n      0x20\n        /* \"#utility.yul\":978:981   */\n      dup3\n        /* \"#utility.yul\":974:988   */\n      add\n        /* \"#utility.yul\":959:988   */\n      swap1\n      pop\n        /* \"#utility.yul\":825:994   */\n      swap3\n      swap2\n      pop\n      pop\n      jump\t// out\n        /* \"#utility.yul\":1000:1174   */\n    tag_335:\n        /* \"#utility.yul\":1140:1166   */\n      0x537765657473706f743a20757365206465706f73697428290000000000000000\n        /* \"#utility.yul\":1136:1137   */\n      0x00\n        /* \"#utility.yul\":1128:1134   */\n      dup3\n        /* \"#utility.yul\":1124:1138   */\n      add\n        /* \"#utility.yul\":1117:1167   */\n      mstore\n        /* \"#utility.yul\":1000:1174   */\n      pop\n      jump\t// out\n        /* \"#utility.yul\":1180:1546   */\n    tag_336:\n        /* \"#utility.yul\":1322:1325   */\n      0x00\n        /* \"#utility.yul\":1343:1410   */\n      tag_438\n        /* \"#utility.yul\":1407:1409   */\n      0x18\n        /* \"#utility.yul\":1402:1405   */\n      dup4\n        /* \"#utility.yul\":1343:1410   */\n      tag_334\n      jump\t// in\n    tag_438:\n        /* \"#utility.yul\":1336:1410   */\n      swap2\n      pop\n        /* \"#utility.yul\":1419:1512   */\n      tag_439\n        /* \"#utility.yul\":1508:1511   */\n      dup3\n        /* \"#utility.yul\":1419:1512   */\n      tag_335\n      jump\t// in\n    tag_439:\n        /* \"#utility.yul\":1537:1539   */\n      0x20\n        /* \"#utility.yul\":1532:1535   */\n      dup3\n        /* \"#utility.yul\":1528:1540   */\n      add\n        /* \"#utility.yul\":1521:1540   */\n      swap1\n      pop\n        /* \"#utility.yul\":1180:1546   */\n      swap2\n      swap1\n      pop\n      jump\t// out\n        /* \"#utility.yul\":1552:1971   */\n    tag_30:\n        /* \"#utility.yul\":1718:1722   */\n      0x00\n        /* \"#utility.yul\":1756:1758   */\n      0x20\n        /* \"#utility.yul\":1745:1754   */\n      dup3\n        /* \"#utility.yul\":1741:1759   */\n      add\n        /* \"#utility.yul\":1733:1759   */\n      swap1\n      pop\n        /* \"#utility.yul\":1805:1814   */\n      dup2\n        /* \"#utility.yul\":1799:1803   */\n      dup2\n        /* \"#utility.yul\":1795:1815   */\n      sub\n        /* \"#utility.yul\":1791:1792   */\n      0x00\n        /* \"#utility.yul\":1780:1789   */\n      dup4\n        /* \"#utility.yul\":1776:1793   */\n      add\n        /* \"#utility.yul\":1769:1816   */\n      mstore\n        /* \"#utility.yul\":1833:1964   */\n      tag_441\n        /* \"#utility.yul\":1959:1963   */\n      dup2\n        /* \"#utility.yul\":1833:1964   */\n      tag_336\n      jump\t// in\n    tag_441:\n        /* \"#utility.yul\":1825:1964   */\n      swap1\n      pop\n        /* \"#utility.yul\":1552:1971   */\n      swap2\n      swap1\n      pop\n      jump\t// out\n        /* \"#utility.yul\":1977:2052   */\n    tag_337:\n        /* \"#utility.yul\":2010:2016   */\n      0x00\n        /* \"#utility.yul\":2043:2045   */\n      0x40\n        /* \"#utility.yul\":2037:2046   */\n      mload\n        /* \"#utility.yul\":2027:2046   */\n      swap1\n      pop\n        /* \"#utility.yul\":1977:2052   */\n      swap1\n      jump\t// out\n        /* \"#utility.yul\":2058:2175   */\n    tag_338:\n        /* \"#utility.yul\":2167:2168   */\n      0x00\n        /* \"#utility.yul\":2164:2165   */\n      dup1\n        /* \"#utility.yul\":2157:2169   */\n      revert\n        /* \"#utility.yul\":2181:2298   */\n    tag_339:\n        /* \"#utility.yul\":2290:2291   */\n      0x00\n        /* \"#utility.yul\":2287:2288   */\n      dup1\n        /* \"#utility.yul\":2280:2292   */\n      revert\n        /* \"#utility.yul\":2304:2430   */\n    tag_340:\n        /* \"#utility.yul\":2341:2348   */\n      0x00\n        /* \"#utility.yul\":2381:2423   */\n      0xffffffffffffffffffffffffffffffffffffffff\n        /* \"#utility.yul\":2374:2379   */\n      dup3\n        /* \"#utility.yul\":2370:2424   */\n      and\n        /* \"#utility.yul\":2359:2424   */\n      swap1\n      pop\n        /* \"#utility.yul\":2304:2430   */\n      swap2\n      swap1\n      pop\n      jump\t// out\n        /* \"#utility.yul\":2436:2532   */\n    tag_341:\n        /* \"#utility.yul\":2473:2480   */\n      0x00\n        /* \"#utility.yul\":2502:2526   */\n      tag_447\n        /* \"#utility.yul\":2520:2525   */\n      dup3\n        /* \"#utility.yul\":2502:2526   */\n      tag_340\n      jump\t// in\n    tag_447:\n        /* \"#utility.yul\":2491:2526   */\n      swap1\n      pop\n        /* \"#utility.yul\":2436:2532   */\n      swap2\n      swap1\n      pop\n      jump\t// out\n        /* \"#utility.yul\":2538:2660   */\n    tag_342:\n        /* \"#utility.yul\":2611:2635   */\n      tag_449\n        /* \"#utility.yul\":2629:2634   */\n      dup2\n        /* \"#utility.yul\":2611:2635   */\n      tag_341\n      jump\t// in\n    tag_449:\n        /* \"#utility.yul\":2604:2609   */\n      dup2\n        /* \"#utility.yul\":2601:2636   */\n      eq\n        /* \"#utility.yul\":2591:2654   */\n      tag_450\n      jumpi\n        /* \"#utility.yul\":2650:2651   */\n      0x00\n        /* \"#utility.yul\":2647:2648   */\n      dup1\n        /* \"#utility.yul\":2640:2652   */\n      revert\n        /* \"#utility.yul\":2591:2654   */\n    tag_450:\n        /* \"#utility.yul\":2538:2660   */\n      pop\n      jump\t// out\n        /* \"#utility.yul\":2666:2805   */\n    tag_343:\n        /* \"#utility.yul\":2712:2717   */\n      0x00\n        /* \"#utility.yul\":2750:2756   */\n      dup2\n        /* \"#utility.yul\":2737:2757   */\n      calldataload\n        /* \"#utility.yul\":2728:2757   */\n      swap1\n      pop\n        /* \"#utility.yul\":2766:2799   */\n      tag_452\n        /* \"#utility.yul\":2793:2798   */\n      dup2\n        /* \"#utility.yul\":2766:2799   */\n      tag_342\n      jump\t// in\n    tag_452:\n        /* \"#utility.yul\":2666:2805   */\n      swap3\n      swap2\n      pop\n      pop\n      jump\t// out\n        /* \"#utility.yul\":2811:3140   */\n    tag_34:\n        /* \"#utility.yul\":2870:2876   */\n      0x00\n        /* \"#utility.yul\":2919:2921   */\n      0x20\n        /* \"#utility.yul\":2907:2916   */\n      dup3\n        /* \"#utility.yul\":2898:2905   */\n      dup5\n        /* \"#utility.yul\":2894:2917   */\n      sub\n        /* \"#utility.yul\":2890:2922   */\n      slt\n        /* \"#utility.yul\":2887:3006   */\n      iszero\n      tag_454\n      jumpi\n        /* \"#utility.yul\":2925:3004   */\n      tag_455\n      tag_338\n      jump\t// in\n    tag_455:\n        /* \"#utility.yul\":2887:3006   */\n    tag_454:\n        /* \"#utility.yul\":3045:3046   */\n      0x00\n        /* \"#utility.yul\":3070:3123   */\n      tag_456\n        /* \"#utility.yul\":3115:3122   */\n      dup5\n        /* \"#utility.yul\":3106:3112   */\n      dup3\n        /* \"#utility.yul\":3095:3104   */\n      dup6\n        /* \"#utility.yul\":3091:3113   */\n      add\n        /* \"#utility.yul\":3070:3123   */\n      tag_343\n      jump\t// in\n    tag_456:\n        /* \"#utility.yul\":3060:3123   */\n      swap2\n      pop\n        /* \"#utility.yul\":3016:3133   */\n      pop\n        /* \"#utility.yul\":2811:3140   */\n      swap3\n      swap2\n      pop\n      pop\n      jump\t// out\n        /* \"#utility.yul\":3146:3264   */\n    tag_344:\n        /* \"#utility.yul\":3233:3257   */\n      tag_458\n        /* \"#utility.yul\":3251:3256   */\n      dup2\n        /* \"#utility.yul\":3233:3257   */\n      tag_341\n      jump\t// in\n    tag_458:\n        /* \"#utility.yul\":3228:3231   */\n      dup3\n        /* \"#utility.yul\":3221:3258   */\n      mstore\n        /* \"#utility.yul\":3146:3264   */\n      pop\n      pop\n      jump\t// out\n        /* \"#utility.yul\":3270:3492   */\n    tag_40:\n        /* \"#utility.yul\":3363:3367   */\n      0x00\n        /* \"#utility.yul\":3401:3403   */\n      0x20\n        /* \"#utility.yul\":3390:3399   */\n      dup3\n        /* \"#utility.yul\":3386:3404   */\n      add\n        /* \"#utility.yul\":3378:3404   */\n      swap1\n      pop\n        /* \"#utility.yul\":3414:3485   */\n      tag_460\n        /* \"#utility.yul\":3482:3483   */\n      0x00\n        /* \"#utility.yul\":3471:3480   */\n      dup4\n        /* \"#utility.yul\":3467:3484   */\n      add\n        /* \"#utility.yul\":3458:3464   */\n      dup5\n        /* \"#utility.yul\":3414:3485   */\n      tag_344\n      jump\t// in\n    tag_460:\n        /* \"#utility.yul\":3270:3492   */\n      swap3\n      swap2\n      pop\n      pop\n      jump\t// out\n        /* \"#utility.yul\":3498:3620   */\n    tag_345:\n        /* \"#utility.yul\":3571:3595   */\n      tag_462\n        /* \"#utility.yul\":3589:3594   */\n      dup2\n        /* \"#utility.yul\":3571:3595   */\n      tag_331\n      jump\t// in\n    tag_462:\n        /* \"#utility.yul\":3564:3569   */\n      dup2\n        /* \"#utility.yul\":3561:3596   */\n      eq\n        /* \"#utility.yul\":3551:3614   */\n      tag_463\n      jumpi\n        /* \"#utility.yul\":3610:3611   */\n      0x00\n        /* \"#utility.yul\":3607:3608   */\n      dup1\n        /* \"#utility.yul\":3600:3612   */\n      revert\n        /* \"#utility.yul\":3551:3614   */\n    tag_463:\n        /* \"#utility.yul\":3498:3620   */\n      pop\n      jump\t// out\n        /* \"#utility.yul\":3626:3765   */\n    tag_346:\n        /* \"#utility.yul\":3672:3677   */\n      0x00\n        /* \"#utility.yul\":3710:3716   */\n      dup2\n        /* \"#utility.yul\":3697:3717   */\n      calldataload\n        /* \"#utility.yul\":3688:3717   */\n      swap1\n      pop\n        /* \"#utility.yul\":3726:3759   */\n      tag_465\n        /* \"#utility.yul\":3753:3758   */\n      dup2\n        /* \"#utility.yul\":3726:3759   */\n      tag_345\n      jump\t// in\n    tag_465:\n        /* \"#utility.yul\":3626:3765   */\n      swap3\n      swap2\n      pop\n      pop\n      jump\t// out\n        /* \"#utility.yul\":3771:4245   */\n    tag_43:\n        /* \"#utility.yul\":3839:3845   */\n      0x00\n        /* \"#utility.yul\":3847:3853   */\n      dup1\n        /* \"#utility.yul\":3896:3898   */\n      0x40\n        /* \"#utility.yul\":3884:3893   */\n      dup4\n        /* \"#utility.yul\":3875:3882   */\n      dup6\n        /* \"#utility.yul\":3871:3894   */\n      sub\n        /* \"#utility.yul\":3867:3899   */\n      slt\n        /* \"#utility.yul\":3864:3983   */\n      iszero\n      tag_467\n      jumpi\n        /* \"#utility.yul\":3902:3981   */\n      tag_468\n      tag_338\n      jump\t// in\n    tag_468:\n        /* \"#utility.yul\":3864:3983   */\n    tag_467:\n        /* \"#utility.yul\":4022:4023   */\n      0x00\n        /* \"#utility.yul\":4047:4100   */\n      tag_469\n        /* \"#utility.yul\":4092:4099   */\n      dup6\n        /* \"#utility.yul\":4083:4089   */\n      dup3\n        /* \"#utility.yul\":4072:4081   */\n      dup7\n        /* \"#utility.yul\":4068:4090   */\n      add\n        /* \"#utility.yul\":4047:4100   */\n      tag_343\n      jump\t// in\n    tag_469:\n        /* \"#utility.yul\":4037:4100   */\n      swap3\n      pop\n        /* \"#utility.yul\":3993:4110   */\n      pop\n        /* \"#utility.yul\":4149:4151   */\n      0x20\n        /* \"#utility.yul\":4175:4228   */\n      tag_470\n        /* \"#utility.yul\":4220:4227   */\n      dup6\n        /* \"#utility.yul\":4211:4217   */\n      dup3\n        /* \"#utility.yul\":4200:4209   */\n      dup7\n        /* \"#utility.yul\":4196:4218   */\n      add\n        /* \"#utility.yul\":4175:4228   */\n      tag_346\n      jump\t// in\n    tag_470:\n        /* \"#utility.yul\":4165:4228   */\n      swap2\n      pop\n        /* \"#utility.yul\":4120:4238   */\n      pop\n        /* \"#utility.yul\":3771:4245   */\n      swap3\n      pop\n      swap3\n      swap1\n      pop\n      jump\t// out\n        /* \"#utility.yul\":4251:4725   */\n    tag_48:\n        /* \"#utility.yul\":4319:4325   */\n      0x00\n        /* \"#utility.yul\":4327:4333   */\n      dup1\n        /* \"#utility.yul\":4376:4378   */\n      0x40\n        /* \"#utility.yul\":4364:4373   */\n      dup4\n        /* \"#utility.yul\":4355:4362   */\n      dup6\n        /* \"#utility.yul\":4351:4374   */\n      sub\n        /* \"#utility.yul\":4347:4379   */\n      slt\n        /* \"#utility.yul\":4344:4463   */\n      iszero\n      tag_472\n      jumpi\n        /* \"#utility.yul\":4382:4461   */\n      tag_473\n      tag_338\n      jump\t// in\n    tag_473:\n        /* \"#utility.yul\":4344:4463   */\n    tag_472:\n        /* \"#utility.yul\":4502:4503   */\n      0x00\n        /* \"#utility.yul\":4527:4580   */\n      tag_474\n        /* \"#utility.yul\":4572:4579   */\n      dup6\n        /* \"#utility.yul\":4563:4569   */\n      dup3\n        /* \"#utility.yul\":4552:4561   */\n      dup7\n        /* \"#utility.yul\":4548:4570   */\n      add\n        /* \"#utility.yul\":4527:4580   */\n      tag_343\n      jump\t// in\n    tag_474:\n        /* \"#utility.yul\":4517:4580   */\n      swap3\n      pop\n        /* \"#utility.yul\":4473:4590   */\n      pop\n        /* \"#utility.yul\":4629:4631   */\n      0x20\n        /* \"#utility.yul\":4655:4708   */\n      tag_475\n        /* \"#utility.yul\":4700:4707   */\n      dup6\n        /* \"#utility.yul\":4691:4697   */\n      dup3\n        /* \"#utility.yul\":4680:4689   */\n      dup7\n        /* \"#utility.yul\":4676:4698   */\n      add\n        /* \"#utility.yul\":4655:4708   */\n      tag_343\n      jump\t// in\n    tag_475:\n        /* \"#utility.yul\":4645:4708   */\n      swap2\n      pop\n        /* \"#utility.yul\":4600:4718   */\n      pop\n        /* \"#utility.yul\":4251:4725   */\n      swap3\n      pop\n      swap3\n      swap1\n      pop\n      jump\t// out\n        /* \"#utility.yul\":4731:4791   */\n    tag_347:\n        /* \"#utility.yul\":4759:4762   */\n      0x00\n        /* \"#utility.yul\":4780:4785   */\n      dup2\n        /* \"#utility.yul\":4773:4785   */\n      swap1\n      pop\n        /* \"#utility.yul\":4731:4791   */\n      swap2\n      swap1\n      pop\n      jump\t// out\n        /* \"#utility.yul\":4797:4939   */\n    tag_348:\n        /* \"#utility.yul\":4847:4856   */\n      0x00\n        /* \"#utility.yul\":4880:4933   */\n      tag_478\n        /* \"#utility.yul\":4898:4932   */\n      tag_479\n        /* \"#utility.yul\":4907:4931   */\n      tag_480\n        /* \"#utility.yul\":4925:4930   */\n      dup5\n        /* \"#utility.yul\":4907:4931   */\n      tag_340\n      jump\t// in\n    tag_480:\n        /* \"#utility.yul\":4898:4932   */\n      tag_347\n      jump\t// in\n    tag_479:\n        /* \"#utility.yul\":4880:4933   */\n      tag_340\n      jump\t// in\n    tag_478:\n        /* \"#utility.yul\":4867:4933   */\n      swap1\n      pop\n        /* \"#utility.yul\":4797:4939   */\n      swap2\n      swap1\n      pop\n      jump\t// out\n        /* \"#utility.yul\":4945:5071   */\n    tag_349:\n        /* \"#utility.yul\":4995:5004   */\n      0x00\n        /* \"#utility.yul\":5028:5065   */\n      tag_482\n        /* \"#utility.yul\":5059:5064   */\n      dup3\n        /* \"#utility.yul\":5028:5065   */\n      tag_348\n      jump\t// in\n    tag_482:\n        /* \"#utility.yul\":5015:5065   */\n      swap1\n      pop\n        /* \"#utility.yul\":4945:5071   */\n      swap2\n      swap1\n      pop\n      jump\t// out\n        /* \"#utility.yul\":5077:5219   */\n    tag_350:\n        /* \"#utility.yul\":5143:5152   */\n      0x00\n        /* \"#utility.yul\":5176:5213   */\n      tag_484\n        /* \"#utility.yul\":5207:5212   */\n      dup3\n        /* \"#utility.yul\":5176:5213   */\n      tag_349\n      jump\t// in\n    tag_484:\n        /* \"#utility.yul\":5163:5213   */\n      swap1\n      pop\n        /* \"#utility.yul\":5077:5219   */\n      swap2\n      swap1\n      pop\n      jump\t// out\n        /* \"#utility.yul\":5225:5388   */\n    tag_351:\n        /* \"#utility.yul\":5328:5381   */\n      tag_486\n        /* \"#utility.yul\":5375:5380   */\n      dup2\n        /* \"#utility.yul\":5328:5381   */\n      tag_350\n      jump\t// in\n    tag_486:\n        /* \"#utility.yul\":5323:5326   */\n      dup3\n        /* \"#utility.yul\":5316:5382   */\n      mstore\n        /* \"#utility.yul\":5225:5388   */\n      pop\n      pop\n      jump\t// out\n        /* \"#utility.yul\":5394:5648   */\n    tag_57:\n        /* \"#utility.yul\":5503:5507   */\n      0x00\n        /* \"#utility.yul\":5541:5543   */\n      0x20\n        /* \"#utility.yul\":5530:5539   */\n      dup3\n        /* \"#utility.yul\":5526:5544   */\n      add\n        /* \"#utility.yul\":5518:5544   */\n      swap1\n      pop\n        /* \"#utility.yul\":5554:5641   */\n      tag_488\n        /* \"#utility.yul\":5638:5639   */\n      0x00\n        /* \"#utility.yul\":5627:5636   */\n      dup4\n        /* \"#utility.yul\":5623:5640   */\n      add\n        /* \"#utility.yul\":5614:5620   */\n      dup5\n        /* \"#utility.yul\":5554:5641   */\n      tag_351\n      jump\t// in\n    tag_488:\n        /* \"#utility.yul\":5394:5648   */\n      swap3\n      swap2\n      pop\n      pop\n      jump\t// out\n        /* \"#utility.yul\":5654:5755   */\n    tag_352:\n        /* \"#utility.yul\":5690:5697   */\n      0x00\n        /* \"#utility.yul\":5730:5748   */\n      0xffffffffffffffff\n        /* \"#utility.yul\":5723:5728   */\n      dup3\n        /* \"#utility.yul\":5719:5749   */\n      and\n        /* \"#utility.yul\":5708:5749   */\n      swap1\n      pop\n        /* \"#utility.yul\":5654:5755   */\n      swap2\n      swap1\n      pop\n      jump\t// out\n        /* \"#utility.yul\":5761:5876   */\n    tag_353:\n        /* \"#utility.yul\":5846:5869   */\n      tag_491\n        /* \"#utility.yul\":5863:5868   */\n      dup2\n        /* \"#utility.yul\":5846:5869   */\n      tag_352\n      jump\t// in\n    tag_491:\n        /* \"#utility.yul\":5841:5844   */\n      dup3\n        /* \"#utility.yul\":5834:5870   */\n      mstore\n        /* \"#utility.yul\":5761:5876   */\n      pop\n      pop\n      jump\t// out\n        /* \"#utility.yul\":5882:5981   */\n    tag_354:\n        /* \"#utility.yul\":5934:5940   */\n      0x00\n        /* \"#utility.yul\":5968:5973   */\n      dup2\n        /* \"#utility.yul\":5962:5974   */\n      mload\n        /* \"#utility.yul\":5952:5974   */\n      swap1\n      pop\n        /* \"#utility.yul\":5882:5981   */\n      swap2\n      swap1\n      pop\n      jump\t// out\n        /* \"#utility.yul\":5987:6235   */\n    tag_355:\n        /* \"#utility.yul\":6069:6070   */\n      0x00\n        /* \"#utility.yul\":6079:6192   */\n    tag_494:\n        /* \"#utility.yul\":6093:6099   */\n      dup4\n        /* \"#utility.yul\":6090:6091   */\n      dup2\n        /* \"#utility.yul\":6087:6100   */\n      lt\n        /* \"#utility.yul\":6079:6192   */\n      iszero\n      tag_496\n      jumpi\n        /* \"#utility.yul\":6178:6179   */\n      dup1\n        /* \"#utility.yul\":6173:6176   */\n      dup3\n        /* \"#utility.yul\":6169:6180   */\n      add\n        /* \"#utility.yul\":6163:6181   */\n      mload\n        /* \"#utility.yul\":6159:6160   */\n      dup2\n        /* \"#utility.yul\":6154:6157   */\n      dup5\n        /* \"#utility.yul\":6150:6161   */\n      add\n        /* \"#utility.yul\":6143:6182   */\n      mstore\n        /* \"#utility.yul\":6115:6117   */\n      0x20\n        /* \"#utility.yul\":6112:6113   */\n      dup2\n        /* \"#utility.yul\":6108:6118   */\n      add\n        /* \"#utility.yul\":6103:6118   */\n      swap1\n      pop\n        /* \"#utility.yul\":6079:6192   */\n      jump(tag_494)\n    tag_496:\n        /* \"#utility.yul\":6226:6227   */\n      0x00\n        /* \"#utility.yul\":6217:6223   */\n      dup5\n        /* \"#utility.yul\":6212:6215   */\n      dup5\n        /* \"#utility.yul\":6208:6224   */\n      add\n        /* \"#utility.yul\":6201:6228   */\n      mstore\n        /* \"#utility.yul\":6049:6235   */\n      pop\n        /* \"#utility.yul\":5987:6235   */\n      pop\n      pop\n      pop\n      jump\t// out\n        /* \"#utility.yul\":6241:6343   */\n    tag_356:\n        /* \"#utility.yul\":6282:6288   */\n      0x00\n        /* \"#utility.yul\":6333:6335   */\n      0x1f\n        /* \"#utility.yul\":6329:6336   */\n      not\n        /* \"#utility.yul\":6324:6326   */\n      0x1f\n        /* \"#utility.yul\":6317:6322   */\n      dup4\n        /* \"#utility.yul\":6313:6327   */\n      add\n        /* \"#utility.yul\":6309:6337   */\n      and\n        /* \"#utility.yul\":6299:6337   */\n      swap1\n      pop\n        /* \"#utility.yul\":6241:6343   */\n      swap2\n      swap1\n      pop\n      jump\t// out\n        /* \"#utility.yul\":6349:6726   */\n    tag_357:\n        /* \"#utility.yul\":6437:6440   */\n      0x00\n        /* \"#utility.yul\":6465:6504   */\n      tag_499\n        /* \"#utility.yul\":6498:6503   */\n      dup3\n        /* \"#utility.yul\":6465:6504   */\n      tag_354\n      jump\t// in\n    tag_499:\n        /* \"#utility.yul\":6520:6591   */\n      tag_500\n        /* \"#utility.yul\":6584:6590   */\n      dup2\n        /* \"#utility.yul\":6579:6582   */\n      dup6\n        /* \"#utility.yul\":6520:6591   */\n      tag_334\n      jump\t// in\n    tag_500:\n        /* \"#utility.yul\":6513:6591   */\n      swap4\n      pop\n        /* \"#utility.yul\":6600:6665   */\n      tag_501\n        /* \"#utility.yul\":6658:6664   */\n      dup2\n        /* \"#utility.yul\":6653:6656   */\n      dup6\n        /* \"#utility.yul\":6646:6650   */\n      0x20\n        /* \"#utility.yul\":6639:6644   */\n      dup7\n        /* \"#utility.yul\":6635:6651   */\n      add\n        /* \"#utility.yul\":6600:6665   */\n      tag_355\n      jump\t// in\n    tag_501:\n        /* \"#utility.yul\":6690:6719   */\n      tag_502\n        /* \"#utility.yul\":6712:6718   */\n      dup2\n        /* \"#utility.yul\":6690:6719   */\n      tag_356\n      jump\t// in\n    tag_502:\n        /* \"#utility.yul\":6685:6688   */\n      dup5\n        /* \"#utility.yul\":6681:6720   */\n      add\n        /* \"#utility.yul\":6674:6720   */\n      swap2\n      pop\n        /* \"#utility.yul\":6441:6726   */\n      pop\n        /* \"#utility.yul\":6349:6726   */\n      swap3\n      swap2\n      pop\n      pop\n      jump\t// out\n        /* \"#utility.yul\":6732:7257   */\n    tag_62:\n        /* \"#utility.yul\":6897:6901   */\n      0x00\n        /* \"#utility.yul\":6935:6937   */\n      0x60\n        /* \"#utility.yul\":6924:6933   */\n      dup3\n        /* \"#utility.yul\":6920:6938   */\n      add\n        /* \"#utility.yul\":6912:6938   */\n      swap1\n      pop\n        /* \"#utility.yul\":6948:7017   */\n      tag_504\n        /* \"#utility.yul\":7014:7015   */\n      0x00\n        /* \"#utility.yul\":7003:7012   */\n      dup4\n        /* \"#utility.yul\":6999:7016   */\n      add\n        /* \"#utility.yul\":6990:6996   */\n      dup7\n        /* \"#utility.yul\":6948:7017   */\n      tag_353\n      jump\t// in\n    tag_504:\n        /* \"#utility.yul\":7027:7097   */\n      tag_505\n        /* \"#utility.yul\":7093:7095   */\n      0x20\n        /* \"#utility.yul\":7082:7091   */\n      dup4\n        /* \"#utility.yul\":7078:7096   */\n      add\n        /* \"#utility.yul\":7069:7075   */\n      dup6\n        /* \"#utility.yul\":7027:7097   */\n      tag_353\n      jump\t// in\n    tag_505:\n        /* \"#utility.yul\":7144:7153   */\n      dup2\n        /* \"#utility.yul\":7138:7142   */\n      dup2\n        /* \"#utility.yul\":7134:7154   */\n      sub\n        /* \"#utility.yul\":7129:7131   */\n      0x40\n        /* \"#utility.yul\":7118:7127   */\n      dup4\n        /* \"#utility.yul\":7114:7132   */\n      add\n        /* \"#utility.yul\":7107:7155   */\n      mstore\n        /* \"#utility.yul\":7172:7250   */\n      tag_506\n        /* \"#utility.yul\":7245:7249   */\n      dup2\n        /* \"#utility.yul\":7236:7242   */\n      dup5\n        /* \"#utility.yul\":7172:7250   */\n      tag_357\n      jump\t// in\n    tag_506:\n        /* \"#utility.yul\":7164:7250   */\n      swap1\n      pop\n        /* \"#utility.yul\":6732:7257   */\n      swap5\n      swap4\n      pop\n      pop\n      pop\n      pop\n      jump\t// out\n        /* \"#utility.yul\":7263:7383   */\n    tag_358:\n        /* \"#utility.yul\":7335:7358   */\n      tag_508\n        /* \"#utility.yul\":7352:7357   */\n      dup2\n        /* \"#utility.yul\":7335:7358   */\n      tag_352\n      jump\t// in\n    tag_508:\n        /* \"#utility.yul\":7328:7333   */\n      dup2\n        /* \"#utility.yul\":7325:7359   */\n      eq\n        /* \"#utility.yul\":7315:7377   */\n      tag_509\n      jumpi\n        /* \"#utility.yul\":7373:7374   */\n      0x00\n        /* \"#utility.yul\":7370:7371   */\n      dup1\n        /* \"#utility.yul\":7363:7375   */\n      revert\n        /* \"#utility.yul\":7315:7377   */\n    tag_509:\n        /* \"#utility.yul\":7263:7383   */\n      pop\n      jump\t// out\n        /* \"#utility.yul\":7389:7526   */\n    tag_359:\n        /* \"#utility.yul\":7434:7439   */\n      0x00\n        /* \"#utility.yul\":7472:7478   */\n      dup2\n        /* \"#utility.yul\":7459:7479   */\n      calldataload\n        /* \"#utility.yul\":7450:7479   */\n      swap1\n      pop\n        /* \"#utility.yul\":7488:7520   */\n      tag_511\n        /* \"#utility.yul\":7514:7519   */\n      dup2\n        /* \"#utility.yul\":7488:7520   */\n      tag_358\n      jump\t// in\n    tag_511:\n        /* \"#utility.yul\":7389:7526   */\n      swap3\n      swap2\n      pop\n      pop\n      jump\t// out\n        /* \"#utility.yul\":7532:7649   */\n    tag_360:\n        /* \"#utility.yul\":7641:7642   */\n      0x00\n        /* \"#utility.yul\":7638:7639   */\n      dup1\n        /* \"#utility.yul\":7631:7643   */\n      revert\n        /* \"#utility.yul\":7655:7772   */\n    tag_361:\n        /* \"#utility.yul\":7764:7765   */\n      0x00\n        /* \"#utility.yul\":7761:7762   */\n      dup1\n        /* \"#utility.yul\":7754:7766   */\n      revert\n        /* \"#utility.yul\":7778:7958   */\n    tag_362:\n        /* \"#utility.yul\":7826:7903   */\n      0x4e487b7100000000000000000000000000000000000000000000000000000000\n        /* \"#utility.yul\":7823:7824   */\n      0x00\n        /* \"#utility.yul\":7816:7904   */\n      mstore\n        /* \"#utility.yul\":7923:7927   */\n      0x41\n        /* \"#utility.yul\":7920:7921   */\n      0x04\n        /* \"#utility.yul\":7913:7928   */\n      mstore\n        /* \"#utility.yul\":7947:7951   */\n      0x24\n        /* \"#utility.yul\":7944:7945   */\n      0x00\n        /* \"#utility.yul\":7937:7952   */\n      revert\n        /* \"#utility.yul\":7964:8245   */\n    tag_363:\n        /* \"#utility.yul\":8047:8074   */\n      tag_516\n        /* \"#utility.yul\":8069:8073   */\n      dup3\n        /* \"#utility.yul\":8047:8074   */\n      tag_356\n      jump\t// in\n    tag_516:\n        /* \"#utility.yul\":8039:8045   */\n      dup2\n        /* \"#utility.yul\":8035:8075   */\n      add\n        /* \"#utility.yul\":8177:8183   */\n      dup2\n        /* \"#utility.yul\":8165:8175   */\n      dup2\n        /* \"#utility.yul\":8162:8184   */\n      lt\n        /* \"#utility.yul\":8141:8159   */\n      0xffffffffffffffff\n        /* \"#utility.yul\":8129:8139   */\n      dup3\n        /* \"#utility.yul\":8126:8160   */\n      gt\n        /* \"#utility.yul\":8123:8185   */\n      or\n        /* \"#utility.yul\":8120:8208   */\n      iszero\n      tag_517\n      jumpi\n        /* \"#utility.yul\":8188:8206   */\n      tag_518\n      tag_362\n      jump\t// in\n    tag_518:\n        /* \"#utility.yul\":8120:8208   */\n    tag_517:\n        /* \"#utility.yul\":8228:8238   */\n      dup1\n        /* \"#utility.yul\":8224:8226   */\n      0x40\n        /* \"#utility.yul\":8217:8239   */\n      mstore\n        /* \"#utility.yul\":8007:8245   */\n      pop\n        /* \"#utility.yul\":7964:8245   */\n      pop\n      pop\n      jump\t// out\n        /* \"#utility.yul\":8251:8380   */\n    tag_364:\n        /* \"#utility.yul\":8285:8291   */\n      0x00\n        /* \"#utility.yul\":8312:8332   */\n      tag_520\n      tag_337\n      jump\t// in\n    tag_520:\n        /* \"#utility.yul\":8302:8332   */\n      swap1\n      pop\n        /* \"#utility.yul\":8341:8374   */\n      tag_521\n        /* \"#utility.yul\":8369:8373   */\n      dup3\n        /* \"#utility.yul\":8361:8367   */\n      dup3\n        /* \"#utility.yul\":8341:8374   */\n      tag_363\n      jump\t// in\n    tag_521:\n        /* \"#utility.yul\":8251:8380   */\n      swap2\n      swap1\n      pop\n      jump\t// out\n        /* \"#utility.yul\":8386:8694   */\n    tag_365:\n        /* \"#utility.yul\":8448:8452   */\n      0x00\n        /* \"#utility.yul\":8538:8556   */\n      0xffffffffffffffff\n        /* \"#utility.yul\":8530:8536   */\n      dup3\n        /* \"#utility.yul\":8527:8557   */\n      gt\n        /* \"#utility.yul\":8524:8580   */\n      iszero\n      tag_523\n      jumpi\n        /* \"#utility.yul\":8560:8578   */\n      tag_524\n      tag_362\n      jump\t// in\n    tag_524:\n        /* \"#utility.yul\":8524:8580   */\n    tag_523:\n        /* \"#utility.yul\":8598:8627   */\n      tag_525\n        /* \"#utility.yul\":8620:8626   */\n      dup3\n        /* \"#utility.yul\":8598:8627   */\n      tag_356\n      jump\t// in\n    tag_525:\n        /* \"#utility.yul\":8590:8627   */\n      swap1\n      pop\n        /* \"#utility.yul\":8682:8686   */\n      0x20\n        /* \"#utility.yul\":8676:8680   */\n      dup2\n        /* \"#utility.yul\":8672:8687   */\n      add\n        /* \"#utility.yul\":8664:8687   */\n      swap1\n      pop\n        /* \"#utility.yul\":8386:8694   */\n      swap2\n      swap1\n      pop\n      jump\t// out\n        /* \"#utility.yul\":8700:8848   */\n    tag_366:\n        /* \"#utility.yul\":8798:8804   */\n      dup3\n        /* \"#utility.yul\":8793:8796   */\n      dup2\n        /* \"#utility.yul\":8788:8791   */\n      dup4\n        /* \"#utility.yul\":8775:8805   */\n      calldatacopy\n        /* \"#utility.yul\":8839:8840   */\n      0x00\n        /* \"#utility.yul\":8830:8836   */\n      dup4\n        /* \"#utility.yul\":8825:8828   */\n      dup4\n        /* \"#utility.yul\":8821:8837   */\n      add\n        /* \"#utility.yul\":8814:8841   */\n      mstore\n        /* \"#utility.yul\":8700:8848   */\n      pop\n      pop\n      pop\n      jump\t// out\n        /* \"#utility.yul\":8854:9279   */\n    tag_367:\n        /* \"#utility.yul\":8932:8937   */\n      0x00\n        /* \"#utility.yul\":8957:9023   */\n      tag_528\n        /* \"#utility.yul\":8973:9022   */\n      tag_529\n        /* \"#utility.yul\":9015:9021   */\n      dup5\n        /* \"#utility.yul\":8973:9022   */\n      tag_365\n      jump\t// in\n    tag_529:\n        /* \"#utility.yul\":8957:9023   */\n      tag_364\n      jump\t// in\n    tag_528:\n        /* \"#utility.yul\":8948:9023   */\n      swap1\n      pop\n        /* \"#utility.yul\":9046:9052   */\n      dup3\n        /* \"#utility.yul\":9039:9044   */\n      dup2\n        /* \"#utility.yul\":9032:9053   */\n      mstore\n        /* \"#utility.yul\":9084:9088   */\n      0x20\n        /* \"#utility.yul\":9077:9082   */\n      dup2\n        /* \"#utility.yul\":9073:9089   */\n      add\n        /* \"#utility.yul\":9122:9125   */\n      dup5\n        /* \"#utility.yul\":9113:9119   */\n      dup5\n        /* \"#utility.yul\":9108:9111   */\n      dup5\n        /* \"#utility.yul\":9104:9120   */\n      add\n        /* \"#utility.yul\":9101:9126   */\n      gt\n        /* \"#utility.yul\":9098:9210   */\n      iszero\n      tag_530\n      jumpi\n        /* \"#utility.yul\":9129:9208   */\n      tag_531\n      tag_361\n      jump\t// in\n    tag_531:\n        /* \"#utility.yul\":9098:9210   */\n    tag_530:\n        /* \"#utility.yul\":9219:9273   */\n      tag_532\n        /* \"#utility.yul\":9266:9272   */\n      dup5\n        /* \"#utility.yul\":9261:9264   */\n      dup3\n        /* \"#utility.yul\":9256:9259   */\n      dup6\n        /* \"#utility.yul\":9219:9273   */\n      tag_366\n      jump\t// in\n    tag_532:\n        /* \"#utility.yul\":8938:9279   */\n      pop\n        /* \"#utility.yul\":8854:9279   */\n      swap4\n      swap3\n      pop\n      pop\n      pop\n      jump\t// out\n        /* \"#utility.yul\":9299:9639   */\n    tag_368:\n        /* \"#utility.yul\":9355:9360   */\n      0x00\n        /* \"#utility.yul\":9404:9407   */\n      dup3\n        /* \"#utility.yul\":9397:9401   */\n      0x1f\n        /* \"#utility.yul\":9389:9395   */\n      dup4\n        /* \"#utility.yul\":9385:9402   */\n      add\n        /* \"#utility.yul\":9381:9408   */\n      slt\n        /* \"#utility.yul\":9371:9493   */\n      tag_534\n      jumpi\n        /* \"#utility.yul\":9412:9491   */\n      tag_535\n      tag_360\n      jump\t// in\n    tag_535:\n        /* \"#utility.yul\":9371:9493   */\n    tag_534:\n        /* \"#utility.yul\":9529:9535   */\n      dup2\n        /* \"#utility.yul\":9516:9536   */\n      calldataload\n        /* \"#utility.yul\":9554:9633   */\n      tag_536\n        /* \"#utility.yul\":9629:9632   */\n      dup5\n        /* \"#utility.yul\":9621:9627   */\n      dup3\n        /* \"#utility.yul\":9614:9618   */\n      0x20\n        /* \"#utility.yul\":9606:9612   */\n      dup7\n        /* \"#utility.yul\":9602:9619   */\n      add\n        /* \"#utility.yul\":9554:9633   */\n      tag_367\n      jump\t// in\n    tag_536:\n        /* \"#utility.yul\":9545:9633   */\n      swap2\n      pop\n        /* \"#utility.yul\":9361:9639   */\n      pop\n        /* \"#utility.yul\":9299:9639   */\n      swap3\n      swap2\n      pop\n      pop\n      jump\t// out\n        /* \"#utility.yul\":9645:10440   */\n    tag_70:\n        /* \"#utility.yul\":9730:9736   */\n      0x00\n        /* \"#utility.yul\":9738:9744   */\n      dup1\n        /* \"#utility.yul\":9746:9752   */\n      0x00\n        /* \"#utility.yul\":9795:9797   */\n      0x60\n        /* \"#utility.yul\":9783:9792   */\n      dup5\n        /* \"#utility.yul\":9774:9781   */\n      dup7\n        /* \"#utility.yul\":9770:9793   */\n      sub\n        /* \"#utility.yul\":9766:9798   */\n      slt\n        /* \"#utility.yul\":9763:9882   */\n      iszero\n      tag_538\n      jumpi\n        /* \"#utility.yul\":9801:9880   */\n      tag_539\n      tag_338\n      jump\t// in\n    tag_539:\n        /* \"#utility.yul\":9763:9882   */\n    tag_538:\n        /* \"#utility.yul\":9921:9922   */\n      0x00\n        /* \"#utility.yul\":9946:9998   */\n      tag_540\n        /* \"#utility.yul\":9990:9997   */\n      dup7\n        /* \"#utility.yul\":9981:9987   */\n      dup3\n        /* \"#utility.yul\":9970:9979   */\n      dup8\n        /* \"#utility.yul\":9966:9988   */\n      add\n        /* \"#utility.yul\":9946:9998   */\n      tag_359\n      jump\t// in\n    tag_540:\n        /* \"#utility.yul\":9936:9998   */\n      swap4\n      pop\n        /* \"#utility.yul\":9892:10008   */\n      pop\n        /* \"#utility.yul\":10047:10049   */\n      0x20\n        /* \"#utility.yul\":10073:10125   */\n      tag_541\n        /* \"#utility.yul\":10117:10124   */\n      dup7\n        /* \"#utility.yul\":10108:10114   */\n      dup3\n        /* \"#utility.yul\":10097:10106   */\n      dup8\n        /* \"#utility.yul\":10093:10115   */\n      add\n        /* \"#utility.yul\":10073:10125   */\n      tag_359\n      jump\t// in\n    tag_541:\n        /* \"#utility.yul\":10063:10125   */\n      swap3\n      pop\n        /* \"#utility.yul\":10018:10135   */\n      pop\n        /* \"#utility.yul\":10202:10204   */\n      0x40\n        /* \"#utility.yul\":10191:10200   */\n      dup5\n        /* \"#utility.yul\":10187:10205   */\n      add\n        /* \"#utility.yul\":10174:10206   */\n      calldataload\n        /* \"#utility.yul\":10233:10251   */\n      0xffffffffffffffff\n        /* \"#utility.yul\":10225:10231   */\n      dup2\n        /* \"#utility.yul\":10222:10252   */\n      gt\n        /* \"#utility.yul\":10219:10336   */\n      iszero\n      tag_542\n      jumpi\n        /* \"#utility.yul\":10255:10334   */\n      tag_543\n      tag_339\n      jump\t// in\n    tag_543:\n        /* \"#utility.yul\":10219:10336   */\n    tag_542:\n        /* \"#utility.yul\":10360:10423   */\n      tag_544\n        /* \"#utility.yul\":10415:10422   */\n      dup7\n        /* \"#utility.yul\":10406:10412   */\n      dup3\n        /* \"#utility.yul\":10395:10404   */\n      dup8\n        /* \"#utility.yul\":10391:10413   */\n      add\n        /* \"#utility.yul\":10360:10423   */\n      tag_368\n      jump\t// in\n    tag_544:\n        /* \"#utility.yul\":10350:10423   */\n      swap2\n      pop\n        /* \"#utility.yul\":10145:10433   */\n      pop\n        /* \"#utility.yul\":9645:10440   */\n      swap3\n      pop\n      swap3\n      pop\n      swap3\n      jump\t// out\n        /* \"#utility.yul\":10446:11065   */\n    tag_85:\n        /* \"#utility.yul\":10523:10529   */\n      0x00\n        /* \"#utility.yul\":10531:10537   */\n      dup1\n        /* \"#utility.yul\":10539:10545   */\n      0x00\n        /* \"#utility.yul\":10588:10590   */\n      0x60\n        /* \"#utility.yul\":10576:10585   */\n      dup5\n        /* \"#utility.yul\":10567:10574   */\n      dup7\n        /* \"#utility.yul\":10563:10586   */\n      sub\n        /* \"#utility.yul\":10559:10591   */\n      slt\n        /* \"#utility.yul\":10556:10675   */\n      iszero\n      tag_546\n      jumpi\n        /* \"#utility.yul\":10594:10673   */\n      tag_547\n      tag_338\n      jump\t// in\n    tag_547:\n        /* \"#utility.yul\":10556:10675   */\n    tag_546:\n        /* \"#utility.yul\":10714:10715   */\n      0x00\n        /* \"#utility.yul\":10739:10792   */\n      tag_548\n        /* \"#utility.yul\":10784:10791   */\n      dup7\n        /* \"#utility.yul\":10775:10781   */\n      dup3\n        /* \"#utility.yul\":10764:10773   */\n      dup8\n        /* \"#utility.yul\":10760:10782   */\n      add\n        /* \"#utility.yul\":10739:10792   */\n      tag_343\n      jump\t// in\n    tag_548:\n        /* \"#utility.yul\":10729:10792   */\n      swap4\n      pop\n        /* \"#utility.yul\":10685:10802   */\n      pop\n        /* \"#utility.yul\":10841:10843   */\n      0x20\n        /* \"#utility.yul\":10867:10920   */\n      tag_549\n        /* \"#utility.yul\":10912:10919   */\n      dup7\n        /* \"#utility.yul\":10903:10909   */\n      dup3\n        /* \"#utility.yul\":10892:10901   */\n      dup8\n        /* \"#utility.yul\":10888:10910   */\n      add\n        /* \"#utility.yul\":10867:10920   */\n      tag_343\n      jump\t// in\n    tag_549:\n        /* \"#utility.yul\":10857:10920   */\n      swap3\n      pop\n        /* \"#utility.yul\":10812:10930   */\n      pop\n        /* \"#utility.yul\":10969:10971   */\n      0x40\n        /* \"#utility.yul\":10995:11048   */\n      tag_550\n        /* \"#utility.yul\":11040:11047   */\n      dup7\n        /* \"#utility.yul\":11031:11037   */\n      dup3\n        /* \"#utility.yul\":11020:11029   */\n      dup8\n        /* \"#utility.yul\":11016:11038   */\n      add\n        /* \"#utility.yul\":10995:11048   */\n      tag_346\n      jump\t// in\n    tag_550:\n        /* \"#utility.yul\":10985:11048   */\n      swap2\n      pop\n        /* \"#utility.yul\":10940:11058   */\n      pop\n        /* \"#utility.yul\":10446:11065   */\n      swap3\n      pop\n      swap3\n      pop\n      swap3\n      jump\t// out\n        /* \"#utility.yul\":11071:11188   */\n    tag_369:\n        /* \"#utility.yul\":11180:11181   */\n      0x00\n        /* \"#utility.yul\":11177:11178   */\n      dup1\n        /* \"#utility.yul\":11170:11182   */\n      revert\n        /* \"#utility.yul\":11194:11311   */\n    tag_370:\n        /* \"#utility.yul\":11303:11304   */\n      0x00\n        /* \"#utility.yul\":11300:11301   */\n      dup1\n        /* \"#utility.yul\":11293:11305   */\n      revert\n        /* \"#utility.yul\":11334:11902   */\n    tag_371:\n        /* \"#utility.yul\":11407:11415   */\n      0x00\n        /* \"#utility.yul\":11417:11423   */\n      dup1\n        /* \"#utility.yul\":11467:11470   */\n      dup4\n        /* \"#utility.yul\":11460:11464   */\n      0x1f\n        /* \"#utility.yul\":11452:11458   */\n      dup5\n        /* \"#utility.yul\":11448:11465   */\n      add\n        /* \"#utility.yul\":11444:11471   */\n      slt\n        /* \"#utility.yul\":11434:11556   */\n      tag_554\n      jumpi\n        /* \"#utility.yul\":11475:11554   */\n      tag_555\n      tag_360\n      jump\t// in\n    tag_555:\n        /* \"#utility.yul\":11434:11556   */\n    tag_554:\n        /* \"#utility.yul\":11588:11594   */\n      dup3\n        /* \"#utility.yul\":11575:11595   */\n      calldataload\n        /* \"#utility.yul\":11565:11595   */\n      swap1\n      pop\n        /* \"#utility.yul\":11618:11636   */\n      0xffffffffffffffff\n        /* \"#utility.yul\":11610:11616   */\n      dup2\n        /* \"#utility.yul\":11607:11637   */\n      gt\n        /* \"#utility.yul\":11604:11721   */\n      iszero\n      tag_556\n      jumpi\n        /* \"#utility.yul\":11640:11719   */\n      tag_557\n      tag_369\n      jump\t// in\n    tag_557:\n        /* \"#utility.yul\":11604:11721   */\n    tag_556:\n        /* \"#utility.yul\":11754:11758   */\n      0x20\n        /* \"#utility.yul\":11746:11752   */\n      dup4\n        /* \"#utility.yul\":11742:11759   */\n      add\n        /* \"#utility.yul\":11730:11759   */\n      swap2\n      pop\n        /* \"#utility.yul\":11808:11811   */\n      dup4\n        /* \"#utility.yul\":11800:11804   */\n      0x20\n        /* \"#utility.yul\":11792:11798   */\n      dup3\n        /* \"#utility.yul\":11788:11805   */\n      mul\n        /* \"#utility.yul\":11778:11786   */\n      dup4\n        /* \"#utility.yul\":11774:11806   */\n      add\n        /* \"#utility.yul\":11771:11812   */\n      gt\n        /* \"#utility.yul\":11768:11896   */\n      iszero\n      tag_558\n      jumpi\n        /* \"#utility.yul\":11815:11894   */\n      tag_559\n      tag_370\n      jump\t// in\n    tag_559:\n        /* \"#utility.yul\":11768:11896   */\n    tag_558:\n        /* \"#utility.yul\":11334:11902   */\n      swap3\n      pop\n      swap3\n      swap1\n      pop\n      jump\t// out\n        /* \"#utility.yul\":11925:12493   */\n    tag_372:\n        /* \"#utility.yul\":11998:12006   */\n      0x00\n        /* \"#utility.yul\":12008:12014   */\n      dup1\n        /* \"#utility.yul\":12058:12061   */\n      dup4\n        /* \"#utility.yul\":12051:12055   */\n      0x1f\n        /* \"#utility.yul\":12043:12049   */\n      dup5\n        /* \"#utility.yul\":12039:12056   */\n      add\n        /* \"#utility.yul\":12035:12062   */\n      slt\n        /* \"#utility.yul\":12025:12147   */\n      tag_561\n      jumpi\n        /* \"#utility.yul\":12066:12145   */\n      tag_562\n      tag_360\n      jump\t// in\n    tag_562:\n        /* \"#utility.yul\":12025:12147   */\n    tag_561:\n        /* \"#utility.yul\":12179:12185   */\n      dup3\n        /* \"#utility.yul\":12166:12186   */\n      calldataload\n        /* \"#utility.yul\":12156:12186   */\n      swap1\n      pop\n        /* \"#utility.yul\":12209:12227   */\n      0xffffffffffffffff\n        /* \"#utility.yul\":12201:12207   */\n      dup2\n        /* \"#utility.yul\":12198:12228   */\n      gt\n        /* \"#utility.yul\":12195:12312   */\n      iszero\n      tag_563\n      jumpi\n        /* \"#utility.yul\":12231:12310   */\n      tag_564\n      tag_369\n      jump\t// in\n    tag_564:\n        /* \"#utility.yul\":12195:12312   */\n    tag_563:\n        /* \"#utility.yul\":12345:12349   */\n      0x20\n        /* \"#utility.yul\":12337:12343   */\n      dup4\n        /* \"#utility.yul\":12333:12350   */\n      add\n        /* \"#utility.yul\":12321:12350   */\n      swap2\n      pop\n        /* \"#utility.yul\":12399:12402   */\n      dup4\n        /* \"#utility.yul\":12391:12395   */\n      0x20\n        /* \"#utility.yul\":12383:12389   */\n      dup3\n        /* \"#utility.yul\":12379:12396   */\n      mul\n        /* \"#utility.yul\":12369:12377   */\n      dup4\n        /* \"#utility.yul\":12365:12397   */\n      add\n        /* \"#utility.yul\":12362:12403   */\n      gt\n        /* \"#utility.yul\":12359:12487   */\n      iszero\n      tag_565\n      jumpi\n        /* \"#utility.yul\":12406:12485   */\n      tag_566\n      tag_370\n      jump\t// in\n    tag_566:\n        /* \"#utility.yul\":12359:12487   */\n    tag_565:\n        /* \"#utility.yul\":11925:12493   */\n      swap3\n      pop\n      swap3\n      swap1\n      pop\n      jump\t// out\n        /* \"#utility.yul\":12499:13808   */\n    tag_90:\n        /* \"#utility.yul\":12657:12663   */\n      0x00\n        /* \"#utility.yul\":12665:12671   */\n      dup1\n        /* \"#utility.yul\":12673:12679   */\n      0x00\n        /* \"#utility.yul\":12681:12687   */\n      dup1\n        /* \"#utility.yul\":12689:12695   */\n      0x00\n        /* \"#utility.yul\":12697:12703   */\n      dup1\n        /* \"#utility.yul\":12746:12748   */\n      0x60\n        /* \"#utility.yul\":12734:12743   */\n      dup8\n        /* \"#utility.yul\":12725:12732   */\n      dup10\n        /* \"#utility.yul\":12721:12744   */\n      sub\n        /* \"#utility.yul\":12717:12749   */\n      slt\n        /* \"#utility.yul\":12714:12833   */\n      iszero\n      tag_568\n      jumpi\n        /* \"#utility.yul\":12752:12831   */\n      tag_569\n      tag_338\n      jump\t// in\n    tag_569:\n        /* \"#utility.yul\":12714:12833   */\n    tag_568:\n        /* \"#utility.yul\":12900:12901   */\n      0x00\n        /* \"#utility.yul\":12889:12898   */\n      dup8\n        /* \"#utility.yul\":12885:12902   */\n      add\n        /* \"#utility.yul\":12872:12903   */\n      calldataload\n        /* \"#utility.yul\":12930:12948   */\n      0xffffffffffffffff\n        /* \"#utility.yul\":12922:12928   */\n      dup2\n        /* \"#utility.yul\":12919:12949   */\n      gt\n        /* \"#utility.yul\":12916:13033   */\n      iszero\n      tag_570\n      jumpi\n        /* \"#utility.yul\":12952:13031   */\n      tag_571\n      tag_339\n      jump\t// in\n    tag_571:\n        /* \"#utility.yul\":12916:13033   */\n    tag_570:\n        /* \"#utility.yul\":13065:13145   */\n      tag_572\n        /* \"#utility.yul\":13137:13144   */\n      dup10\n        /* \"#utility.yul\":13128:13134   */\n      dup3\n        /* \"#utility.yul\":13117:13126   */\n      dup11\n        /* \"#utility.yul\":13113:13135   */\n      add\n        /* \"#utility.yul\":13065:13145   */\n      tag_371\n      jump\t// in\n    tag_572:\n        /* \"#utility.yul\":13047:13145   */\n      swap7\n      pop\n      swap7\n      pop\n        /* \"#utility.yul\":12843:13155   */\n      pop\n        /* \"#utility.yul\":13222:13224   */\n      0x20\n        /* \"#utility.yul\":13211:13220   */\n      dup8\n        /* \"#utility.yul\":13207:13225   */\n      add\n        /* \"#utility.yul\":13194:13226   */\n      calldataload\n        /* \"#utility.yul\":13253:13271   */\n      0xffffffffffffffff\n        /* \"#utility.yul\":13245:13251   */\n      dup2\n        /* \"#utility.yul\":13242:13272   */\n      gt\n        /* \"#utility.yul\":13239:13356   */\n      iszero\n      tag_573\n      jumpi\n        /* \"#utility.yul\":13275:13354   */\n      tag_574\n      tag_339\n      jump\t// in\n    tag_574:\n        /* \"#utility.yul\":13239:13356   */\n    tag_573:\n        /* \"#utility.yul\":13388:13468   */\n      tag_575\n        /* \"#utility.yul\":13460:13467   */\n      dup10\n        /* \"#utility.yul\":13451:13457   */\n      dup3\n        /* \"#utility.yul\":13440:13449   */\n      dup11\n        /* \"#utility.yul\":13436:13458   */\n      add\n        /* \"#utility.yul\":13388:13468   */\n      tag_371\n      jump\t// in\n    tag_575:\n        /* \"#utility.yul\":13370:13468   */\n      swap5\n      pop\n      swap5\n      pop\n        /* \"#utility.yul\":13165:13478   */\n      pop\n        /* \"#utility.yul\":13545:13547   */\n      0x40\n        /* \"#utility.yul\":13534:13543   */\n      dup8\n        /* \"#utility.yul\":13530:13548   */\n      add\n        /* \"#utility.yul\":13517:13549   */\n      calldataload\n        /* \"#utility.yul\":13576:13594   */\n      0xffffffffffffffff\n        /* \"#utility.yul\":13568:13574   */\n      dup2\n        /* \"#utility.yul\":13565:13595   */\n      gt\n        /* \"#utility.yul\":13562:13679   */\n      iszero\n      tag_576\n      jumpi\n        /* \"#utility.yul\":13598:13677   */\n      tag_577\n      tag_339\n      jump\t// in\n    tag_577:\n        /* \"#utility.yul\":13562:13679   */\n    tag_576:\n        /* \"#utility.yul\":13711:13791   */\n      tag_578\n        /* \"#utility.yul\":13783:13790   */\n      dup10\n        /* \"#utility.yul\":13774:13780   */\n      dup3\n        /* \"#utility.yul\":13763:13772   */\n      dup11\n        /* \"#utility.yul\":13759:13781   */\n      add\n        /* \"#utility.yul\":13711:13791   */\n      tag_372\n      jump\t// in\n    tag_578:\n        /* \"#utility.yul\":13693:13791   */\n      swap3\n      pop\n      swap3\n      pop\n        /* \"#utility.yul\":13488:13801   */\n      pop\n        /* \"#utility.yul\":12499:13808   */\n      swap3\n      swap6\n      pop\n      swap3\n      swap6\n      pop\n      swap3\n      swap6\n      jump\t// out\n        /* \"#utility.yul\":13814:13954   */\n    tag_373:\n        /* \"#utility.yul\":13863:13872   */\n      0x00\n        /* \"#utility.yul\":13896:13948   */\n      tag_580\n        /* \"#utility.yul\":13914:13947   */\n      tag_581\n        /* \"#utility.yul\":13923:13946   */\n      tag_582\n        /* \"#utility.yul\":13940:13945   */\n      dup5\n        /* \"#utility.yul\":13923:13946   */\n      tag_352\n      jump\t// in\n    tag_582:\n        /* \"#utility.yul\":13914:13947   */\n      tag_347\n      jump\t// in\n    tag_581:\n        /* \"#utility.yul\":13896:13948   */\n      tag_331\n      jump\t// in\n    tag_580:\n        /* \"#utility.yul\":13883:13948   */\n      swap1\n      pop\n        /* \"#utility.yul\":13814:13954   */\n      swap2\n      swap1\n      pop\n      jump\t// out\n        /* \"#utility.yul\":13960:14089   */\n    tag_374:\n        /* \"#utility.yul\":14046:14082   */\n      tag_584\n        /* \"#utility.yul\":14076:14081   */\n      dup2\n        /* \"#utility.yul\":14046:14082   */\n      tag_373\n      jump\t// in\n    tag_584:\n        /* \"#utility.yul\":14041:14044   */\n      dup3\n        /* \"#utility.yul\":14034:14083   */\n      mstore\n        /* \"#utility.yul\":13960:14089   */\n      pop\n      pop\n      jump\t// out\n        /* \"#utility.yul\":14095:14533   */\n    tag_107:\n        /* \"#utility.yul\":14242:14246   */\n      0x00\n        /* \"#utility.yul\":14280:14282   */\n      0x60\n        /* \"#utility.yul\":14269:14278   */\n      dup3\n        /* \"#utility.yul\":14265:14283   */\n      add\n        /* \"#utility.yul\":14257:14283   */\n      swap1\n      pop\n        /* \"#utility.yul\":14293:14364   */\n      tag_586\n        /* \"#utility.yul\":14361:14362   */\n      0x00\n        /* \"#utility.yul\":14350:14359   */\n      dup4\n        /* \"#utility.yul\":14346:14363   */\n      add\n        /* \"#utility.yul\":14337:14343   */\n      dup7\n        /* \"#utility.yul\":14293:14364   */\n      tag_333\n      jump\t// in\n    tag_586:\n        /* \"#utility.yul\":14374:14445   */\n      tag_587\n        /* \"#utility.yul\":14441:14443   */\n      0x20\n        /* \"#utility.yul\":14430:14439   */\n      dup4\n        /* \"#utility.yul\":14426:14444   */\n      add\n        /* \"#utility.yul\":14417:14423   */\n      dup6\n        /* \"#utility.yul\":14374:14445   */\n      tag_374\n      jump\t// in\n    tag_587:\n        /* \"#utility.yul\":14455:14526   */\n      tag_588\n        /* \"#utility.yul\":14522:14524   */\n      0x40\n        /* \"#utility.yul\":14511:14520   */\n      dup4\n        /* \"#utility.yul\":14507:14525   */\n      add\n        /* \"#utility.yul\":14498:14504   */\n      dup5\n        /* \"#utility.yul\":14455:14526   */\n      tag_374\n      jump\t// in\n    tag_588:\n        /* \"#utility.yul\":14095:14533   */\n      swap5\n      swap4\n      pop\n      pop\n      pop\n      pop\n      jump\t// out\n        /* \"#utility.yul\":14539:14708   */\n    tag_375:\n        /* \"#utility.yul\":14679:14700   */\n      0x4e6f20636c61696d61626c6520616d6f756e7400000000000000000000000000\n        /* \"#utility.yul\":14675:14676   */\n      0x00\n        /* \"#utility.yul\":14667:14673   */\n      dup3\n        /* \"#utility.yul\":14663:14677   */\n      add\n        /* \"#utility.yul\":14656:14701   */\n      mstore\n        /* \"#utility.yul\":14539:14708   */\n      pop\n      jump\t// out\n        /* \"#utility.yul\":14714:15080   */\n    tag_376:\n        /* \"#utility.yul\":14856:14859   */\n      0x00\n        /* \"#utility.yul\":14877:14944   */\n      tag_591\n        /* \"#utility.yul\":14941:14943   */\n      0x13\n        /* \"#utility.yul\":14936:14939   */\n      dup4\n        /* \"#utility.yul\":14877:14944   */\n      tag_334\n      jump\t// in\n    tag_591:\n        /* \"#utility.yul\":14870:14944   */\n      swap2\n      pop\n        /* \"#utility.yul\":14953:15046   */\n      tag_592\n        /* \"#utility.yul\":15042:15045   */\n      dup3\n        /* \"#utility.yul\":14953:15046   */\n      tag_375\n      jump\t// in\n    tag_592:\n        /* \"#utility.yul\":15071:15073   */\n      0x20\n        /* \"#utility.yul\":15066:15069   */\n      dup3\n        /* \"#utility.yul\":15062:15074   */\n      add\n        /* \"#utility.yul\":15055:15074   */\n      swap1\n      pop\n        /* \"#utility.yul\":14714:15080   */\n      swap2\n      swap1\n      pop\n      jump\t// out\n        /* \"#utility.yul\":15086:15505   */\n    tag_110:\n        /* \"#utility.yul\":15252:15256   */\n      0x00\n        /* \"#utility.yul\":15290:15292   */\n      0x20\n        /* \"#utility.yul\":15279:15288   */\n      dup3\n        /* \"#utility.yul\":15275:15293   */\n      add\n        /* \"#utility.yul\":15267:15293   */\n      swap1\n      pop\n        /* \"#utility.yul\":15339:15348   */\n      dup2\n        /* \"#utility.yul\":15333:15337   */\n      dup2\n        /* \"#utility.yul\":15329:15349   */\n      sub\n        /* \"#utility.yul\":15325:15326   */\n      0x00\n        /* \"#utility.yul\":15314:15323   */\n      dup4\n        /* \"#utility.yul\":15310:15327   */\n      add\n        /* \"#utility.yul\":15303:15350   */\n      mstore\n        /* \"#utility.yul\":15367:15498   */\n      tag_594\n        /* \"#utility.yul\":15493:15497   */\n      dup2\n        /* \"#utility.yul\":15367:15498   */\n      tag_376\n      jump\t// in\n    tag_594:\n        /* \"#utility.yul\":15359:15498   */\n      swap1\n      pop\n        /* \"#utility.yul\":15086:15505   */\n      swap2\n      swap1\n      pop\n      jump\t// out\n        /* \"#utility.yul\":15511:15686   */\n    tag_377:\n        /* \"#utility.yul\":15651:15678   */\n      0x496e73756666696369656e742066756e647320696e206a617200000000000000\n        /* \"#utility.yul\":15647:15648   */\n      0x00\n        /* \"#utility.yul\":15639:15645   */\n      dup3\n        /* \"#utility.yul\":15635:15649   */\n      add\n        /* \"#utility.yul\":15628:15679   */\n      mstore\n        /* \"#utility.yul\":15511:15686   */\n      pop\n      jump\t// out\n        /* \"#utility.yul\":15692:16058   */\n    tag_378:\n        /* \"#utility.yul\":15834:15837   */\n      0x00\n        /* \"#utility.yul\":15855:15922   */\n      tag_597\n        /* \"#utility.yul\":15919:15921   */\n      0x19\n        /* \"#utility.yul\":15914:15917   */\n      dup4\n        /* \"#utility.yul\":15855:15922   */\n      tag_334\n      jump\t// in\n    tag_597:\n        /* \"#utility.yul\":15848:15922   */\n      swap2\n      pop\n        /* \"#utility.yul\":15931:16024   */\n      tag_598\n        /* \"#utility.yul\":16020:16023   */\n      dup3\n        /* \"#utility.yul\":15931:16024   */\n      tag_377\n      jump\t// in\n    tag_598:\n        /* \"#utility.yul\":16049:16051   */\n      0x20\n        /* \"#utility.yul\":16044:16047   */\n      dup3\n        /* \"#utility.yul\":16040:16052   */\n      add\n        /* \"#utility.yul\":16033:16052   */\n      swap1\n      pop\n        /* \"#utility.yul\":15692:16058   */\n      swap2\n      swap1\n      pop\n      jump\t// out\n        /* \"#utility.yul\":16064:16483   */\n    tag_113:\n        /* \"#utility.yul\":16230:16234   */\n      0x00\n        /* \"#utility.yul\":16268:16270   */\n      0x20\n        /* \"#utility.yul\":16257:16266   */\n      dup3\n        /* \"#utility.yul\":16253:16271   */\n      add\n        /* \"#utility.yul\":16245:16271   */\n      swap1\n      pop\n        /* \"#utility.yul\":16317:16326   */\n      dup2\n        /* \"#utility.yul\":16311:16315   */\n      dup2\n        /* \"#utility.yul\":16307:16327   */\n      sub\n        /* \"#utility.yul\":16303:16304   */\n      0x00\n        /* \"#utility.yul\":16292:16301   */\n      dup4\n        /* \"#utility.yul\":16288:16305   */\n      add\n        /* \"#utility.yul\":16281:16328   */\n      mstore\n        /* \"#utility.yul\":16345:16476   */\n      tag_600\n        /* \"#utility.yul\":16471:16475   */\n      dup2\n        /* \"#utility.yul\":16345:16476   */\n      tag_378\n      jump\t// in\n    tag_600:\n        /* \"#utility.yul\":16337:16476   */\n      swap1\n      pop\n        /* \"#utility.yul\":16064:16483   */\n      swap2\n      swap1\n      pop\n      jump\t// out\n        /* \"#utility.yul\":16489:16683   */\n    tag_115:\n        /* \"#utility.yul\":16529:16533   */\n      0x00\n        /* \"#utility.yul\":16549:16569   */\n      tag_602\n        /* \"#utility.yul\":16567:16568   */\n      dup3\n        /* \"#utility.yul\":16549:16569   */\n      tag_331\n      jump\t// in\n    tag_602:\n        /* \"#utility.yul\":16544:16569   */\n      swap2\n      pop\n        /* \"#utility.yul\":16583:16603   */\n      tag_603\n        /* \"#utility.yul\":16601:16602   */\n      dup4\n        /* \"#utility.yul\":16583:16603   */\n      tag_331\n      jump\t// in\n    tag_603:\n        /* \"#utility.yul\":16578:16603   */\n      swap3\n      pop\n        /* \"#utility.yul\":16627:16628   */\n      dup3\n        /* \"#utility.yul\":16624:16625   */\n      dup3\n        /* \"#utility.yul\":16620:16629   */\n      sub\n        /* \"#utility.yul\":16612:16629   */\n      swap1\n      pop\n        /* \"#utility.yul\":16651:16652   */\n      dup2\n        /* \"#utility.yul\":16645:16649   */\n      dup2\n        /* \"#utility.yul\":16642:16653   */\n      gt\n        /* \"#utility.yul\":16639:16676   */\n      iszero\n      tag_604\n      jumpi\n        /* \"#utility.yul\":16656:16674   */\n      tag_605\n      tag_332\n      jump\t// in\n    tag_605:\n        /* \"#utility.yul\":16639:16676   */\n    tag_604:\n        /* \"#utility.yul\":16489:16683   */\n      swap3\n      swap2\n      pop\n      pop\n      jump\t// out\n        /* \"#utility.yul\":16689:16836   */\n    tag_379:\n        /* \"#utility.yul\":16790:16801   */\n      0x00\n        /* \"#utility.yul\":16827:16830   */\n      dup2\n        /* \"#utility.yul\":16812:16830   */\n      swap1\n      pop\n        /* \"#utility.yul\":16689:16836   */\n      swap3\n      swap2\n      pop\n      pop\n      jump\t// out\n        /* \"#utility.yul\":16842:16956   */\n    tag_380:\n      pop\n      jump\t// out\n        /* \"#utility.yul\":16962:17360   */\n    tag_381:\n        /* \"#utility.yul\":17121:17124   */\n      0x00\n        /* \"#utility.yul\":17142:17225   */\n      tag_609\n        /* \"#utility.yul\":17223:17224   */\n      0x00\n        /* \"#utility.yul\":17218:17221   */\n      dup4\n        /* \"#utility.yul\":17142:17225   */\n      tag_379\n      jump\t// in\n    tag_609:\n        /* \"#utility.yul\":17135:17225   */\n      swap2\n      pop\n        /* \"#utility.yul\":17234:17327   */\n      tag_610\n        /* \"#utility.yul\":17323:17326   */\n      dup3\n        /* \"#utility.yul\":17234:17327   */\n      tag_380\n      jump\t// in\n    tag_610:\n        /* \"#utility.yul\":17352:17353   */\n      0x00\n        /* \"#utility.yul\":17347:17350   */\n      dup3\n        /* \"#utility.yul\":17343:17354   */\n      add\n        /* \"#utility.yul\":17336:17354   */\n      swap1\n      pop\n        /* \"#utility.yul\":16962:17360   */\n      swap2\n      swap1\n      pop\n      jump\t// out\n        /* \"#utility.yul\":17366:17745   */\n    tag_118:\n        /* \"#utility.yul\":17550:17553   */\n      0x00\n        /* \"#utility.yul\":17572:17719   */\n      tag_612\n        /* \"#utility.yul\":17715:17718   */\n      dup3\n        /* \"#utility.yul\":17572:17719   */\n      tag_381\n      jump\t// in\n    tag_612:\n        /* \"#utility.yul\":17565:17719   */\n      swap2\n      pop\n        /* \"#utility.yul\":17736:17739   */\n      dup2\n        /* \"#utility.yul\":17729:17739   */\n      swap1\n      pop\n        /* \"#utility.yul\":17366:17745   */\n      swap2\n      swap1\n      pop\n      jump\t// out\n        /* \"#utility.yul\":17751:17922   */\n    tag_382:\n        /* \"#utility.yul\":17891:17914   */\n      0x4574686572207472616e73666572206661696c65640000000000000000000000\n        /* \"#utility.yul\":17887:17888   */\n      0x00\n        /* \"#utility.yul\":17879:17885   */\n      dup3\n        /* \"#utility.yul\":17875:17889   */\n      add\n        /* \"#utility.yul\":17868:17915   */\n      mstore\n        /* \"#utility.yul\":17751:17922   */\n      pop\n      jump\t// out\n        /* \"#utility.yul\":17928:18294   */\n    tag_383:\n        /* \"#utility.yul\":18070:18073   */\n      0x00\n        /* \"#utility.yul\":18091:18158   */\n      tag_615\n        /* \"#utility.yul\":18155:18157   */\n      0x15\n        /* \"#utility.yul\":18150:18153   */\n      dup4\n        /* \"#utility.yul\":18091:18158   */\n      tag_334\n      jump\t// in\n    tag_615:\n        /* \"#utility.yul\":18084:18158   */\n      swap2\n      pop\n        /* \"#utility.yul\":18167:18260   */\n      tag_616\n        /* \"#utility.yul\":18256:18259   */\n      dup3\n        /* \"#utility.yul\":18167:18260   */\n      tag_382\n      jump\t// in\n    tag_616:\n        /* \"#utility.yul\":18285:18287   */\n      0x20\n        /* \"#utility.yul\":18280:18283   */\n      dup3\n        /* \"#utility.yul\":18276:18288   */\n      add\n        /* \"#utility.yul\":18269:18288   */\n      swap1\n      pop\n        /* \"#utility.yul\":17928:18294   */\n      swap2\n      swap1\n      pop\n      jump\t// out\n        /* \"#utility.yul\":18300:18719   */\n    tag_124:\n        /* \"#utility.yul\":18466:18470   */\n      0x00\n        /* \"#utility.yul\":18504:18506   */\n      0x20\n        /* \"#utility.yul\":18493:18502   */\n      dup3\n        /* \"#utility.yul\":18489:18507   */\n      add\n        /* \"#utility.yul\":18481:18507   */\n      swap1\n      pop\n        /* \"#utility.yul\":18553:18562   */\n      dup2\n        /* \"#utility.yul\":18547:18551   */\n      dup2\n        /* \"#utility.yul\":18543:18563   */\n      sub\n        /* \"#utility.yul\":18539:18540   */\n      0x00\n        /* \"#utility.yul\":18528:18537   */\n      dup4\n        /* \"#utility.yul\":18524:18541   */\n      add\n        /* \"#utility.yul\":18517:18564   */\n      mstore\n        /* \"#utility.yul\":18581:18712   */\n      tag_618\n        /* \"#utility.yul\":18707:18711   */\n      dup2\n        /* \"#utility.yul\":18581:18712   */\n      tag_383\n      jump\t// in\n    tag_618:\n        /* \"#utility.yul\":18573:18712   */\n      swap1\n      pop\n        /* \"#utility.yul\":18300:18719   */\n      swap2\n      swap1\n      pop\n      jump\t// out\n        /* \"#utility.yul\":18725:18897   */\n    tag_384:\n        /* \"#utility.yul\":18865:18889   */\n      0x496e636f727265637420457468657220616d6f756e7400000000000000000000\n        /* \"#utility.yul\":18861:18862   */\n      0x00\n        /* \"#utility.yul\":18853:18859   */\n      dup3\n        /* \"#utility.yul\":18849:18863   */\n      add\n        /* \"#utility.yul\":18842:18890   */\n      mstore\n        /* \"#utility.yul\":18725:18897   */\n      pop\n      jump\t// out\n        /* \"#utility.yul\":18903:19269   */\n    tag_385:\n        /* \"#utility.yul\":19045:19048   */\n      0x00\n        /* \"#utility.yul\":19066:19133   */\n      tag_621\n        /* \"#utility.yul\":19130:19132   */\n      0x16\n        /* \"#utility.yul\":19125:19128   */\n      dup4\n        /* \"#utility.yul\":19066:19133   */\n      tag_334\n      jump\t// in\n    tag_621:\n        /* \"#utility.yul\":19059:19133   */\n      swap2\n      pop\n        /* \"#utility.yul\":19142:19235   */\n      tag_622\n        /* \"#utility.yul\":19231:19234   */\n      dup3\n        /* \"#utility.yul\":19142:19235   */\n      tag_384\n      jump\t// in\n    tag_622:\n        /* \"#utility.yul\":19260:19262   */\n      0x20\n        /* \"#utility.yul\":19255:19258   */\n      dup3\n        /* \"#utility.yul\":19251:19263   */\n      add\n        /* \"#utility.yul\":19244:19263   */\n      swap1\n      pop\n        /* \"#utility.yul\":18903:19269   */\n      swap2\n      swap1\n      pop\n      jump\t// out\n        /* \"#utility.yul\":19275:19694   */\n    tag_137:\n        /* \"#utility.yul\":19441:19445   */\n      0x00\n        /* \"#utility.yul\":19479:19481   */\n      0x20\n        /* \"#utility.yul\":19468:19477   */\n      dup3\n        /* \"#utility.yul\":19464:19482   */\n      add\n        /* \"#utility.yul\":19456:19482   */\n      swap1\n      pop\n        /* \"#utility.yul\":19528:19537   */\n      dup2\n        /* \"#utility.yul\":19522:19526   */\n      dup2\n        /* \"#utility.yul\":19518:19538   */\n      sub\n        /* \"#utility.yul\":19514:19515   */\n      0x00\n        /* \"#utility.yul\":19503:19512   */\n      dup4\n        /* \"#utility.yul\":19499:19516   */\n      add\n        /* \"#utility.yul\":19492:19539   */\n      mstore\n        /* \"#utility.yul\":19556:19687   */\n      tag_624\n        /* \"#utility.yul\":19682:19686   */\n      dup2\n        /* \"#utility.yul\":19556:19687   */\n      tag_385\n      jump\t// in\n    tag_624:\n        /* \"#utility.yul\":19548:19687   */\n      swap1\n      pop\n        /* \"#utility.yul\":19275:19694   */\n      swap2\n      swap1\n      pop\n      jump\t// out\n        /* \"#utility.yul\":19700:19927   */\n    tag_386:\n        /* \"#utility.yul\":19840:19874   */\n      0x4465706f73697420616d6f756e74206d75737420626520677265617465722074\n        /* \"#utility.yul\":19836:19837   */\n      0x00\n        /* \"#utility.yul\":19828:19834   */\n      dup3\n        /* \"#utility.yul\":19824:19838   */\n      add\n        /* \"#utility.yul\":19817:19875   */\n      mstore\n        /* \"#utility.yul\":19909:19919   */\n      0x68616e207a65726f000000000000000000000000000000000000000000000000\n        /* \"#utility.yul\":19904:19906   */\n      0x20\n        /* \"#utility.yul\":19896:19902   */\n      dup3\n        /* \"#utility.yul\":19892:19907   */\n      add\n        /* \"#utility.yul\":19885:19920   */\n      mstore\n        /* \"#utility.yul\":19700:19927   */\n      pop\n      jump\t// out\n        /* \"#utility.yul\":19933:20299   */\n    tag_387:\n        /* \"#utility.yul\":20075:20078   */\n      0x00\n        /* \"#utility.yul\":20096:20163   */\n      tag_627\n        /* \"#utility.yul\":20160:20162   */\n      0x28\n        /* \"#utility.yul\":20155:20158   */\n      dup4\n        /* \"#utility.yul\":20096:20163   */\n      tag_334\n      jump\t// in\n    tag_627:\n        /* \"#utility.yul\":20089:20163   */\n      swap2\n      pop\n        /* \"#utility.yul\":20172:20265   */\n      tag_628\n        /* \"#utility.yul\":20261:20264   */\n      dup3\n        /* \"#utility.yul\":20172:20265   */\n      tag_386\n      jump\t// in\n    tag_628:\n        /* \"#utility.yul\":20290:20292   */\n      0x40\n        /* \"#utility.yul\":20285:20288   */\n      dup3\n        /* \"#utility.yul\":20281:20293   */\n      add\n        /* \"#utility.yul\":20274:20293   */\n      swap1\n      pop\n        /* \"#utility.yul\":19933:20299   */\n      swap2\n      swap1\n      pop\n      jump\t// out\n        /* \"#utility.yul\":20305:20724   */\n    tag_141:\n        /* \"#utility.yul\":20471:20475   */\n      0x00\n        /* \"#utility.yul\":20509:20511   */\n      0x20\n        /* \"#utility.yul\":20498:20507   */\n      dup3\n        /* \"#utility.yul\":20494:20512   */\n      add\n        /* \"#utility.yul\":20486:20512   */\n      swap1\n      pop\n        /* \"#utility.yul\":20558:20567   */\n      dup2\n        /* \"#utility.yul\":20552:20556   */\n      dup2\n        /* \"#utility.yul\":20548:20568   */\n      sub\n        /* \"#utility.yul\":20544:20545   */\n      0x00\n        /* \"#utility.yul\":20533:20542   */\n      dup4\n        /* \"#utility.yul\":20529:20546   */\n      add\n        /* \"#utility.yul\":20522:20569   */\n      mstore\n        /* \"#utility.yul\":20586:20717   */\n      tag_630\n        /* \"#utility.yul\":20712:20716   */\n      dup2\n        /* \"#utility.yul\":20586:20717   */\n      tag_387\n      jump\t// in\n    tag_630:\n        /* \"#utility.yul\":20578:20717   */\n      swap1\n      pop\n        /* \"#utility.yul\":20305:20724   */\n      swap2\n      swap1\n      pop\n      jump\t// out\n        /* \"#utility.yul\":20730:20815   */\n    tag_388:\n        /* \"#utility.yul\":20775:20782   */\n      0x00\n        /* \"#utility.yul\":20804:20809   */\n      dup2\n        /* \"#utility.yul\":20793:20809   */\n      swap1\n      pop\n        /* \"#utility.yul\":20730:20815   */\n      swap2\n      swap1\n      pop\n      jump\t// out\n        /* \"#utility.yul\":20821:20977   */\n    tag_389:\n        /* \"#utility.yul\":20878:20887   */\n      0x00\n        /* \"#utility.yul\":20911:20971   */\n      tag_633\n        /* \"#utility.yul\":20928:20970   */\n      tag_634\n        /* \"#utility.yul\":20937:20969   */\n      tag_635\n        /* \"#utility.yul\":20963:20968   */\n      dup5\n        /* \"#utility.yul\":20937:20969   */\n      tag_388\n      jump\t// in\n    tag_635:\n        /* \"#utility.yul\":20928:20970   */\n      tag_347\n      jump\t// in\n    tag_634:\n        /* \"#utility.yul\":20911:20971   */\n      tag_352\n      jump\t// in\n    tag_633:\n        /* \"#utility.yul\":20898:20971   */\n      swap1\n      pop\n        /* \"#utility.yul\":20821:20977   */\n      swap2\n      swap1\n      pop\n      jump\t// out\n        /* \"#utility.yul\":20983:21128   */\n    tag_390:\n        /* \"#utility.yul\":21077:21121   */\n      tag_637\n        /* \"#utility.yul\":21115:21120   */\n      dup2\n        /* \"#utility.yul\":21077:21121   */\n      tag_389\n      jump\t// in\n    tag_637:\n        /* \"#utility.yul\":21072:21075   */\n      dup3\n        /* \"#utility.yul\":21065:21122   */\n      mstore\n        /* \"#utility.yul\":20983:21128   */\n      pop\n      pop\n      jump\t// out\n        /* \"#utility.yul\":21134:21370   */\n    tag_162:\n        /* \"#utility.yul\":21234:21238   */\n      0x00\n        /* \"#utility.yul\":21272:21274   */\n      0x20\n        /* \"#utility.yul\":21261:21270   */\n      dup3\n        /* \"#utility.yul\":21257:21275   */\n      add\n        /* \"#utility.yul\":21249:21275   */\n      swap1\n      pop\n        /* \"#utility.yul\":21285:21363   */\n      tag_639\n        /* \"#utility.yul\":21360:21361   */\n      0x00\n        /* \"#utility.yul\":21349:21358   */\n      dup4\n        /* \"#utility.yul\":21345:21362   */\n      add\n        /* \"#utility.yul\":21336:21342   */\n      dup5\n        /* \"#utility.yul\":21285:21363   */\n      tag_390\n      jump\t// in\n    tag_639:\n        /* \"#utility.yul\":21134:21370   */\n      swap3\n      swap2\n      pop\n      pop\n      jump\t// out\n        /* \"#utility.yul\":21376:21556   */\n    tag_391:\n        /* \"#utility.yul\":21424:21501   */\n      0x4e487b7100000000000000000000000000000000000000000000000000000000\n        /* \"#utility.yul\":21421:21422   */\n      0x00\n        /* \"#utility.yul\":21414:21502   */\n      mstore\n        /* \"#utility.yul\":21521:21525   */\n      0x22\n        /* \"#utility.yul\":21518:21519   */\n      0x04\n        /* \"#utility.yul\":21511:21526   */\n      mstore\n        /* \"#utility.yul\":21545:21549   */\n      0x24\n        /* \"#utility.yul\":21542:21543   */\n      0x00\n        /* \"#utility.yul\":21535:21550   */\n      revert\n        /* \"#utility.yul\":21562:21882   */\n    tag_170:\n        /* \"#utility.yul\":21606:21612   */\n      0x00\n        /* \"#utility.yul\":21643:21644   */\n      0x02\n        /* \"#utility.yul\":21637:21641   */\n      dup3\n        /* \"#utility.yul\":21633:21645   */\n      div\n        /* \"#utility.yul\":21623:21645   */\n      swap1\n      pop\n        /* \"#utility.yul\":21690:21691   */\n      0x01\n        /* \"#utility.yul\":21684:21688   */\n      dup3\n        /* \"#utility.yul\":21680:21692   */\n      and\n        /* \"#utility.yul\":21711:21729   */\n      dup1\n        /* \"#utility.yul\":21701:21782   */\n      tag_642\n      jumpi\n        /* \"#utility.yul\":21767:21771   */\n      0x7f\n        /* \"#utility.yul\":21759:21765   */\n      dup3\n        /* \"#utility.yul\":21755:21772   */\n      and\n        /* \"#utility.yul\":21745:21772   */\n      swap2\n      pop\n        /* \"#utility.yul\":21701:21782   */\n    tag_642:\n        /* \"#utility.yul\":21829:21831   */\n      0x20\n        /* \"#utility.yul\":21821:21827   */\n      dup3\n        /* \"#utility.yul\":21818:21832   */\n      lt\n        /* \"#utility.yul\":21798:21816   */\n      dup2\n        /* \"#utility.yul\":21795:21833   */\n      sub\n        /* \"#utility.yul\":21792:21876   */\n      tag_643\n      jumpi\n        /* \"#utility.yul\":21848:21866   */\n      tag_644\n      tag_391\n      jump\t// in\n    tag_644:\n        /* \"#utility.yul\":21792:21876   */\n    tag_643:\n        /* \"#utility.yul\":21613:21882   */\n      pop\n        /* \"#utility.yul\":21562:21882   */\n      swap2\n      swap1\n      pop\n      jump\t// out\n        /* \"#utility.yul\":21888:21978   */\n    tag_392:\n        /* \"#utility.yul\":21922:21929   */\n      0x00\n        /* \"#utility.yul\":21965:21970   */\n      dup2\n        /* \"#utility.yul\":21958:21971   */\n      iszero\n        /* \"#utility.yul\":21951:21972   */\n      iszero\n        /* \"#utility.yul\":21940:21972   */\n      swap1\n      pop\n        /* \"#utility.yul\":21888:21978   */\n      swap2\n      swap1\n      pop\n      jump\t// out\n        /* \"#utility.yul\":21984:22100   */\n    tag_393:\n        /* \"#utility.yul\":22054:22075   */\n      tag_647\n        /* \"#utility.yul\":22069:22074   */\n      dup2\n        /* \"#utility.yul\":22054:22075   */\n      tag_392\n      jump\t// in\n    tag_647:\n        /* \"#utility.yul\":22047:22052   */\n      dup2\n        /* \"#utility.yul\":22044:22076   */\n      eq\n        /* \"#utility.yul\":22034:22094   */\n      tag_648\n      jumpi\n        /* \"#utility.yul\":22090:22091   */\n      0x00\n        /* \"#utility.yul\":22087:22088   */\n      dup1\n        /* \"#utility.yul\":22080:22092   */\n      revert\n        /* \"#utility.yul\":22034:22094   */\n    tag_648:\n        /* \"#utility.yul\":21984:22100   */\n      pop\n      jump\t// out\n        /* \"#utility.yul\":22106:22243   */\n    tag_394:\n        /* \"#utility.yul\":22160:22165   */\n      0x00\n        /* \"#utility.yul\":22191:22197   */\n      dup2\n        /* \"#utility.yul\":22185:22198   */\n      mload\n        /* \"#utility.yul\":22176:22198   */\n      swap1\n      pop\n        /* \"#utility.yul\":22207:22237   */\n      tag_650\n        /* \"#utility.yul\":22231:22236   */\n      dup2\n        /* \"#utility.yul\":22207:22237   */\n      tag_393\n      jump\t// in\n    tag_650:\n        /* \"#utility.yul\":22106:22243   */\n      swap3\n      swap2\n      pop\n      pop\n      jump\t// out\n        /* \"#utility.yul\":22249:22594   */\n    tag_183:\n        /* \"#utility.yul\":22316:22322   */\n      0x00\n        /* \"#utility.yul\":22365:22367   */\n      0x20\n        /* \"#utility.yul\":22353:22362   */\n      dup3\n        /* \"#utility.yul\":22344:22351   */\n      dup5\n        /* \"#utility.yul\":22340:22363   */\n      sub\n        /* \"#utility.yul\":22336:22368   */\n      slt\n        /* \"#utility.yul\":22333:22452   */\n      iszero\n      tag_652\n      jumpi\n        /* \"#utility.yul\":22371:22450   */\n      tag_653\n      tag_338\n      jump\t// in\n    tag_653:\n        /* \"#utility.yul\":22333:22452   */\n    tag_652:\n        /* \"#utility.yul\":22491:22492   */\n      0x00\n        /* \"#utility.yul\":22516:22577   */\n      tag_654\n        /* \"#utility.yul\":22569:22576   */\n      dup5\n        /* \"#utility.yul\":22560:22566   */\n      dup3\n        /* \"#utility.yul\":22549:22558   */\n      dup6\n        /* \"#utility.yul\":22545:22567   */\n      add\n        /* \"#utility.yul\":22516:22577   */\n      tag_394\n      jump\t// in\n    tag_654:\n        /* \"#utility.yul\":22506:22577   */\n      swap2\n      pop\n        /* \"#utility.yul\":22462:22587   */\n      pop\n        /* \"#utility.yul\":22249:22594   */\n      swap3\n      swap2\n      pop\n      pop\n      jump\t// out\n        /* \"#utility.yul\":22600:22772   */\n    tag_395:\n        /* \"#utility.yul\":22740:22764   */\n      0x43616c6c6572206973206e6f7420616e2061646d696e00000000000000000000\n        /* \"#utility.yul\":22736:22737   */\n      0x00\n        /* \"#utility.yul\":22728:22734   */\n      dup3\n        /* \"#utility.yul\":22724:22738   */\n      add\n        /* \"#utility.yul\":22717:22765   */\n      mstore\n        /* \"#utility.yul\":22600:22772   */\n      pop\n      jump\t// out\n        /* \"#utility.yul\":22778:23144   */\n    tag_396:\n        /* \"#utility.yul\":22920:22923   */\n      0x00\n        /* \"#utility.yul\":22941:23008   */\n      tag_657\n        /* \"#utility.yul\":23005:23007   */\n      0x16\n        /* \"#utility.yul\":23000:23003   */\n      dup4\n        /* \"#utility.yul\":22941:23008   */\n      tag_334\n      jump\t// in\n    tag_657:\n        /* \"#utility.yul\":22934:23008   */\n      swap2\n      pop\n        /* \"#utility.yul\":23017:23110   */\n      tag_658\n        /* \"#utility.yul\":23106:23109   */\n      dup3\n        /* \"#utility.yul\":23017:23110   */\n      tag_395\n      jump\t// in\n    tag_658:\n        /* \"#utility.yul\":23135:23137   */\n      0x20\n        /* \"#utility.yul\":23130:23133   */\n      dup3\n        /* \"#utility.yul\":23126:23138   */\n      add\n        /* \"#utility.yul\":23119:23138   */\n      swap1\n      pop\n        /* \"#utility.yul\":22778:23144   */\n      swap2\n      swap1\n      pop\n      jump\t// out\n        /* \"#utility.yul\":23150:23569   */\n    tag_186:\n        /* \"#utility.yul\":23316:23320   */\n      0x00\n        /* \"#utility.yul\":23354:23356   */\n      0x20\n        /* \"#utility.yul\":23343:23352   */\n      dup3\n        /* \"#utility.yul\":23339:23357   */\n      add\n        /* \"#utility.yul\":23331:23357   */\n      swap1\n      pop\n        /* \"#utility.yul\":23403:23412   */\n      dup2\n        /* \"#utility.yul\":23397:23401   */\n      dup2\n        /* \"#utility.yul\":23393:23413   */\n      sub\n        /* \"#utility.yul\":23389:23390   */\n      0x00\n        /* \"#utility.yul\":23378:23387   */\n      dup4\n        /* \"#utility.yul\":23374:23391   */\n      add\n        /* \"#utility.yul\":23367:23414   */\n      mstore\n        /* \"#utility.yul\":23431:23562   */\n      tag_660\n        /* \"#utility.yul\":23557:23561   */\n      dup2\n        /* \"#utility.yul\":23431:23562   */\n      tag_396\n      jump\t// in\n    tag_660:\n        /* \"#utility.yul\":23423:23562   */\n      swap1\n      pop\n        /* \"#utility.yul\":23150:23569   */\n      swap2\n      swap1\n      pop\n      jump\t// out\n        /* \"#utility.yul\":23575:23796   */\n    tag_397:\n        /* \"#utility.yul\":23715:23749   */\n      0x53746172742074696d65206d757374206265206265666f726520656e64207469\n        /* \"#utility.yul\":23711:23712   */\n      0x00\n        /* \"#utility.yul\":23703:23709   */\n      dup3\n        /* \"#utility.yul\":23699:23713   */\n      add\n        /* \"#utility.yul\":23692:23750   */\n      mstore\n        /* \"#utility.yul\":23784:23788   */\n      0x6d65000000000000000000000000000000000000000000000000000000000000\n        /* \"#utility.yul\":23779:23781   */\n      0x20\n        /* \"#utility.yul\":23771:23777   */\n      dup3\n        /* \"#utility.yul\":23767:23782   */\n      add\n        /* \"#utility.yul\":23760:23789   */\n      mstore\n        /* \"#utility.yul\":23575:23796   */\n      pop\n      jump\t// out\n        /* \"#utility.yul\":23802:24168   */\n    tag_398:\n        /* \"#utility.yul\":23944:23947   */\n      0x00\n        /* \"#utility.yul\":23965:24032   */\n      tag_663\n        /* \"#utility.yul\":24029:24031   */\n      0x22\n        /* \"#utility.yul\":24024:24027   */\n      dup4\n        /* \"#utility.yul\":23965:24032   */\n      tag_334\n      jump\t// in\n    tag_663:\n        /* \"#utility.yul\":23958:24032   */\n      swap2\n      pop\n        /* \"#utility.yul\":24041:24134   */\n      tag_664\n        /* \"#utility.yul\":24130:24133   */\n      dup3\n        /* \"#utility.yul\":24041:24134   */\n      tag_397\n      jump\t// in\n    tag_664:\n        /* \"#utility.yul\":24159:24161   */\n      0x40\n        /* \"#utility.yul\":24154:24157   */\n      dup3\n        /* \"#utility.yul\":24150:24162   */\n      add\n        /* \"#utility.yul\":24143:24162   */\n      swap1\n      pop\n        /* \"#utility.yul\":23802:24168   */\n      swap2\n      swap1\n      pop\n      jump\t// out\n        /* \"#utility.yul\":24174:24593   */\n    tag_190:\n        /* \"#utility.yul\":24340:24344   */\n      0x00\n        /* \"#utility.yul\":24378:24380   */\n      0x20\n        /* \"#utility.yul\":24367:24376   */\n      dup3\n        /* \"#utility.yul\":24363:24381   */\n      add\n        /* \"#utility.yul\":24355:24381   */\n      swap1\n      pop\n        /* \"#utility.yul\":24427:24436   */\n      dup2\n        /* \"#utility.yul\":24421:24425   */\n      dup2\n        /* \"#utility.yul\":24417:24437   */\n      sub\n        /* \"#utility.yul\":24413:24414   */\n      0x00\n        /* \"#utility.yul\":24402:24411   */\n      dup4\n        /* \"#utility.yul\":24398:24415   */\n      add\n        /* \"#utility.yul\":24391:24438   */\n      mstore\n        /* \"#utility.yul\":24455:24586   */\n      tag_666\n        /* \"#utility.yul\":24581:24585   */\n      dup2\n        /* \"#utility.yul\":24455:24586   */\n      tag_398\n      jump\t// in\n    tag_666:\n        /* \"#utility.yul\":24447:24586   */\n      swap1\n      pop\n        /* \"#utility.yul\":24174:24593   */\n      swap2\n      swap1\n      pop\n      jump\t// out\n        /* \"#utility.yul\":24599:24740   */\n    tag_399:\n        /* \"#utility.yul\":24648:24652   */\n      0x00\n        /* \"#utility.yul\":24671:24674   */\n      dup2\n        /* \"#utility.yul\":24663:24674   */\n      swap1\n      pop\n        /* \"#utility.yul\":24694:24697   */\n      dup2\n        /* \"#utility.yul\":24691:24692   */\n      0x00\n        /* \"#utility.yul\":24684:24698   */\n      mstore\n        /* \"#utility.yul\":24728:24732   */\n      0x20\n        /* \"#utility.yul\":24725:24726   */\n      0x00\n        /* \"#utility.yul\":24715:24733   */\n      keccak256\n        /* \"#utility.yul\":24707:24733   */\n      swap1\n      pop\n        /* \"#utility.yul\":24599:24740   */\n      swap2\n      swap1\n      pop\n      jump\t// out\n        /* \"#utility.yul\":24746:24839   */\n    tag_400:\n        /* \"#utility.yul\":24783:24789   */\n      0x00\n        /* \"#utility.yul\":24830:24832   */\n      0x20\n        /* \"#utility.yul\":24825:24827   */\n      0x1f\n        /* \"#utility.yul\":24818:24823   */\n      dup4\n        /* \"#utility.yul\":24814:24828   */\n      add\n        /* \"#utility.yul\":24810:24833   */\n      div\n        /* \"#utility.yul\":24800:24833   */\n      swap1\n      pop\n        /* \"#utility.yul\":24746:24839   */\n      swap2\n      swap1\n      pop\n      jump\t// out\n        /* \"#utility.yul\":24845:24952   */\n    tag_401:\n        /* \"#utility.yul\":24889:24897   */\n      0x00\n        /* \"#utility.yul\":24939:24944   */\n      dup3\n        /* \"#utility.yul\":24933:24937   */\n      dup3\n        /* \"#utility.yul\":24929:24945   */\n      shl\n        /* \"#utility.yul\":24908:24945   */\n      swap1\n      pop\n        /* \"#utility.yul\":24845:24952   */\n      swap3\n      swap2\n      pop\n      pop\n      jump\t// out\n        /* \"#utility.yul\":24958:25351   */\n    tag_402:\n        /* \"#utility.yul\":25027:25033   */\n      0x00\n        /* \"#utility.yul\":25077:25078   */\n      0x08\n        /* \"#utility.yul\":25065:25075   */\n      dup4\n        /* \"#utility.yul\":25061:25079   */\n      mul\n        /* \"#utility.yul\":25100:25197   */\n      tag_671\n        /* \"#utility.yul\":25130:25196   */\n      0xffffffffffffffffffffffffffffffffffffffffffffffffffffffffffffffff\n        /* \"#utility.yul\":25119:25128   */\n      dup3\n        /* \"#utility.yul\":25100:25197   */\n      tag_401\n      jump\t// in\n    tag_671:\n        /* \"#utility.yul\":25218:25257   */\n      tag_672\n        /* \"#utility.yul\":25248:25256   */\n      dup7\n        /* \"#utility.yul\":25237:25246   */\n      dup4\n        /* \"#utility.yul\":25218:25257   */\n      tag_401\n      jump\t// in\n    tag_672:\n        /* \"#utility.yul\":25206:25257   */\n      swap6\n      pop\n        /* \"#utility.yul\":25290:25294   */\n      dup1\n        /* \"#utility.yul\":25286:25295   */\n      not\n        /* \"#utility.yul\":25279:25284   */\n      dup5\n        /* \"#utility.yul\":25275:25296   */\n      and\n        /* \"#utility.yul\":25266:25296   */\n      swap4\n      pop\n        /* \"#utility.yul\":25339:25343   */\n      dup1\n        /* \"#utility.yul\":25329:25337   */\n      dup7\n        /* \"#utility.yul\":25325:25344   */\n      and\n        /* \"#utility.yul\":25318:25323   */\n      dup5\n        /* \"#utility.yul\":25315:25345   */\n      or\n        /* \"#utility.yul\":25305:25345   */\n      swap3\n      pop\n        /* \"#utility.yul\":25034:25351   */\n      pop\n      pop\n        /* \"#utility.yul\":24958:25351   */\n      swap4\n      swap3\n      pop\n      pop\n      pop\n      jump\t// out\n        /* \"#utility.yul\":25357:25499   */\n    tag_403:\n        /* \"#utility.yul\":25407:25416   */\n      0x00\n        /* \"#utility.yul\":25440:25493   */\n      tag_674\n        /* \"#utility.yul\":25458:25492   */\n      tag_675\n        /* \"#utility.yul\":25467:25491   */\n      tag_676\n        /* \"#utility.yul\":25485:25490   */\n      dup5\n        /* \"#utility.yul\":25467:25491   */\n      tag_331\n      jump\t// in\n    tag_676:\n        /* \"#utility.yul\":25458:25492   */\n      tag_347\n      jump\t// in\n    tag_675:\n        /* \"#utility.yul\":25440:25493   */\n      tag_331\n      jump\t// in\n    tag_674:\n        /* \"#utility.yul\":25427:25493   */\n      swap1\n      pop\n        /* \"#utility.yul\":25357:25499   */\n      swap2\n      swap1\n      pop\n      jump\t// out\n        /* \"#utility.yul\":25505:25580   */\n    tag_404:\n        /* \"#utility.yul\":25548:25551   */\n      0x00\n        /* \"#utility.yul\":25569:25574   */\n      dup2\n        /* \"#utility.yul\":25562:25574   */\n      swap1\n      pop\n        /* \"#utility.yul\":25505:25580   */\n      swap2\n      swap1\n      pop\n      jump\t// out\n        /* \"#utility.yul\":25586:25855   */\n    tag_405:\n        /* \"#utility.yul\":25696:25735   */\n      tag_679\n        /* \"#utility.yul\":25727:25734   */\n      dup4\n        /* \"#utility.yul\":25696:25735   */\n      tag_403\n      jump\t// in\n    tag_679:\n        /* \"#utility.yul\":25757:25848   */\n      tag_680\n        /* \"#utility.yul\":25806:25847   */\n      tag_681\n        /* \"#utility.yul\":25830:25846   */\n      dup3\n        /* \"#utility.yul\":25806:25847   */\n      tag_404\n      jump\t// in\n    tag_681:\n        /* \"#utility.yul\":25798:25804   */\n      dup5\n        /* \"#utility.yul\":25791:25795   */\n      dup5\n        /* \"#utility.yul\":25785:25796   */\n      sload\n        /* \"#utility.yul\":25757:25848   */\n      tag_402\n      jump\t// in\n    tag_680:\n        /* \"#utility.yul\":25751:25755   */\n      dup3\n        /* \"#utility.yul\":25744:25849   */\n      sstore\n        /* \"#utility.yul\":25662:25855   */\n      pop\n        /* \"#utility.yul\":25586:25855   */\n      pop\n      pop\n      pop\n      jump\t// out\n        /* \"#utility.yul\":25861:25934   */\n    tag_406:\n        /* \"#utility.yul\":25906:25909   */\n      0x00\n        /* \"#utility.yul\":25861:25934   */\n      swap1\n      jump\t// out\n        /* \"#utility.yul\":25940:26129   */\n    tag_407:\n        /* \"#utility.yul\":26017:26049   */\n      tag_684\n      tag_406\n      jump\t// in\n    tag_684:\n        /* \"#utility.yul\":26058:26123   */\n      tag_685\n        /* \"#utility.yul\":26116:26122   */\n      dup2\n        /* \"#utility.yul\":26108:26114   */\n      dup5\n        /* \"#utility.yul\":26102:26106   */\n      dup5\n        /* \"#utility.yul\":26058:26123   */\n      tag_405\n      jump\t// in\n    tag_685:\n        /* \"#utility.yul\":25993:26129   */\n      pop\n        /* \"#utility.yul\":25940:26129   */\n      pop\n      pop\n      jump\t// out\n        /* \"#utility.yul\":26135:26321   */\n    tag_408:\n        /* \"#utility.yul\":26195:26315   */\n    tag_687:\n        /* \"#utility.yul\":26212:26215   */\n      dup2\n        /* \"#utility.yul\":26205:26210   */\n      dup2\n        /* \"#utility.yul\":26202:26216   */\n      lt\n        /* \"#utility.yul\":26195:26315   */\n      iszero\n      tag_689\n      jumpi\n        /* \"#utility.yul\":26266:26305   */\n      tag_690\n        /* \"#utility.yul\":26303:26304   */\n      0x00\n        /* \"#utility.yul\":26296:26301   */\n      dup3\n        /* \"#utility.yul\":26266:26305   */\n      tag_407\n      jump\t// in\n    tag_690:\n        /* \"#utility.yul\":26239:26240   */\n      0x01\n        /* \"#utility.yul\":26232:26237   */\n      dup2\n        /* \"#utility.yul\":26228:26241   */\n      add\n        /* \"#utility.yul\":26219:26241   */\n      swap1\n      pop\n        /* \"#utility.yul\":26195:26315   */\n      jump(tag_687)\n    tag_689:\n        /* \"#utility.yul\":26135:26321   */\n      pop\n      pop\n      jump\t// out\n        /* \"#utility.yul\":26327:26870   */\n    tag_409:\n        /* \"#utility.yul\":26428:26430   */\n      0x1f\n        /* \"#utility.yul\":26423:26426   */\n      dup3\n        /* \"#utility.yul\":26420:26431   */\n      gt\n        /* \"#utility.yul\":26417:26863   */\n      iszero\n      tag_692\n      jumpi\n        /* \"#utility.yul\":26462:26500   */\n      tag_693\n        /* \"#utility.yul\":26494:26499   */\n      dup2\n        /* \"#utility.yul\":26462:26500   */\n      tag_399\n      jump\t// in\n    tag_693:\n        /* \"#utility.yul\":26546:26575   */\n      tag_694\n        /* \"#utility.yul\":26564:26574   */\n      dup5\n        /* \"#utility.yul\":26546:26575   */\n      tag_400\n      jump\t// in\n    tag_694:\n        /* \"#utility.yul\":26536:26544   */\n      dup2\n        /* \"#utility.yul\":26532:26576   */\n      add\n        /* \"#utility.yul\":26729:26731   */\n      0x20\n        /* \"#utility.yul\":26717:26727   */\n      dup6\n        /* \"#utility.yul\":26714:26732   */\n      lt\n        /* \"#utility.yul\":26711:26760   */\n      iszero\n      tag_695\n      jumpi\n        /* \"#utility.yul\":26750:26758   */\n      dup2\n        /* \"#utility.yul\":26735:26758   */\n      swap1\n      pop\n        /* \"#utility.yul\":26711:26760   */\n    tag_695:\n        /* \"#utility.yul\":26773:26853   */\n      tag_696\n        /* \"#utility.yul\":26829:26851   */\n      tag_697\n        /* \"#utility.yul\":26847:26850   */\n      dup6\n        /* \"#utility.yul\":26829:26851   */\n      tag_400\n      jump\t// in\n    tag_697:\n        /* \"#utility.yul\":26819:26827   */\n      dup4\n        /* \"#utility.yul\":26815:26852   */\n      add\n        /* \"#utility.yul\":26802:26813   */\n      dup3\n        /* \"#utility.yul\":26773:26853   */\n      tag_408\n      jump\t// in\n    tag_696:\n        /* \"#utility.yul\":26432:26863   */\n      pop\n      pop\n        /* \"#utility.yul\":26417:26863   */\n    tag_692:\n        /* \"#utility.yul\":26327:26870   */\n      pop\n      pop\n      pop\n      jump\t// out\n        /* \"#utility.yul\":26876:26993   */\n    tag_410:\n        /* \"#utility.yul\":26930:26938   */\n      0x00\n        /* \"#utility.yul\":26980:26985   */\n      dup3\n        /* \"#utility.yul\":26974:26978   */\n      dup3\n        /* \"#utility.yul\":26970:26986   */\n      shr\n        /* \"#utility.yul\":26949:26986   */\n      swap1\n      pop\n        /* \"#utility.yul\":26876:26993   */\n      swap3\n      swap2\n      pop\n      pop\n      jump\t// out\n        /* \"#utility.yul\":26999:27168   */\n    tag_411:\n        /* \"#utility.yul\":27043:27049   */\n      0x00\n        /* \"#utility.yul\":27076:27127   */\n      tag_700\n        /* \"#utility.yul\":27124:27125   */\n      0x00\n        /* \"#utility.yul\":27120:27126   */\n      not\n        /* \"#utility.yul\":27112:27117   */\n      dup5\n        /* \"#utility.yul\":27109:27110   */\n      0x08\n        /* \"#utility.yul\":27105:27118   */\n      mul\n        /* \"#utility.yul\":27076:27127   */\n      tag_410\n      jump\t// in\n    tag_700:\n        /* \"#utility.yul\":27072:27128   */\n      not\n        /* \"#utility.yul\":27157:27161   */\n      dup1\n        /* \"#utility.yul\":27151:27155   */\n      dup4\n        /* \"#utility.yul\":27147:27162   */\n      and\n        /* \"#utility.yul\":27137:27162   */\n      swap2\n      pop\n        /* \"#utility.yul\":27050:27168   */\n      pop\n        /* \"#utility.yul\":26999:27168   */\n      swap3\n      swap2\n      pop\n      pop\n      jump\t// out\n        /* \"#utility.yul\":27173:27468   */\n    tag_412:\n        /* \"#utility.yul\":27249:27253   */\n      0x00\n        /* \"#utility.yul\":27395:27424   */\n      tag_702\n        /* \"#utility.yul\":27420:27423   */\n      dup4\n        /* \"#utility.yul\":27414:27418   */\n      dup4\n        /* \"#utility.yul\":27395:27424   */\n      tag_411\n      jump\t// in\n    tag_702:\n        /* \"#utility.yul\":27387:27424   */\n      swap2\n      pop\n        /* \"#utility.yul\":27457:27460   */\n      dup3\n        /* \"#utility.yul\":27454:27455   */\n      0x02\n        /* \"#utility.yul\":27450:27461   */\n      mul\n        /* \"#utility.yul\":27444:27448   */\n      dup3\n        /* \"#utility.yul\":27441:27462   */\n      or\n        /* \"#utility.yul\":27433:27462   */\n      swap1\n      pop\n        /* \"#utility.yul\":27173:27468   */\n      swap3\n      swap2\n      pop\n      pop\n      jump\t// out\n        /* \"#utility.yul\":27473:28868   */\n    tag_192:\n        /* \"#utility.yul\":27590:27627   */\n      tag_704\n        /* \"#utility.yul\":27623:27626   */\n      dup3\n        /* \"#utility.yul\":27590:27627   */\n      tag_354\n      jump\t// in\n    tag_704:\n        /* \"#utility.yul\":27692:27710   */\n      0xffffffffffffffff\n        /* \"#utility.yul\":27684:27690   */\n      dup2\n        /* \"#utility.yul\":27681:27711   */\n      gt\n        /* \"#utility.yul\":27678:27734   */\n      iszero\n      tag_705\n      jumpi\n        /* \"#utility.yul\":27714:27732   */\n      tag_706\n      tag_362\n      jump\t// in\n    tag_706:\n        /* \"#utility.yul\":27678:27734   */\n    tag_705:\n        /* \"#utility.yul\":27758:27796   */\n      tag_707\n        /* \"#utility.yul\":27790:27794   */\n      dup3\n        /* \"#utility.yul\":27784:27795   */\n      sload\n        /* \"#utility.yul\":27758:27796   */\n      tag_170\n      jump\t// in\n    tag_707:\n        /* \"#utility.yul\":27843:27910   */\n      tag_708\n        /* \"#utility.yul\":27903:27909   */\n      dup3\n        /* \"#utility.yul\":27895:27901   */\n      dup3\n        /* \"#utility.yul\":27889:27893   */\n      dup6\n        /* \"#utility.yul\":27843:27910   */\n      tag_409\n      jump\t// in\n    tag_708:\n        /* \"#utility.yul\":27937:27938   */\n      0x00\n        /* \"#utility.yul\":27961:27965   */\n      0x20\n        /* \"#utility.yul\":27948:27965   */\n      swap1\n      pop\n        /* \"#utility.yul\":27993:27995   */\n      0x1f\n        /* \"#utility.yul\":27985:27991   */\n      dup4\n        /* \"#utility.yul\":27982:27996   */\n      gt\n        /* \"#utility.yul\":28010:28011   */\n      0x01\n        /* \"#utility.yul\":28005:28623   */\n      dup2\n      eq\n      tag_710\n      jumpi\n        /* \"#utility.yul\":28667:28668   */\n      0x00\n        /* \"#utility.yul\":28684:28690   */\n      dup5\n        /* \"#utility.yul\":28681:28758   */\n      iszero\n      tag_711\n      jumpi\n        /* \"#utility.yul\":28733:28742   */\n      dup3\n        /* \"#utility.yul\":28728:28731   */\n      dup8\n        /* \"#utility.yul\":28724:28743   */\n      add\n        /* \"#utility.yul\":28718:28744   */\n      mload\n        /* \"#utility.yul\":28709:28744   */\n      swap1\n      pop\n        /* \"#utility.yul\":28681:28758   */\n    tag_711:\n        /* \"#utility.yul\":28784:28851   */\n      tag_712\n        /* \"#utility.yul\":28844:28850   */\n      dup6\n        /* \"#utility.yul\":28837:28842   */\n      dup3\n        /* \"#utility.yul\":28784:28851   */\n      tag_412\n      jump\t// in\n    tag_712:\n        /* \"#utility.yul\":28778:28782   */\n      dup7\n        /* \"#utility.yul\":28771:28852   */\n      sstore\n        /* \"#utility.yul\":28640:28862   */\n      pop\n        /* \"#utility.yul\":27975:28862   */\n      jump(tag_709)\n        /* \"#utility.yul\":28005:28623   */\n    tag_710:\n        /* \"#utility.yul\":28057:28061   */\n      0x1f\n        /* \"#utility.yul\":28053:28062   */\n      not\n        /* \"#utility.yul\":28045:28051   */\n      dup5\n        /* \"#utility.yul\":28041:28063   */\n      and\n        /* \"#utility.yul\":28091:28128   */\n      tag_713\n        /* \"#utility.yul\":28123:28127   */\n      dup7\n        /* \"#utility.yul\":28091:28128   */\n      tag_399\n      jump\t// in\n    tag_713:\n        /* \"#utility.yul\":28150:28151   */\n      0x00\n        /* \"#utility.yul\":28164:28372   */\n    tag_714:\n        /* \"#utility.yul\":28178:28185   */\n      dup3\n        /* \"#utility.yul\":28175:28176   */\n      dup2\n        /* \"#utility.yul\":28172:28186   */\n      lt\n        /* \"#utility.yul\":28164:28372   */\n      iszero\n      tag_716\n      jumpi\n        /* \"#utility.yul\":28257:28266   */\n      dup5\n        /* \"#utility.yul\":28252:28255   */\n      dup10\n        /* \"#utility.yul\":28248:28267   */\n      add\n        /* \"#utility.yul\":28242:28268   */\n      mload\n        /* \"#utility.yul\":28234:28240   */\n      dup3\n        /* \"#utility.yul\":28227:28269   */\n      sstore\n        /* \"#utility.yul\":28308:28309   */\n      0x01\n        /* \"#utility.yul\":28300:28306   */\n      dup3\n        /* \"#utility.yul\":28296:28310   */\n      add\n        /* \"#utility.yul\":28286:28310   */\n      swap2\n      pop\n        /* \"#utility.yul\":28355:28357   */\n      0x20\n        /* \"#utility.yul\":28344:28353   */\n      dup6\n        /* \"#utility.yul\":28340:28358   */\n      add\n        /* \"#utility.yul\":28327:28358   */\n      swap5\n      pop\n        /* \"#utility.yul\":28201:28205   */\n      0x20\n        /* \"#utility.yul\":28198:28199   */\n      dup2\n        /* \"#utility.yul\":28194:28206   */\n      add\n        /* \"#utility.yul\":28189:28206   */\n      swap1\n      pop\n        /* \"#utility.yul\":28164:28372   */\n      jump(tag_714)\n    tag_716:\n        /* \"#utility.yul\":28400:28406   */\n      dup7\n        /* \"#utility.yul\":28391:28398   */\n      dup4\n        /* \"#utility.yul\":28388:28407   */\n      lt\n        /* \"#utility.yul\":28385:28564   */\n      iszero\n      tag_717\n      jumpi\n        /* \"#utility.yul\":28458:28467   */\n      dup5\n        /* \"#utility.yul\":28453:28456   */\n      dup10\n        /* \"#utility.yul\":28449:28468   */\n      add\n        /* \"#utility.yul\":28443:28469   */\n      mload\n        /* \"#utility.yul\":28501:28549   */\n      tag_718\n        /* \"#utility.yul\":28543:28547   */\n      0x1f\n        /* \"#utility.yul\":28535:28541   */\n      dup10\n        /* \"#utility.yul\":28531:28548   */\n      and\n        /* \"#utility.yul\":28520:28529   */\n      dup3\n        /* \"#utility.yul\":28501:28549   */\n      tag_411\n      jump\t// in\n    tag_718:\n        /* \"#utility.yul\":28493:28499   */\n      dup4\n        /* \"#utility.yul\":28486:28550   */\n      sstore\n        /* \"#utility.yul\":28408:28564   */\n      pop\n        /* \"#utility.yul\":28385:28564   */\n    tag_717:\n        /* \"#utility.yul\":28610:28611   */\n      0x01\n        /* \"#utility.yul\":28606:28607   */\n      0x02\n        /* \"#utility.yul\":28598:28604   */\n      dup9\n        /* \"#utility.yul\":28594:28608   */\n      mul\n        /* \"#utility.yul\":28590:28612   */\n      add\n        /* \"#utility.yul\":28584:28588   */\n      dup9\n        /* \"#utility.yul\":28577:28613   */\n      sstore\n        /* \"#utility.yul\":28012:28623   */\n      pop\n      pop\n      pop\n        /* \"#utility.yul\":27975:28862   */\n    tag_709:\n      pop\n        /* \"#utility.yul\":27565:28868   */\n      pop\n      pop\n      pop\n        /* \"#utility.yul\":27473:28868   */\n      pop\n      pop\n      jump\t// out\n        /* \"#utility.yul\":28874:29403   */\n    tag_194:\n        /* \"#utility.yul\":29041:29045   */\n      0x00\n        /* \"#utility.yul\":29079:29081   */\n      0x60\n        /* \"#utility.yul\":29068:29077   */\n      dup3\n        /* \"#utility.yul\":29064:29082   */\n      add\n        /* \"#utility.yul\":29056:29082   */\n      swap1\n      pop\n        /* \"#utility.yul\":29092:29162   */\n      tag_720\n        /* \"#utility.yul\":29159:29160   */\n      0x00\n        /* \"#utility.yul\":29148:29157   */\n      dup4\n        /* \"#utility.yul\":29144:29161   */\n      add\n        /* \"#utility.yul\":29135:29141   */\n      dup7\n        /* \"#utility.yul\":29092:29162   */\n      tag_374\n      jump\t// in\n    tag_720:\n        /* \"#utility.yul\":29172:29243   */\n      tag_721\n        /* \"#utility.yul\":29239:29241   */\n      0x20\n        /* \"#utility.yul\":29228:29237   */\n      dup4\n        /* \"#utility.yul\":29224:29242   */\n      add\n        /* \"#utility.yul\":29215:29221   */\n      dup6\n        /* \"#utility.yul\":29172:29243   */\n      tag_374\n      jump\t// in\n    tag_721:\n        /* \"#utility.yul\":29290:29299   */\n      dup2\n        /* \"#utility.yul\":29284:29288   */\n      dup2\n        /* \"#utility.yul\":29280:29300   */\n      sub\n        /* \"#utility.yul\":29275:29277   */\n      0x40\n        /* \"#utility.yul\":29264:29273   */\n      dup4\n        /* \"#utility.yul\":29260:29278   */\n      add\n        /* \"#utility.yul\":29253:29301   */\n      mstore\n        /* \"#utility.yul\":29318:29396   */\n      tag_722\n        /* \"#utility.yul\":29391:29395   */\n      dup2\n        /* \"#utility.yul\":29382:29388   */\n      dup5\n        /* \"#utility.yul\":29318:29396   */\n      tag_357\n      jump\t// in\n    tag_722:\n        /* \"#utility.yul\":29310:29396   */\n      swap1\n      pop\n        /* \"#utility.yul\":28874:29403   */\n      swap5\n      swap4\n      pop\n      pop\n      pop\n      pop\n      jump\t// out\n        /* \"#utility.yul\":29409:29576   */\n    tag_413:\n        /* \"#utility.yul\":29549:29568   */\n      0x5a65726f20616464726573732075736572000000000000000000000000000000\n        /* \"#utility.yul\":29545:29546   */\n      0x00\n        /* \"#utility.yul\":29537:29543   */\n      dup3\n        /* \"#utility.yul\":29533:29547   */\n      add\n        /* \"#utility.yul\":29526:29569   */\n      mstore\n        /* \"#utility.yul\":29409:29576   */\n      pop\n      jump\t// out\n        /* \"#utility.yul\":29582:29948   */\n    tag_414:\n        /* \"#utility.yul\":29724:29727   */\n      0x00\n        /* \"#utility.yul\":29745:29812   */\n      tag_725\n        /* \"#utility.yul\":29809:29811   */\n      0x11\n        /* \"#utility.yul\":29804:29807   */\n      dup4\n        /* \"#utility.yul\":29745:29812   */\n      tag_334\n      jump\t// in\n    tag_725:\n        /* \"#utility.yul\":29738:29812   */\n      swap2\n      pop\n        /* \"#utility.yul\":29821:29914   */\n      tag_726\n        /* \"#utility.yul\":29910:29913   */\n      dup3\n        /* \"#utility.yul\":29821:29914   */\n      tag_413\n      jump\t// in\n    tag_726:\n        /* \"#utility.yul\":29939:29941   */\n      0x20\n        /* \"#utility.yul\":29934:29937   */\n      dup3\n        /* \"#utility.yul\":29930:29942   */\n      add\n        /* \"#utility.yul\":29923:29942   */\n      swap1\n      pop\n        /* \"#utility.yul\":29582:29948   */\n      swap2\n      swap1\n      pop\n      jump\t// out\n        /* \"#utility.yul\":29954:30373   */\n    tag_205:\n        /* \"#utility.yul\":30120:30124   */\n      0x00\n        /* \"#utility.yul\":30158:30160   */\n      0x20\n        /* \"#utility.yul\":30147:30156   */\n      dup3\n        /* \"#utility.yul\":30143:30161   */\n      add\n        /* \"#utility.yul\":30135:30161   */\n      swap1\n      pop\n        /* \"#utility.yul\":30207:30216   */\n      dup2\n        /* \"#utility.yul\":30201:30205   */\n      dup2\n        /* \"#utility.yul\":30197:30217   */\n      sub\n        /* \"#utility.yul\":30193:30194   */\n      0x00\n        /* \"#utility.yul\":30182:30191   */\n      dup4\n        /* \"#utility.yul\":30178:30195   */\n      add\n        /* \"#utility.yul\":30171:30218   */\n      mstore\n        /* \"#utility.yul\":30235:30366   */\n      tag_728\n        /* \"#utility.yul\":30361:30365   */\n      dup2\n        /* \"#utility.yul\":30235:30366   */\n      tag_414\n      jump\t// in\n    tag_728:\n        /* \"#utility.yul\":30227:30366   */\n      swap1\n      pop\n        /* \"#utility.yul\":29954:30373   */\n      swap2\n      swap1\n      pop\n      jump\t// out\n        /* \"#utility.yul\":30379:30553   */\n    tag_415:\n        /* \"#utility.yul\":30519:30545   */\n      0x4d69736d617463686564206172726179206c656e677468730000000000000000\n        /* \"#utility.yul\":30515:30516   */\n      0x00\n        /* \"#utility.yul\":30507:30513   */\n      dup3\n        /* \"#utility.yul\":30503:30517   */\n      add\n        /* \"#utility.yul\":30496:30546   */\n      mstore\n        /* \"#utility.yul\":30379:30553   */\n      pop\n      jump\t// out\n        /* \"#utility.yul\":30559:30925   */\n    tag_416:\n        /* \"#utility.yul\":30701:30704   */\n      0x00\n        /* \"#utility.yul\":30722:30789   */\n      tag_731\n        /* \"#utility.yul\":30786:30788   */\n      0x18\n        /* \"#utility.yul\":30781:30784   */\n      dup4\n        /* \"#utility.yul\":30722:30789   */\n      tag_334\n      jump\t// in\n    tag_731:\n        /* \"#utility.yul\":30715:30789   */\n      swap2\n      pop\n        /* \"#utility.yul\":30798:30891   */\n      tag_732\n        /* \"#utility.yul\":30887:30890   */\n      dup3\n        /* \"#utility.yul\":30798:30891   */\n      tag_415\n      jump\t// in\n    tag_732:\n        /* \"#utility.yul\":30916:30918   */\n      0x20\n        /* \"#utility.yul\":30911:30914   */\n      dup3\n        /* \"#utility.yul\":30907:30919   */\n      add\n        /* \"#utility.yul\":30900:30919   */\n      swap1\n      pop\n        /* \"#utility.yul\":30559:30925   */\n      swap2\n      swap1\n      pop\n      jump\t// out\n        /* \"#utility.yul\":30931:31350   */\n    tag_217:\n        /* \"#utility.yul\":31097:31101   */\n      0x00\n        /* \"#utility.yul\":31135:31137   */\n      0x20\n        /* \"#utility.yul\":31124:31133   */\n      dup3\n        /* \"#utility.yul\":31120:31138   */\n      add\n        /* \"#utility.yul\":31112:31138   */\n      swap1\n      pop\n        /* \"#utility.yul\":31184:31193   */\n      dup2\n        /* \"#utility.yul\":31178:31182   */\n      dup2\n        /* \"#utility.yul\":31174:31194   */\n      sub\n        /* \"#utility.yul\":31170:31171   */\n      0x00\n        /* \"#utility.yul\":31159:31168   */\n      dup4\n        /* \"#utility.yul\":31155:31172   */\n      add\n        /* \"#utility.yul\":31148:31195   */\n      mstore\n        /* \"#utility.yul\":31212:31343   */\n      tag_734\n        /* \"#utility.yul\":31338:31342   */\n      dup2\n        /* \"#utility.yul\":31212:31343   */\n      tag_416\n      jump\t// in\n    tag_734:\n        /* \"#utility.yul\":31204:31343   */\n      swap1\n      pop\n        /* \"#utility.yul\":30931:31350   */\n      swap2\n      swap1\n      pop\n      jump\t// out\n        /* \"#utility.yul\":31356:31536   */\n    tag_225:\n        /* \"#utility.yul\":31404:31481   */\n      0x4e487b7100000000000000000000000000000000000000000000000000000000\n        /* \"#utility.yul\":31401:31402   */\n      0x00\n        /* \"#utility.yul\":31394:31482   */\n      mstore\n        /* \"#utility.yul\":31501:31505   */\n      0x32\n        /* \"#utility.yul\":31498:31499   */\n      0x04\n        /* \"#utility.yul\":31491:31506   */\n      mstore\n        /* \"#utility.yul\":31525:31529   */\n      0x24\n        /* \"#utility.yul\":31522:31523   */\n      0x00\n        /* \"#utility.yul\":31515:31530   */\n      revert\n        /* \"#utility.yul\":31542:31772   */\n    tag_417:\n        /* \"#utility.yul\":31682:31716   */\n      0x5769746864726177616c20616d6f756e74206d75737420626520677265617465\n        /* \"#utility.yul\":31678:31679   */\n      0x00\n        /* \"#utility.yul\":31670:31676   */\n      dup3\n        /* \"#utility.yul\":31666:31680   */\n      add\n        /* \"#utility.yul\":31659:31717   */\n      mstore\n        /* \"#utility.yul\":31751:31764   */\n      0x72207468616e207a65726f000000000000000000000000000000000000000000\n        /* \"#utility.yul\":31746:31748   */\n      0x20\n        /* \"#utility.yul\":31738:31744   */\n      dup3\n        /* \"#utility.yul\":31734:31749   */\n      add\n        /* \"#utility.yul\":31727:31765   */\n      mstore\n        /* \"#utility.yul\":31542:31772   */\n      pop\n      jump\t// out\n        /* \"#utility.yul\":31778:32144   */\n    tag_418:\n        /* \"#utility.yul\":31920:31923   */\n      0x00\n        /* \"#utility.yul\":31941:32008   */\n      tag_738\n        /* \"#utility.yul\":32005:32007   */\n      0x2b\n        /* \"#utility.yul\":32000:32003   */\n      dup4\n        /* \"#utility.yul\":31941:32008   */\n      tag_334\n      jump\t// in\n    tag_738:\n        /* \"#utility.yul\":31934:32008   */\n      swap2\n      pop\n        /* \"#utility.yul\":32017:32110   */\n      tag_739\n        /* \"#utility.yul\":32106:32109   */\n      dup3\n        /* \"#utility.yul\":32017:32110   */\n      tag_417\n      jump\t// in\n    tag_739:\n        /* \"#utility.yul\":32135:32137   */\n      0x40\n        /* \"#utility.yul\":32130:32133   */\n      dup3\n        /* \"#utility.yul\":32126:32138   */\n      add\n        /* \"#utility.yul\":32119:32138   */\n      swap1\n      pop\n        /* \"#utility.yul\":31778:32144   */\n      swap2\n      swap1\n      pop\n      jump\t// out\n        /* \"#utility.yul\":32150:32569   */\n    tag_254:\n        /* \"#utility.yul\":32316:32320   */\n      0x00\n        /* \"#utility.yul\":32354:32356   */\n      0x20\n        /* \"#utility.yul\":32343:32352   */\n      dup3\n        /* \"#utility.yul\":32339:32357   */\n      add\n        /* \"#utility.yul\":32331:32357   */\n      swap1\n      pop\n        /* \"#utility.yul\":32403:32412   */\n      dup2\n        /* \"#utility.yul\":32397:32401   */\n      dup2\n        /* \"#utility.yul\":32393:32413   */\n      sub\n        /* \"#utility.yul\":32389:32390   */\n      0x00\n        /* \"#utility.yul\":32378:32387   */\n      dup4\n        /* \"#utility.yul\":32374:32391   */\n      add\n        /* \"#utility.yul\":32367:32414   */\n      mstore\n        /* \"#utility.yul\":32431:32562   */\n      tag_741\n        /* \"#utility.yul\":32557:32561   */\n      dup2\n        /* \"#utility.yul\":32431:32562   */\n      tag_418\n      jump\t// in\n    tag_741:\n        /* \"#utility.yul\":32423:32562   */\n      swap1\n      pop\n        /* \"#utility.yul\":32150:32569   */\n      swap2\n      swap1\n      pop\n      jump\t// out\n        /* \"#utility.yul\":32575:32743   */\n    tag_419:\n        /* \"#utility.yul\":32715:32735   */\n      0x496e73756666696369656e742066756e64730000000000000000000000000000\n        /* \"#utility.yul\":32711:32712   */\n      0x00\n        /* \"#utility.yul\":32703:32709   */\n      dup3\n        /* \"#utility.yul\":32699:32713   */\n      add\n        /* \"#utility.yul\":32692:32736   */\n      mstore\n        /* \"#utility.yul\":32575:32743   */\n      pop\n      jump\t// out\n        /* \"#utility.yul\":32749:33115   */\n    tag_420:\n        /* \"#utility.yul\":32891:32894   */\n      0x00\n        /* \"#utility.yul\":32912:32979   */\n      tag_744\n        /* \"#utility.yul\":32976:32978   */\n      0x12\n        /* \"#utility.yul\":32971:32974   */\n      dup4\n        /* \"#utility.yul\":32912:32979   */\n      tag_334\n      jump\t// in\n    tag_744:\n        /* \"#utility.yul\":32905:32979   */\n      swap2\n      pop\n        /* \"#utility.yul\":32988:33081   */\n      tag_745\n        /* \"#utility.yul\":33077:33080   */\n      dup3\n        /* \"#utility.yul\":32988:33081   */\n      tag_419\n      jump\t// in\n    tag_745:\n        /* \"#utility.yul\":33106:33108   */\n      0x20\n        /* \"#utility.yul\":33101:33104   */\n      dup3\n        /* \"#utility.yul\":33097:33109   */\n      add\n        /* \"#utility.yul\":33090:33109   */\n      swap1\n      pop\n        /* \"#utility.yul\":32749:33115   */\n      swap2\n      swap1\n      pop\n      jump\t// out\n        /* \"#utility.yul\":33121:33540   */\n    tag_257:\n        /* \"#utility.yul\":33287:33291   */\n      0x00\n        /* \"#utility.yul\":33325:33327   */\n      0x20\n        /* \"#utility.yul\":33314:33323   */\n      dup3\n        /* \"#utility.yul\":33310:33328   */\n      add\n        /* \"#utility.yul\":33302:33328   */\n      swap1\n      pop\n        /* \"#utility.yul\":33374:33383   */\n      dup2\n        /* \"#utility.yul\":33368:33372   */\n      dup2\n        /* \"#utility.yul\":33364:33384   */\n      sub\n        /* \"#utility.yul\":33360:33361   */\n      0x00\n        /* \"#utility.yul\":33349:33358   */\n      dup4\n        /* \"#utility.yul\":33345:33362   */\n      add\n        /* \"#utility.yul\":33338:33385   */\n      mstore\n        /* \"#utility.yul\":33402:33533   */\n      tag_747\n        /* \"#utility.yul\":33528:33532   */\n      dup2\n        /* \"#utility.yul\":33402:33533   */\n      tag_420\n      jump\t// in\n    tag_747:\n        /* \"#utility.yul\":33394:33533   */\n      swap1\n      pop\n        /* \"#utility.yul\":33121:33540   */\n      swap2\n      swap1\n      pop\n      jump\t// out\n        /* \"#utility.yul\":33546:33727   */\n    tag_421:\n        /* \"#utility.yul\":33686:33719   */\n      0x5265656e7472616e637947756172643a207265656e7472616e742063616c6c00\n        /* \"#utility.yul\":33682:33683   */\n      0x00\n        /* \"#utility.yul\":33674:33680   */\n      dup3\n        /* \"#utility.yul\":33670:33684   */\n      add\n        /* \"#utility.yul\":33663:33720   */\n      mstore\n        /* \"#utility.yul\":33546:33727   */\n      pop\n      jump\t// out\n        /* \"#utility.yul\":33733:34099   */\n    tag_422:\n        /* \"#utility.yul\":33875:33878   */\n      0x00\n        /* \"#utility.yul\":33896:33963   */\n      tag_750\n        /* \"#utility.yul\":33960:33962   */\n      0x1f\n        /* \"#utility.yul\":33955:33958   */\n      dup4\n        /* \"#utility.yul\":33896:33963   */\n      tag_334\n      jump\t// in\n    tag_750:\n        /* \"#utility.yul\":33889:33963   */\n      swap2\n      pop\n        /* \"#utility.yul\":33972:34065   */\n      tag_751\n        /* \"#utility.yul\":34061:34064   */\n      dup3\n        /* \"#utility.yul\":33972:34065   */\n      tag_421\n      jump\t// in\n    tag_751:\n        /* \"#utility.yul\":34090:34092   */\n      0x20\n        /* \"#utility.yul\":34085:34088   */\n      dup3\n        /* \"#utility.yul\":34081:34093   */\n      add\n        /* \"#utility.yul\":34074:34093   */\n      swap1\n      pop\n        /* \"#utility.yul\":33733:34099   */\n      swap2\n      swap1\n      pop\n      jump\t// out\n        /* \"#utility.yul\":34105:34524   */\n    tag_276:\n        /* \"#utility.yul\":34271:34275   */\n      0x00\n        /* \"#utility.yul\":34309:34311   */\n      0x20\n        /* \"#utility.yul\":34298:34307   */\n      dup3\n        /* \"#utility.yul\":34294:34312   */\n      add\n        /* \"#utility.yul\":34286:34312   */\n      swap1\n      pop\n        /* \"#utility.yul\":34358:34367   */\n      dup2\n        /* \"#utility.yul\":34352:34356   */\n      dup2\n        /* \"#utility.yul\":34348:34368   */\n      sub\n        /* \"#utility.yul\":34344:34345   */\n      0x00\n        /* \"#utility.yul\":34333:34342   */\n      dup4\n        /* \"#utility.yul\":34329:34346   */\n      add\n        /* \"#utility.yul\":34322:34369   */\n      mstore\n        /* \"#utility.yul\":34386:34517   */\n      tag_753\n        /* \"#utility.yul\":34512:34516   */\n      dup2\n        /* \"#utility.yul\":34386:34517   */\n      tag_422\n      jump\t// in\n    tag_753:\n        /* \"#utility.yul\":34378:34517   */\n      swap1\n      pop\n        /* \"#utility.yul\":34105:34524   */\n      swap2\n      swap1\n      pop\n      jump\t// out\n        /* \"#utility.yul\":34530:34862   */\n    tag_280:\n        /* \"#utility.yul\":34651:34655   */\n      0x00\n        /* \"#utility.yul\":34689:34691   */\n      0x40\n        /* \"#utility.yul\":34678:34687   */\n      dup3\n        /* \"#utility.yul\":34674:34692   */\n      add\n        /* \"#utility.yul\":34666:34692   */\n      swap1\n      pop\n        /* \"#utility.yul\":34702:34773   */\n      tag_755\n        /* \"#utility.yul\":34770:34771   */\n      0x00\n        /* \"#utility.yul\":34759:34768   */\n      dup4\n        /* \"#utility.yul\":34755:34772   */\n      add\n        /* \"#utility.yul\":34746:34752   */\n      dup6\n        /* \"#utility.yul\":34702:34773   */\n      tag_344\n      jump\t// in\n    tag_755:\n        /* \"#utility.yul\":34783:34855   */\n      tag_756\n        /* \"#utility.yul\":34851:34853   */\n      0x20\n        /* \"#utility.yul\":34840:34849   */\n      dup4\n        /* \"#utility.yul\":34836:34854   */\n      add\n        /* \"#utility.yul\":34827:34833   */\n      dup5\n        /* \"#utility.yul\":34783:34855   */\n      tag_333\n      jump\t// in\n    tag_756:\n        /* \"#utility.yul\":34530:34862   */\n      swap4\n      swap3\n      pop\n      pop\n      pop\n      jump\t// out\n        /* \"#utility.yul\":34868:35310   */\n    tag_286:\n        /* \"#utility.yul\":35017:35021   */\n      0x00\n        /* \"#utility.yul\":35055:35057   */\n      0x60\n        /* \"#utility.yul\":35044:35053   */\n      dup3\n        /* \"#utility.yul\":35040:35058   */\n      add\n        /* \"#utility.yul\":35032:35058   */\n      swap1\n      pop\n        /* \"#utility.yul\":35068:35139   */\n      tag_758\n        /* \"#utility.yul\":35136:35137   */\n      0x00\n        /* \"#utility.yul\":35125:35134   */\n      dup4\n        /* \"#utility.yul\":35121:35138   */\n      add\n        /* \"#utility.yul\":35112:35118   */\n      dup7\n        /* \"#utility.yul\":35068:35139   */\n      tag_344\n      jump\t// in\n    tag_758:\n        /* \"#utility.yul\":35149:35221   */\n      tag_759\n        /* \"#utility.yul\":35217:35219   */\n      0x20\n        /* \"#utility.yul\":35206:35215   */\n      dup4\n        /* \"#utility.yul\":35202:35220   */\n      add\n        /* \"#utility.yul\":35193:35199   */\n      dup6\n        /* \"#utility.yul\":35149:35221   */\n      tag_344\n      jump\t// in\n    tag_759:\n        /* \"#utility.yul\":35231:35303   */\n      tag_760\n        /* \"#utility.yul\":35299:35301   */\n      0x40\n        /* \"#utility.yul\":35288:35297   */\n      dup4\n        /* \"#utility.yul\":35284:35302   */\n      add\n        /* \"#utility.yul\":35275:35281   */\n      dup5\n        /* \"#utility.yul\":35231:35303   */\n      tag_333\n      jump\t// in\n    tag_760:\n        /* \"#utility.yul\":34868:35310   */\n      swap5\n      swap4\n      pop\n      pop\n      pop\n      pop\n      jump\t// out\n\n    auxdata: 0xa264697066735822122076bcc156c65dfa0af393912351e7f6495699685159b2066782948d09fc9782ba64736f6c634300081d0033\n}\n",
				"bytecode": {
					"linkReferences": {},
					"object": "6080604052348015600f57600080fd5b50612ff88061001f6000396000f3fe6080604052600436106100ec5760003560e01c80638da5cb5b1161008a578063b807a3c411610059578063b807a3c4146103c0578063c5d60b51146103e9578063f2fde38b14610412578063f3fef3a31461043b576101af565b80638da5cb5b146102f2578063a9012c891461031d578063a9590e8a14610346578063aee9c87214610383576101af565b8063485cc955116100c6578063485cc9551461025a578063715018a61461028357806385c758f71461029a5780638a19c8bc146102c5576101af565b80631e83409a146101ea57806331f7d9641461021357806347e7ef241461023e576101af565b366101af5734603560008073ffffffffffffffffffffffffffffffffffffffff1673ffffffffffffffffffffffffffffffffffffffff16815260200190815260200160002060008282546101409190611dcb565b92505081905550600073ffffffffffffffffffffffffffffffffffffffff163373ffffffffffffffffffffffffffffffffffffffff167f5548c837ab068cf56a2c2479df0882a4922fd203edb7517321831d95078c5f62346040516101a59190611e0e565b60405180910390a3005b6040517f08c379a00000000000000000000000000000000000000000000000000000000081526004016101e190611e86565b60405180910390fd5b3480156101f657600080fd5b50610211600480360381019061020c9190611f18565b610464565b005b34801561021f57600080fd5b506102286108d8565b6040516102359190611f54565b60405180910390f35b61025860048036038101906102539190611f9b565b6108dd565b005b34801561026657600080fd5b50610281600480360381019061027c9190611fdb565b610a98565b005b34801561028f57600080fd5b50610298610c71565b005b3480156102a657600080fd5b506102af610c85565b6040516102bc919061207a565b60405180910390f35b3480156102d157600080fd5b506102da610cab565b6040516102e993929190612137565b60405180910390f35b3480156102fe57600080fd5b50610307610d73565b6040516103149190611f54565b60405180910390f35b34801561032957600080fd5b50610344600480360381019061033f91906122d6565b610dab565b005b34801561035257600080fd5b5061036d60048036038101906103689190611fdb565b610fc4565b60405161037a9190611e0e565b60405180910390f35b34801561038f57600080fd5b506103aa60048036038101906103a59190611f18565b610fe9565b6040516103b79190611e0e565b60405180910390f35b3480156103cc57600080fd5b506103e760048036038101906103e29190612345565b611001565b005b3480156103f557600080fd5b50610410600480360381019061040b919061244e565b611236565b005b34801561041e57600080fd5b5061043960048036038101906104349190611f18565b611579565b005b34801561044757600080fd5b50610462600480360381019061045d9190611f9b565b6115ff565b005b61046c6118c2565b603360000160009054906101000a900467ffffffffffffffff1667ffffffffffffffff164210806104bf5750603360000160089054906101000a900467ffffffffffffffff1667ffffffffffffffff1642115b156105375742603360000160009054906101000a900467ffffffffffffffff16603360000160089054906101000a900467ffffffffffffffff166040517ffa7410d400000000000000000000000000000000000000000000000000000000815260040161052e93929190612533565b60405180910390fd5b6000603660003373ffffffffffffffffffffffffffffffffffffffff1673ffffffffffffffffffffffffffffffffffffffff16815260200190815260200160002060008373ffffffffffffffffffffffffffffffffffffffff1673ffffffffffffffffffffffffffffffffffffffff168152602001908152602001600020549050600081116105fb576040517f08c379a00000000000000000000000000000000000000000000000000000000081526004016105f2906125b6565b60405180910390fd5b80603560008473ffffffffffffffffffffffffffffffffffffffff1673ffffffffffffffffffffffffffffffffffffffff16815260200190815260200160002054101561067d576040517f08c379a000000000000000000000000000000000000000000000000000000000815260040161067490612622565b60405180910390fd5b6000603660003373ffffffffffffffffffffffffffffffffffffffff1673ffffffffffffffffffffffffffffffffffffffff16815260200190815260200160002060008473ffffffffffffffffffffffffffffffffffffffff1673ffffffffffffffffffffffffffffffffffffffff1681526020019081526020016000208190555080603560008473ffffffffffffffffffffffffffffffffffffffff1673ffffffffffffffffffffffffffffffffffffffff168152602001908152602001600020600082825461074e9190612642565b92505081905550600073ffffffffffffffffffffffffffffffffffffffff168273ffffffffffffffffffffffffffffffffffffffff160361083b5760003373ffffffffffffffffffffffffffffffffffffffff16826040516107af906126a7565b60006040518083038185875af1925050503d80600081146107ec576040519150601f19603f3d011682016040523d82523d6000602084013e6107f1565b606091505b5050905080610835576040517f08c379a000000000000000000000000000000000000000000000000000000000815260040161082c90612708565b60405180910390fd5b50610867565b61086633828473ffffffffffffffffffffffffffffffffffffffff166119119092919063ffffffff16565b5b8173ffffffffffffffffffffffffffffffffffffffff163373ffffffffffffffffffffffffffffffffffffffff167ff7a40077ff7a04c7e61f6f26fb13774259ddf1b6bce9ecf26a8276cdd3992683836040516108c49190611e0e565b60405180910390a3506108d5611990565b50565b600081565b6108e56118c2565b600073ffffffffffffffffffffffffffffffffffffffff168273ffffffffffffffffffffffffffffffffffffffff16036109605780341461095b576040517f08c379a000000000000000000000000000000000000000000000000000000000815260040161095290612774565b60405180910390fd5b6109d1565b600081116109a3576040517f08c379a000000000000000000000000000000000000000000000000000000000815260040161099a90612806565b60405180910390fd5b6109d03330838573ffffffffffffffffffffffffffffffffffffffff1661199a909392919063ffffffff16565b5b80603560008473ffffffffffffffffffffffffffffffffffffffff1673ffffffffffffffffffffffffffffffffffffffff1681526020019081526020016000206000828254610a209190611dcb565b925050819055508173ffffffffffffffffffffffffffffffffffffffff163373ffffffffffffffffffffffffffffffffffffffff167f5548c837ab068cf56a2c2479df0882a4922fd203edb7517321831d95078c5f6283604051610a849190611e0e565b60405180910390a3610a94611990565b5050565b6000610aa2611a1c565b905060008160000160089054906101000a900460ff1615905060008260000160009054906101000a900467ffffffffffffffff1690506000808267ffffffffffffffff16148015610af05750825b9050600060018367ffffffffffffffff16148015610b25575060003073ffffffffffffffffffffffffffffffffffffffff163b145b905081158015610b33575080155b15610b6a576040517ff92ee8a900000000000000000000000000000000000000000000000000000000815260040160405180910390fd5b60018560000160006101000a81548167ffffffffffffffff021916908367ffffffffffffffff1602179055508315610bba5760018560000160086101000a81548160ff0219169083151502179055505b610bc386611a44565b610bcb611a58565b86603260006101000a81548173ffffffffffffffffffffffffffffffffffffffff021916908373ffffffffffffffffffffffffffffffffffffffff1602179055508315610c685760008560000160086101000a81548160ff0219169083151502179055507fc7f505b2f371ae2175ee4913f4499e1f2633a7b5936321eed1cdaeb6115181d26001604051610c5f9190612861565b60405180910390a15b50505050505050565b610c79611a6a565b610c836000611af1565b565b603260009054906101000a900473ffffffffffffffffffffffffffffffffffffffff1681565b60338060000160009054906101000a900467ffffffffffffffff16908060000160089054906101000a900467ffffffffffffffff1690806001018054610cf0906128ab565b80601f0160208091040260200160405190810160405280929190818152602001828054610d1c906128ab565b8015610d695780601f10610d3e57610100808354040283529160200191610d69565b820191906000526020600020905b815481529060010190602001808311610d4c57829003601f168201915b5050505050905083565b600080610d7e611bc8565b90508060000160009054906101000a900473ffffffffffffffffffffffffffffffffffffffff1691505090565b603260009054906101000a900473ffffffffffffffffffffffffffffffffffffffff1673ffffffffffffffffffffffffffffffffffffffff166324d7806c336040518263ffffffff1660e01b8152600401610e069190611f54565b602060405180830381865afa158015610e23573d6000803e3d6000fd5b505050506040513d601f19601f82011682018060405250810190610e479190612914565b610e86576040517f08c379a0000000000000000000000000000000000000000000000000000000008152600401610e7d9061298d565b60405180910390fd5b8167ffffffffffffffff168367ffffffffffffffff1610610edc576040517f08c379a0000000000000000000000000000000000000000000000000000000008152600401610ed390612a1f565b60405180910390fd5b60405180606001604052808467ffffffffffffffff1681526020018367ffffffffffffffff16815260200182815250603360008201518160000160006101000a81548167ffffffffffffffff021916908367ffffffffffffffff16021790555060208201518160000160086101000a81548167ffffffffffffffff021916908367ffffffffffffffff1602179055506040820151816001019081610f809190612be1565b509050507f09e6db48f22357e6dce2bbff89db8ff25f0012a08186d6ea72e2343fdc112e13838383604051610fb793929190612cb3565b60405180910390a1505050565b6036602052816000526040600020602052806000526040600020600091509150505481565b60356020528060005260406000206000915090505481565b603260009054906101000a900473ffffffffffffffffffffffffffffffffffffffff1673ffffffffffffffffffffffffffffffffffffffff166324d7806c336040518263ffffffff1660e01b815260040161105c9190611f54565b602060405180830381865afa158015611079573d6000803e3d6000fd5b505050506040513d601f19601f8201168201806040525081019061109d9190612914565b6110dc576040517f08c379a00000000000000000000000000000000000000000000000000000000081526004016110d39061298d565b60405180910390fd5b600073ffffffffffffffffffffffffffffffffffffffff168373ffffffffffffffffffffffffffffffffffffffff160361114b576040517f08c379a000000000000000000000000000000000000000000000000000000000815260040161114290612d3d565b60405180910390fd5b80603660008573ffffffffffffffffffffffffffffffffffffffff1673ffffffffffffffffffffffffffffffffffffffff16815260200190815260200160002060008473ffffffffffffffffffffffffffffffffffffffff1673ffffffffffffffffffffffffffffffffffffffff168152602001908152602001600020819055508173ffffffffffffffffffffffffffffffffffffffff168373ffffffffffffffffffffffffffffffffffffffff167f3d0601f3b0e52fd772f1fa71d91651b34b6a11144bea30d74e0f820019a04dc2836040516112299190611e0e565b60405180910390a3505050565b603260009054906101000a900473ffffffffffffffffffffffffffffffffffffffff1673ffffffffffffffffffffffffffffffffffffffff166324d7806c336040518263ffffffff1660e01b81526004016112919190611f54565b602060405180830381865afa1580156112ae573d6000803e3d6000fd5b505050506040513d601f19601f820116820180604052508101906112d29190612914565b611311576040517f08c379a00000000000000000000000000000000000000000000000000000000081526004016113089061298d565b60405180910390fd5b818190508484905014611359576040517f08c379a000000000000000000000000000000000000000000000000000000000815260040161135090612da9565b60405180910390fd5b8181905086869050146113a1576040517f08c379a000000000000000000000000000000000000000000000000000000000815260040161139890612da9565b60405180910390fd5b60005b84849050811015611570578282828181106113c2576113c1612dc9565b5b90506020020135603660008787858181106113e0576113df612dc9565b5b90506020020160208101906113f59190611f18565b73ffffffffffffffffffffffffffffffffffffffff1673ffffffffffffffffffffffffffffffffffffffff168152602001908152602001600020600089898581811061144457611443612dc9565b5b90506020020160208101906114599190611f18565b73ffffffffffffffffffffffffffffffffffffffff1673ffffffffffffffffffffffffffffffffffffffff168152602001908152602001600020819055508686828181106114aa576114a9612dc9565b5b90506020020160208101906114bf9190611f18565b73ffffffffffffffffffffffffffffffffffffffff168585838181106114e8576114e7612dc9565b5b90506020020160208101906114fd9190611f18565b73ffffffffffffffffffffffffffffffffffffffff167f3d0601f3b0e52fd772f1fa71d91651b34b6a11144bea30d74e0f820019a04dc285858581811061154757611546612dc9565b5b9050602002013560405161155b9190611e0e565b60405180910390a380806001019150506113a4565b50505050505050565b611581611a6a565b600073ffffffffffffffffffffffffffffffffffffffff168173ffffffffffffffffffffffffffffffffffffffff16036115f35760006040517f1e4fbdf70000000000000000000000000000000000000000000000000000000081526004016115ea9190611f54565b60405180910390fd5b6115fc81611af1565b50565b611607611a6a565b61160f6118c2565b60008111611652576040517f08c379a000000000000000000000000000000000000000000000000000000000815260040161164990612e6a565b60405180910390fd5b80603560008473ffffffffffffffffffffffffffffffffffffffff1673ffffffffffffffffffffffffffffffffffffffff1681526020019081526020016000205410156116d4576040517f08c379a00000000000000000000000000000000000000000000000000000000081526004016116cb90612ed6565b60405180910390fd5b80603560008473ffffffffffffffffffffffffffffffffffffffff1673ffffffffffffffffffffffffffffffffffffffff16815260200190815260200160002060008282546117239190612642565b92505081905550600073ffffffffffffffffffffffffffffffffffffffff168273ffffffffffffffffffffffffffffffffffffffff1603611817576000611768610d73565b73ffffffffffffffffffffffffffffffffffffffff168260405161178b906126a7565b60006040518083038185875af1925050503d80600081146117c8576040519150601f19603f3d011682016040523d82523d6000602084013e6117cd565b606091505b5050905080611811576040517f08c379a000000000000000000000000000000000000000000000000000000000815260040161180890612708565b60405180910390fd5b5061184a565b611849611822610d73565b828473ffffffffffffffffffffffffffffffffffffffff166119119092919063ffffffff16565b5b8173ffffffffffffffffffffffffffffffffffffffff16611869610d73565b73ffffffffffffffffffffffffffffffffffffffff167f9b1bfa7fa9ee420a16e124f794c35ac9f90472acc99140eb2f6447c714cad8eb836040516118ae9190611e0e565b60405180910390a36118be611990565b5050565b600260005403611907576040517f08c379a00000000000000000000000000000000000000000000000000000000081526004016118fe90612f42565b60405180910390fd5b6002600081905550565b61198b838473ffffffffffffffffffffffffffffffffffffffff1663a9059cbb8585604051602401611944929190612f62565b604051602081830303815290604052915060e01b6020820180517bffffffffffffffffffffffffffffffffffffffffffffffffffffffff8381831617835250505050611bf0565b505050565b6001600081905550565b611a16848573ffffffffffffffffffffffffffffffffffffffff166323b872dd8686866040516024016119cf93929190612f8b565b604051602081830303815290604052915060e01b6020820180517bffffffffffffffffffffffffffffffffffffffffffffffffffffffff8381831617835250505050611bf0565b50505050565b60007ff0c57e16840df040f15088dc2f81fe391c3923bec73e23a9662efc9c229c6a00905090565b611a4c611c92565b611a5581611cd2565b50565b611a60611c92565b611a68611d58565b565b611a72611d6a565b73ffffffffffffffffffffffffffffffffffffffff16611a90610d73565b73ffffffffffffffffffffffffffffffffffffffff1614611aef57611ab3611d6a565b6040517f118cdaa7000000000000000000000000000000000000000000000000000000008152600401611ae69190611f54565b60405180910390fd5b565b6000611afb611bc8565b905060008160000160009054906101000a900473ffffffffffffffffffffffffffffffffffffffff169050828260000160006101000a81548173ffffffffffffffffffffffffffffffffffffffff021916908373ffffffffffffffffffffffffffffffffffffffff1602179055508273ffffffffffffffffffffffffffffffffffffffff168173ffffffffffffffffffffffffffffffffffffffff167f8be0079c531659141344cd1fd0a4f28419497f9722a3daafe3b4186f6b6457e060405160405180910390a3505050565b60007f9016d09d72d40fdae2fd8ceac6b6234c7706214fd39c1cd1e609a0528c199300905090565b600080602060008451602086016000885af180611c13576040513d6000823e3d81fd5b3d925060005191505060008214611c2e576001811415611c4a565b60008473ffffffffffffffffffffffffffffffffffffffff163b145b15611c8c57836040517f5274afe7000000000000000000000000000000000000000000000000000000008152600401611c839190611f54565b60405180910390fd5b50505050565b611c9a611d72565b611cd0576040517fd7e6bcf800000000000000000000000000000000000000000000000000000000815260040160405180910390fd5b565b611cda611c92565b600073ffffffffffffffffffffffffffffffffffffffff168173ffffffffffffffffffffffffffffffffffffffff1603611d4c5760006040517f1e4fbdf7000000000000000000000000000000000000000000000000000000008152600401611d439190611f54565b60405180910390fd5b611d5581611af1565b50565b611d60611c92565b6001600081905550565b600033905090565b6000611d7c611a1c565b60000160089054906101000a900460ff16905090565b6000819050919050565b7f4e487b7100000000000000000000000000000000000000000000000000000000600052601160045260246000fd5b6000611dd682611d92565b9150611de183611d92565b9250828201905080821115611df957611df8611d9c565b5b92915050565b611e0881611d92565b82525050565b6000602082019050611e236000830184611dff565b92915050565b600082825260208201905092915050565b7f537765657473706f743a20757365206465706f73697428290000000000000000600082015250565b6000611e70601883611e29565b9150611e7b82611e3a565b602082019050919050565b60006020820190508181036000830152611e9f81611e63565b9050919050565b6000604051905090565b600080fd5b600080fd5b600073ffffffffffffffffffffffffffffffffffffffff82169050919050565b6000611ee582611eba565b9050919050565b611ef581611eda565b8114611f0057600080fd5b50565b600081359050611f1281611eec565b92915050565b600060208284031215611f2e57611f2d611eb0565b5b6000611f3c84828501611f03565b91505092915050565b611f4e81611eda565b82525050565b6000602082019050611f696000830184611f45565b92915050565b611f7881611d92565b8114611f8357600080fd5b50565b600081359050611f9581611f6f565b92915050565b60008060408385031215611fb257611fb1611eb0565b5b6000611fc085828601611f03565b9250506020611fd185828601611f86565b9150509250929050565b60008060408385031215611ff257611ff1611eb0565b5b600061200085828601611f03565b925050602061201185828601611f03565b9150509250929050565b6000819050919050565b600061204061203b61203684611eba565b61201b565b611eba565b9050919050565b600061205282612025565b9050919050565b600061206482612047565b9050919050565b61207481612059565b82525050565b600060208201905061208f600083018461206b565b92915050565b600067ffffffffffffffff82169050919050565b6120b281612095565b82525050565b600081519050919050565b60005b838110156120e15780820151818401526020810190506120c6565b60008484015250505050565b6000601f19601f8301169050919050565b6000612109826120b8565b6121138185611e29565b93506121238185602086016120c3565b61212c816120ed565b840191505092915050565b600060608201905061214c60008301866120a9565b61215960208301856120a9565b818103604083015261216b81846120fe565b9050949350505050565b61217e81612095565b811461218957600080fd5b50565b60008135905061219b81612175565b92915050565b600080fd5b600080fd5b7f4e487b7100000000000000000000000000000000000000000000000000000000600052604160045260246000fd5b6121e3826120ed565b810181811067ffffffffffffffff82111715612202576122016121ab565b5b80604052505050565b6000612215611ea6565b905061222182826121da565b919050565b600067ffffffffffffffff821115612241576122406121ab565b5b61224a826120ed565b9050602081019050919050565b82818337600083830152505050565b600061227961227484612226565b61220b565b905082815260208101848484011115612295576122946121a6565b5b6122a0848285612257565b509392505050565b600082601f8301126122bd576122bc6121a1565b5b81356122cd848260208601612266565b91505092915050565b6000806000606084860312156122ef576122ee611eb0565b5b60006122fd8682870161218c565b935050602061230e8682870161218c565b925050604084013567ffffffffffffffff81111561232f5761232e611eb5565b5b61233b868287016122a8565b9150509250925092565b60008060006060848603121561235e5761235d611eb0565b5b600061236c86828701611f03565b935050602061237d86828701611f03565b925050604061238e86828701611f86565b9150509250925092565b600080fd5b600080fd5b60008083601f8401126123b8576123b76121a1565b5b8235905067ffffffffffffffff8111156123d5576123d4612398565b5b6020830191508360208202830111156123f1576123f061239d565b5b9250929050565b60008083601f84011261240e5761240d6121a1565b5b8235905067ffffffffffffffff81111561242b5761242a612398565b5b6020830191508360208202830111156124475761244661239d565b5b9250929050565b6000806000806000806060878903121561246b5761246a611eb0565b5b600087013567ffffffffffffffff81111561248957612488611eb5565b5b61249589828a016123a2565b9650965050602087013567ffffffffffffffff8111156124b8576124b7611eb5565b5b6124c489828a016123a2565b9450945050604087013567ffffffffffffffff8111156124e7576124e6611eb5565b5b6124f389828a016123f8565b92509250509295509295509295565b600061251d61251861251384612095565b61201b565b611d92565b9050919050565b61252d81612502565b82525050565b60006060820190506125486000830186611dff565b6125556020830185612524565b6125626040830184612524565b949350505050565b7f4e6f20636c61696d61626c6520616d6f756e7400000000000000000000000000600082015250565b60006125a0601383611e29565b91506125ab8261256a565b602082019050919050565b600060208201905081810360008301526125cf81612593565b9050919050565b7f496e73756666696369656e742066756e647320696e206a617200000000000000600082015250565b600061260c601983611e29565b9150612617826125d6565b602082019050919050565b6000602082019050818103600083015261263b816125ff565b9050919050565b600061264d82611d92565b915061265883611d92565b92508282039050818111156126705761266f611d9c565b5b92915050565b600081905092915050565b50565b6000612691600083612676565b915061269c82612681565b600082019050919050565b60006126b282612684565b9150819050919050565b7f4574686572207472616e73666572206661696c65640000000000000000000000600082015250565b60006126f2601583611e29565b91506126fd826126bc565b602082019050919050565b60006020820190508181036000830152612721816126e5565b9050919050565b7f496e636f727265637420457468657220616d6f756e7400000000000000000000600082015250565b600061275e601683611e29565b915061276982612728565b602082019050919050565b6000602082019050818103600083015261278d81612751565b9050919050565b7f4465706f73697420616d6f756e74206d7573742062652067726561746572207460008201527f68616e207a65726f000000000000000000000000000000000000000000000000602082015250565b60006127f0602883611e29565b91506127fb82612794565b604082019050919050565b6000602082019050818103600083015261281f816127e3565b9050919050565b6000819050919050565b600061284b61284661284184612826565b61201b565b612095565b9050919050565b61285b81612830565b82525050565b60006020820190506128766000830184612852565b92915050565b7f4e487b7100000000000000000000000000000000000000000000000000000000600052602260045260246000fd5b600060028204905060018216806128c357607f821691505b6020821081036128d6576128d561287c565b5b50919050565b60008115159050919050565b6128f1816128dc565b81146128fc57600080fd5b50565b60008151905061290e816128e8565b92915050565b60006020828403121561292a57612929611eb0565b5b6000612938848285016128ff565b91505092915050565b7f43616c6c6572206973206e6f7420616e2061646d696e00000000000000000000600082015250565b6000612977601683611e29565b915061298282612941565b602082019050919050565b600060208201905081810360008301526129a68161296a565b9050919050565b7f53746172742074696d65206d757374206265206265666f726520656e6420746960008201527f6d65000000000000000000000000000000000000000000000000000000000000602082015250565b6000612a09602283611e29565b9150612a14826129ad565b604082019050919050565b60006020820190508181036000830152612a38816129fc565b9050919050565b60008190508160005260206000209050919050565b60006020601f8301049050919050565b600082821b905092915050565b600060088302612aa17fffffffffffffffffffffffffffffffffffffffffffffffffffffffffffffffff82612a64565b612aab8683612a64565b95508019841693508086168417925050509392505050565b6000612ade612ad9612ad484611d92565b61201b565b611d92565b9050919050565b6000819050919050565b612af883612ac3565b612b0c612b0482612ae5565b848454612a71565b825550505050565b600090565b612b21612b14565b612b2c818484612aef565b505050565b5b81811015612b5057612b45600082612b19565b600181019050612b32565b5050565b601f821115612b9557612b6681612a3f565b612b6f84612a54565b81016020851015612b7e578190505b612b92612b8a85612a54565b830182612b31565b50505b505050565b600082821c905092915050565b6000612bb860001984600802612b9a565b1980831691505092915050565b6000612bd18383612ba7565b9150826002028217905092915050565b612bea826120b8565b67ffffffffffffffff811115612c0357612c026121ab565b5b612c0d82546128ab565b612c18828285612b54565b600060209050601f831160018114612c4b5760008415612c39578287015190505b612c438582612bc5565b865550612cab565b601f198416612c5986612a3f565b60005b82811015612c8157848901518255600182019150602085019450602081019050612c5c565b86831015612c9e5784890151612c9a601f891682612ba7565b8355505b6001600288020188555050505b505050505050565b6000606082019050612cc86000830186612524565b612cd56020830185612524565b8181036040830152612ce781846120fe565b9050949350505050565b7f5a65726f20616464726573732075736572000000000000000000000000000000600082015250565b6000612d27601183611e29565b9150612d3282612cf1565b602082019050919050565b60006020820190508181036000830152612d5681612d1a565b9050919050565b7f4d69736d617463686564206172726179206c656e677468730000000000000000600082015250565b6000612d93601883611e29565b9150612d9e82612d5d565b602082019050919050565b60006020820190508181036000830152612dc281612d86565b9050919050565b7f4e487b7100000000000000000000000000000000000000000000000000000000600052603260045260246000fd5b7f5769746864726177616c20616d6f756e74206d7573742062652067726561746560008201527f72207468616e207a65726f000000000000000000000000000000000000000000602082015250565b6000612e54602b83611e29565b9150612e5f82612df8565b604082019050919050565b60006020820190508181036000830152612e8381612e47565b9050919050565b7f496e73756666696369656e742066756e64730000000000000000000000000000600082015250565b6000612ec0601283611e29565b9150612ecb82612e8a565b602082019050919050565b60006020820190508181036000830152612eef81612eb3565b9050919050565b7f5265656e7472616e637947756172643a207265656e7472616e742063616c6c00600082015250565b6000612f2c601f83611e29565b9150612f3782612ef6565b602082019050919050565b60006020820190508181036000830152612f5b81612f1f565b9050919050565b6000604082019050612f776000830185611f45565b612f846020830184611dff565b9392505050565b6000606082019050612fa06000830186611f45565b612fad6020830185611f45565b612fba6040830184611dff565b94935050505056fea264697066735822122076bcc156c65dfa0af393912351e7f6495699685159b2066782948d09fc9782ba64736f6c634300081d0033",
					"opcodes": "PUSH1 0x80 PUSH1 0x40 MSTORE CALLVALUE DUP1 ISZERO PUSH1 0xF JUMPI PUSH1 0x0 DUP1 REVERT JUMPDEST POP PUSH2 0x2FF8 DUP1 PUSH2 0x1F PUSH1 0x0 CODECOPY PUSH1 0x0 RETURN INVALID PUSH1 0x80 PUSH1 0x40 MSTORE PUSH1 0x4 CALLDATASIZE LT PUSH2 0xEC JUMPI PUSH1 0x0 CALLDATALOAD PUSH1 0xE0 SHR DUP1 PUSH4 0x8DA5CB5B GT PUSH2 0x8A JUMPI DUP1 PUSH4 0xB807A3C4 GT PUSH2 0x59 JUMPI DUP1 PUSH4 0xB807A3C4 EQ PUSH2 0x3C0 JUMPI DUP1 PUSH4 0xC5D60B51 EQ PUSH2 0x3E9 JUMPI DUP1 PUSH4 0xF2FDE38B EQ PUSH2 0x412 JUMPI DUP1 PUSH4 0xF3FEF3A3 EQ PUSH2 0x43B JUMPI PUSH2 0x1AF JUMP JUMPDEST DUP1 PUSH4 0x8DA5CB5B EQ PUSH2 0x2F2 JUMPI DUP1 PUSH4 0xA9012C89 EQ PUSH2 0x31D JUMPI DUP1 PUSH4 0xA9590E8A EQ PUSH2 0x346 JUMPI DUP1 PUSH4 0xAEE9C872 EQ PUSH2 0x383 JUMPI PUSH2 0x1AF JUMP JUMPDEST DUP1 PUSH4 0x485CC955 GT PUSH2 0xC6 JUMPI DUP1 PUSH4 0x485CC955 EQ PUSH2 0x25A JUMPI DUP1 PUSH4 0x715018A6 EQ PUSH2 0x283 JUMPI DUP1 PUSH4 0x85C758F7 EQ PUSH2 0x29A JUMPI DUP1 PUSH4 0x8A19C8BC EQ PUSH2 0x2C5 JUMPI PUSH2 0x1AF JUMP JUMPDEST DUP1 PUSH4 0x1E83409A EQ PUSH2 0x1EA JUMPI DUP1 PUSH4 0x31F7D964 EQ PUSH2 0x213 JUMPI DUP1 PUSH4 0x47E7EF24 EQ PUSH2 0x23E JUMPI PUSH2 0x1AF JUMP JUMPDEST CALLDATASIZE PUSH2 0x1AF JUMPI CALLVALUE PUSH1 0x35 PUSH1 0x0 DUP1 PUSH20 0xFFFFFFFFFFFFFFFFFFFFFFFFFFFFFFFFFFFFFFFF AND PUSH20 0xFFFFFFFFFFFFFFFFFFFFFFFFFFFFFFFFFFFFFFFF AND DUP2 MSTORE PUSH1 0x20 ADD SWAP1 DUP2 MSTORE PUSH1 0x20 ADD PUSH1 0x0 KECCAK256 PUSH1 0x0 DUP3 DUP3 SLOAD PUSH2 0x140 SWAP2 SWAP1 PUSH2 0x1DCB JUMP JUMPDEST SWAP3 POP POP DUP2 SWAP1 SSTORE POP PUSH1 0x0 PUSH20 0xFFFFFFFFFFFFFFFFFFFFFFFFFFFFFFFFFFFFFFFF AND CALLER PUSH20 0xFFFFFFFFFFFFFFFFFFFFFFFFFFFFFFFFFFFFFFFF AND PUSH32 0x5548C837AB068CF56A2C2479DF0882A4922FD203EDB7517321831D95078C5F62 CALLVALUE PUSH1 0x40 MLOAD PUSH2 0x1A5 SWAP2 SWAP1 PUSH2 0x1E0E JUMP JUMPDEST PUSH1 0x40 MLOAD DUP1 SWAP2 SUB SWAP1 LOG3 STOP JUMPDEST PUSH1 0x40 MLOAD PUSH32 0x8C379A000000000000000000000000000000000000000000000000000000000 DUP2 MSTORE PUSH1 0x4 ADD PUSH2 0x1E1 SWAP1 PUSH2 0x1E86 JUMP JUMPDEST PUSH1 0x40 MLOAD DUP1 SWAP2 SUB SWAP1 REVERT JUMPDEST CALLVALUE DUP1 ISZERO PUSH2 0x1F6 JUMPI PUSH1 0x0 DUP1 REVERT JUMPDEST POP PUSH2 0x211 PUSH1 0x4 DUP1 CALLDATASIZE SUB DUP2 ADD SWAP1 PUSH2 0x20C SWAP2 SWAP1 PUSH2 0x1F18 JUMP JUMPDEST PUSH2 0x464 JUMP JUMPDEST STOP JUMPDEST CALLVALUE DUP1 ISZERO PUSH2 0x21F JUMPI PUSH1 0x0 DUP1 REVERT JUMPDEST POP PUSH2 0x228 PUSH2 0x8D8 JUMP JUMPDEST PUSH1 0x40 MLOAD PUSH2 0x235 SWAP2 SWAP1 PUSH2 0x1F54 JUMP JUMPDEST PUSH1 0x40 MLOAD DUP1 SWAP2 SUB SWAP1 RETURN JUMPDEST PUSH2 0x258 PUSH1 0x4 DUP1 CALLDATASIZE SUB DUP2 ADD SWAP1 PUSH2 0x253 SWAP2 SWAP1 PUSH2 0x1F9B JUMP JUMPDEST PUSH2 0x8DD JUMP JUMPDEST STOP JUMPDEST CALLVALUE DUP1 ISZERO PUSH2 0x266 JUMPI PUSH1 0x0 DUP1 REVERT JUMPDEST POP PUSH2 0x281 PUSH1 0x4 DUP1 CALLDATASIZE SUB DUP2 ADD SWAP1 PUSH2 0x27C SWAP2 SWAP1 PUSH2 0x1FDB JUMP JUMPDEST PUSH2 0xA98 JUMP JUMPDEST STOP JUMPDEST CALLVALUE DUP1 ISZERO PUSH2 0x28F JUMPI PUSH1 0x0 DUP1 REVERT JUMPDEST POP PUSH2 0x298 PUSH2 0xC71 JUMP JUMPDEST STOP JUMPDEST CALLVALUE DUP1 ISZERO PUSH2 0x2A6 JUMPI PUSH1 0x0 DUP1 REVERT JUMPDEST POP PUSH2 0x2AF PUSH2 0xC85 JUMP JUMPDEST PUSH1 0x40 MLOAD PUSH2 0x2BC SWAP2 SWAP1 PUSH2 0x207A JUMP JUMPDEST PUSH1 0x40 MLOAD DUP1 SWAP2 SUB SWAP1 RETURN JUMPDEST CALLVALUE DUP1 ISZERO PUSH2 0x2D1 JUMPI PUSH1 0x0 DUP1 REVERT JUMPDEST POP PUSH2 0x2DA PUSH2 0xCAB JUMP JUMPDEST PUSH1 0x40 MLOAD PUSH2 0x2E9 SWAP4 SWAP3 SWAP2 SWAP1 PUSH2 0x2137 JUMP JUMPDEST PUSH1 0x40 MLOAD DUP1 SWAP2 SUB SWAP1 RETURN JUMPDEST CALLVALUE DUP1 ISZERO PUSH2 0x2FE JUMPI PUSH1 0x0 DUP1 REVERT JUMPDEST POP PUSH2 0x307 PUSH2 0xD73 JUMP JUMPDEST PUSH1 0x40 MLOAD PUSH2 0x314 SWAP2 SWAP1 PUSH2 0x1F54 JUMP JUMPDEST PUSH1 0x40 MLOAD DUP1 SWAP2 SUB SWAP1 RETURN JUMPDEST CALLVALUE DUP1 ISZERO PUSH2 0x329 JUMPI PUSH1 0x0 DUP1 REVERT JUMPDEST POP PUSH2 0x344 PUSH1 0x4 DUP1 CALLDATASIZE SUB DUP2 ADD SWAP1 PUSH2 0x33F SWAP2 SWAP1 PUSH2 0x22D6 JUMP JUMPDEST PUSH2 0xDAB JUMP JUMPDEST STOP JUMPDEST CALLVALUE DUP1 ISZERO PUSH2 0x352 JUMPI PUSH1 0x0 DUP1 REVERT JUMPDEST POP PUSH2 0x36D PUSH1 0x4 DUP1 CALLDATASIZE SUB DUP2 ADD SWAP1 PUSH2 0x368 SWAP2 SWAP1 PUSH2 0x1FDB JUMP JUMPDEST PUSH2 0xFC4 JUMP JUMPDEST PUSH1 0x40 MLOAD PUSH2 0x37A SWAP2 SWAP1 PUSH2 0x1E0E JUMP JUMPDEST PUSH1 0x40 MLOAD DUP1 SWAP2 SUB SWAP1 RETURN JUMPDEST CALLVALUE DUP1 ISZERO PUSH2 0x38F JUMPI PUSH1 0x0 DUP1 REVERT JUMPDEST POP PUSH2 0x3AA PUSH1 0x4 DUP1 CALLDATASIZE SUB DUP2 ADD SWAP1 PUSH2 0x3A5 SWAP2 SWAP1 PUSH2 0x1F18 JUMP JUMPDEST PUSH2 0xFE9 JUMP JUMPDEST PUSH1 0x40 MLOAD PUSH2 0x3B7 SWAP2 SWAP1 PUSH2 0x1E0E JUMP JUMPDEST PUSH1 0x40 MLOAD DUP1 SWAP2 SUB SWAP1 RETURN JUMPDEST CALLVALUE DUP1 ISZERO PUSH2 0x3CC JUMPI PUSH1 0x0 DUP1 REVERT JUMPDEST POP PUSH2 0x3E7 PUSH1 0x4 DUP1 CALLDATASIZE SUB DUP2 ADD SWAP1 PUSH2 0x3E2 SWAP2 SWAP1 PUSH2 0x2345 JUMP JUMPDEST PUSH2 0x1001 JUMP JUMPDEST STOP JUMPDEST CALLVALUE DUP1 ISZERO PUSH2 0x3F5 JUMPI PUSH1 0x0 DUP1 REVERT JUMPDEST POP PUSH2 0x410 PUSH1 0x4 DUP1 CALLDATASIZE SUB DUP2 ADD SWAP1 PUSH2 0x40B SWAP2 SWAP1 PUSH2 0x244E JUMP JUMPDEST PUSH2 0x1236 JUMP JUMPDEST STOP JUMPDEST CALLVALUE DUP1 ISZERO PUSH2 0x41E JUMPI PUSH1 0x0 DUP1 REVERT JUMPDEST POP PUSH2 0x439 PUSH1 0x4 DUP1 CALLDATASIZE SUB DUP2 ADD SWAP1 PUSH2 0x434 SWAP2 SWAP1 PUSH2 0x1F18 JUMP JUMPDEST PUSH2 0x1579 JUMP JUMPDEST STOP JUMPDEST CALLVALUE DUP1 ISZERO PUSH2 0x447 JUMPI PUSH1 0x0 DUP1 REVERT JUMPDEST POP PUSH2 0x462 PUSH1 0x4 DUP1 CALLDATASIZE SUB DUP2 ADD SWAP1 PUSH2 0x45D SWAP2 SWAP1 PUSH2 0x1F9B JUMP JUMPDEST PUSH2 0x15FF JUMP JUMPDEST STOP JUMPDEST PUSH2 0x46C PUSH2 0x18C2 JUMP JUMPDEST PUSH1 0x33 PUSH1 0x0 ADD PUSH1 0x0 SWAP1 SLOAD SWAP1 PUSH2 0x100 EXP SWAP1 DIV PUSH8 0xFFFFFFFFFFFFFFFF AND PUSH8 0xFFFFFFFFFFFFFFFF AND TIMESTAMP LT DUP1 PUSH2 0x4BF JUMPI POP PUSH1 0x33 PUSH1 0x0 ADD PUSH1 0x8 SWAP1 SLOAD SWAP1 PUSH2 0x100 EXP SWAP1 DIV PUSH8 0xFFFFFFFFFFFFFFFF AND PUSH8 0xFFFFFFFFFFFFFFFF AND TIMESTAMP GT JUMPDEST ISZERO PUSH2 0x537 JUMPI TIMESTAMP PUSH1 0x33 PUSH1 0x0 ADD PUSH1 0x0 SWAP1 SLOAD SWAP1 PUSH2 0x100 EXP SWAP1 DIV PUSH8 0xFFFFFFFFFFFFFFFF AND PUSH1 0x33 PUSH1 0x0 ADD PUSH1 0x8 SWAP1 SLOAD SWAP1 PUSH2 0x100 EXP SWAP1 DIV PUSH8 0xFFFFFFFFFFFFFFFF AND PUSH1 0x40 MLOAD PUSH32 0xFA7410D400000000000000000000000000000000000000000000000000000000 DUP2 MSTORE PUSH1 0x4 ADD PUSH2 0x52E SWAP4 SWAP3 SWAP2 SWAP1 PUSH2 0x2533 JUMP JUMPDEST PUSH1 0x40 MLOAD DUP1 SWAP2 SUB SWAP1 REVERT JUMPDEST PUSH1 0x0 PUSH1 0x36 PUSH1 0x0 CALLER PUSH20 0xFFFFFFFFFFFFFFFFFFFFFFFFFFFFFFFFFFFFFFFF AND PUSH20 0xFFFFFFFFFFFFFFFFFFFFFFFFFFFFFFFFFFFFFFFF AND DUP2 MSTORE PUSH1 0x20 ADD SWAP1 DUP2 MSTORE PUSH1 0x20 ADD PUSH1 0x0 KECCAK256 PUSH1 0x0 DUP4 PUSH20 0xFFFFFFFFFFFFFFFFFFFFFFFFFFFFFFFFFFFFFFFF AND PUSH20 0xFFFFFFFFFFFFFFFFFFFFFFFFFFFFFFFFFFFFFFFF AND DUP2 MSTORE PUSH1 0x20 ADD SWAP1 DUP2 MSTORE PUSH1 0x20 ADD PUSH1 0x0 KECCAK256 SLOAD SWAP1 POP PUSH1 0x0 DUP2 GT PUSH2 0x5FB JUMPI PUSH1 0x40 MLOAD PUSH32 0x8C379A000000000000000000000000000000000000000000000000000000000 DUP2 MSTORE PUSH1 0x4 ADD PUSH2 0x5F2 SWAP1 PUSH2 0x25B6 JUMP JUMPDEST PUSH1 0x40 MLOAD DUP1 SWAP2 SUB SWAP1 REVERT JUMPDEST DUP1 PUSH1 0x35 PUSH1 0x0 DUP5 PUSH20 0xFFFFFFFFFFFFFFFFFFFFFFFFFFFFFFFFFFFFFFFF AND PUSH20 0xFFFFFFFFFFFFFFFFFFFFFFFFFFFFFFFFFFFFFFFF AND DUP2 MSTORE PUSH1 0x20 ADD SWAP1 DUP2 MSTORE PUSH1 0x20 ADD PUSH1 0x0 KECCAK256 SLOAD LT ISZERO PUSH2 0x67D JUMPI PUSH1 0x40 MLOAD PUSH32 0x8C379A000000000000000000000000000000000000000000000000000000000 DUP2 MSTORE PUSH1 0x4 ADD PUSH2 0x674 SWAP1 PUSH2 0x2622 JUMP JUMPDEST PUSH1 0x40 MLOAD DUP1 SWAP2 SUB SWAP1 REVERT JUMPDEST PUSH1 0x0 PUSH1 0x36 PUSH1 0x0 CALLER PUSH20 0xFFFFFFFFFFFFFFFFFFFFFFFFFFFFFFFFFFFFFFFF AND PUSH20 0xFFFFFFFFFFFFFFFFFFFFFFFFFFFFFFFFFFFFFFFF AND DUP2 MSTORE PUSH1 0x20 ADD SWAP1 DUP2 MSTORE PUSH1 0x20 ADD PUSH1 0x0 KECCAK256 PUSH1 0x0 DUP5 PUSH20 0xFFFFFFFFFFFFFFFFFFFFFFFFFFFFFFFFFFFFFFFF AND PUSH20 0xFFFFFFFFFFFFFFFFFFFFFFFFFFFFFFFFFFFFFFFF AND DUP2 MSTORE PUSH1 0x20 ADD SWAP1 DUP2 MSTORE PUSH1 0x20 ADD PUSH1 0x0 KECCAK256 DUP2 SWAP1 SSTORE POP DUP1 PUSH1 0x35 PUSH1 0x0 DUP5 PUSH20 0xFFFFFFFFFFFFFFFFFFFFFFFFFFFFFFFFFFFFFFFF AND PUSH20 0xFFFFFFFFFFFFFFFFFFFFFFFFFFFFFFFFFFFFFFFF AND DUP2 MSTORE PUSH1 0x20 ADD SWAP1 DUP2 MSTORE PUSH1 0x20 ADD PUSH1 0x0 KECCAK256 PUSH1 0x0 DUP3 DUP3 SLOAD PUSH2 0x74E SWAP2 SWAP1 PUSH2 0x2642 JUMP JUMPDEST SWAP3 POP POP DUP2 SWAP1 SSTORE POP PUSH1 0x0 PUSH20 0xFFFFFFFFFFFFFFFFFFFFFFFFFFFFFFFFFFFFFFFF AND DUP3 PUSH20 0xFFFFFFFFFFFFFFFFFFFFFFFFFFFFFFFFFFFFFFFF AND SUB PUSH2 0x83B JUMPI PUSH1 0x0 CALLER PUSH20 0xFFFFFFFFFFFFFFFFFFFFFFFFFFFFFFFFFFFFFFFF AND DUP3 PUSH1 0x40 MLOAD PUSH2 0x7AF SWAP1 PUSH2 0x26A7 JUMP JUMPDEST PUSH1 0x0 PUSH1 0x40 MLOAD DUP1 DUP4 SUB DUP2 DUP6 DUP8 GAS CALL SWAP3 POP POP POP RETURNDATASIZE DUP1 PUSH1 0x0 DUP2 EQ PUSH2 0x7EC JUMPI PUSH1 0x40 MLOAD SWAP2 POP PUSH1 0x1F NOT PUSH1 0x3F RETURNDATASIZE ADD AND DUP3 ADD PUSH1 0x40 MSTORE RETURNDATASIZE DUP3 MSTORE RETURNDATASIZE PUSH1 0x0 PUSH1 0x20 DUP5 ADD RETURNDATACOPY PUSH2 0x7F1 JUMP JUMPDEST PUSH1 0x60 SWAP2 POP JUMPDEST POP POP SWAP1 POP DUP1 PUSH2 0x835 JUMPI PUSH1 0x40 MLOAD PUSH32 0x8C379A000000000000000000000000000000000000000000000000000000000 DUP2 MSTORE PUSH1 0x4 ADD PUSH2 0x82C SWAP1 PUSH2 0x2708 JUMP JUMPDEST PUSH1 0x40 MLOAD DUP1 SWAP2 SUB SWAP1 REVERT JUMPDEST POP PUSH2 0x867 JUMP JUMPDEST PUSH2 0x866 CALLER DUP3 DUP5 PUSH20 0xFFFFFFFFFFFFFFFFFFFFFFFFFFFFFFFFFFFFFFFF AND PUSH2 0x1911 SWAP1 SWAP3 SWAP2 SWAP1 PUSH4 0xFFFFFFFF AND JUMP JUMPDEST JUMPDEST DUP2 PUSH20 0xFFFFFFFFFFFFFFFFFFFFFFFFFFFFFFFFFFFFFFFF AND CALLER PUSH20 0xFFFFFFFFFFFFFFFFFFFFFFFFFFFFFFFFFFFFFFFF AND PUSH32 0xF7A40077FF7A04C7E61F6F26FB13774259DDF1B6BCE9ECF26A8276CDD3992683 DUP4 PUSH1 0x40 MLOAD PUSH2 0x8C4 SWAP2 SWAP1 PUSH2 0x1E0E JUMP JUMPDEST PUSH1 0x40 MLOAD DUP1 SWAP2 SUB SWAP1 LOG3 POP PUSH2 0x8D5 PUSH2 0x1990 JUMP JUMPDEST POP JUMP JUMPDEST PUSH1 0x0 DUP2 JUMP JUMPDEST PUSH2 0x8E5 PUSH2 0x18C2 JUMP JUMPDEST PUSH1 0x0 PUSH20 0xFFFFFFFFFFFFFFFFFFFFFFFFFFFFFFFFFFFFFFFF AND DUP3 PUSH20 0xFFFFFFFFFFFFFFFFFFFFFFFFFFFFFFFFFFFFFFFF AND SUB PUSH2 0x960 JUMPI DUP1 CALLVALUE EQ PUSH2 0x95B JUMPI PUSH1 0x40 MLOAD PUSH32 0x8C379A000000000000000000000000000000000000000000000000000000000 DUP2 MSTORE PUSH1 0x4 ADD PUSH2 0x952 SWAP1 PUSH2 0x2774 JUMP JUMPDEST PUSH1 0x40 MLOAD DUP1 SWAP2 SUB SWAP1 REVERT JUMPDEST PUSH2 0x9D1 JUMP JUMPDEST PUSH1 0x0 DUP2 GT PUSH2 0x9A3 JUMPI PUSH1 0x40 MLOAD PUSH32 0x8C379A000000000000000000000000000000000000000000000000000000000 DUP2 MSTORE PUSH1 0x4 ADD PUSH2 0x99A SWAP1 PUSH2 0x2806 JUMP JUMPDEST PUSH1 0x40 MLOAD DUP1 SWAP2 SUB SWAP1 REVERT JUMPDEST PUSH2 0x9D0 CALLER ADDRESS DUP4 DUP6 PUSH20 0xFFFFFFFFFFFFFFFFFFFFFFFFFFFFFFFFFFFFFFFF AND PUSH2 0x199A SWAP1 SWAP4 SWAP3 SWAP2 SWAP1 PUSH4 0xFFFFFFFF AND JUMP JUMPDEST JUMPDEST DUP1 PUSH1 0x35 PUSH1 0x0 DUP5 PUSH20 0xFFFFFFFFFFFFFFFFFFFFFFFFFFFFFFFFFFFFFFFF AND PUSH20 0xFFFFFFFFFFFFFFFFFFFFFFFFFFFFFFFFFFFFFFFF AND DUP2 MSTORE PUSH1 0x20 ADD SWAP1 DUP2 MSTORE PUSH1 0x20 ADD PUSH1 0x0 KECCAK256 PUSH1 0x0 DUP3 DUP3 SLOAD PUSH2 0xA20 SWAP2 SWAP1 PUSH2 0x1DCB JUMP JUMPDEST SWAP3 POP POP DUP2 SWAP1 SSTORE POP DUP2 PUSH20 0xFFFFFFFFFFFFFFFFFFFFFFFFFFFFFFFFFFFFFFFF AND CALLER PUSH20 0xFFFFFFFFFFFFFFFFFFFFFFFFFFFFFFFFFFFFFFFF AND PUSH32 0x5548C837AB068CF56A2C2479DF0882A4922FD203EDB7517321831D95078C5F62 DUP4 PUSH1 0x40 MLOAD PUSH2 0xA84 SWAP2 SWAP1 PUSH2 0x1E0E JUMP JUMPDEST PUSH1 0x40 MLOAD DUP1 SWAP2 SUB SWAP1 LOG3 PUSH2 0xA94 PUSH2 0x1990 JUMP JUMPDEST POP POP JUMP JUMPDEST PUSH1 0x0 PUSH2 0xAA2 PUSH2 0x1A1C JUMP JUMPDEST SWAP1 POP PUSH1 0x0 DUP2 PUSH1 0x0 ADD PUSH1 0x8 SWAP1 SLOAD SWAP1 PUSH2 0x100 EXP SWAP1 DIV PUSH1 0xFF AND ISZERO SWAP1 POP PUSH1 0x0 DUP3 PUSH1 0x0 ADD PUSH1 0x0 SWAP1 SLOAD SWAP1 PUSH2 0x100 EXP SWAP1 DIV PUSH8 0xFFFFFFFFFFFFFFFF AND SWAP1 POP PUSH1 0x0 DUP1 DUP3 PUSH8 0xFFFFFFFFFFFFFFFF AND EQ DUP1 ISZERO PUSH2 0xAF0 JUMPI POP DUP3 JUMPDEST SWAP1 POP PUSH1 0x0 PUSH1 0x1 DUP4 PUSH8 0xFFFFFFFFFFFFFFFF AND EQ DUP1 ISZERO PUSH2 0xB25 JUMPI POP PUSH1 0x0 ADDRESS PUSH20 0xFFFFFFFFFFFFFFFFFFFFFFFFFFFFFFFFFFFFFFFF AND EXTCODESIZE EQ JUMPDEST SWAP1 POP DUP2 ISZERO DUP1 ISZERO PUSH2 0xB33 JUMPI POP DUP1 ISZERO JUMPDEST ISZERO PUSH2 0xB6A JUMPI PUSH1 0x40 MLOAD PUSH32 0xF92EE8A900000000000000000000000000000000000000000000000000000000 DUP2 MSTORE PUSH1 0x4 ADD PUSH1 0x40 MLOAD DUP1 SWAP2 SUB SWAP1 REVERT JUMPDEST PUSH1 0x1 DUP6 PUSH1 0x0 ADD PUSH1 0x0 PUSH2 0x100 EXP DUP2 SLOAD DUP2 PUSH8 0xFFFFFFFFFFFFFFFF MUL NOT AND SWAP1 DUP4 PUSH8 0xFFFFFFFFFFFFFFFF AND MUL OR SWAP1 SSTORE POP DUP4 ISZERO PUSH2 0xBBA JUMPI PUSH1 0x1 DUP6 PUSH1 0x0 ADD PUSH1 0x8 PUSH2 0x100 EXP DUP2 SLOAD DUP2 PUSH1 0xFF MUL NOT AND SWAP1 DUP4 ISZERO ISZERO MUL OR SWAP1 SSTORE POP JUMPDEST PUSH2 0xBC3 DUP7 PUSH2 0x1A44 JUMP JUMPDEST PUSH2 0xBCB PUSH2 0x1A58 JUMP JUMPDEST DUP7 PUSH1 0x32 PUSH1 0x0 PUSH2 0x100 EXP DUP2 SLOAD DUP2 PUSH20 0xFFFFFFFFFFFFFFFFFFFFFFFFFFFFFFFFFFFFFFFF MUL NOT AND SWAP1 DUP4 PUSH20 0xFFFFFFFFFFFFFFFFFFFFFFFFFFFFFFFFFFFFFFFF AND MUL OR SWAP1 SSTORE POP DUP4 ISZERO PUSH2 0xC68 JUMPI PUSH1 0x0 DUP6 PUSH1 0x0 ADD PUSH1 0x8 PUSH2 0x100 EXP DUP2 SLOAD DUP2 PUSH1 0xFF MUL NOT AND SWAP1 DUP4 ISZERO ISZERO MUL OR SWAP1 SSTORE POP PUSH32 0xC7F505B2F371AE2175EE4913F4499E1F2633A7B5936321EED1CDAEB6115181D2 PUSH1 0x1 PUSH1 0x40 MLOAD PUSH2 0xC5F SWAP2 SWAP1 PUSH2 0x2861 JUMP JUMPDEST PUSH1 0x40 MLOAD DUP1 SWAP2 SUB SWAP1 LOG1 JUMPDEST POP POP POP POP POP POP POP JUMP JUMPDEST PUSH2 0xC79 PUSH2 0x1A6A JUMP JUMPDEST PUSH2 0xC83 PUSH1 0x0 PUSH2 0x1AF1 JUMP JUMPDEST JUMP JUMPDEST PUSH1 0x32 PUSH1 0x0 SWAP1 SLOAD SWAP1 PUSH2 0x100 EXP SWAP1 DIV PUSH20 0xFFFFFFFFFFFFFFFFFFFFFFFFFFFFFFFFFFFFFFFF AND DUP2 JUMP JUMPDEST PUSH1 0x33 DUP1 PUSH1 0x0 ADD PUSH1 0x0 SWAP1 SLOAD SWAP1 PUSH2 0x100 EXP SWAP1 DIV PUSH8 0xFFFFFFFFFFFFFFFF AND SWAP1 DUP1 PUSH1 0x0 ADD PUSH1 0x8 SWAP1 SLOAD SWAP1 PUSH2 0x100 EXP SWAP1 DIV PUSH8 0xFFFFFFFFFFFFFFFF AND SWAP1 DUP1 PUSH1 0x1 ADD DUP1 SLOAD PUSH2 0xCF0 SWAP1 PUSH2 0x28AB JUMP JUMPDEST DUP1 PUSH1 0x1F ADD PUSH1 0x20 DUP1 SWAP2 DIV MUL PUSH1 0x20 ADD PUSH1 0x40 MLOAD SWAP1 DUP2 ADD PUSH1 0x40 MSTORE DUP1 SWAP3 SWAP2 SWAP1 DUP2 DUP2 MSTORE PUSH1 0x20 ADD DUP3 DUP1 SLOAD PUSH2 0xD1C SWAP1 PUSH2 0x28AB JUMP JUMPDEST DUP1 ISZERO PUSH2 0xD69 JUMPI DUP1 PUSH1 0x1F LT PUSH2 0xD3E JUMPI PUSH2 0x100 DUP1 DUP4 SLOAD DIV MUL DUP4 MSTORE SWAP2 PUSH1 0x20 ADD SWAP2 PUSH2 0xD69 JUMP JUMPDEST DUP3 ADD SWAP2 SWAP1 PUSH1 0x0 MSTORE PUSH1 0x20 PUSH1 0x0 KECCAK256 SWAP1 JUMPDEST DUP2 SLOAD DUP2 MSTORE SWAP1 PUSH1 0x1 ADD SWAP1 PUSH1 0x20 ADD DUP1 DUP4 GT PUSH2 0xD4C JUMPI DUP3 SWAP1 SUB PUSH1 0x1F AND DUP3 ADD SWAP2 JUMPDEST POP POP POP POP POP SWAP1 POP DUP4 JUMP JUMPDEST PUSH1 0x0 DUP1 PUSH2 0xD7E PUSH2 0x1BC8 JUMP JUMPDEST SWAP1 POP DUP1 PUSH1 0x0 ADD PUSH1 0x0 SWAP1 SLOAD SWAP1 PUSH2 0x100 EXP SWAP1 DIV PUSH20 0xFFFFFFFFFFFFFFFFFFFFFFFFFFFFFFFFFFFFFFFF AND SWAP2 POP POP SWAP1 JUMP JUMPDEST PUSH1 0x32 PUSH1 0x0 SWAP1 SLOAD SWAP1 PUSH2 0x100 EXP SWAP1 DIV PUSH20 0xFFFFFFFFFFFFFFFFFFFFFFFFFFFFFFFFFFFFFFFF AND PUSH20 0xFFFFFFFFFFFFFFFFFFFFFFFFFFFFFFFFFFFFFFFF AND PUSH4 0x24D7806C CALLER PUSH1 0x40 MLOAD DUP3 PUSH4 0xFFFFFFFF AND PUSH1 0xE0 SHL DUP2 MSTORE PUSH1 0x4 ADD PUSH2 0xE06 SWAP2 SWAP1 PUSH2 0x1F54 JUMP JUMPDEST PUSH1 0x20 PUSH1 0x40 MLOAD DUP1 DUP4 SUB DUP2 DUP7 GAS STATICCALL ISZERO DUP1 ISZERO PUSH2 0xE23 JUMPI RETURNDATASIZE PUSH1 0x0 DUP1 RETURNDATACOPY RETURNDATASIZE PUSH1 0x0 REVERT JUMPDEST POP POP POP POP PUSH1 0x40 MLOAD RETURNDATASIZE PUSH1 0x1F NOT PUSH1 0x1F DUP3 ADD AND DUP3 ADD DUP1 PUSH1 0x40 MSTORE POP DUP2 ADD SWAP1 PUSH2 0xE47 SWAP2 SWAP1 PUSH2 0x2914 JUMP JUMPDEST PUSH2 0xE86 JUMPI PUSH1 0x40 MLOAD PUSH32 0x8C379A000000000000000000000000000000000000000000000000000000000 DUP2 MSTORE PUSH1 0x4 ADD PUSH2 0xE7D SWAP1 PUSH2 0x298D JUMP JUMPDEST PUSH1 0x40 MLOAD DUP1 SWAP2 SUB SWAP1 REVERT JUMPDEST DUP2 PUSH8 0xFFFFFFFFFFFFFFFF AND DUP4 PUSH8 0xFFFFFFFFFFFFFFFF AND LT PUSH2 0xEDC JUMPI PUSH1 0x40 MLOAD PUSH32 0x8C379A000000000000000000000000000000000000000000000000000000000 DUP2 MSTORE PUSH1 0x4 ADD PUSH2 0xED3 SWAP1 PUSH2 0x2A1F JUMP JUMPDEST PUSH1 0x40 MLOAD DUP1 SWAP2 SUB SWAP1 REVERT JUMPDEST PUSH1 0x40 MLOAD DUP1 PUSH1 0x60 ADD PUSH1 0x40 MSTORE DUP1 DUP5 PUSH8 0xFFFFFFFFFFFFFFFF AND DUP2 MSTORE PUSH1 0x20 ADD DUP4 PUSH8 0xFFFFFFFFFFFFFFFF AND DUP2 MSTORE PUSH1 0x20 ADD DUP3 DUP2 MSTORE POP PUSH1 0x33 PUSH1 0x0 DUP3 ADD MLOAD DUP2 PUSH1 0x0 ADD PUSH1 0x0 PUSH2 0x100 EXP DUP2 SLOAD DUP2 PUSH8 0xFFFFFFFFFFFFFFFF MUL NOT AND SWAP1 DUP4 PUSH8 0xFFFFFFFFFFFFFFFF AND MUL OR SWAP1 SSTORE POP PUSH1 0x20 DUP3 ADD MLOAD DUP2 PUSH1 0x0 ADD PUSH1 0x8 PUSH2 0x100 EXP DUP2 SLOAD DUP2 PUSH8 0xFFFFFFFFFFFFFFFF MUL NOT AND SWAP1 DUP4 PUSH8 0xFFFFFFFFFFFFFFFF AND MUL OR SWAP1 SSTORE POP PUSH1 0x40 DUP3 ADD MLOAD DUP2 PUSH1 0x1 ADD SWAP1 DUP2 PUSH2 0xF80 SWAP2 SWAP1 PUSH2 0x2BE1 JUMP JUMPDEST POP SWAP1 POP POP PUSH32 0x9E6DB48F22357E6DCE2BBFF89DB8FF25F0012A08186D6EA72E2343FDC112E13 DUP4 DUP4 DUP4 PUSH1 0x40 MLOAD PUSH2 0xFB7 SWAP4 SWAP3 SWAP2 SWAP1 PUSH2 0x2CB3 JUMP JUMPDEST PUSH1 0x40 MLOAD DUP1 SWAP2 SUB SWAP1 LOG1 POP POP POP JUMP JUMPDEST PUSH1 0x36 PUSH1 0x20 MSTORE DUP2 PUSH1 0x0 MSTORE PUSH1 0x40 PUSH1 0x0 KECCAK256 PUSH1 0x20 MSTORE DUP1 PUSH1 0x0 MSTORE PUSH1 0x40 PUSH1 0x0 KECCAK256 PUSH1 0x0 SWAP2 POP SWAP2 POP POP SLOAD DUP2 JUMP JUMPDEST PUSH1 0x35 PUSH1 0x20 MSTORE DUP1 PUSH1 0x0 MSTORE PUSH1 0x40 PUSH1 0x0 KECCAK256 PUSH1 0x0 SWAP2 POP SWAP1 POP SLOAD DUP2 JUMP JUMPDEST PUSH1 0x32 PUSH1 0x0 SWAP1 SLOAD SWAP1 PUSH2 0x100 EXP SWAP1 DIV PUSH20 0xFFFFFFFFFFFFFFFFFFFFFFFFFFFFFFFFFFFFFFFF AND PUSH20 0xFFFFFFFFFFFFFFFFFFFFFFFFFFFFFFFFFFFFFFFF AND PUSH4 0x24D7806C CALLER PUSH1 0x40 MLOAD DUP3 PUSH4 0xFFFFFFFF AND PUSH1 0xE0 SHL DUP2 MSTORE PUSH1 0x4 ADD PUSH2 0x105C SWAP2 SWAP1 PUSH2 0x1F54 JUMP JUMPDEST PUSH1 0x20 PUSH1 0x40 MLOAD DUP1 DUP4 SUB DUP2 DUP7 GAS STATICCALL ISZERO DUP1 ISZERO PUSH2 0x1079 JUMPI RETURNDATASIZE PUSH1 0x0 DUP1 RETURNDATACOPY RETURNDATASIZE PUSH1 0x0 REVERT JUMPDEST POP POP POP POP PUSH1 0x40 MLOAD RETURNDATASIZE PUSH1 0x1F NOT PUSH1 0x1F DUP3 ADD AND DUP3 ADD DUP1 PUSH1 0x40 MSTORE POP DUP2 ADD SWAP1 PUSH2 0x109D SWAP2 SWAP1 PUSH2 0x2914 JUMP JUMPDEST PUSH2 0x10DC JUMPI PUSH1 0x40 MLOAD PUSH32 0x8C379A000000000000000000000000000000000000000000000000000000000 DUP2 MSTORE PUSH1 0x4 ADD PUSH2 0x10D3 SWAP1 PUSH2 0x298D JUMP JUMPDEST PUSH1 0x40 MLOAD DUP1 SWAP2 SUB SWAP1 REVERT JUMPDEST PUSH1 0x0 PUSH20 0xFFFFFFFFFFFFFFFFFFFFFFFFFFFFFFFFFFFFFFFF AND DUP4 PUSH20 0xFFFFFFFFFFFFFFFFFFFFFFFFFFFFFFFFFFFFFFFF AND SUB PUSH2 0x114B JUMPI PUSH1 0x40 MLOAD PUSH32 0x8C379A000000000000000000000000000000000000000000000000000000000 DUP2 MSTORE PUSH1 0x4 ADD PUSH2 0x1142 SWAP1 PUSH2 0x2D3D JUMP JUMPDEST PUSH1 0x40 MLOAD DUP1 SWAP2 SUB SWAP1 REVERT JUMPDEST DUP1 PUSH1 0x36 PUSH1 0x0 DUP6 PUSH20 0xFFFFFFFFFFFFFFFFFFFFFFFFFFFFFFFFFFFFFFFF AND PUSH20 0xFFFFFFFFFFFFFFFFFFFFFFFFFFFFFFFFFFFFFFFF AND DUP2 MSTORE PUSH1 0x20 ADD SWAP1 DUP2 MSTORE PUSH1 0x20 ADD PUSH1 0x0 KECCAK256 PUSH1 0x0 DUP5 PUSH20 0xFFFFFFFFFFFFFFFFFFFFFFFFFFFFFFFFFFFFFFFF AND PUSH20 0xFFFFFFFFFFFFFFFFFFFFFFFFFFFFFFFFFFFFFFFF AND DUP2 MSTORE PUSH1 0x20 ADD SWAP1 DUP2 MSTORE PUSH1 0x20 ADD PUSH1 0x0 KECCAK256 DUP2 SWAP1 SSTORE POP DUP2 PUSH20 0xFFFFFFFFFFFFFFFFFFFFFFFFFFFFFFFFFFFFFFFF AND DUP4 PUSH20 0xFFFFFFFFFFFFFFFFFFFFFFFFFFFFFFFFFFFFFFFF AND PUSH32 0x3D0601F3B0E52FD772F1FA71D91651B34B6A11144BEA30D74E0F820019A04DC2 DUP4 PUSH1 0x40 MLOAD PUSH2 0x1229 SWAP2 SWAP1 PUSH2 0x1E0E JUMP JUMPDEST PUSH1 0x40 MLOAD DUP1 SWAP2 SUB SWAP1 LOG3 POP POP POP JUMP JUMPDEST PUSH1 0x32 PUSH1 0x0 SWAP1 SLOAD SWAP1 PUSH2 0x100 EXP SWAP1 DIV PUSH20 0xFFFFFFFFFFFFFFFFFFFFFFFFFFFFFFFFFFFFFFFF AND PUSH20 0xFFFFFFFFFFFFFFFFFFFFFFFFFFFFFFFFFFFFFFFF AND PUSH4 0x24D7806C CALLER PUSH1 0x40 MLOAD DUP3 PUSH4 0xFFFFFFFF AND PUSH1 0xE0 SHL DUP2 MSTORE PUSH1 0x4 ADD PUSH2 0x1291 SWAP2 SWAP1 PUSH2 0x1F54 JUMP JUMPDEST PUSH1 0x20 PUSH1 0x40 MLOAD DUP1 DUP4 SUB DUP2 DUP7 GAS STATICCALL ISZERO DUP1 ISZERO PUSH2 0x12AE JUMPI RETURNDATASIZE PUSH1 0x0 DUP1 RETURNDATACOPY RETURNDATASIZE PUSH1 0x0 REVERT JUMPDEST POP POP POP POP PUSH1 0x40 MLOAD RETURNDATASIZE PUSH1 0x1F NOT PUSH1 0x1F DUP3 ADD AND DUP3 ADD DUP1 PUSH1 0x40 MSTORE POP DUP2 ADD SWAP1 PUSH2 0x12D2 SWAP2 SWAP1 PUSH2 0x2914 JUMP JUMPDEST PUSH2 0x1311 JUMPI PUSH1 0x40 MLOAD PUSH32 0x8C379A000000000000000000000000000000000000000000000000000000000 DUP2 MSTORE PUSH1 0x4 ADD PUSH2 0x1308 SWAP1 PUSH2 0x298D JUMP JUMPDEST PUSH1 0x40 MLOAD DUP1 SWAP2 SUB SWAP1 REVERT JUMPDEST DUP2 DUP2 SWAP1 POP DUP5 DUP5 SWAP1 POP EQ PUSH2 0x1359 JUMPI PUSH1 0x40 MLOAD PUSH32 0x8C379A000000000000000000000000000000000000000000000000000000000 DUP2 MSTORE PUSH1 0x4 ADD PUSH2 0x1350 SWAP1 PUSH2 0x2DA9 JUMP JUMPDEST PUSH1 0x40 MLOAD DUP1 SWAP2 SUB SWAP1 REVERT JUMPDEST DUP2 DUP2 SWAP1 POP DUP7 DUP7 SWAP1 POP EQ PUSH2 0x13A1 JUMPI PUSH1 0x40 MLOAD PUSH32 0x8C379A000000000000000000000000000000000000000000000000000000000 DUP2 MSTORE PUSH1 0x4 ADD PUSH2 0x1398 SWAP1 PUSH2 0x2DA9 JUMP JUMPDEST PUSH1 0x40 MLOAD DUP1 SWAP2 SUB SWAP1 REVERT JUMPDEST PUSH1 0x0 JUMPDEST DUP5 DUP5 SWAP1 POP DUP2 LT ISZERO PUSH2 0x1570 JUMPI DUP3 DUP3 DUP3 DUP2 DUP2 LT PUSH2 0x13C2 JUMPI PUSH2 0x13C1 PUSH2 0x2DC9 JUMP JUMPDEST JUMPDEST SWAP1 POP PUSH1 0x20 MUL ADD CALLDATALOAD PUSH1 0x36 PUSH1 0x0 DUP8 DUP8 DUP6 DUP2 DUP2 LT PUSH2 0x13E0 JUMPI PUSH2 0x13DF PUSH2 0x2DC9 JUMP JUMPDEST JUMPDEST SWAP1 POP PUSH1 0x20 MUL ADD PUSH1 0x20 DUP2 ADD SWAP1 PUSH2 0x13F5 SWAP2 SWAP1 PUSH2 0x1F18 JUMP JUMPDEST PUSH20 0xFFFFFFFFFFFFFFFFFFFFFFFFFFFFFFFFFFFFFFFF AND PUSH20 0xFFFFFFFFFFFFFFFFFFFFFFFFFFFFFFFFFFFFFFFF AND DUP2 MSTORE PUSH1 0x20 ADD SWAP1 DUP2 MSTORE PUSH1 0x20 ADD PUSH1 0x0 KECCAK256 PUSH1 0x0 DUP10 DUP10 DUP6 DUP2 DUP2 LT PUSH2 0x1444 JUMPI PUSH2 0x1443 PUSH2 0x2DC9 JUMP JUMPDEST JUMPDEST SWAP1 POP PUSH1 0x20 MUL ADD PUSH1 0x20 DUP2 ADD SWAP1 PUSH2 0x1459 SWAP2 SWAP1 PUSH2 0x1F18 JUMP JUMPDEST PUSH20 0xFFFFFFFFFFFFFFFFFFFFFFFFFFFFFFFFFFFFFFFF AND PUSH20 0xFFFFFFFFFFFFFFFFFFFFFFFFFFFFFFFFFFFFFFFF AND DUP2 MSTORE PUSH1 0x20 ADD SWAP1 DUP2 MSTORE PUSH1 0x20 ADD PUSH1 0x0 KECCAK256 DUP2 SWAP1 SSTORE POP DUP7 DUP7 DUP3 DUP2 DUP2 LT PUSH2 0x14AA JUMPI PUSH2 0x14A9 PUSH2 0x2DC9 JUMP JUMPDEST JUMPDEST SWAP1 POP PUSH1 0x20 MUL ADD PUSH1 0x20 DUP2 ADD SWAP1 PUSH2 0x14BF SWAP2 SWAP1 PUSH2 0x1F18 JUMP JUMPDEST PUSH20 0xFFFFFFFFFFFFFFFFFFFFFFFFFFFFFFFFFFFFFFFF AND DUP6 DUP6 DUP4 DUP2 DUP2 LT PUSH2 0x14E8 JUMPI PUSH2 0x14E7 PUSH2 0x2DC9 JUMP JUMPDEST JUMPDEST SWAP1 POP PUSH1 0x20 MUL ADD PUSH1 0x20 DUP2 ADD SWAP1 PUSH2 0x14FD SWAP2 SWAP1 PUSH2 0x1F18 JUMP JUMPDEST PUSH20 0xFFFFFFFFFFFFFFFFFFFFFFFFFFFFFFFFFFFFFFFF AND PUSH32 0x3D0601F3B0E52FD772F1FA71D91651B34B6A11144BEA30D74E0F820019A04DC2 DUP6 DUP6 DUP6 DUP2 DUP2 LT PUSH2 0x1547 JUMPI PUSH2 0x1546 PUSH2 0x2DC9 JUMP JUMPDEST JUMPDEST SWAP1 POP PUSH1 0x20 MUL ADD CALLDATALOAD PUSH1 0x40 MLOAD PUSH2 0x155B SWAP2 SWAP1 PUSH2 0x1E0E JUMP JUMPDEST PUSH1 0x40 MLOAD DUP1 SWAP2 SUB SWAP1 LOG3 DUP1 DUP1 PUSH1 0x1 ADD SWAP2 POP POP PUSH2 0x13A4 JUMP JUMPDEST POP POP POP POP POP POP POP JUMP JUMPDEST PUSH2 0x1581 PUSH2 0x1A6A JUMP JUMPDEST PUSH1 0x0 PUSH20 0xFFFFFFFFFFFFFFFFFFFFFFFFFFFFFFFFFFFFFFFF AND DUP2 PUSH20 0xFFFFFFFFFFFFFFFFFFFFFFFFFFFFFFFFFFFFFFFF AND SUB PUSH2 0x15F3 JUMPI PUSH1 0x0 PUSH1 0x40 MLOAD PUSH32 0x1E4FBDF700000000000000000000000000000000000000000000000000000000 DUP2 MSTORE PUSH1 0x4 ADD PUSH2 0x15EA SWAP2 SWAP1 PUSH2 0x1F54 JUMP JUMPDEST PUSH1 0x40 MLOAD DUP1 SWAP2 SUB SWAP1 REVERT JUMPDEST PUSH2 0x15FC DUP2 PUSH2 0x1AF1 JUMP JUMPDEST POP JUMP JUMPDEST PUSH2 0x1607 PUSH2 0x1A6A JUMP JUMPDEST PUSH2 0x160F PUSH2 0x18C2 JUMP JUMPDEST PUSH1 0x0 DUP2 GT PUSH2 0x1652 JUMPI PUSH1 0x40 MLOAD PUSH32 0x8C379A000000000000000000000000000000000000000000000000000000000 DUP2 MSTORE PUSH1 0x4 ADD PUSH2 0x1649 SWAP1 PUSH2 0x2E6A JUMP JUMPDEST PUSH1 0x40 MLOAD DUP1 SWAP2 SUB SWAP1 REVERT JUMPDEST DUP1 PUSH1 0x35 PUSH1 0x0 DUP5 PUSH20 0xFFFFFFFFFFFFFFFFFFFFFFFFFFFFFFFFFFFFFFFF AND PUSH20 0xFFFFFFFFFFFFFFFFFFFFFFFFFFFFFFFFFFFFFFFF AND DUP2 MSTORE PUSH1 0x20 ADD SWAP1 DUP2 MSTORE PUSH1 0x20 ADD PUSH1 0x0 KECCAK256 SLOAD LT ISZERO PUSH2 0x16D4 JUMPI PUSH1 0x40 MLOAD PUSH32 0x8C379A000000000000000000000000000000000000000000000000000000000 DUP2 MSTORE PUSH1 0x4 ADD PUSH2 0x16CB SWAP1 PUSH2 0x2ED6 JUMP JUMPDEST PUSH1 0x40 MLOAD DUP1 SWAP2 SUB SWAP1 REVERT JUMPDEST DUP1 PUSH1 0x35 PUSH1 0x0 DUP5 PUSH20 0xFFFFFFFFFFFFFFFFFFFFFFFFFFFFFFFFFFFFFFFF AND PUSH20 0xFFFFFFFFFFFFFFFFFFFFFFFFFFFFFFFFFFFFFFFF AND DUP2 MSTORE PUSH1 0x20 ADD SWAP1 DUP2 MSTORE PUSH1 0x20 ADD PUSH1 0x0 KECCAK256 PUSH1 0x0 DUP3 DUP3 SLOAD PUSH2 0x1723 SWAP2 SWAP1 PUSH2 0x2642 JUMP JUMPDEST SWAP3 POP POP DUP2 SWAP1 SSTORE POP PUSH1 0x0 PUSH20 0xFFFFFFFFFFFFFFFFFFFFFFFFFFFFFFFFFFFFFFFF AND DUP3 PUSH20 0xFFFFFFFFFFFFFFFFFFFFFFFFFFFFFFFFFFFFFFFF AND SUB PUSH2 0x1817 JUMPI PUSH1 0x0 PUSH2 0x1768 PUSH2 0xD73 JUMP JUMPDEST PUSH20 0xFFFFFFFFFFFFFFFFFFFFFFFFFFFFFFFFFFFFFFFF AND DUP3 PUSH1 0x40 MLOAD PUSH2 0x178B SWAP1 PUSH2 0x26A7 JUMP JUMPDEST PUSH1 0x0 PUSH1 0x40 MLOAD DUP1 DUP4 SUB DUP2 DUP6 DUP8 GAS CALL SWAP3 POP POP POP RETURNDATASIZE DUP1 PUSH1 0x0 DUP2 EQ PUSH2 0x17C8 JUMPI PUSH1 0x40 MLOAD SWAP2 POP PUSH1 0x1F NOT PUSH1 0x3F RETURNDATASIZE ADD AND DUP3 ADD PUSH1 0x40 MSTORE RETURNDATASIZE DUP3 MSTORE RETURNDATASIZE PUSH1 0x0 PUSH1 0x20 DUP5 ADD RETURNDATACOPY PUSH2 0x17CD JUMP JUMPDEST PUSH1 0x60 SWAP2 POP JUMPDEST POP POP SWAP1 POP DUP1 PUSH2 0x1811 JUMPI PUSH1 0x40 MLOAD PUSH32 0x8C379A000000000000000000000000000000000000000000000000000000000 DUP2 MSTORE PUSH1 0x4 ADD PUSH2 0x1808 SWAP1 PUSH2 0x2708 JUMP JUMPDEST PUSH1 0x40 MLOAD DUP1 SWAP2 SUB SWAP1 REVERT JUMPDEST POP PUSH2 0x184A JUMP JUMPDEST PUSH2 0x1849 PUSH2 0x1822 PUSH2 0xD73 JUMP JUMPDEST DUP3 DUP5 PUSH20 0xFFFFFFFFFFFFFFFFFFFFFFFFFFFFFFFFFFFFFFFF AND PUSH2 0x1911 SWAP1 SWAP3 SWAP2 SWAP1 PUSH4 0xFFFFFFFF AND JUMP JUMPDEST JUMPDEST DUP2 PUSH20 0xFFFFFFFFFFFFFFFFFFFFFFFFFFFFFFFFFFFFFFFF AND PUSH2 0x1869 PUSH2 0xD73 JUMP JUMPDEST PUSH20 0xFFFFFFFFFFFFFFFFFFFFFFFFFFFFFFFFFFFFFFFF AND PUSH32 0x9B1BFA7FA9EE420A16E124F794C35AC9F90472ACC99140EB2F6447C714CAD8EB DUP4 PUSH1 0x40 MLOAD PUSH2 0x18AE SWAP2 SWAP1 PUSH2 0x1E0E JUMP JUMPDEST PUSH1 0x40 MLOAD DUP1 SWAP2 SUB SWAP1 LOG3 PUSH2 0x18BE PUSH2 0x1990 JUMP JUMPDEST POP POP JUMP JUMPDEST PUSH1 0x2 PUSH1 0x0 SLOAD SUB PUSH2 0x1907 JUMPI PUSH1 0x40 MLOAD PUSH32 0x8C379A000000000000000000000000000000000000000000000000000000000 DUP2 MSTORE PUSH1 0x4 ADD PUSH2 0x18FE SWAP1 PUSH2 0x2F42 JUMP JUMPDEST PUSH1 0x40 MLOAD DUP1 SWAP2 SUB SWAP1 REVERT JUMPDEST PUSH1 0x2 PUSH1 0x0 DUP2 SWAP1 SSTORE POP JUMP JUMPDEST PUSH2 0x198B DUP4 DUP5 PUSH20 0xFFFFFFFFFFFFFFFFFFFFFFFFFFFFFFFFFFFFFFFF AND PUSH4 0xA9059CBB DUP6 DUP6 PUSH1 0x40 MLOAD PUSH1 0x24 ADD PUSH2 0x1944 SWAP3 SWAP2 SWAP1 PUSH2 0x2F62 JUMP JUMPDEST PUSH1 0x40 MLOAD PUSH1 0x20 DUP2 DUP4 SUB SUB DUP2 MSTORE SWAP1 PUSH1 0x40 MSTORE SWAP2 POP PUSH1 0xE0 SHL PUSH1 0x20 DUP3 ADD DUP1 MLOAD PUSH28 0xFFFFFFFFFFFFFFFFFFFFFFFFFFFFFFFFFFFFFFFFFFFFFFFFFFFFFFFF DUP4 DUP2 DUP4 AND OR DUP4 MSTORE POP POP POP POP PUSH2 0x1BF0 JUMP JUMPDEST POP POP POP JUMP JUMPDEST PUSH1 0x1 PUSH1 0x0 DUP2 SWAP1 SSTORE POP JUMP JUMPDEST PUSH2 0x1A16 DUP5 DUP6 PUSH20 0xFFFFFFFFFFFFFFFFFFFFFFFFFFFFFFFFFFFFFFFF AND PUSH4 0x23B872DD DUP7 DUP7 DUP7 PUSH1 0x40 MLOAD PUSH1 0x24 ADD PUSH2 0x19CF SWAP4 SWAP3 SWAP2 SWAP1 PUSH2 0x2F8B JUMP JUMPDEST PUSH1 0x40 MLOAD PUSH1 0x20 DUP2 DUP4 SUB SUB DUP2 MSTORE SWAP1 PUSH1 0x40 MSTORE SWAP2 POP PUSH1 0xE0 SHL PUSH1 0x20 DUP3 ADD DUP1 MLOAD PUSH28 0xFFFFFFFFFFFFFFFFFFFFFFFFFFFFFFFFFFFFFFFFFFFFFFFFFFFFFFFF DUP4 DUP2 DUP4 AND OR DUP4 MSTORE POP POP POP POP PUSH2 0x1BF0 JUMP JUMPDEST POP POP POP POP JUMP JUMPDEST PUSH1 0x0 PUSH32 0xF0C57E16840DF040F15088DC2F81FE391C3923BEC73E23A9662EFC9C229C6A00 SWAP1 POP SWAP1 JUMP JUMPDEST PUSH2 0x1A4C PUSH2 0x1C92 JUMP JUMPDEST PUSH2 0x1A55 DUP2 PUSH2 0x1CD2 JUMP JUMPDEST POP JUMP JUMPDEST PUSH2 0x1A60 PUSH2 0x1C92 JUMP JUMPDEST PUSH2 0x1A68 PUSH2 0x1D58 JUMP JUMPDEST JUMP JUMPDEST PUSH2 0x1A72 PUSH2 0x1D6A JUMP JUMPDEST PUSH20 0xFFFFFFFFFFFFFFFFFFFFFFFFFFFFFFFFFFFFFFFF AND PUSH2 0x1A90 PUSH2 0xD73 JUMP JUMPDEST PUSH20 0xFFFFFFFFFFFFFFFFFFFFFFFFFFFFFFFFFFFFFFFF AND EQ PUSH2 0x1AEF JUMPI PUSH2 0x1AB3 PUSH2 0x1D6A JUMP JUMPDEST PUSH1 0x40 MLOAD PUSH32 0x118CDAA700000000000000000000000000000000000000000000000000000000 DUP2 MSTORE PUSH1 0x4 ADD PUSH2 0x1AE6 SWAP2 SWAP1 PUSH2 0x1F54 JUMP JUMPDEST PUSH1 0x40 MLOAD DUP1 SWAP2 SUB SWAP1 REVERT JUMPDEST JUMP JUMPDEST PUSH1 0x0 PUSH2 0x1AFB PUSH2 0x1BC8 JUMP JUMPDEST SWAP1 POP PUSH1 0x0 DUP2 PUSH1 0x0 ADD PUSH1 0x0 SWAP1 SLOAD SWAP1 PUSH2 0x100 EXP SWAP1 DIV PUSH20 0xFFFFFFFFFFFFFFFFFFFFFFFFFFFFFFFFFFFFFFFF AND SWAP1 POP DUP3 DUP3 PUSH1 0x0 ADD PUSH1 0x0 PUSH2 0x100 EXP DUP2 SLOAD DUP2 PUSH20 0xFFFFFFFFFFFFFFFFFFFFFFFFFFFFFFFFFFFFFFFF MUL NOT AND SWAP1 DUP4 PUSH20 0xFFFFFFFFFFFFFFFFFFFFFFFFFFFFFFFFFFFFFFFF AND MUL OR SWAP1 SSTORE POP DUP3 PUSH20 0xFFFFFFFFFFFFFFFFFFFFFFFFFFFFFFFFFFFFFFFF AND DUP2 PUSH20 0xFFFFFFFFFFFFFFFFFFFFFFFFFFFFFFFFFFFFFFFF AND PUSH32 0x8BE0079C531659141344CD1FD0A4F28419497F9722A3DAAFE3B4186F6B6457E0 PUSH1 0x40 MLOAD PUSH1 0x40 MLOAD DUP1 SWAP2 SUB SWAP1 LOG3 POP POP POP JUMP JUMPDEST PUSH1 0x0 PUSH32 0x9016D09D72D40FDAE2FD8CEAC6B6234C7706214FD39C1CD1E609A0528C199300 SWAP1 POP SWAP1 JUMP JUMPDEST PUSH1 0x0 DUP1 PUSH1 0x20 PUSH1 0x0 DUP5 MLOAD PUSH1 0x20 DUP7 ADD PUSH1 0x0 DUP9 GAS CALL DUP1 PUSH2 0x1C13 JUMPI PUSH1 0x40 MLOAD RETURNDATASIZE PUSH1 0x0 DUP3 RETURNDATACOPY RETURNDATASIZE DUP2 REVERT JUMPDEST RETURNDATASIZE SWAP3 POP PUSH1 0x0 MLOAD SWAP2 POP POP PUSH1 0x0 DUP3 EQ PUSH2 0x1C2E JUMPI PUSH1 0x1 DUP2 EQ ISZERO PUSH2 0x1C4A JUMP JUMPDEST PUSH1 0x0 DUP5 PUSH20 0xFFFFFFFFFFFFFFFFFFFFFFFFFFFFFFFFFFFFFFFF AND EXTCODESIZE EQ JUMPDEST ISZERO PUSH2 0x1C8C JUMPI DUP4 PUSH1 0x40 MLOAD PUSH32 0x5274AFE700000000000000000000000000000000000000000000000000000000 DUP2 MSTORE PUSH1 0x4 ADD PUSH2 0x1C83 SWAP2 SWAP1 PUSH2 0x1F54 JUMP JUMPDEST PUSH1 0x40 MLOAD DUP1 SWAP2 SUB SWAP1 REVERT JUMPDEST POP POP POP POP JUMP JUMPDEST PUSH2 0x1C9A PUSH2 0x1D72 JUMP JUMPDEST PUSH2 0x1CD0 JUMPI PUSH1 0x40 MLOAD PUSH32 0xD7E6BCF800000000000000000000000000000000000000000000000000000000 DUP2 MSTORE PUSH1 0x4 ADD PUSH1 0x40 MLOAD DUP1 SWAP2 SUB SWAP1 REVERT JUMPDEST JUMP JUMPDEST PUSH2 0x1CDA PUSH2 0x1C92 JUMP JUMPDEST PUSH1 0x0 PUSH20 0xFFFFFFFFFFFFFFFFFFFFFFFFFFFFFFFFFFFFFFFF AND DUP2 PUSH20 0xFFFFFFFFFFFFFFFFFFFFFFFFFFFFFFFFFFFFFFFF AND SUB PUSH2 0x1D4C JUMPI PUSH1 0x0 PUSH1 0x40 MLOAD PUSH32 0x1E4FBDF700000000000000000000000000000000000000000000000000000000 DUP2 MSTORE PUSH1 0x4 ADD PUSH2 0x1D43 SWAP2 SWAP1 PUSH2 0x1F54 JUMP JUMPDEST PUSH1 0x40 MLOAD DUP1 SWAP2 SUB SWAP1 REVERT JUMPDEST PUSH2 0x1D55 DUP2 PUSH2 0x1AF1 JUMP JUMPDEST POP JUMP JUMPDEST PUSH2 0x1D60 PUSH2 0x1C92 JUMP JUMPDEST PUSH1 0x1 PUSH1 0x0 DUP2 SWAP1 SSTORE POP JUMP JUMPDEST PUSH1 0x0 CALLER SWAP1 POP SWAP1 JUMP JUMPDEST PUSH1 0x0 PUSH2 0x1D7C PUSH2 0x1A1C JUMP JUMPDEST PUSH1 0x0 ADD PUSH1 0x8 SWAP1 SLOAD SWAP1 PUSH2 0x100 EXP SWAP1 DIV PUSH1 0xFF AND SWAP1 POP SWAP1 JUMP JUMPDEST PUSH1 0x0 DUP2 SWAP1 POP SWAP2 SWAP1 POP JUMP JUMPDEST PUSH32 0x4E487B7100000000000000000000000000000000000000000000000000000000 PUSH1 0x0 MSTORE PUSH1 0x11 PUSH1 0x4 MSTORE PUSH1 0x24 PUSH1 0x0 REVERT JUMPDEST PUSH1 0x0 PUSH2 0x1DD6 DUP3 PUSH2 0x1D92 JUMP JUMPDEST SWAP2 POP PUSH2 0x1DE1 DUP4 PUSH2 0x1D92 JUMP JUMPDEST SWAP3 POP DUP3 DUP3 ADD SWAP1 POP DUP1 DUP3 GT ISZERO PUSH2 0x1DF9 JUMPI PUSH2 0x1DF8 PUSH2 0x1D9C JUMP JUMPDEST JUMPDEST SWAP3 SWAP2 POP POP JUMP JUMPDEST PUSH2 0x1E08 DUP2 PUSH2 0x1D92 JUMP JUMPDEST DUP3 MSTORE POP POP JUMP JUMPDEST PUSH1 0x0 PUSH1 0x20 DUP3 ADD SWAP1 POP PUSH2 0x1E23 PUSH1 0x0 DUP4 ADD DUP5 PUSH2 0x1DFF JUMP JUMPDEST SWAP3 SWAP2 POP POP JUMP JUMPDEST PUSH1 0x0 DUP3 DUP3 MSTORE PUSH1 0x20 DUP3 ADD SWAP1 POP SWAP3 SWAP2 POP POP JUMP JUMPDEST PUSH32 0x537765657473706F743A20757365206465706F73697428290000000000000000 PUSH1 0x0 DUP3 ADD MSTORE POP JUMP JUMPDEST PUSH1 0x0 PUSH2 0x1E70 PUSH1 0x18 DUP4 PUSH2 0x1E29 JUMP JUMPDEST SWAP2 POP PUSH2 0x1E7B DUP3 PUSH2 0x1E3A JUMP JUMPDEST PUSH1 0x20 DUP3 ADD SWAP1 POP SWAP2 SWAP1 POP JUMP JUMPDEST PUSH1 0x0 PUSH1 0x20 DUP3 ADD SWAP1 POP DUP2 DUP2 SUB PUSH1 0x0 DUP4 ADD MSTORE PUSH2 0x1E9F DUP2 PUSH2 0x1E63 JUMP JUMPDEST SWAP1 POP SWAP2 SWAP1 POP JUMP JUMPDEST PUSH1 0x0 PUSH1 0x40 MLOAD SWAP1 POP SWAP1 JUMP JUMPDEST PUSH1 0x0 DUP1 REVERT JUMPDEST PUSH1 0x0 DUP1 REVERT JUMPDEST PUSH1 0x0 PUSH20 0xFFFFFFFFFFFFFFFFFFFFFFFFFFFFFFFFFFFFFFFF DUP3 AND SWAP1 POP SWAP2 SWAP1 POP JUMP JUMPDEST PUSH1 0x0 PUSH2 0x1EE5 DUP3 PUSH2 0x1EBA JUMP JUMPDEST SWAP1 POP SWAP2 SWAP1 POP JUMP JUMPDEST PUSH2 0x1EF5 DUP2 PUSH2 0x1EDA JUMP JUMPDEST DUP2 EQ PUSH2 0x1F00 JUMPI PUSH1 0x0 DUP1 REVERT JUMPDEST POP JUMP JUMPDEST PUSH1 0x0 DUP2 CALLDATALOAD SWAP1 POP PUSH2 0x1F12 DUP2 PUSH2 0x1EEC JUMP JUMPDEST SWAP3 SWAP2 POP POP JUMP JUMPDEST PUSH1 0x0 PUSH1 0x20 DUP3 DUP5 SUB SLT ISZERO PUSH2 0x1F2E JUMPI PUSH2 0x1F2D PUSH2 0x1EB0 JUMP JUMPDEST JUMPDEST PUSH1 0x0 PUSH2 0x1F3C DUP5 DUP3 DUP6 ADD PUSH2 0x1F03 JUMP JUMPDEST SWAP2 POP POP SWAP3 SWAP2 POP POP JUMP JUMPDEST PUSH2 0x1F4E DUP2 PUSH2 0x1EDA JUMP JUMPDEST DUP3 MSTORE POP POP JUMP JUMPDEST PUSH1 0x0 PUSH1 0x20 DUP3 ADD SWAP1 POP PUSH2 0x1F69 PUSH1 0x0 DUP4 ADD DUP5 PUSH2 0x1F45 JUMP JUMPDEST SWAP3 SWAP2 POP POP JUMP JUMPDEST PUSH2 0x1F78 DUP2 PUSH2 0x1D92 JUMP JUMPDEST DUP2 EQ PUSH2 0x1F83 JUMPI PUSH1 0x0 DUP1 REVERT JUMPDEST POP JUMP JUMPDEST PUSH1 0x0 DUP2 CALLDATALOAD SWAP1 POP PUSH2 0x1F95 DUP2 PUSH2 0x1F6F JUMP JUMPDEST SWAP3 SWAP2 POP POP JUMP JUMPDEST PUSH1 0x0 DUP1 PUSH1 0x40 DUP4 DUP6 SUB SLT ISZERO PUSH2 0x1FB2 JUMPI PUSH2 0x1FB1 PUSH2 0x1EB0 JUMP JUMPDEST JUMPDEST PUSH1 0x0 PUSH2 0x1FC0 DUP6 DUP3 DUP7 ADD PUSH2 0x1F03 JUMP JUMPDEST SWAP3 POP POP PUSH1 0x20 PUSH2 0x1FD1 DUP6 DUP3 DUP7 ADD PUSH2 0x1F86 JUMP JUMPDEST SWAP2 POP POP SWAP3 POP SWAP3 SWAP1 POP JUMP JUMPDEST PUSH1 0x0 DUP1 PUSH1 0x40 DUP4 DUP6 SUB SLT ISZERO PUSH2 0x1FF2 JUMPI PUSH2 0x1FF1 PUSH2 0x1EB0 JUMP JUMPDEST JUMPDEST PUSH1 0x0 PUSH2 0x2000 DUP6 DUP3 DUP7 ADD PUSH2 0x1F03 JUMP JUMPDEST SWAP3 POP POP PUSH1 0x20 PUSH2 0x2011 DUP6 DUP3 DUP7 ADD PUSH2 0x1F03 JUMP JUMPDEST SWAP2 POP POP SWAP3 POP SWAP3 SWAP1 POP JUMP JUMPDEST PUSH1 0x0 DUP2 SWAP1 POP SWAP2 SWAP1 POP JUMP JUMPDEST PUSH1 0x0 PUSH2 0x2040 PUSH2 0x203B PUSH2 0x2036 DUP5 PUSH2 0x1EBA JUMP JUMPDEST PUSH2 0x201B JUMP JUMPDEST PUSH2 0x1EBA JUMP JUMPDEST SWAP1 POP SWAP2 SWAP1 POP JUMP JUMPDEST PUSH1 0x0 PUSH2 0x2052 DUP3 PUSH2 0x2025 JUMP JUMPDEST SWAP1 POP SWAP2 SWAP1 POP JUMP JUMPDEST PUSH1 0x0 PUSH2 0x2064 DUP3 PUSH2 0x2047 JUMP JUMPDEST SWAP1 POP SWAP2 SWAP1 POP JUMP JUMPDEST PUSH2 0x2074 DUP2 PUSH2 0x2059 JUMP JUMPDEST DUP3 MSTORE POP POP JUMP JUMPDEST PUSH1 0x0 PUSH1 0x20 DUP3 ADD SWAP1 POP PUSH2 0x208F PUSH1 0x0 DUP4 ADD DUP5 PUSH2 0x206B JUMP JUMPDEST SWAP3 SWAP2 POP POP JUMP JUMPDEST PUSH1 0x0 PUSH8 0xFFFFFFFFFFFFFFFF DUP3 AND SWAP1 POP SWAP2 SWAP1 POP JUMP JUMPDEST PUSH2 0x20B2 DUP2 PUSH2 0x2095 JUMP JUMPDEST DUP3 MSTORE POP POP JUMP JUMPDEST PUSH1 0x0 DUP2 MLOAD SWAP1 POP SWAP2 SWAP1 POP JUMP JUMPDEST PUSH1 0x0 JUMPDEST DUP4 DUP2 LT ISZERO PUSH2 0x20E1 JUMPI DUP1 DUP3 ADD MLOAD DUP2 DUP5 ADD MSTORE PUSH1 0x20 DUP2 ADD SWAP1 POP PUSH2 0x20C6 JUMP JUMPDEST PUSH1 0x0 DUP5 DUP5 ADD MSTORE POP POP POP POP JUMP JUMPDEST PUSH1 0x0 PUSH1 0x1F NOT PUSH1 0x1F DUP4 ADD AND SWAP1 POP SWAP2 SWAP1 POP JUMP JUMPDEST PUSH1 0x0 PUSH2 0x2109 DUP3 PUSH2 0x20B8 JUMP JUMPDEST PUSH2 0x2113 DUP2 DUP6 PUSH2 0x1E29 JUMP JUMPDEST SWAP4 POP PUSH2 0x2123 DUP2 DUP6 PUSH1 0x20 DUP7 ADD PUSH2 0x20C3 JUMP JUMPDEST PUSH2 0x212C DUP2 PUSH2 0x20ED JUMP JUMPDEST DUP5 ADD SWAP2 POP POP SWAP3 SWAP2 POP POP JUMP JUMPDEST PUSH1 0x0 PUSH1 0x60 DUP3 ADD SWAP1 POP PUSH2 0x214C PUSH1 0x0 DUP4 ADD DUP7 PUSH2 0x20A9 JUMP JUMPDEST PUSH2 0x2159 PUSH1 0x20 DUP4 ADD DUP6 PUSH2 0x20A9 JUMP JUMPDEST DUP2 DUP2 SUB PUSH1 0x40 DUP4 ADD MSTORE PUSH2 0x216B DUP2 DUP5 PUSH2 0x20FE JUMP JUMPDEST SWAP1 POP SWAP5 SWAP4 POP POP POP POP JUMP JUMPDEST PUSH2 0x217E DUP2 PUSH2 0x2095 JUMP JUMPDEST DUP2 EQ PUSH2 0x2189 JUMPI PUSH1 0x0 DUP1 REVERT JUMPDEST POP JUMP JUMPDEST PUSH1 0x0 DUP2 CALLDATALOAD SWAP1 POP PUSH2 0x219B DUP2 PUSH2 0x2175 JUMP JUMPDEST SWAP3 SWAP2 POP POP JUMP JUMPDEST PUSH1 0x0 DUP1 REVERT JUMPDEST PUSH1 0x0 DUP1 REVERT JUMPDEST PUSH32 0x4E487B7100000000000000000000000000000000000000000000000000000000 PUSH1 0x0 MSTORE PUSH1 0x41 PUSH1 0x4 MSTORE PUSH1 0x24 PUSH1 0x0 REVERT JUMPDEST PUSH2 0x21E3 DUP3 PUSH2 0x20ED JUMP JUMPDEST DUP2 ADD DUP2 DUP2 LT PUSH8 0xFFFFFFFFFFFFFFFF DUP3 GT OR ISZERO PUSH2 0x2202 JUMPI PUSH2 0x2201 PUSH2 0x21AB JUMP JUMPDEST JUMPDEST DUP1 PUSH1 0x40 MSTORE POP POP POP JUMP JUMPDEST PUSH1 0x0 PUSH2 0x2215 PUSH2 0x1EA6 JUMP JUMPDEST SWAP1 POP PUSH2 0x2221 DUP3 DUP3 PUSH2 0x21DA JUMP JUMPDEST SWAP2 SWAP1 POP JUMP JUMPDEST PUSH1 0x0 PUSH8 0xFFFFFFFFFFFFFFFF DUP3 GT ISZERO PUSH2 0x2241 JUMPI PUSH2 0x2240 PUSH2 0x21AB JUMP JUMPDEST JUMPDEST PUSH2 0x224A DUP3 PUSH2 0x20ED JUMP JUMPDEST SWAP1 POP PUSH1 0x20 DUP2 ADD SWAP1 POP SWAP2 SWAP1 POP JUMP JUMPDEST DUP3 DUP2 DUP4 CALLDATACOPY PUSH1 0x0 DUP4 DUP4 ADD MSTORE POP POP POP JUMP JUMPDEST PUSH1 0x0 PUSH2 0x2279 PUSH2 0x2274 DUP5 PUSH2 0x2226 JUMP JUMPDEST PUSH2 0x220B JUMP JUMPDEST SWAP1 POP DUP3 DUP2 MSTORE PUSH1 0x20 DUP2 ADD DUP5 DUP5 DUP5 ADD GT ISZERO PUSH2 0x2295 JUMPI PUSH2 0x2294 PUSH2 0x21A6 JUMP JUMPDEST JUMPDEST PUSH2 0x22A0 DUP5 DUP3 DUP6 PUSH2 0x2257 JUMP JUMPDEST POP SWAP4 SWAP3 POP POP POP JUMP JUMPDEST PUSH1 0x0 DUP3 PUSH1 0x1F DUP4 ADD SLT PUSH2 0x22BD JUMPI PUSH2 0x22BC PUSH2 0x21A1 JUMP JUMPDEST JUMPDEST DUP2 CALLDATALOAD PUSH2 0x22CD DUP5 DUP3 PUSH1 0x20 DUP7 ADD PUSH2 0x2266 JUMP JUMPDEST SWAP2 POP POP SWAP3 SWAP2 POP POP JUMP JUMPDEST PUSH1 0x0 DUP1 PUSH1 0x0 PUSH1 0x60 DUP5 DUP7 SUB SLT ISZERO PUSH2 0x22EF JUMPI PUSH2 0x22EE PUSH2 0x1EB0 JUMP JUMPDEST JUMPDEST PUSH1 0x0 PUSH2 0x22FD DUP7 DUP3 DUP8 ADD PUSH2 0x218C JUMP JUMPDEST SWAP4 POP POP PUSH1 0x20 PUSH2 0x230E DUP7 DUP3 DUP8 ADD PUSH2 0x218C JUMP JUMPDEST SWAP3 POP POP PUSH1 0x40 DUP5 ADD CALLDATALOAD PUSH8 0xFFFFFFFFFFFFFFFF DUP2 GT ISZERO PUSH2 0x232F JUMPI PUSH2 0x232E PUSH2 0x1EB5 JUMP JUMPDEST JUMPDEST PUSH2 0x233B DUP7 DUP3 DUP8 ADD PUSH2 0x22A8 JUMP JUMPDEST SWAP2 POP POP SWAP3 POP SWAP3 POP SWAP3 JUMP JUMPDEST PUSH1 0x0 DUP1 PUSH1 0x0 PUSH1 0x60 DUP5 DUP7 SUB SLT ISZERO PUSH2 0x235E JUMPI PUSH2 0x235D PUSH2 0x1EB0 JUMP JUMPDEST JUMPDEST PUSH1 0x0 PUSH2 0x236C DUP7 DUP3 DUP8 ADD PUSH2 0x1F03 JUMP JUMPDEST SWAP4 POP POP PUSH1 0x20 PUSH2 0x237D DUP7 DUP3 DUP8 ADD PUSH2 0x1F03 JUMP JUMPDEST SWAP3 POP POP PUSH1 0x40 PUSH2 0x238E DUP7 DUP3 DUP8 ADD PUSH2 0x1F86 JUMP JUMPDEST SWAP2 POP POP SWAP3 POP SWAP3 POP SWAP3 JUMP JUMPDEST PUSH1 0x0 DUP1 REVERT JUMPDEST PUSH1 0x0 DUP1 REVERT JUMPDEST PUSH1 0x0 DUP1 DUP4 PUSH1 0x1F DUP5 ADD SLT PUSH2 0x23B8 JUMPI PUSH2 0x23B7 PUSH2 0x21A1 JUMP JUMPDEST JUMPDEST DUP3 CALLDATALOAD SWAP1 POP PUSH8 0xFFFFFFFFFFFFFFFF DUP2 GT ISZERO PUSH2 0x23D5 JUMPI PUSH2 0x23D4 PUSH2 0x2398 JUMP JUMPDEST JUMPDEST PUSH1 0x20 DUP4 ADD SWAP2 POP DUP4 PUSH1 0x20 DUP3 MUL DUP4 ADD GT ISZERO PUSH2 0x23F1 JUMPI PUSH2 0x23F0 PUSH2 0x239D JUMP JUMPDEST JUMPDEST SWAP3 POP SWAP3 SWAP1 POP JUMP JUMPDEST PUSH1 0x0 DUP1 DUP4 PUSH1 0x1F DUP5 ADD SLT PUSH2 0x240E JUMPI PUSH2 0x240D PUSH2 0x21A1 JUMP JUMPDEST JUMPDEST DUP3 CALLDATALOAD SWAP1 POP PUSH8 0xFFFFFFFFFFFFFFFF DUP2 GT ISZERO PUSH2 0x242B JUMPI PUSH2 0x242A PUSH2 0x2398 JUMP JUMPDEST JUMPDEST PUSH1 0x20 DUP4 ADD SWAP2 POP DUP4 PUSH1 0x20 DUP3 MUL DUP4 ADD GT ISZERO PUSH2 0x2447 JUMPI PUSH2 0x2446 PUSH2 0x239D JUMP JUMPDEST JUMPDEST SWAP3 POP SWAP3 SWAP1 POP JUMP JUMPDEST PUSH1 0x0 DUP1 PUSH1 0x0 DUP1 PUSH1 0x0 DUP1 PUSH1 0x60 DUP8 DUP10 SUB SLT ISZERO PUSH2 0x246B JUMPI PUSH2 0x246A PUSH2 0x1EB0 JUMP JUMPDEST JUMPDEST PUSH1 0x0 DUP8 ADD CALLDATALOAD PUSH8 0xFFFFFFFFFFFFFFFF DUP2 GT ISZERO PUSH2 0x2489 JUMPI PUSH2 0x2488 PUSH2 0x1EB5 JUMP JUMPDEST JUMPDEST PUSH2 0x2495 DUP10 DUP3 DUP11 ADD PUSH2 0x23A2 JUMP JUMPDEST SWAP7 POP SWAP7 POP POP PUSH1 0x20 DUP8 ADD CALLDATALOAD PUSH8 0xFFFFFFFFFFFFFFFF DUP2 GT ISZERO PUSH2 0x24B8 JUMPI PUSH2 0x24B7 PUSH2 0x1EB5 JUMP JUMPDEST JUMPDEST PUSH2 0x24C4 DUP10 DUP3 DUP11 ADD PUSH2 0x23A2 JUMP JUMPDEST SWAP5 POP SWAP5 POP POP PUSH1 0x40 DUP8 ADD CALLDATALOAD PUSH8 0xFFFFFFFFFFFFFFFF DUP2 GT ISZERO PUSH2 0x24E7 JUMPI PUSH2 0x24E6 PUSH2 0x1EB5 JUMP JUMPDEST JUMPDEST PUSH2 0x24F3 DUP10 DUP3 DUP11 ADD PUSH2 0x23F8 JUMP JUMPDEST SWAP3 POP SWAP3 POP POP SWAP3 SWAP6 POP SWAP3 SWAP6 POP SWAP3 SWAP6 JUMP JUMPDEST PUSH1 0x0 PUSH2 0x251D PUSH2 0x2518 PUSH2 0x2513 DUP5 PUSH2 0x2095 JUMP JUMPDEST PUSH2 0x201B JUMP JUMPDEST PUSH2 0x1D92 JUMP JUMPDEST SWAP1 POP SWAP2 SWAP1 POP JUMP JUMPDEST PUSH2 0x252D DUP2 PUSH2 0x2502 JUMP JUMPDEST DUP3 MSTORE POP POP JUMP JUMPDEST PUSH1 0x0 PUSH1 0x60 DUP3 ADD SWAP1 POP PUSH2 0x2548 PUSH1 0x0 DUP4 ADD DUP7 PUSH2 0x1DFF JUMP JUMPDEST PUSH2 0x2555 PUSH1 0x20 DUP4 ADD DUP6 PUSH2 0x2524 JUMP JUMPDEST PUSH2 0x2562 PUSH1 0x40 DUP4 ADD DUP5 PUSH2 0x2524 JUMP JUMPDEST SWAP5 SWAP4 POP POP POP POP JUMP JUMPDEST PUSH32 0x4E6F20636C61696D61626C6520616D6F756E7400000000000000000000000000 PUSH1 0x0 DUP3 ADD MSTORE POP JUMP JUMPDEST PUSH1 0x0 PUSH2 0x25A0 PUSH1 0x13 DUP4 PUSH2 0x1E29 JUMP JUMPDEST SWAP2 POP PUSH2 0x25AB DUP3 PUSH2 0x256A JUMP JUMPDEST PUSH1 0x20 DUP3 ADD SWAP1 POP SWAP2 SWAP1 POP JUMP JUMPDEST PUSH1 0x0 PUSH1 0x20 DUP3 ADD SWAP1 POP DUP2 DUP2 SUB PUSH1 0x0 DUP4 ADD MSTORE PUSH2 0x25CF DUP2 PUSH2 0x2593 JUMP JUMPDEST SWAP1 POP SWAP2 SWAP1 POP JUMP JUMPDEST PUSH32 0x496E73756666696369656E742066756E647320696E206A617200000000000000 PUSH1 0x0 DUP3 ADD MSTORE POP JUMP JUMPDEST PUSH1 0x0 PUSH2 0x260C PUSH1 0x19 DUP4 PUSH2 0x1E29 JUMP JUMPDEST SWAP2 POP PUSH2 0x2617 DUP3 PUSH2 0x25D6 JUMP JUMPDEST PUSH1 0x20 DUP3 ADD SWAP1 POP SWAP2 SWAP1 POP JUMP JUMPDEST PUSH1 0x0 PUSH1 0x20 DUP3 ADD SWAP1 POP DUP2 DUP2 SUB PUSH1 0x0 DUP4 ADD MSTORE PUSH2 0x263B DUP2 PUSH2 0x25FF JUMP JUMPDEST SWAP1 POP SWAP2 SWAP1 POP JUMP JUMPDEST PUSH1 0x0 PUSH2 0x264D DUP3 PUSH2 0x1D92 JUMP JUMPDEST SWAP2 POP PUSH2 0x2658 DUP4 PUSH2 0x1D92 JUMP JUMPDEST SWAP3 POP DUP3 DUP3 SUB SWAP1 POP DUP2 DUP2 GT ISZERO PUSH2 0x2670 JUMPI PUSH2 0x266F PUSH2 0x1D9C JUMP JUMPDEST JUMPDEST SWAP3 SWAP2 POP POP JUMP JUMPDEST PUSH1 0x0 DUP2 SWAP1 POP SWAP3 SWAP2 POP POP JUMP JUMPDEST POP JUMP JUMPDEST PUSH1 0x0 PUSH2 0x2691 PUSH1 0x0 DUP4 PUSH2 0x2676 JUMP JUMPDEST SWAP2 POP PUSH2 0x269C DUP3 PUSH2 0x2681 JUMP JUMPDEST PUSH1 0x0 DUP3 ADD SWAP1 POP SWAP2 SWAP1 POP JUMP JUMPDEST PUSH1 0x0 PUSH2 0x26B2 DUP3 PUSH2 0x2684 JUMP JUMPDEST SWAP2 POP DUP2 SWAP1 POP SWAP2 SWAP1 POP JUMP JUMPDEST PUSH32 0x4574686572207472616E73666572206661696C65640000000000000000000000 PUSH1 0x0 DUP3 ADD MSTORE POP JUMP JUMPDEST PUSH1 0x0 PUSH2 0x26F2 PUSH1 0x15 DUP4 PUSH2 0x1E29 JUMP JUMPDEST SWAP2 POP PUSH2 0x26FD DUP3 PUSH2 0x26BC JUMP JUMPDEST PUSH1 0x20 DUP3 ADD SWAP1 POP SWAP2 SWAP1 POP JUMP JUMPDEST PUSH1 0x0 PUSH1 0x20 DUP3 ADD SWAP1 POP DUP2 DUP2 SUB PUSH1 0x0 DUP4 ADD MSTORE PUSH2 0x2721 DUP2 PUSH2 0x26E5 JUMP JUMPDEST SWAP1 POP SWAP2 SWAP1 POP JUMP JUMPDEST PUSH32 0x496E636F727265637420457468657220616D6F756E7400000000000000000000 PUSH1 0x0 DUP3 ADD MSTORE POP JUMP JUMPDEST PUSH1 0x0 PUSH2 0x275E PUSH1 0x16 DUP4 PUSH2 0x1E29 JUMP JUMPDEST SWAP2 POP PUSH2 0x2769 DUP3 PUSH2 0x2728 JUMP JUMPDEST PUSH1 0x20 DUP3 ADD SWAP1 POP SWAP2 SWAP1 POP JUMP JUMPDEST PUSH1 0x0 PUSH1 0x20 DUP3 ADD SWAP1 POP DUP2 DUP2 SUB PUSH1 0x0 DUP4 ADD MSTORE PUSH2 0x278D DUP2 PUSH2 0x2751 JUMP JUMPDEST SWAP1 POP SWAP2 SWAP1 POP JUMP JUMPDEST PUSH32 0x4465706F73697420616D6F756E74206D75737420626520677265617465722074 PUSH1 0x0 DUP3 ADD MSTORE PUSH32 0x68616E207A65726F000000000000000000000000000000000000000000000000 PUSH1 0x20 DUP3 ADD MSTORE POP JUMP JUMPDEST PUSH1 0x0 PUSH2 0x27F0 PUSH1 0x28 DUP4 PUSH2 0x1E29 JUMP JUMPDEST SWAP2 POP PUSH2 0x27FB DUP3 PUSH2 0x2794 JUMP JUMPDEST PUSH1 0x40 DUP3 ADD SWAP1 POP SWAP2 SWAP1 POP JUMP JUMPDEST PUSH1 0x0 PUSH1 0x20 DUP3 ADD SWAP1 POP DUP2 DUP2 SUB PUSH1 0x0 DUP4 ADD MSTORE PUSH2 0x281F DUP2 PUSH2 0x27E3 JUMP JUMPDEST SWAP1 POP SWAP2 SWAP1 POP JUMP JUMPDEST PUSH1 0x0 DUP2 SWAP1 POP SWAP2 SWAP1 POP JUMP JUMPDEST PUSH1 0x0 PUSH2 0x284B PUSH2 0x2846 PUSH2 0x2841 DUP5 PUSH2 0x2826 JUMP JUMPDEST PUSH2 0x201B JUMP JUMPDEST PUSH2 0x2095 JUMP JUMPDEST SWAP1 POP SWAP2 SWAP1 POP JUMP JUMPDEST PUSH2 0x285B DUP2 PUSH2 0x2830 JUMP JUMPDEST DUP3 MSTORE POP POP JUMP JUMPDEST PUSH1 0x0 PUSH1 0x20 DUP3 ADD SWAP1 POP PUSH2 0x2876 PUSH1 0x0 DUP4 ADD DUP5 PUSH2 0x2852 JUMP JUMPDEST SWAP3 SWAP2 POP POP JUMP JUMPDEST PUSH32 0x4E487B7100000000000000000000000000000000000000000000000000000000 PUSH1 0x0 MSTORE PUSH1 0x22 PUSH1 0x4 MSTORE PUSH1 0x24 PUSH1 0x0 REVERT JUMPDEST PUSH1 0x0 PUSH1 0x2 DUP3 DIV SWAP1 POP PUSH1 0x1 DUP3 AND DUP1 PUSH2 0x28C3 JUMPI PUSH1 0x7F DUP3 AND SWAP2 POP JUMPDEST PUSH1 0x20 DUP3 LT DUP2 SUB PUSH2 0x28D6 JUMPI PUSH2 0x28D5 PUSH2 0x287C JUMP JUMPDEST JUMPDEST POP SWAP2 SWAP1 POP JUMP JUMPDEST PUSH1 0x0 DUP2 ISZERO ISZERO SWAP1 POP SWAP2 SWAP1 POP JUMP JUMPDEST PUSH2 0x28F1 DUP2 PUSH2 0x28DC JUMP JUMPDEST DUP2 EQ PUSH2 0x28FC JUMPI PUSH1 0x0 DUP1 REVERT JUMPDEST POP JUMP JUMPDEST PUSH1 0x0 DUP2 MLOAD SWAP1 POP PUSH2 0x290E DUP2 PUSH2 0x28E8 JUMP JUMPDEST SWAP3 SWAP2 POP POP JUMP JUMPDEST PUSH1 0x0 PUSH1 0x20 DUP3 DUP5 SUB SLT ISZERO PUSH2 0x292A JUMPI PUSH2 0x2929 PUSH2 0x1EB0 JUMP JUMPDEST JUMPDEST PUSH1 0x0 PUSH2 0x2938 DUP5 DUP3 DUP6 ADD PUSH2 0x28FF JUMP JUMPDEST SWAP2 POP POP SWAP3 SWAP2 POP POP JUMP JUMPDEST PUSH32 0x43616C6C6572206973206E6F7420616E2061646D696E00000000000000000000 PUSH1 0x0 DUP3 ADD MSTORE POP JUMP JUMPDEST PUSH1 0x0 PUSH2 0x2977 PUSH1 0x16 DUP4 PUSH2 0x1E29 JUMP JUMPDEST SWAP2 POP PUSH2 0x2982 DUP3 PUSH2 0x2941 JUMP JUMPDEST PUSH1 0x20 DUP3 ADD SWAP1 POP SWAP2 SWAP1 POP JUMP JUMPDEST PUSH1 0x0 PUSH1 0x20 DUP3 ADD SWAP1 POP DUP2 DUP2 SUB PUSH1 0x0 DUP4 ADD MSTORE PUSH2 0x29A6 DUP2 PUSH2 0x296A JUMP JUMPDEST SWAP1 POP SWAP2 SWAP1 POP JUMP JUMPDEST PUSH32 0x53746172742074696D65206D757374206265206265666F726520656E64207469 PUSH1 0x0 DUP3 ADD MSTORE PUSH32 0x6D65000000000000000000000000000000000000000000000000000000000000 PUSH1 0x20 DUP3 ADD MSTORE POP JUMP JUMPDEST PUSH1 0x0 PUSH2 0x2A09 PUSH1 0x22 DUP4 PUSH2 0x1E29 JUMP JUMPDEST SWAP2 POP PUSH2 0x2A14 DUP3 PUSH2 0x29AD JUMP JUMPDEST PUSH1 0x40 DUP3 ADD SWAP1 POP SWAP2 SWAP1 POP JUMP JUMPDEST PUSH1 0x0 PUSH1 0x20 DUP3 ADD SWAP1 POP DUP2 DUP2 SUB PUSH1 0x0 DUP4 ADD MSTORE PUSH2 0x2A38 DUP2 PUSH2 0x29FC JUMP JUMPDEST SWAP1 POP SWAP2 SWAP1 POP JUMP JUMPDEST PUSH1 0x0 DUP2 SWAP1 POP DUP2 PUSH1 0x0 MSTORE PUSH1 0x20 PUSH1 0x0 KECCAK256 SWAP1 POP SWAP2 SWAP1 POP JUMP JUMPDEST PUSH1 0x0 PUSH1 0x20 PUSH1 0x1F DUP4 ADD DIV SWAP1 POP SWAP2 SWAP1 POP JUMP JUMPDEST PUSH1 0x0 DUP3 DUP3 SHL SWAP1 POP SWAP3 SWAP2 POP POP JUMP JUMPDEST PUSH1 0x0 PUSH1 0x8 DUP4 MUL PUSH2 0x2AA1 PUSH32 0xFFFFFFFFFFFFFFFFFFFFFFFFFFFFFFFFFFFFFFFFFFFFFFFFFFFFFFFFFFFFFFFF DUP3 PUSH2 0x2A64 JUMP JUMPDEST PUSH2 0x2AAB DUP7 DUP4 PUSH2 0x2A64 JUMP JUMPDEST SWAP6 POP DUP1 NOT DUP5 AND SWAP4 POP DUP1 DUP7 AND DUP5 OR SWAP3 POP POP POP SWAP4 SWAP3 POP POP POP JUMP JUMPDEST PUSH1 0x0 PUSH2 0x2ADE PUSH2 0x2AD9 PUSH2 0x2AD4 DUP5 PUSH2 0x1D92 JUMP JUMPDEST PUSH2 0x201B JUMP JUMPDEST PUSH2 0x1D92 JUMP JUMPDEST SWAP1 POP SWAP2 SWAP1 POP JUMP JUMPDEST PUSH1 0x0 DUP2 SWAP1 POP SWAP2 SWAP1 POP JUMP JUMPDEST PUSH2 0x2AF8 DUP4 PUSH2 0x2AC3 JUMP JUMPDEST PUSH2 0x2B0C PUSH2 0x2B04 DUP3 PUSH2 0x2AE5 JUMP JUMPDEST DUP5 DUP5 SLOAD PUSH2 0x2A71 JUMP JUMPDEST DUP3 SSTORE POP POP POP POP JUMP JUMPDEST PUSH1 0x0 SWAP1 JUMP JUMPDEST PUSH2 0x2B21 PUSH2 0x2B14 JUMP JUMPDEST PUSH2 0x2B2C DUP2 DUP5 DUP5 PUSH2 0x2AEF JUMP JUMPDEST POP POP POP JUMP JUMPDEST JUMPDEST DUP2 DUP2 LT ISZERO PUSH2 0x2B50 JUMPI PUSH2 0x2B45 PUSH1 0x0 DUP3 PUSH2 0x2B19 JUMP JUMPDEST PUSH1 0x1 DUP2 ADD SWAP1 POP PUSH2 0x2B32 JUMP JUMPDEST POP POP JUMP JUMPDEST PUSH1 0x1F DUP3 GT ISZERO PUSH2 0x2B95 JUMPI PUSH2 0x2B66 DUP2 PUSH2 0x2A3F JUMP JUMPDEST PUSH2 0x2B6F DUP5 PUSH2 0x2A54 JUMP JUMPDEST DUP2 ADD PUSH1 0x20 DUP6 LT ISZERO PUSH2 0x2B7E JUMPI DUP2 SWAP1 POP JUMPDEST PUSH2 0x2B92 PUSH2 0x2B8A DUP6 PUSH2 0x2A54 JUMP JUMPDEST DUP4 ADD DUP3 PUSH2 0x2B31 JUMP JUMPDEST POP POP JUMPDEST POP POP POP JUMP JUMPDEST PUSH1 0x0 DUP3 DUP3 SHR SWAP1 POP SWAP3 SWAP2 POP POP JUMP JUMPDEST PUSH1 0x0 PUSH2 0x2BB8 PUSH1 0x0 NOT DUP5 PUSH1 0x8 MUL PUSH2 0x2B9A JUMP JUMPDEST NOT DUP1 DUP4 AND SWAP2 POP POP SWAP3 SWAP2 POP POP JUMP JUMPDEST PUSH1 0x0 PUSH2 0x2BD1 DUP4 DUP4 PUSH2 0x2BA7 JUMP JUMPDEST SWAP2 POP DUP3 PUSH1 0x2 MUL DUP3 OR SWAP1 POP SWAP3 SWAP2 POP POP JUMP JUMPDEST PUSH2 0x2BEA DUP3 PUSH2 0x20B8 JUMP JUMPDEST PUSH8 0xFFFFFFFFFFFFFFFF DUP2 GT ISZERO PUSH2 0x2C03 JUMPI PUSH2 0x2C02 PUSH2 0x21AB JUMP JUMPDEST JUMPDEST PUSH2 0x2C0D DUP3 SLOAD PUSH2 0x28AB JUMP JUMPDEST PUSH2 0x2C18 DUP3 DUP3 DUP6 PUSH2 0x2B54 JUMP JUMPDEST PUSH1 0x0 PUSH1 0x20 SWAP1 POP PUSH1 0x1F DUP4 GT PUSH1 0x1 DUP2 EQ PUSH2 0x2C4B JUMPI PUSH1 0x0 DUP5 ISZERO PUSH2 0x2C39 JUMPI DUP3 DUP8 ADD MLOAD SWAP1 POP JUMPDEST PUSH2 0x2C43 DUP6 DUP3 PUSH2 0x2BC5 JUMP JUMPDEST DUP7 SSTORE POP PUSH2 0x2CAB JUMP JUMPDEST PUSH1 0x1F NOT DUP5 AND PUSH2 0x2C59 DUP7 PUSH2 0x2A3F JUMP JUMPDEST PUSH1 0x0 JUMPDEST DUP3 DUP2 LT ISZERO PUSH2 0x2C81 JUMPI DUP5 DUP10 ADD MLOAD DUP3 SSTORE PUSH1 0x1 DUP3 ADD SWAP2 POP PUSH1 0x20 DUP6 ADD SWAP5 POP PUSH1 0x20 DUP2 ADD SWAP1 POP PUSH2 0x2C5C JUMP JUMPDEST DUP7 DUP4 LT ISZERO PUSH2 0x2C9E JUMPI DUP5 DUP10 ADD MLOAD PUSH2 0x2C9A PUSH1 0x1F DUP10 AND DUP3 PUSH2 0x2BA7 JUMP JUMPDEST DUP4 SSTORE POP JUMPDEST PUSH1 0x1 PUSH1 0x2 DUP9 MUL ADD DUP9 SSTORE POP POP POP JUMPDEST POP POP POP POP POP POP JUMP JUMPDEST PUSH1 0x0 PUSH1 0x60 DUP3 ADD SWAP1 POP PUSH2 0x2CC8 PUSH1 0x0 DUP4 ADD DUP7 PUSH2 0x2524 JUMP JUMPDEST PUSH2 0x2CD5 PUSH1 0x20 DUP4 ADD DUP6 PUSH2 0x2524 JUMP JUMPDEST DUP2 DUP2 SUB PUSH1 0x40 DUP4 ADD MSTORE PUSH2 0x2CE7 DUP2 DUP5 PUSH2 0x20FE JUMP JUMPDEST SWAP1 POP SWAP5 SWAP4 POP POP POP POP JUMP JUMPDEST PUSH32 0x5A65726F20616464726573732075736572000000000000000000000000000000 PUSH1 0x0 DUP3 ADD MSTORE POP JUMP JUMPDEST PUSH1 0x0 PUSH2 0x2D27 PUSH1 0x11 DUP4 PUSH2 0x1E29 JUMP JUMPDEST SWAP2 POP PUSH2 0x2D32 DUP3 PUSH2 0x2CF1 JUMP JUMPDEST PUSH1 0x20 DUP3 ADD SWAP1 POP SWAP2 SWAP1 POP JUMP JUMPDEST PUSH1 0x0 PUSH1 0x20 DUP3 ADD SWAP1 POP DUP2 DUP2 SUB PUSH1 0x0 DUP4 ADD MSTORE PUSH2 0x2D56 DUP2 PUSH2 0x2D1A JUMP JUMPDEST SWAP1 POP SWAP2 SWAP1 POP JUMP JUMPDEST PUSH32 0x4D69736D617463686564206172726179206C656E677468730000000000000000 PUSH1 0x0 DUP3 ADD MSTORE POP JUMP JUMPDEST PUSH1 0x0 PUSH2 0x2D93 PUSH1 0x18 DUP4 PUSH2 0x1E29 JUMP JUMPDEST SWAP2 POP PUSH2 0x2D9E DUP3 PUSH2 0x2D5D JUMP JUMPDEST PUSH1 0x20 DUP3 ADD SWAP1 POP SWAP2 SWAP1 POP JUMP JUMPDEST PUSH1 0x0 PUSH1 0x20 DUP3 ADD SWAP1 POP DUP2 DUP2 SUB PUSH1 0x0 DUP4 ADD MSTORE PUSH2 0x2DC2 DUP2 PUSH2 0x2D86 JUMP JUMPDEST SWAP1 POP SWAP2 SWAP1 POP JUMP JUMPDEST PUSH32 0x4E487B7100000000000000000000000000000000000000000000000000000000 PUSH1 0x0 MSTORE PUSH1 0x32 PUSH1 0x4 MSTORE PUSH1 0x24 PUSH1 0x0 REVERT JUMPDEST PUSH32 0x5769746864726177616C20616D6F756E74206D75737420626520677265617465 PUSH1 0x0 DUP3 ADD MSTORE PUSH32 0x72207468616E207A65726F000000000000000000000000000000000000000000 PUSH1 0x20 DUP3 ADD MSTORE POP JUMP JUMPDEST PUSH1 0x0 PUSH2 0x2E54 PUSH1 0x2B DUP4 PUSH2 0x1E29 JUMP JUMPDEST SWAP2 POP PUSH2 0x2E5F DUP3 PUSH2 0x2DF8 JUMP JUMPDEST PUSH1 0x40 DUP3 ADD SWAP1 POP SWAP2 SWAP1 POP JUMP JUMPDEST PUSH1 0x0 PUSH1 0x20 DUP3 ADD SWAP1 POP DUP2 DUP2 SUB PUSH1 0x0 DUP4 ADD MSTORE PUSH2 0x2E83 DUP2 PUSH2 0x2E47 JUMP JUMPDEST SWAP1 POP SWAP2 SWAP1 POP JUMP JUMPDEST PUSH32 0x496E73756666696369656E742066756E64730000000000000000000000000000 PUSH1 0x0 DUP3 ADD MSTORE POP JUMP JUMPDEST PUSH1 0x0 PUSH2 0x2EC0 PUSH1 0x12 DUP4 PUSH2 0x1E29 JUMP JUMPDEST SWAP2 POP PUSH2 0x2ECB DUP3 PUSH2 0x2E8A JUMP JUMPDEST PUSH1 0x20 DUP3 ADD SWAP1 POP SWAP2 SWAP1 POP JUMP JUMPDEST PUSH1 0x0 PUSH1 0x20 DUP3 ADD SWAP1 POP DUP2 DUP2 SUB PUSH1 0x0 DUP4 ADD MSTORE PUSH2 0x2EEF DUP2 PUSH2 0x2EB3 JUMP JUMPDEST SWAP1 POP SWAP2 SWAP1 POP JUMP JUMPDEST PUSH32 0x5265656E7472616E637947756172643A207265656E7472616E742063616C6C00 PUSH1 0x0 DUP3 ADD MSTORE POP JUMP JUMPDEST PUSH1 0x0 PUSH2 0x2F2C PUSH1 0x1F DUP4 PUSH2 0x1E29 JUMP JUMPDEST SWAP2 POP PUSH2 0x2F37 DUP3 PUSH2 0x2EF6 JUMP JUMPDEST PUSH1 0x20 DUP3 ADD SWAP1 POP SWAP2 SWAP1 POP JUMP JUMPDEST PUSH1 0x0 PUSH1 0x20 DUP3 ADD SWAP1 POP DUP2 DUP2 SUB PUSH1 0x0 DUP4 ADD MSTORE PUSH2 0x2F5B DUP2 PUSH2 0x2F1F JUMP JUMPDEST SWAP1 POP SWAP2 SWAP1 POP JUMP JUMPDEST PUSH1 0x0 PUSH1 0x40 DUP3 ADD SWAP1 POP PUSH2 0x2F77 PUSH1 0x0 DUP4 ADD DUP6 PUSH2 0x1F45 JUMP JUMPDEST PUSH2 0x2F84 PUSH1 0x20 DUP4 ADD DUP5 PUSH2 0x1DFF JUMP JUMPDEST SWAP4 SWAP3 POP POP POP JUMP JUMPDEST PUSH1 0x0 PUSH1 0x60 DUP3 ADD SWAP1 POP PUSH2 0x2FA0 PUSH1 0x0 DUP4 ADD DUP7 PUSH2 0x1F45 JUMP JUMPDEST PUSH2 0x2FAD PUSH1 0x20 DUP4 ADD DUP6 PUSH2 0x1F45 JUMP JUMPDEST PUSH2 0x2FBA PUSH1 0x40 DUP4 ADD DUP5 PUSH2 0x1DFF JUMP JUMPDEST SWAP5 SWAP4 POP POP POP POP JUMP INVALID LOG2 PUSH5 0x6970667358 0x22 SLT KECCAK256 PUSH23 0xBCC156C65DFA0AF393912351E7F6495699685159B20667 DUP3 SWAP5 DUP14 MULMOD 0xFC SWAP8 DUP3 0xBA PUSH5 0x736F6C6343 STOP ADDMOD SAR STOP CALLER "
				},
				"gasEstimates": {
					"creation": {
						"codeDepositCost": "2456000",
						"executionCost": "2643",
						"totalCost": "2458643"
					},
					"external": {
						"": "474",
						"NATIVE_TOKEN()": "424",
						"allowedAmounts(address,address)": "infinite",
						"bulkSetAllowedAmount(address[],address[],uint256[])": "infinite",
						"claim(address)": "infinite",
						"currentRound()": "infinite",
						"deposit(address,uint256)": "infinite",
						"initialize(address,address)": "infinite",
						"owner()": "2599",
						"renounceOwnership()": "infinite",
						"scorer()": "infinite",
						"setAllowedAmount(address,address,uint256)": "infinite",
						"setRound(uint64,uint64,string)": "infinite",
						"totalBalances(address)": "2903",
						"transferOwnership(address)": "infinite",
						"withdraw(address,uint256)": "infinite"
					}
				},
				"methodIdentifiers": {
					"NATIVE_TOKEN()": "31f7d964",
					"allowedAmounts(address,address)": "a9590e8a",
					"bulkSetAllowedAmount(address[],address[],uint256[])": "c5d60b51",
					"claim(address)": "1e83409a",
					"currentRound()": "8a19c8bc",
					"deposit(address,uint256)": "47e7ef24",
					"initialize(address,address)": "485cc955",
					"owner()": "8da5cb5b",
					"renounceOwnership()": "715018a6",
					"scorer()": "85c758f7",
					"setAllowedAmount(address,address,uint256)": "b807a3c4",
					"setRound(uint64,uint64,string)": "a9012c89",
					"totalBalances(address)": "aee9c872",
					"transferOwnership(address)": "f2fde38b",
					"withdraw(address,uint256)": "f3fef3a3"
				}
			},
			"storageLayout": {
				"storage": [
					{
						"astId": 463,
						"contract": "contracts/sweetspot.sol:sweetspot",
						"label": "_status",
						"offset": 0,
						"slot": "0",
						"type": "t_uint256"
					},
					{
						"astId": 532,
						"contract": "contracts/sweetspot.sol:sweetspot",
						"label": "__gap",
						"offset": 0,
						"slot": "1",
						"type": "t_array(t_uint256)49_storage"
					},
					{
						"astId": 1498,
						"contract": "contracts/sweetspot.sol:sweetspot",
						"label": "scorer",
						"offset": 0,
						"slot": "50",
						"type": "t_contract(IScorer)1472"
					},
					{
						"astId": 1508,
						"contract": "contracts/sweetspot.sol:sweetspot",
						"label": "currentRound",
						"offset": 0,
						"slot": "51",
						"type": "t_struct(Round)1505_storage"
					},
					{
						"astId": 1512,
						"contract": "contracts/sweetspot.sol:sweetspot",
						"label": "totalBalances",
						"offset": 0,
						"slot": "53",
						"type": "t_mapping(t_address,t_uint256)"
					},
					{
						"astId": 1518,
						"contract": "contracts/sweetspot.sol:sweetspot",
						"label": "allowedAmounts",
						"offset": 0,
						"slot": "54",
						"type": "t_mapping(t_address,t_mapping(t_address,t_uint256))"
					}
				],
				"types": {
					"t_address": {
						"encoding": "inplace",
						"label": "address",
						"numberOfBytes": "20"
					},
					"t_array(t_uint256)49_storage": {
						"base": "t_uint256",
						"encoding": "inplace",
						"label": "uint256[49]",
						"numberOfBytes": "1568"
					},
					"t_contract(IScorer)1472": {
						"encoding": "inplace",
						"label": "contract IScorer",
						"numberOfBytes": "20"
					},
					"t_mapping(t_address,t_mapping(t_address,t_uint256))": {
						"encoding": "mapping",
						"key": "t_address",
						"label": "mapping(address => mapping(address => uint256))",
						"numberOfBytes": "32",
						"value": "t_mapping(t_address,t_uint256)"
					},
					"t_mapping(t_address,t_uint256)": {
						"encoding": "mapping",
						"key": "t_address",
						"label": "mapping(address => uint256)",
						"numberOfBytes": "32",
						"value": "t_uint256"
					},
					"t_string_storage": {
						"encoding": "bytes",
						"label": "string",
						"numberOfBytes": "32"
					},
					"t_struct(Round)1505_storage": {
						"encoding": "inplace",
						"label": "struct sweetspot.Round",
						"members": [
							{
								"astId": 1500,
								"contract": "contracts/sweetspot.sol:sweetspot",
								"label": "start",
								"offset": 0,
								"slot": "0",
								"type": "t_uint64"
							},
							{
								"astId": 1502,
								"contract": "contracts/sweetspot.sol:sweetspot",
								"label": "end",
								"offset": 8,
								"slot": "0",
								"type": "t_uint64"
							},
							{
								"astId": 1504,
								"contract": "contracts/sweetspot.sol:sweetspot",
								"label": "metadataURI",
								"offset": 0,
								"slot": "1",
								"type": "t_string_storage"
							}
						],
						"numberOfBytes": "64"
					},
					"t_uint256": {
						"encoding": "inplace",
						"label": "uint256",
						"numberOfBytes": "32"
					},
					"t_uint64": {
						"encoding": "inplace",
						"label": "uint64",
						"numberOfBytes": "8"
					}
				}
			},
			"userdoc": {
				"kind": "user",
				"methods": {
					"bulkSetAllowedAmount(address[],address[],uint256[])": {
						"notice": "Sets the allowed amount for multiple users for a given token in one call."
					},
					"claim(address)": {
						"notice": "Claims the full allowed amount for a user during the round."
					},
					"deposit(address,uint256)": {
						"notice": "Deposits funds into this jar for a specific token or Ether."
					},
					"initialize(address,address)": {
						"notice": "Initializes this contract with its initial state."
					},
					"setAllowedAmount(address,address,uint256)": {
						"notice": "Sets the allowed amount for a specific user and token."
					},
					"setRound(uint64,uint64,string)": {
						"notice": "Sets the round duration and metadata URI."
					},
					"withdraw(address,uint256)": {
						"notice": "Withdraws funds from the jar for a specific token or Ether."
					}
				},
				"version": 1
			}
		}
	}
}