{
	"data": {
		"bytecode": {
			"linkReferences": {},
			"object": "6080604052348015600f57600080fd5b50611a398061001f6000396000f3fe608060405234801561001057600080fd5b50600436106101215760003560e01c80638da5cb5b116100ad578063c87a774b11610071578063c87a774b146102f2578063c9a4909c1461030e578063d547741f1461032a578063db4f102414610346578063f2fde38b1461037657610121565b80638da5cb5b1461024e57806391d148541461026c578063a217fddf1461029c578063a34f0e28146102ba578063c4d66de8146102d657610121565b80632f2ff15d116100f45780632f2ff15d146101d257806336568abe146101ee578063704802751461020a578063715018a61461022657806375b238fc1461023057610121565b806301ffc9a7146101265780631785f53c14610156578063248a9ca31461017257806324d7806c146101a2575b600080fd5b610140600480360381019061013b9190611348565b610392565b60405161014d9190611390565b60405180910390f35b610170600480360381019061016b9190611409565b61040c565b005b61018c6004803603810190610187919061146c565b610441565b60405161019991906114a8565b60405180910390f35b6101bc60048036038101906101b79190611409565b61046f565b6040516101c99190611390565b60405180910390f35b6101ec60048036038101906101e791906114c3565b6104a2565b005b610208600480360381019061020391906114c3565b6104c4565b005b610224600480360381019061021f9190611409565b61053f565b005b61022e610574565b005b610238610588565b60405161024591906114a8565b60405180910390f35b6102566105ac565b6040516102639190611512565b60405180910390f35b610286600480360381019061028191906114c3565b6105e4565b6040516102939190611390565b60405180910390f35b6102a461065d565b6040516102b191906114a8565b60405180910390f35b6102d460048036038101906102cf9190611673565b610664565b005b6102f060048036038101906102eb9190611409565b61074d565b005b61030c60048036038101906103079190611704565b61091d565b005b61032860048036038101906103239190611673565b610b19565b005b610344600480360381019061033f91906114c3565b610bff565b005b610360600480360381019061035b9190611773565b610c21565b60405161036d91906117de565b60405180910390f35b610390600480360381019061038b9190611409565b610ca2565b005b60007f7965db0b000000000000000000000000000000000000000000000000000000007bffffffffffffffffffffffffffffffffffffffffffffffffffffffff1916827bffffffffffffffffffffffffffffffffffffffffffffffffffffffff19161480610405575061040482610d28565b5b9050919050565b610414610d92565b61043e7fa49807205ce4d355092ef5a8a18f56e8913cf4a201fbe287825b095693c2177582610bff565b50565b60008061044c610e19565b905080600001600084815260200190815260200160002060010154915050919050565b600061049b7fa49807205ce4d355092ef5a8a18f56e8913cf4a201fbe287825b095693c21775836105e4565b9050919050565b6104ab82610441565b6104b481610e41565b6104be8383610e55565b50505050565b6104cc610f56565b73ffffffffffffffffffffffffffffffffffffffff168173ffffffffffffffffffffffffffffffffffffffff1614610530576040517f6697b23200000000000000000000000000000000000000000000000000000000815260040160405180910390fd5b61053a8282610f5e565b505050565b610547610d92565b6105717fa49807205ce4d355092ef5a8a18f56e8913cf4a201fbe287825b095693c21775826104a2565b50565b61057c610d92565b6105866000611060565b565b7fa49807205ce4d355092ef5a8a18f56e8913cf4a201fbe287825b095693c2177581565b6000806105b7611137565b90508060000160009054906101000a900473ffffffffffffffffffffffffffffffffffffffff1691505090565b6000806105ef610e19565b905080600001600085815260200190815260200160002060000160008473ffffffffffffffffffffffffffffffffffffffff1673ffffffffffffffffffffffffffffffffffffffff16815260200190815260200160002060009054906101000a900460ff1691505092915050565b6000801b81565b61066c610d92565b60018160405161067c919061186a565b908152602001604051809103902060009054906101000a900460ff166106d957806040517f7becad520000000000000000000000000000000000000000000000000000000081526004016106d091906118cb565b60405180910390fd5b60006001826040516106eb919061186a565b908152602001604051809103902060006101000a81548160ff021916908315150217905550806040517f7becad5200000000000000000000000000000000000000000000000000000000815260040161074491906118cb565b60405180910390fd5b600061075761115f565b905060008160000160089054906101000a900460ff1615905060008260000160009054906101000a900467ffffffffffffffff1690506000808267ffffffffffffffff161480156107a55750825b9050600060018367ffffffffffffffff161480156107da575060003073ffffffffffffffffffffffffffffffffffffffff163b145b9050811580156107e8575080155b1561081f576040517ff92ee8a900000000000000000000000000000000000000000000000000000000815260040160405180910390fd5b60018560000160006101000a81548167ffffffffffffffff021916908367ffffffffffffffff160217905550831561086f5760018560000160086101000a81548160ff0219169083151502179055505b61087886611187565b61088061119b565b61088d6000801b87610e55565b506108b87fa49807205ce4d355092ef5a8a18f56e8913cf4a201fbe287825b095693c2177587610e55565b5083156109155760008560000160086101000a81548160ff0219169083151502179055507fc7f505b2f371ae2175ee4913f4499e1f2633a7b5936321eed1cdaeb6115181d2600160405161090c9190611946565b60405180910390a15b505050505050565b7fa49807205ce4d355092ef5a8a18f56e8913cf4a201fbe287825b095693c2177561094781610e41565b600183604051610957919061186a565b908152602001604051809103902060009054906101000a900460ff166109b457826040517f7becad520000000000000000000000000000000000000000000000000000000081526004016109ab91906118cb565b60405180910390fd5b60008060008673ffffffffffffffffffffffffffffffffffffffff1673ffffffffffffffffffffffffffffffffffffffff16815260200190815260200160002084604051610a02919061186a565b908152602001604051809103902060009054906101000a90046fffffffffffffffffffffffffffffffff169050826000808773ffffffffffffffffffffffffffffffffffffffff1673ffffffffffffffffffffffffffffffffffffffff16815260200190815260200160002085604051610a7c919061186a565b908152602001604051809103902060006101000a8154816fffffffffffffffffffffffffffffffff02191690836fffffffffffffffffffffffffffffffff1602179055508473ffffffffffffffffffffffffffffffffffffffff167f96e76e471be932dcf10dfb1789068c3c023ca316d8eca3da1a0e8ab2f97799f6858584604051610b0a9392919061199c565b60405180910390a25050505050565b610b21610d92565b600181604051610b31919061186a565b908152602001604051809103902060009054906101000a900460ff1615610b8f57806040517f69fee1e6000000000000000000000000000000000000000000000000000000008152600401610b8691906118cb565b60405180910390fd5b60018082604051610ba0919061186a565b908152602001604051809103902060006101000a81548160ff0219169083151502179055507fa72133137aa3e3b5619506c1c0113005b6db9e05730aabc696a1686379a24c0481604051610bf491906118cb565b60405180910390a150565b610c0882610441565b610c1181610e41565b610c1b8383610f5e565b50505050565b60008060008473ffffffffffffffffffffffffffffffffffffffff1673ffffffffffffffffffffffffffffffffffffffff16815260200190815260200160002082604051610c6f919061186a565b908152602001604051809103902060009054906101000a90046fffffffffffffffffffffffffffffffff16905092915050565b610caa610d92565b600073ffffffffffffffffffffffffffffffffffffffff168173ffffffffffffffffffffffffffffffffffffffff1603610d1c5760006040517f1e4fbdf7000000000000000000000000000000000000000000000000000000008152600401610d139190611512565b60405180910390fd5b610d2581611060565b50565b60007f01ffc9a7000000000000000000000000000000000000000000000000000000007bffffffffffffffffffffffffffffffffffffffffffffffffffffffff1916827bffffffffffffffffffffffffffffffffffffffffffffffffffffffff1916149050919050565b610d9a610f56565b73ffffffffffffffffffffffffffffffffffffffff16610db86105ac565b73ffffffffffffffffffffffffffffffffffffffff1614610e1757610ddb610f56565b6040517f118cdaa7000000000000000000000000000000000000000000000000000000008152600401610e0e9190611512565b60405180910390fd5b565b60007f02dd7bc7dec4dceedda775e58dd541e08a116c6c53815c0bd028192f7b626800905090565b610e5281610e4d610f56565b6111a5565b50565b600080610e60610e19565b9050610e6c84846105e4565b610f4a57600181600001600086815260200190815260200160002060000160008573ffffffffffffffffffffffffffffffffffffffff1673ffffffffffffffffffffffffffffffffffffffff16815260200190815260200160002060006101000a81548160ff021916908315150217905550610ee6610f56565b73ffffffffffffffffffffffffffffffffffffffff168373ffffffffffffffffffffffffffffffffffffffff16857f2f8788117e7eff1d82e926ec794901d17c78024a50270940304540a733656f0d60405160405180910390a46001915050610f50565b60009150505b92915050565b600033905090565b600080610f69610e19565b9050610f7584846105e4565b1561105457600081600001600086815260200190815260200160002060000160008573ffffffffffffffffffffffffffffffffffffffff1673ffffffffffffffffffffffffffffffffffffffff16815260200190815260200160002060006101000a81548160ff021916908315150217905550610ff0610f56565b73ffffffffffffffffffffffffffffffffffffffff168373ffffffffffffffffffffffffffffffffffffffff16857ff6391f5c32d9c69d2a47ea670b442974b53935d1edc7fd64eb21e047a839171b60405160405180910390a4600191505061105a565b60009150505b92915050565b600061106a611137565b905060008160000160009054906101000a900473ffffffffffffffffffffffffffffffffffffffff169050828260000160006101000a81548173ffffffffffffffffffffffffffffffffffffffff021916908373ffffffffffffffffffffffffffffffffffffffff1602179055508273ffffffffffffffffffffffffffffffffffffffff168173ffffffffffffffffffffffffffffffffffffffff167f8be0079c531659141344cd1fd0a4f28419497f9722a3daafe3b4186f6b6457e060405160405180910390a3505050565b60007f9016d09d72d40fdae2fd8ceac6b6234c7706214fd39c1cd1e609a0528c199300905090565b60007ff0c57e16840df040f15088dc2f81fe391c3923bec73e23a9662efc9c229c6a00905090565b61118f6111f6565b61119881611236565b50565b6111a36111f6565b565b6111af82826105e4565b6111f25780826040517fe2517d3f0000000000000000000000000000000000000000000000000000000081526004016111e99291906119da565b60405180910390fd5b5050565b6111fe6112bc565b611234576040517fd7e6bcf800000000000000000000000000000000000000000000000000000000815260040160405180910390fd5b565b61123e6111f6565b600073ffffffffffffffffffffffffffffffffffffffff168173ffffffffffffffffffffffffffffffffffffffff16036112b05760006040517f1e4fbdf70000000000000000000000000000000000000000000000000000000081526004016112a79190611512565b60405180910390fd5b6112b981611060565b50565b60006112c661115f565b60000160089054906101000a900460ff16905090565b6000604051905090565b600080fd5b600080fd5b60007fffffffff0000000000000000000000000000000000000000000000000000000082169050919050565b611325816112f0565b811461133057600080fd5b50565b6000813590506113428161131c565b92915050565b60006020828403121561135e5761135d6112e6565b5b600061136c84828501611333565b91505092915050565b60008115159050919050565b61138a81611375565b82525050565b60006020820190506113a56000830184611381565b92915050565b600073ffffffffffffffffffffffffffffffffffffffff82169050919050565b60006113d6826113ab565b9050919050565b6113e6816113cb565b81146113f157600080fd5b50565b600081359050611403816113dd565b92915050565b60006020828403121561141f5761141e6112e6565b5b600061142d848285016113f4565b91505092915050565b6000819050919050565b61144981611436565b811461145457600080fd5b50565b60008135905061146681611440565b92915050565b600060208284031215611482576114816112e6565b5b600061149084828501611457565b91505092915050565b6114a281611436565b82525050565b60006020820190506114bd6000830184611499565b92915050565b600080604083850312156114da576114d96112e6565b5b60006114e885828601611457565b92505060206114f9858286016113f4565b9150509250929050565b61150c816113cb565b82525050565b60006020820190506115276000830184611503565b92915050565b600080fd5b600080fd5b6000601f19601f8301169050919050565b7f4e487b7100000000000000000000000000000000000000000000000000000000600052604160045260246000fd5b61158082611537565b810181811067ffffffffffffffff8211171561159f5761159e611548565b5b80604052505050565b60006115b26112dc565b90506115be8282611577565b919050565b600067ffffffffffffffff8211156115de576115dd611548565b5b6115e782611537565b9050602081019050919050565b82818337600083830152505050565b6000611616611611846115c3565b6115a8565b90508281526020810184848401111561163257611631611532565b5b61163d8482856115f4565b509392505050565b600082601f83011261165a5761165961152d565b5b813561166a848260208601611603565b91505092915050565b600060208284031215611689576116886112e6565b5b600082013567ffffffffffffffff8111156116a7576116a66112eb565b5b6116b384828501611645565b91505092915050565b60006fffffffffffffffffffffffffffffffff82169050919050565b6116e1816116bc565b81146116ec57600080fd5b50565b6000813590506116fe816116d8565b92915050565b60008060006060848603121561171d5761171c6112e6565b5b600061172b868287016113f4565b935050602084013567ffffffffffffffff81111561174c5761174b6112eb565b5b61175886828701611645565b9250506040611769868287016116ef565b9150509250925092565b6000806040838503121561178a576117896112e6565b5b6000611798858286016113f4565b925050602083013567ffffffffffffffff8111156117b9576117b86112eb565b5b6117c585828601611645565b9150509250929050565b6117d8816116bc565b82525050565b60006020820190506117f360008301846117cf565b92915050565b600081519050919050565b600081905092915050565b60005b8381101561182d578082015181840152602081019050611812565b60008484015250505050565b6000611844826117f9565b61184e8185611804565b935061185e81856020860161180f565b80840191505092915050565b60006118768284611839565b915081905092915050565b600082825260208201905092915050565b600061189d826117f9565b6118a78185611881565b93506118b781856020860161180f565b6118c081611537565b840191505092915050565b600060208201905081810360008301526118e58184611892565b905092915050565b6000819050919050565b600067ffffffffffffffff82169050919050565b6000819050919050565b600061193061192b611926846118ed565b61190b565b6118f7565b9050919050565b61194081611915565b82525050565b600060208201905061195b6000830184611937565b92915050565b6000819050919050565b600061198661198161197c846116bc565b61190b565b611961565b9050919050565b6119968161196b565b82525050565b600060608201905081810360008301526119b68186611892565b90506119c5602083018561198d565b6119d2604083018461198d565b949350505050565b60006040820190506119ef6000830185611503565b6119fc6020830184611499565b939250505056fea2646970667358221220d706bf0ab5c63b44a2bfb583ae8961e37b309bfd2add612aa1e72c219cd4a53c64736f6c634300081c0033",
			"opcodes": "PUSH1 0x80 PUSH1 0x40 MSTORE CALLVALUE DUP1 ISZERO PUSH1 0xF JUMPI PUSH1 0x0 DUP1 REVERT JUMPDEST POP PUSH2 0x1A39 DUP1 PUSH2 0x1F PUSH1 0x0 CODECOPY PUSH1 0x0 RETURN INVALID PUSH1 0x80 PUSH1 0x40 MSTORE CALLVALUE DUP1 ISZERO PUSH2 0x10 JUMPI PUSH1 0x0 DUP1 REVERT JUMPDEST POP PUSH1 0x4 CALLDATASIZE LT PUSH2 0x121 JUMPI PUSH1 0x0 CALLDATALOAD PUSH1 0xE0 SHR DUP1 PUSH4 0x8DA5CB5B GT PUSH2 0xAD JUMPI DUP1 PUSH4 0xC87A774B GT PUSH2 0x71 JUMPI DUP1 PUSH4 0xC87A774B EQ PUSH2 0x2F2 JUMPI DUP1 PUSH4 0xC9A4909C EQ PUSH2 0x30E JUMPI DUP1 PUSH4 0xD547741F EQ PUSH2 0x32A JUMPI DUP1 PUSH4 0xDB4F1024 EQ PUSH2 0x346 JUMPI DUP1 PUSH4 0xF2FDE38B EQ PUSH2 0x376 JUMPI PUSH2 0x121 JUMP JUMPDEST DUP1 PUSH4 0x8DA5CB5B EQ PUSH2 0x24E JUMPI DUP1 PUSH4 0x91D14854 EQ PUSH2 0x26C JUMPI DUP1 PUSH4 0xA217FDDF EQ PUSH2 0x29C JUMPI DUP1 PUSH4 0xA34F0E28 EQ PUSH2 0x2BA JUMPI DUP1 PUSH4 0xC4D66DE8 EQ PUSH2 0x2D6 JUMPI PUSH2 0x121 JUMP JUMPDEST DUP1 PUSH4 0x2F2FF15D GT PUSH2 0xF4 JUMPI DUP1 PUSH4 0x2F2FF15D EQ PUSH2 0x1D2 JUMPI DUP1 PUSH4 0x36568ABE EQ PUSH2 0x1EE JUMPI DUP1 PUSH4 0x70480275 EQ PUSH2 0x20A JUMPI DUP1 PUSH4 0x715018A6 EQ PUSH2 0x226 JUMPI DUP1 PUSH4 0x75B238FC EQ PUSH2 0x230 JUMPI PUSH2 0x121 JUMP JUMPDEST DUP1 PUSH4 0x1FFC9A7 EQ PUSH2 0x126 JUMPI DUP1 PUSH4 0x1785F53C EQ PUSH2 0x156 JUMPI DUP1 PUSH4 0x248A9CA3 EQ PUSH2 0x172 JUMPI DUP1 PUSH4 0x24D7806C EQ PUSH2 0x1A2 JUMPI JUMPDEST PUSH1 0x0 DUP1 REVERT JUMPDEST PUSH2 0x140 PUSH1 0x4 DUP1 CALLDATASIZE SUB DUP2 ADD SWAP1 PUSH2 0x13B SWAP2 SWAP1 PUSH2 0x1348 JUMP JUMPDEST PUSH2 0x392 JUMP JUMPDEST PUSH1 0x40 MLOAD PUSH2 0x14D SWAP2 SWAP1 PUSH2 0x1390 JUMP JUMPDEST PUSH1 0x40 MLOAD DUP1 SWAP2 SUB SWAP1 RETURN JUMPDEST PUSH2 0x170 PUSH1 0x4 DUP1 CALLDATASIZE SUB DUP2 ADD SWAP1 PUSH2 0x16B SWAP2 SWAP1 PUSH2 0x1409 JUMP JUMPDEST PUSH2 0x40C JUMP JUMPDEST STOP JUMPDEST PUSH2 0x18C PUSH1 0x4 DUP1 CALLDATASIZE SUB DUP2 ADD SWAP1 PUSH2 0x187 SWAP2 SWAP1 PUSH2 0x146C JUMP JUMPDEST PUSH2 0x441 JUMP JUMPDEST PUSH1 0x40 MLOAD PUSH2 0x199 SWAP2 SWAP1 PUSH2 0x14A8 JUMP JUMPDEST PUSH1 0x40 MLOAD DUP1 SWAP2 SUB SWAP1 RETURN JUMPDEST PUSH2 0x1BC PUSH1 0x4 DUP1 CALLDATASIZE SUB DUP2 ADD SWAP1 PUSH2 0x1B7 SWAP2 SWAP1 PUSH2 0x1409 JUMP JUMPDEST PUSH2 0x46F JUMP JUMPDEST PUSH1 0x40 MLOAD PUSH2 0x1C9 SWAP2 SWAP1 PUSH2 0x1390 JUMP JUMPDEST PUSH1 0x40 MLOAD DUP1 SWAP2 SUB SWAP1 RETURN JUMPDEST PUSH2 0x1EC PUSH1 0x4 DUP1 CALLDATASIZE SUB DUP2 ADD SWAP1 PUSH2 0x1E7 SWAP2 SWAP1 PUSH2 0x14C3 JUMP JUMPDEST PUSH2 0x4A2 JUMP JUMPDEST STOP JUMPDEST PUSH2 0x208 PUSH1 0x4 DUP1 CALLDATASIZE SUB DUP2 ADD SWAP1 PUSH2 0x203 SWAP2 SWAP1 PUSH2 0x14C3 JUMP JUMPDEST PUSH2 0x4C4 JUMP JUMPDEST STOP JUMPDEST PUSH2 0x224 PUSH1 0x4 DUP1 CALLDATASIZE SUB DUP2 ADD SWAP1 PUSH2 0x21F SWAP2 SWAP1 PUSH2 0x1409 JUMP JUMPDEST PUSH2 0x53F JUMP JUMPDEST STOP JUMPDEST PUSH2 0x22E PUSH2 0x574 JUMP JUMPDEST STOP JUMPDEST PUSH2 0x238 PUSH2 0x588 JUMP JUMPDEST PUSH1 0x40 MLOAD PUSH2 0x245 SWAP2 SWAP1 PUSH2 0x14A8 JUMP JUMPDEST PUSH1 0x40 MLOAD DUP1 SWAP2 SUB SWAP1 RETURN JUMPDEST PUSH2 0x256 PUSH2 0x5AC JUMP JUMPDEST PUSH1 0x40 MLOAD PUSH2 0x263 SWAP2 SWAP1 PUSH2 0x1512 JUMP JUMPDEST PUSH1 0x40 MLOAD DUP1 SWAP2 SUB SWAP1 RETURN JUMPDEST PUSH2 0x286 PUSH1 0x4 DUP1 CALLDATASIZE SUB DUP2 ADD SWAP1 PUSH2 0x281 SWAP2 SWAP1 PUSH2 0x14C3 JUMP JUMPDEST PUSH2 0x5E4 JUMP JUMPDEST PUSH1 0x40 MLOAD PUSH2 0x293 SWAP2 SWAP1 PUSH2 0x1390 JUMP JUMPDEST PUSH1 0x40 MLOAD DUP1 SWAP2 SUB SWAP1 RETURN JUMPDEST PUSH2 0x2A4 PUSH2 0x65D JUMP JUMPDEST PUSH1 0x40 MLOAD PUSH2 0x2B1 SWAP2 SWAP1 PUSH2 0x14A8 JUMP JUMPDEST PUSH1 0x40 MLOAD DUP1 SWAP2 SUB SWAP1 RETURN JUMPDEST PUSH2 0x2D4 PUSH1 0x4 DUP1 CALLDATASIZE SUB DUP2 ADD SWAP1 PUSH2 0x2CF SWAP2 SWAP1 PUSH2 0x1673 JUMP JUMPDEST PUSH2 0x664 JUMP JUMPDEST STOP JUMPDEST PUSH2 0x2F0 PUSH1 0x4 DUP1 CALLDATASIZE SUB DUP2 ADD SWAP1 PUSH2 0x2EB SWAP2 SWAP1 PUSH2 0x1409 JUMP JUMPDEST PUSH2 0x74D JUMP JUMPDEST STOP JUMPDEST PUSH2 0x30C PUSH1 0x4 DUP1 CALLDATASIZE SUB DUP2 ADD SWAP1 PUSH2 0x307 SWAP2 SWAP1 PUSH2 0x1704 JUMP JUMPDEST PUSH2 0x91D JUMP JUMPDEST STOP JUMPDEST PUSH2 0x328 PUSH1 0x4 DUP1 CALLDATASIZE SUB DUP2 ADD SWAP1 PUSH2 0x323 SWAP2 SWAP1 PUSH2 0x1673 JUMP JUMPDEST PUSH2 0xB19 JUMP JUMPDEST STOP JUMPDEST PUSH2 0x344 PUSH1 0x4 DUP1 CALLDATASIZE SUB DUP2 ADD SWAP1 PUSH2 0x33F SWAP2 SWAP1 PUSH2 0x14C3 JUMP JUMPDEST PUSH2 0xBFF JUMP JUMPDEST STOP JUMPDEST PUSH2 0x360 PUSH1 0x4 DUP1 CALLDATASIZE SUB DUP2 ADD SWAP1 PUSH2 0x35B SWAP2 SWAP1 PUSH2 0x1773 JUMP JUMPDEST PUSH2 0xC21 JUMP JUMPDEST PUSH1 0x40 MLOAD PUSH2 0x36D SWAP2 SWAP1 PUSH2 0x17DE JUMP JUMPDEST PUSH1 0x40 MLOAD DUP1 SWAP2 SUB SWAP1 RETURN JUMPDEST PUSH2 0x390 PUSH1 0x4 DUP1 CALLDATASIZE SUB DUP2 ADD SWAP1 PUSH2 0x38B SWAP2 SWAP1 PUSH2 0x1409 JUMP JUMPDEST PUSH2 0xCA2 JUMP JUMPDEST STOP JUMPDEST PUSH1 0x0 PUSH32 0x7965DB0B00000000000000000000000000000000000000000000000000000000 PUSH28 0xFFFFFFFFFFFFFFFFFFFFFFFFFFFFFFFFFFFFFFFFFFFFFFFFFFFFFFFF NOT AND DUP3 PUSH28 0xFFFFFFFFFFFFFFFFFFFFFFFFFFFFFFFFFFFFFFFFFFFFFFFFFFFFFFFF NOT AND EQ DUP1 PUSH2 0x405 JUMPI POP PUSH2 0x404 DUP3 PUSH2 0xD28 JUMP JUMPDEST JUMPDEST SWAP1 POP SWAP2 SWAP1 POP JUMP JUMPDEST PUSH2 0x414 PUSH2 0xD92 JUMP JUMPDEST PUSH2 0x43E PUSH32 0xA49807205CE4D355092EF5A8A18F56E8913CF4A201FBE287825B095693C21775 DUP3 PUSH2 0xBFF JUMP JUMPDEST POP JUMP JUMPDEST PUSH1 0x0 DUP1 PUSH2 0x44C PUSH2 0xE19 JUMP JUMPDEST SWAP1 POP DUP1 PUSH1 0x0 ADD PUSH1 0x0 DUP5 DUP2 MSTORE PUSH1 0x20 ADD SWAP1 DUP2 MSTORE PUSH1 0x20 ADD PUSH1 0x0 KECCAK256 PUSH1 0x1 ADD SLOAD SWAP2 POP POP SWAP2 SWAP1 POP JUMP JUMPDEST PUSH1 0x0 PUSH2 0x49B PUSH32 0xA49807205CE4D355092EF5A8A18F56E8913CF4A201FBE287825B095693C21775 DUP4 PUSH2 0x5E4 JUMP JUMPDEST SWAP1 POP SWAP2 SWAP1 POP JUMP JUMPDEST PUSH2 0x4AB DUP3 PUSH2 0x441 JUMP JUMPDEST PUSH2 0x4B4 DUP2 PUSH2 0xE41 JUMP JUMPDEST PUSH2 0x4BE DUP4 DUP4 PUSH2 0xE55 JUMP JUMPDEST POP POP POP POP JUMP JUMPDEST PUSH2 0x4CC PUSH2 0xF56 JUMP JUMPDEST PUSH20 0xFFFFFFFFFFFFFFFFFFFFFFFFFFFFFFFFFFFFFFFF AND DUP2 PUSH20 0xFFFFFFFFFFFFFFFFFFFFFFFFFFFFFFFFFFFFFFFF AND EQ PUSH2 0x530 JUMPI PUSH1 0x40 MLOAD PUSH32 0x6697B23200000000000000000000000000000000000000000000000000000000 DUP2 MSTORE PUSH1 0x4 ADD PUSH1 0x40 MLOAD DUP1 SWAP2 SUB SWAP1 REVERT JUMPDEST PUSH2 0x53A DUP3 DUP3 PUSH2 0xF5E JUMP JUMPDEST POP POP POP JUMP JUMPDEST PUSH2 0x547 PUSH2 0xD92 JUMP JUMPDEST PUSH2 0x571 PUSH32 0xA49807205CE4D355092EF5A8A18F56E8913CF4A201FBE287825B095693C21775 DUP3 PUSH2 0x4A2 JUMP JUMPDEST POP JUMP JUMPDEST PUSH2 0x57C PUSH2 0xD92 JUMP JUMPDEST PUSH2 0x586 PUSH1 0x0 PUSH2 0x1060 JUMP JUMPDEST JUMP JUMPDEST PUSH32 0xA49807205CE4D355092EF5A8A18F56E8913CF4A201FBE287825B095693C21775 DUP2 JUMP JUMPDEST PUSH1 0x0 DUP1 PUSH2 0x5B7 PUSH2 0x1137 JUMP JUMPDEST SWAP1 POP DUP1 PUSH1 0x0 ADD PUSH1 0x0 SWAP1 SLOAD SWAP1 PUSH2 0x100 EXP SWAP1 DIV PUSH20 0xFFFFFFFFFFFFFFFFFFFFFFFFFFFFFFFFFFFFFFFF AND SWAP2 POP POP SWAP1 JUMP JUMPDEST PUSH1 0x0 DUP1 PUSH2 0x5EF PUSH2 0xE19 JUMP JUMPDEST SWAP1 POP DUP1 PUSH1 0x0 ADD PUSH1 0x0 DUP6 DUP2 MSTORE PUSH1 0x20 ADD SWAP1 DUP2 MSTORE PUSH1 0x20 ADD PUSH1 0x0 KECCAK256 PUSH1 0x0 ADD PUSH1 0x0 DUP5 PUSH20 0xFFFFFFFFFFFFFFFFFFFFFFFFFFFFFFFFFFFFFFFF AND PUSH20 0xFFFFFFFFFFFFFFFFFFFFFFFFFFFFFFFFFFFFFFFF AND DUP2 MSTORE PUSH1 0x20 ADD SWAP1 DUP2 MSTORE PUSH1 0x20 ADD PUSH1 0x0 KECCAK256 PUSH1 0x0 SWAP1 SLOAD SWAP1 PUSH2 0x100 EXP SWAP1 DIV PUSH1 0xFF AND SWAP2 POP POP SWAP3 SWAP2 POP POP JUMP JUMPDEST PUSH1 0x0 DUP1 SHL DUP2 JUMP JUMPDEST PUSH2 0x66C PUSH2 0xD92 JUMP JUMPDEST PUSH1 0x1 DUP2 PUSH1 0x40 MLOAD PUSH2 0x67C SWAP2 SWAP1 PUSH2 0x186A JUMP JUMPDEST SWAP1 DUP2 MSTORE PUSH1 0x20 ADD PUSH1 0x40 MLOAD DUP1 SWAP2 SUB SWAP1 KECCAK256 PUSH1 0x0 SWAP1 SLOAD SWAP1 PUSH2 0x100 EXP SWAP1 DIV PUSH1 0xFF AND PUSH2 0x6D9 JUMPI DUP1 PUSH1 0x40 MLOAD PUSH32 0x7BECAD5200000000000000000000000000000000000000000000000000000000 DUP2 MSTORE PUSH1 0x4 ADD PUSH2 0x6D0 SWAP2 SWAP1 PUSH2 0x18CB JUMP JUMPDEST PUSH1 0x40 MLOAD DUP1 SWAP2 SUB SWAP1 REVERT JUMPDEST PUSH1 0x0 PUSH1 0x1 DUP3 PUSH1 0x40 MLOAD PUSH2 0x6EB SWAP2 SWAP1 PUSH2 0x186A JUMP JUMPDEST SWAP1 DUP2 MSTORE PUSH1 0x20 ADD PUSH1 0x40 MLOAD DUP1 SWAP2 SUB SWAP1 KECCAK256 PUSH1 0x0 PUSH2 0x100 EXP DUP2 SLOAD DUP2 PUSH1 0xFF MUL NOT AND SWAP1 DUP4 ISZERO ISZERO MUL OR SWAP1 SSTORE POP DUP1 PUSH1 0x40 MLOAD PUSH32 0x7BECAD5200000000000000000000000000000000000000000000000000000000 DUP2 MSTORE PUSH1 0x4 ADD PUSH2 0x744 SWAP2 SWAP1 PUSH2 0x18CB JUMP JUMPDEST PUSH1 0x40 MLOAD DUP1 SWAP2 SUB SWAP1 REVERT JUMPDEST PUSH1 0x0 PUSH2 0x757 PUSH2 0x115F JUMP JUMPDEST SWAP1 POP PUSH1 0x0 DUP2 PUSH1 0x0 ADD PUSH1 0x8 SWAP1 SLOAD SWAP1 PUSH2 0x100 EXP SWAP1 DIV PUSH1 0xFF AND ISZERO SWAP1 POP PUSH1 0x0 DUP3 PUSH1 0x0 ADD PUSH1 0x0 SWAP1 SLOAD SWAP1 PUSH2 0x100 EXP SWAP1 DIV PUSH8 0xFFFFFFFFFFFFFFFF AND SWAP1 POP PUSH1 0x0 DUP1 DUP3 PUSH8 0xFFFFFFFFFFFFFFFF AND EQ DUP1 ISZERO PUSH2 0x7A5 JUMPI POP DUP3 JUMPDEST SWAP1 POP PUSH1 0x0 PUSH1 0x1 DUP4 PUSH8 0xFFFFFFFFFFFFFFFF AND EQ DUP1 ISZERO PUSH2 0x7DA JUMPI POP PUSH1 0x0 ADDRESS PUSH20 0xFFFFFFFFFFFFFFFFFFFFFFFFFFFFFFFFFFFFFFFF AND EXTCODESIZE EQ JUMPDEST SWAP1 POP DUP2 ISZERO DUP1 ISZERO PUSH2 0x7E8 JUMPI POP DUP1 ISZERO JUMPDEST ISZERO PUSH2 0x81F JUMPI PUSH1 0x40 MLOAD PUSH32 0xF92EE8A900000000000000000000000000000000000000000000000000000000 DUP2 MSTORE PUSH1 0x4 ADD PUSH1 0x40 MLOAD DUP1 SWAP2 SUB SWAP1 REVERT JUMPDEST PUSH1 0x1 DUP6 PUSH1 0x0 ADD PUSH1 0x0 PUSH2 0x100 EXP DUP2 SLOAD DUP2 PUSH8 0xFFFFFFFFFFFFFFFF MUL NOT AND SWAP1 DUP4 PUSH8 0xFFFFFFFFFFFFFFFF AND MUL OR SWAP1 SSTORE POP DUP4 ISZERO PUSH2 0x86F JUMPI PUSH1 0x1 DUP6 PUSH1 0x0 ADD PUSH1 0x8 PUSH2 0x100 EXP DUP2 SLOAD DUP2 PUSH1 0xFF MUL NOT AND SWAP1 DUP4 ISZERO ISZERO MUL OR SWAP1 SSTORE POP JUMPDEST PUSH2 0x878 DUP7 PUSH2 0x1187 JUMP JUMPDEST PUSH2 0x880 PUSH2 0x119B JUMP JUMPDEST PUSH2 0x88D PUSH1 0x0 DUP1 SHL DUP8 PUSH2 0xE55 JUMP JUMPDEST POP PUSH2 0x8B8 PUSH32 0xA49807205CE4D355092EF5A8A18F56E8913CF4A201FBE287825B095693C21775 DUP8 PUSH2 0xE55 JUMP JUMPDEST POP DUP4 ISZERO PUSH2 0x915 JUMPI PUSH1 0x0 DUP6 PUSH1 0x0 ADD PUSH1 0x8 PUSH2 0x100 EXP DUP2 SLOAD DUP2 PUSH1 0xFF MUL NOT AND SWAP1 DUP4 ISZERO ISZERO MUL OR SWAP1 SSTORE POP PUSH32 0xC7F505B2F371AE2175EE4913F4499E1F2633A7B5936321EED1CDAEB6115181D2 PUSH1 0x1 PUSH1 0x40 MLOAD PUSH2 0x90C SWAP2 SWAP1 PUSH2 0x1946 JUMP JUMPDEST PUSH1 0x40 MLOAD DUP1 SWAP2 SUB SWAP1 LOG1 JUMPDEST POP POP POP POP POP POP JUMP JUMPDEST PUSH32 0xA49807205CE4D355092EF5A8A18F56E8913CF4A201FBE287825B095693C21775 PUSH2 0x947 DUP2 PUSH2 0xE41 JUMP JUMPDEST PUSH1 0x1 DUP4 PUSH1 0x40 MLOAD PUSH2 0x957 SWAP2 SWAP1 PUSH2 0x186A JUMP JUMPDEST SWAP1 DUP2 MSTORE PUSH1 0x20 ADD PUSH1 0x40 MLOAD DUP1 SWAP2 SUB SWAP1 KECCAK256 PUSH1 0x0 SWAP1 SLOAD SWAP1 PUSH2 0x100 EXP SWAP1 DIV PUSH1 0xFF AND PUSH2 0x9B4 JUMPI DUP3 PUSH1 0x40 MLOAD PUSH32 0x7BECAD5200000000000000000000000000000000000000000000000000000000 DUP2 MSTORE PUSH1 0x4 ADD PUSH2 0x9AB SWAP2 SWAP1 PUSH2 0x18CB JUMP JUMPDEST PUSH1 0x40 MLOAD DUP1 SWAP2 SUB SWAP1 REVERT JUMPDEST PUSH1 0x0 DUP1 PUSH1 0x0 DUP7 PUSH20 0xFFFFFFFFFFFFFFFFFFFFFFFFFFFFFFFFFFFFFFFF AND PUSH20 0xFFFFFFFFFFFFFFFFFFFFFFFFFFFFFFFFFFFFFFFF AND DUP2 MSTORE PUSH1 0x20 ADD SWAP1 DUP2 MSTORE PUSH1 0x20 ADD PUSH1 0x0 KECCAK256 DUP5 PUSH1 0x40 MLOAD PUSH2 0xA02 SWAP2 SWAP1 PUSH2 0x186A JUMP JUMPDEST SWAP1 DUP2 MSTORE PUSH1 0x20 ADD PUSH1 0x40 MLOAD DUP1 SWAP2 SUB SWAP1 KECCAK256 PUSH1 0x0 SWAP1 SLOAD SWAP1 PUSH2 0x100 EXP SWAP1 DIV PUSH16 0xFFFFFFFFFFFFFFFFFFFFFFFFFFFFFFFF AND SWAP1 POP DUP3 PUSH1 0x0 DUP1 DUP8 PUSH20 0xFFFFFFFFFFFFFFFFFFFFFFFFFFFFFFFFFFFFFFFF AND PUSH20 0xFFFFFFFFFFFFFFFFFFFFFFFFFFFFFFFFFFFFFFFF AND DUP2 MSTORE PUSH1 0x20 ADD SWAP1 DUP2 MSTORE PUSH1 0x20 ADD PUSH1 0x0 KECCAK256 DUP6 PUSH1 0x40 MLOAD PUSH2 0xA7C SWAP2 SWAP1 PUSH2 0x186A JUMP JUMPDEST SWAP1 DUP2 MSTORE PUSH1 0x20 ADD PUSH1 0x40 MLOAD DUP1 SWAP2 SUB SWAP1 KECCAK256 PUSH1 0x0 PUSH2 0x100 EXP DUP2 SLOAD DUP2 PUSH16 0xFFFFFFFFFFFFFFFFFFFFFFFFFFFFFFFF MUL NOT AND SWAP1 DUP4 PUSH16 0xFFFFFFFFFFFFFFFFFFFFFFFFFFFFFFFF AND MUL OR SWAP1 SSTORE POP DUP5 PUSH20 0xFFFFFFFFFFFFFFFFFFFFFFFFFFFFFFFFFFFFFFFF AND PUSH32 0x96E76E471BE932DCF10DFB1789068C3C023CA316D8ECA3DA1A0E8AB2F97799F6 DUP6 DUP6 DUP5 PUSH1 0x40 MLOAD PUSH2 0xB0A SWAP4 SWAP3 SWAP2 SWAP1 PUSH2 0x199C JUMP JUMPDEST PUSH1 0x40 MLOAD DUP1 SWAP2 SUB SWAP1 LOG2 POP POP POP POP POP JUMP JUMPDEST PUSH2 0xB21 PUSH2 0xD92 JUMP JUMPDEST PUSH1 0x1 DUP2 PUSH1 0x40 MLOAD PUSH2 0xB31 SWAP2 SWAP1 PUSH2 0x186A JUMP JUMPDEST SWAP1 DUP2 MSTORE PUSH1 0x20 ADD PUSH1 0x40 MLOAD DUP1 SWAP2 SUB SWAP1 KECCAK256 PUSH1 0x0 SWAP1 SLOAD SWAP1 PUSH2 0x100 EXP SWAP1 DIV PUSH1 0xFF AND ISZERO PUSH2 0xB8F JUMPI DUP1 PUSH1 0x40 MLOAD PUSH32 0x69FEE1E600000000000000000000000000000000000000000000000000000000 DUP2 MSTORE PUSH1 0x4 ADD PUSH2 0xB86 SWAP2 SWAP1 PUSH2 0x18CB JUMP JUMPDEST PUSH1 0x40 MLOAD DUP1 SWAP2 SUB SWAP1 REVERT JUMPDEST PUSH1 0x1 DUP1 DUP3 PUSH1 0x40 MLOAD PUSH2 0xBA0 SWAP2 SWAP1 PUSH2 0x186A JUMP JUMPDEST SWAP1 DUP2 MSTORE PUSH1 0x20 ADD PUSH1 0x40 MLOAD DUP1 SWAP2 SUB SWAP1 KECCAK256 PUSH1 0x0 PUSH2 0x100 EXP DUP2 SLOAD DUP2 PUSH1 0xFF MUL NOT AND SWAP1 DUP4 ISZERO ISZERO MUL OR SWAP1 SSTORE POP PUSH32 0xA72133137AA3E3B5619506C1C0113005B6DB9E05730AABC696A1686379A24C04 DUP2 PUSH1 0x40 MLOAD PUSH2 0xBF4 SWAP2 SWAP1 PUSH2 0x18CB JUMP JUMPDEST PUSH1 0x40 MLOAD DUP1 SWAP2 SUB SWAP1 LOG1 POP JUMP JUMPDEST PUSH2 0xC08 DUP3 PUSH2 0x441 JUMP JUMPDEST PUSH2 0xC11 DUP2 PUSH2 0xE41 JUMP JUMPDEST PUSH2 0xC1B DUP4 DUP4 PUSH2 0xF5E JUMP JUMPDEST POP POP POP POP JUMP JUMPDEST PUSH1 0x0 DUP1 PUSH1 0x0 DUP5 PUSH20 0xFFFFFFFFFFFFFFFFFFFFFFFFFFFFFFFFFFFFFFFF AND PUSH20 0xFFFFFFFFFFFFFFFFFFFFFFFFFFFFFFFFFFFFFFFF AND DUP2 MSTORE PUSH1 0x20 ADD SWAP1 DUP2 MSTORE PUSH1 0x20 ADD PUSH1 0x0 KECCAK256 DUP3 PUSH1 0x40 MLOAD PUSH2 0xC6F SWAP2 SWAP1 PUSH2 0x186A JUMP JUMPDEST SWAP1 DUP2 MSTORE PUSH1 0x20 ADD PUSH1 0x40 MLOAD DUP1 SWAP2 SUB SWAP1 KECCAK256 PUSH1 0x0 SWAP1 SLOAD SWAP1 PUSH2 0x100 EXP SWAP1 DIV PUSH16 0xFFFFFFFFFFFFFFFFFFFFFFFFFFFFFFFF AND SWAP1 POP SWAP3 SWAP2 POP POP JUMP JUMPDEST PUSH2 0xCAA PUSH2 0xD92 JUMP JUMPDEST PUSH1 0x0 PUSH20 0xFFFFFFFFFFFFFFFFFFFFFFFFFFFFFFFFFFFFFFFF AND DUP2 PUSH20 0xFFFFFFFFFFFFFFFFFFFFFFFFFFFFFFFFFFFFFFFF AND SUB PUSH2 0xD1C JUMPI PUSH1 0x0 PUSH1 0x40 MLOAD PUSH32 0x1E4FBDF700000000000000000000000000000000000000000000000000000000 DUP2 MSTORE PUSH1 0x4 ADD PUSH2 0xD13 SWAP2 SWAP1 PUSH2 0x1512 JUMP JUMPDEST PUSH1 0x40 MLOAD DUP1 SWAP2 SUB SWAP1 REVERT JUMPDEST PUSH2 0xD25 DUP2 PUSH2 0x1060 JUMP JUMPDEST POP JUMP JUMPDEST PUSH1 0x0 PUSH32 0x1FFC9A700000000000000000000000000000000000000000000000000000000 PUSH28 0xFFFFFFFFFFFFFFFFFFFFFFFFFFFFFFFFFFFFFFFFFFFFFFFFFFFFFFFF NOT AND DUP3 PUSH28 0xFFFFFFFFFFFFFFFFFFFFFFFFFFFFFFFFFFFFFFFFFFFFFFFFFFFFFFFF NOT AND EQ SWAP1 POP SWAP2 SWAP1 POP JUMP JUMPDEST PUSH2 0xD9A PUSH2 0xF56 JUMP JUMPDEST PUSH20 0xFFFFFFFFFFFFFFFFFFFFFFFFFFFFFFFFFFFFFFFF AND PUSH2 0xDB8 PUSH2 0x5AC JUMP JUMPDEST PUSH20 0xFFFFFFFFFFFFFFFFFFFFFFFFFFFFFFFFFFFFFFFF AND EQ PUSH2 0xE17 JUMPI PUSH2 0xDDB PUSH2 0xF56 JUMP JUMPDEST PUSH1 0x40 MLOAD PUSH32 0x118CDAA700000000000000000000000000000000000000000000000000000000 DUP2 MSTORE PUSH1 0x4 ADD PUSH2 0xE0E SWAP2 SWAP1 PUSH2 0x1512 JUMP JUMPDEST PUSH1 0x40 MLOAD DUP1 SWAP2 SUB SWAP1 REVERT JUMPDEST JUMP JUMPDEST PUSH1 0x0 PUSH32 0x2DD7BC7DEC4DCEEDDA775E58DD541E08A116C6C53815C0BD028192F7B626800 SWAP1 POP SWAP1 JUMP JUMPDEST PUSH2 0xE52 DUP2 PUSH2 0xE4D PUSH2 0xF56 JUMP JUMPDEST PUSH2 0x11A5 JUMP JUMPDEST POP JUMP JUMPDEST PUSH1 0x0 DUP1 PUSH2 0xE60 PUSH2 0xE19 JUMP JUMPDEST SWAP1 POP PUSH2 0xE6C DUP5 DUP5 PUSH2 0x5E4 JUMP JUMPDEST PUSH2 0xF4A JUMPI PUSH1 0x1 DUP2 PUSH1 0x0 ADD PUSH1 0x0 DUP7 DUP2 MSTORE PUSH1 0x20 ADD SWAP1 DUP2 MSTORE PUSH1 0x20 ADD PUSH1 0x0 KECCAK256 PUSH1 0x0 ADD PUSH1 0x0 DUP6 PUSH20 0xFFFFFFFFFFFFFFFFFFFFFFFFFFFFFFFFFFFFFFFF AND PUSH20 0xFFFFFFFFFFFFFFFFFFFFFFFFFFFFFFFFFFFFFFFF AND DUP2 MSTORE PUSH1 0x20 ADD SWAP1 DUP2 MSTORE PUSH1 0x20 ADD PUSH1 0x0 KECCAK256 PUSH1 0x0 PUSH2 0x100 EXP DUP2 SLOAD DUP2 PUSH1 0xFF MUL NOT AND SWAP1 DUP4 ISZERO ISZERO MUL OR SWAP1 SSTORE POP PUSH2 0xEE6 PUSH2 0xF56 JUMP JUMPDEST PUSH20 0xFFFFFFFFFFFFFFFFFFFFFFFFFFFFFFFFFFFFFFFF AND DUP4 PUSH20 0xFFFFFFFFFFFFFFFFFFFFFFFFFFFFFFFFFFFFFFFF AND DUP6 PUSH32 0x2F8788117E7EFF1D82E926EC794901D17C78024A50270940304540A733656F0D PUSH1 0x40 MLOAD PUSH1 0x40 MLOAD DUP1 SWAP2 SUB SWAP1 LOG4 PUSH1 0x1 SWAP2 POP POP PUSH2 0xF50 JUMP JUMPDEST PUSH1 0x0 SWAP2 POP POP JUMPDEST SWAP3 SWAP2 POP POP JUMP JUMPDEST PUSH1 0x0 CALLER SWAP1 POP SWAP1 JUMP JUMPDEST PUSH1 0x0 DUP1 PUSH2 0xF69 PUSH2 0xE19 JUMP JUMPDEST SWAP1 POP PUSH2 0xF75 DUP5 DUP5 PUSH2 0x5E4 JUMP JUMPDEST ISZERO PUSH2 0x1054 JUMPI PUSH1 0x0 DUP2 PUSH1 0x0 ADD PUSH1 0x0 DUP7 DUP2 MSTORE PUSH1 0x20 ADD SWAP1 DUP2 MSTORE PUSH1 0x20 ADD PUSH1 0x0 KECCAK256 PUSH1 0x0 ADD PUSH1 0x0 DUP6 PUSH20 0xFFFFFFFFFFFFFFFFFFFFFFFFFFFFFFFFFFFFFFFF AND PUSH20 0xFFFFFFFFFFFFFFFFFFFFFFFFFFFFFFFFFFFFFFFF AND DUP2 MSTORE PUSH1 0x20 ADD SWAP1 DUP2 MSTORE PUSH1 0x20 ADD PUSH1 0x0 KECCAK256 PUSH1 0x0 PUSH2 0x100 EXP DUP2 SLOAD DUP2 PUSH1 0xFF MUL NOT AND SWAP1 DUP4 ISZERO ISZERO MUL OR SWAP1 SSTORE POP PUSH2 0xFF0 PUSH2 0xF56 JUMP JUMPDEST PUSH20 0xFFFFFFFFFFFFFFFFFFFFFFFFFFFFFFFFFFFFFFFF AND DUP4 PUSH20 0xFFFFFFFFFFFFFFFFFFFFFFFFFFFFFFFFFFFFFFFF AND DUP6 PUSH32 0xF6391F5C32D9C69D2A47EA670B442974B53935D1EDC7FD64EB21E047A839171B PUSH1 0x40 MLOAD PUSH1 0x40 MLOAD DUP1 SWAP2 SUB SWAP1 LOG4 PUSH1 0x1 SWAP2 POP POP PUSH2 0x105A JUMP JUMPDEST PUSH1 0x0 SWAP2 POP POP JUMPDEST SWAP3 SWAP2 POP POP JUMP JUMPDEST PUSH1 0x0 PUSH2 0x106A PUSH2 0x1137 JUMP JUMPDEST SWAP1 POP PUSH1 0x0 DUP2 PUSH1 0x0 ADD PUSH1 0x0 SWAP1 SLOAD SWAP1 PUSH2 0x100 EXP SWAP1 DIV PUSH20 0xFFFFFFFFFFFFFFFFFFFFFFFFFFFFFFFFFFFFFFFF AND SWAP1 POP DUP3 DUP3 PUSH1 0x0 ADD PUSH1 0x0 PUSH2 0x100 EXP DUP2 SLOAD DUP2 PUSH20 0xFFFFFFFFFFFFFFFFFFFFFFFFFFFFFFFFFFFFFFFF MUL NOT AND SWAP1 DUP4 PUSH20 0xFFFFFFFFFFFFFFFFFFFFFFFFFFFFFFFFFFFFFFFF AND MUL OR SWAP1 SSTORE POP DUP3 PUSH20 0xFFFFFFFFFFFFFFFFFFFFFFFFFFFFFFFFFFFFFFFF AND DUP2 PUSH20 0xFFFFFFFFFFFFFFFFFFFFFFFFFFFFFFFFFFFFFFFF AND PUSH32 0x8BE0079C531659141344CD1FD0A4F28419497F9722A3DAAFE3B4186F6B6457E0 PUSH1 0x40 MLOAD PUSH1 0x40 MLOAD DUP1 SWAP2 SUB SWAP1 LOG3 POP POP POP JUMP JUMPDEST PUSH1 0x0 PUSH32 0x9016D09D72D40FDAE2FD8CEAC6B6234C7706214FD39C1CD1E609A0528C199300 SWAP1 POP SWAP1 JUMP JUMPDEST PUSH1 0x0 PUSH32 0xF0C57E16840DF040F15088DC2F81FE391C3923BEC73E23A9662EFC9C229C6A00 SWAP1 POP SWAP1 JUMP JUMPDEST PUSH2 0x118F PUSH2 0x11F6 JUMP JUMPDEST PUSH2 0x1198 DUP2 PUSH2 0x1236 JUMP JUMPDEST POP JUMP JUMPDEST PUSH2 0x11A3 PUSH2 0x11F6 JUMP JUMPDEST JUMP JUMPDEST PUSH2 0x11AF DUP3 DUP3 PUSH2 0x5E4 JUMP JUMPDEST PUSH2 0x11F2 JUMPI DUP1 DUP3 PUSH1 0x40 MLOAD PUSH32 0xE2517D3F00000000000000000000000000000000000000000000000000000000 DUP2 MSTORE PUSH1 0x4 ADD PUSH2 0x11E9 SWAP3 SWAP2 SWAP1 PUSH2 0x19DA JUMP JUMPDEST PUSH1 0x40 MLOAD DUP1 SWAP2 SUB SWAP1 REVERT JUMPDEST POP POP JUMP JUMPDEST PUSH2 0x11FE PUSH2 0x12BC JUMP JUMPDEST PUSH2 0x1234 JUMPI PUSH1 0x40 MLOAD PUSH32 0xD7E6BCF800000000000000000000000000000000000000000000000000000000 DUP2 MSTORE PUSH1 0x4 ADD PUSH1 0x40 MLOAD DUP1 SWAP2 SUB SWAP1 REVERT JUMPDEST JUMP JUMPDEST PUSH2 0x123E PUSH2 0x11F6 JUMP JUMPDEST PUSH1 0x0 PUSH20 0xFFFFFFFFFFFFFFFFFFFFFFFFFFFFFFFFFFFFFFFF AND DUP2 PUSH20 0xFFFFFFFFFFFFFFFFFFFFFFFFFFFFFFFFFFFFFFFF AND SUB PUSH2 0x12B0 JUMPI PUSH1 0x0 PUSH1 0x40 MLOAD PUSH32 0x1E4FBDF700000000000000000000000000000000000000000000000000000000 DUP2 MSTORE PUSH1 0x4 ADD PUSH2 0x12A7 SWAP2 SWAP1 PUSH2 0x1512 JUMP JUMPDEST PUSH1 0x40 MLOAD DUP1 SWAP2 SUB SWAP1 REVERT JUMPDEST PUSH2 0x12B9 DUP2 PUSH2 0x1060 JUMP JUMPDEST POP JUMP JUMPDEST PUSH1 0x0 PUSH2 0x12C6 PUSH2 0x115F JUMP JUMPDEST PUSH1 0x0 ADD PUSH1 0x8 SWAP1 SLOAD SWAP1 PUSH2 0x100 EXP SWAP1 DIV PUSH1 0xFF AND SWAP1 POP SWAP1 JUMP JUMPDEST PUSH1 0x0 PUSH1 0x40 MLOAD SWAP1 POP SWAP1 JUMP JUMPDEST PUSH1 0x0 DUP1 REVERT JUMPDEST PUSH1 0x0 DUP1 REVERT JUMPDEST PUSH1 0x0 PUSH32 0xFFFFFFFF00000000000000000000000000000000000000000000000000000000 DUP3 AND SWAP1 POP SWAP2 SWAP1 POP JUMP JUMPDEST PUSH2 0x1325 DUP2 PUSH2 0x12F0 JUMP JUMPDEST DUP2 EQ PUSH2 0x1330 JUMPI PUSH1 0x0 DUP1 REVERT JUMPDEST POP JUMP JUMPDEST PUSH1 0x0 DUP2 CALLDATALOAD SWAP1 POP PUSH2 0x1342 DUP2 PUSH2 0x131C JUMP JUMPDEST SWAP3 SWAP2 POP POP JUMP JUMPDEST PUSH1 0x0 PUSH1 0x20 DUP3 DUP5 SUB SLT ISZERO PUSH2 0x135E JUMPI PUSH2 0x135D PUSH2 0x12E6 JUMP JUMPDEST JUMPDEST PUSH1 0x0 PUSH2 0x136C DUP5 DUP3 DUP6 ADD PUSH2 0x1333 JUMP JUMPDEST SWAP2 POP POP SWAP3 SWAP2 POP POP JUMP JUMPDEST PUSH1 0x0 DUP2 ISZERO ISZERO SWAP1 POP SWAP2 SWAP1 POP JUMP JUMPDEST PUSH2 0x138A DUP2 PUSH2 0x1375 JUMP JUMPDEST DUP3 MSTORE POP POP JUMP JUMPDEST PUSH1 0x0 PUSH1 0x20 DUP3 ADD SWAP1 POP PUSH2 0x13A5 PUSH1 0x0 DUP4 ADD DUP5 PUSH2 0x1381 JUMP JUMPDEST SWAP3 SWAP2 POP POP JUMP JUMPDEST PUSH1 0x0 PUSH20 0xFFFFFFFFFFFFFFFFFFFFFFFFFFFFFFFFFFFFFFFF DUP3 AND SWAP1 POP SWAP2 SWAP1 POP JUMP JUMPDEST PUSH1 0x0 PUSH2 0x13D6 DUP3 PUSH2 0x13AB JUMP JUMPDEST SWAP1 POP SWAP2 SWAP1 POP JUMP JUMPDEST PUSH2 0x13E6 DUP2 PUSH2 0x13CB JUMP JUMPDEST DUP2 EQ PUSH2 0x13F1 JUMPI PUSH1 0x0 DUP1 REVERT JUMPDEST POP JUMP JUMPDEST PUSH1 0x0 DUP2 CALLDATALOAD SWAP1 POP PUSH2 0x1403 DUP2 PUSH2 0x13DD JUMP JUMPDEST SWAP3 SWAP2 POP POP JUMP JUMPDEST PUSH1 0x0 PUSH1 0x20 DUP3 DUP5 SUB SLT ISZERO PUSH2 0x141F JUMPI PUSH2 0x141E PUSH2 0x12E6 JUMP JUMPDEST JUMPDEST PUSH1 0x0 PUSH2 0x142D DUP5 DUP3 DUP6 ADD PUSH2 0x13F4 JUMP JUMPDEST SWAP2 POP POP SWAP3 SWAP2 POP POP JUMP JUMPDEST PUSH1 0x0 DUP2 SWAP1 POP SWAP2 SWAP1 POP JUMP JUMPDEST PUSH2 0x1449 DUP2 PUSH2 0x1436 JUMP JUMPDEST DUP2 EQ PUSH2 0x1454 JUMPI PUSH1 0x0 DUP1 REVERT JUMPDEST POP JUMP JUMPDEST PUSH1 0x0 DUP2 CALLDATALOAD SWAP1 POP PUSH2 0x1466 DUP2 PUSH2 0x1440 JUMP JUMPDEST SWAP3 SWAP2 POP POP JUMP JUMPDEST PUSH1 0x0 PUSH1 0x20 DUP3 DUP5 SUB SLT ISZERO PUSH2 0x1482 JUMPI PUSH2 0x1481 PUSH2 0x12E6 JUMP JUMPDEST JUMPDEST PUSH1 0x0 PUSH2 0x1490 DUP5 DUP3 DUP6 ADD PUSH2 0x1457 JUMP JUMPDEST SWAP2 POP POP SWAP3 SWAP2 POP POP JUMP JUMPDEST PUSH2 0x14A2 DUP2 PUSH2 0x1436 JUMP JUMPDEST DUP3 MSTORE POP POP JUMP JUMPDEST PUSH1 0x0 PUSH1 0x20 DUP3 ADD SWAP1 POP PUSH2 0x14BD PUSH1 0x0 DUP4 ADD DUP5 PUSH2 0x1499 JUMP JUMPDEST SWAP3 SWAP2 POP POP JUMP JUMPDEST PUSH1 0x0 DUP1 PUSH1 0x40 DUP4 DUP6 SUB SLT ISZERO PUSH2 0x14DA JUMPI PUSH2 0x14D9 PUSH2 0x12E6 JUMP JUMPDEST JUMPDEST PUSH1 0x0 PUSH2 0x14E8 DUP6 DUP3 DUP7 ADD PUSH2 0x1457 JUMP JUMPDEST SWAP3 POP POP PUSH1 0x20 PUSH2 0x14F9 DUP6 DUP3 DUP7 ADD PUSH2 0x13F4 JUMP JUMPDEST SWAP2 POP POP SWAP3 POP SWAP3 SWAP1 POP JUMP JUMPDEST PUSH2 0x150C DUP2 PUSH2 0x13CB JUMP JUMPDEST DUP3 MSTORE POP POP JUMP JUMPDEST PUSH1 0x0 PUSH1 0x20 DUP3 ADD SWAP1 POP PUSH2 0x1527 PUSH1 0x0 DUP4 ADD DUP5 PUSH2 0x1503 JUMP JUMPDEST SWAP3 SWAP2 POP POP JUMP JUMPDEST PUSH1 0x0 DUP1 REVERT JUMPDEST PUSH1 0x0 DUP1 REVERT JUMPDEST PUSH1 0x0 PUSH1 0x1F NOT PUSH1 0x1F DUP4 ADD AND SWAP1 POP SWAP2 SWAP1 POP JUMP JUMPDEST PUSH32 0x4E487B7100000000000000000000000000000000000000000000000000000000 PUSH1 0x0 MSTORE PUSH1 0x41 PUSH1 0x4 MSTORE PUSH1 0x24 PUSH1 0x0 REVERT JUMPDEST PUSH2 0x1580 DUP3 PUSH2 0x1537 JUMP JUMPDEST DUP2 ADD DUP2 DUP2 LT PUSH8 0xFFFFFFFFFFFFFFFF DUP3 GT OR ISZERO PUSH2 0x159F JUMPI PUSH2 0x159E PUSH2 0x1548 JUMP JUMPDEST JUMPDEST DUP1 PUSH1 0x40 MSTORE POP POP POP JUMP JUMPDEST PUSH1 0x0 PUSH2 0x15B2 PUSH2 0x12DC JUMP JUMPDEST SWAP1 POP PUSH2 0x15BE DUP3 DUP3 PUSH2 0x1577 JUMP JUMPDEST SWAP2 SWAP1 POP JUMP JUMPDEST PUSH1 0x0 PUSH8 0xFFFFFFFFFFFFFFFF DUP3 GT ISZERO PUSH2 0x15DE JUMPI PUSH2 0x15DD PUSH2 0x1548 JUMP JUMPDEST JUMPDEST PUSH2 0x15E7 DUP3 PUSH2 0x1537 JUMP JUMPDEST SWAP1 POP PUSH1 0x20 DUP2 ADD SWAP1 POP SWAP2 SWAP1 POP JUMP JUMPDEST DUP3 DUP2 DUP4 CALLDATACOPY PUSH1 0x0 DUP4 DUP4 ADD MSTORE POP POP POP JUMP JUMPDEST PUSH1 0x0 PUSH2 0x1616 PUSH2 0x1611 DUP5 PUSH2 0x15C3 JUMP JUMPDEST PUSH2 0x15A8 JUMP JUMPDEST SWAP1 POP DUP3 DUP2 MSTORE PUSH1 0x20 DUP2 ADD DUP5 DUP5 DUP5 ADD GT ISZERO PUSH2 0x1632 JUMPI PUSH2 0x1631 PUSH2 0x1532 JUMP JUMPDEST JUMPDEST PUSH2 0x163D DUP5 DUP3 DUP6 PUSH2 0x15F4 JUMP JUMPDEST POP SWAP4 SWAP3 POP POP POP JUMP JUMPDEST PUSH1 0x0 DUP3 PUSH1 0x1F DUP4 ADD SLT PUSH2 0x165A JUMPI PUSH2 0x1659 PUSH2 0x152D JUMP JUMPDEST JUMPDEST DUP2 CALLDATALOAD PUSH2 0x166A DUP5 DUP3 PUSH1 0x20 DUP7 ADD PUSH2 0x1603 JUMP JUMPDEST SWAP2 POP POP SWAP3 SWAP2 POP POP JUMP JUMPDEST PUSH1 0x0 PUSH1 0x20 DUP3 DUP5 SUB SLT ISZERO PUSH2 0x1689 JUMPI PUSH2 0x1688 PUSH2 0x12E6 JUMP JUMPDEST JUMPDEST PUSH1 0x0 DUP3 ADD CALLDATALOAD PUSH8 0xFFFFFFFFFFFFFFFF DUP2 GT ISZERO PUSH2 0x16A7 JUMPI PUSH2 0x16A6 PUSH2 0x12EB JUMP JUMPDEST JUMPDEST PUSH2 0x16B3 DUP5 DUP3 DUP6 ADD PUSH2 0x1645 JUMP JUMPDEST SWAP2 POP POP SWAP3 SWAP2 POP POP JUMP JUMPDEST PUSH1 0x0 PUSH16 0xFFFFFFFFFFFFFFFFFFFFFFFFFFFFFFFF DUP3 AND SWAP1 POP SWAP2 SWAP1 POP JUMP JUMPDEST PUSH2 0x16E1 DUP2 PUSH2 0x16BC JUMP JUMPDEST DUP2 EQ PUSH2 0x16EC JUMPI PUSH1 0x0 DUP1 REVERT JUMPDEST POP JUMP JUMPDEST PUSH1 0x0 DUP2 CALLDATALOAD SWAP1 POP PUSH2 0x16FE DUP2 PUSH2 0x16D8 JUMP JUMPDEST SWAP3 SWAP2 POP POP JUMP JUMPDEST PUSH1 0x0 DUP1 PUSH1 0x0 PUSH1 0x60 DUP5 DUP7 SUB SLT ISZERO PUSH2 0x171D JUMPI PUSH2 0x171C PUSH2 0x12E6 JUMP JUMPDEST JUMPDEST PUSH1 0x0 PUSH2 0x172B DUP7 DUP3 DUP8 ADD PUSH2 0x13F4 JUMP JUMPDEST SWAP4 POP POP PUSH1 0x20 DUP5 ADD CALLDATALOAD PUSH8 0xFFFFFFFFFFFFFFFF DUP2 GT ISZERO PUSH2 0x174C JUMPI PUSH2 0x174B PUSH2 0x12EB JUMP JUMPDEST JUMPDEST PUSH2 0x1758 DUP7 DUP3 DUP8 ADD PUSH2 0x1645 JUMP JUMPDEST SWAP3 POP POP PUSH1 0x40 PUSH2 0x1769 DUP7 DUP3 DUP8 ADD PUSH2 0x16EF JUMP JUMPDEST SWAP2 POP POP SWAP3 POP SWAP3 POP SWAP3 JUMP JUMPDEST PUSH1 0x0 DUP1 PUSH1 0x40 DUP4 DUP6 SUB SLT ISZERO PUSH2 0x178A JUMPI PUSH2 0x1789 PUSH2 0x12E6 JUMP JUMPDEST JUMPDEST PUSH1 0x0 PUSH2 0x1798 DUP6 DUP3 DUP7 ADD PUSH2 0x13F4 JUMP JUMPDEST SWAP3 POP POP PUSH1 0x20 DUP4 ADD CALLDATALOAD PUSH8 0xFFFFFFFFFFFFFFFF DUP2 GT ISZERO PUSH2 0x17B9 JUMPI PUSH2 0x17B8 PUSH2 0x12EB JUMP JUMPDEST JUMPDEST PUSH2 0x17C5 DUP6 DUP3 DUP7 ADD PUSH2 0x1645 JUMP JUMPDEST SWAP2 POP POP SWAP3 POP SWAP3 SWAP1 POP JUMP JUMPDEST PUSH2 0x17D8 DUP2 PUSH2 0x16BC JUMP JUMPDEST DUP3 MSTORE POP POP JUMP JUMPDEST PUSH1 0x0 PUSH1 0x20 DUP3 ADD SWAP1 POP PUSH2 0x17F3 PUSH1 0x0 DUP4 ADD DUP5 PUSH2 0x17CF JUMP JUMPDEST SWAP3 SWAP2 POP POP JUMP JUMPDEST PUSH1 0x0 DUP2 MLOAD SWAP1 POP SWAP2 SWAP1 POP JUMP JUMPDEST PUSH1 0x0 DUP2 SWAP1 POP SWAP3 SWAP2 POP POP JUMP JUMPDEST PUSH1 0x0 JUMPDEST DUP4 DUP2 LT ISZERO PUSH2 0x182D JUMPI DUP1 DUP3 ADD MLOAD DUP2 DUP5 ADD MSTORE PUSH1 0x20 DUP2 ADD SWAP1 POP PUSH2 0x1812 JUMP JUMPDEST PUSH1 0x0 DUP5 DUP5 ADD MSTORE POP POP POP POP JUMP JUMPDEST PUSH1 0x0 PUSH2 0x1844 DUP3 PUSH2 0x17F9 JUMP JUMPDEST PUSH2 0x184E DUP2 DUP6 PUSH2 0x1804 JUMP JUMPDEST SWAP4 POP PUSH2 0x185E DUP2 DUP6 PUSH1 0x20 DUP7 ADD PUSH2 0x180F JUMP JUMPDEST DUP1 DUP5 ADD SWAP2 POP POP SWAP3 SWAP2 POP POP JUMP JUMPDEST PUSH1 0x0 PUSH2 0x1876 DUP3 DUP5 PUSH2 0x1839 JUMP JUMPDEST SWAP2 POP DUP2 SWAP1 POP SWAP3 SWAP2 POP POP JUMP JUMPDEST PUSH1 0x0 DUP3 DUP3 MSTORE PUSH1 0x20 DUP3 ADD SWAP1 POP SWAP3 SWAP2 POP POP JUMP JUMPDEST PUSH1 0x0 PUSH2 0x189D DUP3 PUSH2 0x17F9 JUMP JUMPDEST PUSH2 0x18A7 DUP2 DUP6 PUSH2 0x1881 JUMP JUMPDEST SWAP4 POP PUSH2 0x18B7 DUP2 DUP6 PUSH1 0x20 DUP7 ADD PUSH2 0x180F JUMP JUMPDEST PUSH2 0x18C0 DUP2 PUSH2 0x1537 JUMP JUMPDEST DUP5 ADD SWAP2 POP POP SWAP3 SWAP2 POP POP JUMP JUMPDEST PUSH1 0x0 PUSH1 0x20 DUP3 ADD SWAP1 POP DUP2 DUP2 SUB PUSH1 0x0 DUP4 ADD MSTORE PUSH2 0x18E5 DUP2 DUP5 PUSH2 0x1892 JUMP JUMPDEST SWAP1 POP SWAP3 SWAP2 POP POP JUMP JUMPDEST PUSH1 0x0 DUP2 SWAP1 POP SWAP2 SWAP1 POP JUMP JUMPDEST PUSH1 0x0 PUSH8 0xFFFFFFFFFFFFFFFF DUP3 AND SWAP1 POP SWAP2 SWAP1 POP JUMP JUMPDEST PUSH1 0x0 DUP2 SWAP1 POP SWAP2 SWAP1 POP JUMP JUMPDEST PUSH1 0x0 PUSH2 0x1930 PUSH2 0x192B PUSH2 0x1926 DUP5 PUSH2 0x18ED JUMP JUMPDEST PUSH2 0x190B JUMP JUMPDEST PUSH2 0x18F7 JUMP JUMPDEST SWAP1 POP SWAP2 SWAP1 POP JUMP JUMPDEST PUSH2 0x1940 DUP2 PUSH2 0x1915 JUMP JUMPDEST DUP3 MSTORE POP POP JUMP JUMPDEST PUSH1 0x0 PUSH1 0x20 DUP3 ADD SWAP1 POP PUSH2 0x195B PUSH1 0x0 DUP4 ADD DUP5 PUSH2 0x1937 JUMP JUMPDEST SWAP3 SWAP2 POP POP JUMP JUMPDEST PUSH1 0x0 DUP2 SWAP1 POP SWAP2 SWAP1 POP JUMP JUMPDEST PUSH1 0x0 PUSH2 0x1986 PUSH2 0x1981 PUSH2 0x197C DUP5 PUSH2 0x16BC JUMP JUMPDEST PUSH2 0x190B JUMP JUMPDEST PUSH2 0x1961 JUMP JUMPDEST SWAP1 POP SWAP2 SWAP1 POP JUMP JUMPDEST PUSH2 0x1996 DUP2 PUSH2 0x196B JUMP JUMPDEST DUP3 MSTORE POP POP JUMP JUMPDEST PUSH1 0x0 PUSH1 0x60 DUP3 ADD SWAP1 POP DUP2 DUP2 SUB PUSH1 0x0 DUP4 ADD MSTORE PUSH2 0x19B6 DUP2 DUP7 PUSH2 0x1892 JUMP JUMPDEST SWAP1 POP PUSH2 0x19C5 PUSH1 0x20 DUP4 ADD DUP6 PUSH2 0x198D JUMP JUMPDEST PUSH2 0x19D2 PUSH1 0x40 DUP4 ADD DUP5 PUSH2 0x198D JUMP JUMPDEST SWAP5 SWAP4 POP POP POP POP JUMP JUMPDEST PUSH1 0x0 PUSH1 0x40 DUP3 ADD SWAP1 POP PUSH2 0x19EF PUSH1 0x0 DUP4 ADD DUP6 PUSH2 0x1503 JUMP JUMPDEST PUSH2 0x19FC PUSH1 0x20 DUP4 ADD DUP5 PUSH2 0x1499 JUMP JUMPDEST SWAP4 SWAP3 POP POP POP JUMP INVALID LOG2 PUSH5 0x6970667358 0x22 SLT KECCAK256 0xD7 MOD 0xBF EXP 0xB5 0xC6 EXTCODESIZE PREVRANDAO LOG2 0xBF 0xB5 DUP4 0xAE DUP10 PUSH2 0xE37B ADDRESS SWAP12 REVERT 0x2A 0xDD PUSH2 0x2AA1 0xE7 0x2C 0x21 SWAP13 0xD4 0xA5 EXTCODECOPY PUSH5 0x736F6C6343 STOP ADDMOD SHR STOP CALLER "
		},
		"gasEstimates": {
			"creation": {
				"codeDepositCost": "1342600",
				"executionCost": "1397",
				"totalCost": "1343997"
			},
			"external": {
				"ADMIN_ROLE()": "440",
				"DEFAULT_ADMIN_ROLE()": "402",
				"addAdmin(address)": "infinite",
				"addScoreType(string)": "infinite",
				"getRoleAdmin(bytes32)": "infinite",
				"grantRole(bytes32,address)": "infinite",
				"hasRole(bytes32,address)": "3239",
				"initialize(address)": "infinite",
				"isAdmin(address)": "3159",
				"owner()": "2599",
				"removeAdmin(address)": "infinite",
				"removeScoreType(string)": "infinite",
				"renounceOwnership()": "infinite",
				"renounceRole(bytes32,address)": "infinite",
				"revokeRole(bytes32,address)": "infinite",
				"score(address,string)": "infinite",
				"setScore(address,string,uint128)": "infinite",
				"supportsInterface(bytes4)": "751",
				"transferOwnership(address)": "infinite"
			}
		},
		"methodIdentifiers": {
			"ADMIN_ROLE()": "75b238fc",
			"DEFAULT_ADMIN_ROLE()": "a217fddf",
			"addAdmin(address)": "70480275",
			"addScoreType(string)": "c9a4909c",
			"getRoleAdmin(bytes32)": "248a9ca3",
			"grantRole(bytes32,address)": "2f2ff15d",
			"hasRole(bytes32,address)": "91d14854",
			"initialize(address)": "c4d66de8",
			"isAdmin(address)": "24d7806c",
			"owner()": "8da5cb5b",
			"removeAdmin(address)": "1785f53c",
			"removeScoreType(string)": "a34f0e28",
			"renounceOwnership()": "715018a6",
			"renounceRole(bytes32,address)": "36568abe",
			"revokeRole(bytes32,address)": "d547741f",
			"score(address,string)": "db4f1024",
			"setScore(address,string,uint128)": "c87a774b",
			"supportsInterface(bytes4)": "01ffc9a7",
			"transferOwnership(address)": "f2fde38b"
		}
	},
	"abi": [
		{
			"inputs": [],
			"name": "AccessControlBadConfirmation",
			"type": "error"
		},
		{
			"inputs": [
				{
					"internalType": "address",
					"name": "account",
					"type": "address"
				},
				{
					"internalType": "bytes32",
					"name": "neededRole",
					"type": "bytes32"
				}
			],
			"name": "AccessControlUnauthorizedAccount",
			"type": "error"
		},
		{
			"inputs": [
				{
					"internalType": "string",
					"name": "scoreType",
					"type": "string"
				}
			],
			"name": "DuplicateScoreType",
			"type": "error"
		},
		{
			"inputs": [],
			"name": "InvalidInitialization",
			"type": "error"
		},
		{
			"inputs": [],
			"name": "NotInitializing",
			"type": "error"
		},
		{
			"inputs": [
				{
					"internalType": "address",
					"name": "owner",
					"type": "address"
				}
			],
			"name": "OwnableInvalidOwner",
			"type": "error"
		},
		{
			"inputs": [
				{
					"internalType": "address",
					"name": "account",
					"type": "address"
				}
			],
			"name": "OwnableUnauthorizedAccount",
			"type": "error"
		},
		{
			"inputs": [
				{
					"internalType": "string",
					"name": "scoreType",
					"type": "string"
				}
			],
			"name": "ScoreTypeNotFound",
			"type": "error"
		},
		{
			"anonymous": false,
			"inputs": [
				{
					"indexed": false,
					"internalType": "uint64",
					"name": "version",
					"type": "uint64"
				}
			],
			"name": "Initialized",
			"type": "event"
		},
		{
			"anonymous": false,
			"inputs": [
				{
					"indexed": true,
					"internalType": "address",
					"name": "previousOwner",
					"type": "address"
				},
				{
					"indexed": true,
					"internalType": "address",
					"name": "newOwner",
					"type": "address"
				}
			],
			"name": "OwnershipTransferred",
			"type": "event"
		},
		{
			"anonymous": false,
			"inputs": [
				{
					"indexed": true,
					"internalType": "bytes32",
					"name": "role",
					"type": "bytes32"
				},
				{
					"indexed": true,
					"internalType": "bytes32",
					"name": "previousAdminRole",
					"type": "bytes32"
				},
				{
					"indexed": true,
					"internalType": "bytes32",
					"name": "newAdminRole",
					"type": "bytes32"
				}
			],
			"name": "RoleAdminChanged",
			"type": "event"
		},
		{
			"anonymous": false,
			"inputs": [
				{
					"indexed": true,
					"internalType": "bytes32",
					"name": "role",
					"type": "bytes32"
				},
				{
					"indexed": true,
					"internalType": "address",
					"name": "account",
					"type": "address"
				},
				{
					"indexed": true,
					"internalType": "address",
					"name": "sender",
					"type": "address"
				}
			],
			"name": "RoleGranted",
			"type": "event"
		},
		{
			"anonymous": false,
			"inputs": [
				{
					"indexed": true,
					"internalType": "bytes32",
					"name": "role",
					"type": "bytes32"
				},
				{
					"indexed": true,
					"internalType": "address",
					"name": "account",
					"type": "address"
				},
				{
					"indexed": true,
					"internalType": "address",
					"name": "sender",
					"type": "address"
				}
			],
			"name": "RoleRevoked",
			"type": "event"
		},
		{
			"anonymous": false,
			"inputs": [
				{
					"indexed": false,
					"internalType": "string",
					"name": "scoreType",
					"type": "string"
				}
			],
			"name": "ScoreTypeAdded",
			"type": "event"
		},
		{
			"anonymous": false,
			"inputs": [
				{
					"indexed": false,
					"internalType": "string",
					"name": "scoreType",
					"type": "string"
				}
			],
			"name": "ScoreTypeRemoved",
			"type": "event"
		},
		{
			"anonymous": false,
			"inputs": [
				{
					"indexed": true,
					"internalType": "address",
					"name": "user",
					"type": "address"
				},
				{
					"indexed": false,
					"internalType": "string",
					"name": "scoreType",
					"type": "string"
				},
				{
					"indexed": false,
					"internalType": "uint256",
					"name": "newScore",
					"type": "uint256"
				},
				{
					"indexed": false,
					"internalType": "uint256",
					"name": "oldScore",
					"type": "uint256"
				}
			],
			"name": "ScoreUpdated",
			"type": "event"
		},
		{
			"inputs": [],
			"name": "ADMIN_ROLE",
			"outputs": [
				{
					"internalType": "bytes32",
					"name": "",
					"type": "bytes32"
				}
			],
			"stateMutability": "view",
			"type": "function"
		},
		{
			"inputs": [],
			"name": "DEFAULT_ADMIN_ROLE",
			"outputs": [
				{
					"internalType": "bytes32",
					"name": "",
					"type": "bytes32"
				}
			],
			"stateMutability": "view",
			"type": "function"
		},
		{
			"inputs": [
				{
					"internalType": "address",
					"name": "admin",
					"type": "address"
				}
			],
			"name": "addAdmin",
			"outputs": [],
			"stateMutability": "nonpayable",
			"type": "function"
		},
		{
			"inputs": [
				{
					"internalType": "string",
					"name": "scoreType",
					"type": "string"
				}
			],
			"name": "addScoreType",
			"outputs": [],
			"stateMutability": "nonpayable",
			"type": "function"
		},
		{
			"inputs": [
				{
					"internalType": "bytes32",
					"name": "role",
					"type": "bytes32"
				}
			],
			"name": "getRoleAdmin",
			"outputs": [
				{
					"internalType": "bytes32",
					"name": "",
					"type": "bytes32"
				}
			],
			"stateMutability": "view",
			"type": "function"
		},
		{
			"inputs": [
				{
					"internalType": "bytes32",
					"name": "role",
					"type": "bytes32"
				},
				{
					"internalType": "address",
					"name": "account",
					"type": "address"
				}
			],
			"name": "grantRole",
			"outputs": [],
			"stateMutability": "nonpayable",
			"type": "function"
		},
		{
			"inputs": [
				{
					"internalType": "bytes32",
					"name": "role",
					"type": "bytes32"
				},
				{
					"internalType": "address",
					"name": "account",
					"type": "address"
				}
			],
			"name": "hasRole",
			"outputs": [
				{
					"internalType": "bool",
					"name": "",
					"type": "bool"
				}
			],
			"stateMutability": "view",
			"type": "function"
		},
		{
			"inputs": [
				{
					"internalType": "address",
					"name": "owner",
					"type": "address"
				}
			],
			"name": "initialize",
			"outputs": [],
			"stateMutability": "nonpayable",
			"type": "function"
		},
		{
			"inputs": [
				{
					"internalType": "address",
					"name": "admin",
					"type": "address"
				}
			],
			"name": "isAdmin",
			"outputs": [
				{
					"internalType": "bool",
					"name": "",
					"type": "bool"
				}
			],
			"stateMutability": "view",
			"type": "function"
		},
		{
			"inputs": [],
			"name": "owner",
			"outputs": [
				{
					"internalType": "address",
					"name": "",
					"type": "address"
				}
			],
			"stateMutability": "view",
			"type": "function"
		},
		{
			"inputs": [
				{
					"internalType": "address",
					"name": "admin",
					"type": "address"
				}
			],
			"name": "removeAdmin",
			"outputs": [],
			"stateMutability": "nonpayable",
			"type": "function"
		},
		{
			"inputs": [
				{
					"internalType": "string",
					"name": "scoreType",
					"type": "string"
				}
			],
			"name": "removeScoreType",
			"outputs": [],
			"stateMutability": "nonpayable",
			"type": "function"
		},
		{
			"inputs": [],
			"name": "renounceOwnership",
			"outputs": [],
			"stateMutability": "nonpayable",
			"type": "function"
		},
		{
			"inputs": [
				{
					"internalType": "bytes32",
					"name": "role",
					"type": "bytes32"
				},
				{
					"internalType": "address",
					"name": "callerConfirmation",
					"type": "address"
				}
			],
			"name": "renounceRole",
			"outputs": [],
			"stateMutability": "nonpayable",
			"type": "function"
		},
		{
			"inputs": [
				{
					"internalType": "bytes32",
					"name": "role",
					"type": "bytes32"
				},
				{
					"internalType": "address",
					"name": "account",
					"type": "address"
				}
			],
			"name": "revokeRole",
			"outputs": [],
			"stateMutability": "nonpayable",
			"type": "function"
		},
		{
			"inputs": [
				{
					"internalType": "address",
					"name": "user",
					"type": "address"
				},
				{
					"internalType": "string",
					"name": "scoreType",
					"type": "string"
				}
			],
			"name": "score",
			"outputs": [
				{
					"internalType": "uint128",
					"name": "",
					"type": "uint128"
				}
			],
			"stateMutability": "view",
			"type": "function"
		},
		{
			"inputs": [
				{
					"internalType": "address",
					"name": "user",
					"type": "address"
				},
				{
					"internalType": "string",
					"name": "scoreType",
					"type": "string"
				},
				{
					"internalType": "uint128",
					"name": "newScore",
					"type": "uint128"
				}
			],
			"name": "setScore",
			"outputs": [],
			"stateMutability": "nonpayable",
			"type": "function"
		},
		{
			"inputs": [
				{
					"internalType": "bytes4",
					"name": "interfaceId",
					"type": "bytes4"
				}
			],
			"name": "supportsInterface",
			"outputs": [
				{
					"internalType": "bool",
					"name": "",
					"type": "bool"
				}
			],
			"stateMutability": "view",
			"type": "function"
		},
		{
			"inputs": [
				{
					"internalType": "address",
					"name": "newOwner",
					"type": "address"
				}
			],
			"name": "transferOwnership",
			"outputs": [],
			"stateMutability": "nonpayable",
			"type": "function"
		}
	]
}