{
	"data": {
		"bytecode": {
			"linkReferences": {},
			"object": "6080604052348015600f57600080fd5b50612ff88061001f6000396000f3fe6080604052600436106100ec5760003560e01c80638da5cb5b1161008a578063b807a3c411610059578063b807a3c4146103c0578063c5d60b51146103e9578063f2fde38b14610412578063f3fef3a31461043b576101af565b80638da5cb5b146102f2578063a9012c891461031d578063a9590e8a14610346578063aee9c87214610383576101af565b8063485cc955116100c6578063485cc9551461025a578063715018a61461028357806385c758f71461029a5780638a19c8bc146102c5576101af565b80631e83409a146101ea57806331f7d9641461021357806347e7ef241461023e576101af565b366101af5734603560008073ffffffffffffffffffffffffffffffffffffffff1673ffffffffffffffffffffffffffffffffffffffff16815260200190815260200160002060008282546101409190611dcb565b92505081905550600073ffffffffffffffffffffffffffffffffffffffff163373ffffffffffffffffffffffffffffffffffffffff167f5548c837ab068cf56a2c2479df0882a4922fd203edb7517321831d95078c5f62346040516101a59190611e0e565b60405180910390a3005b6040517f08c379a00000000000000000000000000000000000000000000000000000000081526004016101e190611e86565b60405180910390fd5b3480156101f657600080fd5b50610211600480360381019061020c9190611f18565b610464565b005b34801561021f57600080fd5b506102286108d8565b6040516102359190611f54565b60405180910390f35b61025860048036038101906102539190611f9b565b6108dd565b005b34801561026657600080fd5b50610281600480360381019061027c9190611fdb565b610a98565b005b34801561028f57600080fd5b50610298610c71565b005b3480156102a657600080fd5b506102af610c85565b6040516102bc919061207a565b60405180910390f35b3480156102d157600080fd5b506102da610cab565b6040516102e993929190612137565b60405180910390f35b3480156102fe57600080fd5b50610307610d73565b6040516103149190611f54565b60405180910390f35b34801561032957600080fd5b50610344600480360381019061033f91906122d6565b610dab565b005b34801561035257600080fd5b5061036d60048036038101906103689190611fdb565b610fc4565b60405161037a9190611e0e565b60405180910390f35b34801561038f57600080fd5b506103aa60048036038101906103a59190611f18565b610fe9565b6040516103b79190611e0e565b60405180910390f35b3480156103cc57600080fd5b506103e760048036038101906103e29190612345565b611001565b005b3480156103f557600080fd5b50610410600480360381019061040b919061244e565b611236565b005b34801561041e57600080fd5b5061043960048036038101906104349190611f18565b611579565b005b34801561044757600080fd5b50610462600480360381019061045d9190611f9b565b6115ff565b005b61046c6118c2565b603360000160009054906101000a900467ffffffffffffffff1667ffffffffffffffff164210806104bf5750603360000160089054906101000a900467ffffffffffffffff1667ffffffffffffffff1642115b156105375742603360000160009054906101000a900467ffffffffffffffff16603360000160089054906101000a900467ffffffffffffffff166040517ffa7410d400000000000000000000000000000000000000000000000000000000815260040161052e93929190612533565b60405180910390fd5b6000603660003373ffffffffffffffffffffffffffffffffffffffff1673ffffffffffffffffffffffffffffffffffffffff16815260200190815260200160002060008373ffffffffffffffffffffffffffffffffffffffff1673ffffffffffffffffffffffffffffffffffffffff168152602001908152602001600020549050600081116105fb576040517f08c379a00000000000000000000000000000000000000000000000000000000081526004016105f2906125b6565b60405180910390fd5b80603560008473ffffffffffffffffffffffffffffffffffffffff1673ffffffffffffffffffffffffffffffffffffffff16815260200190815260200160002054101561067d576040517f08c379a000000000000000000000000000000000000000000000000000000000815260040161067490612622565b60405180910390fd5b6000603660003373ffffffffffffffffffffffffffffffffffffffff1673ffffffffffffffffffffffffffffffffffffffff16815260200190815260200160002060008473ffffffffffffffffffffffffffffffffffffffff1673ffffffffffffffffffffffffffffffffffffffff1681526020019081526020016000208190555080603560008473ffffffffffffffffffffffffffffffffffffffff1673ffffffffffffffffffffffffffffffffffffffff168152602001908152602001600020600082825461074e9190612642565b92505081905550600073ffffffffffffffffffffffffffffffffffffffff168273ffffffffffffffffffffffffffffffffffffffff160361083b5760003373ffffffffffffffffffffffffffffffffffffffff16826040516107af906126a7565b60006040518083038185875af1925050503d80600081146107ec576040519150601f19603f3d011682016040523d82523d6000602084013e6107f1565b606091505b5050905080610835576040517f08c379a000000000000000000000000000000000000000000000000000000000815260040161082c90612708565b60405180910390fd5b50610867565b61086633828473ffffffffffffffffffffffffffffffffffffffff166119119092919063ffffffff16565b5b8173ffffffffffffffffffffffffffffffffffffffff163373ffffffffffffffffffffffffffffffffffffffff167ff7a40077ff7a04c7e61f6f26fb13774259ddf1b6bce9ecf26a8276cdd3992683836040516108c49190611e0e565b60405180910390a3506108d5611990565b50565b600081565b6108e56118c2565b600073ffffffffffffffffffffffffffffffffffffffff168273ffffffffffffffffffffffffffffffffffffffff16036109605780341461095b576040517f08c379a000000000000000000000000000000000000000000000000000000000815260040161095290612774565b60405180910390fd5b6109d1565b600081116109a3576040517f08c379a000000000000000000000000000000000000000000000000000000000815260040161099a90612806565b60405180910390fd5b6109d03330838573ffffffffffffffffffffffffffffffffffffffff1661199a909392919063ffffffff16565b5b80603560008473ffffffffffffffffffffffffffffffffffffffff1673ffffffffffffffffffffffffffffffffffffffff1681526020019081526020016000206000828254610a209190611dcb565b925050819055508173ffffffffffffffffffffffffffffffffffffffff163373ffffffffffffffffffffffffffffffffffffffff167f5548c837ab068cf56a2c2479df0882a4922fd203edb7517321831d95078c5f6283604051610a849190611e0e565b60405180910390a3610a94611990565b5050565b6000610aa2611a1c565b905060008160000160089054906101000a900460ff1615905060008260000160009054906101000a900467ffffffffffffffff1690506000808267ffffffffffffffff16148015610af05750825b9050600060018367ffffffffffffffff16148015610b25575060003073ffffffffffffffffffffffffffffffffffffffff163b145b905081158015610b33575080155b15610b6a576040517ff92ee8a900000000000000000000000000000000000000000000000000000000815260040160405180910390fd5b60018560000160006101000a81548167ffffffffffffffff021916908367ffffffffffffffff1602179055508315610bba5760018560000160086101000a81548160ff0219169083151502179055505b610bc386611a44565b610bcb611a58565b86603260006101000a81548173ffffffffffffffffffffffffffffffffffffffff021916908373ffffffffffffffffffffffffffffffffffffffff1602179055508315610c685760008560000160086101000a81548160ff0219169083151502179055507fc7f505b2f371ae2175ee4913f4499e1f2633a7b5936321eed1cdaeb6115181d26001604051610c5f9190612861565b60405180910390a15b50505050505050565b610c79611a6a565b610c836000611af1565b565b603260009054906101000a900473ffffffffffffffffffffffffffffffffffffffff1681565b60338060000160009054906101000a900467ffffffffffffffff16908060000160089054906101000a900467ffffffffffffffff1690806001018054610cf0906128ab565b80601f0160208091040260200160405190810160405280929190818152602001828054610d1c906128ab565b8015610d695780601f10610d3e57610100808354040283529160200191610d69565b820191906000526020600020905b815481529060010190602001808311610d4c57829003601f168201915b5050505050905083565b600080610d7e611bc8565b90508060000160009054906101000a900473ffffffffffffffffffffffffffffffffffffffff1691505090565b603260009054906101000a900473ffffffffffffffffffffffffffffffffffffffff1673ffffffffffffffffffffffffffffffffffffffff166324d7806c336040518263ffffffff1660e01b8152600401610e069190611f54565b602060405180830381865afa158015610e23573d6000803e3d6000fd5b505050506040513d601f19601f82011682018060405250810190610e479190612914565b610e86576040517f08c379a0000000000000000000000000000000000000000000000000000000008152600401610e7d9061298d565b60405180910390fd5b8167ffffffffffffffff168367ffffffffffffffff1610610edc576040517f08c379a0000000000000000000000000000000000000000000000000000000008152600401610ed390612a1f565b60405180910390fd5b60405180606001604052808467ffffffffffffffff1681526020018367ffffffffffffffff16815260200182815250603360008201518160000160006101000a81548167ffffffffffffffff021916908367ffffffffffffffff16021790555060208201518160000160086101000a81548167ffffffffffffffff021916908367ffffffffffffffff1602179055506040820151816001019081610f809190612be1565b509050507f09e6db48f22357e6dce2bbff89db8ff25f0012a08186d6ea72e2343fdc112e13838383604051610fb793929190612cb3565b60405180910390a1505050565b6036602052816000526040600020602052806000526040600020600091509150505481565b60356020528060005260406000206000915090505481565b603260009054906101000a900473ffffffffffffffffffffffffffffffffffffffff1673ffffffffffffffffffffffffffffffffffffffff166324d7806c336040518263ffffffff1660e01b815260040161105c9190611f54565b602060405180830381865afa158015611079573d6000803e3d6000fd5b505050506040513d601f19601f8201168201806040525081019061109d9190612914565b6110dc576040517f08c379a00000000000000000000000000000000000000000000000000000000081526004016110d39061298d565b60405180910390fd5b600073ffffffffffffffffffffffffffffffffffffffff168373ffffffffffffffffffffffffffffffffffffffff160361114b576040517f08c379a000000000000000000000000000000000000000000000000000000000815260040161114290612d3d565b60405180910390fd5b80603660008573ffffffffffffffffffffffffffffffffffffffff1673ffffffffffffffffffffffffffffffffffffffff16815260200190815260200160002060008473ffffffffffffffffffffffffffffffffffffffff1673ffffffffffffffffffffffffffffffffffffffff168152602001908152602001600020819055508173ffffffffffffffffffffffffffffffffffffffff168373ffffffffffffffffffffffffffffffffffffffff167f3d0601f3b0e52fd772f1fa71d91651b34b6a11144bea30d74e0f820019a04dc2836040516112299190611e0e565b60405180910390a3505050565b603260009054906101000a900473ffffffffffffffffffffffffffffffffffffffff1673ffffffffffffffffffffffffffffffffffffffff166324d7806c336040518263ffffffff1660e01b81526004016112919190611f54565b602060405180830381865afa1580156112ae573d6000803e3d6000fd5b505050506040513d601f19601f820116820180604052508101906112d29190612914565b611311576040517f08c379a00000000000000000000000000000000000000000000000000000000081526004016113089061298d565b60405180910390fd5b818190508484905014611359576040517f08c379a000000000000000000000000000000000000000000000000000000000815260040161135090612da9565b60405180910390fd5b8181905086869050146113a1576040517f08c379a000000000000000000000000000000000000000000000000000000000815260040161139890612da9565b60405180910390fd5b60005b84849050811015611570578282828181106113c2576113c1612dc9565b5b90506020020135603660008787858181106113e0576113df612dc9565b5b90506020020160208101906113f59190611f18565b73ffffffffffffffffffffffffffffffffffffffff1673ffffffffffffffffffffffffffffffffffffffff168152602001908152602001600020600089898581811061144457611443612dc9565b5b90506020020160208101906114599190611f18565b73ffffffffffffffffffffffffffffffffffffffff1673ffffffffffffffffffffffffffffffffffffffff168152602001908152602001600020819055508686828181106114aa576114a9612dc9565b5b90506020020160208101906114bf9190611f18565b73ffffffffffffffffffffffffffffffffffffffff168585838181106114e8576114e7612dc9565b5b90506020020160208101906114fd9190611f18565b73ffffffffffffffffffffffffffffffffffffffff167f3d0601f3b0e52fd772f1fa71d91651b34b6a11144bea30d74e0f820019a04dc285858581811061154757611546612dc9565b5b9050602002013560405161155b9190611e0e565b60405180910390a380806001019150506113a4565b50505050505050565b611581611a6a565b600073ffffffffffffffffffffffffffffffffffffffff168173ffffffffffffffffffffffffffffffffffffffff16036115f35760006040517f1e4fbdf70000000000000000000000000000000000000000000000000000000081526004016115ea9190611f54565b60405180910390fd5b6115fc81611af1565b50565b611607611a6a565b61160f6118c2565b60008111611652576040517f08c379a000000000000000000000000000000000000000000000000000000000815260040161164990612e6a565b60405180910390fd5b80603560008473ffffffffffffffffffffffffffffffffffffffff1673ffffffffffffffffffffffffffffffffffffffff1681526020019081526020016000205410156116d4576040517f08c379a00000000000000000000000000000000000000000000000000000000081526004016116cb90612ed6565b60405180910390fd5b80603560008473ffffffffffffffffffffffffffffffffffffffff1673ffffffffffffffffffffffffffffffffffffffff16815260200190815260200160002060008282546117239190612642565b92505081905550600073ffffffffffffffffffffffffffffffffffffffff168273ffffffffffffffffffffffffffffffffffffffff1603611817576000611768610d73565b73ffffffffffffffffffffffffffffffffffffffff168260405161178b906126a7565b60006040518083038185875af1925050503d80600081146117c8576040519150601f19603f3d011682016040523d82523d6000602084013e6117cd565b606091505b5050905080611811576040517f08c379a000000000000000000000000000000000000000000000000000000000815260040161180890612708565b60405180910390fd5b5061184a565b611849611822610d73565b828473ffffffffffffffffffffffffffffffffffffffff166119119092919063ffffffff16565b5b8173ffffffffffffffffffffffffffffffffffffffff16611869610d73565b73ffffffffffffffffffffffffffffffffffffffff167f9b1bfa7fa9ee420a16e124f794c35ac9f90472acc99140eb2f6447c714cad8eb836040516118ae9190611e0e565b60405180910390a36118be611990565b5050565b600260005403611907576040517f08c379a00000000000000000000000000000000000000000000000000000000081526004016118fe90612f42565b60405180910390fd5b6002600081905550565b61198b838473ffffffffffffffffffffffffffffffffffffffff1663a9059cbb8585604051602401611944929190612f62565b604051602081830303815290604052915060e01b6020820180517bffffffffffffffffffffffffffffffffffffffffffffffffffffffff8381831617835250505050611bf0565b505050565b6001600081905550565b611a16848573ffffffffffffffffffffffffffffffffffffffff166323b872dd8686866040516024016119cf93929190612f8b565b604051602081830303815290604052915060e01b6020820180517bffffffffffffffffffffffffffffffffffffffffffffffffffffffff8381831617835250505050611bf0565b50505050565b60007ff0c57e16840df040f15088dc2f81fe391c3923bec73e23a9662efc9c229c6a00905090565b611a4c611c92565b611a5581611cd2565b50565b611a60611c92565b611a68611d58565b565b611a72611d6a565b73ffffffffffffffffffffffffffffffffffffffff16611a90610d73565b73ffffffffffffffffffffffffffffffffffffffff1614611aef57611ab3611d6a565b6040517f118cdaa7000000000000000000000000000000000000000000000000000000008152600401611ae69190611f54565b60405180910390fd5b565b6000611afb611bc8565b905060008160000160009054906101000a900473ffffffffffffffffffffffffffffffffffffffff169050828260000160006101000a81548173ffffffffffffffffffffffffffffffffffffffff021916908373ffffffffffffffffffffffffffffffffffffffff1602179055508273ffffffffffffffffffffffffffffffffffffffff168173ffffffffffffffffffffffffffffffffffffffff167f8be0079c531659141344cd1fd0a4f28419497f9722a3daafe3b4186f6b6457e060405160405180910390a3505050565b60007f9016d09d72d40fdae2fd8ceac6b6234c7706214fd39c1cd1e609a0528c199300905090565b600080602060008451602086016000885af180611c13576040513d6000823e3d81fd5b3d925060005191505060008214611c2e576001811415611c4a565b60008473ffffffffffffffffffffffffffffffffffffffff163b145b15611c8c57836040517f5274afe7000000000000000000000000000000000000000000000000000000008152600401611c839190611f54565b60405180910390fd5b50505050565b611c9a611d72565b611cd0576040517fd7e6bcf800000000000000000000000000000000000000000000000000000000815260040160405180910390fd5b565b611cda611c92565b600073ffffffffffffffffffffffffffffffffffffffff168173ffffffffffffffffffffffffffffffffffffffff1603611d4c5760006040517f1e4fbdf7000000000000000000000000000000000000000000000000000000008152600401611d439190611f54565b60405180910390fd5b611d5581611af1565b50565b611d60611c92565b6001600081905550565b600033905090565b6000611d7c611a1c565b60000160089054906101000a900460ff16905090565b6000819050919050565b7f4e487b7100000000000000000000000000000000000000000000000000000000600052601160045260246000fd5b6000611dd682611d92565b9150611de183611d92565b9250828201905080821115611df957611df8611d9c565b5b92915050565b611e0881611d92565b82525050565b6000602082019050611e236000830184611dff565b92915050565b600082825260208201905092915050565b7f537765657473706f743a20757365206465706f73697428290000000000000000600082015250565b6000611e70601883611e29565b9150611e7b82611e3a565b602082019050919050565b60006020820190508181036000830152611e9f81611e63565b9050919050565b6000604051905090565b600080fd5b600080fd5b600073ffffffffffffffffffffffffffffffffffffffff82169050919050565b6000611ee582611eba565b9050919050565b611ef581611eda565b8114611f0057600080fd5b50565b600081359050611f1281611eec565b92915050565b600060208284031215611f2e57611f2d611eb0565b5b6000611f3c84828501611f03565b91505092915050565b611f4e81611eda565b82525050565b6000602082019050611f696000830184611f45565b92915050565b611f7881611d92565b8114611f8357600080fd5b50565b600081359050611f9581611f6f565b92915050565b60008060408385031215611fb257611fb1611eb0565b5b6000611fc085828601611f03565b9250506020611fd185828601611f86565b9150509250929050565b60008060408385031215611ff257611ff1611eb0565b5b600061200085828601611f03565b925050602061201185828601611f03565b9150509250929050565b6000819050919050565b600061204061203b61203684611eba565b61201b565b611eba565b9050919050565b600061205282612025565b9050919050565b600061206482612047565b9050919050565b61207481612059565b82525050565b600060208201905061208f600083018461206b565b92915050565b600067ffffffffffffffff82169050919050565b6120b281612095565b82525050565b600081519050919050565b60005b838110156120e15780820151818401526020810190506120c6565b60008484015250505050565b6000601f19601f8301169050919050565b6000612109826120b8565b6121138185611e29565b93506121238185602086016120c3565b61212c816120ed565b840191505092915050565b600060608201905061214c60008301866120a9565b61215960208301856120a9565b818103604083015261216b81846120fe565b9050949350505050565b61217e81612095565b811461218957600080fd5b50565b60008135905061219b81612175565b92915050565b600080fd5b600080fd5b7f4e487b7100000000000000000000000000000000000000000000000000000000600052604160045260246000fd5b6121e3826120ed565b810181811067ffffffffffffffff82111715612202576122016121ab565b5b80604052505050565b6000612215611ea6565b905061222182826121da565b919050565b600067ffffffffffffffff821115612241576122406121ab565b5b61224a826120ed565b9050602081019050919050565b82818337600083830152505050565b600061227961227484612226565b61220b565b905082815260208101848484011115612295576122946121a6565b5b6122a0848285612257565b509392505050565b600082601f8301126122bd576122bc6121a1565b5b81356122cd848260208601612266565b91505092915050565b6000806000606084860312156122ef576122ee611eb0565b5b60006122fd8682870161218c565b935050602061230e8682870161218c565b925050604084013567ffffffffffffffff81111561232f5761232e611eb5565b5b61233b868287016122a8565b9150509250925092565b60008060006060848603121561235e5761235d611eb0565b5b600061236c86828701611f03565b935050602061237d86828701611f03565b925050604061238e86828701611f86565b9150509250925092565b600080fd5b600080fd5b60008083601f8401126123b8576123b76121a1565b5b8235905067ffffffffffffffff8111156123d5576123d4612398565b5b6020830191508360208202830111156123f1576123f061239d565b5b9250929050565b60008083601f84011261240e5761240d6121a1565b5b8235905067ffffffffffffffff81111561242b5761242a612398565b5b6020830191508360208202830111156124475761244661239d565b5b9250929050565b6000806000806000806060878903121561246b5761246a611eb0565b5b600087013567ffffffffffffffff81111561248957612488611eb5565b5b61249589828a016123a2565b9650965050602087013567ffffffffffffffff8111156124b8576124b7611eb5565b5b6124c489828a016123a2565b9450945050604087013567ffffffffffffffff8111156124e7576124e6611eb5565b5b6124f389828a016123f8565b92509250509295509295509295565b600061251d61251861251384612095565b61201b565b611d92565b9050919050565b61252d81612502565b82525050565b60006060820190506125486000830186611dff565b6125556020830185612524565b6125626040830184612524565b949350505050565b7f4e6f20636c61696d61626c6520616d6f756e7400000000000000000000000000600082015250565b60006125a0601383611e29565b91506125ab8261256a565b602082019050919050565b600060208201905081810360008301526125cf81612593565b9050919050565b7f496e73756666696369656e742066756e647320696e206a617200000000000000600082015250565b600061260c601983611e29565b9150612617826125d6565b602082019050919050565b6000602082019050818103600083015261263b816125ff565b9050919050565b600061264d82611d92565b915061265883611d92565b92508282039050818111156126705761266f611d9c565b5b92915050565b600081905092915050565b50565b6000612691600083612676565b915061269c82612681565b600082019050919050565b60006126b282612684565b9150819050919050565b7f4574686572207472616e73666572206661696c65640000000000000000000000600082015250565b60006126f2601583611e29565b91506126fd826126bc565b602082019050919050565b60006020820190508181036000830152612721816126e5565b9050919050565b7f496e636f727265637420457468657220616d6f756e7400000000000000000000600082015250565b600061275e601683611e29565b915061276982612728565b602082019050919050565b6000602082019050818103600083015261278d81612751565b9050919050565b7f4465706f73697420616d6f756e74206d7573742062652067726561746572207460008201527f68616e207a65726f000000000000000000000000000000000000000000000000602082015250565b60006127f0602883611e29565b91506127fb82612794565b604082019050919050565b6000602082019050818103600083015261281f816127e3565b9050919050565b6000819050919050565b600061284b61284661284184612826565b61201b565b612095565b9050919050565b61285b81612830565b82525050565b60006020820190506128766000830184612852565b92915050565b7f4e487b7100000000000000000000000000000000000000000000000000000000600052602260045260246000fd5b600060028204905060018216806128c357607f821691505b6020821081036128d6576128d561287c565b5b50919050565b60008115159050919050565b6128f1816128dc565b81146128fc57600080fd5b50565b60008151905061290e816128e8565b92915050565b60006020828403121561292a57612929611eb0565b5b6000612938848285016128ff565b91505092915050565b7f43616c6c6572206973206e6f7420616e2061646d696e00000000000000000000600082015250565b6000612977601683611e29565b915061298282612941565b602082019050919050565b600060208201905081810360008301526129a68161296a565b9050919050565b7f53746172742074696d65206d757374206265206265666f726520656e6420746960008201527f6d65000000000000000000000000000000000000000000000000000000000000602082015250565b6000612a09602283611e29565b9150612a14826129ad565b604082019050919050565b60006020820190508181036000830152612a38816129fc565b9050919050565b60008190508160005260206000209050919050565b60006020601f8301049050919050565b600082821b905092915050565b600060088302612aa17fffffffffffffffffffffffffffffffffffffffffffffffffffffffffffffffff82612a64565b612aab8683612a64565b95508019841693508086168417925050509392505050565b6000612ade612ad9612ad484611d92565b61201b565b611d92565b9050919050565b6000819050919050565b612af883612ac3565b612b0c612b0482612ae5565b848454612a71565b825550505050565b600090565b612b21612b14565b612b2c818484612aef565b505050565b5b81811015612b5057612b45600082612b19565b600181019050612b32565b5050565b601f821115612b9557612b6681612a3f565b612b6f84612a54565b81016020851015612b7e578190505b612b92612b8a85612a54565b830182612b31565b50505b505050565b600082821c905092915050565b6000612bb860001984600802612b9a565b1980831691505092915050565b6000612bd18383612ba7565b9150826002028217905092915050565b612bea826120b8565b67ffffffffffffffff811115612c0357612c026121ab565b5b612c0d82546128ab565b612c18828285612b54565b600060209050601f831160018114612c4b5760008415612c39578287015190505b612c438582612bc5565b865550612cab565b601f198416612c5986612a3f565b60005b82811015612c8157848901518255600182019150602085019450602081019050612c5c565b86831015612c9e5784890151612c9a601f891682612ba7565b8355505b6001600288020188555050505b505050505050565b6000606082019050612cc86000830186612524565b612cd56020830185612524565b8181036040830152612ce781846120fe565b9050949350505050565b7f5a65726f20616464726573732075736572000000000000000000000000000000600082015250565b6000612d27601183611e29565b9150612d3282612cf1565b602082019050919050565b60006020820190508181036000830152612d5681612d1a565b9050919050565b7f4d69736d617463686564206172726179206c656e677468730000000000000000600082015250565b6000612d93601883611e29565b9150612d9e82612d5d565b602082019050919050565b60006020820190508181036000830152612dc281612d86565b9050919050565b7f4e487b7100000000000000000000000000000000000000000000000000000000600052603260045260246000fd5b7f5769746864726177616c20616d6f756e74206d7573742062652067726561746560008201527f72207468616e207a65726f000000000000000000000000000000000000000000602082015250565b6000612e54602b83611e29565b9150612e5f82612df8565b604082019050919050565b60006020820190508181036000830152612e8381612e47565b9050919050565b7f496e73756666696369656e742066756e64730000000000000000000000000000600082015250565b6000612ec0601283611e29565b9150612ecb82612e8a565b602082019050919050565b60006020820190508181036000830152612eef81612eb3565b9050919050565b7f5265656e7472616e637947756172643a207265656e7472616e742063616c6c00600082015250565b6000612f2c601f83611e29565b9150612f3782612ef6565b602082019050919050565b60006020820190508181036000830152612f5b81612f1f565b9050919050565b6000604082019050612f776000830185611f45565b612f846020830184611dff565b9392505050565b6000606082019050612fa06000830186611f45565b612fad6020830185611f45565b612fba6040830184611dff565b94935050505056fea264697066735822122076bcc156c65dfa0af393912351e7f6495699685159b2066782948d09fc9782ba64736f6c634300081d0033",
			"opcodes": "PUSH1 0x80 PUSH1 0x40 MSTORE CALLVALUE DUP1 ISZERO PUSH1 0xF JUMPI PUSH1 0x0 DUP1 REVERT JUMPDEST POP PUSH2 0x2FF8 DUP1 PUSH2 0x1F PUSH1 0x0 CODECOPY PUSH1 0x0 RETURN INVALID PUSH1 0x80 PUSH1 0x40 MSTORE PUSH1 0x4 CALLDATASIZE LT PUSH2 0xEC JUMPI PUSH1 0x0 CALLDATALOAD PUSH1 0xE0 SHR DUP1 PUSH4 0x8DA5CB5B GT PUSH2 0x8A JUMPI DUP1 PUSH4 0xB807A3C4 GT PUSH2 0x59 JUMPI DUP1 PUSH4 0xB807A3C4 EQ PUSH2 0x3C0 JUMPI DUP1 PUSH4 0xC5D60B51 EQ PUSH2 0x3E9 JUMPI DUP1 PUSH4 0xF2FDE38B EQ PUSH2 0x412 JUMPI DUP1 PUSH4 0xF3FEF3A3 EQ PUSH2 0x43B JUMPI PUSH2 0x1AF JUMP JUMPDEST DUP1 PUSH4 0x8DA5CB5B EQ PUSH2 0x2F2 JUMPI DUP1 PUSH4 0xA9012C89 EQ PUSH2 0x31D JUMPI DUP1 PUSH4 0xA9590E8A EQ PUSH2 0x346 JUMPI DUP1 PUSH4 0xAEE9C872 EQ PUSH2 0x383 JUMPI PUSH2 0x1AF JUMP JUMPDEST DUP1 PUSH4 0x485CC955 GT PUSH2 0xC6 JUMPI DUP1 PUSH4 0x485CC955 EQ PUSH2 0x25A JUMPI DUP1 PUSH4 0x715018A6 EQ PUSH2 0x283 JUMPI DUP1 PUSH4 0x85C758F7 EQ PUSH2 0x29A JUMPI DUP1 PUSH4 0x8A19C8BC EQ PUSH2 0x2C5 JUMPI PUSH2 0x1AF JUMP JUMPDEST DUP1 PUSH4 0x1E83409A EQ PUSH2 0x1EA JUMPI DUP1 PUSH4 0x31F7D964 EQ PUSH2 0x213 JUMPI DUP1 PUSH4 0x47E7EF24 EQ PUSH2 0x23E JUMPI PUSH2 0x1AF JUMP JUMPDEST CALLDATASIZE PUSH2 0x1AF JUMPI CALLVALUE PUSH1 0x35 PUSH1 0x0 DUP1 PUSH20 0xFFFFFFFFFFFFFFFFFFFFFFFFFFFFFFFFFFFFFFFF AND PUSH20 0xFFFFFFFFFFFFFFFFFFFFFFFFFFFFFFFFFFFFFFFF AND DUP2 MSTORE PUSH1 0x20 ADD SWAP1 DUP2 MSTORE PUSH1 0x20 ADD PUSH1 0x0 KECCAK256 PUSH1 0x0 DUP3 DUP3 SLOAD PUSH2 0x140 SWAP2 SWAP1 PUSH2 0x1DCB JUMP JUMPDEST SWAP3 POP POP DUP2 SWAP1 SSTORE POP PUSH1 0x0 PUSH20 0xFFFFFFFFFFFFFFFFFFFFFFFFFFFFFFFFFFFFFFFF AND CALLER PUSH20 0xFFFFFFFFFFFFFFFFFFFFFFFFFFFFFFFFFFFFFFFF AND PUSH32 0x5548C837AB068CF56A2C2479DF0882A4922FD203EDB7517321831D95078C5F62 CALLVALUE PUSH1 0x40 MLOAD PUSH2 0x1A5 SWAP2 SWAP1 PUSH2 0x1E0E JUMP JUMPDEST PUSH1 0x40 MLOAD DUP1 SWAP2 SUB SWAP1 LOG3 STOP JUMPDEST PUSH1 0x40 MLOAD PUSH32 0x8C379A000000000000000000000000000000000000000000000000000000000 DUP2 MSTORE PUSH1 0x4 ADD PUSH2 0x1E1 SWAP1 PUSH2 0x1E86 JUMP JUMPDEST PUSH1 0x40 MLOAD DUP1 SWAP2 SUB SWAP1 REVERT JUMPDEST CALLVALUE DUP1 ISZERO PUSH2 0x1F6 JUMPI PUSH1 0x0 DUP1 REVERT JUMPDEST POP PUSH2 0x211 PUSH1 0x4 DUP1 CALLDATASIZE SUB DUP2 ADD SWAP1 PUSH2 0x20C SWAP2 SWAP1 PUSH2 0x1F18 JUMP JUMPDEST PUSH2 0x464 JUMP JUMPDEST STOP JUMPDEST CALLVALUE DUP1 ISZERO PUSH2 0x21F JUMPI PUSH1 0x0 DUP1 REVERT JUMPDEST POP PUSH2 0x228 PUSH2 0x8D8 JUMP JUMPDEST PUSH1 0x40 MLOAD PUSH2 0x235 SWAP2 SWAP1 PUSH2 0x1F54 JUMP JUMPDEST PUSH1 0x40 MLOAD DUP1 SWAP2 SUB SWAP1 RETURN JUMPDEST PUSH2 0x258 PUSH1 0x4 DUP1 CALLDATASIZE SUB DUP2 ADD SWAP1 PUSH2 0x253 SWAP2 SWAP1 PUSH2 0x1F9B JUMP JUMPDEST PUSH2 0x8DD JUMP JUMPDEST STOP JUMPDEST CALLVALUE DUP1 ISZERO PUSH2 0x266 JUMPI PUSH1 0x0 DUP1 REVERT JUMPDEST POP PUSH2 0x281 PUSH1 0x4 DUP1 CALLDATASIZE SUB DUP2 ADD SWAP1 PUSH2 0x27C SWAP2 SWAP1 PUSH2 0x1FDB JUMP JUMPDEST PUSH2 0xA98 JUMP JUMPDEST STOP JUMPDEST CALLVALUE DUP1 ISZERO PUSH2 0x28F JUMPI PUSH1 0x0 DUP1 REVERT JUMPDEST POP PUSH2 0x298 PUSH2 0xC71 JUMP JUMPDEST STOP JUMPDEST CALLVALUE DUP1 ISZERO PUSH2 0x2A6 JUMPI PUSH1 0x0 DUP1 REVERT JUMPDEST POP PUSH2 0x2AF PUSH2 0xC85 JUMP JUMPDEST PUSH1 0x40 MLOAD PUSH2 0x2BC SWAP2 SWAP1 PUSH2 0x207A JUMP JUMPDEST PUSH1 0x40 MLOAD DUP1 SWAP2 SUB SWAP1 RETURN JUMPDEST CALLVALUE DUP1 ISZERO PUSH2 0x2D1 JUMPI PUSH1 0x0 DUP1 REVERT JUMPDEST POP PUSH2 0x2DA PUSH2 0xCAB JUMP JUMPDEST PUSH1 0x40 MLOAD PUSH2 0x2E9 SWAP4 SWAP3 SWAP2 SWAP1 PUSH2 0x2137 JUMP JUMPDEST PUSH1 0x40 MLOAD DUP1 SWAP2 SUB SWAP1 RETURN JUMPDEST CALLVALUE DUP1 ISZERO PUSH2 0x2FE JUMPI PUSH1 0x0 DUP1 REVERT JUMPDEST POP PUSH2 0x307 PUSH2 0xD73 JUMP JUMPDEST PUSH1 0x40 MLOAD PUSH2 0x314 SWAP2 SWAP1 PUSH2 0x1F54 JUMP JUMPDEST PUSH1 0x40 MLOAD DUP1 SWAP2 SUB SWAP1 RETURN JUMPDEST CALLVALUE DUP1 ISZERO PUSH2 0x329 JUMPI PUSH1 0x0 DUP1 REVERT JUMPDEST POP PUSH2 0x344 PUSH1 0x4 DUP1 CALLDATASIZE SUB DUP2 ADD SWAP1 PUSH2 0x33F SWAP2 SWAP1 PUSH2 0x22D6 JUMP JUMPDEST PUSH2 0xDAB JUMP JUMPDEST STOP JUMPDEST CALLVALUE DUP1 ISZERO PUSH2 0x352 JUMPI PUSH1 0x0 DUP1 REVERT JUMPDEST POP PUSH2 0x36D PUSH1 0x4 DUP1 CALLDATASIZE SUB DUP2 ADD SWAP1 PUSH2 0x368 SWAP2 SWAP1 PUSH2 0x1FDB JUMP JUMPDEST PUSH2 0xFC4 JUMP JUMPDEST PUSH1 0x40 MLOAD PUSH2 0x37A SWAP2 SWAP1 PUSH2 0x1E0E JUMP JUMPDEST PUSH1 0x40 MLOAD DUP1 SWAP2 SUB SWAP1 RETURN JUMPDEST CALLVALUE DUP1 ISZERO PUSH2 0x38F JUMPI PUSH1 0x0 DUP1 REVERT JUMPDEST POP PUSH2 0x3AA PUSH1 0x4 DUP1 CALLDATASIZE SUB DUP2 ADD SWAP1 PUSH2 0x3A5 SWAP2 SWAP1 PUSH2 0x1F18 JUMP JUMPDEST PUSH2 0xFE9 JUMP JUMPDEST PUSH1 0x40 MLOAD PUSH2 0x3B7 SWAP2 SWAP1 PUSH2 0x1E0E JUMP JUMPDEST PUSH1 0x40 MLOAD DUP1 SWAP2 SUB SWAP1 RETURN JUMPDEST CALLVALUE DUP1 ISZERO PUSH2 0x3CC JUMPI PUSH1 0x0 DUP1 REVERT JUMPDEST POP PUSH2 0x3E7 PUSH1 0x4 DUP1 CALLDATASIZE SUB DUP2 ADD SWAP1 PUSH2 0x3E2 SWAP2 SWAP1 PUSH2 0x2345 JUMP JUMPDEST PUSH2 0x1001 JUMP JUMPDEST STOP JUMPDEST CALLVALUE DUP1 ISZERO PUSH2 0x3F5 JUMPI PUSH1 0x0 DUP1 REVERT JUMPDEST POP PUSH2 0x410 PUSH1 0x4 DUP1 CALLDATASIZE SUB DUP2 ADD SWAP1 PUSH2 0x40B SWAP2 SWAP1 PUSH2 0x244E JUMP JUMPDEST PUSH2 0x1236 JUMP JUMPDEST STOP JUMPDEST CALLVALUE DUP1 ISZERO PUSH2 0x41E JUMPI PUSH1 0x0 DUP1 REVERT JUMPDEST POP PUSH2 0x439 PUSH1 0x4 DUP1 CALLDATASIZE SUB DUP2 ADD SWAP1 PUSH2 0x434 SWAP2 SWAP1 PUSH2 0x1F18 JUMP JUMPDEST PUSH2 0x1579 JUMP JUMPDEST STOP JUMPDEST CALLVALUE DUP1 ISZERO PUSH2 0x447 JUMPI PUSH1 0x0 DUP1 REVERT JUMPDEST POP PUSH2 0x462 PUSH1 0x4 DUP1 CALLDATASIZE SUB DUP2 ADD SWAP1 PUSH2 0x45D SWAP2 SWAP1 PUSH2 0x1F9B JUMP JUMPDEST PUSH2 0x15FF JUMP JUMPDEST STOP JUMPDEST PUSH2 0x46C PUSH2 0x18C2 JUMP JUMPDEST PUSH1 0x33 PUSH1 0x0 ADD PUSH1 0x0 SWAP1 SLOAD SWAP1 PUSH2 0x100 EXP SWAP1 DIV PUSH8 0xFFFFFFFFFFFFFFFF AND PUSH8 0xFFFFFFFFFFFFFFFF AND TIMESTAMP LT DUP1 PUSH2 0x4BF JUMPI POP PUSH1 0x33 PUSH1 0x0 ADD PUSH1 0x8 SWAP1 SLOAD SWAP1 PUSH2 0x100 EXP SWAP1 DIV PUSH8 0xFFFFFFFFFFFFFFFF AND PUSH8 0xFFFFFFFFFFFFFFFF AND TIMESTAMP GT JUMPDEST ISZERO PUSH2 0x537 JUMPI TIMESTAMP PUSH1 0x33 PUSH1 0x0 ADD PUSH1 0x0 SWAP1 SLOAD SWAP1 PUSH2 0x100 EXP SWAP1 DIV PUSH8 0xFFFFFFFFFFFFFFFF AND PUSH1 0x33 PUSH1 0x0 ADD PUSH1 0x8 SWAP1 SLOAD SWAP1 PUSH2 0x100 EXP SWAP1 DIV PUSH8 0xFFFFFFFFFFFFFFFF AND PUSH1 0x40 MLOAD PUSH32 0xFA7410D400000000000000000000000000000000000000000000000000000000 DUP2 MSTORE PUSH1 0x4 ADD PUSH2 0x52E SWAP4 SWAP3 SWAP2 SWAP1 PUSH2 0x2533 JUMP JUMPDEST PUSH1 0x40 MLOAD DUP1 SWAP2 SUB SWAP1 REVERT JUMPDEST PUSH1 0x0 PUSH1 0x36 PUSH1 0x0 CALLER PUSH20 0xFFFFFFFFFFFFFFFFFFFFFFFFFFFFFFFFFFFFFFFF AND PUSH20 0xFFFFFFFFFFFFFFFFFFFFFFFFFFFFFFFFFFFFFFFF AND DUP2 MSTORE PUSH1 0x20 ADD SWAP1 DUP2 MSTORE PUSH1 0x20 ADD PUSH1 0x0 KECCAK256 PUSH1 0x0 DUP4 PUSH20 0xFFFFFFFFFFFFFFFFFFFFFFFFFFFFFFFFFFFFFFFF AND PUSH20 0xFFFFFFFFFFFFFFFFFFFFFFFFFFFFFFFFFFFFFFFF AND DUP2 MSTORE PUSH1 0x20 ADD SWAP1 DUP2 MSTORE PUSH1 0x20 ADD PUSH1 0x0 KECCAK256 SLOAD SWAP1 POP PUSH1 0x0 DUP2 GT PUSH2 0x5FB JUMPI PUSH1 0x40 MLOAD PUSH32 0x8C379A000000000000000000000000000000000000000000000000000000000 DUP2 MSTORE PUSH1 0x4 ADD PUSH2 0x5F2 SWAP1 PUSH2 0x25B6 JUMP JUMPDEST PUSH1 0x40 MLOAD DUP1 SWAP2 SUB SWAP1 REVERT JUMPDEST DUP1 PUSH1 0x35 PUSH1 0x0 DUP5 PUSH20 0xFFFFFFFFFFFFFFFFFFFFFFFFFFFFFFFFFFFFFFFF AND PUSH20 0xFFFFFFFFFFFFFFFFFFFFFFFFFFFFFFFFFFFFFFFF AND DUP2 MSTORE PUSH1 0x20 ADD SWAP1 DUP2 MSTORE PUSH1 0x20 ADD PUSH1 0x0 KECCAK256 SLOAD LT ISZERO PUSH2 0x67D JUMPI PUSH1 0x40 MLOAD PUSH32 0x8C379A000000000000000000000000000000000000000000000000000000000 DUP2 MSTORE PUSH1 0x4 ADD PUSH2 0x674 SWAP1 PUSH2 0x2622 JUMP JUMPDEST PUSH1 0x40 MLOAD DUP1 SWAP2 SUB SWAP1 REVERT JUMPDEST PUSH1 0x0 PUSH1 0x36 PUSH1 0x0 CALLER PUSH20 0xFFFFFFFFFFFFFFFFFFFFFFFFFFFFFFFFFFFFFFFF AND PUSH20 0xFFFFFFFFFFFFFFFFFFFFFFFFFFFFFFFFFFFFFFFF AND DUP2 MSTORE PUSH1 0x20 ADD SWAP1 DUP2 MSTORE PUSH1 0x20 ADD PUSH1 0x0 KECCAK256 PUSH1 0x0 DUP5 PUSH20 0xFFFFFFFFFFFFFFFFFFFFFFFFFFFFFFFFFFFFFFFF AND PUSH20 0xFFFFFFFFFFFFFFFFFFFFFFFFFFFFFFFFFFFFFFFF AND DUP2 MSTORE PUSH1 0x20 ADD SWAP1 DUP2 MSTORE PUSH1 0x20 ADD PUSH1 0x0 KECCAK256 DUP2 SWAP1 SSTORE POP DUP1 PUSH1 0x35 PUSH1 0x0 DUP5 PUSH20 0xFFFFFFFFFFFFFFFFFFFFFFFFFFFFFFFFFFFFFFFF AND PUSH20 0xFFFFFFFFFFFFFFFFFFFFFFFFFFFFFFFFFFFFFFFF AND DUP2 MSTORE PUSH1 0x20 ADD SWAP1 DUP2 MSTORE PUSH1 0x20 ADD PUSH1 0x0 KECCAK256 PUSH1 0x0 DUP3 DUP3 SLOAD PUSH2 0x74E SWAP2 SWAP1 PUSH2 0x2642 JUMP JUMPDEST SWAP3 POP POP DUP2 SWAP1 SSTORE POP PUSH1 0x0 PUSH20 0xFFFFFFFFFFFFFFFFFFFFFFFFFFFFFFFFFFFFFFFF AND DUP3 PUSH20 0xFFFFFFFFFFFFFFFFFFFFFFFFFFFFFFFFFFFFFFFF AND SUB PUSH2 0x83B JUMPI PUSH1 0x0 CALLER PUSH20 0xFFFFFFFFFFFFFFFFFFFFFFFFFFFFFFFFFFFFFFFF AND DUP3 PUSH1 0x40 MLOAD PUSH2 0x7AF SWAP1 PUSH2 0x26A7 JUMP JUMPDEST PUSH1 0x0 PUSH1 0x40 MLOAD DUP1 DUP4 SUB DUP2 DUP6 DUP8 GAS CALL SWAP3 POP POP POP RETURNDATASIZE DUP1 PUSH1 0x0 DUP2 EQ PUSH2 0x7EC JUMPI PUSH1 0x40 MLOAD SWAP2 POP PUSH1 0x1F NOT PUSH1 0x3F RETURNDATASIZE ADD AND DUP3 ADD PUSH1 0x40 MSTORE RETURNDATASIZE DUP3 MSTORE RETURNDATASIZE PUSH1 0x0 PUSH1 0x20 DUP5 ADD RETURNDATACOPY PUSH2 0x7F1 JUMP JUMPDEST PUSH1 0x60 SWAP2 POP JUMPDEST POP POP SWAP1 POP DUP1 PUSH2 0x835 JUMPI PUSH1 0x40 MLOAD PUSH32 0x8C379A000000000000000000000000000000000000000000000000000000000 DUP2 MSTORE PUSH1 0x4 ADD PUSH2 0x82C SWAP1 PUSH2 0x2708 JUMP JUMPDEST PUSH1 0x40 MLOAD DUP1 SWAP2 SUB SWAP1 REVERT JUMPDEST POP PUSH2 0x867 JUMP JUMPDEST PUSH2 0x866 CALLER DUP3 DUP5 PUSH20 0xFFFFFFFFFFFFFFFFFFFFFFFFFFFFFFFFFFFFFFFF AND PUSH2 0x1911 SWAP1 SWAP3 SWAP2 SWAP1 PUSH4 0xFFFFFFFF AND JUMP JUMPDEST JUMPDEST DUP2 PUSH20 0xFFFFFFFFFFFFFFFFFFFFFFFFFFFFFFFFFFFFFFFF AND CALLER PUSH20 0xFFFFFFFFFFFFFFFFFFFFFFFFFFFFFFFFFFFFFFFF AND PUSH32 0xF7A40077FF7A04C7E61F6F26FB13774259DDF1B6BCE9ECF26A8276CDD3992683 DUP4 PUSH1 0x40 MLOAD PUSH2 0x8C4 SWAP2 SWAP1 PUSH2 0x1E0E JUMP JUMPDEST PUSH1 0x40 MLOAD DUP1 SWAP2 SUB SWAP1 LOG3 POP PUSH2 0x8D5 PUSH2 0x1990 JUMP JUMPDEST POP JUMP JUMPDEST PUSH1 0x0 DUP2 JUMP JUMPDEST PUSH2 0x8E5 PUSH2 0x18C2 JUMP JUMPDEST PUSH1 0x0 PUSH20 0xFFFFFFFFFFFFFFFFFFFFFFFFFFFFFFFFFFFFFFFF AND DUP3 PUSH20 0xFFFFFFFFFFFFFFFFFFFFFFFFFFFFFFFFFFFFFFFF AND SUB PUSH2 0x960 JUMPI DUP1 CALLVALUE EQ PUSH2 0x95B JUMPI PUSH1 0x40 MLOAD PUSH32 0x8C379A000000000000000000000000000000000000000000000000000000000 DUP2 MSTORE PUSH1 0x4 ADD PUSH2 0x952 SWAP1 PUSH2 0x2774 JUMP JUMPDEST PUSH1 0x40 MLOAD DUP1 SWAP2 SUB SWAP1 REVERT JUMPDEST PUSH2 0x9D1 JUMP JUMPDEST PUSH1 0x0 DUP2 GT PUSH2 0x9A3 JUMPI PUSH1 0x40 MLOAD PUSH32 0x8C379A000000000000000000000000000000000000000000000000000000000 DUP2 MSTORE PUSH1 0x4 ADD PUSH2 0x99A SWAP1 PUSH2 0x2806 JUMP JUMPDEST PUSH1 0x40 MLOAD DUP1 SWAP2 SUB SWAP1 REVERT JUMPDEST PUSH2 0x9D0 CALLER ADDRESS DUP4 DUP6 PUSH20 0xFFFFFFFFFFFFFFFFFFFFFFFFFFFFFFFFFFFFFFFF AND PUSH2 0x199A SWAP1 SWAP4 SWAP3 SWAP2 SWAP1 PUSH4 0xFFFFFFFF AND JUMP JUMPDEST JUMPDEST DUP1 PUSH1 0x35 PUSH1 0x0 DUP5 PUSH20 0xFFFFFFFFFFFFFFFFFFFFFFFFFFFFFFFFFFFFFFFF AND PUSH20 0xFFFFFFFFFFFFFFFFFFFFFFFFFFFFFFFFFFFFFFFF AND DUP2 MSTORE PUSH1 0x20 ADD SWAP1 DUP2 MSTORE PUSH1 0x20 ADD PUSH1 0x0 KECCAK256 PUSH1 0x0 DUP3 DUP3 SLOAD PUSH2 0xA20 SWAP2 SWAP1 PUSH2 0x1DCB JUMP JUMPDEST SWAP3 POP POP DUP2 SWAP1 SSTORE POP DUP2 PUSH20 0xFFFFFFFFFFFFFFFFFFFFFFFFFFFFFFFFFFFFFFFF AND CALLER PUSH20 0xFFFFFFFFFFFFFFFFFFFFFFFFFFFFFFFFFFFFFFFF AND PUSH32 0x5548C837AB068CF56A2C2479DF0882A4922FD203EDB7517321831D95078C5F62 DUP4 PUSH1 0x40 MLOAD PUSH2 0xA84 SWAP2 SWAP1 PUSH2 0x1E0E JUMP JUMPDEST PUSH1 0x40 MLOAD DUP1 SWAP2 SUB SWAP1 LOG3 PUSH2 0xA94 PUSH2 0x1990 JUMP JUMPDEST POP POP JUMP JUMPDEST PUSH1 0x0 PUSH2 0xAA2 PUSH2 0x1A1C JUMP JUMPDEST SWAP1 POP PUSH1 0x0 DUP2 PUSH1 0x0 ADD PUSH1 0x8 SWAP1 SLOAD SWAP1 PUSH2 0x100 EXP SWAP1 DIV PUSH1 0xFF AND ISZERO SWAP1 POP PUSH1 0x0 DUP3 PUSH1 0x0 ADD PUSH1 0x0 SWAP1 SLOAD SWAP1 PUSH2 0x100 EXP SWAP1 DIV PUSH8 0xFFFFFFFFFFFFFFFF AND SWAP1 POP PUSH1 0x0 DUP1 DUP3 PUSH8 0xFFFFFFFFFFFFFFFF AND EQ DUP1 ISZERO PUSH2 0xAF0 JUMPI POP DUP3 JUMPDEST SWAP1 POP PUSH1 0x0 PUSH1 0x1 DUP4 PUSH8 0xFFFFFFFFFFFFFFFF AND EQ DUP1 ISZERO PUSH2 0xB25 JUMPI POP PUSH1 0x0 ADDRESS PUSH20 0xFFFFFFFFFFFFFFFFFFFFFFFFFFFFFFFFFFFFFFFF AND EXTCODESIZE EQ JUMPDEST SWAP1 POP DUP2 ISZERO DUP1 ISZERO PUSH2 0xB33 JUMPI POP DUP1 ISZERO JUMPDEST ISZERO PUSH2 0xB6A JUMPI PUSH1 0x40 MLOAD PUSH32 0xF92EE8A900000000000000000000000000000000000000000000000000000000 DUP2 MSTORE PUSH1 0x4 ADD PUSH1 0x40 MLOAD DUP1 SWAP2 SUB SWAP1 REVERT JUMPDEST PUSH1 0x1 DUP6 PUSH1 0x0 ADD PUSH1 0x0 PUSH2 0x100 EXP DUP2 SLOAD DUP2 PUSH8 0xFFFFFFFFFFFFFFFF MUL NOT AND SWAP1 DUP4 PUSH8 0xFFFFFFFFFFFFFFFF AND MUL OR SWAP1 SSTORE POP DUP4 ISZERO PUSH2 0xBBA JUMPI PUSH1 0x1 DUP6 PUSH1 0x0 ADD PUSH1 0x8 PUSH2 0x100 EXP DUP2 SLOAD DUP2 PUSH1 0xFF MUL NOT AND SWAP1 DUP4 ISZERO ISZERO MUL OR SWAP1 SSTORE POP JUMPDEST PUSH2 0xBC3 DUP7 PUSH2 0x1A44 JUMP JUMPDEST PUSH2 0xBCB PUSH2 0x1A58 JUMP JUMPDEST DUP7 PUSH1 0x32 PUSH1 0x0 PUSH2 0x100 EXP DUP2 SLOAD DUP2 PUSH20 0xFFFFFFFFFFFFFFFFFFFFFFFFFFFFFFFFFFFFFFFF MUL NOT AND SWAP1 DUP4 PUSH20 0xFFFFFFFFFFFFFFFFFFFFFFFFFFFFFFFFFFFFFFFF AND MUL OR SWAP1 SSTORE POP DUP4 ISZERO PUSH2 0xC68 JUMPI PUSH1 0x0 DUP6 PUSH1 0x0 ADD PUSH1 0x8 PUSH2 0x100 EXP DUP2 SLOAD DUP2 PUSH1 0xFF MUL NOT AND SWAP1 DUP4 ISZERO ISZERO MUL OR SWAP1 SSTORE POP PUSH32 0xC7F505B2F371AE2175EE4913F4499E1F2633A7B5936321EED1CDAEB6115181D2 PUSH1 0x1 PUSH1 0x40 MLOAD PUSH2 0xC5F SWAP2 SWAP1 PUSH2 0x2861 JUMP JUMPDEST PUSH1 0x40 MLOAD DUP1 SWAP2 SUB SWAP1 LOG1 JUMPDEST POP POP POP POP POP POP POP JUMP JUMPDEST PUSH2 0xC79 PUSH2 0x1A6A JUMP JUMPDEST PUSH2 0xC83 PUSH1 0x0 PUSH2 0x1AF1 JUMP JUMPDEST JUMP JUMPDEST PUSH1 0x32 PUSH1 0x0 SWAP1 SLOAD SWAP1 PUSH2 0x100 EXP SWAP1 DIV PUSH20 0xFFFFFFFFFFFFFFFFFFFFFFFFFFFFFFFFFFFFFFFF AND DUP2 JUMP JUMPDEST PUSH1 0x33 DUP1 PUSH1 0x0 ADD PUSH1 0x0 SWAP1 SLOAD SWAP1 PUSH2 0x100 EXP SWAP1 DIV PUSH8 0xFFFFFFFFFFFFFFFF AND SWAP1 DUP1 PUSH1 0x0 ADD PUSH1 0x8 SWAP1 SLOAD SWAP1 PUSH2 0x100 EXP SWAP1 DIV PUSH8 0xFFFFFFFFFFFFFFFF AND SWAP1 DUP1 PUSH1 0x1 ADD DUP1 SLOAD PUSH2 0xCF0 SWAP1 PUSH2 0x28AB JUMP JUMPDEST DUP1 PUSH1 0x1F ADD PUSH1 0x20 DUP1 SWAP2 DIV MUL PUSH1 0x20 ADD PUSH1 0x40 MLOAD SWAP1 DUP2 ADD PUSH1 0x40 MSTORE DUP1 SWAP3 SWAP2 SWAP1 DUP2 DUP2 MSTORE PUSH1 0x20 ADD DUP3 DUP1 SLOAD PUSH2 0xD1C SWAP1 PUSH2 0x28AB JUMP JUMPDEST DUP1 ISZERO PUSH2 0xD69 JUMPI DUP1 PUSH1 0x1F LT PUSH2 0xD3E JUMPI PUSH2 0x100 DUP1 DUP4 SLOAD DIV MUL DUP4 MSTORE SWAP2 PUSH1 0x20 ADD SWAP2 PUSH2 0xD69 JUMP JUMPDEST DUP3 ADD SWAP2 SWAP1 PUSH1 0x0 MSTORE PUSH1 0x20 PUSH1 0x0 KECCAK256 SWAP1 JUMPDEST DUP2 SLOAD DUP2 MSTORE SWAP1 PUSH1 0x1 ADD SWAP1 PUSH1 0x20 ADD DUP1 DUP4 GT PUSH2 0xD4C JUMPI DUP3 SWAP1 SUB PUSH1 0x1F AND DUP3 ADD SWAP2 JUMPDEST POP POP POP POP POP SWAP1 POP DUP4 JUMP JUMPDEST PUSH1 0x0 DUP1 PUSH2 0xD7E PUSH2 0x1BC8 JUMP JUMPDEST SWAP1 POP DUP1 PUSH1 0x0 ADD PUSH1 0x0 SWAP1 SLOAD SWAP1 PUSH2 0x100 EXP SWAP1 DIV PUSH20 0xFFFFFFFFFFFFFFFFFFFFFFFFFFFFFFFFFFFFFFFF AND SWAP2 POP POP SWAP1 JUMP JUMPDEST PUSH1 0x32 PUSH1 0x0 SWAP1 SLOAD SWAP1 PUSH2 0x100 EXP SWAP1 DIV PUSH20 0xFFFFFFFFFFFFFFFFFFFFFFFFFFFFFFFFFFFFFFFF AND PUSH20 0xFFFFFFFFFFFFFFFFFFFFFFFFFFFFFFFFFFFFFFFF AND PUSH4 0x24D7806C CALLER PUSH1 0x40 MLOAD DUP3 PUSH4 0xFFFFFFFF AND PUSH1 0xE0 SHL DUP2 MSTORE PUSH1 0x4 ADD PUSH2 0xE06 SWAP2 SWAP1 PUSH2 0x1F54 JUMP JUMPDEST PUSH1 0x20 PUSH1 0x40 MLOAD DUP1 DUP4 SUB DUP2 DUP7 GAS STATICCALL ISZERO DUP1 ISZERO PUSH2 0xE23 JUMPI RETURNDATASIZE PUSH1 0x0 DUP1 RETURNDATACOPY RETURNDATASIZE PUSH1 0x0 REVERT JUMPDEST POP POP POP POP PUSH1 0x40 MLOAD RETURNDATASIZE PUSH1 0x1F NOT PUSH1 0x1F DUP3 ADD AND DUP3 ADD DUP1 PUSH1 0x40 MSTORE POP DUP2 ADD SWAP1 PUSH2 0xE47 SWAP2 SWAP1 PUSH2 0x2914 JUMP JUMPDEST PUSH2 0xE86 JUMPI PUSH1 0x40 MLOAD PUSH32 0x8C379A000000000000000000000000000000000000000000000000000000000 DUP2 MSTORE PUSH1 0x4 ADD PUSH2 0xE7D SWAP1 PUSH2 0x298D JUMP JUMPDEST PUSH1 0x40 MLOAD DUP1 SWAP2 SUB SWAP1 REVERT JUMPDEST DUP2 PUSH8 0xFFFFFFFFFFFFFFFF AND DUP4 PUSH8 0xFFFFFFFFFFFFFFFF AND LT PUSH2 0xEDC JUMPI PUSH1 0x40 MLOAD PUSH32 0x8C379A000000000000000000000000000000000000000000000000000000000 DUP2 MSTORE PUSH1 0x4 ADD PUSH2 0xED3 SWAP1 PUSH2 0x2A1F JUMP JUMPDEST PUSH1 0x40 MLOAD DUP1 SWAP2 SUB SWAP1 REVERT JUMPDEST PUSH1 0x40 MLOAD DUP1 PUSH1 0x60 ADD PUSH1 0x40 MSTORE DUP1 DUP5 PUSH8 0xFFFFFFFFFFFFFFFF AND DUP2 MSTORE PUSH1 0x20 ADD DUP4 PUSH8 0xFFFFFFFFFFFFFFFF AND DUP2 MSTORE PUSH1 0x20 ADD DUP3 DUP2 MSTORE POP PUSH1 0x33 PUSH1 0x0 DUP3 ADD MLOAD DUP2 PUSH1 0x0 ADD PUSH1 0x0 PUSH2 0x100 EXP DUP2 SLOAD DUP2 PUSH8 0xFFFFFFFFFFFFFFFF MUL NOT AND SWAP1 DUP4 PUSH8 0xFFFFFFFFFFFFFFFF AND MUL OR SWAP1 SSTORE POP PUSH1 0x20 DUP3 ADD MLOAD DUP2 PUSH1 0x0 ADD PUSH1 0x8 PUSH2 0x100 EXP DUP2 SLOAD DUP2 PUSH8 0xFFFFFFFFFFFFFFFF MUL NOT AND SWAP1 DUP4 PUSH8 0xFFFFFFFFFFFFFFFF AND MUL OR SWAP1 SSTORE POP PUSH1 0x40 DUP3 ADD MLOAD DUP2 PUSH1 0x1 ADD SWAP1 DUP2 PUSH2 0xF80 SWAP2 SWAP1 PUSH2 0x2BE1 JUMP JUMPDEST POP SWAP1 POP POP PUSH32 0x9E6DB48F22357E6DCE2BBFF89DB8FF25F0012A08186D6EA72E2343FDC112E13 DUP4 DUP4 DUP4 PUSH1 0x40 MLOAD PUSH2 0xFB7 SWAP4 SWAP3 SWAP2 SWAP1 PUSH2 0x2CB3 JUMP JUMPDEST PUSH1 0x40 MLOAD DUP1 SWAP2 SUB SWAP1 LOG1 POP POP POP JUMP JUMPDEST PUSH1 0x36 PUSH1 0x20 MSTORE DUP2 PUSH1 0x0 MSTORE PUSH1 0x40 PUSH1 0x0 KECCAK256 PUSH1 0x20 MSTORE DUP1 PUSH1 0x0 MSTORE PUSH1 0x40 PUSH1 0x0 KECCAK256 PUSH1 0x0 SWAP2 POP SWAP2 POP POP SLOAD DUP2 JUMP JUMPDEST PUSH1 0x35 PUSH1 0x20 MSTORE DUP1 PUSH1 0x0 MSTORE PUSH1 0x40 PUSH1 0x0 KECCAK256 PUSH1 0x0 SWAP2 POP SWAP1 POP SLOAD DUP2 JUMP JUMPDEST PUSH1 0x32 PUSH1 0x0 SWAP1 SLOAD SWAP1 PUSH2 0x100 EXP SWAP1 DIV PUSH20 0xFFFFFFFFFFFFFFFFFFFFFFFFFFFFFFFFFFFFFFFF AND PUSH20 0xFFFFFFFFFFFFFFFFFFFFFFFFFFFFFFFFFFFFFFFF AND PUSH4 0x24D7806C CALLER PUSH1 0x40 MLOAD DUP3 PUSH4 0xFFFFFFFF AND PUSH1 0xE0 SHL DUP2 MSTORE PUSH1 0x4 ADD PUSH2 0x105C SWAP2 SWAP1 PUSH2 0x1F54 JUMP JUMPDEST PUSH1 0x20 PUSH1 0x40 MLOAD DUP1 DUP4 SUB DUP2 DUP7 GAS STATICCALL ISZERO DUP1 ISZERO PUSH2 0x1079 JUMPI RETURNDATASIZE PUSH1 0x0 DUP1 RETURNDATACOPY RETURNDATASIZE PUSH1 0x0 REVERT JUMPDEST POP POP POP POP PUSH1 0x40 MLOAD RETURNDATASIZE PUSH1 0x1F NOT PUSH1 0x1F DUP3 ADD AND DUP3 ADD DUP1 PUSH1 0x40 MSTORE POP DUP2 ADD SWAP1 PUSH2 0x109D SWAP2 SWAP1 PUSH2 0x2914 JUMP JUMPDEST PUSH2 0x10DC JUMPI PUSH1 0x40 MLOAD PUSH32 0x8C379A000000000000000000000000000000000000000000000000000000000 DUP2 MSTORE PUSH1 0x4 ADD PUSH2 0x10D3 SWAP1 PUSH2 0x298D JUMP JUMPDEST PUSH1 0x40 MLOAD DUP1 SWAP2 SUB SWAP1 REVERT JUMPDEST PUSH1 0x0 PUSH20 0xFFFFFFFFFFFFFFFFFFFFFFFFFFFFFFFFFFFFFFFF AND DUP4 PUSH20 0xFFFFFFFFFFFFFFFFFFFFFFFFFFFFFFFFFFFFFFFF AND SUB PUSH2 0x114B JUMPI PUSH1 0x40 MLOAD PUSH32 0x8C379A000000000000000000000000000000000000000000000000000000000 DUP2 MSTORE PUSH1 0x4 ADD PUSH2 0x1142 SWAP1 PUSH2 0x2D3D JUMP JUMPDEST PUSH1 0x40 MLOAD DUP1 SWAP2 SUB SWAP1 REVERT JUMPDEST DUP1 PUSH1 0x36 PUSH1 0x0 DUP6 PUSH20 0xFFFFFFFFFFFFFFFFFFFFFFFFFFFFFFFFFFFFFFFF AND PUSH20 0xFFFFFFFFFFFFFFFFFFFFFFFFFFFFFFFFFFFFFFFF AND DUP2 MSTORE PUSH1 0x20 ADD SWAP1 DUP2 MSTORE PUSH1 0x20 ADD PUSH1 0x0 KECCAK256 PUSH1 0x0 DUP5 PUSH20 0xFFFFFFFFFFFFFFFFFFFFFFFFFFFFFFFFFFFFFFFF AND PUSH20 0xFFFFFFFFFFFFFFFFFFFFFFFFFFFFFFFFFFFFFFFF AND DUP2 MSTORE PUSH1 0x20 ADD SWAP1 DUP2 MSTORE PUSH1 0x20 ADD PUSH1 0x0 KECCAK256 DUP2 SWAP1 SSTORE POP DUP2 PUSH20 0xFFFFFFFFFFFFFFFFFFFFFFFFFFFFFFFFFFFFFFFF AND DUP4 PUSH20 0xFFFFFFFFFFFFFFFFFFFFFFFFFFFFFFFFFFFFFFFF AND PUSH32 0x3D0601F3B0E52FD772F1FA71D91651B34B6A11144BEA30D74E0F820019A04DC2 DUP4 PUSH1 0x40 MLOAD PUSH2 0x1229 SWAP2 SWAP1 PUSH2 0x1E0E JUMP JUMPDEST PUSH1 0x40 MLOAD DUP1 SWAP2 SUB SWAP1 LOG3 POP POP POP JUMP JUMPDEST PUSH1 0x32 PUSH1 0x0 SWAP1 SLOAD SWAP1 PUSH2 0x100 EXP SWAP1 DIV PUSH20 0xFFFFFFFFFFFFFFFFFFFFFFFFFFFFFFFFFFFFFFFF AND PUSH20 0xFFFFFFFFFFFFFFFFFFFFFFFFFFFFFFFFFFFFFFFF AND PUSH4 0x24D7806C CALLER PUSH1 0x40 MLOAD DUP3 PUSH4 0xFFFFFFFF AND PUSH1 0xE0 SHL DUP2 MSTORE PUSH1 0x4 ADD PUSH2 0x1291 SWAP2 SWAP1 PUSH2 0x1F54 JUMP JUMPDEST PUSH1 0x20 PUSH1 0x40 MLOAD DUP1 DUP4 SUB DUP2 DUP7 GAS STATICCALL ISZERO DUP1 ISZERO PUSH2 0x12AE JUMPI RETURNDATASIZE PUSH1 0x0 DUP1 RETURNDATACOPY RETURNDATASIZE PUSH1 0x0 REVERT JUMPDEST POP POP POP POP PUSH1 0x40 MLOAD RETURNDATASIZE PUSH1 0x1F NOT PUSH1 0x1F DUP3 ADD AND DUP3 ADD DUP1 PUSH1 0x40 MSTORE POP DUP2 ADD SWAP1 PUSH2 0x12D2 SWAP2 SWAP1 PUSH2 0x2914 JUMP JUMPDEST PUSH2 0x1311 JUMPI PUSH1 0x40 MLOAD PUSH32 0x8C379A000000000000000000000000000000000000000000000000000000000 DUP2 MSTORE PUSH1 0x4 ADD PUSH2 0x1308 SWAP1 PUSH2 0x298D JUMP JUMPDEST PUSH1 0x40 MLOAD DUP1 SWAP2 SUB SWAP1 REVERT JUMPDEST DUP2 DUP2 SWAP1 POP DUP5 DUP5 SWAP1 POP EQ PUSH2 0x1359 JUMPI PUSH1 0x40 MLOAD PUSH32 0x8C379A000000000000000000000000000000000000000000000000000000000 DUP2 MSTORE PUSH1 0x4 ADD PUSH2 0x1350 SWAP1 PUSH2 0x2DA9 JUMP JUMPDEST PUSH1 0x40 MLOAD DUP1 SWAP2 SUB SWAP1 REVERT JUMPDEST DUP2 DUP2 SWAP1 POP DUP7 DUP7 SWAP1 POP EQ PUSH2 0x13A1 JUMPI PUSH1 0x40 MLOAD PUSH32 0x8C379A000000000000000000000000000000000000000000000000000000000 DUP2 MSTORE PUSH1 0x4 ADD PUSH2 0x1398 SWAP1 PUSH2 0x2DA9 JUMP JUMPDEST PUSH1 0x40 MLOAD DUP1 SWAP2 SUB SWAP1 REVERT JUMPDEST PUSH1 0x0 JUMPDEST DUP5 DUP5 SWAP1 POP DUP2 LT ISZERO PUSH2 0x1570 JUMPI DUP3 DUP3 DUP3 DUP2 DUP2 LT PUSH2 0x13C2 JUMPI PUSH2 0x13C1 PUSH2 0x2DC9 JUMP JUMPDEST JUMPDEST SWAP1 POP PUSH1 0x20 MUL ADD CALLDATALOAD PUSH1 0x36 PUSH1 0x0 DUP8 DUP8 DUP6 DUP2 DUP2 LT PUSH2 0x13E0 JUMPI PUSH2 0x13DF PUSH2 0x2DC9 JUMP JUMPDEST JUMPDEST SWAP1 POP PUSH1 0x20 MUL ADD PUSH1 0x20 DUP2 ADD SWAP1 PUSH2 0x13F5 SWAP2 SWAP1 PUSH2 0x1F18 JUMP JUMPDEST PUSH20 0xFFFFFFFFFFFFFFFFFFFFFFFFFFFFFFFFFFFFFFFF AND PUSH20 0xFFFFFFFFFFFFFFFFFFFFFFFFFFFFFFFFFFFFFFFF AND DUP2 MSTORE PUSH1 0x20 ADD SWAP1 DUP2 MSTORE PUSH1 0x20 ADD PUSH1 0x0 KECCAK256 PUSH1 0x0 DUP10 DUP10 DUP6 DUP2 DUP2 LT PUSH2 0x1444 JUMPI PUSH2 0x1443 PUSH2 0x2DC9 JUMP JUMPDEST JUMPDEST SWAP1 POP PUSH1 0x20 MUL ADD PUSH1 0x20 DUP2 ADD SWAP1 PUSH2 0x1459 SWAP2 SWAP1 PUSH2 0x1F18 JUMP JUMPDEST PUSH20 0xFFFFFFFFFFFFFFFFFFFFFFFFFFFFFFFFFFFFFFFF AND PUSH20 0xFFFFFFFFFFFFFFFFFFFFFFFFFFFFFFFFFFFFFFFF AND DUP2 MSTORE PUSH1 0x20 ADD SWAP1 DUP2 MSTORE PUSH1 0x20 ADD PUSH1 0x0 KECCAK256 DUP2 SWAP1 SSTORE POP DUP7 DUP7 DUP3 DUP2 DUP2 LT PUSH2 0x14AA JUMPI PUSH2 0x14A9 PUSH2 0x2DC9 JUMP JUMPDEST JUMPDEST SWAP1 POP PUSH1 0x20 MUL ADD PUSH1 0x20 DUP2 ADD SWAP1 PUSH2 0x14BF SWAP2 SWAP1 PUSH2 0x1F18 JUMP JUMPDEST PUSH20 0xFFFFFFFFFFFFFFFFFFFFFFFFFFFFFFFFFFFFFFFF AND DUP6 DUP6 DUP4 DUP2 DUP2 LT PUSH2 0x14E8 JUMPI PUSH2 0x14E7 PUSH2 0x2DC9 JUMP JUMPDEST JUMPDEST SWAP1 POP PUSH1 0x20 MUL ADD PUSH1 0x20 DUP2 ADD SWAP1 PUSH2 0x14FD SWAP2 SWAP1 PUSH2 0x1F18 JUMP JUMPDEST PUSH20 0xFFFFFFFFFFFFFFFFFFFFFFFFFFFFFFFFFFFFFFFF AND PUSH32 0x3D0601F3B0E52FD772F1FA71D91651B34B6A11144BEA30D74E0F820019A04DC2 DUP6 DUP6 DUP6 DUP2 DUP2 LT PUSH2 0x1547 JUMPI PUSH2 0x1546 PUSH2 0x2DC9 JUMP JUMPDEST JUMPDEST SWAP1 POP PUSH1 0x20 MUL ADD CALLDATALOAD PUSH1 0x40 MLOAD PUSH2 0x155B SWAP2 SWAP1 PUSH2 0x1E0E JUMP JUMPDEST PUSH1 0x40 MLOAD DUP1 SWAP2 SUB SWAP1 LOG3 DUP1 DUP1 PUSH1 0x1 ADD SWAP2 POP POP PUSH2 0x13A4 JUMP JUMPDEST POP POP POP POP POP POP POP JUMP JUMPDEST PUSH2 0x1581 PUSH2 0x1A6A JUMP JUMPDEST PUSH1 0x0 PUSH20 0xFFFFFFFFFFFFFFFFFFFFFFFFFFFFFFFFFFFFFFFF AND DUP2 PUSH20 0xFFFFFFFFFFFFFFFFFFFFFFFFFFFFFFFFFFFFFFFF AND SUB PUSH2 0x15F3 JUMPI PUSH1 0x0 PUSH1 0x40 MLOAD PUSH32 0x1E4FBDF700000000000000000000000000000000000000000000000000000000 DUP2 MSTORE PUSH1 0x4 ADD PUSH2 0x15EA SWAP2 SWAP1 PUSH2 0x1F54 JUMP JUMPDEST PUSH1 0x40 MLOAD DUP1 SWAP2 SUB SWAP1 REVERT JUMPDEST PUSH2 0x15FC DUP2 PUSH2 0x1AF1 JUMP JUMPDEST POP JUMP JUMPDEST PUSH2 0x1607 PUSH2 0x1A6A JUMP JUMPDEST PUSH2 0x160F PUSH2 0x18C2 JUMP JUMPDEST PUSH1 0x0 DUP2 GT PUSH2 0x1652 JUMPI PUSH1 0x40 MLOAD PUSH32 0x8C379A000000000000000000000000000000000000000000000000000000000 DUP2 MSTORE PUSH1 0x4 ADD PUSH2 0x1649 SWAP1 PUSH2 0x2E6A JUMP JUMPDEST PUSH1 0x40 MLOAD DUP1 SWAP2 SUB SWAP1 REVERT JUMPDEST DUP1 PUSH1 0x35 PUSH1 0x0 DUP5 PUSH20 0xFFFFFFFFFFFFFFFFFFFFFFFFFFFFFFFFFFFFFFFF AND PUSH20 0xFFFFFFFFFFFFFFFFFFFFFFFFFFFFFFFFFFFFFFFF AND DUP2 MSTORE PUSH1 0x20 ADD SWAP1 DUP2 MSTORE PUSH1 0x20 ADD PUSH1 0x0 KECCAK256 SLOAD LT ISZERO PUSH2 0x16D4 JUMPI PUSH1 0x40 MLOAD PUSH32 0x8C379A000000000000000000000000000000000000000000000000000000000 DUP2 MSTORE PUSH1 0x4 ADD PUSH2 0x16CB SWAP1 PUSH2 0x2ED6 JUMP JUMPDEST PUSH1 0x40 MLOAD DUP1 SWAP2 SUB SWAP1 REVERT JUMPDEST DUP1 PUSH1 0x35 PUSH1 0x0 DUP5 PUSH20 0xFFFFFFFFFFFFFFFFFFFFFFFFFFFFFFFFFFFFFFFF AND PUSH20 0xFFFFFFFFFFFFFFFFFFFFFFFFFFFFFFFFFFFFFFFF AND DUP2 MSTORE PUSH1 0x20 ADD SWAP1 DUP2 MSTORE PUSH1 0x20 ADD PUSH1 0x0 KECCAK256 PUSH1 0x0 DUP3 DUP3 SLOAD PUSH2 0x1723 SWAP2 SWAP1 PUSH2 0x2642 JUMP JUMPDEST SWAP3 POP POP DUP2 SWAP1 SSTORE POP PUSH1 0x0 PUSH20 0xFFFFFFFFFFFFFFFFFFFFFFFFFFFFFFFFFFFFFFFF AND DUP3 PUSH20 0xFFFFFFFFFFFFFFFFFFFFFFFFFFFFFFFFFFFFFFFF AND SUB PUSH2 0x1817 JUMPI PUSH1 0x0 PUSH2 0x1768 PUSH2 0xD73 JUMP JUMPDEST PUSH20 0xFFFFFFFFFFFFFFFFFFFFFFFFFFFFFFFFFFFFFFFF AND DUP3 PUSH1 0x40 MLOAD PUSH2 0x178B SWAP1 PUSH2 0x26A7 JUMP JUMPDEST PUSH1 0x0 PUSH1 0x40 MLOAD DUP1 DUP4 SUB DUP2 DUP6 DUP8 GAS CALL SWAP3 POP POP POP RETURNDATASIZE DUP1 PUSH1 0x0 DUP2 EQ PUSH2 0x17C8 JUMPI PUSH1 0x40 MLOAD SWAP2 POP PUSH1 0x1F NOT PUSH1 0x3F RETURNDATASIZE ADD AND DUP3 ADD PUSH1 0x40 MSTORE RETURNDATASIZE DUP3 MSTORE RETURNDATASIZE PUSH1 0x0 PUSH1 0x20 DUP5 ADD RETURNDATACOPY PUSH2 0x17CD JUMP JUMPDEST PUSH1 0x60 SWAP2 POP JUMPDEST POP POP SWAP1 POP DUP1 PUSH2 0x1811 JUMPI PUSH1 0x40 MLOAD PUSH32 0x8C379A000000000000000000000000000000000000000000000000000000000 DUP2 MSTORE PUSH1 0x4 ADD PUSH2 0x1808 SWAP1 PUSH2 0x2708 JUMP JUMPDEST PUSH1 0x40 MLOAD DUP1 SWAP2 SUB SWAP1 REVERT JUMPDEST POP PUSH2 0x184A JUMP JUMPDEST PUSH2 0x1849 PUSH2 0x1822 PUSH2 0xD73 JUMP JUMPDEST DUP3 DUP5 PUSH20 0xFFFFFFFFFFFFFFFFFFFFFFFFFFFFFFFFFFFFFFFF AND PUSH2 0x1911 SWAP1 SWAP3 SWAP2 SWAP1 PUSH4 0xFFFFFFFF AND JUMP JUMPDEST JUMPDEST DUP2 PUSH20 0xFFFFFFFFFFFFFFFFFFFFFFFFFFFFFFFFFFFFFFFF AND PUSH2 0x1869 PUSH2 0xD73 JUMP JUMPDEST PUSH20 0xFFFFFFFFFFFFFFFFFFFFFFFFFFFFFFFFFFFFFFFF AND PUSH32 0x9B1BFA7FA9EE420A16E124F794C35AC9F90472ACC99140EB2F6447C714CAD8EB DUP4 PUSH1 0x40 MLOAD PUSH2 0x18AE SWAP2 SWAP1 PUSH2 0x1E0E JUMP JUMPDEST PUSH1 0x40 MLOAD DUP1 SWAP2 SUB SWAP1 LOG3 PUSH2 0x18BE PUSH2 0x1990 JUMP JUMPDEST POP POP JUMP JUMPDEST PUSH1 0x2 PUSH1 0x0 SLOAD SUB PUSH2 0x1907 JUMPI PUSH1 0x40 MLOAD PUSH32 0x8C379A000000000000000000000000000000000000000000000000000000000 DUP2 MSTORE PUSH1 0x4 ADD PUSH2 0x18FE SWAP1 PUSH2 0x2F42 JUMP JUMPDEST PUSH1 0x40 MLOAD DUP1 SWAP2 SUB SWAP1 REVERT JUMPDEST PUSH1 0x2 PUSH1 0x0 DUP2 SWAP1 SSTORE POP JUMP JUMPDEST PUSH2 0x198B DUP4 DUP5 PUSH20 0xFFFFFFFFFFFFFFFFFFFFFFFFFFFFFFFFFFFFFFFF AND PUSH4 0xA9059CBB DUP6 DUP6 PUSH1 0x40 MLOAD PUSH1 0x24 ADD PUSH2 0x1944 SWAP3 SWAP2 SWAP1 PUSH2 0x2F62 JUMP JUMPDEST PUSH1 0x40 MLOAD PUSH1 0x20 DUP2 DUP4 SUB SUB DUP2 MSTORE SWAP1 PUSH1 0x40 MSTORE SWAP2 POP PUSH1 0xE0 SHL PUSH1 0x20 DUP3 ADD DUP1 MLOAD PUSH28 0xFFFFFFFFFFFFFFFFFFFFFFFFFFFFFFFFFFFFFFFFFFFFFFFFFFFFFFFF DUP4 DUP2 DUP4 AND OR DUP4 MSTORE POP POP POP POP PUSH2 0x1BF0 JUMP JUMPDEST POP POP POP JUMP JUMPDEST PUSH1 0x1 PUSH1 0x0 DUP2 SWAP1 SSTORE POP JUMP JUMPDEST PUSH2 0x1A16 DUP5 DUP6 PUSH20 0xFFFFFFFFFFFFFFFFFFFFFFFFFFFFFFFFFFFFFFFF AND PUSH4 0x23B872DD DUP7 DUP7 DUP7 PUSH1 0x40 MLOAD PUSH1 0x24 ADD PUSH2 0x19CF SWAP4 SWAP3 SWAP2 SWAP1 PUSH2 0x2F8B JUMP JUMPDEST PUSH1 0x40 MLOAD PUSH1 0x20 DUP2 DUP4 SUB SUB DUP2 MSTORE SWAP1 PUSH1 0x40 MSTORE SWAP2 POP PUSH1 0xE0 SHL PUSH1 0x20 DUP3 ADD DUP1 MLOAD PUSH28 0xFFFFFFFFFFFFFFFFFFFFFFFFFFFFFFFFFFFFFFFFFFFFFFFFFFFFFFFF DUP4 DUP2 DUP4 AND OR DUP4 MSTORE POP POP POP POP PUSH2 0x1BF0 JUMP JUMPDEST POP POP POP POP JUMP JUMPDEST PUSH1 0x0 PUSH32 0xF0C57E16840DF040F15088DC2F81FE391C3923BEC73E23A9662EFC9C229C6A00 SWAP1 POP SWAP1 JUMP JUMPDEST PUSH2 0x1A4C PUSH2 0x1C92 JUMP JUMPDEST PUSH2 0x1A55 DUP2 PUSH2 0x1CD2 JUMP JUMPDEST POP JUMP JUMPDEST PUSH2 0x1A60 PUSH2 0x1C92 JUMP JUMPDEST PUSH2 0x1A68 PUSH2 0x1D58 JUMP JUMPDEST JUMP JUMPDEST PUSH2 0x1A72 PUSH2 0x1D6A JUMP JUMPDEST PUSH20 0xFFFFFFFFFFFFFFFFFFFFFFFFFFFFFFFFFFFFFFFF AND PUSH2 0x1A90 PUSH2 0xD73 JUMP JUMPDEST PUSH20 0xFFFFFFFFFFFFFFFFFFFFFFFFFFFFFFFFFFFFFFFF AND EQ PUSH2 0x1AEF JUMPI PUSH2 0x1AB3 PUSH2 0x1D6A JUMP JUMPDEST PUSH1 0x40 MLOAD PUSH32 0x118CDAA700000000000000000000000000000000000000000000000000000000 DUP2 MSTORE PUSH1 0x4 ADD PUSH2 0x1AE6 SWAP2 SWAP1 PUSH2 0x1F54 JUMP JUMPDEST PUSH1 0x40 MLOAD DUP1 SWAP2 SUB SWAP1 REVERT JUMPDEST JUMP JUMPDEST PUSH1 0x0 PUSH2 0x1AFB PUSH2 0x1BC8 JUMP JUMPDEST SWAP1 POP PUSH1 0x0 DUP2 PUSH1 0x0 ADD PUSH1 0x0 SWAP1 SLOAD SWAP1 PUSH2 0x100 EXP SWAP1 DIV PUSH20 0xFFFFFFFFFFFFFFFFFFFFFFFFFFFFFFFFFFFFFFFF AND SWAP1 POP DUP3 DUP3 PUSH1 0x0 ADD PUSH1 0x0 PUSH2 0x100 EXP DUP2 SLOAD DUP2 PUSH20 0xFFFFFFFFFFFFFFFFFFFFFFFFFFFFFFFFFFFFFFFF MUL NOT AND SWAP1 DUP4 PUSH20 0xFFFFFFFFFFFFFFFFFFFFFFFFFFFFFFFFFFFFFFFF AND MUL OR SWAP1 SSTORE POP DUP3 PUSH20 0xFFFFFFFFFFFFFFFFFFFFFFFFFFFFFFFFFFFFFFFF AND DUP2 PUSH20 0xFFFFFFFFFFFFFFFFFFFFFFFFFFFFFFFFFFFFFFFF AND PUSH32 0x8BE0079C531659141344CD1FD0A4F28419497F9722A3DAAFE3B4186F6B6457E0 PUSH1 0x40 MLOAD PUSH1 0x40 MLOAD DUP1 SWAP2 SUB SWAP1 LOG3 POP POP POP JUMP JUMPDEST PUSH1 0x0 PUSH32 0x9016D09D72D40FDAE2FD8CEAC6B6234C7706214FD39C1CD1E609A0528C199300 SWAP1 POP SWAP1 JUMP JUMPDEST PUSH1 0x0 DUP1 PUSH1 0x20 PUSH1 0x0 DUP5 MLOAD PUSH1 0x20 DUP7 ADD PUSH1 0x0 DUP9 GAS CALL DUP1 PUSH2 0x1C13 JUMPI PUSH1 0x40 MLOAD RETURNDATASIZE PUSH1 0x0 DUP3 RETURNDATACOPY RETURNDATASIZE DUP2 REVERT JUMPDEST RETURNDATASIZE SWAP3 POP PUSH1 0x0 MLOAD SWAP2 POP POP PUSH1 0x0 DUP3 EQ PUSH2 0x1C2E JUMPI PUSH1 0x1 DUP2 EQ ISZERO PUSH2 0x1C4A JUMP JUMPDEST PUSH1 0x0 DUP5 PUSH20 0xFFFFFFFFFFFFFFFFFFFFFFFFFFFFFFFFFFFFFFFF AND EXTCODESIZE EQ JUMPDEST ISZERO PUSH2 0x1C8C JUMPI DUP4 PUSH1 0x40 MLOAD PUSH32 0x5274AFE700000000000000000000000000000000000000000000000000000000 DUP2 MSTORE PUSH1 0x4 ADD PUSH2 0x1C83 SWAP2 SWAP1 PUSH2 0x1F54 JUMP JUMPDEST PUSH1 0x40 MLOAD DUP1 SWAP2 SUB SWAP1 REVERT JUMPDEST POP POP POP POP JUMP JUMPDEST PUSH2 0x1C9A PUSH2 0x1D72 JUMP JUMPDEST PUSH2 0x1CD0 JUMPI PUSH1 0x40 MLOAD PUSH32 0xD7E6BCF800000000000000000000000000000000000000000000000000000000 DUP2 MSTORE PUSH1 0x4 ADD PUSH1 0x40 MLOAD DUP1 SWAP2 SUB SWAP1 REVERT JUMPDEST JUMP JUMPDEST PUSH2 0x1CDA PUSH2 0x1C92 JUMP JUMPDEST PUSH1 0x0 PUSH20 0xFFFFFFFFFFFFFFFFFFFFFFFFFFFFFFFFFFFFFFFF AND DUP2 PUSH20 0xFFFFFFFFFFFFFFFFFFFFFFFFFFFFFFFFFFFFFFFF AND SUB PUSH2 0x1D4C JUMPI PUSH1 0x0 PUSH1 0x40 MLOAD PUSH32 0x1E4FBDF700000000000000000000000000000000000000000000000000000000 DUP2 MSTORE PUSH1 0x4 ADD PUSH2 0x1D43 SWAP2 SWAP1 PUSH2 0x1F54 JUMP JUMPDEST PUSH1 0x40 MLOAD DUP1 SWAP2 SUB SWAP1 REVERT JUMPDEST PUSH2 0x1D55 DUP2 PUSH2 0x1AF1 JUMP JUMPDEST POP JUMP JUMPDEST PUSH2 0x1D60 PUSH2 0x1C92 JUMP JUMPDEST PUSH1 0x1 PUSH1 0x0 DUP2 SWAP1 SSTORE POP JUMP JUMPDEST PUSH1 0x0 CALLER SWAP1 POP SWAP1 JUMP JUMPDEST PUSH1 0x0 PUSH2 0x1D7C PUSH2 0x1A1C JUMP JUMPDEST PUSH1 0x0 ADD PUSH1 0x8 SWAP1 SLOAD SWAP1 PUSH2 0x100 EXP SWAP1 DIV PUSH1 0xFF AND SWAP1 POP SWAP1 JUMP JUMPDEST PUSH1 0x0 DUP2 SWAP1 POP SWAP2 SWAP1 POP JUMP JUMPDEST PUSH32 0x4E487B7100000000000000000000000000000000000000000000000000000000 PUSH1 0x0 MSTORE PUSH1 0x11 PUSH1 0x4 MSTORE PUSH1 0x24 PUSH1 0x0 REVERT JUMPDEST PUSH1 0x0 PUSH2 0x1DD6 DUP3 PUSH2 0x1D92 JUMP JUMPDEST SWAP2 POP PUSH2 0x1DE1 DUP4 PUSH2 0x1D92 JUMP JUMPDEST SWAP3 POP DUP3 DUP3 ADD SWAP1 POP DUP1 DUP3 GT ISZERO PUSH2 0x1DF9 JUMPI PUSH2 0x1DF8 PUSH2 0x1D9C JUMP JUMPDEST JUMPDEST SWAP3 SWAP2 POP POP JUMP JUMPDEST PUSH2 0x1E08 DUP2 PUSH2 0x1D92 JUMP JUMPDEST DUP3 MSTORE POP POP JUMP JUMPDEST PUSH1 0x0 PUSH1 0x20 DUP3 ADD SWAP1 POP PUSH2 0x1E23 PUSH1 0x0 DUP4 ADD DUP5 PUSH2 0x1DFF JUMP JUMPDEST SWAP3 SWAP2 POP POP JUMP JUMPDEST PUSH1 0x0 DUP3 DUP3 MSTORE PUSH1 0x20 DUP3 ADD SWAP1 POP SWAP3 SWAP2 POP POP JUMP JUMPDEST PUSH32 0x537765657473706F743A20757365206465706F73697428290000000000000000 PUSH1 0x0 DUP3 ADD MSTORE POP JUMP JUMPDEST PUSH1 0x0 PUSH2 0x1E70 PUSH1 0x18 DUP4 PUSH2 0x1E29 JUMP JUMPDEST SWAP2 POP PUSH2 0x1E7B DUP3 PUSH2 0x1E3A JUMP JUMPDEST PUSH1 0x20 DUP3 ADD SWAP1 POP SWAP2 SWAP1 POP JUMP JUMPDEST PUSH1 0x0 PUSH1 0x20 DUP3 ADD SWAP1 POP DUP2 DUP2 SUB PUSH1 0x0 DUP4 ADD MSTORE PUSH2 0x1E9F DUP2 PUSH2 0x1E63 JUMP JUMPDEST SWAP1 POP SWAP2 SWAP1 POP JUMP JUMPDEST PUSH1 0x0 PUSH1 0x40 MLOAD SWAP1 POP SWAP1 JUMP JUMPDEST PUSH1 0x0 DUP1 REVERT JUMPDEST PUSH1 0x0 DUP1 REVERT JUMPDEST PUSH1 0x0 PUSH20 0xFFFFFFFFFFFFFFFFFFFFFFFFFFFFFFFFFFFFFFFF DUP3 AND SWAP1 POP SWAP2 SWAP1 POP JUMP JUMPDEST PUSH1 0x0 PUSH2 0x1EE5 DUP3 PUSH2 0x1EBA JUMP JUMPDEST SWAP1 POP SWAP2 SWAP1 POP JUMP JUMPDEST PUSH2 0x1EF5 DUP2 PUSH2 0x1EDA JUMP JUMPDEST DUP2 EQ PUSH2 0x1F00 JUMPI PUSH1 0x0 DUP1 REVERT JUMPDEST POP JUMP JUMPDEST PUSH1 0x0 DUP2 CALLDATALOAD SWAP1 POP PUSH2 0x1F12 DUP2 PUSH2 0x1EEC JUMP JUMPDEST SWAP3 SWAP2 POP POP JUMP JUMPDEST PUSH1 0x0 PUSH1 0x20 DUP3 DUP5 SUB SLT ISZERO PUSH2 0x1F2E JUMPI PUSH2 0x1F2D PUSH2 0x1EB0 JUMP JUMPDEST JUMPDEST PUSH1 0x0 PUSH2 0x1F3C DUP5 DUP3 DUP6 ADD PUSH2 0x1F03 JUMP JUMPDEST SWAP2 POP POP SWAP3 SWAP2 POP POP JUMP JUMPDEST PUSH2 0x1F4E DUP2 PUSH2 0x1EDA JUMP JUMPDEST DUP3 MSTORE POP POP JUMP JUMPDEST PUSH1 0x0 PUSH1 0x20 DUP3 ADD SWAP1 POP PUSH2 0x1F69 PUSH1 0x0 DUP4 ADD DUP5 PUSH2 0x1F45 JUMP JUMPDEST SWAP3 SWAP2 POP POP JUMP JUMPDEST PUSH2 0x1F78 DUP2 PUSH2 0x1D92 JUMP JUMPDEST DUP2 EQ PUSH2 0x1F83 JUMPI PUSH1 0x0 DUP1 REVERT JUMPDEST POP JUMP JUMPDEST PUSH1 0x0 DUP2 CALLDATALOAD SWAP1 POP PUSH2 0x1F95 DUP2 PUSH2 0x1F6F JUMP JUMPDEST SWAP3 SWAP2 POP POP JUMP JUMPDEST PUSH1 0x0 DUP1 PUSH1 0x40 DUP4 DUP6 SUB SLT ISZERO PUSH2 0x1FB2 JUMPI PUSH2 0x1FB1 PUSH2 0x1EB0 JUMP JUMPDEST JUMPDEST PUSH1 0x0 PUSH2 0x1FC0 DUP6 DUP3 DUP7 ADD PUSH2 0x1F03 JUMP JUMPDEST SWAP3 POP POP PUSH1 0x20 PUSH2 0x1FD1 DUP6 DUP3 DUP7 ADD PUSH2 0x1F86 JUMP JUMPDEST SWAP2 POP POP SWAP3 POP SWAP3 SWAP1 POP JUMP JUMPDEST PUSH1 0x0 DUP1 PUSH1 0x40 DUP4 DUP6 SUB SLT ISZERO PUSH2 0x1FF2 JUMPI PUSH2 0x1FF1 PUSH2 0x1EB0 JUMP JUMPDEST JUMPDEST PUSH1 0x0 PUSH2 0x2000 DUP6 DUP3 DUP7 ADD PUSH2 0x1F03 JUMP JUMPDEST SWAP3 POP POP PUSH1 0x20 PUSH2 0x2011 DUP6 DUP3 DUP7 ADD PUSH2 0x1F03 JUMP JUMPDEST SWAP2 POP POP SWAP3 POP SWAP3 SWAP1 POP JUMP JUMPDEST PUSH1 0x0 DUP2 SWAP1 POP SWAP2 SWAP1 POP JUMP JUMPDEST PUSH1 0x0 PUSH2 0x2040 PUSH2 0x203B PUSH2 0x2036 DUP5 PUSH2 0x1EBA JUMP JUMPDEST PUSH2 0x201B JUMP JUMPDEST PUSH2 0x1EBA JUMP JUMPDEST SWAP1 POP SWAP2 SWAP1 POP JUMP JUMPDEST PUSH1 0x0 PUSH2 0x2052 DUP3 PUSH2 0x2025 JUMP JUMPDEST SWAP1 POP SWAP2 SWAP1 POP JUMP JUMPDEST PUSH1 0x0 PUSH2 0x2064 DUP3 PUSH2 0x2047 JUMP JUMPDEST SWAP1 POP SWAP2 SWAP1 POP JUMP JUMPDEST PUSH2 0x2074 DUP2 PUSH2 0x2059 JUMP JUMPDEST DUP3 MSTORE POP POP JUMP JUMPDEST PUSH1 0x0 PUSH1 0x20 DUP3 ADD SWAP1 POP PUSH2 0x208F PUSH1 0x0 DUP4 ADD DUP5 PUSH2 0x206B JUMP JUMPDEST SWAP3 SWAP2 POP POP JUMP JUMPDEST PUSH1 0x0 PUSH8 0xFFFFFFFFFFFFFFFF DUP3 AND SWAP1 POP SWAP2 SWAP1 POP JUMP JUMPDEST PUSH2 0x20B2 DUP2 PUSH2 0x2095 JUMP JUMPDEST DUP3 MSTORE POP POP JUMP JUMPDEST PUSH1 0x0 DUP2 MLOAD SWAP1 POP SWAP2 SWAP1 POP JUMP JUMPDEST PUSH1 0x0 JUMPDEST DUP4 DUP2 LT ISZERO PUSH2 0x20E1 JUMPI DUP1 DUP3 ADD MLOAD DUP2 DUP5 ADD MSTORE PUSH1 0x20 DUP2 ADD SWAP1 POP PUSH2 0x20C6 JUMP JUMPDEST PUSH1 0x0 DUP5 DUP5 ADD MSTORE POP POP POP POP JUMP JUMPDEST PUSH1 0x0 PUSH1 0x1F NOT PUSH1 0x1F DUP4 ADD AND SWAP1 POP SWAP2 SWAP1 POP JUMP JUMPDEST PUSH1 0x0 PUSH2 0x2109 DUP3 PUSH2 0x20B8 JUMP JUMPDEST PUSH2 0x2113 DUP2 DUP6 PUSH2 0x1E29 JUMP JUMPDEST SWAP4 POP PUSH2 0x2123 DUP2 DUP6 PUSH1 0x20 DUP7 ADD PUSH2 0x20C3 JUMP JUMPDEST PUSH2 0x212C DUP2 PUSH2 0x20ED JUMP JUMPDEST DUP5 ADD SWAP2 POP POP SWAP3 SWAP2 POP POP JUMP JUMPDEST PUSH1 0x0 PUSH1 0x60 DUP3 ADD SWAP1 POP PUSH2 0x214C PUSH1 0x0 DUP4 ADD DUP7 PUSH2 0x20A9 JUMP JUMPDEST PUSH2 0x2159 PUSH1 0x20 DUP4 ADD DUP6 PUSH2 0x20A9 JUMP JUMPDEST DUP2 DUP2 SUB PUSH1 0x40 DUP4 ADD MSTORE PUSH2 0x216B DUP2 DUP5 PUSH2 0x20FE JUMP JUMPDEST SWAP1 POP SWAP5 SWAP4 POP POP POP POP JUMP JUMPDEST PUSH2 0x217E DUP2 PUSH2 0x2095 JUMP JUMPDEST DUP2 EQ PUSH2 0x2189 JUMPI PUSH1 0x0 DUP1 REVERT JUMPDEST POP JUMP JUMPDEST PUSH1 0x0 DUP2 CALLDATALOAD SWAP1 POP PUSH2 0x219B DUP2 PUSH2 0x2175 JUMP JUMPDEST SWAP3 SWAP2 POP POP JUMP JUMPDEST PUSH1 0x0 DUP1 REVERT JUMPDEST PUSH1 0x0 DUP1 REVERT JUMPDEST PUSH32 0x4E487B7100000000000000000000000000000000000000000000000000000000 PUSH1 0x0 MSTORE PUSH1 0x41 PUSH1 0x4 MSTORE PUSH1 0x24 PUSH1 0x0 REVERT JUMPDEST PUSH2 0x21E3 DUP3 PUSH2 0x20ED JUMP JUMPDEST DUP2 ADD DUP2 DUP2 LT PUSH8 0xFFFFFFFFFFFFFFFF DUP3 GT OR ISZERO PUSH2 0x2202 JUMPI PUSH2 0x2201 PUSH2 0x21AB JUMP JUMPDEST JUMPDEST DUP1 PUSH1 0x40 MSTORE POP POP POP JUMP JUMPDEST PUSH1 0x0 PUSH2 0x2215 PUSH2 0x1EA6 JUMP JUMPDEST SWAP1 POP PUSH2 0x2221 DUP3 DUP3 PUSH2 0x21DA JUMP JUMPDEST SWAP2 SWAP1 POP JUMP JUMPDEST PUSH1 0x0 PUSH8 0xFFFFFFFFFFFFFFFF DUP3 GT ISZERO PUSH2 0x2241 JUMPI PUSH2 0x2240 PUSH2 0x21AB JUMP JUMPDEST JUMPDEST PUSH2 0x224A DUP3 PUSH2 0x20ED JUMP JUMPDEST SWAP1 POP PUSH1 0x20 DUP2 ADD SWAP1 POP SWAP2 SWAP1 POP JUMP JUMPDEST DUP3 DUP2 DUP4 CALLDATACOPY PUSH1 0x0 DUP4 DUP4 ADD MSTORE POP POP POP JUMP JUMPDEST PUSH1 0x0 PUSH2 0x2279 PUSH2 0x2274 DUP5 PUSH2 0x2226 JUMP JUMPDEST PUSH2 0x220B JUMP JUMPDEST SWAP1 POP DUP3 DUP2 MSTORE PUSH1 0x20 DUP2 ADD DUP5 DUP5 DUP5 ADD GT ISZERO PUSH2 0x2295 JUMPI PUSH2 0x2294 PUSH2 0x21A6 JUMP JUMPDEST JUMPDEST PUSH2 0x22A0 DUP5 DUP3 DUP6 PUSH2 0x2257 JUMP JUMPDEST POP SWAP4 SWAP3 POP POP POP JUMP JUMPDEST PUSH1 0x0 DUP3 PUSH1 0x1F DUP4 ADD SLT PUSH2 0x22BD JUMPI PUSH2 0x22BC PUSH2 0x21A1 JUMP JUMPDEST JUMPDEST DUP2 CALLDATALOAD PUSH2 0x22CD DUP5 DUP3 PUSH1 0x20 DUP7 ADD PUSH2 0x2266 JUMP JUMPDEST SWAP2 POP POP SWAP3 SWAP2 POP POP JUMP JUMPDEST PUSH1 0x0 DUP1 PUSH1 0x0 PUSH1 0x60 DUP5 DUP7 SUB SLT ISZERO PUSH2 0x22EF JUMPI PUSH2 0x22EE PUSH2 0x1EB0 JUMP JUMPDEST JUMPDEST PUSH1 0x0 PUSH2 0x22FD DUP7 DUP3 DUP8 ADD PUSH2 0x218C JUMP JUMPDEST SWAP4 POP POP PUSH1 0x20 PUSH2 0x230E DUP7 DUP3 DUP8 ADD PUSH2 0x218C JUMP JUMPDEST SWAP3 POP POP PUSH1 0x40 DUP5 ADD CALLDATALOAD PUSH8 0xFFFFFFFFFFFFFFFF DUP2 GT ISZERO PUSH2 0x232F JUMPI PUSH2 0x232E PUSH2 0x1EB5 JUMP JUMPDEST JUMPDEST PUSH2 0x233B DUP7 DUP3 DUP8 ADD PUSH2 0x22A8 JUMP JUMPDEST SWAP2 POP POP SWAP3 POP SWAP3 POP SWAP3 JUMP JUMPDEST PUSH1 0x0 DUP1 PUSH1 0x0 PUSH1 0x60 DUP5 DUP7 SUB SLT ISZERO PUSH2 0x235E JUMPI PUSH2 0x235D PUSH2 0x1EB0 JUMP JUMPDEST JUMPDEST PUSH1 0x0 PUSH2 0x236C DUP7 DUP3 DUP8 ADD PUSH2 0x1F03 JUMP JUMPDEST SWAP4 POP POP PUSH1 0x20 PUSH2 0x237D DUP7 DUP3 DUP8 ADD PUSH2 0x1F03 JUMP JUMPDEST SWAP3 POP POP PUSH1 0x40 PUSH2 0x238E DUP7 DUP3 DUP8 ADD PUSH2 0x1F86 JUMP JUMPDEST SWAP2 POP POP SWAP3 POP SWAP3 POP SWAP3 JUMP JUMPDEST PUSH1 0x0 DUP1 REVERT JUMPDEST PUSH1 0x0 DUP1 REVERT JUMPDEST PUSH1 0x0 DUP1 DUP4 PUSH1 0x1F DUP5 ADD SLT PUSH2 0x23B8 JUMPI PUSH2 0x23B7 PUSH2 0x21A1 JUMP JUMPDEST JUMPDEST DUP3 CALLDATALOAD SWAP1 POP PUSH8 0xFFFFFFFFFFFFFFFF DUP2 GT ISZERO PUSH2 0x23D5 JUMPI PUSH2 0x23D4 PUSH2 0x2398 JUMP JUMPDEST JUMPDEST PUSH1 0x20 DUP4 ADD SWAP2 POP DUP4 PUSH1 0x20 DUP3 MUL DUP4 ADD GT ISZERO PUSH2 0x23F1 JUMPI PUSH2 0x23F0 PUSH2 0x239D JUMP JUMPDEST JUMPDEST SWAP3 POP SWAP3 SWAP1 POP JUMP JUMPDEST PUSH1 0x0 DUP1 DUP4 PUSH1 0x1F DUP5 ADD SLT PUSH2 0x240E JUMPI PUSH2 0x240D PUSH2 0x21A1 JUMP JUMPDEST JUMPDEST DUP3 CALLDATALOAD SWAP1 POP PUSH8 0xFFFFFFFFFFFFFFFF DUP2 GT ISZERO PUSH2 0x242B JUMPI PUSH2 0x242A PUSH2 0x2398 JUMP JUMPDEST JUMPDEST PUSH1 0x20 DUP4 ADD SWAP2 POP DUP4 PUSH1 0x20 DUP3 MUL DUP4 ADD GT ISZERO PUSH2 0x2447 JUMPI PUSH2 0x2446 PUSH2 0x239D JUMP JUMPDEST JUMPDEST SWAP3 POP SWAP3 SWAP1 POP JUMP JUMPDEST PUSH1 0x0 DUP1 PUSH1 0x0 DUP1 PUSH1 0x0 DUP1 PUSH1 0x60 DUP8 DUP10 SUB SLT ISZERO PUSH2 0x246B JUMPI PUSH2 0x246A PUSH2 0x1EB0 JUMP JUMPDEST JUMPDEST PUSH1 0x0 DUP8 ADD CALLDATALOAD PUSH8 0xFFFFFFFFFFFFFFFF DUP2 GT ISZERO PUSH2 0x2489 JUMPI PUSH2 0x2488 PUSH2 0x1EB5 JUMP JUMPDEST JUMPDEST PUSH2 0x2495 DUP10 DUP3 DUP11 ADD PUSH2 0x23A2 JUMP JUMPDEST SWAP7 POP SWAP7 POP POP PUSH1 0x20 DUP8 ADD CALLDATALOAD PUSH8 0xFFFFFFFFFFFFFFFF DUP2 GT ISZERO PUSH2 0x24B8 JUMPI PUSH2 0x24B7 PUSH2 0x1EB5 JUMP JUMPDEST JUMPDEST PUSH2 0x24C4 DUP10 DUP3 DUP11 ADD PUSH2 0x23A2 JUMP JUMPDEST SWAP5 POP SWAP5 POP POP PUSH1 0x40 DUP8 ADD CALLDATALOAD PUSH8 0xFFFFFFFFFFFFFFFF DUP2 GT ISZERO PUSH2 0x24E7 JUMPI PUSH2 0x24E6 PUSH2 0x1EB5 JUMP JUMPDEST JUMPDEST PUSH2 0x24F3 DUP10 DUP3 DUP11 ADD PUSH2 0x23F8 JUMP JUMPDEST SWAP3 POP SWAP3 POP POP SWAP3 SWAP6 POP SWAP3 SWAP6 POP SWAP3 SWAP6 JUMP JUMPDEST PUSH1 0x0 PUSH2 0x251D PUSH2 0x2518 PUSH2 0x2513 DUP5 PUSH2 0x2095 JUMP JUMPDEST PUSH2 0x201B JUMP JUMPDEST PUSH2 0x1D92 JUMP JUMPDEST SWAP1 POP SWAP2 SWAP1 POP JUMP JUMPDEST PUSH2 0x252D DUP2 PUSH2 0x2502 JUMP JUMPDEST DUP3 MSTORE POP POP JUMP JUMPDEST PUSH1 0x0 PUSH1 0x60 DUP3 ADD SWAP1 POP PUSH2 0x2548 PUSH1 0x0 DUP4 ADD DUP7 PUSH2 0x1DFF JUMP JUMPDEST PUSH2 0x2555 PUSH1 0x20 DUP4 ADD DUP6 PUSH2 0x2524 JUMP JUMPDEST PUSH2 0x2562 PUSH1 0x40 DUP4 ADD DUP5 PUSH2 0x2524 JUMP JUMPDEST SWAP5 SWAP4 POP POP POP POP JUMP JUMPDEST PUSH32 0x4E6F20636C61696D61626C6520616D6F756E7400000000000000000000000000 PUSH1 0x0 DUP3 ADD MSTORE POP JUMP JUMPDEST PUSH1 0x0 PUSH2 0x25A0 PUSH1 0x13 DUP4 PUSH2 0x1E29 JUMP JUMPDEST SWAP2 POP PUSH2 0x25AB DUP3 PUSH2 0x256A JUMP JUMPDEST PUSH1 0x20 DUP3 ADD SWAP1 POP SWAP2 SWAP1 POP JUMP JUMPDEST PUSH1 0x0 PUSH1 0x20 DUP3 ADD SWAP1 POP DUP2 DUP2 SUB PUSH1 0x0 DUP4 ADD MSTORE PUSH2 0x25CF DUP2 PUSH2 0x2593 JUMP JUMPDEST SWAP1 POP SWAP2 SWAP1 POP JUMP JUMPDEST PUSH32 0x496E73756666696369656E742066756E647320696E206A617200000000000000 PUSH1 0x0 DUP3 ADD MSTORE POP JUMP JUMPDEST PUSH1 0x0 PUSH2 0x260C PUSH1 0x19 DUP4 PUSH2 0x1E29 JUMP JUMPDEST SWAP2 POP PUSH2 0x2617 DUP3 PUSH2 0x25D6 JUMP JUMPDEST PUSH1 0x20 DUP3 ADD SWAP1 POP SWAP2 SWAP1 POP JUMP JUMPDEST PUSH1 0x0 PUSH1 0x20 DUP3 ADD SWAP1 POP DUP2 DUP2 SUB PUSH1 0x0 DUP4 ADD MSTORE PUSH2 0x263B DUP2 PUSH2 0x25FF JUMP JUMPDEST SWAP1 POP SWAP2 SWAP1 POP JUMP JUMPDEST PUSH1 0x0 PUSH2 0x264D DUP3 PUSH2 0x1D92 JUMP JUMPDEST SWAP2 POP PUSH2 0x2658 DUP4 PUSH2 0x1D92 JUMP JUMPDEST SWAP3 POP DUP3 DUP3 SUB SWAP1 POP DUP2 DUP2 GT ISZERO PUSH2 0x2670 JUMPI PUSH2 0x266F PUSH2 0x1D9C JUMP JUMPDEST JUMPDEST SWAP3 SWAP2 POP POP JUMP JUMPDEST PUSH1 0x0 DUP2 SWAP1 POP SWAP3 SWAP2 POP POP JUMP JUMPDEST POP JUMP JUMPDEST PUSH1 0x0 PUSH2 0x2691 PUSH1 0x0 DUP4 PUSH2 0x2676 JUMP JUMPDEST SWAP2 POP PUSH2 0x269C DUP3 PUSH2 0x2681 JUMP JUMPDEST PUSH1 0x0 DUP3 ADD SWAP1 POP SWAP2 SWAP1 POP JUMP JUMPDEST PUSH1 0x0 PUSH2 0x26B2 DUP3 PUSH2 0x2684 JUMP JUMPDEST SWAP2 POP DUP2 SWAP1 POP SWAP2 SWAP1 POP JUMP JUMPDEST PUSH32 0x4574686572207472616E73666572206661696C65640000000000000000000000 PUSH1 0x0 DUP3 ADD MSTORE POP JUMP JUMPDEST PUSH1 0x0 PUSH2 0x26F2 PUSH1 0x15 DUP4 PUSH2 0x1E29 JUMP JUMPDEST SWAP2 POP PUSH2 0x26FD DUP3 PUSH2 0x26BC JUMP JUMPDEST PUSH1 0x20 DUP3 ADD SWAP1 POP SWAP2 SWAP1 POP JUMP JUMPDEST PUSH1 0x0 PUSH1 0x20 DUP3 ADD SWAP1 POP DUP2 DUP2 SUB PUSH1 0x0 DUP4 ADD MSTORE PUSH2 0x2721 DUP2 PUSH2 0x26E5 JUMP JUMPDEST SWAP1 POP SWAP2 SWAP1 POP JUMP JUMPDEST PUSH32 0x496E636F727265637420457468657220616D6F756E7400000000000000000000 PUSH1 0x0 DUP3 ADD MSTORE POP JUMP JUMPDEST PUSH1 0x0 PUSH2 0x275E PUSH1 0x16 DUP4 PUSH2 0x1E29 JUMP JUMPDEST SWAP2 POP PUSH2 0x2769 DUP3 PUSH2 0x2728 JUMP JUMPDEST PUSH1 0x20 DUP3 ADD SWAP1 POP SWAP2 SWAP1 POP JUMP JUMPDEST PUSH1 0x0 PUSH1 0x20 DUP3 ADD SWAP1 POP DUP2 DUP2 SUB PUSH1 0x0 DUP4 ADD MSTORE PUSH2 0x278D DUP2 PUSH2 0x2751 JUMP JUMPDEST SWAP1 POP SWAP2 SWAP1 POP JUMP JUMPDEST PUSH32 0x4465706F73697420616D6F756E74206D75737420626520677265617465722074 PUSH1 0x0 DUP3 ADD MSTORE PUSH32 0x68616E207A65726F000000000000000000000000000000000000000000000000 PUSH1 0x20 DUP3 ADD MSTORE POP JUMP JUMPDEST PUSH1 0x0 PUSH2 0x27F0 PUSH1 0x28 DUP4 PUSH2 0x1E29 JUMP JUMPDEST SWAP2 POP PUSH2 0x27FB DUP3 PUSH2 0x2794 JUMP JUMPDEST PUSH1 0x40 DUP3 ADD SWAP1 POP SWAP2 SWAP1 POP JUMP JUMPDEST PUSH1 0x0 PUSH1 0x20 DUP3 ADD SWAP1 POP DUP2 DUP2 SUB PUSH1 0x0 DUP4 ADD MSTORE PUSH2 0x281F DUP2 PUSH2 0x27E3 JUMP JUMPDEST SWAP1 POP SWAP2 SWAP1 POP JUMP JUMPDEST PUSH1 0x0 DUP2 SWAP1 POP SWAP2 SWAP1 POP JUMP JUMPDEST PUSH1 0x0 PUSH2 0x284B PUSH2 0x2846 PUSH2 0x2841 DUP5 PUSH2 0x2826 JUMP JUMPDEST PUSH2 0x201B JUMP JUMPDEST PUSH2 0x2095 JUMP JUMPDEST SWAP1 POP SWAP2 SWAP1 POP JUMP JUMPDEST PUSH2 0x285B DUP2 PUSH2 0x2830 JUMP JUMPDEST DUP3 MSTORE POP POP JUMP JUMPDEST PUSH1 0x0 PUSH1 0x20 DUP3 ADD SWAP1 POP PUSH2 0x2876 PUSH1 0x0 DUP4 ADD DUP5 PUSH2 0x2852 JUMP JUMPDEST SWAP3 SWAP2 POP POP JUMP JUMPDEST PUSH32 0x4E487B7100000000000000000000000000000000000000000000000000000000 PUSH1 0x0 MSTORE PUSH1 0x22 PUSH1 0x4 MSTORE PUSH1 0x24 PUSH1 0x0 REVERT JUMPDEST PUSH1 0x0 PUSH1 0x2 DUP3 DIV SWAP1 POP PUSH1 0x1 DUP3 AND DUP1 PUSH2 0x28C3 JUMPI PUSH1 0x7F DUP3 AND SWAP2 POP JUMPDEST PUSH1 0x20 DUP3 LT DUP2 SUB PUSH2 0x28D6 JUMPI PUSH2 0x28D5 PUSH2 0x287C JUMP JUMPDEST JUMPDEST POP SWAP2 SWAP1 POP JUMP JUMPDEST PUSH1 0x0 DUP2 ISZERO ISZERO SWAP1 POP SWAP2 SWAP1 POP JUMP JUMPDEST PUSH2 0x28F1 DUP2 PUSH2 0x28DC JUMP JUMPDEST DUP2 EQ PUSH2 0x28FC JUMPI PUSH1 0x0 DUP1 REVERT JUMPDEST POP JUMP JUMPDEST PUSH1 0x0 DUP2 MLOAD SWAP1 POP PUSH2 0x290E DUP2 PUSH2 0x28E8 JUMP JUMPDEST SWAP3 SWAP2 POP POP JUMP JUMPDEST PUSH1 0x0 PUSH1 0x20 DUP3 DUP5 SUB SLT ISZERO PUSH2 0x292A JUMPI PUSH2 0x2929 PUSH2 0x1EB0 JUMP JUMPDEST JUMPDEST PUSH1 0x0 PUSH2 0x2938 DUP5 DUP3 DUP6 ADD PUSH2 0x28FF JUMP JUMPDEST SWAP2 POP POP SWAP3 SWAP2 POP POP JUMP JUMPDEST PUSH32 0x43616C6C6572206973206E6F7420616E2061646D696E00000000000000000000 PUSH1 0x0 DUP3 ADD MSTORE POP JUMP JUMPDEST PUSH1 0x0 PUSH2 0x2977 PUSH1 0x16 DUP4 PUSH2 0x1E29 JUMP JUMPDEST SWAP2 POP PUSH2 0x2982 DUP3 PUSH2 0x2941 JUMP JUMPDEST PUSH1 0x20 DUP3 ADD SWAP1 POP SWAP2 SWAP1 POP JUMP JUMPDEST PUSH1 0x0 PUSH1 0x20 DUP3 ADD SWAP1 POP DUP2 DUP2 SUB PUSH1 0x0 DUP4 ADD MSTORE PUSH2 0x29A6 DUP2 PUSH2 0x296A JUMP JUMPDEST SWAP1 POP SWAP2 SWAP1 POP JUMP JUMPDEST PUSH32 0x53746172742074696D65206D757374206265206265666F726520656E64207469 PUSH1 0x0 DUP3 ADD MSTORE PUSH32 0x6D65000000000000000000000000000000000000000000000000000000000000 PUSH1 0x20 DUP3 ADD MSTORE POP JUMP JUMPDEST PUSH1 0x0 PUSH2 0x2A09 PUSH1 0x22 DUP4 PUSH2 0x1E29 JUMP JUMPDEST SWAP2 POP PUSH2 0x2A14 DUP3 PUSH2 0x29AD JUMP JUMPDEST PUSH1 0x40 DUP3 ADD SWAP1 POP SWAP2 SWAP1 POP JUMP JUMPDEST PUSH1 0x0 PUSH1 0x20 DUP3 ADD SWAP1 POP DUP2 DUP2 SUB PUSH1 0x0 DUP4 ADD MSTORE PUSH2 0x2A38 DUP2 PUSH2 0x29FC JUMP JUMPDEST SWAP1 POP SWAP2 SWAP1 POP JUMP JUMPDEST PUSH1 0x0 DUP2 SWAP1 POP DUP2 PUSH1 0x0 MSTORE PUSH1 0x20 PUSH1 0x0 KECCAK256 SWAP1 POP SWAP2 SWAP1 POP JUMP JUMPDEST PUSH1 0x0 PUSH1 0x20 PUSH1 0x1F DUP4 ADD DIV SWAP1 POP SWAP2 SWAP1 POP JUMP JUMPDEST PUSH1 0x0 DUP3 DUP3 SHL SWAP1 POP SWAP3 SWAP2 POP POP JUMP JUMPDEST PUSH1 0x0 PUSH1 0x8 DUP4 MUL PUSH2 0x2AA1 PUSH32 0xFFFFFFFFFFFFFFFFFFFFFFFFFFFFFFFFFFFFFFFFFFFFFFFFFFFFFFFFFFFFFFFF DUP3 PUSH2 0x2A64 JUMP JUMPDEST PUSH2 0x2AAB DUP7 DUP4 PUSH2 0x2A64 JUMP JUMPDEST SWAP6 POP DUP1 NOT DUP5 AND SWAP4 POP DUP1 DUP7 AND DUP5 OR SWAP3 POP POP POP SWAP4 SWAP3 POP POP POP JUMP JUMPDEST PUSH1 0x0 PUSH2 0x2ADE PUSH2 0x2AD9 PUSH2 0x2AD4 DUP5 PUSH2 0x1D92 JUMP JUMPDEST PUSH2 0x201B JUMP JUMPDEST PUSH2 0x1D92 JUMP JUMPDEST SWAP1 POP SWAP2 SWAP1 POP JUMP JUMPDEST PUSH1 0x0 DUP2 SWAP1 POP SWAP2 SWAP1 POP JUMP JUMPDEST PUSH2 0x2AF8 DUP4 PUSH2 0x2AC3 JUMP JUMPDEST PUSH2 0x2B0C PUSH2 0x2B04 DUP3 PUSH2 0x2AE5 JUMP JUMPDEST DUP5 DUP5 SLOAD PUSH2 0x2A71 JUMP JUMPDEST DUP3 SSTORE POP POP POP POP JUMP JUMPDEST PUSH1 0x0 SWAP1 JUMP JUMPDEST PUSH2 0x2B21 PUSH2 0x2B14 JUMP JUMPDEST PUSH2 0x2B2C DUP2 DUP5 DUP5 PUSH2 0x2AEF JUMP JUMPDEST POP POP POP JUMP JUMPDEST JUMPDEST DUP2 DUP2 LT ISZERO PUSH2 0x2B50 JUMPI PUSH2 0x2B45 PUSH1 0x0 DUP3 PUSH2 0x2B19 JUMP JUMPDEST PUSH1 0x1 DUP2 ADD SWAP1 POP PUSH2 0x2B32 JUMP JUMPDEST POP POP JUMP JUMPDEST PUSH1 0x1F DUP3 GT ISZERO PUSH2 0x2B95 JUMPI PUSH2 0x2B66 DUP2 PUSH2 0x2A3F JUMP JUMPDEST PUSH2 0x2B6F DUP5 PUSH2 0x2A54 JUMP JUMPDEST DUP2 ADD PUSH1 0x20 DUP6 LT ISZERO PUSH2 0x2B7E JUMPI DUP2 SWAP1 POP JUMPDEST PUSH2 0x2B92 PUSH2 0x2B8A DUP6 PUSH2 0x2A54 JUMP JUMPDEST DUP4 ADD DUP3 PUSH2 0x2B31 JUMP JUMPDEST POP POP JUMPDEST POP POP POP JUMP JUMPDEST PUSH1 0x0 DUP3 DUP3 SHR SWAP1 POP SWAP3 SWAP2 POP POP JUMP JUMPDEST PUSH1 0x0 PUSH2 0x2BB8 PUSH1 0x0 NOT DUP5 PUSH1 0x8 MUL PUSH2 0x2B9A JUMP JUMPDEST NOT DUP1 DUP4 AND SWAP2 POP POP SWAP3 SWAP2 POP POP JUMP JUMPDEST PUSH1 0x0 PUSH2 0x2BD1 DUP4 DUP4 PUSH2 0x2BA7 JUMP JUMPDEST SWAP2 POP DUP3 PUSH1 0x2 MUL DUP3 OR SWAP1 POP SWAP3 SWAP2 POP POP JUMP JUMPDEST PUSH2 0x2BEA DUP3 PUSH2 0x20B8 JUMP JUMPDEST PUSH8 0xFFFFFFFFFFFFFFFF DUP2 GT ISZERO PUSH2 0x2C03 JUMPI PUSH2 0x2C02 PUSH2 0x21AB JUMP JUMPDEST JUMPDEST PUSH2 0x2C0D DUP3 SLOAD PUSH2 0x28AB JUMP JUMPDEST PUSH2 0x2C18 DUP3 DUP3 DUP6 PUSH2 0x2B54 JUMP JUMPDEST PUSH1 0x0 PUSH1 0x20 SWAP1 POP PUSH1 0x1F DUP4 GT PUSH1 0x1 DUP2 EQ PUSH2 0x2C4B JUMPI PUSH1 0x0 DUP5 ISZERO PUSH2 0x2C39 JUMPI DUP3 DUP8 ADD MLOAD SWAP1 POP JUMPDEST PUSH2 0x2C43 DUP6 DUP3 PUSH2 0x2BC5 JUMP JUMPDEST DUP7 SSTORE POP PUSH2 0x2CAB JUMP JUMPDEST PUSH1 0x1F NOT DUP5 AND PUSH2 0x2C59 DUP7 PUSH2 0x2A3F JUMP JUMPDEST PUSH1 0x0 JUMPDEST DUP3 DUP2 LT ISZERO PUSH2 0x2C81 JUMPI DUP5 DUP10 ADD MLOAD DUP3 SSTORE PUSH1 0x1 DUP3 ADD SWAP2 POP PUSH1 0x20 DUP6 ADD SWAP5 POP PUSH1 0x20 DUP2 ADD SWAP1 POP PUSH2 0x2C5C JUMP JUMPDEST DUP7 DUP4 LT ISZERO PUSH2 0x2C9E JUMPI DUP5 DUP10 ADD MLOAD PUSH2 0x2C9A PUSH1 0x1F DUP10 AND DUP3 PUSH2 0x2BA7 JUMP JUMPDEST DUP4 SSTORE POP JUMPDEST PUSH1 0x1 PUSH1 0x2 DUP9 MUL ADD DUP9 SSTORE POP POP POP JUMPDEST POP POP POP POP POP POP JUMP JUMPDEST PUSH1 0x0 PUSH1 0x60 DUP3 ADD SWAP1 POP PUSH2 0x2CC8 PUSH1 0x0 DUP4 ADD DUP7 PUSH2 0x2524 JUMP JUMPDEST PUSH2 0x2CD5 PUSH1 0x20 DUP4 ADD DUP6 PUSH2 0x2524 JUMP JUMPDEST DUP2 DUP2 SUB PUSH1 0x40 DUP4 ADD MSTORE PUSH2 0x2CE7 DUP2 DUP5 PUSH2 0x20FE JUMP JUMPDEST SWAP1 POP SWAP5 SWAP4 POP POP POP POP JUMP JUMPDEST PUSH32 0x5A65726F20616464726573732075736572000000000000000000000000000000 PUSH1 0x0 DUP3 ADD MSTORE POP JUMP JUMPDEST PUSH1 0x0 PUSH2 0x2D27 PUSH1 0x11 DUP4 PUSH2 0x1E29 JUMP JUMPDEST SWAP2 POP PUSH2 0x2D32 DUP3 PUSH2 0x2CF1 JUMP JUMPDEST PUSH1 0x20 DUP3 ADD SWAP1 POP SWAP2 SWAP1 POP JUMP JUMPDEST PUSH1 0x0 PUSH1 0x20 DUP3 ADD SWAP1 POP DUP2 DUP2 SUB PUSH1 0x0 DUP4 ADD MSTORE PUSH2 0x2D56 DUP2 PUSH2 0x2D1A JUMP JUMPDEST SWAP1 POP SWAP2 SWAP1 POP JUMP JUMPDEST PUSH32 0x4D69736D617463686564206172726179206C656E677468730000000000000000 PUSH1 0x0 DUP3 ADD MSTORE POP JUMP JUMPDEST PUSH1 0x0 PUSH2 0x2D93 PUSH1 0x18 DUP4 PUSH2 0x1E29 JUMP JUMPDEST SWAP2 POP PUSH2 0x2D9E DUP3 PUSH2 0x2D5D JUMP JUMPDEST PUSH1 0x20 DUP3 ADD SWAP1 POP SWAP2 SWAP1 POP JUMP JUMPDEST PUSH1 0x0 PUSH1 0x20 DUP3 ADD SWAP1 POP DUP2 DUP2 SUB PUSH1 0x0 DUP4 ADD MSTORE PUSH2 0x2DC2 DUP2 PUSH2 0x2D86 JUMP JUMPDEST SWAP1 POP SWAP2 SWAP1 POP JUMP JUMPDEST PUSH32 0x4E487B7100000000000000000000000000000000000000000000000000000000 PUSH1 0x0 MSTORE PUSH1 0x32 PUSH1 0x4 MSTORE PUSH1 0x24 PUSH1 0x0 REVERT JUMPDEST PUSH32 0x5769746864726177616C20616D6F756E74206D75737420626520677265617465 PUSH1 0x0 DUP3 ADD MSTORE PUSH32 0x72207468616E207A65726F000000000000000000000000000000000000000000 PUSH1 0x20 DUP3 ADD MSTORE POP JUMP JUMPDEST PUSH1 0x0 PUSH2 0x2E54 PUSH1 0x2B DUP4 PUSH2 0x1E29 JUMP JUMPDEST SWAP2 POP PUSH2 0x2E5F DUP3 PUSH2 0x2DF8 JUMP JUMPDEST PUSH1 0x40 DUP3 ADD SWAP1 POP SWAP2 SWAP1 POP JUMP JUMPDEST PUSH1 0x0 PUSH1 0x20 DUP3 ADD SWAP1 POP DUP2 DUP2 SUB PUSH1 0x0 DUP4 ADD MSTORE PUSH2 0x2E83 DUP2 PUSH2 0x2E47 JUMP JUMPDEST SWAP1 POP SWAP2 SWAP1 POP JUMP JUMPDEST PUSH32 0x496E73756666696369656E742066756E64730000000000000000000000000000 PUSH1 0x0 DUP3 ADD MSTORE POP JUMP JUMPDEST PUSH1 0x0 PUSH2 0x2EC0 PUSH1 0x12 DUP4 PUSH2 0x1E29 JUMP JUMPDEST SWAP2 POP PUSH2 0x2ECB DUP3 PUSH2 0x2E8A JUMP JUMPDEST PUSH1 0x20 DUP3 ADD SWAP1 POP SWAP2 SWAP1 POP JUMP JUMPDEST PUSH1 0x0 PUSH1 0x20 DUP3 ADD SWAP1 POP DUP2 DUP2 SUB PUSH1 0x0 DUP4 ADD MSTORE PUSH2 0x2EEF DUP2 PUSH2 0x2EB3 JUMP JUMPDEST SWAP1 POP SWAP2 SWAP1 POP JUMP JUMPDEST PUSH32 0x5265656E7472616E637947756172643A207265656E7472616E742063616C6C00 PUSH1 0x0 DUP3 ADD MSTORE POP JUMP JUMPDEST PUSH1 0x0 PUSH2 0x2F2C PUSH1 0x1F DUP4 PUSH2 0x1E29 JUMP JUMPDEST SWAP2 POP PUSH2 0x2F37 DUP3 PUSH2 0x2EF6 JUMP JUMPDEST PUSH1 0x20 DUP3 ADD SWAP1 POP SWAP2 SWAP1 POP JUMP JUMPDEST PUSH1 0x0 PUSH1 0x20 DUP3 ADD SWAP1 POP DUP2 DUP2 SUB PUSH1 0x0 DUP4 ADD MSTORE PUSH2 0x2F5B DUP2 PUSH2 0x2F1F JUMP JUMPDEST SWAP1 POP SWAP2 SWAP1 POP JUMP JUMPDEST PUSH1 0x0 PUSH1 0x40 DUP3 ADD SWAP1 POP PUSH2 0x2F77 PUSH1 0x0 DUP4 ADD DUP6 PUSH2 0x1F45 JUMP JUMPDEST PUSH2 0x2F84 PUSH1 0x20 DUP4 ADD DUP5 PUSH2 0x1DFF JUMP JUMPDEST SWAP4 SWAP3 POP POP POP JUMP JUMPDEST PUSH1 0x0 PUSH1 0x60 DUP3 ADD SWAP1 POP PUSH2 0x2FA0 PUSH1 0x0 DUP4 ADD DUP7 PUSH2 0x1F45 JUMP JUMPDEST PUSH2 0x2FAD PUSH1 0x20 DUP4 ADD DUP6 PUSH2 0x1F45 JUMP JUMPDEST PUSH2 0x2FBA PUSH1 0x40 DUP4 ADD DUP5 PUSH2 0x1DFF JUMP JUMPDEST SWAP5 SWAP4 POP POP POP POP JUMP INVALID LOG2 PUSH5 0x6970667358 0x22 SLT KECCAK256 PUSH23 0xBCC156C65DFA0AF393912351E7F6495699685159B20667 DUP3 SWAP5 DUP14 MULMOD 0xFC SWAP8 DUP3 0xBA PUSH5 0x736F6C6343 STOP ADDMOD SAR STOP CALLER "
		},
		"gasEstimates": {
			"creation": {
				"codeDepositCost": "2456000",
				"executionCost": "2643",
				"totalCost": "2458643"
			},
			"external": {
				"": "474",
				"NATIVE_TOKEN()": "424",
				"allowedAmounts(address,address)": "infinite",
				"bulkSetAllowedAmount(address[],address[],uint256[])": "infinite",
				"claim(address)": "infinite",
				"currentRound()": "infinite",
				"deposit(address,uint256)": "infinite",
				"initialize(address,address)": "infinite",
				"owner()": "2599",
				"renounceOwnership()": "infinite",
				"scorer()": "infinite",
				"setAllowedAmount(address,address,uint256)": "infinite",
				"setRound(uint64,uint64,string)": "infinite",
				"totalBalances(address)": "2903",
				"transferOwnership(address)": "infinite",
				"withdraw(address,uint256)": "infinite"
			}
		},
		"methodIdentifiers": {
			"NATIVE_TOKEN()": "31f7d964",
			"allowedAmounts(address,address)": "a9590e8a",
			"bulkSetAllowedAmount(address[],address[],uint256[])": "c5d60b51",
			"claim(address)": "1e83409a",
			"currentRound()": "8a19c8bc",
			"deposit(address,uint256)": "47e7ef24",
			"initialize(address,address)": "485cc955",
			"owner()": "8da5cb5b",
			"renounceOwnership()": "715018a6",
			"scorer()": "85c758f7",
			"setAllowedAmount(address,address,uint256)": "b807a3c4",
			"setRound(uint64,uint64,string)": "a9012c89",
			"totalBalances(address)": "aee9c872",
			"transferOwnership(address)": "f2fde38b",
			"withdraw(address,uint256)": "f3fef3a3"
		}
	},
	"abi": [
		{
			"inputs": [],
			"name": "InvalidInitialization",
			"type": "error"
		},
		{
			"inputs": [],
			"name": "NotInitializing",
			"type": "error"
		},
		{
			"inputs": [
				{
					"internalType": "uint256",
					"name": "currentTime",
					"type": "uint256"
				},
				{
					"internalType": "uint256",
					"name": "start",
					"type": "uint256"
				},
				{
					"internalType": "uint256",
					"name": "end",
					"type": "uint256"
				}
			],
			"name": "NotWithinRound",
			"type": "error"
		},
		{
			"inputs": [
				{
					"internalType": "address",
					"name": "owner",
					"type": "address"
				}
			],
			"name": "OwnableInvalidOwner",
			"type": "error"
		},
		{
			"inputs": [
				{
					"internalType": "address",
					"name": "account",
					"type": "address"
				}
			],
			"name": "OwnableUnauthorizedAccount",
			"type": "error"
		},
		{
			"inputs": [
				{
					"internalType": "address",
					"name": "token",
					"type": "address"
				}
			],
			"name": "SafeERC20FailedOperation",
			"type": "error"
		},
		{
			"anonymous": false,
			"inputs": [
				{
					"indexed": true,
					"internalType": "address",
					"name": "user",
					"type": "address"
				},
				{
					"indexed": true,
					"internalType": "address",
					"name": "token",
					"type": "address"
				},
				{
					"indexed": false,
					"internalType": "uint256",
					"name": "newAmount",
					"type": "uint256"
				}
			],
			"name": "AllowedAmountUpdated",
			"type": "event"
		},
		{
			"anonymous": false,
			"inputs": [
				{
					"indexed": true,
					"internalType": "address",
					"name": "claimant",
					"type": "address"
				},
				{
					"indexed": true,
					"internalType": "address",
					"name": "token",
					"type": "address"
				},
				{
					"indexed": false,
					"internalType": "uint256",
					"name": "amount",
					"type": "uint256"
				}
			],
			"name": "Claimed",
			"type": "event"
		},
		{
			"anonymous": false,
			"inputs": [
				{
					"indexed": true,
					"internalType": "address",
					"name": "depositor",
					"type": "address"
				},
				{
					"indexed": true,
					"internalType": "address",
					"name": "token",
					"type": "address"
				},
				{
					"indexed": false,
					"internalType": "uint256",
					"name": "amount",
					"type": "uint256"
				}
			],
			"name": "Deposit",
			"type": "event"
		},
		{
			"anonymous": false,
			"inputs": [
				{
					"indexed": false,
					"internalType": "uint64",
					"name": "version",
					"type": "uint64"
				}
			],
			"name": "Initialized",
			"type": "event"
		},
		{
			"anonymous": false,
			"inputs": [
				{
					"indexed": true,
					"internalType": "address",
					"name": "previousOwner",
					"type": "address"
				},
				{
					"indexed": true,
					"internalType": "address",
					"name": "newOwner",
					"type": "address"
				}
			],
			"name": "OwnershipTransferred",
			"type": "event"
		},
		{
			"anonymous": false,
			"inputs": [
				{
					"indexed": false,
					"internalType": "uint256",
					"name": "start",
					"type": "uint256"
				},
				{
					"indexed": false,
					"internalType": "uint256",
					"name": "end",
					"type": "uint256"
				},
				{
					"indexed": false,
					"internalType": "string",
					"name": "metadataURI",
					"type": "string"
				}
			],
			"name": "RoundUpdated",
			"type": "event"
		},
		{
			"anonymous": false,
			"inputs": [
				{
					"indexed": true,
					"internalType": "address",
					"name": "withdrawer",
					"type": "address"
				},
				{
					"indexed": true,
					"internalType": "address",
					"name": "token",
					"type": "address"
				},
				{
					"indexed": false,
					"internalType": "uint256",
					"name": "amount",
					"type": "uint256"
				}
			],
			"name": "Withdraw",
			"type": "event"
		},
		{
			"stateMutability": "payable",
			"type": "fallback"
		},
		{
			"inputs": [],
			"name": "NATIVE_TOKEN",
			"outputs": [
				{
					"internalType": "address",
					"name": "",
					"type": "address"
				}
			],
			"stateMutability": "view",
			"type": "function"
		},
		{
			"inputs": [
				{
					"internalType": "address",
					"name": "",
					"type": "address"
				},
				{
					"internalType": "address",
					"name": "",
					"type": "address"
				}
			],
			"name": "allowedAmounts",
			"outputs": [
				{
					"internalType": "uint256",
					"name": "",
					"type": "uint256"
				}
			],
			"stateMutability": "view",
			"type": "function"
		},
		{
			"inputs": [
				{
					"internalType": "address[]",
					"name": "tokens",
					"type": "address[]"
				},
				{
					"internalType": "address[]",
					"name": "users",
					"type": "address[]"
				},
				{
					"internalType": "uint256[]",
					"name": "amounts",
					"type": "uint256[]"
				}
			],
			"name": "bulkSetAllowedAmount",
			"outputs": [],
			"stateMutability": "nonpayable",
			"type": "function"
		},
		{
			"inputs": [
				{
					"internalType": "address",
					"name": "token",
					"type": "address"
				}
			],
			"name": "claim",
			"outputs": [],
			"stateMutability": "nonpayable",
			"type": "function"
		},
		{
			"inputs": [],
			"name": "currentRound",
			"outputs": [
				{
					"internalType": "uint64",
					"name": "start",
					"type": "uint64"
				},
				{
					"internalType": "uint64",
					"name": "end",
					"type": "uint64"
				},
				{
					"internalType": "string",
					"name": "metadataURI",
					"type": "string"
				}
			],
			"stateMutability": "view",
			"type": "function"
		},
		{
			"inputs": [
				{
					"internalType": "address",
					"name": "token",
					"type": "address"
				},
				{
					"internalType": "uint256",
					"name": "amount",
					"type": "uint256"
				}
			],
			"name": "deposit",
			"outputs": [],
			"stateMutability": "payable",
			"type": "function"
		},
		{
			"inputs": [
				{
					"internalType": "address",
					"name": "_scorer",
					"type": "address"
				},
				{
					"internalType": "address",
					"name": "owner",
					"type": "address"
				}
			],
			"name": "initialize",
			"outputs": [],
			"stateMutability": "nonpayable",
			"type": "function"
		},
		{
			"inputs": [],
			"name": "owner",
			"outputs": [
				{
					"internalType": "address",
					"name": "",
					"type": "address"
				}
			],
			"stateMutability": "view",
			"type": "function"
		},
		{
			"inputs": [],
			"name": "renounceOwnership",
			"outputs": [],
			"stateMutability": "nonpayable",
			"type": "function"
		},
		{
			"inputs": [],
			"name": "scorer",
			"outputs": [
				{
					"internalType": "contract IScorer",
					"name": "",
					"type": "address"
				}
			],
			"stateMutability": "view",
			"type": "function"
		},
		{
			"inputs": [
				{
					"internalType": "address",
					"name": "user",
					"type": "address"
				},
				{
					"internalType": "address",
					"name": "token",
					"type": "address"
				},
				{
					"internalType": "uint256",
					"name": "amount",
					"type": "uint256"
				}
			],
			"name": "setAllowedAmount",
			"outputs": [],
			"stateMutability": "nonpayable",
			"type": "function"
		},
		{
			"inputs": [
				{
					"internalType": "uint64",
					"name": "start",
					"type": "uint64"
				},
				{
					"internalType": "uint64",
					"name": "end",
					"type": "uint64"
				},
				{
					"internalType": "string",
					"name": "metadataURI",
					"type": "string"
				}
			],
			"name": "setRound",
			"outputs": [],
			"stateMutability": "nonpayable",
			"type": "function"
		},
		{
			"inputs": [
				{
					"internalType": "address",
					"name": "",
					"type": "address"
				}
			],
			"name": "totalBalances",
			"outputs": [
				{
					"internalType": "uint256",
					"name": "",
					"type": "uint256"
				}
			],
			"stateMutability": "view",
			"type": "function"
		},
		{
			"inputs": [
				{
					"internalType": "address",
					"name": "newOwner",
					"type": "address"
				}
			],
			"name": "transferOwnership",
			"outputs": [],
			"stateMutability": "nonpayable",
			"type": "function"
		},
		{
			"inputs": [
				{
					"internalType": "address",
					"name": "token",
					"type": "address"
				},
				{
					"internalType": "uint256",
					"name": "amount",
					"type": "uint256"
				}
			],
			"name": "withdraw",
			"outputs": [],
			"stateMutability": "nonpayable",
			"type": "function"
		},
		{
			"stateMutability": "payable",
			"type": "receive"
		}
	]
}